{
	"NftContract.sol": {
		"BottleNft": {
			"abi": [
				{
					"inputs": [
						{
							"internalType": "string",
							"name": "_name",
							"type": "string"
						},
						{
							"internalType": "string",
							"name": "_symbol",
							"type": "string"
						},
						{
							"internalType": "string",
							"name": "_base",
							"type": "string"
						},
						{
							"internalType": "uint96",
							"name": "_fees",
							"type": "uint96"
						}
					],
					"stateMutability": "nonpayable",
					"type": "constructor"
				},
				{
					"anonymous": false,
					"inputs": [
						{
							"indexed": true,
							"internalType": "address",
							"name": "owner",
							"type": "address"
						},
						{
							"indexed": true,
							"internalType": "address",
							"name": "spender",
							"type": "address"
						},
						{
							"indexed": true,
							"internalType": "uint256",
							"name": "id",
							"type": "uint256"
						}
					],
					"name": "Approval",
					"type": "event"
				},
				{
					"anonymous": false,
					"inputs": [
						{
							"indexed": true,
							"internalType": "address",
							"name": "owner",
							"type": "address"
						},
						{
							"indexed": true,
							"internalType": "address",
							"name": "operator",
							"type": "address"
						},
						{
							"indexed": false,
							"internalType": "bool",
							"name": "approved",
							"type": "bool"
						}
					],
					"name": "ApprovalForAll",
					"type": "event"
				},
				{
					"anonymous": false,
					"inputs": [
						{
							"indexed": true,
							"internalType": "address",
							"name": "previousOwner",
							"type": "address"
						},
						{
							"indexed": true,
							"internalType": "address",
							"name": "newOwner",
							"type": "address"
						}
					],
					"name": "OwnershipTransfered",
					"type": "event"
				},
				{
					"anonymous": false,
					"inputs": [
						{
							"indexed": true,
							"internalType": "address",
							"name": "from",
							"type": "address"
						},
						{
							"indexed": true,
							"internalType": "address",
							"name": "to",
							"type": "address"
						},
						{
							"indexed": true,
							"internalType": "uint256",
							"name": "id",
							"type": "uint256"
						}
					],
					"name": "Transfer",
					"type": "event"
				},
				{
					"inputs": [
						{
							"internalType": "address",
							"name": "_minter",
							"type": "address"
						},
						{
							"internalType": "bool",
							"name": "status",
							"type": "bool"
						}
					],
					"name": "allowMint",
					"outputs": [],
					"stateMutability": "nonpayable",
					"type": "function"
				},
				{
					"inputs": [
						{
							"internalType": "address",
							"name": "spender",
							"type": "address"
						},
						{
							"internalType": "uint256",
							"name": "id",
							"type": "uint256"
						}
					],
					"name": "approve",
					"outputs": [],
					"stateMutability": "nonpayable",
					"type": "function"
				},
				{
					"inputs": [
						{
							"internalType": "address",
							"name": "",
							"type": "address"
						}
					],
					"name": "balanceOf",
					"outputs": [
						{
							"internalType": "uint256",
							"name": "",
							"type": "uint256"
						}
					],
					"stateMutability": "view",
					"type": "function"
				},
				{
					"inputs": [],
					"name": "baseURI",
					"outputs": [
						{
							"internalType": "string",
							"name": "",
							"type": "string"
						}
					],
					"stateMutability": "view",
					"type": "function"
				},
				{
					"inputs": [
						{
							"internalType": "uint256",
							"name": "_salePrice",
							"type": "uint256"
						}
					],
					"name": "calculateRoyalty",
					"outputs": [
						{
							"internalType": "uint256",
							"name": "",
							"type": "uint256"
						}
					],
					"stateMutability": "view",
					"type": "function"
				},
				{
					"inputs": [
						{
							"internalType": "uint256",
							"name": "",
							"type": "uint256"
						}
					],
					"name": "getApproved",
					"outputs": [
						{
							"internalType": "address",
							"name": "",
							"type": "address"
						}
					],
					"stateMutability": "view",
					"type": "function"
				},
				{
					"inputs": [
						{
							"internalType": "address",
							"name": "",
							"type": "address"
						},
						{
							"internalType": "address",
							"name": "",
							"type": "address"
						}
					],
					"name": "isApprovedForAll",
					"outputs": [
						{
							"internalType": "bool",
							"name": "",
							"type": "bool"
						}
					],
					"stateMutability": "view",
					"type": "function"
				},
				{
					"inputs": [
						{
							"internalType": "address",
							"name": "to",
							"type": "address"
						},
						{
							"internalType": "uint64",
							"name": "amount",
							"type": "uint64"
						}
					],
					"name": "mintMany",
					"outputs": [],
					"stateMutability": "nonpayable",
					"type": "function"
				},
				{
					"inputs": [
						{
							"internalType": "address",
							"name": "to",
							"type": "address"
						}
					],
					"name": "mintOne",
					"outputs": [],
					"stateMutability": "nonpayable",
					"type": "function"
				},
				{
					"inputs": [],
					"name": "name",
					"outputs": [
						{
							"internalType": "string",
							"name": "",
							"type": "string"
						}
					],
					"stateMutability": "view",
					"type": "function"
				},
				{
					"inputs": [],
					"name": "owner",
					"outputs": [
						{
							"internalType": "address",
							"name": "",
							"type": "address"
						}
					],
					"stateMutability": "view",
					"type": "function"
				},
				{
					"inputs": [
						{
							"internalType": "uint256",
							"name": "",
							"type": "uint256"
						}
					],
					"name": "ownerOf",
					"outputs": [
						{
							"internalType": "address",
							"name": "",
							"type": "address"
						}
					],
					"stateMutability": "view",
					"type": "function"
				},
				{
					"inputs": [],
					"name": "royaltyAddress",
					"outputs": [
						{
							"internalType": "address",
							"name": "",
							"type": "address"
						}
					],
					"stateMutability": "view",
					"type": "function"
				},
				{
					"inputs": [],
					"name": "royaltyFeesInBips",
					"outputs": [
						{
							"internalType": "uint96",
							"name": "",
							"type": "uint96"
						}
					],
					"stateMutability": "view",
					"type": "function"
				},
				{
					"inputs": [
						{
							"internalType": "uint256",
							"name": "_tokenId",
							"type": "uint256"
						},
						{
							"internalType": "uint256",
							"name": "_salePrice",
							"type": "uint256"
						}
					],
					"name": "royaltyInfo",
					"outputs": [
						{
							"internalType": "address",
							"name": "",
							"type": "address"
						},
						{
							"internalType": "uint256",
							"name": "",
							"type": "uint256"
						}
					],
					"stateMutability": "view",
					"type": "function"
				},
				{
					"inputs": [
						{
							"internalType": "address",
							"name": "from",
							"type": "address"
						},
						{
							"internalType": "address",
							"name": "to",
							"type": "address"
						},
						{
							"internalType": "uint256",
							"name": "id",
							"type": "uint256"
						}
					],
					"name": "safeTransferFrom",
					"outputs": [],
					"stateMutability": "nonpayable",
					"type": "function"
				},
				{
					"inputs": [
						{
							"internalType": "address",
							"name": "from",
							"type": "address"
						},
						{
							"internalType": "address",
							"name": "to",
							"type": "address"
						},
						{
							"internalType": "uint256",
							"name": "id",
							"type": "uint256"
						},
						{
							"internalType": "bytes",
							"name": "data",
							"type": "bytes"
						}
					],
					"name": "safeTransferFrom",
					"outputs": [],
					"stateMutability": "nonpayable",
					"type": "function"
				},
				{
					"inputs": [
						{
							"internalType": "address",
							"name": "operator",
							"type": "address"
						},
						{
							"internalType": "bool",
							"name": "approved",
							"type": "bool"
						}
					],
					"name": "setApprovalForAll",
					"outputs": [],
					"stateMutability": "nonpayable",
					"type": "function"
				},
				{
					"inputs": [
						{
							"internalType": "address",
							"name": "_royaltyAddress",
							"type": "address"
						},
						{
							"internalType": "uint96",
							"name": "_royaltyFeesInBips",
							"type": "uint96"
						}
					],
					"name": "setRoyaltyInfo",
					"outputs": [],
					"stateMutability": "nonpayable",
					"type": "function"
				},
				{
					"inputs": [
						{
							"internalType": "bytes4",
							"name": "interfaceId",
							"type": "bytes4"
						}
					],
					"name": "supportsInterface",
					"outputs": [
						{
							"internalType": "bool",
							"name": "",
							"type": "bool"
						}
					],
					"stateMutability": "view",
					"type": "function"
				},
				{
					"inputs": [],
					"name": "symbol",
					"outputs": [
						{
							"internalType": "string",
							"name": "",
							"type": "string"
						}
					],
					"stateMutability": "view",
					"type": "function"
				},
				{
					"inputs": [
						{
							"internalType": "uint256",
							"name": "tokenId",
							"type": "uint256"
						}
					],
					"name": "tokenURI",
					"outputs": [
						{
							"internalType": "string",
							"name": "",
							"type": "string"
						}
					],
					"stateMutability": "view",
					"type": "function"
				},
				{
					"inputs": [
						{
							"internalType": "address",
							"name": "from",
							"type": "address"
						},
						{
							"internalType": "address",
							"name": "to",
							"type": "address"
						},
						{
							"internalType": "uint256",
							"name": "id",
							"type": "uint256"
						}
					],
					"name": "transferFrom",
					"outputs": [],
					"stateMutability": "nonpayable",
					"type": "function"
				},
				{
					"inputs": [
						{
							"internalType": "address",
							"name": "newOwner",
							"type": "address"
						}
					],
					"name": "transferOwnership",
					"outputs": [],
					"stateMutability": "nonpayable",
					"type": "function"
				}
			],
			"devdoc": {
				"kind": "dev",
				"methods": {},
				"version": 1
			},
			"evm": {
				"assembly": "    /* \"NftContract.sol\":118:2084  contract BottleNft is Ownable, ERC721 {\r... */\n  mstore(0x40, 0x80)\n    /* \"NftContract.sol\":222:223  0 */\n  0x00\n    /* \"NftContract.sol\":191:223  uint256 private tokenCounter = 0 */\n  0x08\n  sstore\n    /* \"NftContract.sol\":357:678  constructor(\r... */\n  callvalue\n  dup1\n  iszero\n  tag_1\n  jumpi\n  0x00\n  dup1\n  revert\ntag_1:\n  pop\n  mload(0x40)\n  sub(codesize, bytecodeSize)\n  dup1\n  bytecodeSize\n  dup4\n  codecopy\n  dup2\n  add\n  0x40\n  dup2\n  swap1\n  mstore\n  tag_2\n  swap2\n  tag_3\n  jump\t// in\ntag_2:\n    /* \"NftContract.sol\":498:503  _name */\n  dup4\n    /* \"NftContract.sol\":505:512  _symbol */\n  dup4\n    /* \"utils/Ownable.sol\":306:338  _transferOwnership(_msgSender()) */\n  tag_8\n    /* \"utils/Context.sol\":175:185  msg.sender */\n  caller\n    /* \"utils/Ownable.sol\":306:324  _transferOwnership */\n  tag_11\n    /* \"utils/Ownable.sol\":306:338  _transferOwnership(_msgSender()) */\n  jump\t// in\ntag_8:\n    /* \"ERC721.sol\":1697:1709  name = _name */\n  dup2\n  mload\n  tag_13\n  swap1\n    /* \"ERC721.sol\":1697:1701  name */\n  0x01\n  swap1\n    /* \"ERC721.sol\":1697:1709  name = _name */\n  0x20\n  dup6\n  add\n  swap1\n  tag_14\n  jump\t// in\ntag_13:\n  pop\n    /* \"ERC721.sol\":1720:1736  symbol = _symbol */\n  dup1\n  mload\n  tag_15\n  swap1\n    /* \"ERC721.sol\":1720:1726  symbol */\n  0x02\n  swap1\n    /* \"ERC721.sol\":1720:1736  symbol = _symbol */\n  0x20\n  dup5\n  add\n  swap1\n  tag_14\n  jump\t// in\ntag_15:\n  pop\n  pop\n    /* \"NftContract.sol\":525:540  baseURI = _base */\n  dup3\n  mload\n  tag_17\n  swap2\n  pop\n    /* \"NftContract.sol\":525:532  baseURI */\n  0x07\n  swap1\n    /* \"NftContract.sol\":525:540  baseURI = _base */\n  0x20\n  dup6\n  add\n  swap1\n  tag_14\n  jump\t// in\ntag_17:\n  pop\n    /* \"NftContract.sol\":568:573  10000 */\n  0x2710\n    /* \"NftContract.sol\":559:564  _fees */\n  dup2\n  sub(shl(0x60, 0x01), 0x01)\n    /* \"NftContract.sol\":559:573  _fees <= 10000 */\n  and\n  gt\n  iszero\n    /* \"NftContract.sol\":551:596  require(_fees <= 10000,\"cannot exceed 10000\") */\n  tag_18\n  jumpi\n  mload(0x40)\n  shl(0xe5, 0x461bcd)\n  dup2\n  mstore\n    /* \"#utility.yul\":2043:2045   */\n  0x20\n    /* \"NftContract.sol\":551:596  require(_fees <= 10000,\"cannot exceed 10000\") */\n  0x04\n  dup3\n  add\n    /* \"#utility.yul\":2025:2046   */\n  mstore\n    /* \"#utility.yul\":2082:2084   */\n  0x13\n    /* \"#utility.yul\":2062:2080   */\n  0x24\n  dup3\n  add\n    /* \"#utility.yul\":2055:2085   */\n  mstore\n    /* \"#utility.yul\":2121:2142   */\n  0x63616e6e6f742065786365656420313030303000000000000000000000000000\n    /* \"#utility.yul\":2101:2119   */\n  0x44\n  dup3\n  add\n    /* \"#utility.yul\":2094:2143   */\n  mstore\n    /* \"#utility.yul\":2160:2178   */\n  0x64\n  add\n    /* \"NftContract.sol\":551:596  require(_fees <= 10000,\"cannot exceed 10000\") */\n  mload(0x40)\n  dup1\n  swap2\n  sub\n  swap1\n  revert\ntag_18:\n  sub(shl(0x60, 0x01), 0x01)\n    /* \"NftContract.sol\":607:632  royaltyFeesInBips = _fees */\n  and\n    /* \"NftContract.sol\":660:670  msg.sender */\n  caller\n    /* \"NftContract.sol\":643:670  royaltyAddress = msg.sender */\n  0x01000000000000000000000000\n  mul\n  or\n    /* \"NftContract.sol\":607:624  royaltyFeesInBips */\n  0x09\n    /* \"NftContract.sol\":643:670  royaltyAddress = msg.sender */\n  sstore\n  pop\n    /* \"NftContract.sol\":118:2084  contract BottleNft is Ownable, ERC721 {\r... */\n  tag_38\n  swap2\n  pop\n  pop\n  jump\n    /* \"utils/Ownable.sol\":767:958  function _transferOwnership(address newOwner) internal virtual {\r... */\ntag_11:\n    /* \"utils/Ownable.sol\":841:857  address oldOwner */\n  0x00\n    /* \"utils/Ownable.sol\":427:433  _owner */\n  dup1\n  sload\n  sub(shl(0xa0, 0x01), 0x01)\n    /* \"utils/Ownable.sol\":878:895  _owner = newOwner */\n  dup4\n  dup2\n  and\n  not(sub(shl(0xa0, 0x01), 0x01))\n  dup4\n  and\n  dup2\n  or\n  dup5\n  sstore\n    /* \"utils/Ownable.sol\":911:950  OwnershipTransfered(oldOwner, newOwner) */\n  mload(0x40)\n    /* \"utils/Ownable.sol\":427:433  _owner */\n  swap2\n  swap1\n  swap3\n  and\n  swap3\n  dup4\n  swap2\n    /* \"utils/Ownable.sol\":911:950  OwnershipTransfered(oldOwner, newOwner) */\n  0x0d18b5fd22306e373229b9439188228edca81207d1667f604daf6cef8aa3ee67\n  swap2\n    /* \"utils/Ownable.sol\":841:857  address oldOwner */\n  swap1\n    /* \"utils/Ownable.sol\":911:950  OwnershipTransfered(oldOwner, newOwner) */\n  log3\n    /* \"utils/Ownable.sol\":830:958  {\r... */\n  pop\n    /* \"utils/Ownable.sol\":767:958  function _transferOwnership(address newOwner) internal virtual {\r... */\n  pop\n  jump\t// out\n    /* \"NftContract.sol\":118:2084  contract BottleNft is Ownable, ERC721 {\r... */\ntag_14:\n  dup3\n  dup1\n  sload\n  tag_27\n  swap1\n  tag_28\n  jump\t// in\ntag_27:\n  swap1\n  0x00\n  mstore\n  keccak256(0x00, 0x20)\n  swap1\n  0x1f\n  add\n  0x20\n  swap1\n  div\n  dup2\n  add\n  swap3\n  dup3\n  tag_30\n  jumpi\n  0x00\n  dup6\n  sstore\n  jump(tag_33)\ntag_30:\n  dup3\n  0x1f\n  lt\n  tag_31\n  jumpi\n  dup1\n  mload\n  not(0xff)\n  and\n  dup4\n  dup1\n  add\n  or\n  dup6\n  sstore\n  jump(tag_33)\ntag_31:\n  dup3\n  dup1\n  add\n  0x01\n  add\n  dup6\n  sstore\n  dup3\n  iszero\n  tag_33\n  jumpi\n  swap2\n  dup3\n  add\ntag_32:\n  dup3\n  dup2\n  gt\n  iszero\n  tag_33\n  jumpi\n  dup3\n  mload\n  dup3\n  sstore\n  swap2\n  0x20\n  add\n  swap2\n  swap1\n  0x01\n  add\n  swap1\n  jump(tag_32)\ntag_33:\n  pop\n  tag_34\n  swap3\n  swap2\n  pop\n  tag_35\n  jump\t// in\ntag_34:\n  pop\n  swap1\n  jump\t// out\ntag_35:\ntag_36:\n  dup1\n  dup3\n  gt\n  iszero\n  tag_34\n  jumpi\n  0x00\n  dup2\n  sstore\n  0x01\n  add\n  jump(tag_36)\n    /* \"#utility.yul\":14:899   */\ntag_39:\n    /* \"#utility.yul\":68:73   */\n  0x00\n    /* \"#utility.yul\":121:124   */\n  dup3\n    /* \"#utility.yul\":114:118   */\n  0x1f\n    /* \"#utility.yul\":106:112   */\n  dup4\n    /* \"#utility.yul\":102:119   */\n  add\n    /* \"#utility.yul\":98:125   */\n  slt\n    /* \"#utility.yul\":88:143   */\n  tag_41\n  jumpi\n    /* \"#utility.yul\":139:140   */\n  0x00\n    /* \"#utility.yul\":136:137   */\n  dup1\n    /* \"#utility.yul\":129:141   */\n  revert\n    /* \"#utility.yul\":88:143   */\ntag_41:\n    /* \"#utility.yul\":162:175   */\n  dup2\n  mload\n  sub(shl(0x40, 0x01), 0x01)\n    /* \"#utility.yul\":224:234   */\n  dup1\n  dup3\n  gt\n    /* \"#utility.yul\":221:257   */\n  iszero\n  tag_43\n  jumpi\n    /* \"#utility.yul\":237:255   */\n  tag_43\n  tag_44\n  jump\t// in\ntag_43:\n    /* \"#utility.yul\":312:314   */\n  0x40\n    /* \"#utility.yul\":306:315   */\n  mload\n    /* \"#utility.yul\":280:282   */\n  0x1f\n    /* \"#utility.yul\":366:379   */\n  dup4\n  add\n  not(0x1f)\n    /* \"#utility.yul\":362:384   */\n  swap1\n  dup2\n  and\n    /* \"#utility.yul\":386:388   */\n  0x3f\n    /* \"#utility.yul\":358:389   */\n  add\n    /* \"#utility.yul\":354:394   */\n  and\n    /* \"#utility.yul\":342:395   */\n  dup2\n  add\n  swap1\n    /* \"#utility.yul\":410:428   */\n  dup3\n  dup3\n  gt\n    /* \"#utility.yul\":430:452   */\n  dup2\n  dup4\n  lt\n    /* \"#utility.yul\":407:453   */\n  or\n    /* \"#utility.yul\":404:476   */\n  iszero\n  tag_46\n  jumpi\n    /* \"#utility.yul\":456:474   */\n  tag_46\n  tag_44\n  jump\t// in\ntag_46:\n    /* \"#utility.yul\":496:506   */\n  dup2\n    /* \"#utility.yul\":492:494   */\n  0x40\n    /* \"#utility.yul\":485:507   */\n  mstore\n    /* \"#utility.yul\":531:533   */\n  dup4\n    /* \"#utility.yul\":523:529   */\n  dup2\n    /* \"#utility.yul\":516:534   */\n  mstore\n    /* \"#utility.yul\":553:557   */\n  0x20\n    /* \"#utility.yul\":543:557   */\n  swap3\n  pop\n    /* \"#utility.yul\":598:601   */\n  dup7\n    /* \"#utility.yul\":593:595   */\n  dup4\n    /* \"#utility.yul\":588:590   */\n  dup6\n    /* \"#utility.yul\":580:586   */\n  dup9\n    /* \"#utility.yul\":576:591   */\n  add\n    /* \"#utility.yul\":572:596   */\n  add\n    /* \"#utility.yul\":569:602   */\n  gt\n    /* \"#utility.yul\":566:619   */\n  iszero\n  tag_47\n  jumpi\n    /* \"#utility.yul\":615:616   */\n  0x00\n    /* \"#utility.yul\":612:613   */\n  dup1\n    /* \"#utility.yul\":605:617   */\n  revert\n    /* \"#utility.yul\":566:619   */\ntag_47:\n    /* \"#utility.yul\":637:638   */\n  0x00\n    /* \"#utility.yul\":628:638   */\n  swap2\n  pop\n    /* \"#utility.yul\":647:780   */\ntag_48:\n    /* \"#utility.yul\":661:663   */\n  dup4\n    /* \"#utility.yul\":658:659   */\n  dup3\n    /* \"#utility.yul\":655:664   */\n  lt\n    /* \"#utility.yul\":647:780   */\n  iszero\n  tag_50\n  jumpi\n    /* \"#utility.yul\":749:763   */\n  dup6\n  dup3\n  add\n    /* \"#utility.yul\":745:768   */\n  dup4\n  add\n    /* \"#utility.yul\":739:769   */\n  mload\n    /* \"#utility.yul\":718:732   */\n  dup2\n  dup4\n  add\n    /* \"#utility.yul\":714:737   */\n  dup5\n  add\n    /* \"#utility.yul\":707:770   */\n  mstore\n    /* \"#utility.yul\":672:682   */\n  swap1\n  dup3\n  add\n  swap1\n    /* \"#utility.yul\":647:780   */\n  jump(tag_48)\ntag_50:\n    /* \"#utility.yul\":798:800   */\n  dup4\n    /* \"#utility.yul\":795:796   */\n  dup3\n    /* \"#utility.yul\":792:801   */\n  gt\n    /* \"#utility.yul\":789:869   */\n  iszero\n  tag_51\n  jumpi\n    /* \"#utility.yul\":857:858   */\n  0x00\n    /* \"#utility.yul\":852:854   */\n  dup4\n    /* \"#utility.yul\":847:849   */\n  dup6\n    /* \"#utility.yul\":839:845   */\n  dup4\n    /* \"#utility.yul\":835:850   */\n  add\n    /* \"#utility.yul\":831:855   */\n  add\n    /* \"#utility.yul\":824:859   */\n  mstore\n    /* \"#utility.yul\":789:869   */\ntag_51:\n    /* \"#utility.yul\":887:893   */\n  swap7\n    /* \"#utility.yul\":14:899   */\n  swap6\n  pop\n  pop\n  pop\n  pop\n  pop\n  pop\n  jump\t// out\n    /* \"#utility.yul\":904:1836   */\ntag_3:\n    /* \"#utility.yul\":1030:1036   */\n  0x00\n    /* \"#utility.yul\":1038:1044   */\n  dup1\n    /* \"#utility.yul\":1046:1052   */\n  0x00\n    /* \"#utility.yul\":1054:1060   */\n  dup1\n    /* \"#utility.yul\":1107:1110   */\n  0x80\n    /* \"#utility.yul\":1095:1104   */\n  dup6\n    /* \"#utility.yul\":1086:1093   */\n  dup8\n    /* \"#utility.yul\":1082:1105   */\n  sub\n    /* \"#utility.yul\":1078:1111   */\n  slt\n    /* \"#utility.yul\":1075:1128   */\n  iszero\n  tag_53\n  jumpi\n    /* \"#utility.yul\":1124:1125   */\n  0x00\n    /* \"#utility.yul\":1121:1122   */\n  dup1\n    /* \"#utility.yul\":1114:1126   */\n  revert\n    /* \"#utility.yul\":1075:1128   */\ntag_53:\n    /* \"#utility.yul\":1151:1167   */\n  dup5\n  mload\n  sub(shl(0x40, 0x01), 0x01)\n    /* \"#utility.yul\":1216:1230   */\n  dup1\n  dup3\n  gt\n    /* \"#utility.yul\":1213:1247   */\n  iszero\n  tag_54\n  jumpi\n    /* \"#utility.yul\":1243:1244   */\n  0x00\n    /* \"#utility.yul\":1240:1241   */\n  dup1\n    /* \"#utility.yul\":1233:1245   */\n  revert\n    /* \"#utility.yul\":1213:1247   */\ntag_54:\n    /* \"#utility.yul\":1266:1327   */\n  tag_55\n    /* \"#utility.yul\":1319:1326   */\n  dup9\n    /* \"#utility.yul\":1310:1316   */\n  dup4\n    /* \"#utility.yul\":1299:1308   */\n  dup10\n    /* \"#utility.yul\":1295:1317   */\n  add\n    /* \"#utility.yul\":1266:1327   */\n  tag_39\n  jump\t// in\ntag_55:\n    /* \"#utility.yul\":1256:1327   */\n  swap6\n  pop\n    /* \"#utility.yul\":1373:1375   */\n  0x20\n    /* \"#utility.yul\":1362:1371   */\n  dup8\n    /* \"#utility.yul\":1358:1376   */\n  add\n    /* \"#utility.yul\":1352:1377   */\n  mload\n    /* \"#utility.yul\":1336:1377   */\n  swap2\n  pop\n    /* \"#utility.yul\":1402:1404   */\n  dup1\n    /* \"#utility.yul\":1392:1400   */\n  dup3\n    /* \"#utility.yul\":1389:1405   */\n  gt\n    /* \"#utility.yul\":1386:1422   */\n  iszero\n  tag_56\n  jumpi\n    /* \"#utility.yul\":1418:1419   */\n  0x00\n    /* \"#utility.yul\":1415:1416   */\n  dup1\n    /* \"#utility.yul\":1408:1420   */\n  revert\n    /* \"#utility.yul\":1386:1422   */\ntag_56:\n    /* \"#utility.yul\":1441:1504   */\n  tag_57\n    /* \"#utility.yul\":1496:1503   */\n  dup9\n    /* \"#utility.yul\":1485:1493   */\n  dup4\n    /* \"#utility.yul\":1474:1483   */\n  dup10\n    /* \"#utility.yul\":1470:1494   */\n  add\n    /* \"#utility.yul\":1441:1504   */\n  tag_39\n  jump\t// in\ntag_57:\n    /* \"#utility.yul\":1431:1504   */\n  swap5\n  pop\n    /* \"#utility.yul\":1550:1552   */\n  0x40\n    /* \"#utility.yul\":1539:1548   */\n  dup8\n    /* \"#utility.yul\":1535:1553   */\n  add\n    /* \"#utility.yul\":1529:1554   */\n  mload\n    /* \"#utility.yul\":1513:1554   */\n  swap2\n  pop\n    /* \"#utility.yul\":1579:1581   */\n  dup1\n    /* \"#utility.yul\":1569:1577   */\n  dup3\n    /* \"#utility.yul\":1566:1582   */\n  gt\n    /* \"#utility.yul\":1563:1599   */\n  iszero\n  tag_58\n  jumpi\n    /* \"#utility.yul\":1595:1596   */\n  0x00\n    /* \"#utility.yul\":1592:1593   */\n  dup1\n    /* \"#utility.yul\":1585:1597   */\n  revert\n    /* \"#utility.yul\":1563:1599   */\ntag_58:\n  pop\n    /* \"#utility.yul\":1618:1681   */\n  tag_59\n    /* \"#utility.yul\":1673:1680   */\n  dup8\n    /* \"#utility.yul\":1662:1670   */\n  dup3\n    /* \"#utility.yul\":1651:1660   */\n  dup9\n    /* \"#utility.yul\":1647:1671   */\n  add\n    /* \"#utility.yul\":1618:1681   */\n  tag_39\n  jump\t// in\ntag_59:\n    /* \"#utility.yul\":1724:1726   */\n  0x60\n    /* \"#utility.yul\":1709:1727   */\n  dup8\n  add\n    /* \"#utility.yul\":1703:1728   */\n  mload\n    /* \"#utility.yul\":1608:1681   */\n  swap1\n  swap4\n  pop\n    /* \"#utility.yul\":1703:1728   */\n  swap1\n  pop\n  sub(shl(0x60, 0x01), 0x01)\n    /* \"#utility.yul\":1757:1787   */\n  dup2\n  and\n    /* \"#utility.yul\":1747:1788   */\n  dup2\n  eq\n    /* \"#utility.yul\":1737:1806   */\n  tag_60\n  jumpi\n    /* \"#utility.yul\":1802:1803   */\n  0x00\n    /* \"#utility.yul\":1799:1800   */\n  dup1\n    /* \"#utility.yul\":1792:1804   */\n  revert\n    /* \"#utility.yul\":1737:1806   */\ntag_60:\n    /* \"#utility.yul\":904:1836   */\n  swap4\n  swap7\n  swap3\n  swap6\n  pop\n  swap1\n  swap4\n  pop\n  pop\n  jump\t// out\n    /* \"#utility.yul\":2189:2569   */\ntag_28:\n    /* \"#utility.yul\":2268:2269   */\n  0x01\n    /* \"#utility.yul\":2264:2276   */\n  dup2\n  dup2\n  shr\n  swap1\n    /* \"#utility.yul\":2311:2323   */\n  dup3\n  and\n  dup1\n    /* \"#utility.yul\":2332:2393   */\n  tag_63\n  jumpi\n    /* \"#utility.yul\":2386:2390   */\n  0x7f\n    /* \"#utility.yul\":2378:2384   */\n  dup3\n    /* \"#utility.yul\":2374:2391   */\n  and\n    /* \"#utility.yul\":2364:2391   */\n  swap2\n  pop\n    /* \"#utility.yul\":2332:2393   */\ntag_63:\n    /* \"#utility.yul\":2439:2441   */\n  0x20\n    /* \"#utility.yul\":2431:2437   */\n  dup3\n    /* \"#utility.yul\":2428:2442   */\n  lt\n    /* \"#utility.yul\":2408:2426   */\n  dup2\n    /* \"#utility.yul\":2405:2443   */\n  eq\n    /* \"#utility.yul\":2402:2563   */\n  iszero\n  tag_64\n  jumpi\n    /* \"#utility.yul\":2485:2495   */\n  0x4e487b71\n    /* \"#utility.yul\":2480:2483   */\n  0xe0\n    /* \"#utility.yul\":2476:2496   */\n  shl\n    /* \"#utility.yul\":2473:2474   */\n  0x00\n    /* \"#utility.yul\":2466:2497   */\n  mstore\n    /* \"#utility.yul\":2520:2524   */\n  0x22\n    /* \"#utility.yul\":2517:2518   */\n  0x04\n    /* \"#utility.yul\":2510:2525   */\n  mstore\n    /* \"#utility.yul\":2548:2552   */\n  0x24\n    /* \"#utility.yul\":2545:2546   */\n  0x00\n    /* \"#utility.yul\":2538:2553   */\n  revert\n    /* \"#utility.yul\":2402:2563   */\ntag_64:\n  pop\n    /* \"#utility.yul\":2189:2569   */\n  swap2\n  swap1\n  pop\n  jump\t// out\n    /* \"#utility.yul\":2574:2701   */\ntag_44:\n    /* \"#utility.yul\":2635:2645   */\n  0x4e487b71\n    /* \"#utility.yul\":2630:2633   */\n  0xe0\n    /* \"#utility.yul\":2626:2646   */\n  shl\n    /* \"#utility.yul\":2623:2624   */\n  0x00\n    /* \"#utility.yul\":2616:2647   */\n  mstore\n    /* \"#utility.yul\":2666:2670   */\n  0x41\n    /* \"#utility.yul\":2663:2664   */\n  0x04\n    /* \"#utility.yul\":2656:2671   */\n  mstore\n    /* \"#utility.yul\":2690:2694   */\n  0x24\n    /* \"#utility.yul\":2687:2688   */\n  0x00\n    /* \"#utility.yul\":2680:2695   */\n  revert\n    /* \"#utility.yul\":2574:2701   */\ntag_38:\n    /* \"NftContract.sol\":118:2084  contract BottleNft is Ownable, ERC721 {\r... */\n  dataSize(sub_0)\n  dup1\n  dataOffset(sub_0)\n  0x00\n  codecopy\n  0x00\n  return\nstop\n\nsub_0: assembly {\n        /* \"NftContract.sol\":118:2084  contract BottleNft is Ownable, ERC721 {\r... */\n      mstore(0x40, 0x80)\n      callvalue\n      dup1\n      iszero\n      tag_1\n      jumpi\n      0x00\n      dup1\n      revert\n    tag_1:\n      pop\n      jumpi(tag_2, lt(calldatasize, 0x04))\n      shr(0xe0, calldataload(0x00))\n      dup1\n      0x8da5cb5b\n      gt\n      tag_27\n      jumpi\n      dup1\n      0xb88d4fde\n      gt\n      tag_28\n      jumpi\n      dup1\n      0xb88d4fde\n      eq\n      tag_21\n      jumpi\n      dup1\n      0xc4e18836\n      eq\n      tag_22\n      jumpi\n      dup1\n      0xc87b56dd\n      eq\n      tag_23\n      jumpi\n      dup1\n      0xe985e9c5\n      eq\n      tag_24\n      jumpi\n      dup1\n      0xf2fde38b\n      eq\n      tag_25\n      jumpi\n      dup1\n      0xfa695a97\n      eq\n      tag_26\n      jumpi\n      0x00\n      dup1\n      revert\n    tag_28:\n      dup1\n      0x8da5cb5b\n      eq\n      tag_15\n      jumpi\n      dup1\n      0x95d89b41\n      eq\n      tag_16\n      jumpi\n      dup1\n      0xa22cb465\n      eq\n      tag_17\n      jumpi\n      dup1\n      0xa2e69613\n      eq\n      tag_18\n      jumpi\n      dup1\n      0xa709dc17\n      eq\n      tag_19\n      jumpi\n      dup1\n      0xad2f852a\n      eq\n      tag_20\n      jumpi\n      0x00\n      dup1\n      revert\n    tag_27:\n      dup1\n      0x2a55205a\n      gt\n      tag_29\n      jumpi\n      dup1\n      0x2a55205a\n      eq\n      tag_9\n      jumpi\n      dup1\n      0x42842e0e\n      eq\n      tag_10\n      jumpi\n      dup1\n      0x6352211e\n      eq\n      tag_11\n      jumpi\n      dup1\n      0x6c0360eb\n      eq\n      tag_12\n      jumpi\n      dup1\n      0x70a08231\n      eq\n      tag_13\n      jumpi\n      dup1\n      0x73c7400e\n      eq\n      tag_14\n      jumpi\n      0x00\n      dup1\n      revert\n    tag_29:\n      dup1\n      0x01ffc9a7\n      eq\n      tag_3\n      jumpi\n      dup1\n      0x02fa7c47\n      eq\n      tag_4\n      jumpi\n      dup1\n      0x06fdde03\n      eq\n      tag_5\n      jumpi\n      dup1\n      0x081812fc\n      eq\n      tag_6\n      jumpi\n      dup1\n      0x095ea7b3\n      eq\n      tag_7\n      jumpi\n      dup1\n      0x23b872dd\n      eq\n      tag_8\n      jumpi\n    tag_2:\n      0x00\n      dup1\n      revert\n        /* \"ERC721.sol\":893:1330  function supportsInterface(bytes4 interfaceId)\r... */\n    tag_3:\n      tag_30\n      tag_31\n      calldatasize\n      0x04\n      tag_32\n      jump\t// in\n    tag_31:\n      tag_33\n      jump\t// in\n    tag_30:\n      mload(0x40)\n        /* \"#utility.yul\":7020:7034   */\n      swap1\n      iszero\n        /* \"#utility.yul\":7013:7035   */\n      iszero\n        /* \"#utility.yul\":6995:7036   */\n      dup2\n      mstore\n        /* \"#utility.yul\":6983:6985   */\n      0x20\n        /* \"#utility.yul\":6968:6986   */\n      add\n        /* \"ERC721.sol\":893:1330  function supportsInterface(bytes4 interfaceId)\r... */\n    tag_34:\n      mload(0x40)\n      dup1\n      swap2\n      sub\n      swap1\n      return\n        /* \"NftContract.sol\":1612:1899  function setRoyaltyInfo(address _royaltyAddress, uint96 _royaltyFeesInBips)\r... */\n    tag_4:\n      tag_36\n      tag_37\n      calldatasize\n      0x04\n      tag_38\n      jump\t// in\n    tag_37:\n      tag_39\n      jump\t// in\n    tag_36:\n      stop\n        /* \"ERC721.sol\":1338:1356  string public name */\n    tag_5:\n      tag_40\n      tag_41\n      jump\t// in\n    tag_40:\n      mload(0x40)\n      tag_34\n      swap2\n      swap1\n      tag_43\n      jump\t// in\n        /* \"ERC721.sol\":1498:1544  mapping(uint256 => address) public getApproved */\n    tag_6:\n      tag_44\n      tag_45\n      calldatasize\n      0x04\n      tag_46\n      jump\t// in\n    tag_45:\n      mstore(0x20, 0x05)\n      0x00\n      swap1\n      dup2\n      mstore\n      0x40\n      swap1\n      keccak256\n      sload\n      sub(shl(0xa0, 0x01), 0x01)\n      and\n      dup2\n      jump\n    tag_44:\n      mload(0x40)\n      sub(shl(0xa0, 0x01), 0x01)\n        /* \"#utility.yul\":5479:5511   */\n      swap1\n      swap2\n      and\n        /* \"#utility.yul\":5461:5512   */\n      dup2\n      mstore\n        /* \"#utility.yul\":5449:5451   */\n      0x20\n        /* \"#utility.yul\":5434:5452   */\n      add\n        /* \"ERC721.sol\":1498:1544  mapping(uint256 => address) public getApproved */\n      tag_34\n        /* \"#utility.yul\":5315:5518   */\n      jump\n        /* \"ERC721.sol\":2432:2758  function approve(address spender, uint256 id) public virtual {\r... */\n    tag_7:\n      tag_36\n      tag_51\n      calldatasize\n      0x04\n      tag_52\n      jump\t// in\n    tag_51:\n      tag_53\n      jump\t// in\n        /* \"ERC721.sol\":2981:3601  function transferFrom(\r... */\n    tag_8:\n      tag_36\n      tag_55\n      calldatasize\n      0x04\n      tag_56\n      jump\t// in\n    tag_55:\n      tag_57\n      jump\t// in\n        /* \"NftContract.sol\":1400:1604  function royaltyInfo(uint256 _tokenId, uint256 _salePrice)\r... */\n    tag_9:\n      tag_58\n      tag_59\n      calldatasize\n      0x04\n      tag_60\n      jump\t// in\n    tag_59:\n      tag_61\n      jump\t// in\n    tag_58:\n      0x40\n      dup1\n      mload\n      sub(shl(0xa0, 0x01), 0x01)\n        /* \"#utility.yul\":6768:6800   */\n      swap1\n      swap4\n      and\n        /* \"#utility.yul\":6750:6801   */\n      dup4\n      mstore\n        /* \"#utility.yul\":6832:6834   */\n      0x20\n        /* \"#utility.yul\":6817:6835   */\n      dup4\n      add\n        /* \"#utility.yul\":6810:6844   */\n      swap2\n      swap1\n      swap2\n      mstore\n        /* \"#utility.yul\":6723:6741   */\n      add\n        /* \"NftContract.sol\":1400:1604  function royaltyInfo(uint256 _tokenId, uint256 _salePrice)\r... */\n      tag_34\n        /* \"#utility.yul\":6576:6850   */\n      jump\n        /* \"ERC721.sol\":3609:4121  function safeTransferFrom(\r... */\n    tag_10:\n      tag_36\n      tag_65\n      calldatasize\n      0x04\n      tag_56\n      jump\t// in\n    tag_65:\n      tag_66\n      jump\t// in\n        /* \"ERC721.sol\":1447:1489  mapping(uint256 => address) public ownerOf */\n    tag_11:\n      tag_44\n      tag_68\n      calldatasize\n      0x04\n      tag_46\n      jump\t// in\n    tag_68:\n      mstore(0x20, 0x04)\n      0x00\n      swap1\n      dup2\n      mstore\n      0x40\n      swap1\n      keccak256\n      sload\n      sub(shl(0xa0, 0x01), 0x01)\n      and\n      dup2\n      jump\n        /* \"NftContract.sol\":163:184  string public baseURI */\n    tag_12:\n      tag_40\n      tag_72\n      jump\t// in\n        /* \"ERC721.sol\":1394:1438  mapping(address => uint256) public balanceOf */\n    tag_13:\n      tag_74\n      tag_75\n      calldatasize\n      0x04\n      tag_76\n      jump\t// in\n    tag_75:\n      mstore(0x20, 0x03)\n      0x00\n      swap1\n      dup2\n      mstore\n      0x40\n      swap1\n      keccak256\n      sload\n      dup2\n      jump\n    tag_74:\n      mload(0x40)\n        /* \"#utility.yul\":11559:11584   */\n      swap1\n      dup2\n      mstore\n        /* \"#utility.yul\":11547:11549   */\n      0x20\n        /* \"#utility.yul\":11532:11550   */\n      add\n        /* \"ERC721.sol\":1394:1438  mapping(address => uint256) public balanceOf */\n      tag_34\n        /* \"#utility.yul\":11413:11590   */\n      jump\n        /* \"NftContract.sol\":230:261  uint96 public royaltyFeesInBips */\n    tag_14:\n      sload(0x09)\n      tag_80\n      swap1\n      sub(shl(0x60, 0x01), 0x01)\n      and\n      dup2\n      jump\n    tag_80:\n      mload(0x40)\n      sub(shl(0x60, 0x01), 0x01)\n        /* \"#utility.yul\":11757:11796   */\n      swap1\n      swap2\n      and\n        /* \"#utility.yul\":11739:11797   */\n      dup2\n      mstore\n        /* \"#utility.yul\":11727:11729   */\n      0x20\n        /* \"#utility.yul\":11712:11730   */\n      add\n        /* \"NftContract.sol\":230:261  uint96 public royaltyFeesInBips */\n      tag_34\n        /* \"#utility.yul\":11595:11803   */\n      jump\n        /* \"utils/Ownable.sol\":354:441  function owner() public view virtual returns (address) {\r... */\n    tag_15:\n        /* \"utils/Ownable.sol\":400:407  address */\n      0x00\n        /* \"utils/Ownable.sol\":427:433  _owner */\n      sload\n      sub(shl(0xa0, 0x01), 0x01)\n      and\n        /* \"utils/Ownable.sol\":354:441  function owner() public view virtual returns (address) {\r... */\n      jump(tag_44)\n        /* \"ERC721.sol\":1365:1385  string public symbol */\n    tag_16:\n      tag_40\n      tag_88\n      jump\t// in\n        /* \"ERC721.sol\":2766:2973  function setApprovalForAll(address operator, bool approved) public virtual {\r... */\n    tag_17:\n      tag_36\n      tag_91\n      calldatasize\n      0x04\n      tag_92\n      jump\t// in\n    tag_91:\n      tag_93\n      jump\t// in\n        /* \"NftContract.sol\":1907:2081  function calculateRoyalty(uint256 _salePrice)\r... */\n    tag_18:\n      tag_74\n      tag_95\n      calldatasize\n      0x04\n      tag_46\n      jump\t// in\n    tag_95:\n      tag_96\n      jump\t// in\n        /* \"NftContract.sol\":1000:1270  function mintMany(address to, uint64 amount) public {\r... */\n    tag_19:\n      tag_36\n      tag_99\n      calldatasize\n      0x04\n      tag_100\n      jump\t// in\n    tag_99:\n      tag_101\n      jump\t// in\n        /* \"NftContract.sol\":268:297  address public royaltyAddress */\n    tag_20:\n      sload(0x09)\n      tag_44\n      swap1\n      shl(0x60, 0x01)\n      swap1\n      div\n      sub(shl(0xa0, 0x01), 0x01)\n      and\n      dup2\n      jump\n        /* \"ERC721.sol\":4129:4671  function safeTransferFrom(\r... */\n    tag_21:\n      tag_36\n      tag_106\n      calldatasize\n      0x04\n      tag_107\n      jump\t// in\n    tag_106:\n      tag_108\n      jump\t// in\n        /* \"NftContract.sol\":1278:1392  function allowMint(address _minter, bool status) external onlyOwner {\r... */\n    tag_22:\n      tag_36\n      tag_110\n      calldatasize\n      0x04\n      tag_92\n      jump\t// in\n    tag_110:\n      tag_111\n      jump\t// in\n        /* \"ERC721.sol\":1752:2155  function tokenURI(uint256 tokenId)\r... */\n    tag_23:\n      tag_40\n      tag_113\n      calldatasize\n      0x04\n      tag_46\n      jump\t// in\n    tag_113:\n      tag_114\n      jump\t// in\n        /* \"ERC721.sol\":1553:1621  mapping(address => mapping(address => bool)) public isApprovedForAll */\n    tag_24:\n      tag_30\n      tag_117\n      calldatasize\n      0x04\n      tag_118\n      jump\t// in\n    tag_117:\n      0x06\n      0x20\n      swap1\n      dup2\n      mstore\n      0x00\n      swap3\n      dup4\n      mstore\n      0x40\n      dup1\n      dup5\n      keccak256\n      swap1\n      swap2\n      mstore\n      swap1\n      dup3\n      mstore\n      swap1\n      keccak256\n      sload\n      0xff\n      and\n      dup2\n      jump\n        /* \"utils/Ownable.sol\":568:759  function transferOwnership(address newOwner) public virtual onlyOwner {\r... */\n    tag_25:\n      tag_36\n      tag_122\n      calldatasize\n      0x04\n      tag_76\n      jump\t// in\n    tag_122:\n      tag_123\n      jump\t// in\n        /* \"NftContract.sol\":802:992  function mintOne(address to) public {\r... */\n    tag_26:\n      tag_36\n      tag_125\n      calldatasize\n      0x04\n      tag_76\n      jump\t// in\n    tag_125:\n      tag_126\n      jump\t// in\n        /* \"ERC721.sol\":893:1330  function supportsInterface(bytes4 interfaceId)\r... */\n    tag_33:\n        /* \"ERC721.sol\":1005:1009  bool */\n      0x00\n      shl(0xe0, 0x01ffc9a7)\n      not(sub(shl(0xe0, 0x01), 0x01))\n        /* \"ERC721.sol\":1047:1072  interfaceId == 0x01ffc9a7 */\n      dup4\n      and\n      eq\n      dup1\n        /* \"ERC721.sol\":1047:1148  interfaceId == 0x01ffc9a7 || // ERC165 Interface ID for ERC165\r... */\n      tag_128\n      jumpi\n      pop\n      shl(0xe0, 0x80ac58cd)\n      not(sub(shl(0xe0, 0x01), 0x01))\n        /* \"ERC721.sol\":1123:1148  interfaceId == 0x80ac58cd */\n      dup4\n      and\n      eq\n        /* \"ERC721.sol\":1047:1148  interfaceId == 0x01ffc9a7 || // ERC165 Interface ID for ERC165\r... */\n    tag_128:\n        /* \"ERC721.sol\":1047:1224  interfaceId == 0x01ffc9a7 || // ERC165 Interface ID for ERC165\r... */\n      dup1\n      tag_129\n      jumpi\n      pop\n      shl(0xe0, 0x5b5e139f)\n      not(sub(shl(0xe0, 0x01), 0x01))\n        /* \"ERC721.sol\":1199:1224  interfaceId == 0x5b5e139f */\n      dup4\n      and\n      eq\n        /* \"ERC721.sol\":1047:1224  interfaceId == 0x01ffc9a7 || // ERC165 Interface ID for ERC165\r... */\n    tag_129:\n        /* \"ERC721.sol\":1047:1308  interfaceId == 0x01ffc9a7 || // ERC165 Interface ID for ERC165\r... */\n      dup1\n      tag_130\n      jumpi\n      pop\n      shl(0xe1, 0x152a902d)\n      not(sub(shl(0xe0, 0x01), 0x01))\n        /* \"ERC721.sol\":1283:1308  interfaceId == 0x2a55205a */\n      dup4\n      and\n      eq\n        /* \"ERC721.sol\":1047:1308  interfaceId == 0x01ffc9a7 || // ERC165 Interface ID for ERC165\r... */\n    tag_130:\n        /* \"ERC721.sol\":1027:1308  return\r... */\n      swap3\n        /* \"ERC721.sol\":893:1330  function supportsInterface(bytes4 interfaceId)\r... */\n      swap2\n      pop\n      pop\n      jump\t// out\n        /* \"NftContract.sol\":1612:1899  function setRoyaltyInfo(address _royaltyAddress, uint96 _royaltyFeesInBips)\r... */\n    tag_39:\n        /* \"utils/Ownable.sol\":400:407  address */\n      0x00\n        /* \"utils/Ownable.sol\":427:433  _owner */\n      sload\n      sub(shl(0xa0, 0x01), 0x01)\n      and\n        /* \"utils/Context.sol\":175:185  msg.sender */\n      caller\n        /* \"utils/Ownable.sol\":489:512  _msgSender() == owner() */\n      eq\n        /* \"utils/Ownable.sol\":481:540  require(_msgSender() == owner(), \"Caller is not the owner\") */\n      tag_135\n      jumpi\n      mload(0x40)\n      shl(0xe5, 0x461bcd)\n      dup2\n      mstore\n      0x04\n      add\n      tag_136\n      swap1\n      tag_137\n      jump\t// in\n    tag_136:\n      mload(0x40)\n      dup1\n      swap2\n      sub\n      swap1\n      revert\n    tag_135:\n        /* \"NftContract.sol\":1771:1776  10000 */\n      0x2710\n        /* \"NftContract.sol\":1749:1767  _royaltyFeesInBips */\n      dup2\n      sub(shl(0x60, 0x01), 0x01)\n        /* \"NftContract.sol\":1749:1776  _royaltyFeesInBips <= 10000 */\n      and\n      gt\n      iszero\n        /* \"NftContract.sol\":1741:1799  require(_royaltyFeesInBips <= 10000,\"cannot exceed 10000\") */\n      tag_139\n      jumpi\n      mload(0x40)\n      shl(0xe5, 0x461bcd)\n      dup2\n      mstore\n        /* \"#utility.yul\":9884:9886   */\n      0x20\n        /* \"NftContract.sol\":1741:1799  require(_royaltyFeesInBips <= 10000,\"cannot exceed 10000\") */\n      0x04\n      dup3\n      add\n        /* \"#utility.yul\":9866:9887   */\n      mstore\n        /* \"#utility.yul\":9923:9925   */\n      0x13\n        /* \"#utility.yul\":9903:9921   */\n      0x24\n      dup3\n      add\n        /* \"#utility.yul\":9896:9926   */\n      mstore\n      shl(0x6c, 0x063616e6e6f742065786365656420313030303)\n        /* \"#utility.yul\":9942:9960   */\n      0x44\n      dup3\n      add\n        /* \"#utility.yul\":9935:9984   */\n      mstore\n        /* \"#utility.yul\":10001:10019   */\n      0x64\n      add\n        /* \"NftContract.sol\":1741:1799  require(_royaltyFeesInBips <= 10000,\"cannot exceed 10000\") */\n      tag_136\n        /* \"#utility.yul\":9682:10025   */\n      jump\n        /* \"NftContract.sol\":1741:1799  require(_royaltyFeesInBips <= 10000,\"cannot exceed 10000\") */\n    tag_139:\n      sub(shl(0x60, 0x01), 0x01)\n        /* \"NftContract.sol\":1853:1891  royaltyFeesInBips = _royaltyFeesInBips */\n      and\n      sub(shl(0xa0, 0x01), 0x01)\n        /* \"NftContract.sol\":1810:1842  royaltyAddress = _royaltyAddress */\n      swap1\n      swap2\n      and\n      shl(0x60, 0x01)\n      mul\n      not(0xffffffffffffffffffffffff)\n        /* \"NftContract.sol\":1853:1891  royaltyFeesInBips = _royaltyFeesInBips */\n      and\n      or\n        /* \"NftContract.sol\":1810:1824  royaltyAddress */\n      0x09\n        /* \"NftContract.sol\":1853:1891  royaltyFeesInBips = _royaltyFeesInBips */\n      sstore\n        /* \"NftContract.sol\":1612:1899  function setRoyaltyInfo(address _royaltyAddress, uint96 _royaltyFeesInBips)\r... */\n      jump\t// out\n        /* \"ERC721.sol\":1338:1356  string public name */\n    tag_41:\n      0x01\n      dup1\n      sload\n      tag_142\n      swap1\n      tag_143\n      jump\t// in\n    tag_142:\n      dup1\n      0x1f\n      add\n      0x20\n      dup1\n      swap2\n      div\n      mul\n      0x20\n      add\n      mload(0x40)\n      swap1\n      dup2\n      add\n      0x40\n      mstore\n      dup1\n      swap3\n      swap2\n      swap1\n      dup2\n      dup2\n      mstore\n      0x20\n      add\n      dup3\n      dup1\n      sload\n      tag_144\n      swap1\n      tag_143\n      jump\t// in\n    tag_144:\n      dup1\n      iszero\n      tag_145\n      jumpi\n      dup1\n      0x1f\n      lt\n      tag_146\n      jumpi\n      0x0100\n      dup1\n      dup4\n      sload\n      div\n      mul\n      dup4\n      mstore\n      swap2\n      0x20\n      add\n      swap2\n      jump(tag_145)\n    tag_146:\n      dup3\n      add\n      swap2\n      swap1\n      0x00\n      mstore\n      keccak256(0x00, 0x20)\n      swap1\n    tag_147:\n      dup2\n      sload\n      dup2\n      mstore\n      swap1\n      0x01\n      add\n      swap1\n      0x20\n      add\n      dup1\n      dup4\n      gt\n      tag_147\n      jumpi\n      dup3\n      swap1\n      sub\n      0x1f\n      and\n      dup3\n      add\n      swap2\n    tag_145:\n      pop\n      pop\n      pop\n      pop\n      pop\n      dup2\n      jump\t// out\n        /* \"ERC721.sol\":2432:2758  function approve(address spender, uint256 id) public virtual {\r... */\n    tag_53:\n        /* \"ERC721.sol\":2504:2517  address owner */\n      0x00\n        /* \"ERC721.sol\":2520:2531  ownerOf[id] */\n      dup2\n      dup2\n      mstore\n        /* \"ERC721.sol\":2520:2527  ownerOf */\n      0x04\n        /* \"ERC721.sol\":2520:2531  ownerOf[id] */\n      0x20\n      mstore\n      0x40\n      swap1\n      keccak256\n      sload\n      sub(shl(0xa0, 0x01), 0x01)\n      and\n        /* \"ERC721.sol\":2566:2576  msg.sender */\n      caller\n        /* \"ERC721.sol\":2566:2585  msg.sender == owner */\n      dup2\n      eq\n      dup1\n        /* \"ERC721.sol\":2566:2624  msg.sender == owner || isApprovedForAll[owner][msg.sender] */\n      tag_149\n      jumpi\n      pop\n      sub(shl(0xa0, 0x01), 0x01)\n        /* \"ERC721.sol\":2589:2612  isApprovedForAll[owner] */\n      dup2\n      and\n      0x00\n      swap1\n      dup2\n      mstore\n        /* \"ERC721.sol\":2589:2605  isApprovedForAll */\n      0x06\n        /* \"ERC721.sol\":2589:2612  isApprovedForAll[owner] */\n      0x20\n      swap1\n      dup2\n      mstore\n      0x40\n      dup1\n      dup4\n      keccak256\n        /* \"ERC721.sol\":2613:2623  msg.sender */\n      caller\n        /* \"ERC721.sol\":2589:2624  isApprovedForAll[owner][msg.sender] */\n      dup5\n      mstore\n      swap1\n      swap2\n      mstore\n      swap1\n      keccak256\n      sload\n      0xff\n      and\n        /* \"ERC721.sol\":2566:2624  msg.sender == owner || isApprovedForAll[owner][msg.sender] */\n    tag_149:\n        /* \"ERC721.sol\":2544:2666  require(\r... */\n      tag_150\n      jumpi\n      mload(0x40)\n      shl(0xe5, 0x461bcd)\n      dup2\n      mstore\n        /* \"#utility.yul\":11272:11274   */\n      0x20\n        /* \"ERC721.sol\":2544:2666  require(\r... */\n      0x04\n      dup3\n      add\n        /* \"#utility.yul\":11254:11275   */\n      mstore\n        /* \"#utility.yul\":11311:11313   */\n      0x0e\n        /* \"#utility.yul\":11291:11309   */\n      0x24\n      dup3\n      add\n        /* \"#utility.yul\":11284:11314   */\n      mstore\n      shl(0x92, 0x139bdd08185d5d1a1bdc9a5e9959)\n        /* \"#utility.yul\":11330:11348   */\n      0x44\n      dup3\n      add\n        /* \"#utility.yul\":11323:11367   */\n      mstore\n        /* \"#utility.yul\":11384:11402   */\n      0x64\n      add\n        /* \"ERC721.sol\":2544:2666  require(\r... */\n      tag_136\n        /* \"#utility.yul\":11070:11408   */\n      jump\n        /* \"ERC721.sol\":2544:2666  require(\r... */\n    tag_150:\n        /* \"ERC721.sol\":2679:2694  getApproved[id] */\n      0x00\n      dup3\n      dup2\n      mstore\n        /* \"ERC721.sol\":2679:2690  getApproved */\n      0x05\n        /* \"ERC721.sol\":2679:2694  getApproved[id] */\n      0x20\n      mstore\n      0x40\n      dup1\n      dup3\n      keccak256\n        /* \"ERC721.sol\":2679:2704  getApproved[id] = spender */\n      dup1\n      sload\n      not(sub(shl(0xa0, 0x01), 0x01))\n      and\n      sub(shl(0xa0, 0x01), 0x01)\n      dup8\n      dup2\n      and\n      swap2\n      dup3\n      or\n      swap1\n      swap3\n      sstore\n        /* \"ERC721.sol\":2722:2750  Approval(owner, spender, id) */\n      swap2\n      mload\n        /* \"ERC721.sol\":2679:2694  getApproved[id] */\n      dup6\n      swap4\n        /* \"ERC721.sol\":2722:2750  Approval(owner, spender, id) */\n      swap2\n      dup6\n      and\n      swap2\n      0x8c5be1e5ebec7d5bd14f71427d1e84f3dd0314c0f7b2291e5b200ac8c7c3b925\n      swap2\n      log4\n        /* \"ERC721.sol\":2493:2758  {\r... */\n      pop\n        /* \"ERC721.sol\":2432:2758  function approve(address spender, uint256 id) public virtual {\r... */\n      pop\n      pop\n      jump\t// out\n        /* \"ERC721.sol\":2981:3601  function transferFrom(\r... */\n    tag_57:\n        /* \"ERC721.sol\":3117:3128  ownerOf[id] */\n      0x00\n      dup2\n      dup2\n      mstore\n        /* \"ERC721.sol\":3117:3124  ownerOf */\n      0x04\n        /* \"ERC721.sol\":3117:3128  ownerOf[id] */\n      0x20\n      mstore\n      0x40\n      swap1\n      keccak256\n      sload\n      sub(shl(0xa0, 0x01), 0x01)\n        /* \"ERC721.sol\":3109:3128  from == ownerOf[id] */\n      dup5\n      dup2\n      and\n        /* \"ERC721.sol\":3117:3128  ownerOf[id] */\n      swap2\n      and\n        /* \"ERC721.sol\":3109:3128  from == ownerOf[id] */\n      eq\n        /* \"ERC721.sol\":3101:3143  require(from == ownerOf[id], \"WRONG FROM\") */\n      tag_154\n      jumpi\n      mload(0x40)\n      shl(0xe5, 0x461bcd)\n      dup2\n      mstore\n        /* \"#utility.yul\":8161:8163   */\n      0x20\n        /* \"ERC721.sol\":3101:3143  require(from == ownerOf[id], \"WRONG FROM\") */\n      0x04\n      dup3\n      add\n        /* \"#utility.yul\":8143:8164   */\n      mstore\n        /* \"#utility.yul\":8200:8202   */\n      0x0a\n        /* \"#utility.yul\":8180:8198   */\n      0x24\n      dup3\n      add\n        /* \"#utility.yul\":8173:8203   */\n      mstore\n      shl(0xb0, 0x57524f4e472046524f4d)\n        /* \"#utility.yul\":8219:8237   */\n      0x44\n      dup3\n      add\n        /* \"#utility.yul\":8212:8252   */\n      mstore\n        /* \"#utility.yul\":8269:8287   */\n      0x64\n      add\n        /* \"ERC721.sol\":3101:3143  require(from == ownerOf[id], \"WRONG FROM\") */\n      tag_136\n        /* \"#utility.yul\":7959:8293   */\n      jump\n        /* \"ERC721.sol\":3101:3143  require(from == ownerOf[id], \"WRONG FROM\") */\n    tag_154:\n      sub(shl(0xa0, 0x01), 0x01)\n        /* \"ERC721.sol\":3164:3180  to != address(0) */\n      dup3\n      and\n        /* \"ERC721.sol\":3156:3193  require(to != address(0), \"WRONG TO\") */\n      tag_157\n      jumpi\n      mload(0x40)\n      shl(0xe5, 0x461bcd)\n      dup2\n      mstore\n        /* \"#utility.yul\":7825:7827   */\n      0x20\n        /* \"ERC721.sol\":3156:3193  require(to != address(0), \"WRONG TO\") */\n      0x04\n      dup3\n      add\n        /* \"#utility.yul\":7807:7828   */\n      mstore\n        /* \"#utility.yul\":7864:7865   */\n      0x08\n        /* \"#utility.yul\":7844:7862   */\n      0x24\n      dup3\n      add\n        /* \"#utility.yul\":7837:7866   */\n      mstore\n      shl(0xc0, 0x57524f4e4720544f)\n        /* \"#utility.yul\":7882:7900   */\n      0x44\n      dup3\n      add\n        /* \"#utility.yul\":7875:7913   */\n      mstore\n        /* \"#utility.yul\":7930:7948   */\n      0x64\n      add\n        /* \"ERC721.sol\":3156:3193  require(to != address(0), \"WRONG TO\") */\n      tag_136\n        /* \"#utility.yul\":7623:7954   */\n      jump\n        /* \"ERC721.sol\":3156:3193  require(to != address(0), \"WRONG TO\") */\n    tag_157:\n        /* \"ERC721.sol\":3228:3238  msg.sender */\n      caller\n      sub(shl(0xa0, 0x01), 0x01)\n        /* \"ERC721.sol\":3228:3246  msg.sender == from */\n      dup5\n      and\n      eq\n      dup1\n        /* \"ERC721.sol\":3228:3301  msg.sender == from ||\r... */\n      tag_160\n      jumpi\n      pop\n      sub(shl(0xa0, 0x01), 0x01)\n        /* \"ERC721.sol\":3267:3289  isApprovedForAll[from] */\n      dup4\n      and\n      0x00\n      swap1\n      dup2\n      mstore\n        /* \"ERC721.sol\":3267:3283  isApprovedForAll */\n      0x06\n        /* \"ERC721.sol\":3267:3289  isApprovedForAll[from] */\n      0x20\n      swap1\n      dup2\n      mstore\n      0x40\n      dup1\n      dup4\n      keccak256\n        /* \"ERC721.sol\":3290:3300  msg.sender */\n      caller\n        /* \"ERC721.sol\":3267:3301  isApprovedForAll[from][msg.sender] */\n      dup5\n      mstore\n      swap1\n      swap2\n      mstore\n      swap1\n      keccak256\n      sload\n      0xff\n      and\n        /* \"ERC721.sol\":3228:3301  msg.sender == from ||\r... */\n    tag_160:\n        /* \"ERC721.sol\":3228:3351  msg.sender == from ||\r... */\n      dup1\n      tag_161\n      jumpi\n      pop\n        /* \"ERC721.sol\":3336:3351  getApproved[id] */\n      0x00\n      dup2\n      dup2\n      mstore\n        /* \"ERC721.sol\":3336:3347  getApproved */\n      0x05\n        /* \"ERC721.sol\":3336:3351  getApproved[id] */\n      0x20\n      mstore\n      0x40\n      swap1\n      keccak256\n      sload\n      sub(shl(0xa0, 0x01), 0x01)\n      and\n        /* \"ERC721.sol\":3322:3332  msg.sender */\n      caller\n        /* \"ERC721.sol\":3322:3351  msg.sender == getApproved[id] */\n      eq\n        /* \"ERC721.sol\":3228:3351  msg.sender == from ||\r... */\n    tag_161:\n        /* \"ERC721.sol\":3206:3393  require(\r... */\n      tag_162\n      jumpi\n      mload(0x40)\n      shl(0xe5, 0x461bcd)\n      dup2\n      mstore\n        /* \"#utility.yul\":9541:9543   */\n      0x20\n        /* \"ERC721.sol\":3206:3393  require(\r... */\n      0x04\n      dup3\n      add\n        /* \"#utility.yul\":9523:9544   */\n      mstore\n        /* \"#utility.yul\":9580:9582   */\n      0x0e\n        /* \"#utility.yul\":9560:9578   */\n      0x24\n      dup3\n      add\n        /* \"#utility.yul\":9553:9583   */\n      mstore\n      shl(0x92, 0x1393d5081055551213d492569151)\n        /* \"#utility.yul\":9599:9617   */\n      0x44\n      dup3\n      add\n        /* \"#utility.yul\":9592:9636   */\n      mstore\n        /* \"#utility.yul\":9653:9671   */\n      0x64\n      add\n        /* \"ERC721.sol\":3206:3393  require(\r... */\n      tag_136\n        /* \"#utility.yul\":9339:9677   */\n      jump\n        /* \"ERC721.sol\":3206:3393  require(\r... */\n    tag_162:\n      sub(shl(0xa0, 0x01), 0x01)\n        /* \"ERC721.sol\":3431:3446  balanceOf[from] */\n      dup1\n      dup5\n      and\n      0x00\n      dup2\n      dup2\n      mstore\n        /* \"ERC721.sol\":3431:3440  balanceOf */\n      0x03\n        /* \"ERC721.sol\":3431:3446  balanceOf[from] */\n      0x20\n      swap1\n      dup2\n      mstore\n      0x40\n      dup1\n      dup4\n      keccak256\n        /* \"ERC721.sol\":3431:3448  balanceOf[from]-- */\n      dup1\n      sload\n      not(0x00)\n      add\n      swap1\n      sstore\n        /* \"ERC721.sol\":3463:3476  balanceOf[to] */\n      swap4\n      dup7\n      and\n      dup1\n      dup4\n      mstore\n      dup5\n      dup4\n      keccak256\n        /* \"ERC721.sol\":3463:3478  balanceOf[to]++ */\n      dup1\n      sload\n        /* \"ERC721.sol\":3431:3448  balanceOf[from]-- */\n      0x01\n        /* \"ERC721.sol\":3463:3478  balanceOf[to]++ */\n      add\n      swap1\n      sstore\n        /* \"ERC721.sol\":3502:3513  ownerOf[id] */\n      dup6\n      dup4\n      mstore\n        /* \"ERC721.sol\":3502:3509  ownerOf */\n      0x04\n        /* \"ERC721.sol\":3502:3513  ownerOf[id] */\n      dup3\n      mstore\n      dup5\n      dup4\n      keccak256\n        /* \"ERC721.sol\":3502:3518  ownerOf[id] = to */\n      dup1\n      sload\n      not(sub(shl(0xa0, 0x01), 0x01))\n      swap1\n      dup2\n      and\n      dup4\n      or\n      swap1\n      swap2\n      sstore\n        /* \"ERC721.sol\":3538:3549  getApproved */\n      0x05\n        /* \"ERC721.sol\":3538:3553  getApproved[id] */\n      swap1\n      swap3\n      mstore\n      dup5\n      dup4\n      keccak256\n        /* \"ERC721.sol\":3531:3553  delete getApproved[id] */\n      dup1\n      sload\n      swap1\n      swap3\n      and\n      swap1\n      swap2\n      sstore\n        /* \"ERC721.sol\":3571:3593  Transfer(from, to, id) */\n      swap3\n      mload\n        /* \"ERC721.sol\":3510:3512  id */\n      dup5\n      swap4\n        /* \"ERC721.sol\":3463:3476  balanceOf[to] */\n      swap3\n        /* \"ERC721.sol\":3431:3446  balanceOf[from] */\n      swap2\n        /* \"ERC721.sol\":3571:3593  Transfer(from, to, id) */\n      0xddf252ad1be2c89b69c2b068fc378daa952ba7f163c4a11628f55a4df523b3ef\n      swap2\n      log4\n        /* \"ERC721.sol\":2981:3601  function transferFrom(\r... */\n      pop\n      pop\n      pop\n      jump\t// out\n        /* \"NftContract.sol\":1400:1604  function royaltyInfo(uint256 _tokenId, uint256 _salePrice)\r... */\n    tag_61:\n        /* \"NftContract.sol\":1551:1565  royaltyAddress */\n      sload(0x09)\n        /* \"NftContract.sol\":1509:1516  address */\n      0x00\n      swap1\n      dup2\n      swap1\n      shl(0x60, 0x01)\n        /* \"NftContract.sol\":1551:1565  royaltyAddress */\n      swap1\n      div\n      sub(shl(0xa0, 0x01), 0x01)\n      and\n        /* \"NftContract.sol\":1567:1595  calculateRoyalty(_salePrice) */\n      tag_166\n        /* \"NftContract.sol\":1584:1594  _salePrice */\n      dup5\n        /* \"NftContract.sol\":1567:1583  calculateRoyalty */\n      tag_96\n        /* \"NftContract.sol\":1567:1595  calculateRoyalty(_salePrice) */\n      jump\t// in\n    tag_166:\n        /* \"NftContract.sol\":1543:1596  return (royaltyAddress, calculateRoyalty(_salePrice)) */\n      swap2\n      pop\n      swap2\n      pop\n        /* \"NftContract.sol\":1400:1604  function royaltyInfo(uint256 _tokenId, uint256 _salePrice)\r... */\n      swap3\n      pop\n      swap3\n      swap1\n      pop\n      jump\t// out\n        /* \"ERC721.sol\":3609:4121  function safeTransferFrom(\r... */\n    tag_66:\n        /* \"ERC721.sol\":3733:3759  transferFrom(from, to, id) */\n      tag_168\n        /* \"ERC721.sol\":3746:3750  from */\n      dup4\n        /* \"ERC721.sol\":3752:3754  to */\n      dup4\n        /* \"ERC721.sol\":3756:3758  id */\n      dup4\n        /* \"ERC721.sol\":3733:3745  transferFrom */\n      tag_57\n        /* \"ERC721.sol\":3733:3759  transferFrom(from, to, id) */\n      jump\t// in\n    tag_168:\n      sub(shl(0xa0, 0x01), 0x01)\n        /* \"ERC721.sol\":3794:3808  to.code.length */\n      dup3\n      and\n      extcodesize\n        /* \"ERC721.sol\":3794:3813  to.code.length == 0 */\n      iszero\n      dup1\n        /* \"ERC721.sol\":3794:4069  to.code.length == 0 ||\r... */\n      tag_169\n      jumpi\n      pop\n        /* \"ERC721.sol\":3834:4003  ERC721TokenReceiver(to).onERC721Received(\r... */\n      mload(0x40)\n      shl(0xe1, 0x0a85bd01)\n      dup1\n      dup3\n      mstore\n        /* \"ERC721.sol\":3897:3907  msg.sender */\n      caller\n        /* \"ERC721.sol\":3834:4003  ERC721TokenReceiver(to).onERC721Received(\r... */\n      0x04\n      dup4\n      add\n        /* \"#utility.yul\":6321:6355   */\n      mstore\n      sub(shl(0xa0, 0x01), 0x01)\n        /* \"#utility.yul\":6391:6406   */\n      dup6\n      dup2\n      and\n        /* \"#utility.yul\":6371:6389   */\n      0x24\n      dup5\n      add\n        /* \"#utility.yul\":6364:6407   */\n      mstore\n        /* \"#utility.yul\":6423:6441   */\n      0x44\n      dup4\n      add\n        /* \"#utility.yul\":6416:6450   */\n      dup5\n      swap1\n      mstore\n        /* \"#utility.yul\":6486:6489   */\n      0x80\n        /* \"#utility.yul\":6466:6484   */\n      0x64\n      dup5\n      add\n        /* \"#utility.yul\":6459:6490   */\n      mstore\n      0x00\n        /* \"#utility.yul\":6506:6525   */\n      0x84\n      dup5\n      add\n        /* \"#utility.yul\":6499:6529   */\n      mstore\n        /* \"ERC721.sol\":4024:4069  ERC721TokenReceiver.onERC721Received.selector */\n      swap1\n      swap2\n        /* \"ERC721.sol\":3834:3874  ERC721TokenReceiver(to).onERC721Received */\n      swap1\n      dup5\n      and\n      swap1\n        /* \"ERC721.sol\":4024:4069  ERC721TokenReceiver.onERC721Received.selector */\n      0x150b7a02\n      swap1\n        /* \"#utility.yul\":6546:6565   */\n      0xa4\n      add\n        /* \"ERC721.sol\":3834:4003  ERC721TokenReceiver(to).onERC721Received(\r... */\n      0x20\n      mload(0x40)\n      dup1\n      dup4\n      sub\n      dup2\n      0x00\n      dup8\n      dup1\n      extcodesize\n      iszero\n      dup1\n      iszero\n      tag_172\n      jumpi\n      0x00\n      dup1\n      revert\n    tag_172:\n      pop\n      gas\n      call\n      iszero\n      dup1\n      iszero\n      tag_174\n      jumpi\n      returndatasize\n      0x00\n      dup1\n      returndatacopy\n      revert(0x00, returndatasize)\n    tag_174:\n      pop\n      pop\n      pop\n      pop\n      mload(0x40)\n      returndatasize\n      not(0x1f)\n      0x1f\n      dup3\n      add\n      and\n      dup3\n      add\n      dup1\n      0x40\n      mstore\n      pop\n      dup2\n      add\n      swap1\n      tag_175\n      swap2\n      swap1\n      tag_176\n      jump\t// in\n    tag_175:\n      not(sub(shl(0xe0, 0x01), 0x01))\n        /* \"ERC721.sol\":3834:4069  ERC721TokenReceiver(to).onERC721Received(\r... */\n      and\n      eq\n        /* \"ERC721.sol\":3794:4069  to.code.length == 0 ||\r... */\n    tag_169:\n        /* \"ERC721.sol\":3772:4113  require(\r... */\n      tag_177\n      jumpi\n      mload(0x40)\n      shl(0xe5, 0x461bcd)\n      dup2\n      mstore\n      0x04\n      add\n      tag_136\n      swap1\n      tag_179\n      jump\t// in\n    tag_177:\n        /* \"ERC721.sol\":3609:4121  function safeTransferFrom(\r... */\n      pop\n      pop\n      pop\n      jump\t// out\n        /* \"NftContract.sol\":163:184  string public baseURI */\n    tag_72:\n      0x07\n      dup1\n      sload\n      tag_142\n      swap1\n      tag_143\n      jump\t// in\n        /* \"ERC721.sol\":1365:1385  string public symbol */\n    tag_88:\n      0x02\n      dup1\n      sload\n      tag_142\n      swap1\n      tag_143\n      jump\t// in\n        /* \"ERC721.sol\":2766:2973  function setApprovalForAll(address operator, bool approved) public virtual {\r... */\n    tag_93:\n        /* \"ERC721.sol\":2869:2879  msg.sender */\n      caller\n        /* \"ERC721.sol\":2852:2880  isApprovedForAll[msg.sender] */\n      0x00\n      dup2\n      dup2\n      mstore\n        /* \"ERC721.sol\":2852:2868  isApprovedForAll */\n      0x06\n        /* \"ERC721.sol\":2852:2880  isApprovedForAll[msg.sender] */\n      0x20\n      swap1\n      dup2\n      mstore\n      0x40\n      dup1\n      dup4\n      keccak256\n      sub(shl(0xa0, 0x01), 0x01)\n        /* \"ERC721.sol\":2852:2890  isApprovedForAll[msg.sender][operator] */\n      dup8\n      and\n      dup1\n      dup6\n      mstore\n      swap1\n      dup4\n      mstore\n      swap3\n      dup2\n      swap1\n      keccak256\n        /* \"ERC721.sol\":2852:2901  isApprovedForAll[msg.sender][operator] = approved */\n      dup1\n      sload\n      not(0xff)\n      and\n      dup7\n      iszero\n      iszero\n      swap1\n      dup2\n      or\n      swap1\n      swap2\n      sstore\n        /* \"ERC721.sol\":2919:2965  ApprovalForAll(msg.sender, operator, approved) */\n      swap1\n      mload\n        /* \"#utility.yul\":6995:7036   */\n      swap1\n      dup2\n      mstore\n        /* \"ERC721.sol\":2852:2890  isApprovedForAll[msg.sender][operator] */\n      swap2\n      swap3\n        /* \"ERC721.sol\":2869:2879  msg.sender */\n      swap2\n        /* \"ERC721.sol\":2919:2965  ApprovalForAll(msg.sender, operator, approved) */\n      0x17307eab39ab6107e8899845ad3d59bd9653f200f220920489ca2b5937696c31\n      swap2\n        /* \"#utility.yul\":6968:6986   */\n      add\n        /* \"ERC721.sol\":2919:2965  ApprovalForAll(msg.sender, operator, approved) */\n      mload(0x40)\n      dup1\n      swap2\n      sub\n      swap1\n      log3\n        /* \"ERC721.sol\":2766:2973  function setApprovalForAll(address operator, bool approved) public virtual {\r... */\n      pop\n      pop\n      jump\t// out\n        /* \"NftContract.sol\":1907:2081  function calculateRoyalty(uint256 _salePrice)\r... */\n    tag_96:\n        /* \"NftContract.sol\":2056:2073  royaltyFeesInBips */\n      sload(0x09)\n        /* \"NftContract.sol\":2001:2008  uint256 */\n      0x00\n      swap1\n      sub(shl(0x60, 0x01), 0x01)\n        /* \"NftContract.sol\":2056:2073  royaltyFeesInBips */\n      and\n        /* \"NftContract.sol\":2034:2052  _salePrice / 10000 */\n      tag_194\n        /* \"NftContract.sol\":2047:2052  10000 */\n      0x2710\n        /* \"NftContract.sol\":2034:2044  _salePrice */\n      dup5\n        /* \"NftContract.sol\":2034:2052  _salePrice / 10000 */\n      tag_195\n      jump\t// in\n    tag_194:\n        /* \"NftContract.sol\":2033:2073  (_salePrice / 10000) * royaltyFeesInBips */\n      tag_130\n      swap2\n      swap1\n      tag_197\n      jump\t// in\n        /* \"NftContract.sol\":1000:1270  function mintMany(address to, uint64 amount) public {\r... */\n    tag_101:\n        /* \"NftContract.sol\":1081:1091  msg.sender */\n      caller\n        /* \"NftContract.sol\":1071:1092  whitelist[msg.sender] */\n      0x00\n      swap1\n      dup2\n      mstore\n        /* \"NftContract.sol\":1071:1080  whitelist */\n      0x0a\n        /* \"NftContract.sol\":1071:1092  whitelist[msg.sender] */\n      0x20\n      mstore\n      0x40\n      swap1\n      keccak256\n      sload\n      0xff\n      and\n      dup1\n        /* \"NftContract.sol\":1071:1117  whitelist[msg.sender] || msg.sender == owner() */\n      tag_199\n      jumpi\n      pop\n        /* \"utils/Ownable.sol\":400:407  address */\n      0x00\n        /* \"utils/Ownable.sol\":427:433  _owner */\n      sload\n      sub(shl(0xa0, 0x01), 0x01)\n      and\n        /* \"NftContract.sol\":1096:1106  msg.sender */\n      caller\n        /* \"NftContract.sol\":1096:1117  msg.sender == owner() */\n      eq\n        /* \"NftContract.sol\":1071:1117  whitelist[msg.sender] || msg.sender == owner() */\n    tag_199:\n        /* \"NftContract.sol\":1063:1133  require(whitelist[msg.sender] || msg.sender == owner(), \"NOT ALLOWED\") */\n      tag_201\n      jumpi\n      mload(0x40)\n      shl(0xe5, 0x461bcd)\n      dup2\n      mstore\n        /* \"#utility.yul\":10232:10234   */\n      0x20\n        /* \"NftContract.sol\":1063:1133  require(whitelist[msg.sender] || msg.sender == owner(), \"NOT ALLOWED\") */\n      0x04\n      dup3\n      add\n        /* \"#utility.yul\":10214:10235   */\n      mstore\n        /* \"#utility.yul\":10271:10273   */\n      0x0b\n        /* \"#utility.yul\":10251:10269   */\n      0x24\n      dup3\n      add\n        /* \"#utility.yul\":10244:10274   */\n      mstore\n      shl(0xaa, 0x1393d50810531313d5d151)\n        /* \"#utility.yul\":10290:10308   */\n      0x44\n      dup3\n      add\n        /* \"#utility.yul\":10283:10324   */\n      mstore\n        /* \"#utility.yul\":10341:10359   */\n      0x64\n      add\n        /* \"NftContract.sol\":1063:1133  require(whitelist[msg.sender] || msg.sender == owner(), \"NOT ALLOWED\") */\n      tag_136\n        /* \"#utility.yul\":10030:10365   */\n      jump\n        /* \"NftContract.sol\":1063:1133  require(whitelist[msg.sender] || msg.sender == owner(), \"NOT ALLOWED\") */\n    tag_201:\n        /* \"NftContract.sol\":1149:1157  uint64 i */\n      0x00\n        /* \"NftContract.sol\":1144:1263  for (uint64 i = 0; i < amount; i++) {\r... */\n    tag_204:\n        /* \"NftContract.sol\":1167:1173  amount */\n      dup2\n        /* \"NftContract.sol\":1163:1173  i < amount */\n      0xffffffffffffffff\n      and\n        /* \"NftContract.sol\":1163:1164  i */\n      dup2\n        /* \"NftContract.sol\":1163:1173  i < amount */\n      0xffffffffffffffff\n      and\n      lt\n        /* \"NftContract.sol\":1144:1263  for (uint64 i = 0; i < amount; i++) {\r... */\n      iszero\n      tag_177\n      jumpi\n        /* \"NftContract.sol\":1195:1207  tokenCounter */\n      0x08\n        /* \"NftContract.sol\":1195:1209  tokenCounter++ */\n      dup1\n      sload\n      swap1\n        /* \"NftContract.sol\":1195:1207  tokenCounter */\n      0x00\n        /* \"NftContract.sol\":1195:1209  tokenCounter++ */\n      tag_207\n      dup4\n      tag_208\n      jump\t// in\n    tag_207:\n      swap2\n      swap1\n      pop\n      sstore\n      pop\n        /* \"NftContract.sol\":1224:1251  _safeMint(to, tokenCounter) */\n      tag_209\n        /* \"NftContract.sol\":1234:1236  to */\n      dup4\n        /* \"NftContract.sol\":1238:1250  tokenCounter */\n      sload(0x08)\n        /* \"NftContract.sol\":1224:1233  _safeMint */\n      tag_210\n        /* \"NftContract.sol\":1224:1251  _safeMint(to, tokenCounter) */\n      jump\t// in\n    tag_209:\n        /* \"NftContract.sol\":1175:1178  i++ */\n      dup1\n      tag_211\n      dup2\n      tag_212\n      jump\t// in\n    tag_211:\n      swap2\n      pop\n      pop\n        /* \"NftContract.sol\":1144:1263  for (uint64 i = 0; i < amount; i++) {\r... */\n      jump(tag_204)\n        /* \"ERC721.sol\":4129:4671  function safeTransferFrom(\r... */\n    tag_108:\n        /* \"ERC721.sol\":4281:4307  transferFrom(from, to, id) */\n      tag_214\n        /* \"ERC721.sol\":4294:4298  from */\n      dup5\n        /* \"ERC721.sol\":4300:4302  to */\n      dup5\n        /* \"ERC721.sol\":4304:4306  id */\n      dup5\n        /* \"ERC721.sol\":4281:4293  transferFrom */\n      tag_57\n        /* \"ERC721.sol\":4281:4307  transferFrom(from, to, id) */\n      jump\t// in\n    tag_214:\n      sub(shl(0xa0, 0x01), 0x01)\n        /* \"ERC721.sol\":4342:4356  to.code.length */\n      dup4\n      and\n      extcodesize\n        /* \"ERC721.sol\":4342:4361  to.code.length == 0 */\n      iszero\n      dup1\n        /* \"ERC721.sol\":4342:4619  to.code.length == 0 ||\r... */\n      tag_215\n      jumpi\n      pop\n        /* \"ERC721.sol\":4382:4553  ERC721TokenReceiver(to).onERC721Received(\r... */\n      mload(0x40)\n      shl(0xe1, 0x0a85bd01)\n      dup1\n      dup3\n      mstore\n        /* \"ERC721.sol\":4574:4619  ERC721TokenReceiver.onERC721Received.selector */\n      swap1\n      sub(shl(0xa0, 0x01), 0x01)\n        /* \"ERC721.sol\":4382:4422  ERC721TokenReceiver(to).onERC721Received */\n      dup6\n      and\n      swap1\n        /* \"ERC721.sol\":4574:4619  ERC721TokenReceiver.onERC721Received.selector */\n      0x150b7a02\n      swap1\n        /* \"ERC721.sol\":4382:4553  ERC721TokenReceiver(to).onERC721Received(\r... */\n      tag_216\n      swap1\n        /* \"ERC721.sol\":4445:4455  msg.sender */\n      caller\n      swap1\n        /* \"ERC721.sol\":4478:4482  from */\n      dup10\n      swap1\n        /* \"ERC721.sol\":4505:4507  id */\n      dup9\n      swap1\n        /* \"ERC721.sol\":4530:4534  data */\n      dup9\n      swap1\n        /* \"ERC721.sol\":4382:4553  ERC721TokenReceiver(to).onERC721Received(\r... */\n      0x04\n      add\n      tag_217\n      jump\t// in\n    tag_216:\n      0x20\n      mload(0x40)\n      dup1\n      dup4\n      sub\n      dup2\n      0x00\n      dup8\n      dup1\n      extcodesize\n      iszero\n      dup1\n      iszero\n      tag_218\n      jumpi\n      0x00\n      dup1\n      revert\n    tag_218:\n      pop\n      gas\n      call\n      iszero\n      dup1\n      iszero\n      tag_220\n      jumpi\n      returndatasize\n      0x00\n      dup1\n      returndatacopy\n      revert(0x00, returndatasize)\n    tag_220:\n      pop\n      pop\n      pop\n      pop\n      mload(0x40)\n      returndatasize\n      not(0x1f)\n      0x1f\n      dup3\n      add\n      and\n      dup3\n      add\n      dup1\n      0x40\n      mstore\n      pop\n      dup2\n      add\n      swap1\n      tag_221\n      swap2\n      swap1\n      tag_176\n      jump\t// in\n    tag_221:\n      not(sub(shl(0xe0, 0x01), 0x01))\n        /* \"ERC721.sol\":4382:4619  ERC721TokenReceiver(to).onERC721Received(\r... */\n      and\n      eq\n        /* \"ERC721.sol\":4342:4619  to.code.length == 0 ||\r... */\n    tag_215:\n        /* \"ERC721.sol\":4320:4663  require(\r... */\n      tag_222\n      jumpi\n      mload(0x40)\n      shl(0xe5, 0x461bcd)\n      dup2\n      mstore\n      0x04\n      add\n      tag_136\n      swap1\n      tag_179\n      jump\t// in\n    tag_222:\n        /* \"ERC721.sol\":4129:4671  function safeTransferFrom(\r... */\n      pop\n      pop\n      pop\n      pop\n      jump\t// out\n        /* \"NftContract.sol\":1278:1392  function allowMint(address _minter, bool status) external onlyOwner {\r... */\n    tag_111:\n        /* \"utils/Ownable.sol\":400:407  address */\n      0x00\n        /* \"utils/Ownable.sol\":427:433  _owner */\n      sload\n      sub(shl(0xa0, 0x01), 0x01)\n      and\n        /* \"utils/Context.sol\":175:185  msg.sender */\n      caller\n        /* \"utils/Ownable.sol\":489:512  _msgSender() == owner() */\n      eq\n        /* \"utils/Ownable.sol\":481:540  require(_msgSender() == owner(), \"Caller is not the owner\") */\n      tag_227\n      jumpi\n      mload(0x40)\n      shl(0xe5, 0x461bcd)\n      dup2\n      mstore\n      0x04\n      add\n      tag_136\n      swap1\n      tag_137\n      jump\t// in\n    tag_227:\n      sub(shl(0xa0, 0x01), 0x01)\n        /* \"NftContract.sol\":1357:1375  whitelist[_minter] */\n      swap2\n      swap1\n      swap2\n      and\n      0x00\n      swap1\n      dup2\n      mstore\n        /* \"NftContract.sol\":1357:1366  whitelist */\n      0x0a\n        /* \"NftContract.sol\":1357:1375  whitelist[_minter] */\n      0x20\n      mstore\n      0x40\n      swap1\n      keccak256\n        /* \"NftContract.sol\":1357:1384  whitelist[_minter] = status */\n      dup1\n      sload\n      not(0xff)\n      and\n      swap2\n      iszero\n      iszero\n      swap2\n      swap1\n      swap2\n      or\n      swap1\n      sstore\n        /* \"NftContract.sol\":1278:1392  function allowMint(address _minter, bool status) external onlyOwner {\r... */\n      jump\t// out\n        /* \"ERC721.sol\":1752:2155  function tokenURI(uint256 tokenId)\r... */\n    tag_114:\n        /* \"ERC721.sol\":2228:2232  bool */\n      0x00\n        /* \"ERC721.sol\":2261:2277  ownerOf[tokenId] */\n      dup2\n      dup2\n      mstore\n        /* \"ERC721.sol\":2261:2268  ownerOf */\n      0x04\n        /* \"ERC721.sol\":2261:2277  ownerOf[tokenId] */\n      0x20\n      mstore\n      0x40\n      swap1\n      keccak256\n      sload\n        /* \"ERC721.sol\":1852:1865  string memory */\n      0x60\n      swap1\n      sub(shl(0xa0, 0x01), 0x01)\n        /* \"ERC721.sol\":2261:2277  ownerOf[tokenId] */\n      and\n        /* \"ERC721.sol\":1883:1940  require(_exists(tokenId), \"No token with this Id exists\") */\n      tag_233\n      jumpi\n      mload(0x40)\n      shl(0xe5, 0x461bcd)\n      dup2\n      mstore\n        /* \"#utility.yul\":9184:9186   */\n      0x20\n        /* \"ERC721.sol\":1883:1940  require(_exists(tokenId), \"No token with this Id exists\") */\n      0x04\n      dup3\n      add\n        /* \"#utility.yul\":9166:9187   */\n      mstore\n        /* \"#utility.yul\":9223:9225   */\n      0x1c\n        /* \"#utility.yul\":9203:9221   */\n      0x24\n      dup3\n      add\n        /* \"#utility.yul\":9196:9226   */\n      mstore\n        /* \"#utility.yul\":9262:9292   */\n      0x4e6f20746f6b656e207769746820746869732049642065786973747300000000\n        /* \"#utility.yul\":9242:9260   */\n      0x44\n      dup3\n      add\n        /* \"#utility.yul\":9235:9293   */\n      mstore\n        /* \"#utility.yul\":9310:9328   */\n      0x64\n      add\n        /* \"ERC721.sol\":1883:1940  require(_exists(tokenId), \"No token with this Id exists\") */\n      tag_136\n        /* \"#utility.yul\":8982:9334   */\n      jump\n        /* \"ERC721.sol\":1883:1940  require(_exists(tokenId), \"No token with this Id exists\") */\n    tag_233:\n        /* \"ERC721.sol\":1953:1974  string memory baseURI */\n      0x00\n        /* \"ERC721.sol\":1977:1987  _baseURI() */\n      tag_236\n        /* \"ERC721.sol\":1977:1985  _baseURI */\n      tag_237\n        /* \"ERC721.sol\":1977:1987  _baseURI() */\n      jump\t// in\n    tag_236:\n        /* \"ERC721.sol\":1953:1987  string memory baseURI = _baseURI() */\n      swap1\n      pop\n        /* \"ERC721.sol\":2042:2043  0 */\n      0x00\n        /* \"ERC721.sol\":2024:2031  baseURI */\n      dup2\n        /* \"ERC721.sol\":2018:2039  bytes(baseURI).length */\n      mload\n        /* \"ERC721.sol\":2018:2043  bytes(baseURI).length > 0 */\n      gt\n        /* \"ERC721.sol\":2018:2147  bytes(baseURI).length > 0\r... */\n      tag_238\n      jumpi\n      mload(0x40)\n      dup1\n      0x20\n      add\n      0x40\n      mstore\n      dup1\n      0x00\n      dup2\n      mstore\n      pop\n      jump(tag_239)\n    tag_238:\n        /* \"ERC721.sol\":2087:2094  baseURI */\n      dup1\n        /* \"ERC721.sol\":2096:2114  tokenId.toString() */\n      tag_240\n        /* \"ERC721.sol\":2096:2103  tokenId */\n      dup5\n        /* \"ERC721.sol\":2096:2112  tokenId.toString */\n      tag_241\n        /* \"ERC721.sol\":2096:2114  tokenId.toString() */\n      jump\t// in\n    tag_240:\n        /* \"ERC721.sol\":2070:2124  abi.encodePacked(baseURI, tokenId.toString(), \".json\") */\n      add(0x20, mload(0x40))\n      tag_242\n      swap3\n      swap2\n      swap1\n      tag_243\n      jump\t// in\n    tag_242:\n      mload(0x40)\n      0x20\n      dup2\n      dup4\n      sub\n      sub\n      dup2\n      mstore\n      swap1\n      0x40\n      mstore\n        /* \"ERC721.sol\":2018:2147  bytes(baseURI).length > 0\r... */\n    tag_239:\n        /* \"ERC721.sol\":1998:2147  return\r... */\n      swap4\n        /* \"ERC721.sol\":1752:2155  function tokenURI(uint256 tokenId)\r... */\n      swap3\n      pop\n      pop\n      pop\n      jump\t// out\n        /* \"utils/Ownable.sol\":568:759  function transferOwnership(address newOwner) public virtual onlyOwner {\r... */\n    tag_123:\n        /* \"utils/Ownable.sol\":400:407  address */\n      0x00\n        /* \"utils/Ownable.sol\":427:433  _owner */\n      sload\n      sub(shl(0xa0, 0x01), 0x01)\n      and\n        /* \"utils/Context.sol\":175:185  msg.sender */\n      caller\n        /* \"utils/Ownable.sol\":489:512  _msgSender() == owner() */\n      eq\n        /* \"utils/Ownable.sol\":481:540  require(_msgSender() == owner(), \"Caller is not the owner\") */\n      tag_247\n      jumpi\n      mload(0x40)\n      shl(0xe5, 0x461bcd)\n      dup2\n      mstore\n      0x04\n      add\n      tag_136\n      swap1\n      tag_137\n      jump\t// in\n    tag_247:\n      sub(shl(0xa0, 0x01), 0x01)\n        /* \"utils/Ownable.sol\":657:679  newOwner != address(0) */\n      dup2\n      and\n        /* \"utils/Ownable.sol\":649:712  require(newOwner != address(0), \"Owner cannot be zero address\") */\n      tag_250\n      jumpi\n      mload(0x40)\n      shl(0xe5, 0x461bcd)\n      dup2\n      mstore\n        /* \"#utility.yul\":10572:10574   */\n      0x20\n        /* \"utils/Ownable.sol\":649:712  require(newOwner != address(0), \"Owner cannot be zero address\") */\n      0x04\n      dup3\n      add\n        /* \"#utility.yul\":10554:10575   */\n      mstore\n        /* \"#utility.yul\":10611:10613   */\n      0x1c\n        /* \"#utility.yul\":10591:10609   */\n      0x24\n      dup3\n      add\n        /* \"#utility.yul\":10584:10614   */\n      mstore\n        /* \"#utility.yul\":10650:10680   */\n      0x4f776e65722063616e6e6f74206265207a65726f206164647265737300000000\n        /* \"#utility.yul\":10630:10648   */\n      0x44\n      dup3\n      add\n        /* \"#utility.yul\":10623:10681   */\n      mstore\n        /* \"#utility.yul\":10698:10716   */\n      0x64\n      add\n        /* \"utils/Ownable.sol\":649:712  require(newOwner != address(0), \"Owner cannot be zero address\") */\n      tag_136\n        /* \"#utility.yul\":10370:10722   */\n      jump\n        /* \"utils/Ownable.sol\":649:712  require(newOwner != address(0), \"Owner cannot be zero address\") */\n    tag_250:\n        /* \"utils/Ownable.sol\":723:751  _transferOwnership(newOwner) */\n      tag_253\n        /* \"utils/Ownable.sol\":742:750  newOwner */\n      dup2\n        /* \"utils/Ownable.sol\":723:741  _transferOwnership */\n      tag_254\n        /* \"utils/Ownable.sol\":723:751  _transferOwnership(newOwner) */\n      jump\t// in\n    tag_253:\n        /* \"utils/Ownable.sol\":568:759  function transferOwnership(address newOwner) public virtual onlyOwner {\r... */\n      pop\n      jump\t// out\n        /* \"NftContract.sol\":802:992  function mintOne(address to) public {\r... */\n    tag_126:\n        /* \"NftContract.sol\":867:877  msg.sender */\n      caller\n        /* \"NftContract.sol\":857:878  whitelist[msg.sender] */\n      0x00\n      swap1\n      dup2\n      mstore\n        /* \"NftContract.sol\":857:866  whitelist */\n      0x0a\n        /* \"NftContract.sol\":857:878  whitelist[msg.sender] */\n      0x20\n      mstore\n      0x40\n      swap1\n      keccak256\n      sload\n      0xff\n      and\n      dup1\n        /* \"NftContract.sol\":857:903  whitelist[msg.sender] || msg.sender == owner() */\n      tag_256\n      jumpi\n      pop\n        /* \"utils/Ownable.sol\":400:407  address */\n      0x00\n        /* \"utils/Ownable.sol\":427:433  _owner */\n      sload\n      sub(shl(0xa0, 0x01), 0x01)\n      and\n        /* \"NftContract.sol\":882:892  msg.sender */\n      caller\n        /* \"NftContract.sol\":882:903  msg.sender == owner() */\n      eq\n        /* \"NftContract.sol\":857:903  whitelist[msg.sender] || msg.sender == owner() */\n    tag_256:\n        /* \"NftContract.sol\":849:919  require(whitelist[msg.sender] || msg.sender == owner(), \"NOT ALLOWED\") */\n      tag_258\n      jumpi\n      mload(0x40)\n      shl(0xe5, 0x461bcd)\n      dup2\n      mstore\n        /* \"#utility.yul\":10232:10234   */\n      0x20\n        /* \"NftContract.sol\":849:919  require(whitelist[msg.sender] || msg.sender == owner(), \"NOT ALLOWED\") */\n      0x04\n      dup3\n      add\n        /* \"#utility.yul\":10214:10235   */\n      mstore\n        /* \"#utility.yul\":10271:10273   */\n      0x0b\n        /* \"#utility.yul\":10251:10269   */\n      0x24\n      dup3\n      add\n        /* \"#utility.yul\":10244:10274   */\n      mstore\n      shl(0xaa, 0x1393d50810531313d5d151)\n        /* \"#utility.yul\":10290:10308   */\n      0x44\n      dup3\n      add\n        /* \"#utility.yul\":10283:10324   */\n      mstore\n        /* \"#utility.yul\":10341:10359   */\n      0x64\n      add\n        /* \"NftContract.sol\":849:919  require(whitelist[msg.sender] || msg.sender == owner(), \"NOT ALLOWED\") */\n      tag_136\n        /* \"#utility.yul\":10030:10365   */\n      jump\n        /* \"NftContract.sol\":849:919  require(whitelist[msg.sender] || msg.sender == owner(), \"NOT ALLOWED\") */\n    tag_258:\n        /* \"NftContract.sol\":932:944  tokenCounter */\n      0x08\n        /* \"NftContract.sol\":932:946  tokenCounter++ */\n      dup1\n      sload\n      swap1\n        /* \"NftContract.sol\":932:944  tokenCounter */\n      0x00\n        /* \"NftContract.sol\":932:946  tokenCounter++ */\n      tag_260\n      dup4\n      tag_208\n      jump\t// in\n    tag_260:\n      swap2\n      swap1\n      pop\n      sstore\n      pop\n        /* \"NftContract.sol\":957:984  _safeMint(to, tokenCounter) */\n      tag_253\n        /* \"NftContract.sol\":967:969  to */\n      dup2\n        /* \"NftContract.sol\":971:983  tokenCounter */\n      sload(0x08)\n        /* \"ERC721.sol\":5329:5781  function _safeMint(address to, uint256 id) internal virtual {\r... */\n    tag_210:\n        /* \"ERC721.sol\":5400:5413  _mint(to, id) */\n      tag_264\n        /* \"ERC721.sol\":5406:5408  to */\n      dup3\n        /* \"ERC721.sol\":5410:5412  id */\n      dup3\n        /* \"ERC721.sol\":5400:5405  _mint */\n      tag_265\n        /* \"ERC721.sol\":5400:5413  _mint(to, id) */\n      jump\t// in\n    tag_264:\n      sub(shl(0xa0, 0x01), 0x01)\n        /* \"ERC721.sol\":5448:5462  to.code.length */\n      dup3\n      and\n      extcodesize\n        /* \"ERC721.sol\":5448:5467  to.code.length == 0 */\n      iszero\n      dup1\n        /* \"ERC721.sol\":5448:5729  to.code.length == 0 ||\r... */\n      tag_266\n      jumpi\n      pop\n        /* \"ERC721.sol\":5488:5663  ERC721TokenReceiver(to).onERC721Received(\r... */\n      mload(0x40)\n      shl(0xe1, 0x0a85bd01)\n      dup1\n      dup3\n      mstore\n        /* \"ERC721.sol\":5551:5561  msg.sender */\n      caller\n        /* \"ERC721.sol\":5488:5663  ERC721TokenReceiver(to).onERC721Received(\r... */\n      0x04\n      dup4\n      add\n        /* \"#utility.yul\":6321:6355   */\n      mstore\n        /* \"ERC721.sol\":5592:5593  0 */\n      0x00\n        /* \"#utility.yul\":6371:6389   */\n      0x24\n      dup4\n      add\n        /* \"#utility.yul\":6364:6407   */\n      dup2\n      swap1\n      mstore\n        /* \"#utility.yul\":6423:6441   */\n      0x44\n      dup4\n      add\n        /* \"#utility.yul\":6416:6450   */\n      dup5\n      swap1\n      mstore\n        /* \"#utility.yul\":6486:6489   */\n      0x80\n        /* \"#utility.yul\":6466:6484   */\n      0x64\n      dup5\n      add\n        /* \"#utility.yul\":6459:6490   */\n      mstore\n        /* \"#utility.yul\":6506:6525   */\n      0x84\n      dup4\n      add\n        /* \"#utility.yul\":6499:6529   */\n      mstore\n        /* \"ERC721.sol\":5684:5729  ERC721TokenReceiver.onERC721Received.selector */\n      swap1\n      sub(shl(0xa0, 0x01), 0x01)\n        /* \"ERC721.sol\":5488:5528  ERC721TokenReceiver(to).onERC721Received */\n      dup5\n      and\n      swap1\n        /* \"ERC721.sol\":5684:5729  ERC721TokenReceiver.onERC721Received.selector */\n      0x150b7a02\n      swap1\n        /* \"#utility.yul\":6546:6565   */\n      0xa4\n      add\n        /* \"ERC721.sol\":5488:5663  ERC721TokenReceiver(to).onERC721Received(\r... */\n      0x20\n      mload(0x40)\n      dup1\n      dup4\n      sub\n      dup2\n      0x00\n      dup8\n      dup1\n      extcodesize\n      iszero\n      dup1\n      iszero\n      tag_268\n      jumpi\n      0x00\n      dup1\n      revert\n    tag_268:\n      pop\n      gas\n      call\n      iszero\n      dup1\n      iszero\n      tag_270\n      jumpi\n      returndatasize\n      0x00\n      dup1\n      returndatacopy\n      revert(0x00, returndatasize)\n    tag_270:\n      pop\n      pop\n      pop\n      pop\n      mload(0x40)\n      returndatasize\n      not(0x1f)\n      0x1f\n      dup3\n      add\n      and\n      dup3\n      add\n      dup1\n      0x40\n      mstore\n      pop\n      dup2\n      add\n      swap1\n      tag_271\n      swap2\n      swap1\n      tag_176\n      jump\t// in\n    tag_271:\n      not(sub(shl(0xe0, 0x01), 0x01))\n        /* \"ERC721.sol\":5488:5729  ERC721TokenReceiver(to).onERC721Received(\r... */\n      and\n      eq\n        /* \"ERC721.sol\":5448:5729  to.code.length == 0 ||\r... */\n    tag_266:\n        /* \"ERC721.sol\":5426:5773  require(\r... */\n      tag_272\n      jumpi\n      mload(0x40)\n      shl(0xe5, 0x461bcd)\n      dup2\n      mstore\n      0x04\n      add\n      tag_136\n      swap1\n      tag_179\n      jump\t// in\n    tag_272:\n        /* \"ERC721.sol\":5329:5781  function _safeMint(address to, uint256 id) internal virtual {\r... */\n      pop\n      pop\n      jump\t// out\n        /* \"NftContract.sol\":686:794  function _baseURI() internal view virtual override returns (string memory) {\r... */\n    tag_237:\n        /* \"NftContract.sol\":746:759  string memory */\n      0x60\n        /* \"NftContract.sol\":779:786  baseURI */\n      0x07\n        /* \"NftContract.sol\":772:786  return baseURI */\n      dup1\n      sload\n      tag_276\n      swap1\n      tag_143\n      jump\t// in\n    tag_276:\n      dup1\n      0x1f\n      add\n      0x20\n      dup1\n      swap2\n      div\n      mul\n      0x20\n      add\n      mload(0x40)\n      swap1\n      dup2\n      add\n      0x40\n      mstore\n      dup1\n      swap3\n      swap2\n      swap1\n      dup2\n      dup2\n      mstore\n      0x20\n      add\n      dup3\n      dup1\n      sload\n      tag_277\n      swap1\n      tag_143\n      jump\t// in\n    tag_277:\n      dup1\n      iszero\n      tag_278\n      jumpi\n      dup1\n      0x1f\n      lt\n      tag_279\n      jumpi\n      0x0100\n      dup1\n      dup4\n      sload\n      div\n      mul\n      dup4\n      mstore\n      swap2\n      0x20\n      add\n      swap2\n      jump(tag_278)\n    tag_279:\n      dup3\n      add\n      swap2\n      swap1\n      0x00\n      mstore\n      keccak256(0x00, 0x20)\n      swap1\n    tag_280:\n      dup2\n      sload\n      dup2\n      mstore\n      swap1\n      0x01\n      add\n      swap1\n      0x20\n      add\n      dup1\n      dup4\n      gt\n      tag_280\n      jumpi\n      dup3\n      swap1\n      sub\n      0x1f\n      and\n      dup3\n      add\n      swap2\n    tag_278:\n      pop\n      pop\n      pop\n      pop\n      pop\n      swap1\n      pop\n        /* \"NftContract.sol\":686:794  function _baseURI() internal view virtual override returns (string memory) {\r... */\n      swap1\n      jump\t// out\n        /* \"utils/Strings.sol\":161:706  function toString(uint256 value) internal pure returns (string memory) {\r... */\n    tag_241:\n        /* \"utils/Strings.sol\":217:230  string memory */\n      0x60\n        /* \"utils/Strings.sol\":260:270  value == 0 */\n      dup2\n        /* \"utils/Strings.sol\":256:309  if (value == 0) {\r... */\n      tag_282\n      jumpi\n      pop\n      pop\n        /* \"utils/Strings.sol\":287:297  return \"0\" */\n      0x40\n      dup1\n      mload\n      dup1\n      dup3\n      add\n      swap1\n      swap2\n      mstore\n      0x01\n      dup2\n      mstore\n      shl(0xfc, 0x03)\n      0x20\n      dup3\n      add\n      mstore\n      swap1\n        /* \"utils/Strings.sol\":161:706  function toString(uint256 value) internal pure returns (string memory) {\r... */\n      jump\t// out\n        /* \"utils/Strings.sol\":256:309  if (value == 0) {\r... */\n    tag_282:\n        /* \"utils/Strings.sol\":334:339  value */\n      dup2\n        /* \"utils/Strings.sol\":319:331  uint256 temp */\n      0x00\n        /* \"utils/Strings.sol\":375:453  while (temp != 0) {\r... */\n    tag_283:\n        /* \"utils/Strings.sol\":382:391  temp != 0 */\n      dup2\n      iszero\n        /* \"utils/Strings.sol\":375:453  while (temp != 0) {\r... */\n      tag_284\n      jumpi\n        /* \"utils/Strings.sol\":408:416  digits++ */\n      dup1\n      tag_285\n      dup2\n      tag_208\n      jump\t// in\n    tag_285:\n      swap2\n      pop\n        /* \"utils/Strings.sol\":431:441  temp /= 10 */\n      tag_286\n      swap1\n      pop\n        /* \"utils/Strings.sol\":439:441  10 */\n      0x0a\n        /* \"utils/Strings.sol\":431:441  temp /= 10 */\n      dup4\n      tag_195\n      jump\t// in\n    tag_286:\n      swap2\n      pop\n        /* \"utils/Strings.sol\":375:453  while (temp != 0) {\r... */\n      jump(tag_283)\n    tag_284:\n        /* \"utils/Strings.sol\":463:482  bytes memory buffer */\n      0x00\n        /* \"utils/Strings.sol\":495:501  digits */\n      dup2\n        /* \"utils/Strings.sol\":485:502  new bytes(digits) */\n      0xffffffffffffffff\n      dup2\n      gt\n      iszero\n      tag_288\n      jumpi\n      tag_288\n      tag_289\n      jump\t// in\n    tag_288:\n      mload(0x40)\n      swap1\n      dup1\n      dup3\n      mstore\n      dup1\n      0x1f\n      add\n      not(0x1f)\n      and\n      0x20\n      add\n      dup3\n      add\n      0x40\n      mstore\n      dup1\n      iszero\n      tag_290\n      jumpi\n      0x20\n      dup3\n      add\n      dup2\n      dup1\n      calldatasize\n      dup4\n      calldatacopy\n      add\n      swap1\n      pop\n    tag_290:\n      pop\n        /* \"utils/Strings.sol\":463:502  bytes memory buffer = new bytes(digits) */\n      swap1\n      pop\n        /* \"utils/Strings.sol\":513:667  while (value != 0) {\r... */\n    tag_291:\n        /* \"utils/Strings.sol\":520:530  value != 0 */\n      dup5\n      iszero\n        /* \"utils/Strings.sol\":513:667  while (value != 0) {\r... */\n      tag_292\n      jumpi\n        /* \"utils/Strings.sol\":547:558  digits -= 1 */\n      tag_293\n        /* \"utils/Strings.sol\":557:558  1 */\n      0x01\n        /* \"utils/Strings.sol\":547:558  digits -= 1 */\n      dup4\n      tag_294\n      jump\t// in\n    tag_293:\n      swap2\n      pop\n        /* \"utils/Strings.sol\":616:626  value % 10 */\n      tag_295\n        /* \"utils/Strings.sol\":624:626  10 */\n      0x0a\n        /* \"utils/Strings.sol\":616:621  value */\n      dup7\n        /* \"utils/Strings.sol\":616:626  value % 10 */\n      tag_296\n      jump\t// in\n    tag_295:\n        /* \"utils/Strings.sol\":603:627  48 + uint256(value % 10) */\n      tag_297\n      swap1\n        /* \"utils/Strings.sol\":603:605  48 */\n      0x30\n        /* \"utils/Strings.sol\":603:627  48 + uint256(value % 10) */\n      tag_298\n      jump\t// in\n    tag_297:\n        /* \"utils/Strings.sol\":590:629  bytes1(uint8(48 + uint256(value % 10))) */\n      0xf8\n      shl\n        /* \"utils/Strings.sol\":573:579  buffer */\n      dup2\n        /* \"utils/Strings.sol\":580:586  digits */\n      dup4\n        /* \"utils/Strings.sol\":573:587  buffer[digits] */\n      dup2\n      mload\n      dup2\n      lt\n      tag_300\n      jumpi\n      tag_300\n      tag_301\n      jump\t// in\n    tag_300:\n      0x20\n      add\n      add\n        /* \"utils/Strings.sol\":573:629  buffer[digits] = bytes1(uint8(48 + uint256(value % 10))) */\n      swap1\n      not(sub(shl(0xf8, 0x01), 0x01))\n      and\n      swap1\n      dup2\n      0x00\n      byte\n      swap1\n      mstore8\n      pop\n        /* \"utils/Strings.sol\":644:655  value /= 10 */\n      tag_302\n        /* \"utils/Strings.sol\":653:655  10 */\n      0x0a\n        /* \"utils/Strings.sol\":644:655  value /= 10 */\n      dup7\n      tag_195\n      jump\t// in\n    tag_302:\n      swap5\n      pop\n        /* \"utils/Strings.sol\":513:667  while (value != 0) {\r... */\n      jump(tag_291)\n    tag_292:\n        /* \"utils/Strings.sol\":691:697  buffer */\n      swap5\n        /* \"utils/Strings.sol\":161:706  function toString(uint256 value) internal pure returns (string memory) {\r... */\n      swap4\n      pop\n      pop\n      pop\n      pop\n      jump\t// out\n        /* \"utils/Ownable.sol\":767:958  function _transferOwnership(address newOwner) internal virtual {\r... */\n    tag_254:\n        /* \"utils/Ownable.sol\":841:857  address oldOwner */\n      0x00\n        /* \"utils/Ownable.sol\":427:433  _owner */\n      dup1\n      sload\n      sub(shl(0xa0, 0x01), 0x01)\n        /* \"utils/Ownable.sol\":878:895  _owner = newOwner */\n      dup4\n      dup2\n      and\n      not(sub(shl(0xa0, 0x01), 0x01))\n      dup4\n      and\n      dup2\n      or\n      dup5\n      sstore\n        /* \"utils/Ownable.sol\":911:950  OwnershipTransfered(oldOwner, newOwner) */\n      mload(0x40)\n        /* \"utils/Ownable.sol\":427:433  _owner */\n      swap2\n      swap1\n      swap3\n      and\n      swap3\n      dup4\n      swap2\n        /* \"utils/Ownable.sol\":911:950  OwnershipTransfered(oldOwner, newOwner) */\n      0x0d18b5fd22306e373229b9439188228edca81207d1667f604daf6cef8aa3ee67\n      swap2\n        /* \"utils/Ownable.sol\":841:857  address oldOwner */\n      swap1\n        /* \"utils/Ownable.sol\":911:950  OwnershipTransfered(oldOwner, newOwner) */\n      log3\n        /* \"utils/Ownable.sol\":830:958  {\r... */\n      pop\n        /* \"utils/Ownable.sol\":767:958  function _transferOwnership(address newOwner) internal virtual {\r... */\n      pop\n      jump\t// out\n        /* \"ERC721.sol\":4679:4997  function _mint(address to, uint256 id) internal virtual {\r... */\n    tag_265:\n      sub(shl(0xa0, 0x01), 0x01)\n        /* \"ERC721.sol\":4754:4770  to != address(0) */\n      dup3\n      and\n        /* \"ERC721.sol\":4746:4785  require(to != address(0), \"INVALID_TO\") */\n      tag_306\n      jumpi\n      mload(0x40)\n      shl(0xe5, 0x461bcd)\n      dup2\n      mstore\n        /* \"#utility.yul\":8500:8502   */\n      0x20\n        /* \"ERC721.sol\":4746:4785  require(to != address(0), \"INVALID_TO\") */\n      0x04\n      dup3\n      add\n        /* \"#utility.yul\":8482:8503   */\n      mstore\n        /* \"#utility.yul\":8539:8541   */\n      0x0a\n        /* \"#utility.yul\":8519:8537   */\n      0x24\n      dup3\n      add\n        /* \"#utility.yul\":8512:8542   */\n      mstore\n      shl(0xb0, 0x494e56414c49445f544f)\n        /* \"#utility.yul\":8558:8576   */\n      0x44\n      dup3\n      add\n        /* \"#utility.yul\":8551:8591   */\n      mstore\n        /* \"#utility.yul\":8608:8626   */\n      0x64\n      add\n        /* \"ERC721.sol\":4746:4785  require(to != address(0), \"INVALID_TO\") */\n      tag_136\n        /* \"#utility.yul\":8298:8632   */\n      jump\n        /* \"ERC721.sol\":4746:4785  require(to != address(0), \"INVALID_TO\") */\n    tag_306:\n        /* \"ERC721.sol\":4829:4830  0 */\n      0x00\n        /* \"ERC721.sol\":4806:4817  ownerOf[id] */\n      dup2\n      dup2\n      mstore\n        /* \"ERC721.sol\":4806:4813  ownerOf */\n      0x04\n        /* \"ERC721.sol\":4806:4817  ownerOf[id] */\n      0x20\n      mstore\n      0x40\n      swap1\n      keccak256\n      sload\n      sub(shl(0xa0, 0x01), 0x01)\n      and\n        /* \"ERC721.sol\":4806:4831  ownerOf[id] == address(0) */\n      iszero\n        /* \"ERC721.sol\":4798:4850  require(ownerOf[id] == address(0), \"ALREADY_MINTED\") */\n      tag_309\n      jumpi\n      mload(0x40)\n      shl(0xe5, 0x461bcd)\n      dup2\n      mstore\n        /* \"#utility.yul\":10929:10931   */\n      0x20\n        /* \"ERC721.sol\":4798:4850  require(ownerOf[id] == address(0), \"ALREADY_MINTED\") */\n      0x04\n      dup3\n      add\n        /* \"#utility.yul\":10911:10932   */\n      mstore\n        /* \"#utility.yul\":10968:10970   */\n      0x0e\n        /* \"#utility.yul\":10948:10966   */\n      0x24\n      dup3\n      add\n        /* \"#utility.yul\":10941:10971   */\n      mstore\n      shl(0x92, 0x1053149150511657d35253951151)\n        /* \"#utility.yul\":10987:11005   */\n      0x44\n      dup3\n      add\n        /* \"#utility.yul\":10980:11024   */\n      mstore\n        /* \"#utility.yul\":11041:11059   */\n      0x64\n      add\n        /* \"ERC721.sol\":4798:4850  require(ownerOf[id] == address(0), \"ALREADY_MINTED\") */\n      tag_136\n        /* \"#utility.yul\":10727:11065   */\n      jump\n        /* \"ERC721.sol\":4798:4850  require(ownerOf[id] == address(0), \"ALREADY_MINTED\") */\n    tag_309:\n      sub(shl(0xa0, 0x01), 0x01)\n        /* \"ERC721.sol\":4888:4901  balanceOf[to] */\n      dup3\n      and\n      0x00\n      dup2\n      dup2\n      mstore\n        /* \"ERC721.sol\":4888:4897  balanceOf */\n      0x03\n        /* \"ERC721.sol\":4888:4901  balanceOf[to] */\n      0x20\n      swap1\n      dup2\n      mstore\n      0x40\n      dup1\n      dup4\n      keccak256\n        /* \"ERC721.sol\":4888:4903  balanceOf[to]++ */\n      dup1\n      sload\n      0x01\n      add\n      swap1\n      sstore\n        /* \"ERC721.sol\":4927:4938  ownerOf[id] */\n      dup5\n      dup4\n      mstore\n        /* \"ERC721.sol\":4927:4934  ownerOf */\n      0x04\n        /* \"ERC721.sol\":4927:4938  ownerOf[id] */\n      swap1\n      swap2\n      mstore\n      dup1\n      dup3\n      keccak256\n        /* \"ERC721.sol\":4927:4943  ownerOf[id] = to */\n      dup1\n      sload\n      not(sub(shl(0xa0, 0x01), 0x01))\n      and\n      dup5\n      or\n      swap1\n      sstore\n        /* \"ERC721.sol\":4961:4989  Transfer(address(0), to, id) */\n      mload\n        /* \"ERC721.sol\":4935:4937  id */\n      dup4\n      swap3\n        /* \"ERC721.sol\":4888:4901  balanceOf[to] */\n      swap2\n      swap1\n        /* \"ERC721.sol\":4961:4989  Transfer(address(0), to, id) */\n      0xddf252ad1be2c89b69c2b068fc378daa952ba7f163c4a11628f55a4df523b3ef\n      swap1\n        /* \"ERC721.sol\":4888:4901  balanceOf[to] */\n      dup3\n      swap1\n        /* \"ERC721.sol\":4961:4989  Transfer(address(0), to, id) */\n      log4\n        /* \"ERC721.sol\":4679:4997  function _mint(address to, uint256 id) internal virtual {\r... */\n      pop\n      pop\n      jump\t// out\n        /* \"#utility.yul\":14:187   */\n    tag_313:\n        /* \"#utility.yul\":82:102   */\n      dup1\n      calldataload\n      sub(shl(0xa0, 0x01), 0x01)\n        /* \"#utility.yul\":131:162   */\n      dup2\n      and\n        /* \"#utility.yul\":121:163   */\n      dup2\n      eq\n        /* \"#utility.yul\":111:181   */\n      tag_315\n      jumpi\n        /* \"#utility.yul\":177:178   */\n      0x00\n        /* \"#utility.yul\":174:175   */\n      dup1\n        /* \"#utility.yul\":167:179   */\n      revert\n        /* \"#utility.yul\":111:181   */\n    tag_315:\n        /* \"#utility.yul\":14:187   */\n      swap2\n      swap1\n      pop\n      jump\t// out\n        /* \"#utility.yul\":192:378   */\n    tag_76:\n        /* \"#utility.yul\":251:257   */\n      0x00\n        /* \"#utility.yul\":304:306   */\n      0x20\n        /* \"#utility.yul\":292:301   */\n      dup3\n        /* \"#utility.yul\":283:290   */\n      dup5\n        /* \"#utility.yul\":279:302   */\n      sub\n        /* \"#utility.yul\":275:307   */\n      slt\n        /* \"#utility.yul\":272:324   */\n      iszero\n      tag_317\n      jumpi\n        /* \"#utility.yul\":320:321   */\n      0x00\n        /* \"#utility.yul\":317:318   */\n      dup1\n        /* \"#utility.yul\":310:322   */\n      revert\n        /* \"#utility.yul\":272:324   */\n    tag_317:\n        /* \"#utility.yul\":343:372   */\n      tag_239\n        /* \"#utility.yul\":362:371   */\n      dup3\n        /* \"#utility.yul\":343:372   */\n      tag_313\n      jump\t// in\n        /* \"#utility.yul\":383:643   */\n    tag_118:\n        /* \"#utility.yul\":451:457   */\n      0x00\n        /* \"#utility.yul\":459:465   */\n      dup1\n        /* \"#utility.yul\":512:514   */\n      0x40\n        /* \"#utility.yul\":500:509   */\n      dup4\n        /* \"#utility.yul\":491:498   */\n      dup6\n        /* \"#utility.yul\":487:510   */\n      sub\n        /* \"#utility.yul\":483:515   */\n      slt\n        /* \"#utility.yul\":480:532   */\n      iszero\n      tag_320\n      jumpi\n        /* \"#utility.yul\":528:529   */\n      0x00\n        /* \"#utility.yul\":525:526   */\n      dup1\n        /* \"#utility.yul\":518:530   */\n      revert\n        /* \"#utility.yul\":480:532   */\n    tag_320:\n        /* \"#utility.yul\":551:580   */\n      tag_321\n        /* \"#utility.yul\":570:579   */\n      dup4\n        /* \"#utility.yul\":551:580   */\n      tag_313\n      jump\t// in\n    tag_321:\n        /* \"#utility.yul\":541:580   */\n      swap2\n      pop\n        /* \"#utility.yul\":599:637   */\n      tag_322\n        /* \"#utility.yul\":633:635   */\n      0x20\n        /* \"#utility.yul\":622:631   */\n      dup5\n        /* \"#utility.yul\":618:636   */\n      add\n        /* \"#utility.yul\":599:637   */\n      tag_313\n      jump\t// in\n    tag_322:\n        /* \"#utility.yul\":589:637   */\n      swap1\n      pop\n        /* \"#utility.yul\":383:643   */\n      swap3\n      pop\n      swap3\n      swap1\n      pop\n      jump\t// out\n        /* \"#utility.yul\":648:976   */\n    tag_56:\n        /* \"#utility.yul\":725:731   */\n      0x00\n        /* \"#utility.yul\":733:739   */\n      dup1\n        /* \"#utility.yul\":741:747   */\n      0x00\n        /* \"#utility.yul\":794:796   */\n      0x60\n        /* \"#utility.yul\":782:791   */\n      dup5\n        /* \"#utility.yul\":773:780   */\n      dup7\n        /* \"#utility.yul\":769:792   */\n      sub\n        /* \"#utility.yul\":765:797   */\n      slt\n        /* \"#utility.yul\":762:814   */\n      iszero\n      tag_324\n      jumpi\n        /* \"#utility.yul\":810:811   */\n      0x00\n        /* \"#utility.yul\":807:808   */\n      dup1\n        /* \"#utility.yul\":800:812   */\n      revert\n        /* \"#utility.yul\":762:814   */\n    tag_324:\n        /* \"#utility.yul\":833:862   */\n      tag_325\n        /* \"#utility.yul\":852:861   */\n      dup5\n        /* \"#utility.yul\":833:862   */\n      tag_313\n      jump\t// in\n    tag_325:\n        /* \"#utility.yul\":823:862   */\n      swap3\n      pop\n        /* \"#utility.yul\":881:919   */\n      tag_326\n        /* \"#utility.yul\":915:917   */\n      0x20\n        /* \"#utility.yul\":904:913   */\n      dup6\n        /* \"#utility.yul\":900:918   */\n      add\n        /* \"#utility.yul\":881:919   */\n      tag_313\n      jump\t// in\n    tag_326:\n        /* \"#utility.yul\":871:919   */\n      swap2\n      pop\n        /* \"#utility.yul\":966:968   */\n      0x40\n        /* \"#utility.yul\":955:964   */\n      dup5\n        /* \"#utility.yul\":951:969   */\n      add\n        /* \"#utility.yul\":938:970   */\n      calldataload\n        /* \"#utility.yul\":928:970   */\n      swap1\n      pop\n        /* \"#utility.yul\":648:976   */\n      swap3\n      pop\n      swap3\n      pop\n      swap3\n      jump\t// out\n        /* \"#utility.yul\":981:2119   */\n    tag_107:\n        /* \"#utility.yul\":1076:1082   */\n      0x00\n        /* \"#utility.yul\":1084:1090   */\n      dup1\n        /* \"#utility.yul\":1092:1098   */\n      0x00\n        /* \"#utility.yul\":1100:1106   */\n      dup1\n        /* \"#utility.yul\":1153:1156   */\n      0x80\n        /* \"#utility.yul\":1141:1150   */\n      dup6\n        /* \"#utility.yul\":1132:1139   */\n      dup8\n        /* \"#utility.yul\":1128:1151   */\n      sub\n        /* \"#utility.yul\":1124:1157   */\n      slt\n        /* \"#utility.yul\":1121:1174   */\n      iszero\n      tag_328\n      jumpi\n        /* \"#utility.yul\":1170:1171   */\n      0x00\n        /* \"#utility.yul\":1167:1168   */\n      dup1\n        /* \"#utility.yul\":1160:1172   */\n      revert\n        /* \"#utility.yul\":1121:1174   */\n    tag_328:\n        /* \"#utility.yul\":1193:1222   */\n      tag_329\n        /* \"#utility.yul\":1212:1221   */\n      dup6\n        /* \"#utility.yul\":1193:1222   */\n      tag_313\n      jump\t// in\n    tag_329:\n        /* \"#utility.yul\":1183:1222   */\n      swap4\n      pop\n        /* \"#utility.yul\":1241:1279   */\n      tag_330\n        /* \"#utility.yul\":1275:1277   */\n      0x20\n        /* \"#utility.yul\":1264:1273   */\n      dup7\n        /* \"#utility.yul\":1260:1278   */\n      add\n        /* \"#utility.yul\":1241:1279   */\n      tag_313\n      jump\t// in\n    tag_330:\n        /* \"#utility.yul\":1231:1279   */\n      swap3\n      pop\n        /* \"#utility.yul\":1326:1328   */\n      0x40\n        /* \"#utility.yul\":1315:1324   */\n      dup6\n        /* \"#utility.yul\":1311:1329   */\n      add\n        /* \"#utility.yul\":1298:1330   */\n      calldataload\n        /* \"#utility.yul\":1288:1330   */\n      swap2\n      pop\n        /* \"#utility.yul\":1381:1383   */\n      0x60\n        /* \"#utility.yul\":1370:1379   */\n      dup6\n        /* \"#utility.yul\":1366:1384   */\n      add\n        /* \"#utility.yul\":1353:1385   */\n      calldataload\n        /* \"#utility.yul\":1404:1422   */\n      0xffffffffffffffff\n        /* \"#utility.yul\":1445:1447   */\n      dup1\n        /* \"#utility.yul\":1437:1443   */\n      dup3\n        /* \"#utility.yul\":1434:1448   */\n      gt\n        /* \"#utility.yul\":1431:1465   */\n      iszero\n      tag_331\n      jumpi\n        /* \"#utility.yul\":1461:1462   */\n      0x00\n        /* \"#utility.yul\":1458:1459   */\n      dup1\n        /* \"#utility.yul\":1451:1463   */\n      revert\n        /* \"#utility.yul\":1431:1465   */\n    tag_331:\n        /* \"#utility.yul\":1499:1505   */\n      dup2\n        /* \"#utility.yul\":1488:1497   */\n      dup8\n        /* \"#utility.yul\":1484:1506   */\n      add\n        /* \"#utility.yul\":1474:1506   */\n      swap2\n      pop\n        /* \"#utility.yul\":1544:1551   */\n      dup8\n        /* \"#utility.yul\":1537:1541   */\n      0x1f\n        /* \"#utility.yul\":1533:1535   */\n      dup4\n        /* \"#utility.yul\":1529:1542   */\n      add\n        /* \"#utility.yul\":1525:1552   */\n      slt\n        /* \"#utility.yul\":1515:1570   */\n      tag_332\n      jumpi\n        /* \"#utility.yul\":1566:1567   */\n      0x00\n        /* \"#utility.yul\":1563:1564   */\n      dup1\n        /* \"#utility.yul\":1556:1568   */\n      revert\n        /* \"#utility.yul\":1515:1570   */\n    tag_332:\n        /* \"#utility.yul\":1602:1604   */\n      dup2\n        /* \"#utility.yul\":1589:1605   */\n      calldataload\n        /* \"#utility.yul\":1624:1626   */\n      dup2\n        /* \"#utility.yul\":1620:1622   */\n      dup2\n        /* \"#utility.yul\":1617:1627   */\n      gt\n        /* \"#utility.yul\":1614:1650   */\n      iszero\n      tag_334\n      jumpi\n        /* \"#utility.yul\":1630:1648   */\n      tag_334\n      tag_289\n      jump\t// in\n    tag_334:\n        /* \"#utility.yul\":1705:1707   */\n      0x40\n        /* \"#utility.yul\":1699:1708   */\n      mload\n        /* \"#utility.yul\":1673:1675   */\n      0x1f\n        /* \"#utility.yul\":1759:1772   */\n      dup3\n      add\n      not(0x1f)\n        /* \"#utility.yul\":1755:1777   */\n      swap1\n      dup2\n      and\n        /* \"#utility.yul\":1779:1781   */\n      0x3f\n        /* \"#utility.yul\":1751:1782   */\n      add\n        /* \"#utility.yul\":1747:1787   */\n      and\n        /* \"#utility.yul\":1735:1788   */\n      dup2\n      add\n      swap1\n        /* \"#utility.yul\":1803:1821   */\n      dup4\n      dup3\n      gt\n        /* \"#utility.yul\":1823:1845   */\n      dup2\n      dup4\n      lt\n        /* \"#utility.yul\":1800:1846   */\n      or\n        /* \"#utility.yul\":1797:1869   */\n      iszero\n      tag_336\n      jumpi\n        /* \"#utility.yul\":1849:1867   */\n      tag_336\n      tag_289\n      jump\t// in\n    tag_336:\n        /* \"#utility.yul\":1889:1899   */\n      dup2\n        /* \"#utility.yul\":1885:1887   */\n      0x40\n        /* \"#utility.yul\":1878:1900   */\n      mstore\n        /* \"#utility.yul\":1924:1926   */\n      dup3\n        /* \"#utility.yul\":1916:1922   */\n      dup2\n        /* \"#utility.yul\":1909:1927   */\n      mstore\n        /* \"#utility.yul\":1964:1971   */\n      dup11\n        /* \"#utility.yul\":1959:1961   */\n      0x20\n        /* \"#utility.yul\":1954:1956   */\n      dup5\n        /* \"#utility.yul\":1950:1952   */\n      dup8\n        /* \"#utility.yul\":1946:1957   */\n      add\n        /* \"#utility.yul\":1942:1962   */\n      add\n        /* \"#utility.yul\":1939:1972   */\n      gt\n        /* \"#utility.yul\":1936:1989   */\n      iszero\n      tag_337\n      jumpi\n        /* \"#utility.yul\":1985:1986   */\n      0x00\n        /* \"#utility.yul\":1982:1983   */\n      dup1\n        /* \"#utility.yul\":1975:1987   */\n      revert\n        /* \"#utility.yul\":1936:1989   */\n    tag_337:\n        /* \"#utility.yul\":2041:2043   */\n      dup3\n        /* \"#utility.yul\":2036:2038   */\n      0x20\n        /* \"#utility.yul\":2032:2034   */\n      dup7\n        /* \"#utility.yul\":2028:2039   */\n      add\n        /* \"#utility.yul\":2023:2025   */\n      0x20\n        /* \"#utility.yul\":2015:2021   */\n      dup4\n        /* \"#utility.yul\":2011:2026   */\n      add\n        /* \"#utility.yul\":1998:2044   */\n      calldatacopy\n        /* \"#utility.yul\":2086:2087   */\n      0x00\n        /* \"#utility.yul\":2081:2083   */\n      0x20\n        /* \"#utility.yul\":2076:2078   */\n      dup5\n        /* \"#utility.yul\":2068:2074   */\n      dup4\n        /* \"#utility.yul\":2064:2079   */\n      add\n        /* \"#utility.yul\":2060:2084   */\n      add\n        /* \"#utility.yul\":2053:2088   */\n      mstore\n        /* \"#utility.yul\":2107:2113   */\n      dup1\n        /* \"#utility.yul\":2097:2113   */\n      swap6\n      pop\n      pop\n      pop\n      pop\n      pop\n      pop\n        /* \"#utility.yul\":981:2119   */\n      swap3\n      swap6\n      swap2\n      swap5\n      pop\n      swap3\n      pop\n      jump\t// out\n        /* \"#utility.yul\":2124:2471   */\n    tag_92:\n        /* \"#utility.yul\":2189:2195   */\n      0x00\n        /* \"#utility.yul\":2197:2203   */\n      dup1\n        /* \"#utility.yul\":2250:2252   */\n      0x40\n        /* \"#utility.yul\":2238:2247   */\n      dup4\n        /* \"#utility.yul\":2229:2236   */\n      dup6\n        /* \"#utility.yul\":2225:2248   */\n      sub\n        /* \"#utility.yul\":2221:2253   */\n      slt\n        /* \"#utility.yul\":2218:2270   */\n      iszero\n      tag_339\n      jumpi\n        /* \"#utility.yul\":2266:2267   */\n      0x00\n        /* \"#utility.yul\":2263:2264   */\n      dup1\n        /* \"#utility.yul\":2256:2268   */\n      revert\n        /* \"#utility.yul\":2218:2270   */\n    tag_339:\n        /* \"#utility.yul\":2289:2318   */\n      tag_340\n        /* \"#utility.yul\":2308:2317   */\n      dup4\n        /* \"#utility.yul\":2289:2318   */\n      tag_313\n      jump\t// in\n    tag_340:\n        /* \"#utility.yul\":2279:2318   */\n      swap2\n      pop\n        /* \"#utility.yul\":2368:2370   */\n      0x20\n        /* \"#utility.yul\":2357:2366   */\n      dup4\n        /* \"#utility.yul\":2353:2371   */\n      add\n        /* \"#utility.yul\":2340:2372   */\n      calldataload\n        /* \"#utility.yul\":2415:2420   */\n      dup1\n        /* \"#utility.yul\":2408:2421   */\n      iszero\n        /* \"#utility.yul\":2401:2422   */\n      iszero\n        /* \"#utility.yul\":2394:2399   */\n      dup2\n        /* \"#utility.yul\":2391:2423   */\n      eq\n        /* \"#utility.yul\":2381:2441   */\n      tag_341\n      jumpi\n        /* \"#utility.yul\":2437:2438   */\n      0x00\n        /* \"#utility.yul\":2434:2435   */\n      dup1\n        /* \"#utility.yul\":2427:2439   */\n      revert\n        /* \"#utility.yul\":2381:2441   */\n    tag_341:\n        /* \"#utility.yul\":2460:2465   */\n      dup1\n        /* \"#utility.yul\":2450:2465   */\n      swap2\n      pop\n      pop\n        /* \"#utility.yul\":2124:2471   */\n      swap3\n      pop\n      swap3\n      swap1\n      pop\n      jump\t// out\n        /* \"#utility.yul\":2476:2730   */\n    tag_52:\n        /* \"#utility.yul\":2544:2550   */\n      0x00\n        /* \"#utility.yul\":2552:2558   */\n      dup1\n        /* \"#utility.yul\":2605:2607   */\n      0x40\n        /* \"#utility.yul\":2593:2602   */\n      dup4\n        /* \"#utility.yul\":2584:2591   */\n      dup6\n        /* \"#utility.yul\":2580:2603   */\n      sub\n        /* \"#utility.yul\":2576:2608   */\n      slt\n        /* \"#utility.yul\":2573:2625   */\n      iszero\n      tag_343\n      jumpi\n        /* \"#utility.yul\":2621:2622   */\n      0x00\n        /* \"#utility.yul\":2618:2619   */\n      dup1\n        /* \"#utility.yul\":2611:2623   */\n      revert\n        /* \"#utility.yul\":2573:2625   */\n    tag_343:\n        /* \"#utility.yul\":2644:2673   */\n      tag_344\n        /* \"#utility.yul\":2663:2672   */\n      dup4\n        /* \"#utility.yul\":2644:2673   */\n      tag_313\n      jump\t// in\n    tag_344:\n        /* \"#utility.yul\":2634:2673   */\n      swap5\n        /* \"#utility.yul\":2720:2722   */\n      0x20\n        /* \"#utility.yul\":2705:2723   */\n      swap4\n      swap1\n      swap4\n      add\n        /* \"#utility.yul\":2692:2724   */\n      calldataload\n      swap4\n      pop\n      pop\n      pop\n        /* \"#utility.yul\":2476:2730   */\n      jump\t// out\n        /* \"#utility.yul\":2735:3093   */\n    tag_100:\n        /* \"#utility.yul\":2802:2808   */\n      0x00\n        /* \"#utility.yul\":2810:2816   */\n      dup1\n        /* \"#utility.yul\":2863:2865   */\n      0x40\n        /* \"#utility.yul\":2851:2860   */\n      dup4\n        /* \"#utility.yul\":2842:2849   */\n      dup6\n        /* \"#utility.yul\":2838:2861   */\n      sub\n        /* \"#utility.yul\":2834:2866   */\n      slt\n        /* \"#utility.yul\":2831:2883   */\n      iszero\n      tag_346\n      jumpi\n        /* \"#utility.yul\":2879:2880   */\n      0x00\n        /* \"#utility.yul\":2876:2877   */\n      dup1\n        /* \"#utility.yul\":2869:2881   */\n      revert\n        /* \"#utility.yul\":2831:2883   */\n    tag_346:\n        /* \"#utility.yul\":2902:2931   */\n      tag_347\n        /* \"#utility.yul\":2921:2930   */\n      dup4\n        /* \"#utility.yul\":2902:2931   */\n      tag_313\n      jump\t// in\n    tag_347:\n        /* \"#utility.yul\":2892:2931   */\n      swap2\n      pop\n        /* \"#utility.yul\":2981:2983   */\n      0x20\n        /* \"#utility.yul\":2970:2979   */\n      dup4\n        /* \"#utility.yul\":2966:2984   */\n      add\n        /* \"#utility.yul\":2953:2985   */\n      calldataload\n        /* \"#utility.yul\":3025:3043   */\n      0xffffffffffffffff\n        /* \"#utility.yul\":3018:3023   */\n      dup2\n        /* \"#utility.yul\":3014:3044   */\n      and\n        /* \"#utility.yul\":3007:3012   */\n      dup2\n        /* \"#utility.yul\":3004:3045   */\n      eq\n        /* \"#utility.yul\":2994:3063   */\n      tag_341\n      jumpi\n        /* \"#utility.yul\":3059:3060   */\n      0x00\n        /* \"#utility.yul\":3056:3057   */\n      dup1\n        /* \"#utility.yul\":3049:3061   */\n      revert\n        /* \"#utility.yul\":3098:3464   */\n    tag_38:\n        /* \"#utility.yul\":3165:3171   */\n      0x00\n        /* \"#utility.yul\":3173:3179   */\n      dup1\n        /* \"#utility.yul\":3226:3228   */\n      0x40\n        /* \"#utility.yul\":3214:3223   */\n      dup4\n        /* \"#utility.yul\":3205:3212   */\n      dup6\n        /* \"#utility.yul\":3201:3224   */\n      sub\n        /* \"#utility.yul\":3197:3229   */\n      slt\n        /* \"#utility.yul\":3194:3246   */\n      iszero\n      tag_350\n      jumpi\n        /* \"#utility.yul\":3242:3243   */\n      0x00\n        /* \"#utility.yul\":3239:3240   */\n      dup1\n        /* \"#utility.yul\":3232:3244   */\n      revert\n        /* \"#utility.yul\":3194:3246   */\n    tag_350:\n        /* \"#utility.yul\":3265:3294   */\n      tag_351\n        /* \"#utility.yul\":3284:3293   */\n      dup4\n        /* \"#utility.yul\":3265:3294   */\n      tag_313\n      jump\t// in\n    tag_351:\n        /* \"#utility.yul\":3255:3294   */\n      swap2\n      pop\n        /* \"#utility.yul\":3344:3346   */\n      0x20\n        /* \"#utility.yul\":3333:3342   */\n      dup4\n        /* \"#utility.yul\":3329:3347   */\n      add\n        /* \"#utility.yul\":3316:3348   */\n      calldataload\n      sub(shl(0x60, 0x01), 0x01)\n        /* \"#utility.yul\":3381:3386   */\n      dup2\n        /* \"#utility.yul\":3377:3415   */\n      and\n        /* \"#utility.yul\":3370:3375   */\n      dup2\n        /* \"#utility.yul\":3367:3416   */\n      eq\n        /* \"#utility.yul\":3357:3434   */\n      tag_341\n      jumpi\n        /* \"#utility.yul\":3430:3431   */\n      0x00\n        /* \"#utility.yul\":3427:3428   */\n      dup1\n        /* \"#utility.yul\":3420:3432   */\n      revert\n        /* \"#utility.yul\":3469:3714   */\n    tag_32:\n        /* \"#utility.yul\":3527:3533   */\n      0x00\n        /* \"#utility.yul\":3580:3582   */\n      0x20\n        /* \"#utility.yul\":3568:3577   */\n      dup3\n        /* \"#utility.yul\":3559:3566   */\n      dup5\n        /* \"#utility.yul\":3555:3578   */\n      sub\n        /* \"#utility.yul\":3551:3583   */\n      slt\n        /* \"#utility.yul\":3548:3600   */\n      iszero\n      tag_354\n      jumpi\n        /* \"#utility.yul\":3596:3597   */\n      0x00\n        /* \"#utility.yul\":3593:3594   */\n      dup1\n        /* \"#utility.yul\":3586:3598   */\n      revert\n        /* \"#utility.yul\":3548:3600   */\n    tag_354:\n        /* \"#utility.yul\":3635:3644   */\n      dup2\n        /* \"#utility.yul\":3622:3645   */\n      calldataload\n        /* \"#utility.yul\":3654:3684   */\n      tag_239\n        /* \"#utility.yul\":3678:3683   */\n      dup2\n        /* \"#utility.yul\":3654:3684   */\n      tag_356\n      jump\t// in\n        /* \"#utility.yul\":3719:3968   */\n    tag_176:\n        /* \"#utility.yul\":3788:3794   */\n      0x00\n        /* \"#utility.yul\":3841:3843   */\n      0x20\n        /* \"#utility.yul\":3829:3838   */\n      dup3\n        /* \"#utility.yul\":3820:3827   */\n      dup5\n        /* \"#utility.yul\":3816:3839   */\n      sub\n        /* \"#utility.yul\":3812:3844   */\n      slt\n        /* \"#utility.yul\":3809:3861   */\n      iszero\n      tag_358\n      jumpi\n        /* \"#utility.yul\":3857:3858   */\n      0x00\n        /* \"#utility.yul\":3854:3855   */\n      dup1\n        /* \"#utility.yul\":3847:3859   */\n      revert\n        /* \"#utility.yul\":3809:3861   */\n    tag_358:\n        /* \"#utility.yul\":3889:3898   */\n      dup2\n        /* \"#utility.yul\":3883:3899   */\n      mload\n        /* \"#utility.yul\":3908:3938   */\n      tag_239\n        /* \"#utility.yul\":3932:3937   */\n      dup2\n        /* \"#utility.yul\":3908:3938   */\n      tag_356\n      jump\t// in\n        /* \"#utility.yul\":3973:4153   */\n    tag_46:\n        /* \"#utility.yul\":4032:4038   */\n      0x00\n        /* \"#utility.yul\":4085:4087   */\n      0x20\n        /* \"#utility.yul\":4073:4082   */\n      dup3\n        /* \"#utility.yul\":4064:4071   */\n      dup5\n        /* \"#utility.yul\":4060:4083   */\n      sub\n        /* \"#utility.yul\":4056:4088   */\n      slt\n        /* \"#utility.yul\":4053:4105   */\n      iszero\n      tag_361\n      jumpi\n        /* \"#utility.yul\":4101:4102   */\n      0x00\n        /* \"#utility.yul\":4098:4099   */\n      dup1\n        /* \"#utility.yul\":4091:4103   */\n      revert\n        /* \"#utility.yul\":4053:4105   */\n    tag_361:\n      pop\n        /* \"#utility.yul\":4124:4147   */\n      calldataload\n      swap2\n        /* \"#utility.yul\":3973:4153   */\n      swap1\n      pop\n      jump\t// out\n        /* \"#utility.yul\":4158:4406   */\n    tag_60:\n        /* \"#utility.yul\":4226:4232   */\n      0x00\n        /* \"#utility.yul\":4234:4240   */\n      dup1\n        /* \"#utility.yul\":4287:4289   */\n      0x40\n        /* \"#utility.yul\":4275:4284   */\n      dup4\n        /* \"#utility.yul\":4266:4273   */\n      dup6\n        /* \"#utility.yul\":4262:4285   */\n      sub\n        /* \"#utility.yul\":4258:4290   */\n      slt\n        /* \"#utility.yul\":4255:4307   */\n      iszero\n      tag_363\n      jumpi\n        /* \"#utility.yul\":4303:4304   */\n      0x00\n        /* \"#utility.yul\":4300:4301   */\n      dup1\n        /* \"#utility.yul\":4293:4305   */\n      revert\n        /* \"#utility.yul\":4255:4307   */\n    tag_363:\n      pop\n      pop\n        /* \"#utility.yul\":4326:4349   */\n      dup1\n      calldataload\n      swap3\n        /* \"#utility.yul\":4396:4398   */\n      0x20\n        /* \"#utility.yul\":4381:4399   */\n      swap1\n      swap2\n      add\n        /* \"#utility.yul\":4368:4400   */\n      calldataload\n      swap2\n      pop\n        /* \"#utility.yul\":4158:4406   */\n      jump\t// out\n        /* \"#utility.yul\":4411:4668   */\n    tag_364:\n        /* \"#utility.yul\":4452:4455   */\n      0x00\n        /* \"#utility.yul\":4490:4495   */\n      dup2\n        /* \"#utility.yul\":4484:4496   */\n      mload\n        /* \"#utility.yul\":4517:4523   */\n      dup1\n        /* \"#utility.yul\":4512:4515   */\n      dup5\n        /* \"#utility.yul\":4505:4524   */\n      mstore\n        /* \"#utility.yul\":4533:4596   */\n      tag_366\n        /* \"#utility.yul\":4589:4595   */\n      dup2\n        /* \"#utility.yul\":4582:4586   */\n      0x20\n        /* \"#utility.yul\":4577:4580   */\n      dup7\n        /* \"#utility.yul\":4573:4587   */\n      add\n        /* \"#utility.yul\":4566:4570   */\n      0x20\n        /* \"#utility.yul\":4559:4564   */\n      dup7\n        /* \"#utility.yul\":4555:4571   */\n      add\n        /* \"#utility.yul\":4533:4596   */\n      tag_367\n      jump\t// in\n    tag_366:\n        /* \"#utility.yul\":4650:4652   */\n      0x1f\n        /* \"#utility.yul\":4629:4644   */\n      add\n      not(0x1f)\n        /* \"#utility.yul\":4625:4654   */\n      and\n        /* \"#utility.yul\":4616:4655   */\n      swap3\n      swap1\n      swap3\n      add\n        /* \"#utility.yul\":4657:4661   */\n      0x20\n        /* \"#utility.yul\":4612:4662   */\n      add\n      swap3\n        /* \"#utility.yul\":4411:4668   */\n      swap2\n      pop\n      pop\n      jump\t// out\n        /* \"#utility.yul\":4673:5310   */\n    tag_243:\n        /* \"#utility.yul\":4953:4956   */\n      0x00\n        /* \"#utility.yul\":4991:4997   */\n      dup4\n        /* \"#utility.yul\":4985:4998   */\n      mload\n        /* \"#utility.yul\":5007:5060   */\n      tag_369\n        /* \"#utility.yul\":5053:5059   */\n      dup2\n        /* \"#utility.yul\":5048:5051   */\n      dup5\n        /* \"#utility.yul\":5041:5045   */\n      0x20\n        /* \"#utility.yul\":5033:5039   */\n      dup9\n        /* \"#utility.yul\":5029:5046   */\n      add\n        /* \"#utility.yul\":5007:5060   */\n      tag_367\n      jump\t// in\n    tag_369:\n        /* \"#utility.yul\":5123:5136   */\n      dup4\n      mload\n        /* \"#utility.yul\":5082:5098   */\n      swap1\n      dup4\n      add\n      swap1\n        /* \"#utility.yul\":5145:5202   */\n      tag_370\n        /* \"#utility.yul\":5123:5136   */\n      dup2\n        /* \"#utility.yul\":5082:5098   */\n      dup4\n        /* \"#utility.yul\":5179:5183   */\n      0x20\n        /* \"#utility.yul\":5167:5184   */\n      dup9\n      add\n        /* \"#utility.yul\":5145:5202   */\n      tag_367\n      jump\t// in\n    tag_370:\n      shl(0xd9, 0x173539b7b7)\n        /* \"#utility.yul\":5224:5244   */\n      swap2\n      add\n        /* \"#utility.yul\":5253:5275   */\n      swap1\n      dup2\n      mstore\n        /* \"#utility.yul\":5302:5303   */\n      0x05\n        /* \"#utility.yul\":5291:5304   */\n      add\n      swap5\n        /* \"#utility.yul\":4673:5310   */\n      swap4\n      pop\n      pop\n      pop\n      pop\n      jump\t// out\n        /* \"#utility.yul\":5523:6011   */\n    tag_217:\n      sub(shl(0xa0, 0x01), 0x01)\n        /* \"#utility.yul\":5792:5807   */\n      dup6\n      dup2\n      and\n        /* \"#utility.yul\":5774:5808   */\n      dup3\n      mstore\n        /* \"#utility.yul\":5844:5859   */\n      dup5\n      and\n        /* \"#utility.yul\":5839:5841   */\n      0x20\n        /* \"#utility.yul\":5824:5842   */\n      dup3\n      add\n        /* \"#utility.yul\":5817:5860   */\n      mstore\n        /* \"#utility.yul\":5891:5893   */\n      0x40\n        /* \"#utility.yul\":5876:5894   */\n      dup2\n      add\n        /* \"#utility.yul\":5869:5903   */\n      dup4\n      swap1\n      mstore\n        /* \"#utility.yul\":5939:5942   */\n      0x80\n        /* \"#utility.yul\":5934:5936   */\n      0x60\n        /* \"#utility.yul\":5919:5937   */\n      dup3\n      add\n        /* \"#utility.yul\":5912:5943   */\n      dup2\n      swap1\n      mstore\n        /* \"#utility.yul\":5717:5721   */\n      0x00\n      swap1\n        /* \"#utility.yul\":5960:6005   */\n      tag_373\n      swap1\n        /* \"#utility.yul\":5985:6004   */\n      dup4\n      add\n        /* \"#utility.yul\":5977:5983   */\n      dup5\n        /* \"#utility.yul\":5960:6005   */\n      tag_364\n      jump\t// in\n    tag_373:\n        /* \"#utility.yul\":5952:6005   */\n      swap7\n        /* \"#utility.yul\":5523:6011   */\n      swap6\n      pop\n      pop\n      pop\n      pop\n      pop\n      pop\n      jump\t// out\n        /* \"#utility.yul\":7047:7266   */\n    tag_43:\n        /* \"#utility.yul\":7196:7198   */\n      0x20\n        /* \"#utility.yul\":7185:7194   */\n      dup2\n        /* \"#utility.yul\":7178:7199   */\n      mstore\n        /* \"#utility.yul\":7159:7163   */\n      0x00\n        /* \"#utility.yul\":7216:7260   */\n      tag_239\n        /* \"#utility.yul\":7256:7258   */\n      0x20\n        /* \"#utility.yul\":7245:7254   */\n      dup4\n        /* \"#utility.yul\":7241:7259   */\n      add\n        /* \"#utility.yul\":7233:7239   */\n      dup5\n        /* \"#utility.yul\":7216:7260   */\n      tag_364\n      jump\t// in\n        /* \"#utility.yul\":7271:7618   */\n    tag_137:\n        /* \"#utility.yul\":7473:7475   */\n      0x20\n        /* \"#utility.yul\":7455:7476   */\n      dup1\n      dup3\n      mstore\n        /* \"#utility.yul\":7512:7514   */\n      0x17\n        /* \"#utility.yul\":7492:7510   */\n      swap1\n      dup3\n      add\n        /* \"#utility.yul\":7485:7515   */\n      mstore\n        /* \"#utility.yul\":7551:7576   */\n      0x43616c6c6572206973206e6f7420746865206f776e6572000000000000000000\n        /* \"#utility.yul\":7546:7548   */\n      0x40\n        /* \"#utility.yul\":7531:7549   */\n      dup3\n      add\n        /* \"#utility.yul\":7524:7577   */\n      mstore\n        /* \"#utility.yul\":7609:7611   */\n      0x60\n        /* \"#utility.yul\":7594:7612   */\n      add\n      swap1\n        /* \"#utility.yul\":7271:7618   */\n      jump\t// out\n        /* \"#utility.yul\":8637:8977   */\n    tag_179:\n        /* \"#utility.yul\":8839:8841   */\n      0x20\n        /* \"#utility.yul\":8821:8842   */\n      dup1\n      dup3\n      mstore\n        /* \"#utility.yul\":8878:8880   */\n      0x10\n        /* \"#utility.yul\":8858:8876   */\n      swap1\n      dup3\n      add\n        /* \"#utility.yul\":8851:8881   */\n      mstore\n      shl(0x82, 0x155394d0519157d49150d25412515395)\n        /* \"#utility.yul\":8912:8914   */\n      0x40\n        /* \"#utility.yul\":8897:8915   */\n      dup3\n      add\n        /* \"#utility.yul\":8890:8936   */\n      mstore\n        /* \"#utility.yul\":8968:8970   */\n      0x60\n        /* \"#utility.yul\":8953:8971   */\n      add\n      swap1\n        /* \"#utility.yul\":8637:8977   */\n      jump\t// out\n        /* \"#utility.yul\":11808:11936   */\n    tag_298:\n        /* \"#utility.yul\":11848:11851   */\n      0x00\n        /* \"#utility.yul\":11879:11880   */\n      dup3\n        /* \"#utility.yul\":11875:11881   */\n      not\n        /* \"#utility.yul\":11872:11873   */\n      dup3\n        /* \"#utility.yul\":11869:11882   */\n      gt\n        /* \"#utility.yul\":11866:11905   */\n      iszero\n      tag_395\n      jumpi\n        /* \"#utility.yul\":11885:11903   */\n      tag_395\n      tag_396\n      jump\t// in\n    tag_395:\n      pop\n        /* \"#utility.yul\":11921:11930   */\n      add\n      swap1\n        /* \"#utility.yul\":11808:11936   */\n      jump\t// out\n        /* \"#utility.yul\":11941:12061   */\n    tag_195:\n        /* \"#utility.yul\":11981:11982   */\n      0x00\n        /* \"#utility.yul\":12007:12008   */\n      dup3\n        /* \"#utility.yul\":11997:12032   */\n      tag_399\n      jumpi\n        /* \"#utility.yul\":12012:12030   */\n      tag_399\n      tag_400\n      jump\t// in\n    tag_399:\n      pop\n        /* \"#utility.yul\":12046:12055   */\n      div\n      swap1\n        /* \"#utility.yul\":11941:12061   */\n      jump\t// out\n        /* \"#utility.yul\":12066:12234   */\n    tag_197:\n        /* \"#utility.yul\":12106:12113   */\n      0x00\n        /* \"#utility.yul\":12172:12173   */\n      dup2\n        /* \"#utility.yul\":12168:12169   */\n      0x00\n        /* \"#utility.yul\":12164:12170   */\n      not\n        /* \"#utility.yul\":12160:12174   */\n      div\n        /* \"#utility.yul\":12157:12158   */\n      dup4\n        /* \"#utility.yul\":12154:12175   */\n      gt\n        /* \"#utility.yul\":12149:12150   */\n      dup3\n        /* \"#utility.yul\":12142:12151   */\n      iszero\n        /* \"#utility.yul\":12135:12152   */\n      iszero\n        /* \"#utility.yul\":12131:12176   */\n      and\n        /* \"#utility.yul\":12128:12199   */\n      iszero\n      tag_403\n      jumpi\n        /* \"#utility.yul\":12179:12197   */\n      tag_403\n      tag_396\n      jump\t// in\n    tag_403:\n      pop\n        /* \"#utility.yul\":12219:12228   */\n      mul\n      swap1\n        /* \"#utility.yul\":12066:12234   */\n      jump\t// out\n        /* \"#utility.yul\":12239:12364   */\n    tag_294:\n        /* \"#utility.yul\":12279:12283   */\n      0x00\n        /* \"#utility.yul\":12307:12308   */\n      dup3\n        /* \"#utility.yul\":12304:12305   */\n      dup3\n        /* \"#utility.yul\":12301:12309   */\n      lt\n        /* \"#utility.yul\":12298:12332   */\n      iszero\n      tag_406\n      jumpi\n        /* \"#utility.yul\":12312:12330   */\n      tag_406\n      tag_396\n      jump\t// in\n    tag_406:\n      pop\n        /* \"#utility.yul\":12349:12358   */\n      sub\n      swap1\n        /* \"#utility.yul\":12239:12364   */\n      jump\t// out\n        /* \"#utility.yul\":12369:12627   */\n    tag_367:\n        /* \"#utility.yul\":12441:12442   */\n      0x00\n        /* \"#utility.yul\":12451:12564   */\n    tag_408:\n        /* \"#utility.yul\":12465:12471   */\n      dup4\n        /* \"#utility.yul\":12462:12463   */\n      dup2\n        /* \"#utility.yul\":12459:12472   */\n      lt\n        /* \"#utility.yul\":12451:12564   */\n      iszero\n      tag_410\n      jumpi\n        /* \"#utility.yul\":12541:12552   */\n      dup2\n      dup2\n      add\n        /* \"#utility.yul\":12535:12553   */\n      mload\n        /* \"#utility.yul\":12522:12533   */\n      dup4\n      dup3\n      add\n        /* \"#utility.yul\":12515:12554   */\n      mstore\n        /* \"#utility.yul\":12487:12489   */\n      0x20\n        /* \"#utility.yul\":12480:12490   */\n      add\n        /* \"#utility.yul\":12451:12564   */\n      jump(tag_408)\n    tag_410:\n        /* \"#utility.yul\":12582:12588   */\n      dup4\n        /* \"#utility.yul\":12579:12580   */\n      dup2\n        /* \"#utility.yul\":12576:12589   */\n      gt\n        /* \"#utility.yul\":12573:12621   */\n      iszero\n      tag_222\n      jumpi\n      pop\n      pop\n        /* \"#utility.yul\":12617:12618   */\n      0x00\n        /* \"#utility.yul\":12599:12615   */\n      swap2\n      add\n        /* \"#utility.yul\":12592:12619   */\n      mstore\n        /* \"#utility.yul\":12369:12627   */\n      jump\t// out\n        /* \"#utility.yul\":12632:13012   */\n    tag_143:\n        /* \"#utility.yul\":12711:12712   */\n      0x01\n        /* \"#utility.yul\":12707:12719   */\n      dup2\n      dup2\n      shr\n      swap1\n        /* \"#utility.yul\":12754:12766   */\n      dup3\n      and\n      dup1\n        /* \"#utility.yul\":12775:12836   */\n      tag_413\n      jumpi\n        /* \"#utility.yul\":12829:12833   */\n      0x7f\n        /* \"#utility.yul\":12821:12827   */\n      dup3\n        /* \"#utility.yul\":12817:12834   */\n      and\n        /* \"#utility.yul\":12807:12834   */\n      swap2\n      pop\n        /* \"#utility.yul\":12775:12836   */\n    tag_413:\n        /* \"#utility.yul\":12882:12884   */\n      0x20\n        /* \"#utility.yul\":12874:12880   */\n      dup3\n        /* \"#utility.yul\":12871:12885   */\n      lt\n        /* \"#utility.yul\":12851:12869   */\n      dup2\n        /* \"#utility.yul\":12848:12886   */\n      eq\n        /* \"#utility.yul\":12845:13006   */\n      iszero\n      tag_414\n      jumpi\n        /* \"#utility.yul\":12928:12938   */\n      0x4e487b71\n        /* \"#utility.yul\":12923:12926   */\n      0xe0\n        /* \"#utility.yul\":12919:12939   */\n      shl\n        /* \"#utility.yul\":12916:12917   */\n      0x00\n        /* \"#utility.yul\":12909:12940   */\n      mstore\n        /* \"#utility.yul\":12963:12967   */\n      0x22\n        /* \"#utility.yul\":12960:12961   */\n      0x04\n        /* \"#utility.yul\":12953:12968   */\n      mstore\n        /* \"#utility.yul\":12991:12995   */\n      0x24\n        /* \"#utility.yul\":12988:12989   */\n      0x00\n        /* \"#utility.yul\":12981:12996   */\n      revert\n        /* \"#utility.yul\":12845:13006   */\n    tag_414:\n      pop\n        /* \"#utility.yul\":12632:13012   */\n      swap2\n      swap1\n      pop\n      jump\t// out\n        /* \"#utility.yul\":13017:13152   */\n    tag_208:\n        /* \"#utility.yul\":13056:13059   */\n      0x00\n      not(0x00)\n        /* \"#utility.yul\":13077:13094   */\n      dup3\n      eq\n        /* \"#utility.yul\":13074:13117   */\n      iszero\n      tag_417\n      jumpi\n        /* \"#utility.yul\":13097:13115   */\n      tag_417\n      tag_396\n      jump\t// in\n    tag_417:\n      pop\n        /* \"#utility.yul\":13144:13145   */\n      0x01\n        /* \"#utility.yul\":13133:13146   */\n      add\n      swap1\n        /* \"#utility.yul\":13017:13152   */\n      jump\t// out\n        /* \"#utility.yul\":13157:13366   */\n    tag_212:\n        /* \"#utility.yul\":13195:13198   */\n      0x00\n        /* \"#utility.yul\":13223:13241   */\n      0xffffffffffffffff\n        /* \"#utility.yul\":13276:13278   */\n      dup1\n        /* \"#utility.yul\":13269:13274   */\n      dup4\n        /* \"#utility.yul\":13265:13279   */\n      and\n        /* \"#utility.yul\":13303:13305   */\n      dup2\n        /* \"#utility.yul\":13294:13301   */\n      dup2\n        /* \"#utility.yul\":13291:13306   */\n      eq\n        /* \"#utility.yul\":13288:13329   */\n      iszero\n      tag_420\n      jumpi\n        /* \"#utility.yul\":13309:13327   */\n      tag_420\n      tag_396\n      jump\t// in\n    tag_420:\n        /* \"#utility.yul\":13358:13359   */\n      0x01\n        /* \"#utility.yul\":13345:13360   */\n      add\n      swap4\n        /* \"#utility.yul\":13157:13366   */\n      swap3\n      pop\n      pop\n      pop\n      jump\t// out\n        /* \"#utility.yul\":13371:13483   */\n    tag_296:\n        /* \"#utility.yul\":13403:13404   */\n      0x00\n        /* \"#utility.yul\":13429:13430   */\n      dup3\n        /* \"#utility.yul\":13419:13454   */\n      tag_423\n      jumpi\n        /* \"#utility.yul\":13434:13452   */\n      tag_423\n      tag_400\n      jump\t// in\n    tag_423:\n      pop\n        /* \"#utility.yul\":13468:13477   */\n      mod\n      swap1\n        /* \"#utility.yul\":13371:13483   */\n      jump\t// out\n        /* \"#utility.yul\":13488:13615   */\n    tag_396:\n        /* \"#utility.yul\":13549:13559   */\n      0x4e487b71\n        /* \"#utility.yul\":13544:13547   */\n      0xe0\n        /* \"#utility.yul\":13540:13560   */\n      shl\n        /* \"#utility.yul\":13537:13538   */\n      0x00\n        /* \"#utility.yul\":13530:13561   */\n      mstore\n        /* \"#utility.yul\":13580:13584   */\n      0x11\n        /* \"#utility.yul\":13577:13578   */\n      0x04\n        /* \"#utility.yul\":13570:13585   */\n      mstore\n        /* \"#utility.yul\":13604:13608   */\n      0x24\n        /* \"#utility.yul\":13601:13602   */\n      0x00\n        /* \"#utility.yul\":13594:13609   */\n      revert\n        /* \"#utility.yul\":13620:13747   */\n    tag_400:\n        /* \"#utility.yul\":13681:13691   */\n      0x4e487b71\n        /* \"#utility.yul\":13676:13679   */\n      0xe0\n        /* \"#utility.yul\":13672:13692   */\n      shl\n        /* \"#utility.yul\":13669:13670   */\n      0x00\n        /* \"#utility.yul\":13662:13693   */\n      mstore\n        /* \"#utility.yul\":13712:13716   */\n      0x12\n        /* \"#utility.yul\":13709:13710   */\n      0x04\n        /* \"#utility.yul\":13702:13717   */\n      mstore\n        /* \"#utility.yul\":13736:13740   */\n      0x24\n        /* \"#utility.yul\":13733:13734   */\n      0x00\n        /* \"#utility.yul\":13726:13741   */\n      revert\n        /* \"#utility.yul\":13752:13879   */\n    tag_301:\n        /* \"#utility.yul\":13813:13823   */\n      0x4e487b71\n        /* \"#utility.yul\":13808:13811   */\n      0xe0\n        /* \"#utility.yul\":13804:13824   */\n      shl\n        /* \"#utility.yul\":13801:13802   */\n      0x00\n        /* \"#utility.yul\":13794:13825   */\n      mstore\n        /* \"#utility.yul\":13844:13848   */\n      0x32\n        /* \"#utility.yul\":13841:13842   */\n      0x04\n        /* \"#utility.yul\":13834:13849   */\n      mstore\n        /* \"#utility.yul\":13868:13872   */\n      0x24\n        /* \"#utility.yul\":13865:13866   */\n      0x00\n        /* \"#utility.yul\":13858:13873   */\n      revert\n        /* \"#utility.yul\":13884:14011   */\n    tag_289:\n        /* \"#utility.yul\":13945:13955   */\n      0x4e487b71\n        /* \"#utility.yul\":13940:13943   */\n      0xe0\n        /* \"#utility.yul\":13936:13956   */\n      shl\n        /* \"#utility.yul\":13933:13934   */\n      0x00\n        /* \"#utility.yul\":13926:13957   */\n      mstore\n        /* \"#utility.yul\":13976:13980   */\n      0x41\n        /* \"#utility.yul\":13973:13974   */\n      0x04\n        /* \"#utility.yul\":13966:13981   */\n      mstore\n        /* \"#utility.yul\":14000:14004   */\n      0x24\n        /* \"#utility.yul\":13997:13998   */\n      0x00\n        /* \"#utility.yul\":13990:14005   */\n      revert\n        /* \"#utility.yul\":14016:14147   */\n    tag_356:\n      not(sub(shl(0xe0, 0x01), 0x01))\n        /* \"#utility.yul\":14090:14122   */\n      dup2\n      and\n        /* \"#utility.yul\":14080:14123   */\n      dup2\n      eq\n        /* \"#utility.yul\":14070:14141   */\n      tag_253\n      jumpi\n        /* \"#utility.yul\":14137:14138   */\n      0x00\n        /* \"#utility.yul\":14134:14135   */\n      dup1\n        /* \"#utility.yul\":14127:14139   */\n      revert\n\n    auxdata: 0xa26469706673582212209e3993418fdc79681c1c0087f1837f9af9296f79c6231f107bad37c01af16c8564736f6c63430008070033\n}\n",
				"bytecode": {
					"linkReferences": {},
					"object": "608060405260006008553480156200001657600080fd5b5060405162001adc38038062001adc8339810160408190526200003991620002be565b8383620000463362000111565b81516200005b90600190602085019062000161565b5080516200007190600290602084019062000161565b50508251620000899150600790602085019062000161565b50612710816001600160601b03161115620000ea5760405162461bcd60e51b815260206004820152601360248201527f63616e6e6f742065786365656420313030303000000000000000000000000000604482015260640160405180910390fd5b6001600160601b0316336c01000000000000000000000000021760095550620003c4915050565b600080546001600160a01b038381166001600160a01b0319831681178455604051919092169283917f0d18b5fd22306e373229b9439188228edca81207d1667f604daf6cef8aa3ee679190a35050565b8280546200016f9062000371565b90600052602060002090601f016020900481019282620001935760008555620001de565b82601f10620001ae57805160ff1916838001178555620001de565b82800160010185558215620001de579182015b82811115620001de578251825591602001919060010190620001c1565b50620001ec929150620001f0565b5090565b5b80821115620001ec5760008155600101620001f1565b600082601f8301126200021957600080fd5b81516001600160401b0380821115620002365762000236620003ae565b604051601f8301601f19908116603f01168101908282118183101715620002615762000261620003ae565b816040528381526020925086838588010111156200027e57600080fd5b600091505b83821015620002a2578582018301518183018401529082019062000283565b83821115620002b45760008385830101525b9695505050505050565b60008060008060808587031215620002d557600080fd5b84516001600160401b0380821115620002ed57600080fd5b620002fb8883890162000207565b955060208701519150808211156200031257600080fd5b620003208883890162000207565b945060408701519150808211156200033757600080fd5b50620003468782880162000207565b606087015190935090506001600160601b03811681146200036657600080fd5b939692955090935050565b600181811c908216806200038657607f821691505b60208210811415620003a857634e487b7160e01b600052602260045260246000fd5b50919050565b634e487b7160e01b600052604160045260246000fd5b61170880620003d46000396000f3fe608060405234801561001057600080fd5b50600436106101585760003560e01c80638da5cb5b116100c3578063b88d4fde1161007c578063b88d4fde14610351578063c4e1883614610364578063c87b56dd14610377578063e985e9c51461038a578063f2fde38b146103b8578063fa695a97146103cb57600080fd5b80638da5cb5b146102e557806395d89b41146102f6578063a22cb465146102fe578063a2e6961314610311578063a709dc1714610324578063ad2f852a1461033757600080fd5b80632a55205a116101155780632a55205a1461021657806342842e0e146102485780636352211e1461025b5780636c0360eb1461028457806370a082311461028c57806373c7400e146102ba57600080fd5b806301ffc9a71461015d57806302fa7c471461018557806306fdde031461019a578063081812fc146101af578063095ea7b3146101f057806323b872dd14610203575b600080fd5b61017061016b3660046113b3565b6103de565b60405190151581526020015b60405180910390f35b61019861019336600461137b565b61044b565b005b6101a26104fe565b60405161017c91906114d0565b6101d86101bd3660046113ed565b6005602052600090815260409020546001600160a01b031681565b6040516001600160a01b03909116815260200161017c565b6101986101fe366004611318565b61058c565b6101986102113660046111c4565b61066e565b610229610224366004611406565b61082c565b604080516001600160a01b03909316835260208301919091520161017c565b6101986102563660046111c4565b610858565b6101d86102693660046113ed565b6004602052600090815260409020546001600160a01b031681565b6101a261093c565b6102ac61029a366004611176565b60036020526000908152604090205481565b60405190815260200161017c565b6009546102cd906001600160601b031681565b6040516001600160601b03909116815260200161017c565b6000546001600160a01b03166101d8565b6101a2610949565b61019861030c3660046112dc565b610956565b6102ac61031f3660046113ed565b6109c2565b610198610332366004611342565b6109e7565b6009546101d890600160601b90046001600160a01b031681565b61019861035f366004611200565b610a9b565b6101986103723660046112dc565b610b6c565b6101a26103853660046113ed565b610bc1565b610170610398366004611191565b600660209081526000928352604080842090915290825290205460ff1681565b6101986103c6366004611176565b610c84565b6101986103d9366004611176565b610d10565b60006301ffc9a760e01b6001600160e01b03198316148061040f57506380ac58cd60e01b6001600160e01b03198316145b8061042a5750635b5e139f60e01b6001600160e01b03198316145b80610445575063152a902d60e11b6001600160e01b03198316145b92915050565b6000546001600160a01b0316331461047e5760405162461bcd60e51b8152600401610475906114e3565b60405180910390fd5b612710816001600160601b031611156104cf5760405162461bcd60e51b8152602060048201526013602482015272063616e6e6f742065786365656420313030303606c1b6044820152606401610475565b6001600160601b03166001600160a01b03909116600160601b026bffffffffffffffffffffffff191617600955565b6001805461050b906115d2565b80601f0160208091040260200160405190810160405280929190818152602001828054610537906115d2565b80156105845780601f1061055957610100808354040283529160200191610584565b820191906000526020600020905b81548152906001019060200180831161056757829003601f168201915b505050505081565b6000818152600460205260409020546001600160a01b0316338114806105d557506001600160a01b038116600090815260066020908152604080832033845290915290205460ff165b6106125760405162461bcd60e51b815260206004820152600e60248201526d139bdd08185d5d1a1bdc9a5e995960921b6044820152606401610475565b60008281526005602052604080822080546001600160a01b0319166001600160a01b0387811691821790925591518593918516917f8c5be1e5ebec7d5bd14f71427d1e84f3dd0314c0f7b2291e5b200ac8c7c3b92591a4505050565b6000818152600460205260409020546001600160a01b038481169116146106c45760405162461bcd60e51b815260206004820152600a60248201526957524f4e472046524f4d60b01b6044820152606401610475565b6001600160a01b0382166107055760405162461bcd60e51b815260206004820152600860248201526757524f4e4720544f60c01b6044820152606401610475565b336001600160a01b038416148061073f57506001600160a01b038316600090815260066020908152604080832033845290915290205460ff165b8061076057506000818152600560205260409020546001600160a01b031633145b61079d5760405162461bcd60e51b815260206004820152600e60248201526d1393d5081055551213d49256915160921b6044820152606401610475565b6001600160a01b0380841660008181526003602090815260408083208054600019019055938616808352848320805460010190558583526004825284832080546001600160a01b03199081168317909155600590925284832080549092169091559251849392917fddf252ad1be2c89b69c2b068fc378daa952ba7f163c4a11628f55a4df523b3ef91a4505050565b6009546000908190600160601b90046001600160a01b031661084d846109c2565b915091509250929050565b61086383838361066e565b6001600160a01b0382163b158061091b5750604051630a85bd0160e11b8082523360048301526001600160a01b03858116602484015260448301849052608060648401526000608484015290919084169063150b7a029060a401602060405180830381600087803b1580156108d757600080fd5b505af11580156108eb573d6000803e3d6000fd5b505050506040513d601f19601f8201168201806040525081019061090f91906113d0565b6001600160e01b031916145b6109375760405162461bcd60e51b81526004016104759061151a565b505050565b6007805461050b906115d2565b6002805461050b906115d2565b3360008181526006602090815260408083206001600160a01b03871680855290835292819020805460ff191686151590811790915590519081529192917f17307eab39ab6107e8899845ad3d59bd9653f200f220920489ca2b5937696c31910160405180910390a35050565b6009546000906001600160601b03166109dd6127108461155c565b6104459190611570565b336000908152600a602052604090205460ff1680610a0f57506000546001600160a01b031633145b610a495760405162461bcd60e51b815260206004820152600b60248201526a1393d50810531313d5d15160aa1b6044820152606401610475565b60005b8167ffffffffffffffff168167ffffffffffffffff1610156109375760088054906000610a788361160d565b9190505550610a8983600854610d8f565b80610a9381611628565b915050610a4c565b610aa684848461066e565b6001600160a01b0383163b1580610b4a5750604051630a85bd0160e11b808252906001600160a01b0385169063150b7a0290610aec903390899088908890600401611493565b602060405180830381600087803b158015610b0657600080fd5b505af1158015610b1a573d6000803e3d6000fd5b505050506040513d601f19601f82011682018060405250810190610b3e91906113d0565b6001600160e01b031916145b610b665760405162461bcd60e51b81526004016104759061151a565b50505050565b6000546001600160a01b03163314610b965760405162461bcd60e51b8152600401610475906114e3565b6001600160a01b03919091166000908152600a60205260409020805460ff1916911515919091179055565b6000818152600460205260409020546060906001600160a01b0316610c285760405162461bcd60e51b815260206004820152601c60248201527f4e6f20746f6b656e2077697468207468697320496420657869737473000000006044820152606401610475565b6000610c32610e6e565b90506000815111610c525760405180602001604052806000815250610c7d565b80610c5c84610f00565b604051602001610c6d929190611454565b6040516020818303038152906040525b9392505050565b6000546001600160a01b03163314610cae5760405162461bcd60e51b8152600401610475906114e3565b6001600160a01b038116610d045760405162461bcd60e51b815260206004820152601c60248201527f4f776e65722063616e6e6f74206265207a65726f2061646472657373000000006044820152606401610475565b610d0d81611006565b50565b336000908152600a602052604090205460ff1680610d3857506000546001600160a01b031633145b610d725760405162461bcd60e51b815260206004820152600b60248201526a1393d50810531313d5d15160aa1b6044820152606401610475565b60088054906000610d828361160d565b9190505550610d0d816008545b610d998282611056565b6001600160a01b0382163b1580610e4e5750604051630a85bd0160e11b80825233600483015260006024830181905260448301849052608060648401526084830152906001600160a01b0384169063150b7a029060a401602060405180830381600087803b158015610e0a57600080fd5b505af1158015610e1e573d6000803e3d6000fd5b505050506040513d601f19601f82011682018060405250810190610e4291906113d0565b6001600160e01b031916145b610e6a5760405162461bcd60e51b81526004016104759061151a565b5050565b606060078054610e7d906115d2565b80601f0160208091040260200160405190810160405280929190818152602001828054610ea9906115d2565b8015610ef65780601f10610ecb57610100808354040283529160200191610ef6565b820191906000526020600020905b815481529060010190602001808311610ed957829003601f168201915b5050505050905090565b606081610f245750506040805180820190915260018152600360fc1b602082015290565b8160005b8115610f4e5780610f388161160d565b9150610f479050600a8361155c565b9150610f28565b60008167ffffffffffffffff811115610f6957610f696116a6565b6040519080825280601f01601f191660200182016040528015610f93576020820181803683370190505b5090505b8415610ffe57610fa860018361158f565b9150610fb5600a86611650565b610fc0906030611544565b60f81b818381518110610fd557610fd5611690565b60200101906001600160f81b031916908160001a905350610ff7600a8661155c565b9450610f97565b949350505050565b600080546001600160a01b038381166001600160a01b0319831681178455604051919092169283917f0d18b5fd22306e373229b9439188228edca81207d1667f604daf6cef8aa3ee679190a35050565b6001600160a01b0382166110995760405162461bcd60e51b815260206004820152600a602482015269494e56414c49445f544f60b01b6044820152606401610475565b6000818152600460205260409020546001600160a01b0316156110ef5760405162461bcd60e51b815260206004820152600e60248201526d1053149150511657d3525395115160921b6044820152606401610475565b6001600160a01b038216600081815260036020908152604080832080546001019055848352600490915280822080546001600160a01b0319168417905551839291907fddf252ad1be2c89b69c2b068fc378daa952ba7f163c4a11628f55a4df523b3ef908290a45050565b80356001600160a01b038116811461117157600080fd5b919050565b60006020828403121561118857600080fd5b610c7d8261115a565b600080604083850312156111a457600080fd5b6111ad8361115a565b91506111bb6020840161115a565b90509250929050565b6000806000606084860312156111d957600080fd5b6111e28461115a565b92506111f06020850161115a565b9150604084013590509250925092565b6000806000806080858703121561121657600080fd5b61121f8561115a565b935061122d6020860161115a565b925060408501359150606085013567ffffffffffffffff8082111561125157600080fd5b818701915087601f83011261126557600080fd5b813581811115611277576112776116a6565b604051601f8201601f19908116603f0116810190838211818310171561129f5761129f6116a6565b816040528281528a60208487010111156112b857600080fd5b82602086016020830137600060208483010152809550505050505092959194509250565b600080604083850312156112ef57600080fd5b6112f88361115a565b91506020830135801515811461130d57600080fd5b809150509250929050565b6000806040838503121561132b57600080fd5b6113348361115a565b946020939093013593505050565b6000806040838503121561135557600080fd5b61135e8361115a565b9150602083013567ffffffffffffffff8116811461130d57600080fd5b6000806040838503121561138e57600080fd5b6113978361115a565b915060208301356001600160601b038116811461130d57600080fd5b6000602082840312156113c557600080fd5b8135610c7d816116bc565b6000602082840312156113e257600080fd5b8151610c7d816116bc565b6000602082840312156113ff57600080fd5b5035919050565b6000806040838503121561141957600080fd5b50508035926020909101359150565b600081518084526114408160208601602086016115a6565b601f01601f19169290920160200192915050565b600083516114668184602088016115a6565b83519083019061147a8183602088016115a6565b64173539b7b760d91b9101908152600501949350505050565b6001600160a01b03858116825284166020820152604081018390526080606082018190526000906114c690830184611428565b9695505050505050565b602081526000610c7d6020830184611428565b60208082526017908201527f43616c6c6572206973206e6f7420746865206f776e6572000000000000000000604082015260600190565b60208082526010908201526f155394d0519157d49150d2541251539560821b604082015260600190565b6000821982111561155757611557611664565b500190565b60008261156b5761156b61167a565b500490565b600081600019048311821515161561158a5761158a611664565b500290565b6000828210156115a1576115a1611664565b500390565b60005b838110156115c15781810151838201526020016115a9565b83811115610b665750506000910152565b600181811c908216806115e657607f821691505b6020821081141561160757634e487b7160e01b600052602260045260246000fd5b50919050565b600060001982141561162157611621611664565b5060010190565b600067ffffffffffffffff8083168181141561164657611646611664565b6001019392505050565b60008261165f5761165f61167a565b500690565b634e487b7160e01b600052601160045260246000fd5b634e487b7160e01b600052601260045260246000fd5b634e487b7160e01b600052603260045260246000fd5b634e487b7160e01b600052604160045260246000fd5b6001600160e01b031981168114610d0d57600080fdfea26469706673582212209e3993418fdc79681c1c0087f1837f9af9296f79c6231f107bad37c01af16c8564736f6c63430008070033",
					"opcodes": "PUSH1 0x80 PUSH1 0x40 MSTORE PUSH1 0x0 PUSH1 0x8 SSTORE CALLVALUE DUP1 ISZERO PUSH3 0x16 JUMPI PUSH1 0x0 DUP1 REVERT JUMPDEST POP PUSH1 0x40 MLOAD PUSH3 0x1ADC CODESIZE SUB DUP1 PUSH3 0x1ADC DUP4 CODECOPY DUP2 ADD PUSH1 0x40 DUP2 SWAP1 MSTORE PUSH3 0x39 SWAP2 PUSH3 0x2BE JUMP JUMPDEST DUP4 DUP4 PUSH3 0x46 CALLER PUSH3 0x111 JUMP JUMPDEST DUP2 MLOAD PUSH3 0x5B SWAP1 PUSH1 0x1 SWAP1 PUSH1 0x20 DUP6 ADD SWAP1 PUSH3 0x161 JUMP JUMPDEST POP DUP1 MLOAD PUSH3 0x71 SWAP1 PUSH1 0x2 SWAP1 PUSH1 0x20 DUP5 ADD SWAP1 PUSH3 0x161 JUMP JUMPDEST POP POP DUP3 MLOAD PUSH3 0x89 SWAP2 POP PUSH1 0x7 SWAP1 PUSH1 0x20 DUP6 ADD SWAP1 PUSH3 0x161 JUMP JUMPDEST POP PUSH2 0x2710 DUP2 PUSH1 0x1 PUSH1 0x1 PUSH1 0x60 SHL SUB AND GT ISZERO PUSH3 0xEA JUMPI PUSH1 0x40 MLOAD PUSH3 0x461BCD PUSH1 0xE5 SHL DUP2 MSTORE PUSH1 0x20 PUSH1 0x4 DUP3 ADD MSTORE PUSH1 0x13 PUSH1 0x24 DUP3 ADD MSTORE PUSH32 0x63616E6E6F742065786365656420313030303000000000000000000000000000 PUSH1 0x44 DUP3 ADD MSTORE PUSH1 0x64 ADD PUSH1 0x40 MLOAD DUP1 SWAP2 SUB SWAP1 REVERT JUMPDEST PUSH1 0x1 PUSH1 0x1 PUSH1 0x60 SHL SUB AND CALLER PUSH13 0x1000000000000000000000000 MUL OR PUSH1 0x9 SSTORE POP PUSH3 0x3C4 SWAP2 POP POP JUMP JUMPDEST PUSH1 0x0 DUP1 SLOAD PUSH1 0x1 PUSH1 0x1 PUSH1 0xA0 SHL SUB DUP4 DUP2 AND PUSH1 0x1 PUSH1 0x1 PUSH1 0xA0 SHL SUB NOT DUP4 AND DUP2 OR DUP5 SSTORE PUSH1 0x40 MLOAD SWAP2 SWAP1 SWAP3 AND SWAP3 DUP4 SWAP2 PUSH32 0xD18B5FD22306E373229B9439188228EDCA81207D1667F604DAF6CEF8AA3EE67 SWAP2 SWAP1 LOG3 POP POP JUMP JUMPDEST DUP3 DUP1 SLOAD PUSH3 0x16F SWAP1 PUSH3 0x371 JUMP JUMPDEST SWAP1 PUSH1 0x0 MSTORE PUSH1 0x20 PUSH1 0x0 KECCAK256 SWAP1 PUSH1 0x1F ADD PUSH1 0x20 SWAP1 DIV DUP2 ADD SWAP3 DUP3 PUSH3 0x193 JUMPI PUSH1 0x0 DUP6 SSTORE PUSH3 0x1DE JUMP JUMPDEST DUP3 PUSH1 0x1F LT PUSH3 0x1AE JUMPI DUP1 MLOAD PUSH1 0xFF NOT AND DUP4 DUP1 ADD OR DUP6 SSTORE PUSH3 0x1DE JUMP JUMPDEST DUP3 DUP1 ADD PUSH1 0x1 ADD DUP6 SSTORE DUP3 ISZERO PUSH3 0x1DE JUMPI SWAP2 DUP3 ADD JUMPDEST DUP3 DUP2 GT ISZERO PUSH3 0x1DE JUMPI DUP3 MLOAD DUP3 SSTORE SWAP2 PUSH1 0x20 ADD SWAP2 SWAP1 PUSH1 0x1 ADD SWAP1 PUSH3 0x1C1 JUMP JUMPDEST POP PUSH3 0x1EC SWAP3 SWAP2 POP PUSH3 0x1F0 JUMP JUMPDEST POP SWAP1 JUMP JUMPDEST JUMPDEST DUP1 DUP3 GT ISZERO PUSH3 0x1EC JUMPI PUSH1 0x0 DUP2 SSTORE PUSH1 0x1 ADD PUSH3 0x1F1 JUMP JUMPDEST PUSH1 0x0 DUP3 PUSH1 0x1F DUP4 ADD SLT PUSH3 0x219 JUMPI PUSH1 0x0 DUP1 REVERT JUMPDEST DUP2 MLOAD PUSH1 0x1 PUSH1 0x1 PUSH1 0x40 SHL SUB DUP1 DUP3 GT ISZERO PUSH3 0x236 JUMPI PUSH3 0x236 PUSH3 0x3AE JUMP JUMPDEST PUSH1 0x40 MLOAD PUSH1 0x1F DUP4 ADD PUSH1 0x1F NOT SWAP1 DUP2 AND PUSH1 0x3F ADD AND DUP2 ADD SWAP1 DUP3 DUP3 GT DUP2 DUP4 LT OR ISZERO PUSH3 0x261 JUMPI PUSH3 0x261 PUSH3 0x3AE JUMP JUMPDEST DUP2 PUSH1 0x40 MSTORE DUP4 DUP2 MSTORE PUSH1 0x20 SWAP3 POP DUP7 DUP4 DUP6 DUP9 ADD ADD GT ISZERO PUSH3 0x27E JUMPI PUSH1 0x0 DUP1 REVERT JUMPDEST PUSH1 0x0 SWAP2 POP JUMPDEST DUP4 DUP3 LT ISZERO PUSH3 0x2A2 JUMPI DUP6 DUP3 ADD DUP4 ADD MLOAD DUP2 DUP4 ADD DUP5 ADD MSTORE SWAP1 DUP3 ADD SWAP1 PUSH3 0x283 JUMP JUMPDEST DUP4 DUP3 GT ISZERO PUSH3 0x2B4 JUMPI PUSH1 0x0 DUP4 DUP6 DUP4 ADD ADD MSTORE JUMPDEST SWAP7 SWAP6 POP POP POP POP POP POP JUMP JUMPDEST PUSH1 0x0 DUP1 PUSH1 0x0 DUP1 PUSH1 0x80 DUP6 DUP8 SUB SLT ISZERO PUSH3 0x2D5 JUMPI PUSH1 0x0 DUP1 REVERT JUMPDEST DUP5 MLOAD PUSH1 0x1 PUSH1 0x1 PUSH1 0x40 SHL SUB DUP1 DUP3 GT ISZERO PUSH3 0x2ED JUMPI PUSH1 0x0 DUP1 REVERT JUMPDEST PUSH3 0x2FB DUP9 DUP4 DUP10 ADD PUSH3 0x207 JUMP JUMPDEST SWAP6 POP PUSH1 0x20 DUP8 ADD MLOAD SWAP2 POP DUP1 DUP3 GT ISZERO PUSH3 0x312 JUMPI PUSH1 0x0 DUP1 REVERT JUMPDEST PUSH3 0x320 DUP9 DUP4 DUP10 ADD PUSH3 0x207 JUMP JUMPDEST SWAP5 POP PUSH1 0x40 DUP8 ADD MLOAD SWAP2 POP DUP1 DUP3 GT ISZERO PUSH3 0x337 JUMPI PUSH1 0x0 DUP1 REVERT JUMPDEST POP PUSH3 0x346 DUP8 DUP3 DUP9 ADD PUSH3 0x207 JUMP JUMPDEST PUSH1 0x60 DUP8 ADD MLOAD SWAP1 SWAP4 POP SWAP1 POP PUSH1 0x1 PUSH1 0x1 PUSH1 0x60 SHL SUB DUP2 AND DUP2 EQ PUSH3 0x366 JUMPI PUSH1 0x0 DUP1 REVERT JUMPDEST SWAP4 SWAP7 SWAP3 SWAP6 POP SWAP1 SWAP4 POP POP JUMP JUMPDEST PUSH1 0x1 DUP2 DUP2 SHR SWAP1 DUP3 AND DUP1 PUSH3 0x386 JUMPI PUSH1 0x7F DUP3 AND SWAP2 POP JUMPDEST PUSH1 0x20 DUP3 LT DUP2 EQ ISZERO PUSH3 0x3A8 JUMPI PUSH4 0x4E487B71 PUSH1 0xE0 SHL PUSH1 0x0 MSTORE PUSH1 0x22 PUSH1 0x4 MSTORE PUSH1 0x24 PUSH1 0x0 REVERT JUMPDEST POP SWAP2 SWAP1 POP JUMP JUMPDEST PUSH4 0x4E487B71 PUSH1 0xE0 SHL PUSH1 0x0 MSTORE PUSH1 0x41 PUSH1 0x4 MSTORE PUSH1 0x24 PUSH1 0x0 REVERT JUMPDEST PUSH2 0x1708 DUP1 PUSH3 0x3D4 PUSH1 0x0 CODECOPY PUSH1 0x0 RETURN INVALID PUSH1 0x80 PUSH1 0x40 MSTORE CALLVALUE DUP1 ISZERO PUSH2 0x10 JUMPI PUSH1 0x0 DUP1 REVERT JUMPDEST POP PUSH1 0x4 CALLDATASIZE LT PUSH2 0x158 JUMPI PUSH1 0x0 CALLDATALOAD PUSH1 0xE0 SHR DUP1 PUSH4 0x8DA5CB5B GT PUSH2 0xC3 JUMPI DUP1 PUSH4 0xB88D4FDE GT PUSH2 0x7C JUMPI DUP1 PUSH4 0xB88D4FDE EQ PUSH2 0x351 JUMPI DUP1 PUSH4 0xC4E18836 EQ PUSH2 0x364 JUMPI DUP1 PUSH4 0xC87B56DD EQ PUSH2 0x377 JUMPI DUP1 PUSH4 0xE985E9C5 EQ PUSH2 0x38A JUMPI DUP1 PUSH4 0xF2FDE38B EQ PUSH2 0x3B8 JUMPI DUP1 PUSH4 0xFA695A97 EQ PUSH2 0x3CB JUMPI PUSH1 0x0 DUP1 REVERT JUMPDEST DUP1 PUSH4 0x8DA5CB5B EQ PUSH2 0x2E5 JUMPI DUP1 PUSH4 0x95D89B41 EQ PUSH2 0x2F6 JUMPI DUP1 PUSH4 0xA22CB465 EQ PUSH2 0x2FE JUMPI DUP1 PUSH4 0xA2E69613 EQ PUSH2 0x311 JUMPI DUP1 PUSH4 0xA709DC17 EQ PUSH2 0x324 JUMPI DUP1 PUSH4 0xAD2F852A EQ PUSH2 0x337 JUMPI PUSH1 0x0 DUP1 REVERT JUMPDEST DUP1 PUSH4 0x2A55205A GT PUSH2 0x115 JUMPI DUP1 PUSH4 0x2A55205A EQ PUSH2 0x216 JUMPI DUP1 PUSH4 0x42842E0E EQ PUSH2 0x248 JUMPI DUP1 PUSH4 0x6352211E EQ PUSH2 0x25B JUMPI DUP1 PUSH4 0x6C0360EB EQ PUSH2 0x284 JUMPI DUP1 PUSH4 0x70A08231 EQ PUSH2 0x28C JUMPI DUP1 PUSH4 0x73C7400E EQ PUSH2 0x2BA JUMPI PUSH1 0x0 DUP1 REVERT JUMPDEST DUP1 PUSH4 0x1FFC9A7 EQ PUSH2 0x15D JUMPI DUP1 PUSH4 0x2FA7C47 EQ PUSH2 0x185 JUMPI DUP1 PUSH4 0x6FDDE03 EQ PUSH2 0x19A JUMPI DUP1 PUSH4 0x81812FC EQ PUSH2 0x1AF JUMPI DUP1 PUSH4 0x95EA7B3 EQ PUSH2 0x1F0 JUMPI DUP1 PUSH4 0x23B872DD EQ PUSH2 0x203 JUMPI JUMPDEST PUSH1 0x0 DUP1 REVERT JUMPDEST PUSH2 0x170 PUSH2 0x16B CALLDATASIZE PUSH1 0x4 PUSH2 0x13B3 JUMP JUMPDEST PUSH2 0x3DE JUMP JUMPDEST PUSH1 0x40 MLOAD SWAP1 ISZERO ISZERO DUP2 MSTORE PUSH1 0x20 ADD JUMPDEST PUSH1 0x40 MLOAD DUP1 SWAP2 SUB SWAP1 RETURN JUMPDEST PUSH2 0x198 PUSH2 0x193 CALLDATASIZE PUSH1 0x4 PUSH2 0x137B JUMP JUMPDEST PUSH2 0x44B JUMP JUMPDEST STOP JUMPDEST PUSH2 0x1A2 PUSH2 0x4FE JUMP JUMPDEST PUSH1 0x40 MLOAD PUSH2 0x17C SWAP2 SWAP1 PUSH2 0x14D0 JUMP JUMPDEST PUSH2 0x1D8 PUSH2 0x1BD CALLDATASIZE PUSH1 0x4 PUSH2 0x13ED JUMP JUMPDEST PUSH1 0x5 PUSH1 0x20 MSTORE PUSH1 0x0 SWAP1 DUP2 MSTORE PUSH1 0x40 SWAP1 KECCAK256 SLOAD PUSH1 0x1 PUSH1 0x1 PUSH1 0xA0 SHL SUB AND DUP2 JUMP JUMPDEST PUSH1 0x40 MLOAD PUSH1 0x1 PUSH1 0x1 PUSH1 0xA0 SHL SUB SWAP1 SWAP2 AND DUP2 MSTORE PUSH1 0x20 ADD PUSH2 0x17C JUMP JUMPDEST PUSH2 0x198 PUSH2 0x1FE CALLDATASIZE PUSH1 0x4 PUSH2 0x1318 JUMP JUMPDEST PUSH2 0x58C JUMP JUMPDEST PUSH2 0x198 PUSH2 0x211 CALLDATASIZE PUSH1 0x4 PUSH2 0x11C4 JUMP JUMPDEST PUSH2 0x66E JUMP JUMPDEST PUSH2 0x229 PUSH2 0x224 CALLDATASIZE PUSH1 0x4 PUSH2 0x1406 JUMP JUMPDEST PUSH2 0x82C JUMP JUMPDEST PUSH1 0x40 DUP1 MLOAD PUSH1 0x1 PUSH1 0x1 PUSH1 0xA0 SHL SUB SWAP1 SWAP4 AND DUP4 MSTORE PUSH1 0x20 DUP4 ADD SWAP2 SWAP1 SWAP2 MSTORE ADD PUSH2 0x17C JUMP JUMPDEST PUSH2 0x198 PUSH2 0x256 CALLDATASIZE PUSH1 0x4 PUSH2 0x11C4 JUMP JUMPDEST PUSH2 0x858 JUMP JUMPDEST PUSH2 0x1D8 PUSH2 0x269 CALLDATASIZE PUSH1 0x4 PUSH2 0x13ED JUMP JUMPDEST PUSH1 0x4 PUSH1 0x20 MSTORE PUSH1 0x0 SWAP1 DUP2 MSTORE PUSH1 0x40 SWAP1 KECCAK256 SLOAD PUSH1 0x1 PUSH1 0x1 PUSH1 0xA0 SHL SUB AND DUP2 JUMP JUMPDEST PUSH2 0x1A2 PUSH2 0x93C JUMP JUMPDEST PUSH2 0x2AC PUSH2 0x29A CALLDATASIZE PUSH1 0x4 PUSH2 0x1176 JUMP JUMPDEST PUSH1 0x3 PUSH1 0x20 MSTORE PUSH1 0x0 SWAP1 DUP2 MSTORE PUSH1 0x40 SWAP1 KECCAK256 SLOAD DUP2 JUMP JUMPDEST PUSH1 0x40 MLOAD SWAP1 DUP2 MSTORE PUSH1 0x20 ADD PUSH2 0x17C JUMP JUMPDEST PUSH1 0x9 SLOAD PUSH2 0x2CD SWAP1 PUSH1 0x1 PUSH1 0x1 PUSH1 0x60 SHL SUB AND DUP2 JUMP JUMPDEST PUSH1 0x40 MLOAD PUSH1 0x1 PUSH1 0x1 PUSH1 0x60 SHL SUB SWAP1 SWAP2 AND DUP2 MSTORE PUSH1 0x20 ADD PUSH2 0x17C JUMP JUMPDEST PUSH1 0x0 SLOAD PUSH1 0x1 PUSH1 0x1 PUSH1 0xA0 SHL SUB AND PUSH2 0x1D8 JUMP JUMPDEST PUSH2 0x1A2 PUSH2 0x949 JUMP JUMPDEST PUSH2 0x198 PUSH2 0x30C CALLDATASIZE PUSH1 0x4 PUSH2 0x12DC JUMP JUMPDEST PUSH2 0x956 JUMP JUMPDEST PUSH2 0x2AC PUSH2 0x31F CALLDATASIZE PUSH1 0x4 PUSH2 0x13ED JUMP JUMPDEST PUSH2 0x9C2 JUMP JUMPDEST PUSH2 0x198 PUSH2 0x332 CALLDATASIZE PUSH1 0x4 PUSH2 0x1342 JUMP JUMPDEST PUSH2 0x9E7 JUMP JUMPDEST PUSH1 0x9 SLOAD PUSH2 0x1D8 SWAP1 PUSH1 0x1 PUSH1 0x60 SHL SWAP1 DIV PUSH1 0x1 PUSH1 0x1 PUSH1 0xA0 SHL SUB AND DUP2 JUMP JUMPDEST PUSH2 0x198 PUSH2 0x35F CALLDATASIZE PUSH1 0x4 PUSH2 0x1200 JUMP JUMPDEST PUSH2 0xA9B JUMP JUMPDEST PUSH2 0x198 PUSH2 0x372 CALLDATASIZE PUSH1 0x4 PUSH2 0x12DC JUMP JUMPDEST PUSH2 0xB6C JUMP JUMPDEST PUSH2 0x1A2 PUSH2 0x385 CALLDATASIZE PUSH1 0x4 PUSH2 0x13ED JUMP JUMPDEST PUSH2 0xBC1 JUMP JUMPDEST PUSH2 0x170 PUSH2 0x398 CALLDATASIZE PUSH1 0x4 PUSH2 0x1191 JUMP JUMPDEST PUSH1 0x6 PUSH1 0x20 SWAP1 DUP2 MSTORE PUSH1 0x0 SWAP3 DUP4 MSTORE PUSH1 0x40 DUP1 DUP5 KECCAK256 SWAP1 SWAP2 MSTORE SWAP1 DUP3 MSTORE SWAP1 KECCAK256 SLOAD PUSH1 0xFF AND DUP2 JUMP JUMPDEST PUSH2 0x198 PUSH2 0x3C6 CALLDATASIZE PUSH1 0x4 PUSH2 0x1176 JUMP JUMPDEST PUSH2 0xC84 JUMP JUMPDEST PUSH2 0x198 PUSH2 0x3D9 CALLDATASIZE PUSH1 0x4 PUSH2 0x1176 JUMP JUMPDEST PUSH2 0xD10 JUMP JUMPDEST PUSH1 0x0 PUSH4 0x1FFC9A7 PUSH1 0xE0 SHL PUSH1 0x1 PUSH1 0x1 PUSH1 0xE0 SHL SUB NOT DUP4 AND EQ DUP1 PUSH2 0x40F JUMPI POP PUSH4 0x80AC58CD PUSH1 0xE0 SHL PUSH1 0x1 PUSH1 0x1 PUSH1 0xE0 SHL SUB NOT DUP4 AND EQ JUMPDEST DUP1 PUSH2 0x42A JUMPI POP PUSH4 0x5B5E139F PUSH1 0xE0 SHL PUSH1 0x1 PUSH1 0x1 PUSH1 0xE0 SHL SUB NOT DUP4 AND EQ JUMPDEST DUP1 PUSH2 0x445 JUMPI POP PUSH4 0x152A902D PUSH1 0xE1 SHL PUSH1 0x1 PUSH1 0x1 PUSH1 0xE0 SHL SUB NOT DUP4 AND EQ JUMPDEST SWAP3 SWAP2 POP POP JUMP JUMPDEST PUSH1 0x0 SLOAD PUSH1 0x1 PUSH1 0x1 PUSH1 0xA0 SHL SUB AND CALLER EQ PUSH2 0x47E JUMPI PUSH1 0x40 MLOAD PUSH3 0x461BCD PUSH1 0xE5 SHL DUP2 MSTORE PUSH1 0x4 ADD PUSH2 0x475 SWAP1 PUSH2 0x14E3 JUMP JUMPDEST PUSH1 0x40 MLOAD DUP1 SWAP2 SUB SWAP1 REVERT JUMPDEST PUSH2 0x2710 DUP2 PUSH1 0x1 PUSH1 0x1 PUSH1 0x60 SHL SUB AND GT ISZERO PUSH2 0x4CF JUMPI PUSH1 0x40 MLOAD PUSH3 0x461BCD PUSH1 0xE5 SHL DUP2 MSTORE PUSH1 0x20 PUSH1 0x4 DUP3 ADD MSTORE PUSH1 0x13 PUSH1 0x24 DUP3 ADD MSTORE PUSH19 0x63616E6E6F742065786365656420313030303 PUSH1 0x6C SHL PUSH1 0x44 DUP3 ADD MSTORE PUSH1 0x64 ADD PUSH2 0x475 JUMP JUMPDEST PUSH1 0x1 PUSH1 0x1 PUSH1 0x60 SHL SUB AND PUSH1 0x1 PUSH1 0x1 PUSH1 0xA0 SHL SUB SWAP1 SWAP2 AND PUSH1 0x1 PUSH1 0x60 SHL MUL PUSH12 0xFFFFFFFFFFFFFFFFFFFFFFFF NOT AND OR PUSH1 0x9 SSTORE JUMP JUMPDEST PUSH1 0x1 DUP1 SLOAD PUSH2 0x50B SWAP1 PUSH2 0x15D2 JUMP JUMPDEST DUP1 PUSH1 0x1F ADD PUSH1 0x20 DUP1 SWAP2 DIV MUL PUSH1 0x20 ADD PUSH1 0x40 MLOAD SWAP1 DUP2 ADD PUSH1 0x40 MSTORE DUP1 SWAP3 SWAP2 SWAP1 DUP2 DUP2 MSTORE PUSH1 0x20 ADD DUP3 DUP1 SLOAD PUSH2 0x537 SWAP1 PUSH2 0x15D2 JUMP JUMPDEST DUP1 ISZERO PUSH2 0x584 JUMPI DUP1 PUSH1 0x1F LT PUSH2 0x559 JUMPI PUSH2 0x100 DUP1 DUP4 SLOAD DIV MUL DUP4 MSTORE SWAP2 PUSH1 0x20 ADD SWAP2 PUSH2 0x584 JUMP JUMPDEST DUP3 ADD SWAP2 SWAP1 PUSH1 0x0 MSTORE PUSH1 0x20 PUSH1 0x0 KECCAK256 SWAP1 JUMPDEST DUP2 SLOAD DUP2 MSTORE SWAP1 PUSH1 0x1 ADD SWAP1 PUSH1 0x20 ADD DUP1 DUP4 GT PUSH2 0x567 JUMPI DUP3 SWAP1 SUB PUSH1 0x1F AND DUP3 ADD SWAP2 JUMPDEST POP POP POP POP POP DUP2 JUMP JUMPDEST PUSH1 0x0 DUP2 DUP2 MSTORE PUSH1 0x4 PUSH1 0x20 MSTORE PUSH1 0x40 SWAP1 KECCAK256 SLOAD PUSH1 0x1 PUSH1 0x1 PUSH1 0xA0 SHL SUB AND CALLER DUP2 EQ DUP1 PUSH2 0x5D5 JUMPI POP PUSH1 0x1 PUSH1 0x1 PUSH1 0xA0 SHL SUB DUP2 AND PUSH1 0x0 SWAP1 DUP2 MSTORE PUSH1 0x6 PUSH1 0x20 SWAP1 DUP2 MSTORE PUSH1 0x40 DUP1 DUP4 KECCAK256 CALLER DUP5 MSTORE SWAP1 SWAP2 MSTORE SWAP1 KECCAK256 SLOAD PUSH1 0xFF AND JUMPDEST PUSH2 0x612 JUMPI PUSH1 0x40 MLOAD PUSH3 0x461BCD PUSH1 0xE5 SHL DUP2 MSTORE PUSH1 0x20 PUSH1 0x4 DUP3 ADD MSTORE PUSH1 0xE PUSH1 0x24 DUP3 ADD MSTORE PUSH14 0x139BDD08185D5D1A1BDC9A5E9959 PUSH1 0x92 SHL PUSH1 0x44 DUP3 ADD MSTORE PUSH1 0x64 ADD PUSH2 0x475 JUMP JUMPDEST PUSH1 0x0 DUP3 DUP2 MSTORE PUSH1 0x5 PUSH1 0x20 MSTORE PUSH1 0x40 DUP1 DUP3 KECCAK256 DUP1 SLOAD PUSH1 0x1 PUSH1 0x1 PUSH1 0xA0 SHL SUB NOT AND PUSH1 0x1 PUSH1 0x1 PUSH1 0xA0 SHL SUB DUP8 DUP2 AND SWAP2 DUP3 OR SWAP1 SWAP3 SSTORE SWAP2 MLOAD DUP6 SWAP4 SWAP2 DUP6 AND SWAP2 PUSH32 0x8C5BE1E5EBEC7D5BD14F71427D1E84F3DD0314C0F7B2291E5B200AC8C7C3B925 SWAP2 LOG4 POP POP POP JUMP JUMPDEST PUSH1 0x0 DUP2 DUP2 MSTORE PUSH1 0x4 PUSH1 0x20 MSTORE PUSH1 0x40 SWAP1 KECCAK256 SLOAD PUSH1 0x1 PUSH1 0x1 PUSH1 0xA0 SHL SUB DUP5 DUP2 AND SWAP2 AND EQ PUSH2 0x6C4 JUMPI PUSH1 0x40 MLOAD PUSH3 0x461BCD PUSH1 0xE5 SHL DUP2 MSTORE PUSH1 0x20 PUSH1 0x4 DUP3 ADD MSTORE PUSH1 0xA PUSH1 0x24 DUP3 ADD MSTORE PUSH10 0x57524F4E472046524F4D PUSH1 0xB0 SHL PUSH1 0x44 DUP3 ADD MSTORE PUSH1 0x64 ADD PUSH2 0x475 JUMP JUMPDEST PUSH1 0x1 PUSH1 0x1 PUSH1 0xA0 SHL SUB DUP3 AND PUSH2 0x705 JUMPI PUSH1 0x40 MLOAD PUSH3 0x461BCD PUSH1 0xE5 SHL DUP2 MSTORE PUSH1 0x20 PUSH1 0x4 DUP3 ADD MSTORE PUSH1 0x8 PUSH1 0x24 DUP3 ADD MSTORE PUSH8 0x57524F4E4720544F PUSH1 0xC0 SHL PUSH1 0x44 DUP3 ADD MSTORE PUSH1 0x64 ADD PUSH2 0x475 JUMP JUMPDEST CALLER PUSH1 0x1 PUSH1 0x1 PUSH1 0xA0 SHL SUB DUP5 AND EQ DUP1 PUSH2 0x73F JUMPI POP PUSH1 0x1 PUSH1 0x1 PUSH1 0xA0 SHL SUB DUP4 AND PUSH1 0x0 SWAP1 DUP2 MSTORE PUSH1 0x6 PUSH1 0x20 SWAP1 DUP2 MSTORE PUSH1 0x40 DUP1 DUP4 KECCAK256 CALLER DUP5 MSTORE SWAP1 SWAP2 MSTORE SWAP1 KECCAK256 SLOAD PUSH1 0xFF AND JUMPDEST DUP1 PUSH2 0x760 JUMPI POP PUSH1 0x0 DUP2 DUP2 MSTORE PUSH1 0x5 PUSH1 0x20 MSTORE PUSH1 0x40 SWAP1 KECCAK256 SLOAD PUSH1 0x1 PUSH1 0x1 PUSH1 0xA0 SHL SUB AND CALLER EQ JUMPDEST PUSH2 0x79D JUMPI PUSH1 0x40 MLOAD PUSH3 0x461BCD PUSH1 0xE5 SHL DUP2 MSTORE PUSH1 0x20 PUSH1 0x4 DUP3 ADD MSTORE PUSH1 0xE PUSH1 0x24 DUP3 ADD MSTORE PUSH14 0x1393D5081055551213D492569151 PUSH1 0x92 SHL PUSH1 0x44 DUP3 ADD MSTORE PUSH1 0x64 ADD PUSH2 0x475 JUMP JUMPDEST PUSH1 0x1 PUSH1 0x1 PUSH1 0xA0 SHL SUB DUP1 DUP5 AND PUSH1 0x0 DUP2 DUP2 MSTORE PUSH1 0x3 PUSH1 0x20 SWAP1 DUP2 MSTORE PUSH1 0x40 DUP1 DUP4 KECCAK256 DUP1 SLOAD PUSH1 0x0 NOT ADD SWAP1 SSTORE SWAP4 DUP7 AND DUP1 DUP4 MSTORE DUP5 DUP4 KECCAK256 DUP1 SLOAD PUSH1 0x1 ADD SWAP1 SSTORE DUP6 DUP4 MSTORE PUSH1 0x4 DUP3 MSTORE DUP5 DUP4 KECCAK256 DUP1 SLOAD PUSH1 0x1 PUSH1 0x1 PUSH1 0xA0 SHL SUB NOT SWAP1 DUP2 AND DUP4 OR SWAP1 SWAP2 SSTORE PUSH1 0x5 SWAP1 SWAP3 MSTORE DUP5 DUP4 KECCAK256 DUP1 SLOAD SWAP1 SWAP3 AND SWAP1 SWAP2 SSTORE SWAP3 MLOAD DUP5 SWAP4 SWAP3 SWAP2 PUSH32 0xDDF252AD1BE2C89B69C2B068FC378DAA952BA7F163C4A11628F55A4DF523B3EF SWAP2 LOG4 POP POP POP JUMP JUMPDEST PUSH1 0x9 SLOAD PUSH1 0x0 SWAP1 DUP2 SWAP1 PUSH1 0x1 PUSH1 0x60 SHL SWAP1 DIV PUSH1 0x1 PUSH1 0x1 PUSH1 0xA0 SHL SUB AND PUSH2 0x84D DUP5 PUSH2 0x9C2 JUMP JUMPDEST SWAP2 POP SWAP2 POP SWAP3 POP SWAP3 SWAP1 POP JUMP JUMPDEST PUSH2 0x863 DUP4 DUP4 DUP4 PUSH2 0x66E JUMP JUMPDEST PUSH1 0x1 PUSH1 0x1 PUSH1 0xA0 SHL SUB DUP3 AND EXTCODESIZE ISZERO DUP1 PUSH2 0x91B JUMPI POP PUSH1 0x40 MLOAD PUSH4 0xA85BD01 PUSH1 0xE1 SHL DUP1 DUP3 MSTORE CALLER PUSH1 0x4 DUP4 ADD MSTORE PUSH1 0x1 PUSH1 0x1 PUSH1 0xA0 SHL SUB DUP6 DUP2 AND PUSH1 0x24 DUP5 ADD MSTORE PUSH1 0x44 DUP4 ADD DUP5 SWAP1 MSTORE PUSH1 0x80 PUSH1 0x64 DUP5 ADD MSTORE PUSH1 0x0 PUSH1 0x84 DUP5 ADD MSTORE SWAP1 SWAP2 SWAP1 DUP5 AND SWAP1 PUSH4 0x150B7A02 SWAP1 PUSH1 0xA4 ADD PUSH1 0x20 PUSH1 0x40 MLOAD DUP1 DUP4 SUB DUP2 PUSH1 0x0 DUP8 DUP1 EXTCODESIZE ISZERO DUP1 ISZERO PUSH2 0x8D7 JUMPI PUSH1 0x0 DUP1 REVERT JUMPDEST POP GAS CALL ISZERO DUP1 ISZERO PUSH2 0x8EB JUMPI RETURNDATASIZE PUSH1 0x0 DUP1 RETURNDATACOPY RETURNDATASIZE PUSH1 0x0 REVERT JUMPDEST POP POP POP POP PUSH1 0x40 MLOAD RETURNDATASIZE PUSH1 0x1F NOT PUSH1 0x1F DUP3 ADD AND DUP3 ADD DUP1 PUSH1 0x40 MSTORE POP DUP2 ADD SWAP1 PUSH2 0x90F SWAP2 SWAP1 PUSH2 0x13D0 JUMP JUMPDEST PUSH1 0x1 PUSH1 0x1 PUSH1 0xE0 SHL SUB NOT AND EQ JUMPDEST PUSH2 0x937 JUMPI PUSH1 0x40 MLOAD PUSH3 0x461BCD PUSH1 0xE5 SHL DUP2 MSTORE PUSH1 0x4 ADD PUSH2 0x475 SWAP1 PUSH2 0x151A JUMP JUMPDEST POP POP POP JUMP JUMPDEST PUSH1 0x7 DUP1 SLOAD PUSH2 0x50B SWAP1 PUSH2 0x15D2 JUMP JUMPDEST PUSH1 0x2 DUP1 SLOAD PUSH2 0x50B SWAP1 PUSH2 0x15D2 JUMP JUMPDEST CALLER PUSH1 0x0 DUP2 DUP2 MSTORE PUSH1 0x6 PUSH1 0x20 SWAP1 DUP2 MSTORE PUSH1 0x40 DUP1 DUP4 KECCAK256 PUSH1 0x1 PUSH1 0x1 PUSH1 0xA0 SHL SUB DUP8 AND DUP1 DUP6 MSTORE SWAP1 DUP4 MSTORE SWAP3 DUP2 SWAP1 KECCAK256 DUP1 SLOAD PUSH1 0xFF NOT AND DUP7 ISZERO ISZERO SWAP1 DUP2 OR SWAP1 SWAP2 SSTORE SWAP1 MLOAD SWAP1 DUP2 MSTORE SWAP2 SWAP3 SWAP2 PUSH32 0x17307EAB39AB6107E8899845AD3D59BD9653F200F220920489CA2B5937696C31 SWAP2 ADD PUSH1 0x40 MLOAD DUP1 SWAP2 SUB SWAP1 LOG3 POP POP JUMP JUMPDEST PUSH1 0x9 SLOAD PUSH1 0x0 SWAP1 PUSH1 0x1 PUSH1 0x1 PUSH1 0x60 SHL SUB AND PUSH2 0x9DD PUSH2 0x2710 DUP5 PUSH2 0x155C JUMP JUMPDEST PUSH2 0x445 SWAP2 SWAP1 PUSH2 0x1570 JUMP JUMPDEST CALLER PUSH1 0x0 SWAP1 DUP2 MSTORE PUSH1 0xA PUSH1 0x20 MSTORE PUSH1 0x40 SWAP1 KECCAK256 SLOAD PUSH1 0xFF AND DUP1 PUSH2 0xA0F JUMPI POP PUSH1 0x0 SLOAD PUSH1 0x1 PUSH1 0x1 PUSH1 0xA0 SHL SUB AND CALLER EQ JUMPDEST PUSH2 0xA49 JUMPI PUSH1 0x40 MLOAD PUSH3 0x461BCD PUSH1 0xE5 SHL DUP2 MSTORE PUSH1 0x20 PUSH1 0x4 DUP3 ADD MSTORE PUSH1 0xB PUSH1 0x24 DUP3 ADD MSTORE PUSH11 0x1393D50810531313D5D151 PUSH1 0xAA SHL PUSH1 0x44 DUP3 ADD MSTORE PUSH1 0x64 ADD PUSH2 0x475 JUMP JUMPDEST PUSH1 0x0 JUMPDEST DUP2 PUSH8 0xFFFFFFFFFFFFFFFF AND DUP2 PUSH8 0xFFFFFFFFFFFFFFFF AND LT ISZERO PUSH2 0x937 JUMPI PUSH1 0x8 DUP1 SLOAD SWAP1 PUSH1 0x0 PUSH2 0xA78 DUP4 PUSH2 0x160D JUMP JUMPDEST SWAP2 SWAP1 POP SSTORE POP PUSH2 0xA89 DUP4 PUSH1 0x8 SLOAD PUSH2 0xD8F JUMP JUMPDEST DUP1 PUSH2 0xA93 DUP2 PUSH2 0x1628 JUMP JUMPDEST SWAP2 POP POP PUSH2 0xA4C JUMP JUMPDEST PUSH2 0xAA6 DUP5 DUP5 DUP5 PUSH2 0x66E JUMP JUMPDEST PUSH1 0x1 PUSH1 0x1 PUSH1 0xA0 SHL SUB DUP4 AND EXTCODESIZE ISZERO DUP1 PUSH2 0xB4A JUMPI POP PUSH1 0x40 MLOAD PUSH4 0xA85BD01 PUSH1 0xE1 SHL DUP1 DUP3 MSTORE SWAP1 PUSH1 0x1 PUSH1 0x1 PUSH1 0xA0 SHL SUB DUP6 AND SWAP1 PUSH4 0x150B7A02 SWAP1 PUSH2 0xAEC SWAP1 CALLER SWAP1 DUP10 SWAP1 DUP9 SWAP1 DUP9 SWAP1 PUSH1 0x4 ADD PUSH2 0x1493 JUMP JUMPDEST PUSH1 0x20 PUSH1 0x40 MLOAD DUP1 DUP4 SUB DUP2 PUSH1 0x0 DUP8 DUP1 EXTCODESIZE ISZERO DUP1 ISZERO PUSH2 0xB06 JUMPI PUSH1 0x0 DUP1 REVERT JUMPDEST POP GAS CALL ISZERO DUP1 ISZERO PUSH2 0xB1A JUMPI RETURNDATASIZE PUSH1 0x0 DUP1 RETURNDATACOPY RETURNDATASIZE PUSH1 0x0 REVERT JUMPDEST POP POP POP POP PUSH1 0x40 MLOAD RETURNDATASIZE PUSH1 0x1F NOT PUSH1 0x1F DUP3 ADD AND DUP3 ADD DUP1 PUSH1 0x40 MSTORE POP DUP2 ADD SWAP1 PUSH2 0xB3E SWAP2 SWAP1 PUSH2 0x13D0 JUMP JUMPDEST PUSH1 0x1 PUSH1 0x1 PUSH1 0xE0 SHL SUB NOT AND EQ JUMPDEST PUSH2 0xB66 JUMPI PUSH1 0x40 MLOAD PUSH3 0x461BCD PUSH1 0xE5 SHL DUP2 MSTORE PUSH1 0x4 ADD PUSH2 0x475 SWAP1 PUSH2 0x151A JUMP JUMPDEST POP POP POP POP JUMP JUMPDEST PUSH1 0x0 SLOAD PUSH1 0x1 PUSH1 0x1 PUSH1 0xA0 SHL SUB AND CALLER EQ PUSH2 0xB96 JUMPI PUSH1 0x40 MLOAD PUSH3 0x461BCD PUSH1 0xE5 SHL DUP2 MSTORE PUSH1 0x4 ADD PUSH2 0x475 SWAP1 PUSH2 0x14E3 JUMP JUMPDEST PUSH1 0x1 PUSH1 0x1 PUSH1 0xA0 SHL SUB SWAP2 SWAP1 SWAP2 AND PUSH1 0x0 SWAP1 DUP2 MSTORE PUSH1 0xA PUSH1 0x20 MSTORE PUSH1 0x40 SWAP1 KECCAK256 DUP1 SLOAD PUSH1 0xFF NOT AND SWAP2 ISZERO ISZERO SWAP2 SWAP1 SWAP2 OR SWAP1 SSTORE JUMP JUMPDEST PUSH1 0x0 DUP2 DUP2 MSTORE PUSH1 0x4 PUSH1 0x20 MSTORE PUSH1 0x40 SWAP1 KECCAK256 SLOAD PUSH1 0x60 SWAP1 PUSH1 0x1 PUSH1 0x1 PUSH1 0xA0 SHL SUB AND PUSH2 0xC28 JUMPI PUSH1 0x40 MLOAD PUSH3 0x461BCD PUSH1 0xE5 SHL DUP2 MSTORE PUSH1 0x20 PUSH1 0x4 DUP3 ADD MSTORE PUSH1 0x1C PUSH1 0x24 DUP3 ADD MSTORE PUSH32 0x4E6F20746F6B656E207769746820746869732049642065786973747300000000 PUSH1 0x44 DUP3 ADD MSTORE PUSH1 0x64 ADD PUSH2 0x475 JUMP JUMPDEST PUSH1 0x0 PUSH2 0xC32 PUSH2 0xE6E JUMP JUMPDEST SWAP1 POP PUSH1 0x0 DUP2 MLOAD GT PUSH2 0xC52 JUMPI PUSH1 0x40 MLOAD DUP1 PUSH1 0x20 ADD PUSH1 0x40 MSTORE DUP1 PUSH1 0x0 DUP2 MSTORE POP PUSH2 0xC7D JUMP JUMPDEST DUP1 PUSH2 0xC5C DUP5 PUSH2 0xF00 JUMP JUMPDEST PUSH1 0x40 MLOAD PUSH1 0x20 ADD PUSH2 0xC6D SWAP3 SWAP2 SWAP1 PUSH2 0x1454 JUMP JUMPDEST PUSH1 0x40 MLOAD PUSH1 0x20 DUP2 DUP4 SUB SUB DUP2 MSTORE SWAP1 PUSH1 0x40 MSTORE JUMPDEST SWAP4 SWAP3 POP POP POP JUMP JUMPDEST PUSH1 0x0 SLOAD PUSH1 0x1 PUSH1 0x1 PUSH1 0xA0 SHL SUB AND CALLER EQ PUSH2 0xCAE JUMPI PUSH1 0x40 MLOAD PUSH3 0x461BCD PUSH1 0xE5 SHL DUP2 MSTORE PUSH1 0x4 ADD PUSH2 0x475 SWAP1 PUSH2 0x14E3 JUMP JUMPDEST PUSH1 0x1 PUSH1 0x1 PUSH1 0xA0 SHL SUB DUP2 AND PUSH2 0xD04 JUMPI PUSH1 0x40 MLOAD PUSH3 0x461BCD PUSH1 0xE5 SHL DUP2 MSTORE PUSH1 0x20 PUSH1 0x4 DUP3 ADD MSTORE PUSH1 0x1C PUSH1 0x24 DUP3 ADD MSTORE PUSH32 0x4F776E65722063616E6E6F74206265207A65726F206164647265737300000000 PUSH1 0x44 DUP3 ADD MSTORE PUSH1 0x64 ADD PUSH2 0x475 JUMP JUMPDEST PUSH2 0xD0D DUP2 PUSH2 0x1006 JUMP JUMPDEST POP JUMP JUMPDEST CALLER PUSH1 0x0 SWAP1 DUP2 MSTORE PUSH1 0xA PUSH1 0x20 MSTORE PUSH1 0x40 SWAP1 KECCAK256 SLOAD PUSH1 0xFF AND DUP1 PUSH2 0xD38 JUMPI POP PUSH1 0x0 SLOAD PUSH1 0x1 PUSH1 0x1 PUSH1 0xA0 SHL SUB AND CALLER EQ JUMPDEST PUSH2 0xD72 JUMPI PUSH1 0x40 MLOAD PUSH3 0x461BCD PUSH1 0xE5 SHL DUP2 MSTORE PUSH1 0x20 PUSH1 0x4 DUP3 ADD MSTORE PUSH1 0xB PUSH1 0x24 DUP3 ADD MSTORE PUSH11 0x1393D50810531313D5D151 PUSH1 0xAA SHL PUSH1 0x44 DUP3 ADD MSTORE PUSH1 0x64 ADD PUSH2 0x475 JUMP JUMPDEST PUSH1 0x8 DUP1 SLOAD SWAP1 PUSH1 0x0 PUSH2 0xD82 DUP4 PUSH2 0x160D JUMP JUMPDEST SWAP2 SWAP1 POP SSTORE POP PUSH2 0xD0D DUP2 PUSH1 0x8 SLOAD JUMPDEST PUSH2 0xD99 DUP3 DUP3 PUSH2 0x1056 JUMP JUMPDEST PUSH1 0x1 PUSH1 0x1 PUSH1 0xA0 SHL SUB DUP3 AND EXTCODESIZE ISZERO DUP1 PUSH2 0xE4E JUMPI POP PUSH1 0x40 MLOAD PUSH4 0xA85BD01 PUSH1 0xE1 SHL DUP1 DUP3 MSTORE CALLER PUSH1 0x4 DUP4 ADD MSTORE PUSH1 0x0 PUSH1 0x24 DUP4 ADD DUP2 SWAP1 MSTORE PUSH1 0x44 DUP4 ADD DUP5 SWAP1 MSTORE PUSH1 0x80 PUSH1 0x64 DUP5 ADD MSTORE PUSH1 0x84 DUP4 ADD MSTORE SWAP1 PUSH1 0x1 PUSH1 0x1 PUSH1 0xA0 SHL SUB DUP5 AND SWAP1 PUSH4 0x150B7A02 SWAP1 PUSH1 0xA4 ADD PUSH1 0x20 PUSH1 0x40 MLOAD DUP1 DUP4 SUB DUP2 PUSH1 0x0 DUP8 DUP1 EXTCODESIZE ISZERO DUP1 ISZERO PUSH2 0xE0A JUMPI PUSH1 0x0 DUP1 REVERT JUMPDEST POP GAS CALL ISZERO DUP1 ISZERO PUSH2 0xE1E JUMPI RETURNDATASIZE PUSH1 0x0 DUP1 RETURNDATACOPY RETURNDATASIZE PUSH1 0x0 REVERT JUMPDEST POP POP POP POP PUSH1 0x40 MLOAD RETURNDATASIZE PUSH1 0x1F NOT PUSH1 0x1F DUP3 ADD AND DUP3 ADD DUP1 PUSH1 0x40 MSTORE POP DUP2 ADD SWAP1 PUSH2 0xE42 SWAP2 SWAP1 PUSH2 0x13D0 JUMP JUMPDEST PUSH1 0x1 PUSH1 0x1 PUSH1 0xE0 SHL SUB NOT AND EQ JUMPDEST PUSH2 0xE6A JUMPI PUSH1 0x40 MLOAD PUSH3 0x461BCD PUSH1 0xE5 SHL DUP2 MSTORE PUSH1 0x4 ADD PUSH2 0x475 SWAP1 PUSH2 0x151A JUMP JUMPDEST POP POP JUMP JUMPDEST PUSH1 0x60 PUSH1 0x7 DUP1 SLOAD PUSH2 0xE7D SWAP1 PUSH2 0x15D2 JUMP JUMPDEST DUP1 PUSH1 0x1F ADD PUSH1 0x20 DUP1 SWAP2 DIV MUL PUSH1 0x20 ADD PUSH1 0x40 MLOAD SWAP1 DUP2 ADD PUSH1 0x40 MSTORE DUP1 SWAP3 SWAP2 SWAP1 DUP2 DUP2 MSTORE PUSH1 0x20 ADD DUP3 DUP1 SLOAD PUSH2 0xEA9 SWAP1 PUSH2 0x15D2 JUMP JUMPDEST DUP1 ISZERO PUSH2 0xEF6 JUMPI DUP1 PUSH1 0x1F LT PUSH2 0xECB JUMPI PUSH2 0x100 DUP1 DUP4 SLOAD DIV MUL DUP4 MSTORE SWAP2 PUSH1 0x20 ADD SWAP2 PUSH2 0xEF6 JUMP JUMPDEST DUP3 ADD SWAP2 SWAP1 PUSH1 0x0 MSTORE PUSH1 0x20 PUSH1 0x0 KECCAK256 SWAP1 JUMPDEST DUP2 SLOAD DUP2 MSTORE SWAP1 PUSH1 0x1 ADD SWAP1 PUSH1 0x20 ADD DUP1 DUP4 GT PUSH2 0xED9 JUMPI DUP3 SWAP1 SUB PUSH1 0x1F AND DUP3 ADD SWAP2 JUMPDEST POP POP POP POP POP SWAP1 POP SWAP1 JUMP JUMPDEST PUSH1 0x60 DUP2 PUSH2 0xF24 JUMPI POP POP PUSH1 0x40 DUP1 MLOAD DUP1 DUP3 ADD SWAP1 SWAP2 MSTORE PUSH1 0x1 DUP2 MSTORE PUSH1 0x3 PUSH1 0xFC SHL PUSH1 0x20 DUP3 ADD MSTORE SWAP1 JUMP JUMPDEST DUP2 PUSH1 0x0 JUMPDEST DUP2 ISZERO PUSH2 0xF4E JUMPI DUP1 PUSH2 0xF38 DUP2 PUSH2 0x160D JUMP JUMPDEST SWAP2 POP PUSH2 0xF47 SWAP1 POP PUSH1 0xA DUP4 PUSH2 0x155C JUMP JUMPDEST SWAP2 POP PUSH2 0xF28 JUMP JUMPDEST PUSH1 0x0 DUP2 PUSH8 0xFFFFFFFFFFFFFFFF DUP2 GT ISZERO PUSH2 0xF69 JUMPI PUSH2 0xF69 PUSH2 0x16A6 JUMP JUMPDEST PUSH1 0x40 MLOAD SWAP1 DUP1 DUP3 MSTORE DUP1 PUSH1 0x1F ADD PUSH1 0x1F NOT AND PUSH1 0x20 ADD DUP3 ADD PUSH1 0x40 MSTORE DUP1 ISZERO PUSH2 0xF93 JUMPI PUSH1 0x20 DUP3 ADD DUP2 DUP1 CALLDATASIZE DUP4 CALLDATACOPY ADD SWAP1 POP JUMPDEST POP SWAP1 POP JUMPDEST DUP5 ISZERO PUSH2 0xFFE JUMPI PUSH2 0xFA8 PUSH1 0x1 DUP4 PUSH2 0x158F JUMP JUMPDEST SWAP2 POP PUSH2 0xFB5 PUSH1 0xA DUP7 PUSH2 0x1650 JUMP JUMPDEST PUSH2 0xFC0 SWAP1 PUSH1 0x30 PUSH2 0x1544 JUMP JUMPDEST PUSH1 0xF8 SHL DUP2 DUP4 DUP2 MLOAD DUP2 LT PUSH2 0xFD5 JUMPI PUSH2 0xFD5 PUSH2 0x1690 JUMP JUMPDEST PUSH1 0x20 ADD ADD SWAP1 PUSH1 0x1 PUSH1 0x1 PUSH1 0xF8 SHL SUB NOT AND SWAP1 DUP2 PUSH1 0x0 BYTE SWAP1 MSTORE8 POP PUSH2 0xFF7 PUSH1 0xA DUP7 PUSH2 0x155C JUMP JUMPDEST SWAP5 POP PUSH2 0xF97 JUMP JUMPDEST SWAP5 SWAP4 POP POP POP POP JUMP JUMPDEST PUSH1 0x0 DUP1 SLOAD PUSH1 0x1 PUSH1 0x1 PUSH1 0xA0 SHL SUB DUP4 DUP2 AND PUSH1 0x1 PUSH1 0x1 PUSH1 0xA0 SHL SUB NOT DUP4 AND DUP2 OR DUP5 SSTORE PUSH1 0x40 MLOAD SWAP2 SWAP1 SWAP3 AND SWAP3 DUP4 SWAP2 PUSH32 0xD18B5FD22306E373229B9439188228EDCA81207D1667F604DAF6CEF8AA3EE67 SWAP2 SWAP1 LOG3 POP POP JUMP JUMPDEST PUSH1 0x1 PUSH1 0x1 PUSH1 0xA0 SHL SUB DUP3 AND PUSH2 0x1099 JUMPI PUSH1 0x40 MLOAD PUSH3 0x461BCD PUSH1 0xE5 SHL DUP2 MSTORE PUSH1 0x20 PUSH1 0x4 DUP3 ADD MSTORE PUSH1 0xA PUSH1 0x24 DUP3 ADD MSTORE PUSH10 0x494E56414C49445F544F PUSH1 0xB0 SHL PUSH1 0x44 DUP3 ADD MSTORE PUSH1 0x64 ADD PUSH2 0x475 JUMP JUMPDEST PUSH1 0x0 DUP2 DUP2 MSTORE PUSH1 0x4 PUSH1 0x20 MSTORE PUSH1 0x40 SWAP1 KECCAK256 SLOAD PUSH1 0x1 PUSH1 0x1 PUSH1 0xA0 SHL SUB AND ISZERO PUSH2 0x10EF JUMPI PUSH1 0x40 MLOAD PUSH3 0x461BCD PUSH1 0xE5 SHL DUP2 MSTORE PUSH1 0x20 PUSH1 0x4 DUP3 ADD MSTORE PUSH1 0xE PUSH1 0x24 DUP3 ADD MSTORE PUSH14 0x1053149150511657D35253951151 PUSH1 0x92 SHL PUSH1 0x44 DUP3 ADD MSTORE PUSH1 0x64 ADD PUSH2 0x475 JUMP JUMPDEST PUSH1 0x1 PUSH1 0x1 PUSH1 0xA0 SHL SUB DUP3 AND PUSH1 0x0 DUP2 DUP2 MSTORE PUSH1 0x3 PUSH1 0x20 SWAP1 DUP2 MSTORE PUSH1 0x40 DUP1 DUP4 KECCAK256 DUP1 SLOAD PUSH1 0x1 ADD SWAP1 SSTORE DUP5 DUP4 MSTORE PUSH1 0x4 SWAP1 SWAP2 MSTORE DUP1 DUP3 KECCAK256 DUP1 SLOAD PUSH1 0x1 PUSH1 0x1 PUSH1 0xA0 SHL SUB NOT AND DUP5 OR SWAP1 SSTORE MLOAD DUP4 SWAP3 SWAP2 SWAP1 PUSH32 0xDDF252AD1BE2C89B69C2B068FC378DAA952BA7F163C4A11628F55A4DF523B3EF SWAP1 DUP3 SWAP1 LOG4 POP POP JUMP JUMPDEST DUP1 CALLDATALOAD PUSH1 0x1 PUSH1 0x1 PUSH1 0xA0 SHL SUB DUP2 AND DUP2 EQ PUSH2 0x1171 JUMPI PUSH1 0x0 DUP1 REVERT JUMPDEST SWAP2 SWAP1 POP JUMP JUMPDEST PUSH1 0x0 PUSH1 0x20 DUP3 DUP5 SUB SLT ISZERO PUSH2 0x1188 JUMPI PUSH1 0x0 DUP1 REVERT JUMPDEST PUSH2 0xC7D DUP3 PUSH2 0x115A JUMP JUMPDEST PUSH1 0x0 DUP1 PUSH1 0x40 DUP4 DUP6 SUB SLT ISZERO PUSH2 0x11A4 JUMPI PUSH1 0x0 DUP1 REVERT JUMPDEST PUSH2 0x11AD DUP4 PUSH2 0x115A JUMP JUMPDEST SWAP2 POP PUSH2 0x11BB PUSH1 0x20 DUP5 ADD PUSH2 0x115A JUMP JUMPDEST SWAP1 POP SWAP3 POP SWAP3 SWAP1 POP JUMP JUMPDEST PUSH1 0x0 DUP1 PUSH1 0x0 PUSH1 0x60 DUP5 DUP7 SUB SLT ISZERO PUSH2 0x11D9 JUMPI PUSH1 0x0 DUP1 REVERT JUMPDEST PUSH2 0x11E2 DUP5 PUSH2 0x115A JUMP JUMPDEST SWAP3 POP PUSH2 0x11F0 PUSH1 0x20 DUP6 ADD PUSH2 0x115A JUMP JUMPDEST SWAP2 POP PUSH1 0x40 DUP5 ADD CALLDATALOAD SWAP1 POP SWAP3 POP SWAP3 POP SWAP3 JUMP JUMPDEST PUSH1 0x0 DUP1 PUSH1 0x0 DUP1 PUSH1 0x80 DUP6 DUP8 SUB SLT ISZERO PUSH2 0x1216 JUMPI PUSH1 0x0 DUP1 REVERT JUMPDEST PUSH2 0x121F DUP6 PUSH2 0x115A JUMP JUMPDEST SWAP4 POP PUSH2 0x122D PUSH1 0x20 DUP7 ADD PUSH2 0x115A JUMP JUMPDEST SWAP3 POP PUSH1 0x40 DUP6 ADD CALLDATALOAD SWAP2 POP PUSH1 0x60 DUP6 ADD CALLDATALOAD PUSH8 0xFFFFFFFFFFFFFFFF DUP1 DUP3 GT ISZERO PUSH2 0x1251 JUMPI PUSH1 0x0 DUP1 REVERT JUMPDEST DUP2 DUP8 ADD SWAP2 POP DUP8 PUSH1 0x1F DUP4 ADD SLT PUSH2 0x1265 JUMPI PUSH1 0x0 DUP1 REVERT JUMPDEST DUP2 CALLDATALOAD DUP2 DUP2 GT ISZERO PUSH2 0x1277 JUMPI PUSH2 0x1277 PUSH2 0x16A6 JUMP JUMPDEST PUSH1 0x40 MLOAD PUSH1 0x1F DUP3 ADD PUSH1 0x1F NOT SWAP1 DUP2 AND PUSH1 0x3F ADD AND DUP2 ADD SWAP1 DUP4 DUP3 GT DUP2 DUP4 LT OR ISZERO PUSH2 0x129F JUMPI PUSH2 0x129F PUSH2 0x16A6 JUMP JUMPDEST DUP2 PUSH1 0x40 MSTORE DUP3 DUP2 MSTORE DUP11 PUSH1 0x20 DUP5 DUP8 ADD ADD GT ISZERO PUSH2 0x12B8 JUMPI PUSH1 0x0 DUP1 REVERT JUMPDEST DUP3 PUSH1 0x20 DUP7 ADD PUSH1 0x20 DUP4 ADD CALLDATACOPY PUSH1 0x0 PUSH1 0x20 DUP5 DUP4 ADD ADD MSTORE DUP1 SWAP6 POP POP POP POP POP POP SWAP3 SWAP6 SWAP2 SWAP5 POP SWAP3 POP JUMP JUMPDEST PUSH1 0x0 DUP1 PUSH1 0x40 DUP4 DUP6 SUB SLT ISZERO PUSH2 0x12EF JUMPI PUSH1 0x0 DUP1 REVERT JUMPDEST PUSH2 0x12F8 DUP4 PUSH2 0x115A JUMP JUMPDEST SWAP2 POP PUSH1 0x20 DUP4 ADD CALLDATALOAD DUP1 ISZERO ISZERO DUP2 EQ PUSH2 0x130D JUMPI PUSH1 0x0 DUP1 REVERT JUMPDEST DUP1 SWAP2 POP POP SWAP3 POP SWAP3 SWAP1 POP JUMP JUMPDEST PUSH1 0x0 DUP1 PUSH1 0x40 DUP4 DUP6 SUB SLT ISZERO PUSH2 0x132B JUMPI PUSH1 0x0 DUP1 REVERT JUMPDEST PUSH2 0x1334 DUP4 PUSH2 0x115A JUMP JUMPDEST SWAP5 PUSH1 0x20 SWAP4 SWAP1 SWAP4 ADD CALLDATALOAD SWAP4 POP POP POP JUMP JUMPDEST PUSH1 0x0 DUP1 PUSH1 0x40 DUP4 DUP6 SUB SLT ISZERO PUSH2 0x1355 JUMPI PUSH1 0x0 DUP1 REVERT JUMPDEST PUSH2 0x135E DUP4 PUSH2 0x115A JUMP JUMPDEST SWAP2 POP PUSH1 0x20 DUP4 ADD CALLDATALOAD PUSH8 0xFFFFFFFFFFFFFFFF DUP2 AND DUP2 EQ PUSH2 0x130D JUMPI PUSH1 0x0 DUP1 REVERT JUMPDEST PUSH1 0x0 DUP1 PUSH1 0x40 DUP4 DUP6 SUB SLT ISZERO PUSH2 0x138E JUMPI PUSH1 0x0 DUP1 REVERT JUMPDEST PUSH2 0x1397 DUP4 PUSH2 0x115A JUMP JUMPDEST SWAP2 POP PUSH1 0x20 DUP4 ADD CALLDATALOAD PUSH1 0x1 PUSH1 0x1 PUSH1 0x60 SHL SUB DUP2 AND DUP2 EQ PUSH2 0x130D JUMPI PUSH1 0x0 DUP1 REVERT JUMPDEST PUSH1 0x0 PUSH1 0x20 DUP3 DUP5 SUB SLT ISZERO PUSH2 0x13C5 JUMPI PUSH1 0x0 DUP1 REVERT JUMPDEST DUP2 CALLDATALOAD PUSH2 0xC7D DUP2 PUSH2 0x16BC JUMP JUMPDEST PUSH1 0x0 PUSH1 0x20 DUP3 DUP5 SUB SLT ISZERO PUSH2 0x13E2 JUMPI PUSH1 0x0 DUP1 REVERT JUMPDEST DUP2 MLOAD PUSH2 0xC7D DUP2 PUSH2 0x16BC JUMP JUMPDEST PUSH1 0x0 PUSH1 0x20 DUP3 DUP5 SUB SLT ISZERO PUSH2 0x13FF JUMPI PUSH1 0x0 DUP1 REVERT JUMPDEST POP CALLDATALOAD SWAP2 SWAP1 POP JUMP JUMPDEST PUSH1 0x0 DUP1 PUSH1 0x40 DUP4 DUP6 SUB SLT ISZERO PUSH2 0x1419 JUMPI PUSH1 0x0 DUP1 REVERT JUMPDEST POP POP DUP1 CALLDATALOAD SWAP3 PUSH1 0x20 SWAP1 SWAP2 ADD CALLDATALOAD SWAP2 POP JUMP JUMPDEST PUSH1 0x0 DUP2 MLOAD DUP1 DUP5 MSTORE PUSH2 0x1440 DUP2 PUSH1 0x20 DUP7 ADD PUSH1 0x20 DUP7 ADD PUSH2 0x15A6 JUMP JUMPDEST PUSH1 0x1F ADD PUSH1 0x1F NOT AND SWAP3 SWAP1 SWAP3 ADD PUSH1 0x20 ADD SWAP3 SWAP2 POP POP JUMP JUMPDEST PUSH1 0x0 DUP4 MLOAD PUSH2 0x1466 DUP2 DUP5 PUSH1 0x20 DUP9 ADD PUSH2 0x15A6 JUMP JUMPDEST DUP4 MLOAD SWAP1 DUP4 ADD SWAP1 PUSH2 0x147A DUP2 DUP4 PUSH1 0x20 DUP9 ADD PUSH2 0x15A6 JUMP JUMPDEST PUSH5 0x173539B7B7 PUSH1 0xD9 SHL SWAP2 ADD SWAP1 DUP2 MSTORE PUSH1 0x5 ADD SWAP5 SWAP4 POP POP POP POP JUMP JUMPDEST PUSH1 0x1 PUSH1 0x1 PUSH1 0xA0 SHL SUB DUP6 DUP2 AND DUP3 MSTORE DUP5 AND PUSH1 0x20 DUP3 ADD MSTORE PUSH1 0x40 DUP2 ADD DUP4 SWAP1 MSTORE PUSH1 0x80 PUSH1 0x60 DUP3 ADD DUP2 SWAP1 MSTORE PUSH1 0x0 SWAP1 PUSH2 0x14C6 SWAP1 DUP4 ADD DUP5 PUSH2 0x1428 JUMP JUMPDEST SWAP7 SWAP6 POP POP POP POP POP POP JUMP JUMPDEST PUSH1 0x20 DUP2 MSTORE PUSH1 0x0 PUSH2 0xC7D PUSH1 0x20 DUP4 ADD DUP5 PUSH2 0x1428 JUMP JUMPDEST PUSH1 0x20 DUP1 DUP3 MSTORE PUSH1 0x17 SWAP1 DUP3 ADD MSTORE PUSH32 0x43616C6C6572206973206E6F7420746865206F776E6572000000000000000000 PUSH1 0x40 DUP3 ADD MSTORE PUSH1 0x60 ADD SWAP1 JUMP JUMPDEST PUSH1 0x20 DUP1 DUP3 MSTORE PUSH1 0x10 SWAP1 DUP3 ADD MSTORE PUSH16 0x155394D0519157D49150D25412515395 PUSH1 0x82 SHL PUSH1 0x40 DUP3 ADD MSTORE PUSH1 0x60 ADD SWAP1 JUMP JUMPDEST PUSH1 0x0 DUP3 NOT DUP3 GT ISZERO PUSH2 0x1557 JUMPI PUSH2 0x1557 PUSH2 0x1664 JUMP JUMPDEST POP ADD SWAP1 JUMP JUMPDEST PUSH1 0x0 DUP3 PUSH2 0x156B JUMPI PUSH2 0x156B PUSH2 0x167A JUMP JUMPDEST POP DIV SWAP1 JUMP JUMPDEST PUSH1 0x0 DUP2 PUSH1 0x0 NOT DIV DUP4 GT DUP3 ISZERO ISZERO AND ISZERO PUSH2 0x158A JUMPI PUSH2 0x158A PUSH2 0x1664 JUMP JUMPDEST POP MUL SWAP1 JUMP JUMPDEST PUSH1 0x0 DUP3 DUP3 LT ISZERO PUSH2 0x15A1 JUMPI PUSH2 0x15A1 PUSH2 0x1664 JUMP JUMPDEST POP SUB SWAP1 JUMP JUMPDEST PUSH1 0x0 JUMPDEST DUP4 DUP2 LT ISZERO PUSH2 0x15C1 JUMPI DUP2 DUP2 ADD MLOAD DUP4 DUP3 ADD MSTORE PUSH1 0x20 ADD PUSH2 0x15A9 JUMP JUMPDEST DUP4 DUP2 GT ISZERO PUSH2 0xB66 JUMPI POP POP PUSH1 0x0 SWAP2 ADD MSTORE JUMP JUMPDEST PUSH1 0x1 DUP2 DUP2 SHR SWAP1 DUP3 AND DUP1 PUSH2 0x15E6 JUMPI PUSH1 0x7F DUP3 AND SWAP2 POP JUMPDEST PUSH1 0x20 DUP3 LT DUP2 EQ ISZERO PUSH2 0x1607 JUMPI PUSH4 0x4E487B71 PUSH1 0xE0 SHL PUSH1 0x0 MSTORE PUSH1 0x22 PUSH1 0x4 MSTORE PUSH1 0x24 PUSH1 0x0 REVERT JUMPDEST POP SWAP2 SWAP1 POP JUMP JUMPDEST PUSH1 0x0 PUSH1 0x0 NOT DUP3 EQ ISZERO PUSH2 0x1621 JUMPI PUSH2 0x1621 PUSH2 0x1664 JUMP JUMPDEST POP PUSH1 0x1 ADD SWAP1 JUMP JUMPDEST PUSH1 0x0 PUSH8 0xFFFFFFFFFFFFFFFF DUP1 DUP4 AND DUP2 DUP2 EQ ISZERO PUSH2 0x1646 JUMPI PUSH2 0x1646 PUSH2 0x1664 JUMP JUMPDEST PUSH1 0x1 ADD SWAP4 SWAP3 POP POP POP JUMP JUMPDEST PUSH1 0x0 DUP3 PUSH2 0x165F JUMPI PUSH2 0x165F PUSH2 0x167A JUMP JUMPDEST POP MOD SWAP1 JUMP JUMPDEST PUSH4 0x4E487B71 PUSH1 0xE0 SHL PUSH1 0x0 MSTORE PUSH1 0x11 PUSH1 0x4 MSTORE PUSH1 0x24 PUSH1 0x0 REVERT JUMPDEST PUSH4 0x4E487B71 PUSH1 0xE0 SHL PUSH1 0x0 MSTORE PUSH1 0x12 PUSH1 0x4 MSTORE PUSH1 0x24 PUSH1 0x0 REVERT JUMPDEST PUSH4 0x4E487B71 PUSH1 0xE0 SHL PUSH1 0x0 MSTORE PUSH1 0x32 PUSH1 0x4 MSTORE PUSH1 0x24 PUSH1 0x0 REVERT JUMPDEST PUSH4 0x4E487B71 PUSH1 0xE0 SHL PUSH1 0x0 MSTORE PUSH1 0x41 PUSH1 0x4 MSTORE PUSH1 0x24 PUSH1 0x0 REVERT JUMPDEST PUSH1 0x1 PUSH1 0x1 PUSH1 0xE0 SHL SUB NOT DUP2 AND DUP2 EQ PUSH2 0xD0D JUMPI PUSH1 0x0 DUP1 REVERT INVALID LOG2 PUSH5 0x6970667358 0x22 SLT KECCAK256 SWAP15 CODECOPY SWAP4 COINBASE DUP16 0xDC PUSH26 0x681C1C0087F1837F9AF9296F79C6231F107BAD37C01AF16C8564 PUSH20 0x6F6C634300080700330000000000000000000000 "
				},
				"gasEstimates": {
					"creation": {
						"codeDepositCost": "1179200",
						"executionCost": "infinite",
						"totalCost": "infinite"
					},
					"external": {
						"allowMint(address,bool)": "26878",
						"approve(address,uint256)": "31176",
						"balanceOf(address)": "2630",
						"baseURI()": "infinite",
						"calculateRoyalty(uint256)": "2656",
						"getApproved(uint256)": "2567",
						"isApprovedForAll(address,address)": "infinite",
						"mintMany(address,uint64)": "infinite",
						"mintOne(address)": "infinite",
						"name()": "infinite",
						"owner()": "2354",
						"ownerOf(uint256)": "2544",
						"royaltyAddress()": "2487",
						"royaltyFeesInBips()": "2470",
						"royaltyInfo(uint256,uint256)": "4858",
						"safeTransferFrom(address,address,uint256)": "infinite",
						"safeTransferFrom(address,address,uint256,bytes)": "infinite",
						"setApprovalForAll(address,bool)": "26652",
						"setRoyaltyInfo(address,uint96)": "24775",
						"supportsInterface(bytes4)": "589",
						"symbol()": "infinite",
						"tokenURI(uint256)": "infinite",
						"transferFrom(address,address,uint256)": "infinite",
						"transferOwnership(address)": "28419"
					},
					"internal": {
						"_baseURI()": "infinite"
					}
				},
				"methodIdentifiers": {
					"allowMint(address,bool)": "c4e18836",
					"approve(address,uint256)": "095ea7b3",
					"balanceOf(address)": "70a08231",
					"baseURI()": "6c0360eb",
					"calculateRoyalty(uint256)": "a2e69613",
					"getApproved(uint256)": "081812fc",
					"isApprovedForAll(address,address)": "e985e9c5",
					"mintMany(address,uint64)": "a709dc17",
					"mintOne(address)": "fa695a97",
					"name()": "06fdde03",
					"owner()": "8da5cb5b",
					"ownerOf(uint256)": "6352211e",
					"royaltyAddress()": "ad2f852a",
					"royaltyFeesInBips()": "73c7400e",
					"royaltyInfo(uint256,uint256)": "2a55205a",
					"safeTransferFrom(address,address,uint256)": "42842e0e",
					"safeTransferFrom(address,address,uint256,bytes)": "b88d4fde",
					"setApprovalForAll(address,bool)": "a22cb465",
					"setRoyaltyInfo(address,uint96)": "02fa7c47",
					"supportsInterface(bytes4)": "01ffc9a7",
					"symbol()": "95d89b41",
					"tokenURI(uint256)": "c87b56dd",
					"transferFrom(address,address,uint256)": "23b872dd",
					"transferOwnership(address)": "f2fde38b"
				}
			},
			"userdoc": {
				"kind": "user",
				"methods": {},
				"version": 1
			}
		}
	}
}