{
	"NftMarket.sol": {
		"MarketPlace": {
			"abi": [
				{
					"inputs": [
						{
							"internalType": "uint256",
							"name": "id",
							"type": "uint256"
						},
						{
							"internalType": "address",
							"name": "_nft",
							"type": "address"
						}
					],
					"name": "A",
					"outputs": [
						{
							"internalType": "address",
							"name": "",
							"type": "address"
						}
					],
					"stateMutability": "view",
					"type": "function"
				}
			],
			"devdoc": {
				"kind": "dev",
				"methods": {},
				"version": 1
			},
			"evm": {
				"assembly": "    /* \"NftMarket.sol\":405:618  contract MarketPlace {\r... */\n  mstore(0x40, 0x80)\n  callvalue\n  dup1\n  iszero\n  tag_1\n  jumpi\n  0x00\n  dup1\n  revert\ntag_1:\n  pop\n  dataSize(sub_0)\n  dup1\n  dataOffset(sub_0)\n  0x00\n  codecopy\n  0x00\n  return\nstop\n\nsub_0: assembly {\n        /* \"NftMarket.sol\":405:618  contract MarketPlace {\r... */\n      mstore(0x40, 0x80)\n      callvalue\n      dup1\n      iszero\n      tag_1\n      jumpi\n      0x00\n      dup1\n      revert\n    tag_1:\n      pop\n      jumpi(tag_2, lt(calldatasize, 0x04))\n      shr(0xe0, calldataload(0x00))\n      dup1\n      0x9d49e536\n      eq\n      tag_3\n      jumpi\n    tag_2:\n      0x00\n      dup1\n      revert\n        /* \"NftMarket.sol\":433:615  function A(uint256 id, address _nft) external view returns (address) {\r... */\n    tag_3:\n      tag_4\n      tag_5\n      calldatasize\n      0x04\n      tag_6\n      jump\t// in\n    tag_5:\n      tag_7\n      jump\t// in\n    tag_4:\n      mload(0x40)\n      sub(shl(0xa0, 0x01), 0x01)\n        /* \"#utility.yul\":754:786   */\n      swap1\n      swap2\n      and\n        /* \"#utility.yul\":736:787   */\n      dup2\n      mstore\n        /* \"#utility.yul\":724:726   */\n      0x20\n        /* \"#utility.yul\":709:727   */\n      add\n        /* \"NftMarket.sol\":433:615  function A(uint256 id, address _nft) external view returns (address) {\r... */\n      mload(0x40)\n      dup1\n      swap2\n      sub\n      swap1\n      return\n    tag_7:\n        /* \"NftMarket.sol\":569:584  nft.ownerOf(id) */\n      mload(0x40)\n      shl(0xe1, 0x31a9108f)\n      dup2\n      mstore\n      0x04\n      dup2\n      add\n        /* \"#utility.yul\":944:969   */\n      dup4\n      swap1\n      mstore\n        /* \"NftMarket.sol\":493:500  address */\n      0x00\n      swap1\n        /* \"NftMarket.sol\":535:539  _nft */\n      dup3\n      swap1\n        /* \"NftMarket.sol\":493:500  address */\n      dup3\n      swap1\n      sub(shl(0xa0, 0x01), 0x01)\n        /* \"NftMarket.sol\":569:580  nft.ownerOf */\n      dup4\n      and\n      swap1\n      0x6352211e\n      swap1\n        /* \"#utility.yul\":917:935   */\n      0x24\n      add\n        /* \"NftMarket.sol\":569:584  nft.ownerOf(id) */\n      0x20\n      mload(0x40)\n      dup1\n      dup4\n      sub\n      dup2\n      dup7\n      dup1\n      extcodesize\n      iszero\n      dup1\n      iszero\n      tag_13\n      jumpi\n      0x00\n      dup1\n      revert\n    tag_13:\n      pop\n      gas\n      staticcall\n      iszero\n      dup1\n      iszero\n      tag_15\n      jumpi\n      returndatasize\n      0x00\n      dup1\n      returndatacopy\n      revert(0x00, returndatasize)\n    tag_15:\n      pop\n      pop\n      pop\n      pop\n      mload(0x40)\n      returndatasize\n      not(0x1f)\n      0x1f\n      dup3\n      add\n      and\n      dup3\n      add\n      dup1\n      0x40\n      mstore\n      pop\n      dup2\n      add\n      swap1\n      tag_16\n      swap2\n      swap1\n      tag_17\n      jump\t// in\n    tag_16:\n        /* \"NftMarket.sol\":553:584  address owner = nft.ownerOf(id) */\n      swap6\n        /* \"NftMarket.sol\":433:615  function A(uint256 id, address _nft) external view returns (address) {\r... */\n      swap5\n      pop\n      pop\n      pop\n      pop\n      pop\n      jump\t// out\n        /* \"#utility.yul\":14:265   */\n    tag_17:\n        /* \"#utility.yul\":84:90   */\n      0x00\n        /* \"#utility.yul\":137:139   */\n      0x20\n        /* \"#utility.yul\":125:134   */\n      dup3\n        /* \"#utility.yul\":116:123   */\n      dup5\n        /* \"#utility.yul\":112:135   */\n      sub\n        /* \"#utility.yul\":108:140   */\n      slt\n        /* \"#utility.yul\":105:157   */\n      iszero\n      tag_20\n      jumpi\n        /* \"#utility.yul\":153:154   */\n      0x00\n        /* \"#utility.yul\":150:151   */\n      dup1\n        /* \"#utility.yul\":143:155   */\n      revert\n        /* \"#utility.yul\":105:157   */\n    tag_20:\n        /* \"#utility.yul\":185:194   */\n      dup2\n        /* \"#utility.yul\":179:195   */\n      mload\n        /* \"#utility.yul\":204:235   */\n      tag_21\n        /* \"#utility.yul\":229:234   */\n      dup2\n        /* \"#utility.yul\":204:235   */\n      tag_22\n      jump\t// in\n    tag_21:\n        /* \"#utility.yul\":254:259   */\n      swap4\n        /* \"#utility.yul\":14:265   */\n      swap3\n      pop\n      pop\n      pop\n      jump\t// out\n        /* \"#utility.yul\":270:585   */\n    tag_6:\n        /* \"#utility.yul\":338:344   */\n      0x00\n        /* \"#utility.yul\":346:352   */\n      dup1\n        /* \"#utility.yul\":399:401   */\n      0x40\n        /* \"#utility.yul\":387:396   */\n      dup4\n        /* \"#utility.yul\":378:385   */\n      dup6\n        /* \"#utility.yul\":374:397   */\n      sub\n        /* \"#utility.yul\":370:402   */\n      slt\n        /* \"#utility.yul\":367:419   */\n      iszero\n      tag_24\n      jumpi\n        /* \"#utility.yul\":415:416   */\n      0x00\n        /* \"#utility.yul\":412:413   */\n      dup1\n        /* \"#utility.yul\":405:417   */\n      revert\n        /* \"#utility.yul\":367:419   */\n    tag_24:\n        /* \"#utility.yul\":451:460   */\n      dup3\n        /* \"#utility.yul\":438:461   */\n      calldataload\n        /* \"#utility.yul\":428:461   */\n      swap2\n      pop\n        /* \"#utility.yul\":511:513   */\n      0x20\n        /* \"#utility.yul\":500:509   */\n      dup4\n        /* \"#utility.yul\":496:514   */\n      add\n        /* \"#utility.yul\":483:515   */\n      calldataload\n        /* \"#utility.yul\":524:555   */\n      tag_25\n        /* \"#utility.yul\":549:554   */\n      dup2\n        /* \"#utility.yul\":524:555   */\n      tag_22\n      jump\t// in\n    tag_25:\n        /* \"#utility.yul\":574:579   */\n      dup1\n        /* \"#utility.yul\":564:579   */\n      swap2\n      pop\n      pop\n        /* \"#utility.yul\":270:585   */\n      swap3\n      pop\n      swap3\n      swap1\n      pop\n      jump\t// out\n        /* \"#utility.yul\":980:1111   */\n    tag_22:\n      sub(shl(0xa0, 0x01), 0x01)\n        /* \"#utility.yul\":1055:1086   */\n      dup2\n      and\n        /* \"#utility.yul\":1045:1087   */\n      dup2\n      eq\n        /* \"#utility.yul\":1035:1105   */\n      tag_29\n      jumpi\n        /* \"#utility.yul\":1101:1102   */\n      0x00\n        /* \"#utility.yul\":1098:1099   */\n      dup1\n        /* \"#utility.yul\":1091:1103   */\n      revert\n        /* \"#utility.yul\":1035:1105   */\n    tag_29:\n        /* \"#utility.yul\":980:1111   */\n      pop\n      jump\t// out\n\n    auxdata: 0xa2646970667358221220add39c373616d9f256248b2c84955c1d012a2f56906d1e28993390f62f36fc2764736f6c63430008070033\n}\n",
				"bytecode": {
					"linkReferences": {},
					"object": "608060405234801561001057600080fd5b50610189806100206000396000f3fe608060405234801561001057600080fd5b506004361061002b5760003560e01c80639d49e53614610030575b600080fd5b61004361003e36600461010b565b61005f565b6040516001600160a01b03909116815260200160405180910390f35b6040516331a9108f60e11b815260048101839052600090829082906001600160a01b03831690636352211e9060240160206040518083038186803b1580156100a657600080fd5b505afa1580156100ba573d6000803e3d6000fd5b505050506040513d601f19601f820116820180604052508101906100de91906100e7565b95945050505050565b6000602082840312156100f957600080fd5b81516101048161013b565b9392505050565b6000806040838503121561011e57600080fd5b8235915060208301356101308161013b565b809150509250929050565b6001600160a01b038116811461015057600080fd5b5056fea2646970667358221220add39c373616d9f256248b2c84955c1d012a2f56906d1e28993390f62f36fc2764736f6c63430008070033",
					"opcodes": "PUSH1 0x80 PUSH1 0x40 MSTORE CALLVALUE DUP1 ISZERO PUSH2 0x10 JUMPI PUSH1 0x0 DUP1 REVERT JUMPDEST POP PUSH2 0x189 DUP1 PUSH2 0x20 PUSH1 0x0 CODECOPY PUSH1 0x0 RETURN INVALID PUSH1 0x80 PUSH1 0x40 MSTORE CALLVALUE DUP1 ISZERO PUSH2 0x10 JUMPI PUSH1 0x0 DUP1 REVERT JUMPDEST POP PUSH1 0x4 CALLDATASIZE LT PUSH2 0x2B JUMPI PUSH1 0x0 CALLDATALOAD PUSH1 0xE0 SHR DUP1 PUSH4 0x9D49E536 EQ PUSH2 0x30 JUMPI JUMPDEST PUSH1 0x0 DUP1 REVERT JUMPDEST PUSH2 0x43 PUSH2 0x3E CALLDATASIZE PUSH1 0x4 PUSH2 0x10B JUMP JUMPDEST PUSH2 0x5F JUMP JUMPDEST PUSH1 0x40 MLOAD PUSH1 0x1 PUSH1 0x1 PUSH1 0xA0 SHL SUB SWAP1 SWAP2 AND DUP2 MSTORE PUSH1 0x20 ADD PUSH1 0x40 MLOAD DUP1 SWAP2 SUB SWAP1 RETURN JUMPDEST PUSH1 0x40 MLOAD PUSH4 0x31A9108F PUSH1 0xE1 SHL DUP2 MSTORE PUSH1 0x4 DUP2 ADD DUP4 SWAP1 MSTORE PUSH1 0x0 SWAP1 DUP3 SWAP1 DUP3 SWAP1 PUSH1 0x1 PUSH1 0x1 PUSH1 0xA0 SHL SUB DUP4 AND SWAP1 PUSH4 0x6352211E SWAP1 PUSH1 0x24 ADD PUSH1 0x20 PUSH1 0x40 MLOAD DUP1 DUP4 SUB DUP2 DUP7 DUP1 EXTCODESIZE ISZERO DUP1 ISZERO PUSH2 0xA6 JUMPI PUSH1 0x0 DUP1 REVERT JUMPDEST POP GAS STATICCALL ISZERO DUP1 ISZERO PUSH2 0xBA JUMPI RETURNDATASIZE PUSH1 0x0 DUP1 RETURNDATACOPY RETURNDATASIZE PUSH1 0x0 REVERT JUMPDEST POP POP POP POP PUSH1 0x40 MLOAD RETURNDATASIZE PUSH1 0x1F NOT PUSH1 0x1F DUP3 ADD AND DUP3 ADD DUP1 PUSH1 0x40 MSTORE POP DUP2 ADD SWAP1 PUSH2 0xDE SWAP2 SWAP1 PUSH2 0xE7 JUMP JUMPDEST SWAP6 SWAP5 POP POP POP POP POP JUMP JUMPDEST PUSH1 0x0 PUSH1 0x20 DUP3 DUP5 SUB SLT ISZERO PUSH2 0xF9 JUMPI PUSH1 0x0 DUP1 REVERT JUMPDEST DUP2 MLOAD PUSH2 0x104 DUP2 PUSH2 0x13B JUMP JUMPDEST SWAP4 SWAP3 POP POP POP JUMP JUMPDEST PUSH1 0x0 DUP1 PUSH1 0x40 DUP4 DUP6 SUB SLT ISZERO PUSH2 0x11E JUMPI PUSH1 0x0 DUP1 REVERT JUMPDEST DUP3 CALLDATALOAD SWAP2 POP PUSH1 0x20 DUP4 ADD CALLDATALOAD PUSH2 0x130 DUP2 PUSH2 0x13B JUMP JUMPDEST DUP1 SWAP2 POP POP SWAP3 POP SWAP3 SWAP1 POP JUMP JUMPDEST PUSH1 0x1 PUSH1 0x1 PUSH1 0xA0 SHL SUB DUP2 AND DUP2 EQ PUSH2 0x150 JUMPI PUSH1 0x0 DUP1 REVERT JUMPDEST POP JUMP INVALID LOG2 PUSH5 0x6970667358 0x22 SLT KECCAK256 0xAD 0xD3 SWAP13 CALLDATACOPY CALLDATASIZE AND 0xD9 CALLCODE JUMP 0x24 DUP12 0x2C DUP5 SWAP6 0x5C SAR ADD 0x2A 0x2F JUMP SWAP1 PUSH14 0x1E28993390F62F36FC2764736F6C PUSH4 0x43000807 STOP CALLER "
				},
				"gasEstimates": {
					"creation": {
						"codeDepositCost": "78600",
						"executionCost": "129",
						"totalCost": "78729"
					},
					"external": {
						"A(uint256,address)": "infinite"
					}
				},
				"methodIdentifiers": {
					"A(uint256,address)": "9d49e536"
				}
			},
			"userdoc": {
				"kind": "user",
				"methods": {},
				"version": 1
			}
		}
	}
}