{
	"ERC721.sol": {
		"ERC721": {
			"abi": [
				{
					"inputs": [
						{
							"internalType": "string",
							"name": "_name",
							"type": "string"
						},
						{
							"internalType": "string",
							"name": "_symbol",
							"type": "string"
						}
					],
					"stateMutability": "nonpayable",
					"type": "constructor"
				},
				{
					"anonymous": false,
					"inputs": [
						{
							"indexed": true,
							"internalType": "address",
							"name": "owner",
							"type": "address"
						},
						{
							"indexed": true,
							"internalType": "address",
							"name": "spender",
							"type": "address"
						},
						{
							"indexed": true,
							"internalType": "uint256",
							"name": "id",
							"type": "uint256"
						}
					],
					"name": "Approval",
					"type": "event"
				},
				{
					"anonymous": false,
					"inputs": [
						{
							"indexed": true,
							"internalType": "address",
							"name": "owner",
							"type": "address"
						},
						{
							"indexed": true,
							"internalType": "address",
							"name": "operator",
							"type": "address"
						},
						{
							"indexed": false,
							"internalType": "bool",
							"name": "approved",
							"type": "bool"
						}
					],
					"name": "ApprovalForAll",
					"type": "event"
				},
				{
					"anonymous": false,
					"inputs": [
						{
							"indexed": true,
							"internalType": "address",
							"name": "from",
							"type": "address"
						},
						{
							"indexed": true,
							"internalType": "address",
							"name": "to",
							"type": "address"
						},
						{
							"indexed": true,
							"internalType": "uint256",
							"name": "id",
							"type": "uint256"
						}
					],
					"name": "Transfer",
					"type": "event"
				},
				{
					"inputs": [
						{
							"internalType": "address",
							"name": "spender",
							"type": "address"
						},
						{
							"internalType": "uint256",
							"name": "id",
							"type": "uint256"
						}
					],
					"name": "approve",
					"outputs": [],
					"stateMutability": "nonpayable",
					"type": "function"
				},
				{
					"inputs": [
						{
							"internalType": "address",
							"name": "_acc",
							"type": "address"
						}
					],
					"name": "balanceOf",
					"outputs": [
						{
							"internalType": "uint256",
							"name": "",
							"type": "uint256"
						}
					],
					"stateMutability": "view",
					"type": "function"
				},
				{
					"inputs": [
						{
							"internalType": "uint256",
							"name": "",
							"type": "uint256"
						}
					],
					"name": "getApproved",
					"outputs": [
						{
							"internalType": "address",
							"name": "",
							"type": "address"
						}
					],
					"stateMutability": "view",
					"type": "function"
				},
				{
					"inputs": [
						{
							"internalType": "address",
							"name": "",
							"type": "address"
						},
						{
							"internalType": "address",
							"name": "",
							"type": "address"
						}
					],
					"name": "isApprovedForAll",
					"outputs": [
						{
							"internalType": "bool",
							"name": "",
							"type": "bool"
						}
					],
					"stateMutability": "view",
					"type": "function"
				},
				{
					"inputs": [],
					"name": "name",
					"outputs": [
						{
							"internalType": "string",
							"name": "",
							"type": "string"
						}
					],
					"stateMutability": "view",
					"type": "function"
				},
				{
					"inputs": [
						{
							"internalType": "uint256",
							"name": "",
							"type": "uint256"
						}
					],
					"name": "ownerOf",
					"outputs": [
						{
							"internalType": "address",
							"name": "",
							"type": "address"
						}
					],
					"stateMutability": "view",
					"type": "function"
				},
				{
					"inputs": [
						{
							"internalType": "address",
							"name": "from",
							"type": "address"
						},
						{
							"internalType": "address",
							"name": "to",
							"type": "address"
						},
						{
							"internalType": "uint256",
							"name": "id",
							"type": "uint256"
						}
					],
					"name": "safeTransferFrom",
					"outputs": [],
					"stateMutability": "nonpayable",
					"type": "function"
				},
				{
					"inputs": [
						{
							"internalType": "address",
							"name": "from",
							"type": "address"
						},
						{
							"internalType": "address",
							"name": "to",
							"type": "address"
						},
						{
							"internalType": "uint256",
							"name": "id",
							"type": "uint256"
						},
						{
							"internalType": "bytes",
							"name": "data",
							"type": "bytes"
						}
					],
					"name": "safeTransferFrom",
					"outputs": [],
					"stateMutability": "nonpayable",
					"type": "function"
				},
				{
					"inputs": [
						{
							"internalType": "address",
							"name": "operator",
							"type": "address"
						},
						{
							"internalType": "bool",
							"name": "approved",
							"type": "bool"
						}
					],
					"name": "setApprovalForAll",
					"outputs": [],
					"stateMutability": "nonpayable",
					"type": "function"
				},
				{
					"inputs": [
						{
							"internalType": "bytes4",
							"name": "interfaceId",
							"type": "bytes4"
						}
					],
					"name": "supportsInterface",
					"outputs": [
						{
							"internalType": "bool",
							"name": "",
							"type": "bool"
						}
					],
					"stateMutability": "view",
					"type": "function"
				},
				{
					"inputs": [],
					"name": "symbol",
					"outputs": [
						{
							"internalType": "string",
							"name": "",
							"type": "string"
						}
					],
					"stateMutability": "view",
					"type": "function"
				},
				{
					"inputs": [
						{
							"internalType": "uint256",
							"name": "",
							"type": "uint256"
						}
					],
					"name": "tokenType",
					"outputs": [
						{
							"internalType": "uint256",
							"name": "",
							"type": "uint256"
						}
					],
					"stateMutability": "view",
					"type": "function"
				},
				{
					"inputs": [
						{
							"internalType": "uint256",
							"name": "tokenId",
							"type": "uint256"
						}
					],
					"name": "tokenURI",
					"outputs": [
						{
							"internalType": "string",
							"name": "",
							"type": "string"
						}
					],
					"stateMutability": "view",
					"type": "function"
				},
				{
					"inputs": [
						{
							"internalType": "address",
							"name": "from",
							"type": "address"
						},
						{
							"internalType": "address",
							"name": "to",
							"type": "address"
						},
						{
							"internalType": "uint256",
							"name": "id",
							"type": "uint256"
						}
					],
					"name": "transferFrom",
					"outputs": [],
					"stateMutability": "nonpayable",
					"type": "function"
				}
			],
			"devdoc": {
				"kind": "dev",
				"methods": {},
				"version": 1
			},
			"evm": {
				"assembly": "    /* \"ERC721.sol\":453:6797  contract ERC721 is Context {\r... */\n  mstore(0x40, 0x80)\n    /* \"ERC721.sol\":1684:1798  constructor(string memory _name, string memory _symbol) {\r... */\n  callvalue\n  dup1\n  iszero\n  tag_1\n  jumpi\n  0x00\n  dup1\n  revert\ntag_1:\n  pop\n  mload(0x40)\n  sub(codesize, bytecodeSize)\n  dup1\n  bytecodeSize\n  dup4\n  codecopy\n  dup2\n  add\n  0x40\n  dup2\n  swap1\n  mstore\n  tag_2\n  swap2\n  tag_3\n  jump\t// in\ntag_2:\n    /* \"ERC721.sol\":1751:1763  name = _name */\n  dup2\n  mload\n  tag_6\n  swap1\n    /* \"ERC721.sol\":1751:1755  name */\n  0x00\n  swap1\n    /* \"ERC721.sol\":1751:1763  name = _name */\n  0x20\n  dup6\n  add\n  swap1\n  tag_7\n  jump\t// in\ntag_6:\n  pop\n    /* \"ERC721.sol\":1774:1790  symbol = _symbol */\n  dup1\n  mload\n  tag_8\n  swap1\n    /* \"ERC721.sol\":1774:1780  symbol */\n  0x01\n  swap1\n    /* \"ERC721.sol\":1774:1790  symbol = _symbol */\n  0x20\n  dup5\n  add\n  swap1\n  tag_7\n  jump\t// in\ntag_8:\n  pop\n    /* \"ERC721.sol\":1684:1798  constructor(string memory _name, string memory _symbol) {\r... */\n  pop\n  pop\n    /* \"ERC721.sol\":453:6797  contract ERC721 is Context {\r... */\n  jump(tag_21)\ntag_7:\n  dup3\n  dup1\n  sload\n  tag_10\n  swap1\n  tag_11\n  jump\t// in\ntag_10:\n  swap1\n  0x00\n  mstore\n  keccak256(0x00, 0x20)\n  swap1\n  0x1f\n  add\n  0x20\n  swap1\n  div\n  dup2\n  add\n  swap3\n  dup3\n  tag_13\n  jumpi\n  0x00\n  dup6\n  sstore\n  jump(tag_16)\ntag_13:\n  dup3\n  0x1f\n  lt\n  tag_14\n  jumpi\n  dup1\n  mload\n  not(0xff)\n  and\n  dup4\n  dup1\n  add\n  or\n  dup6\n  sstore\n  jump(tag_16)\ntag_14:\n  dup3\n  dup1\n  add\n  0x01\n  add\n  dup6\n  sstore\n  dup3\n  iszero\n  tag_16\n  jumpi\n  swap2\n  dup3\n  add\ntag_15:\n  dup3\n  dup2\n  gt\n  iszero\n  tag_16\n  jumpi\n  dup3\n  mload\n  dup3\n  sstore\n  swap2\n  0x20\n  add\n  swap2\n  swap1\n  0x01\n  add\n  swap1\n  jump(tag_15)\ntag_16:\n  pop\n  tag_17\n  swap3\n  swap2\n  pop\n  tag_18\n  jump\t// in\ntag_17:\n  pop\n  swap1\n  jump\t// out\ntag_18:\ntag_19:\n  dup1\n  dup3\n  gt\n  iszero\n  tag_17\n  jumpi\n  0x00\n  dup2\n  sstore\n  0x01\n  add\n  jump(tag_19)\n    /* \"#utility.yul\":14:899   */\ntag_22:\n    /* \"#utility.yul\":68:73   */\n  0x00\n    /* \"#utility.yul\":121:124   */\n  dup3\n    /* \"#utility.yul\":114:118   */\n  0x1f\n    /* \"#utility.yul\":106:112   */\n  dup4\n    /* \"#utility.yul\":102:119   */\n  add\n    /* \"#utility.yul\":98:125   */\n  slt\n    /* \"#utility.yul\":88:143   */\n  tag_24\n  jumpi\n    /* \"#utility.yul\":139:140   */\n  0x00\n    /* \"#utility.yul\":136:137   */\n  dup1\n    /* \"#utility.yul\":129:141   */\n  revert\n    /* \"#utility.yul\":88:143   */\ntag_24:\n    /* \"#utility.yul\":162:175   */\n  dup2\n  mload\n  sub(shl(0x40, 0x01), 0x01)\n    /* \"#utility.yul\":224:234   */\n  dup1\n  dup3\n  gt\n    /* \"#utility.yul\":221:257   */\n  iszero\n  tag_26\n  jumpi\n    /* \"#utility.yul\":237:255   */\n  tag_26\n  tag_27\n  jump\t// in\ntag_26:\n    /* \"#utility.yul\":312:314   */\n  0x40\n    /* \"#utility.yul\":306:315   */\n  mload\n    /* \"#utility.yul\":280:282   */\n  0x1f\n    /* \"#utility.yul\":366:379   */\n  dup4\n  add\n  not(0x1f)\n    /* \"#utility.yul\":362:384   */\n  swap1\n  dup2\n  and\n    /* \"#utility.yul\":386:388   */\n  0x3f\n    /* \"#utility.yul\":358:389   */\n  add\n    /* \"#utility.yul\":354:394   */\n  and\n    /* \"#utility.yul\":342:395   */\n  dup2\n  add\n  swap1\n    /* \"#utility.yul\":410:428   */\n  dup3\n  dup3\n  gt\n    /* \"#utility.yul\":430:452   */\n  dup2\n  dup4\n  lt\n    /* \"#utility.yul\":407:453   */\n  or\n    /* \"#utility.yul\":404:476   */\n  iszero\n  tag_29\n  jumpi\n    /* \"#utility.yul\":456:474   */\n  tag_29\n  tag_27\n  jump\t// in\ntag_29:\n    /* \"#utility.yul\":496:506   */\n  dup2\n    /* \"#utility.yul\":492:494   */\n  0x40\n    /* \"#utility.yul\":485:507   */\n  mstore\n    /* \"#utility.yul\":531:533   */\n  dup4\n    /* \"#utility.yul\":523:529   */\n  dup2\n    /* \"#utility.yul\":516:534   */\n  mstore\n    /* \"#utility.yul\":553:557   */\n  0x20\n    /* \"#utility.yul\":543:557   */\n  swap3\n  pop\n    /* \"#utility.yul\":598:601   */\n  dup7\n    /* \"#utility.yul\":593:595   */\n  dup4\n    /* \"#utility.yul\":588:590   */\n  dup6\n    /* \"#utility.yul\":580:586   */\n  dup9\n    /* \"#utility.yul\":576:591   */\n  add\n    /* \"#utility.yul\":572:596   */\n  add\n    /* \"#utility.yul\":569:602   */\n  gt\n    /* \"#utility.yul\":566:619   */\n  iszero\n  tag_30\n  jumpi\n    /* \"#utility.yul\":615:616   */\n  0x00\n    /* \"#utility.yul\":612:613   */\n  dup1\n    /* \"#utility.yul\":605:617   */\n  revert\n    /* \"#utility.yul\":566:619   */\ntag_30:\n    /* \"#utility.yul\":637:638   */\n  0x00\n    /* \"#utility.yul\":628:638   */\n  swap2\n  pop\n    /* \"#utility.yul\":647:780   */\ntag_31:\n    /* \"#utility.yul\":661:663   */\n  dup4\n    /* \"#utility.yul\":658:659   */\n  dup3\n    /* \"#utility.yul\":655:664   */\n  lt\n    /* \"#utility.yul\":647:780   */\n  iszero\n  tag_33\n  jumpi\n    /* \"#utility.yul\":749:763   */\n  dup6\n  dup3\n  add\n    /* \"#utility.yul\":745:768   */\n  dup4\n  add\n    /* \"#utility.yul\":739:769   */\n  mload\n    /* \"#utility.yul\":718:732   */\n  dup2\n  dup4\n  add\n    /* \"#utility.yul\":714:737   */\n  dup5\n  add\n    /* \"#utility.yul\":707:770   */\n  mstore\n    /* \"#utility.yul\":672:682   */\n  swap1\n  dup3\n  add\n  swap1\n    /* \"#utility.yul\":647:780   */\n  jump(tag_31)\ntag_33:\n    /* \"#utility.yul\":798:800   */\n  dup4\n    /* \"#utility.yul\":795:796   */\n  dup3\n    /* \"#utility.yul\":792:801   */\n  gt\n    /* \"#utility.yul\":789:869   */\n  iszero\n  tag_34\n  jumpi\n    /* \"#utility.yul\":857:858   */\n  0x00\n    /* \"#utility.yul\":852:854   */\n  dup4\n    /* \"#utility.yul\":847:849   */\n  dup6\n    /* \"#utility.yul\":839:845   */\n  dup4\n    /* \"#utility.yul\":835:850   */\n  add\n    /* \"#utility.yul\":831:855   */\n  add\n    /* \"#utility.yul\":824:859   */\n  mstore\n    /* \"#utility.yul\":789:869   */\ntag_34:\n    /* \"#utility.yul\":887:893   */\n  swap7\n    /* \"#utility.yul\":14:899   */\n  swap6\n  pop\n  pop\n  pop\n  pop\n  pop\n  pop\n  jump\t// out\n    /* \"#utility.yul\":904:1466   */\ntag_3:\n    /* \"#utility.yul\":1003:1009   */\n  0x00\n    /* \"#utility.yul\":1011:1017   */\n  dup1\n    /* \"#utility.yul\":1064:1066   */\n  0x40\n    /* \"#utility.yul\":1052:1061   */\n  dup4\n    /* \"#utility.yul\":1043:1050   */\n  dup6\n    /* \"#utility.yul\":1039:1062   */\n  sub\n    /* \"#utility.yul\":1035:1067   */\n  slt\n    /* \"#utility.yul\":1032:1084   */\n  iszero\n  tag_36\n  jumpi\n    /* \"#utility.yul\":1080:1081   */\n  0x00\n    /* \"#utility.yul\":1077:1078   */\n  dup1\n    /* \"#utility.yul\":1070:1082   */\n  revert\n    /* \"#utility.yul\":1032:1084   */\ntag_36:\n    /* \"#utility.yul\":1107:1123   */\n  dup3\n  mload\n  sub(shl(0x40, 0x01), 0x01)\n    /* \"#utility.yul\":1172:1186   */\n  dup1\n  dup3\n  gt\n    /* \"#utility.yul\":1169:1203   */\n  iszero\n  tag_37\n  jumpi\n    /* \"#utility.yul\":1199:1200   */\n  0x00\n    /* \"#utility.yul\":1196:1197   */\n  dup1\n    /* \"#utility.yul\":1189:1201   */\n  revert\n    /* \"#utility.yul\":1169:1203   */\ntag_37:\n    /* \"#utility.yul\":1222:1283   */\n  tag_38\n    /* \"#utility.yul\":1275:1282   */\n  dup7\n    /* \"#utility.yul\":1266:1272   */\n  dup4\n    /* \"#utility.yul\":1255:1264   */\n  dup8\n    /* \"#utility.yul\":1251:1273   */\n  add\n    /* \"#utility.yul\":1222:1283   */\n  tag_22\n  jump\t// in\ntag_38:\n    /* \"#utility.yul\":1212:1283   */\n  swap4\n  pop\n    /* \"#utility.yul\":1329:1331   */\n  0x20\n    /* \"#utility.yul\":1318:1327   */\n  dup6\n    /* \"#utility.yul\":1314:1332   */\n  add\n    /* \"#utility.yul\":1308:1333   */\n  mload\n    /* \"#utility.yul\":1292:1333   */\n  swap2\n  pop\n    /* \"#utility.yul\":1358:1360   */\n  dup1\n    /* \"#utility.yul\":1348:1356   */\n  dup3\n    /* \"#utility.yul\":1345:1361   */\n  gt\n    /* \"#utility.yul\":1342:1378   */\n  iszero\n  tag_39\n  jumpi\n    /* \"#utility.yul\":1374:1375   */\n  0x00\n    /* \"#utility.yul\":1371:1372   */\n  dup1\n    /* \"#utility.yul\":1364:1376   */\n  revert\n    /* \"#utility.yul\":1342:1378   */\ntag_39:\n  pop\n    /* \"#utility.yul\":1397:1460   */\n  tag_40\n    /* \"#utility.yul\":1452:1459   */\n  dup6\n    /* \"#utility.yul\":1441:1449   */\n  dup3\n    /* \"#utility.yul\":1430:1439   */\n  dup7\n    /* \"#utility.yul\":1426:1450   */\n  add\n    /* \"#utility.yul\":1397:1460   */\n  tag_22\n  jump\t// in\ntag_40:\n    /* \"#utility.yul\":1387:1460   */\n  swap2\n  pop\n  pop\n    /* \"#utility.yul\":904:1466   */\n  swap3\n  pop\n  swap3\n  swap1\n  pop\n  jump\t// out\n    /* \"#utility.yul\":1471:1851   */\ntag_11:\n    /* \"#utility.yul\":1550:1551   */\n  0x01\n    /* \"#utility.yul\":1546:1558   */\n  dup2\n  dup2\n  shr\n  swap1\n    /* \"#utility.yul\":1593:1605   */\n  dup3\n  and\n  dup1\n    /* \"#utility.yul\":1614:1675   */\n  tag_42\n  jumpi\n    /* \"#utility.yul\":1668:1672   */\n  0x7f\n    /* \"#utility.yul\":1660:1666   */\n  dup3\n    /* \"#utility.yul\":1656:1673   */\n  and\n    /* \"#utility.yul\":1646:1673   */\n  swap2\n  pop\n    /* \"#utility.yul\":1614:1675   */\ntag_42:\n    /* \"#utility.yul\":1721:1723   */\n  0x20\n    /* \"#utility.yul\":1713:1719   */\n  dup3\n    /* \"#utility.yul\":1710:1724   */\n  lt\n    /* \"#utility.yul\":1690:1708   */\n  dup2\n    /* \"#utility.yul\":1687:1725   */\n  eq\n    /* \"#utility.yul\":1684:1845   */\n  iszero\n  tag_43\n  jumpi\n    /* \"#utility.yul\":1767:1777   */\n  0x4e487b71\n    /* \"#utility.yul\":1762:1765   */\n  0xe0\n    /* \"#utility.yul\":1758:1778   */\n  shl\n    /* \"#utility.yul\":1755:1756   */\n  0x00\n    /* \"#utility.yul\":1748:1779   */\n  mstore\n    /* \"#utility.yul\":1802:1806   */\n  0x22\n    /* \"#utility.yul\":1799:1800   */\n  0x04\n    /* \"#utility.yul\":1792:1807   */\n  mstore\n    /* \"#utility.yul\":1830:1834   */\n  0x24\n    /* \"#utility.yul\":1827:1828   */\n  0x00\n    /* \"#utility.yul\":1820:1835   */\n  revert\n    /* \"#utility.yul\":1684:1845   */\ntag_43:\n  pop\n    /* \"#utility.yul\":1471:1851   */\n  swap2\n  swap1\n  pop\n  jump\t// out\n    /* \"#utility.yul\":1856:1983   */\ntag_27:\n    /* \"#utility.yul\":1917:1927   */\n  0x4e487b71\n    /* \"#utility.yul\":1912:1915   */\n  0xe0\n    /* \"#utility.yul\":1908:1928   */\n  shl\n    /* \"#utility.yul\":1905:1906   */\n  0x00\n    /* \"#utility.yul\":1898:1929   */\n  mstore\n    /* \"#utility.yul\":1948:1952   */\n  0x41\n    /* \"#utility.yul\":1945:1946   */\n  0x04\n    /* \"#utility.yul\":1938:1953   */\n  mstore\n    /* \"#utility.yul\":1972:1976   */\n  0x24\n    /* \"#utility.yul\":1969:1970   */\n  0x00\n    /* \"#utility.yul\":1962:1977   */\n  revert\n    /* \"#utility.yul\":1856:1983   */\ntag_21:\n    /* \"ERC721.sol\":453:6797  contract ERC721 is Context {\r... */\n  dataSize(sub_0)\n  dup1\n  dataOffset(sub_0)\n  0x00\n  codecopy\n  0x00\n  return\nstop\n\nsub_0: assembly {\n        /* \"ERC721.sol\":453:6797  contract ERC721 is Context {\r... */\n      mstore(0x40, 0x80)\n      callvalue\n      dup1\n      iszero\n      tag_1\n      jumpi\n      0x00\n      dup1\n      revert\n    tag_1:\n      pop\n      jumpi(tag_2, lt(calldatasize, 0x04))\n      shr(0xe0, calldataload(0x00))\n      dup1\n      0x70a08231\n      gt\n      tag_17\n      jumpi\n      dup1\n      0xb88d4fde\n      gt\n      tag_18\n      jumpi\n      dup1\n      0xb88d4fde\n      eq\n      tag_13\n      jumpi\n      dup1\n      0xc87b56dd\n      eq\n      tag_14\n      jumpi\n      dup1\n      0xe6c3b1f6\n      eq\n      tag_15\n      jumpi\n      dup1\n      0xe985e9c5\n      eq\n      tag_16\n      jumpi\n      0x00\n      dup1\n      revert\n    tag_18:\n      dup1\n      0x70a08231\n      eq\n      tag_10\n      jumpi\n      dup1\n      0x95d89b41\n      eq\n      tag_11\n      jumpi\n      dup1\n      0xa22cb465\n      eq\n      tag_12\n      jumpi\n      0x00\n      dup1\n      revert\n    tag_17:\n      dup1\n      0x095ea7b3\n      gt\n      tag_19\n      jumpi\n      dup1\n      0x095ea7b3\n      eq\n      tag_6\n      jumpi\n      dup1\n      0x23b872dd\n      eq\n      tag_7\n      jumpi\n      dup1\n      0x42842e0e\n      eq\n      tag_8\n      jumpi\n      dup1\n      0x6352211e\n      eq\n      tag_9\n      jumpi\n      0x00\n      dup1\n      revert\n    tag_19:\n      dup1\n      0x01ffc9a7\n      eq\n      tag_3\n      jumpi\n      dup1\n      0x06fdde03\n      eq\n      tag_4\n      jumpi\n      dup1\n      0x081812fc\n      eq\n      tag_5\n      jumpi\n    tag_2:\n      0x00\n      dup1\n      revert\n        /* \"ERC721.sol\":892:1329  function supportsInterface(bytes4 interfaceId)\r... */\n    tag_3:\n      tag_20\n      tag_21\n      calldatasize\n      0x04\n      tag_22\n      jump\t// in\n    tag_21:\n      tag_23\n      jump\t// in\n    tag_20:\n      mload(0x40)\n        /* \"#utility.yul\":5754:5768   */\n      swap1\n      iszero\n        /* \"#utility.yul\":5747:5769   */\n      iszero\n        /* \"#utility.yul\":5729:5770   */\n      dup2\n      mstore\n        /* \"#utility.yul\":5717:5719   */\n      0x20\n        /* \"#utility.yul\":5702:5720   */\n      add\n        /* \"ERC721.sol\":892:1329  function supportsInterface(bytes4 interfaceId)\r... */\n    tag_24:\n      mload(0x40)\n      dup1\n      swap2\n      sub\n      swap1\n      return\n        /* \"ERC721.sol\":1337:1355  string public name */\n    tag_4:\n      tag_26\n      tag_27\n      jump\t// in\n    tag_26:\n      mload(0x40)\n      tag_24\n      swap2\n      swap1\n      tag_29\n      jump\t// in\n        /* \"ERC721.sol\":1499:1545  mapping(uint256 => address) public getApproved */\n    tag_5:\n      tag_30\n      tag_31\n      calldatasize\n      0x04\n      tag_32\n      jump\t// in\n    tag_31:\n      mstore(0x20, 0x04)\n      0x00\n      swap1\n      dup2\n      mstore\n      0x40\n      swap1\n      keccak256\n      sload\n      sub(shl(0xa0, 0x01), 0x01)\n      and\n      dup2\n      jump\n    tag_30:\n      mload(0x40)\n      sub(shl(0xa0, 0x01), 0x01)\n        /* \"#utility.yul\":4492:4524   */\n      swap1\n      swap2\n      and\n        /* \"#utility.yul\":4474:4525   */\n      dup2\n      mstore\n        /* \"#utility.yul\":4462:4464   */\n      0x20\n        /* \"#utility.yul\":4447:4465   */\n      add\n        /* \"ERC721.sol\":1499:1545  mapping(uint256 => address) public getApproved */\n      tag_24\n        /* \"#utility.yul\":4328:4531   */\n      jump\n        /* \"ERC721.sol\":2748:3074  function approve(address spender, uint256 id) public virtual {\r... */\n    tag_6:\n      tag_36\n      tag_37\n      calldatasize\n      0x04\n      tag_38\n      jump\t// in\n    tag_37:\n      tag_39\n      jump\t// in\n    tag_36:\n      stop\n        /* \"ERC721.sol\":3297:3919  function transferFrom(\r... */\n    tag_7:\n      tag_36\n      tag_41\n      calldatasize\n      0x04\n      tag_42\n      jump\t// in\n    tag_41:\n      tag_43\n      jump\t// in\n        /* \"ERC721.sol\":3927:4439  function safeTransferFrom(\r... */\n    tag_8:\n      tag_36\n      tag_45\n      calldatasize\n      0x04\n      tag_42\n      jump\t// in\n    tag_45:\n      tag_46\n      jump\t// in\n        /* \"ERC721.sol\":1448:1490  mapping(uint256 => address) public ownerOf */\n    tag_9:\n      tag_30\n      tag_48\n      calldatasize\n      0x04\n      tag_32\n      jump\t// in\n    tag_48:\n      mstore(0x20, 0x03)\n      0x00\n      swap1\n      dup2\n      mstore\n      0x40\n      swap1\n      keccak256\n      sload\n      sub(shl(0xa0, 0x01), 0x01)\n      and\n      dup2\n      jump\n        /* \"ERC721.sol\":2635:2740  function balanceOf(address _acc) public view returns (uint256) {\r... */\n    tag_10:\n      tag_51\n      tag_52\n      calldatasize\n      0x04\n      tag_53\n      jump\t// in\n    tag_52:\n      sub(shl(0xa0, 0x01), 0x01)\n        /* \"ERC721.sol\":2716:2732  _balanceOf[_acc] */\n      and\n        /* \"ERC721.sol\":2689:2696  uint256 */\n      0x00\n        /* \"ERC721.sol\":2716:2732  _balanceOf[_acc] */\n      swap1\n      dup2\n      mstore\n        /* \"ERC721.sol\":2716:2726  _balanceOf */\n      0x02\n        /* \"ERC721.sol\":2716:2732  _balanceOf[_acc] */\n      0x20\n      mstore\n      0x40\n      swap1\n      keccak256\n      sload\n      swap1\n        /* \"ERC721.sol\":2635:2740  function balanceOf(address _acc) public view returns (uint256) {\r... */\n      jump\n    tag_51:\n      mload(0x40)\n        /* \"#utility.yul\":8214:8239   */\n      swap1\n      dup2\n      mstore\n        /* \"#utility.yul\":8202:8204   */\n      0x20\n        /* \"#utility.yul\":8187:8205   */\n      add\n        /* \"ERC721.sol\":2635:2740  function balanceOf(address _acc) public view returns (uint256) {\r... */\n      tag_24\n        /* \"#utility.yul\":8068:8245   */\n      jump\n        /* \"ERC721.sol\":1364:1384  string public symbol */\n    tag_11:\n      tag_26\n      tag_58\n      jump\t// in\n        /* \"ERC721.sol\":3082:3289  function setApprovalForAll(address operator, bool approved) public virtual {\r... */\n    tag_12:\n      tag_36\n      tag_61\n      calldatasize\n      0x04\n      tag_62\n      jump\t// in\n    tag_61:\n      tag_63\n      jump\t// in\n        /* \"ERC721.sol\":4447:4989  function safeTransferFrom(\r... */\n    tag_13:\n      tag_36\n      tag_65\n      calldatasize\n      0x04\n      tag_66\n      jump\t// in\n    tag_65:\n      tag_67\n      jump\t// in\n        /* \"ERC721.sol\":1806:2358  function tokenURI(uint256 tokenId)\r... */\n    tag_14:\n      tag_26\n      tag_69\n      calldatasize\n      0x04\n      tag_32\n      jump\t// in\n    tag_69:\n      tag_70\n      jump\t// in\n        /* \"ERC721.sol\":1554:1598  mapping(uint256 => uint256) public tokenType */\n    tag_15:\n      tag_51\n      tag_73\n      calldatasize\n      0x04\n      tag_32\n      jump\t// in\n    tag_73:\n      mstore(0x20, 0x05)\n      0x00\n      swap1\n      dup2\n      mstore\n      0x40\n      swap1\n      keccak256\n      sload\n      dup2\n      jump\n        /* \"ERC721.sol\":1607:1675  mapping(address => mapping(address => bool)) public isApprovedForAll */\n    tag_16:\n      tag_20\n      tag_77\n      calldatasize\n      0x04\n      tag_78\n      jump\t// in\n    tag_77:\n      0x06\n      0x20\n      swap1\n      dup2\n      mstore\n      0x00\n      swap3\n      dup4\n      mstore\n      0x40\n      dup1\n      dup5\n      keccak256\n      swap1\n      swap2\n      mstore\n      swap1\n      dup3\n      mstore\n      swap1\n      keccak256\n      sload\n      0xff\n      and\n      dup2\n      jump\n        /* \"ERC721.sol\":892:1329  function supportsInterface(bytes4 interfaceId)\r... */\n    tag_23:\n        /* \"ERC721.sol\":1004:1008  bool */\n      0x00\n      shl(0xe0, 0x01ffc9a7)\n      not(sub(shl(0xe0, 0x01), 0x01))\n        /* \"ERC721.sol\":1046:1071  interfaceId == 0x01ffc9a7 */\n      dup4\n      and\n      eq\n      dup1\n        /* \"ERC721.sol\":1046:1147  interfaceId == 0x01ffc9a7 || // ERC165 Interface ID for ERC165\r... */\n      tag_82\n      jumpi\n      pop\n      shl(0xe0, 0x80ac58cd)\n      not(sub(shl(0xe0, 0x01), 0x01))\n        /* \"ERC721.sol\":1122:1147  interfaceId == 0x80ac58cd */\n      dup4\n      and\n      eq\n        /* \"ERC721.sol\":1046:1147  interfaceId == 0x01ffc9a7 || // ERC165 Interface ID for ERC165\r... */\n    tag_82:\n        /* \"ERC721.sol\":1046:1223  interfaceId == 0x01ffc9a7 || // ERC165 Interface ID for ERC165\r... */\n      dup1\n      tag_83\n      jumpi\n      pop\n      shl(0xe0, 0x5b5e139f)\n      not(sub(shl(0xe0, 0x01), 0x01))\n        /* \"ERC721.sol\":1198:1223  interfaceId == 0x5b5e139f */\n      dup4\n      and\n      eq\n        /* \"ERC721.sol\":1046:1223  interfaceId == 0x01ffc9a7 || // ERC165 Interface ID for ERC165\r... */\n    tag_83:\n        /* \"ERC721.sol\":1046:1307  interfaceId == 0x01ffc9a7 || // ERC165 Interface ID for ERC165\r... */\n      dup1\n      tag_84\n      jumpi\n      pop\n      shl(0xe1, 0x152a902d)\n      not(sub(shl(0xe0, 0x01), 0x01))\n        /* \"ERC721.sol\":1282:1307  interfaceId == 0x2a55205a */\n      dup4\n      and\n      eq\n        /* \"ERC721.sol\":1046:1307  interfaceId == 0x01ffc9a7 || // ERC165 Interface ID for ERC165\r... */\n    tag_84:\n        /* \"ERC721.sol\":1026:1307  return\r... */\n      swap3\n        /* \"ERC721.sol\":892:1329  function supportsInterface(bytes4 interfaceId)\r... */\n      swap2\n      pop\n      pop\n      jump\t// out\n        /* \"ERC721.sol\":1337:1355  string public name */\n    tag_27:\n      0x00\n      dup1\n      sload\n      tag_85\n      swap1\n      tag_86\n      jump\t// in\n    tag_85:\n      dup1\n      0x1f\n      add\n      0x20\n      dup1\n      swap2\n      div\n      mul\n      0x20\n      add\n      mload(0x40)\n      swap1\n      dup2\n      add\n      0x40\n      mstore\n      dup1\n      swap3\n      swap2\n      swap1\n      dup2\n      dup2\n      mstore\n      0x20\n      add\n      dup3\n      dup1\n      sload\n      tag_87\n      swap1\n      tag_86\n      jump\t// in\n    tag_87:\n      dup1\n      iszero\n      tag_88\n      jumpi\n      dup1\n      0x1f\n      lt\n      tag_89\n      jumpi\n      0x0100\n      dup1\n      dup4\n      sload\n      div\n      mul\n      dup4\n      mstore\n      swap2\n      0x20\n      add\n      swap2\n      jump(tag_88)\n    tag_89:\n      dup3\n      add\n      swap2\n      swap1\n      0x00\n      mstore\n      keccak256(0x00, 0x20)\n      swap1\n    tag_90:\n      dup2\n      sload\n      dup2\n      mstore\n      swap1\n      0x01\n      add\n      swap1\n      0x20\n      add\n      dup1\n      dup4\n      gt\n      tag_90\n      jumpi\n      dup3\n      swap1\n      sub\n      0x1f\n      and\n      dup3\n      add\n      swap2\n    tag_88:\n      pop\n      pop\n      pop\n      pop\n      pop\n      dup2\n      jump\t// out\n        /* \"ERC721.sol\":2748:3074  function approve(address spender, uint256 id) public virtual {\r... */\n    tag_39:\n        /* \"ERC721.sol\":2820:2833  address owner */\n      0x00\n        /* \"ERC721.sol\":2836:2847  ownerOf[id] */\n      dup2\n      dup2\n      mstore\n        /* \"ERC721.sol\":2836:2843  ownerOf */\n      0x03\n        /* \"ERC721.sol\":2836:2847  ownerOf[id] */\n      0x20\n      mstore\n      0x40\n      swap1\n      keccak256\n      sload\n      sub(shl(0xa0, 0x01), 0x01)\n      and\n        /* \"ERC721.sol\":2882:2892  msg.sender */\n      caller\n        /* \"ERC721.sol\":2882:2901  msg.sender == owner */\n      dup2\n      eq\n      dup1\n        /* \"ERC721.sol\":2882:2940  msg.sender == owner || isApprovedForAll[owner][msg.sender] */\n      tag_92\n      jumpi\n      pop\n      sub(shl(0xa0, 0x01), 0x01)\n        /* \"ERC721.sol\":2905:2928  isApprovedForAll[owner] */\n      dup2\n      and\n      0x00\n      swap1\n      dup2\n      mstore\n        /* \"ERC721.sol\":2905:2921  isApprovedForAll */\n      0x06\n        /* \"ERC721.sol\":2905:2928  isApprovedForAll[owner] */\n      0x20\n      swap1\n      dup2\n      mstore\n      0x40\n      dup1\n      dup4\n      keccak256\n        /* \"ERC721.sol\":2929:2939  msg.sender */\n      caller\n        /* \"ERC721.sol\":2905:2940  isApprovedForAll[owner][msg.sender] */\n      dup5\n      mstore\n      swap1\n      swap2\n      mstore\n      swap1\n      keccak256\n      sload\n      0xff\n      and\n        /* \"ERC721.sol\":2882:2940  msg.sender == owner || isApprovedForAll[owner][msg.sender] */\n    tag_92:\n        /* \"ERC721.sol\":2860:2982  require(\r... */\n      tag_93\n      jumpi\n      mload(0x40)\n      shl(0xe5, 0x461bcd)\n      dup2\n      mstore\n        /* \"#utility.yul\":7927:7929   */\n      0x20\n        /* \"ERC721.sol\":2860:2982  require(\r... */\n      0x04\n      dup3\n      add\n        /* \"#utility.yul\":7909:7930   */\n      mstore\n        /* \"#utility.yul\":7966:7968   */\n      0x0e\n        /* \"#utility.yul\":7946:7964   */\n      0x24\n      dup3\n      add\n        /* \"#utility.yul\":7939:7969   */\n      mstore\n      shl(0x92, 0x139bdd08185d5d1a1bdc9a5e9959)\n        /* \"#utility.yul\":7985:8003   */\n      0x44\n      dup3\n      add\n        /* \"#utility.yul\":7978:8022   */\n      mstore\n        /* \"#utility.yul\":8039:8057   */\n      0x64\n      add\n        /* \"ERC721.sol\":2860:2982  require(\r... */\n    tag_94:\n      mload(0x40)\n      dup1\n      swap2\n      sub\n      swap1\n      revert\n    tag_93:\n        /* \"ERC721.sol\":2995:3010  getApproved[id] */\n      0x00\n      dup3\n      dup2\n      mstore\n        /* \"ERC721.sol\":2995:3006  getApproved */\n      0x04\n        /* \"ERC721.sol\":2995:3010  getApproved[id] */\n      0x20\n      mstore\n      0x40\n      dup1\n      dup3\n      keccak256\n        /* \"ERC721.sol\":2995:3020  getApproved[id] = spender */\n      dup1\n      sload\n      not(sub(shl(0xa0, 0x01), 0x01))\n      and\n      sub(shl(0xa0, 0x01), 0x01)\n      dup8\n      dup2\n      and\n      swap2\n      dup3\n      or\n      swap1\n      swap3\n      sstore\n        /* \"ERC721.sol\":3038:3066  Approval(owner, spender, id) */\n      swap2\n      mload\n        /* \"ERC721.sol\":2995:3010  getApproved[id] */\n      dup6\n      swap4\n        /* \"ERC721.sol\":3038:3066  Approval(owner, spender, id) */\n      swap2\n      dup6\n      and\n      swap2\n      0x8c5be1e5ebec7d5bd14f71427d1e84f3dd0314c0f7b2291e5b200ac8c7c3b925\n      swap2\n      log4\n        /* \"ERC721.sol\":2809:3074  {\r... */\n      pop\n        /* \"ERC721.sol\":2748:3074  function approve(address spender, uint256 id) public virtual {\r... */\n      pop\n      pop\n      jump\t// out\n        /* \"ERC721.sol\":3297:3919  function transferFrom(\r... */\n    tag_43:\n        /* \"ERC721.sol\":3433:3444  ownerOf[id] */\n      0x00\n      dup2\n      dup2\n      mstore\n        /* \"ERC721.sol\":3433:3440  ownerOf */\n      0x03\n        /* \"ERC721.sol\":3433:3444  ownerOf[id] */\n      0x20\n      mstore\n      0x40\n      swap1\n      keccak256\n      sload\n      sub(shl(0xa0, 0x01), 0x01)\n        /* \"ERC721.sol\":3425:3444  from == ownerOf[id] */\n      dup5\n      dup2\n      and\n        /* \"ERC721.sol\":3433:3444  ownerOf[id] */\n      swap2\n      and\n        /* \"ERC721.sol\":3425:3444  from == ownerOf[id] */\n      eq\n        /* \"ERC721.sol\":3417:3459  require(from == ownerOf[id], \"WRONG FROM\") */\n      tag_97\n      jumpi\n      mload(0x40)\n      shl(0xe5, 0x461bcd)\n      dup2\n      mstore\n        /* \"#utility.yul\":6543:6545   */\n      0x20\n        /* \"ERC721.sol\":3417:3459  require(from == ownerOf[id], \"WRONG FROM\") */\n      0x04\n      dup3\n      add\n        /* \"#utility.yul\":6525:6546   */\n      mstore\n        /* \"#utility.yul\":6582:6584   */\n      0x0a\n        /* \"#utility.yul\":6562:6580   */\n      0x24\n      dup3\n      add\n        /* \"#utility.yul\":6555:6585   */\n      mstore\n      shl(0xb0, 0x57524f4e472046524f4d)\n        /* \"#utility.yul\":6601:6619   */\n      0x44\n      dup3\n      add\n        /* \"#utility.yul\":6594:6634   */\n      mstore\n        /* \"#utility.yul\":6651:6669   */\n      0x64\n      add\n        /* \"ERC721.sol\":3417:3459  require(from == ownerOf[id], \"WRONG FROM\") */\n      tag_94\n        /* \"#utility.yul\":6341:6675   */\n      jump\n        /* \"ERC721.sol\":3417:3459  require(from == ownerOf[id], \"WRONG FROM\") */\n    tag_97:\n      sub(shl(0xa0, 0x01), 0x01)\n        /* \"ERC721.sol\":3480:3496  to != address(0) */\n      dup3\n      and\n        /* \"ERC721.sol\":3472:3509  require(to != address(0), \"WRONG TO\") */\n      tag_100\n      jumpi\n      mload(0x40)\n      shl(0xe5, 0x461bcd)\n      dup2\n      mstore\n        /* \"#utility.yul\":6207:6209   */\n      0x20\n        /* \"ERC721.sol\":3472:3509  require(to != address(0), \"WRONG TO\") */\n      0x04\n      dup3\n      add\n        /* \"#utility.yul\":6189:6210   */\n      mstore\n        /* \"#utility.yul\":6246:6247   */\n      0x08\n        /* \"#utility.yul\":6226:6244   */\n      0x24\n      dup3\n      add\n        /* \"#utility.yul\":6219:6248   */\n      mstore\n      shl(0xc0, 0x57524f4e4720544f)\n        /* \"#utility.yul\":6264:6282   */\n      0x44\n      dup3\n      add\n        /* \"#utility.yul\":6257:6295   */\n      mstore\n        /* \"#utility.yul\":6312:6330   */\n      0x64\n      add\n        /* \"ERC721.sol\":3472:3509  require(to != address(0), \"WRONG TO\") */\n      tag_94\n        /* \"#utility.yul\":6005:6336   */\n      jump\n        /* \"ERC721.sol\":3472:3509  require(to != address(0), \"WRONG TO\") */\n    tag_100:\n        /* \"ERC721.sol\":3544:3554  msg.sender */\n      caller\n      sub(shl(0xa0, 0x01), 0x01)\n        /* \"ERC721.sol\":3544:3562  msg.sender == from */\n      dup5\n      and\n      eq\n      dup1\n        /* \"ERC721.sol\":3544:3617  msg.sender == from ||\r... */\n      tag_103\n      jumpi\n      pop\n      sub(shl(0xa0, 0x01), 0x01)\n        /* \"ERC721.sol\":3583:3605  isApprovedForAll[from] */\n      dup4\n      and\n      0x00\n      swap1\n      dup2\n      mstore\n        /* \"ERC721.sol\":3583:3599  isApprovedForAll */\n      0x06\n        /* \"ERC721.sol\":3583:3605  isApprovedForAll[from] */\n      0x20\n      swap1\n      dup2\n      mstore\n      0x40\n      dup1\n      dup4\n      keccak256\n        /* \"ERC721.sol\":3606:3616  msg.sender */\n      caller\n        /* \"ERC721.sol\":3583:3617  isApprovedForAll[from][msg.sender] */\n      dup5\n      mstore\n      swap1\n      swap2\n      mstore\n      swap1\n      keccak256\n      sload\n      0xff\n      and\n        /* \"ERC721.sol\":3544:3617  msg.sender == from ||\r... */\n    tag_103:\n        /* \"ERC721.sol\":3544:3667  msg.sender == from ||\r... */\n      dup1\n      tag_104\n      jumpi\n      pop\n        /* \"ERC721.sol\":3652:3667  getApproved[id] */\n      0x00\n      dup2\n      dup2\n      mstore\n        /* \"ERC721.sol\":3652:3663  getApproved */\n      0x04\n        /* \"ERC721.sol\":3652:3667  getApproved[id] */\n      0x20\n      mstore\n      0x40\n      swap1\n      keccak256\n      sload\n      sub(shl(0xa0, 0x01), 0x01)\n      and\n        /* \"ERC721.sol\":3638:3648  msg.sender */\n      caller\n        /* \"ERC721.sol\":3638:3667  msg.sender == getApproved[id] */\n      eq\n        /* \"ERC721.sol\":3544:3667  msg.sender == from ||\r... */\n    tag_104:\n        /* \"ERC721.sol\":3522:3709  require(\r... */\n      tag_105\n      jumpi\n      mload(0x40)\n      shl(0xe5, 0x461bcd)\n      dup2\n      mstore\n        /* \"#utility.yul\":7584:7586   */\n      0x20\n        /* \"ERC721.sol\":3522:3709  require(\r... */\n      0x04\n      dup3\n      add\n        /* \"#utility.yul\":7566:7587   */\n      mstore\n        /* \"#utility.yul\":7623:7625   */\n      0x0e\n        /* \"#utility.yul\":7603:7621   */\n      0x24\n      dup3\n      add\n        /* \"#utility.yul\":7596:7626   */\n      mstore\n      shl(0x92, 0x1393d5081055551213d492569151)\n        /* \"#utility.yul\":7642:7660   */\n      0x44\n      dup3\n      add\n        /* \"#utility.yul\":7635:7679   */\n      mstore\n        /* \"#utility.yul\":7696:7714   */\n      0x64\n      add\n        /* \"ERC721.sol\":3522:3709  require(\r... */\n      tag_94\n        /* \"#utility.yul\":7382:7720   */\n      jump\n        /* \"ERC721.sol\":3522:3709  require(\r... */\n    tag_105:\n      sub(shl(0xa0, 0x01), 0x01)\n        /* \"ERC721.sol\":3747:3763  _balanceOf[from] */\n      dup1\n      dup5\n      and\n      0x00\n      dup2\n      dup2\n      mstore\n        /* \"ERC721.sol\":3747:3757  _balanceOf */\n      0x02\n        /* \"ERC721.sol\":3747:3763  _balanceOf[from] */\n      0x20\n      swap1\n      dup2\n      mstore\n      0x40\n      dup1\n      dup4\n      keccak256\n        /* \"ERC721.sol\":3747:3765  _balanceOf[from]-- */\n      dup1\n      sload\n      not(0x00)\n      add\n      swap1\n      sstore\n        /* \"ERC721.sol\":3780:3794  _balanceOf[to] */\n      swap4\n      dup7\n      and\n      dup1\n      dup4\n      mstore\n      dup5\n      dup4\n      keccak256\n        /* \"ERC721.sol\":3780:3796  _balanceOf[to]++ */\n      dup1\n      sload\n        /* \"ERC721.sol\":3747:3765  _balanceOf[from]-- */\n      0x01\n        /* \"ERC721.sol\":3780:3796  _balanceOf[to]++ */\n      add\n      swap1\n      sstore\n        /* \"ERC721.sol\":3820:3831  ownerOf[id] */\n      dup6\n      dup4\n      mstore\n        /* \"ERC721.sol\":3820:3827  ownerOf */\n      0x03\n        /* \"ERC721.sol\":3820:3831  ownerOf[id] */\n      dup3\n      mstore\n      dup5\n      dup4\n      keccak256\n        /* \"ERC721.sol\":3820:3836  ownerOf[id] = to */\n      dup1\n      sload\n      not(sub(shl(0xa0, 0x01), 0x01))\n      swap1\n      dup2\n      and\n      dup4\n      or\n      swap1\n      swap2\n      sstore\n        /* \"ERC721.sol\":3856:3867  getApproved */\n      0x04\n        /* \"ERC721.sol\":3856:3871  getApproved[id] */\n      swap1\n      swap3\n      mstore\n      dup5\n      dup4\n      keccak256\n        /* \"ERC721.sol\":3849:3871  delete getApproved[id] */\n      dup1\n      sload\n      swap1\n      swap3\n      and\n      swap1\n      swap2\n      sstore\n        /* \"ERC721.sol\":3889:3911  Transfer(from, to, id) */\n      swap3\n      mload\n        /* \"ERC721.sol\":3828:3830  id */\n      dup5\n      swap4\n        /* \"ERC721.sol\":3780:3794  _balanceOf[to] */\n      swap3\n        /* \"ERC721.sol\":3747:3763  _balanceOf[from] */\n      swap2\n        /* \"ERC721.sol\":3889:3911  Transfer(from, to, id) */\n      0xddf252ad1be2c89b69c2b068fc378daa952ba7f163c4a11628f55a4df523b3ef\n      swap2\n      log4\n        /* \"ERC721.sol\":3297:3919  function transferFrom(\r... */\n      pop\n      pop\n      pop\n      jump\t// out\n        /* \"ERC721.sol\":3927:4439  function safeTransferFrom(\r... */\n    tag_46:\n        /* \"ERC721.sol\":4051:4077  transferFrom(from, to, id) */\n      tag_109\n        /* \"ERC721.sol\":4064:4068  from */\n      dup4\n        /* \"ERC721.sol\":4070:4072  to */\n      dup4\n        /* \"ERC721.sol\":4074:4076  id */\n      dup4\n        /* \"ERC721.sol\":4051:4063  transferFrom */\n      tag_43\n        /* \"ERC721.sol\":4051:4077  transferFrom(from, to, id) */\n      jump\t// in\n    tag_109:\n      sub(shl(0xa0, 0x01), 0x01)\n        /* \"ERC721.sol\":4112:4126  to.code.length */\n      dup3\n      and\n      extcodesize\n        /* \"ERC721.sol\":4112:4131  to.code.length == 0 */\n      iszero\n      dup1\n        /* \"ERC721.sol\":4112:4387  to.code.length == 0 ||\r... */\n      tag_110\n      jumpi\n      pop\n        /* \"ERC721.sol\":4152:4321  ERC721TokenReceiver(to).onERC721Received(\r... */\n      mload(0x40)\n      shl(0xe1, 0x0a85bd01)\n      dup1\n      dup3\n      mstore\n        /* \"ERC721.sol\":4215:4225  msg.sender */\n      caller\n        /* \"ERC721.sol\":4152:4321  ERC721TokenReceiver(to).onERC721Received(\r... */\n      0x04\n      dup4\n      add\n        /* \"#utility.yul\":5334:5368   */\n      mstore\n      sub(shl(0xa0, 0x01), 0x01)\n        /* \"#utility.yul\":5404:5419   */\n      dup6\n      dup2\n      and\n        /* \"#utility.yul\":5384:5402   */\n      0x24\n      dup5\n      add\n        /* \"#utility.yul\":5377:5420   */\n      mstore\n        /* \"#utility.yul\":5436:5454   */\n      0x44\n      dup4\n      add\n        /* \"#utility.yul\":5429:5463   */\n      dup5\n      swap1\n      mstore\n        /* \"#utility.yul\":5499:5502   */\n      0x80\n        /* \"#utility.yul\":5479:5497   */\n      0x64\n      dup5\n      add\n        /* \"#utility.yul\":5472:5503   */\n      mstore\n      0x00\n        /* \"#utility.yul\":5519:5538   */\n      0x84\n      dup5\n      add\n        /* \"#utility.yul\":5512:5542   */\n      mstore\n        /* \"ERC721.sol\":4342:4387  ERC721TokenReceiver.onERC721Received.selector */\n      swap1\n      swap2\n        /* \"ERC721.sol\":4152:4192  ERC721TokenReceiver(to).onERC721Received */\n      swap1\n      dup5\n      and\n      swap1\n        /* \"ERC721.sol\":4342:4387  ERC721TokenReceiver.onERC721Received.selector */\n      0x150b7a02\n      swap1\n        /* \"#utility.yul\":5559:5578   */\n      0xa4\n      add\n        /* \"ERC721.sol\":4152:4321  ERC721TokenReceiver(to).onERC721Received(\r... */\n      0x20\n      mload(0x40)\n      dup1\n      dup4\n      sub\n      dup2\n      0x00\n      dup8\n      dup1\n      extcodesize\n      iszero\n      dup1\n      iszero\n      tag_113\n      jumpi\n      0x00\n      dup1\n      revert\n    tag_113:\n      pop\n      gas\n      call\n      iszero\n      dup1\n      iszero\n      tag_115\n      jumpi\n      returndatasize\n      0x00\n      dup1\n      returndatacopy\n      revert(0x00, returndatasize)\n    tag_115:\n      pop\n      pop\n      pop\n      pop\n      mload(0x40)\n      returndatasize\n      not(0x1f)\n      0x1f\n      dup3\n      add\n      and\n      dup3\n      add\n      dup1\n      0x40\n      mstore\n      pop\n      dup2\n      add\n      swap1\n      tag_116\n      swap2\n      swap1\n      tag_117\n      jump\t// in\n    tag_116:\n      not(sub(shl(0xe0, 0x01), 0x01))\n        /* \"ERC721.sol\":4152:4387  ERC721TokenReceiver(to).onERC721Received(\r... */\n      and\n      eq\n        /* \"ERC721.sol\":4112:4387  to.code.length == 0 ||\r... */\n    tag_110:\n        /* \"ERC721.sol\":4090:4431  require(\r... */\n      tag_118\n      jumpi\n      mload(0x40)\n      shl(0xe5, 0x461bcd)\n      dup2\n      mstore\n        /* \"#utility.yul\":6882:6884   */\n      0x20\n        /* \"ERC721.sol\":4090:4431  require(\r... */\n      0x04\n      dup3\n      add\n        /* \"#utility.yul\":6864:6885   */\n      mstore\n        /* \"#utility.yul\":6921:6923   */\n      0x10\n        /* \"#utility.yul\":6901:6919   */\n      0x24\n      dup3\n      add\n        /* \"#utility.yul\":6894:6924   */\n      mstore\n      shl(0x82, 0x155394d0519157d49150d25412515395)\n        /* \"#utility.yul\":6940:6958   */\n      0x44\n      dup3\n      add\n        /* \"#utility.yul\":6933:6979   */\n      mstore\n        /* \"#utility.yul\":6996:7014   */\n      0x64\n      add\n        /* \"ERC721.sol\":4090:4431  require(\r... */\n      tag_94\n        /* \"#utility.yul\":6680:7020   */\n      jump\n        /* \"ERC721.sol\":4090:4431  require(\r... */\n    tag_118:\n        /* \"ERC721.sol\":3927:4439  function safeTransferFrom(\r... */\n      pop\n      pop\n      pop\n      jump\t// out\n        /* \"ERC721.sol\":1364:1384  string public symbol */\n    tag_58:\n      0x01\n      dup1\n      sload\n      tag_85\n      swap1\n      tag_86\n      jump\t// in\n        /* \"ERC721.sol\":3082:3289  function setApprovalForAll(address operator, bool approved) public virtual {\r... */\n    tag_63:\n        /* \"ERC721.sol\":3185:3195  msg.sender */\n      caller\n        /* \"ERC721.sol\":3168:3196  isApprovedForAll[msg.sender] */\n      0x00\n      dup2\n      dup2\n      mstore\n        /* \"ERC721.sol\":3168:3184  isApprovedForAll */\n      0x06\n        /* \"ERC721.sol\":3168:3196  isApprovedForAll[msg.sender] */\n      0x20\n      swap1\n      dup2\n      mstore\n      0x40\n      dup1\n      dup4\n      keccak256\n      sub(shl(0xa0, 0x01), 0x01)\n        /* \"ERC721.sol\":3168:3206  isApprovedForAll[msg.sender][operator] */\n      dup8\n      and\n      dup1\n      dup6\n      mstore\n      swap1\n      dup4\n      mstore\n      swap3\n      dup2\n      swap1\n      keccak256\n        /* \"ERC721.sol\":3168:3217  isApprovedForAll[msg.sender][operator] = approved */\n      dup1\n      sload\n      not(0xff)\n      and\n      dup7\n      iszero\n      iszero\n      swap1\n      dup2\n      or\n      swap1\n      swap2\n      sstore\n        /* \"ERC721.sol\":3235:3281  ApprovalForAll(msg.sender, operator, approved) */\n      swap1\n      mload\n        /* \"#utility.yul\":5729:5770   */\n      swap1\n      dup2\n      mstore\n        /* \"ERC721.sol\":3168:3206  isApprovedForAll[msg.sender][operator] */\n      swap2\n      swap3\n        /* \"ERC721.sol\":3185:3195  msg.sender */\n      swap2\n        /* \"ERC721.sol\":3235:3281  ApprovalForAll(msg.sender, operator, approved) */\n      0x17307eab39ab6107e8899845ad3d59bd9653f200f220920489ca2b5937696c31\n      swap2\n        /* \"#utility.yul\":5702:5720   */\n      add\n        /* \"ERC721.sol\":3235:3281  ApprovalForAll(msg.sender, operator, approved) */\n      mload(0x40)\n      dup1\n      swap2\n      sub\n      swap1\n      log3\n        /* \"ERC721.sol\":3082:3289  function setApprovalForAll(address operator, bool approved) public virtual {\r... */\n      pop\n      pop\n      jump\t// out\n        /* \"ERC721.sol\":4447:4989  function safeTransferFrom(\r... */\n    tag_67:\n        /* \"ERC721.sol\":4599:4625  transferFrom(from, to, id) */\n      tag_130\n        /* \"ERC721.sol\":4612:4616  from */\n      dup5\n        /* \"ERC721.sol\":4618:4620  to */\n      dup5\n        /* \"ERC721.sol\":4622:4624  id */\n      dup5\n        /* \"ERC721.sol\":4599:4611  transferFrom */\n      tag_43\n        /* \"ERC721.sol\":4599:4625  transferFrom(from, to, id) */\n      jump\t// in\n    tag_130:\n      sub(shl(0xa0, 0x01), 0x01)\n        /* \"ERC721.sol\":4660:4674  to.code.length */\n      dup4\n      and\n      extcodesize\n        /* \"ERC721.sol\":4660:4679  to.code.length == 0 */\n      iszero\n      dup1\n        /* \"ERC721.sol\":4660:4937  to.code.length == 0 ||\r... */\n      tag_131\n      jumpi\n      pop\n        /* \"ERC721.sol\":4700:4871  ERC721TokenReceiver(to).onERC721Received(\r... */\n      mload(0x40)\n      shl(0xe1, 0x0a85bd01)\n      dup1\n      dup3\n      mstore\n        /* \"ERC721.sol\":4892:4937  ERC721TokenReceiver.onERC721Received.selector */\n      swap1\n      sub(shl(0xa0, 0x01), 0x01)\n        /* \"ERC721.sol\":4700:4740  ERC721TokenReceiver(to).onERC721Received */\n      dup6\n      and\n      swap1\n        /* \"ERC721.sol\":4892:4937  ERC721TokenReceiver.onERC721Received.selector */\n      0x150b7a02\n      swap1\n        /* \"ERC721.sol\":4700:4871  ERC721TokenReceiver(to).onERC721Received(\r... */\n      tag_132\n      swap1\n        /* \"ERC721.sol\":4763:4773  msg.sender */\n      caller\n      swap1\n        /* \"ERC721.sol\":4796:4800  from */\n      dup10\n      swap1\n        /* \"ERC721.sol\":4823:4825  id */\n      dup9\n      swap1\n        /* \"ERC721.sol\":4848:4852  data */\n      dup9\n      swap1\n        /* \"ERC721.sol\":4700:4871  ERC721TokenReceiver(to).onERC721Received(\r... */\n      0x04\n      add\n      tag_133\n      jump\t// in\n    tag_132:\n      0x20\n      mload(0x40)\n      dup1\n      dup4\n      sub\n      dup2\n      0x00\n      dup8\n      dup1\n      extcodesize\n      iszero\n      dup1\n      iszero\n      tag_134\n      jumpi\n      0x00\n      dup1\n      revert\n    tag_134:\n      pop\n      gas\n      call\n      iszero\n      dup1\n      iszero\n      tag_136\n      jumpi\n      returndatasize\n      0x00\n      dup1\n      returndatacopy\n      revert(0x00, returndatasize)\n    tag_136:\n      pop\n      pop\n      pop\n      pop\n      mload(0x40)\n      returndatasize\n      not(0x1f)\n      0x1f\n      dup3\n      add\n      and\n      dup3\n      add\n      dup1\n      0x40\n      mstore\n      pop\n      dup2\n      add\n      swap1\n      tag_137\n      swap2\n      swap1\n      tag_117\n      jump\t// in\n    tag_137:\n      not(sub(shl(0xe0, 0x01), 0x01))\n        /* \"ERC721.sol\":4700:4937  ERC721TokenReceiver(to).onERC721Received(\r... */\n      and\n      eq\n        /* \"ERC721.sol\":4660:4937  to.code.length == 0 ||\r... */\n    tag_131:\n        /* \"ERC721.sol\":4638:4981  require(\r... */\n      tag_138\n      jumpi\n      mload(0x40)\n      shl(0xe5, 0x461bcd)\n      dup2\n      mstore\n        /* \"#utility.yul\":6882:6884   */\n      0x20\n        /* \"ERC721.sol\":4638:4981  require(\r... */\n      0x04\n      dup3\n      add\n        /* \"#utility.yul\":6864:6885   */\n      mstore\n        /* \"#utility.yul\":6921:6923   */\n      0x10\n        /* \"#utility.yul\":6901:6919   */\n      0x24\n      dup3\n      add\n        /* \"#utility.yul\":6894:6924   */\n      mstore\n      shl(0x82, 0x155394d0519157d49150d25412515395)\n        /* \"#utility.yul\":6940:6958   */\n      0x44\n      dup3\n      add\n        /* \"#utility.yul\":6933:6979   */\n      mstore\n        /* \"#utility.yul\":6996:7014   */\n      0x64\n      add\n        /* \"ERC721.sol\":4638:4981  require(\r... */\n      tag_94\n        /* \"#utility.yul\":6680:7020   */\n      jump\n        /* \"ERC721.sol\":4638:4981  require(\r... */\n    tag_138:\n        /* \"ERC721.sol\":4447:4989  function safeTransferFrom(\r... */\n      pop\n      pop\n      pop\n      pop\n      jump\t// out\n        /* \"ERC721.sol\":1806:2358  function tokenURI(uint256 tokenId)\r... */\n    tag_70:\n        /* \"ERC721.sol\":2431:2435  bool */\n      0x00\n        /* \"ERC721.sol\":2464:2480  ownerOf[tokenId] */\n      dup2\n      dup2\n      mstore\n        /* \"ERC721.sol\":2464:2471  ownerOf */\n      0x03\n        /* \"ERC721.sol\":2464:2480  ownerOf[tokenId] */\n      0x20\n      mstore\n      0x40\n      swap1\n      keccak256\n      sload\n        /* \"ERC721.sol\":1906:1919  string memory */\n      0x60\n      swap1\n      sub(shl(0xa0, 0x01), 0x01)\n        /* \"ERC721.sol\":2464:2480  ownerOf[tokenId] */\n      and\n        /* \"ERC721.sol\":1937:1994  require(_exists(tokenId), \"No token with this Id exists\") */\n      tag_143\n      jumpi\n      mload(0x40)\n      shl(0xe5, 0x461bcd)\n      dup2\n      mstore\n        /* \"#utility.yul\":7227:7229   */\n      0x20\n        /* \"ERC721.sol\":1937:1994  require(_exists(tokenId), \"No token with this Id exists\") */\n      0x04\n      dup3\n      add\n        /* \"#utility.yul\":7209:7230   */\n      mstore\n        /* \"#utility.yul\":7266:7268   */\n      0x1c\n        /* \"#utility.yul\":7246:7264   */\n      0x24\n      dup3\n      add\n        /* \"#utility.yul\":7239:7269   */\n      mstore\n        /* \"#utility.yul\":7305:7335   */\n      0x4e6f20746f6b656e207769746820746869732049642065786973747300000000\n        /* \"#utility.yul\":7285:7303   */\n      0x44\n      dup3\n      add\n        /* \"#utility.yul\":7278:7336   */\n      mstore\n        /* \"#utility.yul\":7353:7371   */\n      0x64\n      add\n        /* \"ERC721.sol\":1937:1994  require(_exists(tokenId), \"No token with this Id exists\") */\n      tag_94\n        /* \"#utility.yul\":7025:7377   */\n      jump\n        /* \"ERC721.sol\":1937:1994  require(_exists(tokenId), \"No token with this Id exists\") */\n    tag_143:\n        /* \"ERC721.sol\":2007:2028  string memory baseURI */\n      0x00\n        /* \"ERC721.sol\":2031:2041  _baseURI() */\n      tag_146\n        /* \"ERC721.sol\":2610:2619  return \"\" */\n      0x40\n      dup1\n      mload\n      0x20\n      dup2\n      add\n      swap1\n      swap2\n      mstore\n      0x00\n      dup2\n      mstore\n      swap1\n        /* \"ERC721.sol\":2533:2627  function _baseURI() internal view virtual returns (string memory) {\r... */\n      jump\n        /* \"ERC721.sol\":2031:2041  _baseURI() */\n    tag_146:\n        /* \"ERC721.sol\":2007:2041  string memory baseURI = _baseURI() */\n      swap1\n      pop\n        /* \"ERC721.sol\":2096:2097  0 */\n      0x00\n        /* \"ERC721.sol\":2078:2085  baseURI */\n      dup2\n        /* \"ERC721.sol\":2072:2093  bytes(baseURI).length */\n      mload\n        /* \"ERC721.sol\":2072:2097  bytes(baseURI).length > 0 */\n      gt\n        /* \"ERC721.sol\":2072:2350  bytes(baseURI).length > 0\r... */\n      tag_148\n      jumpi\n      mload(0x40)\n      dup1\n      0x20\n      add\n      0x40\n      mstore\n      dup1\n      0x00\n      dup2\n      mstore\n      pop\n      jump(tag_149)\n    tag_148:\n        /* \"ERC721.sol\":2223:2241  tokenType[tokenId] */\n      0x00\n      dup4\n      dup2\n      mstore\n        /* \"ERC721.sol\":2223:2232  tokenType */\n      0x05\n        /* \"ERC721.sol\":2223:2241  tokenType[tokenId] */\n      0x20\n      mstore\n      0x40\n      swap1\n      keccak256\n      sload\n        /* \"ERC721.sol\":2189:2196  baseURI */\n      dup2\n      swap1\n        /* \"ERC721.sol\":2223:2252  tokenType[tokenId].toString() */\n      tag_150\n      swap1\n        /* \"ERC721.sol\":2223:2250  tokenType[tokenId].toString */\n      tag_151\n        /* \"ERC721.sol\":2223:2252  tokenType[tokenId].toString() */\n      jump\t// in\n    tag_150:\n        /* \"ERC721.sol\":2146:2309  abi.encodePacked(\r... */\n      add(0x20, mload(0x40))\n      tag_152\n      swap3\n      swap2\n      swap1\n      tag_153\n      jump\t// in\n    tag_152:\n      mload(0x40)\n      0x20\n      dup2\n      dup4\n      sub\n      sub\n      dup2\n      mstore\n      swap1\n      0x40\n      mstore\n        /* \"ERC721.sol\":2072:2350  bytes(baseURI).length > 0\r... */\n    tag_149:\n        /* \"ERC721.sol\":2052:2350  return\r... */\n      swap4\n        /* \"ERC721.sol\":1806:2358  function tokenURI(uint256 tokenId)\r... */\n      swap3\n      pop\n      pop\n      pop\n      jump\t// out\n        /* \"utils/Strings.sol\":161:706  function toString(uint256 value) internal pure returns (string memory) {\r... */\n    tag_151:\n        /* \"utils/Strings.sol\":217:230  string memory */\n      0x60\n        /* \"utils/Strings.sol\":260:270  value == 0 */\n      dup2\n        /* \"utils/Strings.sol\":256:309  if (value == 0) {\r... */\n      tag_157\n      jumpi\n      pop\n      pop\n        /* \"utils/Strings.sol\":287:297  return \"0\" */\n      0x40\n      dup1\n      mload\n      dup1\n      dup3\n      add\n      swap1\n      swap2\n      mstore\n      0x01\n      dup2\n      mstore\n      shl(0xfc, 0x03)\n      0x20\n      dup3\n      add\n      mstore\n      swap1\n        /* \"utils/Strings.sol\":161:706  function toString(uint256 value) internal pure returns (string memory) {\r... */\n      jump\t// out\n        /* \"utils/Strings.sol\":256:309  if (value == 0) {\r... */\n    tag_157:\n        /* \"utils/Strings.sol\":334:339  value */\n      dup2\n        /* \"utils/Strings.sol\":319:331  uint256 temp */\n      0x00\n        /* \"utils/Strings.sol\":375:453  while (temp != 0) {\r... */\n    tag_158:\n        /* \"utils/Strings.sol\":382:391  temp != 0 */\n      dup2\n      iszero\n        /* \"utils/Strings.sol\":375:453  while (temp != 0) {\r... */\n      tag_159\n      jumpi\n        /* \"utils/Strings.sol\":408:416  digits++ */\n      dup1\n      tag_160\n      dup2\n      tag_161\n      jump\t// in\n    tag_160:\n      swap2\n      pop\n        /* \"utils/Strings.sol\":431:441  temp /= 10 */\n      tag_162\n      swap1\n      pop\n        /* \"utils/Strings.sol\":439:441  10 */\n      0x0a\n        /* \"utils/Strings.sol\":431:441  temp /= 10 */\n      dup4\n      tag_163\n      jump\t// in\n    tag_162:\n      swap2\n      pop\n        /* \"utils/Strings.sol\":375:453  while (temp != 0) {\r... */\n      jump(tag_158)\n    tag_159:\n        /* \"utils/Strings.sol\":463:482  bytes memory buffer */\n      0x00\n        /* \"utils/Strings.sol\":495:501  digits */\n      dup2\n        /* \"utils/Strings.sol\":485:502  new bytes(digits) */\n      0xffffffffffffffff\n      dup2\n      gt\n      iszero\n      tag_165\n      jumpi\n      tag_165\n      tag_166\n      jump\t// in\n    tag_165:\n      mload(0x40)\n      swap1\n      dup1\n      dup3\n      mstore\n      dup1\n      0x1f\n      add\n      not(0x1f)\n      and\n      0x20\n      add\n      dup3\n      add\n      0x40\n      mstore\n      dup1\n      iszero\n      tag_167\n      jumpi\n      0x20\n      dup3\n      add\n      dup2\n      dup1\n      calldatasize\n      dup4\n      calldatacopy\n      add\n      swap1\n      pop\n    tag_167:\n      pop\n        /* \"utils/Strings.sol\":463:502  bytes memory buffer = new bytes(digits) */\n      swap1\n      pop\n        /* \"utils/Strings.sol\":513:667  while (value != 0) {\r... */\n    tag_168:\n        /* \"utils/Strings.sol\":520:530  value != 0 */\n      dup5\n      iszero\n        /* \"utils/Strings.sol\":513:667  while (value != 0) {\r... */\n      tag_169\n      jumpi\n        /* \"utils/Strings.sol\":547:558  digits -= 1 */\n      tag_170\n        /* \"utils/Strings.sol\":557:558  1 */\n      0x01\n        /* \"utils/Strings.sol\":547:558  digits -= 1 */\n      dup4\n      tag_171\n      jump\t// in\n    tag_170:\n      swap2\n      pop\n        /* \"utils/Strings.sol\":616:626  value % 10 */\n      tag_172\n        /* \"utils/Strings.sol\":624:626  10 */\n      0x0a\n        /* \"utils/Strings.sol\":616:621  value */\n      dup7\n        /* \"utils/Strings.sol\":616:626  value % 10 */\n      tag_173\n      jump\t// in\n    tag_172:\n        /* \"utils/Strings.sol\":603:627  48 + uint256(value % 10) */\n      tag_174\n      swap1\n        /* \"utils/Strings.sol\":603:605  48 */\n      0x30\n        /* \"utils/Strings.sol\":603:627  48 + uint256(value % 10) */\n      tag_175\n      jump\t// in\n    tag_174:\n        /* \"utils/Strings.sol\":590:629  bytes1(uint8(48 + uint256(value % 10))) */\n      0xf8\n      shl\n        /* \"utils/Strings.sol\":573:579  buffer */\n      dup2\n        /* \"utils/Strings.sol\":580:586  digits */\n      dup4\n        /* \"utils/Strings.sol\":573:587  buffer[digits] */\n      dup2\n      mload\n      dup2\n      lt\n      tag_177\n      jumpi\n      tag_177\n      tag_178\n      jump\t// in\n    tag_177:\n      0x20\n      add\n      add\n        /* \"utils/Strings.sol\":573:629  buffer[digits] = bytes1(uint8(48 + uint256(value % 10))) */\n      swap1\n      not(sub(shl(0xf8, 0x01), 0x01))\n      and\n      swap1\n      dup2\n      0x00\n      byte\n      swap1\n      mstore8\n      pop\n        /* \"utils/Strings.sol\":644:655  value /= 10 */\n      tag_179\n        /* \"utils/Strings.sol\":653:655  10 */\n      0x0a\n        /* \"utils/Strings.sol\":644:655  value /= 10 */\n      dup7\n      tag_163\n      jump\t// in\n    tag_179:\n      swap5\n      pop\n        /* \"utils/Strings.sol\":513:667  while (value != 0) {\r... */\n      jump(tag_168)\n    tag_169:\n        /* \"utils/Strings.sol\":691:697  buffer */\n      swap5\n        /* \"utils/Strings.sol\":161:706  function toString(uint256 value) internal pure returns (string memory) {\r... */\n      swap4\n      pop\n      pop\n      pop\n      pop\n      jump\t// out\n        /* \"#utility.yul\":14:187   */\n    tag_181:\n        /* \"#utility.yul\":82:102   */\n      dup1\n      calldataload\n      sub(shl(0xa0, 0x01), 0x01)\n        /* \"#utility.yul\":131:162   */\n      dup2\n      and\n        /* \"#utility.yul\":121:163   */\n      dup2\n      eq\n        /* \"#utility.yul\":111:181   */\n      tag_183\n      jumpi\n        /* \"#utility.yul\":177:178   */\n      0x00\n        /* \"#utility.yul\":174:175   */\n      dup1\n        /* \"#utility.yul\":167:179   */\n      revert\n        /* \"#utility.yul\":111:181   */\n    tag_183:\n        /* \"#utility.yul\":14:187   */\n      swap2\n      swap1\n      pop\n      jump\t// out\n        /* \"#utility.yul\":192:378   */\n    tag_53:\n        /* \"#utility.yul\":251:257   */\n      0x00\n        /* \"#utility.yul\":304:306   */\n      0x20\n        /* \"#utility.yul\":292:301   */\n      dup3\n        /* \"#utility.yul\":283:290   */\n      dup5\n        /* \"#utility.yul\":279:302   */\n      sub\n        /* \"#utility.yul\":275:307   */\n      slt\n        /* \"#utility.yul\":272:324   */\n      iszero\n      tag_185\n      jumpi\n        /* \"#utility.yul\":320:321   */\n      0x00\n        /* \"#utility.yul\":317:318   */\n      dup1\n        /* \"#utility.yul\":310:322   */\n      revert\n        /* \"#utility.yul\":272:324   */\n    tag_185:\n        /* \"#utility.yul\":343:372   */\n      tag_149\n        /* \"#utility.yul\":362:371   */\n      dup3\n        /* \"#utility.yul\":343:372   */\n      tag_181\n      jump\t// in\n        /* \"#utility.yul\":383:643   */\n    tag_78:\n        /* \"#utility.yul\":451:457   */\n      0x00\n        /* \"#utility.yul\":459:465   */\n      dup1\n        /* \"#utility.yul\":512:514   */\n      0x40\n        /* \"#utility.yul\":500:509   */\n      dup4\n        /* \"#utility.yul\":491:498   */\n      dup6\n        /* \"#utility.yul\":487:510   */\n      sub\n        /* \"#utility.yul\":483:515   */\n      slt\n        /* \"#utility.yul\":480:532   */\n      iszero\n      tag_188\n      jumpi\n        /* \"#utility.yul\":528:529   */\n      0x00\n        /* \"#utility.yul\":525:526   */\n      dup1\n        /* \"#utility.yul\":518:530   */\n      revert\n        /* \"#utility.yul\":480:532   */\n    tag_188:\n        /* \"#utility.yul\":551:580   */\n      tag_189\n        /* \"#utility.yul\":570:579   */\n      dup4\n        /* \"#utility.yul\":551:580   */\n      tag_181\n      jump\t// in\n    tag_189:\n        /* \"#utility.yul\":541:580   */\n      swap2\n      pop\n        /* \"#utility.yul\":599:637   */\n      tag_190\n        /* \"#utility.yul\":633:635   */\n      0x20\n        /* \"#utility.yul\":622:631   */\n      dup5\n        /* \"#utility.yul\":618:636   */\n      add\n        /* \"#utility.yul\":599:637   */\n      tag_181\n      jump\t// in\n    tag_190:\n        /* \"#utility.yul\":589:637   */\n      swap1\n      pop\n        /* \"#utility.yul\":383:643   */\n      swap3\n      pop\n      swap3\n      swap1\n      pop\n      jump\t// out\n        /* \"#utility.yul\":648:976   */\n    tag_42:\n        /* \"#utility.yul\":725:731   */\n      0x00\n        /* \"#utility.yul\":733:739   */\n      dup1\n        /* \"#utility.yul\":741:747   */\n      0x00\n        /* \"#utility.yul\":794:796   */\n      0x60\n        /* \"#utility.yul\":782:791   */\n      dup5\n        /* \"#utility.yul\":773:780   */\n      dup7\n        /* \"#utility.yul\":769:792   */\n      sub\n        /* \"#utility.yul\":765:797   */\n      slt\n        /* \"#utility.yul\":762:814   */\n      iszero\n      tag_192\n      jumpi\n        /* \"#utility.yul\":810:811   */\n      0x00\n        /* \"#utility.yul\":807:808   */\n      dup1\n        /* \"#utility.yul\":800:812   */\n      revert\n        /* \"#utility.yul\":762:814   */\n    tag_192:\n        /* \"#utility.yul\":833:862   */\n      tag_193\n        /* \"#utility.yul\":852:861   */\n      dup5\n        /* \"#utility.yul\":833:862   */\n      tag_181\n      jump\t// in\n    tag_193:\n        /* \"#utility.yul\":823:862   */\n      swap3\n      pop\n        /* \"#utility.yul\":881:919   */\n      tag_194\n        /* \"#utility.yul\":915:917   */\n      0x20\n        /* \"#utility.yul\":904:913   */\n      dup6\n        /* \"#utility.yul\":900:918   */\n      add\n        /* \"#utility.yul\":881:919   */\n      tag_181\n      jump\t// in\n    tag_194:\n        /* \"#utility.yul\":871:919   */\n      swap2\n      pop\n        /* \"#utility.yul\":966:968   */\n      0x40\n        /* \"#utility.yul\":955:964   */\n      dup5\n        /* \"#utility.yul\":951:969   */\n      add\n        /* \"#utility.yul\":938:970   */\n      calldataload\n        /* \"#utility.yul\":928:970   */\n      swap1\n      pop\n        /* \"#utility.yul\":648:976   */\n      swap3\n      pop\n      swap3\n      pop\n      swap3\n      jump\t// out\n        /* \"#utility.yul\":981:2119   */\n    tag_66:\n        /* \"#utility.yul\":1076:1082   */\n      0x00\n        /* \"#utility.yul\":1084:1090   */\n      dup1\n        /* \"#utility.yul\":1092:1098   */\n      0x00\n        /* \"#utility.yul\":1100:1106   */\n      dup1\n        /* \"#utility.yul\":1153:1156   */\n      0x80\n        /* \"#utility.yul\":1141:1150   */\n      dup6\n        /* \"#utility.yul\":1132:1139   */\n      dup8\n        /* \"#utility.yul\":1128:1151   */\n      sub\n        /* \"#utility.yul\":1124:1157   */\n      slt\n        /* \"#utility.yul\":1121:1174   */\n      iszero\n      tag_196\n      jumpi\n        /* \"#utility.yul\":1170:1171   */\n      0x00\n        /* \"#utility.yul\":1167:1168   */\n      dup1\n        /* \"#utility.yul\":1160:1172   */\n      revert\n        /* \"#utility.yul\":1121:1174   */\n    tag_196:\n        /* \"#utility.yul\":1193:1222   */\n      tag_197\n        /* \"#utility.yul\":1212:1221   */\n      dup6\n        /* \"#utility.yul\":1193:1222   */\n      tag_181\n      jump\t// in\n    tag_197:\n        /* \"#utility.yul\":1183:1222   */\n      swap4\n      pop\n        /* \"#utility.yul\":1241:1279   */\n      tag_198\n        /* \"#utility.yul\":1275:1277   */\n      0x20\n        /* \"#utility.yul\":1264:1273   */\n      dup7\n        /* \"#utility.yul\":1260:1278   */\n      add\n        /* \"#utility.yul\":1241:1279   */\n      tag_181\n      jump\t// in\n    tag_198:\n        /* \"#utility.yul\":1231:1279   */\n      swap3\n      pop\n        /* \"#utility.yul\":1326:1328   */\n      0x40\n        /* \"#utility.yul\":1315:1324   */\n      dup6\n        /* \"#utility.yul\":1311:1329   */\n      add\n        /* \"#utility.yul\":1298:1330   */\n      calldataload\n        /* \"#utility.yul\":1288:1330   */\n      swap2\n      pop\n        /* \"#utility.yul\":1381:1383   */\n      0x60\n        /* \"#utility.yul\":1370:1379   */\n      dup6\n        /* \"#utility.yul\":1366:1384   */\n      add\n        /* \"#utility.yul\":1353:1385   */\n      calldataload\n        /* \"#utility.yul\":1404:1422   */\n      0xffffffffffffffff\n        /* \"#utility.yul\":1445:1447   */\n      dup1\n        /* \"#utility.yul\":1437:1443   */\n      dup3\n        /* \"#utility.yul\":1434:1448   */\n      gt\n        /* \"#utility.yul\":1431:1465   */\n      iszero\n      tag_199\n      jumpi\n        /* \"#utility.yul\":1461:1462   */\n      0x00\n        /* \"#utility.yul\":1458:1459   */\n      dup1\n        /* \"#utility.yul\":1451:1463   */\n      revert\n        /* \"#utility.yul\":1431:1465   */\n    tag_199:\n        /* \"#utility.yul\":1499:1505   */\n      dup2\n        /* \"#utility.yul\":1488:1497   */\n      dup8\n        /* \"#utility.yul\":1484:1506   */\n      add\n        /* \"#utility.yul\":1474:1506   */\n      swap2\n      pop\n        /* \"#utility.yul\":1544:1551   */\n      dup8\n        /* \"#utility.yul\":1537:1541   */\n      0x1f\n        /* \"#utility.yul\":1533:1535   */\n      dup4\n        /* \"#utility.yul\":1529:1542   */\n      add\n        /* \"#utility.yul\":1525:1552   */\n      slt\n        /* \"#utility.yul\":1515:1570   */\n      tag_200\n      jumpi\n        /* \"#utility.yul\":1566:1567   */\n      0x00\n        /* \"#utility.yul\":1563:1564   */\n      dup1\n        /* \"#utility.yul\":1556:1568   */\n      revert\n        /* \"#utility.yul\":1515:1570   */\n    tag_200:\n        /* \"#utility.yul\":1602:1604   */\n      dup2\n        /* \"#utility.yul\":1589:1605   */\n      calldataload\n        /* \"#utility.yul\":1624:1626   */\n      dup2\n        /* \"#utility.yul\":1620:1622   */\n      dup2\n        /* \"#utility.yul\":1617:1627   */\n      gt\n        /* \"#utility.yul\":1614:1650   */\n      iszero\n      tag_202\n      jumpi\n        /* \"#utility.yul\":1630:1648   */\n      tag_202\n      tag_166\n      jump\t// in\n    tag_202:\n        /* \"#utility.yul\":1705:1707   */\n      0x40\n        /* \"#utility.yul\":1699:1708   */\n      mload\n        /* \"#utility.yul\":1673:1675   */\n      0x1f\n        /* \"#utility.yul\":1759:1772   */\n      dup3\n      add\n      not(0x1f)\n        /* \"#utility.yul\":1755:1777   */\n      swap1\n      dup2\n      and\n        /* \"#utility.yul\":1779:1781   */\n      0x3f\n        /* \"#utility.yul\":1751:1782   */\n      add\n        /* \"#utility.yul\":1747:1787   */\n      and\n        /* \"#utility.yul\":1735:1788   */\n      dup2\n      add\n      swap1\n        /* \"#utility.yul\":1803:1821   */\n      dup4\n      dup3\n      gt\n        /* \"#utility.yul\":1823:1845   */\n      dup2\n      dup4\n      lt\n        /* \"#utility.yul\":1800:1846   */\n      or\n        /* \"#utility.yul\":1797:1869   */\n      iszero\n      tag_204\n      jumpi\n        /* \"#utility.yul\":1849:1867   */\n      tag_204\n      tag_166\n      jump\t// in\n    tag_204:\n        /* \"#utility.yul\":1889:1899   */\n      dup2\n        /* \"#utility.yul\":1885:1887   */\n      0x40\n        /* \"#utility.yul\":1878:1900   */\n      mstore\n        /* \"#utility.yul\":1924:1926   */\n      dup3\n        /* \"#utility.yul\":1916:1922   */\n      dup2\n        /* \"#utility.yul\":1909:1927   */\n      mstore\n        /* \"#utility.yul\":1964:1971   */\n      dup11\n        /* \"#utility.yul\":1959:1961   */\n      0x20\n        /* \"#utility.yul\":1954:1956   */\n      dup5\n        /* \"#utility.yul\":1950:1952   */\n      dup8\n        /* \"#utility.yul\":1946:1957   */\n      add\n        /* \"#utility.yul\":1942:1962   */\n      add\n        /* \"#utility.yul\":1939:1972   */\n      gt\n        /* \"#utility.yul\":1936:1989   */\n      iszero\n      tag_205\n      jumpi\n        /* \"#utility.yul\":1985:1986   */\n      0x00\n        /* \"#utility.yul\":1982:1983   */\n      dup1\n        /* \"#utility.yul\":1975:1987   */\n      revert\n        /* \"#utility.yul\":1936:1989   */\n    tag_205:\n        /* \"#utility.yul\":2041:2043   */\n      dup3\n        /* \"#utility.yul\":2036:2038   */\n      0x20\n        /* \"#utility.yul\":2032:2034   */\n      dup7\n        /* \"#utility.yul\":2028:2039   */\n      add\n        /* \"#utility.yul\":2023:2025   */\n      0x20\n        /* \"#utility.yul\":2015:2021   */\n      dup4\n        /* \"#utility.yul\":2011:2026   */\n      add\n        /* \"#utility.yul\":1998:2044   */\n      calldatacopy\n        /* \"#utility.yul\":2086:2087   */\n      0x00\n        /* \"#utility.yul\":2081:2083   */\n      0x20\n        /* \"#utility.yul\":2076:2078   */\n      dup5\n        /* \"#utility.yul\":2068:2074   */\n      dup4\n        /* \"#utility.yul\":2064:2079   */\n      add\n        /* \"#utility.yul\":2060:2084   */\n      add\n        /* \"#utility.yul\":2053:2088   */\n      mstore\n        /* \"#utility.yul\":2107:2113   */\n      dup1\n        /* \"#utility.yul\":2097:2113   */\n      swap6\n      pop\n      pop\n      pop\n      pop\n      pop\n      pop\n        /* \"#utility.yul\":981:2119   */\n      swap3\n      swap6\n      swap2\n      swap5\n      pop\n      swap3\n      pop\n      jump\t// out\n        /* \"#utility.yul\":2124:2471   */\n    tag_62:\n        /* \"#utility.yul\":2189:2195   */\n      0x00\n        /* \"#utility.yul\":2197:2203   */\n      dup1\n        /* \"#utility.yul\":2250:2252   */\n      0x40\n        /* \"#utility.yul\":2238:2247   */\n      dup4\n        /* \"#utility.yul\":2229:2236   */\n      dup6\n        /* \"#utility.yul\":2225:2248   */\n      sub\n        /* \"#utility.yul\":2221:2253   */\n      slt\n        /* \"#utility.yul\":2218:2270   */\n      iszero\n      tag_207\n      jumpi\n        /* \"#utility.yul\":2266:2267   */\n      0x00\n        /* \"#utility.yul\":2263:2264   */\n      dup1\n        /* \"#utility.yul\":2256:2268   */\n      revert\n        /* \"#utility.yul\":2218:2270   */\n    tag_207:\n        /* \"#utility.yul\":2289:2318   */\n      tag_208\n        /* \"#utility.yul\":2308:2317   */\n      dup4\n        /* \"#utility.yul\":2289:2318   */\n      tag_181\n      jump\t// in\n    tag_208:\n        /* \"#utility.yul\":2279:2318   */\n      swap2\n      pop\n        /* \"#utility.yul\":2368:2370   */\n      0x20\n        /* \"#utility.yul\":2357:2366   */\n      dup4\n        /* \"#utility.yul\":2353:2371   */\n      add\n        /* \"#utility.yul\":2340:2372   */\n      calldataload\n        /* \"#utility.yul\":2415:2420   */\n      dup1\n        /* \"#utility.yul\":2408:2421   */\n      iszero\n        /* \"#utility.yul\":2401:2422   */\n      iszero\n        /* \"#utility.yul\":2394:2399   */\n      dup2\n        /* \"#utility.yul\":2391:2423   */\n      eq\n        /* \"#utility.yul\":2381:2441   */\n      tag_209\n      jumpi\n        /* \"#utility.yul\":2437:2438   */\n      0x00\n        /* \"#utility.yul\":2434:2435   */\n      dup1\n        /* \"#utility.yul\":2427:2439   */\n      revert\n        /* \"#utility.yul\":2381:2441   */\n    tag_209:\n        /* \"#utility.yul\":2460:2465   */\n      dup1\n        /* \"#utility.yul\":2450:2465   */\n      swap2\n      pop\n      pop\n        /* \"#utility.yul\":2124:2471   */\n      swap3\n      pop\n      swap3\n      swap1\n      pop\n      jump\t// out\n        /* \"#utility.yul\":2476:2730   */\n    tag_38:\n        /* \"#utility.yul\":2544:2550   */\n      0x00\n        /* \"#utility.yul\":2552:2558   */\n      dup1\n        /* \"#utility.yul\":2605:2607   */\n      0x40\n        /* \"#utility.yul\":2593:2602   */\n      dup4\n        /* \"#utility.yul\":2584:2591   */\n      dup6\n        /* \"#utility.yul\":2580:2603   */\n      sub\n        /* \"#utility.yul\":2576:2608   */\n      slt\n        /* \"#utility.yul\":2573:2625   */\n      iszero\n      tag_211\n      jumpi\n        /* \"#utility.yul\":2621:2622   */\n      0x00\n        /* \"#utility.yul\":2618:2619   */\n      dup1\n        /* \"#utility.yul\":2611:2623   */\n      revert\n        /* \"#utility.yul\":2573:2625   */\n    tag_211:\n        /* \"#utility.yul\":2644:2673   */\n      tag_212\n        /* \"#utility.yul\":2663:2672   */\n      dup4\n        /* \"#utility.yul\":2644:2673   */\n      tag_181\n      jump\t// in\n    tag_212:\n        /* \"#utility.yul\":2634:2673   */\n      swap5\n        /* \"#utility.yul\":2720:2722   */\n      0x20\n        /* \"#utility.yul\":2705:2723   */\n      swap4\n      swap1\n      swap4\n      add\n        /* \"#utility.yul\":2692:2724   */\n      calldataload\n      swap4\n      pop\n      pop\n      pop\n        /* \"#utility.yul\":2476:2730   */\n      jump\t// out\n        /* \"#utility.yul\":2735:2980   */\n    tag_22:\n        /* \"#utility.yul\":2793:2799   */\n      0x00\n        /* \"#utility.yul\":2846:2848   */\n      0x20\n        /* \"#utility.yul\":2834:2843   */\n      dup3\n        /* \"#utility.yul\":2825:2832   */\n      dup5\n        /* \"#utility.yul\":2821:2844   */\n      sub\n        /* \"#utility.yul\":2817:2849   */\n      slt\n        /* \"#utility.yul\":2814:2866   */\n      iszero\n      tag_214\n      jumpi\n        /* \"#utility.yul\":2862:2863   */\n      0x00\n        /* \"#utility.yul\":2859:2860   */\n      dup1\n        /* \"#utility.yul\":2852:2864   */\n      revert\n        /* \"#utility.yul\":2814:2866   */\n    tag_214:\n        /* \"#utility.yul\":2901:2910   */\n      dup2\n        /* \"#utility.yul\":2888:2911   */\n      calldataload\n        /* \"#utility.yul\":2920:2950   */\n      tag_149\n        /* \"#utility.yul\":2944:2949   */\n      dup2\n        /* \"#utility.yul\":2920:2950   */\n      tag_216\n      jump\t// in\n        /* \"#utility.yul\":2985:3234   */\n    tag_117:\n        /* \"#utility.yul\":3054:3060   */\n      0x00\n        /* \"#utility.yul\":3107:3109   */\n      0x20\n        /* \"#utility.yul\":3095:3104   */\n      dup3\n        /* \"#utility.yul\":3086:3093   */\n      dup5\n        /* \"#utility.yul\":3082:3105   */\n      sub\n        /* \"#utility.yul\":3078:3110   */\n      slt\n        /* \"#utility.yul\":3075:3127   */\n      iszero\n      tag_218\n      jumpi\n        /* \"#utility.yul\":3123:3124   */\n      0x00\n        /* \"#utility.yul\":3120:3121   */\n      dup1\n        /* \"#utility.yul\":3113:3125   */\n      revert\n        /* \"#utility.yul\":3075:3127   */\n    tag_218:\n        /* \"#utility.yul\":3155:3164   */\n      dup2\n        /* \"#utility.yul\":3149:3165   */\n      mload\n        /* \"#utility.yul\":3174:3204   */\n      tag_149\n        /* \"#utility.yul\":3198:3203   */\n      dup2\n        /* \"#utility.yul\":3174:3204   */\n      tag_216\n      jump\t// in\n        /* \"#utility.yul\":3239:3419   */\n    tag_32:\n        /* \"#utility.yul\":3298:3304   */\n      0x00\n        /* \"#utility.yul\":3351:3353   */\n      0x20\n        /* \"#utility.yul\":3339:3348   */\n      dup3\n        /* \"#utility.yul\":3330:3337   */\n      dup5\n        /* \"#utility.yul\":3326:3349   */\n      sub\n        /* \"#utility.yul\":3322:3354   */\n      slt\n        /* \"#utility.yul\":3319:3371   */\n      iszero\n      tag_221\n      jumpi\n        /* \"#utility.yul\":3367:3368   */\n      0x00\n        /* \"#utility.yul\":3364:3365   */\n      dup1\n        /* \"#utility.yul\":3357:3369   */\n      revert\n        /* \"#utility.yul\":3319:3371   */\n    tag_221:\n      pop\n        /* \"#utility.yul\":3390:3413   */\n      calldataload\n      swap2\n        /* \"#utility.yul\":3239:3419   */\n      swap1\n      pop\n      jump\t// out\n        /* \"#utility.yul\":3424:3681   */\n    tag_222:\n        /* \"#utility.yul\":3465:3468   */\n      0x00\n        /* \"#utility.yul\":3503:3508   */\n      dup2\n        /* \"#utility.yul\":3497:3509   */\n      mload\n        /* \"#utility.yul\":3530:3536   */\n      dup1\n        /* \"#utility.yul\":3525:3528   */\n      dup5\n        /* \"#utility.yul\":3518:3537   */\n      mstore\n        /* \"#utility.yul\":3546:3609   */\n      tag_224\n        /* \"#utility.yul\":3602:3608   */\n      dup2\n        /* \"#utility.yul\":3595:3599   */\n      0x20\n        /* \"#utility.yul\":3590:3593   */\n      dup7\n        /* \"#utility.yul\":3586:3600   */\n      add\n        /* \"#utility.yul\":3579:3583   */\n      0x20\n        /* \"#utility.yul\":3572:3577   */\n      dup7\n        /* \"#utility.yul\":3568:3584   */\n      add\n        /* \"#utility.yul\":3546:3609   */\n      tag_225\n      jump\t// in\n    tag_224:\n        /* \"#utility.yul\":3663:3665   */\n      0x1f\n        /* \"#utility.yul\":3642:3657   */\n      add\n      not(0x1f)\n        /* \"#utility.yul\":3638:3667   */\n      and\n        /* \"#utility.yul\":3629:3668   */\n      swap3\n      swap1\n      swap3\n      add\n        /* \"#utility.yul\":3670:3674   */\n      0x20\n        /* \"#utility.yul\":3625:3675   */\n      add\n      swap3\n        /* \"#utility.yul\":3424:3681   */\n      swap2\n      pop\n      pop\n      jump\t// out\n        /* \"#utility.yul\":3686:4323   */\n    tag_153:\n        /* \"#utility.yul\":3966:3969   */\n      0x00\n        /* \"#utility.yul\":4004:4010   */\n      dup4\n        /* \"#utility.yul\":3998:4011   */\n      mload\n        /* \"#utility.yul\":4020:4073   */\n      tag_227\n        /* \"#utility.yul\":4066:4072   */\n      dup2\n        /* \"#utility.yul\":4061:4064   */\n      dup5\n        /* \"#utility.yul\":4054:4058   */\n      0x20\n        /* \"#utility.yul\":4046:4052   */\n      dup9\n        /* \"#utility.yul\":4042:4059   */\n      add\n        /* \"#utility.yul\":4020:4073   */\n      tag_225\n      jump\t// in\n    tag_227:\n        /* \"#utility.yul\":4136:4149   */\n      dup4\n      mload\n        /* \"#utility.yul\":4095:4111   */\n      swap1\n      dup4\n      add\n      swap1\n        /* \"#utility.yul\":4158:4215   */\n      tag_228\n        /* \"#utility.yul\":4136:4149   */\n      dup2\n        /* \"#utility.yul\":4095:4111   */\n      dup4\n        /* \"#utility.yul\":4192:4196   */\n      0x20\n        /* \"#utility.yul\":4180:4197   */\n      dup9\n      add\n        /* \"#utility.yul\":4158:4215   */\n      tag_225\n      jump\t// in\n    tag_228:\n      shl(0xd9, 0x173539b7b7)\n        /* \"#utility.yul\":4237:4257   */\n      swap2\n      add\n        /* \"#utility.yul\":4266:4288   */\n      swap1\n      dup2\n      mstore\n        /* \"#utility.yul\":4315:4316   */\n      0x05\n        /* \"#utility.yul\":4304:4317   */\n      add\n      swap5\n        /* \"#utility.yul\":3686:4323   */\n      swap4\n      pop\n      pop\n      pop\n      pop\n      jump\t// out\n        /* \"#utility.yul\":4536:5024   */\n    tag_133:\n      sub(shl(0xa0, 0x01), 0x01)\n        /* \"#utility.yul\":4805:4820   */\n      dup6\n      dup2\n      and\n        /* \"#utility.yul\":4787:4821   */\n      dup3\n      mstore\n        /* \"#utility.yul\":4857:4872   */\n      dup5\n      and\n        /* \"#utility.yul\":4852:4854   */\n      0x20\n        /* \"#utility.yul\":4837:4855   */\n      dup3\n      add\n        /* \"#utility.yul\":4830:4873   */\n      mstore\n        /* \"#utility.yul\":4904:4906   */\n      0x40\n        /* \"#utility.yul\":4889:4907   */\n      dup2\n      add\n        /* \"#utility.yul\":4882:4916   */\n      dup4\n      swap1\n      mstore\n        /* \"#utility.yul\":4952:4955   */\n      0x80\n        /* \"#utility.yul\":4947:4949   */\n      0x60\n        /* \"#utility.yul\":4932:4950   */\n      dup3\n      add\n        /* \"#utility.yul\":4925:4956   */\n      dup2\n      swap1\n      mstore\n        /* \"#utility.yul\":4730:4734   */\n      0x00\n      swap1\n        /* \"#utility.yul\":4973:5018   */\n      tag_231\n      swap1\n        /* \"#utility.yul\":4998:5017   */\n      dup4\n      add\n        /* \"#utility.yul\":4990:4996   */\n      dup5\n        /* \"#utility.yul\":4973:5018   */\n      tag_222\n      jump\t// in\n    tag_231:\n        /* \"#utility.yul\":4965:5018   */\n      swap7\n        /* \"#utility.yul\":4536:5024   */\n      swap6\n      pop\n      pop\n      pop\n      pop\n      pop\n      pop\n      jump\t// out\n        /* \"#utility.yul\":5781:6000   */\n    tag_29:\n        /* \"#utility.yul\":5930:5932   */\n      0x20\n        /* \"#utility.yul\":5919:5928   */\n      dup2\n        /* \"#utility.yul\":5912:5933   */\n      mstore\n        /* \"#utility.yul\":5893:5897   */\n      0x00\n        /* \"#utility.yul\":5950:5994   */\n      tag_149\n        /* \"#utility.yul\":5990:5992   */\n      0x20\n        /* \"#utility.yul\":5979:5988   */\n      dup4\n        /* \"#utility.yul\":5975:5993   */\n      add\n        /* \"#utility.yul\":5967:5973   */\n      dup5\n        /* \"#utility.yul\":5950:5994   */\n      tag_222\n      jump\t// in\n        /* \"#utility.yul\":8250:8378   */\n    tag_175:\n        /* \"#utility.yul\":8290:8293   */\n      0x00\n        /* \"#utility.yul\":8321:8322   */\n      dup3\n        /* \"#utility.yul\":8317:8323   */\n      not\n        /* \"#utility.yul\":8314:8315   */\n      dup3\n        /* \"#utility.yul\":8311:8324   */\n      gt\n        /* \"#utility.yul\":8308:8347   */\n      iszero\n      tag_245\n      jumpi\n        /* \"#utility.yul\":8327:8345   */\n      tag_245\n      tag_246\n      jump\t// in\n    tag_245:\n      pop\n        /* \"#utility.yul\":8363:8372   */\n      add\n      swap1\n        /* \"#utility.yul\":8250:8378   */\n      jump\t// out\n        /* \"#utility.yul\":8383:8503   */\n    tag_163:\n        /* \"#utility.yul\":8423:8424   */\n      0x00\n        /* \"#utility.yul\":8449:8450   */\n      dup3\n        /* \"#utility.yul\":8439:8474   */\n      tag_249\n      jumpi\n        /* \"#utility.yul\":8454:8472   */\n      tag_249\n      tag_250\n      jump\t// in\n    tag_249:\n      pop\n        /* \"#utility.yul\":8488:8497   */\n      div\n      swap1\n        /* \"#utility.yul\":8383:8503   */\n      jump\t// out\n        /* \"#utility.yul\":8508:8633   */\n    tag_171:\n        /* \"#utility.yul\":8548:8552   */\n      0x00\n        /* \"#utility.yul\":8576:8577   */\n      dup3\n        /* \"#utility.yul\":8573:8574   */\n      dup3\n        /* \"#utility.yul\":8570:8578   */\n      lt\n        /* \"#utility.yul\":8567:8601   */\n      iszero\n      tag_253\n      jumpi\n        /* \"#utility.yul\":8581:8599   */\n      tag_253\n      tag_246\n      jump\t// in\n    tag_253:\n      pop\n        /* \"#utility.yul\":8618:8627   */\n      sub\n      swap1\n        /* \"#utility.yul\":8508:8633   */\n      jump\t// out\n        /* \"#utility.yul\":8638:8896   */\n    tag_225:\n        /* \"#utility.yul\":8710:8711   */\n      0x00\n        /* \"#utility.yul\":8720:8833   */\n    tag_255:\n        /* \"#utility.yul\":8734:8740   */\n      dup4\n        /* \"#utility.yul\":8731:8732   */\n      dup2\n        /* \"#utility.yul\":8728:8741   */\n      lt\n        /* \"#utility.yul\":8720:8833   */\n      iszero\n      tag_257\n      jumpi\n        /* \"#utility.yul\":8810:8821   */\n      dup2\n      dup2\n      add\n        /* \"#utility.yul\":8804:8822   */\n      mload\n        /* \"#utility.yul\":8791:8802   */\n      dup4\n      dup3\n      add\n        /* \"#utility.yul\":8784:8823   */\n      mstore\n        /* \"#utility.yul\":8756:8758   */\n      0x20\n        /* \"#utility.yul\":8749:8759   */\n      add\n        /* \"#utility.yul\":8720:8833   */\n      jump(tag_255)\n    tag_257:\n        /* \"#utility.yul\":8851:8857   */\n      dup4\n        /* \"#utility.yul\":8848:8849   */\n      dup2\n        /* \"#utility.yul\":8845:8858   */\n      gt\n        /* \"#utility.yul\":8842:8890   */\n      iszero\n      tag_138\n      jumpi\n      pop\n      pop\n        /* \"#utility.yul\":8886:8887   */\n      0x00\n        /* \"#utility.yul\":8868:8884   */\n      swap2\n      add\n        /* \"#utility.yul\":8861:8888   */\n      mstore\n        /* \"#utility.yul\":8638:8896   */\n      jump\t// out\n        /* \"#utility.yul\":8901:9281   */\n    tag_86:\n        /* \"#utility.yul\":8980:8981   */\n      0x01\n        /* \"#utility.yul\":8976:8988   */\n      dup2\n      dup2\n      shr\n      swap1\n        /* \"#utility.yul\":9023:9035   */\n      dup3\n      and\n      dup1\n        /* \"#utility.yul\":9044:9105   */\n      tag_260\n      jumpi\n        /* \"#utility.yul\":9098:9102   */\n      0x7f\n        /* \"#utility.yul\":9090:9096   */\n      dup3\n        /* \"#utility.yul\":9086:9103   */\n      and\n        /* \"#utility.yul\":9076:9103   */\n      swap2\n      pop\n        /* \"#utility.yul\":9044:9105   */\n    tag_260:\n        /* \"#utility.yul\":9151:9153   */\n      0x20\n        /* \"#utility.yul\":9143:9149   */\n      dup3\n        /* \"#utility.yul\":9140:9154   */\n      lt\n        /* \"#utility.yul\":9120:9138   */\n      dup2\n        /* \"#utility.yul\":9117:9155   */\n      eq\n        /* \"#utility.yul\":9114:9275   */\n      iszero\n      tag_261\n      jumpi\n        /* \"#utility.yul\":9197:9207   */\n      0x4e487b71\n        /* \"#utility.yul\":9192:9195   */\n      0xe0\n        /* \"#utility.yul\":9188:9208   */\n      shl\n        /* \"#utility.yul\":9185:9186   */\n      0x00\n        /* \"#utility.yul\":9178:9209   */\n      mstore\n        /* \"#utility.yul\":9232:9236   */\n      0x22\n        /* \"#utility.yul\":9229:9230   */\n      0x04\n        /* \"#utility.yul\":9222:9237   */\n      mstore\n        /* \"#utility.yul\":9260:9264   */\n      0x24\n        /* \"#utility.yul\":9257:9258   */\n      0x00\n        /* \"#utility.yul\":9250:9265   */\n      revert\n        /* \"#utility.yul\":9114:9275   */\n    tag_261:\n      pop\n        /* \"#utility.yul\":8901:9281   */\n      swap2\n      swap1\n      pop\n      jump\t// out\n        /* \"#utility.yul\":9286:9421   */\n    tag_161:\n        /* \"#utility.yul\":9325:9328   */\n      0x00\n      not(0x00)\n        /* \"#utility.yul\":9346:9363   */\n      dup3\n      eq\n        /* \"#utility.yul\":9343:9386   */\n      iszero\n      tag_264\n      jumpi\n        /* \"#utility.yul\":9366:9384   */\n      tag_264\n      tag_246\n      jump\t// in\n    tag_264:\n      pop\n        /* \"#utility.yul\":9413:9414   */\n      0x01\n        /* \"#utility.yul\":9402:9415   */\n      add\n      swap1\n        /* \"#utility.yul\":9286:9421   */\n      jump\t// out\n        /* \"#utility.yul\":9426:9538   */\n    tag_173:\n        /* \"#utility.yul\":9458:9459   */\n      0x00\n        /* \"#utility.yul\":9484:9485   */\n      dup3\n        /* \"#utility.yul\":9474:9509   */\n      tag_267\n      jumpi\n        /* \"#utility.yul\":9489:9507   */\n      tag_267\n      tag_250\n      jump\t// in\n    tag_267:\n      pop\n        /* \"#utility.yul\":9523:9532   */\n      mod\n      swap1\n        /* \"#utility.yul\":9426:9538   */\n      jump\t// out\n        /* \"#utility.yul\":9543:9670   */\n    tag_246:\n        /* \"#utility.yul\":9604:9614   */\n      0x4e487b71\n        /* \"#utility.yul\":9599:9602   */\n      0xe0\n        /* \"#utility.yul\":9595:9615   */\n      shl\n        /* \"#utility.yul\":9592:9593   */\n      0x00\n        /* \"#utility.yul\":9585:9616   */\n      mstore\n        /* \"#utility.yul\":9635:9639   */\n      0x11\n        /* \"#utility.yul\":9632:9633   */\n      0x04\n        /* \"#utility.yul\":9625:9640   */\n      mstore\n        /* \"#utility.yul\":9659:9663   */\n      0x24\n        /* \"#utility.yul\":9656:9657   */\n      0x00\n        /* \"#utility.yul\":9649:9664   */\n      revert\n        /* \"#utility.yul\":9675:9802   */\n    tag_250:\n        /* \"#utility.yul\":9736:9746   */\n      0x4e487b71\n        /* \"#utility.yul\":9731:9734   */\n      0xe0\n        /* \"#utility.yul\":9727:9747   */\n      shl\n        /* \"#utility.yul\":9724:9725   */\n      0x00\n        /* \"#utility.yul\":9717:9748   */\n      mstore\n        /* \"#utility.yul\":9767:9771   */\n      0x12\n        /* \"#utility.yul\":9764:9765   */\n      0x04\n        /* \"#utility.yul\":9757:9772   */\n      mstore\n        /* \"#utility.yul\":9791:9795   */\n      0x24\n        /* \"#utility.yul\":9788:9789   */\n      0x00\n        /* \"#utility.yul\":9781:9796   */\n      revert\n        /* \"#utility.yul\":9807:9934   */\n    tag_178:\n        /* \"#utility.yul\":9868:9878   */\n      0x4e487b71\n        /* \"#utility.yul\":9863:9866   */\n      0xe0\n        /* \"#utility.yul\":9859:9879   */\n      shl\n        /* \"#utility.yul\":9856:9857   */\n      0x00\n        /* \"#utility.yul\":9849:9880   */\n      mstore\n        /* \"#utility.yul\":9899:9903   */\n      0x32\n        /* \"#utility.yul\":9896:9897   */\n      0x04\n        /* \"#utility.yul\":9889:9904   */\n      mstore\n        /* \"#utility.yul\":9923:9927   */\n      0x24\n        /* \"#utility.yul\":9920:9921   */\n      0x00\n        /* \"#utility.yul\":9913:9928   */\n      revert\n        /* \"#utility.yul\":9939:10066   */\n    tag_166:\n        /* \"#utility.yul\":10000:10010   */\n      0x4e487b71\n        /* \"#utility.yul\":9995:9998   */\n      0xe0\n        /* \"#utility.yul\":9991:10011   */\n      shl\n        /* \"#utility.yul\":9988:9989   */\n      0x00\n        /* \"#utility.yul\":9981:10012   */\n      mstore\n        /* \"#utility.yul\":10031:10035   */\n      0x41\n        /* \"#utility.yul\":10028:10029   */\n      0x04\n        /* \"#utility.yul\":10021:10036   */\n      mstore\n        /* \"#utility.yul\":10055:10059   */\n      0x24\n        /* \"#utility.yul\":10052:10053   */\n      0x00\n        /* \"#utility.yul\":10045:10060   */\n      revert\n        /* \"#utility.yul\":10071:10202   */\n    tag_216:\n      not(sub(shl(0xe0, 0x01), 0x01))\n        /* \"#utility.yul\":10145:10177   */\n      dup2\n      and\n        /* \"#utility.yul\":10135:10178   */\n      dup2\n      eq\n        /* \"#utility.yul\":10125:10196   */\n      tag_273\n      jumpi\n        /* \"#utility.yul\":10192:10193   */\n      0x00\n        /* \"#utility.yul\":10189:10190   */\n      dup1\n        /* \"#utility.yul\":10182:10194   */\n      revert\n        /* \"#utility.yul\":10125:10196   */\n    tag_273:\n        /* \"#utility.yul\":10071:10202   */\n      pop\n      jump\t// out\n\n    auxdata: 0xa264697066735822122062057a10638912a590bb5f14ca981b551425286ec8f2cfb2a0a22b9a4dbdaf4464736f6c63430008070033\n}\n",
				"bytecode": {
					"linkReferences": {},
					"object": "60806040523480156200001157600080fd5b5060405162001199380380620011998339810160408190526200003491620001c5565b81516200004990600090602085019062000068565b5080516200005f90600190602084019062000068565b50505062000282565b82805462000076906200022f565b90600052602060002090601f0160209004810192826200009a5760008555620000e5565b82601f10620000b557805160ff1916838001178555620000e5565b82800160010185558215620000e5579182015b82811115620000e5578251825591602001919060010190620000c8565b50620000f3929150620000f7565b5090565b5b80821115620000f35760008155600101620000f8565b600082601f8301126200012057600080fd5b81516001600160401b03808211156200013d576200013d6200026c565b604051601f8301601f19908116603f011681019082821181831017156200016857620001686200026c565b816040528381526020925086838588010111156200018557600080fd5b600091505b83821015620001a957858201830151818301840152908201906200018a565b83821115620001bb5760008385830101525b9695505050505050565b60008060408385031215620001d957600080fd5b82516001600160401b0380821115620001f157600080fd5b620001ff868387016200010e565b935060208501519150808211156200021657600080fd5b5062000225858286016200010e565b9150509250929050565b600181811c908216806200024457607f821691505b602082108114156200026657634e487b7160e01b600052602260045260246000fd5b50919050565b634e487b7160e01b600052604160045260246000fd5b610f0780620002926000396000f3fe608060405234801561001057600080fd5b50600436106100ea5760003560e01c806370a082311161008c578063b88d4fde11610066578063b88d4fde14610223578063c87b56dd14610236578063e6c3b1f614610249578063e985e9c51461026957600080fd5b806370a08231146101d157806395d89b4114610208578063a22cb4651461021057600080fd5b8063095ea7b3116100c8578063095ea7b31461016d57806323b872dd1461018257806342842e0e146101955780636352211e146101a857600080fd5b806301ffc9a7146100ef57806306fdde0314610117578063081812fc1461012c575b600080fd5b6101026100fd366004610c79565b610297565b60405190151581526020015b60405180910390f35b61011f610304565b60405161010e9190610d74565b61015561013a366004610cb3565b6004602052600090815260409020546001600160a01b031681565b6040516001600160a01b03909116815260200161010e565b61018061017b366004610c4f565b610392565b005b610180610190366004610afb565b610479565b6101806101a3366004610afb565b610637565b6101556101b6366004610cb3565b6003602052600090815260409020546001600160a01b031681565b6101fa6101df366004610aad565b6001600160a01b031660009081526002602052604090205490565b60405190815260200161010e565b61011f61073e565b61018061021e366004610c13565b61074b565b610180610231366004610b37565b6107b7565b61011f610244366004610cb3565b6108ab565b6101fa610257366004610cb3565b60056020526000908152604090205481565b610102610277366004610ac8565b600660209081526000928352604080842090915290825290205460ff1681565b60006301ffc9a760e01b6001600160e01b0319831614806102c857506380ac58cd60e01b6001600160e01b03198316145b806102e35750635b5e139f60e01b6001600160e01b03198316145b806102fe575063152a902d60e11b6001600160e01b03198316145b92915050565b6000805461031190610df6565b80601f016020809104026020016040519081016040528092919081815260200182805461033d90610df6565b801561038a5780601f1061035f5761010080835404028352916020019161038a565b820191906000526020600020905b81548152906001019060200180831161036d57829003601f168201915b505050505081565b6000818152600360205260409020546001600160a01b0316338114806103db57506001600160a01b038116600090815260066020908152604080832033845290915290205460ff165b61041d5760405162461bcd60e51b815260206004820152600e60248201526d139bdd08185d5d1a1bdc9a5e995960921b60448201526064015b60405180910390fd5b60008281526004602052604080822080546001600160a01b0319166001600160a01b0387811691821790925591518593918516917f8c5be1e5ebec7d5bd14f71427d1e84f3dd0314c0f7b2291e5b200ac8c7c3b92591a4505050565b6000818152600360205260409020546001600160a01b038481169116146104cf5760405162461bcd60e51b815260206004820152600a60248201526957524f4e472046524f4d60b01b6044820152606401610414565b6001600160a01b0382166105105760405162461bcd60e51b815260206004820152600860248201526757524f4e4720544f60c01b6044820152606401610414565b336001600160a01b038416148061054a57506001600160a01b038316600090815260066020908152604080832033845290915290205460ff165b8061056b57506000818152600460205260409020546001600160a01b031633145b6105a85760405162461bcd60e51b815260206004820152600e60248201526d1393d5081055551213d49256915160921b6044820152606401610414565b6001600160a01b0380841660008181526002602090815260408083208054600019019055938616808352848320805460010190558583526003825284832080546001600160a01b03199081168317909155600490925284832080549092169091559251849392917fddf252ad1be2c89b69c2b068fc378daa952ba7f163c4a11628f55a4df523b3ef91a4505050565b610642838383610479565b6001600160a01b0382163b15806106fa5750604051630a85bd0160e11b8082523360048301526001600160a01b03858116602484015260448301849052608060648401526000608484015290919084169063150b7a029060a401602060405180830381600087803b1580156106b657600080fd5b505af11580156106ca573d6000803e3d6000fd5b505050506040513d601f19601f820116820180604052508101906106ee9190610c96565b6001600160e01b031916145b6107395760405162461bcd60e51b815260206004820152601060248201526f155394d0519157d49150d2541251539560821b6044820152606401610414565b505050565b6001805461031190610df6565b3360008181526006602090815260408083206001600160a01b03871680855290835292819020805460ff191686151590811790915590519081529192917f17307eab39ab6107e8899845ad3d59bd9653f200f220920489ca2b5937696c31910160405180910390a35050565b6107c2848484610479565b6001600160a01b0383163b15806108665750604051630a85bd0160e11b808252906001600160a01b0385169063150b7a0290610808903390899088908890600401610d37565b602060405180830381600087803b15801561082257600080fd5b505af1158015610836573d6000803e3d6000fd5b505050506040513d601f19601f8201168201806040525081019061085a9190610c96565b6001600160e01b031916145b6108a55760405162461bcd60e51b815260206004820152601060248201526f155394d0519157d49150d2541251539560821b6044820152606401610414565b50505050565b6000818152600360205260409020546060906001600160a01b03166109125760405162461bcd60e51b815260206004820152601c60248201527f4e6f20746f6b656e2077697468207468697320496420657869737473000000006044820152606401610414565b600061092960408051602081019091526000815290565b905060008151116109495760405180602001604052806000815250610984565b60008381526005602052604090205481906109639061098b565b604051602001610974929190610cf8565b6040516020818303038152906040525b9392505050565b6060816109af5750506040805180820190915260018152600360fc1b602082015290565b8160005b81156109d957806109c381610e31565b91506109d29050600a83610d9f565b91506109b3565b60008167ffffffffffffffff8111156109f4576109f4610ea2565b6040519080825280601f01601f191660200182016040528015610a1e576020820181803683370190505b5090505b8415610a8957610a33600183610db3565b9150610a40600a86610e4c565b610a4b906030610d87565b60f81b818381518110610a6057610a60610e8c565b60200101906001600160f81b031916908160001a905350610a82600a86610d9f565b9450610a22565b949350505050565b80356001600160a01b0381168114610aa857600080fd5b919050565b600060208284031215610abf57600080fd5b61098482610a91565b60008060408385031215610adb57600080fd5b610ae483610a91565b9150610af260208401610a91565b90509250929050565b600080600060608486031215610b1057600080fd5b610b1984610a91565b9250610b2760208501610a91565b9150604084013590509250925092565b60008060008060808587031215610b4d57600080fd5b610b5685610a91565b9350610b6460208601610a91565b925060408501359150606085013567ffffffffffffffff80821115610b8857600080fd5b818701915087601f830112610b9c57600080fd5b813581811115610bae57610bae610ea2565b604051601f8201601f19908116603f01168101908382118183101715610bd657610bd6610ea2565b816040528281528a6020848701011115610bef57600080fd5b82602086016020830137600060208483010152809550505050505092959194509250565b60008060408385031215610c2657600080fd5b610c2f83610a91565b915060208301358015158114610c4457600080fd5b809150509250929050565b60008060408385031215610c6257600080fd5b610c6b83610a91565b946020939093013593505050565b600060208284031215610c8b57600080fd5b813561098481610eb8565b600060208284031215610ca857600080fd5b815161098481610eb8565b600060208284031215610cc557600080fd5b5035919050565b60008151808452610ce4816020860160208601610dca565b601f01601f19169290920160200192915050565b60008351610d0a818460208801610dca565b835190830190610d1e818360208801610dca565b64173539b7b760d91b9101908152600501949350505050565b6001600160a01b0385811682528416602082015260408101839052608060608201819052600090610d6a90830184610ccc565b9695505050505050565b6020815260006109846020830184610ccc565b60008219821115610d9a57610d9a610e60565b500190565b600082610dae57610dae610e76565b500490565b600082821015610dc557610dc5610e60565b500390565b60005b83811015610de5578181015183820152602001610dcd565b838111156108a55750506000910152565b600181811c90821680610e0a57607f821691505b60208210811415610e2b57634e487b7160e01b600052602260045260246000fd5b50919050565b6000600019821415610e4557610e45610e60565b5060010190565b600082610e5b57610e5b610e76565b500690565b634e487b7160e01b600052601160045260246000fd5b634e487b7160e01b600052601260045260246000fd5b634e487b7160e01b600052603260045260246000fd5b634e487b7160e01b600052604160045260246000fd5b6001600160e01b031981168114610ece57600080fd5b5056fea264697066735822122062057a10638912a590bb5f14ca981b551425286ec8f2cfb2a0a22b9a4dbdaf4464736f6c63430008070033",
					"opcodes": "PUSH1 0x80 PUSH1 0x40 MSTORE CALLVALUE DUP1 ISZERO PUSH3 0x11 JUMPI PUSH1 0x0 DUP1 REVERT JUMPDEST POP PUSH1 0x40 MLOAD PUSH3 0x1199 CODESIZE SUB DUP1 PUSH3 0x1199 DUP4 CODECOPY DUP2 ADD PUSH1 0x40 DUP2 SWAP1 MSTORE PUSH3 0x34 SWAP2 PUSH3 0x1C5 JUMP JUMPDEST DUP2 MLOAD PUSH3 0x49 SWAP1 PUSH1 0x0 SWAP1 PUSH1 0x20 DUP6 ADD SWAP1 PUSH3 0x68 JUMP JUMPDEST POP DUP1 MLOAD PUSH3 0x5F SWAP1 PUSH1 0x1 SWAP1 PUSH1 0x20 DUP5 ADD SWAP1 PUSH3 0x68 JUMP JUMPDEST POP POP POP PUSH3 0x282 JUMP JUMPDEST DUP3 DUP1 SLOAD PUSH3 0x76 SWAP1 PUSH3 0x22F JUMP JUMPDEST SWAP1 PUSH1 0x0 MSTORE PUSH1 0x20 PUSH1 0x0 KECCAK256 SWAP1 PUSH1 0x1F ADD PUSH1 0x20 SWAP1 DIV DUP2 ADD SWAP3 DUP3 PUSH3 0x9A JUMPI PUSH1 0x0 DUP6 SSTORE PUSH3 0xE5 JUMP JUMPDEST DUP3 PUSH1 0x1F LT PUSH3 0xB5 JUMPI DUP1 MLOAD PUSH1 0xFF NOT AND DUP4 DUP1 ADD OR DUP6 SSTORE PUSH3 0xE5 JUMP JUMPDEST DUP3 DUP1 ADD PUSH1 0x1 ADD DUP6 SSTORE DUP3 ISZERO PUSH3 0xE5 JUMPI SWAP2 DUP3 ADD JUMPDEST DUP3 DUP2 GT ISZERO PUSH3 0xE5 JUMPI DUP3 MLOAD DUP3 SSTORE SWAP2 PUSH1 0x20 ADD SWAP2 SWAP1 PUSH1 0x1 ADD SWAP1 PUSH3 0xC8 JUMP JUMPDEST POP PUSH3 0xF3 SWAP3 SWAP2 POP PUSH3 0xF7 JUMP JUMPDEST POP SWAP1 JUMP JUMPDEST JUMPDEST DUP1 DUP3 GT ISZERO PUSH3 0xF3 JUMPI PUSH1 0x0 DUP2 SSTORE PUSH1 0x1 ADD PUSH3 0xF8 JUMP JUMPDEST PUSH1 0x0 DUP3 PUSH1 0x1F DUP4 ADD SLT PUSH3 0x120 JUMPI PUSH1 0x0 DUP1 REVERT JUMPDEST DUP2 MLOAD PUSH1 0x1 PUSH1 0x1 PUSH1 0x40 SHL SUB DUP1 DUP3 GT ISZERO PUSH3 0x13D JUMPI PUSH3 0x13D PUSH3 0x26C JUMP JUMPDEST PUSH1 0x40 MLOAD PUSH1 0x1F DUP4 ADD PUSH1 0x1F NOT SWAP1 DUP2 AND PUSH1 0x3F ADD AND DUP2 ADD SWAP1 DUP3 DUP3 GT DUP2 DUP4 LT OR ISZERO PUSH3 0x168 JUMPI PUSH3 0x168 PUSH3 0x26C JUMP JUMPDEST DUP2 PUSH1 0x40 MSTORE DUP4 DUP2 MSTORE PUSH1 0x20 SWAP3 POP DUP7 DUP4 DUP6 DUP9 ADD ADD GT ISZERO PUSH3 0x185 JUMPI PUSH1 0x0 DUP1 REVERT JUMPDEST PUSH1 0x0 SWAP2 POP JUMPDEST DUP4 DUP3 LT ISZERO PUSH3 0x1A9 JUMPI DUP6 DUP3 ADD DUP4 ADD MLOAD DUP2 DUP4 ADD DUP5 ADD MSTORE SWAP1 DUP3 ADD SWAP1 PUSH3 0x18A JUMP JUMPDEST DUP4 DUP3 GT ISZERO PUSH3 0x1BB JUMPI PUSH1 0x0 DUP4 DUP6 DUP4 ADD ADD MSTORE JUMPDEST SWAP7 SWAP6 POP POP POP POP POP POP JUMP JUMPDEST PUSH1 0x0 DUP1 PUSH1 0x40 DUP4 DUP6 SUB SLT ISZERO PUSH3 0x1D9 JUMPI PUSH1 0x0 DUP1 REVERT JUMPDEST DUP3 MLOAD PUSH1 0x1 PUSH1 0x1 PUSH1 0x40 SHL SUB DUP1 DUP3 GT ISZERO PUSH3 0x1F1 JUMPI PUSH1 0x0 DUP1 REVERT JUMPDEST PUSH3 0x1FF DUP7 DUP4 DUP8 ADD PUSH3 0x10E JUMP JUMPDEST SWAP4 POP PUSH1 0x20 DUP6 ADD MLOAD SWAP2 POP DUP1 DUP3 GT ISZERO PUSH3 0x216 JUMPI PUSH1 0x0 DUP1 REVERT JUMPDEST POP PUSH3 0x225 DUP6 DUP3 DUP7 ADD PUSH3 0x10E JUMP JUMPDEST SWAP2 POP POP SWAP3 POP SWAP3 SWAP1 POP JUMP JUMPDEST PUSH1 0x1 DUP2 DUP2 SHR SWAP1 DUP3 AND DUP1 PUSH3 0x244 JUMPI PUSH1 0x7F DUP3 AND SWAP2 POP JUMPDEST PUSH1 0x20 DUP3 LT DUP2 EQ ISZERO PUSH3 0x266 JUMPI PUSH4 0x4E487B71 PUSH1 0xE0 SHL PUSH1 0x0 MSTORE PUSH1 0x22 PUSH1 0x4 MSTORE PUSH1 0x24 PUSH1 0x0 REVERT JUMPDEST POP SWAP2 SWAP1 POP JUMP JUMPDEST PUSH4 0x4E487B71 PUSH1 0xE0 SHL PUSH1 0x0 MSTORE PUSH1 0x41 PUSH1 0x4 MSTORE PUSH1 0x24 PUSH1 0x0 REVERT JUMPDEST PUSH2 0xF07 DUP1 PUSH3 0x292 PUSH1 0x0 CODECOPY PUSH1 0x0 RETURN INVALID PUSH1 0x80 PUSH1 0x40 MSTORE CALLVALUE DUP1 ISZERO PUSH2 0x10 JUMPI PUSH1 0x0 DUP1 REVERT JUMPDEST POP PUSH1 0x4 CALLDATASIZE LT PUSH2 0xEA JUMPI PUSH1 0x0 CALLDATALOAD PUSH1 0xE0 SHR DUP1 PUSH4 0x70A08231 GT PUSH2 0x8C JUMPI DUP1 PUSH4 0xB88D4FDE GT PUSH2 0x66 JUMPI DUP1 PUSH4 0xB88D4FDE EQ PUSH2 0x223 JUMPI DUP1 PUSH4 0xC87B56DD EQ PUSH2 0x236 JUMPI DUP1 PUSH4 0xE6C3B1F6 EQ PUSH2 0x249 JUMPI DUP1 PUSH4 0xE985E9C5 EQ PUSH2 0x269 JUMPI PUSH1 0x0 DUP1 REVERT JUMPDEST DUP1 PUSH4 0x70A08231 EQ PUSH2 0x1D1 JUMPI DUP1 PUSH4 0x95D89B41 EQ PUSH2 0x208 JUMPI DUP1 PUSH4 0xA22CB465 EQ PUSH2 0x210 JUMPI PUSH1 0x0 DUP1 REVERT JUMPDEST DUP1 PUSH4 0x95EA7B3 GT PUSH2 0xC8 JUMPI DUP1 PUSH4 0x95EA7B3 EQ PUSH2 0x16D JUMPI DUP1 PUSH4 0x23B872DD EQ PUSH2 0x182 JUMPI DUP1 PUSH4 0x42842E0E EQ PUSH2 0x195 JUMPI DUP1 PUSH4 0x6352211E EQ PUSH2 0x1A8 JUMPI PUSH1 0x0 DUP1 REVERT JUMPDEST DUP1 PUSH4 0x1FFC9A7 EQ PUSH2 0xEF JUMPI DUP1 PUSH4 0x6FDDE03 EQ PUSH2 0x117 JUMPI DUP1 PUSH4 0x81812FC EQ PUSH2 0x12C JUMPI JUMPDEST PUSH1 0x0 DUP1 REVERT JUMPDEST PUSH2 0x102 PUSH2 0xFD CALLDATASIZE PUSH1 0x4 PUSH2 0xC79 JUMP JUMPDEST PUSH2 0x297 JUMP JUMPDEST PUSH1 0x40 MLOAD SWAP1 ISZERO ISZERO DUP2 MSTORE PUSH1 0x20 ADD JUMPDEST PUSH1 0x40 MLOAD DUP1 SWAP2 SUB SWAP1 RETURN JUMPDEST PUSH2 0x11F PUSH2 0x304 JUMP JUMPDEST PUSH1 0x40 MLOAD PUSH2 0x10E SWAP2 SWAP1 PUSH2 0xD74 JUMP JUMPDEST PUSH2 0x155 PUSH2 0x13A CALLDATASIZE PUSH1 0x4 PUSH2 0xCB3 JUMP JUMPDEST PUSH1 0x4 PUSH1 0x20 MSTORE PUSH1 0x0 SWAP1 DUP2 MSTORE PUSH1 0x40 SWAP1 KECCAK256 SLOAD PUSH1 0x1 PUSH1 0x1 PUSH1 0xA0 SHL SUB AND DUP2 JUMP JUMPDEST PUSH1 0x40 MLOAD PUSH1 0x1 PUSH1 0x1 PUSH1 0xA0 SHL SUB SWAP1 SWAP2 AND DUP2 MSTORE PUSH1 0x20 ADD PUSH2 0x10E JUMP JUMPDEST PUSH2 0x180 PUSH2 0x17B CALLDATASIZE PUSH1 0x4 PUSH2 0xC4F JUMP JUMPDEST PUSH2 0x392 JUMP JUMPDEST STOP JUMPDEST PUSH2 0x180 PUSH2 0x190 CALLDATASIZE PUSH1 0x4 PUSH2 0xAFB JUMP JUMPDEST PUSH2 0x479 JUMP JUMPDEST PUSH2 0x180 PUSH2 0x1A3 CALLDATASIZE PUSH1 0x4 PUSH2 0xAFB JUMP JUMPDEST PUSH2 0x637 JUMP JUMPDEST PUSH2 0x155 PUSH2 0x1B6 CALLDATASIZE PUSH1 0x4 PUSH2 0xCB3 JUMP JUMPDEST PUSH1 0x3 PUSH1 0x20 MSTORE PUSH1 0x0 SWAP1 DUP2 MSTORE PUSH1 0x40 SWAP1 KECCAK256 SLOAD PUSH1 0x1 PUSH1 0x1 PUSH1 0xA0 SHL SUB AND DUP2 JUMP JUMPDEST PUSH2 0x1FA PUSH2 0x1DF CALLDATASIZE PUSH1 0x4 PUSH2 0xAAD JUMP JUMPDEST PUSH1 0x1 PUSH1 0x1 PUSH1 0xA0 SHL SUB AND PUSH1 0x0 SWAP1 DUP2 MSTORE PUSH1 0x2 PUSH1 0x20 MSTORE PUSH1 0x40 SWAP1 KECCAK256 SLOAD SWAP1 JUMP JUMPDEST PUSH1 0x40 MLOAD SWAP1 DUP2 MSTORE PUSH1 0x20 ADD PUSH2 0x10E JUMP JUMPDEST PUSH2 0x11F PUSH2 0x73E JUMP JUMPDEST PUSH2 0x180 PUSH2 0x21E CALLDATASIZE PUSH1 0x4 PUSH2 0xC13 JUMP JUMPDEST PUSH2 0x74B JUMP JUMPDEST PUSH2 0x180 PUSH2 0x231 CALLDATASIZE PUSH1 0x4 PUSH2 0xB37 JUMP JUMPDEST PUSH2 0x7B7 JUMP JUMPDEST PUSH2 0x11F PUSH2 0x244 CALLDATASIZE PUSH1 0x4 PUSH2 0xCB3 JUMP JUMPDEST PUSH2 0x8AB JUMP JUMPDEST PUSH2 0x1FA PUSH2 0x257 CALLDATASIZE PUSH1 0x4 PUSH2 0xCB3 JUMP JUMPDEST PUSH1 0x5 PUSH1 0x20 MSTORE PUSH1 0x0 SWAP1 DUP2 MSTORE PUSH1 0x40 SWAP1 KECCAK256 SLOAD DUP2 JUMP JUMPDEST PUSH2 0x102 PUSH2 0x277 CALLDATASIZE PUSH1 0x4 PUSH2 0xAC8 JUMP JUMPDEST PUSH1 0x6 PUSH1 0x20 SWAP1 DUP2 MSTORE PUSH1 0x0 SWAP3 DUP4 MSTORE PUSH1 0x40 DUP1 DUP5 KECCAK256 SWAP1 SWAP2 MSTORE SWAP1 DUP3 MSTORE SWAP1 KECCAK256 SLOAD PUSH1 0xFF AND DUP2 JUMP JUMPDEST PUSH1 0x0 PUSH4 0x1FFC9A7 PUSH1 0xE0 SHL PUSH1 0x1 PUSH1 0x1 PUSH1 0xE0 SHL SUB NOT DUP4 AND EQ DUP1 PUSH2 0x2C8 JUMPI POP PUSH4 0x80AC58CD PUSH1 0xE0 SHL PUSH1 0x1 PUSH1 0x1 PUSH1 0xE0 SHL SUB NOT DUP4 AND EQ JUMPDEST DUP1 PUSH2 0x2E3 JUMPI POP PUSH4 0x5B5E139F PUSH1 0xE0 SHL PUSH1 0x1 PUSH1 0x1 PUSH1 0xE0 SHL SUB NOT DUP4 AND EQ JUMPDEST DUP1 PUSH2 0x2FE JUMPI POP PUSH4 0x152A902D PUSH1 0xE1 SHL PUSH1 0x1 PUSH1 0x1 PUSH1 0xE0 SHL SUB NOT DUP4 AND EQ JUMPDEST SWAP3 SWAP2 POP POP JUMP JUMPDEST PUSH1 0x0 DUP1 SLOAD PUSH2 0x311 SWAP1 PUSH2 0xDF6 JUMP JUMPDEST DUP1 PUSH1 0x1F ADD PUSH1 0x20 DUP1 SWAP2 DIV MUL PUSH1 0x20 ADD PUSH1 0x40 MLOAD SWAP1 DUP2 ADD PUSH1 0x40 MSTORE DUP1 SWAP3 SWAP2 SWAP1 DUP2 DUP2 MSTORE PUSH1 0x20 ADD DUP3 DUP1 SLOAD PUSH2 0x33D SWAP1 PUSH2 0xDF6 JUMP JUMPDEST DUP1 ISZERO PUSH2 0x38A JUMPI DUP1 PUSH1 0x1F LT PUSH2 0x35F JUMPI PUSH2 0x100 DUP1 DUP4 SLOAD DIV MUL DUP4 MSTORE SWAP2 PUSH1 0x20 ADD SWAP2 PUSH2 0x38A JUMP JUMPDEST DUP3 ADD SWAP2 SWAP1 PUSH1 0x0 MSTORE PUSH1 0x20 PUSH1 0x0 KECCAK256 SWAP1 JUMPDEST DUP2 SLOAD DUP2 MSTORE SWAP1 PUSH1 0x1 ADD SWAP1 PUSH1 0x20 ADD DUP1 DUP4 GT PUSH2 0x36D JUMPI DUP3 SWAP1 SUB PUSH1 0x1F AND DUP3 ADD SWAP2 JUMPDEST POP POP POP POP POP DUP2 JUMP JUMPDEST PUSH1 0x0 DUP2 DUP2 MSTORE PUSH1 0x3 PUSH1 0x20 MSTORE PUSH1 0x40 SWAP1 KECCAK256 SLOAD PUSH1 0x1 PUSH1 0x1 PUSH1 0xA0 SHL SUB AND CALLER DUP2 EQ DUP1 PUSH2 0x3DB JUMPI POP PUSH1 0x1 PUSH1 0x1 PUSH1 0xA0 SHL SUB DUP2 AND PUSH1 0x0 SWAP1 DUP2 MSTORE PUSH1 0x6 PUSH1 0x20 SWAP1 DUP2 MSTORE PUSH1 0x40 DUP1 DUP4 KECCAK256 CALLER DUP5 MSTORE SWAP1 SWAP2 MSTORE SWAP1 KECCAK256 SLOAD PUSH1 0xFF AND JUMPDEST PUSH2 0x41D JUMPI PUSH1 0x40 MLOAD PUSH3 0x461BCD PUSH1 0xE5 SHL DUP2 MSTORE PUSH1 0x20 PUSH1 0x4 DUP3 ADD MSTORE PUSH1 0xE PUSH1 0x24 DUP3 ADD MSTORE PUSH14 0x139BDD08185D5D1A1BDC9A5E9959 PUSH1 0x92 SHL PUSH1 0x44 DUP3 ADD MSTORE PUSH1 0x64 ADD JUMPDEST PUSH1 0x40 MLOAD DUP1 SWAP2 SUB SWAP1 REVERT JUMPDEST PUSH1 0x0 DUP3 DUP2 MSTORE PUSH1 0x4 PUSH1 0x20 MSTORE PUSH1 0x40 DUP1 DUP3 KECCAK256 DUP1 SLOAD PUSH1 0x1 PUSH1 0x1 PUSH1 0xA0 SHL SUB NOT AND PUSH1 0x1 PUSH1 0x1 PUSH1 0xA0 SHL SUB DUP8 DUP2 AND SWAP2 DUP3 OR SWAP1 SWAP3 SSTORE SWAP2 MLOAD DUP6 SWAP4 SWAP2 DUP6 AND SWAP2 PUSH32 0x8C5BE1E5EBEC7D5BD14F71427D1E84F3DD0314C0F7B2291E5B200AC8C7C3B925 SWAP2 LOG4 POP POP POP JUMP JUMPDEST PUSH1 0x0 DUP2 DUP2 MSTORE PUSH1 0x3 PUSH1 0x20 MSTORE PUSH1 0x40 SWAP1 KECCAK256 SLOAD PUSH1 0x1 PUSH1 0x1 PUSH1 0xA0 SHL SUB DUP5 DUP2 AND SWAP2 AND EQ PUSH2 0x4CF JUMPI PUSH1 0x40 MLOAD PUSH3 0x461BCD PUSH1 0xE5 SHL DUP2 MSTORE PUSH1 0x20 PUSH1 0x4 DUP3 ADD MSTORE PUSH1 0xA PUSH1 0x24 DUP3 ADD MSTORE PUSH10 0x57524F4E472046524F4D PUSH1 0xB0 SHL PUSH1 0x44 DUP3 ADD MSTORE PUSH1 0x64 ADD PUSH2 0x414 JUMP JUMPDEST PUSH1 0x1 PUSH1 0x1 PUSH1 0xA0 SHL SUB DUP3 AND PUSH2 0x510 JUMPI PUSH1 0x40 MLOAD PUSH3 0x461BCD PUSH1 0xE5 SHL DUP2 MSTORE PUSH1 0x20 PUSH1 0x4 DUP3 ADD MSTORE PUSH1 0x8 PUSH1 0x24 DUP3 ADD MSTORE PUSH8 0x57524F4E4720544F PUSH1 0xC0 SHL PUSH1 0x44 DUP3 ADD MSTORE PUSH1 0x64 ADD PUSH2 0x414 JUMP JUMPDEST CALLER PUSH1 0x1 PUSH1 0x1 PUSH1 0xA0 SHL SUB DUP5 AND EQ DUP1 PUSH2 0x54A JUMPI POP PUSH1 0x1 PUSH1 0x1 PUSH1 0xA0 SHL SUB DUP4 AND PUSH1 0x0 SWAP1 DUP2 MSTORE PUSH1 0x6 PUSH1 0x20 SWAP1 DUP2 MSTORE PUSH1 0x40 DUP1 DUP4 KECCAK256 CALLER DUP5 MSTORE SWAP1 SWAP2 MSTORE SWAP1 KECCAK256 SLOAD PUSH1 0xFF AND JUMPDEST DUP1 PUSH2 0x56B JUMPI POP PUSH1 0x0 DUP2 DUP2 MSTORE PUSH1 0x4 PUSH1 0x20 MSTORE PUSH1 0x40 SWAP1 KECCAK256 SLOAD PUSH1 0x1 PUSH1 0x1 PUSH1 0xA0 SHL SUB AND CALLER EQ JUMPDEST PUSH2 0x5A8 JUMPI PUSH1 0x40 MLOAD PUSH3 0x461BCD PUSH1 0xE5 SHL DUP2 MSTORE PUSH1 0x20 PUSH1 0x4 DUP3 ADD MSTORE PUSH1 0xE PUSH1 0x24 DUP3 ADD MSTORE PUSH14 0x1393D5081055551213D492569151 PUSH1 0x92 SHL PUSH1 0x44 DUP3 ADD MSTORE PUSH1 0x64 ADD PUSH2 0x414 JUMP JUMPDEST PUSH1 0x1 PUSH1 0x1 PUSH1 0xA0 SHL SUB DUP1 DUP5 AND PUSH1 0x0 DUP2 DUP2 MSTORE PUSH1 0x2 PUSH1 0x20 SWAP1 DUP2 MSTORE PUSH1 0x40 DUP1 DUP4 KECCAK256 DUP1 SLOAD PUSH1 0x0 NOT ADD SWAP1 SSTORE SWAP4 DUP7 AND DUP1 DUP4 MSTORE DUP5 DUP4 KECCAK256 DUP1 SLOAD PUSH1 0x1 ADD SWAP1 SSTORE DUP6 DUP4 MSTORE PUSH1 0x3 DUP3 MSTORE DUP5 DUP4 KECCAK256 DUP1 SLOAD PUSH1 0x1 PUSH1 0x1 PUSH1 0xA0 SHL SUB NOT SWAP1 DUP2 AND DUP4 OR SWAP1 SWAP2 SSTORE PUSH1 0x4 SWAP1 SWAP3 MSTORE DUP5 DUP4 KECCAK256 DUP1 SLOAD SWAP1 SWAP3 AND SWAP1 SWAP2 SSTORE SWAP3 MLOAD DUP5 SWAP4 SWAP3 SWAP2 PUSH32 0xDDF252AD1BE2C89B69C2B068FC378DAA952BA7F163C4A11628F55A4DF523B3EF SWAP2 LOG4 POP POP POP JUMP JUMPDEST PUSH2 0x642 DUP4 DUP4 DUP4 PUSH2 0x479 JUMP JUMPDEST PUSH1 0x1 PUSH1 0x1 PUSH1 0xA0 SHL SUB DUP3 AND EXTCODESIZE ISZERO DUP1 PUSH2 0x6FA JUMPI POP PUSH1 0x40 MLOAD PUSH4 0xA85BD01 PUSH1 0xE1 SHL DUP1 DUP3 MSTORE CALLER PUSH1 0x4 DUP4 ADD MSTORE PUSH1 0x1 PUSH1 0x1 PUSH1 0xA0 SHL SUB DUP6 DUP2 AND PUSH1 0x24 DUP5 ADD MSTORE PUSH1 0x44 DUP4 ADD DUP5 SWAP1 MSTORE PUSH1 0x80 PUSH1 0x64 DUP5 ADD MSTORE PUSH1 0x0 PUSH1 0x84 DUP5 ADD MSTORE SWAP1 SWAP2 SWAP1 DUP5 AND SWAP1 PUSH4 0x150B7A02 SWAP1 PUSH1 0xA4 ADD PUSH1 0x20 PUSH1 0x40 MLOAD DUP1 DUP4 SUB DUP2 PUSH1 0x0 DUP8 DUP1 EXTCODESIZE ISZERO DUP1 ISZERO PUSH2 0x6B6 JUMPI PUSH1 0x0 DUP1 REVERT JUMPDEST POP GAS CALL ISZERO DUP1 ISZERO PUSH2 0x6CA JUMPI RETURNDATASIZE PUSH1 0x0 DUP1 RETURNDATACOPY RETURNDATASIZE PUSH1 0x0 REVERT JUMPDEST POP POP POP POP PUSH1 0x40 MLOAD RETURNDATASIZE PUSH1 0x1F NOT PUSH1 0x1F DUP3 ADD AND DUP3 ADD DUP1 PUSH1 0x40 MSTORE POP DUP2 ADD SWAP1 PUSH2 0x6EE SWAP2 SWAP1 PUSH2 0xC96 JUMP JUMPDEST PUSH1 0x1 PUSH1 0x1 PUSH1 0xE0 SHL SUB NOT AND EQ JUMPDEST PUSH2 0x739 JUMPI PUSH1 0x40 MLOAD PUSH3 0x461BCD PUSH1 0xE5 SHL DUP2 MSTORE PUSH1 0x20 PUSH1 0x4 DUP3 ADD MSTORE PUSH1 0x10 PUSH1 0x24 DUP3 ADD MSTORE PUSH16 0x155394D0519157D49150D25412515395 PUSH1 0x82 SHL PUSH1 0x44 DUP3 ADD MSTORE PUSH1 0x64 ADD PUSH2 0x414 JUMP JUMPDEST POP POP POP JUMP JUMPDEST PUSH1 0x1 DUP1 SLOAD PUSH2 0x311 SWAP1 PUSH2 0xDF6 JUMP JUMPDEST CALLER PUSH1 0x0 DUP2 DUP2 MSTORE PUSH1 0x6 PUSH1 0x20 SWAP1 DUP2 MSTORE PUSH1 0x40 DUP1 DUP4 KECCAK256 PUSH1 0x1 PUSH1 0x1 PUSH1 0xA0 SHL SUB DUP8 AND DUP1 DUP6 MSTORE SWAP1 DUP4 MSTORE SWAP3 DUP2 SWAP1 KECCAK256 DUP1 SLOAD PUSH1 0xFF NOT AND DUP7 ISZERO ISZERO SWAP1 DUP2 OR SWAP1 SWAP2 SSTORE SWAP1 MLOAD SWAP1 DUP2 MSTORE SWAP2 SWAP3 SWAP2 PUSH32 0x17307EAB39AB6107E8899845AD3D59BD9653F200F220920489CA2B5937696C31 SWAP2 ADD PUSH1 0x40 MLOAD DUP1 SWAP2 SUB SWAP1 LOG3 POP POP JUMP JUMPDEST PUSH2 0x7C2 DUP5 DUP5 DUP5 PUSH2 0x479 JUMP JUMPDEST PUSH1 0x1 PUSH1 0x1 PUSH1 0xA0 SHL SUB DUP4 AND EXTCODESIZE ISZERO DUP1 PUSH2 0x866 JUMPI POP PUSH1 0x40 MLOAD PUSH4 0xA85BD01 PUSH1 0xE1 SHL DUP1 DUP3 MSTORE SWAP1 PUSH1 0x1 PUSH1 0x1 PUSH1 0xA0 SHL SUB DUP6 AND SWAP1 PUSH4 0x150B7A02 SWAP1 PUSH2 0x808 SWAP1 CALLER SWAP1 DUP10 SWAP1 DUP9 SWAP1 DUP9 SWAP1 PUSH1 0x4 ADD PUSH2 0xD37 JUMP JUMPDEST PUSH1 0x20 PUSH1 0x40 MLOAD DUP1 DUP4 SUB DUP2 PUSH1 0x0 DUP8 DUP1 EXTCODESIZE ISZERO DUP1 ISZERO PUSH2 0x822 JUMPI PUSH1 0x0 DUP1 REVERT JUMPDEST POP GAS CALL ISZERO DUP1 ISZERO PUSH2 0x836 JUMPI RETURNDATASIZE PUSH1 0x0 DUP1 RETURNDATACOPY RETURNDATASIZE PUSH1 0x0 REVERT JUMPDEST POP POP POP POP PUSH1 0x40 MLOAD RETURNDATASIZE PUSH1 0x1F NOT PUSH1 0x1F DUP3 ADD AND DUP3 ADD DUP1 PUSH1 0x40 MSTORE POP DUP2 ADD SWAP1 PUSH2 0x85A SWAP2 SWAP1 PUSH2 0xC96 JUMP JUMPDEST PUSH1 0x1 PUSH1 0x1 PUSH1 0xE0 SHL SUB NOT AND EQ JUMPDEST PUSH2 0x8A5 JUMPI PUSH1 0x40 MLOAD PUSH3 0x461BCD PUSH1 0xE5 SHL DUP2 MSTORE PUSH1 0x20 PUSH1 0x4 DUP3 ADD MSTORE PUSH1 0x10 PUSH1 0x24 DUP3 ADD MSTORE PUSH16 0x155394D0519157D49150D25412515395 PUSH1 0x82 SHL PUSH1 0x44 DUP3 ADD MSTORE PUSH1 0x64 ADD PUSH2 0x414 JUMP JUMPDEST POP POP POP POP JUMP JUMPDEST PUSH1 0x0 DUP2 DUP2 MSTORE PUSH1 0x3 PUSH1 0x20 MSTORE PUSH1 0x40 SWAP1 KECCAK256 SLOAD PUSH1 0x60 SWAP1 PUSH1 0x1 PUSH1 0x1 PUSH1 0xA0 SHL SUB AND PUSH2 0x912 JUMPI PUSH1 0x40 MLOAD PUSH3 0x461BCD PUSH1 0xE5 SHL DUP2 MSTORE PUSH1 0x20 PUSH1 0x4 DUP3 ADD MSTORE PUSH1 0x1C PUSH1 0x24 DUP3 ADD MSTORE PUSH32 0x4E6F20746F6B656E207769746820746869732049642065786973747300000000 PUSH1 0x44 DUP3 ADD MSTORE PUSH1 0x64 ADD PUSH2 0x414 JUMP JUMPDEST PUSH1 0x0 PUSH2 0x929 PUSH1 0x40 DUP1 MLOAD PUSH1 0x20 DUP2 ADD SWAP1 SWAP2 MSTORE PUSH1 0x0 DUP2 MSTORE SWAP1 JUMP JUMPDEST SWAP1 POP PUSH1 0x0 DUP2 MLOAD GT PUSH2 0x949 JUMPI PUSH1 0x40 MLOAD DUP1 PUSH1 0x20 ADD PUSH1 0x40 MSTORE DUP1 PUSH1 0x0 DUP2 MSTORE POP PUSH2 0x984 JUMP JUMPDEST PUSH1 0x0 DUP4 DUP2 MSTORE PUSH1 0x5 PUSH1 0x20 MSTORE PUSH1 0x40 SWAP1 KECCAK256 SLOAD DUP2 SWAP1 PUSH2 0x963 SWAP1 PUSH2 0x98B JUMP JUMPDEST PUSH1 0x40 MLOAD PUSH1 0x20 ADD PUSH2 0x974 SWAP3 SWAP2 SWAP1 PUSH2 0xCF8 JUMP JUMPDEST PUSH1 0x40 MLOAD PUSH1 0x20 DUP2 DUP4 SUB SUB DUP2 MSTORE SWAP1 PUSH1 0x40 MSTORE JUMPDEST SWAP4 SWAP3 POP POP POP JUMP JUMPDEST PUSH1 0x60 DUP2 PUSH2 0x9AF JUMPI POP POP PUSH1 0x40 DUP1 MLOAD DUP1 DUP3 ADD SWAP1 SWAP2 MSTORE PUSH1 0x1 DUP2 MSTORE PUSH1 0x3 PUSH1 0xFC SHL PUSH1 0x20 DUP3 ADD MSTORE SWAP1 JUMP JUMPDEST DUP2 PUSH1 0x0 JUMPDEST DUP2 ISZERO PUSH2 0x9D9 JUMPI DUP1 PUSH2 0x9C3 DUP2 PUSH2 0xE31 JUMP JUMPDEST SWAP2 POP PUSH2 0x9D2 SWAP1 POP PUSH1 0xA DUP4 PUSH2 0xD9F JUMP JUMPDEST SWAP2 POP PUSH2 0x9B3 JUMP JUMPDEST PUSH1 0x0 DUP2 PUSH8 0xFFFFFFFFFFFFFFFF DUP2 GT ISZERO PUSH2 0x9F4 JUMPI PUSH2 0x9F4 PUSH2 0xEA2 JUMP JUMPDEST PUSH1 0x40 MLOAD SWAP1 DUP1 DUP3 MSTORE DUP1 PUSH1 0x1F ADD PUSH1 0x1F NOT AND PUSH1 0x20 ADD DUP3 ADD PUSH1 0x40 MSTORE DUP1 ISZERO PUSH2 0xA1E JUMPI PUSH1 0x20 DUP3 ADD DUP2 DUP1 CALLDATASIZE DUP4 CALLDATACOPY ADD SWAP1 POP JUMPDEST POP SWAP1 POP JUMPDEST DUP5 ISZERO PUSH2 0xA89 JUMPI PUSH2 0xA33 PUSH1 0x1 DUP4 PUSH2 0xDB3 JUMP JUMPDEST SWAP2 POP PUSH2 0xA40 PUSH1 0xA DUP7 PUSH2 0xE4C JUMP JUMPDEST PUSH2 0xA4B SWAP1 PUSH1 0x30 PUSH2 0xD87 JUMP JUMPDEST PUSH1 0xF8 SHL DUP2 DUP4 DUP2 MLOAD DUP2 LT PUSH2 0xA60 JUMPI PUSH2 0xA60 PUSH2 0xE8C JUMP JUMPDEST PUSH1 0x20 ADD ADD SWAP1 PUSH1 0x1 PUSH1 0x1 PUSH1 0xF8 SHL SUB NOT AND SWAP1 DUP2 PUSH1 0x0 BYTE SWAP1 MSTORE8 POP PUSH2 0xA82 PUSH1 0xA DUP7 PUSH2 0xD9F JUMP JUMPDEST SWAP5 POP PUSH2 0xA22 JUMP JUMPDEST SWAP5 SWAP4 POP POP POP POP JUMP JUMPDEST DUP1 CALLDATALOAD PUSH1 0x1 PUSH1 0x1 PUSH1 0xA0 SHL SUB DUP2 AND DUP2 EQ PUSH2 0xAA8 JUMPI PUSH1 0x0 DUP1 REVERT JUMPDEST SWAP2 SWAP1 POP JUMP JUMPDEST PUSH1 0x0 PUSH1 0x20 DUP3 DUP5 SUB SLT ISZERO PUSH2 0xABF JUMPI PUSH1 0x0 DUP1 REVERT JUMPDEST PUSH2 0x984 DUP3 PUSH2 0xA91 JUMP JUMPDEST PUSH1 0x0 DUP1 PUSH1 0x40 DUP4 DUP6 SUB SLT ISZERO PUSH2 0xADB JUMPI PUSH1 0x0 DUP1 REVERT JUMPDEST PUSH2 0xAE4 DUP4 PUSH2 0xA91 JUMP JUMPDEST SWAP2 POP PUSH2 0xAF2 PUSH1 0x20 DUP5 ADD PUSH2 0xA91 JUMP JUMPDEST SWAP1 POP SWAP3 POP SWAP3 SWAP1 POP JUMP JUMPDEST PUSH1 0x0 DUP1 PUSH1 0x0 PUSH1 0x60 DUP5 DUP7 SUB SLT ISZERO PUSH2 0xB10 JUMPI PUSH1 0x0 DUP1 REVERT JUMPDEST PUSH2 0xB19 DUP5 PUSH2 0xA91 JUMP JUMPDEST SWAP3 POP PUSH2 0xB27 PUSH1 0x20 DUP6 ADD PUSH2 0xA91 JUMP JUMPDEST SWAP2 POP PUSH1 0x40 DUP5 ADD CALLDATALOAD SWAP1 POP SWAP3 POP SWAP3 POP SWAP3 JUMP JUMPDEST PUSH1 0x0 DUP1 PUSH1 0x0 DUP1 PUSH1 0x80 DUP6 DUP8 SUB SLT ISZERO PUSH2 0xB4D JUMPI PUSH1 0x0 DUP1 REVERT JUMPDEST PUSH2 0xB56 DUP6 PUSH2 0xA91 JUMP JUMPDEST SWAP4 POP PUSH2 0xB64 PUSH1 0x20 DUP7 ADD PUSH2 0xA91 JUMP JUMPDEST SWAP3 POP PUSH1 0x40 DUP6 ADD CALLDATALOAD SWAP2 POP PUSH1 0x60 DUP6 ADD CALLDATALOAD PUSH8 0xFFFFFFFFFFFFFFFF DUP1 DUP3 GT ISZERO PUSH2 0xB88 JUMPI PUSH1 0x0 DUP1 REVERT JUMPDEST DUP2 DUP8 ADD SWAP2 POP DUP8 PUSH1 0x1F DUP4 ADD SLT PUSH2 0xB9C JUMPI PUSH1 0x0 DUP1 REVERT JUMPDEST DUP2 CALLDATALOAD DUP2 DUP2 GT ISZERO PUSH2 0xBAE JUMPI PUSH2 0xBAE PUSH2 0xEA2 JUMP JUMPDEST PUSH1 0x40 MLOAD PUSH1 0x1F DUP3 ADD PUSH1 0x1F NOT SWAP1 DUP2 AND PUSH1 0x3F ADD AND DUP2 ADD SWAP1 DUP4 DUP3 GT DUP2 DUP4 LT OR ISZERO PUSH2 0xBD6 JUMPI PUSH2 0xBD6 PUSH2 0xEA2 JUMP JUMPDEST DUP2 PUSH1 0x40 MSTORE DUP3 DUP2 MSTORE DUP11 PUSH1 0x20 DUP5 DUP8 ADD ADD GT ISZERO PUSH2 0xBEF JUMPI PUSH1 0x0 DUP1 REVERT JUMPDEST DUP3 PUSH1 0x20 DUP7 ADD PUSH1 0x20 DUP4 ADD CALLDATACOPY PUSH1 0x0 PUSH1 0x20 DUP5 DUP4 ADD ADD MSTORE DUP1 SWAP6 POP POP POP POP POP POP SWAP3 SWAP6 SWAP2 SWAP5 POP SWAP3 POP JUMP JUMPDEST PUSH1 0x0 DUP1 PUSH1 0x40 DUP4 DUP6 SUB SLT ISZERO PUSH2 0xC26 JUMPI PUSH1 0x0 DUP1 REVERT JUMPDEST PUSH2 0xC2F DUP4 PUSH2 0xA91 JUMP JUMPDEST SWAP2 POP PUSH1 0x20 DUP4 ADD CALLDATALOAD DUP1 ISZERO ISZERO DUP2 EQ PUSH2 0xC44 JUMPI PUSH1 0x0 DUP1 REVERT JUMPDEST DUP1 SWAP2 POP POP SWAP3 POP SWAP3 SWAP1 POP JUMP JUMPDEST PUSH1 0x0 DUP1 PUSH1 0x40 DUP4 DUP6 SUB SLT ISZERO PUSH2 0xC62 JUMPI PUSH1 0x0 DUP1 REVERT JUMPDEST PUSH2 0xC6B DUP4 PUSH2 0xA91 JUMP JUMPDEST SWAP5 PUSH1 0x20 SWAP4 SWAP1 SWAP4 ADD CALLDATALOAD SWAP4 POP POP POP JUMP JUMPDEST PUSH1 0x0 PUSH1 0x20 DUP3 DUP5 SUB SLT ISZERO PUSH2 0xC8B JUMPI PUSH1 0x0 DUP1 REVERT JUMPDEST DUP2 CALLDATALOAD PUSH2 0x984 DUP2 PUSH2 0xEB8 JUMP JUMPDEST PUSH1 0x0 PUSH1 0x20 DUP3 DUP5 SUB SLT ISZERO PUSH2 0xCA8 JUMPI PUSH1 0x0 DUP1 REVERT JUMPDEST DUP2 MLOAD PUSH2 0x984 DUP2 PUSH2 0xEB8 JUMP JUMPDEST PUSH1 0x0 PUSH1 0x20 DUP3 DUP5 SUB SLT ISZERO PUSH2 0xCC5 JUMPI PUSH1 0x0 DUP1 REVERT JUMPDEST POP CALLDATALOAD SWAP2 SWAP1 POP JUMP JUMPDEST PUSH1 0x0 DUP2 MLOAD DUP1 DUP5 MSTORE PUSH2 0xCE4 DUP2 PUSH1 0x20 DUP7 ADD PUSH1 0x20 DUP7 ADD PUSH2 0xDCA JUMP JUMPDEST PUSH1 0x1F ADD PUSH1 0x1F NOT AND SWAP3 SWAP1 SWAP3 ADD PUSH1 0x20 ADD SWAP3 SWAP2 POP POP JUMP JUMPDEST PUSH1 0x0 DUP4 MLOAD PUSH2 0xD0A DUP2 DUP5 PUSH1 0x20 DUP9 ADD PUSH2 0xDCA JUMP JUMPDEST DUP4 MLOAD SWAP1 DUP4 ADD SWAP1 PUSH2 0xD1E DUP2 DUP4 PUSH1 0x20 DUP9 ADD PUSH2 0xDCA JUMP JUMPDEST PUSH5 0x173539B7B7 PUSH1 0xD9 SHL SWAP2 ADD SWAP1 DUP2 MSTORE PUSH1 0x5 ADD SWAP5 SWAP4 POP POP POP POP JUMP JUMPDEST PUSH1 0x1 PUSH1 0x1 PUSH1 0xA0 SHL SUB DUP6 DUP2 AND DUP3 MSTORE DUP5 AND PUSH1 0x20 DUP3 ADD MSTORE PUSH1 0x40 DUP2 ADD DUP4 SWAP1 MSTORE PUSH1 0x80 PUSH1 0x60 DUP3 ADD DUP2 SWAP1 MSTORE PUSH1 0x0 SWAP1 PUSH2 0xD6A SWAP1 DUP4 ADD DUP5 PUSH2 0xCCC JUMP JUMPDEST SWAP7 SWAP6 POP POP POP POP POP POP JUMP JUMPDEST PUSH1 0x20 DUP2 MSTORE PUSH1 0x0 PUSH2 0x984 PUSH1 0x20 DUP4 ADD DUP5 PUSH2 0xCCC JUMP JUMPDEST PUSH1 0x0 DUP3 NOT DUP3 GT ISZERO PUSH2 0xD9A JUMPI PUSH2 0xD9A PUSH2 0xE60 JUMP JUMPDEST POP ADD SWAP1 JUMP JUMPDEST PUSH1 0x0 DUP3 PUSH2 0xDAE JUMPI PUSH2 0xDAE PUSH2 0xE76 JUMP JUMPDEST POP DIV SWAP1 JUMP JUMPDEST PUSH1 0x0 DUP3 DUP3 LT ISZERO PUSH2 0xDC5 JUMPI PUSH2 0xDC5 PUSH2 0xE60 JUMP JUMPDEST POP SUB SWAP1 JUMP JUMPDEST PUSH1 0x0 JUMPDEST DUP4 DUP2 LT ISZERO PUSH2 0xDE5 JUMPI DUP2 DUP2 ADD MLOAD DUP4 DUP3 ADD MSTORE PUSH1 0x20 ADD PUSH2 0xDCD JUMP JUMPDEST DUP4 DUP2 GT ISZERO PUSH2 0x8A5 JUMPI POP POP PUSH1 0x0 SWAP2 ADD MSTORE JUMP JUMPDEST PUSH1 0x1 DUP2 DUP2 SHR SWAP1 DUP3 AND DUP1 PUSH2 0xE0A JUMPI PUSH1 0x7F DUP3 AND SWAP2 POP JUMPDEST PUSH1 0x20 DUP3 LT DUP2 EQ ISZERO PUSH2 0xE2B JUMPI PUSH4 0x4E487B71 PUSH1 0xE0 SHL PUSH1 0x0 MSTORE PUSH1 0x22 PUSH1 0x4 MSTORE PUSH1 0x24 PUSH1 0x0 REVERT JUMPDEST POP SWAP2 SWAP1 POP JUMP JUMPDEST PUSH1 0x0 PUSH1 0x0 NOT DUP3 EQ ISZERO PUSH2 0xE45 JUMPI PUSH2 0xE45 PUSH2 0xE60 JUMP JUMPDEST POP PUSH1 0x1 ADD SWAP1 JUMP JUMPDEST PUSH1 0x0 DUP3 PUSH2 0xE5B JUMPI PUSH2 0xE5B PUSH2 0xE76 JUMP JUMPDEST POP MOD SWAP1 JUMP JUMPDEST PUSH4 0x4E487B71 PUSH1 0xE0 SHL PUSH1 0x0 MSTORE PUSH1 0x11 PUSH1 0x4 MSTORE PUSH1 0x24 PUSH1 0x0 REVERT JUMPDEST PUSH4 0x4E487B71 PUSH1 0xE0 SHL PUSH1 0x0 MSTORE PUSH1 0x12 PUSH1 0x4 MSTORE PUSH1 0x24 PUSH1 0x0 REVERT JUMPDEST PUSH4 0x4E487B71 PUSH1 0xE0 SHL PUSH1 0x0 MSTORE PUSH1 0x32 PUSH1 0x4 MSTORE PUSH1 0x24 PUSH1 0x0 REVERT JUMPDEST PUSH4 0x4E487B71 PUSH1 0xE0 SHL PUSH1 0x0 MSTORE PUSH1 0x41 PUSH1 0x4 MSTORE PUSH1 0x24 PUSH1 0x0 REVERT JUMPDEST PUSH1 0x1 PUSH1 0x1 PUSH1 0xE0 SHL SUB NOT DUP2 AND DUP2 EQ PUSH2 0xECE JUMPI PUSH1 0x0 DUP1 REVERT JUMPDEST POP JUMP INVALID LOG2 PUSH5 0x6970667358 0x22 SLT KECCAK256 PUSH3 0x57A10 PUSH4 0x8912A590 0xBB 0x5F EQ 0xCA SWAP9 SHL SSTORE EQ 0x25 0x28 PUSH15 0xC8F2CFB2A0A22B9A4DBDAF4464736F PUSH13 0x63430008070033000000000000 "
				},
				"gasEstimates": {
					"creation": {
						"codeDepositCost": "769400",
						"executionCost": "infinite",
						"totalCost": "infinite"
					},
					"external": {
						"approve(address,uint256)": "31087",
						"balanceOf(address)": "2560",
						"getApproved(uint256)": "2545",
						"isApprovedForAll(address,address)": "infinite",
						"name()": "infinite",
						"ownerOf(uint256)": "2566",
						"safeTransferFrom(address,address,uint256)": "infinite",
						"safeTransferFrom(address,address,uint256,bytes)": "infinite",
						"setApprovalForAll(address,bool)": "26652",
						"supportsInterface(bytes4)": "589",
						"symbol()": "infinite",
						"tokenType(uint256)": "2504",
						"tokenURI(uint256)": "infinite",
						"transferFrom(address,address,uint256)": "infinite"
					},
					"internal": {
						"_baseURI()": "infinite",
						"_burn(uint256)": "infinite",
						"_exists(uint256)": "infinite",
						"_mint(address,uint256,uint8)": "infinite"
					}
				},
				"methodIdentifiers": {
					"approve(address,uint256)": "095ea7b3",
					"balanceOf(address)": "70a08231",
					"getApproved(uint256)": "081812fc",
					"isApprovedForAll(address,address)": "e985e9c5",
					"name()": "06fdde03",
					"ownerOf(uint256)": "6352211e",
					"safeTransferFrom(address,address,uint256)": "42842e0e",
					"safeTransferFrom(address,address,uint256,bytes)": "b88d4fde",
					"setApprovalForAll(address,bool)": "a22cb465",
					"supportsInterface(bytes4)": "01ffc9a7",
					"symbol()": "95d89b41",
					"tokenType(uint256)": "e6c3b1f6",
					"tokenURI(uint256)": "c87b56dd",
					"transferFrom(address,address,uint256)": "23b872dd"
				}
			},
			"storageLayout": {
				"storage": [
					{
						"astId": 76,
						"contract": "ERC721.sol:ERC721",
						"label": "name",
						"offset": 0,
						"slot": "0",
						"type": "t_string_storage"
					},
					{
						"astId": 78,
						"contract": "ERC721.sol:ERC721",
						"label": "symbol",
						"offset": 0,
						"slot": "1",
						"type": "t_string_storage"
					},
					{
						"astId": 82,
						"contract": "ERC721.sol:ERC721",
						"label": "_balanceOf",
						"offset": 0,
						"slot": "2",
						"type": "t_mapping(t_address,t_uint256)"
					},
					{
						"astId": 86,
						"contract": "ERC721.sol:ERC721",
						"label": "ownerOf",
						"offset": 0,
						"slot": "3",
						"type": "t_mapping(t_uint256,t_address)"
					},
					{
						"astId": 90,
						"contract": "ERC721.sol:ERC721",
						"label": "getApproved",
						"offset": 0,
						"slot": "4",
						"type": "t_mapping(t_uint256,t_address)"
					},
					{
						"astId": 94,
						"contract": "ERC721.sol:ERC721",
						"label": "tokenType",
						"offset": 0,
						"slot": "5",
						"type": "t_mapping(t_uint256,t_uint256)"
					},
					{
						"astId": 100,
						"contract": "ERC721.sol:ERC721",
						"label": "isApprovedForAll",
						"offset": 0,
						"slot": "6",
						"type": "t_mapping(t_address,t_mapping(t_address,t_bool))"
					}
				],
				"types": {
					"t_address": {
						"encoding": "inplace",
						"label": "address",
						"numberOfBytes": "20"
					},
					"t_bool": {
						"encoding": "inplace",
						"label": "bool",
						"numberOfBytes": "1"
					},
					"t_mapping(t_address,t_bool)": {
						"encoding": "mapping",
						"key": "t_address",
						"label": "mapping(address => bool)",
						"numberOfBytes": "32",
						"value": "t_bool"
					},
					"t_mapping(t_address,t_mapping(t_address,t_bool))": {
						"encoding": "mapping",
						"key": "t_address",
						"label": "mapping(address => mapping(address => bool))",
						"numberOfBytes": "32",
						"value": "t_mapping(t_address,t_bool)"
					},
					"t_mapping(t_address,t_uint256)": {
						"encoding": "mapping",
						"key": "t_address",
						"label": "mapping(address => uint256)",
						"numberOfBytes": "32",
						"value": "t_uint256"
					},
					"t_mapping(t_uint256,t_address)": {
						"encoding": "mapping",
						"key": "t_uint256",
						"label": "mapping(uint256 => address)",
						"numberOfBytes": "32",
						"value": "t_address"
					},
					"t_mapping(t_uint256,t_uint256)": {
						"encoding": "mapping",
						"key": "t_uint256",
						"label": "mapping(uint256 => uint256)",
						"numberOfBytes": "32",
						"value": "t_uint256"
					},
					"t_string_storage": {
						"encoding": "bytes",
						"label": "string",
						"numberOfBytes": "32"
					},
					"t_uint256": {
						"encoding": "inplace",
						"label": "uint256",
						"numberOfBytes": "32"
					}
				}
			},
			"userdoc": {
				"kind": "user",
				"methods": {},
				"version": 1
			}
		}
	}
}