{
	"NftContract.sol": {
		"PantherNft": {
			"abi": [
				{
					"inputs": [
						{
							"internalType": "string",
							"name": "_name",
							"type": "string"
						},
						{
							"internalType": "string",
							"name": "_symbol",
							"type": "string"
						},
						{
							"internalType": "string",
							"name": "_base",
							"type": "string"
						},
						{
							"internalType": "uint256",
							"name": "mint_cost",
							"type": "uint256"
						},
						{
							"internalType": "uint96",
							"name": "_fees",
							"type": "uint96"
						},
						{
							"internalType": "address",
							"name": "_signAddress",
							"type": "address"
						}
					],
					"stateMutability": "nonpayable",
					"type": "constructor"
				},
				{
					"anonymous": false,
					"inputs": [
						{
							"indexed": true,
							"internalType": "address",
							"name": "owner",
							"type": "address"
						},
						{
							"indexed": true,
							"internalType": "address",
							"name": "spender",
							"type": "address"
						},
						{
							"indexed": true,
							"internalType": "uint256",
							"name": "id",
							"type": "uint256"
						}
					],
					"name": "Approval",
					"type": "event"
				},
				{
					"anonymous": false,
					"inputs": [
						{
							"indexed": true,
							"internalType": "address",
							"name": "owner",
							"type": "address"
						},
						{
							"indexed": true,
							"internalType": "address",
							"name": "operator",
							"type": "address"
						},
						{
							"indexed": false,
							"internalType": "bool",
							"name": "approved",
							"type": "bool"
						}
					],
					"name": "ApprovalForAll",
					"type": "event"
				},
				{
					"anonymous": false,
					"inputs": [
						{
							"indexed": true,
							"internalType": "address",
							"name": "previousOwner",
							"type": "address"
						},
						{
							"indexed": true,
							"internalType": "address",
							"name": "newOwner",
							"type": "address"
						}
					],
					"name": "OwnershipTransfered",
					"type": "event"
				},
				{
					"anonymous": false,
					"inputs": [
						{
							"indexed": true,
							"internalType": "address",
							"name": "from",
							"type": "address"
						},
						{
							"indexed": true,
							"internalType": "address",
							"name": "to",
							"type": "address"
						},
						{
							"indexed": true,
							"internalType": "uint256",
							"name": "id",
							"type": "uint256"
						}
					],
					"name": "Transfer",
					"type": "event"
				},
				{
					"inputs": [],
					"name": "MAX_SUPPLY",
					"outputs": [
						{
							"internalType": "uint120",
							"name": "",
							"type": "uint120"
						}
					],
					"stateMutability": "view",
					"type": "function"
				},
				{
					"inputs": [
						{
							"internalType": "address",
							"name": "spender",
							"type": "address"
						},
						{
							"internalType": "uint256",
							"name": "id",
							"type": "uint256"
						}
					],
					"name": "approve",
					"outputs": [],
					"stateMutability": "nonpayable",
					"type": "function"
				},
				{
					"inputs": [
						{
							"internalType": "address",
							"name": "_acc",
							"type": "address"
						}
					],
					"name": "balanceOf",
					"outputs": [
						{
							"internalType": "uint256",
							"name": "",
							"type": "uint256"
						}
					],
					"stateMutability": "view",
					"type": "function"
				},
				{
					"inputs": [],
					"name": "baseURI",
					"outputs": [
						{
							"internalType": "string",
							"name": "",
							"type": "string"
						}
					],
					"stateMutability": "view",
					"type": "function"
				},
				{
					"inputs": [
						{
							"internalType": "uint256",
							"name": "_salePrice",
							"type": "uint256"
						}
					],
					"name": "calculateRoyalty",
					"outputs": [
						{
							"internalType": "uint256",
							"name": "",
							"type": "uint256"
						}
					],
					"stateMutability": "view",
					"type": "function"
				},
				{
					"inputs": [
						{
							"internalType": "address",
							"name": "to",
							"type": "address"
						},
						{
							"internalType": "uint256",
							"name": "val",
							"type": "uint256"
						},
						{
							"internalType": "bytes",
							"name": "signature",
							"type": "bytes"
						}
					],
					"name": "check",
					"outputs": [
						{
							"internalType": "address",
							"name": "",
							"type": "address"
						}
					],
					"stateMutability": "view",
					"type": "function"
				},
				{
					"inputs": [
						{
							"internalType": "uint256",
							"name": "",
							"type": "uint256"
						}
					],
					"name": "getApproved",
					"outputs": [
						{
							"internalType": "address",
							"name": "",
							"type": "address"
						}
					],
					"stateMutability": "view",
					"type": "function"
				},
				{
					"inputs": [
						{
							"internalType": "address",
							"name": "",
							"type": "address"
						},
						{
							"internalType": "address",
							"name": "",
							"type": "address"
						}
					],
					"name": "isApprovedForAll",
					"outputs": [
						{
							"internalType": "bool",
							"name": "",
							"type": "bool"
						}
					],
					"stateMutability": "view",
					"type": "function"
				},
				{
					"inputs": [],
					"name": "mintCost",
					"outputs": [
						{
							"internalType": "uint256",
							"name": "",
							"type": "uint256"
						}
					],
					"stateMutability": "view",
					"type": "function"
				},
				{
					"inputs": [
						{
							"internalType": "address",
							"name": "to",
							"type": "address"
						},
						{
							"internalType": "uint8",
							"name": "idType",
							"type": "uint8"
						}
					],
					"name": "mintOwner",
					"outputs": [
						{
							"internalType": "uint256",
							"name": "",
							"type": "uint256"
						}
					],
					"stateMutability": "nonpayable",
					"type": "function"
				},
				{
					"inputs": [
						{
							"internalType": "address",
							"name": "to",
							"type": "address"
						}
					],
					"name": "mintPublic",
					"outputs": [
						{
							"internalType": "uint256",
							"name": "",
							"type": "uint256"
						}
					],
					"stateMutability": "payable",
					"type": "function"
				},
				{
					"inputs": [
						{
							"internalType": "address",
							"name": "to",
							"type": "address"
						},
						{
							"internalType": "uint256",
							"name": "val",
							"type": "uint256"
						},
						{
							"internalType": "bytes",
							"name": "signature",
							"type": "bytes"
						}
					],
					"name": "mintWhitelist",
					"outputs": [
						{
							"internalType": "uint256",
							"name": "",
							"type": "uint256"
						}
					],
					"stateMutability": "payable",
					"type": "function"
				},
				{
					"inputs": [],
					"name": "name",
					"outputs": [
						{
							"internalType": "string",
							"name": "",
							"type": "string"
						}
					],
					"stateMutability": "view",
					"type": "function"
				},
				{
					"inputs": [],
					"name": "owner",
					"outputs": [
						{
							"internalType": "address",
							"name": "",
							"type": "address"
						}
					],
					"stateMutability": "view",
					"type": "function"
				},
				{
					"inputs": [
						{
							"internalType": "uint256",
							"name": "",
							"type": "uint256"
						}
					],
					"name": "ownerOf",
					"outputs": [
						{
							"internalType": "address",
							"name": "",
							"type": "address"
						}
					],
					"stateMutability": "view",
					"type": "function"
				},
				{
					"inputs": [],
					"name": "publicAllowed",
					"outputs": [
						{
							"internalType": "bool",
							"name": "",
							"type": "bool"
						}
					],
					"stateMutability": "view",
					"type": "function"
				},
				{
					"inputs": [],
					"name": "royaltyAddress",
					"outputs": [
						{
							"internalType": "address",
							"name": "",
							"type": "address"
						}
					],
					"stateMutability": "view",
					"type": "function"
				},
				{
					"inputs": [],
					"name": "royaltyFeesInBips",
					"outputs": [
						{
							"internalType": "uint96",
							"name": "",
							"type": "uint96"
						}
					],
					"stateMutability": "view",
					"type": "function"
				},
				{
					"inputs": [
						{
							"internalType": "uint256",
							"name": "_tokenId",
							"type": "uint256"
						},
						{
							"internalType": "uint256",
							"name": "_salePrice",
							"type": "uint256"
						}
					],
					"name": "royaltyInfo",
					"outputs": [
						{
							"internalType": "address",
							"name": "",
							"type": "address"
						},
						{
							"internalType": "uint256",
							"name": "",
							"type": "uint256"
						}
					],
					"stateMutability": "view",
					"type": "function"
				},
				{
					"inputs": [
						{
							"internalType": "address",
							"name": "from",
							"type": "address"
						},
						{
							"internalType": "address",
							"name": "to",
							"type": "address"
						},
						{
							"internalType": "uint256",
							"name": "id",
							"type": "uint256"
						}
					],
					"name": "safeTransferFrom",
					"outputs": [],
					"stateMutability": "nonpayable",
					"type": "function"
				},
				{
					"inputs": [
						{
							"internalType": "address",
							"name": "from",
							"type": "address"
						},
						{
							"internalType": "address",
							"name": "to",
							"type": "address"
						},
						{
							"internalType": "uint256",
							"name": "id",
							"type": "uint256"
						},
						{
							"internalType": "bytes",
							"name": "data",
							"type": "bytes"
						}
					],
					"name": "safeTransferFrom",
					"outputs": [],
					"stateMutability": "nonpayable",
					"type": "function"
				},
				{
					"inputs": [
						{
							"internalType": "address",
							"name": "operator",
							"type": "address"
						},
						{
							"internalType": "bool",
							"name": "approved",
							"type": "bool"
						}
					],
					"name": "setApprovalForAll",
					"outputs": [],
					"stateMutability": "nonpayable",
					"type": "function"
				},
				{
					"inputs": [
						{
							"internalType": "uint256",
							"name": "val",
							"type": "uint256"
						}
					],
					"name": "setMintCost",
					"outputs": [],
					"stateMutability": "nonpayable",
					"type": "function"
				},
				{
					"inputs": [
						{
							"internalType": "bool",
							"name": "val",
							"type": "bool"
						}
					],
					"name": "setPauseMint",
					"outputs": [],
					"stateMutability": "nonpayable",
					"type": "function"
				},
				{
					"inputs": [
						{
							"internalType": "bool",
							"name": "_status",
							"type": "bool"
						}
					],
					"name": "setPublicMint",
					"outputs": [],
					"stateMutability": "nonpayable",
					"type": "function"
				},
				{
					"inputs": [
						{
							"internalType": "address",
							"name": "_royaltyAddress",
							"type": "address"
						},
						{
							"internalType": "uint96",
							"name": "_royaltyFeesInBips",
							"type": "uint96"
						}
					],
					"name": "setRoyaltyInfo",
					"outputs": [],
					"stateMutability": "nonpayable",
					"type": "function"
				},
				{
					"inputs": [
						{
							"internalType": "address",
							"name": "_signAddress",
							"type": "address"
						}
					],
					"name": "setSignAddress",
					"outputs": [],
					"stateMutability": "nonpayable",
					"type": "function"
				},
				{
					"inputs": [
						{
							"internalType": "bytes4",
							"name": "interfaceId",
							"type": "bytes4"
						}
					],
					"name": "supportsInterface",
					"outputs": [
						{
							"internalType": "bool",
							"name": "",
							"type": "bool"
						}
					],
					"stateMutability": "view",
					"type": "function"
				},
				{
					"inputs": [],
					"name": "symbol",
					"outputs": [
						{
							"internalType": "string",
							"name": "",
							"type": "string"
						}
					],
					"stateMutability": "view",
					"type": "function"
				},
				{
					"inputs": [
						{
							"internalType": "uint256",
							"name": "",
							"type": "uint256"
						}
					],
					"name": "tokenType",
					"outputs": [
						{
							"internalType": "uint256",
							"name": "",
							"type": "uint256"
						}
					],
					"stateMutability": "view",
					"type": "function"
				},
				{
					"inputs": [
						{
							"internalType": "uint256",
							"name": "tokenId",
							"type": "uint256"
						}
					],
					"name": "tokenURI",
					"outputs": [
						{
							"internalType": "string",
							"name": "",
							"type": "string"
						}
					],
					"stateMutability": "view",
					"type": "function"
				},
				{
					"inputs": [
						{
							"internalType": "address",
							"name": "from",
							"type": "address"
						},
						{
							"internalType": "address",
							"name": "to",
							"type": "address"
						},
						{
							"internalType": "uint256",
							"name": "id",
							"type": "uint256"
						}
					],
					"name": "transferFrom",
					"outputs": [],
					"stateMutability": "nonpayable",
					"type": "function"
				},
				{
					"inputs": [
						{
							"internalType": "address",
							"name": "newOwner",
							"type": "address"
						}
					],
					"name": "transferOwnership",
					"outputs": [],
					"stateMutability": "nonpayable",
					"type": "function"
				},
				{
					"inputs": [],
					"name": "withdrawEth",
					"outputs": [],
					"stateMutability": "nonpayable",
					"type": "function"
				}
			],
			"devdoc": {
				"kind": "dev",
				"methods": {},
				"version": 1
			},
			"evm": {
				"assembly": "    /* \"NftContract.sol\":176:5708  contract PantherNft is ERC721, EIP712, Ownable {\r... */\n  mstore(0x40, 0x0140)\n    /* \"NftContract.sol\":289:290  0 */\n  0x00\n    /* \"NftContract.sol\":258:290  uint256 private tokenCounter = 0 */\n  0x09\n  sstore\n    /* \"NftContract.sol\":371:404  bool public publicAllowed = false */\n  0x0b\n  dup1\n  sload\n  not(sub(shl(0x80, 0x01), 0x01))\n    /* \"NftContract.sol\":411:443  uint120 public MAX_SUPPLY = 3000 */\n  and\n  0x0bb800\n  or\n  swap1\n  sstore\n    /* \"NftContract.sol\":629:651  bool pauseMint = false */\n  0x0d\n  dup1\n  sload\n  not(shl(0xa0, 0xff))\n  and\n  swap1\n  sstore\n    /* \"NftContract.sol\":660:1155  constructor(\r... */\n  callvalue\n  dup1\n  iszero\n  tag_1\n  jumpi\n  0x00\n  dup1\n  revert\ntag_1:\n  pop\n  mload(0x40)\n  sub(codesize, bytecodeSize)\n  dup1\n  bytecodeSize\n  dup4\n  codecopy\n  dup2\n  add\n  0x40\n  dup2\n  swap1\n  mstore\n  tag_2\n  swap2\n  tag_3\n  jump\t// in\ntag_2:\n    /* \"NftContract.sol\":883:897  SIGNING_DOMAIN */\n  mload(0x40)\n  dup1\n  0x40\n  add\n  0x40\n  mstore\n  dup1\n  0x0b\n  dup2\n  mstore\n  0x20\n  add\n  shl(0xa9, 0x2820a72a2422a92fa1a7a7)\n  dup2\n  mstore\n  pop\n    /* \"NftContract.sol\":899:916  SIGNATURE_VERSION */\n  mload(0x40)\n  dup1\n  0x40\n  add\n  0x40\n  mstore\n  dup1\n  0x01\n  dup2\n  mstore\n  0x20\n  add\n  shl(0xf8, 0x31)\n  dup2\n  mstore\n  pop\n    /* \"NftContract.sol\":860:865  _name */\n  dup8\n    /* \"NftContract.sol\":867:874  _symbol */\n  dup8\n    /* \"ERC721.sol\":1758:1763  _name */\n  dup2\n    /* \"ERC721.sol\":1751:1755  name */\n  0x00\n    /* \"ERC721.sol\":1751:1763  name = _name */\n  swap1\n  dup1\n  mload\n  swap1\n  0x20\n  add\n  swap1\n  tag_9\n  swap3\n  swap2\n  swap1\n  tag_10\n  jump\t// in\ntag_9:\n  pop\n    /* \"ERC721.sol\":1774:1790  symbol = _symbol */\n  dup1\n  mload\n  tag_11\n  swap1\n    /* \"ERC721.sol\":1774:1780  symbol */\n  0x01\n  swap1\n    /* \"ERC721.sol\":1774:1790  symbol = _symbol */\n  0x20\n  dup5\n  add\n  swap1\n  tag_10\n  jump\t// in\ntag_11:\n  pop\n  pop\n    /* \"utils/EIP712.sol\":1432:1454  keccak256(bytes(name)) */\n  dup3\n  mload\n  0x20\n  dup1\n  dup6\n  add\n  swap2\n  swap1\n  swap2\n  keccak256\n    /* \"utils/EIP712.sol\":1489:1514  keccak256(bytes(version)) */\n  dup4\n  mload\n  dup5\n  dup4\n  add\n  keccak256\n    /* \"utils/EIP712.sol\":1674:1699  _HASHED_NAME = hashedName */\n  0xe0\n  dup3\n  swap1\n  mstore\n    /* \"utils/EIP712.sol\":1710:1741  _HASHED_VERSION = hashedVersion */\n  0x0100\n  dup2\n  swap1\n  mstore\n    /* \"utils/EIP712.sol\":1771:1784  block.chainid */\n  chainid\n    /* \"utils/EIP712.sol\":1752:1784  _CACHED_CHAIN_ID = block.chainid */\n  0xa0\n  dup2\n  dup2\n  mstore\n  0x40\n    /* \"utils/EIP712.sol\":2757:2954  abi.encode(\r... */\n  dup1\n  mload\n    /* \"utils/EIP712.sol\":1544:1663  keccak256(\r... */\n  0x8b73c3c69bb8fe3d512ecc4cf759cc79239f7b179b0ffacaa9a75d522b39400f\n    /* \"utils/EIP712.sol\":2757:2954  abi.encode(\r... */\n  dup2\n  dup9\n  add\n    /* \"#utility.yul\":2430:2455   */\n  dup2\n  swap1\n  mstore\n    /* \"#utility.yul\":2471:2489   */\n  dup2\n  dup4\n  add\n    /* \"#utility.yul\":2464:2498   */\n  dup8\n  swap1\n  mstore\n  0x60\n    /* \"#utility.yul\":2514:2532   */\n  dup3\n  add\n    /* \"#utility.yul\":2507:2541   */\n  dup7\n  swap1\n  mstore\n    /* \"#utility.yul\":2557:2575   */\n  0x80\n  dup3\n  add\n    /* \"#utility.yul\":2550:2584   */\n  swap5\n  swap1\n  swap5\n  mstore\n    /* \"utils/EIP712.sol\":2930:2934  this */\n  address\n    /* \"#utility.yul\":2600:2619   */\n  dup2\n  dup5\n  add\n    /* \"#utility.yul\":2593:2654   */\n  mstore\n    /* \"utils/EIP712.sol\":2757:2954  abi.encode(\r... */\n  dup2\n  mload\n  dup1\n  dup3\n  sub\n  swap1\n  swap4\n  add\n  dup4\n  mstore\n    /* \"#utility.yul\":2402:2421   */\n  0xc0\n  add\n    /* \"utils/EIP712.sol\":2757:2954  abi.encode(\r... */\n  swap1\n  mstore\n    /* \"utils/EIP712.sol\":2729:2969  keccak256(\r... */\n  dup1\n  mload\n  swap5\n  add\n  swap4\n  swap1\n  swap4\n  keccak256\n    /* \"utils/EIP712.sol\":1432:1454  keccak256(bytes(name)) */\n  swap2\n  swap4\n  pop\n    /* \"utils/EIP712.sol\":1489:1514  keccak256(bytes(version)) */\n  swap2\n    /* \"utils/EIP712.sol\":1544:1663  keccak256(\r... */\n  swap1\n    /* \"utils/EIP712.sol\":1795:1930  _CACHED_DOMAIN_SEPARATOR = _buildDomainSeparator(\r... */\n  0x80\n  mstore\n    /* \"utils/EIP712.sol\":1964:1968  this */\n  address\n    /* \"utils/EIP712.sol\":1941:1969  _CACHED_THIS = address(this) */\n  0x60\n  shl\n  0xc0\n  mstore\n    /* \"utils/EIP712.sol\":1980:2001  _TYPE_HASH = typeHash */\n  0x0120\n  mstore\n  pop\n    /* \"utils/Ownable.sol\":305:337  _transferOwnership(_msgSender()) */\n  tag_16\n  swap3\n  pop\n    /* \"utils/Ownable.sol\":324:336  _msgSender() */\n  tag_17\n  swap2\n  pop\n  pop\n    /* \"utils/Context.sol\":175:185  msg.sender */\n  caller\n  swap1\n    /* \"utils/Context.sol\":95:193  function _msgSender() internal view virtual returns (address) {\r... */\n  jump\n    /* \"utils/Ownable.sol\":324:336  _msgSender() */\ntag_17:\n    /* \"utils/Ownable.sol\":305:323  _transferOwnership */\n  tag_19\n    /* \"utils/Ownable.sol\":305:337  _transferOwnership(_msgSender()) */\n  jump\t// in\ntag_16:\n    /* \"NftContract.sol\":929:944  baseURI = _base */\n  dup4\n  mload\n  tag_21\n  swap1\n    /* \"NftContract.sol\":929:936  baseURI */\n  0x08\n  swap1\n    /* \"NftContract.sol\":929:944  baseURI = _base */\n  0x20\n  dup8\n  add\n  swap1\n  tag_10\n  jump\t// in\ntag_21:\n  pop\n    /* \"NftContract.sol\":972:977  10000 */\n  0x2710\n    /* \"NftContract.sol\":963:968  _fees */\n  dup3\n  sub(shl(0x60, 0x01), 0x01)\n    /* \"NftContract.sol\":963:977  _fees <= 10000 */\n  and\n  gt\n  iszero\n    /* \"NftContract.sol\":955:1001  require(_fees <= 10000, \"cannot exceed 10000\") */\n  tag_22\n  jumpi\n  mload(0x40)\n  shl(0xe5, 0x461bcd)\n  dup2\n  mstore\n    /* \"#utility.yul\":2867:2869   */\n  0x20\n    /* \"NftContract.sol\":955:1001  require(_fees <= 10000, \"cannot exceed 10000\") */\n  0x04\n  dup3\n  add\n    /* \"#utility.yul\":2849:2870   */\n  mstore\n    /* \"#utility.yul\":2906:2908   */\n  0x13\n    /* \"#utility.yul\":2886:2904   */\n  0x24\n  dup3\n  add\n    /* \"#utility.yul\":2879:2909   */\n  mstore\n    /* \"#utility.yul\":2945:2966   */\n  0x63616e6e6f742065786365656420313030303000000000000000000000000000\n    /* \"#utility.yul\":2925:2943   */\n  0x44\n  dup3\n  add\n    /* \"#utility.yul\":2918:2967   */\n  mstore\n    /* \"#utility.yul\":2984:3002   */\n  0x64\n  add\n    /* \"NftContract.sol\":955:1001  require(_fees <= 10000, \"cannot exceed 10000\") */\n  mload(0x40)\n  dup1\n  swap2\n  sub\n  swap1\n  revert\ntag_22:\n    /* \"NftContract.sol\":1048:1075  royaltyAddress = msg.sender */\n  0x01000000000000000000000000\n    /* \"NftContract.sol\":1065:1075  msg.sender */\n  caller\n    /* \"NftContract.sol\":1048:1075  royaltyAddress = msg.sender */\n  mul\n  sub(shl(0x60, 0x01), 0x01)\n    /* \"NftContract.sol\":1012:1037  royaltyFeesInBips = _fees */\n  dup4\n  and\n    /* \"NftContract.sol\":1048:1075  royaltyAddress = msg.sender */\n  or\n    /* \"NftContract.sol\":1012:1029  royaltyFeesInBips */\n  0x0a\n    /* \"NftContract.sol\":1048:1075  royaltyAddress = msg.sender */\n  sstore\n    /* \"NftContract.sol\":1097:1110  mint_cost - 1 */\n  tag_25\n    /* \"NftContract.sol\":1012:1037  royaltyFeesInBips = _fees */\n  0x01\n    /* \"NftContract.sol\":1097:1106  mint_cost */\n  dup5\n    /* \"NftContract.sol\":1097:1110  mint_cost - 1 */\n  tag_26\n  jump\t// in\ntag_25:\n    /* \"NftContract.sol\":1086:1094  mintCost */\n  0x0c\n    /* \"NftContract.sol\":1086:1110  mintCost = mint_cost - 1 */\n  sstore\n    /* \"NftContract.sol\":1121:1132  signAddress */\n  0x0d\n    /* \"NftContract.sol\":1121:1147  signAddress = _signAddress */\n  dup1\n  sload\n  not(sub(shl(0xa0, 0x01), 0x01))\n  and\n  sub(shl(0xa0, 0x01), 0x01)\n  swap3\n  swap1\n  swap3\n  and\n  swap2\n  swap1\n  swap2\n  or\n  swap1\n  sstore\n  pop\n    /* \"NftContract.sol\":176:5708  contract PantherNft is ERC721, EIP712, Ownable {\r... */\n  tag_47\n  swap4\n  pop\n  pop\n  pop\n  pop\n  jump\n    /* \"utils/Ownable.sol\":766:957  function _transferOwnership(address newOwner) internal virtual {\r... */\ntag_19:\n    /* \"utils/Ownable.sol\":840:856  address oldOwner */\n  0x00\n    /* \"utils/Ownable.sol\":859:866  owner() */\n  tag_33\n    /* \"utils/Ownable.sol\":426:432  _owner */\n  and(sub(shl(0xa0, 0x01), 0x01), sload(0x07))\n  swap1\n    /* \"utils/Ownable.sol\":353:440  function owner() public view virtual returns (address) {\r... */\n  jump\n    /* \"utils/Ownable.sol\":859:866  owner() */\ntag_33:\n    /* \"utils/Ownable.sol\":877:883  _owner */\n  0x07\n    /* \"utils/Ownable.sol\":877:894  _owner = newOwner */\n  dup1\n  sload\n  not(sub(shl(0xa0, 0x01), 0x01))\n  and\n  sub(shl(0xa0, 0x01), 0x01)\n  dup6\n  dup2\n  and\n  swap2\n  dup3\n  or\n  swap1\n  swap3\n  sstore\n    /* \"utils/Ownable.sol\":910:949  OwnershipTransfered(oldOwner, newOwner) */\n  mload(0x40)\n    /* \"utils/Ownable.sol\":840:866  address oldOwner = owner() */\n  swap3\n  swap4\n  pop\n    /* \"utils/Ownable.sol\":877:894  _owner = newOwner */\n  swap2\n    /* \"utils/Ownable.sol\":910:949  OwnershipTransfered(oldOwner, newOwner) */\n  swap1\n  dup4\n  and\n  swap1\n  0x0d18b5fd22306e373229b9439188228edca81207d1667f604daf6cef8aa3ee67\n  swap1\n  0x00\n  swap1\n  log3\n    /* \"utils/Ownable.sol\":829:957  {\r... */\n  pop\n    /* \"utils/Ownable.sol\":766:957  function _transferOwnership(address newOwner) internal virtual {\r... */\n  pop\n  jump\t// out\n    /* \"NftContract.sol\":176:5708  contract PantherNft is ERC721, EIP712, Ownable {\r... */\ntag_10:\n  dup3\n  dup1\n  sload\n  tag_36\n  swap1\n  tag_37\n  jump\t// in\ntag_36:\n  swap1\n  0x00\n  mstore\n  keccak256(0x00, 0x20)\n  swap1\n  0x1f\n  add\n  0x20\n  swap1\n  div\n  dup2\n  add\n  swap3\n  dup3\n  tag_39\n  jumpi\n  0x00\n  dup6\n  sstore\n  jump(tag_42)\ntag_39:\n  dup3\n  0x1f\n  lt\n  tag_40\n  jumpi\n  dup1\n  mload\n  not(0xff)\n  and\n  dup4\n  dup1\n  add\n  or\n  dup6\n  sstore\n  jump(tag_42)\ntag_40:\n  dup3\n  dup1\n  add\n  0x01\n  add\n  dup6\n  sstore\n  dup3\n  iszero\n  tag_42\n  jumpi\n  swap2\n  dup3\n  add\ntag_41:\n  dup3\n  dup2\n  gt\n  iszero\n  tag_42\n  jumpi\n  dup3\n  mload\n  dup3\n  sstore\n  swap2\n  0x20\n  add\n  swap2\n  swap1\n  0x01\n  add\n  swap1\n  jump(tag_41)\ntag_42:\n  pop\n  tag_43\n  swap3\n  swap2\n  pop\n  tag_44\n  jump\t// in\ntag_43:\n  pop\n  swap1\n  jump\t// out\ntag_44:\ntag_45:\n  dup1\n  dup3\n  gt\n  iszero\n  tag_43\n  jumpi\n  0x00\n  dup2\n  sstore\n  0x01\n  add\n  jump(tag_45)\n    /* \"#utility.yul\":14:191   */\ntag_48:\n    /* \"#utility.yul\":93:106   */\n  dup1\n  mload\n  sub(shl(0xa0, 0x01), 0x01)\n    /* \"#utility.yul\":135:166   */\n  dup2\n  and\n    /* \"#utility.yul\":125:167   */\n  dup2\n  eq\n    /* \"#utility.yul\":115:185   */\n  tag_50\n  jumpi\n    /* \"#utility.yul\":181:182   */\n  0x00\n    /* \"#utility.yul\":178:179   */\n  dup1\n    /* \"#utility.yul\":171:183   */\n  revert\n    /* \"#utility.yul\":115:185   */\ntag_50:\n    /* \"#utility.yul\":14:191   */\n  swap2\n  swap1\n  pop\n  jump\t// out\n    /* \"#utility.yul\":196:1081   */\ntag_51:\n    /* \"#utility.yul\":250:255   */\n  0x00\n    /* \"#utility.yul\":303:306   */\n  dup3\n    /* \"#utility.yul\":296:300   */\n  0x1f\n    /* \"#utility.yul\":288:294   */\n  dup4\n    /* \"#utility.yul\":284:301   */\n  add\n    /* \"#utility.yul\":280:307   */\n  slt\n    /* \"#utility.yul\":270:325   */\n  tag_53\n  jumpi\n    /* \"#utility.yul\":321:322   */\n  0x00\n    /* \"#utility.yul\":318:319   */\n  dup1\n    /* \"#utility.yul\":311:323   */\n  revert\n    /* \"#utility.yul\":270:325   */\ntag_53:\n    /* \"#utility.yul\":344:357   */\n  dup2\n  mload\n  sub(shl(0x40, 0x01), 0x01)\n    /* \"#utility.yul\":406:416   */\n  dup1\n  dup3\n  gt\n    /* \"#utility.yul\":403:439   */\n  iszero\n  tag_55\n  jumpi\n    /* \"#utility.yul\":419:437   */\n  tag_55\n  tag_56\n  jump\t// in\ntag_55:\n    /* \"#utility.yul\":494:496   */\n  0x40\n    /* \"#utility.yul\":488:497   */\n  mload\n    /* \"#utility.yul\":462:464   */\n  0x1f\n    /* \"#utility.yul\":548:561   */\n  dup4\n  add\n  not(0x1f)\n    /* \"#utility.yul\":544:566   */\n  swap1\n  dup2\n  and\n    /* \"#utility.yul\":568:570   */\n  0x3f\n    /* \"#utility.yul\":540:571   */\n  add\n    /* \"#utility.yul\":536:576   */\n  and\n    /* \"#utility.yul\":524:577   */\n  dup2\n  add\n  swap1\n    /* \"#utility.yul\":592:610   */\n  dup3\n  dup3\n  gt\n    /* \"#utility.yul\":612:634   */\n  dup2\n  dup4\n  lt\n    /* \"#utility.yul\":589:635   */\n  or\n    /* \"#utility.yul\":586:658   */\n  iszero\n  tag_58\n  jumpi\n    /* \"#utility.yul\":638:656   */\n  tag_58\n  tag_56\n  jump\t// in\ntag_58:\n    /* \"#utility.yul\":678:688   */\n  dup2\n    /* \"#utility.yul\":674:676   */\n  0x40\n    /* \"#utility.yul\":667:689   */\n  mstore\n    /* \"#utility.yul\":713:715   */\n  dup4\n    /* \"#utility.yul\":705:711   */\n  dup2\n    /* \"#utility.yul\":698:716   */\n  mstore\n    /* \"#utility.yul\":735:739   */\n  0x20\n    /* \"#utility.yul\":725:739   */\n  swap3\n  pop\n    /* \"#utility.yul\":780:783   */\n  dup7\n    /* \"#utility.yul\":775:777   */\n  dup4\n    /* \"#utility.yul\":770:772   */\n  dup6\n    /* \"#utility.yul\":762:768   */\n  dup9\n    /* \"#utility.yul\":758:773   */\n  add\n    /* \"#utility.yul\":754:778   */\n  add\n    /* \"#utility.yul\":751:784   */\n  gt\n    /* \"#utility.yul\":748:801   */\n  iszero\n  tag_59\n  jumpi\n    /* \"#utility.yul\":797:798   */\n  0x00\n    /* \"#utility.yul\":794:795   */\n  dup1\n    /* \"#utility.yul\":787:799   */\n  revert\n    /* \"#utility.yul\":748:801   */\ntag_59:\n    /* \"#utility.yul\":819:820   */\n  0x00\n    /* \"#utility.yul\":810:820   */\n  swap2\n  pop\n    /* \"#utility.yul\":829:962   */\ntag_60:\n    /* \"#utility.yul\":843:845   */\n  dup4\n    /* \"#utility.yul\":840:841   */\n  dup3\n    /* \"#utility.yul\":837:846   */\n  lt\n    /* \"#utility.yul\":829:962   */\n  iszero\n  tag_62\n  jumpi\n    /* \"#utility.yul\":931:945   */\n  dup6\n  dup3\n  add\n    /* \"#utility.yul\":927:950   */\n  dup4\n  add\n    /* \"#utility.yul\":921:951   */\n  mload\n    /* \"#utility.yul\":900:914   */\n  dup2\n  dup4\n  add\n    /* \"#utility.yul\":896:919   */\n  dup5\n  add\n    /* \"#utility.yul\":889:952   */\n  mstore\n    /* \"#utility.yul\":854:864   */\n  swap1\n  dup3\n  add\n  swap1\n    /* \"#utility.yul\":829:962   */\n  jump(tag_60)\ntag_62:\n    /* \"#utility.yul\":980:982   */\n  dup4\n    /* \"#utility.yul\":977:978   */\n  dup3\n    /* \"#utility.yul\":974:983   */\n  gt\n    /* \"#utility.yul\":971:1051   */\n  iszero\n  tag_63\n  jumpi\n    /* \"#utility.yul\":1039:1040   */\n  0x00\n    /* \"#utility.yul\":1034:1036   */\n  dup4\n    /* \"#utility.yul\":1029:1031   */\n  dup6\n    /* \"#utility.yul\":1021:1027   */\n  dup4\n    /* \"#utility.yul\":1017:1032   */\n  add\n    /* \"#utility.yul\":1013:1037   */\n  add\n    /* \"#utility.yul\":1006:1041   */\n  mstore\n    /* \"#utility.yul\":971:1051   */\ntag_63:\n    /* \"#utility.yul\":1069:1075   */\n  swap7\n    /* \"#utility.yul\":196:1081   */\n  swap6\n  pop\n  pop\n  pop\n  pop\n  pop\n  pop\n  jump\t// out\n    /* \"#utility.yul\":1086:2166   */\ntag_3:\n    /* \"#utility.yul\":1230:1236   */\n  0x00\n    /* \"#utility.yul\":1238:1244   */\n  dup1\n    /* \"#utility.yul\":1246:1252   */\n  0x00\n    /* \"#utility.yul\":1254:1260   */\n  dup1\n    /* \"#utility.yul\":1262:1268   */\n  0x00\n    /* \"#utility.yul\":1270:1276   */\n  dup1\n    /* \"#utility.yul\":1323:1326   */\n  0xc0\n    /* \"#utility.yul\":1311:1320   */\n  dup8\n    /* \"#utility.yul\":1302:1309   */\n  dup10\n    /* \"#utility.yul\":1298:1321   */\n  sub\n    /* \"#utility.yul\":1294:1327   */\n  slt\n    /* \"#utility.yul\":1291:1344   */\n  iszero\n  tag_65\n  jumpi\n    /* \"#utility.yul\":1340:1341   */\n  0x00\n    /* \"#utility.yul\":1337:1338   */\n  dup1\n    /* \"#utility.yul\":1330:1342   */\n  revert\n    /* \"#utility.yul\":1291:1344   */\ntag_65:\n    /* \"#utility.yul\":1367:1383   */\n  dup7\n  mload\n  sub(shl(0x40, 0x01), 0x01)\n    /* \"#utility.yul\":1432:1446   */\n  dup1\n  dup3\n  gt\n    /* \"#utility.yul\":1429:1463   */\n  iszero\n  tag_66\n  jumpi\n    /* \"#utility.yul\":1459:1460   */\n  0x00\n    /* \"#utility.yul\":1456:1457   */\n  dup1\n    /* \"#utility.yul\":1449:1461   */\n  revert\n    /* \"#utility.yul\":1429:1463   */\ntag_66:\n    /* \"#utility.yul\":1482:1543   */\n  tag_67\n    /* \"#utility.yul\":1535:1542   */\n  dup11\n    /* \"#utility.yul\":1526:1532   */\n  dup4\n    /* \"#utility.yul\":1515:1524   */\n  dup12\n    /* \"#utility.yul\":1511:1533   */\n  add\n    /* \"#utility.yul\":1482:1543   */\n  tag_51\n  jump\t// in\ntag_67:\n    /* \"#utility.yul\":1472:1543   */\n  swap8\n  pop\n    /* \"#utility.yul\":1589:1591   */\n  0x20\n    /* \"#utility.yul\":1578:1587   */\n  dup10\n    /* \"#utility.yul\":1574:1592   */\n  add\n    /* \"#utility.yul\":1568:1593   */\n  mload\n    /* \"#utility.yul\":1552:1593   */\n  swap2\n  pop\n    /* \"#utility.yul\":1618:1620   */\n  dup1\n    /* \"#utility.yul\":1608:1616   */\n  dup3\n    /* \"#utility.yul\":1605:1621   */\n  gt\n    /* \"#utility.yul\":1602:1638   */\n  iszero\n  tag_68\n  jumpi\n    /* \"#utility.yul\":1634:1635   */\n  0x00\n    /* \"#utility.yul\":1631:1632   */\n  dup1\n    /* \"#utility.yul\":1624:1636   */\n  revert\n    /* \"#utility.yul\":1602:1638   */\ntag_68:\n    /* \"#utility.yul\":1657:1720   */\n  tag_69\n    /* \"#utility.yul\":1712:1719   */\n  dup11\n    /* \"#utility.yul\":1701:1709   */\n  dup4\n    /* \"#utility.yul\":1690:1699   */\n  dup12\n    /* \"#utility.yul\":1686:1710   */\n  add\n    /* \"#utility.yul\":1657:1720   */\n  tag_51\n  jump\t// in\ntag_69:\n    /* \"#utility.yul\":1647:1720   */\n  swap7\n  pop\n    /* \"#utility.yul\":1766:1768   */\n  0x40\n    /* \"#utility.yul\":1755:1764   */\n  dup10\n    /* \"#utility.yul\":1751:1769   */\n  add\n    /* \"#utility.yul\":1745:1770   */\n  mload\n    /* \"#utility.yul\":1729:1770   */\n  swap2\n  pop\n    /* \"#utility.yul\":1795:1797   */\n  dup1\n    /* \"#utility.yul\":1785:1793   */\n  dup3\n    /* \"#utility.yul\":1782:1798   */\n  gt\n    /* \"#utility.yul\":1779:1815   */\n  iszero\n  tag_70\n  jumpi\n    /* \"#utility.yul\":1811:1812   */\n  0x00\n    /* \"#utility.yul\":1808:1809   */\n  dup1\n    /* \"#utility.yul\":1801:1813   */\n  revert\n    /* \"#utility.yul\":1779:1815   */\ntag_70:\n  pop\n    /* \"#utility.yul\":1834:1897   */\n  tag_71\n    /* \"#utility.yul\":1889:1896   */\n  dup10\n    /* \"#utility.yul\":1878:1886   */\n  dup3\n    /* \"#utility.yul\":1867:1876   */\n  dup11\n    /* \"#utility.yul\":1863:1887   */\n  add\n    /* \"#utility.yul\":1834:1897   */\n  tag_51\n  jump\t// in\ntag_71:\n    /* \"#utility.yul\":1937:1939   */\n  0x60\n    /* \"#utility.yul\":1922:1940   */\n  dup10\n  add\n    /* \"#utility.yul\":1916:1941   */\n  mload\n    /* \"#utility.yul\":1984:1987   */\n  0x80\n    /* \"#utility.yul\":1969:1988   */\n  dup11\n  add\n    /* \"#utility.yul\":1963:1989   */\n  mload\n    /* \"#utility.yul\":1824:1897   */\n  swap2\n  swap7\n  pop\n    /* \"#utility.yul\":1916:1941   */\n  swap5\n  pop\n    /* \"#utility.yul\":1963:1989   */\n  swap1\n  pop\n  sub(shl(0x60, 0x01), 0x01)\n    /* \"#utility.yul\":2018:2048   */\n  dup2\n  and\n    /* \"#utility.yul\":2008:2049   */\n  dup2\n  eq\n    /* \"#utility.yul\":1998:2067   */\n  tag_72\n  jumpi\n    /* \"#utility.yul\":2063:2064   */\n  0x00\n    /* \"#utility.yul\":2060:2061   */\n  dup1\n    /* \"#utility.yul\":2053:2065   */\n  revert\n    /* \"#utility.yul\":1998:2067   */\ntag_72:\n    /* \"#utility.yul\":2086:2091   */\n  swap2\n  pop\n    /* \"#utility.yul\":2110:2160   */\n  tag_73\n    /* \"#utility.yul\":2155:2158   */\n  0xa0\n    /* \"#utility.yul\":2140:2159   */\n  dup9\n  add\n    /* \"#utility.yul\":2110:2160   */\n  tag_48\n  jump\t// in\ntag_73:\n    /* \"#utility.yul\":2100:2160   */\n  swap1\n  pop\n    /* \"#utility.yul\":1086:2166   */\n  swap3\n  swap6\n  pop\n  swap3\n  swap6\n  pop\n  swap3\n  swap6\n  jump\t// out\n    /* \"#utility.yul\":3013:3235   */\ntag_26:\n    /* \"#utility.yul\":3053:3057   */\n  0x00\n    /* \"#utility.yul\":3081:3082   */\n  dup3\n    /* \"#utility.yul\":3078:3079   */\n  dup3\n    /* \"#utility.yul\":3075:3083   */\n  lt\n    /* \"#utility.yul\":3072:3203   */\n  iszero\n  tag_77\n  jumpi\n    /* \"#utility.yul\":3125:3135   */\n  0x4e487b71\n    /* \"#utility.yul\":3120:3123   */\n  0xe0\n    /* \"#utility.yul\":3116:3136   */\n  shl\n    /* \"#utility.yul\":3113:3114   */\n  0x00\n    /* \"#utility.yul\":3106:3137   */\n  mstore\n    /* \"#utility.yul\":3160:3164   */\n  0x11\n    /* \"#utility.yul\":3157:3158   */\n  0x04\n    /* \"#utility.yul\":3150:3165   */\n  mstore\n    /* \"#utility.yul\":3188:3192   */\n  0x24\n    /* \"#utility.yul\":3185:3186   */\n  0x00\n    /* \"#utility.yul\":3178:3193   */\n  revert\n    /* \"#utility.yul\":3072:3203   */\ntag_77:\n  pop\n    /* \"#utility.yul\":3220:3229   */\n  sub\n  swap1\n    /* \"#utility.yul\":3013:3235   */\n  jump\t// out\n    /* \"#utility.yul\":3240:3620   */\ntag_37:\n    /* \"#utility.yul\":3319:3320   */\n  0x01\n    /* \"#utility.yul\":3315:3327   */\n  dup2\n  dup2\n  shr\n  swap1\n    /* \"#utility.yul\":3362:3374   */\n  dup3\n  and\n  dup1\n    /* \"#utility.yul\":3383:3444   */\n  tag_79\n  jumpi\n    /* \"#utility.yul\":3437:3441   */\n  0x7f\n    /* \"#utility.yul\":3429:3435   */\n  dup3\n    /* \"#utility.yul\":3425:3442   */\n  and\n    /* \"#utility.yul\":3415:3442   */\n  swap2\n  pop\n    /* \"#utility.yul\":3383:3444   */\ntag_79:\n    /* \"#utility.yul\":3490:3492   */\n  0x20\n    /* \"#utility.yul\":3482:3488   */\n  dup3\n    /* \"#utility.yul\":3479:3493   */\n  lt\n    /* \"#utility.yul\":3459:3477   */\n  dup2\n    /* \"#utility.yul\":3456:3494   */\n  eq\n    /* \"#utility.yul\":3453:3614   */\n  iszero\n  tag_80\n  jumpi\n    /* \"#utility.yul\":3536:3546   */\n  0x4e487b71\n    /* \"#utility.yul\":3531:3534   */\n  0xe0\n    /* \"#utility.yul\":3527:3547   */\n  shl\n    /* \"#utility.yul\":3524:3525   */\n  0x00\n    /* \"#utility.yul\":3517:3548   */\n  mstore\n    /* \"#utility.yul\":3571:3575   */\n  0x22\n    /* \"#utility.yul\":3568:3569   */\n  0x04\n    /* \"#utility.yul\":3561:3576   */\n  mstore\n    /* \"#utility.yul\":3599:3603   */\n  0x24\n    /* \"#utility.yul\":3596:3597   */\n  0x00\n    /* \"#utility.yul\":3589:3604   */\n  revert\n    /* \"#utility.yul\":3453:3614   */\ntag_80:\n  pop\n    /* \"#utility.yul\":3240:3620   */\n  swap2\n  swap1\n  pop\n  jump\t// out\n    /* \"#utility.yul\":3625:3752   */\ntag_56:\n    /* \"#utility.yul\":3686:3696   */\n  0x4e487b71\n    /* \"#utility.yul\":3681:3684   */\n  0xe0\n    /* \"#utility.yul\":3677:3697   */\n  shl\n    /* \"#utility.yul\":3674:3675   */\n  0x00\n    /* \"#utility.yul\":3667:3698   */\n  mstore\n    /* \"#utility.yul\":3717:3721   */\n  0x41\n    /* \"#utility.yul\":3714:3715   */\n  0x04\n    /* \"#utility.yul\":3707:3722   */\n  mstore\n    /* \"#utility.yul\":3741:3745   */\n  0x24\n    /* \"#utility.yul\":3738:3739   */\n  0x00\n    /* \"#utility.yul\":3731:3746   */\n  revert\n    /* \"#utility.yul\":3625:3752   */\ntag_47:\n    /* \"NftContract.sol\":176:5708  contract PantherNft is ERC721, EIP712, Ownable {\r... */\n  mload(0x80)\n  mload(0xa0)\n  shr(0x60, mload(0xc0))\n  mload(0xe0)\n  mload(0x0100)\n  mload(0x0120)\n  codecopy(0x00, dataOffset(sub_0), dataSize(sub_0))\n  0x00\n  assignImmutable(\"0x50c832d834b48f88b34f7969d8d3193ad1112053d5fb4e6fa9ec6fa96f07053f\")\n  0x00\n  assignImmutable(\"0xa38e1781deda7568f607c8391c48fc6cc7bdaa0c22dc380efe26169b25010fdd\")\n  0x00\n  assignImmutable(\"0x82406189ee4c2aa1bb703db882a60aded39c441f7b440f5760a857f638d93571\")\n  0x00\n  assignImmutable(\"0x9cb0b993ce3cc460071d556c01bf4adf48941df3146d18de5e970d113760be43\")\n  0x00\n  assignImmutable(\"0x363b8445add1af466ca0962717ab0a631a9ea7e62024c0f63570adbca27b350b\")\n  0x00\n  assignImmutable(\"0xcec542a91b78ca092ddac835fa0e3bf3223df2d9f924250036e9b758f7bc3fe8\")\n  return(0x00, dataSize(sub_0))\nstop\n\nsub_0: assembly {\n        /* \"NftContract.sol\":176:5708  contract PantherNft is ERC721, EIP712, Ownable {\r... */\n      mstore(0x40, 0x80)\n      jumpi(tag_1, lt(calldatasize, 0x04))\n      shr(0xe0, calldataload(0x00))\n      dup1\n      0x8da5cb5b\n      gt\n      tag_36\n      jumpi\n      dup1\n      0xbdb4b848\n      gt\n      tag_37\n      jumpi\n      dup1\n      0xe6c3b1f6\n      gt\n      tag_38\n      jumpi\n      dup1\n      0xe6c3b1f6\n      eq\n      tag_31\n      jumpi\n      dup1\n      0xe985e9c5\n      eq\n      tag_32\n      jumpi\n      dup1\n      0xf2fde38b\n      eq\n      tag_33\n      jumpi\n      dup1\n      0xf59e26d0\n      eq\n      tag_34\n      jumpi\n      dup1\n      0xfbbd1dc0\n      eq\n      tag_35\n      jumpi\n      0x00\n      dup1\n      revert\n    tag_38:\n      dup1\n      0xbdb4b848\n      eq\n      tag_27\n      jumpi\n      dup1\n      0xc2e63def\n      eq\n      tag_28\n      jumpi\n      dup1\n      0xc87b56dd\n      eq\n      tag_29\n      jumpi\n      dup1\n      0xd83d0f76\n      eq\n      tag_30\n      jumpi\n      0x00\n      dup1\n      revert\n    tag_37:\n      dup1\n      0xa22cb465\n      gt\n      tag_39\n      jumpi\n      dup1\n      0xa22cb465\n      eq\n      tag_23\n      jumpi\n      dup1\n      0xa2e69613\n      eq\n      tag_24\n      jumpi\n      dup1\n      0xad2f852a\n      eq\n      tag_25\n      jumpi\n      dup1\n      0xb88d4fde\n      eq\n      tag_26\n      jumpi\n      0x00\n      dup1\n      revert\n    tag_39:\n      dup1\n      0x8da5cb5b\n      eq\n      tag_19\n      jumpi\n      dup1\n      0x95d89b41\n      eq\n      tag_20\n      jumpi\n      dup1\n      0xa06cb719\n      eq\n      tag_21\n      jumpi\n      dup1\n      0xa0ef91df\n      eq\n      tag_22\n      jumpi\n      0x00\n      dup1\n      revert\n    tag_36:\n      dup1\n      0x2a55205a\n      gt\n      tag_40\n      jumpi\n      dup1\n      0x6c0360eb\n      gt\n      tag_41\n      jumpi\n      dup1\n      0x6c0360eb\n      eq\n      tag_14\n      jumpi\n      dup1\n      0x70a08231\n      eq\n      tag_15\n      jumpi\n      dup1\n      0x73c7400e\n      eq\n      tag_16\n      jumpi\n      dup1\n      0x79d72794\n      eq\n      tag_17\n      jumpi\n      dup1\n      0x8545f4ea\n      eq\n      tag_18\n      jumpi\n      0x00\n      dup1\n      revert\n    tag_41:\n      dup1\n      0x2a55205a\n      eq\n      tag_10\n      jumpi\n      dup1\n      0x32cb6b0c\n      eq\n      tag_11\n      jumpi\n      dup1\n      0x42842e0e\n      eq\n      tag_12\n      jumpi\n      dup1\n      0x6352211e\n      eq\n      tag_13\n      jumpi\n      0x00\n      dup1\n      revert\n    tag_40:\n      dup1\n      0x095ea7b3\n      gt\n      tag_42\n      jumpi\n      dup1\n      0x095ea7b3\n      eq\n      tag_6\n      jumpi\n      dup1\n      0x0e2d56cf\n      eq\n      tag_7\n      jumpi\n      dup1\n      0x15137045\n      eq\n      tag_8\n      jumpi\n      dup1\n      0x23b872dd\n      eq\n      tag_9\n      jumpi\n      0x00\n      dup1\n      revert\n    tag_42:\n      dup1\n      0x01ffc9a7\n      eq\n      tag_2\n      jumpi\n      dup1\n      0x02fa7c47\n      eq\n      tag_3\n      jumpi\n      dup1\n      0x06fdde03\n      eq\n      tag_4\n      jumpi\n      dup1\n      0x081812fc\n      eq\n      tag_5\n      jumpi\n    tag_1:\n      0x00\n      dup1\n      revert\n        /* \"ERC721.sol\":892:1329  function supportsInterface(bytes4 interfaceId)\r... */\n    tag_2:\n      callvalue\n      dup1\n      iszero\n      tag_43\n      jumpi\n      0x00\n      dup1\n      revert\n    tag_43:\n      pop\n      tag_44\n      tag_45\n      calldatasize\n      0x04\n      tag_46\n      jump\t// in\n    tag_45:\n      tag_47\n      jump\t// in\n    tag_44:\n      mload(0x40)\n        /* \"#utility.yul\":8888:8902   */\n      swap1\n      iszero\n        /* \"#utility.yul\":8881:8903   */\n      iszero\n        /* \"#utility.yul\":8863:8904   */\n      dup2\n      mstore\n        /* \"#utility.yul\":8851:8853   */\n      0x20\n        /* \"#utility.yul\":8836:8854   */\n      add\n        /* \"ERC721.sol\":892:1329  function supportsInterface(bytes4 interfaceId)\r... */\n    tag_48:\n      mload(0x40)\n      dup1\n      swap2\n      sub\n      swap1\n      return\n        /* \"NftContract.sol\":4998:5286  function setRoyaltyInfo(address _royaltyAddress, uint96 _royaltyFeesInBips)\r... */\n    tag_3:\n      callvalue\n      dup1\n      iszero\n      tag_50\n      jumpi\n      0x00\n      dup1\n      revert\n    tag_50:\n      pop\n      tag_51\n      tag_52\n      calldatasize\n      0x04\n      tag_53\n      jump\t// in\n    tag_52:\n      tag_54\n      jump\t// in\n    tag_51:\n      stop\n        /* \"ERC721.sol\":1337:1355  string public name */\n    tag_4:\n      callvalue\n      dup1\n      iszero\n      tag_55\n      jumpi\n      0x00\n      dup1\n      revert\n    tag_55:\n      pop\n      tag_56\n      tag_57\n      jump\t// in\n    tag_56:\n      mload(0x40)\n      tag_48\n      swap2\n      swap1\n      tag_59\n      jump\t// in\n        /* \"ERC721.sol\":1499:1545  mapping(uint256 => address) public getApproved */\n    tag_5:\n      callvalue\n      dup1\n      iszero\n      tag_60\n      jumpi\n      0x00\n      dup1\n      revert\n    tag_60:\n      pop\n      tag_61\n      tag_62\n      calldatasize\n      0x04\n      tag_63\n      jump\t// in\n    tag_62:\n      mstore(0x20, 0x04)\n      0x00\n      swap1\n      dup2\n      mstore\n      0x40\n      swap1\n      keccak256\n      sload\n      sub(shl(0xa0, 0x01), 0x01)\n      and\n      dup2\n      jump\n    tag_61:\n      mload(0x40)\n      sub(shl(0xa0, 0x01), 0x01)\n        /* \"#utility.yul\":7347:7379   */\n      swap1\n      swap2\n      and\n        /* \"#utility.yul\":7329:7380   */\n      dup2\n      mstore\n        /* \"#utility.yul\":7317:7319   */\n      0x20\n        /* \"#utility.yul\":7302:7320   */\n      add\n        /* \"ERC721.sol\":1499:1545  mapping(uint256 => address) public getApproved */\n      tag_48\n        /* \"#utility.yul\":7183:7386   */\n      jump\n        /* \"ERC721.sol\":2748:3074  function approve(address spender, uint256 id) public virtual {\r... */\n    tag_6:\n      callvalue\n      dup1\n      iszero\n      tag_67\n      jumpi\n      0x00\n      dup1\n      revert\n    tag_67:\n      pop\n      tag_51\n      tag_69\n      calldatasize\n      0x04\n      tag_70\n      jump\t// in\n    tag_69:\n      tag_71\n      jump\t// in\n        /* \"NftContract.sol\":4892:4990  function setPublicMint(bool _status) external onlyOwner {\r... */\n    tag_7:\n      callvalue\n      dup1\n      iszero\n      tag_72\n      jumpi\n      0x00\n      dup1\n      revert\n    tag_72:\n      pop\n      tag_51\n      tag_74\n      calldatasize\n      0x04\n      tag_75\n      jump\t// in\n    tag_74:\n      tag_76\n      jump\t// in\n        /* \"NftContract.sol\":1279:1389  function setSignAddress(address _signAddress) external onlyOwner {\r... */\n    tag_8:\n      callvalue\n      dup1\n      iszero\n      tag_77\n      jumpi\n      0x00\n      dup1\n      revert\n    tag_77:\n      pop\n      tag_51\n      tag_79\n      calldatasize\n      0x04\n      tag_80\n      jump\t// in\n    tag_79:\n      tag_81\n      jump\t// in\n        /* \"ERC721.sol\":3297:3919  function transferFrom(\r... */\n    tag_9:\n      callvalue\n      dup1\n      iszero\n      tag_82\n      jumpi\n      0x00\n      dup1\n      revert\n    tag_82:\n      pop\n      tag_51\n      tag_84\n      calldatasize\n      0x04\n      tag_85\n      jump\t// in\n    tag_84:\n      tag_86\n      jump\t// in\n        /* \"NftContract.sol\":4680:4884  function royaltyInfo(uint256 _tokenId, uint256 _salePrice)\r... */\n    tag_10:\n      callvalue\n      dup1\n      iszero\n      tag_87\n      jumpi\n      0x00\n      dup1\n      revert\n    tag_87:\n      pop\n      tag_88\n      tag_89\n      calldatasize\n      0x04\n      tag_90\n      jump\t// in\n    tag_89:\n      tag_91\n      jump\t// in\n    tag_88:\n      0x40\n      dup1\n      mload\n      sub(shl(0xa0, 0x01), 0x01)\n        /* \"#utility.yul\":8636:8668   */\n      swap1\n      swap4\n      and\n        /* \"#utility.yul\":8618:8669   */\n      dup4\n      mstore\n        /* \"#utility.yul\":8700:8702   */\n      0x20\n        /* \"#utility.yul\":8685:8703   */\n      dup4\n      add\n        /* \"#utility.yul\":8678:8712   */\n      swap2\n      swap1\n      swap2\n      mstore\n        /* \"#utility.yul\":8591:8609   */\n      add\n        /* \"NftContract.sol\":4680:4884  function royaltyInfo(uint256 _tokenId, uint256 _salePrice)\r... */\n      tag_48\n        /* \"#utility.yul\":8444:8718   */\n      jump\n        /* \"NftContract.sol\":411:443  uint120 public MAX_SUPPLY = 3000 */\n    tag_11:\n      callvalue\n      dup1\n      iszero\n      tag_94\n      jumpi\n      0x00\n      dup1\n      revert\n    tag_94:\n      pop\n      sload(0x0b)\n      tag_95\n      swap1\n      0x0100\n      swap1\n      div\n      sub(shl(0x78, 0x01), 0x01)\n      and\n      dup2\n      jump\n    tag_95:\n      mload(0x40)\n      sub(shl(0x78, 0x01), 0x01)\n        /* \"#utility.yul\":18306:18351   */\n      swap1\n      swap2\n      and\n        /* \"#utility.yul\":18288:18352   */\n      dup2\n      mstore\n        /* \"#utility.yul\":18276:18278   */\n      0x20\n        /* \"#utility.yul\":18261:18279   */\n      add\n        /* \"NftContract.sol\":411:443  uint120 public MAX_SUPPLY = 3000 */\n      tag_48\n        /* \"#utility.yul\":18142:18358   */\n      jump\n        /* \"ERC721.sol\":3927:4439  function safeTransferFrom(\r... */\n    tag_12:\n      callvalue\n      dup1\n      iszero\n      tag_99\n      jumpi\n      0x00\n      dup1\n      revert\n    tag_99:\n      pop\n      tag_51\n      tag_101\n      calldatasize\n      0x04\n      tag_85\n      jump\t// in\n    tag_101:\n      tag_102\n      jump\t// in\n        /* \"ERC721.sol\":1448:1490  mapping(uint256 => address) public ownerOf */\n    tag_13:\n      callvalue\n      dup1\n      iszero\n      tag_103\n      jumpi\n      0x00\n      dup1\n      revert\n    tag_103:\n      pop\n      tag_61\n      tag_105\n      calldatasize\n      0x04\n      tag_63\n      jump\t// in\n    tag_105:\n      mstore(0x20, 0x03)\n      0x00\n      swap1\n      dup2\n      mstore\n      0x40\n      swap1\n      keccak256\n      sload\n      sub(shl(0xa0, 0x01), 0x01)\n      and\n      dup2\n      jump\n        /* \"NftContract.sol\":230:251  string public baseURI */\n    tag_14:\n      callvalue\n      dup1\n      iszero\n      tag_108\n      jumpi\n      0x00\n      dup1\n      revert\n    tag_108:\n      pop\n      tag_56\n      tag_110\n      jump\t// in\n        /* \"ERC721.sol\":2635:2740  function balanceOf(address _acc) public view returns (uint256) {\r... */\n    tag_15:\n      callvalue\n      dup1\n      iszero\n      tag_112\n      jumpi\n      0x00\n      dup1\n      revert\n    tag_112:\n      pop\n      tag_113\n      tag_114\n      calldatasize\n      0x04\n      tag_80\n      jump\t// in\n    tag_114:\n      sub(shl(0xa0, 0x01), 0x01)\n        /* \"ERC721.sol\":2716:2732  _balanceOf[_acc] */\n      and\n        /* \"ERC721.sol\":2689:2696  uint256 */\n      0x00\n        /* \"ERC721.sol\":2716:2732  _balanceOf[_acc] */\n      swap1\n      dup2\n      mstore\n        /* \"ERC721.sol\":2716:2726  _balanceOf */\n      0x02\n        /* \"ERC721.sol\":2716:2732  _balanceOf[_acc] */\n      0x20\n      mstore\n      0x40\n      swap1\n      keccak256\n      sload\n      swap1\n        /* \"ERC721.sol\":2635:2740  function balanceOf(address _acc) public view returns (uint256) {\r... */\n      jump\n    tag_113:\n      mload(0x40)\n        /* \"#utility.yul\":18509:18534   */\n      swap1\n      dup2\n      mstore\n        /* \"#utility.yul\":18497:18499   */\n      0x20\n        /* \"#utility.yul\":18482:18500   */\n      add\n        /* \"ERC721.sol\":2635:2740  function balanceOf(address _acc) public view returns (uint256) {\r... */\n      tag_48\n        /* \"#utility.yul\":18363:18540   */\n      jump\n        /* \"NftContract.sol\":297:328  uint96 public royaltyFeesInBips */\n    tag_16:\n      callvalue\n      dup1\n      iszero\n      tag_118\n      jumpi\n      0x00\n      dup1\n      revert\n    tag_118:\n      pop\n      sload(0x0a)\n      tag_119\n      swap1\n      sub(shl(0x60, 0x01), 0x01)\n      and\n      dup2\n      jump\n    tag_119:\n      mload(0x40)\n      sub(shl(0x60, 0x01), 0x01)\n        /* \"#utility.yul\":18707:18746   */\n      swap1\n      swap2\n      and\n        /* \"#utility.yul\":18689:18747   */\n      dup2\n      mstore\n        /* \"#utility.yul\":18677:18679   */\n      0x20\n        /* \"#utility.yul\":18662:18680   */\n      add\n        /* \"NftContract.sol\":297:328  uint96 public royaltyFeesInBips */\n      tag_48\n        /* \"#utility.yul\":18545:18753   */\n      jump\n        /* \"NftContract.sol\":3539:3856  function mintOwner(address to, uint8 idType)\r... */\n    tag_17:\n      callvalue\n      dup1\n      iszero\n      tag_123\n      jumpi\n      0x00\n      dup1\n      revert\n    tag_123:\n      pop\n      tag_113\n      tag_125\n      calldatasize\n      0x04\n      tag_126\n      jump\t// in\n    tag_125:\n      tag_127\n      jump\t// in\n        /* \"NftContract.sol\":1397:1487  function setMintCost(uint256 val) external onlyOwner {\r... */\n    tag_18:\n      callvalue\n      dup1\n      iszero\n      tag_129\n      jumpi\n      0x00\n      dup1\n      revert\n    tag_129:\n      pop\n      tag_51\n      tag_131\n      calldatasize\n      0x04\n      tag_63\n      jump\t// in\n    tag_131:\n      tag_132\n      jump\t// in\n        /* \"utils/Ownable.sol\":353:440  function owner() public view virtual returns (address) {\r... */\n    tag_19:\n      callvalue\n      dup1\n      iszero\n      tag_133\n      jumpi\n      0x00\n      dup1\n      revert\n    tag_133:\n      pop\n        /* \"utils/Ownable.sol\":426:432  _owner */\n      and(sub(shl(0xa0, 0x01), 0x01), sload(0x07))\n        /* \"utils/Ownable.sol\":353:440  function owner() public view virtual returns (address) {\r... */\n      jump(tag_61)\n        /* \"ERC721.sol\":1364:1384  string public symbol */\n    tag_20:\n      callvalue\n      dup1\n      iszero\n      tag_137\n      jumpi\n      0x00\n      dup1\n      revert\n    tag_137:\n      pop\n      tag_56\n      tag_139\n      jump\t// in\n        /* \"NftContract.sol\":3864:4672  function mintPublic(address to) public payable returns (uint256) {\r... */\n    tag_21:\n      tag_113\n      tag_142\n      calldatasize\n      0x04\n      tag_80\n      jump\t// in\n    tag_142:\n      tag_143\n      jump\t// in\n        /* \"NftContract.sol\":5476:5705  function withdrawEth() external onlyOwner {\r... */\n    tag_22:\n      callvalue\n      dup1\n      iszero\n      tag_145\n      jumpi\n      0x00\n      dup1\n      revert\n    tag_145:\n      pop\n      tag_51\n      tag_147\n      jump\t// in\n        /* \"ERC721.sol\":3082:3289  function setApprovalForAll(address operator, bool approved) public virtual {\r... */\n    tag_23:\n      callvalue\n      dup1\n      iszero\n      tag_148\n      jumpi\n      0x00\n      dup1\n      revert\n    tag_148:\n      pop\n      tag_51\n      tag_150\n      calldatasize\n      0x04\n      tag_151\n      jump\t// in\n    tag_150:\n      tag_152\n      jump\t// in\n        /* \"NftContract.sol\":5294:5468  function calculateRoyalty(uint256 _salePrice)\r... */\n    tag_24:\n      callvalue\n      dup1\n      iszero\n      tag_153\n      jumpi\n      0x00\n      dup1\n      revert\n    tag_153:\n      pop\n      tag_113\n      tag_155\n      calldatasize\n      0x04\n      tag_63\n      jump\t// in\n    tag_155:\n      tag_156\n      jump\t// in\n        /* \"NftContract.sol\":335:364  address public royaltyAddress */\n    tag_25:\n      callvalue\n      dup1\n      iszero\n      tag_158\n      jumpi\n      0x00\n      dup1\n      revert\n    tag_158:\n      pop\n      sload(0x0a)\n      tag_61\n      swap1\n      shl(0x60, 0x01)\n      swap1\n      div\n      sub(shl(0xa0, 0x01), 0x01)\n      and\n      dup2\n      jump\n        /* \"ERC721.sol\":4447:4989  function safeTransferFrom(\r... */\n    tag_26:\n      callvalue\n      dup1\n      iszero\n      tag_162\n      jumpi\n      0x00\n      dup1\n      revert\n    tag_162:\n      pop\n      tag_51\n      tag_164\n      calldatasize\n      0x04\n      tag_165\n      jump\t// in\n    tag_164:\n      tag_166\n      jump\t// in\n        /* \"NftContract.sol\":450:473  uint256 public mintCost */\n    tag_27:\n      callvalue\n      dup1\n      iszero\n      tag_167\n      jumpi\n      0x00\n      dup1\n      revert\n    tag_167:\n      pop\n      tag_113\n      sload(0x0c)\n      dup2\n      jump\n        /* \"NftContract.sol\":2721:2902  function check(\r... */\n    tag_28:\n      callvalue\n      dup1\n      iszero\n      tag_171\n      jumpi\n      0x00\n      dup1\n      revert\n    tag_171:\n      pop\n      tag_61\n      tag_173\n      calldatasize\n      0x04\n      tag_174\n      jump\t// in\n    tag_173:\n      tag_175\n      jump\t// in\n        /* \"ERC721.sol\":1806:2358  function tokenURI(uint256 tokenId)\r... */\n    tag_29:\n      callvalue\n      dup1\n      iszero\n      tag_177\n      jumpi\n      0x00\n      dup1\n      revert\n    tag_177:\n      pop\n      tag_56\n      tag_179\n      calldatasize\n      0x04\n      tag_63\n      jump\t// in\n    tag_179:\n      tag_180\n      jump\t// in\n        /* \"NftContract.sol\":371:404  bool public publicAllowed = false */\n    tag_30:\n      callvalue\n      dup1\n      iszero\n      tag_182\n      jumpi\n      0x00\n      dup1\n      revert\n    tag_182:\n      pop\n      sload(0x0b)\n      tag_44\n      swap1\n      0xff\n      and\n      dup2\n      jump\n        /* \"ERC721.sol\":1554:1598  mapping(uint256 => uint256) public tokenType */\n    tag_31:\n      callvalue\n      dup1\n      iszero\n      tag_186\n      jumpi\n      0x00\n      dup1\n      revert\n    tag_186:\n      pop\n      tag_113\n      tag_188\n      calldatasize\n      0x04\n      tag_63\n      jump\t// in\n    tag_188:\n      mstore(0x20, 0x05)\n      0x00\n      swap1\n      dup2\n      mstore\n      0x40\n      swap1\n      keccak256\n      sload\n      dup2\n      jump\n        /* \"ERC721.sol\":1607:1675  mapping(address => mapping(address => bool)) public isApprovedForAll */\n    tag_32:\n      callvalue\n      dup1\n      iszero\n      tag_191\n      jumpi\n      0x00\n      dup1\n      revert\n    tag_191:\n      pop\n      tag_44\n      tag_193\n      calldatasize\n      0x04\n      tag_194\n      jump\t// in\n    tag_193:\n      0x06\n      0x20\n      swap1\n      dup2\n      mstore\n      0x00\n      swap3\n      dup4\n      mstore\n      0x40\n      dup1\n      dup5\n      keccak256\n      swap1\n      swap2\n      mstore\n      swap1\n      dup3\n      mstore\n      swap1\n      keccak256\n      sload\n      0xff\n      and\n      dup2\n      jump\n        /* \"utils/Ownable.sol\":567:758  function transferOwnership(address newOwner) public virtual onlyOwner {\r... */\n    tag_33:\n      callvalue\n      dup1\n      iszero\n      tag_197\n      jumpi\n      0x00\n      dup1\n      revert\n    tag_197:\n      pop\n      tag_51\n      tag_199\n      calldatasize\n      0x04\n      tag_80\n      jump\t// in\n    tag_199:\n      tag_200\n      jump\t// in\n        /* \"NftContract.sol\":1495:1580  function setPauseMint(bool val) external onlyOwner {\r... */\n    tag_34:\n      callvalue\n      dup1\n      iszero\n      tag_201\n      jumpi\n      0x00\n      dup1\n      revert\n    tag_201:\n      pop\n      tag_51\n      tag_203\n      calldatasize\n      0x04\n      tag_75\n      jump\t// in\n    tag_203:\n      tag_204\n      jump\t// in\n        /* \"NftContract.sol\":1588:2713  function mintWhitelist(\r... */\n    tag_35:\n      tag_113\n      tag_206\n      calldatasize\n      0x04\n      tag_174\n      jump\t// in\n    tag_206:\n      tag_207\n      jump\t// in\n        /* \"ERC721.sol\":892:1329  function supportsInterface(bytes4 interfaceId)\r... */\n    tag_47:\n        /* \"ERC721.sol\":1004:1008  bool */\n      0x00\n      shl(0xe0, 0x01ffc9a7)\n      not(sub(shl(0xe0, 0x01), 0x01))\n        /* \"ERC721.sol\":1046:1071  interfaceId == 0x01ffc9a7 */\n      dup4\n      and\n      eq\n      dup1\n        /* \"ERC721.sol\":1046:1147  interfaceId == 0x01ffc9a7 || // ERC165 Interface ID for ERC165\r... */\n      tag_210\n      jumpi\n      pop\n      shl(0xe0, 0x80ac58cd)\n      not(sub(shl(0xe0, 0x01), 0x01))\n        /* \"ERC721.sol\":1122:1147  interfaceId == 0x80ac58cd */\n      dup4\n      and\n      eq\n        /* \"ERC721.sol\":1046:1147  interfaceId == 0x01ffc9a7 || // ERC165 Interface ID for ERC165\r... */\n    tag_210:\n        /* \"ERC721.sol\":1046:1223  interfaceId == 0x01ffc9a7 || // ERC165 Interface ID for ERC165\r... */\n      dup1\n      tag_211\n      jumpi\n      pop\n      shl(0xe0, 0x5b5e139f)\n      not(sub(shl(0xe0, 0x01), 0x01))\n        /* \"ERC721.sol\":1198:1223  interfaceId == 0x5b5e139f */\n      dup4\n      and\n      eq\n        /* \"ERC721.sol\":1046:1223  interfaceId == 0x01ffc9a7 || // ERC165 Interface ID for ERC165\r... */\n    tag_211:\n        /* \"ERC721.sol\":1046:1307  interfaceId == 0x01ffc9a7 || // ERC165 Interface ID for ERC165\r... */\n      dup1\n      tag_212\n      jumpi\n      pop\n      shl(0xe1, 0x152a902d)\n      not(sub(shl(0xe0, 0x01), 0x01))\n        /* \"ERC721.sol\":1282:1307  interfaceId == 0x2a55205a */\n      dup4\n      and\n      eq\n        /* \"ERC721.sol\":1046:1307  interfaceId == 0x01ffc9a7 || // ERC165 Interface ID for ERC165\r... */\n    tag_212:\n        /* \"ERC721.sol\":1026:1307  return\r... */\n      swap3\n        /* \"ERC721.sol\":892:1329  function supportsInterface(bytes4 interfaceId)\r... */\n      swap2\n      pop\n      pop\n      jump\t// out\n        /* \"NftContract.sol\":4998:5286  function setRoyaltyInfo(address _royaltyAddress, uint96 _royaltyFeesInBips)\r... */\n    tag_54:\n        /* \"utils/Ownable.sol\":426:432  _owner */\n      and(sub(shl(0xa0, 0x01), 0x01), sload(0x07))\n        /* \"utils/Context.sol\":175:185  msg.sender */\n      caller\n        /* \"utils/Ownable.sol\":488:511  _msgSender() == owner() */\n      eq\n        /* \"utils/Ownable.sol\":480:539  require(_msgSender() == owner(), \"Caller is not the owner\") */\n      tag_217\n      jumpi\n      mload(0x40)\n      shl(0xe5, 0x461bcd)\n      dup2\n      mstore\n      0x04\n      add\n      tag_218\n      swap1\n      tag_219\n      jump\t// in\n    tag_218:\n      mload(0x40)\n      dup1\n      swap2\n      sub\n      swap1\n      revert\n    tag_217:\n        /* \"NftContract.sol\":5157:5162  10000 */\n      0x2710\n        /* \"NftContract.sol\":5135:5153  _royaltyFeesInBips */\n      dup2\n      sub(shl(0x60, 0x01), 0x01)\n        /* \"NftContract.sol\":5135:5162  _royaltyFeesInBips <= 10000 */\n      and\n      gt\n      iszero\n        /* \"NftContract.sol\":5127:5186  require(_royaltyFeesInBips <= 10000, \"cannot exceed 10000\") */\n      tag_221\n      jumpi\n      mload(0x40)\n      shl(0xe5, 0x461bcd)\n      dup2\n      mstore\n        /* \"#utility.yul\":16953:16955   */\n      0x20\n        /* \"NftContract.sol\":5127:5186  require(_royaltyFeesInBips <= 10000, \"cannot exceed 10000\") */\n      0x04\n      dup3\n      add\n        /* \"#utility.yul\":16935:16956   */\n      mstore\n        /* \"#utility.yul\":16992:16994   */\n      0x13\n        /* \"#utility.yul\":16972:16990   */\n      0x24\n      dup3\n      add\n        /* \"#utility.yul\":16965:16995   */\n      mstore\n      shl(0x6c, 0x063616e6e6f742065786365656420313030303)\n        /* \"#utility.yul\":17011:17029   */\n      0x44\n      dup3\n      add\n        /* \"#utility.yul\":17004:17053   */\n      mstore\n        /* \"#utility.yul\":17070:17088   */\n      0x64\n      add\n        /* \"NftContract.sol\":5127:5186  require(_royaltyFeesInBips <= 10000, \"cannot exceed 10000\") */\n      tag_218\n        /* \"#utility.yul\":16751:17094   */\n      jump\n        /* \"NftContract.sol\":5127:5186  require(_royaltyFeesInBips <= 10000, \"cannot exceed 10000\") */\n    tag_221:\n      sub(shl(0x60, 0x01), 0x01)\n        /* \"NftContract.sol\":5240:5278  royaltyFeesInBips = _royaltyFeesInBips */\n      and\n      sub(shl(0xa0, 0x01), 0x01)\n        /* \"NftContract.sol\":5197:5229  royaltyAddress = _royaltyAddress */\n      swap1\n      swap2\n      and\n      shl(0x60, 0x01)\n      mul\n      not(sub(shl(0x60, 0x01), 0x01))\n        /* \"NftContract.sol\":5240:5278  royaltyFeesInBips = _royaltyFeesInBips */\n      and\n      or\n        /* \"NftContract.sol\":5197:5211  royaltyAddress */\n      0x0a\n        /* \"NftContract.sol\":5240:5278  royaltyFeesInBips = _royaltyFeesInBips */\n      sstore\n        /* \"NftContract.sol\":4998:5286  function setRoyaltyInfo(address _royaltyAddress, uint96 _royaltyFeesInBips)\r... */\n      jump\t// out\n        /* \"ERC721.sol\":1337:1355  string public name */\n    tag_57:\n      0x00\n      dup1\n      sload\n      tag_224\n      swap1\n      tag_225\n      jump\t// in\n    tag_224:\n      dup1\n      0x1f\n      add\n      0x20\n      dup1\n      swap2\n      div\n      mul\n      0x20\n      add\n      mload(0x40)\n      swap1\n      dup2\n      add\n      0x40\n      mstore\n      dup1\n      swap3\n      swap2\n      swap1\n      dup2\n      dup2\n      mstore\n      0x20\n      add\n      dup3\n      dup1\n      sload\n      tag_226\n      swap1\n      tag_225\n      jump\t// in\n    tag_226:\n      dup1\n      iszero\n      tag_227\n      jumpi\n      dup1\n      0x1f\n      lt\n      tag_228\n      jumpi\n      0x0100\n      dup1\n      dup4\n      sload\n      div\n      mul\n      dup4\n      mstore\n      swap2\n      0x20\n      add\n      swap2\n      jump(tag_227)\n    tag_228:\n      dup3\n      add\n      swap2\n      swap1\n      0x00\n      mstore\n      keccak256(0x00, 0x20)\n      swap1\n    tag_229:\n      dup2\n      sload\n      dup2\n      mstore\n      swap1\n      0x01\n      add\n      swap1\n      0x20\n      add\n      dup1\n      dup4\n      gt\n      tag_229\n      jumpi\n      dup3\n      swap1\n      sub\n      0x1f\n      and\n      dup3\n      add\n      swap2\n    tag_227:\n      pop\n      pop\n      pop\n      pop\n      pop\n      dup2\n      jump\t// out\n        /* \"ERC721.sol\":2748:3074  function approve(address spender, uint256 id) public virtual {\r... */\n    tag_71:\n        /* \"ERC721.sol\":2820:2833  address owner */\n      0x00\n        /* \"ERC721.sol\":2836:2847  ownerOf[id] */\n      dup2\n      dup2\n      mstore\n        /* \"ERC721.sol\":2836:2843  ownerOf */\n      0x03\n        /* \"ERC721.sol\":2836:2847  ownerOf[id] */\n      0x20\n      mstore\n      0x40\n      swap1\n      keccak256\n      sload\n      sub(shl(0xa0, 0x01), 0x01)\n      and\n        /* \"ERC721.sol\":2882:2892  msg.sender */\n      caller\n        /* \"ERC721.sol\":2882:2901  msg.sender == owner */\n      dup2\n      eq\n      dup1\n        /* \"ERC721.sol\":2882:2940  msg.sender == owner || isApprovedForAll[owner][msg.sender] */\n      tag_231\n      jumpi\n      pop\n      sub(shl(0xa0, 0x01), 0x01)\n        /* \"ERC721.sol\":2905:2928  isApprovedForAll[owner] */\n      dup2\n      and\n      0x00\n      swap1\n      dup2\n      mstore\n        /* \"ERC721.sol\":2905:2921  isApprovedForAll */\n      0x06\n        /* \"ERC721.sol\":2905:2928  isApprovedForAll[owner] */\n      0x20\n      swap1\n      dup2\n      mstore\n      0x40\n      dup1\n      dup4\n      keccak256\n        /* \"ERC721.sol\":2929:2939  msg.sender */\n      caller\n        /* \"ERC721.sol\":2905:2940  isApprovedForAll[owner][msg.sender] */\n      dup5\n      mstore\n      swap1\n      swap2\n      mstore\n      swap1\n      keccak256\n      sload\n      0xff\n      and\n        /* \"ERC721.sol\":2882:2940  msg.sender == owner || isApprovedForAll[owner][msg.sender] */\n    tag_231:\n        /* \"ERC721.sol\":2860:2982  require(\r... */\n      tag_232\n      jumpi\n      mload(0x40)\n      shl(0xe5, 0x461bcd)\n      dup2\n      mstore\n        /* \"#utility.yul\":18001:18003   */\n      0x20\n        /* \"ERC721.sol\":2860:2982  require(\r... */\n      0x04\n      dup3\n      add\n        /* \"#utility.yul\":17983:18004   */\n      mstore\n        /* \"#utility.yul\":18040:18042   */\n      0x0e\n        /* \"#utility.yul\":18020:18038   */\n      0x24\n      dup3\n      add\n        /* \"#utility.yul\":18013:18043   */\n      mstore\n      shl(0x92, 0x139bdd08185d5d1a1bdc9a5e9959)\n        /* \"#utility.yul\":18059:18077   */\n      0x44\n      dup3\n      add\n        /* \"#utility.yul\":18052:18096   */\n      mstore\n        /* \"#utility.yul\":18113:18131   */\n      0x64\n      add\n        /* \"ERC721.sol\":2860:2982  require(\r... */\n      tag_218\n        /* \"#utility.yul\":17799:18137   */\n      jump\n        /* \"ERC721.sol\":2860:2982  require(\r... */\n    tag_232:\n        /* \"ERC721.sol\":2995:3010  getApproved[id] */\n      0x00\n      dup3\n      dup2\n      mstore\n        /* \"ERC721.sol\":2995:3006  getApproved */\n      0x04\n        /* \"ERC721.sol\":2995:3010  getApproved[id] */\n      0x20\n      mstore\n      0x40\n      dup1\n      dup3\n      keccak256\n        /* \"ERC721.sol\":2995:3020  getApproved[id] = spender */\n      dup1\n      sload\n      not(sub(shl(0xa0, 0x01), 0x01))\n      and\n      sub(shl(0xa0, 0x01), 0x01)\n      dup8\n      dup2\n      and\n      swap2\n      dup3\n      or\n      swap1\n      swap3\n      sstore\n        /* \"ERC721.sol\":3038:3066  Approval(owner, spender, id) */\n      swap2\n      mload\n        /* \"ERC721.sol\":2995:3010  getApproved[id] */\n      dup6\n      swap4\n        /* \"ERC721.sol\":3038:3066  Approval(owner, spender, id) */\n      swap2\n      dup6\n      and\n      swap2\n      0x8c5be1e5ebec7d5bd14f71427d1e84f3dd0314c0f7b2291e5b200ac8c7c3b925\n      swap2\n      log4\n        /* \"ERC721.sol\":2809:3074  {\r... */\n      pop\n        /* \"ERC721.sol\":2748:3074  function approve(address spender, uint256 id) public virtual {\r... */\n      pop\n      pop\n      jump\t// out\n        /* \"NftContract.sol\":4892:4990  function setPublicMint(bool _status) external onlyOwner {\r... */\n    tag_76:\n        /* \"utils/Ownable.sol\":426:432  _owner */\n      and(sub(shl(0xa0, 0x01), 0x01), sload(0x07))\n        /* \"utils/Context.sol\":175:185  msg.sender */\n      caller\n        /* \"utils/Ownable.sol\":488:511  _msgSender() == owner() */\n      eq\n        /* \"utils/Ownable.sol\":480:539  require(_msgSender() == owner(), \"Caller is not the owner\") */\n      tag_238\n      jumpi\n      mload(0x40)\n      shl(0xe5, 0x461bcd)\n      dup2\n      mstore\n      0x04\n      add\n      tag_218\n      swap1\n      tag_219\n      jump\t// in\n    tag_238:\n        /* \"NftContract.sol\":4959:4972  publicAllowed */\n      0x0b\n        /* \"NftContract.sol\":4959:4982  publicAllowed = _status */\n      dup1\n      sload\n      not(0xff)\n      and\n      swap2\n      iszero\n      iszero\n      swap2\n      swap1\n      swap2\n      or\n      swap1\n      sstore\n        /* \"NftContract.sol\":4892:4990  function setPublicMint(bool _status) external onlyOwner {\r... */\n      jump\t// out\n        /* \"NftContract.sol\":1279:1389  function setSignAddress(address _signAddress) external onlyOwner {\r... */\n    tag_81:\n        /* \"utils/Ownable.sol\":426:432  _owner */\n      and(sub(shl(0xa0, 0x01), 0x01), sload(0x07))\n        /* \"utils/Context.sol\":175:185  msg.sender */\n      caller\n        /* \"utils/Ownable.sol\":488:511  _msgSender() == owner() */\n      eq\n        /* \"utils/Ownable.sol\":480:539  require(_msgSender() == owner(), \"Caller is not the owner\") */\n      tag_244\n      jumpi\n      mload(0x40)\n      shl(0xe5, 0x461bcd)\n      dup2\n      mstore\n      0x04\n      add\n      tag_218\n      swap1\n      tag_219\n      jump\t// in\n    tag_244:\n        /* \"NftContract.sol\":1355:1366  signAddress */\n      0x0d\n        /* \"NftContract.sol\":1355:1381  signAddress = _signAddress */\n      dup1\n      sload\n      not(sub(shl(0xa0, 0x01), 0x01))\n      and\n      sub(shl(0xa0, 0x01), 0x01)\n      swap3\n      swap1\n      swap3\n      and\n      swap2\n      swap1\n      swap2\n      or\n      swap1\n      sstore\n        /* \"NftContract.sol\":1279:1389  function setSignAddress(address _signAddress) external onlyOwner {\r... */\n      jump\t// out\n        /* \"ERC721.sol\":3297:3919  function transferFrom(\r... */\n    tag_86:\n        /* \"ERC721.sol\":3433:3444  ownerOf[id] */\n      0x00\n      dup2\n      dup2\n      mstore\n        /* \"ERC721.sol\":3433:3440  ownerOf */\n      0x03\n        /* \"ERC721.sol\":3433:3444  ownerOf[id] */\n      0x20\n      mstore\n      0x40\n      swap1\n      keccak256\n      sload\n      sub(shl(0xa0, 0x01), 0x01)\n        /* \"ERC721.sol\":3425:3444  from == ownerOf[id] */\n      dup5\n      dup2\n      and\n        /* \"ERC721.sol\":3433:3444  ownerOf[id] */\n      swap2\n      and\n        /* \"ERC721.sol\":3425:3444  from == ownerOf[id] */\n      eq\n        /* \"ERC721.sol\":3417:3459  require(from == ownerOf[id], \"WRONG FROM\") */\n      tag_248\n      jumpi\n      mload(0x40)\n      shl(0xe5, 0x461bcd)\n      dup2\n      mstore\n        /* \"#utility.yul\":12694:12696   */\n      0x20\n        /* \"ERC721.sol\":3417:3459  require(from == ownerOf[id], \"WRONG FROM\") */\n      0x04\n      dup3\n      add\n        /* \"#utility.yul\":12676:12697   */\n      mstore\n        /* \"#utility.yul\":12733:12735   */\n      0x0a\n        /* \"#utility.yul\":12713:12731   */\n      0x24\n      dup3\n      add\n        /* \"#utility.yul\":12706:12736   */\n      mstore\n      shl(0xb0, 0x57524f4e472046524f4d)\n        /* \"#utility.yul\":12752:12770   */\n      0x44\n      dup3\n      add\n        /* \"#utility.yul\":12745:12785   */\n      mstore\n        /* \"#utility.yul\":12802:12820   */\n      0x64\n      add\n        /* \"ERC721.sol\":3417:3459  require(from == ownerOf[id], \"WRONG FROM\") */\n      tag_218\n        /* \"#utility.yul\":12492:12826   */\n      jump\n        /* \"ERC721.sol\":3417:3459  require(from == ownerOf[id], \"WRONG FROM\") */\n    tag_248:\n      sub(shl(0xa0, 0x01), 0x01)\n        /* \"ERC721.sol\":3480:3496  to != address(0) */\n      dup3\n      and\n        /* \"ERC721.sol\":3472:3509  require(to != address(0), \"WRONG TO\") */\n      tag_251\n      jumpi\n      mload(0x40)\n      shl(0xe5, 0x461bcd)\n      dup2\n      mstore\n        /* \"#utility.yul\":12358:12360   */\n      0x20\n        /* \"ERC721.sol\":3472:3509  require(to != address(0), \"WRONG TO\") */\n      0x04\n      dup3\n      add\n        /* \"#utility.yul\":12340:12361   */\n      mstore\n        /* \"#utility.yul\":12397:12398   */\n      0x08\n        /* \"#utility.yul\":12377:12395   */\n      0x24\n      dup3\n      add\n        /* \"#utility.yul\":12370:12399   */\n      mstore\n      shl(0xc0, 0x57524f4e4720544f)\n        /* \"#utility.yul\":12415:12433   */\n      0x44\n      dup3\n      add\n        /* \"#utility.yul\":12408:12446   */\n      mstore\n        /* \"#utility.yul\":12463:12481   */\n      0x64\n      add\n        /* \"ERC721.sol\":3472:3509  require(to != address(0), \"WRONG TO\") */\n      tag_218\n        /* \"#utility.yul\":12156:12487   */\n      jump\n        /* \"ERC721.sol\":3472:3509  require(to != address(0), \"WRONG TO\") */\n    tag_251:\n        /* \"ERC721.sol\":3544:3554  msg.sender */\n      caller\n      sub(shl(0xa0, 0x01), 0x01)\n        /* \"ERC721.sol\":3544:3562  msg.sender == from */\n      dup5\n      and\n      eq\n      dup1\n        /* \"ERC721.sol\":3544:3617  msg.sender == from ||\r... */\n      tag_254\n      jumpi\n      pop\n      sub(shl(0xa0, 0x01), 0x01)\n        /* \"ERC721.sol\":3583:3605  isApprovedForAll[from] */\n      dup4\n      and\n      0x00\n      swap1\n      dup2\n      mstore\n        /* \"ERC721.sol\":3583:3599  isApprovedForAll */\n      0x06\n        /* \"ERC721.sol\":3583:3605  isApprovedForAll[from] */\n      0x20\n      swap1\n      dup2\n      mstore\n      0x40\n      dup1\n      dup4\n      keccak256\n        /* \"ERC721.sol\":3606:3616  msg.sender */\n      caller\n        /* \"ERC721.sol\":3583:3617  isApprovedForAll[from][msg.sender] */\n      dup5\n      mstore\n      swap1\n      swap2\n      mstore\n      swap1\n      keccak256\n      sload\n      0xff\n      and\n        /* \"ERC721.sol\":3544:3617  msg.sender == from ||\r... */\n    tag_254:\n        /* \"ERC721.sol\":3544:3667  msg.sender == from ||\r... */\n      dup1\n      tag_255\n      jumpi\n      pop\n        /* \"ERC721.sol\":3652:3667  getApproved[id] */\n      0x00\n      dup2\n      dup2\n      mstore\n        /* \"ERC721.sol\":3652:3663  getApproved */\n      0x04\n        /* \"ERC721.sol\":3652:3667  getApproved[id] */\n      0x20\n      mstore\n      0x40\n      swap1\n      keccak256\n      sload\n      sub(shl(0xa0, 0x01), 0x01)\n      and\n        /* \"ERC721.sol\":3638:3648  msg.sender */\n      caller\n        /* \"ERC721.sol\":3638:3667  msg.sender == getApproved[id] */\n      eq\n        /* \"ERC721.sol\":3544:3667  msg.sender == from ||\r... */\n    tag_255:\n        /* \"ERC721.sol\":3522:3709  require(\r... */\n      tag_256\n      jumpi\n      mload(0x40)\n      shl(0xe5, 0x461bcd)\n      dup2\n      mstore\n        /* \"#utility.yul\":15917:15919   */\n      0x20\n        /* \"ERC721.sol\":3522:3709  require(\r... */\n      0x04\n      dup3\n      add\n        /* \"#utility.yul\":15899:15920   */\n      mstore\n        /* \"#utility.yul\":15956:15958   */\n      0x0e\n        /* \"#utility.yul\":15936:15954   */\n      0x24\n      dup3\n      add\n        /* \"#utility.yul\":15929:15959   */\n      mstore\n      shl(0x92, 0x1393d5081055551213d492569151)\n        /* \"#utility.yul\":15975:15993   */\n      0x44\n      dup3\n      add\n        /* \"#utility.yul\":15968:16012   */\n      mstore\n        /* \"#utility.yul\":16029:16047   */\n      0x64\n      add\n        /* \"ERC721.sol\":3522:3709  require(\r... */\n      tag_218\n        /* \"#utility.yul\":15715:16053   */\n      jump\n        /* \"ERC721.sol\":3522:3709  require(\r... */\n    tag_256:\n      sub(shl(0xa0, 0x01), 0x01)\n        /* \"ERC721.sol\":3747:3763  _balanceOf[from] */\n      dup1\n      dup5\n      and\n      0x00\n      dup2\n      dup2\n      mstore\n        /* \"ERC721.sol\":3747:3757  _balanceOf */\n      0x02\n        /* \"ERC721.sol\":3747:3763  _balanceOf[from] */\n      0x20\n      swap1\n      dup2\n      mstore\n      0x40\n      dup1\n      dup4\n      keccak256\n        /* \"ERC721.sol\":3747:3765  _balanceOf[from]-- */\n      dup1\n      sload\n      not(0x00)\n      add\n      swap1\n      sstore\n        /* \"ERC721.sol\":3780:3794  _balanceOf[to] */\n      swap4\n      dup7\n      and\n      dup1\n      dup4\n      mstore\n      dup5\n      dup4\n      keccak256\n        /* \"ERC721.sol\":3780:3796  _balanceOf[to]++ */\n      dup1\n      sload\n        /* \"ERC721.sol\":3747:3765  _balanceOf[from]-- */\n      0x01\n        /* \"ERC721.sol\":3780:3796  _balanceOf[to]++ */\n      add\n      swap1\n      sstore\n        /* \"ERC721.sol\":3820:3831  ownerOf[id] */\n      dup6\n      dup4\n      mstore\n        /* \"ERC721.sol\":3820:3827  ownerOf */\n      0x03\n        /* \"ERC721.sol\":3820:3831  ownerOf[id] */\n      dup3\n      mstore\n      dup5\n      dup4\n      keccak256\n        /* \"ERC721.sol\":3820:3836  ownerOf[id] = to */\n      dup1\n      sload\n      not(sub(shl(0xa0, 0x01), 0x01))\n      swap1\n      dup2\n      and\n      dup4\n      or\n      swap1\n      swap2\n      sstore\n        /* \"ERC721.sol\":3856:3867  getApproved */\n      0x04\n        /* \"ERC721.sol\":3856:3871  getApproved[id] */\n      swap1\n      swap3\n      mstore\n      dup5\n      dup4\n      keccak256\n        /* \"ERC721.sol\":3849:3871  delete getApproved[id] */\n      dup1\n      sload\n      swap1\n      swap3\n      and\n      swap1\n      swap2\n      sstore\n        /* \"ERC721.sol\":3889:3911  Transfer(from, to, id) */\n      swap3\n      mload\n        /* \"ERC721.sol\":3828:3830  id */\n      dup5\n      swap4\n        /* \"ERC721.sol\":3780:3794  _balanceOf[to] */\n      swap3\n        /* \"ERC721.sol\":3747:3763  _balanceOf[from] */\n      swap2\n        /* \"ERC721.sol\":3889:3911  Transfer(from, to, id) */\n      0xddf252ad1be2c89b69c2b068fc378daa952ba7f163c4a11628f55a4df523b3ef\n      swap2\n      log4\n        /* \"ERC721.sol\":3297:3919  function transferFrom(\r... */\n      pop\n      pop\n      pop\n      jump\t// out\n        /* \"NftContract.sol\":4680:4884  function royaltyInfo(uint256 _tokenId, uint256 _salePrice)\r... */\n    tag_91:\n        /* \"NftContract.sol\":4831:4845  royaltyAddress */\n      sload(0x0a)\n        /* \"NftContract.sol\":4789:4796  address */\n      0x00\n      swap1\n      dup2\n      swap1\n      shl(0x60, 0x01)\n        /* \"NftContract.sol\":4831:4845  royaltyAddress */\n      swap1\n      div\n      sub(shl(0xa0, 0x01), 0x01)\n      and\n        /* \"NftContract.sol\":4847:4875  calculateRoyalty(_salePrice) */\n      tag_260\n        /* \"NftContract.sol\":4864:4874  _salePrice */\n      dup5\n        /* \"NftContract.sol\":4847:4863  calculateRoyalty */\n      tag_156\n        /* \"NftContract.sol\":4847:4875  calculateRoyalty(_salePrice) */\n      jump\t// in\n    tag_260:\n        /* \"NftContract.sol\":4823:4876  return (royaltyAddress, calculateRoyalty(_salePrice)) */\n      swap2\n      pop\n      swap2\n      pop\n        /* \"NftContract.sol\":4680:4884  function royaltyInfo(uint256 _tokenId, uint256 _salePrice)\r... */\n    tag_259:\n      swap3\n      pop\n      swap3\n      swap1\n      pop\n      jump\t// out\n        /* \"ERC721.sol\":3927:4439  function safeTransferFrom(\r... */\n    tag_102:\n        /* \"ERC721.sol\":4051:4077  transferFrom(from, to, id) */\n      tag_262\n        /* \"ERC721.sol\":4064:4068  from */\n      dup4\n        /* \"ERC721.sol\":4070:4072  to */\n      dup4\n        /* \"ERC721.sol\":4074:4076  id */\n      dup4\n        /* \"ERC721.sol\":4051:4063  transferFrom */\n      tag_86\n        /* \"ERC721.sol\":4051:4077  transferFrom(from, to, id) */\n      jump\t// in\n    tag_262:\n      sub(shl(0xa0, 0x01), 0x01)\n        /* \"ERC721.sol\":4112:4126  to.code.length */\n      dup3\n      and\n      extcodesize\n        /* \"ERC721.sol\":4112:4131  to.code.length == 0 */\n      iszero\n      dup1\n        /* \"ERC721.sol\":4112:4387  to.code.length == 0 ||\r... */\n      tag_263\n      jumpi\n      pop\n        /* \"ERC721.sol\":4152:4321  ERC721TokenReceiver(to).onERC721Received(\r... */\n      mload(0x40)\n      shl(0xe1, 0x0a85bd01)\n      dup1\n      dup3\n      mstore\n        /* \"ERC721.sol\":4215:4225  msg.sender */\n      caller\n        /* \"ERC721.sol\":4152:4321  ERC721TokenReceiver(to).onERC721Received(\r... */\n      0x04\n      dup4\n      add\n        /* \"#utility.yul\":8189:8223   */\n      mstore\n      sub(shl(0xa0, 0x01), 0x01)\n        /* \"#utility.yul\":8259:8274   */\n      dup6\n      dup2\n      and\n        /* \"#utility.yul\":8239:8257   */\n      0x24\n      dup5\n      add\n        /* \"#utility.yul\":8232:8275   */\n      mstore\n        /* \"#utility.yul\":8291:8309   */\n      0x44\n      dup4\n      add\n        /* \"#utility.yul\":8284:8318   */\n      dup5\n      swap1\n      mstore\n        /* \"#utility.yul\":8354:8357   */\n      0x80\n        /* \"#utility.yul\":8334:8352   */\n      0x64\n      dup5\n      add\n        /* \"#utility.yul\":8327:8358   */\n      mstore\n      0x00\n        /* \"#utility.yul\":8374:8393   */\n      0x84\n      dup5\n      add\n        /* \"#utility.yul\":8367:8397   */\n      mstore\n        /* \"ERC721.sol\":4342:4387  ERC721TokenReceiver.onERC721Received.selector */\n      swap1\n      swap2\n        /* \"ERC721.sol\":4152:4192  ERC721TokenReceiver(to).onERC721Received */\n      swap1\n      dup5\n      and\n      swap1\n        /* \"ERC721.sol\":4342:4387  ERC721TokenReceiver.onERC721Received.selector */\n      0x150b7a02\n      swap1\n        /* \"#utility.yul\":8414:8433   */\n      0xa4\n      add\n        /* \"ERC721.sol\":4152:4321  ERC721TokenReceiver(to).onERC721Received(\r... */\n      0x20\n      mload(0x40)\n      dup1\n      dup4\n      sub\n      dup2\n      0x00\n      dup8\n      dup1\n      extcodesize\n      iszero\n      dup1\n      iszero\n      tag_266\n      jumpi\n      0x00\n      dup1\n      revert\n    tag_266:\n      pop\n      gas\n      call\n      iszero\n      dup1\n      iszero\n      tag_268\n      jumpi\n      returndatasize\n      0x00\n      dup1\n      returndatacopy\n      revert(0x00, returndatasize)\n    tag_268:\n      pop\n      pop\n      pop\n      pop\n      mload(0x40)\n      returndatasize\n      not(0x1f)\n      0x1f\n      dup3\n      add\n      and\n      dup3\n      add\n      dup1\n      0x40\n      mstore\n      pop\n      dup2\n      add\n      swap1\n      tag_269\n      swap2\n      swap1\n      tag_270\n      jump\t// in\n    tag_269:\n      not(sub(shl(0xe0, 0x01), 0x01))\n        /* \"ERC721.sol\":4152:4387  ERC721TokenReceiver(to).onERC721Received(\r... */\n      and\n      eq\n        /* \"ERC721.sol\":4112:4387  to.code.length == 0 ||\r... */\n    tag_263:\n        /* \"ERC721.sol\":4090:4431  require(\r... */\n      tag_271\n      jumpi\n      mload(0x40)\n      shl(0xe5, 0x461bcd)\n      dup2\n      mstore\n        /* \"#utility.yul\":14868:14870   */\n      0x20\n        /* \"ERC721.sol\":4090:4431  require(\r... */\n      0x04\n      dup3\n      add\n        /* \"#utility.yul\":14850:14871   */\n      mstore\n        /* \"#utility.yul\":14907:14909   */\n      0x10\n        /* \"#utility.yul\":14887:14905   */\n      0x24\n      dup3\n      add\n        /* \"#utility.yul\":14880:14910   */\n      mstore\n      shl(0x82, 0x155394d0519157d49150d25412515395)\n        /* \"#utility.yul\":14926:14944   */\n      0x44\n      dup3\n      add\n        /* \"#utility.yul\":14919:14965   */\n      mstore\n        /* \"#utility.yul\":14982:15000   */\n      0x64\n      add\n        /* \"ERC721.sol\":4090:4431  require(\r... */\n      tag_218\n        /* \"#utility.yul\":14666:15006   */\n      jump\n        /* \"ERC721.sol\":4090:4431  require(\r... */\n    tag_271:\n        /* \"ERC721.sol\":3927:4439  function safeTransferFrom(\r... */\n      pop\n      pop\n      pop\n      jump\t// out\n        /* \"NftContract.sol\":230:251  string public baseURI */\n    tag_110:\n      0x08\n      dup1\n      sload\n      tag_224\n      swap1\n      tag_225\n      jump\t// in\n        /* \"NftContract.sol\":3539:3856  function mintOwner(address to, uint8 idType)\r... */\n    tag_127:\n        /* \"NftContract.sol\":3639:3646  uint256 */\n      0x00\n        /* \"utils/Ownable.sol\":504:511  owner() */\n      tag_281\n        /* \"utils/Ownable.sol\":426:432  _owner */\n      and(sub(shl(0xa0, 0x01), 0x01), sload(0x07))\n      swap1\n        /* \"utils/Ownable.sol\":353:440  function owner() public view virtual returns (address) {\r... */\n      jump\n        /* \"utils/Ownable.sol\":504:511  owner() */\n    tag_281:\n      sub(shl(0xa0, 0x01), 0x01)\n        /* \"utils/Ownable.sol\":488:511  _msgSender() == owner() */\n      and\n        /* \"utils/Context.sol\":175:185  msg.sender */\n      caller\n      sub(shl(0xa0, 0x01), 0x01)\n        /* \"utils/Ownable.sol\":488:511  _msgSender() == owner() */\n      and\n      eq\n        /* \"utils/Ownable.sol\":480:539  require(_msgSender() == owner(), \"Caller is not the owner\") */\n      tag_283\n      jumpi\n      mload(0x40)\n      shl(0xe5, 0x461bcd)\n      dup2\n      mstore\n      0x04\n      add\n      tag_218\n      swap1\n      tag_219\n      jump\t// in\n    tag_283:\n        /* \"NftContract.sol\":3688:3692  3000 */\n      0x0bb8\n        /* \"NftContract.sol\":3672:3684  tokenCounter */\n      sload(0x09)\n        /* \"NftContract.sol\":3672:3692  tokenCounter <= 3000 */\n      gt\n      iszero\n        /* \"NftContract.sol\":3664:3715  require(tokenCounter <= 3000, \"Max supply reached\") */\n      tag_286\n      jumpi\n      mload(0x40)\n      shl(0xe5, 0x461bcd)\n      dup2\n      mstore\n      0x04\n      add\n      tag_218\n      swap1\n      tag_288\n      jump\t// in\n    tag_286:\n        /* \"NftContract.sol\":3751:3763  tokenCounter */\n      0x09\n        /* \"NftContract.sol\":3751:3765  tokenCounter++ */\n      dup1\n      sload\n      0x01\n      add\n      swap1\n      dup2\n      swap1\n      sstore\n        /* \"NftContract.sol\":3787:3818  _mint(to, tokenCounter, idType) */\n      tag_289\n      swap1\n        /* \"NftContract.sol\":3793:3795  to */\n      dup5\n      swap1\n        /* \"NftContract.sol\":3811:3817  idType */\n      dup5\n        /* \"NftContract.sol\":3787:3792  _mint */\n      tag_290\n        /* \"NftContract.sol\":3787:3818  _mint(to, tokenCounter, idType) */\n      jump\t// in\n    tag_289:\n      pop\n        /* \"NftContract.sol\":3836:3848  tokenCounter */\n      sload(0x09)\n        /* \"NftContract.sol\":3539:3856  function mintOwner(address to, uint8 idType)\r... */\n      swap3\n      swap2\n      pop\n      pop\n      jump\t// out\n        /* \"NftContract.sol\":1397:1487  function setMintCost(uint256 val) external onlyOwner {\r... */\n    tag_132:\n        /* \"utils/Ownable.sol\":426:432  _owner */\n      and(sub(shl(0xa0, 0x01), 0x01), sload(0x07))\n        /* \"utils/Context.sol\":175:185  msg.sender */\n      caller\n        /* \"utils/Ownable.sol\":488:511  _msgSender() == owner() */\n      eq\n        /* \"utils/Ownable.sol\":480:539  require(_msgSender() == owner(), \"Caller is not the owner\") */\n      tag_294\n      jumpi\n      mload(0x40)\n      shl(0xe5, 0x461bcd)\n      dup2\n      mstore\n      0x04\n      add\n      tag_218\n      swap1\n      tag_219\n      jump\t// in\n    tag_294:\n        /* \"NftContract.sol\":1472:1479  val - 1 */\n      tag_297\n        /* \"NftContract.sol\":1478:1479  1 */\n      0x01\n        /* \"NftContract.sol\":1472:1475  val */\n      dup3\n        /* \"NftContract.sol\":1472:1479  val - 1 */\n      tag_298\n      jump\t// in\n    tag_297:\n        /* \"NftContract.sol\":1461:1469  mintCost */\n      0x0c\n        /* \"NftContract.sol\":1461:1479  mintCost = val - 1 */\n      sstore\n      pop\n        /* \"NftContract.sol\":1397:1487  function setMintCost(uint256 val) external onlyOwner {\r... */\n      jump\t// out\n        /* \"ERC721.sol\":1364:1384  string public symbol */\n    tag_139:\n      0x01\n      dup1\n      sload\n      tag_224\n      swap1\n      tag_225\n      jump\t// in\n        /* \"NftContract.sol\":3864:4672  function mintPublic(address to) public payable returns (uint256) {\r... */\n    tag_143:\n        /* \"NftContract.sol\":3948:3957  pauseMint */\n      sload(0x0d)\n        /* \"NftContract.sol\":3920:3927  uint256 */\n      0x00\n      swap1\n      shl(0xa0, 0x01)\n        /* \"NftContract.sol\":3948:3957  pauseMint */\n      swap1\n      div\n      0xff\n      and\n        /* \"NftContract.sol\":3948:3966  pauseMint == false */\n      iszero\n        /* \"NftContract.sol\":3940:3988  require(pauseMint == false, \"Minting is paused\") */\n      tag_306\n      jumpi\n      mload(0x40)\n      shl(0xe5, 0x461bcd)\n      dup2\n      mstore\n        /* \"#utility.yul\":16260:16262   */\n      0x20\n        /* \"NftContract.sol\":3940:3988  require(pauseMint == false, \"Minting is paused\") */\n      0x04\n      dup3\n      add\n        /* \"#utility.yul\":16242:16263   */\n      mstore\n        /* \"#utility.yul\":16299:16301   */\n      0x11\n        /* \"#utility.yul\":16279:16297   */\n      0x24\n      dup3\n      add\n        /* \"#utility.yul\":16272:16302   */\n      mstore\n      shl(0x7a, 0x135a5b9d1a5b99c81a5cc81c185d5cd959)\n        /* \"#utility.yul\":16318:16336   */\n      0x44\n      dup3\n      add\n        /* \"#utility.yul\":16311:16358   */\n      mstore\n        /* \"#utility.yul\":16375:16393   */\n      0x64\n      add\n        /* \"NftContract.sol\":3940:3988  require(pauseMint == false, \"Minting is paused\") */\n      tag_218\n        /* \"#utility.yul\":16058:16399   */\n      jump\n        /* \"NftContract.sol\":3940:3988  require(pauseMint == false, \"Minting is paused\") */\n    tag_306:\n        /* \"NftContract.sol\":4019:4027  mintCost */\n      sload(0x0c)\n        /* \"NftContract.sol\":4007:4016  msg.value */\n      callvalue\n        /* \"NftContract.sol\":4007:4027  msg.value > mintCost */\n      gt\n        /* \"NftContract.sol\":3999:4047  require(msg.value > mintCost, \"Not engough eth\") */\n      tag_309\n      jumpi\n      mload(0x40)\n      shl(0xe5, 0x461bcd)\n      dup2\n      mstore\n        /* \"#utility.yul\":14121:14123   */\n      0x20\n        /* \"NftContract.sol\":3999:4047  require(msg.value > mintCost, \"Not engough eth\") */\n      0x04\n      dup3\n      add\n        /* \"#utility.yul\":14103:14124   */\n      mstore\n        /* \"#utility.yul\":14160:14162   */\n      0x0f\n        /* \"#utility.yul\":14140:14158   */\n      0x24\n      dup3\n      add\n        /* \"#utility.yul\":14133:14163   */\n      mstore\n      shl(0x8b, 0x09cdee840cadccedeeaced040cae8d)\n        /* \"#utility.yul\":14179:14197   */\n      0x44\n      dup3\n      add\n        /* \"#utility.yul\":14172:14217   */\n      mstore\n        /* \"#utility.yul\":14234:14252   */\n      0x64\n      add\n        /* \"NftContract.sol\":3999:4047  require(msg.value > mintCost, \"Not engough eth\") */\n      tag_218\n        /* \"#utility.yul\":13919:14258   */\n      jump\n        /* \"NftContract.sol\":3999:4047  require(msg.value > mintCost, \"Not engough eth\") */\n    tag_309:\n        /* \"NftContract.sol\":4066:4079  publicAllowed */\n      and(0xff, sload(0x0b))\n        /* \"NftContract.sol\":4058:4108  require(publicAllowed, \"Open minting not allowed\") */\n      tag_312\n      jumpi\n      mload(0x40)\n      shl(0xe5, 0x461bcd)\n      dup2\n      mstore\n        /* \"#utility.yul\":10941:10943   */\n      0x20\n        /* \"NftContract.sol\":4058:4108  require(publicAllowed, \"Open minting not allowed\") */\n      0x04\n      dup3\n      add\n        /* \"#utility.yul\":10923:10944   */\n      mstore\n        /* \"#utility.yul\":10980:10982   */\n      0x18\n        /* \"#utility.yul\":10960:10978   */\n      0x24\n      dup3\n      add\n        /* \"#utility.yul\":10953:10983   */\n      mstore\n        /* \"#utility.yul\":11019:11045   */\n      0x4f70656e206d696e74696e67206e6f7420616c6c6f7765640000000000000000\n        /* \"#utility.yul\":10999:11017   */\n      0x44\n      dup3\n      add\n        /* \"#utility.yul\":10992:11046   */\n      mstore\n        /* \"#utility.yul\":11063:11081   */\n      0x64\n      add\n        /* \"NftContract.sol\":4058:4108  require(publicAllowed, \"Open minting not allowed\") */\n      tag_218\n        /* \"#utility.yul\":10739:11087   */\n      jump\n        /* \"NftContract.sol\":4058:4108  require(publicAllowed, \"Open minting not allowed\") */\n    tag_312:\n        /* \"NftContract.sol\":4143:4153  MAX_SUPPLY */\n      sload(0x0b)\n        /* \"NftContract.sol\":4127:4139  tokenCounter */\n      sload(0x09)\n        /* \"NftContract.sol\":4143:4153  MAX_SUPPLY */\n      0x0100\n      swap1\n      swap2\n      div\n      sub(shl(0x78, 0x01), 0x01)\n      and\n      lt\n        /* \"NftContract.sol\":4127:4153  tokenCounter <= MAX_SUPPLY */\n      iszero\n        /* \"NftContract.sol\":4119:4176  require(tokenCounter <= MAX_SUPPLY, \"Max supply reached\") */\n      tag_315\n      jumpi\n      mload(0x40)\n      shl(0xe5, 0x461bcd)\n      dup2\n      mstore\n      0x04\n      add\n      tag_218\n      swap1\n      tag_288\n      jump\t// in\n    tag_315:\n        /* \"NftContract.sol\":4212:4224  tokenCounter */\n      0x09\n        /* \"NftContract.sol\":4212:4226  tokenCounter++ */\n      dup1\n      sload\n      0x01\n      add\n      swap1\n      dup2\n      swap1\n      sstore\n        /* \"NftContract.sol\":4342:4542  abi.encodePacked(\r... */\n      mload(0x40)\n      not(sub(shl(0x60, 0x01), 0x01))\n        /* \"NftContract.sol\":4385:4395  msg.sender */\n      caller\n        /* \"#utility.yul\":5737:5739   */\n      0x60\n        /* \"#utility.yul\":5733:5748   */\n      shl\n        /* \"#utility.yul\":5729:5782   */\n      and\n        /* \"NftContract.sol\":4342:4542  abi.encodePacked(\r... */\n      0x20\n      dup3\n      add\n        /* \"#utility.yul\":5717:5783   */\n      mstore\n        /* \"NftContract.sol\":4422:4437  block.timestamp */\n      timestamp\n        /* \"#utility.yul\":5799:5811   */\n      0x34\n      dup3\n      add\n        /* \"#utility.yul\":5792:5820   */\n      mstore\n        /* \"#utility.yul\":5836:5848   */\n      0x54\n      dup2\n      add\n        /* \"#utility.yul\":5829:5857   */\n      swap2\n      swap1\n      swap2\n      mstore\n        /* \"NftContract.sol\":4503:4519  block.difficulty */\n      difficulty\n        /* \"#utility.yul\":5873:5885   */\n      0x74\n      dup3\n      add\n        /* \"#utility.yul\":5866:5894   */\n      mstore\n      0x00\n      swap1\n        /* \"NftContract.sol\":4579:4580  3 */\n      0x03\n      swap1\n        /* \"#utility.yul\":5910:5923   */\n      0x94\n      add\n        /* \"NftContract.sol\":4342:4542  abi.encodePacked(\r... */\n      mload(0x40)\n      0x20\n      dup2\n      dup4\n      sub\n      sub\n      dup2\n      mstore\n      swap1\n      0x40\n      mstore\n        /* \"NftContract.sol\":4310:4561  keccak256(\r... */\n      dup1\n      mload\n      swap1\n      0x20\n      add\n      keccak256\n        /* \"NftContract.sol\":4284:4576  uint256(\r... */\n      0x00\n      shr\n        /* \"NftContract.sol\":4284:4580  uint256(\r... */\n      tag_319\n      swap2\n      swap1\n      tag_320\n      jump\t// in\n    tag_319:\n        /* \"NftContract.sol\":4248:4591  uint8 tknType = uint8(\r... */\n      swap1\n      pop\n        /* \"NftContract.sol\":4602:4634  _mint(to, tokenCounter, tknType) */\n      tag_321\n        /* \"NftContract.sol\":4608:4610  to */\n      dup4\n        /* \"NftContract.sol\":4612:4624  tokenCounter */\n      sload(0x09)\n        /* \"NftContract.sol\":4626:4633  tknType */\n      dup4\n        /* \"NftContract.sol\":4602:4607  _mint */\n      tag_290\n        /* \"NftContract.sol\":4602:4634  _mint(to, tokenCounter, tknType) */\n      jump\t// in\n    tag_321:\n      pop\n      pop\n        /* \"NftContract.sol\":4652:4664  tokenCounter */\n      sload(0x09)\n      swap2\n        /* \"NftContract.sol\":3864:4672  function mintPublic(address to) public payable returns (uint256) {\r... */\n      swap1\n      pop\n      jump\t// out\n        /* \"NftContract.sol\":5476:5705  function withdrawEth() external onlyOwner {\r... */\n    tag_147:\n        /* \"utils/Ownable.sol\":426:432  _owner */\n      and(sub(shl(0xa0, 0x01), 0x01), sload(0x07))\n        /* \"utils/Context.sol\":175:185  msg.sender */\n      caller\n        /* \"utils/Ownable.sol\":488:511  _msgSender() == owner() */\n      eq\n        /* \"utils/Ownable.sol\":480:539  require(_msgSender() == owner(), \"Caller is not the owner\") */\n      tag_325\n      jumpi\n      mload(0x40)\n      shl(0xe5, 0x461bcd)\n      dup2\n      mstore\n      0x04\n      add\n      tag_218\n      swap1\n      tag_219\n      jump\t// in\n    tag_325:\n        /* \"NftContract.sol\":5529:5548  address payable own */\n      0x00\n        /* \"NftContract.sol\":5559:5566  owner() */\n      tag_328\n        /* \"utils/Ownable.sol\":426:432  _owner */\n      and(sub(shl(0xa0, 0x01), 0x01), sload(0x07))\n      swap1\n        /* \"utils/Ownable.sol\":353:440  function owner() public view virtual returns (address) {\r... */\n      jump\n        /* \"NftContract.sol\":5559:5566  owner() */\n    tag_328:\n        /* \"NftContract.sol\":5529:5567  address payable own = payable(owner()) */\n      swap1\n      pop\n        /* \"NftContract.sol\":5579:5591  bool success */\n      0x00\n        /* \"NftContract.sol\":5605:5608  own */\n      dup2\n      sub(shl(0xa0, 0x01), 0x01)\n        /* \"NftContract.sol\":5597:5614  payable(own).call */\n      and\n        /* \"NftContract.sol\":5622:5643  address(this).balance */\n      selfbalance\n        /* \"NftContract.sol\":5597:5648  payable(own).call{value: address(this).balance}(\"\") */\n      mload(0x40)\n      0x00\n      mload(0x40)\n      dup1\n      dup4\n      sub\n      dup2\n      dup6\n      dup8\n      gas\n      call\n      swap3\n      pop\n      pop\n      pop\n      returndatasize\n      dup1\n      0x00\n      dup2\n      eq\n      tag_333\n      jumpi\n      mload(0x40)\n      swap2\n      pop\n      and(add(returndatasize, 0x3f), not(0x1f))\n      dup3\n      add\n      0x40\n      mstore\n      returndatasize\n      dup3\n      mstore\n      returndatasize\n      0x00\n      0x20\n      dup5\n      add\n      returndatacopy\n      jump(tag_332)\n    tag_333:\n      0x60\n      swap2\n      pop\n    tag_332:\n      pop\n        /* \"NftContract.sol\":5578:5648  (bool success, ) = payable(own).call{value: address(this).balance}(\"\") */\n      pop\n      swap1\n      pop\n        /* \"NftContract.sol\":5667:5674  success */\n      dup1\n        /* \"NftContract.sol\":5659:5697  require(success, \"Transaction failed\") */\n      tag_334\n      jumpi\n      mload(0x40)\n      shl(0xe5, 0x461bcd)\n      dup2\n      mstore\n        /* \"#utility.yul\":15570:15572   */\n      0x20\n        /* \"NftContract.sol\":5659:5697  require(success, \"Transaction failed\") */\n      0x04\n      dup3\n      add\n        /* \"#utility.yul\":15552:15573   */\n      mstore\n        /* \"#utility.yul\":15609:15611   */\n      0x12\n        /* \"#utility.yul\":15589:15607   */\n      0x24\n      dup3\n      add\n        /* \"#utility.yul\":15582:15612   */\n      mstore\n      shl(0x72, 0x151c985b9cd858dd1a5bdb8819985a5b1959)\n        /* \"#utility.yul\":15628:15646   */\n      0x44\n      dup3\n      add\n        /* \"#utility.yul\":15621:15669   */\n      mstore\n        /* \"#utility.yul\":15686:15704   */\n      0x64\n      add\n        /* \"NftContract.sol\":5659:5697  require(success, \"Transaction failed\") */\n      tag_218\n        /* \"#utility.yul\":15368:15710   */\n      jump\n        /* \"NftContract.sol\":5659:5697  require(success, \"Transaction failed\") */\n    tag_334:\n        /* \"NftContract.sol\":5518:5705  {\r... */\n      pop\n      pop\n        /* \"NftContract.sol\":5476:5705  function withdrawEth() external onlyOwner {\r... */\n      jump\t// out\n        /* \"ERC721.sol\":3082:3289  function setApprovalForAll(address operator, bool approved) public virtual {\r... */\n    tag_152:\n        /* \"ERC721.sol\":3185:3195  msg.sender */\n      caller\n        /* \"ERC721.sol\":3168:3196  isApprovedForAll[msg.sender] */\n      0x00\n      dup2\n      dup2\n      mstore\n        /* \"ERC721.sol\":3168:3184  isApprovedForAll */\n      0x06\n        /* \"ERC721.sol\":3168:3196  isApprovedForAll[msg.sender] */\n      0x20\n      swap1\n      dup2\n      mstore\n      0x40\n      dup1\n      dup4\n      keccak256\n      sub(shl(0xa0, 0x01), 0x01)\n        /* \"ERC721.sol\":3168:3206  isApprovedForAll[msg.sender][operator] */\n      dup8\n      and\n      dup1\n      dup6\n      mstore\n      swap1\n      dup4\n      mstore\n      swap3\n      dup2\n      swap1\n      keccak256\n        /* \"ERC721.sol\":3168:3217  isApprovedForAll[msg.sender][operator] = approved */\n      dup1\n      sload\n      not(0xff)\n      and\n      dup7\n      iszero\n      iszero\n      swap1\n      dup2\n      or\n      swap1\n      swap2\n      sstore\n        /* \"ERC721.sol\":3235:3281  ApprovalForAll(msg.sender, operator, approved) */\n      swap1\n      mload\n        /* \"#utility.yul\":8863:8904   */\n      swap1\n      dup2\n      mstore\n        /* \"ERC721.sol\":3168:3206  isApprovedForAll[msg.sender][operator] */\n      swap2\n      swap3\n        /* \"ERC721.sol\":3185:3195  msg.sender */\n      swap2\n        /* \"ERC721.sol\":3235:3281  ApprovalForAll(msg.sender, operator, approved) */\n      0x17307eab39ab6107e8899845ad3d59bd9653f200f220920489ca2b5937696c31\n      swap2\n        /* \"#utility.yul\":8836:8854   */\n      add\n        /* \"ERC721.sol\":3235:3281  ApprovalForAll(msg.sender, operator, approved) */\n      mload(0x40)\n      dup1\n      swap2\n      sub\n      swap1\n      log3\n        /* \"ERC721.sol\":3082:3289  function setApprovalForAll(address operator, bool approved) public virtual {\r... */\n      pop\n      pop\n      jump\t// out\n        /* \"NftContract.sol\":5294:5468  function calculateRoyalty(uint256 _salePrice)\r... */\n    tag_156:\n        /* \"NftContract.sol\":5443:5460  royaltyFeesInBips */\n      sload(0x0a)\n        /* \"NftContract.sol\":5388:5395  uint256 */\n      0x00\n      swap1\n      sub(shl(0x60, 0x01), 0x01)\n        /* \"NftContract.sol\":5443:5460  royaltyFeesInBips */\n      and\n        /* \"NftContract.sol\":5421:5439  _salePrice / 10000 */\n      tag_340\n        /* \"NftContract.sol\":5434:5439  10000 */\n      0x2710\n        /* \"NftContract.sol\":5421:5431  _salePrice */\n      dup5\n        /* \"NftContract.sol\":5421:5439  _salePrice / 10000 */\n      tag_341\n      jump\t// in\n    tag_340:\n        /* \"NftContract.sol\":5420:5460  (_salePrice / 10000) * royaltyFeesInBips */\n      tag_212\n      swap2\n      swap1\n      tag_343\n      jump\t// in\n        /* \"ERC721.sol\":4447:4989  function safeTransferFrom(\r... */\n    tag_166:\n        /* \"ERC721.sol\":4599:4625  transferFrom(from, to, id) */\n      tag_345\n        /* \"ERC721.sol\":4612:4616  from */\n      dup5\n        /* \"ERC721.sol\":4618:4620  to */\n      dup5\n        /* \"ERC721.sol\":4622:4624  id */\n      dup5\n        /* \"ERC721.sol\":4599:4611  transferFrom */\n      tag_86\n        /* \"ERC721.sol\":4599:4625  transferFrom(from, to, id) */\n      jump\t// in\n    tag_345:\n      sub(shl(0xa0, 0x01), 0x01)\n        /* \"ERC721.sol\":4660:4674  to.code.length */\n      dup4\n      and\n      extcodesize\n        /* \"ERC721.sol\":4660:4679  to.code.length == 0 */\n      iszero\n      dup1\n        /* \"ERC721.sol\":4660:4937  to.code.length == 0 ||\r... */\n      tag_346\n      jumpi\n      pop\n        /* \"ERC721.sol\":4700:4871  ERC721TokenReceiver(to).onERC721Received(\r... */\n      mload(0x40)\n      shl(0xe1, 0x0a85bd01)\n      dup1\n      dup3\n      mstore\n        /* \"ERC721.sol\":4892:4937  ERC721TokenReceiver.onERC721Received.selector */\n      swap1\n      sub(shl(0xa0, 0x01), 0x01)\n        /* \"ERC721.sol\":4700:4740  ERC721TokenReceiver(to).onERC721Received */\n      dup6\n      and\n      swap1\n        /* \"ERC721.sol\":4892:4937  ERC721TokenReceiver.onERC721Received.selector */\n      0x150b7a02\n      swap1\n        /* \"ERC721.sol\":4700:4871  ERC721TokenReceiver(to).onERC721Received(\r... */\n      tag_347\n      swap1\n        /* \"ERC721.sol\":4763:4773  msg.sender */\n      caller\n      swap1\n        /* \"ERC721.sol\":4796:4800  from */\n      dup10\n      swap1\n        /* \"ERC721.sol\":4823:4825  id */\n      dup9\n      swap1\n        /* \"ERC721.sol\":4848:4852  data */\n      dup9\n      swap1\n        /* \"ERC721.sol\":4700:4871  ERC721TokenReceiver(to).onERC721Received(\r... */\n      0x04\n      add\n      tag_348\n      jump\t// in\n    tag_347:\n      0x20\n      mload(0x40)\n      dup1\n      dup4\n      sub\n      dup2\n      0x00\n      dup8\n      dup1\n      extcodesize\n      iszero\n      dup1\n      iszero\n      tag_349\n      jumpi\n      0x00\n      dup1\n      revert\n    tag_349:\n      pop\n      gas\n      call\n      iszero\n      dup1\n      iszero\n      tag_351\n      jumpi\n      returndatasize\n      0x00\n      dup1\n      returndatacopy\n      revert(0x00, returndatasize)\n    tag_351:\n      pop\n      pop\n      pop\n      pop\n      mload(0x40)\n      returndatasize\n      not(0x1f)\n      0x1f\n      dup3\n      add\n      and\n      dup3\n      add\n      dup1\n      0x40\n      mstore\n      pop\n      dup2\n      add\n      swap1\n      tag_352\n      swap2\n      swap1\n      tag_270\n      jump\t// in\n    tag_352:\n      not(sub(shl(0xe0, 0x01), 0x01))\n        /* \"ERC721.sol\":4700:4937  ERC721TokenReceiver(to).onERC721Received(\r... */\n      and\n      eq\n        /* \"ERC721.sol\":4660:4937  to.code.length == 0 ||\r... */\n    tag_346:\n        /* \"ERC721.sol\":4638:4981  require(\r... */\n      tag_353\n      jumpi\n      mload(0x40)\n      shl(0xe5, 0x461bcd)\n      dup2\n      mstore\n        /* \"#utility.yul\":14868:14870   */\n      0x20\n        /* \"ERC721.sol\":4638:4981  require(\r... */\n      0x04\n      dup3\n      add\n        /* \"#utility.yul\":14850:14871   */\n      mstore\n        /* \"#utility.yul\":14907:14909   */\n      0x10\n        /* \"#utility.yul\":14887:14905   */\n      0x24\n      dup3\n      add\n        /* \"#utility.yul\":14880:14910   */\n      mstore\n      shl(0x82, 0x155394d0519157d49150d25412515395)\n        /* \"#utility.yul\":14926:14944   */\n      0x44\n      dup3\n      add\n        /* \"#utility.yul\":14919:14965   */\n      mstore\n        /* \"#utility.yul\":14982:15000   */\n      0x64\n      add\n        /* \"ERC721.sol\":4638:4981  require(\r... */\n      tag_218\n        /* \"#utility.yul\":14666:15006   */\n      jump\n        /* \"ERC721.sol\":4638:4981  require(\r... */\n    tag_353:\n        /* \"ERC721.sol\":4447:4989  function safeTransferFrom(\r... */\n      pop\n      pop\n      pop\n      pop\n      jump\t// out\n        /* \"NftContract.sol\":2721:2902  function check(\r... */\n    tag_175:\n        /* \"NftContract.sol\":2840:2847  address */\n      0x00\n        /* \"NftContract.sol\":2867:2894  _verify(to, val, signature) */\n      tag_356\n        /* \"NftContract.sol\":2875:2877  to */\n      dup5\n        /* \"NftContract.sol\":2879:2882  val */\n      dup5\n        /* \"NftContract.sol\":2884:2893  signature */\n      dup5\n        /* \"NftContract.sol\":2867:2874  _verify */\n      tag_357\n        /* \"NftContract.sol\":2867:2894  _verify(to, val, signature) */\n      jump\t// in\n    tag_356:\n        /* \"NftContract.sol\":2860:2894  return _verify(to, val, signature) */\n      swap5\n        /* \"NftContract.sol\":2721:2902  function check(\r... */\n      swap4\n      pop\n      pop\n      pop\n      pop\n      jump\t// out\n        /* \"ERC721.sol\":1806:2358  function tokenURI(uint256 tokenId)\r... */\n    tag_180:\n        /* \"ERC721.sol\":2431:2435  bool */\n      0x00\n        /* \"ERC721.sol\":2464:2480  ownerOf[tokenId] */\n      dup2\n      dup2\n      mstore\n        /* \"ERC721.sol\":2464:2471  ownerOf */\n      0x03\n        /* \"ERC721.sol\":2464:2480  ownerOf[tokenId] */\n      0x20\n      mstore\n      0x40\n      swap1\n      keccak256\n      sload\n        /* \"ERC721.sol\":1906:1919  string memory */\n      0x60\n      swap1\n      sub(shl(0xa0, 0x01), 0x01)\n        /* \"ERC721.sol\":2464:2480  ownerOf[tokenId] */\n      and\n        /* \"ERC721.sol\":1937:1994  require(_exists(tokenId), \"No token with this Id exists\") */\n      tag_361\n      jumpi\n      mload(0x40)\n      shl(0xe5, 0x461bcd)\n      dup2\n      mstore\n        /* \"#utility.yul\":15213:15215   */\n      0x20\n        /* \"ERC721.sol\":1937:1994  require(_exists(tokenId), \"No token with this Id exists\") */\n      0x04\n      dup3\n      add\n        /* \"#utility.yul\":15195:15216   */\n      mstore\n        /* \"#utility.yul\":15252:15254   */\n      0x1c\n        /* \"#utility.yul\":15232:15250   */\n      0x24\n      dup3\n      add\n        /* \"#utility.yul\":15225:15255   */\n      mstore\n        /* \"#utility.yul\":15291:15321   */\n      0x4e6f20746f6b656e207769746820746869732049642065786973747300000000\n        /* \"#utility.yul\":15271:15289   */\n      0x44\n      dup3\n      add\n        /* \"#utility.yul\":15264:15322   */\n      mstore\n        /* \"#utility.yul\":15339:15357   */\n      0x64\n      add\n        /* \"ERC721.sol\":1937:1994  require(_exists(tokenId), \"No token with this Id exists\") */\n      tag_218\n        /* \"#utility.yul\":15011:15363   */\n      jump\n        /* \"ERC721.sol\":1937:1994  require(_exists(tokenId), \"No token with this Id exists\") */\n    tag_361:\n        /* \"ERC721.sol\":2007:2028  string memory baseURI */\n      0x00\n        /* \"ERC721.sol\":2031:2041  _baseURI() */\n      tag_364\n        /* \"ERC721.sol\":2031:2039  _baseURI */\n      tag_365\n        /* \"ERC721.sol\":2031:2041  _baseURI() */\n      jump\t// in\n    tag_364:\n        /* \"ERC721.sol\":2007:2041  string memory baseURI = _baseURI() */\n      swap1\n      pop\n        /* \"ERC721.sol\":2096:2097  0 */\n      0x00\n        /* \"ERC721.sol\":2078:2085  baseURI */\n      dup2\n        /* \"ERC721.sol\":2072:2093  bytes(baseURI).length */\n      mload\n        /* \"ERC721.sol\":2072:2097  bytes(baseURI).length > 0 */\n      gt\n        /* \"ERC721.sol\":2072:2350  bytes(baseURI).length > 0\r... */\n      tag_366\n      jumpi\n      mload(0x40)\n      dup1\n      0x20\n      add\n      0x40\n      mstore\n      dup1\n      0x00\n      dup2\n      mstore\n      pop\n      jump(tag_367)\n    tag_366:\n        /* \"ERC721.sol\":2223:2241  tokenType[tokenId] */\n      0x00\n      dup4\n      dup2\n      mstore\n        /* \"ERC721.sol\":2223:2232  tokenType */\n      0x05\n        /* \"ERC721.sol\":2223:2241  tokenType[tokenId] */\n      0x20\n      mstore\n      0x40\n      swap1\n      keccak256\n      sload\n        /* \"ERC721.sol\":2189:2196  baseURI */\n      dup2\n      swap1\n        /* \"ERC721.sol\":2223:2252  tokenType[tokenId].toString() */\n      tag_368\n      swap1\n        /* \"ERC721.sol\":2223:2250  tokenType[tokenId].toString */\n      tag_369\n        /* \"ERC721.sol\":2223:2252  tokenType[tokenId].toString() */\n      jump\t// in\n    tag_368:\n        /* \"ERC721.sol\":2146:2309  abi.encodePacked(\r... */\n      add(0x20, mload(0x40))\n      tag_370\n      swap3\n      swap2\n      swap1\n      tag_371\n      jump\t// in\n    tag_370:\n      mload(0x40)\n      0x20\n      dup2\n      dup4\n      sub\n      sub\n      dup2\n      mstore\n      swap1\n      0x40\n      mstore\n        /* \"ERC721.sol\":2072:2350  bytes(baseURI).length > 0\r... */\n    tag_367:\n        /* \"ERC721.sol\":2052:2350  return\r... */\n      swap4\n        /* \"ERC721.sol\":1806:2358  function tokenURI(uint256 tokenId)\r... */\n      swap3\n      pop\n      pop\n      pop\n      jump\t// out\n        /* \"utils/Ownable.sol\":567:758  function transferOwnership(address newOwner) public virtual onlyOwner {\r... */\n    tag_200:\n        /* \"utils/Ownable.sol\":426:432  _owner */\n      and(sub(shl(0xa0, 0x01), 0x01), sload(0x07))\n        /* \"utils/Context.sol\":175:185  msg.sender */\n      caller\n        /* \"utils/Ownable.sol\":488:511  _msgSender() == owner() */\n      eq\n        /* \"utils/Ownable.sol\":480:539  require(_msgSender() == owner(), \"Caller is not the owner\") */\n      tag_375\n      jumpi\n      mload(0x40)\n      shl(0xe5, 0x461bcd)\n      dup2\n      mstore\n      0x04\n      add\n      tag_218\n      swap1\n      tag_219\n      jump\t// in\n    tag_375:\n      sub(shl(0xa0, 0x01), 0x01)\n        /* \"utils/Ownable.sol\":656:678  newOwner != address(0) */\n      dup2\n      and\n        /* \"utils/Ownable.sol\":648:711  require(newOwner != address(0), \"Owner cannot be zero address\") */\n      tag_378\n      jumpi\n      mload(0x40)\n      shl(0xe5, 0x461bcd)\n      dup2\n      mstore\n        /* \"#utility.yul\":17301:17303   */\n      0x20\n        /* \"utils/Ownable.sol\":648:711  require(newOwner != address(0), \"Owner cannot be zero address\") */\n      0x04\n      dup3\n      add\n        /* \"#utility.yul\":17283:17304   */\n      mstore\n        /* \"#utility.yul\":17340:17342   */\n      0x1c\n        /* \"#utility.yul\":17320:17338   */\n      0x24\n      dup3\n      add\n        /* \"#utility.yul\":17313:17343   */\n      mstore\n        /* \"#utility.yul\":17379:17409   */\n      0x4f776e65722063616e6e6f74206265207a65726f206164647265737300000000\n        /* \"#utility.yul\":17359:17377   */\n      0x44\n      dup3\n      add\n        /* \"#utility.yul\":17352:17410   */\n      mstore\n        /* \"#utility.yul\":17427:17445   */\n      0x64\n      add\n        /* \"utils/Ownable.sol\":648:711  require(newOwner != address(0), \"Owner cannot be zero address\") */\n      tag_218\n        /* \"#utility.yul\":17099:17451   */\n      jump\n        /* \"utils/Ownable.sol\":648:711  require(newOwner != address(0), \"Owner cannot be zero address\") */\n    tag_378:\n        /* \"utils/Ownable.sol\":722:750  _transferOwnership(newOwner) */\n      tag_381\n        /* \"utils/Ownable.sol\":741:749  newOwner */\n      dup2\n        /* \"utils/Ownable.sol\":722:740  _transferOwnership */\n      tag_382\n        /* \"utils/Ownable.sol\":722:750  _transferOwnership(newOwner) */\n      jump\t// in\n    tag_381:\n        /* \"utils/Ownable.sol\":567:758  function transferOwnership(address newOwner) public virtual onlyOwner {\r... */\n      pop\n      jump\t// out\n        /* \"NftContract.sol\":1495:1580  function setPauseMint(bool val) external onlyOwner {\r... */\n    tag_204:\n        /* \"utils/Ownable.sol\":426:432  _owner */\n      and(sub(shl(0xa0, 0x01), 0x01), sload(0x07))\n        /* \"utils/Context.sol\":175:185  msg.sender */\n      caller\n        /* \"utils/Ownable.sol\":488:511  _msgSender() == owner() */\n      eq\n        /* \"utils/Ownable.sol\":480:539  require(_msgSender() == owner(), \"Caller is not the owner\") */\n      tag_386\n      jumpi\n      mload(0x40)\n      shl(0xe5, 0x461bcd)\n      dup2\n      mstore\n      0x04\n      add\n      tag_218\n      swap1\n      tag_219\n      jump\t// in\n    tag_386:\n        /* \"NftContract.sol\":1557:1566  pauseMint */\n      0x0d\n        /* \"NftContract.sol\":1557:1572  pauseMint = val */\n      dup1\n      sload\n      swap2\n      iszero\n      iszero\n      shl(0xa0, 0x01)\n      mul\n      not(shl(0xa0, 0xff))\n      swap1\n      swap3\n      and\n      swap2\n      swap1\n      swap2\n      or\n      swap1\n      sstore\n        /* \"NftContract.sol\":1495:1580  function setPauseMint(bool val) external onlyOwner {\r... */\n      jump\t// out\n        /* \"NftContract.sol\":1588:2713  function mintWhitelist(\r... */\n    tag_207:\n        /* \"NftContract.sol\":1746:1755  pauseMint */\n      sload(0x0d)\n        /* \"NftContract.sol\":1718:1725  uint256 */\n      0x00\n      swap1\n      shl(0xa0, 0x01)\n        /* \"NftContract.sol\":1746:1755  pauseMint */\n      swap1\n      div\n      0xff\n      and\n        /* \"NftContract.sol\":1746:1764  pauseMint == false */\n      iszero\n        /* \"NftContract.sol\":1738:1786  require(pauseMint == false, \"Minting is paused\") */\n      tag_390\n      jumpi\n      mload(0x40)\n      shl(0xe5, 0x461bcd)\n      dup2\n      mstore\n        /* \"#utility.yul\":16260:16262   */\n      0x20\n        /* \"NftContract.sol\":1738:1786  require(pauseMint == false, \"Minting is paused\") */\n      0x04\n      dup3\n      add\n        /* \"#utility.yul\":16242:16263   */\n      mstore\n        /* \"#utility.yul\":16299:16301   */\n      0x11\n        /* \"#utility.yul\":16279:16297   */\n      0x24\n      dup3\n      add\n        /* \"#utility.yul\":16272:16302   */\n      mstore\n      shl(0x7a, 0x135a5b9d1a5b99c81a5cc81c185d5cd959)\n        /* \"#utility.yul\":16318:16336   */\n      0x44\n      dup3\n      add\n        /* \"#utility.yul\":16311:16358   */\n      mstore\n        /* \"#utility.yul\":16375:16393   */\n      0x64\n      add\n        /* \"NftContract.sol\":1738:1786  require(pauseMint == false, \"Minting is paused\") */\n      tag_218\n        /* \"#utility.yul\":16058:16399   */\n      jump\n        /* \"NftContract.sol\":1738:1786  require(pauseMint == false, \"Minting is paused\") */\n    tag_390:\n        /* \"NftContract.sol\":1821:1831  MAX_SUPPLY */\n      sload(0x0b)\n        /* \"NftContract.sol\":1805:1817  tokenCounter */\n      sload(0x09)\n        /* \"NftContract.sol\":1821:1831  MAX_SUPPLY */\n      0x0100\n      swap1\n      swap2\n      div\n      sub(shl(0x78, 0x01), 0x01)\n      and\n      lt\n        /* \"NftContract.sol\":1805:1831  tokenCounter <= MAX_SUPPLY */\n      iszero\n        /* \"NftContract.sol\":1797:1854  require(tokenCounter <= MAX_SUPPLY, \"Max supply reached\") */\n      tag_392\n      jumpi\n      mload(0x40)\n      shl(0xe5, 0x461bcd)\n      dup2\n      mstore\n      0x04\n      add\n      tag_218\n      swap1\n      tag_288\n      jump\t// in\n    tag_392:\n        /* \"NftContract.sol\":1924:1935  signAddress */\n      and(sub(shl(0xa0, 0x01), 0x01), sload(0x0d))\n        /* \"NftContract.sol\":1887:1920  check(msg.sender, val, signature) */\n      tag_394\n        /* \"NftContract.sol\":1893:1903  msg.sender */\n      caller\n        /* \"NftContract.sol\":1905:1908  val */\n      dup6\n        /* \"NftContract.sol\":1910:1919  signature */\n      dup6\n        /* \"NftContract.sol\":1887:1892  check */\n      tag_175\n        /* \"NftContract.sol\":1887:1920  check(msg.sender, val, signature) */\n      jump\t// in\n    tag_394:\n      sub(shl(0xa0, 0x01), 0x01)\n        /* \"NftContract.sol\":1887:1935  check(msg.sender, val, signature) == signAddress */\n      and\n      eq\n        /* \"NftContract.sol\":1865:1980  require(\r... */\n      tag_395\n      jumpi\n      mload(0x40)\n      shl(0xe5, 0x461bcd)\n      dup2\n      mstore\n        /* \"#utility.yul\":13033:13035   */\n      0x20\n        /* \"NftContract.sol\":1865:1980  require(\r... */\n      0x04\n      dup3\n      add\n        /* \"#utility.yul\":13015:13036   */\n      mstore\n        /* \"#utility.yul\":13072:13074   */\n      0x11\n        /* \"#utility.yul\":13052:13070   */\n      0x24\n      dup3\n      add\n        /* \"#utility.yul\":13045:13075   */\n      mstore\n      shl(0x78, 0x496e76616c6964207369676e6174757265)\n        /* \"#utility.yul\":13091:13109   */\n      0x44\n      dup3\n      add\n        /* \"#utility.yul\":13084:13131   */\n      mstore\n        /* \"#utility.yul\":13148:13166   */\n      0x64\n      add\n        /* \"NftContract.sol\":1865:1980  require(\r... */\n      tag_218\n        /* \"#utility.yul\":12831:13172   */\n      jump\n        /* \"NftContract.sol\":1865:1980  require(\r... */\n    tag_395:\n        /* \"NftContract.sol\":1995:2002  val > 0 */\n      dup3\n      iszero\n        /* \"NftContract.sol\":1991:2093  if (val > 0) {\r... */\n      tag_400\n      jumpi\n        /* \"NftContract.sol\":2037:2047  msg.sender */\n      caller\n        /* \"ERC721.sol\":2689:2696  uint256 */\n      0x00\n        /* \"ERC721.sol\":2716:2732  _balanceOf[_acc] */\n      swap1\n      dup2\n      mstore\n        /* \"ERC721.sol\":2716:2726  _balanceOf */\n      0x02\n        /* \"ERC721.sol\":2716:2732  _balanceOf[_acc] */\n      0x20\n      mstore\n      0x40\n      swap1\n      keccak256\n      sload\n        /* \"NftContract.sol\":2027:2053  balanceOf(msg.sender) == 0 */\n      iszero\n        /* \"NftContract.sol\":2019:2081  require(balanceOf(msg.sender) == 0, \"You already have tokens\") */\n      tag_400\n      jumpi\n      mload(0x40)\n      shl(0xe5, 0x461bcd)\n      dup2\n      mstore\n        /* \"#utility.yul\":11646:11648   */\n      0x20\n        /* \"NftContract.sol\":2019:2081  require(balanceOf(msg.sender) == 0, \"You already have tokens\") */\n      0x04\n      dup3\n      add\n        /* \"#utility.yul\":11628:11649   */\n      mstore\n        /* \"#utility.yul\":11685:11687   */\n      0x17\n        /* \"#utility.yul\":11665:11683   */\n      0x24\n      dup3\n      add\n        /* \"#utility.yul\":11658:11688   */\n      mstore\n        /* \"#utility.yul\":11724:11749   */\n      0x596f7520616c7265616479206861766520746f6b656e73000000000000000000\n        /* \"#utility.yul\":11704:11722   */\n      0x44\n      dup3\n      add\n        /* \"#utility.yul\":11697:11750   */\n      mstore\n        /* \"#utility.yul\":11767:11785   */\n      0x64\n      add\n        /* \"NftContract.sol\":2019:2081  require(balanceOf(msg.sender) == 0, \"You already have tokens\") */\n      tag_218\n        /* \"#utility.yul\":11444:11791   */\n      jump\n        /* \"NftContract.sol\":2019:2081  require(balanceOf(msg.sender) == 0, \"You already have tokens\") */\n    tag_400:\n        /* \"NftContract.sol\":2103:2116  uint256 toPay */\n      0x00\n        /* \"NftContract.sol\":2154:2159  10000 */\n      0x2710\n        /* \"NftContract.sol\":2137:2145  mintCost */\n      sload(0x0c)\n        /* \"NftContract.sol\":2148:2149  1 */\n      0x01\n        /* \"NftContract.sol\":2137:2149  mintCost + 1 */\n      tag_403\n      swap2\n      swap1\n      tag_404\n      jump\t// in\n    tag_403:\n        /* \"NftContract.sol\":2121:2132  10000 - val */\n      tag_405\n        /* \"NftContract.sol\":2129:2132  val */\n      dup7\n        /* \"NftContract.sol\":2121:2126  10000 */\n      0x2710\n        /* \"NftContract.sol\":2121:2132  10000 - val */\n      tag_298\n      jump\t// in\n    tag_405:\n        /* \"NftContract.sol\":2120:2150  (10000 - val) * (mintCost + 1) */\n      tag_406\n      swap2\n      swap1\n      tag_343\n      jump\t// in\n    tag_406:\n        /* \"NftContract.sol\":2119:2159  ((10000 - val) * (mintCost + 1)) / 10000 */\n      tag_407\n      swap2\n      swap1\n      tag_341\n      jump\t// in\n    tag_407:\n        /* \"NftContract.sol\":2103:2159  uint256 toPay = ((10000 - val) * (mintCost + 1)) / 10000 */\n      swap1\n      pop\n        /* \"NftContract.sol\":2190:2195  toPay */\n      dup1\n        /* \"NftContract.sol\":2178:2187  msg.value */\n      callvalue\n        /* \"NftContract.sol\":2178:2195  msg.value > toPay */\n      gt\n        /* \"NftContract.sol\":2170:2215  require(msg.value > toPay, \"Not engough eth\") */\n      tag_408\n      jumpi\n      mload(0x40)\n      shl(0xe5, 0x461bcd)\n      dup2\n      mstore\n        /* \"#utility.yul\":14121:14123   */\n      0x20\n        /* \"NftContract.sol\":2170:2215  require(msg.value > toPay, \"Not engough eth\") */\n      0x04\n      dup3\n      add\n        /* \"#utility.yul\":14103:14124   */\n      mstore\n        /* \"#utility.yul\":14160:14162   */\n      0x0f\n        /* \"#utility.yul\":14140:14158   */\n      0x24\n      dup3\n      add\n        /* \"#utility.yul\":14133:14163   */\n      mstore\n      shl(0x8b, 0x09cdee840cadccedeeaced040cae8d)\n        /* \"#utility.yul\":14179:14197   */\n      0x44\n      dup3\n      add\n        /* \"#utility.yul\":14172:14217   */\n      mstore\n        /* \"#utility.yul\":14234:14252   */\n      0x64\n      add\n        /* \"NftContract.sol\":2170:2215  require(msg.value > toPay, \"Not engough eth\") */\n      tag_218\n        /* \"#utility.yul\":13919:14258   */\n      jump\n        /* \"NftContract.sol\":2170:2215  require(msg.value > toPay, \"Not engough eth\") */\n    tag_408:\n        /* \"NftContract.sol\":2253:2265  tokenCounter */\n      0x09\n        /* \"NftContract.sol\":2253:2267  tokenCounter++ */\n      dup1\n      sload\n      0x01\n      add\n      swap1\n      dup2\n      swap1\n      sstore\n        /* \"NftContract.sol\":2383:2583  abi.encodePacked(\r... */\n      mload(0x40)\n      not(sub(shl(0x60, 0x01), 0x01))\n        /* \"NftContract.sol\":2426:2436  msg.sender */\n      caller\n        /* \"#utility.yul\":5737:5739   */\n      0x60\n        /* \"#utility.yul\":5733:5748   */\n      shl\n        /* \"#utility.yul\":5729:5782   */\n      and\n        /* \"NftContract.sol\":2383:2583  abi.encodePacked(\r... */\n      0x20\n      dup3\n      add\n        /* \"#utility.yul\":5717:5783   */\n      mstore\n        /* \"NftContract.sol\":2463:2478  block.timestamp */\n      timestamp\n        /* \"#utility.yul\":5799:5811   */\n      0x34\n      dup3\n      add\n        /* \"#utility.yul\":5792:5820   */\n      mstore\n        /* \"#utility.yul\":5836:5848   */\n      0x54\n      dup2\n      add\n        /* \"#utility.yul\":5829:5857   */\n      swap2\n      swap1\n      swap2\n      mstore\n        /* \"NftContract.sol\":2544:2560  block.difficulty */\n      difficulty\n        /* \"#utility.yul\":5873:5885   */\n      0x74\n      dup3\n      add\n        /* \"#utility.yul\":5866:5894   */\n      mstore\n      0x00\n      swap1\n        /* \"NftContract.sol\":2620:2621  3 */\n      0x03\n      swap1\n        /* \"#utility.yul\":5910:5923   */\n      0x94\n      add\n        /* \"NftContract.sol\":2383:2583  abi.encodePacked(\r... */\n      mload(0x40)\n      0x20\n      dup2\n      dup4\n      sub\n      sub\n      dup2\n      mstore\n      swap1\n      0x40\n      mstore\n        /* \"NftContract.sol\":2351:2602  keccak256(\r... */\n      dup1\n      mload\n      swap1\n      0x20\n      add\n      keccak256\n        /* \"NftContract.sol\":2325:2617  uint256(\r... */\n      0x00\n      shr\n        /* \"NftContract.sol\":2325:2621  uint256(\r... */\n      tag_411\n      swap2\n      swap1\n      tag_320\n      jump\t// in\n    tag_411:\n        /* \"NftContract.sol\":2289:2632  uint8 tknType = uint8(\r... */\n      swap1\n      pop\n        /* \"NftContract.sol\":2643:2675  _mint(to, tokenCounter, tknType) */\n      tag_412\n        /* \"NftContract.sol\":2649:2651  to */\n      dup7\n        /* \"NftContract.sol\":2653:2665  tokenCounter */\n      sload(0x09)\n        /* \"NftContract.sol\":2667:2674  tknType */\n      dup4\n        /* \"NftContract.sol\":2643:2648  _mint */\n      tag_290\n        /* \"NftContract.sol\":2643:2675  _mint(to, tokenCounter, tknType) */\n      jump\t// in\n    tag_412:\n      pop\n      pop\n        /* \"NftContract.sol\":2693:2705  tokenCounter */\n      sload(0x09)\n      swap5\n        /* \"NftContract.sol\":1588:2713  function mintWhitelist(\r... */\n      swap4\n      pop\n      pop\n      pop\n      pop\n      jump\t// out\n        /* \"ERC721.sol\":4997:5399  function _mint(\r... */\n    tag_290:\n      sub(shl(0xa0, 0x01), 0x01)\n        /* \"ERC721.sol\":5121:5137  to != address(0) */\n      dup4\n      and\n        /* \"ERC721.sol\":5113:5152  require(to != address(0), \"INVALID_TO\") */\n      tag_415\n      jumpi\n      mload(0x40)\n      shl(0xe5, 0x461bcd)\n      dup2\n      mstore\n        /* \"#utility.yul\":13782:13784   */\n      0x20\n        /* \"ERC721.sol\":5113:5152  require(to != address(0), \"INVALID_TO\") */\n      0x04\n      dup3\n      add\n        /* \"#utility.yul\":13764:13785   */\n      mstore\n        /* \"#utility.yul\":13821:13823   */\n      0x0a\n        /* \"#utility.yul\":13801:13819   */\n      0x24\n      dup3\n      add\n        /* \"#utility.yul\":13794:13824   */\n      mstore\n      shl(0xb0, 0x494e56414c49445f544f)\n        /* \"#utility.yul\":13840:13858   */\n      0x44\n      dup3\n      add\n        /* \"#utility.yul\":13833:13873   */\n      mstore\n        /* \"#utility.yul\":13890:13908   */\n      0x64\n      add\n        /* \"ERC721.sol\":5113:5152  require(to != address(0), \"INVALID_TO\") */\n      tag_218\n        /* \"#utility.yul\":13580:13914   */\n      jump\n        /* \"ERC721.sol\":5113:5152  require(to != address(0), \"INVALID_TO\") */\n    tag_415:\n        /* \"ERC721.sol\":5196:5197  0 */\n      0x00\n        /* \"ERC721.sol\":5173:5184  ownerOf[id] */\n      dup3\n      dup2\n      mstore\n        /* \"ERC721.sol\":5173:5180  ownerOf */\n      0x03\n        /* \"ERC721.sol\":5173:5184  ownerOf[id] */\n      0x20\n      mstore\n      0x40\n      swap1\n      keccak256\n      sload\n      sub(shl(0xa0, 0x01), 0x01)\n      and\n        /* \"ERC721.sol\":5173:5198  ownerOf[id] == address(0) */\n      iszero\n        /* \"ERC721.sol\":5165:5217  require(ownerOf[id] == address(0), \"ALREADY_MINTED\") */\n      tag_418\n      jumpi\n      mload(0x40)\n      shl(0xe5, 0x461bcd)\n      dup2\n      mstore\n        /* \"#utility.yul\":17658:17660   */\n      0x20\n        /* \"ERC721.sol\":5165:5217  require(ownerOf[id] == address(0), \"ALREADY_MINTED\") */\n      0x04\n      dup3\n      add\n        /* \"#utility.yul\":17640:17661   */\n      mstore\n        /* \"#utility.yul\":17697:17699   */\n      0x0e\n        /* \"#utility.yul\":17677:17695   */\n      0x24\n      dup3\n      add\n        /* \"#utility.yul\":17670:17700   */\n      mstore\n      shl(0x92, 0x1053149150511657d35253951151)\n        /* \"#utility.yul\":17716:17734   */\n      0x44\n      dup3\n      add\n        /* \"#utility.yul\":17709:17753   */\n      mstore\n        /* \"#utility.yul\":17770:17788   */\n      0x64\n      add\n        /* \"ERC721.sol\":5165:5217  require(ownerOf[id] == address(0), \"ALREADY_MINTED\") */\n      tag_218\n        /* \"#utility.yul\":17456:17794   */\n      jump\n        /* \"ERC721.sol\":5165:5217  require(ownerOf[id] == address(0), \"ALREADY_MINTED\") */\n    tag_418:\n      sub(shl(0xa0, 0x01), 0x01)\n        /* \"ERC721.sol\":5255:5269  _balanceOf[to] */\n      dup4\n      and\n      0x00\n      dup2\n      dup2\n      mstore\n        /* \"ERC721.sol\":5255:5265  _balanceOf */\n      0x02\n        /* \"ERC721.sol\":5255:5269  _balanceOf[to] */\n      0x20\n      swap1\n      dup2\n      mstore\n      0x40\n      dup1\n      dup4\n      keccak256\n        /* \"ERC721.sol\":5255:5271  _balanceOf[to]++ */\n      dup1\n      sload\n      0x01\n      add\n      swap1\n      sstore\n        /* \"ERC721.sol\":5295:5306  ownerOf[id] */\n      dup6\n      dup4\n      mstore\n        /* \"ERC721.sol\":5295:5302  ownerOf */\n      0x03\n        /* \"ERC721.sol\":5295:5306  ownerOf[id] */\n      dup3\n      mstore\n      dup1\n      dup4\n      keccak256\n        /* \"ERC721.sol\":5295:5311  ownerOf[id] = to */\n      dup1\n      sload\n      not(sub(shl(0xa0, 0x01), 0x01))\n      and\n      dup6\n      or\n      swap1\n      sstore\n        /* \"ERC721.sol\":5322:5331  tokenType */\n      0x05\n        /* \"ERC721.sol\":5322:5335  tokenType[id] */\n      swap1\n      swap2\n      mstore\n      dup1\n      dup3\n      keccak256\n        /* \"ERC721.sol\":5322:5345  tokenType[id] = tknType */\n      0xff\n      dup6\n      and\n      swap1\n      sstore\n        /* \"ERC721.sol\":5363:5391  Transfer(address(0), to, id) */\n      mload\n        /* \"ERC721.sol\":5303:5305  id */\n      dup5\n      swap3\n        /* \"ERC721.sol\":5255:5269  _balanceOf[to] */\n      swap2\n      swap1\n        /* \"ERC721.sol\":5363:5391  Transfer(address(0), to, id) */\n      0xddf252ad1be2c89b69c2b068fc378daa952ba7f163c4a11628f55a4df523b3ef\n      swap1\n        /* \"ERC721.sol\":5255:5269  _balanceOf[to] */\n      dup3\n      swap1\n        /* \"ERC721.sol\":5363:5391  Transfer(address(0), to, id) */\n      log4\n        /* \"ERC721.sol\":4997:5399  function _mint(\r... */\n      pop\n      pop\n      pop\n      jump\t// out\n        /* \"NftContract.sol\":2910:3142  function _verify(\r... */\n    tag_357:\n        /* \"NftContract.sol\":3033:3040  address */\n      0x00\n        /* \"NftContract.sol\":3053:3067  bytes32 digest */\n      dup1\n        /* \"NftContract.sol\":3070:3084  _hash(to, val) */\n      tag_422\n        /* \"NftContract.sol\":3076:3078  to */\n      dup6\n        /* \"NftContract.sol\":3080:3083  val */\n      dup6\n        /* \"NftContract.sol\":3070:3075  _hash */\n      tag_423\n        /* \"NftContract.sol\":3070:3084  _hash(to, val) */\n      jump\t// in\n    tag_422:\n        /* \"NftContract.sol\":3053:3084  bytes32 digest = _hash(to, val) */\n      swap1\n      pop\n        /* \"NftContract.sol\":3102:3134  ECDSA.recover(digest, signature) */\n      tag_424\n        /* \"NftContract.sol\":3116:3122  digest */\n      dup2\n        /* \"NftContract.sol\":3124:3133  signature */\n      dup5\n        /* \"NftContract.sol\":3102:3115  ECDSA.recover */\n      tag_425\n        /* \"NftContract.sol\":3102:3134  ECDSA.recover(digest, signature) */\n      jump\t// in\n    tag_424:\n        /* \"NftContract.sol\":3095:3134  return ECDSA.recover(digest, signature) */\n      swap6\n        /* \"NftContract.sol\":2910:3142  function _verify(\r... */\n      swap5\n      pop\n      pop\n      pop\n      pop\n      pop\n      jump\t// out\n        /* \"NftContract.sol\":1163:1271  function _baseURI() internal view virtual override returns (string memory) {\r... */\n    tag_365:\n        /* \"NftContract.sol\":1223:1236  string memory */\n      0x60\n        /* \"NftContract.sol\":1256:1263  baseURI */\n      0x08\n        /* \"NftContract.sol\":1249:1263  return baseURI */\n      dup1\n      sload\n      tag_428\n      swap1\n      tag_225\n      jump\t// in\n    tag_428:\n      dup1\n      0x1f\n      add\n      0x20\n      dup1\n      swap2\n      div\n      mul\n      0x20\n      add\n      mload(0x40)\n      swap1\n      dup2\n      add\n      0x40\n      mstore\n      dup1\n      swap3\n      swap2\n      swap1\n      dup2\n      dup2\n      mstore\n      0x20\n      add\n      dup3\n      dup1\n      sload\n      tag_429\n      swap1\n      tag_225\n      jump\t// in\n    tag_429:\n      dup1\n      iszero\n      tag_430\n      jumpi\n      dup1\n      0x1f\n      lt\n      tag_431\n      jumpi\n      0x0100\n      dup1\n      dup4\n      sload\n      div\n      mul\n      dup4\n      mstore\n      swap2\n      0x20\n      add\n      swap2\n      jump(tag_430)\n    tag_431:\n      dup3\n      add\n      swap2\n      swap1\n      0x00\n      mstore\n      keccak256(0x00, 0x20)\n      swap1\n    tag_432:\n      dup2\n      sload\n      dup2\n      mstore\n      swap1\n      0x01\n      add\n      swap1\n      0x20\n      add\n      dup1\n      dup4\n      gt\n      tag_432\n      jumpi\n      dup3\n      swap1\n      sub\n      0x1f\n      and\n      dup3\n      add\n      swap2\n    tag_430:\n      pop\n      pop\n      pop\n      pop\n      pop\n      swap1\n      pop\n        /* \"NftContract.sol\":1163:1271  function _baseURI() internal view virtual override returns (string memory) {\r... */\n      swap1\n      jump\t// out\n        /* \"utils/Strings.sol\":161:706  function toString(uint256 value) internal pure returns (string memory) {\r... */\n    tag_369:\n        /* \"utils/Strings.sol\":217:230  string memory */\n      0x60\n        /* \"utils/Strings.sol\":260:270  value == 0 */\n      dup2\n        /* \"utils/Strings.sol\":256:309  if (value == 0) {\r... */\n      tag_434\n      jumpi\n      pop\n      pop\n        /* \"utils/Strings.sol\":287:297  return \"0\" */\n      0x40\n      dup1\n      mload\n      dup1\n      dup3\n      add\n      swap1\n      swap2\n      mstore\n      0x01\n      dup2\n      mstore\n      shl(0xfc, 0x03)\n      0x20\n      dup3\n      add\n      mstore\n      swap1\n        /* \"utils/Strings.sol\":161:706  function toString(uint256 value) internal pure returns (string memory) {\r... */\n      jump\t// out\n        /* \"utils/Strings.sol\":256:309  if (value == 0) {\r... */\n    tag_434:\n        /* \"utils/Strings.sol\":334:339  value */\n      dup2\n        /* \"utils/Strings.sol\":319:331  uint256 temp */\n      0x00\n        /* \"utils/Strings.sol\":375:453  while (temp != 0) {\r... */\n    tag_435:\n        /* \"utils/Strings.sol\":382:391  temp != 0 */\n      dup2\n      iszero\n        /* \"utils/Strings.sol\":375:453  while (temp != 0) {\r... */\n      tag_436\n      jumpi\n        /* \"utils/Strings.sol\":408:416  digits++ */\n      dup1\n      tag_437\n      dup2\n      tag_438\n      jump\t// in\n    tag_437:\n      swap2\n      pop\n        /* \"utils/Strings.sol\":431:441  temp /= 10 */\n      tag_439\n      swap1\n      pop\n        /* \"utils/Strings.sol\":439:441  10 */\n      0x0a\n        /* \"utils/Strings.sol\":431:441  temp /= 10 */\n      dup4\n      tag_341\n      jump\t// in\n    tag_439:\n      swap2\n      pop\n        /* \"utils/Strings.sol\":375:453  while (temp != 0) {\r... */\n      jump(tag_435)\n    tag_436:\n        /* \"utils/Strings.sol\":463:482  bytes memory buffer */\n      0x00\n        /* \"utils/Strings.sol\":495:501  digits */\n      dup2\n        /* \"utils/Strings.sol\":485:502  new bytes(digits) */\n      0xffffffffffffffff\n      dup2\n      gt\n      iszero\n      tag_441\n      jumpi\n      tag_441\n      tag_442\n      jump\t// in\n    tag_441:\n      mload(0x40)\n      swap1\n      dup1\n      dup3\n      mstore\n      dup1\n      0x1f\n      add\n      not(0x1f)\n      and\n      0x20\n      add\n      dup3\n      add\n      0x40\n      mstore\n      dup1\n      iszero\n      tag_443\n      jumpi\n      0x20\n      dup3\n      add\n      dup2\n      dup1\n      calldatasize\n      dup4\n      calldatacopy\n      add\n      swap1\n      pop\n    tag_443:\n      pop\n        /* \"utils/Strings.sol\":463:502  bytes memory buffer = new bytes(digits) */\n      swap1\n      pop\n        /* \"utils/Strings.sol\":513:667  while (value != 0) {\r... */\n    tag_444:\n        /* \"utils/Strings.sol\":520:530  value != 0 */\n      dup5\n      iszero\n        /* \"utils/Strings.sol\":513:667  while (value != 0) {\r... */\n      tag_356\n      jumpi\n        /* \"utils/Strings.sol\":547:558  digits -= 1 */\n      tag_446\n        /* \"utils/Strings.sol\":557:558  1 */\n      0x01\n        /* \"utils/Strings.sol\":547:558  digits -= 1 */\n      dup4\n      tag_298\n      jump\t// in\n    tag_446:\n      swap2\n      pop\n        /* \"utils/Strings.sol\":616:626  value % 10 */\n      tag_447\n        /* \"utils/Strings.sol\":624:626  10 */\n      0x0a\n        /* \"utils/Strings.sol\":616:621  value */\n      dup7\n        /* \"utils/Strings.sol\":616:626  value % 10 */\n      tag_320\n      jump\t// in\n    tag_447:\n        /* \"utils/Strings.sol\":603:627  48 + uint256(value % 10) */\n      tag_448\n      swap1\n        /* \"utils/Strings.sol\":603:605  48 */\n      0x30\n        /* \"utils/Strings.sol\":603:627  48 + uint256(value % 10) */\n      tag_404\n      jump\t// in\n    tag_448:\n        /* \"utils/Strings.sol\":590:629  bytes1(uint8(48 + uint256(value % 10))) */\n      0xf8\n      shl\n        /* \"utils/Strings.sol\":573:579  buffer */\n      dup2\n        /* \"utils/Strings.sol\":580:586  digits */\n      dup4\n        /* \"utils/Strings.sol\":573:587  buffer[digits] */\n      dup2\n      mload\n      dup2\n      lt\n      tag_450\n      jumpi\n      tag_450\n      tag_451\n      jump\t// in\n    tag_450:\n      0x20\n      add\n      add\n        /* \"utils/Strings.sol\":573:629  buffer[digits] = bytes1(uint8(48 + uint256(value % 10))) */\n      swap1\n      not(sub(shl(0xf8, 0x01), 0x01))\n      and\n      swap1\n      dup2\n      0x00\n      byte\n      swap1\n      mstore8\n      pop\n        /* \"utils/Strings.sol\":644:655  value /= 10 */\n      tag_452\n        /* \"utils/Strings.sol\":653:655  10 */\n      0x0a\n        /* \"utils/Strings.sol\":644:655  value /= 10 */\n      dup7\n      tag_341\n      jump\t// in\n    tag_452:\n      swap5\n      pop\n        /* \"utils/Strings.sol\":513:667  while (value != 0) {\r... */\n      jump(tag_444)\n        /* \"utils/Ownable.sol\":766:957  function _transferOwnership(address newOwner) internal virtual {\r... */\n    tag_382:\n        /* \"utils/Ownable.sol\":840:856  address oldOwner */\n      0x00\n        /* \"utils/Ownable.sol\":859:866  owner() */\n      tag_454\n        /* \"utils/Ownable.sol\":426:432  _owner */\n      and(sub(shl(0xa0, 0x01), 0x01), sload(0x07))\n      swap1\n        /* \"utils/Ownable.sol\":353:440  function owner() public view virtual returns (address) {\r... */\n      jump\n        /* \"utils/Ownable.sol\":859:866  owner() */\n    tag_454:\n        /* \"utils/Ownable.sol\":877:883  _owner */\n      0x07\n        /* \"utils/Ownable.sol\":877:894  _owner = newOwner */\n      dup1\n      sload\n      not(sub(shl(0xa0, 0x01), 0x01))\n      and\n      sub(shl(0xa0, 0x01), 0x01)\n      dup6\n      dup2\n      and\n      swap2\n      dup3\n      or\n      swap1\n      swap3\n      sstore\n        /* \"utils/Ownable.sol\":910:949  OwnershipTransfered(oldOwner, newOwner) */\n      mload(0x40)\n        /* \"utils/Ownable.sol\":840:866  address oldOwner = owner() */\n      swap3\n      swap4\n      pop\n        /* \"utils/Ownable.sol\":877:894  _owner = newOwner */\n      swap2\n        /* \"utils/Ownable.sol\":910:949  OwnershipTransfered(oldOwner, newOwner) */\n      swap1\n      dup4\n      and\n      swap1\n      0x0d18b5fd22306e373229b9439188228edca81207d1667f604daf6cef8aa3ee67\n      swap1\n      0x00\n      swap1\n      log3\n        /* \"utils/Ownable.sol\":829:957  {\r... */\n      pop\n        /* \"utils/Ownable.sol\":766:957  function _transferOwnership(address newOwner) internal virtual {\r... */\n      pop\n      jump\t// out\n        /* \"NftContract.sol\":3150:3531  function _hash(address to, uint256 val) internal view returns (bytes32) {\r... */\n    tag_423:\n        /* \"NftContract.sol\":3320:3489  abi.encode(\r... */\n      0x40\n      dup1\n      mload\n        /* \"NftContract.sol\":3357:3407  keccak256(\"PantherStruct(address to,uint256 val)\") */\n      0x8c9952748b13138200d658bbcdd87eee4fa0bcca0e5ca689d665e1a1ecce8f7b\n        /* \"NftContract.sol\":3320:3489  abi.encode(\r... */\n      0x20\n      dup3\n      add\n        /* \"#utility.yul\":9117:9142   */\n      mstore\n      sub(shl(0xa0, 0x01), 0x01)\n        /* \"#utility.yul\":9178:9210   */\n      dup5\n      and\n        /* \"#utility.yul\":9158:9176   */\n      swap2\n      dup2\n      add\n        /* \"#utility.yul\":9151:9211   */\n      swap2\n      swap1\n      swap2\n      mstore\n        /* \"#utility.yul\":9227:9245   */\n      0x60\n      dup2\n      add\n        /* \"#utility.yul\":9220:9254   */\n      dup3\n      swap1\n      mstore\n        /* \"NftContract.sol\":3213:3220  bytes32 */\n      0x00\n      swap1\n        /* \"NftContract.sol\":3253:3523  _hashTypedDataV4(\r... */\n      tag_367\n      swap1\n        /* \"#utility.yul\":9090:9108   */\n      0x80\n      add\n        /* \"NftContract.sol\":3320:3489  abi.encode(\r... */\n      mload(0x40)\n      0x20\n      dup2\n      dup4\n      sub\n      sub\n      dup2\n      mstore\n      swap1\n      0x40\n      mstore\n        /* \"NftContract.sol\":3288:3508  keccak256(\r... */\n      dup1\n      mload\n      swap1\n      0x20\n      add\n      keccak256\n        /* \"NftContract.sol\":3253:3269  _hashTypedDataV4 */\n      tag_459\n        /* \"NftContract.sol\":3253:3523  _hashTypedDataV4(\r... */\n      jump\t// in\n        /* \"utils/ECDSA.sol\":1898:2161  function recover(bytes32 hash, bytes memory signature)\r... */\n    tag_425:\n        /* \"utils/ECDSA.sol\":2003:2010  address */\n      0x00\n        /* \"utils/ECDSA.sol\":2029:2046  address recovered */\n      dup1\n        /* \"utils/ECDSA.sol\":2048:2066  RecoverError error */\n      0x00\n        /* \"utils/ECDSA.sol\":2070:2097  tryRecover(hash, signature) */\n      tag_461\n        /* \"utils/ECDSA.sol\":2081:2085  hash */\n      dup6\n        /* \"utils/ECDSA.sol\":2087:2096  signature */\n      dup6\n        /* \"utils/ECDSA.sol\":2070:2080  tryRecover */\n      tag_462\n        /* \"utils/ECDSA.sol\":2070:2097  tryRecover(hash, signature) */\n      jump\t// in\n    tag_461:\n        /* \"utils/ECDSA.sol\":2028:2097  (address recovered, RecoverError error) = tryRecover(hash, signature) */\n      swap2\n      pop\n      swap2\n      pop\n        /* \"utils/ECDSA.sol\":2108:2126  _throwError(error) */\n      tag_463\n        /* \"utils/ECDSA.sol\":2120:2125  error */\n      dup2\n        /* \"utils/ECDSA.sol\":2108:2119  _throwError */\n      tag_464\n        /* \"utils/ECDSA.sol\":2108:2126  _throwError(error) */\n      jump\t// in\n    tag_463:\n      pop\n        /* \"utils/ECDSA.sol\":2144:2153  recovered */\n      swap4\n        /* \"utils/ECDSA.sol\":1898:2161  function recover(bytes32 hash, bytes memory signature)\r... */\n      swap3\n      pop\n      pop\n      pop\n      jump\t// out\n        /* \"utils/EIP712.sol\":3619:3827  function _hashTypedDataV4(bytes32 structHash)\r... */\n    tag_459:\n        /* \"utils/EIP712.sol\":3732:3739  bytes32 */\n      0x00\n        /* \"utils/EIP712.sol\":3764:3819  ECDSA.toTypedDataHash(_domainSeparatorV4(), structHash) */\n      tag_212\n        /* \"utils/EIP712.sol\":3786:3806  _domainSeparatorV4() */\n      tag_467\n        /* \"utils/EIP712.sol\":3786:3804  _domainSeparatorV4 */\n      tag_468\n        /* \"utils/EIP712.sol\":3786:3806  _domainSeparatorV4() */\n      jump\t// in\n    tag_467:\n        /* \"utils/EIP712.sol\":3808:3818  structHash */\n      dup4\n        /* \"utils/ECDSA.sol\":4827:4884  abi.encodePacked(\"\\x19\\x01\", domainSeparator, structHash) */\n      mload(0x40)\n      shl(0xf0, 0x1901)\n      0x20\n      dup3\n      add\n        /* \"#utility.yul\":6834:6861   */\n      mstore\n        /* \"#utility.yul\":6877:6888   */\n      0x22\n      dup2\n      add\n        /* \"#utility.yul\":6870:6897   */\n      dup4\n      swap1\n      mstore\n        /* \"#utility.yul\":6913:6925   */\n      0x42\n      dup2\n      add\n        /* \"#utility.yul\":6906:6934   */\n      dup3\n      swap1\n      mstore\n        /* \"utils/ECDSA.sol\":4754:4761  bytes32 */\n      0x00\n      swap1\n        /* \"#utility.yul\":6950:6962   */\n      0x62\n      add\n        /* \"utils/ECDSA.sol\":4827:4884  abi.encodePacked(\"\\x19\\x01\", domainSeparator, structHash) */\n      mload(0x40)\n      0x20\n      dup2\n      dup4\n      sub\n      sub\n      dup2\n      mstore\n      swap1\n      0x40\n      mstore\n        /* \"utils/ECDSA.sol\":4799:4899  keccak256(\r... */\n      dup1\n      mload\n      swap1\n      0x20\n      add\n      keccak256\n        /* \"utils/ECDSA.sol\":4779:4899  return\r... */\n      swap1\n      pop\n        /* \"utils/ECDSA.sol\":4634:4907  function toTypedDataHash(bytes32 domainSeparator, bytes32 structHash)\r... */\n      swap3\n      swap2\n      pop\n      pop\n      jump\n        /* \"utils/ECDSA.sol\":1008:1890  function tryRecover(bytes32 hash, bytes memory signature)\r... */\n    tag_462:\n        /* \"utils/ECDSA.sol\":1116:1123  address */\n      0x00\n        /* \"utils/ECDSA.sol\":1125:1137  RecoverError */\n      dup1\n        /* \"utils/ECDSA.sol\":1159:1168  signature */\n      dup3\n        /* \"utils/ECDSA.sol\":1159:1175  signature.length */\n      mload\n        /* \"utils/ECDSA.sol\":1179:1181  65 */\n      0x41\n        /* \"utils/ECDSA.sol\":1159:1181  signature.length == 65 */\n      eq\n        /* \"utils/ECDSA.sol\":1155:1883  if (signature.length == 65) {\r... */\n      iszero\n      tag_471\n      jumpi\n        /* \"utils/ECDSA.sol\":1324:1328  0x20 */\n      0x20\n        /* \"utils/ECDSA.sol\":1309:1329  add(signature, 0x20) */\n      dup4\n      add\n        /* \"utils/ECDSA.sol\":1303:1330  mload(add(signature, 0x20)) */\n      mload\n        /* \"utils/ECDSA.sol\":1374:1378  0x40 */\n      0x40\n        /* \"utils/ECDSA.sol\":1359:1379  add(signature, 0x40) */\n      dup5\n      add\n        /* \"utils/ECDSA.sol\":1353:1380  mload(add(signature, 0x40)) */\n      mload\n        /* \"utils/ECDSA.sol\":1432:1436  0x60 */\n      0x60\n        /* \"utils/ECDSA.sol\":1417:1437  add(signature, 0x60) */\n      dup6\n      add\n        /* \"utils/ECDSA.sol\":1411:1438  mload(add(signature, 0x60)) */\n      mload\n        /* \"utils/ECDSA.sol\":1198:1207  bytes32 r */\n      0x00\n        /* \"utils/ECDSA.sol\":1403:1439  byte(0, mload(add(signature, 0x60))) */\n      byte\n        /* \"utils/ECDSA.sol\":1475:1500  tryRecover(hash, v, r, s) */\n      tag_472\n        /* \"utils/ECDSA.sol\":1486:1490  hash */\n      dup8\n        /* \"utils/ECDSA.sol\":1403:1439  byte(0, mload(add(signature, 0x60))) */\n      dup3\n        /* \"utils/ECDSA.sol\":1303:1330  mload(add(signature, 0x20)) */\n      dup6\n        /* \"utils/ECDSA.sol\":1353:1380  mload(add(signature, 0x40)) */\n      dup6\n        /* \"utils/ECDSA.sol\":1475:1485  tryRecover */\n      tag_473\n        /* \"utils/ECDSA.sol\":1475:1500  tryRecover(hash, v, r, s) */\n      jump\t// in\n    tag_472:\n        /* \"utils/ECDSA.sol\":1468:1500  return tryRecover(hash, v, r, s) */\n      swap5\n      pop\n      swap5\n      pop\n      pop\n      pop\n      pop\n      jump(tag_259)\n        /* \"utils/ECDSA.sol\":1155:1883  if (signature.length == 65) {\r... */\n    tag_471:\n        /* \"utils/ECDSA.sol\":1522:1531  signature */\n      dup3\n        /* \"utils/ECDSA.sol\":1522:1538  signature.length */\n      mload\n        /* \"utils/ECDSA.sol\":1542:1544  64 */\n      0x40\n        /* \"utils/ECDSA.sol\":1522:1544  signature.length == 64 */\n      eq\n        /* \"utils/ECDSA.sol\":1518:1883  if (signature.length == 64) {\r... */\n      iszero\n      tag_475\n      jumpi\n        /* \"utils/ECDSA.sol\":1666:1670  0x20 */\n      0x20\n        /* \"utils/ECDSA.sol\":1651:1671  add(signature, 0x20) */\n      dup4\n      add\n        /* \"utils/ECDSA.sol\":1645:1672  mload(add(signature, 0x20)) */\n      mload\n        /* \"utils/ECDSA.sol\":1717:1721  0x40 */\n      0x40\n        /* \"utils/ECDSA.sol\":1702:1722  add(signature, 0x40) */\n      dup5\n      add\n        /* \"utils/ECDSA.sol\":1696:1723  mload(add(signature, 0x40)) */\n      mload\n        /* \"utils/ECDSA.sol\":1759:1782  tryRecover(hash, r, vs) */\n      tag_476\n        /* \"utils/ECDSA.sol\":1770:1774  hash */\n      dup7\n        /* \"utils/ECDSA.sol\":1645:1672  mload(add(signature, 0x20)) */\n      dup4\n        /* \"utils/ECDSA.sol\":1696:1723  mload(add(signature, 0x40)) */\n      dup4\n        /* \"utils/ECDSA.sol\":1759:1769  tryRecover */\n      tag_477\n        /* \"utils/ECDSA.sol\":1759:1782  tryRecover(hash, r, vs) */\n      jump\t// in\n    tag_476:\n        /* \"utils/ECDSA.sol\":1752:1782  return tryRecover(hash, r, vs) */\n      swap4\n      pop\n      swap4\n      pop\n      pop\n      pop\n      jump(tag_259)\n        /* \"utils/ECDSA.sol\":1518:1883  if (signature.length == 64) {\r... */\n    tag_475:\n      pop\n        /* \"utils/ECDSA.sol\":1831:1832  0 */\n      0x00\n      swap1\n      pop\n        /* \"utils/ECDSA.sol\":1835:1870  RecoverError.InvalidSignatureLength */\n      0x02\n        /* \"utils/ECDSA.sol\":1815:1871  return (address(0), RecoverError.InvalidSignatureLength) */\n      jump(tag_259)\n        /* \"utils/ECDSA.sol\":357:1000  function _throwError(RecoverError error) private pure {\r... */\n    tag_464:\n        /* \"utils/ECDSA.sol\":435:455  RecoverError.NoError */\n      0x00\n        /* \"utils/ECDSA.sol\":426:431  error */\n      dup2\n        /* \"utils/ECDSA.sol\":426:455  error == RecoverError.NoError */\n      0x04\n      dup2\n      gt\n      iszero\n      tag_484\n      jumpi\n      tag_484\n      tag_482\n      jump\t// in\n    tag_484:\n      eq\n        /* \"utils/ECDSA.sol\":422:993  if (error == RecoverError.NoError) {\r... */\n      iszero\n      tag_485\n      jumpi\n        /* \"utils/ECDSA.sol\":357:1000  function _throwError(RecoverError error) private pure {\r... */\n      pop\n      jump\t// out\n        /* \"utils/ECDSA.sol\":422:993  if (error == RecoverError.NoError) {\r... */\n    tag_485:\n        /* \"utils/ECDSA.sol\":533:562  RecoverError.InvalidSignature */\n      0x01\n        /* \"utils/ECDSA.sol\":524:529  error */\n      dup2\n        /* \"utils/ECDSA.sol\":524:562  error == RecoverError.InvalidSignature */\n      0x04\n      dup2\n      gt\n      iszero\n      tag_490\n      jumpi\n      tag_490\n      tag_482\n      jump\t// in\n    tag_490:\n      eq\n        /* \"utils/ECDSA.sol\":520:993  if (error == RecoverError.InvalidSignature) {\r... */\n      iszero\n      tag_491\n      jumpi\n        /* \"utils/ECDSA.sol\":579:613  revert(\"ECDSA: invalid signature\") */\n      mload(0x40)\n      shl(0xe5, 0x461bcd)\n      dup2\n      mstore\n        /* \"#utility.yul\":10588:10590   */\n      0x20\n        /* \"utils/ECDSA.sol\":579:613  revert(\"ECDSA: invalid signature\") */\n      0x04\n      dup3\n      add\n        /* \"#utility.yul\":10570:10591   */\n      mstore\n        /* \"#utility.yul\":10627:10629   */\n      0x18\n        /* \"#utility.yul\":10607:10625   */\n      0x24\n      dup3\n      add\n        /* \"#utility.yul\":10600:10630   */\n      mstore\n        /* \"#utility.yul\":10666:10692   */\n      0x45434453413a20696e76616c6964207369676e61747572650000000000000000\n        /* \"#utility.yul\":10646:10664   */\n      0x44\n      dup3\n      add\n        /* \"#utility.yul\":10639:10693   */\n      mstore\n        /* \"#utility.yul\":10710:10728   */\n      0x64\n      add\n        /* \"utils/ECDSA.sol\":579:613  revert(\"ECDSA: invalid signature\") */\n      tag_218\n        /* \"#utility.yul\":10386:10734   */\n      jump\n        /* \"utils/ECDSA.sol\":520:993  if (error == RecoverError.InvalidSignature) {\r... */\n    tag_491:\n        /* \"utils/ECDSA.sol\":644:679  RecoverError.InvalidSignatureLength */\n      0x02\n        /* \"utils/ECDSA.sol\":635:640  error */\n      dup2\n        /* \"utils/ECDSA.sol\":635:679  error == RecoverError.InvalidSignatureLength */\n      0x04\n      dup2\n      gt\n      iszero\n      tag_498\n      jumpi\n      tag_498\n      tag_482\n      jump\t// in\n    tag_498:\n      eq\n        /* \"utils/ECDSA.sol\":631:993  if (error == RecoverError.InvalidSignatureLength) {\r... */\n      iszero\n      tag_499\n      jumpi\n        /* \"utils/ECDSA.sol\":696:737  revert(\"ECDSA: invalid signature length\") */\n      mload(0x40)\n      shl(0xe5, 0x461bcd)\n      dup2\n      mstore\n        /* \"#utility.yul\":11998:12000   */\n      0x20\n        /* \"utils/ECDSA.sol\":696:737  revert(\"ECDSA: invalid signature length\") */\n      0x04\n      dup3\n      add\n        /* \"#utility.yul\":11980:12001   */\n      mstore\n        /* \"#utility.yul\":12037:12039   */\n      0x1f\n        /* \"#utility.yul\":12017:12035   */\n      0x24\n      dup3\n      add\n        /* \"#utility.yul\":12010:12040   */\n      mstore\n        /* \"#utility.yul\":12076:12109   */\n      0x45434453413a20696e76616c6964207369676e6174757265206c656e67746800\n        /* \"#utility.yul\":12056:12074   */\n      0x44\n      dup3\n      add\n        /* \"#utility.yul\":12049:12110   */\n      mstore\n        /* \"#utility.yul\":12127:12145   */\n      0x64\n      add\n        /* \"utils/ECDSA.sol\":696:737  revert(\"ECDSA: invalid signature length\") */\n      tag_218\n        /* \"#utility.yul\":11796:12151   */\n      jump\n        /* \"utils/ECDSA.sol\":631:993  if (error == RecoverError.InvalidSignatureLength) {\r... */\n    tag_499:\n        /* \"utils/ECDSA.sol\":768:798  RecoverError.InvalidSignatureS */\n      0x03\n        /* \"utils/ECDSA.sol\":759:764  error */\n      dup2\n        /* \"utils/ECDSA.sol\":759:798  error == RecoverError.InvalidSignatureS */\n      0x04\n      dup2\n      gt\n      iszero\n      tag_506\n      jumpi\n      tag_506\n      tag_482\n      jump\t// in\n    tag_506:\n      eq\n        /* \"utils/ECDSA.sol\":755:993  if (error == RecoverError.InvalidSignatureS) {\r... */\n      iszero\n      tag_507\n      jumpi\n        /* \"utils/ECDSA.sol\":815:859  revert(\"ECDSA: invalid signature 's' value\") */\n      mload(0x40)\n      shl(0xe5, 0x461bcd)\n      dup2\n      mstore\n        /* \"#utility.yul\":13379:13381   */\n      0x20\n        /* \"utils/ECDSA.sol\":815:859  revert(\"ECDSA: invalid signature 's' value\") */\n      0x04\n      dup3\n      add\n        /* \"#utility.yul\":13361:13382   */\n      mstore\n        /* \"#utility.yul\":13418:13420   */\n      0x22\n        /* \"#utility.yul\":13398:13416   */\n      0x24\n      dup3\n      add\n        /* \"#utility.yul\":13391:13421   */\n      mstore\n        /* \"#utility.yul\":13457:13491   */\n      0x45434453413a20696e76616c6964207369676e6174757265202773272076616c\n        /* \"#utility.yul\":13437:13455   */\n      0x44\n      dup3\n      add\n        /* \"#utility.yul\":13430:13492   */\n      mstore\n      shl(0xf0, 0x7565)\n        /* \"#utility.yul\":13508:13526   */\n      0x64\n      dup3\n      add\n        /* \"#utility.yul\":13501:13533   */\n      mstore\n        /* \"#utility.yul\":13550:13569   */\n      0x84\n      add\n        /* \"utils/ECDSA.sol\":815:859  revert(\"ECDSA: invalid signature 's' value\") */\n      tag_218\n        /* \"#utility.yul\":13177:13575   */\n      jump\n        /* \"utils/ECDSA.sol\":755:993  if (error == RecoverError.InvalidSignatureS) {\r... */\n    tag_507:\n        /* \"utils/ECDSA.sol\":890:920  RecoverError.InvalidSignatureV */\n      0x04\n        /* \"utils/ECDSA.sol\":881:886  error */\n      dup2\n        /* \"utils/ECDSA.sol\":881:920  error == RecoverError.InvalidSignatureV */\n      0x04\n      dup2\n      gt\n      iszero\n      tag_514\n      jumpi\n      tag_514\n      tag_482\n      jump\t// in\n    tag_514:\n      eq\n        /* \"utils/ECDSA.sol\":877:993  if (error == RecoverError.InvalidSignatureV) {\r... */\n      iszero\n      tag_381\n      jumpi\n        /* \"utils/ECDSA.sol\":937:981  revert(\"ECDSA: invalid signature 'v' value\") */\n      mload(0x40)\n      shl(0xe5, 0x461bcd)\n      dup2\n      mstore\n        /* \"#utility.yul\":14465:14467   */\n      0x20\n        /* \"utils/ECDSA.sol\":937:981  revert(\"ECDSA: invalid signature 'v' value\") */\n      0x04\n      dup3\n      add\n        /* \"#utility.yul\":14447:14468   */\n      mstore\n        /* \"#utility.yul\":14504:14506   */\n      0x22\n        /* \"#utility.yul\":14484:14502   */\n      0x24\n      dup3\n      add\n        /* \"#utility.yul\":14477:14507   */\n      mstore\n        /* \"#utility.yul\":14543:14577   */\n      0x45434453413a20696e76616c6964207369676e6174757265202776272076616c\n        /* \"#utility.yul\":14523:14541   */\n      0x44\n      dup3\n      add\n        /* \"#utility.yul\":14516:14578   */\n      mstore\n      shl(0xf0, 0x7565)\n        /* \"#utility.yul\":14594:14612   */\n      0x64\n      dup3\n      add\n        /* \"#utility.yul\":14587:14619   */\n      mstore\n        /* \"#utility.yul\":14636:14655   */\n      0x84\n      add\n        /* \"utils/ECDSA.sol\":937:981  revert(\"ECDSA: invalid signature 'v' value\") */\n      tag_218\n        /* \"#utility.yul\":14263:14661   */\n      jump\n        /* \"utils/EIP712.sol\":2100:2537  function _domainSeparatorV4() internal view returns (bytes32) {\r... */\n    tag_468:\n        /* \"utils/EIP712.sol\":2153:2160  bytes32 */\n      0x00\n        /* \"utils/EIP712.sol\":2199:2203  this */\n      address\n      sub(shl(0xa0, 0x01), 0x01)\n        /* \"utils/EIP712.sol\":2208:2220  _CACHED_THIS */\n      immutable(\"0x9cb0b993ce3cc460071d556c01bf4adf48941df3146d18de5e970d113760be43\")\n        /* \"utils/EIP712.sol\":2191:2220  address(this) == _CACHED_THIS */\n      and\n      eq\n        /* \"utils/EIP712.sol\":2191:2257  address(this) == _CACHED_THIS && block.chainid == _CACHED_CHAIN_ID */\n      dup1\n      iszero\n      tag_519\n      jumpi\n      pop\n        /* \"utils/EIP712.sol\":2241:2257  _CACHED_CHAIN_ID */\n      immutable(\"0x363b8445add1af466ca0962717ab0a631a9ea7e62024c0f63570adbca27b350b\")\n        /* \"utils/EIP712.sol\":2224:2237  block.chainid */\n      chainid\n        /* \"utils/EIP712.sol\":2224:2257  block.chainid == _CACHED_CHAIN_ID */\n      eq\n        /* \"utils/EIP712.sol\":2191:2257  address(this) == _CACHED_THIS && block.chainid == _CACHED_CHAIN_ID */\n    tag_519:\n        /* \"utils/EIP712.sol\":2173:2530  if (\r... */\n      iszero\n      tag_520\n      jumpi\n      pop\n        /* \"utils/EIP712.sol\":2291:2315  _CACHED_DOMAIN_SEPARATOR */\n      immutable(\"0xcec542a91b78ca092ddac835fa0e3bf3223df2d9f924250036e9b758f7bc3fe8\")\n      swap1\n        /* \"utils/EIP712.sol\":2100:2537  function _domainSeparatorV4() internal view returns (bytes32) {\r... */\n      jump\t// out\n        /* \"utils/EIP712.sol\":2173:2530  if (\r... */\n    tag_520:\n      pop\n        /* \"utils/EIP712.sol\":2757:2954  abi.encode(\r... */\n      0x40\n      dup1\n      mload\n        /* \"utils/EIP712.sol\":2416:2426  _TYPE_HASH */\n      immutable(\"0x50c832d834b48f88b34f7969d8d3193ad1112053d5fb4e6fa9ec6fa96f07053f\")\n        /* \"utils/EIP712.sol\":2757:2954  abi.encode(\r... */\n      0x20\n      dup1\n      dup4\n      add\n        /* \"#utility.yul\":9524:9549   */\n      swap2\n      swap1\n      swap2\n      mstore\n        /* \"utils/EIP712.sol\":2449:2461  _HASHED_NAME */\n      immutable(\"0x82406189ee4c2aa1bb703db882a60aded39c441f7b440f5760a857f638d93571\")\n        /* \"#utility.yul\":9565:9583   */\n      dup3\n      dup5\n      add\n        /* \"#utility.yul\":9558:9592   */\n      mstore\n        /* \"utils/EIP712.sol\":2484:2499  _HASHED_VERSION */\n      immutable(\"0xa38e1781deda7568f607c8391c48fc6cc7bdaa0c22dc380efe26169b25010fdd\")\n        /* \"#utility.yul\":9608:9626   */\n      0x60\n      dup4\n      add\n        /* \"#utility.yul\":9601:9635   */\n      mstore\n        /* \"utils/EIP712.sol\":2886:2899  block.chainid */\n      chainid\n        /* \"#utility.yul\":9651:9669   */\n      0x80\n      dup4\n      add\n        /* \"#utility.yul\":9644:9678   */\n      mstore\n        /* \"utils/EIP712.sol\":2930:2934  this */\n      address\n        /* \"#utility.yul\":9694:9713   */\n      0xa0\n      dup1\n      dup5\n      add\n        /* \"#utility.yul\":9687:9748   */\n      swap2\n      swap1\n      swap2\n      mstore\n        /* \"utils/EIP712.sol\":2757:2954  abi.encode(\r... */\n      dup4\n      mload\n      dup1\n      dup5\n      sub\n      swap1\n      swap2\n      add\n      dup2\n      mstore\n        /* \"#utility.yul\":9496:9515   */\n      0xc0\n      swap1\n      swap3\n      add\n        /* \"utils/EIP712.sol\":2757:2954  abi.encode(\r... */\n      swap1\n      swap3\n      mstore\n        /* \"utils/EIP712.sol\":2729:2969  keccak256(\r... */\n      dup1\n      mload\n      swap2\n      add\n      keccak256\n      swap1\n        /* \"utils/EIP712.sol\":2100:2537  function _domainSeparatorV4() internal view returns (bytes32) {\r... */\n      jump\t// out\n        /* \"utils/ECDSA.sol\":2834:3620  function tryRecover(\r... */\n    tag_473:\n        /* \"utils/ECDSA.sol\":2965:2972  address */\n      0x00\n      dup1\n        /* \"utils/ECDSA.sol\":3043:3109  0x7FFFFFFFFFFFFFFFFFFFFFFFFFFFFFFF5D576E7357A4501DDFE92F46681B20A0 */\n      0x7fffffffffffffffffffffffffffffff5d576e7357a4501ddfe92f46681b20a0\n        /* \"utils/ECDSA.sol\":3017:3109  uint256(s) >\r... */\n      dup4\n      gt\n        /* \"utils/ECDSA.sol\":2999:3199  if (\r... */\n      iszero\n      tag_528\n      jumpi\n      pop\n        /* \"utils/ECDSA.sol\":3152:3153  0 */\n      0x00\n      swap1\n      pop\n        /* \"utils/ECDSA.sol\":3156:3186  RecoverError.InvalidSignatureS */\n      0x03\n        /* \"utils/ECDSA.sol\":3136:3187  return (address(0), RecoverError.InvalidSignatureS) */\n      jump(tag_527)\n        /* \"utils/ECDSA.sol\":2999:3199  if (\r... */\n    tag_528:\n        /* \"utils/ECDSA.sol\":3213:3214  v */\n      dup5\n        /* \"utils/ECDSA.sol\":3213:3220  v != 27 */\n      0xff\n      and\n        /* \"utils/ECDSA.sol\":3218:3220  27 */\n      0x1b\n        /* \"utils/ECDSA.sol\":3213:3220  v != 27 */\n      eq\n      iszero\n        /* \"utils/ECDSA.sol\":3213:3231  v != 27 && v != 28 */\n      dup1\n      iszero\n      tag_529\n      jumpi\n      pop\n        /* \"utils/ECDSA.sol\":3224:3225  v */\n      dup5\n        /* \"utils/ECDSA.sol\":3224:3231  v != 28 */\n      0xff\n      and\n        /* \"utils/ECDSA.sol\":3229:3231  28 */\n      0x1c\n        /* \"utils/ECDSA.sol\":3224:3231  v != 28 */\n      eq\n      iszero\n        /* \"utils/ECDSA.sol\":3213:3231  v != 27 && v != 28 */\n    tag_529:\n        /* \"utils/ECDSA.sol\":3209:3311  if (v != 27 && v != 28) {\r... */\n      iszero\n      tag_530\n      jumpi\n      pop\n        /* \"utils/ECDSA.sol\":3264:3265  0 */\n      0x00\n      swap1\n      pop\n        /* \"utils/ECDSA.sol\":3268:3298  RecoverError.InvalidSignatureV */\n      0x04\n        /* \"utils/ECDSA.sol\":3248:3299  return (address(0), RecoverError.InvalidSignatureV) */\n      jump(tag_527)\n        /* \"utils/ECDSA.sol\":3209:3311  if (v != 27 && v != 28) {\r... */\n    tag_530:\n        /* \"utils/ECDSA.sol\":3425:3449  ecrecover(hash, v, r, s) */\n      0x40\n      dup1\n      mload\n        /* \"utils/ECDSA.sol\":3408:3422  address signer */\n      0x00\n        /* \"utils/ECDSA.sol\":3425:3449  ecrecover(hash, v, r, s) */\n      dup1\n      dup3\n      mstore\n      0x20\n      dup3\n      add\n      dup1\n      dup5\n      mstore\n        /* \"#utility.yul\":9986:10011   */\n      dup10\n      swap1\n      mstore\n        /* \"#utility.yul\":10059:10063   */\n      0xff\n        /* \"#utility.yul\":10047:10064   */\n      dup9\n      and\n        /* \"#utility.yul\":10027:10045   */\n      swap3\n      dup3\n      add\n        /* \"#utility.yul\":10020:10065   */\n      swap3\n      swap1\n      swap3\n      mstore\n        /* \"#utility.yul\":10081:10099   */\n      0x60\n      dup2\n      add\n        /* \"#utility.yul\":10074:10108   */\n      dup7\n      swap1\n      mstore\n        /* \"#utility.yul\":10124:10142   */\n      0x80\n      dup2\n      add\n        /* \"#utility.yul\":10117:10151   */\n      dup6\n      swap1\n      mstore\n        /* \"utils/ECDSA.sol\":3425:3449  ecrecover(hash, v, r, s) */\n      0x01\n      swap1\n        /* \"#utility.yul\":9958:9977   */\n      0xa0\n      add\n        /* \"utils/ECDSA.sol\":3425:3449  ecrecover(hash, v, r, s) */\n      0x20\n      mload(0x40)\n      0x20\n      dup2\n      sub\n      swap1\n      dup1\n      dup5\n      sub\n      swap1\n      dup6\n      gas\n      staticcall\n      iszero\n      dup1\n      iszero\n      tag_534\n      jumpi\n      returndatasize\n      0x00\n      dup1\n      returndatacopy\n      revert(0x00, returndatasize)\n    tag_534:\n      pop\n      pop\n      mload(add(not(0x1f), mload(0x40)))\n      swap2\n      pop\n      pop\n      sub(shl(0xa0, 0x01), 0x01)\n        /* \"utils/ECDSA.sol\":3464:3484  signer == address(0) */\n      dup2\n      and\n        /* \"utils/ECDSA.sol\":3460:3563  if (signer == address(0)) {\r... */\n      tag_535\n      jumpi\n        /* \"utils/ECDSA.sol\":3517:3518  0 */\n      0x00\n        /* \"utils/ECDSA.sol\":3521:3550  RecoverError.InvalidSignature */\n      0x01\n        /* \"utils/ECDSA.sol\":3501:3551  return (address(0), RecoverError.InvalidSignature) */\n      swap3\n      pop\n      swap3\n      pop\n      pop\n      jump(tag_527)\n        /* \"utils/ECDSA.sol\":3460:3563  if (signer == address(0)) {\r... */\n    tag_535:\n        /* \"utils/ECDSA.sol\":3583:3589  signer */\n      swap2\n      pop\n        /* \"utils/ECDSA.sol\":3591:3611  RecoverError.NoError */\n      0x00\n      swap1\n      pop\n        /* \"utils/ECDSA.sol\":2834:3620  function tryRecover(\r... */\n    tag_527:\n      swap5\n      pop\n      swap5\n      swap3\n      pop\n      pop\n      pop\n      jump\t// out\n        /* \"utils/ECDSA.sol\":2169:2558  function tryRecover(\r... */\n    tag_477:\n        /* \"utils/ECDSA.sol\":2283:2290  address */\n      0x00\n      dup1\n      sub(shl(0xff, 0x01), 0x01)\n        /* \"utils/ECDSA.sol\":2329:2454  vs &\r... */\n      dup4\n      and\n        /* \"utils/ECDSA.sol\":2283:2290  address */\n      dup2\n        /* \"utils/ECDSA.sol\":2481:2506  (uint256(vs) >> 255) + 27 */\n      tag_537\n        /* \"utils/ECDSA.sol\":2497:2500  255 */\n      0xff\n        /* \"utils/ECDSA.sol\":2482:2500  uint256(vs) >> 255 */\n      dup7\n      swap1\n      shr\n        /* \"utils/ECDSA.sol\":2504:2506  27 */\n      0x1b\n        /* \"utils/ECDSA.sol\":2481:2506  (uint256(vs) >> 255) + 27 */\n      tag_404\n      jump\t// in\n    tag_537:\n        /* \"utils/ECDSA.sol\":2465:2507  uint8 v = uint8((uint256(vs) >> 255) + 27) */\n      swap1\n      pop\n        /* \"utils/ECDSA.sol\":2525:2550  tryRecover(hash, v, r, s) */\n      tag_538\n        /* \"utils/ECDSA.sol\":2536:2540  hash */\n      dup8\n        /* \"utils/ECDSA.sol\":2542:2543  v */\n      dup3\n        /* \"utils/ECDSA.sol\":2545:2546  r */\n      dup9\n        /* \"utils/ECDSA.sol\":2548:2549  s */\n      dup6\n        /* \"utils/ECDSA.sol\":2525:2535  tryRecover */\n      tag_473\n        /* \"utils/ECDSA.sol\":2525:2550  tryRecover(hash, v, r, s) */\n      jump\t// in\n    tag_538:\n        /* \"utils/ECDSA.sol\":2518:2550  return tryRecover(hash, v, r, s) */\n      swap4\n      pop\n      swap4\n      pop\n      pop\n      pop\n        /* \"utils/ECDSA.sol\":2169:2558  function tryRecover(\r... */\n      swap4\n      pop\n      swap4\n      swap2\n      pop\n      pop\n      jump\t// out\n        /* \"#utility.yul\":14:187   */\n    tag_543:\n        /* \"#utility.yul\":82:102   */\n      dup1\n      calldataload\n      sub(shl(0xa0, 0x01), 0x01)\n        /* \"#utility.yul\":131:162   */\n      dup2\n      and\n        /* \"#utility.yul\":121:163   */\n      dup2\n      eq\n        /* \"#utility.yul\":111:181   */\n      tag_545\n      jumpi\n        /* \"#utility.yul\":177:178   */\n      0x00\n        /* \"#utility.yul\":174:175   */\n      dup1\n        /* \"#utility.yul\":167:179   */\n      revert\n        /* \"#utility.yul\":111:181   */\n    tag_545:\n        /* \"#utility.yul\":14:187   */\n      swap2\n      swap1\n      pop\n      jump\t// out\n        /* \"#utility.yul\":192:352   */\n    tag_546:\n        /* \"#utility.yul\":257:277   */\n      dup1\n      calldataload\n        /* \"#utility.yul\":313:326   */\n      dup1\n      iszero\n        /* \"#utility.yul\":306:327   */\n      iszero\n        /* \"#utility.yul\":296:328   */\n      dup2\n      eq\n        /* \"#utility.yul\":286:346   */\n      tag_545\n      jumpi\n        /* \"#utility.yul\":342:343   */\n      0x00\n        /* \"#utility.yul\":339:340   */\n      dup1\n        /* \"#utility.yul\":332:344   */\n      revert\n        /* \"#utility.yul\":357:1075   */\n    tag_549:\n        /* \"#utility.yul\":399:404   */\n      0x00\n        /* \"#utility.yul\":452:455   */\n      dup3\n        /* \"#utility.yul\":445:449   */\n      0x1f\n        /* \"#utility.yul\":437:443   */\n      dup4\n        /* \"#utility.yul\":433:450   */\n      add\n        /* \"#utility.yul\":429:456   */\n      slt\n        /* \"#utility.yul\":419:474   */\n      tag_551\n      jumpi\n        /* \"#utility.yul\":470:471   */\n      0x00\n        /* \"#utility.yul\":467:468   */\n      dup1\n        /* \"#utility.yul\":460:472   */\n      revert\n        /* \"#utility.yul\":419:474   */\n    tag_551:\n        /* \"#utility.yul\":506:512   */\n      dup2\n        /* \"#utility.yul\":493:513   */\n      calldataload\n        /* \"#utility.yul\":532:550   */\n      0xffffffffffffffff\n        /* \"#utility.yul\":569:571   */\n      dup1\n        /* \"#utility.yul\":565:567   */\n      dup3\n        /* \"#utility.yul\":562:572   */\n      gt\n        /* \"#utility.yul\":559:595   */\n      iszero\n      tag_553\n      jumpi\n        /* \"#utility.yul\":575:593   */\n      tag_553\n      tag_442\n      jump\t// in\n    tag_553:\n        /* \"#utility.yul\":650:652   */\n      0x40\n        /* \"#utility.yul\":644:653   */\n      mload\n        /* \"#utility.yul\":618:620   */\n      0x1f\n        /* \"#utility.yul\":704:717   */\n      dup4\n      add\n      not(0x1f)\n        /* \"#utility.yul\":700:722   */\n      swap1\n      dup2\n      and\n        /* \"#utility.yul\":724:726   */\n      0x3f\n        /* \"#utility.yul\":696:727   */\n      add\n        /* \"#utility.yul\":692:732   */\n      and\n        /* \"#utility.yul\":680:733   */\n      dup2\n      add\n      swap1\n        /* \"#utility.yul\":748:766   */\n      dup3\n      dup3\n      gt\n        /* \"#utility.yul\":768:790   */\n      dup2\n      dup4\n      lt\n        /* \"#utility.yul\":745:791   */\n      or\n        /* \"#utility.yul\":742:814   */\n      iszero\n      tag_555\n      jumpi\n        /* \"#utility.yul\":794:812   */\n      tag_555\n      tag_442\n      jump\t// in\n    tag_555:\n        /* \"#utility.yul\":834:844   */\n      dup2\n        /* \"#utility.yul\":830:832   */\n      0x40\n        /* \"#utility.yul\":823:845   */\n      mstore\n        /* \"#utility.yul\":869:871   */\n      dup4\n        /* \"#utility.yul\":861:867   */\n      dup2\n        /* \"#utility.yul\":854:872   */\n      mstore\n        /* \"#utility.yul\":915:918   */\n      dup7\n        /* \"#utility.yul\":908:912   */\n      0x20\n        /* \"#utility.yul\":903:905   */\n      dup6\n        /* \"#utility.yul\":895:901   */\n      dup9\n        /* \"#utility.yul\":891:906   */\n      add\n        /* \"#utility.yul\":887:913   */\n      add\n        /* \"#utility.yul\":884:919   */\n      gt\n        /* \"#utility.yul\":881:936   */\n      iszero\n      tag_556\n      jumpi\n        /* \"#utility.yul\":932:933   */\n      0x00\n        /* \"#utility.yul\":929:930   */\n      dup1\n        /* \"#utility.yul\":922:934   */\n      revert\n        /* \"#utility.yul\":881:936   */\n    tag_556:\n        /* \"#utility.yul\":996:998   */\n      dup4\n        /* \"#utility.yul\":989:993   */\n      0x20\n        /* \"#utility.yul\":981:987   */\n      dup8\n        /* \"#utility.yul\":977:994   */\n      add\n        /* \"#utility.yul\":970:974   */\n      0x20\n        /* \"#utility.yul\":962:968   */\n      dup4\n        /* \"#utility.yul\":958:975   */\n      add\n        /* \"#utility.yul\":945:999   */\n      calldatacopy\n        /* \"#utility.yul\":1043:1044   */\n      0x00\n        /* \"#utility.yul\":1036:1040   */\n      0x20\n        /* \"#utility.yul\":1031:1033   */\n      dup6\n        /* \"#utility.yul\":1023:1029   */\n      dup4\n        /* \"#utility.yul\":1019:1034   */\n      add\n        /* \"#utility.yul\":1015:1041   */\n      add\n        /* \"#utility.yul\":1008:1045   */\n      mstore\n        /* \"#utility.yul\":1063:1069   */\n      dup1\n        /* \"#utility.yul\":1054:1069   */\n      swap5\n      pop\n      pop\n      pop\n      pop\n      pop\n        /* \"#utility.yul\":357:1075   */\n      swap3\n      swap2\n      pop\n      pop\n      jump\t// out\n        /* \"#utility.yul\":1080:1266   */\n    tag_80:\n        /* \"#utility.yul\":1139:1145   */\n      0x00\n        /* \"#utility.yul\":1192:1194   */\n      0x20\n        /* \"#utility.yul\":1180:1189   */\n      dup3\n        /* \"#utility.yul\":1171:1178   */\n      dup5\n        /* \"#utility.yul\":1167:1190   */\n      sub\n        /* \"#utility.yul\":1163:1195   */\n      slt\n        /* \"#utility.yul\":1160:1212   */\n      iszero\n      tag_558\n      jumpi\n        /* \"#utility.yul\":1208:1209   */\n      0x00\n        /* \"#utility.yul\":1205:1206   */\n      dup1\n        /* \"#utility.yul\":1198:1210   */\n      revert\n        /* \"#utility.yul\":1160:1212   */\n    tag_558:\n        /* \"#utility.yul\":1231:1260   */\n      tag_367\n        /* \"#utility.yul\":1250:1259   */\n      dup3\n        /* \"#utility.yul\":1231:1260   */\n      tag_543\n      jump\t// in\n        /* \"#utility.yul\":1271:1531   */\n    tag_194:\n        /* \"#utility.yul\":1339:1345   */\n      0x00\n        /* \"#utility.yul\":1347:1353   */\n      dup1\n        /* \"#utility.yul\":1400:1402   */\n      0x40\n        /* \"#utility.yul\":1388:1397   */\n      dup4\n        /* \"#utility.yul\":1379:1386   */\n      dup6\n        /* \"#utility.yul\":1375:1398   */\n      sub\n        /* \"#utility.yul\":1371:1403   */\n      slt\n        /* \"#utility.yul\":1368:1420   */\n      iszero\n      tag_561\n      jumpi\n        /* \"#utility.yul\":1416:1417   */\n      0x00\n        /* \"#utility.yul\":1413:1414   */\n      dup1\n        /* \"#utility.yul\":1406:1418   */\n      revert\n        /* \"#utility.yul\":1368:1420   */\n    tag_561:\n        /* \"#utility.yul\":1439:1468   */\n      tag_562\n        /* \"#utility.yul\":1458:1467   */\n      dup4\n        /* \"#utility.yul\":1439:1468   */\n      tag_543\n      jump\t// in\n    tag_562:\n        /* \"#utility.yul\":1429:1468   */\n      swap2\n      pop\n        /* \"#utility.yul\":1487:1525   */\n      tag_563\n        /* \"#utility.yul\":1521:1523   */\n      0x20\n        /* \"#utility.yul\":1510:1519   */\n      dup5\n        /* \"#utility.yul\":1506:1524   */\n      add\n        /* \"#utility.yul\":1487:1525   */\n      tag_543\n      jump\t// in\n    tag_563:\n        /* \"#utility.yul\":1477:1525   */\n      swap1\n      pop\n        /* \"#utility.yul\":1271:1531   */\n      swap3\n      pop\n      swap3\n      swap1\n      pop\n      jump\t// out\n        /* \"#utility.yul\":1536:1864   */\n    tag_85:\n        /* \"#utility.yul\":1613:1619   */\n      0x00\n        /* \"#utility.yul\":1621:1627   */\n      dup1\n        /* \"#utility.yul\":1629:1635   */\n      0x00\n        /* \"#utility.yul\":1682:1684   */\n      0x60\n        /* \"#utility.yul\":1670:1679   */\n      dup5\n        /* \"#utility.yul\":1661:1668   */\n      dup7\n        /* \"#utility.yul\":1657:1680   */\n      sub\n        /* \"#utility.yul\":1653:1685   */\n      slt\n        /* \"#utility.yul\":1650:1702   */\n      iszero\n      tag_565\n      jumpi\n        /* \"#utility.yul\":1698:1699   */\n      0x00\n        /* \"#utility.yul\":1695:1696   */\n      dup1\n        /* \"#utility.yul\":1688:1700   */\n      revert\n        /* \"#utility.yul\":1650:1702   */\n    tag_565:\n        /* \"#utility.yul\":1721:1750   */\n      tag_566\n        /* \"#utility.yul\":1740:1749   */\n      dup5\n        /* \"#utility.yul\":1721:1750   */\n      tag_543\n      jump\t// in\n    tag_566:\n        /* \"#utility.yul\":1711:1750   */\n      swap3\n      pop\n        /* \"#utility.yul\":1769:1807   */\n      tag_567\n        /* \"#utility.yul\":1803:1805   */\n      0x20\n        /* \"#utility.yul\":1792:1801   */\n      dup6\n        /* \"#utility.yul\":1788:1806   */\n      add\n        /* \"#utility.yul\":1769:1807   */\n      tag_543\n      jump\t// in\n    tag_567:\n        /* \"#utility.yul\":1759:1807   */\n      swap2\n      pop\n        /* \"#utility.yul\":1854:1856   */\n      0x40\n        /* \"#utility.yul\":1843:1852   */\n      dup5\n        /* \"#utility.yul\":1839:1857   */\n      add\n        /* \"#utility.yul\":1826:1858   */\n      calldataload\n        /* \"#utility.yul\":1816:1858   */\n      swap1\n      pop\n        /* \"#utility.yul\":1536:1864   */\n      swap3\n      pop\n      swap3\n      pop\n      swap3\n      jump\t// out\n        /* \"#utility.yul\":1869:2406   */\n    tag_165:\n        /* \"#utility.yul\":1964:1970   */\n      0x00\n        /* \"#utility.yul\":1972:1978   */\n      dup1\n        /* \"#utility.yul\":1980:1986   */\n      0x00\n        /* \"#utility.yul\":1988:1994   */\n      dup1\n        /* \"#utility.yul\":2041:2044   */\n      0x80\n        /* \"#utility.yul\":2029:2038   */\n      dup6\n        /* \"#utility.yul\":2020:2027   */\n      dup8\n        /* \"#utility.yul\":2016:2039   */\n      sub\n        /* \"#utility.yul\":2012:2045   */\n      slt\n        /* \"#utility.yul\":2009:2062   */\n      iszero\n      tag_569\n      jumpi\n        /* \"#utility.yul\":2058:2059   */\n      0x00\n        /* \"#utility.yul\":2055:2056   */\n      dup1\n        /* \"#utility.yul\":2048:2060   */\n      revert\n        /* \"#utility.yul\":2009:2062   */\n    tag_569:\n        /* \"#utility.yul\":2081:2110   */\n      tag_570\n        /* \"#utility.yul\":2100:2109   */\n      dup6\n        /* \"#utility.yul\":2081:2110   */\n      tag_543\n      jump\t// in\n    tag_570:\n        /* \"#utility.yul\":2071:2110   */\n      swap4\n      pop\n        /* \"#utility.yul\":2129:2167   */\n      tag_571\n        /* \"#utility.yul\":2163:2165   */\n      0x20\n        /* \"#utility.yul\":2152:2161   */\n      dup7\n        /* \"#utility.yul\":2148:2166   */\n      add\n        /* \"#utility.yul\":2129:2167   */\n      tag_543\n      jump\t// in\n    tag_571:\n        /* \"#utility.yul\":2119:2167   */\n      swap3\n      pop\n        /* \"#utility.yul\":2214:2216   */\n      0x40\n        /* \"#utility.yul\":2203:2212   */\n      dup6\n        /* \"#utility.yul\":2199:2217   */\n      add\n        /* \"#utility.yul\":2186:2218   */\n      calldataload\n        /* \"#utility.yul\":2176:2218   */\n      swap2\n      pop\n        /* \"#utility.yul\":2269:2271   */\n      0x60\n        /* \"#utility.yul\":2258:2267   */\n      dup6\n        /* \"#utility.yul\":2254:2272   */\n      add\n        /* \"#utility.yul\":2241:2273   */\n      calldataload\n        /* \"#utility.yul\":2296:2314   */\n      0xffffffffffffffff\n        /* \"#utility.yul\":2288:2294   */\n      dup2\n        /* \"#utility.yul\":2285:2315   */\n      gt\n        /* \"#utility.yul\":2282:2332   */\n      iszero\n      tag_572\n      jumpi\n        /* \"#utility.yul\":2328:2329   */\n      0x00\n        /* \"#utility.yul\":2325:2326   */\n      dup1\n        /* \"#utility.yul\":2318:2330   */\n      revert\n        /* \"#utility.yul\":2282:2332   */\n    tag_572:\n        /* \"#utility.yul\":2351:2400   */\n      tag_573\n        /* \"#utility.yul\":2392:2399   */\n      dup8\n        /* \"#utility.yul\":2383:2389   */\n      dup3\n        /* \"#utility.yul\":2372:2381   */\n      dup9\n        /* \"#utility.yul\":2368:2390   */\n      add\n        /* \"#utility.yul\":2351:2400   */\n      tag_549\n      jump\t// in\n    tag_573:\n        /* \"#utility.yul\":2341:2400   */\n      swap2\n      pop\n      pop\n        /* \"#utility.yul\":1869:2406   */\n      swap3\n      swap6\n      swap2\n      swap5\n      pop\n      swap3\n      pop\n      jump\t// out\n        /* \"#utility.yul\":2411:2665   */\n    tag_151:\n        /* \"#utility.yul\":2476:2482   */\n      0x00\n        /* \"#utility.yul\":2484:2490   */\n      dup1\n        /* \"#utility.yul\":2537:2539   */\n      0x40\n        /* \"#utility.yul\":2525:2534   */\n      dup4\n        /* \"#utility.yul\":2516:2523   */\n      dup6\n        /* \"#utility.yul\":2512:2535   */\n      sub\n        /* \"#utility.yul\":2508:2540   */\n      slt\n        /* \"#utility.yul\":2505:2557   */\n      iszero\n      tag_575\n      jumpi\n        /* \"#utility.yul\":2553:2554   */\n      0x00\n        /* \"#utility.yul\":2550:2551   */\n      dup1\n        /* \"#utility.yul\":2543:2555   */\n      revert\n        /* \"#utility.yul\":2505:2557   */\n    tag_575:\n        /* \"#utility.yul\":2576:2605   */\n      tag_576\n        /* \"#utility.yul\":2595:2604   */\n      dup4\n        /* \"#utility.yul\":2576:2605   */\n      tag_543\n      jump\t// in\n    tag_576:\n        /* \"#utility.yul\":2566:2605   */\n      swap2\n      pop\n        /* \"#utility.yul\":2624:2659   */\n      tag_563\n        /* \"#utility.yul\":2655:2657   */\n      0x20\n        /* \"#utility.yul\":2644:2653   */\n      dup5\n        /* \"#utility.yul\":2640:2658   */\n      add\n        /* \"#utility.yul\":2624:2659   */\n      tag_546\n      jump\t// in\n        /* \"#utility.yul\":2670:2924   */\n    tag_70:\n        /* \"#utility.yul\":2738:2744   */\n      0x00\n        /* \"#utility.yul\":2746:2752   */\n      dup1\n        /* \"#utility.yul\":2799:2801   */\n      0x40\n        /* \"#utility.yul\":2787:2796   */\n      dup4\n        /* \"#utility.yul\":2778:2785   */\n      dup6\n        /* \"#utility.yul\":2774:2797   */\n      sub\n        /* \"#utility.yul\":2770:2802   */\n      slt\n        /* \"#utility.yul\":2767:2819   */\n      iszero\n      tag_579\n      jumpi\n        /* \"#utility.yul\":2815:2816   */\n      0x00\n        /* \"#utility.yul\":2812:2813   */\n      dup1\n        /* \"#utility.yul\":2805:2817   */\n      revert\n        /* \"#utility.yul\":2767:2819   */\n    tag_579:\n        /* \"#utility.yul\":2838:2867   */\n      tag_580\n        /* \"#utility.yul\":2857:2866   */\n      dup4\n        /* \"#utility.yul\":2838:2867   */\n      tag_543\n      jump\t// in\n    tag_580:\n        /* \"#utility.yul\":2828:2867   */\n      swap5\n        /* \"#utility.yul\":2914:2916   */\n      0x20\n        /* \"#utility.yul\":2899:2917   */\n      swap4\n      swap1\n      swap4\n      add\n        /* \"#utility.yul\":2886:2918   */\n      calldataload\n      swap4\n      pop\n      pop\n      pop\n        /* \"#utility.yul\":2670:2924   */\n      jump\t// out\n        /* \"#utility.yul\":2929:3391   */\n    tag_174:\n        /* \"#utility.yul\":3015:3021   */\n      0x00\n        /* \"#utility.yul\":3023:3029   */\n      dup1\n        /* \"#utility.yul\":3031:3037   */\n      0x00\n        /* \"#utility.yul\":3084:3086   */\n      0x60\n        /* \"#utility.yul\":3072:3081   */\n      dup5\n        /* \"#utility.yul\":3063:3070   */\n      dup7\n        /* \"#utility.yul\":3059:3082   */\n      sub\n        /* \"#utility.yul\":3055:3087   */\n      slt\n        /* \"#utility.yul\":3052:3104   */\n      iszero\n      tag_582\n      jumpi\n        /* \"#utility.yul\":3100:3101   */\n      0x00\n        /* \"#utility.yul\":3097:3098   */\n      dup1\n        /* \"#utility.yul\":3090:3102   */\n      revert\n        /* \"#utility.yul\":3052:3104   */\n    tag_582:\n        /* \"#utility.yul\":3123:3152   */\n      tag_583\n        /* \"#utility.yul\":3142:3151   */\n      dup5\n        /* \"#utility.yul\":3123:3152   */\n      tag_543\n      jump\t// in\n    tag_583:\n        /* \"#utility.yul\":3113:3152   */\n      swap3\n      pop\n        /* \"#utility.yul\":3199:3201   */\n      0x20\n        /* \"#utility.yul\":3188:3197   */\n      dup5\n        /* \"#utility.yul\":3184:3202   */\n      add\n        /* \"#utility.yul\":3171:3203   */\n      calldataload\n        /* \"#utility.yul\":3161:3203   */\n      swap2\n      pop\n        /* \"#utility.yul\":3254:3256   */\n      0x40\n        /* \"#utility.yul\":3243:3252   */\n      dup5\n        /* \"#utility.yul\":3239:3257   */\n      add\n        /* \"#utility.yul\":3226:3258   */\n      calldataload\n        /* \"#utility.yul\":3281:3299   */\n      0xffffffffffffffff\n        /* \"#utility.yul\":3273:3279   */\n      dup2\n        /* \"#utility.yul\":3270:3300   */\n      gt\n        /* \"#utility.yul\":3267:3317   */\n      iszero\n      tag_584\n      jumpi\n        /* \"#utility.yul\":3313:3314   */\n      0x00\n        /* \"#utility.yul\":3310:3311   */\n      dup1\n        /* \"#utility.yul\":3303:3315   */\n      revert\n        /* \"#utility.yul\":3267:3317   */\n    tag_584:\n        /* \"#utility.yul\":3336:3385   */\n      tag_585\n        /* \"#utility.yul\":3377:3384   */\n      dup7\n        /* \"#utility.yul\":3368:3374   */\n      dup3\n        /* \"#utility.yul\":3357:3366   */\n      dup8\n        /* \"#utility.yul\":3353:3375   */\n      add\n        /* \"#utility.yul\":3336:3385   */\n      tag_549\n      jump\t// in\n    tag_585:\n        /* \"#utility.yul\":3326:3385   */\n      swap2\n      pop\n      pop\n        /* \"#utility.yul\":2929:3391   */\n      swap3\n      pop\n      swap3\n      pop\n      swap3\n      jump\t// out\n        /* \"#utility.yul\":3396:3739   */\n    tag_126:\n        /* \"#utility.yul\":3462:3468   */\n      0x00\n        /* \"#utility.yul\":3470:3476   */\n      dup1\n        /* \"#utility.yul\":3523:3525   */\n      0x40\n        /* \"#utility.yul\":3511:3520   */\n      dup4\n        /* \"#utility.yul\":3502:3509   */\n      dup6\n        /* \"#utility.yul\":3498:3521   */\n      sub\n        /* \"#utility.yul\":3494:3526   */\n      slt\n        /* \"#utility.yul\":3491:3543   */\n      iszero\n      tag_587\n      jumpi\n        /* \"#utility.yul\":3539:3540   */\n      0x00\n        /* \"#utility.yul\":3536:3537   */\n      dup1\n        /* \"#utility.yul\":3529:3541   */\n      revert\n        /* \"#utility.yul\":3491:3543   */\n    tag_587:\n        /* \"#utility.yul\":3562:3591   */\n      tag_588\n        /* \"#utility.yul\":3581:3590   */\n      dup4\n        /* \"#utility.yul\":3562:3591   */\n      tag_543\n      jump\t// in\n    tag_588:\n        /* \"#utility.yul\":3552:3591   */\n      swap2\n      pop\n        /* \"#utility.yul\":3641:3643   */\n      0x20\n        /* \"#utility.yul\":3630:3639   */\n      dup4\n        /* \"#utility.yul\":3626:3644   */\n      add\n        /* \"#utility.yul\":3613:3645   */\n      calldataload\n        /* \"#utility.yul\":3685:3689   */\n      0xff\n        /* \"#utility.yul\":3678:3683   */\n      dup2\n        /* \"#utility.yul\":3674:3690   */\n      and\n        /* \"#utility.yul\":3667:3672   */\n      dup2\n        /* \"#utility.yul\":3664:3691   */\n      eq\n        /* \"#utility.yul\":3654:3709   */\n      tag_589\n      jumpi\n        /* \"#utility.yul\":3705:3706   */\n      0x00\n        /* \"#utility.yul\":3702:3703   */\n      dup1\n        /* \"#utility.yul\":3695:3707   */\n      revert\n        /* \"#utility.yul\":3654:3709   */\n    tag_589:\n        /* \"#utility.yul\":3728:3733   */\n      dup1\n        /* \"#utility.yul\":3718:3733   */\n      swap2\n      pop\n      pop\n        /* \"#utility.yul\":3396:3739   */\n      swap3\n      pop\n      swap3\n      swap1\n      pop\n      jump\t// out\n        /* \"#utility.yul\":3744:4110   */\n    tag_53:\n        /* \"#utility.yul\":3811:3817   */\n      0x00\n        /* \"#utility.yul\":3819:3825   */\n      dup1\n        /* \"#utility.yul\":3872:3874   */\n      0x40\n        /* \"#utility.yul\":3860:3869   */\n      dup4\n        /* \"#utility.yul\":3851:3858   */\n      dup6\n        /* \"#utility.yul\":3847:3870   */\n      sub\n        /* \"#utility.yul\":3843:3875   */\n      slt\n        /* \"#utility.yul\":3840:3892   */\n      iszero\n      tag_591\n      jumpi\n        /* \"#utility.yul\":3888:3889   */\n      0x00\n        /* \"#utility.yul\":3885:3886   */\n      dup1\n        /* \"#utility.yul\":3878:3890   */\n      revert\n        /* \"#utility.yul\":3840:3892   */\n    tag_591:\n        /* \"#utility.yul\":3911:3940   */\n      tag_592\n        /* \"#utility.yul\":3930:3939   */\n      dup4\n        /* \"#utility.yul\":3911:3940   */\n      tag_543\n      jump\t// in\n    tag_592:\n        /* \"#utility.yul\":3901:3940   */\n      swap2\n      pop\n        /* \"#utility.yul\":3990:3992   */\n      0x20\n        /* \"#utility.yul\":3979:3988   */\n      dup4\n        /* \"#utility.yul\":3975:3993   */\n      add\n        /* \"#utility.yul\":3962:3994   */\n      calldataload\n      sub(shl(0x60, 0x01), 0x01)\n        /* \"#utility.yul\":4027:4032   */\n      dup2\n        /* \"#utility.yul\":4023:4061   */\n      and\n        /* \"#utility.yul\":4016:4021   */\n      dup2\n        /* \"#utility.yul\":4013:4062   */\n      eq\n        /* \"#utility.yul\":4003:4080   */\n      tag_589\n      jumpi\n        /* \"#utility.yul\":4076:4077   */\n      0x00\n        /* \"#utility.yul\":4073:4074   */\n      dup1\n        /* \"#utility.yul\":4066:4078   */\n      revert\n        /* \"#utility.yul\":4115:4295   */\n    tag_75:\n        /* \"#utility.yul\":4171:4177   */\n      0x00\n        /* \"#utility.yul\":4224:4226   */\n      0x20\n        /* \"#utility.yul\":4212:4221   */\n      dup3\n        /* \"#utility.yul\":4203:4210   */\n      dup5\n        /* \"#utility.yul\":4199:4222   */\n      sub\n        /* \"#utility.yul\":4195:4227   */\n      slt\n        /* \"#utility.yul\":4192:4244   */\n      iszero\n      tag_595\n      jumpi\n        /* \"#utility.yul\":4240:4241   */\n      0x00\n        /* \"#utility.yul\":4237:4238   */\n      dup1\n        /* \"#utility.yul\":4230:4242   */\n      revert\n        /* \"#utility.yul\":4192:4244   */\n    tag_595:\n        /* \"#utility.yul\":4263:4289   */\n      tag_367\n        /* \"#utility.yul\":4279:4288   */\n      dup3\n        /* \"#utility.yul\":4263:4289   */\n      tag_546\n      jump\t// in\n        /* \"#utility.yul\":4300:4545   */\n    tag_46:\n        /* \"#utility.yul\":4358:4364   */\n      0x00\n        /* \"#utility.yul\":4411:4413   */\n      0x20\n        /* \"#utility.yul\":4399:4408   */\n      dup3\n        /* \"#utility.yul\":4390:4397   */\n      dup5\n        /* \"#utility.yul\":4386:4409   */\n      sub\n        /* \"#utility.yul\":4382:4414   */\n      slt\n        /* \"#utility.yul\":4379:4431   */\n      iszero\n      tag_598\n      jumpi\n        /* \"#utility.yul\":4427:4428   */\n      0x00\n        /* \"#utility.yul\":4424:4425   */\n      dup1\n        /* \"#utility.yul\":4417:4429   */\n      revert\n        /* \"#utility.yul\":4379:4431   */\n    tag_598:\n        /* \"#utility.yul\":4466:4475   */\n      dup2\n        /* \"#utility.yul\":4453:4476   */\n      calldataload\n        /* \"#utility.yul\":4485:4515   */\n      tag_367\n        /* \"#utility.yul\":4509:4514   */\n      dup2\n        /* \"#utility.yul\":4485:4515   */\n      tag_600\n      jump\t// in\n        /* \"#utility.yul\":4550:4799   */\n    tag_270:\n        /* \"#utility.yul\":4619:4625   */\n      0x00\n        /* \"#utility.yul\":4672:4674   */\n      0x20\n        /* \"#utility.yul\":4660:4669   */\n      dup3\n        /* \"#utility.yul\":4651:4658   */\n      dup5\n        /* \"#utility.yul\":4647:4670   */\n      sub\n        /* \"#utility.yul\":4643:4675   */\n      slt\n        /* \"#utility.yul\":4640:4692   */\n      iszero\n      tag_602\n      jumpi\n        /* \"#utility.yul\":4688:4689   */\n      0x00\n        /* \"#utility.yul\":4685:4686   */\n      dup1\n        /* \"#utility.yul\":4678:4690   */\n      revert\n        /* \"#utility.yul\":4640:4692   */\n    tag_602:\n        /* \"#utility.yul\":4720:4729   */\n      dup2\n        /* \"#utility.yul\":4714:4730   */\n      mload\n        /* \"#utility.yul\":4739:4769   */\n      tag_367\n        /* \"#utility.yul\":4763:4768   */\n      dup2\n        /* \"#utility.yul\":4739:4769   */\n      tag_600\n      jump\t// in\n        /* \"#utility.yul\":4804:4984   */\n    tag_63:\n        /* \"#utility.yul\":4863:4869   */\n      0x00\n        /* \"#utility.yul\":4916:4918   */\n      0x20\n        /* \"#utility.yul\":4904:4913   */\n      dup3\n        /* \"#utility.yul\":4895:4902   */\n      dup5\n        /* \"#utility.yul\":4891:4914   */\n      sub\n        /* \"#utility.yul\":4887:4919   */\n      slt\n        /* \"#utility.yul\":4884:4936   */\n      iszero\n      tag_605\n      jumpi\n        /* \"#utility.yul\":4932:4933   */\n      0x00\n        /* \"#utility.yul\":4929:4930   */\n      dup1\n        /* \"#utility.yul\":4922:4934   */\n      revert\n        /* \"#utility.yul\":4884:4936   */\n    tag_605:\n      pop\n        /* \"#utility.yul\":4955:4978   */\n      calldataload\n      swap2\n        /* \"#utility.yul\":4804:4984   */\n      swap1\n      pop\n      jump\t// out\n        /* \"#utility.yul\":4989:5237   */\n    tag_90:\n        /* \"#utility.yul\":5057:5063   */\n      0x00\n        /* \"#utility.yul\":5065:5071   */\n      dup1\n        /* \"#utility.yul\":5118:5120   */\n      0x40\n        /* \"#utility.yul\":5106:5115   */\n      dup4\n        /* \"#utility.yul\":5097:5104   */\n      dup6\n        /* \"#utility.yul\":5093:5116   */\n      sub\n        /* \"#utility.yul\":5089:5121   */\n      slt\n        /* \"#utility.yul\":5086:5138   */\n      iszero\n      tag_607\n      jumpi\n        /* \"#utility.yul\":5134:5135   */\n      0x00\n        /* \"#utility.yul\":5131:5132   */\n      dup1\n        /* \"#utility.yul\":5124:5136   */\n      revert\n        /* \"#utility.yul\":5086:5138   */\n    tag_607:\n      pop\n      pop\n        /* \"#utility.yul\":5157:5180   */\n      dup1\n      calldataload\n      swap3\n        /* \"#utility.yul\":5227:5229   */\n      0x20\n        /* \"#utility.yul\":5212:5230   */\n      swap1\n      swap2\n      add\n        /* \"#utility.yul\":5199:5231   */\n      calldataload\n      swap2\n      pop\n        /* \"#utility.yul\":4989:5237   */\n      jump\t// out\n        /* \"#utility.yul\":5242:5499   */\n    tag_608:\n        /* \"#utility.yul\":5283:5286   */\n      0x00\n        /* \"#utility.yul\":5321:5326   */\n      dup2\n        /* \"#utility.yul\":5315:5327   */\n      mload\n        /* \"#utility.yul\":5348:5354   */\n      dup1\n        /* \"#utility.yul\":5343:5346   */\n      dup5\n        /* \"#utility.yul\":5336:5355   */\n      mstore\n        /* \"#utility.yul\":5364:5427   */\n      tag_610\n        /* \"#utility.yul\":5420:5426   */\n      dup2\n        /* \"#utility.yul\":5413:5417   */\n      0x20\n        /* \"#utility.yul\":5408:5411   */\n      dup7\n        /* \"#utility.yul\":5404:5418   */\n      add\n        /* \"#utility.yul\":5397:5401   */\n      0x20\n        /* \"#utility.yul\":5390:5395   */\n      dup7\n        /* \"#utility.yul\":5386:5402   */\n      add\n        /* \"#utility.yul\":5364:5427   */\n      tag_611\n      jump\t// in\n    tag_610:\n        /* \"#utility.yul\":5481:5483   */\n      0x1f\n        /* \"#utility.yul\":5460:5475   */\n      add\n      not(0x1f)\n        /* \"#utility.yul\":5456:5485   */\n      and\n        /* \"#utility.yul\":5447:5486   */\n      swap3\n      swap1\n      swap3\n      add\n        /* \"#utility.yul\":5488:5492   */\n      0x20\n        /* \"#utility.yul\":5443:5493   */\n      add\n      swap3\n        /* \"#utility.yul\":5242:5499   */\n      swap2\n      pop\n      pop\n      jump\t// out\n        /* \"#utility.yul\":5934:6571   */\n    tag_371:\n        /* \"#utility.yul\":6214:6217   */\n      0x00\n        /* \"#utility.yul\":6252:6258   */\n      dup4\n        /* \"#utility.yul\":6246:6259   */\n      mload\n        /* \"#utility.yul\":6268:6321   */\n      tag_614\n        /* \"#utility.yul\":6314:6320   */\n      dup2\n        /* \"#utility.yul\":6309:6312   */\n      dup5\n        /* \"#utility.yul\":6302:6306   */\n      0x20\n        /* \"#utility.yul\":6294:6300   */\n      dup9\n        /* \"#utility.yul\":6290:6307   */\n      add\n        /* \"#utility.yul\":6268:6321   */\n      tag_611\n      jump\t// in\n    tag_614:\n        /* \"#utility.yul\":6384:6397   */\n      dup4\n      mload\n        /* \"#utility.yul\":6343:6359   */\n      swap1\n      dup4\n      add\n      swap1\n        /* \"#utility.yul\":6406:6463   */\n      tag_615\n        /* \"#utility.yul\":6384:6397   */\n      dup2\n        /* \"#utility.yul\":6343:6359   */\n      dup4\n        /* \"#utility.yul\":6440:6444   */\n      0x20\n        /* \"#utility.yul\":6428:6445   */\n      dup9\n      add\n        /* \"#utility.yul\":6406:6463   */\n      tag_611\n      jump\t// in\n    tag_615:\n      shl(0xd9, 0x173539b7b7)\n        /* \"#utility.yul\":6485:6505   */\n      swap2\n      add\n        /* \"#utility.yul\":6514:6536   */\n      swap1\n      dup2\n      mstore\n        /* \"#utility.yul\":6563:6564   */\n      0x05\n        /* \"#utility.yul\":6552:6565   */\n      add\n      swap5\n        /* \"#utility.yul\":5934:6571   */\n      swap4\n      pop\n      pop\n      pop\n      pop\n      jump\t// out\n        /* \"#utility.yul\":7391:7879   */\n    tag_348:\n      sub(shl(0xa0, 0x01), 0x01)\n        /* \"#utility.yul\":7660:7675   */\n      dup6\n      dup2\n      and\n        /* \"#utility.yul\":7642:7676   */\n      dup3\n      mstore\n        /* \"#utility.yul\":7712:7727   */\n      dup5\n      and\n        /* \"#utility.yul\":7707:7709   */\n      0x20\n        /* \"#utility.yul\":7692:7710   */\n      dup3\n      add\n        /* \"#utility.yul\":7685:7728   */\n      mstore\n        /* \"#utility.yul\":7759:7761   */\n      0x40\n        /* \"#utility.yul\":7744:7762   */\n      dup2\n      add\n        /* \"#utility.yul\":7737:7771   */\n      dup4\n      swap1\n      mstore\n        /* \"#utility.yul\":7807:7810   */\n      0x80\n        /* \"#utility.yul\":7802:7804   */\n      0x60\n        /* \"#utility.yul\":7787:7805   */\n      dup3\n      add\n        /* \"#utility.yul\":7780:7811   */\n      dup2\n      swap1\n      mstore\n        /* \"#utility.yul\":7585:7589   */\n      0x00\n      swap1\n        /* \"#utility.yul\":7828:7873   */\n      tag_620\n      swap1\n        /* \"#utility.yul\":7853:7872   */\n      dup4\n      add\n        /* \"#utility.yul\":7845:7851   */\n      dup5\n        /* \"#utility.yul\":7828:7873   */\n      tag_608\n      jump\t// in\n    tag_620:\n        /* \"#utility.yul\":7820:7873   */\n      swap7\n        /* \"#utility.yul\":7391:7879   */\n      swap6\n      pop\n      pop\n      pop\n      pop\n      pop\n      pop\n      jump\t// out\n        /* \"#utility.yul\":10162:10381   */\n    tag_59:\n        /* \"#utility.yul\":10311:10313   */\n      0x20\n        /* \"#utility.yul\":10300:10309   */\n      dup2\n        /* \"#utility.yul\":10293:10314   */\n      mstore\n        /* \"#utility.yul\":10274:10278   */\n      0x00\n        /* \"#utility.yul\":10331:10375   */\n      tag_367\n        /* \"#utility.yul\":10371:10373   */\n      0x20\n        /* \"#utility.yul\":10360:10369   */\n      dup4\n        /* \"#utility.yul\":10356:10374   */\n      add\n        /* \"#utility.yul\":10348:10354   */\n      dup5\n        /* \"#utility.yul\":10331:10375   */\n      tag_608\n      jump\t// in\n        /* \"#utility.yul\":11092:11439   */\n    tag_219:\n        /* \"#utility.yul\":11294:11296   */\n      0x20\n        /* \"#utility.yul\":11276:11297   */\n      dup1\n      dup3\n      mstore\n        /* \"#utility.yul\":11333:11335   */\n      0x17\n        /* \"#utility.yul\":11313:11331   */\n      swap1\n      dup3\n      add\n        /* \"#utility.yul\":11306:11336   */\n      mstore\n        /* \"#utility.yul\":11372:11397   */\n      0x43616c6c6572206973206e6f7420746865206f776e6572000000000000000000\n        /* \"#utility.yul\":11367:11369   */\n      0x40\n        /* \"#utility.yul\":11352:11370   */\n      dup3\n      add\n        /* \"#utility.yul\":11345:11398   */\n      mstore\n        /* \"#utility.yul\":11430:11432   */\n      0x60\n        /* \"#utility.yul\":11415:11433   */\n      add\n      swap1\n        /* \"#utility.yul\":11092:11439   */\n      jump\t// out\n        /* \"#utility.yul\":16404:16746   */\n    tag_288:\n        /* \"#utility.yul\":16606:16608   */\n      0x20\n        /* \"#utility.yul\":16588:16609   */\n      dup1\n      dup3\n      mstore\n        /* \"#utility.yul\":16645:16647   */\n      0x12\n        /* \"#utility.yul\":16625:16643   */\n      swap1\n      dup3\n      add\n        /* \"#utility.yul\":16618:16648   */\n      mstore\n      shl(0x72, 0x13585e081cdd5c1c1b1e481c995858da1959)\n        /* \"#utility.yul\":16679:16681   */\n      0x40\n        /* \"#utility.yul\":16664:16682   */\n      dup3\n      add\n        /* \"#utility.yul\":16657:16705   */\n      mstore\n        /* \"#utility.yul\":16737:16739   */\n      0x60\n        /* \"#utility.yul\":16722:16740   */\n      add\n      swap1\n        /* \"#utility.yul\":16404:16746   */\n      jump\t// out\n        /* \"#utility.yul\":18758:18886   */\n    tag_404:\n        /* \"#utility.yul\":18798:18801   */\n      0x00\n        /* \"#utility.yul\":18829:18830   */\n      dup3\n        /* \"#utility.yul\":18825:18831   */\n      not\n        /* \"#utility.yul\":18822:18823   */\n      dup3\n        /* \"#utility.yul\":18819:18832   */\n      gt\n        /* \"#utility.yul\":18816:18855   */\n      iszero\n      tag_656\n      jumpi\n        /* \"#utility.yul\":18835:18853   */\n      tag_656\n      tag_657\n      jump\t// in\n    tag_656:\n      pop\n        /* \"#utility.yul\":18871:18880   */\n      add\n      swap1\n        /* \"#utility.yul\":18758:18886   */\n      jump\t// out\n        /* \"#utility.yul\":18891:19011   */\n    tag_341:\n        /* \"#utility.yul\":18931:18932   */\n      0x00\n        /* \"#utility.yul\":18957:18958   */\n      dup3\n        /* \"#utility.yul\":18947:18982   */\n      tag_660\n      jumpi\n        /* \"#utility.yul\":18962:18980   */\n      tag_660\n      tag_661\n      jump\t// in\n    tag_660:\n      pop\n        /* \"#utility.yul\":18996:19005   */\n      div\n      swap1\n        /* \"#utility.yul\":18891:19011   */\n      jump\t// out\n        /* \"#utility.yul\":19016:19184   */\n    tag_343:\n        /* \"#utility.yul\":19056:19063   */\n      0x00\n        /* \"#utility.yul\":19122:19123   */\n      dup2\n        /* \"#utility.yul\":19118:19119   */\n      0x00\n        /* \"#utility.yul\":19114:19120   */\n      not\n        /* \"#utility.yul\":19110:19124   */\n      div\n        /* \"#utility.yul\":19107:19108   */\n      dup4\n        /* \"#utility.yul\":19104:19125   */\n      gt\n        /* \"#utility.yul\":19099:19100   */\n      dup3\n        /* \"#utility.yul\":19092:19101   */\n      iszero\n        /* \"#utility.yul\":19085:19102   */\n      iszero\n        /* \"#utility.yul\":19081:19126   */\n      and\n        /* \"#utility.yul\":19078:19149   */\n      iszero\n      tag_664\n      jumpi\n        /* \"#utility.yul\":19129:19147   */\n      tag_664\n      tag_657\n      jump\t// in\n    tag_664:\n      pop\n        /* \"#utility.yul\":19169:19178   */\n      mul\n      swap1\n        /* \"#utility.yul\":19016:19184   */\n      jump\t// out\n        /* \"#utility.yul\":19189:19314   */\n    tag_298:\n        /* \"#utility.yul\":19229:19233   */\n      0x00\n        /* \"#utility.yul\":19257:19258   */\n      dup3\n        /* \"#utility.yul\":19254:19255   */\n      dup3\n        /* \"#utility.yul\":19251:19259   */\n      lt\n        /* \"#utility.yul\":19248:19282   */\n      iszero\n      tag_667\n      jumpi\n        /* \"#utility.yul\":19262:19280   */\n      tag_667\n      tag_657\n      jump\t// in\n    tag_667:\n      pop\n        /* \"#utility.yul\":19299:19308   */\n      sub\n      swap1\n        /* \"#utility.yul\":19189:19314   */\n      jump\t// out\n        /* \"#utility.yul\":19319:19577   */\n    tag_611:\n        /* \"#utility.yul\":19391:19392   */\n      0x00\n        /* \"#utility.yul\":19401:19514   */\n    tag_669:\n        /* \"#utility.yul\":19415:19421   */\n      dup4\n        /* \"#utility.yul\":19412:19413   */\n      dup2\n        /* \"#utility.yul\":19409:19422   */\n      lt\n        /* \"#utility.yul\":19401:19514   */\n      iszero\n      tag_671\n      jumpi\n        /* \"#utility.yul\":19491:19502   */\n      dup2\n      dup2\n      add\n        /* \"#utility.yul\":19485:19503   */\n      mload\n        /* \"#utility.yul\":19472:19483   */\n      dup4\n      dup3\n      add\n        /* \"#utility.yul\":19465:19504   */\n      mstore\n        /* \"#utility.yul\":19437:19439   */\n      0x20\n        /* \"#utility.yul\":19430:19440   */\n      add\n        /* \"#utility.yul\":19401:19514   */\n      jump(tag_669)\n    tag_671:\n        /* \"#utility.yul\":19532:19538   */\n      dup4\n        /* \"#utility.yul\":19529:19530   */\n      dup2\n        /* \"#utility.yul\":19526:19539   */\n      gt\n        /* \"#utility.yul\":19523:19571   */\n      iszero\n      tag_353\n      jumpi\n      pop\n      pop\n        /* \"#utility.yul\":19567:19568   */\n      0x00\n        /* \"#utility.yul\":19549:19565   */\n      swap2\n      add\n        /* \"#utility.yul\":19542:19569   */\n      mstore\n        /* \"#utility.yul\":19319:19577   */\n      jump\t// out\n        /* \"#utility.yul\":19582:19962   */\n    tag_225:\n        /* \"#utility.yul\":19661:19662   */\n      0x01\n        /* \"#utility.yul\":19657:19669   */\n      dup2\n      dup2\n      shr\n      swap1\n        /* \"#utility.yul\":19704:19716   */\n      dup3\n      and\n      dup1\n        /* \"#utility.yul\":19725:19786   */\n      tag_674\n      jumpi\n        /* \"#utility.yul\":19779:19783   */\n      0x7f\n        /* \"#utility.yul\":19771:19777   */\n      dup3\n        /* \"#utility.yul\":19767:19784   */\n      and\n        /* \"#utility.yul\":19757:19784   */\n      swap2\n      pop\n        /* \"#utility.yul\":19725:19786   */\n    tag_674:\n        /* \"#utility.yul\":19832:19834   */\n      0x20\n        /* \"#utility.yul\":19824:19830   */\n      dup3\n        /* \"#utility.yul\":19821:19835   */\n      lt\n        /* \"#utility.yul\":19801:19819   */\n      dup2\n        /* \"#utility.yul\":19798:19836   */\n      eq\n        /* \"#utility.yul\":19795:19956   */\n      iszero\n      tag_675\n      jumpi\n        /* \"#utility.yul\":19878:19888   */\n      0x4e487b71\n        /* \"#utility.yul\":19873:19876   */\n      0xe0\n        /* \"#utility.yul\":19869:19889   */\n      shl\n        /* \"#utility.yul\":19866:19867   */\n      0x00\n        /* \"#utility.yul\":19859:19890   */\n      mstore\n        /* \"#utility.yul\":19913:19917   */\n      0x22\n        /* \"#utility.yul\":19910:19911   */\n      0x04\n        /* \"#utility.yul\":19903:19918   */\n      mstore\n        /* \"#utility.yul\":19941:19945   */\n      0x24\n        /* \"#utility.yul\":19938:19939   */\n      0x00\n        /* \"#utility.yul\":19931:19946   */\n      revert\n        /* \"#utility.yul\":19795:19956   */\n    tag_675:\n      pop\n        /* \"#utility.yul\":19582:19962   */\n      swap2\n      swap1\n      pop\n      jump\t// out\n        /* \"#utility.yul\":19967:20102   */\n    tag_438:\n        /* \"#utility.yul\":20006:20009   */\n      0x00\n      not(0x00)\n        /* \"#utility.yul\":20027:20044   */\n      dup3\n      eq\n        /* \"#utility.yul\":20024:20067   */\n      iszero\n      tag_678\n      jumpi\n        /* \"#utility.yul\":20047:20065   */\n      tag_678\n      tag_657\n      jump\t// in\n    tag_678:\n      pop\n        /* \"#utility.yul\":20094:20095   */\n      0x01\n        /* \"#utility.yul\":20083:20096   */\n      add\n      swap1\n        /* \"#utility.yul\":19967:20102   */\n      jump\t// out\n        /* \"#utility.yul\":20107:20219   */\n    tag_320:\n        /* \"#utility.yul\":20139:20140   */\n      0x00\n        /* \"#utility.yul\":20165:20166   */\n      dup3\n        /* \"#utility.yul\":20155:20190   */\n      tag_681\n      jumpi\n        /* \"#utility.yul\":20170:20188   */\n      tag_681\n      tag_661\n      jump\t// in\n    tag_681:\n      pop\n        /* \"#utility.yul\":20204:20213   */\n      mod\n      swap1\n        /* \"#utility.yul\":20107:20219   */\n      jump\t// out\n        /* \"#utility.yul\":20224:20351   */\n    tag_657:\n        /* \"#utility.yul\":20285:20295   */\n      0x4e487b71\n        /* \"#utility.yul\":20280:20283   */\n      0xe0\n        /* \"#utility.yul\":20276:20296   */\n      shl\n        /* \"#utility.yul\":20273:20274   */\n      0x00\n        /* \"#utility.yul\":20266:20297   */\n      mstore\n        /* \"#utility.yul\":20316:20320   */\n      0x11\n        /* \"#utility.yul\":20313:20314   */\n      0x04\n        /* \"#utility.yul\":20306:20321   */\n      mstore\n        /* \"#utility.yul\":20340:20344   */\n      0x24\n        /* \"#utility.yul\":20337:20338   */\n      0x00\n        /* \"#utility.yul\":20330:20345   */\n      revert\n        /* \"#utility.yul\":20356:20483   */\n    tag_661:\n        /* \"#utility.yul\":20417:20427   */\n      0x4e487b71\n        /* \"#utility.yul\":20412:20415   */\n      0xe0\n        /* \"#utility.yul\":20408:20428   */\n      shl\n        /* \"#utility.yul\":20405:20406   */\n      0x00\n        /* \"#utility.yul\":20398:20429   */\n      mstore\n        /* \"#utility.yul\":20448:20452   */\n      0x12\n        /* \"#utility.yul\":20445:20446   */\n      0x04\n        /* \"#utility.yul\":20438:20453   */\n      mstore\n        /* \"#utility.yul\":20472:20476   */\n      0x24\n        /* \"#utility.yul\":20469:20470   */\n      0x00\n        /* \"#utility.yul\":20462:20477   */\n      revert\n        /* \"#utility.yul\":20488:20615   */\n    tag_482:\n        /* \"#utility.yul\":20549:20559   */\n      0x4e487b71\n        /* \"#utility.yul\":20544:20547   */\n      0xe0\n        /* \"#utility.yul\":20540:20560   */\n      shl\n        /* \"#utility.yul\":20537:20538   */\n      0x00\n        /* \"#utility.yul\":20530:20561   */\n      mstore\n        /* \"#utility.yul\":20580:20584   */\n      0x21\n        /* \"#utility.yul\":20577:20578   */\n      0x04\n        /* \"#utility.yul\":20570:20585   */\n      mstore\n        /* \"#utility.yul\":20604:20608   */\n      0x24\n        /* \"#utility.yul\":20601:20602   */\n      0x00\n        /* \"#utility.yul\":20594:20609   */\n      revert\n        /* \"#utility.yul\":20620:20747   */\n    tag_451:\n        /* \"#utility.yul\":20681:20691   */\n      0x4e487b71\n        /* \"#utility.yul\":20676:20679   */\n      0xe0\n        /* \"#utility.yul\":20672:20692   */\n      shl\n        /* \"#utility.yul\":20669:20670   */\n      0x00\n        /* \"#utility.yul\":20662:20693   */\n      mstore\n        /* \"#utility.yul\":20712:20716   */\n      0x32\n        /* \"#utility.yul\":20709:20710   */\n      0x04\n        /* \"#utility.yul\":20702:20717   */\n      mstore\n        /* \"#utility.yul\":20736:20740   */\n      0x24\n        /* \"#utility.yul\":20733:20734   */\n      0x00\n        /* \"#utility.yul\":20726:20741   */\n      revert\n        /* \"#utility.yul\":20752:20879   */\n    tag_442:\n        /* \"#utility.yul\":20813:20823   */\n      0x4e487b71\n        /* \"#utility.yul\":20808:20811   */\n      0xe0\n        /* \"#utility.yul\":20804:20824   */\n      shl\n        /* \"#utility.yul\":20801:20802   */\n      0x00\n        /* \"#utility.yul\":20794:20825   */\n      mstore\n        /* \"#utility.yul\":20844:20848   */\n      0x41\n        /* \"#utility.yul\":20841:20842   */\n      0x04\n        /* \"#utility.yul\":20834:20849   */\n      mstore\n        /* \"#utility.yul\":20868:20872   */\n      0x24\n        /* \"#utility.yul\":20865:20866   */\n      0x00\n        /* \"#utility.yul\":20858:20873   */\n      revert\n        /* \"#utility.yul\":20884:21015   */\n    tag_600:\n      not(sub(shl(0xe0, 0x01), 0x01))\n        /* \"#utility.yul\":20958:20990   */\n      dup2\n      and\n        /* \"#utility.yul\":20948:20991   */\n      dup2\n      eq\n        /* \"#utility.yul\":20938:21009   */\n      tag_381\n      jumpi\n        /* \"#utility.yul\":21005:21006   */\n      0x00\n        /* \"#utility.yul\":21002:21003   */\n      dup1\n        /* \"#utility.yul\":20995:21007   */\n      revert\n\n    auxdata: 0xa2646970667358221220f44e186a7557d73b8807e6d6992358ae35a8393ebf14c0e4ed0a8b6bebfc597a64736f6c63430008070033\n}\n",
				"bytecode": {
					"linkReferences": {},
					"object": "6101406040526000600955600b80546001600160801b031916620bb800179055600d805460ff60a01b191690553480156200003957600080fd5b5060405162002a2c38038062002a2c8339810160408190526200005c9162000428565b6040518060400160405280600b81526020016a2820a72a2422a92fa1a7a760a91b815250604051806040016040528060018152602001603160f81b81525087878160009080519060200190620000b4929190620002ae565b508051620000ca906001906020840190620002ae565b5050825160208085019190912083518483012060e08290526101008190524660a0818152604080517f8b73c3c69bb8fe3d512ecc4cf759cc79239f7b179b0ffacaa9a75d522b39400f81880181905281830187905260608201869052608082019490945230818401528151808203909301835260c0019052805194019390932091935091906080523060601b60c05261012052506200017592506200016f9150503390565b62000245565b83516200018a906008906020870190620002ae565b50612710826001600160601b03161115620001eb5760405162461bcd60e51b815260206004820152601360248201527f63616e6e6f742065786365656420313030303000000000000000000000000000604482015260640160405180910390fd5b6c0100000000000000000000000033026001600160601b03831617600a5562000216600184620004f6565b600c55600d80546001600160a01b0319166001600160a01b0392909216919091179055506200056f9350505050565b60006200025a6007546001600160a01b031690565b600780546001600160a01b0319166001600160a01b0385811691821790925560405192935091908316907f0d18b5fd22306e373229b9439188228edca81207d1667f604daf6cef8aa3ee6790600090a35050565b828054620002bc906200051c565b90600052602060002090601f016020900481019282620002e057600085556200032b565b82601f10620002fb57805160ff19168380011785556200032b565b828001600101855582156200032b579182015b828111156200032b5782518255916020019190600101906200030e565b50620003399291506200033d565b5090565b5b808211156200033957600081556001016200033e565b80516001600160a01b03811681146200036c57600080fd5b919050565b600082601f8301126200038357600080fd5b81516001600160401b0380821115620003a057620003a062000559565b604051601f8301601f19908116603f01168101908282118183101715620003cb57620003cb62000559565b81604052838152602092508683858801011115620003e857600080fd5b600091505b838210156200040c5785820183015181830184015290820190620003ed565b838211156200041e5760008385830101525b9695505050505050565b60008060008060008060c087890312156200044257600080fd5b86516001600160401b03808211156200045a57600080fd5b620004688a838b0162000371565b975060208901519150808211156200047f57600080fd5b6200048d8a838b0162000371565b96506040890151915080821115620004a457600080fd5b50620004b389828a0162000371565b606089015160808a0151919650945090506001600160601b0381168114620004da57600080fd5b9150620004ea60a0880162000354565b90509295509295509295565b6000828210156200051757634e487b7160e01b600052601160045260246000fd5b500390565b600181811c908216806200053157607f821691505b602082108114156200055357634e487b7160e01b600052602260045260246000fd5b50919050565b634e487b7160e01b600052604160045260246000fd5b60805160a05160c05160601c60e051610100516101205161246a620005c26000396000611c7c01526000611ccb01526000611ca601526000611bff01526000611c2901526000611c53015261246a6000f3fe6080604052600436106101f95760003560e01c80638da5cb5b1161010d578063bdb4b848116100a0578063e6c3b1f61161006f578063e6c3b1f61461063a578063e985e9c514610667578063f2fde38b146106a2578063f59e26d0146106c2578063fbbd1dc0146106e257600080fd5b8063bdb4b848146105ca578063c2e63def146105e0578063c87b56dd14610600578063d83d0f761461062057600080fd5b8063a22cb465116100dc578063a22cb46514610543578063a2e6961314610563578063ad2f852a14610583578063b88d4fde146105aa57600080fd5b80638da5cb5b146104e857806395d89b4114610506578063a06cb7191461051b578063a0ef91df1461052e57600080fd5b80632a55205a116101905780636c0360eb1161015f5780636c0360eb1461041757806370a082311461042c57806373c7400e1461047057806379d72794146104a85780638545f4ea146104c857600080fd5b80632a55205a1461034557806332cb6b0c1461038457806342842e0e146103c15780636352211e146103e157600080fd5b8063095ea7b3116101cc578063095ea7b3146102c55780630e2d56cf146102e5578063151370451461030557806323b872dd1461032557600080fd5b806301ffc9a7146101fe57806302fa7c471461023357806306fdde0314610255578063081812fc14610277575b600080fd5b34801561020a57600080fd5b5061021e610219366004612125565b6106f5565b60405190151581526020015b60405180910390f35b34801561023f57600080fd5b5061025361024e3660046120d2565b610762565b005b34801561026157600080fd5b5061026a610810565b60405161022a9190612242565b34801561028357600080fd5b506102ad61029236600461215f565b6004602052600090815260409020546001600160a01b031681565b6040516001600160a01b03909116815260200161022a565b3480156102d157600080fd5b506102536102e0366004612014565b61089e565b3480156102f157600080fd5b5061025361030036600461210a565b610980565b34801561031157600080fd5b50610253610320366004611ef8565b6109bd565b34801561033157600080fd5b50610253610340366004611f46565b610a09565b34801561035157600080fd5b50610365610360366004612178565b610bc7565b604080516001600160a01b03909316835260208301919091520161022a565b34801561039057600080fd5b50600b546103a99061010090046001600160781b031681565b6040516001600160781b03909116815260200161022a565b3480156103cd57600080fd5b506102536103dc366004611f46565b610bf4565b3480156103ed57600080fd5b506102ad6103fc36600461215f565b6003602052600090815260409020546001600160a01b031681565b34801561042357600080fd5b5061026a610cfb565b34801561043857600080fd5b50610462610447366004611ef8565b6001600160a01b031660009081526002602052604090205490565b60405190815260200161022a565b34801561047c57600080fd5b50600a54610490906001600160601b031681565b6040516001600160601b03909116815260200161022a565b3480156104b457600080fd5b506104626104c3366004612095565b610d08565b3480156104d457600080fd5b506102536104e336600461215f565b610d91565b3480156104f457600080fd5b506007546001600160a01b03166102ad565b34801561051257600080fd5b5061026a610dcc565b610462610529366004611ef8565b610dd9565b34801561053a57600080fd5b50610253610f6c565b34801561054f57600080fd5b5061025361055e366004611fea565b611048565b34801561056f57600080fd5b5061046261057e36600461215f565b6110b4565b34801561058f57600080fd5b50600a546102ad90600160601b90046001600160a01b031681565b3480156105b657600080fd5b506102536105c5366004611f82565b6110d9565b3480156105d657600080fd5b50610462600c5481565b3480156105ec57600080fd5b506102ad6105fb36600461203e565b6111cd565b34801561060c57600080fd5b5061026a61061b36600461215f565b6111e2565b34801561062c57600080fd5b50600b5461021e9060ff1681565b34801561064657600080fd5b5061046261065536600461215f565b60056020526000908152604090205481565b34801561067357600080fd5b5061021e610682366004611f13565b600660209081526000928352604080842090915290825290205460ff1681565b3480156106ae57600080fd5b506102536106bd366004611ef8565b6112b5565b3480156106ce57600080fd5b506102536106dd36600461210a565b611341565b6104626106f036600461203e565b611389565b60006301ffc9a760e01b6001600160e01b03198316148061072657506380ac58cd60e01b6001600160e01b03198316145b806107415750635b5e139f60e01b6001600160e01b03198316145b8061075c575063152a902d60e11b6001600160e01b03198316145b92915050565b6007546001600160a01b031633146107955760405162461bcd60e51b815260040161078c90612255565b60405180910390fd5b612710816001600160601b031611156107e65760405162461bcd60e51b8152602060048201526013602482015272063616e6e6f742065786365656420313030303606c1b604482015260640161078c565b6001600160601b03166001600160a01b03909116600160601b026001600160601b03191617600a55565b6000805461081d90612346565b80601f016020809104026020016040519081016040528092919081815260200182805461084990612346565b80156108965780601f1061086b57610100808354040283529160200191610896565b820191906000526020600020905b81548152906001019060200180831161087957829003601f168201915b505050505081565b6000818152600360205260409020546001600160a01b0316338114806108e757506001600160a01b038116600090815260066020908152604080832033845290915290205460ff165b6109245760405162461bcd60e51b815260206004820152600e60248201526d139bdd08185d5d1a1bdc9a5e995960921b604482015260640161078c565b60008281526004602052604080822080546001600160a01b0319166001600160a01b0387811691821790925591518593918516917f8c5be1e5ebec7d5bd14f71427d1e84f3dd0314c0f7b2291e5b200ac8c7c3b92591a4505050565b6007546001600160a01b031633146109aa5760405162461bcd60e51b815260040161078c90612255565b600b805460ff1916911515919091179055565b6007546001600160a01b031633146109e75760405162461bcd60e51b815260040161078c90612255565b600d80546001600160a01b0319166001600160a01b0392909216919091179055565b6000818152600360205260409020546001600160a01b03848116911614610a5f5760405162461bcd60e51b815260206004820152600a60248201526957524f4e472046524f4d60b01b604482015260640161078c565b6001600160a01b038216610aa05760405162461bcd60e51b815260206004820152600860248201526757524f4e4720544f60c01b604482015260640161078c565b336001600160a01b0384161480610ada57506001600160a01b038316600090815260066020908152604080832033845290915290205460ff165b80610afb57506000818152600460205260409020546001600160a01b031633145b610b385760405162461bcd60e51b815260206004820152600e60248201526d1393d5081055551213d49256915160921b604482015260640161078c565b6001600160a01b0380841660008181526002602090815260408083208054600019019055938616808352848320805460010190558583526003825284832080546001600160a01b03199081168317909155600490925284832080549092169091559251849392917fddf252ad1be2c89b69c2b068fc378daa952ba7f163c4a11628f55a4df523b3ef91a4505050565b600a546000908190600160601b90046001600160a01b0316610be8846110b4565b915091505b9250929050565b610bff838383610a09565b6001600160a01b0382163b1580610cb75750604051630a85bd0160e11b8082523360048301526001600160a01b03858116602484015260448301849052608060648401526000608484015290919084169063150b7a029060a401602060405180830381600087803b158015610c7357600080fd5b505af1158015610c87573d6000803e3d6000fd5b505050506040513d601f19601f82011682018060405250810190610cab9190612142565b6001600160e01b031916145b610cf65760405162461bcd60e51b815260206004820152601060248201526f155394d0519157d49150d2541251539560821b604482015260640161078c565b505050565b6008805461081d90612346565b6000610d1c6007546001600160a01b031690565b6001600160a01b0316336001600160a01b031614610d4c5760405162461bcd60e51b815260040161078c90612255565b610bb86009541115610d705760405162461bcd60e51b815260040161078c9061228c565b6009805460010190819055610d87908490846115c5565b5060095492915050565b6007546001600160a01b03163314610dbb5760405162461bcd60e51b815260040161078c90612255565b610dc6600182612303565b600c5550565b6001805461081d90612346565b600d54600090600160a01b900460ff1615610e2a5760405162461bcd60e51b8152602060048201526011602482015270135a5b9d1a5b99c81a5cc81c185d5cd959607a1b604482015260640161078c565b600c543411610e6d5760405162461bcd60e51b815260206004820152600f60248201526e09cdee840cadccedeeaced040cae8d608b1b604482015260640161078c565b600b5460ff16610ebf5760405162461bcd60e51b815260206004820152601860248201527f4f70656e206d696e74696e67206e6f7420616c6c6f7765640000000000000000604482015260640161078c565b600b546009546101009091046001600160781b03161015610ef25760405162461bcd60e51b815260040161078c9061228c565b60098054600101908190556040516001600160601b03193360601b16602082015242603482015260548101919091524460748201526000906003906094016040516020818303038152906040528051906020012060001c610f53919061239c565b9050610f6283600954836115c5565b5050600954919050565b6007546001600160a01b03163314610f965760405162461bcd60e51b815260040161078c90612255565b6000610faa6007546001600160a01b031690565b90506000816001600160a01b03164760405160006040518083038185875af1925050503d8060008114610ff9576040519150601f19603f3d011682016040523d82523d6000602084013e610ffe565b606091505b50509050806110445760405162461bcd60e51b8152602060048201526012602482015271151c985b9cd858dd1a5bdb8819985a5b195960721b604482015260640161078c565b5050565b3360008181526006602090815260408083206001600160a01b03871680855290835292819020805460ff191686151590811790915590519081529192917f17307eab39ab6107e8899845ad3d59bd9653f200f220920489ca2b5937696c31910160405180910390a35050565b600a546000906001600160601b03166110cf612710846122d0565b61075c91906122e4565b6110e4848484610a09565b6001600160a01b0383163b15806111885750604051630a85bd0160e11b808252906001600160a01b0385169063150b7a029061112a903390899088908890600401612205565b602060405180830381600087803b15801561114457600080fd5b505af1158015611158573d6000803e3d6000fd5b505050506040513d601f19601f8201168201806040525081019061117c9190612142565b6001600160e01b031916145b6111c75760405162461bcd60e51b815260206004820152601060248201526f155394d0519157d49150d2541251539560821b604482015260640161078c565b50505050565b60006111da8484846116d7565b949350505050565b6000818152600360205260409020546060906001600160a01b03166112495760405162461bcd60e51b815260206004820152601c60248201527f4e6f20746f6b656e207769746820746869732049642065786973747300000000604482015260640161078c565b60006112536116f9565b9050600081511161127357604051806020016040528060008152506112ae565b600083815260056020526040902054819061128d9061178b565b60405160200161129e9291906121c6565b6040516020818303038152906040525b9392505050565b6007546001600160a01b031633146112df5760405162461bcd60e51b815260040161078c90612255565b6001600160a01b0381166113355760405162461bcd60e51b815260206004820152601c60248201527f4f776e65722063616e6e6f74206265207a65726f206164647265737300000000604482015260640161078c565b61133e81611889565b50565b6007546001600160a01b0316331461136b5760405162461bcd60e51b815260040161078c90612255565b600d8054911515600160a01b0260ff60a01b19909216919091179055565b600d54600090600160a01b900460ff16156113da5760405162461bcd60e51b8152602060048201526011602482015270135a5b9d1a5b99c81a5cc81c185d5cd959607a1b604482015260640161078c565b600b546009546101009091046001600160781b0316101561140d5760405162461bcd60e51b815260040161078c9061228c565b600d546001600160a01b03166114243385856111cd565b6001600160a01b03161461146e5760405162461bcd60e51b8152602060048201526011602482015270496e76616c6964207369676e617475726560781b604482015260640161078c565b82156114d15733600090815260026020526040902054156114d15760405162461bcd60e51b815260206004820152601760248201527f596f7520616c7265616479206861766520746f6b656e73000000000000000000604482015260640161078c565b6000612710600c5460016114e591906122b8565b6114f186612710612303565b6114fb91906122e4565b61150591906122d0565b90508034116115485760405162461bcd60e51b815260206004820152600f60248201526e09cdee840cadccedeeaced040cae8d608b1b604482015260640161078c565b60098054600101908190556040516001600160601b03193360601b16602082015242603482015260548101919091524460748201526000906003906094016040516020818303038152906040528051906020012060001c6115a9919061239c565b90506115b886600954836115c5565b5050600954949350505050565b6001600160a01b0383166116085760405162461bcd60e51b815260206004820152600a602482015269494e56414c49445f544f60b01b604482015260640161078c565b6000828152600360205260409020546001600160a01b03161561165e5760405162461bcd60e51b815260206004820152600e60248201526d1053149150511657d3525395115160921b604482015260640161078c565b6001600160a01b0383166000818152600260209081526040808320805460010190558583526003825280832080546001600160a01b03191685179055600590915280822060ff8516905551849291907fddf252ad1be2c89b69c2b068fc378daa952ba7f163c4a11628f55a4df523b3ef908290a4505050565b6000806116e485856118f1565b90506116f08184611958565b95945050505050565b60606008805461170890612346565b80601f016020809104026020016040519081016040528092919081815260200182805461173490612346565b80156117815780601f1061175657610100808354040283529160200191611781565b820191906000526020600020905b81548152906001019060200180831161176457829003601f168201915b5050505050905090565b6060816117af5750506040805180820190915260018152600360fc1b602082015290565b8160005b81156117d957806117c381612381565b91506117d29050600a836122d0565b91506117b3565b60008167ffffffffffffffff8111156117f4576117f4612408565b6040519080825280601f01601f19166020018201604052801561181e576020820181803683370190505b5090505b84156111da57611833600183612303565b9150611840600a8661239c565b61184b9060306122b8565b60f81b818381518110611860576118606123f2565b60200101906001600160f81b031916908160001a905350611882600a866122d0565b9450611822565b600061189d6007546001600160a01b031690565b600780546001600160a01b0319166001600160a01b0385811691821790925560405192935091908316907f0d18b5fd22306e373229b9439188228edca81207d1667f604daf6cef8aa3ee6790600090a35050565b604080517f8c9952748b13138200d658bbcdd87eee4fa0bcca0e5ca689d665e1a1ecce8f7b60208201526001600160a01b03841691810191909152606081018290526000906112ae906080016040516020818303038152906040528051906020012061197c565b600080600061196785856119ca565b9150915061197481611a37565b509392505050565b600061075c611989611bf2565b8360405161190160f01b6020820152602281018390526042810182905260009060620160405160208183030381529060405280519060200120905092915050565b600080825160411415611a015760208301516040840151606085015160001a6119f587828585611d19565b94509450505050610bed565b825160401415611a2b5760208301516040840151611a20868383611e06565b935093505050610bed565b50600090506002610bed565b6000816004811115611a4b57611a4b6123dc565b1415611a545750565b6001816004811115611a6857611a686123dc565b1415611ab65760405162461bcd60e51b815260206004820152601860248201527f45434453413a20696e76616c6964207369676e61747572650000000000000000604482015260640161078c565b6002816004811115611aca57611aca6123dc565b1415611b185760405162461bcd60e51b815260206004820152601f60248201527f45434453413a20696e76616c6964207369676e6174757265206c656e67746800604482015260640161078c565b6003816004811115611b2c57611b2c6123dc565b1415611b855760405162461bcd60e51b815260206004820152602260248201527f45434453413a20696e76616c6964207369676e6174757265202773272076616c604482015261756560f01b606482015260840161078c565b6004816004811115611b9957611b996123dc565b141561133e5760405162461bcd60e51b815260206004820152602260248201527f45434453413a20696e76616c6964207369676e6174757265202776272076616c604482015261756560f01b606482015260840161078c565b6000306001600160a01b037f000000000000000000000000000000000000000000000000000000000000000016148015611c4b57507f000000000000000000000000000000000000000000000000000000000000000046145b15611c7557507f000000000000000000000000000000000000000000000000000000000000000090565b50604080517f00000000000000000000000000000000000000000000000000000000000000006020808301919091527f0000000000000000000000000000000000000000000000000000000000000000828401527f000000000000000000000000000000000000000000000000000000000000000060608301524660808301523060a0808401919091528351808403909101815260c0909201909252805191012090565b6000807f7fffffffffffffffffffffffffffffff5d576e7357a4501ddfe92f46681b20a0831115611d505750600090506003611dfd565b8460ff16601b14158015611d6857508460ff16601c14155b15611d795750600090506004611dfd565b6040805160008082526020820180845289905260ff881692820192909252606081018690526080810185905260019060a0016020604051602081039080840390855afa158015611dcd573d6000803e3d6000fd5b5050604051601f1901519150506001600160a01b038116611df657600060019250925050611dfd565b9150600090505b94509492505050565b6000806001600160ff1b03831681611e2360ff86901c601b6122b8565b9050611e3187828885611d19565b935093505050935093915050565b80356001600160a01b0381168114611e5657600080fd5b919050565b80358015158114611e5657600080fd5b600082601f830112611e7c57600080fd5b813567ffffffffffffffff80821115611e9757611e97612408565b604051601f8301601f19908116603f01168101908282118183101715611ebf57611ebf612408565b81604052838152866020858801011115611ed857600080fd5b836020870160208301376000602085830101528094505050505092915050565b600060208284031215611f0a57600080fd5b6112ae82611e3f565b60008060408385031215611f2657600080fd5b611f2f83611e3f565b9150611f3d60208401611e3f565b90509250929050565b600080600060608486031215611f5b57600080fd5b611f6484611e3f565b9250611f7260208501611e3f565b9150604084013590509250925092565b60008060008060808587031215611f9857600080fd5b611fa185611e3f565b9350611faf60208601611e3f565b925060408501359150606085013567ffffffffffffffff811115611fd257600080fd5b611fde87828801611e6b565b91505092959194509250565b60008060408385031215611ffd57600080fd5b61200683611e3f565b9150611f3d60208401611e5b565b6000806040838503121561202757600080fd5b61203083611e3f565b946020939093013593505050565b60008060006060848603121561205357600080fd5b61205c84611e3f565b925060208401359150604084013567ffffffffffffffff81111561207f57600080fd5b61208b86828701611e6b565b9150509250925092565b600080604083850312156120a857600080fd5b6120b183611e3f565b9150602083013560ff811681146120c757600080fd5b809150509250929050565b600080604083850312156120e557600080fd5b6120ee83611e3f565b915060208301356001600160601b03811681146120c757600080fd5b60006020828403121561211c57600080fd5b6112ae82611e5b565b60006020828403121561213757600080fd5b81356112ae8161241e565b60006020828403121561215457600080fd5b81516112ae8161241e565b60006020828403121561217157600080fd5b5035919050565b6000806040838503121561218b57600080fd5b50508035926020909101359150565b600081518084526121b281602086016020860161231a565b601f01601f19169290920160200192915050565b600083516121d881846020880161231a565b8351908301906121ec81836020880161231a565b64173539b7b760d91b9101908152600501949350505050565b6001600160a01b03858116825284166020820152604081018390526080606082018190526000906122389083018461219a565b9695505050505050565b6020815260006112ae602083018461219a565b60208082526017908201527f43616c6c6572206973206e6f7420746865206f776e6572000000000000000000604082015260600190565b60208082526012908201527113585e081cdd5c1c1b1e481c995858da195960721b604082015260600190565b600082198211156122cb576122cb6123b0565b500190565b6000826122df576122df6123c6565b500490565b60008160001904831182151516156122fe576122fe6123b0565b500290565b600082821015612315576123156123b0565b500390565b60005b8381101561233557818101518382015260200161231d565b838111156111c75750506000910152565b600181811c9082168061235a57607f821691505b6020821081141561237b57634e487b7160e01b600052602260045260246000fd5b50919050565b6000600019821415612395576123956123b0565b5060010190565b6000826123ab576123ab6123c6565b500690565b634e487b7160e01b600052601160045260246000fd5b634e487b7160e01b600052601260045260246000fd5b634e487b7160e01b600052602160045260246000fd5b634e487b7160e01b600052603260045260246000fd5b634e487b7160e01b600052604160045260246000fd5b6001600160e01b03198116811461133e57600080fdfea2646970667358221220f44e186a7557d73b8807e6d6992358ae35a8393ebf14c0e4ed0a8b6bebfc597a64736f6c63430008070033",
					"opcodes": "PUSH2 0x140 PUSH1 0x40 MSTORE PUSH1 0x0 PUSH1 0x9 SSTORE PUSH1 0xB DUP1 SLOAD PUSH1 0x1 PUSH1 0x1 PUSH1 0x80 SHL SUB NOT AND PUSH3 0xBB800 OR SWAP1 SSTORE PUSH1 0xD DUP1 SLOAD PUSH1 0xFF PUSH1 0xA0 SHL NOT AND SWAP1 SSTORE CALLVALUE DUP1 ISZERO PUSH3 0x39 JUMPI PUSH1 0x0 DUP1 REVERT JUMPDEST POP PUSH1 0x40 MLOAD PUSH3 0x2A2C CODESIZE SUB DUP1 PUSH3 0x2A2C DUP4 CODECOPY DUP2 ADD PUSH1 0x40 DUP2 SWAP1 MSTORE PUSH3 0x5C SWAP2 PUSH3 0x428 JUMP JUMPDEST PUSH1 0x40 MLOAD DUP1 PUSH1 0x40 ADD PUSH1 0x40 MSTORE DUP1 PUSH1 0xB DUP2 MSTORE PUSH1 0x20 ADD PUSH11 0x2820A72A2422A92FA1A7A7 PUSH1 0xA9 SHL DUP2 MSTORE POP PUSH1 0x40 MLOAD DUP1 PUSH1 0x40 ADD PUSH1 0x40 MSTORE DUP1 PUSH1 0x1 DUP2 MSTORE PUSH1 0x20 ADD PUSH1 0x31 PUSH1 0xF8 SHL DUP2 MSTORE POP DUP8 DUP8 DUP2 PUSH1 0x0 SWAP1 DUP1 MLOAD SWAP1 PUSH1 0x20 ADD SWAP1 PUSH3 0xB4 SWAP3 SWAP2 SWAP1 PUSH3 0x2AE JUMP JUMPDEST POP DUP1 MLOAD PUSH3 0xCA SWAP1 PUSH1 0x1 SWAP1 PUSH1 0x20 DUP5 ADD SWAP1 PUSH3 0x2AE JUMP JUMPDEST POP POP DUP3 MLOAD PUSH1 0x20 DUP1 DUP6 ADD SWAP2 SWAP1 SWAP2 KECCAK256 DUP4 MLOAD DUP5 DUP4 ADD KECCAK256 PUSH1 0xE0 DUP3 SWAP1 MSTORE PUSH2 0x100 DUP2 SWAP1 MSTORE CHAINID PUSH1 0xA0 DUP2 DUP2 MSTORE PUSH1 0x40 DUP1 MLOAD PUSH32 0x8B73C3C69BB8FE3D512ECC4CF759CC79239F7B179B0FFACAA9A75D522B39400F DUP2 DUP9 ADD DUP2 SWAP1 MSTORE DUP2 DUP4 ADD DUP8 SWAP1 MSTORE PUSH1 0x60 DUP3 ADD DUP7 SWAP1 MSTORE PUSH1 0x80 DUP3 ADD SWAP5 SWAP1 SWAP5 MSTORE ADDRESS DUP2 DUP5 ADD MSTORE DUP2 MLOAD DUP1 DUP3 SUB SWAP1 SWAP4 ADD DUP4 MSTORE PUSH1 0xC0 ADD SWAP1 MSTORE DUP1 MLOAD SWAP5 ADD SWAP4 SWAP1 SWAP4 KECCAK256 SWAP2 SWAP4 POP SWAP2 SWAP1 PUSH1 0x80 MSTORE ADDRESS PUSH1 0x60 SHL PUSH1 0xC0 MSTORE PUSH2 0x120 MSTORE POP PUSH3 0x175 SWAP3 POP PUSH3 0x16F SWAP2 POP POP CALLER SWAP1 JUMP JUMPDEST PUSH3 0x245 JUMP JUMPDEST DUP4 MLOAD PUSH3 0x18A SWAP1 PUSH1 0x8 SWAP1 PUSH1 0x20 DUP8 ADD SWAP1 PUSH3 0x2AE JUMP JUMPDEST POP PUSH2 0x2710 DUP3 PUSH1 0x1 PUSH1 0x1 PUSH1 0x60 SHL SUB AND GT ISZERO PUSH3 0x1EB JUMPI PUSH1 0x40 MLOAD PUSH3 0x461BCD PUSH1 0xE5 SHL DUP2 MSTORE PUSH1 0x20 PUSH1 0x4 DUP3 ADD MSTORE PUSH1 0x13 PUSH1 0x24 DUP3 ADD MSTORE PUSH32 0x63616E6E6F742065786365656420313030303000000000000000000000000000 PUSH1 0x44 DUP3 ADD MSTORE PUSH1 0x64 ADD PUSH1 0x40 MLOAD DUP1 SWAP2 SUB SWAP1 REVERT JUMPDEST PUSH13 0x1000000000000000000000000 CALLER MUL PUSH1 0x1 PUSH1 0x1 PUSH1 0x60 SHL SUB DUP4 AND OR PUSH1 0xA SSTORE PUSH3 0x216 PUSH1 0x1 DUP5 PUSH3 0x4F6 JUMP JUMPDEST PUSH1 0xC SSTORE PUSH1 0xD DUP1 SLOAD PUSH1 0x1 PUSH1 0x1 PUSH1 0xA0 SHL SUB NOT AND PUSH1 0x1 PUSH1 0x1 PUSH1 0xA0 SHL SUB SWAP3 SWAP1 SWAP3 AND SWAP2 SWAP1 SWAP2 OR SWAP1 SSTORE POP PUSH3 0x56F SWAP4 POP POP POP POP JUMP JUMPDEST PUSH1 0x0 PUSH3 0x25A PUSH1 0x7 SLOAD PUSH1 0x1 PUSH1 0x1 PUSH1 0xA0 SHL SUB AND SWAP1 JUMP JUMPDEST PUSH1 0x7 DUP1 SLOAD PUSH1 0x1 PUSH1 0x1 PUSH1 0xA0 SHL SUB NOT AND PUSH1 0x1 PUSH1 0x1 PUSH1 0xA0 SHL SUB DUP6 DUP2 AND SWAP2 DUP3 OR SWAP1 SWAP3 SSTORE PUSH1 0x40 MLOAD SWAP3 SWAP4 POP SWAP2 SWAP1 DUP4 AND SWAP1 PUSH32 0xD18B5FD22306E373229B9439188228EDCA81207D1667F604DAF6CEF8AA3EE67 SWAP1 PUSH1 0x0 SWAP1 LOG3 POP POP JUMP JUMPDEST DUP3 DUP1 SLOAD PUSH3 0x2BC SWAP1 PUSH3 0x51C JUMP JUMPDEST SWAP1 PUSH1 0x0 MSTORE PUSH1 0x20 PUSH1 0x0 KECCAK256 SWAP1 PUSH1 0x1F ADD PUSH1 0x20 SWAP1 DIV DUP2 ADD SWAP3 DUP3 PUSH3 0x2E0 JUMPI PUSH1 0x0 DUP6 SSTORE PUSH3 0x32B JUMP JUMPDEST DUP3 PUSH1 0x1F LT PUSH3 0x2FB JUMPI DUP1 MLOAD PUSH1 0xFF NOT AND DUP4 DUP1 ADD OR DUP6 SSTORE PUSH3 0x32B JUMP JUMPDEST DUP3 DUP1 ADD PUSH1 0x1 ADD DUP6 SSTORE DUP3 ISZERO PUSH3 0x32B JUMPI SWAP2 DUP3 ADD JUMPDEST DUP3 DUP2 GT ISZERO PUSH3 0x32B JUMPI DUP3 MLOAD DUP3 SSTORE SWAP2 PUSH1 0x20 ADD SWAP2 SWAP1 PUSH1 0x1 ADD SWAP1 PUSH3 0x30E JUMP JUMPDEST POP PUSH3 0x339 SWAP3 SWAP2 POP PUSH3 0x33D JUMP JUMPDEST POP SWAP1 JUMP JUMPDEST JUMPDEST DUP1 DUP3 GT ISZERO PUSH3 0x339 JUMPI PUSH1 0x0 DUP2 SSTORE PUSH1 0x1 ADD PUSH3 0x33E JUMP JUMPDEST DUP1 MLOAD PUSH1 0x1 PUSH1 0x1 PUSH1 0xA0 SHL SUB DUP2 AND DUP2 EQ PUSH3 0x36C JUMPI PUSH1 0x0 DUP1 REVERT JUMPDEST SWAP2 SWAP1 POP JUMP JUMPDEST PUSH1 0x0 DUP3 PUSH1 0x1F DUP4 ADD SLT PUSH3 0x383 JUMPI PUSH1 0x0 DUP1 REVERT JUMPDEST DUP2 MLOAD PUSH1 0x1 PUSH1 0x1 PUSH1 0x40 SHL SUB DUP1 DUP3 GT ISZERO PUSH3 0x3A0 JUMPI PUSH3 0x3A0 PUSH3 0x559 JUMP JUMPDEST PUSH1 0x40 MLOAD PUSH1 0x1F DUP4 ADD PUSH1 0x1F NOT SWAP1 DUP2 AND PUSH1 0x3F ADD AND DUP2 ADD SWAP1 DUP3 DUP3 GT DUP2 DUP4 LT OR ISZERO PUSH3 0x3CB JUMPI PUSH3 0x3CB PUSH3 0x559 JUMP JUMPDEST DUP2 PUSH1 0x40 MSTORE DUP4 DUP2 MSTORE PUSH1 0x20 SWAP3 POP DUP7 DUP4 DUP6 DUP9 ADD ADD GT ISZERO PUSH3 0x3E8 JUMPI PUSH1 0x0 DUP1 REVERT JUMPDEST PUSH1 0x0 SWAP2 POP JUMPDEST DUP4 DUP3 LT ISZERO PUSH3 0x40C JUMPI DUP6 DUP3 ADD DUP4 ADD MLOAD DUP2 DUP4 ADD DUP5 ADD MSTORE SWAP1 DUP3 ADD SWAP1 PUSH3 0x3ED JUMP JUMPDEST DUP4 DUP3 GT ISZERO PUSH3 0x41E JUMPI PUSH1 0x0 DUP4 DUP6 DUP4 ADD ADD MSTORE JUMPDEST SWAP7 SWAP6 POP POP POP POP POP POP JUMP JUMPDEST PUSH1 0x0 DUP1 PUSH1 0x0 DUP1 PUSH1 0x0 DUP1 PUSH1 0xC0 DUP8 DUP10 SUB SLT ISZERO PUSH3 0x442 JUMPI PUSH1 0x0 DUP1 REVERT JUMPDEST DUP7 MLOAD PUSH1 0x1 PUSH1 0x1 PUSH1 0x40 SHL SUB DUP1 DUP3 GT ISZERO PUSH3 0x45A JUMPI PUSH1 0x0 DUP1 REVERT JUMPDEST PUSH3 0x468 DUP11 DUP4 DUP12 ADD PUSH3 0x371 JUMP JUMPDEST SWAP8 POP PUSH1 0x20 DUP10 ADD MLOAD SWAP2 POP DUP1 DUP3 GT ISZERO PUSH3 0x47F JUMPI PUSH1 0x0 DUP1 REVERT JUMPDEST PUSH3 0x48D DUP11 DUP4 DUP12 ADD PUSH3 0x371 JUMP JUMPDEST SWAP7 POP PUSH1 0x40 DUP10 ADD MLOAD SWAP2 POP DUP1 DUP3 GT ISZERO PUSH3 0x4A4 JUMPI PUSH1 0x0 DUP1 REVERT JUMPDEST POP PUSH3 0x4B3 DUP10 DUP3 DUP11 ADD PUSH3 0x371 JUMP JUMPDEST PUSH1 0x60 DUP10 ADD MLOAD PUSH1 0x80 DUP11 ADD MLOAD SWAP2 SWAP7 POP SWAP5 POP SWAP1 POP PUSH1 0x1 PUSH1 0x1 PUSH1 0x60 SHL SUB DUP2 AND DUP2 EQ PUSH3 0x4DA JUMPI PUSH1 0x0 DUP1 REVERT JUMPDEST SWAP2 POP PUSH3 0x4EA PUSH1 0xA0 DUP9 ADD PUSH3 0x354 JUMP JUMPDEST SWAP1 POP SWAP3 SWAP6 POP SWAP3 SWAP6 POP SWAP3 SWAP6 JUMP JUMPDEST PUSH1 0x0 DUP3 DUP3 LT ISZERO PUSH3 0x517 JUMPI PUSH4 0x4E487B71 PUSH1 0xE0 SHL PUSH1 0x0 MSTORE PUSH1 0x11 PUSH1 0x4 MSTORE PUSH1 0x24 PUSH1 0x0 REVERT JUMPDEST POP SUB SWAP1 JUMP JUMPDEST PUSH1 0x1 DUP2 DUP2 SHR SWAP1 DUP3 AND DUP1 PUSH3 0x531 JUMPI PUSH1 0x7F DUP3 AND SWAP2 POP JUMPDEST PUSH1 0x20 DUP3 LT DUP2 EQ ISZERO PUSH3 0x553 JUMPI PUSH4 0x4E487B71 PUSH1 0xE0 SHL PUSH1 0x0 MSTORE PUSH1 0x22 PUSH1 0x4 MSTORE PUSH1 0x24 PUSH1 0x0 REVERT JUMPDEST POP SWAP2 SWAP1 POP JUMP JUMPDEST PUSH4 0x4E487B71 PUSH1 0xE0 SHL PUSH1 0x0 MSTORE PUSH1 0x41 PUSH1 0x4 MSTORE PUSH1 0x24 PUSH1 0x0 REVERT JUMPDEST PUSH1 0x80 MLOAD PUSH1 0xA0 MLOAD PUSH1 0xC0 MLOAD PUSH1 0x60 SHR PUSH1 0xE0 MLOAD PUSH2 0x100 MLOAD PUSH2 0x120 MLOAD PUSH2 0x246A PUSH3 0x5C2 PUSH1 0x0 CODECOPY PUSH1 0x0 PUSH2 0x1C7C ADD MSTORE PUSH1 0x0 PUSH2 0x1CCB ADD MSTORE PUSH1 0x0 PUSH2 0x1CA6 ADD MSTORE PUSH1 0x0 PUSH2 0x1BFF ADD MSTORE PUSH1 0x0 PUSH2 0x1C29 ADD MSTORE PUSH1 0x0 PUSH2 0x1C53 ADD MSTORE PUSH2 0x246A PUSH1 0x0 RETURN INVALID PUSH1 0x80 PUSH1 0x40 MSTORE PUSH1 0x4 CALLDATASIZE LT PUSH2 0x1F9 JUMPI PUSH1 0x0 CALLDATALOAD PUSH1 0xE0 SHR DUP1 PUSH4 0x8DA5CB5B GT PUSH2 0x10D JUMPI DUP1 PUSH4 0xBDB4B848 GT PUSH2 0xA0 JUMPI DUP1 PUSH4 0xE6C3B1F6 GT PUSH2 0x6F JUMPI DUP1 PUSH4 0xE6C3B1F6 EQ PUSH2 0x63A JUMPI DUP1 PUSH4 0xE985E9C5 EQ PUSH2 0x667 JUMPI DUP1 PUSH4 0xF2FDE38B EQ PUSH2 0x6A2 JUMPI DUP1 PUSH4 0xF59E26D0 EQ PUSH2 0x6C2 JUMPI DUP1 PUSH4 0xFBBD1DC0 EQ PUSH2 0x6E2 JUMPI PUSH1 0x0 DUP1 REVERT JUMPDEST DUP1 PUSH4 0xBDB4B848 EQ PUSH2 0x5CA JUMPI DUP1 PUSH4 0xC2E63DEF EQ PUSH2 0x5E0 JUMPI DUP1 PUSH4 0xC87B56DD EQ PUSH2 0x600 JUMPI DUP1 PUSH4 0xD83D0F76 EQ PUSH2 0x620 JUMPI PUSH1 0x0 DUP1 REVERT JUMPDEST DUP1 PUSH4 0xA22CB465 GT PUSH2 0xDC JUMPI DUP1 PUSH4 0xA22CB465 EQ PUSH2 0x543 JUMPI DUP1 PUSH4 0xA2E69613 EQ PUSH2 0x563 JUMPI DUP1 PUSH4 0xAD2F852A EQ PUSH2 0x583 JUMPI DUP1 PUSH4 0xB88D4FDE EQ PUSH2 0x5AA JUMPI PUSH1 0x0 DUP1 REVERT JUMPDEST DUP1 PUSH4 0x8DA5CB5B EQ PUSH2 0x4E8 JUMPI DUP1 PUSH4 0x95D89B41 EQ PUSH2 0x506 JUMPI DUP1 PUSH4 0xA06CB719 EQ PUSH2 0x51B JUMPI DUP1 PUSH4 0xA0EF91DF EQ PUSH2 0x52E JUMPI PUSH1 0x0 DUP1 REVERT JUMPDEST DUP1 PUSH4 0x2A55205A GT PUSH2 0x190 JUMPI DUP1 PUSH4 0x6C0360EB GT PUSH2 0x15F JUMPI DUP1 PUSH4 0x6C0360EB EQ PUSH2 0x417 JUMPI DUP1 PUSH4 0x70A08231 EQ PUSH2 0x42C JUMPI DUP1 PUSH4 0x73C7400E EQ PUSH2 0x470 JUMPI DUP1 PUSH4 0x79D72794 EQ PUSH2 0x4A8 JUMPI DUP1 PUSH4 0x8545F4EA EQ PUSH2 0x4C8 JUMPI PUSH1 0x0 DUP1 REVERT JUMPDEST DUP1 PUSH4 0x2A55205A EQ PUSH2 0x345 JUMPI DUP1 PUSH4 0x32CB6B0C EQ PUSH2 0x384 JUMPI DUP1 PUSH4 0x42842E0E EQ PUSH2 0x3C1 JUMPI DUP1 PUSH4 0x6352211E EQ PUSH2 0x3E1 JUMPI PUSH1 0x0 DUP1 REVERT JUMPDEST DUP1 PUSH4 0x95EA7B3 GT PUSH2 0x1CC JUMPI DUP1 PUSH4 0x95EA7B3 EQ PUSH2 0x2C5 JUMPI DUP1 PUSH4 0xE2D56CF EQ PUSH2 0x2E5 JUMPI DUP1 PUSH4 0x15137045 EQ PUSH2 0x305 JUMPI DUP1 PUSH4 0x23B872DD EQ PUSH2 0x325 JUMPI PUSH1 0x0 DUP1 REVERT JUMPDEST DUP1 PUSH4 0x1FFC9A7 EQ PUSH2 0x1FE JUMPI DUP1 PUSH4 0x2FA7C47 EQ PUSH2 0x233 JUMPI DUP1 PUSH4 0x6FDDE03 EQ PUSH2 0x255 JUMPI DUP1 PUSH4 0x81812FC EQ PUSH2 0x277 JUMPI JUMPDEST PUSH1 0x0 DUP1 REVERT JUMPDEST CALLVALUE DUP1 ISZERO PUSH2 0x20A JUMPI PUSH1 0x0 DUP1 REVERT JUMPDEST POP PUSH2 0x21E PUSH2 0x219 CALLDATASIZE PUSH1 0x4 PUSH2 0x2125 JUMP JUMPDEST PUSH2 0x6F5 JUMP JUMPDEST PUSH1 0x40 MLOAD SWAP1 ISZERO ISZERO DUP2 MSTORE PUSH1 0x20 ADD JUMPDEST PUSH1 0x40 MLOAD DUP1 SWAP2 SUB SWAP1 RETURN JUMPDEST CALLVALUE DUP1 ISZERO PUSH2 0x23F JUMPI PUSH1 0x0 DUP1 REVERT JUMPDEST POP PUSH2 0x253 PUSH2 0x24E CALLDATASIZE PUSH1 0x4 PUSH2 0x20D2 JUMP JUMPDEST PUSH2 0x762 JUMP JUMPDEST STOP JUMPDEST CALLVALUE DUP1 ISZERO PUSH2 0x261 JUMPI PUSH1 0x0 DUP1 REVERT JUMPDEST POP PUSH2 0x26A PUSH2 0x810 JUMP JUMPDEST PUSH1 0x40 MLOAD PUSH2 0x22A SWAP2 SWAP1 PUSH2 0x2242 JUMP JUMPDEST CALLVALUE DUP1 ISZERO PUSH2 0x283 JUMPI PUSH1 0x0 DUP1 REVERT JUMPDEST POP PUSH2 0x2AD PUSH2 0x292 CALLDATASIZE PUSH1 0x4 PUSH2 0x215F JUMP JUMPDEST PUSH1 0x4 PUSH1 0x20 MSTORE PUSH1 0x0 SWAP1 DUP2 MSTORE PUSH1 0x40 SWAP1 KECCAK256 SLOAD PUSH1 0x1 PUSH1 0x1 PUSH1 0xA0 SHL SUB AND DUP2 JUMP JUMPDEST PUSH1 0x40 MLOAD PUSH1 0x1 PUSH1 0x1 PUSH1 0xA0 SHL SUB SWAP1 SWAP2 AND DUP2 MSTORE PUSH1 0x20 ADD PUSH2 0x22A JUMP JUMPDEST CALLVALUE DUP1 ISZERO PUSH2 0x2D1 JUMPI PUSH1 0x0 DUP1 REVERT JUMPDEST POP PUSH2 0x253 PUSH2 0x2E0 CALLDATASIZE PUSH1 0x4 PUSH2 0x2014 JUMP JUMPDEST PUSH2 0x89E JUMP JUMPDEST CALLVALUE DUP1 ISZERO PUSH2 0x2F1 JUMPI PUSH1 0x0 DUP1 REVERT JUMPDEST POP PUSH2 0x253 PUSH2 0x300 CALLDATASIZE PUSH1 0x4 PUSH2 0x210A JUMP JUMPDEST PUSH2 0x980 JUMP JUMPDEST CALLVALUE DUP1 ISZERO PUSH2 0x311 JUMPI PUSH1 0x0 DUP1 REVERT JUMPDEST POP PUSH2 0x253 PUSH2 0x320 CALLDATASIZE PUSH1 0x4 PUSH2 0x1EF8 JUMP JUMPDEST PUSH2 0x9BD JUMP JUMPDEST CALLVALUE DUP1 ISZERO PUSH2 0x331 JUMPI PUSH1 0x0 DUP1 REVERT JUMPDEST POP PUSH2 0x253 PUSH2 0x340 CALLDATASIZE PUSH1 0x4 PUSH2 0x1F46 JUMP JUMPDEST PUSH2 0xA09 JUMP JUMPDEST CALLVALUE DUP1 ISZERO PUSH2 0x351 JUMPI PUSH1 0x0 DUP1 REVERT JUMPDEST POP PUSH2 0x365 PUSH2 0x360 CALLDATASIZE PUSH1 0x4 PUSH2 0x2178 JUMP JUMPDEST PUSH2 0xBC7 JUMP JUMPDEST PUSH1 0x40 DUP1 MLOAD PUSH1 0x1 PUSH1 0x1 PUSH1 0xA0 SHL SUB SWAP1 SWAP4 AND DUP4 MSTORE PUSH1 0x20 DUP4 ADD SWAP2 SWAP1 SWAP2 MSTORE ADD PUSH2 0x22A JUMP JUMPDEST CALLVALUE DUP1 ISZERO PUSH2 0x390 JUMPI PUSH1 0x0 DUP1 REVERT JUMPDEST POP PUSH1 0xB SLOAD PUSH2 0x3A9 SWAP1 PUSH2 0x100 SWAP1 DIV PUSH1 0x1 PUSH1 0x1 PUSH1 0x78 SHL SUB AND DUP2 JUMP JUMPDEST PUSH1 0x40 MLOAD PUSH1 0x1 PUSH1 0x1 PUSH1 0x78 SHL SUB SWAP1 SWAP2 AND DUP2 MSTORE PUSH1 0x20 ADD PUSH2 0x22A JUMP JUMPDEST CALLVALUE DUP1 ISZERO PUSH2 0x3CD JUMPI PUSH1 0x0 DUP1 REVERT JUMPDEST POP PUSH2 0x253 PUSH2 0x3DC CALLDATASIZE PUSH1 0x4 PUSH2 0x1F46 JUMP JUMPDEST PUSH2 0xBF4 JUMP JUMPDEST CALLVALUE DUP1 ISZERO PUSH2 0x3ED JUMPI PUSH1 0x0 DUP1 REVERT JUMPDEST POP PUSH2 0x2AD PUSH2 0x3FC CALLDATASIZE PUSH1 0x4 PUSH2 0x215F JUMP JUMPDEST PUSH1 0x3 PUSH1 0x20 MSTORE PUSH1 0x0 SWAP1 DUP2 MSTORE PUSH1 0x40 SWAP1 KECCAK256 SLOAD PUSH1 0x1 PUSH1 0x1 PUSH1 0xA0 SHL SUB AND DUP2 JUMP JUMPDEST CALLVALUE DUP1 ISZERO PUSH2 0x423 JUMPI PUSH1 0x0 DUP1 REVERT JUMPDEST POP PUSH2 0x26A PUSH2 0xCFB JUMP JUMPDEST CALLVALUE DUP1 ISZERO PUSH2 0x438 JUMPI PUSH1 0x0 DUP1 REVERT JUMPDEST POP PUSH2 0x462 PUSH2 0x447 CALLDATASIZE PUSH1 0x4 PUSH2 0x1EF8 JUMP JUMPDEST PUSH1 0x1 PUSH1 0x1 PUSH1 0xA0 SHL SUB AND PUSH1 0x0 SWAP1 DUP2 MSTORE PUSH1 0x2 PUSH1 0x20 MSTORE PUSH1 0x40 SWAP1 KECCAK256 SLOAD SWAP1 JUMP JUMPDEST PUSH1 0x40 MLOAD SWAP1 DUP2 MSTORE PUSH1 0x20 ADD PUSH2 0x22A JUMP JUMPDEST CALLVALUE DUP1 ISZERO PUSH2 0x47C JUMPI PUSH1 0x0 DUP1 REVERT JUMPDEST POP PUSH1 0xA SLOAD PUSH2 0x490 SWAP1 PUSH1 0x1 PUSH1 0x1 PUSH1 0x60 SHL SUB AND DUP2 JUMP JUMPDEST PUSH1 0x40 MLOAD PUSH1 0x1 PUSH1 0x1 PUSH1 0x60 SHL SUB SWAP1 SWAP2 AND DUP2 MSTORE PUSH1 0x20 ADD PUSH2 0x22A JUMP JUMPDEST CALLVALUE DUP1 ISZERO PUSH2 0x4B4 JUMPI PUSH1 0x0 DUP1 REVERT JUMPDEST POP PUSH2 0x462 PUSH2 0x4C3 CALLDATASIZE PUSH1 0x4 PUSH2 0x2095 JUMP JUMPDEST PUSH2 0xD08 JUMP JUMPDEST CALLVALUE DUP1 ISZERO PUSH2 0x4D4 JUMPI PUSH1 0x0 DUP1 REVERT JUMPDEST POP PUSH2 0x253 PUSH2 0x4E3 CALLDATASIZE PUSH1 0x4 PUSH2 0x215F JUMP JUMPDEST PUSH2 0xD91 JUMP JUMPDEST CALLVALUE DUP1 ISZERO PUSH2 0x4F4 JUMPI PUSH1 0x0 DUP1 REVERT JUMPDEST POP PUSH1 0x7 SLOAD PUSH1 0x1 PUSH1 0x1 PUSH1 0xA0 SHL SUB AND PUSH2 0x2AD JUMP JUMPDEST CALLVALUE DUP1 ISZERO PUSH2 0x512 JUMPI PUSH1 0x0 DUP1 REVERT JUMPDEST POP PUSH2 0x26A PUSH2 0xDCC JUMP JUMPDEST PUSH2 0x462 PUSH2 0x529 CALLDATASIZE PUSH1 0x4 PUSH2 0x1EF8 JUMP JUMPDEST PUSH2 0xDD9 JUMP JUMPDEST CALLVALUE DUP1 ISZERO PUSH2 0x53A JUMPI PUSH1 0x0 DUP1 REVERT JUMPDEST POP PUSH2 0x253 PUSH2 0xF6C JUMP JUMPDEST CALLVALUE DUP1 ISZERO PUSH2 0x54F JUMPI PUSH1 0x0 DUP1 REVERT JUMPDEST POP PUSH2 0x253 PUSH2 0x55E CALLDATASIZE PUSH1 0x4 PUSH2 0x1FEA JUMP JUMPDEST PUSH2 0x1048 JUMP JUMPDEST CALLVALUE DUP1 ISZERO PUSH2 0x56F JUMPI PUSH1 0x0 DUP1 REVERT JUMPDEST POP PUSH2 0x462 PUSH2 0x57E CALLDATASIZE PUSH1 0x4 PUSH2 0x215F JUMP JUMPDEST PUSH2 0x10B4 JUMP JUMPDEST CALLVALUE DUP1 ISZERO PUSH2 0x58F JUMPI PUSH1 0x0 DUP1 REVERT JUMPDEST POP PUSH1 0xA SLOAD PUSH2 0x2AD SWAP1 PUSH1 0x1 PUSH1 0x60 SHL SWAP1 DIV PUSH1 0x1 PUSH1 0x1 PUSH1 0xA0 SHL SUB AND DUP2 JUMP JUMPDEST CALLVALUE DUP1 ISZERO PUSH2 0x5B6 JUMPI PUSH1 0x0 DUP1 REVERT JUMPDEST POP PUSH2 0x253 PUSH2 0x5C5 CALLDATASIZE PUSH1 0x4 PUSH2 0x1F82 JUMP JUMPDEST PUSH2 0x10D9 JUMP JUMPDEST CALLVALUE DUP1 ISZERO PUSH2 0x5D6 JUMPI PUSH1 0x0 DUP1 REVERT JUMPDEST POP PUSH2 0x462 PUSH1 0xC SLOAD DUP2 JUMP JUMPDEST CALLVALUE DUP1 ISZERO PUSH2 0x5EC JUMPI PUSH1 0x0 DUP1 REVERT JUMPDEST POP PUSH2 0x2AD PUSH2 0x5FB CALLDATASIZE PUSH1 0x4 PUSH2 0x203E JUMP JUMPDEST PUSH2 0x11CD JUMP JUMPDEST CALLVALUE DUP1 ISZERO PUSH2 0x60C JUMPI PUSH1 0x0 DUP1 REVERT JUMPDEST POP PUSH2 0x26A PUSH2 0x61B CALLDATASIZE PUSH1 0x4 PUSH2 0x215F JUMP JUMPDEST PUSH2 0x11E2 JUMP JUMPDEST CALLVALUE DUP1 ISZERO PUSH2 0x62C JUMPI PUSH1 0x0 DUP1 REVERT JUMPDEST POP PUSH1 0xB SLOAD PUSH2 0x21E SWAP1 PUSH1 0xFF AND DUP2 JUMP JUMPDEST CALLVALUE DUP1 ISZERO PUSH2 0x646 JUMPI PUSH1 0x0 DUP1 REVERT JUMPDEST POP PUSH2 0x462 PUSH2 0x655 CALLDATASIZE PUSH1 0x4 PUSH2 0x215F JUMP JUMPDEST PUSH1 0x5 PUSH1 0x20 MSTORE PUSH1 0x0 SWAP1 DUP2 MSTORE PUSH1 0x40 SWAP1 KECCAK256 SLOAD DUP2 JUMP JUMPDEST CALLVALUE DUP1 ISZERO PUSH2 0x673 JUMPI PUSH1 0x0 DUP1 REVERT JUMPDEST POP PUSH2 0x21E PUSH2 0x682 CALLDATASIZE PUSH1 0x4 PUSH2 0x1F13 JUMP JUMPDEST PUSH1 0x6 PUSH1 0x20 SWAP1 DUP2 MSTORE PUSH1 0x0 SWAP3 DUP4 MSTORE PUSH1 0x40 DUP1 DUP5 KECCAK256 SWAP1 SWAP2 MSTORE SWAP1 DUP3 MSTORE SWAP1 KECCAK256 SLOAD PUSH1 0xFF AND DUP2 JUMP JUMPDEST CALLVALUE DUP1 ISZERO PUSH2 0x6AE JUMPI PUSH1 0x0 DUP1 REVERT JUMPDEST POP PUSH2 0x253 PUSH2 0x6BD CALLDATASIZE PUSH1 0x4 PUSH2 0x1EF8 JUMP JUMPDEST PUSH2 0x12B5 JUMP JUMPDEST CALLVALUE DUP1 ISZERO PUSH2 0x6CE JUMPI PUSH1 0x0 DUP1 REVERT JUMPDEST POP PUSH2 0x253 PUSH2 0x6DD CALLDATASIZE PUSH1 0x4 PUSH2 0x210A JUMP JUMPDEST PUSH2 0x1341 JUMP JUMPDEST PUSH2 0x462 PUSH2 0x6F0 CALLDATASIZE PUSH1 0x4 PUSH2 0x203E JUMP JUMPDEST PUSH2 0x1389 JUMP JUMPDEST PUSH1 0x0 PUSH4 0x1FFC9A7 PUSH1 0xE0 SHL PUSH1 0x1 PUSH1 0x1 PUSH1 0xE0 SHL SUB NOT DUP4 AND EQ DUP1 PUSH2 0x726 JUMPI POP PUSH4 0x80AC58CD PUSH1 0xE0 SHL PUSH1 0x1 PUSH1 0x1 PUSH1 0xE0 SHL SUB NOT DUP4 AND EQ JUMPDEST DUP1 PUSH2 0x741 JUMPI POP PUSH4 0x5B5E139F PUSH1 0xE0 SHL PUSH1 0x1 PUSH1 0x1 PUSH1 0xE0 SHL SUB NOT DUP4 AND EQ JUMPDEST DUP1 PUSH2 0x75C JUMPI POP PUSH4 0x152A902D PUSH1 0xE1 SHL PUSH1 0x1 PUSH1 0x1 PUSH1 0xE0 SHL SUB NOT DUP4 AND EQ JUMPDEST SWAP3 SWAP2 POP POP JUMP JUMPDEST PUSH1 0x7 SLOAD PUSH1 0x1 PUSH1 0x1 PUSH1 0xA0 SHL SUB AND CALLER EQ PUSH2 0x795 JUMPI PUSH1 0x40 MLOAD PUSH3 0x461BCD PUSH1 0xE5 SHL DUP2 MSTORE PUSH1 0x4 ADD PUSH2 0x78C SWAP1 PUSH2 0x2255 JUMP JUMPDEST PUSH1 0x40 MLOAD DUP1 SWAP2 SUB SWAP1 REVERT JUMPDEST PUSH2 0x2710 DUP2 PUSH1 0x1 PUSH1 0x1 PUSH1 0x60 SHL SUB AND GT ISZERO PUSH2 0x7E6 JUMPI PUSH1 0x40 MLOAD PUSH3 0x461BCD PUSH1 0xE5 SHL DUP2 MSTORE PUSH1 0x20 PUSH1 0x4 DUP3 ADD MSTORE PUSH1 0x13 PUSH1 0x24 DUP3 ADD MSTORE PUSH19 0x63616E6E6F742065786365656420313030303 PUSH1 0x6C SHL PUSH1 0x44 DUP3 ADD MSTORE PUSH1 0x64 ADD PUSH2 0x78C JUMP JUMPDEST PUSH1 0x1 PUSH1 0x1 PUSH1 0x60 SHL SUB AND PUSH1 0x1 PUSH1 0x1 PUSH1 0xA0 SHL SUB SWAP1 SWAP2 AND PUSH1 0x1 PUSH1 0x60 SHL MUL PUSH1 0x1 PUSH1 0x1 PUSH1 0x60 SHL SUB NOT AND OR PUSH1 0xA SSTORE JUMP JUMPDEST PUSH1 0x0 DUP1 SLOAD PUSH2 0x81D SWAP1 PUSH2 0x2346 JUMP JUMPDEST DUP1 PUSH1 0x1F ADD PUSH1 0x20 DUP1 SWAP2 DIV MUL PUSH1 0x20 ADD PUSH1 0x40 MLOAD SWAP1 DUP2 ADD PUSH1 0x40 MSTORE DUP1 SWAP3 SWAP2 SWAP1 DUP2 DUP2 MSTORE PUSH1 0x20 ADD DUP3 DUP1 SLOAD PUSH2 0x849 SWAP1 PUSH2 0x2346 JUMP JUMPDEST DUP1 ISZERO PUSH2 0x896 JUMPI DUP1 PUSH1 0x1F LT PUSH2 0x86B JUMPI PUSH2 0x100 DUP1 DUP4 SLOAD DIV MUL DUP4 MSTORE SWAP2 PUSH1 0x20 ADD SWAP2 PUSH2 0x896 JUMP JUMPDEST DUP3 ADD SWAP2 SWAP1 PUSH1 0x0 MSTORE PUSH1 0x20 PUSH1 0x0 KECCAK256 SWAP1 JUMPDEST DUP2 SLOAD DUP2 MSTORE SWAP1 PUSH1 0x1 ADD SWAP1 PUSH1 0x20 ADD DUP1 DUP4 GT PUSH2 0x879 JUMPI DUP3 SWAP1 SUB PUSH1 0x1F AND DUP3 ADD SWAP2 JUMPDEST POP POP POP POP POP DUP2 JUMP JUMPDEST PUSH1 0x0 DUP2 DUP2 MSTORE PUSH1 0x3 PUSH1 0x20 MSTORE PUSH1 0x40 SWAP1 KECCAK256 SLOAD PUSH1 0x1 PUSH1 0x1 PUSH1 0xA0 SHL SUB AND CALLER DUP2 EQ DUP1 PUSH2 0x8E7 JUMPI POP PUSH1 0x1 PUSH1 0x1 PUSH1 0xA0 SHL SUB DUP2 AND PUSH1 0x0 SWAP1 DUP2 MSTORE PUSH1 0x6 PUSH1 0x20 SWAP1 DUP2 MSTORE PUSH1 0x40 DUP1 DUP4 KECCAK256 CALLER DUP5 MSTORE SWAP1 SWAP2 MSTORE SWAP1 KECCAK256 SLOAD PUSH1 0xFF AND JUMPDEST PUSH2 0x924 JUMPI PUSH1 0x40 MLOAD PUSH3 0x461BCD PUSH1 0xE5 SHL DUP2 MSTORE PUSH1 0x20 PUSH1 0x4 DUP3 ADD MSTORE PUSH1 0xE PUSH1 0x24 DUP3 ADD MSTORE PUSH14 0x139BDD08185D5D1A1BDC9A5E9959 PUSH1 0x92 SHL PUSH1 0x44 DUP3 ADD MSTORE PUSH1 0x64 ADD PUSH2 0x78C JUMP JUMPDEST PUSH1 0x0 DUP3 DUP2 MSTORE PUSH1 0x4 PUSH1 0x20 MSTORE PUSH1 0x40 DUP1 DUP3 KECCAK256 DUP1 SLOAD PUSH1 0x1 PUSH1 0x1 PUSH1 0xA0 SHL SUB NOT AND PUSH1 0x1 PUSH1 0x1 PUSH1 0xA0 SHL SUB DUP8 DUP2 AND SWAP2 DUP3 OR SWAP1 SWAP3 SSTORE SWAP2 MLOAD DUP6 SWAP4 SWAP2 DUP6 AND SWAP2 PUSH32 0x8C5BE1E5EBEC7D5BD14F71427D1E84F3DD0314C0F7B2291E5B200AC8C7C3B925 SWAP2 LOG4 POP POP POP JUMP JUMPDEST PUSH1 0x7 SLOAD PUSH1 0x1 PUSH1 0x1 PUSH1 0xA0 SHL SUB AND CALLER EQ PUSH2 0x9AA JUMPI PUSH1 0x40 MLOAD PUSH3 0x461BCD PUSH1 0xE5 SHL DUP2 MSTORE PUSH1 0x4 ADD PUSH2 0x78C SWAP1 PUSH2 0x2255 JUMP JUMPDEST PUSH1 0xB DUP1 SLOAD PUSH1 0xFF NOT AND SWAP2 ISZERO ISZERO SWAP2 SWAP1 SWAP2 OR SWAP1 SSTORE JUMP JUMPDEST PUSH1 0x7 SLOAD PUSH1 0x1 PUSH1 0x1 PUSH1 0xA0 SHL SUB AND CALLER EQ PUSH2 0x9E7 JUMPI PUSH1 0x40 MLOAD PUSH3 0x461BCD PUSH1 0xE5 SHL DUP2 MSTORE PUSH1 0x4 ADD PUSH2 0x78C SWAP1 PUSH2 0x2255 JUMP JUMPDEST PUSH1 0xD DUP1 SLOAD PUSH1 0x1 PUSH1 0x1 PUSH1 0xA0 SHL SUB NOT AND PUSH1 0x1 PUSH1 0x1 PUSH1 0xA0 SHL SUB SWAP3 SWAP1 SWAP3 AND SWAP2 SWAP1 SWAP2 OR SWAP1 SSTORE JUMP JUMPDEST PUSH1 0x0 DUP2 DUP2 MSTORE PUSH1 0x3 PUSH1 0x20 MSTORE PUSH1 0x40 SWAP1 KECCAK256 SLOAD PUSH1 0x1 PUSH1 0x1 PUSH1 0xA0 SHL SUB DUP5 DUP2 AND SWAP2 AND EQ PUSH2 0xA5F JUMPI PUSH1 0x40 MLOAD PUSH3 0x461BCD PUSH1 0xE5 SHL DUP2 MSTORE PUSH1 0x20 PUSH1 0x4 DUP3 ADD MSTORE PUSH1 0xA PUSH1 0x24 DUP3 ADD MSTORE PUSH10 0x57524F4E472046524F4D PUSH1 0xB0 SHL PUSH1 0x44 DUP3 ADD MSTORE PUSH1 0x64 ADD PUSH2 0x78C JUMP JUMPDEST PUSH1 0x1 PUSH1 0x1 PUSH1 0xA0 SHL SUB DUP3 AND PUSH2 0xAA0 JUMPI PUSH1 0x40 MLOAD PUSH3 0x461BCD PUSH1 0xE5 SHL DUP2 MSTORE PUSH1 0x20 PUSH1 0x4 DUP3 ADD MSTORE PUSH1 0x8 PUSH1 0x24 DUP3 ADD MSTORE PUSH8 0x57524F4E4720544F PUSH1 0xC0 SHL PUSH1 0x44 DUP3 ADD MSTORE PUSH1 0x64 ADD PUSH2 0x78C JUMP JUMPDEST CALLER PUSH1 0x1 PUSH1 0x1 PUSH1 0xA0 SHL SUB DUP5 AND EQ DUP1 PUSH2 0xADA JUMPI POP PUSH1 0x1 PUSH1 0x1 PUSH1 0xA0 SHL SUB DUP4 AND PUSH1 0x0 SWAP1 DUP2 MSTORE PUSH1 0x6 PUSH1 0x20 SWAP1 DUP2 MSTORE PUSH1 0x40 DUP1 DUP4 KECCAK256 CALLER DUP5 MSTORE SWAP1 SWAP2 MSTORE SWAP1 KECCAK256 SLOAD PUSH1 0xFF AND JUMPDEST DUP1 PUSH2 0xAFB JUMPI POP PUSH1 0x0 DUP2 DUP2 MSTORE PUSH1 0x4 PUSH1 0x20 MSTORE PUSH1 0x40 SWAP1 KECCAK256 SLOAD PUSH1 0x1 PUSH1 0x1 PUSH1 0xA0 SHL SUB AND CALLER EQ JUMPDEST PUSH2 0xB38 JUMPI PUSH1 0x40 MLOAD PUSH3 0x461BCD PUSH1 0xE5 SHL DUP2 MSTORE PUSH1 0x20 PUSH1 0x4 DUP3 ADD MSTORE PUSH1 0xE PUSH1 0x24 DUP3 ADD MSTORE PUSH14 0x1393D5081055551213D492569151 PUSH1 0x92 SHL PUSH1 0x44 DUP3 ADD MSTORE PUSH1 0x64 ADD PUSH2 0x78C JUMP JUMPDEST PUSH1 0x1 PUSH1 0x1 PUSH1 0xA0 SHL SUB DUP1 DUP5 AND PUSH1 0x0 DUP2 DUP2 MSTORE PUSH1 0x2 PUSH1 0x20 SWAP1 DUP2 MSTORE PUSH1 0x40 DUP1 DUP4 KECCAK256 DUP1 SLOAD PUSH1 0x0 NOT ADD SWAP1 SSTORE SWAP4 DUP7 AND DUP1 DUP4 MSTORE DUP5 DUP4 KECCAK256 DUP1 SLOAD PUSH1 0x1 ADD SWAP1 SSTORE DUP6 DUP4 MSTORE PUSH1 0x3 DUP3 MSTORE DUP5 DUP4 KECCAK256 DUP1 SLOAD PUSH1 0x1 PUSH1 0x1 PUSH1 0xA0 SHL SUB NOT SWAP1 DUP2 AND DUP4 OR SWAP1 SWAP2 SSTORE PUSH1 0x4 SWAP1 SWAP3 MSTORE DUP5 DUP4 KECCAK256 DUP1 SLOAD SWAP1 SWAP3 AND SWAP1 SWAP2 SSTORE SWAP3 MLOAD DUP5 SWAP4 SWAP3 SWAP2 PUSH32 0xDDF252AD1BE2C89B69C2B068FC378DAA952BA7F163C4A11628F55A4DF523B3EF SWAP2 LOG4 POP POP POP JUMP JUMPDEST PUSH1 0xA SLOAD PUSH1 0x0 SWAP1 DUP2 SWAP1 PUSH1 0x1 PUSH1 0x60 SHL SWAP1 DIV PUSH1 0x1 PUSH1 0x1 PUSH1 0xA0 SHL SUB AND PUSH2 0xBE8 DUP5 PUSH2 0x10B4 JUMP JUMPDEST SWAP2 POP SWAP2 POP JUMPDEST SWAP3 POP SWAP3 SWAP1 POP JUMP JUMPDEST PUSH2 0xBFF DUP4 DUP4 DUP4 PUSH2 0xA09 JUMP JUMPDEST PUSH1 0x1 PUSH1 0x1 PUSH1 0xA0 SHL SUB DUP3 AND EXTCODESIZE ISZERO DUP1 PUSH2 0xCB7 JUMPI POP PUSH1 0x40 MLOAD PUSH4 0xA85BD01 PUSH1 0xE1 SHL DUP1 DUP3 MSTORE CALLER PUSH1 0x4 DUP4 ADD MSTORE PUSH1 0x1 PUSH1 0x1 PUSH1 0xA0 SHL SUB DUP6 DUP2 AND PUSH1 0x24 DUP5 ADD MSTORE PUSH1 0x44 DUP4 ADD DUP5 SWAP1 MSTORE PUSH1 0x80 PUSH1 0x64 DUP5 ADD MSTORE PUSH1 0x0 PUSH1 0x84 DUP5 ADD MSTORE SWAP1 SWAP2 SWAP1 DUP5 AND SWAP1 PUSH4 0x150B7A02 SWAP1 PUSH1 0xA4 ADD PUSH1 0x20 PUSH1 0x40 MLOAD DUP1 DUP4 SUB DUP2 PUSH1 0x0 DUP8 DUP1 EXTCODESIZE ISZERO DUP1 ISZERO PUSH2 0xC73 JUMPI PUSH1 0x0 DUP1 REVERT JUMPDEST POP GAS CALL ISZERO DUP1 ISZERO PUSH2 0xC87 JUMPI RETURNDATASIZE PUSH1 0x0 DUP1 RETURNDATACOPY RETURNDATASIZE PUSH1 0x0 REVERT JUMPDEST POP POP POP POP PUSH1 0x40 MLOAD RETURNDATASIZE PUSH1 0x1F NOT PUSH1 0x1F DUP3 ADD AND DUP3 ADD DUP1 PUSH1 0x40 MSTORE POP DUP2 ADD SWAP1 PUSH2 0xCAB SWAP2 SWAP1 PUSH2 0x2142 JUMP JUMPDEST PUSH1 0x1 PUSH1 0x1 PUSH1 0xE0 SHL SUB NOT AND EQ JUMPDEST PUSH2 0xCF6 JUMPI PUSH1 0x40 MLOAD PUSH3 0x461BCD PUSH1 0xE5 SHL DUP2 MSTORE PUSH1 0x20 PUSH1 0x4 DUP3 ADD MSTORE PUSH1 0x10 PUSH1 0x24 DUP3 ADD MSTORE PUSH16 0x155394D0519157D49150D25412515395 PUSH1 0x82 SHL PUSH1 0x44 DUP3 ADD MSTORE PUSH1 0x64 ADD PUSH2 0x78C JUMP JUMPDEST POP POP POP JUMP JUMPDEST PUSH1 0x8 DUP1 SLOAD PUSH2 0x81D SWAP1 PUSH2 0x2346 JUMP JUMPDEST PUSH1 0x0 PUSH2 0xD1C PUSH1 0x7 SLOAD PUSH1 0x1 PUSH1 0x1 PUSH1 0xA0 SHL SUB AND SWAP1 JUMP JUMPDEST PUSH1 0x1 PUSH1 0x1 PUSH1 0xA0 SHL SUB AND CALLER PUSH1 0x1 PUSH1 0x1 PUSH1 0xA0 SHL SUB AND EQ PUSH2 0xD4C JUMPI PUSH1 0x40 MLOAD PUSH3 0x461BCD PUSH1 0xE5 SHL DUP2 MSTORE PUSH1 0x4 ADD PUSH2 0x78C SWAP1 PUSH2 0x2255 JUMP JUMPDEST PUSH2 0xBB8 PUSH1 0x9 SLOAD GT ISZERO PUSH2 0xD70 JUMPI PUSH1 0x40 MLOAD PUSH3 0x461BCD PUSH1 0xE5 SHL DUP2 MSTORE PUSH1 0x4 ADD PUSH2 0x78C SWAP1 PUSH2 0x228C JUMP JUMPDEST PUSH1 0x9 DUP1 SLOAD PUSH1 0x1 ADD SWAP1 DUP2 SWAP1 SSTORE PUSH2 0xD87 SWAP1 DUP5 SWAP1 DUP5 PUSH2 0x15C5 JUMP JUMPDEST POP PUSH1 0x9 SLOAD SWAP3 SWAP2 POP POP JUMP JUMPDEST PUSH1 0x7 SLOAD PUSH1 0x1 PUSH1 0x1 PUSH1 0xA0 SHL SUB AND CALLER EQ PUSH2 0xDBB JUMPI PUSH1 0x40 MLOAD PUSH3 0x461BCD PUSH1 0xE5 SHL DUP2 MSTORE PUSH1 0x4 ADD PUSH2 0x78C SWAP1 PUSH2 0x2255 JUMP JUMPDEST PUSH2 0xDC6 PUSH1 0x1 DUP3 PUSH2 0x2303 JUMP JUMPDEST PUSH1 0xC SSTORE POP JUMP JUMPDEST PUSH1 0x1 DUP1 SLOAD PUSH2 0x81D SWAP1 PUSH2 0x2346 JUMP JUMPDEST PUSH1 0xD SLOAD PUSH1 0x0 SWAP1 PUSH1 0x1 PUSH1 0xA0 SHL SWAP1 DIV PUSH1 0xFF AND ISZERO PUSH2 0xE2A JUMPI PUSH1 0x40 MLOAD PUSH3 0x461BCD PUSH1 0xE5 SHL DUP2 MSTORE PUSH1 0x20 PUSH1 0x4 DUP3 ADD MSTORE PUSH1 0x11 PUSH1 0x24 DUP3 ADD MSTORE PUSH17 0x135A5B9D1A5B99C81A5CC81C185D5CD959 PUSH1 0x7A SHL PUSH1 0x44 DUP3 ADD MSTORE PUSH1 0x64 ADD PUSH2 0x78C JUMP JUMPDEST PUSH1 0xC SLOAD CALLVALUE GT PUSH2 0xE6D JUMPI PUSH1 0x40 MLOAD PUSH3 0x461BCD PUSH1 0xE5 SHL DUP2 MSTORE PUSH1 0x20 PUSH1 0x4 DUP3 ADD MSTORE PUSH1 0xF PUSH1 0x24 DUP3 ADD MSTORE PUSH15 0x9CDEE840CADCCEDEEACED040CAE8D PUSH1 0x8B SHL PUSH1 0x44 DUP3 ADD MSTORE PUSH1 0x64 ADD PUSH2 0x78C JUMP JUMPDEST PUSH1 0xB SLOAD PUSH1 0xFF AND PUSH2 0xEBF JUMPI PUSH1 0x40 MLOAD PUSH3 0x461BCD PUSH1 0xE5 SHL DUP2 MSTORE PUSH1 0x20 PUSH1 0x4 DUP3 ADD MSTORE PUSH1 0x18 PUSH1 0x24 DUP3 ADD MSTORE PUSH32 0x4F70656E206D696E74696E67206E6F7420616C6C6F7765640000000000000000 PUSH1 0x44 DUP3 ADD MSTORE PUSH1 0x64 ADD PUSH2 0x78C JUMP JUMPDEST PUSH1 0xB SLOAD PUSH1 0x9 SLOAD PUSH2 0x100 SWAP1 SWAP2 DIV PUSH1 0x1 PUSH1 0x1 PUSH1 0x78 SHL SUB AND LT ISZERO PUSH2 0xEF2 JUMPI PUSH1 0x40 MLOAD PUSH3 0x461BCD PUSH1 0xE5 SHL DUP2 MSTORE PUSH1 0x4 ADD PUSH2 0x78C SWAP1 PUSH2 0x228C JUMP JUMPDEST PUSH1 0x9 DUP1 SLOAD PUSH1 0x1 ADD SWAP1 DUP2 SWAP1 SSTORE PUSH1 0x40 MLOAD PUSH1 0x1 PUSH1 0x1 PUSH1 0x60 SHL SUB NOT CALLER PUSH1 0x60 SHL AND PUSH1 0x20 DUP3 ADD MSTORE TIMESTAMP PUSH1 0x34 DUP3 ADD MSTORE PUSH1 0x54 DUP2 ADD SWAP2 SWAP1 SWAP2 MSTORE DIFFICULTY PUSH1 0x74 DUP3 ADD MSTORE PUSH1 0x0 SWAP1 PUSH1 0x3 SWAP1 PUSH1 0x94 ADD PUSH1 0x40 MLOAD PUSH1 0x20 DUP2 DUP4 SUB SUB DUP2 MSTORE SWAP1 PUSH1 0x40 MSTORE DUP1 MLOAD SWAP1 PUSH1 0x20 ADD KECCAK256 PUSH1 0x0 SHR PUSH2 0xF53 SWAP2 SWAP1 PUSH2 0x239C JUMP JUMPDEST SWAP1 POP PUSH2 0xF62 DUP4 PUSH1 0x9 SLOAD DUP4 PUSH2 0x15C5 JUMP JUMPDEST POP POP PUSH1 0x9 SLOAD SWAP2 SWAP1 POP JUMP JUMPDEST PUSH1 0x7 SLOAD PUSH1 0x1 PUSH1 0x1 PUSH1 0xA0 SHL SUB AND CALLER EQ PUSH2 0xF96 JUMPI PUSH1 0x40 MLOAD PUSH3 0x461BCD PUSH1 0xE5 SHL DUP2 MSTORE PUSH1 0x4 ADD PUSH2 0x78C SWAP1 PUSH2 0x2255 JUMP JUMPDEST PUSH1 0x0 PUSH2 0xFAA PUSH1 0x7 SLOAD PUSH1 0x1 PUSH1 0x1 PUSH1 0xA0 SHL SUB AND SWAP1 JUMP JUMPDEST SWAP1 POP PUSH1 0x0 DUP2 PUSH1 0x1 PUSH1 0x1 PUSH1 0xA0 SHL SUB AND SELFBALANCE PUSH1 0x40 MLOAD PUSH1 0x0 PUSH1 0x40 MLOAD DUP1 DUP4 SUB DUP2 DUP6 DUP8 GAS CALL SWAP3 POP POP POP RETURNDATASIZE DUP1 PUSH1 0x0 DUP2 EQ PUSH2 0xFF9 JUMPI PUSH1 0x40 MLOAD SWAP2 POP PUSH1 0x1F NOT PUSH1 0x3F RETURNDATASIZE ADD AND DUP3 ADD PUSH1 0x40 MSTORE RETURNDATASIZE DUP3 MSTORE RETURNDATASIZE PUSH1 0x0 PUSH1 0x20 DUP5 ADD RETURNDATACOPY PUSH2 0xFFE JUMP JUMPDEST PUSH1 0x60 SWAP2 POP JUMPDEST POP POP SWAP1 POP DUP1 PUSH2 0x1044 JUMPI PUSH1 0x40 MLOAD PUSH3 0x461BCD PUSH1 0xE5 SHL DUP2 MSTORE PUSH1 0x20 PUSH1 0x4 DUP3 ADD MSTORE PUSH1 0x12 PUSH1 0x24 DUP3 ADD MSTORE PUSH18 0x151C985B9CD858DD1A5BDB8819985A5B1959 PUSH1 0x72 SHL PUSH1 0x44 DUP3 ADD MSTORE PUSH1 0x64 ADD PUSH2 0x78C JUMP JUMPDEST POP POP JUMP JUMPDEST CALLER PUSH1 0x0 DUP2 DUP2 MSTORE PUSH1 0x6 PUSH1 0x20 SWAP1 DUP2 MSTORE PUSH1 0x40 DUP1 DUP4 KECCAK256 PUSH1 0x1 PUSH1 0x1 PUSH1 0xA0 SHL SUB DUP8 AND DUP1 DUP6 MSTORE SWAP1 DUP4 MSTORE SWAP3 DUP2 SWAP1 KECCAK256 DUP1 SLOAD PUSH1 0xFF NOT AND DUP7 ISZERO ISZERO SWAP1 DUP2 OR SWAP1 SWAP2 SSTORE SWAP1 MLOAD SWAP1 DUP2 MSTORE SWAP2 SWAP3 SWAP2 PUSH32 0x17307EAB39AB6107E8899845AD3D59BD9653F200F220920489CA2B5937696C31 SWAP2 ADD PUSH1 0x40 MLOAD DUP1 SWAP2 SUB SWAP1 LOG3 POP POP JUMP JUMPDEST PUSH1 0xA SLOAD PUSH1 0x0 SWAP1 PUSH1 0x1 PUSH1 0x1 PUSH1 0x60 SHL SUB AND PUSH2 0x10CF PUSH2 0x2710 DUP5 PUSH2 0x22D0 JUMP JUMPDEST PUSH2 0x75C SWAP2 SWAP1 PUSH2 0x22E4 JUMP JUMPDEST PUSH2 0x10E4 DUP5 DUP5 DUP5 PUSH2 0xA09 JUMP JUMPDEST PUSH1 0x1 PUSH1 0x1 PUSH1 0xA0 SHL SUB DUP4 AND EXTCODESIZE ISZERO DUP1 PUSH2 0x1188 JUMPI POP PUSH1 0x40 MLOAD PUSH4 0xA85BD01 PUSH1 0xE1 SHL DUP1 DUP3 MSTORE SWAP1 PUSH1 0x1 PUSH1 0x1 PUSH1 0xA0 SHL SUB DUP6 AND SWAP1 PUSH4 0x150B7A02 SWAP1 PUSH2 0x112A SWAP1 CALLER SWAP1 DUP10 SWAP1 DUP9 SWAP1 DUP9 SWAP1 PUSH1 0x4 ADD PUSH2 0x2205 JUMP JUMPDEST PUSH1 0x20 PUSH1 0x40 MLOAD DUP1 DUP4 SUB DUP2 PUSH1 0x0 DUP8 DUP1 EXTCODESIZE ISZERO DUP1 ISZERO PUSH2 0x1144 JUMPI PUSH1 0x0 DUP1 REVERT JUMPDEST POP GAS CALL ISZERO DUP1 ISZERO PUSH2 0x1158 JUMPI RETURNDATASIZE PUSH1 0x0 DUP1 RETURNDATACOPY RETURNDATASIZE PUSH1 0x0 REVERT JUMPDEST POP POP POP POP PUSH1 0x40 MLOAD RETURNDATASIZE PUSH1 0x1F NOT PUSH1 0x1F DUP3 ADD AND DUP3 ADD DUP1 PUSH1 0x40 MSTORE POP DUP2 ADD SWAP1 PUSH2 0x117C SWAP2 SWAP1 PUSH2 0x2142 JUMP JUMPDEST PUSH1 0x1 PUSH1 0x1 PUSH1 0xE0 SHL SUB NOT AND EQ JUMPDEST PUSH2 0x11C7 JUMPI PUSH1 0x40 MLOAD PUSH3 0x461BCD PUSH1 0xE5 SHL DUP2 MSTORE PUSH1 0x20 PUSH1 0x4 DUP3 ADD MSTORE PUSH1 0x10 PUSH1 0x24 DUP3 ADD MSTORE PUSH16 0x155394D0519157D49150D25412515395 PUSH1 0x82 SHL PUSH1 0x44 DUP3 ADD MSTORE PUSH1 0x64 ADD PUSH2 0x78C JUMP JUMPDEST POP POP POP POP JUMP JUMPDEST PUSH1 0x0 PUSH2 0x11DA DUP5 DUP5 DUP5 PUSH2 0x16D7 JUMP JUMPDEST SWAP5 SWAP4 POP POP POP POP JUMP JUMPDEST PUSH1 0x0 DUP2 DUP2 MSTORE PUSH1 0x3 PUSH1 0x20 MSTORE PUSH1 0x40 SWAP1 KECCAK256 SLOAD PUSH1 0x60 SWAP1 PUSH1 0x1 PUSH1 0x1 PUSH1 0xA0 SHL SUB AND PUSH2 0x1249 JUMPI PUSH1 0x40 MLOAD PUSH3 0x461BCD PUSH1 0xE5 SHL DUP2 MSTORE PUSH1 0x20 PUSH1 0x4 DUP3 ADD MSTORE PUSH1 0x1C PUSH1 0x24 DUP3 ADD MSTORE PUSH32 0x4E6F20746F6B656E207769746820746869732049642065786973747300000000 PUSH1 0x44 DUP3 ADD MSTORE PUSH1 0x64 ADD PUSH2 0x78C JUMP JUMPDEST PUSH1 0x0 PUSH2 0x1253 PUSH2 0x16F9 JUMP JUMPDEST SWAP1 POP PUSH1 0x0 DUP2 MLOAD GT PUSH2 0x1273 JUMPI PUSH1 0x40 MLOAD DUP1 PUSH1 0x20 ADD PUSH1 0x40 MSTORE DUP1 PUSH1 0x0 DUP2 MSTORE POP PUSH2 0x12AE JUMP JUMPDEST PUSH1 0x0 DUP4 DUP2 MSTORE PUSH1 0x5 PUSH1 0x20 MSTORE PUSH1 0x40 SWAP1 KECCAK256 SLOAD DUP2 SWAP1 PUSH2 0x128D SWAP1 PUSH2 0x178B JUMP JUMPDEST PUSH1 0x40 MLOAD PUSH1 0x20 ADD PUSH2 0x129E SWAP3 SWAP2 SWAP1 PUSH2 0x21C6 JUMP JUMPDEST PUSH1 0x40 MLOAD PUSH1 0x20 DUP2 DUP4 SUB SUB DUP2 MSTORE SWAP1 PUSH1 0x40 MSTORE JUMPDEST SWAP4 SWAP3 POP POP POP JUMP JUMPDEST PUSH1 0x7 SLOAD PUSH1 0x1 PUSH1 0x1 PUSH1 0xA0 SHL SUB AND CALLER EQ PUSH2 0x12DF JUMPI PUSH1 0x40 MLOAD PUSH3 0x461BCD PUSH1 0xE5 SHL DUP2 MSTORE PUSH1 0x4 ADD PUSH2 0x78C SWAP1 PUSH2 0x2255 JUMP JUMPDEST PUSH1 0x1 PUSH1 0x1 PUSH1 0xA0 SHL SUB DUP2 AND PUSH2 0x1335 JUMPI PUSH1 0x40 MLOAD PUSH3 0x461BCD PUSH1 0xE5 SHL DUP2 MSTORE PUSH1 0x20 PUSH1 0x4 DUP3 ADD MSTORE PUSH1 0x1C PUSH1 0x24 DUP3 ADD MSTORE PUSH32 0x4F776E65722063616E6E6F74206265207A65726F206164647265737300000000 PUSH1 0x44 DUP3 ADD MSTORE PUSH1 0x64 ADD PUSH2 0x78C JUMP JUMPDEST PUSH2 0x133E DUP2 PUSH2 0x1889 JUMP JUMPDEST POP JUMP JUMPDEST PUSH1 0x7 SLOAD PUSH1 0x1 PUSH1 0x1 PUSH1 0xA0 SHL SUB AND CALLER EQ PUSH2 0x136B JUMPI PUSH1 0x40 MLOAD PUSH3 0x461BCD PUSH1 0xE5 SHL DUP2 MSTORE PUSH1 0x4 ADD PUSH2 0x78C SWAP1 PUSH2 0x2255 JUMP JUMPDEST PUSH1 0xD DUP1 SLOAD SWAP2 ISZERO ISZERO PUSH1 0x1 PUSH1 0xA0 SHL MUL PUSH1 0xFF PUSH1 0xA0 SHL NOT SWAP1 SWAP3 AND SWAP2 SWAP1 SWAP2 OR SWAP1 SSTORE JUMP JUMPDEST PUSH1 0xD SLOAD PUSH1 0x0 SWAP1 PUSH1 0x1 PUSH1 0xA0 SHL SWAP1 DIV PUSH1 0xFF AND ISZERO PUSH2 0x13DA JUMPI PUSH1 0x40 MLOAD PUSH3 0x461BCD PUSH1 0xE5 SHL DUP2 MSTORE PUSH1 0x20 PUSH1 0x4 DUP3 ADD MSTORE PUSH1 0x11 PUSH1 0x24 DUP3 ADD MSTORE PUSH17 0x135A5B9D1A5B99C81A5CC81C185D5CD959 PUSH1 0x7A SHL PUSH1 0x44 DUP3 ADD MSTORE PUSH1 0x64 ADD PUSH2 0x78C JUMP JUMPDEST PUSH1 0xB SLOAD PUSH1 0x9 SLOAD PUSH2 0x100 SWAP1 SWAP2 DIV PUSH1 0x1 PUSH1 0x1 PUSH1 0x78 SHL SUB AND LT ISZERO PUSH2 0x140D JUMPI PUSH1 0x40 MLOAD PUSH3 0x461BCD PUSH1 0xE5 SHL DUP2 MSTORE PUSH1 0x4 ADD PUSH2 0x78C SWAP1 PUSH2 0x228C JUMP JUMPDEST PUSH1 0xD SLOAD PUSH1 0x1 PUSH1 0x1 PUSH1 0xA0 SHL SUB AND PUSH2 0x1424 CALLER DUP6 DUP6 PUSH2 0x11CD JUMP JUMPDEST PUSH1 0x1 PUSH1 0x1 PUSH1 0xA0 SHL SUB AND EQ PUSH2 0x146E JUMPI PUSH1 0x40 MLOAD PUSH3 0x461BCD PUSH1 0xE5 SHL DUP2 MSTORE PUSH1 0x20 PUSH1 0x4 DUP3 ADD MSTORE PUSH1 0x11 PUSH1 0x24 DUP3 ADD MSTORE PUSH17 0x496E76616C6964207369676E6174757265 PUSH1 0x78 SHL PUSH1 0x44 DUP3 ADD MSTORE PUSH1 0x64 ADD PUSH2 0x78C JUMP JUMPDEST DUP3 ISZERO PUSH2 0x14D1 JUMPI CALLER PUSH1 0x0 SWAP1 DUP2 MSTORE PUSH1 0x2 PUSH1 0x20 MSTORE PUSH1 0x40 SWAP1 KECCAK256 SLOAD ISZERO PUSH2 0x14D1 JUMPI PUSH1 0x40 MLOAD PUSH3 0x461BCD PUSH1 0xE5 SHL DUP2 MSTORE PUSH1 0x20 PUSH1 0x4 DUP3 ADD MSTORE PUSH1 0x17 PUSH1 0x24 DUP3 ADD MSTORE PUSH32 0x596F7520616C7265616479206861766520746F6B656E73000000000000000000 PUSH1 0x44 DUP3 ADD MSTORE PUSH1 0x64 ADD PUSH2 0x78C JUMP JUMPDEST PUSH1 0x0 PUSH2 0x2710 PUSH1 0xC SLOAD PUSH1 0x1 PUSH2 0x14E5 SWAP2 SWAP1 PUSH2 0x22B8 JUMP JUMPDEST PUSH2 0x14F1 DUP7 PUSH2 0x2710 PUSH2 0x2303 JUMP JUMPDEST PUSH2 0x14FB SWAP2 SWAP1 PUSH2 0x22E4 JUMP JUMPDEST PUSH2 0x1505 SWAP2 SWAP1 PUSH2 0x22D0 JUMP JUMPDEST SWAP1 POP DUP1 CALLVALUE GT PUSH2 0x1548 JUMPI PUSH1 0x40 MLOAD PUSH3 0x461BCD PUSH1 0xE5 SHL DUP2 MSTORE PUSH1 0x20 PUSH1 0x4 DUP3 ADD MSTORE PUSH1 0xF PUSH1 0x24 DUP3 ADD MSTORE PUSH15 0x9CDEE840CADCCEDEEACED040CAE8D PUSH1 0x8B SHL PUSH1 0x44 DUP3 ADD MSTORE PUSH1 0x64 ADD PUSH2 0x78C JUMP JUMPDEST PUSH1 0x9 DUP1 SLOAD PUSH1 0x1 ADD SWAP1 DUP2 SWAP1 SSTORE PUSH1 0x40 MLOAD PUSH1 0x1 PUSH1 0x1 PUSH1 0x60 SHL SUB NOT CALLER PUSH1 0x60 SHL AND PUSH1 0x20 DUP3 ADD MSTORE TIMESTAMP PUSH1 0x34 DUP3 ADD MSTORE PUSH1 0x54 DUP2 ADD SWAP2 SWAP1 SWAP2 MSTORE DIFFICULTY PUSH1 0x74 DUP3 ADD MSTORE PUSH1 0x0 SWAP1 PUSH1 0x3 SWAP1 PUSH1 0x94 ADD PUSH1 0x40 MLOAD PUSH1 0x20 DUP2 DUP4 SUB SUB DUP2 MSTORE SWAP1 PUSH1 0x40 MSTORE DUP1 MLOAD SWAP1 PUSH1 0x20 ADD KECCAK256 PUSH1 0x0 SHR PUSH2 0x15A9 SWAP2 SWAP1 PUSH2 0x239C JUMP JUMPDEST SWAP1 POP PUSH2 0x15B8 DUP7 PUSH1 0x9 SLOAD DUP4 PUSH2 0x15C5 JUMP JUMPDEST POP POP PUSH1 0x9 SLOAD SWAP5 SWAP4 POP POP POP POP JUMP JUMPDEST PUSH1 0x1 PUSH1 0x1 PUSH1 0xA0 SHL SUB DUP4 AND PUSH2 0x1608 JUMPI PUSH1 0x40 MLOAD PUSH3 0x461BCD PUSH1 0xE5 SHL DUP2 MSTORE PUSH1 0x20 PUSH1 0x4 DUP3 ADD MSTORE PUSH1 0xA PUSH1 0x24 DUP3 ADD MSTORE PUSH10 0x494E56414C49445F544F PUSH1 0xB0 SHL PUSH1 0x44 DUP3 ADD MSTORE PUSH1 0x64 ADD PUSH2 0x78C JUMP JUMPDEST PUSH1 0x0 DUP3 DUP2 MSTORE PUSH1 0x3 PUSH1 0x20 MSTORE PUSH1 0x40 SWAP1 KECCAK256 SLOAD PUSH1 0x1 PUSH1 0x1 PUSH1 0xA0 SHL SUB AND ISZERO PUSH2 0x165E JUMPI PUSH1 0x40 MLOAD PUSH3 0x461BCD PUSH1 0xE5 SHL DUP2 MSTORE PUSH1 0x20 PUSH1 0x4 DUP3 ADD MSTORE PUSH1 0xE PUSH1 0x24 DUP3 ADD MSTORE PUSH14 0x1053149150511657D35253951151 PUSH1 0x92 SHL PUSH1 0x44 DUP3 ADD MSTORE PUSH1 0x64 ADD PUSH2 0x78C JUMP JUMPDEST PUSH1 0x1 PUSH1 0x1 PUSH1 0xA0 SHL SUB DUP4 AND PUSH1 0x0 DUP2 DUP2 MSTORE PUSH1 0x2 PUSH1 0x20 SWAP1 DUP2 MSTORE PUSH1 0x40 DUP1 DUP4 KECCAK256 DUP1 SLOAD PUSH1 0x1 ADD SWAP1 SSTORE DUP6 DUP4 MSTORE PUSH1 0x3 DUP3 MSTORE DUP1 DUP4 KECCAK256 DUP1 SLOAD PUSH1 0x1 PUSH1 0x1 PUSH1 0xA0 SHL SUB NOT AND DUP6 OR SWAP1 SSTORE PUSH1 0x5 SWAP1 SWAP2 MSTORE DUP1 DUP3 KECCAK256 PUSH1 0xFF DUP6 AND SWAP1 SSTORE MLOAD DUP5 SWAP3 SWAP2 SWAP1 PUSH32 0xDDF252AD1BE2C89B69C2B068FC378DAA952BA7F163C4A11628F55A4DF523B3EF SWAP1 DUP3 SWAP1 LOG4 POP POP POP JUMP JUMPDEST PUSH1 0x0 DUP1 PUSH2 0x16E4 DUP6 DUP6 PUSH2 0x18F1 JUMP JUMPDEST SWAP1 POP PUSH2 0x16F0 DUP2 DUP5 PUSH2 0x1958 JUMP JUMPDEST SWAP6 SWAP5 POP POP POP POP POP JUMP JUMPDEST PUSH1 0x60 PUSH1 0x8 DUP1 SLOAD PUSH2 0x1708 SWAP1 PUSH2 0x2346 JUMP JUMPDEST DUP1 PUSH1 0x1F ADD PUSH1 0x20 DUP1 SWAP2 DIV MUL PUSH1 0x20 ADD PUSH1 0x40 MLOAD SWAP1 DUP2 ADD PUSH1 0x40 MSTORE DUP1 SWAP3 SWAP2 SWAP1 DUP2 DUP2 MSTORE PUSH1 0x20 ADD DUP3 DUP1 SLOAD PUSH2 0x1734 SWAP1 PUSH2 0x2346 JUMP JUMPDEST DUP1 ISZERO PUSH2 0x1781 JUMPI DUP1 PUSH1 0x1F LT PUSH2 0x1756 JUMPI PUSH2 0x100 DUP1 DUP4 SLOAD DIV MUL DUP4 MSTORE SWAP2 PUSH1 0x20 ADD SWAP2 PUSH2 0x1781 JUMP JUMPDEST DUP3 ADD SWAP2 SWAP1 PUSH1 0x0 MSTORE PUSH1 0x20 PUSH1 0x0 KECCAK256 SWAP1 JUMPDEST DUP2 SLOAD DUP2 MSTORE SWAP1 PUSH1 0x1 ADD SWAP1 PUSH1 0x20 ADD DUP1 DUP4 GT PUSH2 0x1764 JUMPI DUP3 SWAP1 SUB PUSH1 0x1F AND DUP3 ADD SWAP2 JUMPDEST POP POP POP POP POP SWAP1 POP SWAP1 JUMP JUMPDEST PUSH1 0x60 DUP2 PUSH2 0x17AF JUMPI POP POP PUSH1 0x40 DUP1 MLOAD DUP1 DUP3 ADD SWAP1 SWAP2 MSTORE PUSH1 0x1 DUP2 MSTORE PUSH1 0x3 PUSH1 0xFC SHL PUSH1 0x20 DUP3 ADD MSTORE SWAP1 JUMP JUMPDEST DUP2 PUSH1 0x0 JUMPDEST DUP2 ISZERO PUSH2 0x17D9 JUMPI DUP1 PUSH2 0x17C3 DUP2 PUSH2 0x2381 JUMP JUMPDEST SWAP2 POP PUSH2 0x17D2 SWAP1 POP PUSH1 0xA DUP4 PUSH2 0x22D0 JUMP JUMPDEST SWAP2 POP PUSH2 0x17B3 JUMP JUMPDEST PUSH1 0x0 DUP2 PUSH8 0xFFFFFFFFFFFFFFFF DUP2 GT ISZERO PUSH2 0x17F4 JUMPI PUSH2 0x17F4 PUSH2 0x2408 JUMP JUMPDEST PUSH1 0x40 MLOAD SWAP1 DUP1 DUP3 MSTORE DUP1 PUSH1 0x1F ADD PUSH1 0x1F NOT AND PUSH1 0x20 ADD DUP3 ADD PUSH1 0x40 MSTORE DUP1 ISZERO PUSH2 0x181E JUMPI PUSH1 0x20 DUP3 ADD DUP2 DUP1 CALLDATASIZE DUP4 CALLDATACOPY ADD SWAP1 POP JUMPDEST POP SWAP1 POP JUMPDEST DUP5 ISZERO PUSH2 0x11DA JUMPI PUSH2 0x1833 PUSH1 0x1 DUP4 PUSH2 0x2303 JUMP JUMPDEST SWAP2 POP PUSH2 0x1840 PUSH1 0xA DUP7 PUSH2 0x239C JUMP JUMPDEST PUSH2 0x184B SWAP1 PUSH1 0x30 PUSH2 0x22B8 JUMP JUMPDEST PUSH1 0xF8 SHL DUP2 DUP4 DUP2 MLOAD DUP2 LT PUSH2 0x1860 JUMPI PUSH2 0x1860 PUSH2 0x23F2 JUMP JUMPDEST PUSH1 0x20 ADD ADD SWAP1 PUSH1 0x1 PUSH1 0x1 PUSH1 0xF8 SHL SUB NOT AND SWAP1 DUP2 PUSH1 0x0 BYTE SWAP1 MSTORE8 POP PUSH2 0x1882 PUSH1 0xA DUP7 PUSH2 0x22D0 JUMP JUMPDEST SWAP5 POP PUSH2 0x1822 JUMP JUMPDEST PUSH1 0x0 PUSH2 0x189D PUSH1 0x7 SLOAD PUSH1 0x1 PUSH1 0x1 PUSH1 0xA0 SHL SUB AND SWAP1 JUMP JUMPDEST PUSH1 0x7 DUP1 SLOAD PUSH1 0x1 PUSH1 0x1 PUSH1 0xA0 SHL SUB NOT AND PUSH1 0x1 PUSH1 0x1 PUSH1 0xA0 SHL SUB DUP6 DUP2 AND SWAP2 DUP3 OR SWAP1 SWAP3 SSTORE PUSH1 0x40 MLOAD SWAP3 SWAP4 POP SWAP2 SWAP1 DUP4 AND SWAP1 PUSH32 0xD18B5FD22306E373229B9439188228EDCA81207D1667F604DAF6CEF8AA3EE67 SWAP1 PUSH1 0x0 SWAP1 LOG3 POP POP JUMP JUMPDEST PUSH1 0x40 DUP1 MLOAD PUSH32 0x8C9952748B13138200D658BBCDD87EEE4FA0BCCA0E5CA689D665E1A1ECCE8F7B PUSH1 0x20 DUP3 ADD MSTORE PUSH1 0x1 PUSH1 0x1 PUSH1 0xA0 SHL SUB DUP5 AND SWAP2 DUP2 ADD SWAP2 SWAP1 SWAP2 MSTORE PUSH1 0x60 DUP2 ADD DUP3 SWAP1 MSTORE PUSH1 0x0 SWAP1 PUSH2 0x12AE SWAP1 PUSH1 0x80 ADD PUSH1 0x40 MLOAD PUSH1 0x20 DUP2 DUP4 SUB SUB DUP2 MSTORE SWAP1 PUSH1 0x40 MSTORE DUP1 MLOAD SWAP1 PUSH1 0x20 ADD KECCAK256 PUSH2 0x197C JUMP JUMPDEST PUSH1 0x0 DUP1 PUSH1 0x0 PUSH2 0x1967 DUP6 DUP6 PUSH2 0x19CA JUMP JUMPDEST SWAP2 POP SWAP2 POP PUSH2 0x1974 DUP2 PUSH2 0x1A37 JUMP JUMPDEST POP SWAP4 SWAP3 POP POP POP JUMP JUMPDEST PUSH1 0x0 PUSH2 0x75C PUSH2 0x1989 PUSH2 0x1BF2 JUMP JUMPDEST DUP4 PUSH1 0x40 MLOAD PUSH2 0x1901 PUSH1 0xF0 SHL PUSH1 0x20 DUP3 ADD MSTORE PUSH1 0x22 DUP2 ADD DUP4 SWAP1 MSTORE PUSH1 0x42 DUP2 ADD DUP3 SWAP1 MSTORE PUSH1 0x0 SWAP1 PUSH1 0x62 ADD PUSH1 0x40 MLOAD PUSH1 0x20 DUP2 DUP4 SUB SUB DUP2 MSTORE SWAP1 PUSH1 0x40 MSTORE DUP1 MLOAD SWAP1 PUSH1 0x20 ADD KECCAK256 SWAP1 POP SWAP3 SWAP2 POP POP JUMP JUMPDEST PUSH1 0x0 DUP1 DUP3 MLOAD PUSH1 0x41 EQ ISZERO PUSH2 0x1A01 JUMPI PUSH1 0x20 DUP4 ADD MLOAD PUSH1 0x40 DUP5 ADD MLOAD PUSH1 0x60 DUP6 ADD MLOAD PUSH1 0x0 BYTE PUSH2 0x19F5 DUP8 DUP3 DUP6 DUP6 PUSH2 0x1D19 JUMP JUMPDEST SWAP5 POP SWAP5 POP POP POP POP PUSH2 0xBED JUMP JUMPDEST DUP3 MLOAD PUSH1 0x40 EQ ISZERO PUSH2 0x1A2B JUMPI PUSH1 0x20 DUP4 ADD MLOAD PUSH1 0x40 DUP5 ADD MLOAD PUSH2 0x1A20 DUP7 DUP4 DUP4 PUSH2 0x1E06 JUMP JUMPDEST SWAP4 POP SWAP4 POP POP POP PUSH2 0xBED JUMP JUMPDEST POP PUSH1 0x0 SWAP1 POP PUSH1 0x2 PUSH2 0xBED JUMP JUMPDEST PUSH1 0x0 DUP2 PUSH1 0x4 DUP2 GT ISZERO PUSH2 0x1A4B JUMPI PUSH2 0x1A4B PUSH2 0x23DC JUMP JUMPDEST EQ ISZERO PUSH2 0x1A54 JUMPI POP JUMP JUMPDEST PUSH1 0x1 DUP2 PUSH1 0x4 DUP2 GT ISZERO PUSH2 0x1A68 JUMPI PUSH2 0x1A68 PUSH2 0x23DC JUMP JUMPDEST EQ ISZERO PUSH2 0x1AB6 JUMPI PUSH1 0x40 MLOAD PUSH3 0x461BCD PUSH1 0xE5 SHL DUP2 MSTORE PUSH1 0x20 PUSH1 0x4 DUP3 ADD MSTORE PUSH1 0x18 PUSH1 0x24 DUP3 ADD MSTORE PUSH32 0x45434453413A20696E76616C6964207369676E61747572650000000000000000 PUSH1 0x44 DUP3 ADD MSTORE PUSH1 0x64 ADD PUSH2 0x78C JUMP JUMPDEST PUSH1 0x2 DUP2 PUSH1 0x4 DUP2 GT ISZERO PUSH2 0x1ACA JUMPI PUSH2 0x1ACA PUSH2 0x23DC JUMP JUMPDEST EQ ISZERO PUSH2 0x1B18 JUMPI PUSH1 0x40 MLOAD PUSH3 0x461BCD PUSH1 0xE5 SHL DUP2 MSTORE PUSH1 0x20 PUSH1 0x4 DUP3 ADD MSTORE PUSH1 0x1F PUSH1 0x24 DUP3 ADD MSTORE PUSH32 0x45434453413A20696E76616C6964207369676E6174757265206C656E67746800 PUSH1 0x44 DUP3 ADD MSTORE PUSH1 0x64 ADD PUSH2 0x78C JUMP JUMPDEST PUSH1 0x3 DUP2 PUSH1 0x4 DUP2 GT ISZERO PUSH2 0x1B2C JUMPI PUSH2 0x1B2C PUSH2 0x23DC JUMP JUMPDEST EQ ISZERO PUSH2 0x1B85 JUMPI PUSH1 0x40 MLOAD PUSH3 0x461BCD PUSH1 0xE5 SHL DUP2 MSTORE PUSH1 0x20 PUSH1 0x4 DUP3 ADD MSTORE PUSH1 0x22 PUSH1 0x24 DUP3 ADD MSTORE PUSH32 0x45434453413A20696E76616C6964207369676E6174757265202773272076616C PUSH1 0x44 DUP3 ADD MSTORE PUSH2 0x7565 PUSH1 0xF0 SHL PUSH1 0x64 DUP3 ADD MSTORE PUSH1 0x84 ADD PUSH2 0x78C JUMP JUMPDEST PUSH1 0x4 DUP2 PUSH1 0x4 DUP2 GT ISZERO PUSH2 0x1B99 JUMPI PUSH2 0x1B99 PUSH2 0x23DC JUMP JUMPDEST EQ ISZERO PUSH2 0x133E JUMPI PUSH1 0x40 MLOAD PUSH3 0x461BCD PUSH1 0xE5 SHL DUP2 MSTORE PUSH1 0x20 PUSH1 0x4 DUP3 ADD MSTORE PUSH1 0x22 PUSH1 0x24 DUP3 ADD MSTORE PUSH32 0x45434453413A20696E76616C6964207369676E6174757265202776272076616C PUSH1 0x44 DUP3 ADD MSTORE PUSH2 0x7565 PUSH1 0xF0 SHL PUSH1 0x64 DUP3 ADD MSTORE PUSH1 0x84 ADD PUSH2 0x78C JUMP JUMPDEST PUSH1 0x0 ADDRESS PUSH1 0x1 PUSH1 0x1 PUSH1 0xA0 SHL SUB PUSH32 0x0 AND EQ DUP1 ISZERO PUSH2 0x1C4B JUMPI POP PUSH32 0x0 CHAINID EQ JUMPDEST ISZERO PUSH2 0x1C75 JUMPI POP PUSH32 0x0 SWAP1 JUMP JUMPDEST POP PUSH1 0x40 DUP1 MLOAD PUSH32 0x0 PUSH1 0x20 DUP1 DUP4 ADD SWAP2 SWAP1 SWAP2 MSTORE PUSH32 0x0 DUP3 DUP5 ADD MSTORE PUSH32 0x0 PUSH1 0x60 DUP4 ADD MSTORE CHAINID PUSH1 0x80 DUP4 ADD MSTORE ADDRESS PUSH1 0xA0 DUP1 DUP5 ADD SWAP2 SWAP1 SWAP2 MSTORE DUP4 MLOAD DUP1 DUP5 SUB SWAP1 SWAP2 ADD DUP2 MSTORE PUSH1 0xC0 SWAP1 SWAP3 ADD SWAP1 SWAP3 MSTORE DUP1 MLOAD SWAP2 ADD KECCAK256 SWAP1 JUMP JUMPDEST PUSH1 0x0 DUP1 PUSH32 0x7FFFFFFFFFFFFFFFFFFFFFFFFFFFFFFF5D576E7357A4501DDFE92F46681B20A0 DUP4 GT ISZERO PUSH2 0x1D50 JUMPI POP PUSH1 0x0 SWAP1 POP PUSH1 0x3 PUSH2 0x1DFD JUMP JUMPDEST DUP5 PUSH1 0xFF AND PUSH1 0x1B EQ ISZERO DUP1 ISZERO PUSH2 0x1D68 JUMPI POP DUP5 PUSH1 0xFF AND PUSH1 0x1C EQ ISZERO JUMPDEST ISZERO PUSH2 0x1D79 JUMPI POP PUSH1 0x0 SWAP1 POP PUSH1 0x4 PUSH2 0x1DFD JUMP JUMPDEST PUSH1 0x40 DUP1 MLOAD PUSH1 0x0 DUP1 DUP3 MSTORE PUSH1 0x20 DUP3 ADD DUP1 DUP5 MSTORE DUP10 SWAP1 MSTORE PUSH1 0xFF DUP9 AND SWAP3 DUP3 ADD SWAP3 SWAP1 SWAP3 MSTORE PUSH1 0x60 DUP2 ADD DUP7 SWAP1 MSTORE PUSH1 0x80 DUP2 ADD DUP6 SWAP1 MSTORE PUSH1 0x1 SWAP1 PUSH1 0xA0 ADD PUSH1 0x20 PUSH1 0x40 MLOAD PUSH1 0x20 DUP2 SUB SWAP1 DUP1 DUP5 SUB SWAP1 DUP6 GAS STATICCALL ISZERO DUP1 ISZERO PUSH2 0x1DCD JUMPI RETURNDATASIZE PUSH1 0x0 DUP1 RETURNDATACOPY RETURNDATASIZE PUSH1 0x0 REVERT JUMPDEST POP POP PUSH1 0x40 MLOAD PUSH1 0x1F NOT ADD MLOAD SWAP2 POP POP PUSH1 0x1 PUSH1 0x1 PUSH1 0xA0 SHL SUB DUP2 AND PUSH2 0x1DF6 JUMPI PUSH1 0x0 PUSH1 0x1 SWAP3 POP SWAP3 POP POP PUSH2 0x1DFD JUMP JUMPDEST SWAP2 POP PUSH1 0x0 SWAP1 POP JUMPDEST SWAP5 POP SWAP5 SWAP3 POP POP POP JUMP JUMPDEST PUSH1 0x0 DUP1 PUSH1 0x1 PUSH1 0x1 PUSH1 0xFF SHL SUB DUP4 AND DUP2 PUSH2 0x1E23 PUSH1 0xFF DUP7 SWAP1 SHR PUSH1 0x1B PUSH2 0x22B8 JUMP JUMPDEST SWAP1 POP PUSH2 0x1E31 DUP8 DUP3 DUP9 DUP6 PUSH2 0x1D19 JUMP JUMPDEST SWAP4 POP SWAP4 POP POP POP SWAP4 POP SWAP4 SWAP2 POP POP JUMP JUMPDEST DUP1 CALLDATALOAD PUSH1 0x1 PUSH1 0x1 PUSH1 0xA0 SHL SUB DUP2 AND DUP2 EQ PUSH2 0x1E56 JUMPI PUSH1 0x0 DUP1 REVERT JUMPDEST SWAP2 SWAP1 POP JUMP JUMPDEST DUP1 CALLDATALOAD DUP1 ISZERO ISZERO DUP2 EQ PUSH2 0x1E56 JUMPI PUSH1 0x0 DUP1 REVERT JUMPDEST PUSH1 0x0 DUP3 PUSH1 0x1F DUP4 ADD SLT PUSH2 0x1E7C JUMPI PUSH1 0x0 DUP1 REVERT JUMPDEST DUP2 CALLDATALOAD PUSH8 0xFFFFFFFFFFFFFFFF DUP1 DUP3 GT ISZERO PUSH2 0x1E97 JUMPI PUSH2 0x1E97 PUSH2 0x2408 JUMP JUMPDEST PUSH1 0x40 MLOAD PUSH1 0x1F DUP4 ADD PUSH1 0x1F NOT SWAP1 DUP2 AND PUSH1 0x3F ADD AND DUP2 ADD SWAP1 DUP3 DUP3 GT DUP2 DUP4 LT OR ISZERO PUSH2 0x1EBF JUMPI PUSH2 0x1EBF PUSH2 0x2408 JUMP JUMPDEST DUP2 PUSH1 0x40 MSTORE DUP4 DUP2 MSTORE DUP7 PUSH1 0x20 DUP6 DUP9 ADD ADD GT ISZERO PUSH2 0x1ED8 JUMPI PUSH1 0x0 DUP1 REVERT JUMPDEST DUP4 PUSH1 0x20 DUP8 ADD PUSH1 0x20 DUP4 ADD CALLDATACOPY PUSH1 0x0 PUSH1 0x20 DUP6 DUP4 ADD ADD MSTORE DUP1 SWAP5 POP POP POP POP POP SWAP3 SWAP2 POP POP JUMP JUMPDEST PUSH1 0x0 PUSH1 0x20 DUP3 DUP5 SUB SLT ISZERO PUSH2 0x1F0A JUMPI PUSH1 0x0 DUP1 REVERT JUMPDEST PUSH2 0x12AE DUP3 PUSH2 0x1E3F JUMP JUMPDEST PUSH1 0x0 DUP1 PUSH1 0x40 DUP4 DUP6 SUB SLT ISZERO PUSH2 0x1F26 JUMPI PUSH1 0x0 DUP1 REVERT JUMPDEST PUSH2 0x1F2F DUP4 PUSH2 0x1E3F JUMP JUMPDEST SWAP2 POP PUSH2 0x1F3D PUSH1 0x20 DUP5 ADD PUSH2 0x1E3F JUMP JUMPDEST SWAP1 POP SWAP3 POP SWAP3 SWAP1 POP JUMP JUMPDEST PUSH1 0x0 DUP1 PUSH1 0x0 PUSH1 0x60 DUP5 DUP7 SUB SLT ISZERO PUSH2 0x1F5B JUMPI PUSH1 0x0 DUP1 REVERT JUMPDEST PUSH2 0x1F64 DUP5 PUSH2 0x1E3F JUMP JUMPDEST SWAP3 POP PUSH2 0x1F72 PUSH1 0x20 DUP6 ADD PUSH2 0x1E3F JUMP JUMPDEST SWAP2 POP PUSH1 0x40 DUP5 ADD CALLDATALOAD SWAP1 POP SWAP3 POP SWAP3 POP SWAP3 JUMP JUMPDEST PUSH1 0x0 DUP1 PUSH1 0x0 DUP1 PUSH1 0x80 DUP6 DUP8 SUB SLT ISZERO PUSH2 0x1F98 JUMPI PUSH1 0x0 DUP1 REVERT JUMPDEST PUSH2 0x1FA1 DUP6 PUSH2 0x1E3F JUMP JUMPDEST SWAP4 POP PUSH2 0x1FAF PUSH1 0x20 DUP7 ADD PUSH2 0x1E3F JUMP JUMPDEST SWAP3 POP PUSH1 0x40 DUP6 ADD CALLDATALOAD SWAP2 POP PUSH1 0x60 DUP6 ADD CALLDATALOAD PUSH8 0xFFFFFFFFFFFFFFFF DUP2 GT ISZERO PUSH2 0x1FD2 JUMPI PUSH1 0x0 DUP1 REVERT JUMPDEST PUSH2 0x1FDE DUP8 DUP3 DUP9 ADD PUSH2 0x1E6B JUMP JUMPDEST SWAP2 POP POP SWAP3 SWAP6 SWAP2 SWAP5 POP SWAP3 POP JUMP JUMPDEST PUSH1 0x0 DUP1 PUSH1 0x40 DUP4 DUP6 SUB SLT ISZERO PUSH2 0x1FFD JUMPI PUSH1 0x0 DUP1 REVERT JUMPDEST PUSH2 0x2006 DUP4 PUSH2 0x1E3F JUMP JUMPDEST SWAP2 POP PUSH2 0x1F3D PUSH1 0x20 DUP5 ADD PUSH2 0x1E5B JUMP JUMPDEST PUSH1 0x0 DUP1 PUSH1 0x40 DUP4 DUP6 SUB SLT ISZERO PUSH2 0x2027 JUMPI PUSH1 0x0 DUP1 REVERT JUMPDEST PUSH2 0x2030 DUP4 PUSH2 0x1E3F JUMP JUMPDEST SWAP5 PUSH1 0x20 SWAP4 SWAP1 SWAP4 ADD CALLDATALOAD SWAP4 POP POP POP JUMP JUMPDEST PUSH1 0x0 DUP1 PUSH1 0x0 PUSH1 0x60 DUP5 DUP7 SUB SLT ISZERO PUSH2 0x2053 JUMPI PUSH1 0x0 DUP1 REVERT JUMPDEST PUSH2 0x205C DUP5 PUSH2 0x1E3F JUMP JUMPDEST SWAP3 POP PUSH1 0x20 DUP5 ADD CALLDATALOAD SWAP2 POP PUSH1 0x40 DUP5 ADD CALLDATALOAD PUSH8 0xFFFFFFFFFFFFFFFF DUP2 GT ISZERO PUSH2 0x207F JUMPI PUSH1 0x0 DUP1 REVERT JUMPDEST PUSH2 0x208B DUP7 DUP3 DUP8 ADD PUSH2 0x1E6B JUMP JUMPDEST SWAP2 POP POP SWAP3 POP SWAP3 POP SWAP3 JUMP JUMPDEST PUSH1 0x0 DUP1 PUSH1 0x40 DUP4 DUP6 SUB SLT ISZERO PUSH2 0x20A8 JUMPI PUSH1 0x0 DUP1 REVERT JUMPDEST PUSH2 0x20B1 DUP4 PUSH2 0x1E3F JUMP JUMPDEST SWAP2 POP PUSH1 0x20 DUP4 ADD CALLDATALOAD PUSH1 0xFF DUP2 AND DUP2 EQ PUSH2 0x20C7 JUMPI PUSH1 0x0 DUP1 REVERT JUMPDEST DUP1 SWAP2 POP POP SWAP3 POP SWAP3 SWAP1 POP JUMP JUMPDEST PUSH1 0x0 DUP1 PUSH1 0x40 DUP4 DUP6 SUB SLT ISZERO PUSH2 0x20E5 JUMPI PUSH1 0x0 DUP1 REVERT JUMPDEST PUSH2 0x20EE DUP4 PUSH2 0x1E3F JUMP JUMPDEST SWAP2 POP PUSH1 0x20 DUP4 ADD CALLDATALOAD PUSH1 0x1 PUSH1 0x1 PUSH1 0x60 SHL SUB DUP2 AND DUP2 EQ PUSH2 0x20C7 JUMPI PUSH1 0x0 DUP1 REVERT JUMPDEST PUSH1 0x0 PUSH1 0x20 DUP3 DUP5 SUB SLT ISZERO PUSH2 0x211C JUMPI PUSH1 0x0 DUP1 REVERT JUMPDEST PUSH2 0x12AE DUP3 PUSH2 0x1E5B JUMP JUMPDEST PUSH1 0x0 PUSH1 0x20 DUP3 DUP5 SUB SLT ISZERO PUSH2 0x2137 JUMPI PUSH1 0x0 DUP1 REVERT JUMPDEST DUP2 CALLDATALOAD PUSH2 0x12AE DUP2 PUSH2 0x241E JUMP JUMPDEST PUSH1 0x0 PUSH1 0x20 DUP3 DUP5 SUB SLT ISZERO PUSH2 0x2154 JUMPI PUSH1 0x0 DUP1 REVERT JUMPDEST DUP2 MLOAD PUSH2 0x12AE DUP2 PUSH2 0x241E JUMP JUMPDEST PUSH1 0x0 PUSH1 0x20 DUP3 DUP5 SUB SLT ISZERO PUSH2 0x2171 JUMPI PUSH1 0x0 DUP1 REVERT JUMPDEST POP CALLDATALOAD SWAP2 SWAP1 POP JUMP JUMPDEST PUSH1 0x0 DUP1 PUSH1 0x40 DUP4 DUP6 SUB SLT ISZERO PUSH2 0x218B JUMPI PUSH1 0x0 DUP1 REVERT JUMPDEST POP POP DUP1 CALLDATALOAD SWAP3 PUSH1 0x20 SWAP1 SWAP2 ADD CALLDATALOAD SWAP2 POP JUMP JUMPDEST PUSH1 0x0 DUP2 MLOAD DUP1 DUP5 MSTORE PUSH2 0x21B2 DUP2 PUSH1 0x20 DUP7 ADD PUSH1 0x20 DUP7 ADD PUSH2 0x231A JUMP JUMPDEST PUSH1 0x1F ADD PUSH1 0x1F NOT AND SWAP3 SWAP1 SWAP3 ADD PUSH1 0x20 ADD SWAP3 SWAP2 POP POP JUMP JUMPDEST PUSH1 0x0 DUP4 MLOAD PUSH2 0x21D8 DUP2 DUP5 PUSH1 0x20 DUP9 ADD PUSH2 0x231A JUMP JUMPDEST DUP4 MLOAD SWAP1 DUP4 ADD SWAP1 PUSH2 0x21EC DUP2 DUP4 PUSH1 0x20 DUP9 ADD PUSH2 0x231A JUMP JUMPDEST PUSH5 0x173539B7B7 PUSH1 0xD9 SHL SWAP2 ADD SWAP1 DUP2 MSTORE PUSH1 0x5 ADD SWAP5 SWAP4 POP POP POP POP JUMP JUMPDEST PUSH1 0x1 PUSH1 0x1 PUSH1 0xA0 SHL SUB DUP6 DUP2 AND DUP3 MSTORE DUP5 AND PUSH1 0x20 DUP3 ADD MSTORE PUSH1 0x40 DUP2 ADD DUP4 SWAP1 MSTORE PUSH1 0x80 PUSH1 0x60 DUP3 ADD DUP2 SWAP1 MSTORE PUSH1 0x0 SWAP1 PUSH2 0x2238 SWAP1 DUP4 ADD DUP5 PUSH2 0x219A JUMP JUMPDEST SWAP7 SWAP6 POP POP POP POP POP POP JUMP JUMPDEST PUSH1 0x20 DUP2 MSTORE PUSH1 0x0 PUSH2 0x12AE PUSH1 0x20 DUP4 ADD DUP5 PUSH2 0x219A JUMP JUMPDEST PUSH1 0x20 DUP1 DUP3 MSTORE PUSH1 0x17 SWAP1 DUP3 ADD MSTORE PUSH32 0x43616C6C6572206973206E6F7420746865206F776E6572000000000000000000 PUSH1 0x40 DUP3 ADD MSTORE PUSH1 0x60 ADD SWAP1 JUMP JUMPDEST PUSH1 0x20 DUP1 DUP3 MSTORE PUSH1 0x12 SWAP1 DUP3 ADD MSTORE PUSH18 0x13585E081CDD5C1C1B1E481C995858DA1959 PUSH1 0x72 SHL PUSH1 0x40 DUP3 ADD MSTORE PUSH1 0x60 ADD SWAP1 JUMP JUMPDEST PUSH1 0x0 DUP3 NOT DUP3 GT ISZERO PUSH2 0x22CB JUMPI PUSH2 0x22CB PUSH2 0x23B0 JUMP JUMPDEST POP ADD SWAP1 JUMP JUMPDEST PUSH1 0x0 DUP3 PUSH2 0x22DF JUMPI PUSH2 0x22DF PUSH2 0x23C6 JUMP JUMPDEST POP DIV SWAP1 JUMP JUMPDEST PUSH1 0x0 DUP2 PUSH1 0x0 NOT DIV DUP4 GT DUP3 ISZERO ISZERO AND ISZERO PUSH2 0x22FE JUMPI PUSH2 0x22FE PUSH2 0x23B0 JUMP JUMPDEST POP MUL SWAP1 JUMP JUMPDEST PUSH1 0x0 DUP3 DUP3 LT ISZERO PUSH2 0x2315 JUMPI PUSH2 0x2315 PUSH2 0x23B0 JUMP JUMPDEST POP SUB SWAP1 JUMP JUMPDEST PUSH1 0x0 JUMPDEST DUP4 DUP2 LT ISZERO PUSH2 0x2335 JUMPI DUP2 DUP2 ADD MLOAD DUP4 DUP3 ADD MSTORE PUSH1 0x20 ADD PUSH2 0x231D JUMP JUMPDEST DUP4 DUP2 GT ISZERO PUSH2 0x11C7 JUMPI POP POP PUSH1 0x0 SWAP2 ADD MSTORE JUMP JUMPDEST PUSH1 0x1 DUP2 DUP2 SHR SWAP1 DUP3 AND DUP1 PUSH2 0x235A JUMPI PUSH1 0x7F DUP3 AND SWAP2 POP JUMPDEST PUSH1 0x20 DUP3 LT DUP2 EQ ISZERO PUSH2 0x237B JUMPI PUSH4 0x4E487B71 PUSH1 0xE0 SHL PUSH1 0x0 MSTORE PUSH1 0x22 PUSH1 0x4 MSTORE PUSH1 0x24 PUSH1 0x0 REVERT JUMPDEST POP SWAP2 SWAP1 POP JUMP JUMPDEST PUSH1 0x0 PUSH1 0x0 NOT DUP3 EQ ISZERO PUSH2 0x2395 JUMPI PUSH2 0x2395 PUSH2 0x23B0 JUMP JUMPDEST POP PUSH1 0x1 ADD SWAP1 JUMP JUMPDEST PUSH1 0x0 DUP3 PUSH2 0x23AB JUMPI PUSH2 0x23AB PUSH2 0x23C6 JUMP JUMPDEST POP MOD SWAP1 JUMP JUMPDEST PUSH4 0x4E487B71 PUSH1 0xE0 SHL PUSH1 0x0 MSTORE PUSH1 0x11 PUSH1 0x4 MSTORE PUSH1 0x24 PUSH1 0x0 REVERT JUMPDEST PUSH4 0x4E487B71 PUSH1 0xE0 SHL PUSH1 0x0 MSTORE PUSH1 0x12 PUSH1 0x4 MSTORE PUSH1 0x24 PUSH1 0x0 REVERT JUMPDEST PUSH4 0x4E487B71 PUSH1 0xE0 SHL PUSH1 0x0 MSTORE PUSH1 0x21 PUSH1 0x4 MSTORE PUSH1 0x24 PUSH1 0x0 REVERT JUMPDEST PUSH4 0x4E487B71 PUSH1 0xE0 SHL PUSH1 0x0 MSTORE PUSH1 0x32 PUSH1 0x4 MSTORE PUSH1 0x24 PUSH1 0x0 REVERT JUMPDEST PUSH4 0x4E487B71 PUSH1 0xE0 SHL PUSH1 0x0 MSTORE PUSH1 0x41 PUSH1 0x4 MSTORE PUSH1 0x24 PUSH1 0x0 REVERT JUMPDEST PUSH1 0x1 PUSH1 0x1 PUSH1 0xE0 SHL SUB NOT DUP2 AND DUP2 EQ PUSH2 0x133E JUMPI PUSH1 0x0 DUP1 REVERT INVALID LOG2 PUSH5 0x6970667358 0x22 SLT KECCAK256 DELEGATECALL 0x4E XOR PUSH11 0x7557D73B8807E6D6992358 0xAE CALLDATALOAD 0xA8 CODECOPY RETURNDATACOPY 0xBF EQ 0xC0 0xE4 0xED EXP DUP12 PUSH12 0xEBFC597A64736F6C63430008 SMOD STOP CALLER "
				},
				"gasEstimates": {
					"creation": {
						"codeDepositCost": "1864400",
						"executionCost": "infinite",
						"totalCost": "infinite"
					},
					"external": {
						"MAX_SUPPLY()": "2416",
						"approve(address,uint256)": "31110",
						"balanceOf(address)": "2604",
						"baseURI()": "infinite",
						"calculateRoyalty(uint256)": "2634",
						"check(address,uint256,bytes)": "infinite",
						"getApproved(uint256)": "2590",
						"isApprovedForAll(address,address)": "infinite",
						"mintCost()": "2340",
						"mintOwner(address,uint8)": "106151",
						"mintPublic(address)": "114780",
						"mintWhitelist(address,uint256,bytes)": "infinite",
						"name()": "infinite",
						"owner()": "2377",
						"ownerOf(uint256)": "2589",
						"publicAllowed()": "2410",
						"royaltyAddress()": "2443",
						"royaltyFeesInBips()": "2426",
						"royaltyInfo(uint256,uint256)": "4882",
						"safeTransferFrom(address,address,uint256)": "infinite",
						"safeTransferFrom(address,address,uint256,bytes)": "infinite",
						"setApprovalForAll(address,bool)": "infinite",
						"setMintCost(uint256)": "24666",
						"setPauseMint(bool)": "26805",
						"setPublicMint(bool)": "26737",
						"setRoyaltyInfo(address,uint96)": "24810",
						"setSignAddress(address)": "26801",
						"supportsInterface(bytes4)": "612",
						"symbol()": "infinite",
						"tokenType(uint256)": "2482",
						"tokenURI(uint256)": "infinite",
						"transferFrom(address,address,uint256)": "infinite",
						"transferOwnership(address)": "30544",
						"withdrawEth()": "infinite"
					},
					"internal": {
						"_baseURI()": "infinite",
						"_hash(address,uint256)": "infinite",
						"_verify(address,uint256,bytes memory)": "infinite"
					}
				},
				"methodIdentifiers": {
					"MAX_SUPPLY()": "32cb6b0c",
					"approve(address,uint256)": "095ea7b3",
					"balanceOf(address)": "70a08231",
					"baseURI()": "6c0360eb",
					"calculateRoyalty(uint256)": "a2e69613",
					"check(address,uint256,bytes)": "c2e63def",
					"getApproved(uint256)": "081812fc",
					"isApprovedForAll(address,address)": "e985e9c5",
					"mintCost()": "bdb4b848",
					"mintOwner(address,uint8)": "79d72794",
					"mintPublic(address)": "a06cb719",
					"mintWhitelist(address,uint256,bytes)": "fbbd1dc0",
					"name()": "06fdde03",
					"owner()": "8da5cb5b",
					"ownerOf(uint256)": "6352211e",
					"publicAllowed()": "d83d0f76",
					"royaltyAddress()": "ad2f852a",
					"royaltyFeesInBips()": "73c7400e",
					"royaltyInfo(uint256,uint256)": "2a55205a",
					"safeTransferFrom(address,address,uint256)": "42842e0e",
					"safeTransferFrom(address,address,uint256,bytes)": "b88d4fde",
					"setApprovalForAll(address,bool)": "a22cb465",
					"setMintCost(uint256)": "8545f4ea",
					"setPauseMint(bool)": "f59e26d0",
					"setPublicMint(bool)": "0e2d56cf",
					"setRoyaltyInfo(address,uint96)": "02fa7c47",
					"setSignAddress(address)": "15137045",
					"supportsInterface(bytes4)": "01ffc9a7",
					"symbol()": "95d89b41",
					"tokenType(uint256)": "e6c3b1f6",
					"tokenURI(uint256)": "c87b56dd",
					"transferFrom(address,address,uint256)": "23b872dd",
					"transferOwnership(address)": "f2fde38b",
					"withdrawEth()": "a0ef91df"
				}
			},
			"storageLayout": {
				"storage": [
					{
						"astId": 76,
						"contract": "NftContract.sol:PantherNft",
						"label": "name",
						"offset": 0,
						"slot": "0",
						"type": "t_string_storage"
					},
					{
						"astId": 78,
						"contract": "NftContract.sol:PantherNft",
						"label": "symbol",
						"offset": 0,
						"slot": "1",
						"type": "t_string_storage"
					},
					{
						"astId": 82,
						"contract": "NftContract.sol:PantherNft",
						"label": "_balanceOf",
						"offset": 0,
						"slot": "2",
						"type": "t_mapping(t_address,t_uint256)"
					},
					{
						"astId": 86,
						"contract": "NftContract.sol:PantherNft",
						"label": "ownerOf",
						"offset": 0,
						"slot": "3",
						"type": "t_mapping(t_uint256,t_address)"
					},
					{
						"astId": 90,
						"contract": "NftContract.sol:PantherNft",
						"label": "getApproved",
						"offset": 0,
						"slot": "4",
						"type": "t_mapping(t_uint256,t_address)"
					},
					{
						"astId": 94,
						"contract": "NftContract.sol:PantherNft",
						"label": "tokenType",
						"offset": 0,
						"slot": "5",
						"type": "t_mapping(t_uint256,t_uint256)"
					},
					{
						"astId": 100,
						"contract": "NftContract.sol:PantherNft",
						"label": "isApprovedForAll",
						"offset": 0,
						"slot": "6",
						"type": "t_mapping(t_address,t_mapping(t_address,t_bool))"
					},
					{
						"astId": 1847,
						"contract": "NftContract.sol:PantherNft",
						"label": "_owner",
						"offset": 0,
						"slot": "7",
						"type": "t_address"
					},
					{
						"astId": 653,
						"contract": "NftContract.sol:PantherNft",
						"label": "baseURI",
						"offset": 0,
						"slot": "8",
						"type": "t_string_storage"
					},
					{
						"astId": 656,
						"contract": "NftContract.sol:PantherNft",
						"label": "tokenCounter",
						"offset": 0,
						"slot": "9",
						"type": "t_uint256"
					},
					{
						"astId": 658,
						"contract": "NftContract.sol:PantherNft",
						"label": "royaltyFeesInBips",
						"offset": 0,
						"slot": "10",
						"type": "t_uint96"
					},
					{
						"astId": 660,
						"contract": "NftContract.sol:PantherNft",
						"label": "royaltyAddress",
						"offset": 12,
						"slot": "10",
						"type": "t_address"
					},
					{
						"astId": 663,
						"contract": "NftContract.sol:PantherNft",
						"label": "publicAllowed",
						"offset": 0,
						"slot": "11",
						"type": "t_bool"
					},
					{
						"astId": 666,
						"contract": "NftContract.sol:PantherNft",
						"label": "MAX_SUPPLY",
						"offset": 1,
						"slot": "11",
						"type": "t_uint120"
					},
					{
						"astId": 668,
						"contract": "NftContract.sol:PantherNft",
						"label": "mintCost",
						"offset": 0,
						"slot": "12",
						"type": "t_uint256"
					},
					{
						"astId": 676,
						"contract": "NftContract.sol:PantherNft",
						"label": "signAddress",
						"offset": 0,
						"slot": "13",
						"type": "t_address"
					},
					{
						"astId": 679,
						"contract": "NftContract.sol:PantherNft",
						"label": "pauseMint",
						"offset": 20,
						"slot": "13",
						"type": "t_bool"
					}
				],
				"types": {
					"t_address": {
						"encoding": "inplace",
						"label": "address",
						"numberOfBytes": "20"
					},
					"t_bool": {
						"encoding": "inplace",
						"label": "bool",
						"numberOfBytes": "1"
					},
					"t_mapping(t_address,t_bool)": {
						"encoding": "mapping",
						"key": "t_address",
						"label": "mapping(address => bool)",
						"numberOfBytes": "32",
						"value": "t_bool"
					},
					"t_mapping(t_address,t_mapping(t_address,t_bool))": {
						"encoding": "mapping",
						"key": "t_address",
						"label": "mapping(address => mapping(address => bool))",
						"numberOfBytes": "32",
						"value": "t_mapping(t_address,t_bool)"
					},
					"t_mapping(t_address,t_uint256)": {
						"encoding": "mapping",
						"key": "t_address",
						"label": "mapping(address => uint256)",
						"numberOfBytes": "32",
						"value": "t_uint256"
					},
					"t_mapping(t_uint256,t_address)": {
						"encoding": "mapping",
						"key": "t_uint256",
						"label": "mapping(uint256 => address)",
						"numberOfBytes": "32",
						"value": "t_address"
					},
					"t_mapping(t_uint256,t_uint256)": {
						"encoding": "mapping",
						"key": "t_uint256",
						"label": "mapping(uint256 => uint256)",
						"numberOfBytes": "32",
						"value": "t_uint256"
					},
					"t_string_storage": {
						"encoding": "bytes",
						"label": "string",
						"numberOfBytes": "32"
					},
					"t_uint120": {
						"encoding": "inplace",
						"label": "uint120",
						"numberOfBytes": "15"
					},
					"t_uint256": {
						"encoding": "inplace",
						"label": "uint256",
						"numberOfBytes": "32"
					},
					"t_uint96": {
						"encoding": "inplace",
						"label": "uint96",
						"numberOfBytes": "12"
					}
				}
			},
			"userdoc": {
				"kind": "user",
				"methods": {},
				"version": 1
			}
		}
	}
}