{
	"ERC721.sol": {
		"ERC721": {
			"abi": [
				{
					"inputs": [
						{
							"internalType": "string",
							"name": "_name",
							"type": "string"
						},
						{
							"internalType": "string",
							"name": "_symbol",
							"type": "string"
						}
					],
					"stateMutability": "nonpayable",
					"type": "constructor"
				},
				{
					"anonymous": false,
					"inputs": [
						{
							"indexed": true,
							"internalType": "address",
							"name": "owner",
							"type": "address"
						},
						{
							"indexed": true,
							"internalType": "address",
							"name": "spender",
							"type": "address"
						},
						{
							"indexed": true,
							"internalType": "uint256",
							"name": "id",
							"type": "uint256"
						}
					],
					"name": "Approval",
					"type": "event"
				},
				{
					"anonymous": false,
					"inputs": [
						{
							"indexed": true,
							"internalType": "address",
							"name": "owner",
							"type": "address"
						},
						{
							"indexed": true,
							"internalType": "address",
							"name": "operator",
							"type": "address"
						},
						{
							"indexed": false,
							"internalType": "bool",
							"name": "approved",
							"type": "bool"
						}
					],
					"name": "ApprovalForAll",
					"type": "event"
				},
				{
					"anonymous": false,
					"inputs": [
						{
							"indexed": true,
							"internalType": "address",
							"name": "from",
							"type": "address"
						},
						{
							"indexed": true,
							"internalType": "address",
							"name": "to",
							"type": "address"
						},
						{
							"indexed": true,
							"internalType": "uint256",
							"name": "id",
							"type": "uint256"
						}
					],
					"name": "Transfer",
					"type": "event"
				},
				{
					"inputs": [
						{
							"internalType": "address",
							"name": "spender",
							"type": "address"
						},
						{
							"internalType": "uint256",
							"name": "id",
							"type": "uint256"
						}
					],
					"name": "approve",
					"outputs": [],
					"stateMutability": "nonpayable",
					"type": "function"
				},
				{
					"inputs": [
						{
							"internalType": "address",
							"name": "",
							"type": "address"
						}
					],
					"name": "balanceOf",
					"outputs": [
						{
							"internalType": "uint256",
							"name": "",
							"type": "uint256"
						}
					],
					"stateMutability": "view",
					"type": "function"
				},
				{
					"inputs": [
						{
							"internalType": "uint256",
							"name": "",
							"type": "uint256"
						}
					],
					"name": "getApproved",
					"outputs": [
						{
							"internalType": "address",
							"name": "",
							"type": "address"
						}
					],
					"stateMutability": "view",
					"type": "function"
				},
				{
					"inputs": [
						{
							"internalType": "address",
							"name": "",
							"type": "address"
						},
						{
							"internalType": "address",
							"name": "",
							"type": "address"
						}
					],
					"name": "isApprovedForAll",
					"outputs": [
						{
							"internalType": "bool",
							"name": "",
							"type": "bool"
						}
					],
					"stateMutability": "view",
					"type": "function"
				},
				{
					"inputs": [],
					"name": "name",
					"outputs": [
						{
							"internalType": "string",
							"name": "",
							"type": "string"
						}
					],
					"stateMutability": "view",
					"type": "function"
				},
				{
					"inputs": [
						{
							"internalType": "uint256",
							"name": "",
							"type": "uint256"
						}
					],
					"name": "ownerOf",
					"outputs": [
						{
							"internalType": "address",
							"name": "",
							"type": "address"
						}
					],
					"stateMutability": "view",
					"type": "function"
				},
				{
					"inputs": [
						{
							"internalType": "address",
							"name": "from",
							"type": "address"
						},
						{
							"internalType": "address",
							"name": "to",
							"type": "address"
						},
						{
							"internalType": "uint256",
							"name": "id",
							"type": "uint256"
						}
					],
					"name": "safeTransferFrom",
					"outputs": [],
					"stateMutability": "nonpayable",
					"type": "function"
				},
				{
					"inputs": [
						{
							"internalType": "address",
							"name": "from",
							"type": "address"
						},
						{
							"internalType": "address",
							"name": "to",
							"type": "address"
						},
						{
							"internalType": "uint256",
							"name": "id",
							"type": "uint256"
						},
						{
							"internalType": "bytes",
							"name": "data",
							"type": "bytes"
						}
					],
					"name": "safeTransferFrom",
					"outputs": [],
					"stateMutability": "nonpayable",
					"type": "function"
				},
				{
					"inputs": [
						{
							"internalType": "address",
							"name": "operator",
							"type": "address"
						},
						{
							"internalType": "bool",
							"name": "approved",
							"type": "bool"
						}
					],
					"name": "setApprovalForAll",
					"outputs": [],
					"stateMutability": "nonpayable",
					"type": "function"
				},
				{
					"inputs": [
						{
							"internalType": "bytes4",
							"name": "interfaceId",
							"type": "bytes4"
						}
					],
					"name": "supportsInterface",
					"outputs": [
						{
							"internalType": "bool",
							"name": "",
							"type": "bool"
						}
					],
					"stateMutability": "view",
					"type": "function"
				},
				{
					"inputs": [],
					"name": "symbol",
					"outputs": [
						{
							"internalType": "string",
							"name": "",
							"type": "string"
						}
					],
					"stateMutability": "view",
					"type": "function"
				},
				{
					"inputs": [
						{
							"internalType": "uint256",
							"name": "",
							"type": "uint256"
						}
					],
					"name": "tokenType",
					"outputs": [
						{
							"internalType": "uint256",
							"name": "",
							"type": "uint256"
						}
					],
					"stateMutability": "view",
					"type": "function"
				},
				{
					"inputs": [
						{
							"internalType": "uint256",
							"name": "tokenId",
							"type": "uint256"
						}
					],
					"name": "tokenURI",
					"outputs": [
						{
							"internalType": "string",
							"name": "",
							"type": "string"
						}
					],
					"stateMutability": "view",
					"type": "function"
				},
				{
					"inputs": [
						{
							"internalType": "address",
							"name": "from",
							"type": "address"
						},
						{
							"internalType": "address",
							"name": "to",
							"type": "address"
						},
						{
							"internalType": "uint256",
							"name": "id",
							"type": "uint256"
						}
					],
					"name": "transferFrom",
					"outputs": [],
					"stateMutability": "nonpayable",
					"type": "function"
				}
			],
			"devdoc": {
				"kind": "dev",
				"methods": {},
				"version": 1
			},
			"evm": {
				"assembly": "    /* \"ERC721.sol\":453:6679  contract ERC721 is Context {\r... */\n  mstore(0x40, 0x80)\n    /* \"ERC721.sol\":1682:1796  constructor(string memory _name, string memory _symbol) {\r... */\n  callvalue\n  dup1\n  iszero\n  tag_1\n  jumpi\n  0x00\n  dup1\n  revert\ntag_1:\n  pop\n  mload(0x40)\n  sub(codesize, bytecodeSize)\n  dup1\n  bytecodeSize\n  dup4\n  codecopy\n  dup2\n  add\n  0x40\n  dup2\n  swap1\n  mstore\n  tag_2\n  swap2\n  tag_3\n  jump\t// in\ntag_2:\n    /* \"ERC721.sol\":1749:1761  name = _name */\n  dup2\n  mload\n  tag_6\n  swap1\n    /* \"ERC721.sol\":1749:1753  name */\n  0x00\n  swap1\n    /* \"ERC721.sol\":1749:1761  name = _name */\n  0x20\n  dup6\n  add\n  swap1\n  tag_7\n  jump\t// in\ntag_6:\n  pop\n    /* \"ERC721.sol\":1772:1788  symbol = _symbol */\n  dup1\n  mload\n  tag_8\n  swap1\n    /* \"ERC721.sol\":1772:1778  symbol */\n  0x01\n  swap1\n    /* \"ERC721.sol\":1772:1788  symbol = _symbol */\n  0x20\n  dup5\n  add\n  swap1\n  tag_7\n  jump\t// in\ntag_8:\n  pop\n    /* \"ERC721.sol\":1682:1796  constructor(string memory _name, string memory _symbol) {\r... */\n  pop\n  pop\n    /* \"ERC721.sol\":453:6679  contract ERC721 is Context {\r... */\n  jump(tag_21)\ntag_7:\n  dup3\n  dup1\n  sload\n  tag_10\n  swap1\n  tag_11\n  jump\t// in\ntag_10:\n  swap1\n  0x00\n  mstore\n  keccak256(0x00, 0x20)\n  swap1\n  0x1f\n  add\n  0x20\n  swap1\n  div\n  dup2\n  add\n  swap3\n  dup3\n  tag_13\n  jumpi\n  0x00\n  dup6\n  sstore\n  jump(tag_16)\ntag_13:\n  dup3\n  0x1f\n  lt\n  tag_14\n  jumpi\n  dup1\n  mload\n  not(0xff)\n  and\n  dup4\n  dup1\n  add\n  or\n  dup6\n  sstore\n  jump(tag_16)\ntag_14:\n  dup3\n  dup1\n  add\n  0x01\n  add\n  dup6\n  sstore\n  dup3\n  iszero\n  tag_16\n  jumpi\n  swap2\n  dup3\n  add\ntag_15:\n  dup3\n  dup2\n  gt\n  iszero\n  tag_16\n  jumpi\n  dup3\n  mload\n  dup3\n  sstore\n  swap2\n  0x20\n  add\n  swap2\n  swap1\n  0x01\n  add\n  swap1\n  jump(tag_15)\ntag_16:\n  pop\n  tag_17\n  swap3\n  swap2\n  pop\n  tag_18\n  jump\t// in\ntag_17:\n  pop\n  swap1\n  jump\t// out\ntag_18:\ntag_19:\n  dup1\n  dup3\n  gt\n  iszero\n  tag_17\n  jumpi\n  0x00\n  dup2\n  sstore\n  0x01\n  add\n  jump(tag_19)\n    /* \"#utility.yul\":14:899   */\ntag_22:\n    /* \"#utility.yul\":68:73   */\n  0x00\n    /* \"#utility.yul\":121:124   */\n  dup3\n    /* \"#utility.yul\":114:118   */\n  0x1f\n    /* \"#utility.yul\":106:112   */\n  dup4\n    /* \"#utility.yul\":102:119   */\n  add\n    /* \"#utility.yul\":98:125   */\n  slt\n    /* \"#utility.yul\":88:143   */\n  tag_24\n  jumpi\n    /* \"#utility.yul\":139:140   */\n  0x00\n    /* \"#utility.yul\":136:137   */\n  dup1\n    /* \"#utility.yul\":129:141   */\n  revert\n    /* \"#utility.yul\":88:143   */\ntag_24:\n    /* \"#utility.yul\":162:175   */\n  dup2\n  mload\n  sub(shl(0x40, 0x01), 0x01)\n    /* \"#utility.yul\":224:234   */\n  dup1\n  dup3\n  gt\n    /* \"#utility.yul\":221:257   */\n  iszero\n  tag_26\n  jumpi\n    /* \"#utility.yul\":237:255   */\n  tag_26\n  tag_27\n  jump\t// in\ntag_26:\n    /* \"#utility.yul\":312:314   */\n  0x40\n    /* \"#utility.yul\":306:315   */\n  mload\n    /* \"#utility.yul\":280:282   */\n  0x1f\n    /* \"#utility.yul\":366:379   */\n  dup4\n  add\n  not(0x1f)\n    /* \"#utility.yul\":362:384   */\n  swap1\n  dup2\n  and\n    /* \"#utility.yul\":386:388   */\n  0x3f\n    /* \"#utility.yul\":358:389   */\n  add\n    /* \"#utility.yul\":354:394   */\n  and\n    /* \"#utility.yul\":342:395   */\n  dup2\n  add\n  swap1\n    /* \"#utility.yul\":410:428   */\n  dup3\n  dup3\n  gt\n    /* \"#utility.yul\":430:452   */\n  dup2\n  dup4\n  lt\n    /* \"#utility.yul\":407:453   */\n  or\n    /* \"#utility.yul\":404:476   */\n  iszero\n  tag_29\n  jumpi\n    /* \"#utility.yul\":456:474   */\n  tag_29\n  tag_27\n  jump\t// in\ntag_29:\n    /* \"#utility.yul\":496:506   */\n  dup2\n    /* \"#utility.yul\":492:494   */\n  0x40\n    /* \"#utility.yul\":485:507   */\n  mstore\n    /* \"#utility.yul\":531:533   */\n  dup4\n    /* \"#utility.yul\":523:529   */\n  dup2\n    /* \"#utility.yul\":516:534   */\n  mstore\n    /* \"#utility.yul\":553:557   */\n  0x20\n    /* \"#utility.yul\":543:557   */\n  swap3\n  pop\n    /* \"#utility.yul\":598:601   */\n  dup7\n    /* \"#utility.yul\":593:595   */\n  dup4\n    /* \"#utility.yul\":588:590   */\n  dup6\n    /* \"#utility.yul\":580:586   */\n  dup9\n    /* \"#utility.yul\":576:591   */\n  add\n    /* \"#utility.yul\":572:596   */\n  add\n    /* \"#utility.yul\":569:602   */\n  gt\n    /* \"#utility.yul\":566:619   */\n  iszero\n  tag_30\n  jumpi\n    /* \"#utility.yul\":615:616   */\n  0x00\n    /* \"#utility.yul\":612:613   */\n  dup1\n    /* \"#utility.yul\":605:617   */\n  revert\n    /* \"#utility.yul\":566:619   */\ntag_30:\n    /* \"#utility.yul\":637:638   */\n  0x00\n    /* \"#utility.yul\":628:638   */\n  swap2\n  pop\n    /* \"#utility.yul\":647:780   */\ntag_31:\n    /* \"#utility.yul\":661:663   */\n  dup4\n    /* \"#utility.yul\":658:659   */\n  dup3\n    /* \"#utility.yul\":655:664   */\n  lt\n    /* \"#utility.yul\":647:780   */\n  iszero\n  tag_33\n  jumpi\n    /* \"#utility.yul\":749:763   */\n  dup6\n  dup3\n  add\n    /* \"#utility.yul\":745:768   */\n  dup4\n  add\n    /* \"#utility.yul\":739:769   */\n  mload\n    /* \"#utility.yul\":718:732   */\n  dup2\n  dup4\n  add\n    /* \"#utility.yul\":714:737   */\n  dup5\n  add\n    /* \"#utility.yul\":707:770   */\n  mstore\n    /* \"#utility.yul\":672:682   */\n  swap1\n  dup3\n  add\n  swap1\n    /* \"#utility.yul\":647:780   */\n  jump(tag_31)\ntag_33:\n    /* \"#utility.yul\":798:800   */\n  dup4\n    /* \"#utility.yul\":795:796   */\n  dup3\n    /* \"#utility.yul\":792:801   */\n  gt\n    /* \"#utility.yul\":789:869   */\n  iszero\n  tag_34\n  jumpi\n    /* \"#utility.yul\":857:858   */\n  0x00\n    /* \"#utility.yul\":852:854   */\n  dup4\n    /* \"#utility.yul\":847:849   */\n  dup6\n    /* \"#utility.yul\":839:845   */\n  dup4\n    /* \"#utility.yul\":835:850   */\n  add\n    /* \"#utility.yul\":831:855   */\n  add\n    /* \"#utility.yul\":824:859   */\n  mstore\n    /* \"#utility.yul\":789:869   */\ntag_34:\n    /* \"#utility.yul\":887:893   */\n  swap7\n    /* \"#utility.yul\":14:899   */\n  swap6\n  pop\n  pop\n  pop\n  pop\n  pop\n  pop\n  jump\t// out\n    /* \"#utility.yul\":904:1466   */\ntag_3:\n    /* \"#utility.yul\":1003:1009   */\n  0x00\n    /* \"#utility.yul\":1011:1017   */\n  dup1\n    /* \"#utility.yul\":1064:1066   */\n  0x40\n    /* \"#utility.yul\":1052:1061   */\n  dup4\n    /* \"#utility.yul\":1043:1050   */\n  dup6\n    /* \"#utility.yul\":1039:1062   */\n  sub\n    /* \"#utility.yul\":1035:1067   */\n  slt\n    /* \"#utility.yul\":1032:1084   */\n  iszero\n  tag_36\n  jumpi\n    /* \"#utility.yul\":1080:1081   */\n  0x00\n    /* \"#utility.yul\":1077:1078   */\n  dup1\n    /* \"#utility.yul\":1070:1082   */\n  revert\n    /* \"#utility.yul\":1032:1084   */\ntag_36:\n    /* \"#utility.yul\":1107:1123   */\n  dup3\n  mload\n  sub(shl(0x40, 0x01), 0x01)\n    /* \"#utility.yul\":1172:1186   */\n  dup1\n  dup3\n  gt\n    /* \"#utility.yul\":1169:1203   */\n  iszero\n  tag_37\n  jumpi\n    /* \"#utility.yul\":1199:1200   */\n  0x00\n    /* \"#utility.yul\":1196:1197   */\n  dup1\n    /* \"#utility.yul\":1189:1201   */\n  revert\n    /* \"#utility.yul\":1169:1203   */\ntag_37:\n    /* \"#utility.yul\":1222:1283   */\n  tag_38\n    /* \"#utility.yul\":1275:1282   */\n  dup7\n    /* \"#utility.yul\":1266:1272   */\n  dup4\n    /* \"#utility.yul\":1255:1264   */\n  dup8\n    /* \"#utility.yul\":1251:1273   */\n  add\n    /* \"#utility.yul\":1222:1283   */\n  tag_22\n  jump\t// in\ntag_38:\n    /* \"#utility.yul\":1212:1283   */\n  swap4\n  pop\n    /* \"#utility.yul\":1329:1331   */\n  0x20\n    /* \"#utility.yul\":1318:1327   */\n  dup6\n    /* \"#utility.yul\":1314:1332   */\n  add\n    /* \"#utility.yul\":1308:1333   */\n  mload\n    /* \"#utility.yul\":1292:1333   */\n  swap2\n  pop\n    /* \"#utility.yul\":1358:1360   */\n  dup1\n    /* \"#utility.yul\":1348:1356   */\n  dup3\n    /* \"#utility.yul\":1345:1361   */\n  gt\n    /* \"#utility.yul\":1342:1378   */\n  iszero\n  tag_39\n  jumpi\n    /* \"#utility.yul\":1374:1375   */\n  0x00\n    /* \"#utility.yul\":1371:1372   */\n  dup1\n    /* \"#utility.yul\":1364:1376   */\n  revert\n    /* \"#utility.yul\":1342:1378   */\ntag_39:\n  pop\n    /* \"#utility.yul\":1397:1460   */\n  tag_40\n    /* \"#utility.yul\":1452:1459   */\n  dup6\n    /* \"#utility.yul\":1441:1449   */\n  dup3\n    /* \"#utility.yul\":1430:1439   */\n  dup7\n    /* \"#utility.yul\":1426:1450   */\n  add\n    /* \"#utility.yul\":1397:1460   */\n  tag_22\n  jump\t// in\ntag_40:\n    /* \"#utility.yul\":1387:1460   */\n  swap2\n  pop\n  pop\n    /* \"#utility.yul\":904:1466   */\n  swap3\n  pop\n  swap3\n  swap1\n  pop\n  jump\t// out\n    /* \"#utility.yul\":1471:1851   */\ntag_11:\n    /* \"#utility.yul\":1550:1551   */\n  0x01\n    /* \"#utility.yul\":1546:1558   */\n  dup2\n  dup2\n  shr\n  swap1\n    /* \"#utility.yul\":1593:1605   */\n  dup3\n  and\n  dup1\n    /* \"#utility.yul\":1614:1675   */\n  tag_42\n  jumpi\n    /* \"#utility.yul\":1668:1672   */\n  0x7f\n    /* \"#utility.yul\":1660:1666   */\n  dup3\n    /* \"#utility.yul\":1656:1673   */\n  and\n    /* \"#utility.yul\":1646:1673   */\n  swap2\n  pop\n    /* \"#utility.yul\":1614:1675   */\ntag_42:\n    /* \"#utility.yul\":1721:1723   */\n  0x20\n    /* \"#utility.yul\":1713:1719   */\n  dup3\n    /* \"#utility.yul\":1710:1724   */\n  lt\n    /* \"#utility.yul\":1690:1708   */\n  dup2\n    /* \"#utility.yul\":1687:1725   */\n  eq\n    /* \"#utility.yul\":1684:1845   */\n  iszero\n  tag_43\n  jumpi\n    /* \"#utility.yul\":1767:1777   */\n  0x4e487b71\n    /* \"#utility.yul\":1762:1765   */\n  0xe0\n    /* \"#utility.yul\":1758:1778   */\n  shl\n    /* \"#utility.yul\":1755:1756   */\n  0x00\n    /* \"#utility.yul\":1748:1779   */\n  mstore\n    /* \"#utility.yul\":1802:1806   */\n  0x22\n    /* \"#utility.yul\":1799:1800   */\n  0x04\n    /* \"#utility.yul\":1792:1807   */\n  mstore\n    /* \"#utility.yul\":1830:1834   */\n  0x24\n    /* \"#utility.yul\":1827:1828   */\n  0x00\n    /* \"#utility.yul\":1820:1835   */\n  revert\n    /* \"#utility.yul\":1684:1845   */\ntag_43:\n  pop\n    /* \"#utility.yul\":1471:1851   */\n  swap2\n  swap1\n  pop\n  jump\t// out\n    /* \"#utility.yul\":1856:1983   */\ntag_27:\n    /* \"#utility.yul\":1917:1927   */\n  0x4e487b71\n    /* \"#utility.yul\":1912:1915   */\n  0xe0\n    /* \"#utility.yul\":1908:1928   */\n  shl\n    /* \"#utility.yul\":1905:1906   */\n  0x00\n    /* \"#utility.yul\":1898:1929   */\n  mstore\n    /* \"#utility.yul\":1948:1952   */\n  0x41\n    /* \"#utility.yul\":1945:1946   */\n  0x04\n    /* \"#utility.yul\":1938:1953   */\n  mstore\n    /* \"#utility.yul\":1972:1976   */\n  0x24\n    /* \"#utility.yul\":1969:1970   */\n  0x00\n    /* \"#utility.yul\":1962:1977   */\n  revert\n    /* \"#utility.yul\":1856:1983   */\ntag_21:\n    /* \"ERC721.sol\":453:6679  contract ERC721 is Context {\r... */\n  dataSize(sub_0)\n  dup1\n  dataOffset(sub_0)\n  0x00\n  codecopy\n  0x00\n  return\nstop\n\nsub_0: assembly {\n        /* \"ERC721.sol\":453:6679  contract ERC721 is Context {\r... */\n      mstore(0x40, 0x80)\n      callvalue\n      dup1\n      iszero\n      tag_1\n      jumpi\n      0x00\n      dup1\n      revert\n    tag_1:\n      pop\n      jumpi(tag_2, lt(calldatasize, 0x04))\n      shr(0xe0, calldataload(0x00))\n      dup1\n      0x70a08231\n      gt\n      tag_17\n      jumpi\n      dup1\n      0xb88d4fde\n      gt\n      tag_18\n      jumpi\n      dup1\n      0xb88d4fde\n      eq\n      tag_13\n      jumpi\n      dup1\n      0xc87b56dd\n      eq\n      tag_14\n      jumpi\n      dup1\n      0xe6c3b1f6\n      eq\n      tag_15\n      jumpi\n      dup1\n      0xe985e9c5\n      eq\n      tag_16\n      jumpi\n      0x00\n      dup1\n      revert\n    tag_18:\n      dup1\n      0x70a08231\n      eq\n      tag_10\n      jumpi\n      dup1\n      0x95d89b41\n      eq\n      tag_11\n      jumpi\n      dup1\n      0xa22cb465\n      eq\n      tag_12\n      jumpi\n      0x00\n      dup1\n      revert\n    tag_17:\n      dup1\n      0x095ea7b3\n      gt\n      tag_19\n      jumpi\n      dup1\n      0x095ea7b3\n      eq\n      tag_6\n      jumpi\n      dup1\n      0x23b872dd\n      eq\n      tag_7\n      jumpi\n      dup1\n      0x42842e0e\n      eq\n      tag_8\n      jumpi\n      dup1\n      0x6352211e\n      eq\n      tag_9\n      jumpi\n      0x00\n      dup1\n      revert\n    tag_19:\n      dup1\n      0x01ffc9a7\n      eq\n      tag_3\n      jumpi\n      dup1\n      0x06fdde03\n      eq\n      tag_4\n      jumpi\n      dup1\n      0x081812fc\n      eq\n      tag_5\n      jumpi\n    tag_2:\n      0x00\n      dup1\n      revert\n        /* \"ERC721.sol\":892:1329  function supportsInterface(bytes4 interfaceId)\r... */\n    tag_3:\n      tag_20\n      tag_21\n      calldatasize\n      0x04\n      tag_22\n      jump\t// in\n    tag_21:\n      tag_23\n      jump\t// in\n    tag_20:\n      mload(0x40)\n        /* \"#utility.yul\":5964:5978   */\n      swap1\n      iszero\n        /* \"#utility.yul\":5957:5979   */\n      iszero\n        /* \"#utility.yul\":5939:5980   */\n      dup2\n      mstore\n        /* \"#utility.yul\":5927:5929   */\n      0x20\n        /* \"#utility.yul\":5912:5930   */\n      add\n        /* \"ERC721.sol\":892:1329  function supportsInterface(bytes4 interfaceId)\r... */\n    tag_24:\n      mload(0x40)\n      dup1\n      swap2\n      sub\n      swap1\n      return\n        /* \"ERC721.sol\":1337:1355  string public name */\n    tag_4:\n      tag_26\n      tag_27\n      jump\t// in\n    tag_26:\n      mload(0x40)\n      tag_24\n      swap2\n      swap1\n      tag_29\n      jump\t// in\n        /* \"ERC721.sol\":1497:1543  mapping(uint256 => address) public getApproved */\n    tag_5:\n      tag_30\n      tag_31\n      calldatasize\n      0x04\n      tag_32\n      jump\t// in\n    tag_31:\n      mstore(0x20, 0x04)\n      0x00\n      swap1\n      dup2\n      mstore\n      0x40\n      swap1\n      keccak256\n      sload\n      0xffffffffffffffffffffffffffffffffffffffff\n      and\n      dup2\n      jump\n    tag_30:\n      mload(0x40)\n        /* \"#utility.yul\":4645:4687   */\n      0xffffffffffffffffffffffffffffffffffffffff\n        /* \"#utility.yul\":4633:4688   */\n      swap1\n      swap2\n      and\n        /* \"#utility.yul\":4615:4689   */\n      dup2\n      mstore\n        /* \"#utility.yul\":4603:4605   */\n      0x20\n        /* \"#utility.yul\":4588:4606   */\n      add\n        /* \"ERC721.sol\":1497:1543  mapping(uint256 => address) public getApproved */\n      tag_24\n        /* \"#utility.yul\":4469:4695   */\n      jump\n        /* \"ERC721.sol\":2633:2959  function approve(address spender, uint256 id) public virtual {\r... */\n    tag_6:\n      tag_36\n      tag_37\n      calldatasize\n      0x04\n      tag_38\n      jump\t// in\n    tag_37:\n      tag_39\n      jump\t// in\n    tag_36:\n      stop\n        /* \"ERC721.sol\":3182:3802  function transferFrom(\r... */\n    tag_7:\n      tag_36\n      tag_41\n      calldatasize\n      0x04\n      tag_42\n      jump\t// in\n    tag_41:\n      tag_43\n      jump\t// in\n        /* \"ERC721.sol\":3810:4322  function safeTransferFrom(\r... */\n    tag_8:\n      tag_36\n      tag_45\n      calldatasize\n      0x04\n      tag_42\n      jump\t// in\n    tag_45:\n      tag_46\n      jump\t// in\n        /* \"ERC721.sol\":1446:1488  mapping(uint256 => address) public ownerOf */\n    tag_9:\n      tag_30\n      tag_48\n      calldatasize\n      0x04\n      tag_32\n      jump\t// in\n    tag_48:\n      mstore(0x20, 0x03)\n      0x00\n      swap1\n      dup2\n      mstore\n      0x40\n      swap1\n      keccak256\n      sload\n      0xffffffffffffffffffffffffffffffffffffffff\n      and\n      dup2\n      jump\n        /* \"ERC721.sol\":1393:1437  mapping(address => uint256) public balanceOf */\n    tag_10:\n      tag_51\n      tag_52\n      calldatasize\n      0x04\n      tag_53\n      jump\t// in\n    tag_52:\n      mstore(0x20, 0x02)\n      0x00\n      swap1\n      dup2\n      mstore\n      0x40\n      swap1\n      keccak256\n      sload\n      dup2\n      jump\n    tag_51:\n      mload(0x40)\n        /* \"#utility.yul\":8424:8449   */\n      swap1\n      dup2\n      mstore\n        /* \"#utility.yul\":8412:8414   */\n      0x20\n        /* \"#utility.yul\":8397:8415   */\n      add\n        /* \"ERC721.sol\":1393:1437  mapping(address => uint256) public balanceOf */\n      tag_24\n        /* \"#utility.yul\":8278:8455   */\n      jump\n        /* \"ERC721.sol\":1364:1384  string public symbol */\n    tag_11:\n      tag_26\n      tag_58\n      jump\t// in\n        /* \"ERC721.sol\":2967:3174  function setApprovalForAll(address operator, bool approved) public virtual {\r... */\n    tag_12:\n      tag_36\n      tag_61\n      calldatasize\n      0x04\n      tag_62\n      jump\t// in\n    tag_61:\n      tag_63\n      jump\t// in\n        /* \"ERC721.sol\":4330:4872  function safeTransferFrom(\r... */\n    tag_13:\n      tag_36\n      tag_65\n      calldatasize\n      0x04\n      tag_66\n      jump\t// in\n    tag_65:\n      tag_67\n      jump\t// in\n        /* \"ERC721.sol\":1804:2356  function tokenURI(uint256 tokenId)\r... */\n    tag_14:\n      tag_26\n      tag_69\n      calldatasize\n      0x04\n      tag_32\n      jump\t// in\n    tag_69:\n      tag_70\n      jump\t// in\n        /* \"ERC721.sol\":1552:1596  mapping(uint256 => uint256) public tokenType */\n    tag_15:\n      tag_51\n      tag_73\n      calldatasize\n      0x04\n      tag_32\n      jump\t// in\n    tag_73:\n      mstore(0x20, 0x05)\n      0x00\n      swap1\n      dup2\n      mstore\n      0x40\n      swap1\n      keccak256\n      sload\n      dup2\n      jump\n        /* \"ERC721.sol\":1605:1673  mapping(address => mapping(address => bool)) public isApprovedForAll */\n    tag_16:\n      tag_20\n      tag_77\n      calldatasize\n      0x04\n      tag_78\n      jump\t// in\n    tag_77:\n      0x06\n      0x20\n      swap1\n      dup2\n      mstore\n      0x00\n      swap3\n      dup4\n      mstore\n      0x40\n      dup1\n      dup5\n      keccak256\n      swap1\n      swap2\n      mstore\n      swap1\n      dup3\n      mstore\n      swap1\n      keccak256\n      sload\n      0xff\n      and\n      dup2\n      jump\n        /* \"ERC721.sol\":892:1329  function supportsInterface(bytes4 interfaceId)\r... */\n    tag_23:\n        /* \"ERC721.sol\":1004:1008  bool */\n      0x00\n        /* \"ERC721.sol\":1046:1071  interfaceId == 0x01ffc9a7 */\n      0x01ffc9a700000000000000000000000000000000000000000000000000000000\n      0xffffffff00000000000000000000000000000000000000000000000000000000\n      dup4\n      and\n      eq\n      dup1\n        /* \"ERC721.sol\":1046:1147  interfaceId == 0x01ffc9a7 || // ERC165 Interface ID for ERC165\r... */\n      tag_82\n      jumpi\n      pop\n        /* \"ERC721.sol\":1122:1147  interfaceId == 0x80ac58cd */\n      0x80ac58cd00000000000000000000000000000000000000000000000000000000\n      0xffffffff00000000000000000000000000000000000000000000000000000000\n      dup4\n      and\n      eq\n        /* \"ERC721.sol\":1046:1147  interfaceId == 0x01ffc9a7 || // ERC165 Interface ID for ERC165\r... */\n    tag_82:\n        /* \"ERC721.sol\":1046:1223  interfaceId == 0x01ffc9a7 || // ERC165 Interface ID for ERC165\r... */\n      dup1\n      tag_83\n      jumpi\n      pop\n        /* \"ERC721.sol\":1198:1223  interfaceId == 0x5b5e139f */\n      0x5b5e139f00000000000000000000000000000000000000000000000000000000\n      0xffffffff00000000000000000000000000000000000000000000000000000000\n      dup4\n      and\n      eq\n        /* \"ERC721.sol\":1046:1223  interfaceId == 0x01ffc9a7 || // ERC165 Interface ID for ERC165\r... */\n    tag_83:\n        /* \"ERC721.sol\":1046:1307  interfaceId == 0x01ffc9a7 || // ERC165 Interface ID for ERC165\r... */\n      dup1\n      tag_84\n      jumpi\n      pop\n        /* \"ERC721.sol\":1282:1307  interfaceId == 0x2a55205a */\n      0x2a55205a00000000000000000000000000000000000000000000000000000000\n      0xffffffff00000000000000000000000000000000000000000000000000000000\n      dup4\n      and\n      eq\n        /* \"ERC721.sol\":1046:1307  interfaceId == 0x01ffc9a7 || // ERC165 Interface ID for ERC165\r... */\n    tag_84:\n        /* \"ERC721.sol\":1026:1307  return\r... */\n      swap3\n        /* \"ERC721.sol\":892:1329  function supportsInterface(bytes4 interfaceId)\r... */\n      swap2\n      pop\n      pop\n      jump\t// out\n        /* \"ERC721.sol\":1337:1355  string public name */\n    tag_27:\n      0x00\n      dup1\n      sload\n      tag_85\n      swap1\n      tag_86\n      jump\t// in\n    tag_85:\n      dup1\n      0x1f\n      add\n      0x20\n      dup1\n      swap2\n      div\n      mul\n      0x20\n      add\n      mload(0x40)\n      swap1\n      dup2\n      add\n      0x40\n      mstore\n      dup1\n      swap3\n      swap2\n      swap1\n      dup2\n      dup2\n      mstore\n      0x20\n      add\n      dup3\n      dup1\n      sload\n      tag_87\n      swap1\n      tag_86\n      jump\t// in\n    tag_87:\n      dup1\n      iszero\n      tag_88\n      jumpi\n      dup1\n      0x1f\n      lt\n      tag_89\n      jumpi\n      0x0100\n      dup1\n      dup4\n      sload\n      div\n      mul\n      dup4\n      mstore\n      swap2\n      0x20\n      add\n      swap2\n      jump(tag_88)\n    tag_89:\n      dup3\n      add\n      swap2\n      swap1\n      0x00\n      mstore\n      keccak256(0x00, 0x20)\n      swap1\n    tag_90:\n      dup2\n      sload\n      dup2\n      mstore\n      swap1\n      0x01\n      add\n      swap1\n      0x20\n      add\n      dup1\n      dup4\n      gt\n      tag_90\n      jumpi\n      dup3\n      swap1\n      sub\n      0x1f\n      and\n      dup3\n      add\n      swap2\n    tag_88:\n      pop\n      pop\n      pop\n      pop\n      pop\n      dup2\n      jump\t// out\n        /* \"ERC721.sol\":2633:2959  function approve(address spender, uint256 id) public virtual {\r... */\n    tag_39:\n        /* \"ERC721.sol\":2705:2718  address owner */\n      0x00\n        /* \"ERC721.sol\":2721:2732  ownerOf[id] */\n      dup2\n      dup2\n      mstore\n        /* \"ERC721.sol\":2721:2728  ownerOf */\n      0x03\n        /* \"ERC721.sol\":2721:2732  ownerOf[id] */\n      0x20\n      mstore\n      0x40\n      swap1\n      keccak256\n      sload\n      0xffffffffffffffffffffffffffffffffffffffff\n      and\n        /* \"ERC721.sol\":2767:2777  msg.sender */\n      caller\n        /* \"ERC721.sol\":2767:2786  msg.sender == owner */\n      dup2\n      eq\n      dup1\n        /* \"ERC721.sol\":2767:2825  msg.sender == owner || isApprovedForAll[owner][msg.sender] */\n      tag_92\n      jumpi\n      pop\n        /* \"ERC721.sol\":2790:2813  isApprovedForAll[owner] */\n      0xffffffffffffffffffffffffffffffffffffffff\n      dup2\n      and\n      0x00\n      swap1\n      dup2\n      mstore\n        /* \"ERC721.sol\":2790:2806  isApprovedForAll */\n      0x06\n        /* \"ERC721.sol\":2790:2813  isApprovedForAll[owner] */\n      0x20\n      swap1\n      dup2\n      mstore\n      0x40\n      dup1\n      dup4\n      keccak256\n        /* \"ERC721.sol\":2814:2824  msg.sender */\n      caller\n        /* \"ERC721.sol\":2790:2825  isApprovedForAll[owner][msg.sender] */\n      dup5\n      mstore\n      swap1\n      swap2\n      mstore\n      swap1\n      keccak256\n      sload\n      0xff\n      and\n        /* \"ERC721.sol\":2767:2825  msg.sender == owner || isApprovedForAll[owner][msg.sender] */\n    tag_92:\n        /* \"ERC721.sol\":2745:2867  require(\r... */\n      tag_93\n      jumpi\n      mload(0x40)\n      shl(0xe5, 0x461bcd)\n      dup2\n      mstore\n        /* \"#utility.yul\":8137:8139   */\n      0x20\n        /* \"ERC721.sol\":2745:2867  require(\r... */\n      0x04\n      dup3\n      add\n        /* \"#utility.yul\":8119:8140   */\n      mstore\n        /* \"#utility.yul\":8176:8178   */\n      0x0e\n        /* \"#utility.yul\":8156:8174   */\n      0x24\n      dup3\n      add\n        /* \"#utility.yul\":8149:8179   */\n      mstore\n        /* \"#utility.yul\":8215:8231   */\n      0x4e6f7420617574686f72697a6564000000000000000000000000000000000000\n        /* \"#utility.yul\":8195:8213   */\n      0x44\n      dup3\n      add\n        /* \"#utility.yul\":8188:8232   */\n      mstore\n        /* \"#utility.yul\":8249:8267   */\n      0x64\n      add\n        /* \"ERC721.sol\":2745:2867  require(\r... */\n    tag_94:\n      mload(0x40)\n      dup1\n      swap2\n      sub\n      swap1\n      revert\n    tag_93:\n        /* \"ERC721.sol\":2880:2895  getApproved[id] */\n      0x00\n      dup3\n      dup2\n      mstore\n        /* \"ERC721.sol\":2880:2891  getApproved */\n      0x04\n        /* \"ERC721.sol\":2880:2895  getApproved[id] */\n      0x20\n      mstore\n      0x40\n      dup1\n      dup3\n      keccak256\n        /* \"ERC721.sol\":2880:2905  getApproved[id] = spender */\n      dup1\n      sload\n      0xffffffffffffffffffffffff0000000000000000000000000000000000000000\n      and\n      0xffffffffffffffffffffffffffffffffffffffff\n      dup8\n      dup2\n      and\n      swap2\n      dup3\n      or\n      swap1\n      swap3\n      sstore\n        /* \"ERC721.sol\":2923:2951  Approval(owner, spender, id) */\n      swap2\n      mload\n        /* \"ERC721.sol\":2880:2895  getApproved[id] */\n      dup6\n      swap4\n        /* \"ERC721.sol\":2923:2951  Approval(owner, spender, id) */\n      swap2\n      dup6\n      and\n      swap2\n      0x8c5be1e5ebec7d5bd14f71427d1e84f3dd0314c0f7b2291e5b200ac8c7c3b925\n      swap2\n      log4\n        /* \"ERC721.sol\":2694:2959  {\r... */\n      pop\n        /* \"ERC721.sol\":2633:2959  function approve(address spender, uint256 id) public virtual {\r... */\n      pop\n      pop\n      jump\t// out\n        /* \"ERC721.sol\":3182:3802  function transferFrom(\r... */\n    tag_43:\n        /* \"ERC721.sol\":3318:3329  ownerOf[id] */\n      0x00\n      dup2\n      dup2\n      mstore\n        /* \"ERC721.sol\":3318:3325  ownerOf */\n      0x03\n        /* \"ERC721.sol\":3318:3329  ownerOf[id] */\n      0x20\n      mstore\n      0x40\n      swap1\n      keccak256\n      sload\n      0xffffffffffffffffffffffffffffffffffffffff\n        /* \"ERC721.sol\":3310:3329  from == ownerOf[id] */\n      dup5\n      dup2\n      and\n        /* \"ERC721.sol\":3318:3329  ownerOf[id] */\n      swap2\n      and\n        /* \"ERC721.sol\":3310:3329  from == ownerOf[id] */\n      eq\n        /* \"ERC721.sol\":3302:3344  require(from == ownerOf[id], \"WRONG FROM\") */\n      tag_97\n      jumpi\n      mload(0x40)\n      shl(0xe5, 0x461bcd)\n      dup2\n      mstore\n        /* \"#utility.yul\":6753:6755   */\n      0x20\n        /* \"ERC721.sol\":3302:3344  require(from == ownerOf[id], \"WRONG FROM\") */\n      0x04\n      dup3\n      add\n        /* \"#utility.yul\":6735:6756   */\n      mstore\n        /* \"#utility.yul\":6792:6794   */\n      0x0a\n        /* \"#utility.yul\":6772:6790   */\n      0x24\n      dup3\n      add\n        /* \"#utility.yul\":6765:6795   */\n      mstore\n        /* \"#utility.yul\":6831:6843   */\n      0x57524f4e472046524f4d00000000000000000000000000000000000000000000\n        /* \"#utility.yul\":6811:6829   */\n      0x44\n      dup3\n      add\n        /* \"#utility.yul\":6804:6844   */\n      mstore\n        /* \"#utility.yul\":6861:6879   */\n      0x64\n      add\n        /* \"ERC721.sol\":3302:3344  require(from == ownerOf[id], \"WRONG FROM\") */\n      tag_94\n        /* \"#utility.yul\":6551:6885   */\n      jump\n        /* \"ERC721.sol\":3302:3344  require(from == ownerOf[id], \"WRONG FROM\") */\n    tag_97:\n        /* \"ERC721.sol\":3365:3381  to != address(0) */\n      0xffffffffffffffffffffffffffffffffffffffff\n      dup3\n      and\n        /* \"ERC721.sol\":3357:3394  require(to != address(0), \"WRONG TO\") */\n      tag_100\n      jumpi\n      mload(0x40)\n      shl(0xe5, 0x461bcd)\n      dup2\n      mstore\n        /* \"#utility.yul\":6417:6419   */\n      0x20\n        /* \"ERC721.sol\":3357:3394  require(to != address(0), \"WRONG TO\") */\n      0x04\n      dup3\n      add\n        /* \"#utility.yul\":6399:6420   */\n      mstore\n        /* \"#utility.yul\":6456:6457   */\n      0x08\n        /* \"#utility.yul\":6436:6454   */\n      0x24\n      dup3\n      add\n        /* \"#utility.yul\":6429:6458   */\n      mstore\n        /* \"#utility.yul\":6494:6504   */\n      0x57524f4e4720544f000000000000000000000000000000000000000000000000\n        /* \"#utility.yul\":6474:6492   */\n      0x44\n      dup3\n      add\n        /* \"#utility.yul\":6467:6505   */\n      mstore\n        /* \"#utility.yul\":6522:6540   */\n      0x64\n      add\n        /* \"ERC721.sol\":3357:3394  require(to != address(0), \"WRONG TO\") */\n      tag_94\n        /* \"#utility.yul\":6215:6546   */\n      jump\n        /* \"ERC721.sol\":3357:3394  require(to != address(0), \"WRONG TO\") */\n    tag_100:\n        /* \"ERC721.sol\":3429:3439  msg.sender */\n      caller\n        /* \"ERC721.sol\":3429:3447  msg.sender == from */\n      0xffffffffffffffffffffffffffffffffffffffff\n      dup5\n      and\n      eq\n      dup1\n        /* \"ERC721.sol\":3429:3502  msg.sender == from ||\r... */\n      tag_103\n      jumpi\n      pop\n        /* \"ERC721.sol\":3468:3490  isApprovedForAll[from] */\n      0xffffffffffffffffffffffffffffffffffffffff\n      dup4\n      and\n      0x00\n      swap1\n      dup2\n      mstore\n        /* \"ERC721.sol\":3468:3484  isApprovedForAll */\n      0x06\n        /* \"ERC721.sol\":3468:3490  isApprovedForAll[from] */\n      0x20\n      swap1\n      dup2\n      mstore\n      0x40\n      dup1\n      dup4\n      keccak256\n        /* \"ERC721.sol\":3491:3501  msg.sender */\n      caller\n        /* \"ERC721.sol\":3468:3502  isApprovedForAll[from][msg.sender] */\n      dup5\n      mstore\n      swap1\n      swap2\n      mstore\n      swap1\n      keccak256\n      sload\n      0xff\n      and\n        /* \"ERC721.sol\":3429:3502  msg.sender == from ||\r... */\n    tag_103:\n        /* \"ERC721.sol\":3429:3552  msg.sender == from ||\r... */\n      dup1\n      tag_104\n      jumpi\n      pop\n        /* \"ERC721.sol\":3537:3552  getApproved[id] */\n      0x00\n      dup2\n      dup2\n      mstore\n        /* \"ERC721.sol\":3537:3548  getApproved */\n      0x04\n        /* \"ERC721.sol\":3537:3552  getApproved[id] */\n      0x20\n      mstore\n      0x40\n      swap1\n      keccak256\n      sload\n      0xffffffffffffffffffffffffffffffffffffffff\n      and\n        /* \"ERC721.sol\":3523:3533  msg.sender */\n      caller\n        /* \"ERC721.sol\":3523:3552  msg.sender == getApproved[id] */\n      eq\n        /* \"ERC721.sol\":3429:3552  msg.sender == from ||\r... */\n    tag_104:\n        /* \"ERC721.sol\":3407:3594  require(\r... */\n      tag_105\n      jumpi\n      mload(0x40)\n      shl(0xe5, 0x461bcd)\n      dup2\n      mstore\n        /* \"#utility.yul\":7794:7796   */\n      0x20\n        /* \"ERC721.sol\":3407:3594  require(\r... */\n      0x04\n      dup3\n      add\n        /* \"#utility.yul\":7776:7797   */\n      mstore\n        /* \"#utility.yul\":7833:7835   */\n      0x0e\n        /* \"#utility.yul\":7813:7831   */\n      0x24\n      dup3\n      add\n        /* \"#utility.yul\":7806:7836   */\n      mstore\n        /* \"#utility.yul\":7872:7888   */\n      0x4e4f5420415554484f52495a4544000000000000000000000000000000000000\n        /* \"#utility.yul\":7852:7870   */\n      0x44\n      dup3\n      add\n        /* \"#utility.yul\":7845:7889   */\n      mstore\n        /* \"#utility.yul\":7906:7924   */\n      0x64\n      add\n        /* \"ERC721.sol\":3407:3594  require(\r... */\n      tag_94\n        /* \"#utility.yul\":7592:7930   */\n      jump\n        /* \"ERC721.sol\":3407:3594  require(\r... */\n    tag_105:\n        /* \"ERC721.sol\":3632:3647  balanceOf[from] */\n      0xffffffffffffffffffffffffffffffffffffffff\n      dup1\n      dup5\n      and\n      0x00\n      dup2\n      dup2\n      mstore\n        /* \"ERC721.sol\":3632:3641  balanceOf */\n      0x02\n        /* \"ERC721.sol\":3632:3647  balanceOf[from] */\n      0x20\n      swap1\n      dup2\n      mstore\n      0x40\n      dup1\n      dup4\n      keccak256\n        /* \"ERC721.sol\":3632:3649  balanceOf[from]-- */\n      dup1\n      sload\n      0xffffffffffffffffffffffffffffffffffffffffffffffffffffffffffffffff\n      add\n      swap1\n      sstore\n        /* \"ERC721.sol\":3664:3677  balanceOf[to] */\n      swap4\n      dup7\n      and\n      dup1\n      dup4\n      mstore\n      dup5\n      dup4\n      keccak256\n        /* \"ERC721.sol\":3664:3679  balanceOf[to]++ */\n      dup1\n      sload\n        /* \"ERC721.sol\":3632:3649  balanceOf[from]-- */\n      0x01\n        /* \"ERC721.sol\":3664:3679  balanceOf[to]++ */\n      add\n      swap1\n      sstore\n        /* \"ERC721.sol\":3703:3714  ownerOf[id] */\n      dup6\n      dup4\n      mstore\n        /* \"ERC721.sol\":3703:3710  ownerOf */\n      0x03\n        /* \"ERC721.sol\":3703:3714  ownerOf[id] */\n      dup3\n      mstore\n      dup5\n      dup4\n      keccak256\n        /* \"ERC721.sol\":3703:3719  ownerOf[id] = to */\n      dup1\n      sload\n      0xffffffffffffffffffffffff0000000000000000000000000000000000000000\n      swap1\n      dup2\n      and\n      dup4\n      or\n      swap1\n      swap2\n      sstore\n        /* \"ERC721.sol\":3739:3750  getApproved */\n      0x04\n        /* \"ERC721.sol\":3739:3754  getApproved[id] */\n      swap1\n      swap3\n      mstore\n      dup5\n      dup4\n      keccak256\n        /* \"ERC721.sol\":3732:3754  delete getApproved[id] */\n      dup1\n      sload\n      swap1\n      swap3\n      and\n      swap1\n      swap2\n      sstore\n        /* \"ERC721.sol\":3772:3794  Transfer(from, to, id) */\n      swap3\n      mload\n        /* \"ERC721.sol\":3711:3713  id */\n      dup5\n      swap4\n        /* \"ERC721.sol\":3664:3677  balanceOf[to] */\n      swap3\n        /* \"ERC721.sol\":3632:3647  balanceOf[from] */\n      swap2\n        /* \"ERC721.sol\":3772:3794  Transfer(from, to, id) */\n      0xddf252ad1be2c89b69c2b068fc378daa952ba7f163c4a11628f55a4df523b3ef\n      swap2\n      log4\n        /* \"ERC721.sol\":3182:3802  function transferFrom(\r... */\n      pop\n      pop\n      pop\n      jump\t// out\n        /* \"ERC721.sol\":3810:4322  function safeTransferFrom(\r... */\n    tag_46:\n        /* \"ERC721.sol\":3934:3960  transferFrom(from, to, id) */\n      tag_109\n        /* \"ERC721.sol\":3947:3951  from */\n      dup4\n        /* \"ERC721.sol\":3953:3955  to */\n      dup4\n        /* \"ERC721.sol\":3957:3959  id */\n      dup4\n        /* \"ERC721.sol\":3934:3946  transferFrom */\n      tag_43\n        /* \"ERC721.sol\":3934:3960  transferFrom(from, to, id) */\n      jump\t// in\n    tag_109:\n        /* \"ERC721.sol\":3995:4009  to.code.length */\n      0xffffffffffffffffffffffffffffffffffffffff\n      dup3\n      and\n      extcodesize\n        /* \"ERC721.sol\":3995:4014  to.code.length == 0 */\n      iszero\n      dup1\n        /* \"ERC721.sol\":3995:4270  to.code.length == 0 ||\r... */\n      tag_110\n      jumpi\n      pop\n        /* \"ERC721.sol\":4035:4204  ERC721TokenReceiver(to).onERC721Received(\r... */\n      mload(0x40)\n        /* \"ERC721.sol\":4225:4270  ERC721TokenReceiver.onERC721Received.selector */\n      0x150b7a0200000000000000000000000000000000000000000000000000000000\n        /* \"ERC721.sol\":4035:4204  ERC721TokenReceiver(to).onERC721Received(\r... */\n      dup1\n      dup3\n      mstore\n        /* \"ERC721.sol\":4098:4108  msg.sender */\n      caller\n        /* \"ERC721.sol\":4035:4204  ERC721TokenReceiver(to).onERC721Received(\r... */\n      0x04\n      dup4\n      add\n        /* \"#utility.yul\":5544:5578   */\n      mstore\n        /* \"ERC721.sol\":4035:4075  ERC721TokenReceiver(to).onERC721Received */\n      0xffffffffffffffffffffffffffffffffffffffff\n        /* \"#utility.yul\":5614:5629   */\n      dup6\n      dup2\n      and\n        /* \"#utility.yul\":5594:5612   */\n      0x24\n      dup5\n      add\n        /* \"#utility.yul\":5587:5630   */\n      mstore\n        /* \"#utility.yul\":5646:5664   */\n      0x44\n      dup4\n      add\n        /* \"#utility.yul\":5639:5673   */\n      dup5\n      swap1\n      mstore\n        /* \"#utility.yul\":5709:5712   */\n      0x80\n        /* \"#utility.yul\":5689:5707   */\n      0x64\n      dup5\n      add\n        /* \"#utility.yul\":5682:5713   */\n      mstore\n      0x00\n        /* \"#utility.yul\":5729:5748   */\n      0x84\n      dup5\n      add\n        /* \"#utility.yul\":5722:5752   */\n      mstore\n        /* \"ERC721.sol\":4225:4270  ERC721TokenReceiver.onERC721Received.selector */\n      swap1\n      swap2\n        /* \"ERC721.sol\":4035:4075  ERC721TokenReceiver(to).onERC721Received */\n      swap1\n      dup5\n      and\n      swap1\n        /* \"ERC721.sol\":4225:4270  ERC721TokenReceiver.onERC721Received.selector */\n      0x150b7a02\n      swap1\n        /* \"#utility.yul\":5769:5788   */\n      0xa4\n      add\n        /* \"ERC721.sol\":4035:4204  ERC721TokenReceiver(to).onERC721Received(\r... */\n      0x20\n      mload(0x40)\n      dup1\n      dup4\n      sub\n      dup2\n      0x00\n      dup8\n      dup1\n      extcodesize\n      iszero\n      dup1\n      iszero\n      tag_113\n      jumpi\n      0x00\n      dup1\n      revert\n    tag_113:\n      pop\n      gas\n      call\n      iszero\n      dup1\n      iszero\n      tag_115\n      jumpi\n      returndatasize\n      0x00\n      dup1\n      returndatacopy\n      revert(0x00, returndatasize)\n    tag_115:\n      pop\n      pop\n      pop\n      pop\n      mload(0x40)\n      returndatasize\n      not(0x1f)\n      0x1f\n      dup3\n      add\n      and\n      dup3\n      add\n      dup1\n      0x40\n      mstore\n      pop\n      dup2\n      add\n      swap1\n      tag_116\n      swap2\n      swap1\n      tag_117\n      jump\t// in\n    tag_116:\n        /* \"ERC721.sol\":4035:4270  ERC721TokenReceiver(to).onERC721Received(\r... */\n      0xffffffff00000000000000000000000000000000000000000000000000000000\n      and\n      eq\n        /* \"ERC721.sol\":3995:4270  to.code.length == 0 ||\r... */\n    tag_110:\n        /* \"ERC721.sol\":3973:4314  require(\r... */\n      tag_118\n      jumpi\n      mload(0x40)\n      shl(0xe5, 0x461bcd)\n      dup2\n      mstore\n        /* \"#utility.yul\":7092:7094   */\n      0x20\n        /* \"ERC721.sol\":3973:4314  require(\r... */\n      0x04\n      dup3\n      add\n        /* \"#utility.yul\":7074:7095   */\n      mstore\n        /* \"#utility.yul\":7131:7133   */\n      0x10\n        /* \"#utility.yul\":7111:7129   */\n      0x24\n      dup3\n      add\n        /* \"#utility.yul\":7104:7134   */\n      mstore\n        /* \"#utility.yul\":7170:7188   */\n      0x554e534146455f524543495049454e5400000000000000000000000000000000\n        /* \"#utility.yul\":7150:7168   */\n      0x44\n      dup3\n      add\n        /* \"#utility.yul\":7143:7189   */\n      mstore\n        /* \"#utility.yul\":7206:7224   */\n      0x64\n      add\n        /* \"ERC721.sol\":3973:4314  require(\r... */\n      tag_94\n        /* \"#utility.yul\":6890:7230   */\n      jump\n        /* \"ERC721.sol\":3973:4314  require(\r... */\n    tag_118:\n        /* \"ERC721.sol\":3810:4322  function safeTransferFrom(\r... */\n      pop\n      pop\n      pop\n      jump\t// out\n        /* \"ERC721.sol\":1364:1384  string public symbol */\n    tag_58:\n      0x01\n      dup1\n      sload\n      tag_85\n      swap1\n      tag_86\n      jump\t// in\n        /* \"ERC721.sol\":2967:3174  function setApprovalForAll(address operator, bool approved) public virtual {\r... */\n    tag_63:\n        /* \"ERC721.sol\":3070:3080  msg.sender */\n      caller\n        /* \"ERC721.sol\":3053:3081  isApprovedForAll[msg.sender] */\n      0x00\n      dup2\n      dup2\n      mstore\n        /* \"ERC721.sol\":3053:3069  isApprovedForAll */\n      0x06\n        /* \"ERC721.sol\":3053:3081  isApprovedForAll[msg.sender] */\n      0x20\n      swap1\n      dup2\n      mstore\n      0x40\n      dup1\n      dup4\n      keccak256\n      0xffffffffffffffffffffffffffffffffffffffff\n        /* \"ERC721.sol\":3053:3091  isApprovedForAll[msg.sender][operator] */\n      dup8\n      and\n      dup1\n      dup6\n      mstore\n      swap1\n      dup4\n      mstore\n      swap3\n      dup2\n      swap1\n      keccak256\n        /* \"ERC721.sol\":3053:3102  isApprovedForAll[msg.sender][operator] = approved */\n      dup1\n      sload\n      0xffffffffffffffffffffffffffffffffffffffffffffffffffffffffffffff00\n      and\n      dup7\n      iszero\n      iszero\n      swap1\n      dup2\n      or\n      swap1\n      swap2\n      sstore\n        /* \"ERC721.sol\":3120:3166  ApprovalForAll(msg.sender, operator, approved) */\n      swap1\n      mload\n        /* \"#utility.yul\":5939:5980   */\n      swap1\n      dup2\n      mstore\n        /* \"ERC721.sol\":3053:3091  isApprovedForAll[msg.sender][operator] */\n      swap2\n      swap3\n        /* \"ERC721.sol\":3070:3080  msg.sender */\n      swap2\n        /* \"ERC721.sol\":3120:3166  ApprovalForAll(msg.sender, operator, approved) */\n      0x17307eab39ab6107e8899845ad3d59bd9653f200f220920489ca2b5937696c31\n      swap2\n        /* \"#utility.yul\":5912:5930   */\n      add\n        /* \"ERC721.sol\":3120:3166  ApprovalForAll(msg.sender, operator, approved) */\n      mload(0x40)\n      dup1\n      swap2\n      sub\n      swap1\n      log3\n        /* \"ERC721.sol\":2967:3174  function setApprovalForAll(address operator, bool approved) public virtual {\r... */\n      pop\n      pop\n      jump\t// out\n        /* \"ERC721.sol\":4330:4872  function safeTransferFrom(\r... */\n    tag_67:\n        /* \"ERC721.sol\":4482:4508  transferFrom(from, to, id) */\n      tag_129\n        /* \"ERC721.sol\":4495:4499  from */\n      dup5\n        /* \"ERC721.sol\":4501:4503  to */\n      dup5\n        /* \"ERC721.sol\":4505:4507  id */\n      dup5\n        /* \"ERC721.sol\":4482:4494  transferFrom */\n      tag_43\n        /* \"ERC721.sol\":4482:4508  transferFrom(from, to, id) */\n      jump\t// in\n    tag_129:\n        /* \"ERC721.sol\":4543:4557  to.code.length */\n      0xffffffffffffffffffffffffffffffffffffffff\n      dup4\n      and\n      extcodesize\n        /* \"ERC721.sol\":4543:4562  to.code.length == 0 */\n      iszero\n      dup1\n        /* \"ERC721.sol\":4543:4820  to.code.length == 0 ||\r... */\n      tag_130\n      jumpi\n      pop\n        /* \"ERC721.sol\":4583:4754  ERC721TokenReceiver(to).onERC721Received(\r... */\n      mload(0x40)\n        /* \"ERC721.sol\":4775:4820  ERC721TokenReceiver.onERC721Received.selector */\n      0x150b7a0200000000000000000000000000000000000000000000000000000000\n        /* \"ERC721.sol\":4583:4754  ERC721TokenReceiver(to).onERC721Received(\r... */\n      dup1\n      dup3\n      mstore\n        /* \"ERC721.sol\":4775:4820  ERC721TokenReceiver.onERC721Received.selector */\n      swap1\n        /* \"ERC721.sol\":4583:4623  ERC721TokenReceiver(to).onERC721Received */\n      0xffffffffffffffffffffffffffffffffffffffff\n      dup6\n      and\n      swap1\n        /* \"ERC721.sol\":4775:4820  ERC721TokenReceiver.onERC721Received.selector */\n      0x150b7a02\n      swap1\n        /* \"ERC721.sol\":4583:4754  ERC721TokenReceiver(to).onERC721Received(\r... */\n      tag_131\n      swap1\n        /* \"ERC721.sol\":4646:4656  msg.sender */\n      caller\n      swap1\n        /* \"ERC721.sol\":4679:4683  from */\n      dup10\n      swap1\n        /* \"ERC721.sol\":4706:4708  id */\n      dup9\n      swap1\n        /* \"ERC721.sol\":4731:4735  data */\n      dup9\n      swap1\n        /* \"ERC721.sol\":4583:4754  ERC721TokenReceiver(to).onERC721Received(\r... */\n      0x04\n      add\n      tag_132\n      jump\t// in\n    tag_131:\n      0x20\n      mload(0x40)\n      dup1\n      dup4\n      sub\n      dup2\n      0x00\n      dup8\n      dup1\n      extcodesize\n      iszero\n      dup1\n      iszero\n      tag_133\n      jumpi\n      0x00\n      dup1\n      revert\n    tag_133:\n      pop\n      gas\n      call\n      iszero\n      dup1\n      iszero\n      tag_135\n      jumpi\n      returndatasize\n      0x00\n      dup1\n      returndatacopy\n      revert(0x00, returndatasize)\n    tag_135:\n      pop\n      pop\n      pop\n      pop\n      mload(0x40)\n      returndatasize\n      not(0x1f)\n      0x1f\n      dup3\n      add\n      and\n      dup3\n      add\n      dup1\n      0x40\n      mstore\n      pop\n      dup2\n      add\n      swap1\n      tag_136\n      swap2\n      swap1\n      tag_117\n      jump\t// in\n    tag_136:\n        /* \"ERC721.sol\":4583:4820  ERC721TokenReceiver(to).onERC721Received(\r... */\n      0xffffffff00000000000000000000000000000000000000000000000000000000\n      and\n      eq\n        /* \"ERC721.sol\":4543:4820  to.code.length == 0 ||\r... */\n    tag_130:\n        /* \"ERC721.sol\":4521:4864  require(\r... */\n      tag_137\n      jumpi\n      mload(0x40)\n      shl(0xe5, 0x461bcd)\n      dup2\n      mstore\n        /* \"#utility.yul\":7092:7094   */\n      0x20\n        /* \"ERC721.sol\":4521:4864  require(\r... */\n      0x04\n      dup3\n      add\n        /* \"#utility.yul\":7074:7095   */\n      mstore\n        /* \"#utility.yul\":7131:7133   */\n      0x10\n        /* \"#utility.yul\":7111:7129   */\n      0x24\n      dup3\n      add\n        /* \"#utility.yul\":7104:7134   */\n      mstore\n        /* \"#utility.yul\":7170:7188   */\n      0x554e534146455f524543495049454e5400000000000000000000000000000000\n        /* \"#utility.yul\":7150:7168   */\n      0x44\n      dup3\n      add\n        /* \"#utility.yul\":7143:7189   */\n      mstore\n        /* \"#utility.yul\":7206:7224   */\n      0x64\n      add\n        /* \"ERC721.sol\":4521:4864  require(\r... */\n      tag_94\n        /* \"#utility.yul\":6890:7230   */\n      jump\n        /* \"ERC721.sol\":4521:4864  require(\r... */\n    tag_137:\n        /* \"ERC721.sol\":4330:4872  function safeTransferFrom(\r... */\n      pop\n      pop\n      pop\n      pop\n      jump\t// out\n        /* \"ERC721.sol\":1804:2356  function tokenURI(uint256 tokenId)\r... */\n    tag_70:\n        /* \"ERC721.sol\":2429:2433  bool */\n      0x00\n        /* \"ERC721.sol\":2462:2478  ownerOf[tokenId] */\n      dup2\n      dup2\n      mstore\n        /* \"ERC721.sol\":2462:2469  ownerOf */\n      0x03\n        /* \"ERC721.sol\":2462:2478  ownerOf[tokenId] */\n      0x20\n      mstore\n      0x40\n      swap1\n      keccak256\n      sload\n        /* \"ERC721.sol\":1904:1917  string memory */\n      0x60\n      swap1\n        /* \"ERC721.sol\":2462:2478  ownerOf[tokenId] */\n      0xffffffffffffffffffffffffffffffffffffffff\n      and\n        /* \"ERC721.sol\":1935:1992  require(_exists(tokenId), \"No token with this Id exists\") */\n      tag_142\n      jumpi\n      mload(0x40)\n      shl(0xe5, 0x461bcd)\n      dup2\n      mstore\n        /* \"#utility.yul\":7437:7439   */\n      0x20\n        /* \"ERC721.sol\":1935:1992  require(_exists(tokenId), \"No token with this Id exists\") */\n      0x04\n      dup3\n      add\n        /* \"#utility.yul\":7419:7440   */\n      mstore\n        /* \"#utility.yul\":7476:7478   */\n      0x1c\n        /* \"#utility.yul\":7456:7474   */\n      0x24\n      dup3\n      add\n        /* \"#utility.yul\":7449:7479   */\n      mstore\n        /* \"#utility.yul\":7515:7545   */\n      0x4e6f20746f6b656e207769746820746869732049642065786973747300000000\n        /* \"#utility.yul\":7495:7513   */\n      0x44\n      dup3\n      add\n        /* \"#utility.yul\":7488:7546   */\n      mstore\n        /* \"#utility.yul\":7563:7581   */\n      0x64\n      add\n        /* \"ERC721.sol\":1935:1992  require(_exists(tokenId), \"No token with this Id exists\") */\n      tag_94\n        /* \"#utility.yul\":7235:7587   */\n      jump\n        /* \"ERC721.sol\":1935:1992  require(_exists(tokenId), \"No token with this Id exists\") */\n    tag_142:\n        /* \"ERC721.sol\":2005:2026  string memory baseURI */\n      0x00\n        /* \"ERC721.sol\":2029:2039  _baseURI() */\n      tag_145\n        /* \"ERC721.sol\":2608:2617  return \"\" */\n      0x40\n      dup1\n      mload\n      0x20\n      dup2\n      add\n      swap1\n      swap2\n      mstore\n      0x00\n      dup2\n      mstore\n      swap1\n        /* \"ERC721.sol\":2531:2625  function _baseURI() internal view virtual returns (string memory) {\r... */\n      jump\n        /* \"ERC721.sol\":2029:2039  _baseURI() */\n    tag_145:\n        /* \"ERC721.sol\":2005:2039  string memory baseURI = _baseURI() */\n      swap1\n      pop\n        /* \"ERC721.sol\":2094:2095  0 */\n      0x00\n        /* \"ERC721.sol\":2076:2083  baseURI */\n      dup2\n        /* \"ERC721.sol\":2070:2091  bytes(baseURI).length */\n      mload\n        /* \"ERC721.sol\":2070:2095  bytes(baseURI).length > 0 */\n      gt\n        /* \"ERC721.sol\":2070:2348  bytes(baseURI).length > 0\r... */\n      tag_147\n      jumpi\n      mload(0x40)\n      dup1\n      0x20\n      add\n      0x40\n      mstore\n      dup1\n      0x00\n      dup2\n      mstore\n      pop\n      jump(tag_148)\n    tag_147:\n        /* \"ERC721.sol\":2221:2239  tokenType[tokenId] */\n      0x00\n      dup4\n      dup2\n      mstore\n        /* \"ERC721.sol\":2221:2230  tokenType */\n      0x05\n        /* \"ERC721.sol\":2221:2239  tokenType[tokenId] */\n      0x20\n      mstore\n      0x40\n      swap1\n      keccak256\n      sload\n        /* \"ERC721.sol\":2187:2194  baseURI */\n      dup2\n      swap1\n        /* \"ERC721.sol\":2221:2250  tokenType[tokenId].toString() */\n      tag_149\n      swap1\n        /* \"ERC721.sol\":2221:2248  tokenType[tokenId].toString */\n      tag_150\n        /* \"ERC721.sol\":2221:2250  tokenType[tokenId].toString() */\n      jump\t// in\n    tag_149:\n        /* \"ERC721.sol\":2144:2307  abi.encodePacked(\r... */\n      add(0x20, mload(0x40))\n      tag_151\n      swap3\n      swap2\n      swap1\n      tag_152\n      jump\t// in\n    tag_151:\n      mload(0x40)\n      0x20\n      dup2\n      dup4\n      sub\n      sub\n      dup2\n      mstore\n      swap1\n      0x40\n      mstore\n        /* \"ERC721.sol\":2070:2348  bytes(baseURI).length > 0\r... */\n    tag_148:\n        /* \"ERC721.sol\":2050:2348  return\r... */\n      swap4\n        /* \"ERC721.sol\":1804:2356  function tokenURI(uint256 tokenId)\r... */\n      swap3\n      pop\n      pop\n      pop\n      jump\t// out\n        /* \"utils/Strings.sol\":161:706  function toString(uint256 value) internal pure returns (string memory) {\r... */\n    tag_150:\n        /* \"utils/Strings.sol\":217:230  string memory */\n      0x60\n        /* \"utils/Strings.sol\":260:270  value == 0 */\n      dup2\n        /* \"utils/Strings.sol\":256:309  if (value == 0) {\r... */\n      tag_156\n      jumpi\n      pop\n      pop\n        /* \"utils/Strings.sol\":287:297  return \"0\" */\n      0x40\n      dup1\n      mload\n      dup1\n      dup3\n      add\n      swap1\n      swap2\n      mstore\n      0x01\n      dup2\n      mstore\n      0x3000000000000000000000000000000000000000000000000000000000000000\n      0x20\n      dup3\n      add\n      mstore\n      swap1\n        /* \"utils/Strings.sol\":161:706  function toString(uint256 value) internal pure returns (string memory) {\r... */\n      jump\t// out\n        /* \"utils/Strings.sol\":256:309  if (value == 0) {\r... */\n    tag_156:\n        /* \"utils/Strings.sol\":334:339  value */\n      dup2\n        /* \"utils/Strings.sol\":319:331  uint256 temp */\n      0x00\n        /* \"utils/Strings.sol\":375:453  while (temp != 0) {\r... */\n    tag_157:\n        /* \"utils/Strings.sol\":382:391  temp != 0 */\n      dup2\n      iszero\n        /* \"utils/Strings.sol\":375:453  while (temp != 0) {\r... */\n      tag_158\n      jumpi\n        /* \"utils/Strings.sol\":408:416  digits++ */\n      dup1\n      tag_159\n      dup2\n      tag_160\n      jump\t// in\n    tag_159:\n      swap2\n      pop\n        /* \"utils/Strings.sol\":431:441  temp /= 10 */\n      tag_161\n      swap1\n      pop\n        /* \"utils/Strings.sol\":439:441  10 */\n      0x0a\n        /* \"utils/Strings.sol\":431:441  temp /= 10 */\n      dup4\n      tag_162\n      jump\t// in\n    tag_161:\n      swap2\n      pop\n        /* \"utils/Strings.sol\":375:453  while (temp != 0) {\r... */\n      jump(tag_157)\n    tag_158:\n        /* \"utils/Strings.sol\":463:482  bytes memory buffer */\n      0x00\n        /* \"utils/Strings.sol\":495:501  digits */\n      dup2\n        /* \"utils/Strings.sol\":485:502  new bytes(digits) */\n      0xffffffffffffffff\n      dup2\n      gt\n      iszero\n      tag_164\n      jumpi\n      tag_164\n      tag_165\n      jump\t// in\n    tag_164:\n      mload(0x40)\n      swap1\n      dup1\n      dup3\n      mstore\n      dup1\n      0x1f\n      add\n      not(0x1f)\n      and\n      0x20\n      add\n      dup3\n      add\n      0x40\n      mstore\n      dup1\n      iszero\n      tag_166\n      jumpi\n      0x20\n      dup3\n      add\n      dup2\n      dup1\n      calldatasize\n      dup4\n      calldatacopy\n      add\n      swap1\n      pop\n    tag_166:\n      pop\n        /* \"utils/Strings.sol\":463:502  bytes memory buffer = new bytes(digits) */\n      swap1\n      pop\n        /* \"utils/Strings.sol\":513:667  while (value != 0) {\r... */\n    tag_167:\n        /* \"utils/Strings.sol\":520:530  value != 0 */\n      dup5\n      iszero\n        /* \"utils/Strings.sol\":513:667  while (value != 0) {\r... */\n      tag_168\n      jumpi\n        /* \"utils/Strings.sol\":547:558  digits -= 1 */\n      tag_169\n        /* \"utils/Strings.sol\":557:558  1 */\n      0x01\n        /* \"utils/Strings.sol\":547:558  digits -= 1 */\n      dup4\n      tag_170\n      jump\t// in\n    tag_169:\n      swap2\n      pop\n        /* \"utils/Strings.sol\":616:626  value % 10 */\n      tag_171\n        /* \"utils/Strings.sol\":624:626  10 */\n      0x0a\n        /* \"utils/Strings.sol\":616:621  value */\n      dup7\n        /* \"utils/Strings.sol\":616:626  value % 10 */\n      tag_172\n      jump\t// in\n    tag_171:\n        /* \"utils/Strings.sol\":603:627  48 + uint256(value % 10) */\n      tag_173\n      swap1\n        /* \"utils/Strings.sol\":603:605  48 */\n      0x30\n        /* \"utils/Strings.sol\":603:627  48 + uint256(value % 10) */\n      tag_174\n      jump\t// in\n    tag_173:\n        /* \"utils/Strings.sol\":590:629  bytes1(uint8(48 + uint256(value % 10))) */\n      0xf8\n      shl\n        /* \"utils/Strings.sol\":573:579  buffer */\n      dup2\n        /* \"utils/Strings.sol\":580:586  digits */\n      dup4\n        /* \"utils/Strings.sol\":573:587  buffer[digits] */\n      dup2\n      mload\n      dup2\n      lt\n      tag_176\n      jumpi\n      tag_176\n      tag_177\n      jump\t// in\n    tag_176:\n      0x20\n      add\n      add\n        /* \"utils/Strings.sol\":573:629  buffer[digits] = bytes1(uint8(48 + uint256(value % 10))) */\n      swap1\n      not(0xffffffffffffffffffffffffffffffffffffffffffffffffffffffffffffff)\n      and\n      swap1\n      dup2\n      0x00\n      byte\n      swap1\n      mstore8\n      pop\n        /* \"utils/Strings.sol\":644:655  value /= 10 */\n      tag_178\n        /* \"utils/Strings.sol\":653:655  10 */\n      0x0a\n        /* \"utils/Strings.sol\":644:655  value /= 10 */\n      dup7\n      tag_162\n      jump\t// in\n    tag_178:\n      swap5\n      pop\n        /* \"utils/Strings.sol\":513:667  while (value != 0) {\r... */\n      jump(tag_167)\n    tag_168:\n        /* \"utils/Strings.sol\":691:697  buffer */\n      swap5\n        /* \"utils/Strings.sol\":161:706  function toString(uint256 value) internal pure returns (string memory) {\r... */\n      swap4\n      pop\n      pop\n      pop\n      pop\n      jump\t// out\n        /* \"#utility.yul\":14:210   */\n    tag_180:\n        /* \"#utility.yul\":82:102   */\n      dup1\n      calldataload\n        /* \"#utility.yul\":142:184   */\n      0xffffffffffffffffffffffffffffffffffffffff\n        /* \"#utility.yul\":131:185   */\n      dup2\n      and\n        /* \"#utility.yul\":121:186   */\n      dup2\n      eq\n        /* \"#utility.yul\":111:204   */\n      tag_182\n      jumpi\n        /* \"#utility.yul\":200:201   */\n      0x00\n        /* \"#utility.yul\":197:198   */\n      dup1\n        /* \"#utility.yul\":190:202   */\n      revert\n        /* \"#utility.yul\":111:204   */\n    tag_182:\n        /* \"#utility.yul\":14:210   */\n      swap2\n      swap1\n      pop\n      jump\t// out\n        /* \"#utility.yul\":215:401   */\n    tag_53:\n        /* \"#utility.yul\":274:280   */\n      0x00\n        /* \"#utility.yul\":327:329   */\n      0x20\n        /* \"#utility.yul\":315:324   */\n      dup3\n        /* \"#utility.yul\":306:313   */\n      dup5\n        /* \"#utility.yul\":302:325   */\n      sub\n        /* \"#utility.yul\":298:330   */\n      slt\n        /* \"#utility.yul\":295:347   */\n      iszero\n      tag_184\n      jumpi\n        /* \"#utility.yul\":343:344   */\n      0x00\n        /* \"#utility.yul\":340:341   */\n      dup1\n        /* \"#utility.yul\":333:345   */\n      revert\n        /* \"#utility.yul\":295:347   */\n    tag_184:\n        /* \"#utility.yul\":366:395   */\n      tag_148\n        /* \"#utility.yul\":385:394   */\n      dup3\n        /* \"#utility.yul\":366:395   */\n      tag_180\n      jump\t// in\n        /* \"#utility.yul\":406:666   */\n    tag_78:\n        /* \"#utility.yul\":474:480   */\n      0x00\n        /* \"#utility.yul\":482:488   */\n      dup1\n        /* \"#utility.yul\":535:537   */\n      0x40\n        /* \"#utility.yul\":523:532   */\n      dup4\n        /* \"#utility.yul\":514:521   */\n      dup6\n        /* \"#utility.yul\":510:533   */\n      sub\n        /* \"#utility.yul\":506:538   */\n      slt\n        /* \"#utility.yul\":503:555   */\n      iszero\n      tag_187\n      jumpi\n        /* \"#utility.yul\":551:552   */\n      0x00\n        /* \"#utility.yul\":548:549   */\n      dup1\n        /* \"#utility.yul\":541:553   */\n      revert\n        /* \"#utility.yul\":503:555   */\n    tag_187:\n        /* \"#utility.yul\":574:603   */\n      tag_188\n        /* \"#utility.yul\":593:602   */\n      dup4\n        /* \"#utility.yul\":574:603   */\n      tag_180\n      jump\t// in\n    tag_188:\n        /* \"#utility.yul\":564:603   */\n      swap2\n      pop\n        /* \"#utility.yul\":622:660   */\n      tag_189\n        /* \"#utility.yul\":656:658   */\n      0x20\n        /* \"#utility.yul\":645:654   */\n      dup5\n        /* \"#utility.yul\":641:659   */\n      add\n        /* \"#utility.yul\":622:660   */\n      tag_180\n      jump\t// in\n    tag_189:\n        /* \"#utility.yul\":612:660   */\n      swap1\n      pop\n        /* \"#utility.yul\":406:666   */\n      swap3\n      pop\n      swap3\n      swap1\n      pop\n      jump\t// out\n        /* \"#utility.yul\":671:999   */\n    tag_42:\n        /* \"#utility.yul\":748:754   */\n      0x00\n        /* \"#utility.yul\":756:762   */\n      dup1\n        /* \"#utility.yul\":764:770   */\n      0x00\n        /* \"#utility.yul\":817:819   */\n      0x60\n        /* \"#utility.yul\":805:814   */\n      dup5\n        /* \"#utility.yul\":796:803   */\n      dup7\n        /* \"#utility.yul\":792:815   */\n      sub\n        /* \"#utility.yul\":788:820   */\n      slt\n        /* \"#utility.yul\":785:837   */\n      iszero\n      tag_191\n      jumpi\n        /* \"#utility.yul\":833:834   */\n      0x00\n        /* \"#utility.yul\":830:831   */\n      dup1\n        /* \"#utility.yul\":823:835   */\n      revert\n        /* \"#utility.yul\":785:837   */\n    tag_191:\n        /* \"#utility.yul\":856:885   */\n      tag_192\n        /* \"#utility.yul\":875:884   */\n      dup5\n        /* \"#utility.yul\":856:885   */\n      tag_180\n      jump\t// in\n    tag_192:\n        /* \"#utility.yul\":846:885   */\n      swap3\n      pop\n        /* \"#utility.yul\":904:942   */\n      tag_193\n        /* \"#utility.yul\":938:940   */\n      0x20\n        /* \"#utility.yul\":927:936   */\n      dup6\n        /* \"#utility.yul\":923:941   */\n      add\n        /* \"#utility.yul\":904:942   */\n      tag_180\n      jump\t// in\n    tag_193:\n        /* \"#utility.yul\":894:942   */\n      swap2\n      pop\n        /* \"#utility.yul\":989:991   */\n      0x40\n        /* \"#utility.yul\":978:987   */\n      dup5\n        /* \"#utility.yul\":974:992   */\n      add\n        /* \"#utility.yul\":961:993   */\n      calldataload\n        /* \"#utility.yul\":951:993   */\n      swap1\n      pop\n        /* \"#utility.yul\":671:999   */\n      swap3\n      pop\n      swap3\n      pop\n      swap3\n      jump\t// out\n        /* \"#utility.yul\":1004:2201   */\n    tag_66:\n        /* \"#utility.yul\":1099:1105   */\n      0x00\n        /* \"#utility.yul\":1107:1113   */\n      dup1\n        /* \"#utility.yul\":1115:1121   */\n      0x00\n        /* \"#utility.yul\":1123:1129   */\n      dup1\n        /* \"#utility.yul\":1176:1179   */\n      0x80\n        /* \"#utility.yul\":1164:1173   */\n      dup6\n        /* \"#utility.yul\":1155:1162   */\n      dup8\n        /* \"#utility.yul\":1151:1174   */\n      sub\n        /* \"#utility.yul\":1147:1180   */\n      slt\n        /* \"#utility.yul\":1144:1197   */\n      iszero\n      tag_195\n      jumpi\n        /* \"#utility.yul\":1193:1194   */\n      0x00\n        /* \"#utility.yul\":1190:1191   */\n      dup1\n        /* \"#utility.yul\":1183:1195   */\n      revert\n        /* \"#utility.yul\":1144:1197   */\n    tag_195:\n        /* \"#utility.yul\":1216:1245   */\n      tag_196\n        /* \"#utility.yul\":1235:1244   */\n      dup6\n        /* \"#utility.yul\":1216:1245   */\n      tag_180\n      jump\t// in\n    tag_196:\n        /* \"#utility.yul\":1206:1245   */\n      swap4\n      pop\n        /* \"#utility.yul\":1264:1302   */\n      tag_197\n        /* \"#utility.yul\":1298:1300   */\n      0x20\n        /* \"#utility.yul\":1287:1296   */\n      dup7\n        /* \"#utility.yul\":1283:1301   */\n      add\n        /* \"#utility.yul\":1264:1302   */\n      tag_180\n      jump\t// in\n    tag_197:\n        /* \"#utility.yul\":1254:1302   */\n      swap3\n      pop\n        /* \"#utility.yul\":1349:1351   */\n      0x40\n        /* \"#utility.yul\":1338:1347   */\n      dup6\n        /* \"#utility.yul\":1334:1352   */\n      add\n        /* \"#utility.yul\":1321:1353   */\n      calldataload\n        /* \"#utility.yul\":1311:1353   */\n      swap2\n      pop\n        /* \"#utility.yul\":1404:1406   */\n      0x60\n        /* \"#utility.yul\":1393:1402   */\n      dup6\n        /* \"#utility.yul\":1389:1407   */\n      add\n        /* \"#utility.yul\":1376:1408   */\n      calldataload\n        /* \"#utility.yul\":1427:1445   */\n      0xffffffffffffffff\n        /* \"#utility.yul\":1468:1470   */\n      dup1\n        /* \"#utility.yul\":1460:1466   */\n      dup3\n        /* \"#utility.yul\":1457:1471   */\n      gt\n        /* \"#utility.yul\":1454:1488   */\n      iszero\n      tag_198\n      jumpi\n        /* \"#utility.yul\":1484:1485   */\n      0x00\n        /* \"#utility.yul\":1481:1482   */\n      dup1\n        /* \"#utility.yul\":1474:1486   */\n      revert\n        /* \"#utility.yul\":1454:1488   */\n    tag_198:\n        /* \"#utility.yul\":1522:1528   */\n      dup2\n        /* \"#utility.yul\":1511:1520   */\n      dup8\n        /* \"#utility.yul\":1507:1529   */\n      add\n        /* \"#utility.yul\":1497:1529   */\n      swap2\n      pop\n        /* \"#utility.yul\":1567:1574   */\n      dup8\n        /* \"#utility.yul\":1560:1564   */\n      0x1f\n        /* \"#utility.yul\":1556:1558   */\n      dup4\n        /* \"#utility.yul\":1552:1565   */\n      add\n        /* \"#utility.yul\":1548:1575   */\n      slt\n        /* \"#utility.yul\":1538:1593   */\n      tag_199\n      jumpi\n        /* \"#utility.yul\":1589:1590   */\n      0x00\n        /* \"#utility.yul\":1586:1587   */\n      dup1\n        /* \"#utility.yul\":1579:1591   */\n      revert\n        /* \"#utility.yul\":1538:1593   */\n    tag_199:\n        /* \"#utility.yul\":1625:1627   */\n      dup2\n        /* \"#utility.yul\":1612:1628   */\n      calldataload\n        /* \"#utility.yul\":1647:1649   */\n      dup2\n        /* \"#utility.yul\":1643:1645   */\n      dup2\n        /* \"#utility.yul\":1640:1650   */\n      gt\n        /* \"#utility.yul\":1637:1673   */\n      iszero\n      tag_201\n      jumpi\n        /* \"#utility.yul\":1653:1671   */\n      tag_201\n      tag_165\n      jump\t// in\n    tag_201:\n        /* \"#utility.yul\":1787:1789   */\n      0x40\n        /* \"#utility.yul\":1781:1790   */\n      mload\n        /* \"#utility.yul\":1849:1853   */\n      0x1f\n        /* \"#utility.yul\":1841:1854   */\n      dup3\n      add\n        /* \"#utility.yul\":1692:1758   */\n      0xffffffffffffffffffffffffffffffffffffffffffffffffffffffffffffffe0\n        /* \"#utility.yul\":1837:1859   */\n      swap1\n      dup2\n      and\n        /* \"#utility.yul\":1861:1863   */\n      0x3f\n        /* \"#utility.yul\":1833:1864   */\n      add\n        /* \"#utility.yul\":1829:1869   */\n      and\n        /* \"#utility.yul\":1817:1870   */\n      dup2\n      add\n      swap1\n        /* \"#utility.yul\":1885:1903   */\n      dup4\n      dup3\n      gt\n        /* \"#utility.yul\":1905:1927   */\n      dup2\n      dup4\n      lt\n        /* \"#utility.yul\":1882:1928   */\n      or\n        /* \"#utility.yul\":1879:1951   */\n      iszero\n      tag_203\n      jumpi\n        /* \"#utility.yul\":1931:1949   */\n      tag_203\n      tag_165\n      jump\t// in\n    tag_203:\n        /* \"#utility.yul\":1971:1981   */\n      dup2\n        /* \"#utility.yul\":1967:1969   */\n      0x40\n        /* \"#utility.yul\":1960:1982   */\n      mstore\n        /* \"#utility.yul\":2006:2008   */\n      dup3\n        /* \"#utility.yul\":1998:2004   */\n      dup2\n        /* \"#utility.yul\":1991:2009   */\n      mstore\n        /* \"#utility.yul\":2046:2053   */\n      dup11\n        /* \"#utility.yul\":2041:2043   */\n      0x20\n        /* \"#utility.yul\":2036:2038   */\n      dup5\n        /* \"#utility.yul\":2032:2034   */\n      dup8\n        /* \"#utility.yul\":2028:2039   */\n      add\n        /* \"#utility.yul\":2024:2044   */\n      add\n        /* \"#utility.yul\":2021:2054   */\n      gt\n        /* \"#utility.yul\":2018:2071   */\n      iszero\n      tag_204\n      jumpi\n        /* \"#utility.yul\":2067:2068   */\n      0x00\n        /* \"#utility.yul\":2064:2065   */\n      dup1\n        /* \"#utility.yul\":2057:2069   */\n      revert\n        /* \"#utility.yul\":2018:2071   */\n    tag_204:\n        /* \"#utility.yul\":2123:2125   */\n      dup3\n        /* \"#utility.yul\":2118:2120   */\n      0x20\n        /* \"#utility.yul\":2114:2116   */\n      dup7\n        /* \"#utility.yul\":2110:2121   */\n      add\n        /* \"#utility.yul\":2105:2107   */\n      0x20\n        /* \"#utility.yul\":2097:2103   */\n      dup4\n        /* \"#utility.yul\":2093:2108   */\n      add\n        /* \"#utility.yul\":2080:2126   */\n      calldatacopy\n        /* \"#utility.yul\":2168:2169   */\n      0x00\n        /* \"#utility.yul\":2163:2165   */\n      0x20\n        /* \"#utility.yul\":2158:2160   */\n      dup5\n        /* \"#utility.yul\":2150:2156   */\n      dup4\n        /* \"#utility.yul\":2146:2161   */\n      add\n        /* \"#utility.yul\":2142:2166   */\n      add\n        /* \"#utility.yul\":2135:2170   */\n      mstore\n        /* \"#utility.yul\":2189:2195   */\n      dup1\n        /* \"#utility.yul\":2179:2195   */\n      swap6\n      pop\n      pop\n      pop\n      pop\n      pop\n      pop\n        /* \"#utility.yul\":1004:2201   */\n      swap3\n      swap6\n      swap2\n      swap5\n      pop\n      swap3\n      pop\n      jump\t// out\n        /* \"#utility.yul\":2206:2553   */\n    tag_62:\n        /* \"#utility.yul\":2271:2277   */\n      0x00\n        /* \"#utility.yul\":2279:2285   */\n      dup1\n        /* \"#utility.yul\":2332:2334   */\n      0x40\n        /* \"#utility.yul\":2320:2329   */\n      dup4\n        /* \"#utility.yul\":2311:2318   */\n      dup6\n        /* \"#utility.yul\":2307:2330   */\n      sub\n        /* \"#utility.yul\":2303:2335   */\n      slt\n        /* \"#utility.yul\":2300:2352   */\n      iszero\n      tag_206\n      jumpi\n        /* \"#utility.yul\":2348:2349   */\n      0x00\n        /* \"#utility.yul\":2345:2346   */\n      dup1\n        /* \"#utility.yul\":2338:2350   */\n      revert\n        /* \"#utility.yul\":2300:2352   */\n    tag_206:\n        /* \"#utility.yul\":2371:2400   */\n      tag_207\n        /* \"#utility.yul\":2390:2399   */\n      dup4\n        /* \"#utility.yul\":2371:2400   */\n      tag_180\n      jump\t// in\n    tag_207:\n        /* \"#utility.yul\":2361:2400   */\n      swap2\n      pop\n        /* \"#utility.yul\":2450:2452   */\n      0x20\n        /* \"#utility.yul\":2439:2448   */\n      dup4\n        /* \"#utility.yul\":2435:2453   */\n      add\n        /* \"#utility.yul\":2422:2454   */\n      calldataload\n        /* \"#utility.yul\":2497:2502   */\n      dup1\n        /* \"#utility.yul\":2490:2503   */\n      iszero\n        /* \"#utility.yul\":2483:2504   */\n      iszero\n        /* \"#utility.yul\":2476:2481   */\n      dup2\n        /* \"#utility.yul\":2473:2505   */\n      eq\n        /* \"#utility.yul\":2463:2523   */\n      tag_208\n      jumpi\n        /* \"#utility.yul\":2519:2520   */\n      0x00\n        /* \"#utility.yul\":2516:2517   */\n      dup1\n        /* \"#utility.yul\":2509:2521   */\n      revert\n        /* \"#utility.yul\":2463:2523   */\n    tag_208:\n        /* \"#utility.yul\":2542:2547   */\n      dup1\n        /* \"#utility.yul\":2532:2547   */\n      swap2\n      pop\n      pop\n        /* \"#utility.yul\":2206:2553   */\n      swap3\n      pop\n      swap3\n      swap1\n      pop\n      jump\t// out\n        /* \"#utility.yul\":2558:2812   */\n    tag_38:\n        /* \"#utility.yul\":2626:2632   */\n      0x00\n        /* \"#utility.yul\":2634:2640   */\n      dup1\n        /* \"#utility.yul\":2687:2689   */\n      0x40\n        /* \"#utility.yul\":2675:2684   */\n      dup4\n        /* \"#utility.yul\":2666:2673   */\n      dup6\n        /* \"#utility.yul\":2662:2685   */\n      sub\n        /* \"#utility.yul\":2658:2690   */\n      slt\n        /* \"#utility.yul\":2655:2707   */\n      iszero\n      tag_210\n      jumpi\n        /* \"#utility.yul\":2703:2704   */\n      0x00\n        /* \"#utility.yul\":2700:2701   */\n      dup1\n        /* \"#utility.yul\":2693:2705   */\n      revert\n        /* \"#utility.yul\":2655:2707   */\n    tag_210:\n        /* \"#utility.yul\":2726:2755   */\n      tag_211\n        /* \"#utility.yul\":2745:2754   */\n      dup4\n        /* \"#utility.yul\":2726:2755   */\n      tag_180\n      jump\t// in\n    tag_211:\n        /* \"#utility.yul\":2716:2755   */\n      swap5\n        /* \"#utility.yul\":2802:2804   */\n      0x20\n        /* \"#utility.yul\":2787:2805   */\n      swap4\n      swap1\n      swap4\n      add\n        /* \"#utility.yul\":2774:2806   */\n      calldataload\n      swap4\n      pop\n      pop\n      pop\n        /* \"#utility.yul\":2558:2812   */\n      jump\t// out\n        /* \"#utility.yul\":2817:3062   */\n    tag_22:\n        /* \"#utility.yul\":2875:2881   */\n      0x00\n        /* \"#utility.yul\":2928:2930   */\n      0x20\n        /* \"#utility.yul\":2916:2925   */\n      dup3\n        /* \"#utility.yul\":2907:2914   */\n      dup5\n        /* \"#utility.yul\":2903:2926   */\n      sub\n        /* \"#utility.yul\":2899:2931   */\n      slt\n        /* \"#utility.yul\":2896:2948   */\n      iszero\n      tag_213\n      jumpi\n        /* \"#utility.yul\":2944:2945   */\n      0x00\n        /* \"#utility.yul\":2941:2942   */\n      dup1\n        /* \"#utility.yul\":2934:2946   */\n      revert\n        /* \"#utility.yul\":2896:2948   */\n    tag_213:\n        /* \"#utility.yul\":2983:2992   */\n      dup2\n        /* \"#utility.yul\":2970:2993   */\n      calldataload\n        /* \"#utility.yul\":3002:3032   */\n      tag_148\n        /* \"#utility.yul\":3026:3031   */\n      dup2\n        /* \"#utility.yul\":3002:3032   */\n      tag_215\n      jump\t// in\n        /* \"#utility.yul\":3067:3316   */\n    tag_117:\n        /* \"#utility.yul\":3136:3142   */\n      0x00\n        /* \"#utility.yul\":3189:3191   */\n      0x20\n        /* \"#utility.yul\":3177:3186   */\n      dup3\n        /* \"#utility.yul\":3168:3175   */\n      dup5\n        /* \"#utility.yul\":3164:3187   */\n      sub\n        /* \"#utility.yul\":3160:3192   */\n      slt\n        /* \"#utility.yul\":3157:3209   */\n      iszero\n      tag_217\n      jumpi\n        /* \"#utility.yul\":3205:3206   */\n      0x00\n        /* \"#utility.yul\":3202:3203   */\n      dup1\n        /* \"#utility.yul\":3195:3207   */\n      revert\n        /* \"#utility.yul\":3157:3209   */\n    tag_217:\n        /* \"#utility.yul\":3237:3246   */\n      dup2\n        /* \"#utility.yul\":3231:3247   */\n      mload\n        /* \"#utility.yul\":3256:3286   */\n      tag_148\n        /* \"#utility.yul\":3280:3285   */\n      dup2\n        /* \"#utility.yul\":3256:3286   */\n      tag_215\n      jump\t// in\n        /* \"#utility.yul\":3321:3501   */\n    tag_32:\n        /* \"#utility.yul\":3380:3386   */\n      0x00\n        /* \"#utility.yul\":3433:3435   */\n      0x20\n        /* \"#utility.yul\":3421:3430   */\n      dup3\n        /* \"#utility.yul\":3412:3419   */\n      dup5\n        /* \"#utility.yul\":3408:3431   */\n      sub\n        /* \"#utility.yul\":3404:3436   */\n      slt\n        /* \"#utility.yul\":3401:3453   */\n      iszero\n      tag_220\n      jumpi\n        /* \"#utility.yul\":3449:3450   */\n      0x00\n        /* \"#utility.yul\":3446:3447   */\n      dup1\n        /* \"#utility.yul\":3439:3451   */\n      revert\n        /* \"#utility.yul\":3401:3453   */\n    tag_220:\n      pop\n        /* \"#utility.yul\":3472:3495   */\n      calldataload\n      swap2\n        /* \"#utility.yul\":3321:3501   */\n      swap1\n      pop\n      jump\t// out\n        /* \"#utility.yul\":3506:3822   */\n    tag_221:\n        /* \"#utility.yul\":3547:3550   */\n      0x00\n        /* \"#utility.yul\":3585:3590   */\n      dup2\n        /* \"#utility.yul\":3579:3591   */\n      mload\n        /* \"#utility.yul\":3612:3618   */\n      dup1\n        /* \"#utility.yul\":3607:3610   */\n      dup5\n        /* \"#utility.yul\":3600:3619   */\n      mstore\n        /* \"#utility.yul\":3628:3691   */\n      tag_223\n        /* \"#utility.yul\":3684:3690   */\n      dup2\n        /* \"#utility.yul\":3677:3681   */\n      0x20\n        /* \"#utility.yul\":3672:3675   */\n      dup7\n        /* \"#utility.yul\":3668:3682   */\n      add\n        /* \"#utility.yul\":3661:3665   */\n      0x20\n        /* \"#utility.yul\":3654:3659   */\n      dup7\n        /* \"#utility.yul\":3650:3666   */\n      add\n        /* \"#utility.yul\":3628:3691   */\n      tag_224\n      jump\t// in\n    tag_223:\n        /* \"#utility.yul\":3736:3738   */\n      0x1f\n        /* \"#utility.yul\":3724:3739   */\n      add\n        /* \"#utility.yul\":3741:3807   */\n      0xffffffffffffffffffffffffffffffffffffffffffffffffffffffffffffffe0\n        /* \"#utility.yul\":3720:3808   */\n      and\n        /* \"#utility.yul\":3711:3809   */\n      swap3\n      swap1\n      swap3\n      add\n        /* \"#utility.yul\":3811:3815   */\n      0x20\n        /* \"#utility.yul\":3707:3816   */\n      add\n      swap3\n        /* \"#utility.yul\":3506:3822   */\n      swap2\n      pop\n      pop\n      jump\t// out\n        /* \"#utility.yul\":3827:4464   */\n    tag_152:\n        /* \"#utility.yul\":4107:4110   */\n      0x00\n        /* \"#utility.yul\":4145:4151   */\n      dup4\n        /* \"#utility.yul\":4139:4152   */\n      mload\n        /* \"#utility.yul\":4161:4214   */\n      tag_226\n        /* \"#utility.yul\":4207:4213   */\n      dup2\n        /* \"#utility.yul\":4202:4205   */\n      dup5\n        /* \"#utility.yul\":4195:4199   */\n      0x20\n        /* \"#utility.yul\":4187:4193   */\n      dup9\n        /* \"#utility.yul\":4183:4200   */\n      add\n        /* \"#utility.yul\":4161:4214   */\n      tag_224\n      jump\t// in\n    tag_226:\n        /* \"#utility.yul\":4277:4290   */\n      dup4\n      mload\n        /* \"#utility.yul\":4236:4252   */\n      swap1\n      dup4\n      add\n      swap1\n        /* \"#utility.yul\":4299:4356   */\n      tag_227\n        /* \"#utility.yul\":4277:4290   */\n      dup2\n        /* \"#utility.yul\":4236:4252   */\n      dup4\n        /* \"#utility.yul\":4333:4337   */\n      0x20\n        /* \"#utility.yul\":4321:4338   */\n      dup9\n      add\n        /* \"#utility.yul\":4299:4356   */\n      tag_224\n      jump\t// in\n    tag_227:\n        /* \"#utility.yul\":4421:4428   */\n      0x2e6a736f6e000000000000000000000000000000000000000000000000000000\n        /* \"#utility.yul\":4378:4398   */\n      swap2\n      add\n        /* \"#utility.yul\":4407:4429   */\n      swap1\n      dup2\n      mstore\n        /* \"#utility.yul\":4456:4457   */\n      0x05\n        /* \"#utility.yul\":4445:4458   */\n      add\n      swap5\n        /* \"#utility.yul\":3827:4464   */\n      swap4\n      pop\n      pop\n      pop\n      pop\n      jump\t// out\n        /* \"#utility.yul\":4700:5211   */\n    tag_132:\n        /* \"#utility.yul\":4894:4898   */\n      0x00\n        /* \"#utility.yul\":4923:4965   */\n      0xffffffffffffffffffffffffffffffffffffffff\n        /* \"#utility.yul\":5004:5006   */\n      dup1\n        /* \"#utility.yul\":4996:5002   */\n      dup8\n        /* \"#utility.yul\":4992:5007   */\n      and\n        /* \"#utility.yul\":4981:4990   */\n      dup4\n        /* \"#utility.yul\":4974:5008   */\n      mstore\n        /* \"#utility.yul\":5056:5058   */\n      dup1\n        /* \"#utility.yul\":5048:5054   */\n      dup7\n        /* \"#utility.yul\":5044:5059   */\n      and\n        /* \"#utility.yul\":5039:5041   */\n      0x20\n        /* \"#utility.yul\":5028:5037   */\n      dup5\n        /* \"#utility.yul\":5024:5042   */\n      add\n        /* \"#utility.yul\":5017:5060   */\n      mstore\n      pop\n        /* \"#utility.yul\":5096:5102   */\n      dup4\n        /* \"#utility.yul\":5091:5093   */\n      0x40\n        /* \"#utility.yul\":5080:5089   */\n      dup4\n        /* \"#utility.yul\":5076:5094   */\n      add\n        /* \"#utility.yul\":5069:5103   */\n      mstore\n        /* \"#utility.yul\":5139:5142   */\n      0x80\n        /* \"#utility.yul\":5134:5136   */\n      0x60\n        /* \"#utility.yul\":5123:5132   */\n      dup4\n        /* \"#utility.yul\":5119:5137   */\n      add\n        /* \"#utility.yul\":5112:5143   */\n      mstore\n        /* \"#utility.yul\":5160:5205   */\n      tag_230\n        /* \"#utility.yul\":5200:5203   */\n      0x80\n        /* \"#utility.yul\":5189:5198   */\n      dup4\n        /* \"#utility.yul\":5185:5204   */\n      add\n        /* \"#utility.yul\":5177:5183   */\n      dup5\n        /* \"#utility.yul\":5160:5205   */\n      tag_221\n      jump\t// in\n    tag_230:\n        /* \"#utility.yul\":5152:5205   */\n      swap7\n        /* \"#utility.yul\":4700:5211   */\n      swap6\n      pop\n      pop\n      pop\n      pop\n      pop\n      pop\n      jump\t// out\n        /* \"#utility.yul\":5991:6210   */\n    tag_29:\n        /* \"#utility.yul\":6140:6142   */\n      0x20\n        /* \"#utility.yul\":6129:6138   */\n      dup2\n        /* \"#utility.yul\":6122:6143   */\n      mstore\n        /* \"#utility.yul\":6103:6107   */\n      0x00\n        /* \"#utility.yul\":6160:6204   */\n      tag_148\n        /* \"#utility.yul\":6200:6202   */\n      0x20\n        /* \"#utility.yul\":6189:6198   */\n      dup4\n        /* \"#utility.yul\":6185:6203   */\n      add\n        /* \"#utility.yul\":6177:6183   */\n      dup5\n        /* \"#utility.yul\":6160:6204   */\n      tag_221\n      jump\t// in\n        /* \"#utility.yul\":8460:8588   */\n    tag_174:\n        /* \"#utility.yul\":8500:8503   */\n      0x00\n        /* \"#utility.yul\":8531:8532   */\n      dup3\n        /* \"#utility.yul\":8527:8533   */\n      not\n        /* \"#utility.yul\":8524:8525   */\n      dup3\n        /* \"#utility.yul\":8521:8534   */\n      gt\n        /* \"#utility.yul\":8518:8557   */\n      iszero\n      tag_244\n      jumpi\n        /* \"#utility.yul\":8537:8555   */\n      tag_244\n      tag_245\n      jump\t// in\n    tag_244:\n      pop\n        /* \"#utility.yul\":8573:8582   */\n      add\n      swap1\n        /* \"#utility.yul\":8460:8588   */\n      jump\t// out\n        /* \"#utility.yul\":8593:8713   */\n    tag_162:\n        /* \"#utility.yul\":8633:8634   */\n      0x00\n        /* \"#utility.yul\":8659:8660   */\n      dup3\n        /* \"#utility.yul\":8649:8684   */\n      tag_248\n      jumpi\n        /* \"#utility.yul\":8664:8682   */\n      tag_248\n      tag_249\n      jump\t// in\n    tag_248:\n      pop\n        /* \"#utility.yul\":8698:8707   */\n      div\n      swap1\n        /* \"#utility.yul\":8593:8713   */\n      jump\t// out\n        /* \"#utility.yul\":8718:8843   */\n    tag_170:\n        /* \"#utility.yul\":8758:8762   */\n      0x00\n        /* \"#utility.yul\":8786:8787   */\n      dup3\n        /* \"#utility.yul\":8783:8784   */\n      dup3\n        /* \"#utility.yul\":8780:8788   */\n      lt\n        /* \"#utility.yul\":8777:8811   */\n      iszero\n      tag_252\n      jumpi\n        /* \"#utility.yul\":8791:8809   */\n      tag_252\n      tag_245\n      jump\t// in\n    tag_252:\n      pop\n        /* \"#utility.yul\":8828:8837   */\n      sub\n      swap1\n        /* \"#utility.yul\":8718:8843   */\n      jump\t// out\n        /* \"#utility.yul\":8848:9106   */\n    tag_224:\n        /* \"#utility.yul\":8920:8921   */\n      0x00\n        /* \"#utility.yul\":8930:9043   */\n    tag_254:\n        /* \"#utility.yul\":8944:8950   */\n      dup4\n        /* \"#utility.yul\":8941:8942   */\n      dup2\n        /* \"#utility.yul\":8938:8951   */\n      lt\n        /* \"#utility.yul\":8930:9043   */\n      iszero\n      tag_256\n      jumpi\n        /* \"#utility.yul\":9020:9031   */\n      dup2\n      dup2\n      add\n        /* \"#utility.yul\":9014:9032   */\n      mload\n        /* \"#utility.yul\":9001:9012   */\n      dup4\n      dup3\n      add\n        /* \"#utility.yul\":8994:9033   */\n      mstore\n        /* \"#utility.yul\":8966:8968   */\n      0x20\n        /* \"#utility.yul\":8959:8969   */\n      add\n        /* \"#utility.yul\":8930:9043   */\n      jump(tag_254)\n    tag_256:\n        /* \"#utility.yul\":9061:9067   */\n      dup4\n        /* \"#utility.yul\":9058:9059   */\n      dup2\n        /* \"#utility.yul\":9055:9068   */\n      gt\n        /* \"#utility.yul\":9052:9100   */\n      iszero\n      tag_137\n      jumpi\n      pop\n      pop\n        /* \"#utility.yul\":9096:9097   */\n      0x00\n        /* \"#utility.yul\":9078:9094   */\n      swap2\n      add\n        /* \"#utility.yul\":9071:9098   */\n      mstore\n        /* \"#utility.yul\":8848:9106   */\n      jump\t// out\n        /* \"#utility.yul\":9111:9548   */\n    tag_86:\n        /* \"#utility.yul\":9190:9191   */\n      0x01\n        /* \"#utility.yul\":9186:9198   */\n      dup2\n      dup2\n      shr\n      swap1\n        /* \"#utility.yul\":9233:9245   */\n      dup3\n      and\n      dup1\n        /* \"#utility.yul\":9254:9315   */\n      tag_259\n      jumpi\n        /* \"#utility.yul\":9308:9312   */\n      0x7f\n        /* \"#utility.yul\":9300:9306   */\n      dup3\n        /* \"#utility.yul\":9296:9313   */\n      and\n        /* \"#utility.yul\":9286:9313   */\n      swap2\n      pop\n        /* \"#utility.yul\":9254:9315   */\n    tag_259:\n        /* \"#utility.yul\":9361:9363   */\n      0x20\n        /* \"#utility.yul\":9353:9359   */\n      dup3\n        /* \"#utility.yul\":9350:9364   */\n      lt\n        /* \"#utility.yul\":9330:9348   */\n      dup2\n        /* \"#utility.yul\":9327:9365   */\n      eq\n        /* \"#utility.yul\":9324:9542   */\n      iszero\n      tag_260\n      jumpi\n        /* \"#utility.yul\":9398:9475   */\n      0x4e487b7100000000000000000000000000000000000000000000000000000000\n        /* \"#utility.yul\":9395:9396   */\n      0x00\n        /* \"#utility.yul\":9388:9476   */\n      mstore\n        /* \"#utility.yul\":9499:9503   */\n      0x22\n        /* \"#utility.yul\":9496:9497   */\n      0x04\n        /* \"#utility.yul\":9489:9504   */\n      mstore\n        /* \"#utility.yul\":9527:9531   */\n      0x24\n        /* \"#utility.yul\":9524:9525   */\n      0x00\n        /* \"#utility.yul\":9517:9532   */\n      revert\n        /* \"#utility.yul\":9324:9542   */\n    tag_260:\n      pop\n        /* \"#utility.yul\":9111:9548   */\n      swap2\n      swap1\n      pop\n      jump\t// out\n        /* \"#utility.yul\":9553:9748   */\n    tag_160:\n        /* \"#utility.yul\":9592:9595   */\n      0x00\n        /* \"#utility.yul\":9623:9689   */\n      0xffffffffffffffffffffffffffffffffffffffffffffffffffffffffffffffff\n        /* \"#utility.yul\":9616:9621   */\n      dup3\n        /* \"#utility.yul\":9613:9690   */\n      eq\n        /* \"#utility.yul\":9610:9713   */\n      iszero\n      tag_263\n      jumpi\n        /* \"#utility.yul\":9693:9711   */\n      tag_263\n      tag_245\n      jump\t// in\n    tag_263:\n      pop\n        /* \"#utility.yul\":9740:9741   */\n      0x01\n        /* \"#utility.yul\":9729:9742   */\n      add\n      swap1\n        /* \"#utility.yul\":9553:9748   */\n      jump\t// out\n        /* \"#utility.yul\":9753:9865   */\n    tag_172:\n        /* \"#utility.yul\":9785:9786   */\n      0x00\n        /* \"#utility.yul\":9811:9812   */\n      dup3\n        /* \"#utility.yul\":9801:9836   */\n      tag_266\n      jumpi\n        /* \"#utility.yul\":9816:9834   */\n      tag_266\n      tag_249\n      jump\t// in\n    tag_266:\n      pop\n        /* \"#utility.yul\":9850:9859   */\n      mod\n      swap1\n        /* \"#utility.yul\":9753:9865   */\n      jump\t// out\n        /* \"#utility.yul\":9870:10054   */\n    tag_245:\n        /* \"#utility.yul\":9922:9999   */\n      0x4e487b7100000000000000000000000000000000000000000000000000000000\n        /* \"#utility.yul\":9919:9920   */\n      0x00\n        /* \"#utility.yul\":9912:10000   */\n      mstore\n        /* \"#utility.yul\":10019:10023   */\n      0x11\n        /* \"#utility.yul\":10016:10017   */\n      0x04\n        /* \"#utility.yul\":10009:10024   */\n      mstore\n        /* \"#utility.yul\":10043:10047   */\n      0x24\n        /* \"#utility.yul\":10040:10041   */\n      0x00\n        /* \"#utility.yul\":10033:10048   */\n      revert\n        /* \"#utility.yul\":10059:10243   */\n    tag_249:\n        /* \"#utility.yul\":10111:10188   */\n      0x4e487b7100000000000000000000000000000000000000000000000000000000\n        /* \"#utility.yul\":10108:10109   */\n      0x00\n        /* \"#utility.yul\":10101:10189   */\n      mstore\n        /* \"#utility.yul\":10208:10212   */\n      0x12\n        /* \"#utility.yul\":10205:10206   */\n      0x04\n        /* \"#utility.yul\":10198:10213   */\n      mstore\n        /* \"#utility.yul\":10232:10236   */\n      0x24\n        /* \"#utility.yul\":10229:10230   */\n      0x00\n        /* \"#utility.yul\":10222:10237   */\n      revert\n        /* \"#utility.yul\":10248:10432   */\n    tag_177:\n        /* \"#utility.yul\":10300:10377   */\n      0x4e487b7100000000000000000000000000000000000000000000000000000000\n        /* \"#utility.yul\":10297:10298   */\n      0x00\n        /* \"#utility.yul\":10290:10378   */\n      mstore\n        /* \"#utility.yul\":10397:10401   */\n      0x32\n        /* \"#utility.yul\":10394:10395   */\n      0x04\n        /* \"#utility.yul\":10387:10402   */\n      mstore\n        /* \"#utility.yul\":10421:10425   */\n      0x24\n        /* \"#utility.yul\":10418:10419   */\n      0x00\n        /* \"#utility.yul\":10411:10426   */\n      revert\n        /* \"#utility.yul\":10437:10621   */\n    tag_165:\n        /* \"#utility.yul\":10489:10566   */\n      0x4e487b7100000000000000000000000000000000000000000000000000000000\n        /* \"#utility.yul\":10486:10487   */\n      0x00\n        /* \"#utility.yul\":10479:10567   */\n      mstore\n        /* \"#utility.yul\":10586:10590   */\n      0x41\n        /* \"#utility.yul\":10583:10584   */\n      0x04\n        /* \"#utility.yul\":10576:10591   */\n      mstore\n        /* \"#utility.yul\":10610:10614   */\n      0x24\n        /* \"#utility.yul\":10607:10608   */\n      0x00\n        /* \"#utility.yul\":10600:10615   */\n      revert\n        /* \"#utility.yul\":10626:10803   */\n    tag_215:\n        /* \"#utility.yul\":10711:10777   */\n      0xffffffff00000000000000000000000000000000000000000000000000000000\n        /* \"#utility.yul\":10704:10709   */\n      dup2\n        /* \"#utility.yul\":10700:10778   */\n      and\n        /* \"#utility.yul\":10693:10698   */\n      dup2\n        /* \"#utility.yul\":10690:10779   */\n      eq\n        /* \"#utility.yul\":10680:10797   */\n      tag_272\n      jumpi\n        /* \"#utility.yul\":10793:10794   */\n      0x00\n        /* \"#utility.yul\":10790:10791   */\n      dup1\n        /* \"#utility.yul\":10783:10795   */\n      revert\n        /* \"#utility.yul\":10680:10797   */\n    tag_272:\n        /* \"#utility.yul\":10626:10803   */\n      pop\n      jump\t// out\n\n    auxdata: 0xa26469706673582212204c81d94afc87dfd379d2e25793344f6f70bb665ea1458b9205130af03f83974e64736f6c63430008070033\n}\n",
				"bytecode": {
					"linkReferences": {},
					"object": "60806040523480156200001157600080fd5b50604051620015c0380380620015c08339810160408190526200003491620001c5565b81516200004990600090602085019062000068565b5080516200005f90600190602084019062000068565b50505062000282565b82805462000076906200022f565b90600052602060002090601f0160209004810192826200009a5760008555620000e5565b82601f10620000b557805160ff1916838001178555620000e5565b82800160010185558215620000e5579182015b82811115620000e5578251825591602001919060010190620000c8565b50620000f3929150620000f7565b5090565b5b80821115620000f35760008155600101620000f8565b600082601f8301126200012057600080fd5b81516001600160401b03808211156200013d576200013d6200026c565b604051601f8301601f19908116603f011681019082821181831017156200016857620001686200026c565b816040528381526020925086838588010111156200018557600080fd5b600091505b83821015620001a957858201830151818301840152908201906200018a565b83821115620001bb5760008385830101525b9695505050505050565b60008060408385031215620001d957600080fd5b82516001600160401b0380821115620001f157600080fd5b620001ff868387016200010e565b935060208501519150808211156200021657600080fd5b5062000225858286016200010e565b9150509250929050565b600181811c908216806200024457607f821691505b602082108114156200026657634e487b7160e01b600052602260045260246000fd5b50919050565b634e487b7160e01b600052604160045260246000fd5b61132e80620002926000396000f3fe608060405234801561001057600080fd5b50600436106100ea5760003560e01c806370a082311161008c578063b88d4fde11610066578063b88d4fde14610241578063c87b56dd14610254578063e6c3b1f614610267578063e985e9c51461028757600080fd5b806370a08231146101f857806395d89b4114610226578063a22cb4651461022e57600080fd5b8063095ea7b3116100c8578063095ea7b31461018757806323b872dd1461019c57806342842e0e146101af5780636352211e146101c257600080fd5b806301ffc9a7146100ef57806306fdde0314610117578063081812fc1461012c575b600080fd5b6101026100fd366004610fab565b6102b5565b60405190151581526020015b60405180910390f35b61011f6103e6565b60405161010e91906110e8565b61016261013a366004610fe5565b60046020526000908152604090205473ffffffffffffffffffffffffffffffffffffffff1681565b60405173ffffffffffffffffffffffffffffffffffffffff909116815260200161010e565b61019a610195366004610f81565b610474565b005b61019a6101aa366004610e0f565b6105a9565b61019a6101bd366004610e0f565b610822565b6101626101d0366004610fe5565b60036020526000908152604090205473ffffffffffffffffffffffffffffffffffffffff1681565b610218610206366004610dc1565b60026020526000908152604090205481565b60405190815260200161010e565b61011f610981565b61019a61023c366004610f45565b61098e565b61019a61024f366004610e4b565b610a25565b61011f610262366004610fe5565b610b71565b610218610275366004610fe5565b60056020526000908152604090205481565b610102610295366004610ddc565b600660209081526000928352604080842090915290825290205460ff1681565b60007f01ffc9a7000000000000000000000000000000000000000000000000000000007fffffffff000000000000000000000000000000000000000000000000000000008316148061034857507f80ac58cd000000000000000000000000000000000000000000000000000000007fffffffff000000000000000000000000000000000000000000000000000000008316145b8061039457507f5b5e139f000000000000000000000000000000000000000000000000000000007fffffffff000000000000000000000000000000000000000000000000000000008316145b806103e057507f2a55205a000000000000000000000000000000000000000000000000000000007fffffffff000000000000000000000000000000000000000000000000000000008316145b92915050565b600080546103f39061116a565b80601f016020809104026020016040519081016040528092919081815260200182805461041f9061116a565b801561046c5780601f106104415761010080835404028352916020019161046c565b820191906000526020600020905b81548152906001019060200180831161044f57829003601f168201915b505050505081565b60008181526003602052604090205473ffffffffffffffffffffffffffffffffffffffff16338114806104d7575073ffffffffffffffffffffffffffffffffffffffff8116600090815260066020908152604080832033845290915290205460ff165b6105285760405162461bcd60e51b815260206004820152600e60248201527f4e6f7420617574686f72697a656400000000000000000000000000000000000060448201526064015b60405180910390fd5b60008281526004602052604080822080547fffffffffffffffffffffffff00000000000000000000000000000000000000001673ffffffffffffffffffffffffffffffffffffffff87811691821790925591518593918516917f8c5be1e5ebec7d5bd14f71427d1e84f3dd0314c0f7b2291e5b200ac8c7c3b92591a4505050565b60008181526003602052604090205473ffffffffffffffffffffffffffffffffffffffff84811691161461061f5760405162461bcd60e51b815260206004820152600a60248201527f57524f4e472046524f4d00000000000000000000000000000000000000000000604482015260640161051f565b73ffffffffffffffffffffffffffffffffffffffff82166106825760405162461bcd60e51b815260206004820152600860248201527f57524f4e4720544f000000000000000000000000000000000000000000000000604482015260640161051f565b3373ffffffffffffffffffffffffffffffffffffffff841614806106d6575073ffffffffffffffffffffffffffffffffffffffff8316600090815260066020908152604080832033845290915290205460ff165b80610704575060008181526004602052604090205473ffffffffffffffffffffffffffffffffffffffff1633145b6107505760405162461bcd60e51b815260206004820152600e60248201527f4e4f5420415554484f52495a4544000000000000000000000000000000000000604482015260640161051f565b73ffffffffffffffffffffffffffffffffffffffff808416600081815260026020908152604080832080547fffffffffffffffffffffffffffffffffffffffffffffffffffffffffffffffff019055938616808352848320805460010190558583526003825284832080547fffffffffffffffffffffffff00000000000000000000000000000000000000009081168317909155600490925284832080549092169091559251849392917fddf252ad1be2c89b69c2b068fc378daa952ba7f163c4a11628f55a4df523b3ef91a4505050565b61082d8383836105a9565b73ffffffffffffffffffffffffffffffffffffffff82163b158061093057506040517f150b7a020000000000000000000000000000000000000000000000000000000080825233600483015273ffffffffffffffffffffffffffffffffffffffff858116602484015260448301849052608060648401526000608484015290919084169063150b7a029060a401602060405180830381600087803b1580156108d457600080fd5b505af11580156108e8573d6000803e3d6000fd5b505050506040513d601f19601f8201168201806040525081019061090c9190610fc8565b7fffffffff0000000000000000000000000000000000000000000000000000000016145b61097c5760405162461bcd60e51b815260206004820152601060248201527f554e534146455f524543495049454e5400000000000000000000000000000000604482015260640161051f565b505050565b600180546103f39061116a565b33600081815260066020908152604080832073ffffffffffffffffffffffffffffffffffffffff87168085529083529281902080547fffffffffffffffffffffffffffffffffffffffffffffffffffffffffffffff001686151590811790915590519081529192917f17307eab39ab6107e8899845ad3d59bd9653f200f220920489ca2b5937696c31910160405180910390a35050565b610a308484846105a9565b73ffffffffffffffffffffffffffffffffffffffff83163b1580610b1f57506040517f150b7a02000000000000000000000000000000000000000000000000000000008082529073ffffffffffffffffffffffffffffffffffffffff85169063150b7a0290610aa990339089908890889060040161109f565b602060405180830381600087803b158015610ac357600080fd5b505af1158015610ad7573d6000803e3d6000fd5b505050506040513d601f19601f82011682018060405250810190610afb9190610fc8565b7fffffffff0000000000000000000000000000000000000000000000000000000016145b610b6b5760405162461bcd60e51b815260206004820152601060248201527f554e534146455f524543495049454e5400000000000000000000000000000000604482015260640161051f565b50505050565b60008181526003602052604090205460609073ffffffffffffffffffffffffffffffffffffffff16610be55760405162461bcd60e51b815260206004820152601c60248201527f4e6f20746f6b656e207769746820746869732049642065786973747300000000604482015260640161051f565b6000610bfc60408051602081019091526000815290565b90506000815111610c1c5760405180602001604052806000815250610c57565b6000838152600560205260409020548190610c3690610c5e565b604051602001610c47929190611048565b6040516020818303038152906040525b9392505050565b606081610c9e57505060408051808201909152600181527f3000000000000000000000000000000000000000000000000000000000000000602082015290565b8160005b8115610cc85780610cb2816111be565b9150610cc19050600a83611113565b9150610ca2565b60008167ffffffffffffffff811115610ce357610ce3611298565b6040519080825280601f01601f191660200182016040528015610d0d576020820181803683370190505b5090505b8415610d9057610d22600183611127565b9150610d2f600a866111f7565b610d3a9060306110fb565b60f81b818381518110610d4f57610d4f611269565b60200101907effffffffffffffffffffffffffffffffffffffffffffffffffffffffffffff1916908160001a905350610d89600a86611113565b9450610d11565b949350505050565b803573ffffffffffffffffffffffffffffffffffffffff81168114610dbc57600080fd5b919050565b600060208284031215610dd357600080fd5b610c5782610d98565b60008060408385031215610def57600080fd5b610df883610d98565b9150610e0660208401610d98565b90509250929050565b600080600060608486031215610e2457600080fd5b610e2d84610d98565b9250610e3b60208501610d98565b9150604084013590509250925092565b60008060008060808587031215610e6157600080fd5b610e6a85610d98565b9350610e7860208601610d98565b925060408501359150606085013567ffffffffffffffff80821115610e9c57600080fd5b818701915087601f830112610eb057600080fd5b813581811115610ec257610ec2611298565b604051601f82017fffffffffffffffffffffffffffffffffffffffffffffffffffffffffffffffe0908116603f01168101908382118183101715610f0857610f08611298565b816040528281528a6020848701011115610f2157600080fd5b82602086016020830137600060208483010152809550505050505092959194509250565b60008060408385031215610f5857600080fd5b610f6183610d98565b915060208301358015158114610f7657600080fd5b809150509250929050565b60008060408385031215610f9457600080fd5b610f9d83610d98565b946020939093013593505050565b600060208284031215610fbd57600080fd5b8135610c57816112c7565b600060208284031215610fda57600080fd5b8151610c57816112c7565b600060208284031215610ff757600080fd5b5035919050565b6000815180845261101681602086016020860161113e565b601f017fffffffffffffffffffffffffffffffffffffffffffffffffffffffffffffffe0169290920160200192915050565b6000835161105a81846020880161113e565b83519083019061106e81836020880161113e565b7f2e6a736f6e0000000000000000000000000000000000000000000000000000009101908152600501949350505050565b600073ffffffffffffffffffffffffffffffffffffffff8087168352808616602084015250836040830152608060608301526110de6080830184610ffe565b9695505050505050565b602081526000610c576020830184610ffe565b6000821982111561110e5761110e61120b565b500190565b6000826111225761112261123a565b500490565b6000828210156111395761113961120b565b500390565b60005b83811015611159578181015183820152602001611141565b83811115610b6b5750506000910152565b600181811c9082168061117e57607f821691505b602082108114156111b8577f4e487b7100000000000000000000000000000000000000000000000000000000600052602260045260246000fd5b50919050565b60007fffffffffffffffffffffffffffffffffffffffffffffffffffffffffffffffff8214156111f0576111f061120b565b5060010190565b6000826112065761120661123a565b500690565b7f4e487b7100000000000000000000000000000000000000000000000000000000600052601160045260246000fd5b7f4e487b7100000000000000000000000000000000000000000000000000000000600052601260045260246000fd5b7f4e487b7100000000000000000000000000000000000000000000000000000000600052603260045260246000fd5b7f4e487b7100000000000000000000000000000000000000000000000000000000600052604160045260246000fd5b7fffffffff00000000000000000000000000000000000000000000000000000000811681146112f557600080fd5b5056fea26469706673582212204c81d94afc87dfd379d2e25793344f6f70bb665ea1458b9205130af03f83974e64736f6c63430008070033",
					"opcodes": "PUSH1 0x80 PUSH1 0x40 MSTORE CALLVALUE DUP1 ISZERO PUSH3 0x11 JUMPI PUSH1 0x0 DUP1 REVERT JUMPDEST POP PUSH1 0x40 MLOAD PUSH3 0x15C0 CODESIZE SUB DUP1 PUSH3 0x15C0 DUP4 CODECOPY DUP2 ADD PUSH1 0x40 DUP2 SWAP1 MSTORE PUSH3 0x34 SWAP2 PUSH3 0x1C5 JUMP JUMPDEST DUP2 MLOAD PUSH3 0x49 SWAP1 PUSH1 0x0 SWAP1 PUSH1 0x20 DUP6 ADD SWAP1 PUSH3 0x68 JUMP JUMPDEST POP DUP1 MLOAD PUSH3 0x5F SWAP1 PUSH1 0x1 SWAP1 PUSH1 0x20 DUP5 ADD SWAP1 PUSH3 0x68 JUMP JUMPDEST POP POP POP PUSH3 0x282 JUMP JUMPDEST DUP3 DUP1 SLOAD PUSH3 0x76 SWAP1 PUSH3 0x22F JUMP JUMPDEST SWAP1 PUSH1 0x0 MSTORE PUSH1 0x20 PUSH1 0x0 KECCAK256 SWAP1 PUSH1 0x1F ADD PUSH1 0x20 SWAP1 DIV DUP2 ADD SWAP3 DUP3 PUSH3 0x9A JUMPI PUSH1 0x0 DUP6 SSTORE PUSH3 0xE5 JUMP JUMPDEST DUP3 PUSH1 0x1F LT PUSH3 0xB5 JUMPI DUP1 MLOAD PUSH1 0xFF NOT AND DUP4 DUP1 ADD OR DUP6 SSTORE PUSH3 0xE5 JUMP JUMPDEST DUP3 DUP1 ADD PUSH1 0x1 ADD DUP6 SSTORE DUP3 ISZERO PUSH3 0xE5 JUMPI SWAP2 DUP3 ADD JUMPDEST DUP3 DUP2 GT ISZERO PUSH3 0xE5 JUMPI DUP3 MLOAD DUP3 SSTORE SWAP2 PUSH1 0x20 ADD SWAP2 SWAP1 PUSH1 0x1 ADD SWAP1 PUSH3 0xC8 JUMP JUMPDEST POP PUSH3 0xF3 SWAP3 SWAP2 POP PUSH3 0xF7 JUMP JUMPDEST POP SWAP1 JUMP JUMPDEST JUMPDEST DUP1 DUP3 GT ISZERO PUSH3 0xF3 JUMPI PUSH1 0x0 DUP2 SSTORE PUSH1 0x1 ADD PUSH3 0xF8 JUMP JUMPDEST PUSH1 0x0 DUP3 PUSH1 0x1F DUP4 ADD SLT PUSH3 0x120 JUMPI PUSH1 0x0 DUP1 REVERT JUMPDEST DUP2 MLOAD PUSH1 0x1 PUSH1 0x1 PUSH1 0x40 SHL SUB DUP1 DUP3 GT ISZERO PUSH3 0x13D JUMPI PUSH3 0x13D PUSH3 0x26C JUMP JUMPDEST PUSH1 0x40 MLOAD PUSH1 0x1F DUP4 ADD PUSH1 0x1F NOT SWAP1 DUP2 AND PUSH1 0x3F ADD AND DUP2 ADD SWAP1 DUP3 DUP3 GT DUP2 DUP4 LT OR ISZERO PUSH3 0x168 JUMPI PUSH3 0x168 PUSH3 0x26C JUMP JUMPDEST DUP2 PUSH1 0x40 MSTORE DUP4 DUP2 MSTORE PUSH1 0x20 SWAP3 POP DUP7 DUP4 DUP6 DUP9 ADD ADD GT ISZERO PUSH3 0x185 JUMPI PUSH1 0x0 DUP1 REVERT JUMPDEST PUSH1 0x0 SWAP2 POP JUMPDEST DUP4 DUP3 LT ISZERO PUSH3 0x1A9 JUMPI DUP6 DUP3 ADD DUP4 ADD MLOAD DUP2 DUP4 ADD DUP5 ADD MSTORE SWAP1 DUP3 ADD SWAP1 PUSH3 0x18A JUMP JUMPDEST DUP4 DUP3 GT ISZERO PUSH3 0x1BB JUMPI PUSH1 0x0 DUP4 DUP6 DUP4 ADD ADD MSTORE JUMPDEST SWAP7 SWAP6 POP POP POP POP POP POP JUMP JUMPDEST PUSH1 0x0 DUP1 PUSH1 0x40 DUP4 DUP6 SUB SLT ISZERO PUSH3 0x1D9 JUMPI PUSH1 0x0 DUP1 REVERT JUMPDEST DUP3 MLOAD PUSH1 0x1 PUSH1 0x1 PUSH1 0x40 SHL SUB DUP1 DUP3 GT ISZERO PUSH3 0x1F1 JUMPI PUSH1 0x0 DUP1 REVERT JUMPDEST PUSH3 0x1FF DUP7 DUP4 DUP8 ADD PUSH3 0x10E JUMP JUMPDEST SWAP4 POP PUSH1 0x20 DUP6 ADD MLOAD SWAP2 POP DUP1 DUP3 GT ISZERO PUSH3 0x216 JUMPI PUSH1 0x0 DUP1 REVERT JUMPDEST POP PUSH3 0x225 DUP6 DUP3 DUP7 ADD PUSH3 0x10E JUMP JUMPDEST SWAP2 POP POP SWAP3 POP SWAP3 SWAP1 POP JUMP JUMPDEST PUSH1 0x1 DUP2 DUP2 SHR SWAP1 DUP3 AND DUP1 PUSH3 0x244 JUMPI PUSH1 0x7F DUP3 AND SWAP2 POP JUMPDEST PUSH1 0x20 DUP3 LT DUP2 EQ ISZERO PUSH3 0x266 JUMPI PUSH4 0x4E487B71 PUSH1 0xE0 SHL PUSH1 0x0 MSTORE PUSH1 0x22 PUSH1 0x4 MSTORE PUSH1 0x24 PUSH1 0x0 REVERT JUMPDEST POP SWAP2 SWAP1 POP JUMP JUMPDEST PUSH4 0x4E487B71 PUSH1 0xE0 SHL PUSH1 0x0 MSTORE PUSH1 0x41 PUSH1 0x4 MSTORE PUSH1 0x24 PUSH1 0x0 REVERT JUMPDEST PUSH2 0x132E DUP1 PUSH3 0x292 PUSH1 0x0 CODECOPY PUSH1 0x0 RETURN INVALID PUSH1 0x80 PUSH1 0x40 MSTORE CALLVALUE DUP1 ISZERO PUSH2 0x10 JUMPI PUSH1 0x0 DUP1 REVERT JUMPDEST POP PUSH1 0x4 CALLDATASIZE LT PUSH2 0xEA JUMPI PUSH1 0x0 CALLDATALOAD PUSH1 0xE0 SHR DUP1 PUSH4 0x70A08231 GT PUSH2 0x8C JUMPI DUP1 PUSH4 0xB88D4FDE GT PUSH2 0x66 JUMPI DUP1 PUSH4 0xB88D4FDE EQ PUSH2 0x241 JUMPI DUP1 PUSH4 0xC87B56DD EQ PUSH2 0x254 JUMPI DUP1 PUSH4 0xE6C3B1F6 EQ PUSH2 0x267 JUMPI DUP1 PUSH4 0xE985E9C5 EQ PUSH2 0x287 JUMPI PUSH1 0x0 DUP1 REVERT JUMPDEST DUP1 PUSH4 0x70A08231 EQ PUSH2 0x1F8 JUMPI DUP1 PUSH4 0x95D89B41 EQ PUSH2 0x226 JUMPI DUP1 PUSH4 0xA22CB465 EQ PUSH2 0x22E JUMPI PUSH1 0x0 DUP1 REVERT JUMPDEST DUP1 PUSH4 0x95EA7B3 GT PUSH2 0xC8 JUMPI DUP1 PUSH4 0x95EA7B3 EQ PUSH2 0x187 JUMPI DUP1 PUSH4 0x23B872DD EQ PUSH2 0x19C JUMPI DUP1 PUSH4 0x42842E0E EQ PUSH2 0x1AF JUMPI DUP1 PUSH4 0x6352211E EQ PUSH2 0x1C2 JUMPI PUSH1 0x0 DUP1 REVERT JUMPDEST DUP1 PUSH4 0x1FFC9A7 EQ PUSH2 0xEF JUMPI DUP1 PUSH4 0x6FDDE03 EQ PUSH2 0x117 JUMPI DUP1 PUSH4 0x81812FC EQ PUSH2 0x12C JUMPI JUMPDEST PUSH1 0x0 DUP1 REVERT JUMPDEST PUSH2 0x102 PUSH2 0xFD CALLDATASIZE PUSH1 0x4 PUSH2 0xFAB JUMP JUMPDEST PUSH2 0x2B5 JUMP JUMPDEST PUSH1 0x40 MLOAD SWAP1 ISZERO ISZERO DUP2 MSTORE PUSH1 0x20 ADD JUMPDEST PUSH1 0x40 MLOAD DUP1 SWAP2 SUB SWAP1 RETURN JUMPDEST PUSH2 0x11F PUSH2 0x3E6 JUMP JUMPDEST PUSH1 0x40 MLOAD PUSH2 0x10E SWAP2 SWAP1 PUSH2 0x10E8 JUMP JUMPDEST PUSH2 0x162 PUSH2 0x13A CALLDATASIZE PUSH1 0x4 PUSH2 0xFE5 JUMP JUMPDEST PUSH1 0x4 PUSH1 0x20 MSTORE PUSH1 0x0 SWAP1 DUP2 MSTORE PUSH1 0x40 SWAP1 KECCAK256 SLOAD PUSH20 0xFFFFFFFFFFFFFFFFFFFFFFFFFFFFFFFFFFFFFFFF AND DUP2 JUMP JUMPDEST PUSH1 0x40 MLOAD PUSH20 0xFFFFFFFFFFFFFFFFFFFFFFFFFFFFFFFFFFFFFFFF SWAP1 SWAP2 AND DUP2 MSTORE PUSH1 0x20 ADD PUSH2 0x10E JUMP JUMPDEST PUSH2 0x19A PUSH2 0x195 CALLDATASIZE PUSH1 0x4 PUSH2 0xF81 JUMP JUMPDEST PUSH2 0x474 JUMP JUMPDEST STOP JUMPDEST PUSH2 0x19A PUSH2 0x1AA CALLDATASIZE PUSH1 0x4 PUSH2 0xE0F JUMP JUMPDEST PUSH2 0x5A9 JUMP JUMPDEST PUSH2 0x19A PUSH2 0x1BD CALLDATASIZE PUSH1 0x4 PUSH2 0xE0F JUMP JUMPDEST PUSH2 0x822 JUMP JUMPDEST PUSH2 0x162 PUSH2 0x1D0 CALLDATASIZE PUSH1 0x4 PUSH2 0xFE5 JUMP JUMPDEST PUSH1 0x3 PUSH1 0x20 MSTORE PUSH1 0x0 SWAP1 DUP2 MSTORE PUSH1 0x40 SWAP1 KECCAK256 SLOAD PUSH20 0xFFFFFFFFFFFFFFFFFFFFFFFFFFFFFFFFFFFFFFFF AND DUP2 JUMP JUMPDEST PUSH2 0x218 PUSH2 0x206 CALLDATASIZE PUSH1 0x4 PUSH2 0xDC1 JUMP JUMPDEST PUSH1 0x2 PUSH1 0x20 MSTORE PUSH1 0x0 SWAP1 DUP2 MSTORE PUSH1 0x40 SWAP1 KECCAK256 SLOAD DUP2 JUMP JUMPDEST PUSH1 0x40 MLOAD SWAP1 DUP2 MSTORE PUSH1 0x20 ADD PUSH2 0x10E JUMP JUMPDEST PUSH2 0x11F PUSH2 0x981 JUMP JUMPDEST PUSH2 0x19A PUSH2 0x23C CALLDATASIZE PUSH1 0x4 PUSH2 0xF45 JUMP JUMPDEST PUSH2 0x98E JUMP JUMPDEST PUSH2 0x19A PUSH2 0x24F CALLDATASIZE PUSH1 0x4 PUSH2 0xE4B JUMP JUMPDEST PUSH2 0xA25 JUMP JUMPDEST PUSH2 0x11F PUSH2 0x262 CALLDATASIZE PUSH1 0x4 PUSH2 0xFE5 JUMP JUMPDEST PUSH2 0xB71 JUMP JUMPDEST PUSH2 0x218 PUSH2 0x275 CALLDATASIZE PUSH1 0x4 PUSH2 0xFE5 JUMP JUMPDEST PUSH1 0x5 PUSH1 0x20 MSTORE PUSH1 0x0 SWAP1 DUP2 MSTORE PUSH1 0x40 SWAP1 KECCAK256 SLOAD DUP2 JUMP JUMPDEST PUSH2 0x102 PUSH2 0x295 CALLDATASIZE PUSH1 0x4 PUSH2 0xDDC JUMP JUMPDEST PUSH1 0x6 PUSH1 0x20 SWAP1 DUP2 MSTORE PUSH1 0x0 SWAP3 DUP4 MSTORE PUSH1 0x40 DUP1 DUP5 KECCAK256 SWAP1 SWAP2 MSTORE SWAP1 DUP3 MSTORE SWAP1 KECCAK256 SLOAD PUSH1 0xFF AND DUP2 JUMP JUMPDEST PUSH1 0x0 PUSH32 0x1FFC9A700000000000000000000000000000000000000000000000000000000 PUSH32 0xFFFFFFFF00000000000000000000000000000000000000000000000000000000 DUP4 AND EQ DUP1 PUSH2 0x348 JUMPI POP PUSH32 0x80AC58CD00000000000000000000000000000000000000000000000000000000 PUSH32 0xFFFFFFFF00000000000000000000000000000000000000000000000000000000 DUP4 AND EQ JUMPDEST DUP1 PUSH2 0x394 JUMPI POP PUSH32 0x5B5E139F00000000000000000000000000000000000000000000000000000000 PUSH32 0xFFFFFFFF00000000000000000000000000000000000000000000000000000000 DUP4 AND EQ JUMPDEST DUP1 PUSH2 0x3E0 JUMPI POP PUSH32 0x2A55205A00000000000000000000000000000000000000000000000000000000 PUSH32 0xFFFFFFFF00000000000000000000000000000000000000000000000000000000 DUP4 AND EQ JUMPDEST SWAP3 SWAP2 POP POP JUMP JUMPDEST PUSH1 0x0 DUP1 SLOAD PUSH2 0x3F3 SWAP1 PUSH2 0x116A JUMP JUMPDEST DUP1 PUSH1 0x1F ADD PUSH1 0x20 DUP1 SWAP2 DIV MUL PUSH1 0x20 ADD PUSH1 0x40 MLOAD SWAP1 DUP2 ADD PUSH1 0x40 MSTORE DUP1 SWAP3 SWAP2 SWAP1 DUP2 DUP2 MSTORE PUSH1 0x20 ADD DUP3 DUP1 SLOAD PUSH2 0x41F SWAP1 PUSH2 0x116A JUMP JUMPDEST DUP1 ISZERO PUSH2 0x46C JUMPI DUP1 PUSH1 0x1F LT PUSH2 0x441 JUMPI PUSH2 0x100 DUP1 DUP4 SLOAD DIV MUL DUP4 MSTORE SWAP2 PUSH1 0x20 ADD SWAP2 PUSH2 0x46C JUMP JUMPDEST DUP3 ADD SWAP2 SWAP1 PUSH1 0x0 MSTORE PUSH1 0x20 PUSH1 0x0 KECCAK256 SWAP1 JUMPDEST DUP2 SLOAD DUP2 MSTORE SWAP1 PUSH1 0x1 ADD SWAP1 PUSH1 0x20 ADD DUP1 DUP4 GT PUSH2 0x44F JUMPI DUP3 SWAP1 SUB PUSH1 0x1F AND DUP3 ADD SWAP2 JUMPDEST POP POP POP POP POP DUP2 JUMP JUMPDEST PUSH1 0x0 DUP2 DUP2 MSTORE PUSH1 0x3 PUSH1 0x20 MSTORE PUSH1 0x40 SWAP1 KECCAK256 SLOAD PUSH20 0xFFFFFFFFFFFFFFFFFFFFFFFFFFFFFFFFFFFFFFFF AND CALLER DUP2 EQ DUP1 PUSH2 0x4D7 JUMPI POP PUSH20 0xFFFFFFFFFFFFFFFFFFFFFFFFFFFFFFFFFFFFFFFF DUP2 AND PUSH1 0x0 SWAP1 DUP2 MSTORE PUSH1 0x6 PUSH1 0x20 SWAP1 DUP2 MSTORE PUSH1 0x40 DUP1 DUP4 KECCAK256 CALLER DUP5 MSTORE SWAP1 SWAP2 MSTORE SWAP1 KECCAK256 SLOAD PUSH1 0xFF AND JUMPDEST PUSH2 0x528 JUMPI PUSH1 0x40 MLOAD PUSH3 0x461BCD PUSH1 0xE5 SHL DUP2 MSTORE PUSH1 0x20 PUSH1 0x4 DUP3 ADD MSTORE PUSH1 0xE PUSH1 0x24 DUP3 ADD MSTORE PUSH32 0x4E6F7420617574686F72697A6564000000000000000000000000000000000000 PUSH1 0x44 DUP3 ADD MSTORE PUSH1 0x64 ADD JUMPDEST PUSH1 0x40 MLOAD DUP1 SWAP2 SUB SWAP1 REVERT JUMPDEST PUSH1 0x0 DUP3 DUP2 MSTORE PUSH1 0x4 PUSH1 0x20 MSTORE PUSH1 0x40 DUP1 DUP3 KECCAK256 DUP1 SLOAD PUSH32 0xFFFFFFFFFFFFFFFFFFFFFFFF0000000000000000000000000000000000000000 AND PUSH20 0xFFFFFFFFFFFFFFFFFFFFFFFFFFFFFFFFFFFFFFFF DUP8 DUP2 AND SWAP2 DUP3 OR SWAP1 SWAP3 SSTORE SWAP2 MLOAD DUP6 SWAP4 SWAP2 DUP6 AND SWAP2 PUSH32 0x8C5BE1E5EBEC7D5BD14F71427D1E84F3DD0314C0F7B2291E5B200AC8C7C3B925 SWAP2 LOG4 POP POP POP JUMP JUMPDEST PUSH1 0x0 DUP2 DUP2 MSTORE PUSH1 0x3 PUSH1 0x20 MSTORE PUSH1 0x40 SWAP1 KECCAK256 SLOAD PUSH20 0xFFFFFFFFFFFFFFFFFFFFFFFFFFFFFFFFFFFFFFFF DUP5 DUP2 AND SWAP2 AND EQ PUSH2 0x61F JUMPI PUSH1 0x40 MLOAD PUSH3 0x461BCD PUSH1 0xE5 SHL DUP2 MSTORE PUSH1 0x20 PUSH1 0x4 DUP3 ADD MSTORE PUSH1 0xA PUSH1 0x24 DUP3 ADD MSTORE PUSH32 0x57524F4E472046524F4D00000000000000000000000000000000000000000000 PUSH1 0x44 DUP3 ADD MSTORE PUSH1 0x64 ADD PUSH2 0x51F JUMP JUMPDEST PUSH20 0xFFFFFFFFFFFFFFFFFFFFFFFFFFFFFFFFFFFFFFFF DUP3 AND PUSH2 0x682 JUMPI PUSH1 0x40 MLOAD PUSH3 0x461BCD PUSH1 0xE5 SHL DUP2 MSTORE PUSH1 0x20 PUSH1 0x4 DUP3 ADD MSTORE PUSH1 0x8 PUSH1 0x24 DUP3 ADD MSTORE PUSH32 0x57524F4E4720544F000000000000000000000000000000000000000000000000 PUSH1 0x44 DUP3 ADD MSTORE PUSH1 0x64 ADD PUSH2 0x51F JUMP JUMPDEST CALLER PUSH20 0xFFFFFFFFFFFFFFFFFFFFFFFFFFFFFFFFFFFFFFFF DUP5 AND EQ DUP1 PUSH2 0x6D6 JUMPI POP PUSH20 0xFFFFFFFFFFFFFFFFFFFFFFFFFFFFFFFFFFFFFFFF DUP4 AND PUSH1 0x0 SWAP1 DUP2 MSTORE PUSH1 0x6 PUSH1 0x20 SWAP1 DUP2 MSTORE PUSH1 0x40 DUP1 DUP4 KECCAK256 CALLER DUP5 MSTORE SWAP1 SWAP2 MSTORE SWAP1 KECCAK256 SLOAD PUSH1 0xFF AND JUMPDEST DUP1 PUSH2 0x704 JUMPI POP PUSH1 0x0 DUP2 DUP2 MSTORE PUSH1 0x4 PUSH1 0x20 MSTORE PUSH1 0x40 SWAP1 KECCAK256 SLOAD PUSH20 0xFFFFFFFFFFFFFFFFFFFFFFFFFFFFFFFFFFFFFFFF AND CALLER EQ JUMPDEST PUSH2 0x750 JUMPI PUSH1 0x40 MLOAD PUSH3 0x461BCD PUSH1 0xE5 SHL DUP2 MSTORE PUSH1 0x20 PUSH1 0x4 DUP3 ADD MSTORE PUSH1 0xE PUSH1 0x24 DUP3 ADD MSTORE PUSH32 0x4E4F5420415554484F52495A4544000000000000000000000000000000000000 PUSH1 0x44 DUP3 ADD MSTORE PUSH1 0x64 ADD PUSH2 0x51F JUMP JUMPDEST PUSH20 0xFFFFFFFFFFFFFFFFFFFFFFFFFFFFFFFFFFFFFFFF DUP1 DUP5 AND PUSH1 0x0 DUP2 DUP2 MSTORE PUSH1 0x2 PUSH1 0x20 SWAP1 DUP2 MSTORE PUSH1 0x40 DUP1 DUP4 KECCAK256 DUP1 SLOAD PUSH32 0xFFFFFFFFFFFFFFFFFFFFFFFFFFFFFFFFFFFFFFFFFFFFFFFFFFFFFFFFFFFFFFFF ADD SWAP1 SSTORE SWAP4 DUP7 AND DUP1 DUP4 MSTORE DUP5 DUP4 KECCAK256 DUP1 SLOAD PUSH1 0x1 ADD SWAP1 SSTORE DUP6 DUP4 MSTORE PUSH1 0x3 DUP3 MSTORE DUP5 DUP4 KECCAK256 DUP1 SLOAD PUSH32 0xFFFFFFFFFFFFFFFFFFFFFFFF0000000000000000000000000000000000000000 SWAP1 DUP2 AND DUP4 OR SWAP1 SWAP2 SSTORE PUSH1 0x4 SWAP1 SWAP3 MSTORE DUP5 DUP4 KECCAK256 DUP1 SLOAD SWAP1 SWAP3 AND SWAP1 SWAP2 SSTORE SWAP3 MLOAD DUP5 SWAP4 SWAP3 SWAP2 PUSH32 0xDDF252AD1BE2C89B69C2B068FC378DAA952BA7F163C4A11628F55A4DF523B3EF SWAP2 LOG4 POP POP POP JUMP JUMPDEST PUSH2 0x82D DUP4 DUP4 DUP4 PUSH2 0x5A9 JUMP JUMPDEST PUSH20 0xFFFFFFFFFFFFFFFFFFFFFFFFFFFFFFFFFFFFFFFF DUP3 AND EXTCODESIZE ISZERO DUP1 PUSH2 0x930 JUMPI POP PUSH1 0x40 MLOAD PUSH32 0x150B7A0200000000000000000000000000000000000000000000000000000000 DUP1 DUP3 MSTORE CALLER PUSH1 0x4 DUP4 ADD MSTORE PUSH20 0xFFFFFFFFFFFFFFFFFFFFFFFFFFFFFFFFFFFFFFFF DUP6 DUP2 AND PUSH1 0x24 DUP5 ADD MSTORE PUSH1 0x44 DUP4 ADD DUP5 SWAP1 MSTORE PUSH1 0x80 PUSH1 0x64 DUP5 ADD MSTORE PUSH1 0x0 PUSH1 0x84 DUP5 ADD MSTORE SWAP1 SWAP2 SWAP1 DUP5 AND SWAP1 PUSH4 0x150B7A02 SWAP1 PUSH1 0xA4 ADD PUSH1 0x20 PUSH1 0x40 MLOAD DUP1 DUP4 SUB DUP2 PUSH1 0x0 DUP8 DUP1 EXTCODESIZE ISZERO DUP1 ISZERO PUSH2 0x8D4 JUMPI PUSH1 0x0 DUP1 REVERT JUMPDEST POP GAS CALL ISZERO DUP1 ISZERO PUSH2 0x8E8 JUMPI RETURNDATASIZE PUSH1 0x0 DUP1 RETURNDATACOPY RETURNDATASIZE PUSH1 0x0 REVERT JUMPDEST POP POP POP POP PUSH1 0x40 MLOAD RETURNDATASIZE PUSH1 0x1F NOT PUSH1 0x1F DUP3 ADD AND DUP3 ADD DUP1 PUSH1 0x40 MSTORE POP DUP2 ADD SWAP1 PUSH2 0x90C SWAP2 SWAP1 PUSH2 0xFC8 JUMP JUMPDEST PUSH32 0xFFFFFFFF00000000000000000000000000000000000000000000000000000000 AND EQ JUMPDEST PUSH2 0x97C JUMPI PUSH1 0x40 MLOAD PUSH3 0x461BCD PUSH1 0xE5 SHL DUP2 MSTORE PUSH1 0x20 PUSH1 0x4 DUP3 ADD MSTORE PUSH1 0x10 PUSH1 0x24 DUP3 ADD MSTORE PUSH32 0x554E534146455F524543495049454E5400000000000000000000000000000000 PUSH1 0x44 DUP3 ADD MSTORE PUSH1 0x64 ADD PUSH2 0x51F JUMP JUMPDEST POP POP POP JUMP JUMPDEST PUSH1 0x1 DUP1 SLOAD PUSH2 0x3F3 SWAP1 PUSH2 0x116A JUMP JUMPDEST CALLER PUSH1 0x0 DUP2 DUP2 MSTORE PUSH1 0x6 PUSH1 0x20 SWAP1 DUP2 MSTORE PUSH1 0x40 DUP1 DUP4 KECCAK256 PUSH20 0xFFFFFFFFFFFFFFFFFFFFFFFFFFFFFFFFFFFFFFFF DUP8 AND DUP1 DUP6 MSTORE SWAP1 DUP4 MSTORE SWAP3 DUP2 SWAP1 KECCAK256 DUP1 SLOAD PUSH32 0xFFFFFFFFFFFFFFFFFFFFFFFFFFFFFFFFFFFFFFFFFFFFFFFFFFFFFFFFFFFFFF00 AND DUP7 ISZERO ISZERO SWAP1 DUP2 OR SWAP1 SWAP2 SSTORE SWAP1 MLOAD SWAP1 DUP2 MSTORE SWAP2 SWAP3 SWAP2 PUSH32 0x17307EAB39AB6107E8899845AD3D59BD9653F200F220920489CA2B5937696C31 SWAP2 ADD PUSH1 0x40 MLOAD DUP1 SWAP2 SUB SWAP1 LOG3 POP POP JUMP JUMPDEST PUSH2 0xA30 DUP5 DUP5 DUP5 PUSH2 0x5A9 JUMP JUMPDEST PUSH20 0xFFFFFFFFFFFFFFFFFFFFFFFFFFFFFFFFFFFFFFFF DUP4 AND EXTCODESIZE ISZERO DUP1 PUSH2 0xB1F JUMPI POP PUSH1 0x40 MLOAD PUSH32 0x150B7A0200000000000000000000000000000000000000000000000000000000 DUP1 DUP3 MSTORE SWAP1 PUSH20 0xFFFFFFFFFFFFFFFFFFFFFFFFFFFFFFFFFFFFFFFF DUP6 AND SWAP1 PUSH4 0x150B7A02 SWAP1 PUSH2 0xAA9 SWAP1 CALLER SWAP1 DUP10 SWAP1 DUP9 SWAP1 DUP9 SWAP1 PUSH1 0x4 ADD PUSH2 0x109F JUMP JUMPDEST PUSH1 0x20 PUSH1 0x40 MLOAD DUP1 DUP4 SUB DUP2 PUSH1 0x0 DUP8 DUP1 EXTCODESIZE ISZERO DUP1 ISZERO PUSH2 0xAC3 JUMPI PUSH1 0x0 DUP1 REVERT JUMPDEST POP GAS CALL ISZERO DUP1 ISZERO PUSH2 0xAD7 JUMPI RETURNDATASIZE PUSH1 0x0 DUP1 RETURNDATACOPY RETURNDATASIZE PUSH1 0x0 REVERT JUMPDEST POP POP POP POP PUSH1 0x40 MLOAD RETURNDATASIZE PUSH1 0x1F NOT PUSH1 0x1F DUP3 ADD AND DUP3 ADD DUP1 PUSH1 0x40 MSTORE POP DUP2 ADD SWAP1 PUSH2 0xAFB SWAP2 SWAP1 PUSH2 0xFC8 JUMP JUMPDEST PUSH32 0xFFFFFFFF00000000000000000000000000000000000000000000000000000000 AND EQ JUMPDEST PUSH2 0xB6B JUMPI PUSH1 0x40 MLOAD PUSH3 0x461BCD PUSH1 0xE5 SHL DUP2 MSTORE PUSH1 0x20 PUSH1 0x4 DUP3 ADD MSTORE PUSH1 0x10 PUSH1 0x24 DUP3 ADD MSTORE PUSH32 0x554E534146455F524543495049454E5400000000000000000000000000000000 PUSH1 0x44 DUP3 ADD MSTORE PUSH1 0x64 ADD PUSH2 0x51F JUMP JUMPDEST POP POP POP POP JUMP JUMPDEST PUSH1 0x0 DUP2 DUP2 MSTORE PUSH1 0x3 PUSH1 0x20 MSTORE PUSH1 0x40 SWAP1 KECCAK256 SLOAD PUSH1 0x60 SWAP1 PUSH20 0xFFFFFFFFFFFFFFFFFFFFFFFFFFFFFFFFFFFFFFFF AND PUSH2 0xBE5 JUMPI PUSH1 0x40 MLOAD PUSH3 0x461BCD PUSH1 0xE5 SHL DUP2 MSTORE PUSH1 0x20 PUSH1 0x4 DUP3 ADD MSTORE PUSH1 0x1C PUSH1 0x24 DUP3 ADD MSTORE PUSH32 0x4E6F20746F6B656E207769746820746869732049642065786973747300000000 PUSH1 0x44 DUP3 ADD MSTORE PUSH1 0x64 ADD PUSH2 0x51F JUMP JUMPDEST PUSH1 0x0 PUSH2 0xBFC PUSH1 0x40 DUP1 MLOAD PUSH1 0x20 DUP2 ADD SWAP1 SWAP2 MSTORE PUSH1 0x0 DUP2 MSTORE SWAP1 JUMP JUMPDEST SWAP1 POP PUSH1 0x0 DUP2 MLOAD GT PUSH2 0xC1C JUMPI PUSH1 0x40 MLOAD DUP1 PUSH1 0x20 ADD PUSH1 0x40 MSTORE DUP1 PUSH1 0x0 DUP2 MSTORE POP PUSH2 0xC57 JUMP JUMPDEST PUSH1 0x0 DUP4 DUP2 MSTORE PUSH1 0x5 PUSH1 0x20 MSTORE PUSH1 0x40 SWAP1 KECCAK256 SLOAD DUP2 SWAP1 PUSH2 0xC36 SWAP1 PUSH2 0xC5E JUMP JUMPDEST PUSH1 0x40 MLOAD PUSH1 0x20 ADD PUSH2 0xC47 SWAP3 SWAP2 SWAP1 PUSH2 0x1048 JUMP JUMPDEST PUSH1 0x40 MLOAD PUSH1 0x20 DUP2 DUP4 SUB SUB DUP2 MSTORE SWAP1 PUSH1 0x40 MSTORE JUMPDEST SWAP4 SWAP3 POP POP POP JUMP JUMPDEST PUSH1 0x60 DUP2 PUSH2 0xC9E JUMPI POP POP PUSH1 0x40 DUP1 MLOAD DUP1 DUP3 ADD SWAP1 SWAP2 MSTORE PUSH1 0x1 DUP2 MSTORE PUSH32 0x3000000000000000000000000000000000000000000000000000000000000000 PUSH1 0x20 DUP3 ADD MSTORE SWAP1 JUMP JUMPDEST DUP2 PUSH1 0x0 JUMPDEST DUP2 ISZERO PUSH2 0xCC8 JUMPI DUP1 PUSH2 0xCB2 DUP2 PUSH2 0x11BE JUMP JUMPDEST SWAP2 POP PUSH2 0xCC1 SWAP1 POP PUSH1 0xA DUP4 PUSH2 0x1113 JUMP JUMPDEST SWAP2 POP PUSH2 0xCA2 JUMP JUMPDEST PUSH1 0x0 DUP2 PUSH8 0xFFFFFFFFFFFFFFFF DUP2 GT ISZERO PUSH2 0xCE3 JUMPI PUSH2 0xCE3 PUSH2 0x1298 JUMP JUMPDEST PUSH1 0x40 MLOAD SWAP1 DUP1 DUP3 MSTORE DUP1 PUSH1 0x1F ADD PUSH1 0x1F NOT AND PUSH1 0x20 ADD DUP3 ADD PUSH1 0x40 MSTORE DUP1 ISZERO PUSH2 0xD0D JUMPI PUSH1 0x20 DUP3 ADD DUP2 DUP1 CALLDATASIZE DUP4 CALLDATACOPY ADD SWAP1 POP JUMPDEST POP SWAP1 POP JUMPDEST DUP5 ISZERO PUSH2 0xD90 JUMPI PUSH2 0xD22 PUSH1 0x1 DUP4 PUSH2 0x1127 JUMP JUMPDEST SWAP2 POP PUSH2 0xD2F PUSH1 0xA DUP7 PUSH2 0x11F7 JUMP JUMPDEST PUSH2 0xD3A SWAP1 PUSH1 0x30 PUSH2 0x10FB JUMP JUMPDEST PUSH1 0xF8 SHL DUP2 DUP4 DUP2 MLOAD DUP2 LT PUSH2 0xD4F JUMPI PUSH2 0xD4F PUSH2 0x1269 JUMP JUMPDEST PUSH1 0x20 ADD ADD SWAP1 PUSH31 0xFFFFFFFFFFFFFFFFFFFFFFFFFFFFFFFFFFFFFFFFFFFFFFFFFFFFFFFFFFFFFF NOT AND SWAP1 DUP2 PUSH1 0x0 BYTE SWAP1 MSTORE8 POP PUSH2 0xD89 PUSH1 0xA DUP7 PUSH2 0x1113 JUMP JUMPDEST SWAP5 POP PUSH2 0xD11 JUMP JUMPDEST SWAP5 SWAP4 POP POP POP POP JUMP JUMPDEST DUP1 CALLDATALOAD PUSH20 0xFFFFFFFFFFFFFFFFFFFFFFFFFFFFFFFFFFFFFFFF DUP2 AND DUP2 EQ PUSH2 0xDBC JUMPI PUSH1 0x0 DUP1 REVERT JUMPDEST SWAP2 SWAP1 POP JUMP JUMPDEST PUSH1 0x0 PUSH1 0x20 DUP3 DUP5 SUB SLT ISZERO PUSH2 0xDD3 JUMPI PUSH1 0x0 DUP1 REVERT JUMPDEST PUSH2 0xC57 DUP3 PUSH2 0xD98 JUMP JUMPDEST PUSH1 0x0 DUP1 PUSH1 0x40 DUP4 DUP6 SUB SLT ISZERO PUSH2 0xDEF JUMPI PUSH1 0x0 DUP1 REVERT JUMPDEST PUSH2 0xDF8 DUP4 PUSH2 0xD98 JUMP JUMPDEST SWAP2 POP PUSH2 0xE06 PUSH1 0x20 DUP5 ADD PUSH2 0xD98 JUMP JUMPDEST SWAP1 POP SWAP3 POP SWAP3 SWAP1 POP JUMP JUMPDEST PUSH1 0x0 DUP1 PUSH1 0x0 PUSH1 0x60 DUP5 DUP7 SUB SLT ISZERO PUSH2 0xE24 JUMPI PUSH1 0x0 DUP1 REVERT JUMPDEST PUSH2 0xE2D DUP5 PUSH2 0xD98 JUMP JUMPDEST SWAP3 POP PUSH2 0xE3B PUSH1 0x20 DUP6 ADD PUSH2 0xD98 JUMP JUMPDEST SWAP2 POP PUSH1 0x40 DUP5 ADD CALLDATALOAD SWAP1 POP SWAP3 POP SWAP3 POP SWAP3 JUMP JUMPDEST PUSH1 0x0 DUP1 PUSH1 0x0 DUP1 PUSH1 0x80 DUP6 DUP8 SUB SLT ISZERO PUSH2 0xE61 JUMPI PUSH1 0x0 DUP1 REVERT JUMPDEST PUSH2 0xE6A DUP6 PUSH2 0xD98 JUMP JUMPDEST SWAP4 POP PUSH2 0xE78 PUSH1 0x20 DUP7 ADD PUSH2 0xD98 JUMP JUMPDEST SWAP3 POP PUSH1 0x40 DUP6 ADD CALLDATALOAD SWAP2 POP PUSH1 0x60 DUP6 ADD CALLDATALOAD PUSH8 0xFFFFFFFFFFFFFFFF DUP1 DUP3 GT ISZERO PUSH2 0xE9C JUMPI PUSH1 0x0 DUP1 REVERT JUMPDEST DUP2 DUP8 ADD SWAP2 POP DUP8 PUSH1 0x1F DUP4 ADD SLT PUSH2 0xEB0 JUMPI PUSH1 0x0 DUP1 REVERT JUMPDEST DUP2 CALLDATALOAD DUP2 DUP2 GT ISZERO PUSH2 0xEC2 JUMPI PUSH2 0xEC2 PUSH2 0x1298 JUMP JUMPDEST PUSH1 0x40 MLOAD PUSH1 0x1F DUP3 ADD PUSH32 0xFFFFFFFFFFFFFFFFFFFFFFFFFFFFFFFFFFFFFFFFFFFFFFFFFFFFFFFFFFFFFFE0 SWAP1 DUP2 AND PUSH1 0x3F ADD AND DUP2 ADD SWAP1 DUP4 DUP3 GT DUP2 DUP4 LT OR ISZERO PUSH2 0xF08 JUMPI PUSH2 0xF08 PUSH2 0x1298 JUMP JUMPDEST DUP2 PUSH1 0x40 MSTORE DUP3 DUP2 MSTORE DUP11 PUSH1 0x20 DUP5 DUP8 ADD ADD GT ISZERO PUSH2 0xF21 JUMPI PUSH1 0x0 DUP1 REVERT JUMPDEST DUP3 PUSH1 0x20 DUP7 ADD PUSH1 0x20 DUP4 ADD CALLDATACOPY PUSH1 0x0 PUSH1 0x20 DUP5 DUP4 ADD ADD MSTORE DUP1 SWAP6 POP POP POP POP POP POP SWAP3 SWAP6 SWAP2 SWAP5 POP SWAP3 POP JUMP JUMPDEST PUSH1 0x0 DUP1 PUSH1 0x40 DUP4 DUP6 SUB SLT ISZERO PUSH2 0xF58 JUMPI PUSH1 0x0 DUP1 REVERT JUMPDEST PUSH2 0xF61 DUP4 PUSH2 0xD98 JUMP JUMPDEST SWAP2 POP PUSH1 0x20 DUP4 ADD CALLDATALOAD DUP1 ISZERO ISZERO DUP2 EQ PUSH2 0xF76 JUMPI PUSH1 0x0 DUP1 REVERT JUMPDEST DUP1 SWAP2 POP POP SWAP3 POP SWAP3 SWAP1 POP JUMP JUMPDEST PUSH1 0x0 DUP1 PUSH1 0x40 DUP4 DUP6 SUB SLT ISZERO PUSH2 0xF94 JUMPI PUSH1 0x0 DUP1 REVERT JUMPDEST PUSH2 0xF9D DUP4 PUSH2 0xD98 JUMP JUMPDEST SWAP5 PUSH1 0x20 SWAP4 SWAP1 SWAP4 ADD CALLDATALOAD SWAP4 POP POP POP JUMP JUMPDEST PUSH1 0x0 PUSH1 0x20 DUP3 DUP5 SUB SLT ISZERO PUSH2 0xFBD JUMPI PUSH1 0x0 DUP1 REVERT JUMPDEST DUP2 CALLDATALOAD PUSH2 0xC57 DUP2 PUSH2 0x12C7 JUMP JUMPDEST PUSH1 0x0 PUSH1 0x20 DUP3 DUP5 SUB SLT ISZERO PUSH2 0xFDA JUMPI PUSH1 0x0 DUP1 REVERT JUMPDEST DUP2 MLOAD PUSH2 0xC57 DUP2 PUSH2 0x12C7 JUMP JUMPDEST PUSH1 0x0 PUSH1 0x20 DUP3 DUP5 SUB SLT ISZERO PUSH2 0xFF7 JUMPI PUSH1 0x0 DUP1 REVERT JUMPDEST POP CALLDATALOAD SWAP2 SWAP1 POP JUMP JUMPDEST PUSH1 0x0 DUP2 MLOAD DUP1 DUP5 MSTORE PUSH2 0x1016 DUP2 PUSH1 0x20 DUP7 ADD PUSH1 0x20 DUP7 ADD PUSH2 0x113E JUMP JUMPDEST PUSH1 0x1F ADD PUSH32 0xFFFFFFFFFFFFFFFFFFFFFFFFFFFFFFFFFFFFFFFFFFFFFFFFFFFFFFFFFFFFFFE0 AND SWAP3 SWAP1 SWAP3 ADD PUSH1 0x20 ADD SWAP3 SWAP2 POP POP JUMP JUMPDEST PUSH1 0x0 DUP4 MLOAD PUSH2 0x105A DUP2 DUP5 PUSH1 0x20 DUP9 ADD PUSH2 0x113E JUMP JUMPDEST DUP4 MLOAD SWAP1 DUP4 ADD SWAP1 PUSH2 0x106E DUP2 DUP4 PUSH1 0x20 DUP9 ADD PUSH2 0x113E JUMP JUMPDEST PUSH32 0x2E6A736F6E000000000000000000000000000000000000000000000000000000 SWAP2 ADD SWAP1 DUP2 MSTORE PUSH1 0x5 ADD SWAP5 SWAP4 POP POP POP POP JUMP JUMPDEST PUSH1 0x0 PUSH20 0xFFFFFFFFFFFFFFFFFFFFFFFFFFFFFFFFFFFFFFFF DUP1 DUP8 AND DUP4 MSTORE DUP1 DUP7 AND PUSH1 0x20 DUP5 ADD MSTORE POP DUP4 PUSH1 0x40 DUP4 ADD MSTORE PUSH1 0x80 PUSH1 0x60 DUP4 ADD MSTORE PUSH2 0x10DE PUSH1 0x80 DUP4 ADD DUP5 PUSH2 0xFFE JUMP JUMPDEST SWAP7 SWAP6 POP POP POP POP POP POP JUMP JUMPDEST PUSH1 0x20 DUP2 MSTORE PUSH1 0x0 PUSH2 0xC57 PUSH1 0x20 DUP4 ADD DUP5 PUSH2 0xFFE JUMP JUMPDEST PUSH1 0x0 DUP3 NOT DUP3 GT ISZERO PUSH2 0x110E JUMPI PUSH2 0x110E PUSH2 0x120B JUMP JUMPDEST POP ADD SWAP1 JUMP JUMPDEST PUSH1 0x0 DUP3 PUSH2 0x1122 JUMPI PUSH2 0x1122 PUSH2 0x123A JUMP JUMPDEST POP DIV SWAP1 JUMP JUMPDEST PUSH1 0x0 DUP3 DUP3 LT ISZERO PUSH2 0x1139 JUMPI PUSH2 0x1139 PUSH2 0x120B JUMP JUMPDEST POP SUB SWAP1 JUMP JUMPDEST PUSH1 0x0 JUMPDEST DUP4 DUP2 LT ISZERO PUSH2 0x1159 JUMPI DUP2 DUP2 ADD MLOAD DUP4 DUP3 ADD MSTORE PUSH1 0x20 ADD PUSH2 0x1141 JUMP JUMPDEST DUP4 DUP2 GT ISZERO PUSH2 0xB6B JUMPI POP POP PUSH1 0x0 SWAP2 ADD MSTORE JUMP JUMPDEST PUSH1 0x1 DUP2 DUP2 SHR SWAP1 DUP3 AND DUP1 PUSH2 0x117E JUMPI PUSH1 0x7F DUP3 AND SWAP2 POP JUMPDEST PUSH1 0x20 DUP3 LT DUP2 EQ ISZERO PUSH2 0x11B8 JUMPI PUSH32 0x4E487B7100000000000000000000000000000000000000000000000000000000 PUSH1 0x0 MSTORE PUSH1 0x22 PUSH1 0x4 MSTORE PUSH1 0x24 PUSH1 0x0 REVERT JUMPDEST POP SWAP2 SWAP1 POP JUMP JUMPDEST PUSH1 0x0 PUSH32 0xFFFFFFFFFFFFFFFFFFFFFFFFFFFFFFFFFFFFFFFFFFFFFFFFFFFFFFFFFFFFFFFF DUP3 EQ ISZERO PUSH2 0x11F0 JUMPI PUSH2 0x11F0 PUSH2 0x120B JUMP JUMPDEST POP PUSH1 0x1 ADD SWAP1 JUMP JUMPDEST PUSH1 0x0 DUP3 PUSH2 0x1206 JUMPI PUSH2 0x1206 PUSH2 0x123A JUMP JUMPDEST POP MOD SWAP1 JUMP JUMPDEST PUSH32 0x4E487B7100000000000000000000000000000000000000000000000000000000 PUSH1 0x0 MSTORE PUSH1 0x11 PUSH1 0x4 MSTORE PUSH1 0x24 PUSH1 0x0 REVERT JUMPDEST PUSH32 0x4E487B7100000000000000000000000000000000000000000000000000000000 PUSH1 0x0 MSTORE PUSH1 0x12 PUSH1 0x4 MSTORE PUSH1 0x24 PUSH1 0x0 REVERT JUMPDEST PUSH32 0x4E487B7100000000000000000000000000000000000000000000000000000000 PUSH1 0x0 MSTORE PUSH1 0x32 PUSH1 0x4 MSTORE PUSH1 0x24 PUSH1 0x0 REVERT JUMPDEST PUSH32 0x4E487B7100000000000000000000000000000000000000000000000000000000 PUSH1 0x0 MSTORE PUSH1 0x41 PUSH1 0x4 MSTORE PUSH1 0x24 PUSH1 0x0 REVERT JUMPDEST PUSH32 0xFFFFFFFF00000000000000000000000000000000000000000000000000000000 DUP2 AND DUP2 EQ PUSH2 0x12F5 JUMPI PUSH1 0x0 DUP1 REVERT JUMPDEST POP JUMP INVALID LOG2 PUSH5 0x6970667358 0x22 SLT KECCAK256 0x4C DUP2 0xD9 0x4A 0xFC DUP8 0xDF 0xD3 PUSH26 0xD2E25793344F6F70BB665EA1458B9205130AF03F83974E64736F PUSH13 0x63430008070033000000000000 "
				},
				"gasEstimates": {
					"creation": {
						"codeDepositCost": "982000",
						"executionCost": "infinite",
						"totalCost": "infinite"
					},
					"external": {
						"approve(address,uint256)": "31024",
						"balanceOf(address)": "2530",
						"getApproved(uint256)": "2521",
						"isApprovedForAll(address,address)": "infinite",
						"name()": "infinite",
						"ownerOf(uint256)": "2542",
						"safeTransferFrom(address,address,uint256)": "infinite",
						"safeTransferFrom(address,address,uint256,bytes)": "infinite",
						"setApprovalForAll(address,bool)": "26625",
						"supportsInterface(bytes4)": "490",
						"symbol()": "infinite",
						"tokenType(uint256)": "2504",
						"tokenURI(uint256)": "infinite",
						"transferFrom(address,address,uint256)": "infinite"
					},
					"internal": {
						"_baseURI()": "infinite",
						"_burn(uint256)": "infinite",
						"_exists(uint256)": "infinite",
						"_mint(address,uint256,uint8)": "infinite"
					}
				},
				"methodIdentifiers": {
					"approve(address,uint256)": "095ea7b3",
					"balanceOf(address)": "70a08231",
					"getApproved(uint256)": "081812fc",
					"isApprovedForAll(address,address)": "e985e9c5",
					"name()": "06fdde03",
					"ownerOf(uint256)": "6352211e",
					"safeTransferFrom(address,address,uint256)": "42842e0e",
					"safeTransferFrom(address,address,uint256,bytes)": "b88d4fde",
					"setApprovalForAll(address,bool)": "a22cb465",
					"supportsInterface(bytes4)": "01ffc9a7",
					"symbol()": "95d89b41",
					"tokenType(uint256)": "e6c3b1f6",
					"tokenURI(uint256)": "c87b56dd",
					"transferFrom(address,address,uint256)": "23b872dd"
				}
			},
			"storageLayout": {
				"storage": [
					{
						"astId": 76,
						"contract": "ERC721.sol:ERC721",
						"label": "name",
						"offset": 0,
						"slot": "0",
						"type": "t_string_storage"
					},
					{
						"astId": 78,
						"contract": "ERC721.sol:ERC721",
						"label": "symbol",
						"offset": 0,
						"slot": "1",
						"type": "t_string_storage"
					},
					{
						"astId": 82,
						"contract": "ERC721.sol:ERC721",
						"label": "balanceOf",
						"offset": 0,
						"slot": "2",
						"type": "t_mapping(t_address,t_uint256)"
					},
					{
						"astId": 86,
						"contract": "ERC721.sol:ERC721",
						"label": "ownerOf",
						"offset": 0,
						"slot": "3",
						"type": "t_mapping(t_uint256,t_address)"
					},
					{
						"astId": 90,
						"contract": "ERC721.sol:ERC721",
						"label": "getApproved",
						"offset": 0,
						"slot": "4",
						"type": "t_mapping(t_uint256,t_address)"
					},
					{
						"astId": 94,
						"contract": "ERC721.sol:ERC721",
						"label": "tokenType",
						"offset": 0,
						"slot": "5",
						"type": "t_mapping(t_uint256,t_uint256)"
					},
					{
						"astId": 100,
						"contract": "ERC721.sol:ERC721",
						"label": "isApprovedForAll",
						"offset": 0,
						"slot": "6",
						"type": "t_mapping(t_address,t_mapping(t_address,t_bool))"
					}
				],
				"types": {
					"t_address": {
						"encoding": "inplace",
						"label": "address",
						"numberOfBytes": "20"
					},
					"t_bool": {
						"encoding": "inplace",
						"label": "bool",
						"numberOfBytes": "1"
					},
					"t_mapping(t_address,t_bool)": {
						"encoding": "mapping",
						"key": "t_address",
						"label": "mapping(address => bool)",
						"numberOfBytes": "32",
						"value": "t_bool"
					},
					"t_mapping(t_address,t_mapping(t_address,t_bool))": {
						"encoding": "mapping",
						"key": "t_address",
						"label": "mapping(address => mapping(address => bool))",
						"numberOfBytes": "32",
						"value": "t_mapping(t_address,t_bool)"
					},
					"t_mapping(t_address,t_uint256)": {
						"encoding": "mapping",
						"key": "t_address",
						"label": "mapping(address => uint256)",
						"numberOfBytes": "32",
						"value": "t_uint256"
					},
					"t_mapping(t_uint256,t_address)": {
						"encoding": "mapping",
						"key": "t_uint256",
						"label": "mapping(uint256 => address)",
						"numberOfBytes": "32",
						"value": "t_address"
					},
					"t_mapping(t_uint256,t_uint256)": {
						"encoding": "mapping",
						"key": "t_uint256",
						"label": "mapping(uint256 => uint256)",
						"numberOfBytes": "32",
						"value": "t_uint256"
					},
					"t_string_storage": {
						"encoding": "bytes",
						"label": "string",
						"numberOfBytes": "32"
					},
					"t_uint256": {
						"encoding": "inplace",
						"label": "uint256",
						"numberOfBytes": "32"
					}
				}
			},
			"userdoc": {
				"kind": "user",
				"methods": {},
				"version": 1
			}
		}
	}
}