{
	"NftContract.sol": {
		"PantherNft": {
			"abi": [
				{
					"inputs": [
						{
							"internalType": "string",
							"name": "_name",
							"type": "string"
						},
						{
							"internalType": "string",
							"name": "_symbol",
							"type": "string"
						},
						{
							"internalType": "string",
							"name": "_base",
							"type": "string"
						},
						{
							"internalType": "uint256",
							"name": "mint_cost",
							"type": "uint256"
						},
						{
							"internalType": "uint96",
							"name": "_fees",
							"type": "uint96"
						},
						{
							"internalType": "address",
							"name": "_signAddress",
							"type": "address"
						}
					],
					"stateMutability": "nonpayable",
					"type": "constructor"
				},
				{
					"anonymous": false,
					"inputs": [
						{
							"indexed": true,
							"internalType": "address",
							"name": "owner",
							"type": "address"
						},
						{
							"indexed": true,
							"internalType": "address",
							"name": "spender",
							"type": "address"
						},
						{
							"indexed": true,
							"internalType": "uint256",
							"name": "id",
							"type": "uint256"
						}
					],
					"name": "Approval",
					"type": "event"
				},
				{
					"anonymous": false,
					"inputs": [
						{
							"indexed": true,
							"internalType": "address",
							"name": "owner",
							"type": "address"
						},
						{
							"indexed": true,
							"internalType": "address",
							"name": "operator",
							"type": "address"
						},
						{
							"indexed": false,
							"internalType": "bool",
							"name": "approved",
							"type": "bool"
						}
					],
					"name": "ApprovalForAll",
					"type": "event"
				},
				{
					"anonymous": false,
					"inputs": [
						{
							"indexed": true,
							"internalType": "address",
							"name": "previousOwner",
							"type": "address"
						},
						{
							"indexed": true,
							"internalType": "address",
							"name": "newOwner",
							"type": "address"
						}
					],
					"name": "OwnershipTransfered",
					"type": "event"
				},
				{
					"anonymous": false,
					"inputs": [
						{
							"indexed": true,
							"internalType": "address",
							"name": "from",
							"type": "address"
						},
						{
							"indexed": true,
							"internalType": "address",
							"name": "to",
							"type": "address"
						},
						{
							"indexed": true,
							"internalType": "uint256",
							"name": "id",
							"type": "uint256"
						}
					],
					"name": "Transfer",
					"type": "event"
				},
				{
					"inputs": [],
					"name": "MAX_SUPPLY",
					"outputs": [
						{
							"internalType": "uint120",
							"name": "",
							"type": "uint120"
						}
					],
					"stateMutability": "view",
					"type": "function"
				},
				{
					"inputs": [
						{
							"internalType": "address",
							"name": "spender",
							"type": "address"
						},
						{
							"internalType": "uint256",
							"name": "id",
							"type": "uint256"
						}
					],
					"name": "approve",
					"outputs": [],
					"stateMutability": "nonpayable",
					"type": "function"
				},
				{
					"inputs": [
						{
							"internalType": "address",
							"name": "",
							"type": "address"
						}
					],
					"name": "balanceOf",
					"outputs": [
						{
							"internalType": "uint256",
							"name": "",
							"type": "uint256"
						}
					],
					"stateMutability": "view",
					"type": "function"
				},
				{
					"inputs": [],
					"name": "baseURI",
					"outputs": [
						{
							"internalType": "string",
							"name": "",
							"type": "string"
						}
					],
					"stateMutability": "view",
					"type": "function"
				},
				{
					"inputs": [
						{
							"internalType": "uint256",
							"name": "_salePrice",
							"type": "uint256"
						}
					],
					"name": "calculateRoyalty",
					"outputs": [
						{
							"internalType": "uint256",
							"name": "",
							"type": "uint256"
						}
					],
					"stateMutability": "view",
					"type": "function"
				},
				{
					"inputs": [
						{
							"internalType": "address",
							"name": "to",
							"type": "address"
						},
						{
							"internalType": "uint256",
							"name": "val",
							"type": "uint256"
						},
						{
							"internalType": "bytes",
							"name": "signature",
							"type": "bytes"
						}
					],
					"name": "check",
					"outputs": [
						{
							"internalType": "address",
							"name": "",
							"type": "address"
						}
					],
					"stateMutability": "view",
					"type": "function"
				},
				{
					"inputs": [
						{
							"internalType": "uint256",
							"name": "",
							"type": "uint256"
						}
					],
					"name": "getApproved",
					"outputs": [
						{
							"internalType": "address",
							"name": "",
							"type": "address"
						}
					],
					"stateMutability": "view",
					"type": "function"
				},
				{
					"inputs": [
						{
							"internalType": "address",
							"name": "",
							"type": "address"
						},
						{
							"internalType": "address",
							"name": "",
							"type": "address"
						}
					],
					"name": "isApprovedForAll",
					"outputs": [
						{
							"internalType": "bool",
							"name": "",
							"type": "bool"
						}
					],
					"stateMutability": "view",
					"type": "function"
				},
				{
					"inputs": [],
					"name": "mintCost",
					"outputs": [
						{
							"internalType": "uint256",
							"name": "",
							"type": "uint256"
						}
					],
					"stateMutability": "view",
					"type": "function"
				},
				{
					"inputs": [
						{
							"internalType": "address",
							"name": "to",
							"type": "address"
						},
						{
							"internalType": "uint8",
							"name": "idType",
							"type": "uint8"
						}
					],
					"name": "mintOwner",
					"outputs": [],
					"stateMutability": "nonpayable",
					"type": "function"
				},
				{
					"inputs": [
						{
							"internalType": "address",
							"name": "to",
							"type": "address"
						}
					],
					"name": "mintPublic",
					"outputs": [],
					"stateMutability": "payable",
					"type": "function"
				},
				{
					"inputs": [
						{
							"internalType": "address",
							"name": "to",
							"type": "address"
						},
						{
							"internalType": "uint256",
							"name": "val",
							"type": "uint256"
						},
						{
							"internalType": "bytes",
							"name": "signature",
							"type": "bytes"
						}
					],
					"name": "mintWhitelist",
					"outputs": [],
					"stateMutability": "payable",
					"type": "function"
				},
				{
					"inputs": [],
					"name": "name",
					"outputs": [
						{
							"internalType": "string",
							"name": "",
							"type": "string"
						}
					],
					"stateMutability": "view",
					"type": "function"
				},
				{
					"inputs": [],
					"name": "owner",
					"outputs": [
						{
							"internalType": "address",
							"name": "",
							"type": "address"
						}
					],
					"stateMutability": "view",
					"type": "function"
				},
				{
					"inputs": [
						{
							"internalType": "uint256",
							"name": "",
							"type": "uint256"
						}
					],
					"name": "ownerOf",
					"outputs": [
						{
							"internalType": "address",
							"name": "",
							"type": "address"
						}
					],
					"stateMutability": "view",
					"type": "function"
				},
				{
					"inputs": [],
					"name": "publicAllowed",
					"outputs": [
						{
							"internalType": "bool",
							"name": "",
							"type": "bool"
						}
					],
					"stateMutability": "view",
					"type": "function"
				},
				{
					"inputs": [],
					"name": "royaltyAddress",
					"outputs": [
						{
							"internalType": "address",
							"name": "",
							"type": "address"
						}
					],
					"stateMutability": "view",
					"type": "function"
				},
				{
					"inputs": [],
					"name": "royaltyFeesInBips",
					"outputs": [
						{
							"internalType": "uint96",
							"name": "",
							"type": "uint96"
						}
					],
					"stateMutability": "view",
					"type": "function"
				},
				{
					"inputs": [
						{
							"internalType": "uint256",
							"name": "_tokenId",
							"type": "uint256"
						},
						{
							"internalType": "uint256",
							"name": "_salePrice",
							"type": "uint256"
						}
					],
					"name": "royaltyInfo",
					"outputs": [
						{
							"internalType": "address",
							"name": "",
							"type": "address"
						},
						{
							"internalType": "uint256",
							"name": "",
							"type": "uint256"
						}
					],
					"stateMutability": "view",
					"type": "function"
				},
				{
					"inputs": [
						{
							"internalType": "address",
							"name": "from",
							"type": "address"
						},
						{
							"internalType": "address",
							"name": "to",
							"type": "address"
						},
						{
							"internalType": "uint256",
							"name": "id",
							"type": "uint256"
						}
					],
					"name": "safeTransferFrom",
					"outputs": [],
					"stateMutability": "nonpayable",
					"type": "function"
				},
				{
					"inputs": [
						{
							"internalType": "address",
							"name": "from",
							"type": "address"
						},
						{
							"internalType": "address",
							"name": "to",
							"type": "address"
						},
						{
							"internalType": "uint256",
							"name": "id",
							"type": "uint256"
						},
						{
							"internalType": "bytes",
							"name": "data",
							"type": "bytes"
						}
					],
					"name": "safeTransferFrom",
					"outputs": [],
					"stateMutability": "nonpayable",
					"type": "function"
				},
				{
					"inputs": [
						{
							"internalType": "address",
							"name": "operator",
							"type": "address"
						},
						{
							"internalType": "bool",
							"name": "approved",
							"type": "bool"
						}
					],
					"name": "setApprovalForAll",
					"outputs": [],
					"stateMutability": "nonpayable",
					"type": "function"
				},
				{
					"inputs": [
						{
							"internalType": "uint256",
							"name": "val",
							"type": "uint256"
						}
					],
					"name": "setMintCost",
					"outputs": [],
					"stateMutability": "nonpayable",
					"type": "function"
				},
				{
					"inputs": [
						{
							"internalType": "bool",
							"name": "val",
							"type": "bool"
						}
					],
					"name": "setPauseMint",
					"outputs": [],
					"stateMutability": "nonpayable",
					"type": "function"
				},
				{
					"inputs": [
						{
							"internalType": "bool",
							"name": "_status",
							"type": "bool"
						}
					],
					"name": "setPublicMint",
					"outputs": [],
					"stateMutability": "nonpayable",
					"type": "function"
				},
				{
					"inputs": [
						{
							"internalType": "address",
							"name": "_royaltyAddress",
							"type": "address"
						},
						{
							"internalType": "uint96",
							"name": "_royaltyFeesInBips",
							"type": "uint96"
						}
					],
					"name": "setRoyaltyInfo",
					"outputs": [],
					"stateMutability": "nonpayable",
					"type": "function"
				},
				{
					"inputs": [
						{
							"internalType": "address",
							"name": "_signAddress",
							"type": "address"
						}
					],
					"name": "setSignAddress",
					"outputs": [],
					"stateMutability": "nonpayable",
					"type": "function"
				},
				{
					"inputs": [
						{
							"internalType": "bytes4",
							"name": "interfaceId",
							"type": "bytes4"
						}
					],
					"name": "supportsInterface",
					"outputs": [
						{
							"internalType": "bool",
							"name": "",
							"type": "bool"
						}
					],
					"stateMutability": "view",
					"type": "function"
				},
				{
					"inputs": [],
					"name": "symbol",
					"outputs": [
						{
							"internalType": "string",
							"name": "",
							"type": "string"
						}
					],
					"stateMutability": "view",
					"type": "function"
				},
				{
					"inputs": [
						{
							"internalType": "uint256",
							"name": "",
							"type": "uint256"
						}
					],
					"name": "tokenType",
					"outputs": [
						{
							"internalType": "uint256",
							"name": "",
							"type": "uint256"
						}
					],
					"stateMutability": "view",
					"type": "function"
				},
				{
					"inputs": [
						{
							"internalType": "uint256",
							"name": "tokenId",
							"type": "uint256"
						}
					],
					"name": "tokenURI",
					"outputs": [
						{
							"internalType": "string",
							"name": "",
							"type": "string"
						}
					],
					"stateMutability": "view",
					"type": "function"
				},
				{
					"inputs": [
						{
							"internalType": "address",
							"name": "from",
							"type": "address"
						},
						{
							"internalType": "address",
							"name": "to",
							"type": "address"
						},
						{
							"internalType": "uint256",
							"name": "id",
							"type": "uint256"
						}
					],
					"name": "transferFrom",
					"outputs": [],
					"stateMutability": "nonpayable",
					"type": "function"
				},
				{
					"inputs": [
						{
							"internalType": "address",
							"name": "newOwner",
							"type": "address"
						}
					],
					"name": "transferOwnership",
					"outputs": [],
					"stateMutability": "nonpayable",
					"type": "function"
				},
				{
					"inputs": [],
					"name": "withdrawEth",
					"outputs": [],
					"stateMutability": "nonpayable",
					"type": "function"
				}
			],
			"devdoc": {
				"kind": "dev",
				"methods": {},
				"version": 1
			},
			"evm": {
				"assembly": "    /* \"NftContract.sol\":176:5414  contract PantherNft is ERC721, EIP712, Ownable {\r... */\n  mstore(0x40, 0x0140)\n    /* \"NftContract.sol\":289:290  0 */\n  0x00\n    /* \"NftContract.sol\":258:290  uint256 private tokenCounter = 0 */\n  0x09\n  sstore\n    /* \"NftContract.sol\":371:404  bool public publicAllowed = false */\n  0x0b\n  dup1\n  sload\n  not(sub(shl(0x80, 0x01), 0x01))\n    /* \"NftContract.sol\":411:443  uint120 public MAX_SUPPLY = 3000 */\n  and\n  0x0bb800\n  or\n  swap1\n  sstore\n    /* \"NftContract.sol\":629:651  bool pauseMint = false */\n  0x0d\n  dup1\n  sload\n  not(shl(0xa0, 0xff))\n  and\n  swap1\n  sstore\n    /* \"NftContract.sol\":660:1155  constructor(\r... */\n  callvalue\n  dup1\n  iszero\n  tag_1\n  jumpi\n  0x00\n  dup1\n  revert\ntag_1:\n  pop\n  mload(0x40)\n  sub(codesize, bytecodeSize)\n  dup1\n  bytecodeSize\n  dup4\n  codecopy\n  dup2\n  add\n  0x40\n  dup2\n  swap1\n  mstore\n  tag_2\n  swap2\n  tag_3\n  jump\t// in\ntag_2:\n    /* \"NftContract.sol\":883:897  SIGNING_DOMAIN */\n  mload(0x40)\n  dup1\n  0x40\n  add\n  0x40\n  mstore\n  dup1\n  0x0b\n  dup2\n  mstore\n  0x20\n  add\n  shl(0xa9, 0x2820a72a2422a92fa1a7a7)\n  dup2\n  mstore\n  pop\n    /* \"NftContract.sol\":899:916  SIGNATURE_VERSION */\n  mload(0x40)\n  dup1\n  0x40\n  add\n  0x40\n  mstore\n  dup1\n  0x01\n  dup2\n  mstore\n  0x20\n  add\n  shl(0xf8, 0x31)\n  dup2\n  mstore\n  pop\n    /* \"NftContract.sol\":860:865  _name */\n  dup8\n    /* \"NftContract.sol\":867:874  _symbol */\n  dup8\n    /* \"ERC721.sol\":1756:1761  _name */\n  dup2\n    /* \"ERC721.sol\":1749:1753  name */\n  0x00\n    /* \"ERC721.sol\":1749:1761  name = _name */\n  swap1\n  dup1\n  mload\n  swap1\n  0x20\n  add\n  swap1\n  tag_9\n  swap3\n  swap2\n  swap1\n  tag_10\n  jump\t// in\ntag_9:\n  pop\n    /* \"ERC721.sol\":1772:1788  symbol = _symbol */\n  dup1\n  mload\n  tag_11\n  swap1\n    /* \"ERC721.sol\":1772:1778  symbol */\n  0x01\n  swap1\n    /* \"ERC721.sol\":1772:1788  symbol = _symbol */\n  0x20\n  dup5\n  add\n  swap1\n  tag_10\n  jump\t// in\ntag_11:\n  pop\n  pop\n    /* \"utils/EIP712.sol\":1432:1454  keccak256(bytes(name)) */\n  dup3\n  mload\n  0x20\n  dup1\n  dup6\n  add\n  swap2\n  swap1\n  swap2\n  keccak256\n    /* \"utils/EIP712.sol\":1489:1514  keccak256(bytes(version)) */\n  dup4\n  mload\n  dup5\n  dup4\n  add\n  keccak256\n    /* \"utils/EIP712.sol\":1674:1699  _HASHED_NAME = hashedName */\n  0xe0\n  dup3\n  swap1\n  mstore\n    /* \"utils/EIP712.sol\":1710:1741  _HASHED_VERSION = hashedVersion */\n  0x0100\n  dup2\n  swap1\n  mstore\n    /* \"utils/EIP712.sol\":1771:1784  block.chainid */\n  chainid\n    /* \"utils/EIP712.sol\":1752:1784  _CACHED_CHAIN_ID = block.chainid */\n  0xa0\n  dup2\n  dup2\n  mstore\n  0x40\n    /* \"utils/EIP712.sol\":2757:2954  abi.encode(\r... */\n  dup1\n  mload\n    /* \"utils/EIP712.sol\":1544:1663  keccak256(\r... */\n  0x8b73c3c69bb8fe3d512ecc4cf759cc79239f7b179b0ffacaa9a75d522b39400f\n    /* \"utils/EIP712.sol\":2757:2954  abi.encode(\r... */\n  dup2\n  dup9\n  add\n    /* \"#utility.yul\":2430:2455   */\n  dup2\n  swap1\n  mstore\n    /* \"#utility.yul\":2471:2489   */\n  dup2\n  dup4\n  add\n    /* \"#utility.yul\":2464:2498   */\n  dup8\n  swap1\n  mstore\n  0x60\n    /* \"#utility.yul\":2514:2532   */\n  dup3\n  add\n    /* \"#utility.yul\":2507:2541   */\n  dup7\n  swap1\n  mstore\n    /* \"#utility.yul\":2557:2575   */\n  0x80\n  dup3\n  add\n    /* \"#utility.yul\":2550:2584   */\n  swap5\n  swap1\n  swap5\n  mstore\n    /* \"utils/EIP712.sol\":2930:2934  this */\n  address\n    /* \"#utility.yul\":2600:2619   */\n  dup2\n  dup5\n  add\n    /* \"#utility.yul\":2593:2654   */\n  mstore\n    /* \"utils/EIP712.sol\":2757:2954  abi.encode(\r... */\n  dup2\n  mload\n  dup1\n  dup3\n  sub\n  swap1\n  swap4\n  add\n  dup4\n  mstore\n    /* \"#utility.yul\":2402:2421   */\n  0xc0\n  add\n    /* \"utils/EIP712.sol\":2757:2954  abi.encode(\r... */\n  swap1\n  mstore\n    /* \"utils/EIP712.sol\":2729:2969  keccak256(\r... */\n  dup1\n  mload\n  swap5\n  add\n  swap4\n  swap1\n  swap4\n  keccak256\n    /* \"utils/EIP712.sol\":1432:1454  keccak256(bytes(name)) */\n  swap2\n  swap4\n  pop\n    /* \"utils/EIP712.sol\":1489:1514  keccak256(bytes(version)) */\n  swap2\n    /* \"utils/EIP712.sol\":1544:1663  keccak256(\r... */\n  swap1\n    /* \"utils/EIP712.sol\":1795:1930  _CACHED_DOMAIN_SEPARATOR = _buildDomainSeparator(\r... */\n  0x80\n  mstore\n    /* \"utils/EIP712.sol\":1964:1968  this */\n  address\n    /* \"utils/EIP712.sol\":1941:1969  _CACHED_THIS = address(this) */\n  0x60\n  shl\n  0xc0\n  mstore\n    /* \"utils/EIP712.sol\":1980:2001  _TYPE_HASH = typeHash */\n  0x0120\n  mstore\n  pop\n    /* \"utils/Ownable.sol\":305:337  _transferOwnership(_msgSender()) */\n  tag_16\n  swap3\n  pop\n    /* \"utils/Ownable.sol\":324:336  _msgSender() */\n  tag_17\n  swap2\n  pop\n  pop\n    /* \"utils/Context.sol\":175:185  msg.sender */\n  caller\n  swap1\n    /* \"utils/Context.sol\":95:193  function _msgSender() internal view virtual returns (address) {\r... */\n  jump\n    /* \"utils/Ownable.sol\":324:336  _msgSender() */\ntag_17:\n    /* \"utils/Ownable.sol\":305:323  _transferOwnership */\n  tag_19\n    /* \"utils/Ownable.sol\":305:337  _transferOwnership(_msgSender()) */\n  jump\t// in\ntag_16:\n    /* \"NftContract.sol\":929:944  baseURI = _base */\n  dup4\n  mload\n  tag_21\n  swap1\n    /* \"NftContract.sol\":929:936  baseURI */\n  0x08\n  swap1\n    /* \"NftContract.sol\":929:944  baseURI = _base */\n  0x20\n  dup8\n  add\n  swap1\n  tag_10\n  jump\t// in\ntag_21:\n  pop\n    /* \"NftContract.sol\":972:977  10000 */\n  0x2710\n    /* \"NftContract.sol\":963:968  _fees */\n  dup3\n  sub(shl(0x60, 0x01), 0x01)\n    /* \"NftContract.sol\":963:977  _fees <= 10000 */\n  and\n  gt\n  iszero\n    /* \"NftContract.sol\":955:1001  require(_fees <= 10000, \"cannot exceed 10000\") */\n  tag_22\n  jumpi\n  mload(0x40)\n  shl(0xe5, 0x461bcd)\n  dup2\n  mstore\n    /* \"#utility.yul\":2867:2869   */\n  0x20\n    /* \"NftContract.sol\":955:1001  require(_fees <= 10000, \"cannot exceed 10000\") */\n  0x04\n  dup3\n  add\n    /* \"#utility.yul\":2849:2870   */\n  mstore\n    /* \"#utility.yul\":2906:2908   */\n  0x13\n    /* \"#utility.yul\":2886:2904   */\n  0x24\n  dup3\n  add\n    /* \"#utility.yul\":2879:2909   */\n  mstore\n    /* \"#utility.yul\":2945:2966   */\n  0x63616e6e6f742065786365656420313030303000000000000000000000000000\n    /* \"#utility.yul\":2925:2943   */\n  0x44\n  dup3\n  add\n    /* \"#utility.yul\":2918:2967   */\n  mstore\n    /* \"#utility.yul\":2984:3002   */\n  0x64\n  add\n    /* \"NftContract.sol\":955:1001  require(_fees <= 10000, \"cannot exceed 10000\") */\n  mload(0x40)\n  dup1\n  swap2\n  sub\n  swap1\n  revert\ntag_22:\n    /* \"NftContract.sol\":1048:1075  royaltyAddress = msg.sender */\n  0x01000000000000000000000000\n    /* \"NftContract.sol\":1065:1075  msg.sender */\n  caller\n    /* \"NftContract.sol\":1048:1075  royaltyAddress = msg.sender */\n  mul\n  sub(shl(0x60, 0x01), 0x01)\n    /* \"NftContract.sol\":1012:1037  royaltyFeesInBips = _fees */\n  dup4\n  and\n    /* \"NftContract.sol\":1048:1075  royaltyAddress = msg.sender */\n  or\n    /* \"NftContract.sol\":1012:1029  royaltyFeesInBips */\n  0x0a\n    /* \"NftContract.sol\":1048:1075  royaltyAddress = msg.sender */\n  sstore\n    /* \"NftContract.sol\":1097:1110  mint_cost - 1 */\n  tag_25\n    /* \"NftContract.sol\":1012:1037  royaltyFeesInBips = _fees */\n  0x01\n    /* \"NftContract.sol\":1097:1106  mint_cost */\n  dup5\n    /* \"NftContract.sol\":1097:1110  mint_cost - 1 */\n  tag_26\n  jump\t// in\ntag_25:\n    /* \"NftContract.sol\":1086:1094  mintCost */\n  0x0c\n    /* \"NftContract.sol\":1086:1110  mintCost = mint_cost - 1 */\n  sstore\n    /* \"NftContract.sol\":1121:1132  signAddress */\n  0x0d\n    /* \"NftContract.sol\":1121:1147  signAddress = _signAddress */\n  dup1\n  sload\n  not(sub(shl(0xa0, 0x01), 0x01))\n  and\n  sub(shl(0xa0, 0x01), 0x01)\n  swap3\n  swap1\n  swap3\n  and\n  swap2\n  swap1\n  swap2\n  or\n  swap1\n  sstore\n  pop\n    /* \"NftContract.sol\":176:5414  contract PantherNft is ERC721, EIP712, Ownable {\r... */\n  tag_47\n  swap4\n  pop\n  pop\n  pop\n  pop\n  jump\n    /* \"utils/Ownable.sol\":766:957  function _transferOwnership(address newOwner) internal virtual {\r... */\ntag_19:\n    /* \"utils/Ownable.sol\":840:856  address oldOwner */\n  0x00\n    /* \"utils/Ownable.sol\":859:866  owner() */\n  tag_33\n    /* \"utils/Ownable.sol\":426:432  _owner */\n  and(sub(shl(0xa0, 0x01), 0x01), sload(0x07))\n  swap1\n    /* \"utils/Ownable.sol\":353:440  function owner() public view virtual returns (address) {\r... */\n  jump\n    /* \"utils/Ownable.sol\":859:866  owner() */\ntag_33:\n    /* \"utils/Ownable.sol\":877:883  _owner */\n  0x07\n    /* \"utils/Ownable.sol\":877:894  _owner = newOwner */\n  dup1\n  sload\n  not(sub(shl(0xa0, 0x01), 0x01))\n  and\n  sub(shl(0xa0, 0x01), 0x01)\n  dup6\n  dup2\n  and\n  swap2\n  dup3\n  or\n  swap1\n  swap3\n  sstore\n    /* \"utils/Ownable.sol\":910:949  OwnershipTransfered(oldOwner, newOwner) */\n  mload(0x40)\n    /* \"utils/Ownable.sol\":840:866  address oldOwner = owner() */\n  swap3\n  swap4\n  pop\n    /* \"utils/Ownable.sol\":877:894  _owner = newOwner */\n  swap2\n    /* \"utils/Ownable.sol\":910:949  OwnershipTransfered(oldOwner, newOwner) */\n  swap1\n  dup4\n  and\n  swap1\n  0x0d18b5fd22306e373229b9439188228edca81207d1667f604daf6cef8aa3ee67\n  swap1\n  0x00\n  swap1\n  log3\n    /* \"utils/Ownable.sol\":829:957  {\r... */\n  pop\n    /* \"utils/Ownable.sol\":766:957  function _transferOwnership(address newOwner) internal virtual {\r... */\n  pop\n  jump\t// out\n    /* \"NftContract.sol\":176:5414  contract PantherNft is ERC721, EIP712, Ownable {\r... */\ntag_10:\n  dup3\n  dup1\n  sload\n  tag_36\n  swap1\n  tag_37\n  jump\t// in\ntag_36:\n  swap1\n  0x00\n  mstore\n  keccak256(0x00, 0x20)\n  swap1\n  0x1f\n  add\n  0x20\n  swap1\n  div\n  dup2\n  add\n  swap3\n  dup3\n  tag_39\n  jumpi\n  0x00\n  dup6\n  sstore\n  jump(tag_42)\ntag_39:\n  dup3\n  0x1f\n  lt\n  tag_40\n  jumpi\n  dup1\n  mload\n  not(0xff)\n  and\n  dup4\n  dup1\n  add\n  or\n  dup6\n  sstore\n  jump(tag_42)\ntag_40:\n  dup3\n  dup1\n  add\n  0x01\n  add\n  dup6\n  sstore\n  dup3\n  iszero\n  tag_42\n  jumpi\n  swap2\n  dup3\n  add\ntag_41:\n  dup3\n  dup2\n  gt\n  iszero\n  tag_42\n  jumpi\n  dup3\n  mload\n  dup3\n  sstore\n  swap2\n  0x20\n  add\n  swap2\n  swap1\n  0x01\n  add\n  swap1\n  jump(tag_41)\ntag_42:\n  pop\n  tag_43\n  swap3\n  swap2\n  pop\n  tag_44\n  jump\t// in\ntag_43:\n  pop\n  swap1\n  jump\t// out\ntag_44:\ntag_45:\n  dup1\n  dup3\n  gt\n  iszero\n  tag_43\n  jumpi\n  0x00\n  dup2\n  sstore\n  0x01\n  add\n  jump(tag_45)\n    /* \"#utility.yul\":14:191   */\ntag_48:\n    /* \"#utility.yul\":93:106   */\n  dup1\n  mload\n  sub(shl(0xa0, 0x01), 0x01)\n    /* \"#utility.yul\":135:166   */\n  dup2\n  and\n    /* \"#utility.yul\":125:167   */\n  dup2\n  eq\n    /* \"#utility.yul\":115:185   */\n  tag_50\n  jumpi\n    /* \"#utility.yul\":181:182   */\n  0x00\n    /* \"#utility.yul\":178:179   */\n  dup1\n    /* \"#utility.yul\":171:183   */\n  revert\n    /* \"#utility.yul\":115:185   */\ntag_50:\n    /* \"#utility.yul\":14:191   */\n  swap2\n  swap1\n  pop\n  jump\t// out\n    /* \"#utility.yul\":196:1081   */\ntag_51:\n    /* \"#utility.yul\":250:255   */\n  0x00\n    /* \"#utility.yul\":303:306   */\n  dup3\n    /* \"#utility.yul\":296:300   */\n  0x1f\n    /* \"#utility.yul\":288:294   */\n  dup4\n    /* \"#utility.yul\":284:301   */\n  add\n    /* \"#utility.yul\":280:307   */\n  slt\n    /* \"#utility.yul\":270:325   */\n  tag_53\n  jumpi\n    /* \"#utility.yul\":321:322   */\n  0x00\n    /* \"#utility.yul\":318:319   */\n  dup1\n    /* \"#utility.yul\":311:323   */\n  revert\n    /* \"#utility.yul\":270:325   */\ntag_53:\n    /* \"#utility.yul\":344:357   */\n  dup2\n  mload\n  sub(shl(0x40, 0x01), 0x01)\n    /* \"#utility.yul\":406:416   */\n  dup1\n  dup3\n  gt\n    /* \"#utility.yul\":403:439   */\n  iszero\n  tag_55\n  jumpi\n    /* \"#utility.yul\":419:437   */\n  tag_55\n  tag_56\n  jump\t// in\ntag_55:\n    /* \"#utility.yul\":494:496   */\n  0x40\n    /* \"#utility.yul\":488:497   */\n  mload\n    /* \"#utility.yul\":462:464   */\n  0x1f\n    /* \"#utility.yul\":548:561   */\n  dup4\n  add\n  not(0x1f)\n    /* \"#utility.yul\":544:566   */\n  swap1\n  dup2\n  and\n    /* \"#utility.yul\":568:570   */\n  0x3f\n    /* \"#utility.yul\":540:571   */\n  add\n    /* \"#utility.yul\":536:576   */\n  and\n    /* \"#utility.yul\":524:577   */\n  dup2\n  add\n  swap1\n    /* \"#utility.yul\":592:610   */\n  dup3\n  dup3\n  gt\n    /* \"#utility.yul\":612:634   */\n  dup2\n  dup4\n  lt\n    /* \"#utility.yul\":589:635   */\n  or\n    /* \"#utility.yul\":586:658   */\n  iszero\n  tag_58\n  jumpi\n    /* \"#utility.yul\":638:656   */\n  tag_58\n  tag_56\n  jump\t// in\ntag_58:\n    /* \"#utility.yul\":678:688   */\n  dup2\n    /* \"#utility.yul\":674:676   */\n  0x40\n    /* \"#utility.yul\":667:689   */\n  mstore\n    /* \"#utility.yul\":713:715   */\n  dup4\n    /* \"#utility.yul\":705:711   */\n  dup2\n    /* \"#utility.yul\":698:716   */\n  mstore\n    /* \"#utility.yul\":735:739   */\n  0x20\n    /* \"#utility.yul\":725:739   */\n  swap3\n  pop\n    /* \"#utility.yul\":780:783   */\n  dup7\n    /* \"#utility.yul\":775:777   */\n  dup4\n    /* \"#utility.yul\":770:772   */\n  dup6\n    /* \"#utility.yul\":762:768   */\n  dup9\n    /* \"#utility.yul\":758:773   */\n  add\n    /* \"#utility.yul\":754:778   */\n  add\n    /* \"#utility.yul\":751:784   */\n  gt\n    /* \"#utility.yul\":748:801   */\n  iszero\n  tag_59\n  jumpi\n    /* \"#utility.yul\":797:798   */\n  0x00\n    /* \"#utility.yul\":794:795   */\n  dup1\n    /* \"#utility.yul\":787:799   */\n  revert\n    /* \"#utility.yul\":748:801   */\ntag_59:\n    /* \"#utility.yul\":819:820   */\n  0x00\n    /* \"#utility.yul\":810:820   */\n  swap2\n  pop\n    /* \"#utility.yul\":829:962   */\ntag_60:\n    /* \"#utility.yul\":843:845   */\n  dup4\n    /* \"#utility.yul\":840:841   */\n  dup3\n    /* \"#utility.yul\":837:846   */\n  lt\n    /* \"#utility.yul\":829:962   */\n  iszero\n  tag_62\n  jumpi\n    /* \"#utility.yul\":931:945   */\n  dup6\n  dup3\n  add\n    /* \"#utility.yul\":927:950   */\n  dup4\n  add\n    /* \"#utility.yul\":921:951   */\n  mload\n    /* \"#utility.yul\":900:914   */\n  dup2\n  dup4\n  add\n    /* \"#utility.yul\":896:919   */\n  dup5\n  add\n    /* \"#utility.yul\":889:952   */\n  mstore\n    /* \"#utility.yul\":854:864   */\n  swap1\n  dup3\n  add\n  swap1\n    /* \"#utility.yul\":829:962   */\n  jump(tag_60)\ntag_62:\n    /* \"#utility.yul\":980:982   */\n  dup4\n    /* \"#utility.yul\":977:978   */\n  dup3\n    /* \"#utility.yul\":974:983   */\n  gt\n    /* \"#utility.yul\":971:1051   */\n  iszero\n  tag_63\n  jumpi\n    /* \"#utility.yul\":1039:1040   */\n  0x00\n    /* \"#utility.yul\":1034:1036   */\n  dup4\n    /* \"#utility.yul\":1029:1031   */\n  dup6\n    /* \"#utility.yul\":1021:1027   */\n  dup4\n    /* \"#utility.yul\":1017:1032   */\n  add\n    /* \"#utility.yul\":1013:1037   */\n  add\n    /* \"#utility.yul\":1006:1041   */\n  mstore\n    /* \"#utility.yul\":971:1051   */\ntag_63:\n    /* \"#utility.yul\":1069:1075   */\n  swap7\n    /* \"#utility.yul\":196:1081   */\n  swap6\n  pop\n  pop\n  pop\n  pop\n  pop\n  pop\n  jump\t// out\n    /* \"#utility.yul\":1086:2166   */\ntag_3:\n    /* \"#utility.yul\":1230:1236   */\n  0x00\n    /* \"#utility.yul\":1238:1244   */\n  dup1\n    /* \"#utility.yul\":1246:1252   */\n  0x00\n    /* \"#utility.yul\":1254:1260   */\n  dup1\n    /* \"#utility.yul\":1262:1268   */\n  0x00\n    /* \"#utility.yul\":1270:1276   */\n  dup1\n    /* \"#utility.yul\":1323:1326   */\n  0xc0\n    /* \"#utility.yul\":1311:1320   */\n  dup8\n    /* \"#utility.yul\":1302:1309   */\n  dup10\n    /* \"#utility.yul\":1298:1321   */\n  sub\n    /* \"#utility.yul\":1294:1327   */\n  slt\n    /* \"#utility.yul\":1291:1344   */\n  iszero\n  tag_65\n  jumpi\n    /* \"#utility.yul\":1340:1341   */\n  0x00\n    /* \"#utility.yul\":1337:1338   */\n  dup1\n    /* \"#utility.yul\":1330:1342   */\n  revert\n    /* \"#utility.yul\":1291:1344   */\ntag_65:\n    /* \"#utility.yul\":1367:1383   */\n  dup7\n  mload\n  sub(shl(0x40, 0x01), 0x01)\n    /* \"#utility.yul\":1432:1446   */\n  dup1\n  dup3\n  gt\n    /* \"#utility.yul\":1429:1463   */\n  iszero\n  tag_66\n  jumpi\n    /* \"#utility.yul\":1459:1460   */\n  0x00\n    /* \"#utility.yul\":1456:1457   */\n  dup1\n    /* \"#utility.yul\":1449:1461   */\n  revert\n    /* \"#utility.yul\":1429:1463   */\ntag_66:\n    /* \"#utility.yul\":1482:1543   */\n  tag_67\n    /* \"#utility.yul\":1535:1542   */\n  dup11\n    /* \"#utility.yul\":1526:1532   */\n  dup4\n    /* \"#utility.yul\":1515:1524   */\n  dup12\n    /* \"#utility.yul\":1511:1533   */\n  add\n    /* \"#utility.yul\":1482:1543   */\n  tag_51\n  jump\t// in\ntag_67:\n    /* \"#utility.yul\":1472:1543   */\n  swap8\n  pop\n    /* \"#utility.yul\":1589:1591   */\n  0x20\n    /* \"#utility.yul\":1578:1587   */\n  dup10\n    /* \"#utility.yul\":1574:1592   */\n  add\n    /* \"#utility.yul\":1568:1593   */\n  mload\n    /* \"#utility.yul\":1552:1593   */\n  swap2\n  pop\n    /* \"#utility.yul\":1618:1620   */\n  dup1\n    /* \"#utility.yul\":1608:1616   */\n  dup3\n    /* \"#utility.yul\":1605:1621   */\n  gt\n    /* \"#utility.yul\":1602:1638   */\n  iszero\n  tag_68\n  jumpi\n    /* \"#utility.yul\":1634:1635   */\n  0x00\n    /* \"#utility.yul\":1631:1632   */\n  dup1\n    /* \"#utility.yul\":1624:1636   */\n  revert\n    /* \"#utility.yul\":1602:1638   */\ntag_68:\n    /* \"#utility.yul\":1657:1720   */\n  tag_69\n    /* \"#utility.yul\":1712:1719   */\n  dup11\n    /* \"#utility.yul\":1701:1709   */\n  dup4\n    /* \"#utility.yul\":1690:1699   */\n  dup12\n    /* \"#utility.yul\":1686:1710   */\n  add\n    /* \"#utility.yul\":1657:1720   */\n  tag_51\n  jump\t// in\ntag_69:\n    /* \"#utility.yul\":1647:1720   */\n  swap7\n  pop\n    /* \"#utility.yul\":1766:1768   */\n  0x40\n    /* \"#utility.yul\":1755:1764   */\n  dup10\n    /* \"#utility.yul\":1751:1769   */\n  add\n    /* \"#utility.yul\":1745:1770   */\n  mload\n    /* \"#utility.yul\":1729:1770   */\n  swap2\n  pop\n    /* \"#utility.yul\":1795:1797   */\n  dup1\n    /* \"#utility.yul\":1785:1793   */\n  dup3\n    /* \"#utility.yul\":1782:1798   */\n  gt\n    /* \"#utility.yul\":1779:1815   */\n  iszero\n  tag_70\n  jumpi\n    /* \"#utility.yul\":1811:1812   */\n  0x00\n    /* \"#utility.yul\":1808:1809   */\n  dup1\n    /* \"#utility.yul\":1801:1813   */\n  revert\n    /* \"#utility.yul\":1779:1815   */\ntag_70:\n  pop\n    /* \"#utility.yul\":1834:1897   */\n  tag_71\n    /* \"#utility.yul\":1889:1896   */\n  dup10\n    /* \"#utility.yul\":1878:1886   */\n  dup3\n    /* \"#utility.yul\":1867:1876   */\n  dup11\n    /* \"#utility.yul\":1863:1887   */\n  add\n    /* \"#utility.yul\":1834:1897   */\n  tag_51\n  jump\t// in\ntag_71:\n    /* \"#utility.yul\":1937:1939   */\n  0x60\n    /* \"#utility.yul\":1922:1940   */\n  dup10\n  add\n    /* \"#utility.yul\":1916:1941   */\n  mload\n    /* \"#utility.yul\":1984:1987   */\n  0x80\n    /* \"#utility.yul\":1969:1988   */\n  dup11\n  add\n    /* \"#utility.yul\":1963:1989   */\n  mload\n    /* \"#utility.yul\":1824:1897   */\n  swap2\n  swap7\n  pop\n    /* \"#utility.yul\":1916:1941   */\n  swap5\n  pop\n    /* \"#utility.yul\":1963:1989   */\n  swap1\n  pop\n  sub(shl(0x60, 0x01), 0x01)\n    /* \"#utility.yul\":2018:2048   */\n  dup2\n  and\n    /* \"#utility.yul\":2008:2049   */\n  dup2\n  eq\n    /* \"#utility.yul\":1998:2067   */\n  tag_72\n  jumpi\n    /* \"#utility.yul\":2063:2064   */\n  0x00\n    /* \"#utility.yul\":2060:2061   */\n  dup1\n    /* \"#utility.yul\":2053:2065   */\n  revert\n    /* \"#utility.yul\":1998:2067   */\ntag_72:\n    /* \"#utility.yul\":2086:2091   */\n  swap2\n  pop\n    /* \"#utility.yul\":2110:2160   */\n  tag_73\n    /* \"#utility.yul\":2155:2158   */\n  0xa0\n    /* \"#utility.yul\":2140:2159   */\n  dup9\n  add\n    /* \"#utility.yul\":2110:2160   */\n  tag_48\n  jump\t// in\ntag_73:\n    /* \"#utility.yul\":2100:2160   */\n  swap1\n  pop\n    /* \"#utility.yul\":1086:2166   */\n  swap3\n  swap6\n  pop\n  swap3\n  swap6\n  pop\n  swap3\n  swap6\n  jump\t// out\n    /* \"#utility.yul\":3013:3235   */\ntag_26:\n    /* \"#utility.yul\":3053:3057   */\n  0x00\n    /* \"#utility.yul\":3081:3082   */\n  dup3\n    /* \"#utility.yul\":3078:3079   */\n  dup3\n    /* \"#utility.yul\":3075:3083   */\n  lt\n    /* \"#utility.yul\":3072:3203   */\n  iszero\n  tag_77\n  jumpi\n    /* \"#utility.yul\":3125:3135   */\n  0x4e487b71\n    /* \"#utility.yul\":3120:3123   */\n  0xe0\n    /* \"#utility.yul\":3116:3136   */\n  shl\n    /* \"#utility.yul\":3113:3114   */\n  0x00\n    /* \"#utility.yul\":3106:3137   */\n  mstore\n    /* \"#utility.yul\":3160:3164   */\n  0x11\n    /* \"#utility.yul\":3157:3158   */\n  0x04\n    /* \"#utility.yul\":3150:3165   */\n  mstore\n    /* \"#utility.yul\":3188:3192   */\n  0x24\n    /* \"#utility.yul\":3185:3186   */\n  0x00\n    /* \"#utility.yul\":3178:3193   */\n  revert\n    /* \"#utility.yul\":3072:3203   */\ntag_77:\n  pop\n    /* \"#utility.yul\":3220:3229   */\n  sub\n  swap1\n    /* \"#utility.yul\":3013:3235   */\n  jump\t// out\n    /* \"#utility.yul\":3240:3620   */\ntag_37:\n    /* \"#utility.yul\":3319:3320   */\n  0x01\n    /* \"#utility.yul\":3315:3327   */\n  dup2\n  dup2\n  shr\n  swap1\n    /* \"#utility.yul\":3362:3374   */\n  dup3\n  and\n  dup1\n    /* \"#utility.yul\":3383:3444   */\n  tag_79\n  jumpi\n    /* \"#utility.yul\":3437:3441   */\n  0x7f\n    /* \"#utility.yul\":3429:3435   */\n  dup3\n    /* \"#utility.yul\":3425:3442   */\n  and\n    /* \"#utility.yul\":3415:3442   */\n  swap2\n  pop\n    /* \"#utility.yul\":3383:3444   */\ntag_79:\n    /* \"#utility.yul\":3490:3492   */\n  0x20\n    /* \"#utility.yul\":3482:3488   */\n  dup3\n    /* \"#utility.yul\":3479:3493   */\n  lt\n    /* \"#utility.yul\":3459:3477   */\n  dup2\n    /* \"#utility.yul\":3456:3494   */\n  eq\n    /* \"#utility.yul\":3453:3614   */\n  iszero\n  tag_80\n  jumpi\n    /* \"#utility.yul\":3536:3546   */\n  0x4e487b71\n    /* \"#utility.yul\":3531:3534   */\n  0xe0\n    /* \"#utility.yul\":3527:3547   */\n  shl\n    /* \"#utility.yul\":3524:3525   */\n  0x00\n    /* \"#utility.yul\":3517:3548   */\n  mstore\n    /* \"#utility.yul\":3571:3575   */\n  0x22\n    /* \"#utility.yul\":3568:3569   */\n  0x04\n    /* \"#utility.yul\":3561:3576   */\n  mstore\n    /* \"#utility.yul\":3599:3603   */\n  0x24\n    /* \"#utility.yul\":3596:3597   */\n  0x00\n    /* \"#utility.yul\":3589:3604   */\n  revert\n    /* \"#utility.yul\":3453:3614   */\ntag_80:\n  pop\n    /* \"#utility.yul\":3240:3620   */\n  swap2\n  swap1\n  pop\n  jump\t// out\n    /* \"#utility.yul\":3625:3752   */\ntag_56:\n    /* \"#utility.yul\":3686:3696   */\n  0x4e487b71\n    /* \"#utility.yul\":3681:3684   */\n  0xe0\n    /* \"#utility.yul\":3677:3697   */\n  shl\n    /* \"#utility.yul\":3674:3675   */\n  0x00\n    /* \"#utility.yul\":3667:3698   */\n  mstore\n    /* \"#utility.yul\":3717:3721   */\n  0x41\n    /* \"#utility.yul\":3714:3715   */\n  0x04\n    /* \"#utility.yul\":3707:3722   */\n  mstore\n    /* \"#utility.yul\":3741:3745   */\n  0x24\n    /* \"#utility.yul\":3738:3739   */\n  0x00\n    /* \"#utility.yul\":3731:3746   */\n  revert\n    /* \"#utility.yul\":3625:3752   */\ntag_47:\n    /* \"NftContract.sol\":176:5414  contract PantherNft is ERC721, EIP712, Ownable {\r... */\n  mload(0x80)\n  mload(0xa0)\n  shr(0x60, mload(0xc0))\n  mload(0xe0)\n  mload(0x0100)\n  mload(0x0120)\n  codecopy(0x00, dataOffset(sub_0), dataSize(sub_0))\n  0x00\n  assignImmutable(\"0xc925925f9a803efbc144bd5e6d385fb950770306f497896d91c9beadf452695e\")\n  0x00\n  assignImmutable(\"0xad0ea8b94642fa2155eb7dbd1d545883f6485b81aaa0ee5b7ef63e54cf3b4dca\")\n  0x00\n  assignImmutable(\"0x4d10a0db24f434e6025a5ab91426fb885a8a41f2a9a3e3f8c3bfdea4a211adc4\")\n  0x00\n  assignImmutable(\"0x8daa2fd0bd035dbe856aeb0cf4a9c58ddc36a58ca2b562643b5027489d09ec1b\")\n  0x00\n  assignImmutable(\"0x894a18e75f0a8b978d87ca850b87ebdfb9565d22a7e423cfe82ac5eb107e798f\")\n  0x00\n  assignImmutable(\"0x80ba64611178d6973600fd96978a0b0a5c611f549c423d5c6e2cfd28bc017c25\")\n  return(0x00, dataSize(sub_0))\nstop\n\nsub_0: assembly {\n        /* \"NftContract.sol\":176:5414  contract PantherNft is ERC721, EIP712, Ownable {\r... */\n      mstore(0x40, 0x80)\n      jumpi(tag_1, lt(calldatasize, 0x04))\n      shr(0xe0, calldataload(0x00))\n      dup1\n      0x8da5cb5b\n      gt\n      tag_36\n      jumpi\n      dup1\n      0xbdb4b848\n      gt\n      tag_37\n      jumpi\n      dup1\n      0xe6c3b1f6\n      gt\n      tag_38\n      jumpi\n      dup1\n      0xf2fde38b\n      gt\n      tag_39\n      jumpi\n      dup1\n      0xf2fde38b\n      eq\n      tag_33\n      jumpi\n      dup1\n      0xf59e26d0\n      eq\n      tag_34\n      jumpi\n      dup1\n      0xfbbd1dc0\n      eq\n      tag_35\n      jumpi\n      0x00\n      dup1\n      revert\n    tag_39:\n      dup1\n      0xe6c3b1f6\n      eq\n      tag_31\n      jumpi\n      dup1\n      0xe985e9c5\n      eq\n      tag_32\n      jumpi\n      0x00\n      dup1\n      revert\n    tag_38:\n      dup1\n      0xbdb4b848\n      eq\n      tag_27\n      jumpi\n      dup1\n      0xc2e63def\n      eq\n      tag_28\n      jumpi\n      dup1\n      0xc87b56dd\n      eq\n      tag_29\n      jumpi\n      dup1\n      0xd83d0f76\n      eq\n      tag_30\n      jumpi\n      0x00\n      dup1\n      revert\n    tag_37:\n      dup1\n      0xa22cb465\n      gt\n      tag_40\n      jumpi\n      dup1\n      0xa22cb465\n      eq\n      tag_23\n      jumpi\n      dup1\n      0xa2e69613\n      eq\n      tag_24\n      jumpi\n      dup1\n      0xad2f852a\n      eq\n      tag_25\n      jumpi\n      dup1\n      0xb88d4fde\n      eq\n      tag_26\n      jumpi\n      0x00\n      dup1\n      revert\n    tag_40:\n      dup1\n      0x8da5cb5b\n      eq\n      tag_19\n      jumpi\n      dup1\n      0x95d89b41\n      eq\n      tag_20\n      jumpi\n      dup1\n      0xa06cb719\n      eq\n      tag_21\n      jumpi\n      dup1\n      0xa0ef91df\n      eq\n      tag_22\n      jumpi\n      0x00\n      dup1\n      revert\n    tag_36:\n      dup1\n      0x2a55205a\n      gt\n      tag_41\n      jumpi\n      dup1\n      0x6c0360eb\n      gt\n      tag_42\n      jumpi\n      dup1\n      0x73c7400e\n      gt\n      tag_43\n      jumpi\n      dup1\n      0x73c7400e\n      eq\n      tag_16\n      jumpi\n      dup1\n      0x79d72794\n      eq\n      tag_17\n      jumpi\n      dup1\n      0x8545f4ea\n      eq\n      tag_18\n      jumpi\n      0x00\n      dup1\n      revert\n    tag_43:\n      dup1\n      0x6c0360eb\n      eq\n      tag_14\n      jumpi\n      dup1\n      0x70a08231\n      eq\n      tag_15\n      jumpi\n      0x00\n      dup1\n      revert\n    tag_42:\n      dup1\n      0x2a55205a\n      eq\n      tag_10\n      jumpi\n      dup1\n      0x32cb6b0c\n      eq\n      tag_11\n      jumpi\n      dup1\n      0x42842e0e\n      eq\n      tag_12\n      jumpi\n      dup1\n      0x6352211e\n      eq\n      tag_13\n      jumpi\n      0x00\n      dup1\n      revert\n    tag_41:\n      dup1\n      0x095ea7b3\n      gt\n      tag_44\n      jumpi\n      dup1\n      0x095ea7b3\n      eq\n      tag_6\n      jumpi\n      dup1\n      0x0e2d56cf\n      eq\n      tag_7\n      jumpi\n      dup1\n      0x15137045\n      eq\n      tag_8\n      jumpi\n      dup1\n      0x23b872dd\n      eq\n      tag_9\n      jumpi\n      0x00\n      dup1\n      revert\n    tag_44:\n      dup1\n      0x01ffc9a7\n      eq\n      tag_2\n      jumpi\n      dup1\n      0x02fa7c47\n      eq\n      tag_3\n      jumpi\n      dup1\n      0x06fdde03\n      eq\n      tag_4\n      jumpi\n      dup1\n      0x081812fc\n      eq\n      tag_5\n      jumpi\n    tag_1:\n      0x00\n      dup1\n      revert\n        /* \"ERC721.sol\":892:1329  function supportsInterface(bytes4 interfaceId)\r... */\n    tag_2:\n      callvalue\n      dup1\n      iszero\n      tag_45\n      jumpi\n      0x00\n      dup1\n      revert\n    tag_45:\n      pop\n      tag_46\n      tag_47\n      calldatasize\n      0x04\n      tag_48\n      jump\t// in\n    tag_47:\n      tag_49\n      jump\t// in\n    tag_46:\n      mload(0x40)\n        /* \"#utility.yul\":9208:9222   */\n      swap1\n      iszero\n        /* \"#utility.yul\":9201:9223   */\n      iszero\n        /* \"#utility.yul\":9183:9224   */\n      dup2\n      mstore\n        /* \"#utility.yul\":9171:9173   */\n      0x20\n        /* \"#utility.yul\":9156:9174   */\n      add\n        /* \"ERC721.sol\":892:1329  function supportsInterface(bytes4 interfaceId)\r... */\n    tag_50:\n      mload(0x40)\n      dup1\n      swap2\n      sub\n      swap1\n      return\n        /* \"NftContract.sol\":4704:4992  function setRoyaltyInfo(address _royaltyAddress, uint96 _royaltyFeesInBips)\r... */\n    tag_3:\n      callvalue\n      dup1\n      iszero\n      tag_52\n      jumpi\n      0x00\n      dup1\n      revert\n    tag_52:\n      pop\n      tag_53\n      tag_54\n      calldatasize\n      0x04\n      tag_55\n      jump\t// in\n    tag_54:\n      tag_56\n      jump\t// in\n    tag_53:\n      stop\n        /* \"ERC721.sol\":1337:1355  string public name */\n    tag_4:\n      callvalue\n      dup1\n      iszero\n      tag_57\n      jumpi\n      0x00\n      dup1\n      revert\n    tag_57:\n      pop\n      tag_58\n      tag_59\n      jump\t// in\n    tag_58:\n      mload(0x40)\n      tag_50\n      swap2\n      swap1\n      tag_61\n      jump\t// in\n        /* \"ERC721.sol\":1497:1543  mapping(uint256 => address) public getApproved */\n    tag_5:\n      callvalue\n      dup1\n      iszero\n      tag_62\n      jumpi\n      0x00\n      dup1\n      revert\n    tag_62:\n      pop\n      tag_63\n      tag_64\n      calldatasize\n      0x04\n      tag_65\n      jump\t// in\n    tag_64:\n      mstore(0x20, 0x04)\n      0x00\n      swap1\n      dup2\n      mstore\n      0x40\n      swap1\n      keccak256\n      sload\n      sub(shl(0xa0, 0x01), 0x01)\n      and\n      dup2\n      jump\n    tag_63:\n      mload(0x40)\n      sub(shl(0xa0, 0x01), 0x01)\n        /* \"#utility.yul\":7575:7630   */\n      swap1\n      swap2\n      and\n        /* \"#utility.yul\":7557:7631   */\n      dup2\n      mstore\n        /* \"#utility.yul\":7545:7547   */\n      0x20\n        /* \"#utility.yul\":7530:7548   */\n      add\n        /* \"ERC721.sol\":1497:1543  mapping(uint256 => address) public getApproved */\n      tag_50\n        /* \"#utility.yul\":7411:7637   */\n      jump\n        /* \"ERC721.sol\":2633:2959  function approve(address spender, uint256 id) public virtual {\r... */\n    tag_6:\n      callvalue\n      dup1\n      iszero\n      tag_69\n      jumpi\n      0x00\n      dup1\n      revert\n    tag_69:\n      pop\n      tag_53\n      tag_71\n      calldatasize\n      0x04\n      tag_72\n      jump\t// in\n    tag_71:\n      tag_73\n      jump\t// in\n        /* \"NftContract.sol\":4598:4696  function setPublicMint(bool _status) external onlyOwner {\r... */\n    tag_7:\n      callvalue\n      dup1\n      iszero\n      tag_74\n      jumpi\n      0x00\n      dup1\n      revert\n    tag_74:\n      pop\n      tag_53\n      tag_76\n      calldatasize\n      0x04\n      tag_77\n      jump\t// in\n    tag_76:\n      tag_78\n      jump\t// in\n        /* \"NftContract.sol\":1279:1389  function setSignAddress(address _signAddress) external onlyOwner {\r... */\n    tag_8:\n      callvalue\n      dup1\n      iszero\n      tag_79\n      jumpi\n      0x00\n      dup1\n      revert\n    tag_79:\n      pop\n      tag_53\n      tag_81\n      calldatasize\n      0x04\n      tag_82\n      jump\t// in\n    tag_81:\n      tag_83\n      jump\t// in\n        /* \"ERC721.sol\":3182:3802  function transferFrom(\r... */\n    tag_9:\n      callvalue\n      dup1\n      iszero\n      tag_84\n      jumpi\n      0x00\n      dup1\n      revert\n    tag_84:\n      pop\n      tag_53\n      tag_86\n      calldatasize\n      0x04\n      tag_87\n      jump\t// in\n    tag_86:\n      tag_88\n      jump\t// in\n        /* \"NftContract.sol\":4386:4590  function royaltyInfo(uint256 _tokenId, uint256 _salePrice)\r... */\n    tag_10:\n      callvalue\n      dup1\n      iszero\n      tag_89\n      jumpi\n      0x00\n      dup1\n      revert\n    tag_89:\n      pop\n      tag_90\n      tag_91\n      calldatasize\n      0x04\n      tag_92\n      jump\t// in\n    tag_91:\n      tag_93\n      jump\t// in\n    tag_90:\n      0x40\n      dup1\n      mload\n      sub(shl(0xa0, 0x01), 0x01)\n        /* \"#utility.yul\":8933:8988   */\n      swap1\n      swap4\n      and\n        /* \"#utility.yul\":8915:8989   */\n      dup4\n      mstore\n        /* \"#utility.yul\":9020:9022   */\n      0x20\n        /* \"#utility.yul\":9005:9023   */\n      dup4\n      add\n        /* \"#utility.yul\":8998:9032   */\n      swap2\n      swap1\n      swap2\n      mstore\n        /* \"#utility.yul\":8888:8906   */\n      add\n        /* \"NftContract.sol\":4386:4590  function royaltyInfo(uint256 _tokenId, uint256 _salePrice)\r... */\n      tag_50\n        /* \"#utility.yul\":8741:9038   */\n      jump\n        /* \"NftContract.sol\":411:443  uint120 public MAX_SUPPLY = 3000 */\n    tag_11:\n      callvalue\n      dup1\n      iszero\n      tag_96\n      jumpi\n      0x00\n      dup1\n      revert\n    tag_96:\n      pop\n      sload(0x0b)\n      tag_97\n      swap1\n      0x0100\n      swap1\n      div\n      0xffffffffffffffffffffffffffffff\n      and\n      dup2\n      jump\n    tag_97:\n      mload(0x40)\n        /* \"#utility.yul\":18332:18364   */\n      0xffffffffffffffffffffffffffffff\n        /* \"#utility.yul\":18320:18365   */\n      swap1\n      swap2\n      and\n        /* \"#utility.yul\":18302:18366   */\n      dup2\n      mstore\n        /* \"#utility.yul\":18290:18292   */\n      0x20\n        /* \"#utility.yul\":18275:18293   */\n      add\n        /* \"NftContract.sol\":411:443  uint120 public MAX_SUPPLY = 3000 */\n      tag_50\n        /* \"#utility.yul\":18156:18372   */\n      jump\n        /* \"ERC721.sol\":3810:4322  function safeTransferFrom(\r... */\n    tag_12:\n      callvalue\n      dup1\n      iszero\n      tag_101\n      jumpi\n      0x00\n      dup1\n      revert\n    tag_101:\n      pop\n      tag_53\n      tag_103\n      calldatasize\n      0x04\n      tag_87\n      jump\t// in\n    tag_103:\n      tag_104\n      jump\t// in\n        /* \"ERC721.sol\":1446:1488  mapping(uint256 => address) public ownerOf */\n    tag_13:\n      callvalue\n      dup1\n      iszero\n      tag_105\n      jumpi\n      0x00\n      dup1\n      revert\n    tag_105:\n      pop\n      tag_63\n      tag_107\n      calldatasize\n      0x04\n      tag_65\n      jump\t// in\n    tag_107:\n      mstore(0x20, 0x03)\n      0x00\n      swap1\n      dup2\n      mstore\n      0x40\n      swap1\n      keccak256\n      sload\n      sub(shl(0xa0, 0x01), 0x01)\n      and\n      dup2\n      jump\n        /* \"NftContract.sol\":230:251  string public baseURI */\n    tag_14:\n      callvalue\n      dup1\n      iszero\n      tag_110\n      jumpi\n      0x00\n      dup1\n      revert\n    tag_110:\n      pop\n      tag_58\n      tag_112\n      jump\t// in\n        /* \"ERC721.sol\":1393:1437  mapping(address => uint256) public balanceOf */\n    tag_15:\n      callvalue\n      dup1\n      iszero\n      tag_114\n      jumpi\n      0x00\n      dup1\n      revert\n    tag_114:\n      pop\n      tag_115\n      tag_116\n      calldatasize\n      0x04\n      tag_82\n      jump\t// in\n    tag_116:\n      mstore(0x20, 0x02)\n      0x00\n      swap1\n      dup2\n      mstore\n      0x40\n      swap1\n      keccak256\n      sload\n      dup2\n      jump\n    tag_115:\n      mload(0x40)\n        /* \"#utility.yul\":18523:18548   */\n      swap1\n      dup2\n      mstore\n        /* \"#utility.yul\":18511:18513   */\n      0x20\n        /* \"#utility.yul\":18496:18514   */\n      add\n        /* \"ERC721.sol\":1393:1437  mapping(address => uint256) public balanceOf */\n      tag_50\n        /* \"#utility.yul\":18377:18554   */\n      jump\n        /* \"NftContract.sol\":297:328  uint96 public royaltyFeesInBips */\n    tag_16:\n      callvalue\n      dup1\n      iszero\n      tag_120\n      jumpi\n      0x00\n      dup1\n      revert\n    tag_120:\n      pop\n      sload(0x0a)\n      tag_121\n      swap1\n      0xffffffffffffffffffffffff\n      and\n      dup2\n      jump\n    tag_121:\n      mload(0x40)\n        /* \"#utility.yul\":18733:18759   */\n      0xffffffffffffffffffffffff\n        /* \"#utility.yul\":18721:18760   */\n      swap1\n      swap2\n      and\n        /* \"#utility.yul\":18703:18761   */\n      dup2\n      mstore\n        /* \"#utility.yul\":18691:18693   */\n      0x20\n        /* \"#utility.yul\":18676:18694   */\n      add\n        /* \"NftContract.sol\":297:328  uint96 public royaltyFeesInBips */\n      tag_50\n        /* \"#utility.yul\":18559:18767   */\n      jump\n        /* \"NftContract.sol\":3373:3610  function mintOwner(address to, uint8 idType) external onlyOwner {\r... */\n    tag_17:\n      callvalue\n      dup1\n      iszero\n      tag_125\n      jumpi\n      0x00\n      dup1\n      revert\n    tag_125:\n      pop\n      tag_53\n      tag_127\n      calldatasize\n      0x04\n      tag_128\n      jump\t// in\n    tag_127:\n      tag_129\n      jump\t// in\n        /* \"NftContract.sol\":1397:1487  function setMintCost(uint256 val) external onlyOwner {\r... */\n    tag_18:\n      callvalue\n      dup1\n      iszero\n      tag_130\n      jumpi\n      0x00\n      dup1\n      revert\n    tag_130:\n      pop\n      tag_53\n      tag_132\n      calldatasize\n      0x04\n      tag_65\n      jump\t// in\n    tag_132:\n      tag_133\n      jump\t// in\n        /* \"utils/Ownable.sol\":353:440  function owner() public view virtual returns (address) {\r... */\n    tag_19:\n      callvalue\n      dup1\n      iszero\n      tag_134\n      jumpi\n      0x00\n      dup1\n      revert\n    tag_134:\n      pop\n        /* \"utils/Ownable.sol\":426:432  _owner */\n      and(sub(shl(0xa0, 0x01), 0x01), sload(0x07))\n        /* \"utils/Ownable.sol\":353:440  function owner() public view virtual returns (address) {\r... */\n      jump(tag_63)\n        /* \"ERC721.sol\":1364:1384  string public symbol */\n    tag_20:\n      callvalue\n      dup1\n      iszero\n      tag_138\n      jumpi\n      0x00\n      dup1\n      revert\n    tag_138:\n      pop\n      tag_58\n      tag_140\n      jump\t// in\n        /* \"NftContract.sol\":3618:4378  function mintPublic(address to) public payable {\r... */\n    tag_21:\n      tag_53\n      tag_143\n      calldatasize\n      0x04\n      tag_82\n      jump\t// in\n    tag_143:\n      tag_144\n      jump\t// in\n        /* \"NftContract.sol\":5182:5411  function withdrawEth() external onlyOwner {\r... */\n    tag_22:\n      callvalue\n      dup1\n      iszero\n      tag_145\n      jumpi\n      0x00\n      dup1\n      revert\n    tag_145:\n      pop\n      tag_53\n      tag_147\n      jump\t// in\n        /* \"ERC721.sol\":2967:3174  function setApprovalForAll(address operator, bool approved) public virtual {\r... */\n    tag_23:\n      callvalue\n      dup1\n      iszero\n      tag_148\n      jumpi\n      0x00\n      dup1\n      revert\n    tag_148:\n      pop\n      tag_53\n      tag_150\n      calldatasize\n      0x04\n      tag_151\n      jump\t// in\n    tag_150:\n      tag_152\n      jump\t// in\n        /* \"NftContract.sol\":5000:5174  function calculateRoyalty(uint256 _salePrice)\r... */\n    tag_24:\n      callvalue\n      dup1\n      iszero\n      tag_153\n      jumpi\n      0x00\n      dup1\n      revert\n    tag_153:\n      pop\n      tag_115\n      tag_155\n      calldatasize\n      0x04\n      tag_65\n      jump\t// in\n    tag_155:\n      tag_156\n      jump\t// in\n        /* \"NftContract.sol\":335:364  address public royaltyAddress */\n    tag_25:\n      callvalue\n      dup1\n      iszero\n      tag_158\n      jumpi\n      0x00\n      dup1\n      revert\n    tag_158:\n      pop\n      sload(0x0a)\n      tag_63\n      swap1\n      0x01000000000000000000000000\n      swap1\n      div\n      sub(shl(0xa0, 0x01), 0x01)\n      and\n      dup2\n      jump\n        /* \"ERC721.sol\":4330:4872  function safeTransferFrom(\r... */\n    tag_26:\n      callvalue\n      dup1\n      iszero\n      tag_162\n      jumpi\n      0x00\n      dup1\n      revert\n    tag_162:\n      pop\n      tag_53\n      tag_164\n      calldatasize\n      0x04\n      tag_165\n      jump\t// in\n    tag_164:\n      tag_166\n      jump\t// in\n        /* \"NftContract.sol\":450:473  uint256 public mintCost */\n    tag_27:\n      callvalue\n      dup1\n      iszero\n      tag_167\n      jumpi\n      0x00\n      dup1\n      revert\n    tag_167:\n      pop\n      tag_115\n      sload(0x0c)\n      dup2\n      jump\n        /* \"NftContract.sol\":2555:2736  function check(\r... */\n    tag_28:\n      callvalue\n      dup1\n      iszero\n      tag_171\n      jumpi\n      0x00\n      dup1\n      revert\n    tag_171:\n      pop\n      tag_63\n      tag_173\n      calldatasize\n      0x04\n      tag_174\n      jump\t// in\n    tag_173:\n      tag_175\n      jump\t// in\n        /* \"ERC721.sol\":1804:2356  function tokenURI(uint256 tokenId)\r... */\n    tag_29:\n      callvalue\n      dup1\n      iszero\n      tag_177\n      jumpi\n      0x00\n      dup1\n      revert\n    tag_177:\n      pop\n      tag_58\n      tag_179\n      calldatasize\n      0x04\n      tag_65\n      jump\t// in\n    tag_179:\n      tag_180\n      jump\t// in\n        /* \"NftContract.sol\":371:404  bool public publicAllowed = false */\n    tag_30:\n      callvalue\n      dup1\n      iszero\n      tag_182\n      jumpi\n      0x00\n      dup1\n      revert\n    tag_182:\n      pop\n      sload(0x0b)\n      tag_46\n      swap1\n      0xff\n      and\n      dup2\n      jump\n        /* \"ERC721.sol\":1552:1596  mapping(uint256 => uint256) public tokenType */\n    tag_31:\n      callvalue\n      dup1\n      iszero\n      tag_186\n      jumpi\n      0x00\n      dup1\n      revert\n    tag_186:\n      pop\n      tag_115\n      tag_188\n      calldatasize\n      0x04\n      tag_65\n      jump\t// in\n    tag_188:\n      mstore(0x20, 0x05)\n      0x00\n      swap1\n      dup2\n      mstore\n      0x40\n      swap1\n      keccak256\n      sload\n      dup2\n      jump\n        /* \"ERC721.sol\":1605:1673  mapping(address => mapping(address => bool)) public isApprovedForAll */\n    tag_32:\n      callvalue\n      dup1\n      iszero\n      tag_191\n      jumpi\n      0x00\n      dup1\n      revert\n    tag_191:\n      pop\n      tag_46\n      tag_193\n      calldatasize\n      0x04\n      tag_194\n      jump\t// in\n    tag_193:\n      0x06\n      0x20\n      swap1\n      dup2\n      mstore\n      0x00\n      swap3\n      dup4\n      mstore\n      0x40\n      dup1\n      dup5\n      keccak256\n      swap1\n      swap2\n      mstore\n      swap1\n      dup3\n      mstore\n      swap1\n      keccak256\n      sload\n      0xff\n      and\n      dup2\n      jump\n        /* \"utils/Ownable.sol\":567:758  function transferOwnership(address newOwner) public virtual onlyOwner {\r... */\n    tag_33:\n      callvalue\n      dup1\n      iszero\n      tag_197\n      jumpi\n      0x00\n      dup1\n      revert\n    tag_197:\n      pop\n      tag_53\n      tag_199\n      calldatasize\n      0x04\n      tag_82\n      jump\t// in\n    tag_199:\n      tag_200\n      jump\t// in\n        /* \"NftContract.sol\":1495:1580  function setPauseMint(bool val) external onlyOwner {\r... */\n    tag_34:\n      callvalue\n      dup1\n      iszero\n      tag_201\n      jumpi\n      0x00\n      dup1\n      revert\n    tag_201:\n      pop\n      tag_53\n      tag_203\n      calldatasize\n      0x04\n      tag_77\n      jump\t// in\n    tag_203:\n      tag_204\n      jump\t// in\n        /* \"NftContract.sol\":1588:2547  function mintWhitelist(\r... */\n    tag_35:\n      tag_53\n      tag_206\n      calldatasize\n      0x04\n      tag_174\n      jump\t// in\n    tag_206:\n      tag_207\n      jump\t// in\n        /* \"ERC721.sol\":892:1329  function supportsInterface(bytes4 interfaceId)\r... */\n    tag_49:\n        /* \"ERC721.sol\":1004:1008  bool */\n      0x00\n        /* \"ERC721.sol\":1046:1071  interfaceId == 0x01ffc9a7 */\n      0x01ffc9a700000000000000000000000000000000000000000000000000000000\n      0xffffffff00000000000000000000000000000000000000000000000000000000\n      dup4\n      and\n      eq\n      dup1\n        /* \"ERC721.sol\":1046:1147  interfaceId == 0x01ffc9a7 || // ERC165 Interface ID for ERC165\r... */\n      tag_209\n      jumpi\n      pop\n        /* \"ERC721.sol\":1122:1147  interfaceId == 0x80ac58cd */\n      0x80ac58cd00000000000000000000000000000000000000000000000000000000\n      0xffffffff00000000000000000000000000000000000000000000000000000000\n      dup4\n      and\n      eq\n        /* \"ERC721.sol\":1046:1147  interfaceId == 0x01ffc9a7 || // ERC165 Interface ID for ERC165\r... */\n    tag_209:\n        /* \"ERC721.sol\":1046:1223  interfaceId == 0x01ffc9a7 || // ERC165 Interface ID for ERC165\r... */\n      dup1\n      tag_210\n      jumpi\n      pop\n        /* \"ERC721.sol\":1198:1223  interfaceId == 0x5b5e139f */\n      0x5b5e139f00000000000000000000000000000000000000000000000000000000\n      0xffffffff00000000000000000000000000000000000000000000000000000000\n      dup4\n      and\n      eq\n        /* \"ERC721.sol\":1046:1223  interfaceId == 0x01ffc9a7 || // ERC165 Interface ID for ERC165\r... */\n    tag_210:\n        /* \"ERC721.sol\":1046:1307  interfaceId == 0x01ffc9a7 || // ERC165 Interface ID for ERC165\r... */\n      dup1\n      tag_211\n      jumpi\n      pop\n        /* \"ERC721.sol\":1282:1307  interfaceId == 0x2a55205a */\n      0x2a55205a00000000000000000000000000000000000000000000000000000000\n      0xffffffff00000000000000000000000000000000000000000000000000000000\n      dup4\n      and\n      eq\n        /* \"ERC721.sol\":1046:1307  interfaceId == 0x01ffc9a7 || // ERC165 Interface ID for ERC165\r... */\n    tag_211:\n        /* \"ERC721.sol\":1026:1307  return\r... */\n      swap3\n        /* \"ERC721.sol\":892:1329  function supportsInterface(bytes4 interfaceId)\r... */\n      swap2\n      pop\n      pop\n      jump\t// out\n        /* \"NftContract.sol\":4704:4992  function setRoyaltyInfo(address _royaltyAddress, uint96 _royaltyFeesInBips)\r... */\n    tag_56:\n        /* \"utils/Ownable.sol\":426:432  _owner */\n      and(sub(shl(0xa0, 0x01), 0x01), sload(0x07))\n        /* \"utils/Context.sol\":175:185  msg.sender */\n      caller\n        /* \"utils/Ownable.sol\":488:511  _msgSender() == owner() */\n      eq\n        /* \"utils/Ownable.sol\":480:539  require(_msgSender() == owner(), \"Caller is not the owner\") */\n      tag_216\n      jumpi\n      mload(0x40)\n      shl(0xe5, 0x461bcd)\n      dup2\n      mstore\n        /* \"#utility.yul\":11660:11662   */\n      0x20\n        /* \"utils/Ownable.sol\":480:539  require(_msgSender() == owner(), \"Caller is not the owner\") */\n      0x04\n      dup3\n      add\n        /* \"#utility.yul\":11642:11663   */\n      mstore\n        /* \"#utility.yul\":11699:11701   */\n      0x17\n        /* \"#utility.yul\":11679:11697   */\n      0x24\n      dup3\n      add\n        /* \"#utility.yul\":11672:11702   */\n      mstore\n        /* \"#utility.yul\":11738:11763   */\n      0x43616c6c6572206973206e6f7420746865206f776e6572000000000000000000\n        /* \"#utility.yul\":11718:11736   */\n      0x44\n      dup3\n      add\n        /* \"#utility.yul\":11711:11764   */\n      mstore\n        /* \"#utility.yul\":11781:11799   */\n      0x64\n      add\n        /* \"utils/Ownable.sol\":480:539  require(_msgSender() == owner(), \"Caller is not the owner\") */\n    tag_217:\n      mload(0x40)\n      dup1\n      swap2\n      sub\n      swap1\n      revert\n    tag_216:\n        /* \"NftContract.sol\":4863:4868  10000 */\n      0x2710\n        /* \"NftContract.sol\":4841:4859  _royaltyFeesInBips */\n      dup2\n        /* \"NftContract.sol\":4841:4868  _royaltyFeesInBips <= 10000 */\n      0xffffffffffffffffffffffff\n      and\n      gt\n      iszero\n        /* \"NftContract.sol\":4833:4892  require(_royaltyFeesInBips <= 10000, \"cannot exceed 10000\") */\n      tag_220\n      jumpi\n      mload(0x40)\n      shl(0xe5, 0x461bcd)\n      dup2\n      mstore\n        /* \"#utility.yul\":16967:16969   */\n      0x20\n        /* \"NftContract.sol\":4833:4892  require(_royaltyFeesInBips <= 10000, \"cannot exceed 10000\") */\n      0x04\n      dup3\n      add\n        /* \"#utility.yul\":16949:16970   */\n      mstore\n        /* \"#utility.yul\":17006:17008   */\n      0x13\n        /* \"#utility.yul\":16986:17004   */\n      0x24\n      dup3\n      add\n        /* \"#utility.yul\":16979:17009   */\n      mstore\n        /* \"#utility.yul\":17045:17066   */\n      0x63616e6e6f742065786365656420313030303000000000000000000000000000\n        /* \"#utility.yul\":17025:17043   */\n      0x44\n      dup3\n      add\n        /* \"#utility.yul\":17018:17067   */\n      mstore\n        /* \"#utility.yul\":17084:17102   */\n      0x64\n      add\n        /* \"NftContract.sol\":4833:4892  require(_royaltyFeesInBips <= 10000, \"cannot exceed 10000\") */\n      tag_217\n        /* \"#utility.yul\":16765:17108   */\n      jump\n        /* \"NftContract.sol\":4833:4892  require(_royaltyFeesInBips <= 10000, \"cannot exceed 10000\") */\n    tag_220:\n        /* \"NftContract.sol\":4903:4935  royaltyAddress = _royaltyAddress */\n      0xffffffffffffffffffffffff\n        /* \"NftContract.sol\":4946:4984  royaltyFeesInBips = _royaltyFeesInBips */\n      and\n      sub(shl(0xa0, 0x01), 0x01)\n        /* \"NftContract.sol\":4903:4935  royaltyAddress = _royaltyAddress */\n      swap1\n      swap2\n      and\n      0x01000000000000000000000000\n      mul\n      0xffffffffffffffffffffffffffffffffffffffff000000000000000000000000\n        /* \"NftContract.sol\":4946:4984  royaltyFeesInBips = _royaltyFeesInBips */\n      and\n      or\n        /* \"NftContract.sol\":4903:4917  royaltyAddress */\n      0x0a\n        /* \"NftContract.sol\":4946:4984  royaltyFeesInBips = _royaltyFeesInBips */\n      sstore\n        /* \"NftContract.sol\":4704:4992  function setRoyaltyInfo(address _royaltyAddress, uint96 _royaltyFeesInBips)\r... */\n      jump\t// out\n        /* \"ERC721.sol\":1337:1355  string public name */\n    tag_59:\n      0x00\n      dup1\n      sload\n      tag_223\n      swap1\n      tag_224\n      jump\t// in\n    tag_223:\n      dup1\n      0x1f\n      add\n      0x20\n      dup1\n      swap2\n      div\n      mul\n      0x20\n      add\n      mload(0x40)\n      swap1\n      dup2\n      add\n      0x40\n      mstore\n      dup1\n      swap3\n      swap2\n      swap1\n      dup2\n      dup2\n      mstore\n      0x20\n      add\n      dup3\n      dup1\n      sload\n      tag_225\n      swap1\n      tag_224\n      jump\t// in\n    tag_225:\n      dup1\n      iszero\n      tag_226\n      jumpi\n      dup1\n      0x1f\n      lt\n      tag_227\n      jumpi\n      0x0100\n      dup1\n      dup4\n      sload\n      div\n      mul\n      dup4\n      mstore\n      swap2\n      0x20\n      add\n      swap2\n      jump(tag_226)\n    tag_227:\n      dup3\n      add\n      swap2\n      swap1\n      0x00\n      mstore\n      keccak256(0x00, 0x20)\n      swap1\n    tag_228:\n      dup2\n      sload\n      dup2\n      mstore\n      swap1\n      0x01\n      add\n      swap1\n      0x20\n      add\n      dup1\n      dup4\n      gt\n      tag_228\n      jumpi\n      dup3\n      swap1\n      sub\n      0x1f\n      and\n      dup3\n      add\n      swap2\n    tag_226:\n      pop\n      pop\n      pop\n      pop\n      pop\n      dup2\n      jump\t// out\n        /* \"ERC721.sol\":2633:2959  function approve(address spender, uint256 id) public virtual {\r... */\n    tag_73:\n        /* \"ERC721.sol\":2705:2718  address owner */\n      0x00\n        /* \"ERC721.sol\":2721:2732  ownerOf[id] */\n      dup2\n      dup2\n      mstore\n        /* \"ERC721.sol\":2721:2728  ownerOf */\n      0x03\n        /* \"ERC721.sol\":2721:2732  ownerOf[id] */\n      0x20\n      mstore\n      0x40\n      swap1\n      keccak256\n      sload\n      sub(shl(0xa0, 0x01), 0x01)\n      and\n        /* \"ERC721.sol\":2767:2777  msg.sender */\n      caller\n        /* \"ERC721.sol\":2767:2786  msg.sender == owner */\n      dup2\n      eq\n      dup1\n        /* \"ERC721.sol\":2767:2825  msg.sender == owner || isApprovedForAll[owner][msg.sender] */\n      tag_230\n      jumpi\n      pop\n      sub(shl(0xa0, 0x01), 0x01)\n        /* \"ERC721.sol\":2790:2813  isApprovedForAll[owner] */\n      dup2\n      and\n      0x00\n      swap1\n      dup2\n      mstore\n        /* \"ERC721.sol\":2790:2806  isApprovedForAll */\n      0x06\n        /* \"ERC721.sol\":2790:2813  isApprovedForAll[owner] */\n      0x20\n      swap1\n      dup2\n      mstore\n      0x40\n      dup1\n      dup4\n      keccak256\n        /* \"ERC721.sol\":2814:2824  msg.sender */\n      caller\n        /* \"ERC721.sol\":2790:2825  isApprovedForAll[owner][msg.sender] */\n      dup5\n      mstore\n      swap1\n      swap2\n      mstore\n      swap1\n      keccak256\n      sload\n      0xff\n      and\n        /* \"ERC721.sol\":2767:2825  msg.sender == owner || isApprovedForAll[owner][msg.sender] */\n    tag_230:\n        /* \"ERC721.sol\":2745:2867  require(\r... */\n      tag_231\n      jumpi\n      mload(0x40)\n      shl(0xe5, 0x461bcd)\n      dup2\n      mstore\n        /* \"#utility.yul\":18015:18017   */\n      0x20\n        /* \"ERC721.sol\":2745:2867  require(\r... */\n      0x04\n      dup3\n      add\n        /* \"#utility.yul\":17997:18018   */\n      mstore\n        /* \"#utility.yul\":18054:18056   */\n      0x0e\n        /* \"#utility.yul\":18034:18052   */\n      0x24\n      dup3\n      add\n        /* \"#utility.yul\":18027:18057   */\n      mstore\n        /* \"#utility.yul\":18093:18109   */\n      0x4e6f7420617574686f72697a6564000000000000000000000000000000000000\n        /* \"#utility.yul\":18073:18091   */\n      0x44\n      dup3\n      add\n        /* \"#utility.yul\":18066:18110   */\n      mstore\n        /* \"#utility.yul\":18127:18145   */\n      0x64\n      add\n        /* \"ERC721.sol\":2745:2867  require(\r... */\n      tag_217\n        /* \"#utility.yul\":17813:18151   */\n      jump\n        /* \"ERC721.sol\":2745:2867  require(\r... */\n    tag_231:\n        /* \"ERC721.sol\":2880:2895  getApproved[id] */\n      0x00\n      dup3\n      dup2\n      mstore\n        /* \"ERC721.sol\":2880:2891  getApproved */\n      0x04\n        /* \"ERC721.sol\":2880:2895  getApproved[id] */\n      0x20\n      mstore\n      0x40\n      dup1\n      dup3\n      keccak256\n        /* \"ERC721.sol\":2880:2905  getApproved[id] = spender */\n      dup1\n      sload\n      0xffffffffffffffffffffffff0000000000000000000000000000000000000000\n      and\n      sub(shl(0xa0, 0x01), 0x01)\n      dup8\n      dup2\n      and\n      swap2\n      dup3\n      or\n      swap1\n      swap3\n      sstore\n        /* \"ERC721.sol\":2923:2951  Approval(owner, spender, id) */\n      swap2\n      mload\n        /* \"ERC721.sol\":2880:2895  getApproved[id] */\n      dup6\n      swap4\n        /* \"ERC721.sol\":2923:2951  Approval(owner, spender, id) */\n      swap2\n      dup6\n      and\n      swap2\n      0x8c5be1e5ebec7d5bd14f71427d1e84f3dd0314c0f7b2291e5b200ac8c7c3b925\n      swap2\n      log4\n        /* \"ERC721.sol\":2694:2959  {\r... */\n      pop\n        /* \"ERC721.sol\":2633:2959  function approve(address spender, uint256 id) public virtual {\r... */\n      pop\n      pop\n      jump\t// out\n        /* \"NftContract.sol\":4598:4696  function setPublicMint(bool _status) external onlyOwner {\r... */\n    tag_78:\n        /* \"utils/Ownable.sol\":426:432  _owner */\n      and(sub(shl(0xa0, 0x01), 0x01), sload(0x07))\n        /* \"utils/Context.sol\":175:185  msg.sender */\n      caller\n        /* \"utils/Ownable.sol\":488:511  _msgSender() == owner() */\n      eq\n        /* \"utils/Ownable.sol\":480:539  require(_msgSender() == owner(), \"Caller is not the owner\") */\n      tag_237\n      jumpi\n      mload(0x40)\n      shl(0xe5, 0x461bcd)\n      dup2\n      mstore\n        /* \"#utility.yul\":11660:11662   */\n      0x20\n        /* \"utils/Ownable.sol\":480:539  require(_msgSender() == owner(), \"Caller is not the owner\") */\n      0x04\n      dup3\n      add\n        /* \"#utility.yul\":11642:11663   */\n      mstore\n        /* \"#utility.yul\":11699:11701   */\n      0x17\n        /* \"#utility.yul\":11679:11697   */\n      0x24\n      dup3\n      add\n        /* \"#utility.yul\":11672:11702   */\n      mstore\n        /* \"#utility.yul\":11738:11763   */\n      0x43616c6c6572206973206e6f7420746865206f776e6572000000000000000000\n        /* \"#utility.yul\":11718:11736   */\n      0x44\n      dup3\n      add\n        /* \"#utility.yul\":11711:11764   */\n      mstore\n        /* \"#utility.yul\":11781:11799   */\n      0x64\n      add\n        /* \"utils/Ownable.sol\":480:539  require(_msgSender() == owner(), \"Caller is not the owner\") */\n      tag_217\n        /* \"#utility.yul\":11458:11805   */\n      jump\n        /* \"utils/Ownable.sol\":480:539  require(_msgSender() == owner(), \"Caller is not the owner\") */\n    tag_237:\n        /* \"NftContract.sol\":4665:4678  publicAllowed */\n      0x0b\n        /* \"NftContract.sol\":4665:4688  publicAllowed = _status */\n      dup1\n      sload\n      0xffffffffffffffffffffffffffffffffffffffffffffffffffffffffffffff00\n      and\n      swap2\n      iszero\n      iszero\n      swap2\n      swap1\n      swap2\n      or\n      swap1\n      sstore\n        /* \"NftContract.sol\":4598:4696  function setPublicMint(bool _status) external onlyOwner {\r... */\n      jump\t// out\n        /* \"NftContract.sol\":1279:1389  function setSignAddress(address _signAddress) external onlyOwner {\r... */\n    tag_83:\n        /* \"utils/Ownable.sol\":426:432  _owner */\n      and(sub(shl(0xa0, 0x01), 0x01), sload(0x07))\n        /* \"utils/Context.sol\":175:185  msg.sender */\n      caller\n        /* \"utils/Ownable.sol\":488:511  _msgSender() == owner() */\n      eq\n        /* \"utils/Ownable.sol\":480:539  require(_msgSender() == owner(), \"Caller is not the owner\") */\n      tag_243\n      jumpi\n      mload(0x40)\n      shl(0xe5, 0x461bcd)\n      dup2\n      mstore\n        /* \"#utility.yul\":11660:11662   */\n      0x20\n        /* \"utils/Ownable.sol\":480:539  require(_msgSender() == owner(), \"Caller is not the owner\") */\n      0x04\n      dup3\n      add\n        /* \"#utility.yul\":11642:11663   */\n      mstore\n        /* \"#utility.yul\":11699:11701   */\n      0x17\n        /* \"#utility.yul\":11679:11697   */\n      0x24\n      dup3\n      add\n        /* \"#utility.yul\":11672:11702   */\n      mstore\n        /* \"#utility.yul\":11738:11763   */\n      0x43616c6c6572206973206e6f7420746865206f776e6572000000000000000000\n        /* \"#utility.yul\":11718:11736   */\n      0x44\n      dup3\n      add\n        /* \"#utility.yul\":11711:11764   */\n      mstore\n        /* \"#utility.yul\":11781:11799   */\n      0x64\n      add\n        /* \"utils/Ownable.sol\":480:539  require(_msgSender() == owner(), \"Caller is not the owner\") */\n      tag_217\n        /* \"#utility.yul\":11458:11805   */\n      jump\n        /* \"utils/Ownable.sol\":480:539  require(_msgSender() == owner(), \"Caller is not the owner\") */\n    tag_243:\n        /* \"NftContract.sol\":1355:1366  signAddress */\n      0x0d\n        /* \"NftContract.sol\":1355:1381  signAddress = _signAddress */\n      dup1\n      sload\n      0xffffffffffffffffffffffff0000000000000000000000000000000000000000\n      and\n      sub(shl(0xa0, 0x01), 0x01)\n      swap3\n      swap1\n      swap3\n      and\n      swap2\n      swap1\n      swap2\n      or\n      swap1\n      sstore\n        /* \"NftContract.sol\":1279:1389  function setSignAddress(address _signAddress) external onlyOwner {\r... */\n      jump\t// out\n        /* \"ERC721.sol\":3182:3802  function transferFrom(\r... */\n    tag_88:\n        /* \"ERC721.sol\":3318:3329  ownerOf[id] */\n      0x00\n      dup2\n      dup2\n      mstore\n        /* \"ERC721.sol\":3318:3325  ownerOf */\n      0x03\n        /* \"ERC721.sol\":3318:3329  ownerOf[id] */\n      0x20\n      mstore\n      0x40\n      swap1\n      keccak256\n      sload\n      sub(shl(0xa0, 0x01), 0x01)\n        /* \"ERC721.sol\":3310:3329  from == ownerOf[id] */\n      dup5\n      dup2\n      and\n        /* \"ERC721.sol\":3318:3329  ownerOf[id] */\n      swap2\n      and\n        /* \"ERC721.sol\":3310:3329  from == ownerOf[id] */\n      eq\n        /* \"ERC721.sol\":3302:3344  require(from == ownerOf[id], \"WRONG FROM\") */\n      tag_247\n      jumpi\n      mload(0x40)\n      shl(0xe5, 0x461bcd)\n      dup2\n      mstore\n        /* \"#utility.yul\":12708:12710   */\n      0x20\n        /* \"ERC721.sol\":3302:3344  require(from == ownerOf[id], \"WRONG FROM\") */\n      0x04\n      dup3\n      add\n        /* \"#utility.yul\":12690:12711   */\n      mstore\n        /* \"#utility.yul\":12747:12749   */\n      0x0a\n        /* \"#utility.yul\":12727:12745   */\n      0x24\n      dup3\n      add\n        /* \"#utility.yul\":12720:12750   */\n      mstore\n        /* \"#utility.yul\":12786:12798   */\n      0x57524f4e472046524f4d00000000000000000000000000000000000000000000\n        /* \"#utility.yul\":12766:12784   */\n      0x44\n      dup3\n      add\n        /* \"#utility.yul\":12759:12799   */\n      mstore\n        /* \"#utility.yul\":12816:12834   */\n      0x64\n      add\n        /* \"ERC721.sol\":3302:3344  require(from == ownerOf[id], \"WRONG FROM\") */\n      tag_217\n        /* \"#utility.yul\":12506:12840   */\n      jump\n        /* \"ERC721.sol\":3302:3344  require(from == ownerOf[id], \"WRONG FROM\") */\n    tag_247:\n      sub(shl(0xa0, 0x01), 0x01)\n        /* \"ERC721.sol\":3365:3381  to != address(0) */\n      dup3\n      and\n        /* \"ERC721.sol\":3357:3394  require(to != address(0), \"WRONG TO\") */\n      tag_250\n      jumpi\n      mload(0x40)\n      shl(0xe5, 0x461bcd)\n      dup2\n      mstore\n        /* \"#utility.yul\":12372:12374   */\n      0x20\n        /* \"ERC721.sol\":3357:3394  require(to != address(0), \"WRONG TO\") */\n      0x04\n      dup3\n      add\n        /* \"#utility.yul\":12354:12375   */\n      mstore\n        /* \"#utility.yul\":12411:12412   */\n      0x08\n        /* \"#utility.yul\":12391:12409   */\n      0x24\n      dup3\n      add\n        /* \"#utility.yul\":12384:12413   */\n      mstore\n        /* \"#utility.yul\":12449:12459   */\n      0x57524f4e4720544f000000000000000000000000000000000000000000000000\n        /* \"#utility.yul\":12429:12447   */\n      0x44\n      dup3\n      add\n        /* \"#utility.yul\":12422:12460   */\n      mstore\n        /* \"#utility.yul\":12477:12495   */\n      0x64\n      add\n        /* \"ERC721.sol\":3357:3394  require(to != address(0), \"WRONG TO\") */\n      tag_217\n        /* \"#utility.yul\":12170:12501   */\n      jump\n        /* \"ERC721.sol\":3357:3394  require(to != address(0), \"WRONG TO\") */\n    tag_250:\n        /* \"ERC721.sol\":3429:3439  msg.sender */\n      caller\n      sub(shl(0xa0, 0x01), 0x01)\n        /* \"ERC721.sol\":3429:3447  msg.sender == from */\n      dup5\n      and\n      eq\n      dup1\n        /* \"ERC721.sol\":3429:3502  msg.sender == from ||\r... */\n      tag_253\n      jumpi\n      pop\n      sub(shl(0xa0, 0x01), 0x01)\n        /* \"ERC721.sol\":3468:3490  isApprovedForAll[from] */\n      dup4\n      and\n      0x00\n      swap1\n      dup2\n      mstore\n        /* \"ERC721.sol\":3468:3484  isApprovedForAll */\n      0x06\n        /* \"ERC721.sol\":3468:3490  isApprovedForAll[from] */\n      0x20\n      swap1\n      dup2\n      mstore\n      0x40\n      dup1\n      dup4\n      keccak256\n        /* \"ERC721.sol\":3491:3501  msg.sender */\n      caller\n        /* \"ERC721.sol\":3468:3502  isApprovedForAll[from][msg.sender] */\n      dup5\n      mstore\n      swap1\n      swap2\n      mstore\n      swap1\n      keccak256\n      sload\n      0xff\n      and\n        /* \"ERC721.sol\":3429:3502  msg.sender == from ||\r... */\n    tag_253:\n        /* \"ERC721.sol\":3429:3552  msg.sender == from ||\r... */\n      dup1\n      tag_254\n      jumpi\n      pop\n        /* \"ERC721.sol\":3537:3552  getApproved[id] */\n      0x00\n      dup2\n      dup2\n      mstore\n        /* \"ERC721.sol\":3537:3548  getApproved */\n      0x04\n        /* \"ERC721.sol\":3537:3552  getApproved[id] */\n      0x20\n      mstore\n      0x40\n      swap1\n      keccak256\n      sload\n      sub(shl(0xa0, 0x01), 0x01)\n      and\n        /* \"ERC721.sol\":3523:3533  msg.sender */\n      caller\n        /* \"ERC721.sol\":3523:3552  msg.sender == getApproved[id] */\n      eq\n        /* \"ERC721.sol\":3429:3552  msg.sender == from ||\r... */\n    tag_254:\n        /* \"ERC721.sol\":3407:3594  require(\r... */\n      tag_255\n      jumpi\n      mload(0x40)\n      shl(0xe5, 0x461bcd)\n      dup2\n      mstore\n        /* \"#utility.yul\":15931:15933   */\n      0x20\n        /* \"ERC721.sol\":3407:3594  require(\r... */\n      0x04\n      dup3\n      add\n        /* \"#utility.yul\":15913:15934   */\n      mstore\n        /* \"#utility.yul\":15970:15972   */\n      0x0e\n        /* \"#utility.yul\":15950:15968   */\n      0x24\n      dup3\n      add\n        /* \"#utility.yul\":15943:15973   */\n      mstore\n        /* \"#utility.yul\":16009:16025   */\n      0x4e4f5420415554484f52495a4544000000000000000000000000000000000000\n        /* \"#utility.yul\":15989:16007   */\n      0x44\n      dup3\n      add\n        /* \"#utility.yul\":15982:16026   */\n      mstore\n        /* \"#utility.yul\":16043:16061   */\n      0x64\n      add\n        /* \"ERC721.sol\":3407:3594  require(\r... */\n      tag_217\n        /* \"#utility.yul\":15729:16067   */\n      jump\n        /* \"ERC721.sol\":3407:3594  require(\r... */\n    tag_255:\n      sub(shl(0xa0, 0x01), 0x01)\n        /* \"ERC721.sol\":3632:3647  balanceOf[from] */\n      dup1\n      dup5\n      and\n      0x00\n      dup2\n      dup2\n      mstore\n        /* \"ERC721.sol\":3632:3641  balanceOf */\n      0x02\n        /* \"ERC721.sol\":3632:3647  balanceOf[from] */\n      0x20\n      swap1\n      dup2\n      mstore\n      0x40\n      dup1\n      dup4\n      keccak256\n        /* \"ERC721.sol\":3632:3649  balanceOf[from]-- */\n      dup1\n      sload\n      not(0x00)\n      add\n      swap1\n      sstore\n        /* \"ERC721.sol\":3664:3677  balanceOf[to] */\n      swap4\n      dup7\n      and\n      dup1\n      dup4\n      mstore\n      dup5\n      dup4\n      keccak256\n        /* \"ERC721.sol\":3664:3679  balanceOf[to]++ */\n      dup1\n      sload\n        /* \"ERC721.sol\":3632:3649  balanceOf[from]-- */\n      0x01\n        /* \"ERC721.sol\":3664:3679  balanceOf[to]++ */\n      add\n      swap1\n      sstore\n        /* \"ERC721.sol\":3703:3714  ownerOf[id] */\n      dup6\n      dup4\n      mstore\n        /* \"ERC721.sol\":3703:3710  ownerOf */\n      0x03\n        /* \"ERC721.sol\":3703:3714  ownerOf[id] */\n      dup3\n      mstore\n      dup5\n      dup4\n      keccak256\n        /* \"ERC721.sol\":3703:3719  ownerOf[id] = to */\n      dup1\n      sload\n      0xffffffffffffffffffffffff0000000000000000000000000000000000000000\n      swap1\n      dup2\n      and\n      dup4\n      or\n      swap1\n      swap2\n      sstore\n        /* \"ERC721.sol\":3739:3750  getApproved */\n      0x04\n        /* \"ERC721.sol\":3739:3754  getApproved[id] */\n      swap1\n      swap3\n      mstore\n      dup5\n      dup4\n      keccak256\n        /* \"ERC721.sol\":3732:3754  delete getApproved[id] */\n      dup1\n      sload\n      swap1\n      swap3\n      and\n      swap1\n      swap2\n      sstore\n        /* \"ERC721.sol\":3772:3794  Transfer(from, to, id) */\n      swap3\n      mload\n        /* \"ERC721.sol\":3711:3713  id */\n      dup5\n      swap4\n        /* \"ERC721.sol\":3664:3677  balanceOf[to] */\n      swap3\n        /* \"ERC721.sol\":3632:3647  balanceOf[from] */\n      swap2\n        /* \"ERC721.sol\":3772:3794  Transfer(from, to, id) */\n      0xddf252ad1be2c89b69c2b068fc378daa952ba7f163c4a11628f55a4df523b3ef\n      swap2\n      log4\n        /* \"ERC721.sol\":3182:3802  function transferFrom(\r... */\n      pop\n      pop\n      pop\n      jump\t// out\n        /* \"NftContract.sol\":4386:4590  function royaltyInfo(uint256 _tokenId, uint256 _salePrice)\r... */\n    tag_93:\n        /* \"NftContract.sol\":4537:4551  royaltyAddress */\n      sload(0x0a)\n        /* \"NftContract.sol\":4495:4502  address */\n      0x00\n      swap1\n      dup2\n      swap1\n        /* \"NftContract.sol\":4537:4551  royaltyAddress */\n      0x01000000000000000000000000\n      swap1\n      div\n      sub(shl(0xa0, 0x01), 0x01)\n      and\n        /* \"NftContract.sol\":4553:4581  calculateRoyalty(_salePrice) */\n      tag_259\n        /* \"NftContract.sol\":4570:4580  _salePrice */\n      dup5\n        /* \"NftContract.sol\":4553:4569  calculateRoyalty */\n      tag_156\n        /* \"NftContract.sol\":4553:4581  calculateRoyalty(_salePrice) */\n      jump\t// in\n    tag_259:\n        /* \"NftContract.sol\":4529:4582  return (royaltyAddress, calculateRoyalty(_salePrice)) */\n      swap2\n      pop\n      swap2\n      pop\n        /* \"NftContract.sol\":4386:4590  function royaltyInfo(uint256 _tokenId, uint256 _salePrice)\r... */\n    tag_258:\n      swap3\n      pop\n      swap3\n      swap1\n      pop\n      jump\t// out\n        /* \"ERC721.sol\":3810:4322  function safeTransferFrom(\r... */\n    tag_104:\n        /* \"ERC721.sol\":3934:3960  transferFrom(from, to, id) */\n      tag_261\n        /* \"ERC721.sol\":3947:3951  from */\n      dup4\n        /* \"ERC721.sol\":3953:3955  to */\n      dup4\n        /* \"ERC721.sol\":3957:3959  id */\n      dup4\n        /* \"ERC721.sol\":3934:3946  transferFrom */\n      tag_88\n        /* \"ERC721.sol\":3934:3960  transferFrom(from, to, id) */\n      jump\t// in\n    tag_261:\n      sub(shl(0xa0, 0x01), 0x01)\n        /* \"ERC721.sol\":3995:4009  to.code.length */\n      dup3\n      and\n      extcodesize\n        /* \"ERC721.sol\":3995:4014  to.code.length == 0 */\n      iszero\n      dup1\n        /* \"ERC721.sol\":3995:4270  to.code.length == 0 ||\r... */\n      tag_262\n      jumpi\n      pop\n        /* \"ERC721.sol\":4035:4204  ERC721TokenReceiver(to).onERC721Received(\r... */\n      mload(0x40)\n        /* \"ERC721.sol\":4225:4270  ERC721TokenReceiver.onERC721Received.selector */\n      0x150b7a0200000000000000000000000000000000000000000000000000000000\n        /* \"ERC721.sol\":4035:4204  ERC721TokenReceiver(to).onERC721Received(\r... */\n      dup1\n      dup3\n      mstore\n        /* \"ERC721.sol\":4098:4108  msg.sender */\n      caller\n        /* \"ERC721.sol\":4035:4204  ERC721TokenReceiver(to).onERC721Received(\r... */\n      0x04\n      dup4\n      add\n        /* \"#utility.yul\":8486:8520   */\n      mstore\n      sub(shl(0xa0, 0x01), 0x01)\n        /* \"#utility.yul\":8556:8571   */\n      dup6\n      dup2\n      and\n        /* \"#utility.yul\":8536:8554   */\n      0x24\n      dup5\n      add\n        /* \"#utility.yul\":8529:8572   */\n      mstore\n        /* \"#utility.yul\":8588:8606   */\n      0x44\n      dup4\n      add\n        /* \"#utility.yul\":8581:8615   */\n      dup5\n      swap1\n      mstore\n        /* \"#utility.yul\":8651:8654   */\n      0x80\n        /* \"#utility.yul\":8631:8649   */\n      0x64\n      dup5\n      add\n        /* \"#utility.yul\":8624:8655   */\n      mstore\n      0x00\n        /* \"#utility.yul\":8671:8690   */\n      0x84\n      dup5\n      add\n        /* \"#utility.yul\":8664:8694   */\n      mstore\n        /* \"ERC721.sol\":4225:4270  ERC721TokenReceiver.onERC721Received.selector */\n      swap1\n      swap2\n        /* \"ERC721.sol\":4035:4075  ERC721TokenReceiver(to).onERC721Received */\n      swap1\n      dup5\n      and\n      swap1\n        /* \"ERC721.sol\":4225:4270  ERC721TokenReceiver.onERC721Received.selector */\n      0x150b7a02\n      swap1\n        /* \"#utility.yul\":8711:8730   */\n      0xa4\n      add\n        /* \"ERC721.sol\":4035:4204  ERC721TokenReceiver(to).onERC721Received(\r... */\n      0x20\n      mload(0x40)\n      dup1\n      dup4\n      sub\n      dup2\n      0x00\n      dup8\n      dup1\n      extcodesize\n      iszero\n      dup1\n      iszero\n      tag_265\n      jumpi\n      0x00\n      dup1\n      revert\n    tag_265:\n      pop\n      gas\n      call\n      iszero\n      dup1\n      iszero\n      tag_267\n      jumpi\n      returndatasize\n      0x00\n      dup1\n      returndatacopy\n      revert(0x00, returndatasize)\n    tag_267:\n      pop\n      pop\n      pop\n      pop\n      mload(0x40)\n      returndatasize\n      not(0x1f)\n      0x1f\n      dup3\n      add\n      and\n      dup3\n      add\n      dup1\n      0x40\n      mstore\n      pop\n      dup2\n      add\n      swap1\n      tag_268\n      swap2\n      swap1\n      tag_269\n      jump\t// in\n    tag_268:\n        /* \"ERC721.sol\":4035:4270  ERC721TokenReceiver(to).onERC721Received(\r... */\n      0xffffffff00000000000000000000000000000000000000000000000000000000\n      and\n      eq\n        /* \"ERC721.sol\":3995:4270  to.code.length == 0 ||\r... */\n    tag_262:\n        /* \"ERC721.sol\":3973:4314  require(\r... */\n      tag_270\n      jumpi\n      mload(0x40)\n      shl(0xe5, 0x461bcd)\n      dup2\n      mstore\n        /* \"#utility.yul\":14882:14884   */\n      0x20\n        /* \"ERC721.sol\":3973:4314  require(\r... */\n      0x04\n      dup3\n      add\n        /* \"#utility.yul\":14864:14885   */\n      mstore\n        /* \"#utility.yul\":14921:14923   */\n      0x10\n        /* \"#utility.yul\":14901:14919   */\n      0x24\n      dup3\n      add\n        /* \"#utility.yul\":14894:14924   */\n      mstore\n        /* \"#utility.yul\":14960:14978   */\n      0x554e534146455f524543495049454e5400000000000000000000000000000000\n        /* \"#utility.yul\":14940:14958   */\n      0x44\n      dup3\n      add\n        /* \"#utility.yul\":14933:14979   */\n      mstore\n        /* \"#utility.yul\":14996:15014   */\n      0x64\n      add\n        /* \"ERC721.sol\":3973:4314  require(\r... */\n      tag_217\n        /* \"#utility.yul\":14680:15020   */\n      jump\n        /* \"ERC721.sol\":3973:4314  require(\r... */\n    tag_270:\n        /* \"ERC721.sol\":3810:4322  function safeTransferFrom(\r... */\n      pop\n      pop\n      pop\n      jump\t// out\n        /* \"NftContract.sol\":230:251  string public baseURI */\n    tag_112:\n      0x08\n      dup1\n      sload\n      tag_223\n      swap1\n      tag_224\n      jump\t// in\n        /* \"NftContract.sol\":3373:3610  function mintOwner(address to, uint8 idType) external onlyOwner {\r... */\n    tag_129:\n        /* \"utils/Ownable.sol\":426:432  _owner */\n      and(sub(shl(0xa0, 0x01), 0x01), sload(0x07))\n        /* \"utils/Context.sol\":175:185  msg.sender */\n      caller\n        /* \"utils/Ownable.sol\":488:511  _msgSender() == owner() */\n      eq\n        /* \"utils/Ownable.sol\":480:539  require(_msgSender() == owner(), \"Caller is not the owner\") */\n      tag_281\n      jumpi\n      mload(0x40)\n      shl(0xe5, 0x461bcd)\n      dup2\n      mstore\n        /* \"#utility.yul\":11660:11662   */\n      0x20\n        /* \"utils/Ownable.sol\":480:539  require(_msgSender() == owner(), \"Caller is not the owner\") */\n      0x04\n      dup3\n      add\n        /* \"#utility.yul\":11642:11663   */\n      mstore\n        /* \"#utility.yul\":11699:11701   */\n      0x17\n        /* \"#utility.yul\":11679:11697   */\n      0x24\n      dup3\n      add\n        /* \"#utility.yul\":11672:11702   */\n      mstore\n        /* \"#utility.yul\":11738:11763   */\n      0x43616c6c6572206973206e6f7420746865206f776e6572000000000000000000\n        /* \"#utility.yul\":11718:11736   */\n      0x44\n      dup3\n      add\n        /* \"#utility.yul\":11711:11764   */\n      mstore\n        /* \"#utility.yul\":11781:11799   */\n      0x64\n      add\n        /* \"utils/Ownable.sol\":480:539  require(_msgSender() == owner(), \"Caller is not the owner\") */\n      tag_217\n        /* \"#utility.yul\":11458:11805   */\n      jump\n        /* \"utils/Ownable.sol\":480:539  require(_msgSender() == owner(), \"Caller is not the owner\") */\n    tag_281:\n        /* \"NftContract.sol\":3472:3476  3000 */\n      0x0bb8\n        /* \"NftContract.sol\":3456:3468  tokenCounter */\n      sload(0x09)\n        /* \"NftContract.sol\":3456:3476  tokenCounter <= 3000 */\n      gt\n      iszero\n        /* \"NftContract.sol\":3448:3499  require(tokenCounter <= 3000, \"Max supply reached\") */\n      tag_284\n      jumpi\n      mload(0x40)\n      shl(0xe5, 0x461bcd)\n      dup2\n      mstore\n        /* \"#utility.yul\":16620:16622   */\n      0x20\n        /* \"NftContract.sol\":3448:3499  require(tokenCounter <= 3000, \"Max supply reached\") */\n      0x04\n      dup3\n      add\n        /* \"#utility.yul\":16602:16623   */\n      mstore\n        /* \"#utility.yul\":16659:16661   */\n      0x12\n        /* \"#utility.yul\":16639:16657   */\n      0x24\n      dup3\n      add\n        /* \"#utility.yul\":16632:16662   */\n      mstore\n        /* \"#utility.yul\":16698:16718   */\n      0x4d617820737570706c7920726561636865640000000000000000000000000000\n        /* \"#utility.yul\":16678:16696   */\n      0x44\n      dup3\n      add\n        /* \"#utility.yul\":16671:16719   */\n      mstore\n        /* \"#utility.yul\":16736:16754   */\n      0x64\n      add\n        /* \"NftContract.sol\":3448:3499  require(tokenCounter <= 3000, \"Max supply reached\") */\n      tag_217\n        /* \"#utility.yul\":16418:16760   */\n      jump\n        /* \"NftContract.sol\":3448:3499  require(tokenCounter <= 3000, \"Max supply reached\") */\n    tag_284:\n        /* \"NftContract.sol\":3535:3547  tokenCounter */\n      0x09\n        /* \"NftContract.sol\":3535:3549  tokenCounter++ */\n      dup1\n      sload\n      0x01\n      add\n      swap1\n      dup2\n      swap1\n      sstore\n        /* \"NftContract.sol\":3571:3602  _mint(to, tokenCounter, idType) */\n      tag_287\n      swap1\n        /* \"NftContract.sol\":3577:3579  to */\n      dup4\n      swap1\n        /* \"NftContract.sol\":3595:3601  idType */\n      dup4\n        /* \"NftContract.sol\":3571:3576  _mint */\n      tag_288\n        /* \"NftContract.sol\":3571:3602  _mint(to, tokenCounter, idType) */\n      jump\t// in\n    tag_287:\n        /* \"NftContract.sol\":3373:3610  function mintOwner(address to, uint8 idType) external onlyOwner {\r... */\n      pop\n      pop\n      jump\t// out\n        /* \"NftContract.sol\":1397:1487  function setMintCost(uint256 val) external onlyOwner {\r... */\n    tag_133:\n        /* \"utils/Ownable.sol\":426:432  _owner */\n      and(sub(shl(0xa0, 0x01), 0x01), sload(0x07))\n        /* \"utils/Context.sol\":175:185  msg.sender */\n      caller\n        /* \"utils/Ownable.sol\":488:511  _msgSender() == owner() */\n      eq\n        /* \"utils/Ownable.sol\":480:539  require(_msgSender() == owner(), \"Caller is not the owner\") */\n      tag_292\n      jumpi\n      mload(0x40)\n      shl(0xe5, 0x461bcd)\n      dup2\n      mstore\n        /* \"#utility.yul\":11660:11662   */\n      0x20\n        /* \"utils/Ownable.sol\":480:539  require(_msgSender() == owner(), \"Caller is not the owner\") */\n      0x04\n      dup3\n      add\n        /* \"#utility.yul\":11642:11663   */\n      mstore\n        /* \"#utility.yul\":11699:11701   */\n      0x17\n        /* \"#utility.yul\":11679:11697   */\n      0x24\n      dup3\n      add\n        /* \"#utility.yul\":11672:11702   */\n      mstore\n        /* \"#utility.yul\":11738:11763   */\n      0x43616c6c6572206973206e6f7420746865206f776e6572000000000000000000\n        /* \"#utility.yul\":11718:11736   */\n      0x44\n      dup3\n      add\n        /* \"#utility.yul\":11711:11764   */\n      mstore\n        /* \"#utility.yul\":11781:11799   */\n      0x64\n      add\n        /* \"utils/Ownable.sol\":480:539  require(_msgSender() == owner(), \"Caller is not the owner\") */\n      tag_217\n        /* \"#utility.yul\":11458:11805   */\n      jump\n        /* \"utils/Ownable.sol\":480:539  require(_msgSender() == owner(), \"Caller is not the owner\") */\n    tag_292:\n        /* \"NftContract.sol\":1472:1479  val - 1 */\n      tag_295\n        /* \"NftContract.sol\":1478:1479  1 */\n      0x01\n        /* \"NftContract.sol\":1472:1475  val */\n      dup3\n        /* \"NftContract.sol\":1472:1479  val - 1 */\n      tag_296\n      jump\t// in\n    tag_295:\n        /* \"NftContract.sol\":1461:1469  mintCost */\n      0x0c\n        /* \"NftContract.sol\":1461:1479  mintCost = val - 1 */\n      sstore\n      pop\n        /* \"NftContract.sol\":1397:1487  function setMintCost(uint256 val) external onlyOwner {\r... */\n      jump\t// out\n        /* \"ERC721.sol\":1364:1384  string public symbol */\n    tag_140:\n      0x01\n      dup1\n      sload\n      tag_223\n      swap1\n      tag_224\n      jump\t// in\n        /* \"NftContract.sol\":3618:4378  function mintPublic(address to) public payable {\r... */\n    tag_144:\n        /* \"NftContract.sol\":3684:3693  pauseMint */\n      sload(0x0d)\n      0x010000000000000000000000000000000000000000\n      swap1\n      div\n      0xff\n      and\n        /* \"NftContract.sol\":3684:3702  pauseMint == false */\n      iszero\n        /* \"NftContract.sol\":3676:3724  require(pauseMint == false, \"Minting is paused\") */\n      tag_304\n      jumpi\n      mload(0x40)\n      shl(0xe5, 0x461bcd)\n      dup2\n      mstore\n        /* \"#utility.yul\":16274:16276   */\n      0x20\n        /* \"NftContract.sol\":3676:3724  require(pauseMint == false, \"Minting is paused\") */\n      0x04\n      dup3\n      add\n        /* \"#utility.yul\":16256:16277   */\n      mstore\n        /* \"#utility.yul\":16313:16315   */\n      0x11\n        /* \"#utility.yul\":16293:16311   */\n      0x24\n      dup3\n      add\n        /* \"#utility.yul\":16286:16316   */\n      mstore\n        /* \"#utility.yul\":16352:16371   */\n      0x4d696e74696e6720697320706175736564000000000000000000000000000000\n        /* \"#utility.yul\":16332:16350   */\n      0x44\n      dup3\n      add\n        /* \"#utility.yul\":16325:16372   */\n      mstore\n        /* \"#utility.yul\":16389:16407   */\n      0x64\n      add\n        /* \"NftContract.sol\":3676:3724  require(pauseMint == false, \"Minting is paused\") */\n      tag_217\n        /* \"#utility.yul\":16072:16413   */\n      jump\n        /* \"NftContract.sol\":3676:3724  require(pauseMint == false, \"Minting is paused\") */\n    tag_304:\n        /* \"NftContract.sol\":3755:3763  mintCost */\n      sload(0x0c)\n        /* \"NftContract.sol\":3743:3752  msg.value */\n      callvalue\n        /* \"NftContract.sol\":3743:3763  msg.value > mintCost */\n      gt\n        /* \"NftContract.sol\":3735:3783  require(msg.value > mintCost, \"Not engough eth\") */\n      tag_307\n      jumpi\n      mload(0x40)\n      shl(0xe5, 0x461bcd)\n      dup2\n      mstore\n        /* \"#utility.yul\":14135:14137   */\n      0x20\n        /* \"NftContract.sol\":3735:3783  require(msg.value > mintCost, \"Not engough eth\") */\n      0x04\n      dup3\n      add\n        /* \"#utility.yul\":14117:14138   */\n      mstore\n        /* \"#utility.yul\":14174:14176   */\n      0x0f\n        /* \"#utility.yul\":14154:14172   */\n      0x24\n      dup3\n      add\n        /* \"#utility.yul\":14147:14177   */\n      mstore\n        /* \"#utility.yul\":14213:14230   */\n      0x4e6f7420656e676f756768206574680000000000000000000000000000000000\n        /* \"#utility.yul\":14193:14211   */\n      0x44\n      dup3\n      add\n        /* \"#utility.yul\":14186:14231   */\n      mstore\n        /* \"#utility.yul\":14248:14266   */\n      0x64\n      add\n        /* \"NftContract.sol\":3735:3783  require(msg.value > mintCost, \"Not engough eth\") */\n      tag_217\n        /* \"#utility.yul\":13933:14272   */\n      jump\n        /* \"NftContract.sol\":3735:3783  require(msg.value > mintCost, \"Not engough eth\") */\n    tag_307:\n        /* \"NftContract.sol\":3802:3815  publicAllowed */\n      and(0xff, sload(0x0b))\n        /* \"NftContract.sol\":3794:3844  require(publicAllowed, \"Open minting not allowed\") */\n      tag_310\n      jumpi\n      mload(0x40)\n      shl(0xe5, 0x461bcd)\n      dup2\n      mstore\n        /* \"#utility.yul\":11307:11309   */\n      0x20\n        /* \"NftContract.sol\":3794:3844  require(publicAllowed, \"Open minting not allowed\") */\n      0x04\n      dup3\n      add\n        /* \"#utility.yul\":11289:11310   */\n      mstore\n        /* \"#utility.yul\":11346:11348   */\n      0x18\n        /* \"#utility.yul\":11326:11344   */\n      0x24\n      dup3\n      add\n        /* \"#utility.yul\":11319:11349   */\n      mstore\n        /* \"#utility.yul\":11385:11411   */\n      0x4f70656e206d696e74696e67206e6f7420616c6c6f7765640000000000000000\n        /* \"#utility.yul\":11365:11383   */\n      0x44\n      dup3\n      add\n        /* \"#utility.yul\":11358:11412   */\n      mstore\n        /* \"#utility.yul\":11429:11447   */\n      0x64\n      add\n        /* \"NftContract.sol\":3794:3844  require(publicAllowed, \"Open minting not allowed\") */\n      tag_217\n        /* \"#utility.yul\":11105:11453   */\n      jump\n        /* \"NftContract.sol\":3794:3844  require(publicAllowed, \"Open minting not allowed\") */\n    tag_310:\n        /* \"NftContract.sol\":3879:3889  MAX_SUPPLY */\n      sload(0x0b)\n        /* \"NftContract.sol\":3863:3875  tokenCounter */\n      sload(0x09)\n        /* \"NftContract.sol\":3879:3889  MAX_SUPPLY */\n      0x0100\n      swap1\n      swap2\n      div\n      0xffffffffffffffffffffffffffffff\n      and\n      lt\n        /* \"NftContract.sol\":3863:3889  tokenCounter <= MAX_SUPPLY */\n      iszero\n        /* \"NftContract.sol\":3855:3912  require(tokenCounter <= MAX_SUPPLY, \"Max supply reached\") */\n      tag_313\n      jumpi\n      mload(0x40)\n      shl(0xe5, 0x461bcd)\n      dup2\n      mstore\n        /* \"#utility.yul\":16620:16622   */\n      0x20\n        /* \"NftContract.sol\":3855:3912  require(tokenCounter <= MAX_SUPPLY, \"Max supply reached\") */\n      0x04\n      dup3\n      add\n        /* \"#utility.yul\":16602:16623   */\n      mstore\n        /* \"#utility.yul\":16659:16661   */\n      0x12\n        /* \"#utility.yul\":16639:16657   */\n      0x24\n      dup3\n      add\n        /* \"#utility.yul\":16632:16662   */\n      mstore\n        /* \"#utility.yul\":16698:16718   */\n      0x4d617820737570706c7920726561636865640000000000000000000000000000\n        /* \"#utility.yul\":16678:16696   */\n      0x44\n      dup3\n      add\n        /* \"#utility.yul\":16671:16719   */\n      mstore\n        /* \"#utility.yul\":16736:16754   */\n      0x64\n      add\n        /* \"NftContract.sol\":3855:3912  require(tokenCounter <= MAX_SUPPLY, \"Max supply reached\") */\n      tag_217\n        /* \"#utility.yul\":16418:16760   */\n      jump\n        /* \"NftContract.sol\":3855:3912  require(tokenCounter <= MAX_SUPPLY, \"Max supply reached\") */\n    tag_313:\n        /* \"NftContract.sol\":3948:3960  tokenCounter */\n      0x09\n        /* \"NftContract.sol\":3948:3962  tokenCounter++ */\n      dup1\n      sload\n      0x01\n      add\n      swap1\n      dup2\n      swap1\n      sstore\n        /* \"NftContract.sol\":4078:4278  abi.encodePacked(\r... */\n      mload(0x40)\n        /* \"#utility.yul\":5891:5957   */\n      0xffffffffffffffffffffffffffffffffffffffff000000000000000000000000\n        /* \"NftContract.sol\":4121:4131  msg.sender */\n      caller\n        /* \"#utility.yul\":5878:5880   */\n      0x60\n        /* \"#utility.yul\":5874:5889   */\n      shl\n        /* \"#utility.yul\":5870:5958   */\n      and\n        /* \"NftContract.sol\":4078:4278  abi.encodePacked(\r... */\n      0x20\n      dup3\n      add\n        /* \"#utility.yul\":5858:5959   */\n      mstore\n        /* \"NftContract.sol\":4158:4173  block.timestamp */\n      timestamp\n        /* \"#utility.yul\":5975:5987   */\n      0x34\n      dup3\n      add\n        /* \"#utility.yul\":5968:5996   */\n      mstore\n        /* \"#utility.yul\":6012:6024   */\n      0x54\n      dup2\n      add\n        /* \"#utility.yul\":6005:6033   */\n      swap2\n      swap1\n      swap2\n      mstore\n        /* \"NftContract.sol\":4239:4255  block.difficulty */\n      difficulty\n        /* \"#utility.yul\":6049:6061   */\n      0x74\n      dup3\n      add\n        /* \"#utility.yul\":6042:6070   */\n      mstore\n      0x00\n      swap1\n        /* \"NftContract.sol\":4315:4316  3 */\n      0x03\n      swap1\n        /* \"#utility.yul\":6086:6099   */\n      0x94\n      add\n        /* \"NftContract.sol\":4078:4278  abi.encodePacked(\r... */\n      mload(0x40)\n      0x20\n      dup2\n      dup4\n      sub\n      sub\n      dup2\n      mstore\n      swap1\n      0x40\n      mstore\n        /* \"NftContract.sol\":4046:4297  keccak256(\r... */\n      dup1\n      mload\n      swap1\n      0x20\n      add\n      keccak256\n        /* \"NftContract.sol\":4020:4312  uint256(\r... */\n      0x00\n      shr\n        /* \"NftContract.sol\":4020:4316  uint256(\r... */\n      tag_317\n      swap2\n      swap1\n      tag_318\n      jump\t// in\n    tag_317:\n        /* \"NftContract.sol\":3984:4327  uint8 tknType = uint8(\r... */\n      swap1\n      pop\n        /* \"NftContract.sol\":4338:4370  _mint(to, tokenCounter, tknType) */\n      tag_287\n        /* \"NftContract.sol\":4344:4346  to */\n      dup3\n        /* \"NftContract.sol\":4348:4360  tokenCounter */\n      sload(0x09)\n        /* \"NftContract.sol\":4362:4369  tknType */\n      dup4\n        /* \"NftContract.sol\":4338:4343  _mint */\n      tag_288\n        /* \"NftContract.sol\":4338:4370  _mint(to, tokenCounter, tknType) */\n      jump\t// in\n        /* \"NftContract.sol\":5182:5411  function withdrawEth() external onlyOwner {\r... */\n    tag_147:\n        /* \"utils/Ownable.sol\":426:432  _owner */\n      and(sub(shl(0xa0, 0x01), 0x01), sload(0x07))\n        /* \"utils/Context.sol\":175:185  msg.sender */\n      caller\n        /* \"utils/Ownable.sol\":488:511  _msgSender() == owner() */\n      eq\n        /* \"utils/Ownable.sol\":480:539  require(_msgSender() == owner(), \"Caller is not the owner\") */\n      tag_323\n      jumpi\n      mload(0x40)\n      shl(0xe5, 0x461bcd)\n      dup2\n      mstore\n        /* \"#utility.yul\":11660:11662   */\n      0x20\n        /* \"utils/Ownable.sol\":480:539  require(_msgSender() == owner(), \"Caller is not the owner\") */\n      0x04\n      dup3\n      add\n        /* \"#utility.yul\":11642:11663   */\n      mstore\n        /* \"#utility.yul\":11699:11701   */\n      0x17\n        /* \"#utility.yul\":11679:11697   */\n      0x24\n      dup3\n      add\n        /* \"#utility.yul\":11672:11702   */\n      mstore\n        /* \"#utility.yul\":11738:11763   */\n      0x43616c6c6572206973206e6f7420746865206f776e6572000000000000000000\n        /* \"#utility.yul\":11718:11736   */\n      0x44\n      dup3\n      add\n        /* \"#utility.yul\":11711:11764   */\n      mstore\n        /* \"#utility.yul\":11781:11799   */\n      0x64\n      add\n        /* \"utils/Ownable.sol\":480:539  require(_msgSender() == owner(), \"Caller is not the owner\") */\n      tag_217\n        /* \"#utility.yul\":11458:11805   */\n      jump\n        /* \"utils/Ownable.sol\":480:539  require(_msgSender() == owner(), \"Caller is not the owner\") */\n    tag_323:\n        /* \"NftContract.sol\":5235:5254  address payable own */\n      0x00\n        /* \"NftContract.sol\":5265:5272  owner() */\n      tag_326\n        /* \"utils/Ownable.sol\":426:432  _owner */\n      and(sub(shl(0xa0, 0x01), 0x01), sload(0x07))\n      swap1\n        /* \"utils/Ownable.sol\":353:440  function owner() public view virtual returns (address) {\r... */\n      jump\n        /* \"NftContract.sol\":5265:5272  owner() */\n    tag_326:\n        /* \"NftContract.sol\":5235:5273  address payable own = payable(owner()) */\n      swap1\n      pop\n        /* \"NftContract.sol\":5285:5297  bool success */\n      0x00\n        /* \"NftContract.sol\":5311:5314  own */\n      dup2\n      sub(shl(0xa0, 0x01), 0x01)\n        /* \"NftContract.sol\":5303:5320  payable(own).call */\n      and\n        /* \"NftContract.sol\":5328:5349  address(this).balance */\n      selfbalance\n        /* \"NftContract.sol\":5303:5354  payable(own).call{value: address(this).balance}(\"\") */\n      mload(0x40)\n      0x00\n      mload(0x40)\n      dup1\n      dup4\n      sub\n      dup2\n      dup6\n      dup8\n      gas\n      call\n      swap3\n      pop\n      pop\n      pop\n      returndatasize\n      dup1\n      0x00\n      dup2\n      eq\n      tag_331\n      jumpi\n      mload(0x40)\n      swap2\n      pop\n      and(add(returndatasize, 0x3f), not(0x1f))\n      dup3\n      add\n      0x40\n      mstore\n      returndatasize\n      dup3\n      mstore\n      returndatasize\n      0x00\n      0x20\n      dup5\n      add\n      returndatacopy\n      jump(tag_330)\n    tag_331:\n      0x60\n      swap2\n      pop\n    tag_330:\n      pop\n        /* \"NftContract.sol\":5284:5354  (bool success, ) = payable(own).call{value: address(this).balance}(\"\") */\n      pop\n      swap1\n      pop\n        /* \"NftContract.sol\":5373:5380  success */\n      dup1\n        /* \"NftContract.sol\":5365:5403  require(success, \"Transaction failed\") */\n      tag_287\n      jumpi\n      mload(0x40)\n      shl(0xe5, 0x461bcd)\n      dup2\n      mstore\n        /* \"#utility.yul\":15584:15586   */\n      0x20\n        /* \"NftContract.sol\":5365:5403  require(success, \"Transaction failed\") */\n      0x04\n      dup3\n      add\n        /* \"#utility.yul\":15566:15587   */\n      mstore\n        /* \"#utility.yul\":15623:15625   */\n      0x12\n        /* \"#utility.yul\":15603:15621   */\n      0x24\n      dup3\n      add\n        /* \"#utility.yul\":15596:15626   */\n      mstore\n        /* \"#utility.yul\":15662:15682   */\n      0x5472616e73616374696f6e206661696c65640000000000000000000000000000\n        /* \"#utility.yul\":15642:15660   */\n      0x44\n      dup3\n      add\n        /* \"#utility.yul\":15635:15683   */\n      mstore\n        /* \"#utility.yul\":15700:15718   */\n      0x64\n      add\n        /* \"NftContract.sol\":5365:5403  require(success, \"Transaction failed\") */\n      tag_217\n        /* \"#utility.yul\":15382:15724   */\n      jump\n        /* \"ERC721.sol\":2967:3174  function setApprovalForAll(address operator, bool approved) public virtual {\r... */\n    tag_152:\n        /* \"ERC721.sol\":3070:3080  msg.sender */\n      caller\n        /* \"ERC721.sol\":3053:3081  isApprovedForAll[msg.sender] */\n      0x00\n      dup2\n      dup2\n      mstore\n        /* \"ERC721.sol\":3053:3069  isApprovedForAll */\n      0x06\n        /* \"ERC721.sol\":3053:3081  isApprovedForAll[msg.sender] */\n      0x20\n      swap1\n      dup2\n      mstore\n      0x40\n      dup1\n      dup4\n      keccak256\n      sub(shl(0xa0, 0x01), 0x01)\n        /* \"ERC721.sol\":3053:3091  isApprovedForAll[msg.sender][operator] */\n      dup8\n      and\n      dup1\n      dup6\n      mstore\n      swap1\n      dup4\n      mstore\n      swap3\n      dup2\n      swap1\n      keccak256\n        /* \"ERC721.sol\":3053:3102  isApprovedForAll[msg.sender][operator] = approved */\n      dup1\n      sload\n      0xffffffffffffffffffffffffffffffffffffffffffffffffffffffffffffff00\n      and\n      dup7\n      iszero\n      iszero\n      swap1\n      dup2\n      or\n      swap1\n      swap2\n      sstore\n        /* \"ERC721.sol\":3120:3166  ApprovalForAll(msg.sender, operator, approved) */\n      swap1\n      mload\n        /* \"#utility.yul\":9183:9224   */\n      swap1\n      dup2\n      mstore\n        /* \"ERC721.sol\":3053:3091  isApprovedForAll[msg.sender][operator] */\n      swap2\n      swap3\n        /* \"ERC721.sol\":3070:3080  msg.sender */\n      swap2\n        /* \"ERC721.sol\":3120:3166  ApprovalForAll(msg.sender, operator, approved) */\n      0x17307eab39ab6107e8899845ad3d59bd9653f200f220920489ca2b5937696c31\n      swap2\n        /* \"#utility.yul\":9156:9174   */\n      add\n        /* \"ERC721.sol\":3120:3166  ApprovalForAll(msg.sender, operator, approved) */\n      mload(0x40)\n      dup1\n      swap2\n      sub\n      swap1\n      log3\n        /* \"ERC721.sol\":2967:3174  function setApprovalForAll(address operator, bool approved) public virtual {\r... */\n      pop\n      pop\n      jump\t// out\n        /* \"NftContract.sol\":5000:5174  function calculateRoyalty(uint256 _salePrice)\r... */\n    tag_156:\n        /* \"NftContract.sol\":5149:5166  royaltyFeesInBips */\n      sload(0x0a)\n        /* \"NftContract.sol\":5094:5101  uint256 */\n      0x00\n      swap1\n        /* \"NftContract.sol\":5149:5166  royaltyFeesInBips */\n      0xffffffffffffffffffffffff\n      and\n        /* \"NftContract.sol\":5127:5145  _salePrice / 10000 */\n      tag_338\n        /* \"NftContract.sol\":5140:5145  10000 */\n      0x2710\n        /* \"NftContract.sol\":5127:5137  _salePrice */\n      dup5\n        /* \"NftContract.sol\":5127:5145  _salePrice / 10000 */\n      tag_339\n      jump\t// in\n    tag_338:\n        /* \"NftContract.sol\":5126:5166  (_salePrice / 10000) * royaltyFeesInBips */\n      tag_211\n      swap2\n      swap1\n      tag_341\n      jump\t// in\n        /* \"ERC721.sol\":4330:4872  function safeTransferFrom(\r... */\n    tag_166:\n        /* \"ERC721.sol\":4482:4508  transferFrom(from, to, id) */\n      tag_343\n        /* \"ERC721.sol\":4495:4499  from */\n      dup5\n        /* \"ERC721.sol\":4501:4503  to */\n      dup5\n        /* \"ERC721.sol\":4505:4507  id */\n      dup5\n        /* \"ERC721.sol\":4482:4494  transferFrom */\n      tag_88\n        /* \"ERC721.sol\":4482:4508  transferFrom(from, to, id) */\n      jump\t// in\n    tag_343:\n      sub(shl(0xa0, 0x01), 0x01)\n        /* \"ERC721.sol\":4543:4557  to.code.length */\n      dup4\n      and\n      extcodesize\n        /* \"ERC721.sol\":4543:4562  to.code.length == 0 */\n      iszero\n      dup1\n        /* \"ERC721.sol\":4543:4820  to.code.length == 0 ||\r... */\n      tag_344\n      jumpi\n      pop\n        /* \"ERC721.sol\":4583:4754  ERC721TokenReceiver(to).onERC721Received(\r... */\n      mload(0x40)\n        /* \"ERC721.sol\":4775:4820  ERC721TokenReceiver.onERC721Received.selector */\n      0x150b7a0200000000000000000000000000000000000000000000000000000000\n        /* \"ERC721.sol\":4583:4754  ERC721TokenReceiver(to).onERC721Received(\r... */\n      dup1\n      dup3\n      mstore\n        /* \"ERC721.sol\":4775:4820  ERC721TokenReceiver.onERC721Received.selector */\n      swap1\n      sub(shl(0xa0, 0x01), 0x01)\n        /* \"ERC721.sol\":4583:4623  ERC721TokenReceiver(to).onERC721Received */\n      dup6\n      and\n      swap1\n        /* \"ERC721.sol\":4775:4820  ERC721TokenReceiver.onERC721Received.selector */\n      0x150b7a02\n      swap1\n        /* \"ERC721.sol\":4583:4754  ERC721TokenReceiver(to).onERC721Received(\r... */\n      tag_345\n      swap1\n        /* \"ERC721.sol\":4646:4656  msg.sender */\n      caller\n      swap1\n        /* \"ERC721.sol\":4679:4683  from */\n      dup10\n      swap1\n        /* \"ERC721.sol\":4706:4708  id */\n      dup9\n      swap1\n        /* \"ERC721.sol\":4731:4735  data */\n      dup9\n      swap1\n        /* \"ERC721.sol\":4583:4754  ERC721TokenReceiver(to).onERC721Received(\r... */\n      0x04\n      add\n      tag_346\n      jump\t// in\n    tag_345:\n      0x20\n      mload(0x40)\n      dup1\n      dup4\n      sub\n      dup2\n      0x00\n      dup8\n      dup1\n      extcodesize\n      iszero\n      dup1\n      iszero\n      tag_347\n      jumpi\n      0x00\n      dup1\n      revert\n    tag_347:\n      pop\n      gas\n      call\n      iszero\n      dup1\n      iszero\n      tag_349\n      jumpi\n      returndatasize\n      0x00\n      dup1\n      returndatacopy\n      revert(0x00, returndatasize)\n    tag_349:\n      pop\n      pop\n      pop\n      pop\n      mload(0x40)\n      returndatasize\n      not(0x1f)\n      0x1f\n      dup3\n      add\n      and\n      dup3\n      add\n      dup1\n      0x40\n      mstore\n      pop\n      dup2\n      add\n      swap1\n      tag_350\n      swap2\n      swap1\n      tag_269\n      jump\t// in\n    tag_350:\n        /* \"ERC721.sol\":4583:4820  ERC721TokenReceiver(to).onERC721Received(\r... */\n      0xffffffff00000000000000000000000000000000000000000000000000000000\n      and\n      eq\n        /* \"ERC721.sol\":4543:4820  to.code.length == 0 ||\r... */\n    tag_344:\n        /* \"ERC721.sol\":4521:4864  require(\r... */\n      tag_351\n      jumpi\n      mload(0x40)\n      shl(0xe5, 0x461bcd)\n      dup2\n      mstore\n        /* \"#utility.yul\":14882:14884   */\n      0x20\n        /* \"ERC721.sol\":4521:4864  require(\r... */\n      0x04\n      dup3\n      add\n        /* \"#utility.yul\":14864:14885   */\n      mstore\n        /* \"#utility.yul\":14921:14923   */\n      0x10\n        /* \"#utility.yul\":14901:14919   */\n      0x24\n      dup3\n      add\n        /* \"#utility.yul\":14894:14924   */\n      mstore\n        /* \"#utility.yul\":14960:14978   */\n      0x554e534146455f524543495049454e5400000000000000000000000000000000\n        /* \"#utility.yul\":14940:14958   */\n      0x44\n      dup3\n      add\n        /* \"#utility.yul\":14933:14979   */\n      mstore\n        /* \"#utility.yul\":14996:15014   */\n      0x64\n      add\n        /* \"ERC721.sol\":4521:4864  require(\r... */\n      tag_217\n        /* \"#utility.yul\":14680:15020   */\n      jump\n        /* \"ERC721.sol\":4521:4864  require(\r... */\n    tag_351:\n        /* \"ERC721.sol\":4330:4872  function safeTransferFrom(\r... */\n      pop\n      pop\n      pop\n      pop\n      jump\t// out\n        /* \"NftContract.sol\":2555:2736  function check(\r... */\n    tag_175:\n        /* \"NftContract.sol\":2674:2681  address */\n      0x00\n        /* \"NftContract.sol\":2701:2728  _verify(to, val, signature) */\n      tag_354\n        /* \"NftContract.sol\":2709:2711  to */\n      dup5\n        /* \"NftContract.sol\":2713:2716  val */\n      dup5\n        /* \"NftContract.sol\":2718:2727  signature */\n      dup5\n        /* \"NftContract.sol\":2701:2708  _verify */\n      tag_355\n        /* \"NftContract.sol\":2701:2728  _verify(to, val, signature) */\n      jump\t// in\n    tag_354:\n        /* \"NftContract.sol\":2694:2728  return _verify(to, val, signature) */\n      swap5\n        /* \"NftContract.sol\":2555:2736  function check(\r... */\n      swap4\n      pop\n      pop\n      pop\n      pop\n      jump\t// out\n        /* \"ERC721.sol\":1804:2356  function tokenURI(uint256 tokenId)\r... */\n    tag_180:\n        /* \"ERC721.sol\":2429:2433  bool */\n      0x00\n        /* \"ERC721.sol\":2462:2478  ownerOf[tokenId] */\n      dup2\n      dup2\n      mstore\n        /* \"ERC721.sol\":2462:2469  ownerOf */\n      0x03\n        /* \"ERC721.sol\":2462:2478  ownerOf[tokenId] */\n      0x20\n      mstore\n      0x40\n      swap1\n      keccak256\n      sload\n        /* \"ERC721.sol\":1904:1917  string memory */\n      0x60\n      swap1\n      sub(shl(0xa0, 0x01), 0x01)\n        /* \"ERC721.sol\":2462:2478  ownerOf[tokenId] */\n      and\n        /* \"ERC721.sol\":1935:1992  require(_exists(tokenId), \"No token with this Id exists\") */\n      tag_359\n      jumpi\n      mload(0x40)\n      shl(0xe5, 0x461bcd)\n      dup2\n      mstore\n        /* \"#utility.yul\":15227:15229   */\n      0x20\n        /* \"ERC721.sol\":1935:1992  require(_exists(tokenId), \"No token with this Id exists\") */\n      0x04\n      dup3\n      add\n        /* \"#utility.yul\":15209:15230   */\n      mstore\n        /* \"#utility.yul\":15266:15268   */\n      0x1c\n        /* \"#utility.yul\":15246:15264   */\n      0x24\n      dup3\n      add\n        /* \"#utility.yul\":15239:15269   */\n      mstore\n        /* \"#utility.yul\":15305:15335   */\n      0x4e6f20746f6b656e207769746820746869732049642065786973747300000000\n        /* \"#utility.yul\":15285:15303   */\n      0x44\n      dup3\n      add\n        /* \"#utility.yul\":15278:15336   */\n      mstore\n        /* \"#utility.yul\":15353:15371   */\n      0x64\n      add\n        /* \"ERC721.sol\":1935:1992  require(_exists(tokenId), \"No token with this Id exists\") */\n      tag_217\n        /* \"#utility.yul\":15025:15377   */\n      jump\n        /* \"ERC721.sol\":1935:1992  require(_exists(tokenId), \"No token with this Id exists\") */\n    tag_359:\n        /* \"ERC721.sol\":2005:2026  string memory baseURI */\n      0x00\n        /* \"ERC721.sol\":2029:2039  _baseURI() */\n      tag_362\n        /* \"ERC721.sol\":2029:2037  _baseURI */\n      tag_363\n        /* \"ERC721.sol\":2029:2039  _baseURI() */\n      jump\t// in\n    tag_362:\n        /* \"ERC721.sol\":2005:2039  string memory baseURI = _baseURI() */\n      swap1\n      pop\n        /* \"ERC721.sol\":2094:2095  0 */\n      0x00\n        /* \"ERC721.sol\":2076:2083  baseURI */\n      dup2\n        /* \"ERC721.sol\":2070:2091  bytes(baseURI).length */\n      mload\n        /* \"ERC721.sol\":2070:2095  bytes(baseURI).length > 0 */\n      gt\n        /* \"ERC721.sol\":2070:2348  bytes(baseURI).length > 0\r... */\n      tag_364\n      jumpi\n      mload(0x40)\n      dup1\n      0x20\n      add\n      0x40\n      mstore\n      dup1\n      0x00\n      dup2\n      mstore\n      pop\n      jump(tag_365)\n    tag_364:\n        /* \"ERC721.sol\":2221:2239  tokenType[tokenId] */\n      0x00\n      dup4\n      dup2\n      mstore\n        /* \"ERC721.sol\":2221:2230  tokenType */\n      0x05\n        /* \"ERC721.sol\":2221:2239  tokenType[tokenId] */\n      0x20\n      mstore\n      0x40\n      swap1\n      keccak256\n      sload\n        /* \"ERC721.sol\":2187:2194  baseURI */\n      dup2\n      swap1\n        /* \"ERC721.sol\":2221:2250  tokenType[tokenId].toString() */\n      tag_366\n      swap1\n        /* \"ERC721.sol\":2221:2248  tokenType[tokenId].toString */\n      tag_367\n        /* \"ERC721.sol\":2221:2250  tokenType[tokenId].toString() */\n      jump\t// in\n    tag_366:\n        /* \"ERC721.sol\":2144:2307  abi.encodePacked(\r... */\n      add(0x20, mload(0x40))\n      tag_368\n      swap3\n      swap2\n      swap1\n      tag_369\n      jump\t// in\n    tag_368:\n      mload(0x40)\n      0x20\n      dup2\n      dup4\n      sub\n      sub\n      dup2\n      mstore\n      swap1\n      0x40\n      mstore\n        /* \"ERC721.sol\":2070:2348  bytes(baseURI).length > 0\r... */\n    tag_365:\n        /* \"ERC721.sol\":2050:2348  return\r... */\n      swap4\n        /* \"ERC721.sol\":1804:2356  function tokenURI(uint256 tokenId)\r... */\n      swap3\n      pop\n      pop\n      pop\n      jump\t// out\n        /* \"utils/Ownable.sol\":567:758  function transferOwnership(address newOwner) public virtual onlyOwner {\r... */\n    tag_200:\n        /* \"utils/Ownable.sol\":426:432  _owner */\n      and(sub(shl(0xa0, 0x01), 0x01), sload(0x07))\n        /* \"utils/Context.sol\":175:185  msg.sender */\n      caller\n        /* \"utils/Ownable.sol\":488:511  _msgSender() == owner() */\n      eq\n        /* \"utils/Ownable.sol\":480:539  require(_msgSender() == owner(), \"Caller is not the owner\") */\n      tag_373\n      jumpi\n      mload(0x40)\n      shl(0xe5, 0x461bcd)\n      dup2\n      mstore\n        /* \"#utility.yul\":11660:11662   */\n      0x20\n        /* \"utils/Ownable.sol\":480:539  require(_msgSender() == owner(), \"Caller is not the owner\") */\n      0x04\n      dup3\n      add\n        /* \"#utility.yul\":11642:11663   */\n      mstore\n        /* \"#utility.yul\":11699:11701   */\n      0x17\n        /* \"#utility.yul\":11679:11697   */\n      0x24\n      dup3\n      add\n        /* \"#utility.yul\":11672:11702   */\n      mstore\n        /* \"#utility.yul\":11738:11763   */\n      0x43616c6c6572206973206e6f7420746865206f776e6572000000000000000000\n        /* \"#utility.yul\":11718:11736   */\n      0x44\n      dup3\n      add\n        /* \"#utility.yul\":11711:11764   */\n      mstore\n        /* \"#utility.yul\":11781:11799   */\n      0x64\n      add\n        /* \"utils/Ownable.sol\":480:539  require(_msgSender() == owner(), \"Caller is not the owner\") */\n      tag_217\n        /* \"#utility.yul\":11458:11805   */\n      jump\n        /* \"utils/Ownable.sol\":480:539  require(_msgSender() == owner(), \"Caller is not the owner\") */\n    tag_373:\n      sub(shl(0xa0, 0x01), 0x01)\n        /* \"utils/Ownable.sol\":656:678  newOwner != address(0) */\n      dup2\n      and\n        /* \"utils/Ownable.sol\":648:711  require(newOwner != address(0), \"Owner cannot be zero address\") */\n      tag_376\n      jumpi\n      mload(0x40)\n      shl(0xe5, 0x461bcd)\n      dup2\n      mstore\n        /* \"#utility.yul\":17315:17317   */\n      0x20\n        /* \"utils/Ownable.sol\":648:711  require(newOwner != address(0), \"Owner cannot be zero address\") */\n      0x04\n      dup3\n      add\n        /* \"#utility.yul\":17297:17318   */\n      mstore\n        /* \"#utility.yul\":17354:17356   */\n      0x1c\n        /* \"#utility.yul\":17334:17352   */\n      0x24\n      dup3\n      add\n        /* \"#utility.yul\":17327:17357   */\n      mstore\n        /* \"#utility.yul\":17393:17423   */\n      0x4f776e65722063616e6e6f74206265207a65726f206164647265737300000000\n        /* \"#utility.yul\":17373:17391   */\n      0x44\n      dup3\n      add\n        /* \"#utility.yul\":17366:17424   */\n      mstore\n        /* \"#utility.yul\":17441:17459   */\n      0x64\n      add\n        /* \"utils/Ownable.sol\":648:711  require(newOwner != address(0), \"Owner cannot be zero address\") */\n      tag_217\n        /* \"#utility.yul\":17113:17465   */\n      jump\n        /* \"utils/Ownable.sol\":648:711  require(newOwner != address(0), \"Owner cannot be zero address\") */\n    tag_376:\n        /* \"utils/Ownable.sol\":722:750  _transferOwnership(newOwner) */\n      tag_379\n        /* \"utils/Ownable.sol\":741:749  newOwner */\n      dup2\n        /* \"utils/Ownable.sol\":722:740  _transferOwnership */\n      tag_380\n        /* \"utils/Ownable.sol\":722:750  _transferOwnership(newOwner) */\n      jump\t// in\n    tag_379:\n        /* \"utils/Ownable.sol\":567:758  function transferOwnership(address newOwner) public virtual onlyOwner {\r... */\n      pop\n      jump\t// out\n        /* \"NftContract.sol\":1495:1580  function setPauseMint(bool val) external onlyOwner {\r... */\n    tag_204:\n        /* \"utils/Ownable.sol\":426:432  _owner */\n      and(sub(shl(0xa0, 0x01), 0x01), sload(0x07))\n        /* \"utils/Context.sol\":175:185  msg.sender */\n      caller\n        /* \"utils/Ownable.sol\":488:511  _msgSender() == owner() */\n      eq\n        /* \"utils/Ownable.sol\":480:539  require(_msgSender() == owner(), \"Caller is not the owner\") */\n      tag_384\n      jumpi\n      mload(0x40)\n      shl(0xe5, 0x461bcd)\n      dup2\n      mstore\n        /* \"#utility.yul\":11660:11662   */\n      0x20\n        /* \"utils/Ownable.sol\":480:539  require(_msgSender() == owner(), \"Caller is not the owner\") */\n      0x04\n      dup3\n      add\n        /* \"#utility.yul\":11642:11663   */\n      mstore\n        /* \"#utility.yul\":11699:11701   */\n      0x17\n        /* \"#utility.yul\":11679:11697   */\n      0x24\n      dup3\n      add\n        /* \"#utility.yul\":11672:11702   */\n      mstore\n        /* \"#utility.yul\":11738:11763   */\n      0x43616c6c6572206973206e6f7420746865206f776e6572000000000000000000\n        /* \"#utility.yul\":11718:11736   */\n      0x44\n      dup3\n      add\n        /* \"#utility.yul\":11711:11764   */\n      mstore\n        /* \"#utility.yul\":11781:11799   */\n      0x64\n      add\n        /* \"utils/Ownable.sol\":480:539  require(_msgSender() == owner(), \"Caller is not the owner\") */\n      tag_217\n        /* \"#utility.yul\":11458:11805   */\n      jump\n        /* \"utils/Ownable.sol\":480:539  require(_msgSender() == owner(), \"Caller is not the owner\") */\n    tag_384:\n        /* \"NftContract.sol\":1557:1566  pauseMint */\n      0x0d\n        /* \"NftContract.sol\":1557:1572  pauseMint = val */\n      dup1\n      sload\n      swap2\n      iszero\n      iszero\n      0x010000000000000000000000000000000000000000\n      mul\n      0xffffffffffffffffffffff00ffffffffffffffffffffffffffffffffffffffff\n      swap1\n      swap3\n      and\n      swap2\n      swap1\n      swap2\n      or\n      swap1\n      sstore\n        /* \"NftContract.sol\":1495:1580  function setPauseMint(bool val) external onlyOwner {\r... */\n      jump\t// out\n        /* \"NftContract.sol\":1588:2547  function mintWhitelist(\r... */\n    tag_207:\n        /* \"NftContract.sol\":1728:1737  pauseMint */\n      sload(0x0d)\n      0x010000000000000000000000000000000000000000\n      swap1\n      div\n      0xff\n      and\n        /* \"NftContract.sol\":1728:1746  pauseMint == false */\n      iszero\n        /* \"NftContract.sol\":1720:1768  require(pauseMint == false, \"Minting is paused\") */\n      tag_388\n      jumpi\n      mload(0x40)\n      shl(0xe5, 0x461bcd)\n      dup2\n      mstore\n        /* \"#utility.yul\":16274:16276   */\n      0x20\n        /* \"NftContract.sol\":1720:1768  require(pauseMint == false, \"Minting is paused\") */\n      0x04\n      dup3\n      add\n        /* \"#utility.yul\":16256:16277   */\n      mstore\n        /* \"#utility.yul\":16313:16315   */\n      0x11\n        /* \"#utility.yul\":16293:16311   */\n      0x24\n      dup3\n      add\n        /* \"#utility.yul\":16286:16316   */\n      mstore\n        /* \"#utility.yul\":16352:16371   */\n      0x4d696e74696e6720697320706175736564000000000000000000000000000000\n        /* \"#utility.yul\":16332:16350   */\n      0x44\n      dup3\n      add\n        /* \"#utility.yul\":16325:16372   */\n      mstore\n        /* \"#utility.yul\":16389:16407   */\n      0x64\n      add\n        /* \"NftContract.sol\":1720:1768  require(pauseMint == false, \"Minting is paused\") */\n      tag_217\n        /* \"#utility.yul\":16072:16413   */\n      jump\n        /* \"NftContract.sol\":1720:1768  require(pauseMint == false, \"Minting is paused\") */\n    tag_388:\n        /* \"NftContract.sol\":1803:1813  MAX_SUPPLY */\n      sload(0x0b)\n        /* \"NftContract.sol\":1787:1799  tokenCounter */\n      sload(0x09)\n        /* \"NftContract.sol\":1803:1813  MAX_SUPPLY */\n      0x0100\n      swap1\n      swap2\n      div\n      0xffffffffffffffffffffffffffffff\n      and\n      lt\n        /* \"NftContract.sol\":1787:1813  tokenCounter <= MAX_SUPPLY */\n      iszero\n        /* \"NftContract.sol\":1779:1836  require(tokenCounter <= MAX_SUPPLY, \"Max supply reached\") */\n      tag_390\n      jumpi\n      mload(0x40)\n      shl(0xe5, 0x461bcd)\n      dup2\n      mstore\n        /* \"#utility.yul\":16620:16622   */\n      0x20\n        /* \"NftContract.sol\":1779:1836  require(tokenCounter <= MAX_SUPPLY, \"Max supply reached\") */\n      0x04\n      dup3\n      add\n        /* \"#utility.yul\":16602:16623   */\n      mstore\n        /* \"#utility.yul\":16659:16661   */\n      0x12\n        /* \"#utility.yul\":16639:16657   */\n      0x24\n      dup3\n      add\n        /* \"#utility.yul\":16632:16662   */\n      mstore\n        /* \"#utility.yul\":16698:16718   */\n      0x4d617820737570706c7920726561636865640000000000000000000000000000\n        /* \"#utility.yul\":16678:16696   */\n      0x44\n      dup3\n      add\n        /* \"#utility.yul\":16671:16719   */\n      mstore\n        /* \"#utility.yul\":16736:16754   */\n      0x64\n      add\n        /* \"NftContract.sol\":1779:1836  require(tokenCounter <= MAX_SUPPLY, \"Max supply reached\") */\n      tag_217\n        /* \"#utility.yul\":16418:16760   */\n      jump\n        /* \"NftContract.sol\":1779:1836  require(tokenCounter <= MAX_SUPPLY, \"Max supply reached\") */\n    tag_390:\n        /* \"NftContract.sol\":1906:1917  signAddress */\n      and(sub(shl(0xa0, 0x01), 0x01), sload(0x0d))\n        /* \"NftContract.sol\":1869:1902  check(msg.sender, val, signature) */\n      tag_392\n        /* \"NftContract.sol\":1875:1885  msg.sender */\n      caller\n        /* \"NftContract.sol\":1887:1890  val */\n      dup5\n        /* \"NftContract.sol\":1892:1901  signature */\n      dup5\n        /* \"NftContract.sol\":1869:1874  check */\n      tag_175\n        /* \"NftContract.sol\":1869:1902  check(msg.sender, val, signature) */\n      jump\t// in\n    tag_392:\n      sub(shl(0xa0, 0x01), 0x01)\n        /* \"NftContract.sol\":1869:1917  check(msg.sender, val, signature) == signAddress */\n      and\n      eq\n        /* \"NftContract.sol\":1847:1962  require(\r... */\n      tag_393\n      jumpi\n      mload(0x40)\n      shl(0xe5, 0x461bcd)\n      dup2\n      mstore\n        /* \"#utility.yul\":13047:13049   */\n      0x20\n        /* \"NftContract.sol\":1847:1962  require(\r... */\n      0x04\n      dup3\n      add\n        /* \"#utility.yul\":13029:13050   */\n      mstore\n        /* \"#utility.yul\":13086:13088   */\n      0x11\n        /* \"#utility.yul\":13066:13084   */\n      0x24\n      dup3\n      add\n        /* \"#utility.yul\":13059:13089   */\n      mstore\n        /* \"#utility.yul\":13125:13144   */\n      0x496e76616c6964207369676e6174757265000000000000000000000000000000\n        /* \"#utility.yul\":13105:13123   */\n      0x44\n      dup3\n      add\n        /* \"#utility.yul\":13098:13145   */\n      mstore\n        /* \"#utility.yul\":13162:13180   */\n      0x64\n      add\n        /* \"NftContract.sol\":1847:1962  require(\r... */\n      tag_217\n        /* \"#utility.yul\":12845:13186   */\n      jump\n        /* \"NftContract.sol\":1847:1962  require(\r... */\n    tag_393:\n        /* \"NftContract.sol\":1973:1986  uint256 toPay */\n      0x00\n        /* \"NftContract.sol\":2018:2023  10000 */\n      0x2710\n        /* \"NftContract.sol\":2006:2014  mintCost */\n      sload(0x0c)\n        /* \"NftContract.sol\":1999:2002  val */\n      dup5\n        /* \"NftContract.sol\":1991:1996  10000 */\n      0x2710\n        /* \"NftContract.sol\":1991:2002  10000 - val */\n      tag_396\n      swap2\n      swap1\n      tag_296\n      jump\t// in\n    tag_396:\n        /* \"NftContract.sol\":1990:2014  (10000 - val) * mintCost */\n      tag_397\n      swap2\n      swap1\n      tag_341\n      jump\t// in\n    tag_397:\n        /* \"NftContract.sol\":1989:2023  ((10000 - val) * mintCost) / 10000 */\n      tag_398\n      swap2\n      swap1\n      tag_339\n      jump\t// in\n    tag_398:\n        /* \"NftContract.sol\":1973:2023  uint256 toPay = ((10000 - val) * mintCost) / 10000 */\n      swap1\n      pop\n        /* \"NftContract.sol\":2054:2059  toPay */\n      dup1\n        /* \"NftContract.sol\":2042:2051  msg.value */\n      callvalue\n        /* \"NftContract.sol\":2042:2059  msg.value > toPay */\n      gt\n        /* \"NftContract.sol\":2034:2079  require(msg.value > toPay, \"Not engough eth\") */\n      tag_399\n      jumpi\n      mload(0x40)\n      shl(0xe5, 0x461bcd)\n      dup2\n      mstore\n        /* \"#utility.yul\":14135:14137   */\n      0x20\n        /* \"NftContract.sol\":2034:2079  require(msg.value > toPay, \"Not engough eth\") */\n      0x04\n      dup3\n      add\n        /* \"#utility.yul\":14117:14138   */\n      mstore\n        /* \"#utility.yul\":14174:14176   */\n      0x0f\n        /* \"#utility.yul\":14154:14172   */\n      0x24\n      dup3\n      add\n        /* \"#utility.yul\":14147:14177   */\n      mstore\n        /* \"#utility.yul\":14213:14230   */\n      0x4e6f7420656e676f756768206574680000000000000000000000000000000000\n        /* \"#utility.yul\":14193:14211   */\n      0x44\n      dup3\n      add\n        /* \"#utility.yul\":14186:14231   */\n      mstore\n        /* \"#utility.yul\":14248:14266   */\n      0x64\n      add\n        /* \"NftContract.sol\":2034:2079  require(msg.value > toPay, \"Not engough eth\") */\n      tag_217\n        /* \"#utility.yul\":13933:14272   */\n      jump\n        /* \"NftContract.sol\":2034:2079  require(msg.value > toPay, \"Not engough eth\") */\n    tag_399:\n        /* \"NftContract.sol\":2117:2129  tokenCounter */\n      0x09\n        /* \"NftContract.sol\":2117:2131  tokenCounter++ */\n      dup1\n      sload\n      0x01\n      add\n      swap1\n      dup2\n      swap1\n      sstore\n        /* \"NftContract.sol\":2247:2447  abi.encodePacked(\r... */\n      mload(0x40)\n        /* \"#utility.yul\":5891:5957   */\n      0xffffffffffffffffffffffffffffffffffffffff000000000000000000000000\n        /* \"NftContract.sol\":2290:2300  msg.sender */\n      caller\n        /* \"#utility.yul\":5878:5880   */\n      0x60\n        /* \"#utility.yul\":5874:5889   */\n      shl\n        /* \"#utility.yul\":5870:5958   */\n      and\n        /* \"NftContract.sol\":2247:2447  abi.encodePacked(\r... */\n      0x20\n      dup3\n      add\n        /* \"#utility.yul\":5858:5959   */\n      mstore\n        /* \"NftContract.sol\":2327:2342  block.timestamp */\n      timestamp\n        /* \"#utility.yul\":5975:5987   */\n      0x34\n      dup3\n      add\n        /* \"#utility.yul\":5968:5996   */\n      mstore\n        /* \"#utility.yul\":6012:6024   */\n      0x54\n      dup2\n      add\n        /* \"#utility.yul\":6005:6033   */\n      swap2\n      swap1\n      swap2\n      mstore\n        /* \"NftContract.sol\":2408:2424  block.difficulty */\n      difficulty\n        /* \"#utility.yul\":6049:6061   */\n      0x74\n      dup3\n      add\n        /* \"#utility.yul\":6042:6070   */\n      mstore\n      0x00\n      swap1\n        /* \"NftContract.sol\":2484:2485  3 */\n      0x03\n      swap1\n        /* \"#utility.yul\":6086:6099   */\n      0x94\n      add\n        /* \"NftContract.sol\":2247:2447  abi.encodePacked(\r... */\n      mload(0x40)\n      0x20\n      dup2\n      dup4\n      sub\n      sub\n      dup2\n      mstore\n      swap1\n      0x40\n      mstore\n        /* \"NftContract.sol\":2215:2466  keccak256(\r... */\n      dup1\n      mload\n      swap1\n      0x20\n      add\n      keccak256\n        /* \"NftContract.sol\":2189:2481  uint256(\r... */\n      0x00\n      shr\n        /* \"NftContract.sol\":2189:2485  uint256(\r... */\n      tag_402\n      swap2\n      swap1\n      tag_318\n      jump\t// in\n    tag_402:\n        /* \"NftContract.sol\":2153:2496  uint8 tknType = uint8(\r... */\n      swap1\n      pop\n        /* \"NftContract.sol\":2507:2539  _mint(to, tokenCounter, tknType) */\n      tag_403\n        /* \"NftContract.sol\":2513:2515  to */\n      dup6\n        /* \"NftContract.sol\":2517:2529  tokenCounter */\n      sload(0x09)\n        /* \"NftContract.sol\":2531:2538  tknType */\n      dup4\n        /* \"NftContract.sol\":2507:2512  _mint */\n      tag_288\n        /* \"NftContract.sol\":2507:2539  _mint(to, tokenCounter, tknType) */\n      jump\t// in\n    tag_403:\n        /* \"NftContract.sol\":1709:2547  {\r... */\n      pop\n      pop\n        /* \"NftContract.sol\":1588:2547  function mintWhitelist(\r... */\n      pop\n      pop\n      pop\n      jump\t// out\n        /* \"ERC721.sol\":4880:5281  function _mint(\r... */\n    tag_288:\n      sub(shl(0xa0, 0x01), 0x01)\n        /* \"ERC721.sol\":5004:5020  to != address(0) */\n      dup4\n      and\n        /* \"ERC721.sol\":4996:5035  require(to != address(0), \"INVALID_TO\") */\n      tag_406\n      jumpi\n      mload(0x40)\n      shl(0xe5, 0x461bcd)\n      dup2\n      mstore\n        /* \"#utility.yul\":13796:13798   */\n      0x20\n        /* \"ERC721.sol\":4996:5035  require(to != address(0), \"INVALID_TO\") */\n      0x04\n      dup3\n      add\n        /* \"#utility.yul\":13778:13799   */\n      mstore\n        /* \"#utility.yul\":13835:13837   */\n      0x0a\n        /* \"#utility.yul\":13815:13833   */\n      0x24\n      dup3\n      add\n        /* \"#utility.yul\":13808:13838   */\n      mstore\n        /* \"#utility.yul\":13874:13886   */\n      0x494e56414c49445f544f00000000000000000000000000000000000000000000\n        /* \"#utility.yul\":13854:13872   */\n      0x44\n      dup3\n      add\n        /* \"#utility.yul\":13847:13887   */\n      mstore\n        /* \"#utility.yul\":13904:13922   */\n      0x64\n      add\n        /* \"ERC721.sol\":4996:5035  require(to != address(0), \"INVALID_TO\") */\n      tag_217\n        /* \"#utility.yul\":13594:13928   */\n      jump\n        /* \"ERC721.sol\":4996:5035  require(to != address(0), \"INVALID_TO\") */\n    tag_406:\n        /* \"ERC721.sol\":5079:5080  0 */\n      0x00\n        /* \"ERC721.sol\":5056:5067  ownerOf[id] */\n      dup3\n      dup2\n      mstore\n        /* \"ERC721.sol\":5056:5063  ownerOf */\n      0x03\n        /* \"ERC721.sol\":5056:5067  ownerOf[id] */\n      0x20\n      mstore\n      0x40\n      swap1\n      keccak256\n      sload\n      sub(shl(0xa0, 0x01), 0x01)\n      and\n        /* \"ERC721.sol\":5056:5081  ownerOf[id] == address(0) */\n      iszero\n        /* \"ERC721.sol\":5048:5100  require(ownerOf[id] == address(0), \"ALREADY_MINTED\") */\n      tag_409\n      jumpi\n      mload(0x40)\n      shl(0xe5, 0x461bcd)\n      dup2\n      mstore\n        /* \"#utility.yul\":17672:17674   */\n      0x20\n        /* \"ERC721.sol\":5048:5100  require(ownerOf[id] == address(0), \"ALREADY_MINTED\") */\n      0x04\n      dup3\n      add\n        /* \"#utility.yul\":17654:17675   */\n      mstore\n        /* \"#utility.yul\":17711:17713   */\n      0x0e\n        /* \"#utility.yul\":17691:17709   */\n      0x24\n      dup3\n      add\n        /* \"#utility.yul\":17684:17714   */\n      mstore\n        /* \"#utility.yul\":17750:17766   */\n      0x414c52454144595f4d494e544544000000000000000000000000000000000000\n        /* \"#utility.yul\":17730:17748   */\n      0x44\n      dup3\n      add\n        /* \"#utility.yul\":17723:17767   */\n      mstore\n        /* \"#utility.yul\":17784:17802   */\n      0x64\n      add\n        /* \"ERC721.sol\":5048:5100  require(ownerOf[id] == address(0), \"ALREADY_MINTED\") */\n      tag_217\n        /* \"#utility.yul\":17470:17808   */\n      jump\n        /* \"ERC721.sol\":5048:5100  require(ownerOf[id] == address(0), \"ALREADY_MINTED\") */\n    tag_409:\n      sub(shl(0xa0, 0x01), 0x01)\n        /* \"ERC721.sol\":5138:5151  balanceOf[to] */\n      dup4\n      and\n      0x00\n      dup2\n      dup2\n      mstore\n        /* \"ERC721.sol\":5138:5147  balanceOf */\n      0x02\n        /* \"ERC721.sol\":5138:5151  balanceOf[to] */\n      0x20\n      swap1\n      dup2\n      mstore\n      0x40\n      dup1\n      dup4\n      keccak256\n        /* \"ERC721.sol\":5138:5153  balanceOf[to]++ */\n      dup1\n      sload\n      0x01\n      add\n      swap1\n      sstore\n        /* \"ERC721.sol\":5177:5188  ownerOf[id] */\n      dup6\n      dup4\n      mstore\n        /* \"ERC721.sol\":5177:5184  ownerOf */\n      0x03\n        /* \"ERC721.sol\":5177:5188  ownerOf[id] */\n      dup3\n      mstore\n      dup1\n      dup4\n      keccak256\n        /* \"ERC721.sol\":5177:5193  ownerOf[id] = to */\n      dup1\n      sload\n      0xffffffffffffffffffffffff0000000000000000000000000000000000000000\n      and\n      dup6\n      or\n      swap1\n      sstore\n        /* \"ERC721.sol\":5204:5213  tokenType */\n      0x05\n        /* \"ERC721.sol\":5204:5217  tokenType[id] */\n      swap1\n      swap2\n      mstore\n      dup1\n      dup3\n      keccak256\n        /* \"ERC721.sol\":5204:5227  tokenType[id] = tknType */\n      0xff\n      dup6\n      and\n      swap1\n      sstore\n        /* \"ERC721.sol\":5245:5273  Transfer(address(0), to, id) */\n      mload\n        /* \"ERC721.sol\":5185:5187  id */\n      dup5\n      swap3\n        /* \"ERC721.sol\":5138:5151  balanceOf[to] */\n      swap2\n      swap1\n        /* \"ERC721.sol\":5245:5273  Transfer(address(0), to, id) */\n      0xddf252ad1be2c89b69c2b068fc378daa952ba7f163c4a11628f55a4df523b3ef\n      swap1\n        /* \"ERC721.sol\":5138:5151  balanceOf[to] */\n      dup3\n      swap1\n        /* \"ERC721.sol\":5245:5273  Transfer(address(0), to, id) */\n      log4\n        /* \"ERC721.sol\":4880:5281  function _mint(\r... */\n      pop\n      pop\n      pop\n      jump\t// out\n        /* \"NftContract.sol\":2744:2976  function _verify(\r... */\n    tag_355:\n        /* \"NftContract.sol\":2867:2874  address */\n      0x00\n        /* \"NftContract.sol\":2887:2901  bytes32 digest */\n      dup1\n        /* \"NftContract.sol\":2904:2918  _hash(to, val) */\n      tag_413\n        /* \"NftContract.sol\":2910:2912  to */\n      dup6\n        /* \"NftContract.sol\":2914:2917  val */\n      dup6\n        /* \"NftContract.sol\":2904:2909  _hash */\n      tag_414\n        /* \"NftContract.sol\":2904:2918  _hash(to, val) */\n      jump\t// in\n    tag_413:\n        /* \"NftContract.sol\":2887:2918  bytes32 digest = _hash(to, val) */\n      swap1\n      pop\n        /* \"NftContract.sol\":2936:2968  ECDSA.recover(digest, signature) */\n      tag_415\n        /* \"NftContract.sol\":2950:2956  digest */\n      dup2\n        /* \"NftContract.sol\":2958:2967  signature */\n      dup5\n        /* \"NftContract.sol\":2936:2949  ECDSA.recover */\n      tag_416\n        /* \"NftContract.sol\":2936:2968  ECDSA.recover(digest, signature) */\n      jump\t// in\n    tag_415:\n        /* \"NftContract.sol\":2929:2968  return ECDSA.recover(digest, signature) */\n      swap6\n        /* \"NftContract.sol\":2744:2976  function _verify(\r... */\n      swap5\n      pop\n      pop\n      pop\n      pop\n      pop\n      jump\t// out\n        /* \"NftContract.sol\":1163:1271  function _baseURI() internal view virtual override returns (string memory) {\r... */\n    tag_363:\n        /* \"NftContract.sol\":1223:1236  string memory */\n      0x60\n        /* \"NftContract.sol\":1256:1263  baseURI */\n      0x08\n        /* \"NftContract.sol\":1249:1263  return baseURI */\n      dup1\n      sload\n      tag_419\n      swap1\n      tag_224\n      jump\t// in\n    tag_419:\n      dup1\n      0x1f\n      add\n      0x20\n      dup1\n      swap2\n      div\n      mul\n      0x20\n      add\n      mload(0x40)\n      swap1\n      dup2\n      add\n      0x40\n      mstore\n      dup1\n      swap3\n      swap2\n      swap1\n      dup2\n      dup2\n      mstore\n      0x20\n      add\n      dup3\n      dup1\n      sload\n      tag_420\n      swap1\n      tag_224\n      jump\t// in\n    tag_420:\n      dup1\n      iszero\n      tag_421\n      jumpi\n      dup1\n      0x1f\n      lt\n      tag_422\n      jumpi\n      0x0100\n      dup1\n      dup4\n      sload\n      div\n      mul\n      dup4\n      mstore\n      swap2\n      0x20\n      add\n      swap2\n      jump(tag_421)\n    tag_422:\n      dup3\n      add\n      swap2\n      swap1\n      0x00\n      mstore\n      keccak256(0x00, 0x20)\n      swap1\n    tag_423:\n      dup2\n      sload\n      dup2\n      mstore\n      swap1\n      0x01\n      add\n      swap1\n      0x20\n      add\n      dup1\n      dup4\n      gt\n      tag_423\n      jumpi\n      dup3\n      swap1\n      sub\n      0x1f\n      and\n      dup3\n      add\n      swap2\n    tag_421:\n      pop\n      pop\n      pop\n      pop\n      pop\n      swap1\n      pop\n        /* \"NftContract.sol\":1163:1271  function _baseURI() internal view virtual override returns (string memory) {\r... */\n      swap1\n      jump\t// out\n        /* \"utils/Strings.sol\":161:706  function toString(uint256 value) internal pure returns (string memory) {\r... */\n    tag_367:\n        /* \"utils/Strings.sol\":217:230  string memory */\n      0x60\n        /* \"utils/Strings.sol\":260:270  value == 0 */\n      dup2\n        /* \"utils/Strings.sol\":256:309  if (value == 0) {\r... */\n      tag_425\n      jumpi\n      pop\n      pop\n        /* \"utils/Strings.sol\":287:297  return \"0\" */\n      0x40\n      dup1\n      mload\n      dup1\n      dup3\n      add\n      swap1\n      swap2\n      mstore\n      0x01\n      dup2\n      mstore\n      0x3000000000000000000000000000000000000000000000000000000000000000\n      0x20\n      dup3\n      add\n      mstore\n      swap1\n        /* \"utils/Strings.sol\":161:706  function toString(uint256 value) internal pure returns (string memory) {\r... */\n      jump\t// out\n        /* \"utils/Strings.sol\":256:309  if (value == 0) {\r... */\n    tag_425:\n        /* \"utils/Strings.sol\":334:339  value */\n      dup2\n        /* \"utils/Strings.sol\":319:331  uint256 temp */\n      0x00\n        /* \"utils/Strings.sol\":375:453  while (temp != 0) {\r... */\n    tag_426:\n        /* \"utils/Strings.sol\":382:391  temp != 0 */\n      dup2\n      iszero\n        /* \"utils/Strings.sol\":375:453  while (temp != 0) {\r... */\n      tag_427\n      jumpi\n        /* \"utils/Strings.sol\":408:416  digits++ */\n      dup1\n      tag_428\n      dup2\n      tag_429\n      jump\t// in\n    tag_428:\n      swap2\n      pop\n        /* \"utils/Strings.sol\":431:441  temp /= 10 */\n      tag_430\n      swap1\n      pop\n        /* \"utils/Strings.sol\":439:441  10 */\n      0x0a\n        /* \"utils/Strings.sol\":431:441  temp /= 10 */\n      dup4\n      tag_339\n      jump\t// in\n    tag_430:\n      swap2\n      pop\n        /* \"utils/Strings.sol\":375:453  while (temp != 0) {\r... */\n      jump(tag_426)\n    tag_427:\n        /* \"utils/Strings.sol\":463:482  bytes memory buffer */\n      0x00\n        /* \"utils/Strings.sol\":495:501  digits */\n      dup2\n        /* \"utils/Strings.sol\":485:502  new bytes(digits) */\n      0xffffffffffffffff\n      dup2\n      gt\n      iszero\n      tag_432\n      jumpi\n      tag_432\n      tag_433\n      jump\t// in\n    tag_432:\n      mload(0x40)\n      swap1\n      dup1\n      dup3\n      mstore\n      dup1\n      0x1f\n      add\n      not(0x1f)\n      and\n      0x20\n      add\n      dup3\n      add\n      0x40\n      mstore\n      dup1\n      iszero\n      tag_434\n      jumpi\n      0x20\n      dup3\n      add\n      dup2\n      dup1\n      calldatasize\n      dup4\n      calldatacopy\n      add\n      swap1\n      pop\n    tag_434:\n      pop\n        /* \"utils/Strings.sol\":463:502  bytes memory buffer = new bytes(digits) */\n      swap1\n      pop\n        /* \"utils/Strings.sol\":513:667  while (value != 0) {\r... */\n    tag_435:\n        /* \"utils/Strings.sol\":520:530  value != 0 */\n      dup5\n      iszero\n        /* \"utils/Strings.sol\":513:667  while (value != 0) {\r... */\n      tag_354\n      jumpi\n        /* \"utils/Strings.sol\":547:558  digits -= 1 */\n      tag_437\n        /* \"utils/Strings.sol\":557:558  1 */\n      0x01\n        /* \"utils/Strings.sol\":547:558  digits -= 1 */\n      dup4\n      tag_296\n      jump\t// in\n    tag_437:\n      swap2\n      pop\n        /* \"utils/Strings.sol\":616:626  value % 10 */\n      tag_438\n        /* \"utils/Strings.sol\":624:626  10 */\n      0x0a\n        /* \"utils/Strings.sol\":616:621  value */\n      dup7\n        /* \"utils/Strings.sol\":616:626  value % 10 */\n      tag_318\n      jump\t// in\n    tag_438:\n        /* \"utils/Strings.sol\":603:627  48 + uint256(value % 10) */\n      tag_439\n      swap1\n        /* \"utils/Strings.sol\":603:605  48 */\n      0x30\n        /* \"utils/Strings.sol\":603:627  48 + uint256(value % 10) */\n      tag_440\n      jump\t// in\n    tag_439:\n        /* \"utils/Strings.sol\":590:629  bytes1(uint8(48 + uint256(value % 10))) */\n      0xf8\n      shl\n        /* \"utils/Strings.sol\":573:579  buffer */\n      dup2\n        /* \"utils/Strings.sol\":580:586  digits */\n      dup4\n        /* \"utils/Strings.sol\":573:587  buffer[digits] */\n      dup2\n      mload\n      dup2\n      lt\n      tag_442\n      jumpi\n      tag_442\n      tag_443\n      jump\t// in\n    tag_442:\n      0x20\n      add\n      add\n        /* \"utils/Strings.sol\":573:629  buffer[digits] = bytes1(uint8(48 + uint256(value % 10))) */\n      swap1\n      not(0xffffffffffffffffffffffffffffffffffffffffffffffffffffffffffffff)\n      and\n      swap1\n      dup2\n      0x00\n      byte\n      swap1\n      mstore8\n      pop\n        /* \"utils/Strings.sol\":644:655  value /= 10 */\n      tag_444\n        /* \"utils/Strings.sol\":653:655  10 */\n      0x0a\n        /* \"utils/Strings.sol\":644:655  value /= 10 */\n      dup7\n      tag_339\n      jump\t// in\n    tag_444:\n      swap5\n      pop\n        /* \"utils/Strings.sol\":513:667  while (value != 0) {\r... */\n      jump(tag_435)\n        /* \"utils/Ownable.sol\":766:957  function _transferOwnership(address newOwner) internal virtual {\r... */\n    tag_380:\n        /* \"utils/Ownable.sol\":840:856  address oldOwner */\n      0x00\n        /* \"utils/Ownable.sol\":859:866  owner() */\n      tag_446\n        /* \"utils/Ownable.sol\":426:432  _owner */\n      and(sub(shl(0xa0, 0x01), 0x01), sload(0x07))\n      swap1\n        /* \"utils/Ownable.sol\":353:440  function owner() public view virtual returns (address) {\r... */\n      jump\n        /* \"utils/Ownable.sol\":859:866  owner() */\n    tag_446:\n        /* \"utils/Ownable.sol\":877:883  _owner */\n      0x07\n        /* \"utils/Ownable.sol\":877:894  _owner = newOwner */\n      dup1\n      sload\n      0xffffffffffffffffffffffff0000000000000000000000000000000000000000\n      and\n      sub(shl(0xa0, 0x01), 0x01)\n      dup6\n      dup2\n      and\n      swap2\n      dup3\n      or\n      swap1\n      swap3\n      sstore\n        /* \"utils/Ownable.sol\":910:949  OwnershipTransfered(oldOwner, newOwner) */\n      mload(0x40)\n        /* \"utils/Ownable.sol\":840:866  address oldOwner = owner() */\n      swap3\n      swap4\n      pop\n        /* \"utils/Ownable.sol\":877:894  _owner = newOwner */\n      swap2\n        /* \"utils/Ownable.sol\":910:949  OwnershipTransfered(oldOwner, newOwner) */\n      swap1\n      dup4\n      and\n      swap1\n      0x0d18b5fd22306e373229b9439188228edca81207d1667f604daf6cef8aa3ee67\n      swap1\n      0x00\n      swap1\n      log3\n        /* \"utils/Ownable.sol\":829:957  {\r... */\n      pop\n        /* \"utils/Ownable.sol\":766:957  function _transferOwnership(address newOwner) internal virtual {\r... */\n      pop\n      jump\t// out\n        /* \"NftContract.sol\":2984:3365  function _hash(address to, uint256 val) internal view returns (bytes32) {\r... */\n    tag_414:\n        /* \"NftContract.sol\":3154:3323  abi.encode(\r... */\n      0x40\n      dup1\n      mload\n        /* \"NftContract.sol\":3191:3241  keccak256(\"PantherStruct(address to,uint256 val)\") */\n      0x8c9952748b13138200d658bbcdd87eee4fa0bcca0e5ca689d665e1a1ecce8f7b\n        /* \"NftContract.sol\":3154:3323  abi.encode(\r... */\n      0x20\n      dup3\n      add\n        /* \"#utility.yul\":9437:9462   */\n      mstore\n      sub(shl(0xa0, 0x01), 0x01)\n        /* \"#utility.yul\":9498:9553   */\n      dup5\n      and\n        /* \"#utility.yul\":9478:9496   */\n      swap2\n      dup2\n      add\n        /* \"#utility.yul\":9471:9554   */\n      swap2\n      swap1\n      swap2\n      mstore\n        /* \"#utility.yul\":9570:9588   */\n      0x60\n      dup2\n      add\n        /* \"#utility.yul\":9563:9597   */\n      dup3\n      swap1\n      mstore\n        /* \"NftContract.sol\":3047:3054  bytes32 */\n      0x00\n      swap1\n        /* \"NftContract.sol\":3087:3357  _hashTypedDataV4(\r... */\n      tag_365\n      swap1\n        /* \"#utility.yul\":9410:9428   */\n      0x80\n      add\n        /* \"NftContract.sol\":3154:3323  abi.encode(\r... */\n      mload(0x40)\n      0x20\n      dup2\n      dup4\n      sub\n      sub\n      dup2\n      mstore\n      swap1\n      0x40\n      mstore\n        /* \"NftContract.sol\":3122:3342  keccak256(\r... */\n      dup1\n      mload\n      swap1\n      0x20\n      add\n      keccak256\n        /* \"NftContract.sol\":3087:3103  _hashTypedDataV4 */\n      tag_451\n        /* \"NftContract.sol\":3087:3357  _hashTypedDataV4(\r... */\n      jump\t// in\n        /* \"utils/ECDSA.sol\":1898:2161  function recover(bytes32 hash, bytes memory signature)\r... */\n    tag_416:\n        /* \"utils/ECDSA.sol\":2003:2010  address */\n      0x00\n        /* \"utils/ECDSA.sol\":2029:2046  address recovered */\n      dup1\n        /* \"utils/ECDSA.sol\":2048:2066  RecoverError error */\n      0x00\n        /* \"utils/ECDSA.sol\":2070:2097  tryRecover(hash, signature) */\n      tag_453\n        /* \"utils/ECDSA.sol\":2081:2085  hash */\n      dup6\n        /* \"utils/ECDSA.sol\":2087:2096  signature */\n      dup6\n        /* \"utils/ECDSA.sol\":2070:2080  tryRecover */\n      tag_454\n        /* \"utils/ECDSA.sol\":2070:2097  tryRecover(hash, signature) */\n      jump\t// in\n    tag_453:\n        /* \"utils/ECDSA.sol\":2028:2097  (address recovered, RecoverError error) = tryRecover(hash, signature) */\n      swap2\n      pop\n      swap2\n      pop\n        /* \"utils/ECDSA.sol\":2108:2126  _throwError(error) */\n      tag_455\n        /* \"utils/ECDSA.sol\":2120:2125  error */\n      dup2\n        /* \"utils/ECDSA.sol\":2108:2119  _throwError */\n      tag_456\n        /* \"utils/ECDSA.sol\":2108:2126  _throwError(error) */\n      jump\t// in\n    tag_455:\n      pop\n        /* \"utils/ECDSA.sol\":2144:2153  recovered */\n      swap4\n        /* \"utils/ECDSA.sol\":1898:2161  function recover(bytes32 hash, bytes memory signature)\r... */\n      swap3\n      pop\n      pop\n      pop\n      jump\t// out\n        /* \"utils/EIP712.sol\":3619:3827  function _hashTypedDataV4(bytes32 structHash)\r... */\n    tag_451:\n        /* \"utils/EIP712.sol\":3732:3739  bytes32 */\n      0x00\n        /* \"utils/EIP712.sol\":3764:3819  ECDSA.toTypedDataHash(_domainSeparatorV4(), structHash) */\n      tag_211\n        /* \"utils/EIP712.sol\":3786:3806  _domainSeparatorV4() */\n      tag_459\n        /* \"utils/EIP712.sol\":3786:3804  _domainSeparatorV4 */\n      tag_460\n        /* \"utils/EIP712.sol\":3786:3806  _domainSeparatorV4() */\n      jump\t// in\n    tag_459:\n        /* \"utils/EIP712.sol\":3808:3818  structHash */\n      dup4\n        /* \"utils/ECDSA.sol\":4827:4884  abi.encodePacked(\"\\x19\\x01\", domainSeparator, structHash) */\n      mload(0x40)\n        /* \"#utility.yul\":7022:7088   */\n      0x1901000000000000000000000000000000000000000000000000000000000000\n        /* \"utils/ECDSA.sol\":4827:4884  abi.encodePacked(\"\\x19\\x01\", domainSeparator, structHash) */\n      0x20\n      dup3\n      add\n        /* \"#utility.yul\":7010:7089   */\n      mstore\n        /* \"#utility.yul\":7105:7116   */\n      0x22\n      dup2\n      add\n        /* \"#utility.yul\":7098:7125   */\n      dup4\n      swap1\n      mstore\n        /* \"#utility.yul\":7141:7153   */\n      0x42\n      dup2\n      add\n        /* \"#utility.yul\":7134:7162   */\n      dup3\n      swap1\n      mstore\n        /* \"utils/ECDSA.sol\":4754:4761  bytes32 */\n      0x00\n      swap1\n        /* \"#utility.yul\":7178:7190   */\n      0x62\n      add\n        /* \"utils/ECDSA.sol\":4827:4884  abi.encodePacked(\"\\x19\\x01\", domainSeparator, structHash) */\n      mload(0x40)\n      0x20\n      dup2\n      dup4\n      sub\n      sub\n      dup2\n      mstore\n      swap1\n      0x40\n      mstore\n        /* \"utils/ECDSA.sol\":4799:4899  keccak256(\r... */\n      dup1\n      mload\n      swap1\n      0x20\n      add\n      keccak256\n        /* \"utils/ECDSA.sol\":4779:4899  return\r... */\n      swap1\n      pop\n        /* \"utils/ECDSA.sol\":4634:4907  function toTypedDataHash(bytes32 domainSeparator, bytes32 structHash)\r... */\n      swap3\n      swap2\n      pop\n      pop\n      jump\n        /* \"utils/ECDSA.sol\":1008:1890  function tryRecover(bytes32 hash, bytes memory signature)\r... */\n    tag_454:\n        /* \"utils/ECDSA.sol\":1116:1123  address */\n      0x00\n        /* \"utils/ECDSA.sol\":1125:1137  RecoverError */\n      dup1\n        /* \"utils/ECDSA.sol\":1159:1168  signature */\n      dup3\n        /* \"utils/ECDSA.sol\":1159:1175  signature.length */\n      mload\n        /* \"utils/ECDSA.sol\":1179:1181  65 */\n      0x41\n        /* \"utils/ECDSA.sol\":1159:1181  signature.length == 65 */\n      eq\n        /* \"utils/ECDSA.sol\":1155:1883  if (signature.length == 65) {\r... */\n      iszero\n      tag_463\n      jumpi\n        /* \"utils/ECDSA.sol\":1324:1328  0x20 */\n      0x20\n        /* \"utils/ECDSA.sol\":1309:1329  add(signature, 0x20) */\n      dup4\n      add\n        /* \"utils/ECDSA.sol\":1303:1330  mload(add(signature, 0x20)) */\n      mload\n        /* \"utils/ECDSA.sol\":1374:1378  0x40 */\n      0x40\n        /* \"utils/ECDSA.sol\":1359:1379  add(signature, 0x40) */\n      dup5\n      add\n        /* \"utils/ECDSA.sol\":1353:1380  mload(add(signature, 0x40)) */\n      mload\n        /* \"utils/ECDSA.sol\":1432:1436  0x60 */\n      0x60\n        /* \"utils/ECDSA.sol\":1417:1437  add(signature, 0x60) */\n      dup6\n      add\n        /* \"utils/ECDSA.sol\":1411:1438  mload(add(signature, 0x60)) */\n      mload\n        /* \"utils/ECDSA.sol\":1198:1207  bytes32 r */\n      0x00\n        /* \"utils/ECDSA.sol\":1403:1439  byte(0, mload(add(signature, 0x60))) */\n      byte\n        /* \"utils/ECDSA.sol\":1475:1500  tryRecover(hash, v, r, s) */\n      tag_464\n        /* \"utils/ECDSA.sol\":1486:1490  hash */\n      dup8\n        /* \"utils/ECDSA.sol\":1403:1439  byte(0, mload(add(signature, 0x60))) */\n      dup3\n        /* \"utils/ECDSA.sol\":1303:1330  mload(add(signature, 0x20)) */\n      dup6\n        /* \"utils/ECDSA.sol\":1353:1380  mload(add(signature, 0x40)) */\n      dup6\n        /* \"utils/ECDSA.sol\":1475:1485  tryRecover */\n      tag_465\n        /* \"utils/ECDSA.sol\":1475:1500  tryRecover(hash, v, r, s) */\n      jump\t// in\n    tag_464:\n        /* \"utils/ECDSA.sol\":1468:1500  return tryRecover(hash, v, r, s) */\n      swap5\n      pop\n      swap5\n      pop\n      pop\n      pop\n      pop\n      jump(tag_258)\n        /* \"utils/ECDSA.sol\":1155:1883  if (signature.length == 65) {\r... */\n    tag_463:\n        /* \"utils/ECDSA.sol\":1522:1531  signature */\n      dup3\n        /* \"utils/ECDSA.sol\":1522:1538  signature.length */\n      mload\n        /* \"utils/ECDSA.sol\":1542:1544  64 */\n      0x40\n        /* \"utils/ECDSA.sol\":1522:1544  signature.length == 64 */\n      eq\n        /* \"utils/ECDSA.sol\":1518:1883  if (signature.length == 64) {\r... */\n      iszero\n      tag_467\n      jumpi\n        /* \"utils/ECDSA.sol\":1666:1670  0x20 */\n      0x20\n        /* \"utils/ECDSA.sol\":1651:1671  add(signature, 0x20) */\n      dup4\n      add\n        /* \"utils/ECDSA.sol\":1645:1672  mload(add(signature, 0x20)) */\n      mload\n        /* \"utils/ECDSA.sol\":1717:1721  0x40 */\n      0x40\n        /* \"utils/ECDSA.sol\":1702:1722  add(signature, 0x40) */\n      dup5\n      add\n        /* \"utils/ECDSA.sol\":1696:1723  mload(add(signature, 0x40)) */\n      mload\n        /* \"utils/ECDSA.sol\":1759:1782  tryRecover(hash, r, vs) */\n      tag_468\n        /* \"utils/ECDSA.sol\":1770:1774  hash */\n      dup7\n        /* \"utils/ECDSA.sol\":1645:1672  mload(add(signature, 0x20)) */\n      dup4\n        /* \"utils/ECDSA.sol\":1696:1723  mload(add(signature, 0x40)) */\n      dup4\n        /* \"utils/ECDSA.sol\":1759:1769  tryRecover */\n      tag_469\n        /* \"utils/ECDSA.sol\":1759:1782  tryRecover(hash, r, vs) */\n      jump\t// in\n    tag_468:\n        /* \"utils/ECDSA.sol\":1752:1782  return tryRecover(hash, r, vs) */\n      swap4\n      pop\n      swap4\n      pop\n      pop\n      pop\n      jump(tag_258)\n        /* \"utils/ECDSA.sol\":1518:1883  if (signature.length == 64) {\r... */\n    tag_467:\n      pop\n        /* \"utils/ECDSA.sol\":1831:1832  0 */\n      0x00\n      swap1\n      pop\n        /* \"utils/ECDSA.sol\":1835:1870  RecoverError.InvalidSignatureLength */\n      0x02\n        /* \"utils/ECDSA.sol\":1815:1871  return (address(0), RecoverError.InvalidSignatureLength) */\n      jump(tag_258)\n        /* \"utils/ECDSA.sol\":357:1000  function _throwError(RecoverError error) private pure {\r... */\n    tag_456:\n        /* \"utils/ECDSA.sol\":435:455  RecoverError.NoError */\n      0x00\n        /* \"utils/ECDSA.sol\":426:431  error */\n      dup2\n        /* \"utils/ECDSA.sol\":426:455  error == RecoverError.NoError */\n      0x04\n      dup2\n      gt\n      iszero\n      tag_476\n      jumpi\n      tag_476\n      tag_474\n      jump\t// in\n    tag_476:\n      eq\n        /* \"utils/ECDSA.sol\":422:993  if (error == RecoverError.NoError) {\r... */\n      iszero\n      tag_477\n      jumpi\n        /* \"utils/ECDSA.sol\":357:1000  function _throwError(RecoverError error) private pure {\r... */\n      pop\n      jump\t// out\n        /* \"utils/ECDSA.sol\":422:993  if (error == RecoverError.NoError) {\r... */\n    tag_477:\n        /* \"utils/ECDSA.sol\":533:562  RecoverError.InvalidSignature */\n      0x01\n        /* \"utils/ECDSA.sol\":524:529  error */\n      dup2\n        /* \"utils/ECDSA.sol\":524:562  error == RecoverError.InvalidSignature */\n      0x04\n      dup2\n      gt\n      iszero\n      tag_482\n      jumpi\n      tag_482\n      tag_474\n      jump\t// in\n    tag_482:\n      eq\n        /* \"utils/ECDSA.sol\":520:993  if (error == RecoverError.InvalidSignature) {\r... */\n      iszero\n      tag_483\n      jumpi\n        /* \"utils/ECDSA.sol\":579:613  revert(\"ECDSA: invalid signature\") */\n      mload(0x40)\n      shl(0xe5, 0x461bcd)\n      dup2\n      mstore\n        /* \"#utility.yul\":10954:10956   */\n      0x20\n        /* \"utils/ECDSA.sol\":579:613  revert(\"ECDSA: invalid signature\") */\n      0x04\n      dup3\n      add\n        /* \"#utility.yul\":10936:10957   */\n      mstore\n        /* \"#utility.yul\":10993:10995   */\n      0x18\n        /* \"#utility.yul\":10973:10991   */\n      0x24\n      dup3\n      add\n        /* \"#utility.yul\":10966:10996   */\n      mstore\n        /* \"#utility.yul\":11032:11058   */\n      0x45434453413a20696e76616c6964207369676e61747572650000000000000000\n        /* \"#utility.yul\":11012:11030   */\n      0x44\n      dup3\n      add\n        /* \"#utility.yul\":11005:11059   */\n      mstore\n        /* \"#utility.yul\":11076:11094   */\n      0x64\n      add\n        /* \"utils/ECDSA.sol\":579:613  revert(\"ECDSA: invalid signature\") */\n      tag_217\n        /* \"#utility.yul\":10752:11100   */\n      jump\n        /* \"utils/ECDSA.sol\":520:993  if (error == RecoverError.InvalidSignature) {\r... */\n    tag_483:\n        /* \"utils/ECDSA.sol\":644:679  RecoverError.InvalidSignatureLength */\n      0x02\n        /* \"utils/ECDSA.sol\":635:640  error */\n      dup2\n        /* \"utils/ECDSA.sol\":635:679  error == RecoverError.InvalidSignatureLength */\n      0x04\n      dup2\n      gt\n      iszero\n      tag_490\n      jumpi\n      tag_490\n      tag_474\n      jump\t// in\n    tag_490:\n      eq\n        /* \"utils/ECDSA.sol\":631:993  if (error == RecoverError.InvalidSignatureLength) {\r... */\n      iszero\n      tag_491\n      jumpi\n        /* \"utils/ECDSA.sol\":696:737  revert(\"ECDSA: invalid signature length\") */\n      mload(0x40)\n      shl(0xe5, 0x461bcd)\n      dup2\n      mstore\n        /* \"#utility.yul\":12012:12014   */\n      0x20\n        /* \"utils/ECDSA.sol\":696:737  revert(\"ECDSA: invalid signature length\") */\n      0x04\n      dup3\n      add\n        /* \"#utility.yul\":11994:12015   */\n      mstore\n        /* \"#utility.yul\":12051:12053   */\n      0x1f\n        /* \"#utility.yul\":12031:12049   */\n      0x24\n      dup3\n      add\n        /* \"#utility.yul\":12024:12054   */\n      mstore\n        /* \"#utility.yul\":12090:12123   */\n      0x45434453413a20696e76616c6964207369676e6174757265206c656e67746800\n        /* \"#utility.yul\":12070:12088   */\n      0x44\n      dup3\n      add\n        /* \"#utility.yul\":12063:12124   */\n      mstore\n        /* \"#utility.yul\":12141:12159   */\n      0x64\n      add\n        /* \"utils/ECDSA.sol\":696:737  revert(\"ECDSA: invalid signature length\") */\n      tag_217\n        /* \"#utility.yul\":11810:12165   */\n      jump\n        /* \"utils/ECDSA.sol\":631:993  if (error == RecoverError.InvalidSignatureLength) {\r... */\n    tag_491:\n        /* \"utils/ECDSA.sol\":768:798  RecoverError.InvalidSignatureS */\n      0x03\n        /* \"utils/ECDSA.sol\":759:764  error */\n      dup2\n        /* \"utils/ECDSA.sol\":759:798  error == RecoverError.InvalidSignatureS */\n      0x04\n      dup2\n      gt\n      iszero\n      tag_498\n      jumpi\n      tag_498\n      tag_474\n      jump\t// in\n    tag_498:\n      eq\n        /* \"utils/ECDSA.sol\":755:993  if (error == RecoverError.InvalidSignatureS) {\r... */\n      iszero\n      tag_499\n      jumpi\n        /* \"utils/ECDSA.sol\":815:859  revert(\"ECDSA: invalid signature 's' value\") */\n      mload(0x40)\n      shl(0xe5, 0x461bcd)\n      dup2\n      mstore\n        /* \"#utility.yul\":13393:13395   */\n      0x20\n        /* \"utils/ECDSA.sol\":815:859  revert(\"ECDSA: invalid signature 's' value\") */\n      0x04\n      dup3\n      add\n        /* \"#utility.yul\":13375:13396   */\n      mstore\n        /* \"#utility.yul\":13432:13434   */\n      0x22\n        /* \"#utility.yul\":13412:13430   */\n      0x24\n      dup3\n      add\n        /* \"#utility.yul\":13405:13435   */\n      mstore\n        /* \"#utility.yul\":13471:13505   */\n      0x45434453413a20696e76616c6964207369676e6174757265202773272076616c\n        /* \"#utility.yul\":13451:13469   */\n      0x44\n      dup3\n      add\n        /* \"#utility.yul\":13444:13506   */\n      mstore\n        /* \"#utility.yul\":13542:13546   */\n      0x7565000000000000000000000000000000000000000000000000000000000000\n        /* \"#utility.yul\":13522:13540   */\n      0x64\n      dup3\n      add\n        /* \"#utility.yul\":13515:13547   */\n      mstore\n        /* \"#utility.yul\":13564:13583   */\n      0x84\n      add\n        /* \"utils/ECDSA.sol\":815:859  revert(\"ECDSA: invalid signature 's' value\") */\n      tag_217\n        /* \"#utility.yul\":13191:13589   */\n      jump\n        /* \"utils/ECDSA.sol\":755:993  if (error == RecoverError.InvalidSignatureS) {\r... */\n    tag_499:\n        /* \"utils/ECDSA.sol\":890:920  RecoverError.InvalidSignatureV */\n      0x04\n        /* \"utils/ECDSA.sol\":881:886  error */\n      dup2\n        /* \"utils/ECDSA.sol\":881:920  error == RecoverError.InvalidSignatureV */\n      0x04\n      dup2\n      gt\n      iszero\n      tag_506\n      jumpi\n      tag_506\n      tag_474\n      jump\t// in\n    tag_506:\n      eq\n        /* \"utils/ECDSA.sol\":877:993  if (error == RecoverError.InvalidSignatureV) {\r... */\n      iszero\n      tag_379\n      jumpi\n        /* \"utils/ECDSA.sol\":937:981  revert(\"ECDSA: invalid signature 'v' value\") */\n      mload(0x40)\n      shl(0xe5, 0x461bcd)\n      dup2\n      mstore\n        /* \"#utility.yul\":14479:14481   */\n      0x20\n        /* \"utils/ECDSA.sol\":937:981  revert(\"ECDSA: invalid signature 'v' value\") */\n      0x04\n      dup3\n      add\n        /* \"#utility.yul\":14461:14482   */\n      mstore\n        /* \"#utility.yul\":14518:14520   */\n      0x22\n        /* \"#utility.yul\":14498:14516   */\n      0x24\n      dup3\n      add\n        /* \"#utility.yul\":14491:14521   */\n      mstore\n        /* \"#utility.yul\":14557:14591   */\n      0x45434453413a20696e76616c6964207369676e6174757265202776272076616c\n        /* \"#utility.yul\":14537:14555   */\n      0x44\n      dup3\n      add\n        /* \"#utility.yul\":14530:14592   */\n      mstore\n        /* \"#utility.yul\":14628:14632   */\n      0x7565000000000000000000000000000000000000000000000000000000000000\n        /* \"#utility.yul\":14608:14626   */\n      0x64\n      dup3\n      add\n        /* \"#utility.yul\":14601:14633   */\n      mstore\n        /* \"#utility.yul\":14650:14669   */\n      0x84\n      add\n        /* \"utils/ECDSA.sol\":937:981  revert(\"ECDSA: invalid signature 'v' value\") */\n      tag_217\n        /* \"#utility.yul\":14277:14675   */\n      jump\n        /* \"utils/EIP712.sol\":2100:2537  function _domainSeparatorV4() internal view returns (bytes32) {\r... */\n    tag_460:\n        /* \"utils/EIP712.sol\":2153:2160  bytes32 */\n      0x00\n        /* \"utils/EIP712.sol\":2199:2203  this */\n      address\n      sub(shl(0xa0, 0x01), 0x01)\n        /* \"utils/EIP712.sol\":2208:2220  _CACHED_THIS */\n      immutable(\"0x8daa2fd0bd035dbe856aeb0cf4a9c58ddc36a58ca2b562643b5027489d09ec1b\")\n        /* \"utils/EIP712.sol\":2191:2220  address(this) == _CACHED_THIS */\n      and\n      eq\n        /* \"utils/EIP712.sol\":2191:2257  address(this) == _CACHED_THIS && block.chainid == _CACHED_CHAIN_ID */\n      dup1\n      iszero\n      tag_511\n      jumpi\n      pop\n        /* \"utils/EIP712.sol\":2241:2257  _CACHED_CHAIN_ID */\n      immutable(\"0x894a18e75f0a8b978d87ca850b87ebdfb9565d22a7e423cfe82ac5eb107e798f\")\n        /* \"utils/EIP712.sol\":2224:2237  block.chainid */\n      chainid\n        /* \"utils/EIP712.sol\":2224:2257  block.chainid == _CACHED_CHAIN_ID */\n      eq\n        /* \"utils/EIP712.sol\":2191:2257  address(this) == _CACHED_THIS && block.chainid == _CACHED_CHAIN_ID */\n    tag_511:\n        /* \"utils/EIP712.sol\":2173:2530  if (\r... */\n      iszero\n      tag_512\n      jumpi\n      pop\n        /* \"utils/EIP712.sol\":2291:2315  _CACHED_DOMAIN_SEPARATOR */\n      immutable(\"0x80ba64611178d6973600fd96978a0b0a5c611f549c423d5c6e2cfd28bc017c25\")\n      swap1\n        /* \"utils/EIP712.sol\":2100:2537  function _domainSeparatorV4() internal view returns (bytes32) {\r... */\n      jump\t// out\n        /* \"utils/EIP712.sol\":2173:2530  if (\r... */\n    tag_512:\n      pop\n        /* \"utils/EIP712.sol\":2757:2954  abi.encode(\r... */\n      0x40\n      dup1\n      mload\n        /* \"utils/EIP712.sol\":2416:2426  _TYPE_HASH */\n      immutable(\"0xc925925f9a803efbc144bd5e6d385fb950770306f497896d91c9beadf452695e\")\n        /* \"utils/EIP712.sol\":2757:2954  abi.encode(\r... */\n      0x20\n      dup1\n      dup4\n      add\n        /* \"#utility.yul\":9867:9892   */\n      swap2\n      swap1\n      swap2\n      mstore\n        /* \"utils/EIP712.sol\":2449:2461  _HASHED_NAME */\n      immutable(\"0x4d10a0db24f434e6025a5ab91426fb885a8a41f2a9a3e3f8c3bfdea4a211adc4\")\n        /* \"#utility.yul\":9908:9926   */\n      dup3\n      dup5\n      add\n        /* \"#utility.yul\":9901:9935   */\n      mstore\n        /* \"utils/EIP712.sol\":2484:2499  _HASHED_VERSION */\n      immutable(\"0xad0ea8b94642fa2155eb7dbd1d545883f6485b81aaa0ee5b7ef63e54cf3b4dca\")\n        /* \"#utility.yul\":9951:9969   */\n      0x60\n      dup4\n      add\n        /* \"#utility.yul\":9944:9978   */\n      mstore\n        /* \"utils/EIP712.sol\":2886:2899  block.chainid */\n      chainid\n        /* \"#utility.yul\":9994:10012   */\n      0x80\n      dup4\n      add\n        /* \"#utility.yul\":9987:10021   */\n      mstore\n        /* \"utils/EIP712.sol\":2930:2934  this */\n      address\n        /* \"#utility.yul\":10037:10056   */\n      0xa0\n      dup1\n      dup5\n      add\n        /* \"#utility.yul\":10030:10114   */\n      swap2\n      swap1\n      swap2\n      mstore\n        /* \"utils/EIP712.sol\":2757:2954  abi.encode(\r... */\n      dup4\n      mload\n      dup1\n      dup5\n      sub\n      swap1\n      swap2\n      add\n      dup2\n      mstore\n        /* \"#utility.yul\":9839:9858   */\n      0xc0\n      swap1\n      swap3\n      add\n        /* \"utils/EIP712.sol\":2757:2954  abi.encode(\r... */\n      swap1\n      swap3\n      mstore\n        /* \"utils/EIP712.sol\":2729:2969  keccak256(\r... */\n      dup1\n      mload\n      swap2\n      add\n      keccak256\n      swap1\n        /* \"utils/EIP712.sol\":2100:2537  function _domainSeparatorV4() internal view returns (bytes32) {\r... */\n      jump\t// out\n        /* \"utils/ECDSA.sol\":2834:3620  function tryRecover(\r... */\n    tag_465:\n        /* \"utils/ECDSA.sol\":2965:2972  address */\n      0x00\n      dup1\n        /* \"utils/ECDSA.sol\":3043:3109  0x7FFFFFFFFFFFFFFFFFFFFFFFFFFFFFFF5D576E7357A4501DDFE92F46681B20A0 */\n      0x7fffffffffffffffffffffffffffffff5d576e7357a4501ddfe92f46681b20a0\n        /* \"utils/ECDSA.sol\":3017:3109  uint256(s) >\r... */\n      dup4\n      gt\n        /* \"utils/ECDSA.sol\":2999:3199  if (\r... */\n      iszero\n      tag_520\n      jumpi\n      pop\n        /* \"utils/ECDSA.sol\":3152:3153  0 */\n      0x00\n      swap1\n      pop\n        /* \"utils/ECDSA.sol\":3156:3186  RecoverError.InvalidSignatureS */\n      0x03\n        /* \"utils/ECDSA.sol\":3136:3187  return (address(0), RecoverError.InvalidSignatureS) */\n      jump(tag_519)\n        /* \"utils/ECDSA.sol\":2999:3199  if (\r... */\n    tag_520:\n        /* \"utils/ECDSA.sol\":3213:3214  v */\n      dup5\n        /* \"utils/ECDSA.sol\":3213:3220  v != 27 */\n      0xff\n      and\n        /* \"utils/ECDSA.sol\":3218:3220  27 */\n      0x1b\n        /* \"utils/ECDSA.sol\":3213:3220  v != 27 */\n      eq\n      iszero\n        /* \"utils/ECDSA.sol\":3213:3231  v != 27 && v != 28 */\n      dup1\n      iszero\n      tag_521\n      jumpi\n      pop\n        /* \"utils/ECDSA.sol\":3224:3225  v */\n      dup5\n        /* \"utils/ECDSA.sol\":3224:3231  v != 28 */\n      0xff\n      and\n        /* \"utils/ECDSA.sol\":3229:3231  28 */\n      0x1c\n        /* \"utils/ECDSA.sol\":3224:3231  v != 28 */\n      eq\n      iszero\n        /* \"utils/ECDSA.sol\":3213:3231  v != 27 && v != 28 */\n    tag_521:\n        /* \"utils/ECDSA.sol\":3209:3311  if (v != 27 && v != 28) {\r... */\n      iszero\n      tag_522\n      jumpi\n      pop\n        /* \"utils/ECDSA.sol\":3264:3265  0 */\n      0x00\n      swap1\n      pop\n        /* \"utils/ECDSA.sol\":3268:3298  RecoverError.InvalidSignatureV */\n      0x04\n        /* \"utils/ECDSA.sol\":3248:3299  return (address(0), RecoverError.InvalidSignatureV) */\n      jump(tag_519)\n        /* \"utils/ECDSA.sol\":3209:3311  if (v != 27 && v != 28) {\r... */\n    tag_522:\n        /* \"utils/ECDSA.sol\":3425:3449  ecrecover(hash, v, r, s) */\n      0x40\n      dup1\n      mload\n        /* \"utils/ECDSA.sol\":3408:3422  address signer */\n      0x00\n        /* \"utils/ECDSA.sol\":3425:3449  ecrecover(hash, v, r, s) */\n      dup1\n      dup3\n      mstore\n      0x20\n      dup3\n      add\n      dup1\n      dup5\n      mstore\n        /* \"#utility.yul\":10352:10377   */\n      dup10\n      swap1\n      mstore\n        /* \"#utility.yul\":10425:10429   */\n      0xff\n        /* \"#utility.yul\":10413:10430   */\n      dup9\n      and\n        /* \"#utility.yul\":10393:10411   */\n      swap3\n      dup3\n      add\n        /* \"#utility.yul\":10386:10431   */\n      swap3\n      swap1\n      swap3\n      mstore\n        /* \"#utility.yul\":10447:10465   */\n      0x60\n      dup2\n      add\n        /* \"#utility.yul\":10440:10474   */\n      dup7\n      swap1\n      mstore\n        /* \"#utility.yul\":10490:10508   */\n      0x80\n      dup2\n      add\n        /* \"#utility.yul\":10483:10517   */\n      dup6\n      swap1\n      mstore\n        /* \"utils/ECDSA.sol\":3425:3449  ecrecover(hash, v, r, s) */\n      0x01\n      swap1\n        /* \"#utility.yul\":10324:10343   */\n      0xa0\n      add\n        /* \"utils/ECDSA.sol\":3425:3449  ecrecover(hash, v, r, s) */\n      0x20\n      mload(0x40)\n      0x20\n      dup2\n      sub\n      swap1\n      dup1\n      dup5\n      sub\n      swap1\n      dup6\n      gas\n      staticcall\n      iszero\n      dup1\n      iszero\n      tag_526\n      jumpi\n      returndatasize\n      0x00\n      dup1\n      returndatacopy\n      revert(0x00, returndatasize)\n    tag_526:\n      pop\n      pop\n      mload(add(not(0x1f), mload(0x40)))\n      swap2\n      pop\n      pop\n      sub(shl(0xa0, 0x01), 0x01)\n        /* \"utils/ECDSA.sol\":3464:3484  signer == address(0) */\n      dup2\n      and\n        /* \"utils/ECDSA.sol\":3460:3563  if (signer == address(0)) {\r... */\n      tag_527\n      jumpi\n        /* \"utils/ECDSA.sol\":3517:3518  0 */\n      0x00\n        /* \"utils/ECDSA.sol\":3521:3550  RecoverError.InvalidSignature */\n      0x01\n        /* \"utils/ECDSA.sol\":3501:3551  return (address(0), RecoverError.InvalidSignature) */\n      swap3\n      pop\n      swap3\n      pop\n      pop\n      jump(tag_519)\n        /* \"utils/ECDSA.sol\":3460:3563  if (signer == address(0)) {\r... */\n    tag_527:\n        /* \"utils/ECDSA.sol\":3583:3589  signer */\n      swap2\n      pop\n        /* \"utils/ECDSA.sol\":3591:3611  RecoverError.NoError */\n      0x00\n      swap1\n      pop\n        /* \"utils/ECDSA.sol\":2834:3620  function tryRecover(\r... */\n    tag_519:\n      swap5\n      pop\n      swap5\n      swap3\n      pop\n      pop\n      pop\n      jump\t// out\n        /* \"utils/ECDSA.sol\":2169:2558  function tryRecover(\r... */\n    tag_469:\n        /* \"utils/ECDSA.sol\":2283:2290  address */\n      0x00\n      dup1\n        /* \"utils/ECDSA.sol\":2373:2439  0x7fffffffffffffffffffffffffffffffffffffffffffffffffffffffffffffff */\n      0x7fffffffffffffffffffffffffffffffffffffffffffffffffffffffffffffff\n        /* \"utils/ECDSA.sol\":2329:2454  vs &\r... */\n      dup4\n      and\n        /* \"utils/ECDSA.sol\":2283:2290  address */\n      dup2\n        /* \"utils/ECDSA.sol\":2481:2506  (uint256(vs) >> 255) + 27 */\n      tag_529\n        /* \"utils/ECDSA.sol\":2497:2500  255 */\n      0xff\n        /* \"utils/ECDSA.sol\":2482:2500  uint256(vs) >> 255 */\n      dup7\n      swap1\n      shr\n        /* \"utils/ECDSA.sol\":2504:2506  27 */\n      0x1b\n        /* \"utils/ECDSA.sol\":2481:2506  (uint256(vs) >> 255) + 27 */\n      tag_440\n      jump\t// in\n    tag_529:\n        /* \"utils/ECDSA.sol\":2465:2507  uint8 v = uint8((uint256(vs) >> 255) + 27) */\n      swap1\n      pop\n        /* \"utils/ECDSA.sol\":2525:2550  tryRecover(hash, v, r, s) */\n      tag_530\n        /* \"utils/ECDSA.sol\":2536:2540  hash */\n      dup8\n        /* \"utils/ECDSA.sol\":2542:2543  v */\n      dup3\n        /* \"utils/ECDSA.sol\":2545:2546  r */\n      dup9\n        /* \"utils/ECDSA.sol\":2548:2549  s */\n      dup6\n        /* \"utils/ECDSA.sol\":2525:2535  tryRecover */\n      tag_465\n        /* \"utils/ECDSA.sol\":2525:2550  tryRecover(hash, v, r, s) */\n      jump\t// in\n    tag_530:\n        /* \"utils/ECDSA.sol\":2518:2550  return tryRecover(hash, v, r, s) */\n      swap4\n      pop\n      swap4\n      pop\n      pop\n      pop\n        /* \"utils/ECDSA.sol\":2169:2558  function tryRecover(\r... */\n      swap4\n      pop\n      swap4\n      swap2\n      pop\n      pop\n      jump\t// out\n        /* \"#utility.yul\":14:210   */\n    tag_535:\n        /* \"#utility.yul\":82:102   */\n      dup1\n      calldataload\n      sub(shl(0xa0, 0x01), 0x01)\n        /* \"#utility.yul\":131:185   */\n      dup2\n      and\n        /* \"#utility.yul\":121:186   */\n      dup2\n      eq\n        /* \"#utility.yul\":111:204   */\n      tag_537\n      jumpi\n        /* \"#utility.yul\":200:201   */\n      0x00\n        /* \"#utility.yul\":197:198   */\n      dup1\n        /* \"#utility.yul\":190:202   */\n      revert\n        /* \"#utility.yul\":111:204   */\n    tag_537:\n        /* \"#utility.yul\":14:210   */\n      swap2\n      swap1\n      pop\n      jump\t// out\n        /* \"#utility.yul\":215:375   */\n    tag_538:\n        /* \"#utility.yul\":280:300   */\n      dup1\n      calldataload\n        /* \"#utility.yul\":336:349   */\n      dup1\n      iszero\n        /* \"#utility.yul\":329:350   */\n      iszero\n        /* \"#utility.yul\":319:351   */\n      dup2\n      eq\n        /* \"#utility.yul\":309:369   */\n      tag_537\n      jumpi\n        /* \"#utility.yul\":365:366   */\n      0x00\n        /* \"#utility.yul\":362:363   */\n      dup1\n        /* \"#utility.yul\":355:367   */\n      revert\n        /* \"#utility.yul\":380:1157   */\n    tag_541:\n        /* \"#utility.yul\":422:427   */\n      0x00\n        /* \"#utility.yul\":475:478   */\n      dup3\n        /* \"#utility.yul\":468:472   */\n      0x1f\n        /* \"#utility.yul\":460:466   */\n      dup4\n        /* \"#utility.yul\":456:473   */\n      add\n        /* \"#utility.yul\":452:479   */\n      slt\n        /* \"#utility.yul\":442:497   */\n      tag_543\n      jumpi\n        /* \"#utility.yul\":493:494   */\n      0x00\n        /* \"#utility.yul\":490:491   */\n      dup1\n        /* \"#utility.yul\":483:495   */\n      revert\n        /* \"#utility.yul\":442:497   */\n    tag_543:\n        /* \"#utility.yul\":529:535   */\n      dup2\n        /* \"#utility.yul\":516:536   */\n      calldataload\n        /* \"#utility.yul\":555:573   */\n      0xffffffffffffffff\n        /* \"#utility.yul\":592:594   */\n      dup1\n        /* \"#utility.yul\":588:590   */\n      dup3\n        /* \"#utility.yul\":585:595   */\n      gt\n        /* \"#utility.yul\":582:618   */\n      iszero\n      tag_545\n      jumpi\n        /* \"#utility.yul\":598:616   */\n      tag_545\n      tag_433\n      jump\t// in\n    tag_545:\n        /* \"#utility.yul\":732:734   */\n      0x40\n        /* \"#utility.yul\":726:735   */\n      mload\n        /* \"#utility.yul\":794:798   */\n      0x1f\n        /* \"#utility.yul\":786:799   */\n      dup4\n      add\n      not(0x1f)\n        /* \"#utility.yul\":782:804   */\n      swap1\n      dup2\n      and\n        /* \"#utility.yul\":806:808   */\n      0x3f\n        /* \"#utility.yul\":778:809   */\n      add\n        /* \"#utility.yul\":774:814   */\n      and\n        /* \"#utility.yul\":762:815   */\n      dup2\n      add\n      swap1\n        /* \"#utility.yul\":830:848   */\n      dup3\n      dup3\n      gt\n        /* \"#utility.yul\":850:872   */\n      dup2\n      dup4\n      lt\n        /* \"#utility.yul\":827:873   */\n      or\n        /* \"#utility.yul\":824:896   */\n      iszero\n      tag_547\n      jumpi\n        /* \"#utility.yul\":876:894   */\n      tag_547\n      tag_433\n      jump\t// in\n    tag_547:\n        /* \"#utility.yul\":916:926   */\n      dup2\n        /* \"#utility.yul\":912:914   */\n      0x40\n        /* \"#utility.yul\":905:927   */\n      mstore\n        /* \"#utility.yul\":951:953   */\n      dup4\n        /* \"#utility.yul\":943:949   */\n      dup2\n        /* \"#utility.yul\":936:954   */\n      mstore\n        /* \"#utility.yul\":997:1000   */\n      dup7\n        /* \"#utility.yul\":990:994   */\n      0x20\n        /* \"#utility.yul\":985:987   */\n      dup6\n        /* \"#utility.yul\":977:983   */\n      dup9\n        /* \"#utility.yul\":973:988   */\n      add\n        /* \"#utility.yul\":969:995   */\n      add\n        /* \"#utility.yul\":966:1001   */\n      gt\n        /* \"#utility.yul\":963:1018   */\n      iszero\n      tag_548\n      jumpi\n        /* \"#utility.yul\":1014:1015   */\n      0x00\n        /* \"#utility.yul\":1011:1012   */\n      dup1\n        /* \"#utility.yul\":1004:1016   */\n      revert\n        /* \"#utility.yul\":963:1018   */\n    tag_548:\n        /* \"#utility.yul\":1078:1080   */\n      dup4\n        /* \"#utility.yul\":1071:1075   */\n      0x20\n        /* \"#utility.yul\":1063:1069   */\n      dup8\n        /* \"#utility.yul\":1059:1076   */\n      add\n        /* \"#utility.yul\":1052:1056   */\n      0x20\n        /* \"#utility.yul\":1044:1050   */\n      dup4\n        /* \"#utility.yul\":1040:1057   */\n      add\n        /* \"#utility.yul\":1027:1081   */\n      calldatacopy\n        /* \"#utility.yul\":1125:1126   */\n      0x00\n        /* \"#utility.yul\":1118:1122   */\n      0x20\n        /* \"#utility.yul\":1113:1115   */\n      dup6\n        /* \"#utility.yul\":1105:1111   */\n      dup4\n        /* \"#utility.yul\":1101:1116   */\n      add\n        /* \"#utility.yul\":1097:1123   */\n      add\n        /* \"#utility.yul\":1090:1127   */\n      mstore\n        /* \"#utility.yul\":1145:1151   */\n      dup1\n        /* \"#utility.yul\":1136:1151   */\n      swap5\n      pop\n      pop\n      pop\n      pop\n      pop\n        /* \"#utility.yul\":380:1157   */\n      swap3\n      swap2\n      pop\n      pop\n      jump\t// out\n        /* \"#utility.yul\":1162:1348   */\n    tag_82:\n        /* \"#utility.yul\":1221:1227   */\n      0x00\n        /* \"#utility.yul\":1274:1276   */\n      0x20\n        /* \"#utility.yul\":1262:1271   */\n      dup3\n        /* \"#utility.yul\":1253:1260   */\n      dup5\n        /* \"#utility.yul\":1249:1272   */\n      sub\n        /* \"#utility.yul\":1245:1277   */\n      slt\n        /* \"#utility.yul\":1242:1294   */\n      iszero\n      tag_550\n      jumpi\n        /* \"#utility.yul\":1290:1291   */\n      0x00\n        /* \"#utility.yul\":1287:1288   */\n      dup1\n        /* \"#utility.yul\":1280:1292   */\n      revert\n        /* \"#utility.yul\":1242:1294   */\n    tag_550:\n        /* \"#utility.yul\":1313:1342   */\n      tag_365\n        /* \"#utility.yul\":1332:1341   */\n      dup3\n        /* \"#utility.yul\":1313:1342   */\n      tag_535\n      jump\t// in\n        /* \"#utility.yul\":1353:1613   */\n    tag_194:\n        /* \"#utility.yul\":1421:1427   */\n      0x00\n        /* \"#utility.yul\":1429:1435   */\n      dup1\n        /* \"#utility.yul\":1482:1484   */\n      0x40\n        /* \"#utility.yul\":1470:1479   */\n      dup4\n        /* \"#utility.yul\":1461:1468   */\n      dup6\n        /* \"#utility.yul\":1457:1480   */\n      sub\n        /* \"#utility.yul\":1453:1485   */\n      slt\n        /* \"#utility.yul\":1450:1502   */\n      iszero\n      tag_553\n      jumpi\n        /* \"#utility.yul\":1498:1499   */\n      0x00\n        /* \"#utility.yul\":1495:1496   */\n      dup1\n        /* \"#utility.yul\":1488:1500   */\n      revert\n        /* \"#utility.yul\":1450:1502   */\n    tag_553:\n        /* \"#utility.yul\":1521:1550   */\n      tag_554\n        /* \"#utility.yul\":1540:1549   */\n      dup4\n        /* \"#utility.yul\":1521:1550   */\n      tag_535\n      jump\t// in\n    tag_554:\n        /* \"#utility.yul\":1511:1550   */\n      swap2\n      pop\n        /* \"#utility.yul\":1569:1607   */\n      tag_555\n        /* \"#utility.yul\":1603:1605   */\n      0x20\n        /* \"#utility.yul\":1592:1601   */\n      dup5\n        /* \"#utility.yul\":1588:1606   */\n      add\n        /* \"#utility.yul\":1569:1607   */\n      tag_535\n      jump\t// in\n    tag_555:\n        /* \"#utility.yul\":1559:1607   */\n      swap1\n      pop\n        /* \"#utility.yul\":1353:1613   */\n      swap3\n      pop\n      swap3\n      swap1\n      pop\n      jump\t// out\n        /* \"#utility.yul\":1618:1946   */\n    tag_87:\n        /* \"#utility.yul\":1695:1701   */\n      0x00\n        /* \"#utility.yul\":1703:1709   */\n      dup1\n        /* \"#utility.yul\":1711:1717   */\n      0x00\n        /* \"#utility.yul\":1764:1766   */\n      0x60\n        /* \"#utility.yul\":1752:1761   */\n      dup5\n        /* \"#utility.yul\":1743:1750   */\n      dup7\n        /* \"#utility.yul\":1739:1762   */\n      sub\n        /* \"#utility.yul\":1735:1767   */\n      slt\n        /* \"#utility.yul\":1732:1784   */\n      iszero\n      tag_557\n      jumpi\n        /* \"#utility.yul\":1780:1781   */\n      0x00\n        /* \"#utility.yul\":1777:1778   */\n      dup1\n        /* \"#utility.yul\":1770:1782   */\n      revert\n        /* \"#utility.yul\":1732:1784   */\n    tag_557:\n        /* \"#utility.yul\":1803:1832   */\n      tag_558\n        /* \"#utility.yul\":1822:1831   */\n      dup5\n        /* \"#utility.yul\":1803:1832   */\n      tag_535\n      jump\t// in\n    tag_558:\n        /* \"#utility.yul\":1793:1832   */\n      swap3\n      pop\n        /* \"#utility.yul\":1851:1889   */\n      tag_559\n        /* \"#utility.yul\":1885:1887   */\n      0x20\n        /* \"#utility.yul\":1874:1883   */\n      dup6\n        /* \"#utility.yul\":1870:1888   */\n      add\n        /* \"#utility.yul\":1851:1889   */\n      tag_535\n      jump\t// in\n    tag_559:\n        /* \"#utility.yul\":1841:1889   */\n      swap2\n      pop\n        /* \"#utility.yul\":1936:1938   */\n      0x40\n        /* \"#utility.yul\":1925:1934   */\n      dup5\n        /* \"#utility.yul\":1921:1939   */\n      add\n        /* \"#utility.yul\":1908:1940   */\n      calldataload\n        /* \"#utility.yul\":1898:1940   */\n      swap1\n      pop\n        /* \"#utility.yul\":1618:1946   */\n      swap3\n      pop\n      swap3\n      pop\n      swap3\n      jump\t// out\n        /* \"#utility.yul\":1951:2488   */\n    tag_165:\n        /* \"#utility.yul\":2046:2052   */\n      0x00\n        /* \"#utility.yul\":2054:2060   */\n      dup1\n        /* \"#utility.yul\":2062:2068   */\n      0x00\n        /* \"#utility.yul\":2070:2076   */\n      dup1\n        /* \"#utility.yul\":2123:2126   */\n      0x80\n        /* \"#utility.yul\":2111:2120   */\n      dup6\n        /* \"#utility.yul\":2102:2109   */\n      dup8\n        /* \"#utility.yul\":2098:2121   */\n      sub\n        /* \"#utility.yul\":2094:2127   */\n      slt\n        /* \"#utility.yul\":2091:2144   */\n      iszero\n      tag_561\n      jumpi\n        /* \"#utility.yul\":2140:2141   */\n      0x00\n        /* \"#utility.yul\":2137:2138   */\n      dup1\n        /* \"#utility.yul\":2130:2142   */\n      revert\n        /* \"#utility.yul\":2091:2144   */\n    tag_561:\n        /* \"#utility.yul\":2163:2192   */\n      tag_562\n        /* \"#utility.yul\":2182:2191   */\n      dup6\n        /* \"#utility.yul\":2163:2192   */\n      tag_535\n      jump\t// in\n    tag_562:\n        /* \"#utility.yul\":2153:2192   */\n      swap4\n      pop\n        /* \"#utility.yul\":2211:2249   */\n      tag_563\n        /* \"#utility.yul\":2245:2247   */\n      0x20\n        /* \"#utility.yul\":2234:2243   */\n      dup7\n        /* \"#utility.yul\":2230:2248   */\n      add\n        /* \"#utility.yul\":2211:2249   */\n      tag_535\n      jump\t// in\n    tag_563:\n        /* \"#utility.yul\":2201:2249   */\n      swap3\n      pop\n        /* \"#utility.yul\":2296:2298   */\n      0x40\n        /* \"#utility.yul\":2285:2294   */\n      dup6\n        /* \"#utility.yul\":2281:2299   */\n      add\n        /* \"#utility.yul\":2268:2300   */\n      calldataload\n        /* \"#utility.yul\":2258:2300   */\n      swap2\n      pop\n        /* \"#utility.yul\":2351:2353   */\n      0x60\n        /* \"#utility.yul\":2340:2349   */\n      dup6\n        /* \"#utility.yul\":2336:2354   */\n      add\n        /* \"#utility.yul\":2323:2355   */\n      calldataload\n        /* \"#utility.yul\":2378:2396   */\n      0xffffffffffffffff\n        /* \"#utility.yul\":2370:2376   */\n      dup2\n        /* \"#utility.yul\":2367:2397   */\n      gt\n        /* \"#utility.yul\":2364:2414   */\n      iszero\n      tag_564\n      jumpi\n        /* \"#utility.yul\":2410:2411   */\n      0x00\n        /* \"#utility.yul\":2407:2408   */\n      dup1\n        /* \"#utility.yul\":2400:2412   */\n      revert\n        /* \"#utility.yul\":2364:2414   */\n    tag_564:\n        /* \"#utility.yul\":2433:2482   */\n      tag_565\n        /* \"#utility.yul\":2474:2481   */\n      dup8\n        /* \"#utility.yul\":2465:2471   */\n      dup3\n        /* \"#utility.yul\":2454:2463   */\n      dup9\n        /* \"#utility.yul\":2450:2472   */\n      add\n        /* \"#utility.yul\":2433:2482   */\n      tag_541\n      jump\t// in\n    tag_565:\n        /* \"#utility.yul\":2423:2482   */\n      swap2\n      pop\n      pop\n        /* \"#utility.yul\":1951:2488   */\n      swap3\n      swap6\n      swap2\n      swap5\n      pop\n      swap3\n      pop\n      jump\t// out\n        /* \"#utility.yul\":2493:2747   */\n    tag_151:\n        /* \"#utility.yul\":2558:2564   */\n      0x00\n        /* \"#utility.yul\":2566:2572   */\n      dup1\n        /* \"#utility.yul\":2619:2621   */\n      0x40\n        /* \"#utility.yul\":2607:2616   */\n      dup4\n        /* \"#utility.yul\":2598:2605   */\n      dup6\n        /* \"#utility.yul\":2594:2617   */\n      sub\n        /* \"#utility.yul\":2590:2622   */\n      slt\n        /* \"#utility.yul\":2587:2639   */\n      iszero\n      tag_567\n      jumpi\n        /* \"#utility.yul\":2635:2636   */\n      0x00\n        /* \"#utility.yul\":2632:2633   */\n      dup1\n        /* \"#utility.yul\":2625:2637   */\n      revert\n        /* \"#utility.yul\":2587:2639   */\n    tag_567:\n        /* \"#utility.yul\":2658:2687   */\n      tag_568\n        /* \"#utility.yul\":2677:2686   */\n      dup4\n        /* \"#utility.yul\":2658:2687   */\n      tag_535\n      jump\t// in\n    tag_568:\n        /* \"#utility.yul\":2648:2687   */\n      swap2\n      pop\n        /* \"#utility.yul\":2706:2741   */\n      tag_555\n        /* \"#utility.yul\":2737:2739   */\n      0x20\n        /* \"#utility.yul\":2726:2735   */\n      dup5\n        /* \"#utility.yul\":2722:2740   */\n      add\n        /* \"#utility.yul\":2706:2741   */\n      tag_538\n      jump\t// in\n        /* \"#utility.yul\":2752:3006   */\n    tag_72:\n        /* \"#utility.yul\":2820:2826   */\n      0x00\n        /* \"#utility.yul\":2828:2834   */\n      dup1\n        /* \"#utility.yul\":2881:2883   */\n      0x40\n        /* \"#utility.yul\":2869:2878   */\n      dup4\n        /* \"#utility.yul\":2860:2867   */\n      dup6\n        /* \"#utility.yul\":2856:2879   */\n      sub\n        /* \"#utility.yul\":2852:2884   */\n      slt\n        /* \"#utility.yul\":2849:2901   */\n      iszero\n      tag_571\n      jumpi\n        /* \"#utility.yul\":2897:2898   */\n      0x00\n        /* \"#utility.yul\":2894:2895   */\n      dup1\n        /* \"#utility.yul\":2887:2899   */\n      revert\n        /* \"#utility.yul\":2849:2901   */\n    tag_571:\n        /* \"#utility.yul\":2920:2949   */\n      tag_572\n        /* \"#utility.yul\":2939:2948   */\n      dup4\n        /* \"#utility.yul\":2920:2949   */\n      tag_535\n      jump\t// in\n    tag_572:\n        /* \"#utility.yul\":2910:2949   */\n      swap5\n        /* \"#utility.yul\":2996:2998   */\n      0x20\n        /* \"#utility.yul\":2981:2999   */\n      swap4\n      swap1\n      swap4\n      add\n        /* \"#utility.yul\":2968:3000   */\n      calldataload\n      swap4\n      pop\n      pop\n      pop\n        /* \"#utility.yul\":2752:3006   */\n      jump\t// out\n        /* \"#utility.yul\":3011:3473   */\n    tag_174:\n        /* \"#utility.yul\":3097:3103   */\n      0x00\n        /* \"#utility.yul\":3105:3111   */\n      dup1\n        /* \"#utility.yul\":3113:3119   */\n      0x00\n        /* \"#utility.yul\":3166:3168   */\n      0x60\n        /* \"#utility.yul\":3154:3163   */\n      dup5\n        /* \"#utility.yul\":3145:3152   */\n      dup7\n        /* \"#utility.yul\":3141:3164   */\n      sub\n        /* \"#utility.yul\":3137:3169   */\n      slt\n        /* \"#utility.yul\":3134:3186   */\n      iszero\n      tag_574\n      jumpi\n        /* \"#utility.yul\":3182:3183   */\n      0x00\n        /* \"#utility.yul\":3179:3180   */\n      dup1\n        /* \"#utility.yul\":3172:3184   */\n      revert\n        /* \"#utility.yul\":3134:3186   */\n    tag_574:\n        /* \"#utility.yul\":3205:3234   */\n      tag_575\n        /* \"#utility.yul\":3224:3233   */\n      dup5\n        /* \"#utility.yul\":3205:3234   */\n      tag_535\n      jump\t// in\n    tag_575:\n        /* \"#utility.yul\":3195:3234   */\n      swap3\n      pop\n        /* \"#utility.yul\":3281:3283   */\n      0x20\n        /* \"#utility.yul\":3270:3279   */\n      dup5\n        /* \"#utility.yul\":3266:3284   */\n      add\n        /* \"#utility.yul\":3253:3285   */\n      calldataload\n        /* \"#utility.yul\":3243:3285   */\n      swap2\n      pop\n        /* \"#utility.yul\":3336:3338   */\n      0x40\n        /* \"#utility.yul\":3325:3334   */\n      dup5\n        /* \"#utility.yul\":3321:3339   */\n      add\n        /* \"#utility.yul\":3308:3340   */\n      calldataload\n        /* \"#utility.yul\":3363:3381   */\n      0xffffffffffffffff\n        /* \"#utility.yul\":3355:3361   */\n      dup2\n        /* \"#utility.yul\":3352:3382   */\n      gt\n        /* \"#utility.yul\":3349:3399   */\n      iszero\n      tag_576\n      jumpi\n        /* \"#utility.yul\":3395:3396   */\n      0x00\n        /* \"#utility.yul\":3392:3393   */\n      dup1\n        /* \"#utility.yul\":3385:3397   */\n      revert\n        /* \"#utility.yul\":3349:3399   */\n    tag_576:\n        /* \"#utility.yul\":3418:3467   */\n      tag_577\n        /* \"#utility.yul\":3459:3466   */\n      dup7\n        /* \"#utility.yul\":3450:3456   */\n      dup3\n        /* \"#utility.yul\":3439:3448   */\n      dup8\n        /* \"#utility.yul\":3435:3457   */\n      add\n        /* \"#utility.yul\":3418:3467   */\n      tag_541\n      jump\t// in\n    tag_577:\n        /* \"#utility.yul\":3408:3467   */\n      swap2\n      pop\n      pop\n        /* \"#utility.yul\":3011:3473   */\n      swap3\n      pop\n      swap3\n      pop\n      swap3\n      jump\t// out\n        /* \"#utility.yul\":3478:3821   */\n    tag_128:\n        /* \"#utility.yul\":3544:3550   */\n      0x00\n        /* \"#utility.yul\":3552:3558   */\n      dup1\n        /* \"#utility.yul\":3605:3607   */\n      0x40\n        /* \"#utility.yul\":3593:3602   */\n      dup4\n        /* \"#utility.yul\":3584:3591   */\n      dup6\n        /* \"#utility.yul\":3580:3603   */\n      sub\n        /* \"#utility.yul\":3576:3608   */\n      slt\n        /* \"#utility.yul\":3573:3625   */\n      iszero\n      tag_579\n      jumpi\n        /* \"#utility.yul\":3621:3622   */\n      0x00\n        /* \"#utility.yul\":3618:3619   */\n      dup1\n        /* \"#utility.yul\":3611:3623   */\n      revert\n        /* \"#utility.yul\":3573:3625   */\n    tag_579:\n        /* \"#utility.yul\":3644:3673   */\n      tag_580\n        /* \"#utility.yul\":3663:3672   */\n      dup4\n        /* \"#utility.yul\":3644:3673   */\n      tag_535\n      jump\t// in\n    tag_580:\n        /* \"#utility.yul\":3634:3673   */\n      swap2\n      pop\n        /* \"#utility.yul\":3723:3725   */\n      0x20\n        /* \"#utility.yul\":3712:3721   */\n      dup4\n        /* \"#utility.yul\":3708:3726   */\n      add\n        /* \"#utility.yul\":3695:3727   */\n      calldataload\n        /* \"#utility.yul\":3767:3771   */\n      0xff\n        /* \"#utility.yul\":3760:3765   */\n      dup2\n        /* \"#utility.yul\":3756:3772   */\n      and\n        /* \"#utility.yul\":3749:3754   */\n      dup2\n        /* \"#utility.yul\":3746:3773   */\n      eq\n        /* \"#utility.yul\":3736:3791   */\n      tag_581\n      jumpi\n        /* \"#utility.yul\":3787:3788   */\n      0x00\n        /* \"#utility.yul\":3784:3785   */\n      dup1\n        /* \"#utility.yul\":3777:3789   */\n      revert\n        /* \"#utility.yul\":3736:3791   */\n    tag_581:\n        /* \"#utility.yul\":3810:3815   */\n      dup1\n        /* \"#utility.yul\":3800:3815   */\n      swap2\n      pop\n      pop\n        /* \"#utility.yul\":3478:3821   */\n      swap3\n      pop\n      swap3\n      swap1\n      pop\n      jump\t// out\n        /* \"#utility.yul\":3826:4192   */\n    tag_55:\n        /* \"#utility.yul\":3893:3899   */\n      0x00\n        /* \"#utility.yul\":3901:3907   */\n      dup1\n        /* \"#utility.yul\":3954:3956   */\n      0x40\n        /* \"#utility.yul\":3942:3951   */\n      dup4\n        /* \"#utility.yul\":3933:3940   */\n      dup6\n        /* \"#utility.yul\":3929:3952   */\n      sub\n        /* \"#utility.yul\":3925:3957   */\n      slt\n        /* \"#utility.yul\":3922:3974   */\n      iszero\n      tag_583\n      jumpi\n        /* \"#utility.yul\":3970:3971   */\n      0x00\n        /* \"#utility.yul\":3967:3968   */\n      dup1\n        /* \"#utility.yul\":3960:3972   */\n      revert\n        /* \"#utility.yul\":3922:3974   */\n    tag_583:\n        /* \"#utility.yul\":3993:4022   */\n      tag_584\n        /* \"#utility.yul\":4012:4021   */\n      dup4\n        /* \"#utility.yul\":3993:4022   */\n      tag_535\n      jump\t// in\n    tag_584:\n        /* \"#utility.yul\":3983:4022   */\n      swap2\n      pop\n        /* \"#utility.yul\":4072:4074   */\n      0x20\n        /* \"#utility.yul\":4061:4070   */\n      dup4\n        /* \"#utility.yul\":4057:4075   */\n      add\n        /* \"#utility.yul\":4044:4076   */\n      calldataload\n        /* \"#utility.yul\":4116:4142   */\n      0xffffffffffffffffffffffff\n        /* \"#utility.yul\":4109:4114   */\n      dup2\n        /* \"#utility.yul\":4105:4143   */\n      and\n        /* \"#utility.yul\":4098:4103   */\n      dup2\n        /* \"#utility.yul\":4095:4144   */\n      eq\n        /* \"#utility.yul\":4085:4162   */\n      tag_581\n      jumpi\n        /* \"#utility.yul\":4158:4159   */\n      0x00\n        /* \"#utility.yul\":4155:4156   */\n      dup1\n        /* \"#utility.yul\":4148:4160   */\n      revert\n        /* \"#utility.yul\":4197:4377   */\n    tag_77:\n        /* \"#utility.yul\":4253:4259   */\n      0x00\n        /* \"#utility.yul\":4306:4308   */\n      0x20\n        /* \"#utility.yul\":4294:4303   */\n      dup3\n        /* \"#utility.yul\":4285:4292   */\n      dup5\n        /* \"#utility.yul\":4281:4304   */\n      sub\n        /* \"#utility.yul\":4277:4309   */\n      slt\n        /* \"#utility.yul\":4274:4326   */\n      iszero\n      tag_587\n      jumpi\n        /* \"#utility.yul\":4322:4323   */\n      0x00\n        /* \"#utility.yul\":4319:4320   */\n      dup1\n        /* \"#utility.yul\":4312:4324   */\n      revert\n        /* \"#utility.yul\":4274:4326   */\n    tag_587:\n        /* \"#utility.yul\":4345:4371   */\n      tag_365\n        /* \"#utility.yul\":4361:4370   */\n      dup3\n        /* \"#utility.yul\":4345:4371   */\n      tag_538\n      jump\t// in\n        /* \"#utility.yul\":4382:4627   */\n    tag_48:\n        /* \"#utility.yul\":4440:4446   */\n      0x00\n        /* \"#utility.yul\":4493:4495   */\n      0x20\n        /* \"#utility.yul\":4481:4490   */\n      dup3\n        /* \"#utility.yul\":4472:4479   */\n      dup5\n        /* \"#utility.yul\":4468:4491   */\n      sub\n        /* \"#utility.yul\":4464:4496   */\n      slt\n        /* \"#utility.yul\":4461:4513   */\n      iszero\n      tag_590\n      jumpi\n        /* \"#utility.yul\":4509:4510   */\n      0x00\n        /* \"#utility.yul\":4506:4507   */\n      dup1\n        /* \"#utility.yul\":4499:4511   */\n      revert\n        /* \"#utility.yul\":4461:4513   */\n    tag_590:\n        /* \"#utility.yul\":4548:4557   */\n      dup2\n        /* \"#utility.yul\":4535:4558   */\n      calldataload\n        /* \"#utility.yul\":4567:4597   */\n      tag_365\n        /* \"#utility.yul\":4591:4596   */\n      dup2\n        /* \"#utility.yul\":4567:4597   */\n      tag_592\n      jump\t// in\n        /* \"#utility.yul\":4632:4881   */\n    tag_269:\n        /* \"#utility.yul\":4701:4707   */\n      0x00\n        /* \"#utility.yul\":4754:4756   */\n      0x20\n        /* \"#utility.yul\":4742:4751   */\n      dup3\n        /* \"#utility.yul\":4733:4740   */\n      dup5\n        /* \"#utility.yul\":4729:4752   */\n      sub\n        /* \"#utility.yul\":4725:4757   */\n      slt\n        /* \"#utility.yul\":4722:4774   */\n      iszero\n      tag_594\n      jumpi\n        /* \"#utility.yul\":4770:4771   */\n      0x00\n        /* \"#utility.yul\":4767:4768   */\n      dup1\n        /* \"#utility.yul\":4760:4772   */\n      revert\n        /* \"#utility.yul\":4722:4774   */\n    tag_594:\n        /* \"#utility.yul\":4802:4811   */\n      dup2\n        /* \"#utility.yul\":4796:4812   */\n      mload\n        /* \"#utility.yul\":4821:4851   */\n      tag_365\n        /* \"#utility.yul\":4845:4850   */\n      dup2\n        /* \"#utility.yul\":4821:4851   */\n      tag_592\n      jump\t// in\n        /* \"#utility.yul\":4886:5066   */\n    tag_65:\n        /* \"#utility.yul\":4945:4951   */\n      0x00\n        /* \"#utility.yul\":4998:5000   */\n      0x20\n        /* \"#utility.yul\":4986:4995   */\n      dup3\n        /* \"#utility.yul\":4977:4984   */\n      dup5\n        /* \"#utility.yul\":4973:4996   */\n      sub\n        /* \"#utility.yul\":4969:5001   */\n      slt\n        /* \"#utility.yul\":4966:5018   */\n      iszero\n      tag_597\n      jumpi\n        /* \"#utility.yul\":5014:5015   */\n      0x00\n        /* \"#utility.yul\":5011:5012   */\n      dup1\n        /* \"#utility.yul\":5004:5016   */\n      revert\n        /* \"#utility.yul\":4966:5018   */\n    tag_597:\n      pop\n        /* \"#utility.yul\":5037:5060   */\n      calldataload\n      swap2\n        /* \"#utility.yul\":4886:5066   */\n      swap1\n      pop\n      jump\t// out\n        /* \"#utility.yul\":5071:5319   */\n    tag_92:\n        /* \"#utility.yul\":5139:5145   */\n      0x00\n        /* \"#utility.yul\":5147:5153   */\n      dup1\n        /* \"#utility.yul\":5200:5202   */\n      0x40\n        /* \"#utility.yul\":5188:5197   */\n      dup4\n        /* \"#utility.yul\":5179:5186   */\n      dup6\n        /* \"#utility.yul\":5175:5198   */\n      sub\n        /* \"#utility.yul\":5171:5203   */\n      slt\n        /* \"#utility.yul\":5168:5220   */\n      iszero\n      tag_599\n      jumpi\n        /* \"#utility.yul\":5216:5217   */\n      0x00\n        /* \"#utility.yul\":5213:5214   */\n      dup1\n        /* \"#utility.yul\":5206:5218   */\n      revert\n        /* \"#utility.yul\":5168:5220   */\n    tag_599:\n      pop\n      pop\n        /* \"#utility.yul\":5239:5262   */\n      dup1\n      calldataload\n      swap3\n        /* \"#utility.yul\":5309:5311   */\n      0x20\n        /* \"#utility.yul\":5294:5312   */\n      swap1\n      swap2\n      add\n        /* \"#utility.yul\":5281:5313   */\n      calldataload\n      swap2\n      pop\n        /* \"#utility.yul\":5071:5319   */\n      jump\t// out\n        /* \"#utility.yul\":5324:5640   */\n    tag_600:\n        /* \"#utility.yul\":5365:5368   */\n      0x00\n        /* \"#utility.yul\":5403:5408   */\n      dup2\n        /* \"#utility.yul\":5397:5409   */\n      mload\n        /* \"#utility.yul\":5430:5436   */\n      dup1\n        /* \"#utility.yul\":5425:5428   */\n      dup5\n        /* \"#utility.yul\":5418:5437   */\n      mstore\n        /* \"#utility.yul\":5446:5509   */\n      tag_602\n        /* \"#utility.yul\":5502:5508   */\n      dup2\n        /* \"#utility.yul\":5495:5499   */\n      0x20\n        /* \"#utility.yul\":5490:5493   */\n      dup7\n        /* \"#utility.yul\":5486:5500   */\n      add\n        /* \"#utility.yul\":5479:5483   */\n      0x20\n        /* \"#utility.yul\":5472:5477   */\n      dup7\n        /* \"#utility.yul\":5468:5484   */\n      add\n        /* \"#utility.yul\":5446:5509   */\n      tag_603\n      jump\t// in\n    tag_602:\n        /* \"#utility.yul\":5554:5556   */\n      0x1f\n        /* \"#utility.yul\":5542:5557   */\n      add\n      not(0x1f)\n        /* \"#utility.yul\":5538:5626   */\n      and\n        /* \"#utility.yul\":5529:5627   */\n      swap3\n      swap1\n      swap3\n      add\n        /* \"#utility.yul\":5629:5633   */\n      0x20\n        /* \"#utility.yul\":5525:5634   */\n      add\n      swap3\n        /* \"#utility.yul\":5324:5640   */\n      swap2\n      pop\n      pop\n      jump\t// out\n        /* \"#utility.yul\":6110:6747   */\n    tag_369:\n        /* \"#utility.yul\":6390:6393   */\n      0x00\n        /* \"#utility.yul\":6428:6434   */\n      dup4\n        /* \"#utility.yul\":6422:6435   */\n      mload\n        /* \"#utility.yul\":6444:6497   */\n      tag_606\n        /* \"#utility.yul\":6490:6496   */\n      dup2\n        /* \"#utility.yul\":6485:6488   */\n      dup5\n        /* \"#utility.yul\":6478:6482   */\n      0x20\n        /* \"#utility.yul\":6470:6476   */\n      dup9\n        /* \"#utility.yul\":6466:6483   */\n      add\n        /* \"#utility.yul\":6444:6497   */\n      tag_603\n      jump\t// in\n    tag_606:\n        /* \"#utility.yul\":6560:6573   */\n      dup4\n      mload\n        /* \"#utility.yul\":6519:6535   */\n      swap1\n      dup4\n      add\n      swap1\n        /* \"#utility.yul\":6582:6639   */\n      tag_607\n        /* \"#utility.yul\":6560:6573   */\n      dup2\n        /* \"#utility.yul\":6519:6535   */\n      dup4\n        /* \"#utility.yul\":6616:6620   */\n      0x20\n        /* \"#utility.yul\":6604:6621   */\n      dup9\n      add\n        /* \"#utility.yul\":6582:6639   */\n      tag_603\n      jump\t// in\n    tag_607:\n        /* \"#utility.yul\":6704:6711   */\n      0x2e6a736f6e000000000000000000000000000000000000000000000000000000\n        /* \"#utility.yul\":6661:6681   */\n      swap2\n      add\n        /* \"#utility.yul\":6690:6712   */\n      swap1\n      dup2\n      mstore\n        /* \"#utility.yul\":6739:6740   */\n      0x05\n        /* \"#utility.yul\":6728:6741   */\n      add\n      swap5\n        /* \"#utility.yul\":6110:6747   */\n      swap4\n      pop\n      pop\n      pop\n      pop\n      jump\t// out\n        /* \"#utility.yul\":7642:8153   */\n    tag_346:\n        /* \"#utility.yul\":7836:7840   */\n      0x00\n      sub(shl(0xa0, 0x01), 0x01)\n        /* \"#utility.yul\":7946:7948   */\n      dup1\n        /* \"#utility.yul\":7938:7944   */\n      dup8\n        /* \"#utility.yul\":7934:7949   */\n      and\n        /* \"#utility.yul\":7923:7932   */\n      dup4\n        /* \"#utility.yul\":7916:7950   */\n      mstore\n        /* \"#utility.yul\":7998:8000   */\n      dup1\n        /* \"#utility.yul\":7990:7996   */\n      dup7\n        /* \"#utility.yul\":7986:8001   */\n      and\n        /* \"#utility.yul\":7981:7983   */\n      0x20\n        /* \"#utility.yul\":7970:7979   */\n      dup5\n        /* \"#utility.yul\":7966:7984   */\n      add\n        /* \"#utility.yul\":7959:8002   */\n      mstore\n      pop\n        /* \"#utility.yul\":8038:8044   */\n      dup4\n        /* \"#utility.yul\":8033:8035   */\n      0x40\n        /* \"#utility.yul\":8022:8031   */\n      dup4\n        /* \"#utility.yul\":8018:8036   */\n      add\n        /* \"#utility.yul\":8011:8045   */\n      mstore\n        /* \"#utility.yul\":8081:8084   */\n      0x80\n        /* \"#utility.yul\":8076:8078   */\n      0x60\n        /* \"#utility.yul\":8065:8074   */\n      dup4\n        /* \"#utility.yul\":8061:8079   */\n      add\n        /* \"#utility.yul\":8054:8085   */\n      mstore\n        /* \"#utility.yul\":8102:8147   */\n      tag_612\n        /* \"#utility.yul\":8142:8145   */\n      0x80\n        /* \"#utility.yul\":8131:8140   */\n      dup4\n        /* \"#utility.yul\":8127:8146   */\n      add\n        /* \"#utility.yul\":8119:8125   */\n      dup5\n        /* \"#utility.yul\":8102:8147   */\n      tag_600\n      jump\t// in\n    tag_612:\n        /* \"#utility.yul\":8094:8147   */\n      swap7\n        /* \"#utility.yul\":7642:8153   */\n      swap6\n      pop\n      pop\n      pop\n      pop\n      pop\n      pop\n      jump\t// out\n        /* \"#utility.yul\":10528:10747   */\n    tag_61:\n        /* \"#utility.yul\":10677:10679   */\n      0x20\n        /* \"#utility.yul\":10666:10675   */\n      dup2\n        /* \"#utility.yul\":10659:10680   */\n      mstore\n        /* \"#utility.yul\":10640:10644   */\n      0x00\n        /* \"#utility.yul\":10697:10741   */\n      tag_365\n        /* \"#utility.yul\":10737:10739   */\n      0x20\n        /* \"#utility.yul\":10726:10735   */\n      dup4\n        /* \"#utility.yul\":10722:10740   */\n      add\n        /* \"#utility.yul\":10714:10720   */\n      dup5\n        /* \"#utility.yul\":10697:10741   */\n      tag_600\n      jump\t// in\n        /* \"#utility.yul\":18772:18900   */\n    tag_440:\n        /* \"#utility.yul\":18812:18815   */\n      0x00\n        /* \"#utility.yul\":18843:18844   */\n      dup3\n        /* \"#utility.yul\":18839:18845   */\n      not\n        /* \"#utility.yul\":18836:18837   */\n      dup3\n        /* \"#utility.yul\":18833:18846   */\n      gt\n        /* \"#utility.yul\":18830:18869   */\n      iszero\n      tag_647\n      jumpi\n        /* \"#utility.yul\":18849:18867   */\n      tag_647\n      tag_648\n      jump\t// in\n    tag_647:\n      pop\n        /* \"#utility.yul\":18885:18894   */\n      add\n      swap1\n        /* \"#utility.yul\":18772:18900   */\n      jump\t// out\n        /* \"#utility.yul\":18905:19025   */\n    tag_339:\n        /* \"#utility.yul\":18945:18946   */\n      0x00\n        /* \"#utility.yul\":18971:18972   */\n      dup3\n        /* \"#utility.yul\":18961:18996   */\n      tag_651\n      jumpi\n        /* \"#utility.yul\":18976:18994   */\n      tag_651\n      tag_652\n      jump\t// in\n    tag_651:\n      pop\n        /* \"#utility.yul\":19010:19019   */\n      div\n      swap1\n        /* \"#utility.yul\":18905:19025   */\n      jump\t// out\n        /* \"#utility.yul\":19030:19258   */\n    tag_341:\n        /* \"#utility.yul\":19070:19077   */\n      0x00\n        /* \"#utility.yul\":19196:19197   */\n      dup2\n      not(0x00)\n        /* \"#utility.yul\":19124:19198   */\n      div\n        /* \"#utility.yul\":19121:19122   */\n      dup4\n        /* \"#utility.yul\":19118:19199   */\n      gt\n        /* \"#utility.yul\":19113:19114   */\n      dup3\n        /* \"#utility.yul\":19106:19115   */\n      iszero\n        /* \"#utility.yul\":19099:19116   */\n      iszero\n        /* \"#utility.yul\":19095:19200   */\n      and\n        /* \"#utility.yul\":19092:19223   */\n      iszero\n      tag_655\n      jumpi\n        /* \"#utility.yul\":19203:19221   */\n      tag_655\n      tag_648\n      jump\t// in\n    tag_655:\n      pop\n        /* \"#utility.yul\":19243:19252   */\n      mul\n      swap1\n        /* \"#utility.yul\":19030:19258   */\n      jump\t// out\n        /* \"#utility.yul\":19263:19388   */\n    tag_296:\n        /* \"#utility.yul\":19303:19307   */\n      0x00\n        /* \"#utility.yul\":19331:19332   */\n      dup3\n        /* \"#utility.yul\":19328:19329   */\n      dup3\n        /* \"#utility.yul\":19325:19333   */\n      lt\n        /* \"#utility.yul\":19322:19356   */\n      iszero\n      tag_658\n      jumpi\n        /* \"#utility.yul\":19336:19354   */\n      tag_658\n      tag_648\n      jump\t// in\n    tag_658:\n      pop\n        /* \"#utility.yul\":19373:19382   */\n      sub\n      swap1\n        /* \"#utility.yul\":19263:19388   */\n      jump\t// out\n        /* \"#utility.yul\":19393:19651   */\n    tag_603:\n        /* \"#utility.yul\":19465:19466   */\n      0x00\n        /* \"#utility.yul\":19475:19588   */\n    tag_660:\n        /* \"#utility.yul\":19489:19495   */\n      dup4\n        /* \"#utility.yul\":19486:19487   */\n      dup2\n        /* \"#utility.yul\":19483:19496   */\n      lt\n        /* \"#utility.yul\":19475:19588   */\n      iszero\n      tag_662\n      jumpi\n        /* \"#utility.yul\":19565:19576   */\n      dup2\n      dup2\n      add\n        /* \"#utility.yul\":19559:19577   */\n      mload\n        /* \"#utility.yul\":19546:19557   */\n      dup4\n      dup3\n      add\n        /* \"#utility.yul\":19539:19578   */\n      mstore\n        /* \"#utility.yul\":19511:19513   */\n      0x20\n        /* \"#utility.yul\":19504:19514   */\n      add\n        /* \"#utility.yul\":19475:19588   */\n      jump(tag_660)\n    tag_662:\n        /* \"#utility.yul\":19606:19612   */\n      dup4\n        /* \"#utility.yul\":19603:19604   */\n      dup2\n        /* \"#utility.yul\":19600:19613   */\n      gt\n        /* \"#utility.yul\":19597:19645   */\n      iszero\n      tag_351\n      jumpi\n      pop\n      pop\n        /* \"#utility.yul\":19641:19642   */\n      0x00\n        /* \"#utility.yul\":19623:19639   */\n      swap2\n      add\n        /* \"#utility.yul\":19616:19643   */\n      mstore\n        /* \"#utility.yul\":19393:19651   */\n      jump\t// out\n        /* \"#utility.yul\":19656:20093   */\n    tag_224:\n        /* \"#utility.yul\":19735:19736   */\n      0x01\n        /* \"#utility.yul\":19731:19743   */\n      dup2\n      dup2\n      shr\n      swap1\n        /* \"#utility.yul\":19778:19790   */\n      dup3\n      and\n      dup1\n        /* \"#utility.yul\":19799:19860   */\n      tag_665\n      jumpi\n        /* \"#utility.yul\":19853:19857   */\n      0x7f\n        /* \"#utility.yul\":19845:19851   */\n      dup3\n        /* \"#utility.yul\":19841:19858   */\n      and\n        /* \"#utility.yul\":19831:19858   */\n      swap2\n      pop\n        /* \"#utility.yul\":19799:19860   */\n    tag_665:\n        /* \"#utility.yul\":19906:19908   */\n      0x20\n        /* \"#utility.yul\":19898:19904   */\n      dup3\n        /* \"#utility.yul\":19895:19909   */\n      lt\n        /* \"#utility.yul\":19875:19893   */\n      dup2\n        /* \"#utility.yul\":19872:19910   */\n      eq\n        /* \"#utility.yul\":19869:20087   */\n      iszero\n      tag_666\n      jumpi\n        /* \"#utility.yul\":19943:20020   */\n      0x4e487b7100000000000000000000000000000000000000000000000000000000\n        /* \"#utility.yul\":19940:19941   */\n      0x00\n        /* \"#utility.yul\":19933:20021   */\n      mstore\n        /* \"#utility.yul\":20044:20048   */\n      0x22\n        /* \"#utility.yul\":20041:20042   */\n      0x04\n        /* \"#utility.yul\":20034:20049   */\n      mstore\n        /* \"#utility.yul\":20072:20076   */\n      0x24\n        /* \"#utility.yul\":20069:20070   */\n      0x00\n        /* \"#utility.yul\":20062:20077   */\n      revert\n        /* \"#utility.yul\":19869:20087   */\n    tag_666:\n      pop\n        /* \"#utility.yul\":19656:20093   */\n      swap2\n      swap1\n      pop\n      jump\t// out\n        /* \"#utility.yul\":20098:20293   */\n    tag_429:\n        /* \"#utility.yul\":20137:20140   */\n      0x00\n      not(0x00)\n        /* \"#utility.yul\":20161:20166   */\n      dup3\n        /* \"#utility.yul\":20158:20235   */\n      eq\n        /* \"#utility.yul\":20155:20258   */\n      iszero\n      tag_669\n      jumpi\n        /* \"#utility.yul\":20238:20256   */\n      tag_669\n      tag_648\n      jump\t// in\n    tag_669:\n      pop\n        /* \"#utility.yul\":20285:20286   */\n      0x01\n        /* \"#utility.yul\":20274:20287   */\n      add\n      swap1\n        /* \"#utility.yul\":20098:20293   */\n      jump\t// out\n        /* \"#utility.yul\":20298:20410   */\n    tag_318:\n        /* \"#utility.yul\":20330:20331   */\n      0x00\n        /* \"#utility.yul\":20356:20357   */\n      dup3\n        /* \"#utility.yul\":20346:20381   */\n      tag_672\n      jumpi\n        /* \"#utility.yul\":20361:20379   */\n      tag_672\n      tag_652\n      jump\t// in\n    tag_672:\n      pop\n        /* \"#utility.yul\":20395:20404   */\n      mod\n      swap1\n        /* \"#utility.yul\":20298:20410   */\n      jump\t// out\n        /* \"#utility.yul\":20415:20599   */\n    tag_648:\n        /* \"#utility.yul\":20467:20544   */\n      0x4e487b7100000000000000000000000000000000000000000000000000000000\n        /* \"#utility.yul\":20464:20465   */\n      0x00\n        /* \"#utility.yul\":20457:20545   */\n      mstore\n        /* \"#utility.yul\":20564:20568   */\n      0x11\n        /* \"#utility.yul\":20561:20562   */\n      0x04\n        /* \"#utility.yul\":20554:20569   */\n      mstore\n        /* \"#utility.yul\":20588:20592   */\n      0x24\n        /* \"#utility.yul\":20585:20586   */\n      0x00\n        /* \"#utility.yul\":20578:20593   */\n      revert\n        /* \"#utility.yul\":20604:20788   */\n    tag_652:\n        /* \"#utility.yul\":20656:20733   */\n      0x4e487b7100000000000000000000000000000000000000000000000000000000\n        /* \"#utility.yul\":20653:20654   */\n      0x00\n        /* \"#utility.yul\":20646:20734   */\n      mstore\n        /* \"#utility.yul\":20753:20757   */\n      0x12\n        /* \"#utility.yul\":20750:20751   */\n      0x04\n        /* \"#utility.yul\":20743:20758   */\n      mstore\n        /* \"#utility.yul\":20777:20781   */\n      0x24\n        /* \"#utility.yul\":20774:20775   */\n      0x00\n        /* \"#utility.yul\":20767:20782   */\n      revert\n        /* \"#utility.yul\":20793:20977   */\n    tag_474:\n        /* \"#utility.yul\":20845:20922   */\n      0x4e487b7100000000000000000000000000000000000000000000000000000000\n        /* \"#utility.yul\":20842:20843   */\n      0x00\n        /* \"#utility.yul\":20835:20923   */\n      mstore\n        /* \"#utility.yul\":20942:20946   */\n      0x21\n        /* \"#utility.yul\":20939:20940   */\n      0x04\n        /* \"#utility.yul\":20932:20947   */\n      mstore\n        /* \"#utility.yul\":20966:20970   */\n      0x24\n        /* \"#utility.yul\":20963:20964   */\n      0x00\n        /* \"#utility.yul\":20956:20971   */\n      revert\n        /* \"#utility.yul\":20982:21166   */\n    tag_443:\n        /* \"#utility.yul\":21034:21111   */\n      0x4e487b7100000000000000000000000000000000000000000000000000000000\n        /* \"#utility.yul\":21031:21032   */\n      0x00\n        /* \"#utility.yul\":21024:21112   */\n      mstore\n        /* \"#utility.yul\":21131:21135   */\n      0x32\n        /* \"#utility.yul\":21128:21129   */\n      0x04\n        /* \"#utility.yul\":21121:21136   */\n      mstore\n        /* \"#utility.yul\":21155:21159   */\n      0x24\n        /* \"#utility.yul\":21152:21153   */\n      0x00\n        /* \"#utility.yul\":21145:21160   */\n      revert\n        /* \"#utility.yul\":21171:21355   */\n    tag_433:\n        /* \"#utility.yul\":21223:21300   */\n      0x4e487b7100000000000000000000000000000000000000000000000000000000\n        /* \"#utility.yul\":21220:21221   */\n      0x00\n        /* \"#utility.yul\":21213:21301   */\n      mstore\n        /* \"#utility.yul\":21320:21324   */\n      0x41\n        /* \"#utility.yul\":21317:21318   */\n      0x04\n        /* \"#utility.yul\":21310:21325   */\n      mstore\n        /* \"#utility.yul\":21344:21348   */\n      0x24\n        /* \"#utility.yul\":21341:21342   */\n      0x00\n        /* \"#utility.yul\":21334:21349   */\n      revert\n        /* \"#utility.yul\":21360:21537   */\n    tag_592:\n        /* \"#utility.yul\":21445:21511   */\n      0xffffffff00000000000000000000000000000000000000000000000000000000\n        /* \"#utility.yul\":21438:21443   */\n      dup2\n        /* \"#utility.yul\":21434:21512   */\n      and\n        /* \"#utility.yul\":21427:21432   */\n      dup2\n        /* \"#utility.yul\":21424:21513   */\n      eq\n        /* \"#utility.yul\":21414:21531   */\n      tag_379\n      jumpi\n        /* \"#utility.yul\":21527:21528   */\n      0x00\n        /* \"#utility.yul\":21524:21525   */\n      dup1\n        /* \"#utility.yul\":21517:21529   */\n      revert\n\n    auxdata: 0xa2646970667358221220055248b8dfac0254b0efb718e6e4d7b414c4f9789f823207f93ff18b7ae0650864736f6c63430008070033\n}\n",
				"bytecode": {
					"linkReferences": {},
					"object": "6101406040526000600955600b80546001600160801b031916620bb800179055600d805460ff60a01b191690553480156200003957600080fd5b5060405162003048380380620030488339810160408190526200005c9162000428565b6040518060400160405280600b81526020016a2820a72a2422a92fa1a7a760a91b815250604051806040016040528060018152602001603160f81b81525087878160009080519060200190620000b4929190620002ae565b508051620000ca906001906020840190620002ae565b5050825160208085019190912083518483012060e08290526101008190524660a0818152604080517f8b73c3c69bb8fe3d512ecc4cf759cc79239f7b179b0ffacaa9a75d522b39400f81880181905281830187905260608201869052608082019490945230818401528151808203909301835260c0019052805194019390932091935091906080523060601b60c05261012052506200017592506200016f9150503390565b62000245565b83516200018a906008906020870190620002ae565b50612710826001600160601b03161115620001eb5760405162461bcd60e51b815260206004820152601360248201527f63616e6e6f742065786365656420313030303000000000000000000000000000604482015260640160405180910390fd5b6c0100000000000000000000000033026001600160601b03831617600a5562000216600184620004f6565b600c55600d80546001600160a01b0319166001600160a01b0392909216919091179055506200056f9350505050565b60006200025a6007546001600160a01b031690565b600780546001600160a01b0319166001600160a01b0385811691821790925560405192935091908316907f0d18b5fd22306e373229b9439188228edca81207d1667f604daf6cef8aa3ee6790600090a35050565b828054620002bc906200051c565b90600052602060002090601f016020900481019282620002e057600085556200032b565b82601f10620002fb57805160ff19168380011785556200032b565b828001600101855582156200032b579182015b828111156200032b5782518255916020019190600101906200030e565b50620003399291506200033d565b5090565b5b808211156200033957600081556001016200033e565b80516001600160a01b03811681146200036c57600080fd5b919050565b600082601f8301126200038357600080fd5b81516001600160401b0380821115620003a057620003a062000559565b604051601f8301601f19908116603f01168101908282118183101715620003cb57620003cb62000559565b81604052838152602092508683858801011115620003e857600080fd5b600091505b838210156200040c5785820183015181830184015290820190620003ed565b838211156200041e5760008385830101525b9695505050505050565b60008060008060008060c087890312156200044257600080fd5b86516001600160401b03808211156200045a57600080fd5b620004688a838b0162000371565b975060208901519150808211156200047f57600080fd5b6200048d8a838b0162000371565b96506040890151915080821115620004a457600080fd5b50620004b389828a0162000371565b606089015160808a0151919650945090506001600160601b0381168114620004da57600080fd5b9150620004ea60a0880162000354565b90509295509295509295565b6000828210156200051757634e487b7160e01b600052601160045260246000fd5b500390565b600181811c908216806200053157607f821691505b602082108114156200055357634e487b7160e01b600052602260045260246000fd5b50919050565b634e487b7160e01b600052604160045260246000fd5b60805160a05160c05160601c60e0516101005161012051612a86620005c2600039600061221801526000612267015260006122420152600061219b015260006121c5015260006121ef0152612a866000f3fe6080604052600436106102195760003560e01c80638da5cb5b1161011d578063bdb4b848116100b0578063e6c3b1f61161007f578063f2fde38b11610064578063f2fde38b146106dc578063f59e26d0146106fc578063fbbd1dc01461071c57600080fd5b8063e6c3b1f614610674578063e985e9c5146106a157600080fd5b8063bdb4b84814610604578063c2e63def1461061a578063c87b56dd1461063a578063d83d0f761461065a57600080fd5b8063a22cb465116100ec578063a22cb46514610574578063a2e6961314610594578063ad2f852a146105b4578063b88d4fde146105e457600080fd5b80638da5cb5b1461051957806395d89b4114610537578063a06cb7191461054c578063a0ef91df1461055f57600080fd5b80632a55205a116101b05780636c0360eb1161017f57806373c7400e1161016457806373c7400e1461049757806379d72794146104d95780638545f4ea146104f957600080fd5b80636c0360eb1461044757806370a082311461045c57600080fd5b80632a55205a1461036557806332cb6b0c146103a457806342842e0e146103f15780636352211e1461041157600080fd5b8063095ea7b3116101ec578063095ea7b3146102e55780630e2d56cf14610305578063151370451461032557806323b872dd1461034557600080fd5b806301ffc9a71461021e57806302fa7c471461025357806306fdde0314610275578063081812fc14610297575b600080fd5b34801561022a57600080fd5b5061023e6102393660046126df565b61072f565b60405190151581526020015b60405180910390f35b34801561025f57600080fd5b5061027361026e366004612687565b610860565b005b34801561028157600080fd5b5061028a61096f565b60405161024a9190612813565b3480156102a357600080fd5b506102cd6102b2366004612719565b6004602052600090815260409020546001600160a01b031681565b6040516001600160a01b03909116815260200161024a565b3480156102f157600080fd5b506102736103003660046125c9565b6109fd565b34801561031157600080fd5b506102736103203660046126c4565b610b06565b34801561033157600080fd5b506102736103403660046124ad565b610b91565b34801561035157600080fd5b506102736103603660046124fb565b610c25565b34801561037157600080fd5b50610385610380366004612732565b610e32565b604080516001600160a01b03909316835260208301919091520161024a565b3480156103b057600080fd5b50600b546103d19061010090046effffffffffffffffffffffffffffff1681565b6040516effffffffffffffffffffffffffffff909116815260200161024a565b3480156103fd57600080fd5b5061027361040c3660046124fb565b610e68565b34801561041d57600080fd5b506102cd61042c366004612719565b6003602052600090815260409020546001600160a01b031681565b34801561045357600080fd5b5061028a610fad565b34801561046857600080fd5b506104896104773660046124ad565b60026020526000908152604090205481565b60405190815260200161024a565b3480156104a357600080fd5b50600a546104bc906bffffffffffffffffffffffff1681565b6040516bffffffffffffffffffffffff909116815260200161024a565b3480156104e557600080fd5b506102736104f436600461264a565b610fba565b34801561050557600080fd5b50610273610514366004612719565b611083565b34801561052557600080fd5b506007546001600160a01b03166102cd565b34801561054357600080fd5b5061028a6110ee565b61027361055a3660046124ad565b6110fb565b34801561056b57600080fd5b506102736112fc565b34801561058057600080fd5b5061027361058f36600461259f565b61140f565b3480156105a057600080fd5b506104896105af366004612719565b611499565b3480156105c057600080fd5b50600a546102cd906c0100000000000000000000000090046001600160a01b031681565b3480156105f057600080fd5b506102736105ff366004612537565b6114c3565b34801561061057600080fd5b50610489600c5481565b34801561062657600080fd5b506102cd6106353660046125f3565b6115f5565b34801561064657600080fd5b5061028a610655366004612719565b61160a565b34801561066657600080fd5b50600b5461023e9060ff1681565b34801561068057600080fd5b5061048961068f366004612719565b60056020526000908152604090205481565b3480156106ad57600080fd5b5061023e6106bc3660046124c8565b600660209081526000928352604080842090915290825290205460ff1681565b3480156106e857600080fd5b506102736106f73660046124ad565b6116dd565b34801561070857600080fd5b506102736107173660046126c4565b611799565b61027361072a3660046125f3565b61183d565b60007f01ffc9a7000000000000000000000000000000000000000000000000000000007fffffffff00000000000000000000000000000000000000000000000000000000831614806107c257507f80ac58cd000000000000000000000000000000000000000000000000000000007fffffffff000000000000000000000000000000000000000000000000000000008316145b8061080e57507f5b5e139f000000000000000000000000000000000000000000000000000000007fffffffff000000000000000000000000000000000000000000000000000000008316145b8061085a57507f2a55205a000000000000000000000000000000000000000000000000000000007fffffffff000000000000000000000000000000000000000000000000000000008316145b92915050565b6007546001600160a01b031633146108bf5760405162461bcd60e51b815260206004820152601760248201527f43616c6c6572206973206e6f7420746865206f776e657200000000000000000060448201526064015b60405180910390fd5b612710816bffffffffffffffffffffffff16111561091f5760405162461bcd60e51b815260206004820152601360248201527f63616e6e6f74206578636565642031303030300000000000000000000000000060448201526064016108b6565b6bffffffffffffffffffffffff166001600160a01b039091166c01000000000000000000000000027fffffffffffffffffffffffffffffffffffffffff0000000000000000000000001617600a55565b6000805461097c906128b4565b80601f01602080910402602001604051908101604052809291908181526020018280546109a8906128b4565b80156109f55780601f106109ca576101008083540402835291602001916109f5565b820191906000526020600020905b8154815290600101906020018083116109d857829003601f168201915b505050505081565b6000818152600360205260409020546001600160a01b031633811480610a4657506001600160a01b038116600090815260066020908152604080832033845290915290205460ff165b610a925760405162461bcd60e51b815260206004820152600e60248201527f4e6f7420617574686f72697a656400000000000000000000000000000000000060448201526064016108b6565b60008281526004602052604080822080547fffffffffffffffffffffffff0000000000000000000000000000000000000000166001600160a01b0387811691821790925591518593918516917f8c5be1e5ebec7d5bd14f71427d1e84f3dd0314c0f7b2291e5b200ac8c7c3b92591a4505050565b6007546001600160a01b03163314610b605760405162461bcd60e51b815260206004820152601760248201527f43616c6c6572206973206e6f7420746865206f776e657200000000000000000060448201526064016108b6565b600b80547fffffffffffffffffffffffffffffffffffffffffffffffffffffffffffffff0016911515919091179055565b6007546001600160a01b03163314610beb5760405162461bcd60e51b815260206004820152601760248201527f43616c6c6572206973206e6f7420746865206f776e657200000000000000000060448201526064016108b6565b600d80547fffffffffffffffffffffffff0000000000000000000000000000000000000000166001600160a01b0392909216919091179055565b6000818152600360205260409020546001600160a01b03848116911614610c8e5760405162461bcd60e51b815260206004820152600a60248201527f57524f4e472046524f4d0000000000000000000000000000000000000000000060448201526064016108b6565b6001600160a01b038216610ce45760405162461bcd60e51b815260206004820152600860248201527f57524f4e4720544f00000000000000000000000000000000000000000000000060448201526064016108b6565b336001600160a01b0384161480610d1e57506001600160a01b038316600090815260066020908152604080832033845290915290205460ff165b80610d3f57506000818152600460205260409020546001600160a01b031633145b610d8b5760405162461bcd60e51b815260206004820152600e60248201527f4e4f5420415554484f52495a454400000000000000000000000000000000000060448201526064016108b6565b6001600160a01b0380841660008181526002602090815260408083208054600019019055938616808352848320805460010190558583526003825284832080547fffffffffffffffffffffffff00000000000000000000000000000000000000009081168317909155600490925284832080549092169091559251849392917fddf252ad1be2c89b69c2b068fc378daa952ba7f163c4a11628f55a4df523b3ef91a4505050565b600a5460009081906c0100000000000000000000000090046001600160a01b0316610e5c84611499565b915091505b9250929050565b610e73838383610c25565b6001600160a01b0382163b1580610f5c57506040517f150b7a02000000000000000000000000000000000000000000000000000000008082523360048301526001600160a01b03858116602484015260448301849052608060648401526000608484015290919084169063150b7a029060a401602060405180830381600087803b158015610f0057600080fd5b505af1158015610f14573d6000803e3d6000fd5b505050506040513d601f19601f82011682018060405250810190610f3891906126fc565b7fffffffff0000000000000000000000000000000000000000000000000000000016145b610fa85760405162461bcd60e51b815260206004820152601060248201527f554e534146455f524543495049454e540000000000000000000000000000000060448201526064016108b6565b505050565b6008805461097c906128b4565b6007546001600160a01b031633146110145760405162461bcd60e51b815260206004820152601760248201527f43616c6c6572206973206e6f7420746865206f776e657200000000000000000060448201526064016108b6565b610bb860095411156110685760405162461bcd60e51b815260206004820152601260248201527f4d617820737570706c792072656163686564000000000000000000000000000060448201526064016108b6565b600980546001019081905561107f90839083611a8a565b5050565b6007546001600160a01b031633146110dd5760405162461bcd60e51b815260206004820152601760248201527f43616c6c6572206973206e6f7420746865206f776e657200000000000000000060448201526064016108b6565b6110e8600182612871565b600c5550565b6001805461097c906128b4565b600d5474010000000000000000000000000000000000000000900460ff16156111665760405162461bcd60e51b815260206004820152601160248201527f4d696e74696e672069732070617573656400000000000000000000000000000060448201526064016108b6565b600c5434116111b75760405162461bcd60e51b815260206004820152600f60248201527f4e6f7420656e676f75676820657468000000000000000000000000000000000060448201526064016108b6565b600b5460ff166112095760405162461bcd60e51b815260206004820152601860248201527f4f70656e206d696e74696e67206e6f7420616c6c6f776564000000000000000060448201526064016108b6565b600b546009546101009091046effffffffffffffffffffffffffffff1610156112745760405162461bcd60e51b815260206004820152601260248201527f4d617820737570706c792072656163686564000000000000000000000000000060448201526064016108b6565b60098054600101908190556040517fffffffffffffffffffffffffffffffffffffffff0000000000000000000000003360601b16602082015242603482015260548101919091524460748201526000906003906094016040516020818303038152906040528051906020012060001c6112ed9190612923565b905061107f8260095483611a8a565b6007546001600160a01b031633146113565760405162461bcd60e51b815260206004820152601760248201527f43616c6c6572206973206e6f7420746865206f776e657200000000000000000060448201526064016108b6565b600061136a6007546001600160a01b031690565b90506000816001600160a01b03164760405160006040518083038185875af1925050503d80600081146113b9576040519150601f19603f3d011682016040523d82523d6000602084013e6113be565b606091505b505090508061107f5760405162461bcd60e51b815260206004820152601260248201527f5472616e73616374696f6e206661696c6564000000000000000000000000000060448201526064016108b6565b3360008181526006602090815260408083206001600160a01b0387168085529083529281902080547fffffffffffffffffffffffffffffffffffffffffffffffffffffffffffffff001686151590811790915590519081529192917f17307eab39ab6107e8899845ad3d59bd9653f200f220920489ca2b5937696c31910160405180910390a35050565b600a546000906bffffffffffffffffffffffff166114b96127108461283e565b61085a9190612852565b6114ce848484610c25565b6001600160a01b0383163b15806115a357506040517f150b7a0200000000000000000000000000000000000000000000000000000000808252906001600160a01b0385169063150b7a029061152d9033908990889088906004016127d7565b602060405180830381600087803b15801561154757600080fd5b505af115801561155b573d6000803e3d6000fd5b505050506040513d601f19601f8201168201806040525081019061157f91906126fc565b7fffffffff0000000000000000000000000000000000000000000000000000000016145b6115ef5760405162461bcd60e51b815260206004820152601060248201527f554e534146455f524543495049454e540000000000000000000000000000000060448201526064016108b6565b50505050565b6000611602848484611bd6565b949350505050565b6000818152600360205260409020546060906001600160a01b03166116715760405162461bcd60e51b815260206004820152601c60248201527f4e6f20746f6b656e20776974682074686973204964206578697374730000000060448201526064016108b6565b600061167b611bf8565b9050600081511161169b57604051806020016040528060008152506116d6565b60008381526005602052604090205481906116b590611c8a565b6040516020016116c6929190612780565b6040516020818303038152906040525b9392505050565b6007546001600160a01b031633146117375760405162461bcd60e51b815260206004820152601760248201527f43616c6c6572206973206e6f7420746865206f776e657200000000000000000060448201526064016108b6565b6001600160a01b03811661178d5760405162461bcd60e51b815260206004820152601c60248201527f4f776e65722063616e6e6f74206265207a65726f20616464726573730000000060448201526064016108b6565b61179681611dbc565b50565b6007546001600160a01b031633146117f35760405162461bcd60e51b815260206004820152601760248201527f43616c6c6572206973206e6f7420746865206f776e657200000000000000000060448201526064016108b6565b600d805491151574010000000000000000000000000000000000000000027fffffffffffffffffffffff00ffffffffffffffffffffffffffffffffffffffff909216919091179055565b600d5474010000000000000000000000000000000000000000900460ff16156118a85760405162461bcd60e51b815260206004820152601160248201527f4d696e74696e672069732070617573656400000000000000000000000000000060448201526064016108b6565b600b546009546101009091046effffffffffffffffffffffffffffff1610156119135760405162461bcd60e51b815260206004820152601260248201527f4d617820737570706c792072656163686564000000000000000000000000000060448201526064016108b6565b600d546001600160a01b031661192a3384846115f5565b6001600160a01b0316146119805760405162461bcd60e51b815260206004820152601160248201527f496e76616c6964207369676e617475726500000000000000000000000000000060448201526064016108b6565b6000612710600c54846127106119969190612871565b6119a09190612852565b6119aa919061283e565b90508034116119fb5760405162461bcd60e51b815260206004820152600f60248201527f4e6f7420656e676f75676820657468000000000000000000000000000000000060448201526064016108b6565b60098054600101908190556040517fffffffffffffffffffffffffffffffffffffffff0000000000000000000000003360601b16602082015242603482015260548101919091524460748201526000906003906094016040516020818303038152906040528051906020012060001c611a749190612923565b9050611a838560095483611a8a565b5050505050565b6001600160a01b038316611ae05760405162461bcd60e51b815260206004820152600a60248201527f494e56414c49445f544f0000000000000000000000000000000000000000000060448201526064016108b6565b6000828152600360205260409020546001600160a01b031615611b455760405162461bcd60e51b815260206004820152600e60248201527f414c52454144595f4d494e54454400000000000000000000000000000000000060448201526064016108b6565b6001600160a01b0383166000818152600260209081526040808320805460010190558583526003825280832080547fffffffffffffffffffffffff00000000000000000000000000000000000000001685179055600590915280822060ff8516905551849291907fddf252ad1be2c89b69c2b068fc378daa952ba7f163c4a11628f55a4df523b3ef908290a4505050565b600080611be38585611e3c565b9050611bef8184611ea3565b95945050505050565b606060088054611c07906128b4565b80601f0160208091040260200160405190810160405280929190818152602001828054611c33906128b4565b8015611c805780601f10611c5557610100808354040283529160200191611c80565b820191906000526020600020905b815481529060010190602001808311611c6357829003601f168201915b5050505050905090565b606081611cca57505060408051808201909152600181527f3000000000000000000000000000000000000000000000000000000000000000602082015290565b8160005b8115611cf45780611cde81612908565b9150611ced9050600a8361283e565b9150611cce565b60008167ffffffffffffffff811115611d0f57611d0f6129f3565b6040519080825280601f01601f191660200182016040528015611d39576020820181803683370190505b5090505b841561160257611d4e600183612871565b9150611d5b600a86612923565b611d66906030612826565b60f81b818381518110611d7b57611d7b6129c4565b60200101907effffffffffffffffffffffffffffffffffffffffffffffffffffffffffffff1916908160001a905350611db5600a8661283e565b9450611d3d565b6000611dd06007546001600160a01b031690565b600780547fffffffffffffffffffffffff0000000000000000000000000000000000000000166001600160a01b0385811691821790925560405192935091908316907f0d18b5fd22306e373229b9439188228edca81207d1667f604daf6cef8aa3ee6790600090a35050565b604080517f8c9952748b13138200d658bbcdd87eee4fa0bcca0e5ca689d665e1a1ecce8f7b60208201526001600160a01b03841691810191909152606081018290526000906116d69060800160405160208183030381529060405280519060200120611ec7565b6000806000611eb28585611f30565b91509150611ebf81611f9d565b509392505050565b600061085a611ed461218e565b836040517f19010000000000000000000000000000000000000000000000000000000000006020820152602281018390526042810182905260009060620160405160208183030381529060405280519060200120905092915050565b600080825160411415611f675760208301516040840151606085015160001a611f5b878285856122b5565b94509450505050610e61565b825160401415611f915760208301516040840151611f868683836123a2565b935093505050610e61565b50600090506002610e61565b6000816004811115611fb157611fb1612995565b1415611fba5750565b6001816004811115611fce57611fce612995565b141561201c5760405162461bcd60e51b815260206004820152601860248201527f45434453413a20696e76616c6964207369676e6174757265000000000000000060448201526064016108b6565b600281600481111561203057612030612995565b141561207e5760405162461bcd60e51b815260206004820152601f60248201527f45434453413a20696e76616c6964207369676e6174757265206c656e6774680060448201526064016108b6565b600381600481111561209257612092612995565b14156121065760405162461bcd60e51b815260206004820152602260248201527f45434453413a20696e76616c6964207369676e6174757265202773272076616c60448201527f756500000000000000000000000000000000000000000000000000000000000060648201526084016108b6565b600481600481111561211a5761211a612995565b14156117965760405162461bcd60e51b815260206004820152602260248201527f45434453413a20696e76616c6964207369676e6174757265202776272076616c60448201527f756500000000000000000000000000000000000000000000000000000000000060648201526084016108b6565b6000306001600160a01b037f0000000000000000000000000000000000000000000000000000000000000000161480156121e757507f000000000000000000000000000000000000000000000000000000000000000046145b1561221157507f000000000000000000000000000000000000000000000000000000000000000090565b50604080517f00000000000000000000000000000000000000000000000000000000000000006020808301919091527f0000000000000000000000000000000000000000000000000000000000000000828401527f000000000000000000000000000000000000000000000000000000000000000060608301524660808301523060a0808401919091528351808403909101815260c0909201909252805191012090565b6000807f7fffffffffffffffffffffffffffffff5d576e7357a4501ddfe92f46681b20a08311156122ec5750600090506003612399565b8460ff16601b1415801561230457508460ff16601c14155b156123155750600090506004612399565b6040805160008082526020820180845289905260ff881692820192909252606081018690526080810185905260019060a0016020604051602081039080840390855afa158015612369573d6000803e3d6000fd5b5050604051601f1901519150506001600160a01b03811661239257600060019250925050612399565b9150600090505b94509492505050565b6000807f7fffffffffffffffffffffffffffffffffffffffffffffffffffffffffffffff8316816123d860ff86901c601b612826565b90506123e6878288856122b5565b935093505050935093915050565b80356001600160a01b038116811461240b57600080fd5b919050565b8035801515811461240b57600080fd5b600082601f83011261243157600080fd5b813567ffffffffffffffff8082111561244c5761244c6129f3565b604051601f8301601f19908116603f01168101908282118183101715612474576124746129f3565b8160405283815286602085880101111561248d57600080fd5b836020870160208301376000602085830101528094505050505092915050565b6000602082840312156124bf57600080fd5b6116d6826123f4565b600080604083850312156124db57600080fd5b6124e4836123f4565b91506124f2602084016123f4565b90509250929050565b60008060006060848603121561251057600080fd5b612519846123f4565b9250612527602085016123f4565b9150604084013590509250925092565b6000806000806080858703121561254d57600080fd5b612556856123f4565b9350612564602086016123f4565b925060408501359150606085013567ffffffffffffffff81111561258757600080fd5b61259387828801612420565b91505092959194509250565b600080604083850312156125b257600080fd5b6125bb836123f4565b91506124f260208401612410565b600080604083850312156125dc57600080fd5b6125e5836123f4565b946020939093013593505050565b60008060006060848603121561260857600080fd5b612611846123f4565b925060208401359150604084013567ffffffffffffffff81111561263457600080fd5b61264086828701612420565b9150509250925092565b6000806040838503121561265d57600080fd5b612666836123f4565b9150602083013560ff8116811461267c57600080fd5b809150509250929050565b6000806040838503121561269a57600080fd5b6126a3836123f4565b915060208301356bffffffffffffffffffffffff8116811461267c57600080fd5b6000602082840312156126d657600080fd5b6116d682612410565b6000602082840312156126f157600080fd5b81356116d681612a22565b60006020828403121561270e57600080fd5b81516116d681612a22565b60006020828403121561272b57600080fd5b5035919050565b6000806040838503121561274557600080fd5b50508035926020909101359150565b6000815180845261276c816020860160208601612888565b601f01601f19169290920160200192915050565b60008351612792818460208801612888565b8351908301906127a6818360208801612888565b7f2e6a736f6e0000000000000000000000000000000000000000000000000000009101908152600501949350505050565b60006001600160a01b038087168352808616602084015250836040830152608060608301526128096080830184612754565b9695505050505050565b6020815260006116d66020830184612754565b6000821982111561283957612839612937565b500190565b60008261284d5761284d612966565b500490565b600081600019048311821515161561286c5761286c612937565b500290565b60008282101561288357612883612937565b500390565b60005b838110156128a357818101518382015260200161288b565b838111156115ef5750506000910152565b600181811c908216806128c857607f821691505b60208210811415612902577f4e487b7100000000000000000000000000000000000000000000000000000000600052602260045260246000fd5b50919050565b600060001982141561291c5761291c612937565b5060010190565b60008261293257612932612966565b500690565b7f4e487b7100000000000000000000000000000000000000000000000000000000600052601160045260246000fd5b7f4e487b7100000000000000000000000000000000000000000000000000000000600052601260045260246000fd5b7f4e487b7100000000000000000000000000000000000000000000000000000000600052602160045260246000fd5b7f4e487b7100000000000000000000000000000000000000000000000000000000600052603260045260246000fd5b7f4e487b7100000000000000000000000000000000000000000000000000000000600052604160045260246000fd5b7fffffffff000000000000000000000000000000000000000000000000000000008116811461179657600080fdfea2646970667358221220055248b8dfac0254b0efb718e6e4d7b414c4f9789f823207f93ff18b7ae0650864736f6c63430008070033",
					"opcodes": "PUSH2 0x140 PUSH1 0x40 MSTORE PUSH1 0x0 PUSH1 0x9 SSTORE PUSH1 0xB DUP1 SLOAD PUSH1 0x1 PUSH1 0x1 PUSH1 0x80 SHL SUB NOT AND PUSH3 0xBB800 OR SWAP1 SSTORE PUSH1 0xD DUP1 SLOAD PUSH1 0xFF PUSH1 0xA0 SHL NOT AND SWAP1 SSTORE CALLVALUE DUP1 ISZERO PUSH3 0x39 JUMPI PUSH1 0x0 DUP1 REVERT JUMPDEST POP PUSH1 0x40 MLOAD PUSH3 0x3048 CODESIZE SUB DUP1 PUSH3 0x3048 DUP4 CODECOPY DUP2 ADD PUSH1 0x40 DUP2 SWAP1 MSTORE PUSH3 0x5C SWAP2 PUSH3 0x428 JUMP JUMPDEST PUSH1 0x40 MLOAD DUP1 PUSH1 0x40 ADD PUSH1 0x40 MSTORE DUP1 PUSH1 0xB DUP2 MSTORE PUSH1 0x20 ADD PUSH11 0x2820A72A2422A92FA1A7A7 PUSH1 0xA9 SHL DUP2 MSTORE POP PUSH1 0x40 MLOAD DUP1 PUSH1 0x40 ADD PUSH1 0x40 MSTORE DUP1 PUSH1 0x1 DUP2 MSTORE PUSH1 0x20 ADD PUSH1 0x31 PUSH1 0xF8 SHL DUP2 MSTORE POP DUP8 DUP8 DUP2 PUSH1 0x0 SWAP1 DUP1 MLOAD SWAP1 PUSH1 0x20 ADD SWAP1 PUSH3 0xB4 SWAP3 SWAP2 SWAP1 PUSH3 0x2AE JUMP JUMPDEST POP DUP1 MLOAD PUSH3 0xCA SWAP1 PUSH1 0x1 SWAP1 PUSH1 0x20 DUP5 ADD SWAP1 PUSH3 0x2AE JUMP JUMPDEST POP POP DUP3 MLOAD PUSH1 0x20 DUP1 DUP6 ADD SWAP2 SWAP1 SWAP2 KECCAK256 DUP4 MLOAD DUP5 DUP4 ADD KECCAK256 PUSH1 0xE0 DUP3 SWAP1 MSTORE PUSH2 0x100 DUP2 SWAP1 MSTORE CHAINID PUSH1 0xA0 DUP2 DUP2 MSTORE PUSH1 0x40 DUP1 MLOAD PUSH32 0x8B73C3C69BB8FE3D512ECC4CF759CC79239F7B179B0FFACAA9A75D522B39400F DUP2 DUP9 ADD DUP2 SWAP1 MSTORE DUP2 DUP4 ADD DUP8 SWAP1 MSTORE PUSH1 0x60 DUP3 ADD DUP7 SWAP1 MSTORE PUSH1 0x80 DUP3 ADD SWAP5 SWAP1 SWAP5 MSTORE ADDRESS DUP2 DUP5 ADD MSTORE DUP2 MLOAD DUP1 DUP3 SUB SWAP1 SWAP4 ADD DUP4 MSTORE PUSH1 0xC0 ADD SWAP1 MSTORE DUP1 MLOAD SWAP5 ADD SWAP4 SWAP1 SWAP4 KECCAK256 SWAP2 SWAP4 POP SWAP2 SWAP1 PUSH1 0x80 MSTORE ADDRESS PUSH1 0x60 SHL PUSH1 0xC0 MSTORE PUSH2 0x120 MSTORE POP PUSH3 0x175 SWAP3 POP PUSH3 0x16F SWAP2 POP POP CALLER SWAP1 JUMP JUMPDEST PUSH3 0x245 JUMP JUMPDEST DUP4 MLOAD PUSH3 0x18A SWAP1 PUSH1 0x8 SWAP1 PUSH1 0x20 DUP8 ADD SWAP1 PUSH3 0x2AE JUMP JUMPDEST POP PUSH2 0x2710 DUP3 PUSH1 0x1 PUSH1 0x1 PUSH1 0x60 SHL SUB AND GT ISZERO PUSH3 0x1EB JUMPI PUSH1 0x40 MLOAD PUSH3 0x461BCD PUSH1 0xE5 SHL DUP2 MSTORE PUSH1 0x20 PUSH1 0x4 DUP3 ADD MSTORE PUSH1 0x13 PUSH1 0x24 DUP3 ADD MSTORE PUSH32 0x63616E6E6F742065786365656420313030303000000000000000000000000000 PUSH1 0x44 DUP3 ADD MSTORE PUSH1 0x64 ADD PUSH1 0x40 MLOAD DUP1 SWAP2 SUB SWAP1 REVERT JUMPDEST PUSH13 0x1000000000000000000000000 CALLER MUL PUSH1 0x1 PUSH1 0x1 PUSH1 0x60 SHL SUB DUP4 AND OR PUSH1 0xA SSTORE PUSH3 0x216 PUSH1 0x1 DUP5 PUSH3 0x4F6 JUMP JUMPDEST PUSH1 0xC SSTORE PUSH1 0xD DUP1 SLOAD PUSH1 0x1 PUSH1 0x1 PUSH1 0xA0 SHL SUB NOT AND PUSH1 0x1 PUSH1 0x1 PUSH1 0xA0 SHL SUB SWAP3 SWAP1 SWAP3 AND SWAP2 SWAP1 SWAP2 OR SWAP1 SSTORE POP PUSH3 0x56F SWAP4 POP POP POP POP JUMP JUMPDEST PUSH1 0x0 PUSH3 0x25A PUSH1 0x7 SLOAD PUSH1 0x1 PUSH1 0x1 PUSH1 0xA0 SHL SUB AND SWAP1 JUMP JUMPDEST PUSH1 0x7 DUP1 SLOAD PUSH1 0x1 PUSH1 0x1 PUSH1 0xA0 SHL SUB NOT AND PUSH1 0x1 PUSH1 0x1 PUSH1 0xA0 SHL SUB DUP6 DUP2 AND SWAP2 DUP3 OR SWAP1 SWAP3 SSTORE PUSH1 0x40 MLOAD SWAP3 SWAP4 POP SWAP2 SWAP1 DUP4 AND SWAP1 PUSH32 0xD18B5FD22306E373229B9439188228EDCA81207D1667F604DAF6CEF8AA3EE67 SWAP1 PUSH1 0x0 SWAP1 LOG3 POP POP JUMP JUMPDEST DUP3 DUP1 SLOAD PUSH3 0x2BC SWAP1 PUSH3 0x51C JUMP JUMPDEST SWAP1 PUSH1 0x0 MSTORE PUSH1 0x20 PUSH1 0x0 KECCAK256 SWAP1 PUSH1 0x1F ADD PUSH1 0x20 SWAP1 DIV DUP2 ADD SWAP3 DUP3 PUSH3 0x2E0 JUMPI PUSH1 0x0 DUP6 SSTORE PUSH3 0x32B JUMP JUMPDEST DUP3 PUSH1 0x1F LT PUSH3 0x2FB JUMPI DUP1 MLOAD PUSH1 0xFF NOT AND DUP4 DUP1 ADD OR DUP6 SSTORE PUSH3 0x32B JUMP JUMPDEST DUP3 DUP1 ADD PUSH1 0x1 ADD DUP6 SSTORE DUP3 ISZERO PUSH3 0x32B JUMPI SWAP2 DUP3 ADD JUMPDEST DUP3 DUP2 GT ISZERO PUSH3 0x32B JUMPI DUP3 MLOAD DUP3 SSTORE SWAP2 PUSH1 0x20 ADD SWAP2 SWAP1 PUSH1 0x1 ADD SWAP1 PUSH3 0x30E JUMP JUMPDEST POP PUSH3 0x339 SWAP3 SWAP2 POP PUSH3 0x33D JUMP JUMPDEST POP SWAP1 JUMP JUMPDEST JUMPDEST DUP1 DUP3 GT ISZERO PUSH3 0x339 JUMPI PUSH1 0x0 DUP2 SSTORE PUSH1 0x1 ADD PUSH3 0x33E JUMP JUMPDEST DUP1 MLOAD PUSH1 0x1 PUSH1 0x1 PUSH1 0xA0 SHL SUB DUP2 AND DUP2 EQ PUSH3 0x36C JUMPI PUSH1 0x0 DUP1 REVERT JUMPDEST SWAP2 SWAP1 POP JUMP JUMPDEST PUSH1 0x0 DUP3 PUSH1 0x1F DUP4 ADD SLT PUSH3 0x383 JUMPI PUSH1 0x0 DUP1 REVERT JUMPDEST DUP2 MLOAD PUSH1 0x1 PUSH1 0x1 PUSH1 0x40 SHL SUB DUP1 DUP3 GT ISZERO PUSH3 0x3A0 JUMPI PUSH3 0x3A0 PUSH3 0x559 JUMP JUMPDEST PUSH1 0x40 MLOAD PUSH1 0x1F DUP4 ADD PUSH1 0x1F NOT SWAP1 DUP2 AND PUSH1 0x3F ADD AND DUP2 ADD SWAP1 DUP3 DUP3 GT DUP2 DUP4 LT OR ISZERO PUSH3 0x3CB JUMPI PUSH3 0x3CB PUSH3 0x559 JUMP JUMPDEST DUP2 PUSH1 0x40 MSTORE DUP4 DUP2 MSTORE PUSH1 0x20 SWAP3 POP DUP7 DUP4 DUP6 DUP9 ADD ADD GT ISZERO PUSH3 0x3E8 JUMPI PUSH1 0x0 DUP1 REVERT JUMPDEST PUSH1 0x0 SWAP2 POP JUMPDEST DUP4 DUP3 LT ISZERO PUSH3 0x40C JUMPI DUP6 DUP3 ADD DUP4 ADD MLOAD DUP2 DUP4 ADD DUP5 ADD MSTORE SWAP1 DUP3 ADD SWAP1 PUSH3 0x3ED JUMP JUMPDEST DUP4 DUP3 GT ISZERO PUSH3 0x41E JUMPI PUSH1 0x0 DUP4 DUP6 DUP4 ADD ADD MSTORE JUMPDEST SWAP7 SWAP6 POP POP POP POP POP POP JUMP JUMPDEST PUSH1 0x0 DUP1 PUSH1 0x0 DUP1 PUSH1 0x0 DUP1 PUSH1 0xC0 DUP8 DUP10 SUB SLT ISZERO PUSH3 0x442 JUMPI PUSH1 0x0 DUP1 REVERT JUMPDEST DUP7 MLOAD PUSH1 0x1 PUSH1 0x1 PUSH1 0x40 SHL SUB DUP1 DUP3 GT ISZERO PUSH3 0x45A JUMPI PUSH1 0x0 DUP1 REVERT JUMPDEST PUSH3 0x468 DUP11 DUP4 DUP12 ADD PUSH3 0x371 JUMP JUMPDEST SWAP8 POP PUSH1 0x20 DUP10 ADD MLOAD SWAP2 POP DUP1 DUP3 GT ISZERO PUSH3 0x47F JUMPI PUSH1 0x0 DUP1 REVERT JUMPDEST PUSH3 0x48D DUP11 DUP4 DUP12 ADD PUSH3 0x371 JUMP JUMPDEST SWAP7 POP PUSH1 0x40 DUP10 ADD MLOAD SWAP2 POP DUP1 DUP3 GT ISZERO PUSH3 0x4A4 JUMPI PUSH1 0x0 DUP1 REVERT JUMPDEST POP PUSH3 0x4B3 DUP10 DUP3 DUP11 ADD PUSH3 0x371 JUMP JUMPDEST PUSH1 0x60 DUP10 ADD MLOAD PUSH1 0x80 DUP11 ADD MLOAD SWAP2 SWAP7 POP SWAP5 POP SWAP1 POP PUSH1 0x1 PUSH1 0x1 PUSH1 0x60 SHL SUB DUP2 AND DUP2 EQ PUSH3 0x4DA JUMPI PUSH1 0x0 DUP1 REVERT JUMPDEST SWAP2 POP PUSH3 0x4EA PUSH1 0xA0 DUP9 ADD PUSH3 0x354 JUMP JUMPDEST SWAP1 POP SWAP3 SWAP6 POP SWAP3 SWAP6 POP SWAP3 SWAP6 JUMP JUMPDEST PUSH1 0x0 DUP3 DUP3 LT ISZERO PUSH3 0x517 JUMPI PUSH4 0x4E487B71 PUSH1 0xE0 SHL PUSH1 0x0 MSTORE PUSH1 0x11 PUSH1 0x4 MSTORE PUSH1 0x24 PUSH1 0x0 REVERT JUMPDEST POP SUB SWAP1 JUMP JUMPDEST PUSH1 0x1 DUP2 DUP2 SHR SWAP1 DUP3 AND DUP1 PUSH3 0x531 JUMPI PUSH1 0x7F DUP3 AND SWAP2 POP JUMPDEST PUSH1 0x20 DUP3 LT DUP2 EQ ISZERO PUSH3 0x553 JUMPI PUSH4 0x4E487B71 PUSH1 0xE0 SHL PUSH1 0x0 MSTORE PUSH1 0x22 PUSH1 0x4 MSTORE PUSH1 0x24 PUSH1 0x0 REVERT JUMPDEST POP SWAP2 SWAP1 POP JUMP JUMPDEST PUSH4 0x4E487B71 PUSH1 0xE0 SHL PUSH1 0x0 MSTORE PUSH1 0x41 PUSH1 0x4 MSTORE PUSH1 0x24 PUSH1 0x0 REVERT JUMPDEST PUSH1 0x80 MLOAD PUSH1 0xA0 MLOAD PUSH1 0xC0 MLOAD PUSH1 0x60 SHR PUSH1 0xE0 MLOAD PUSH2 0x100 MLOAD PUSH2 0x120 MLOAD PUSH2 0x2A86 PUSH3 0x5C2 PUSH1 0x0 CODECOPY PUSH1 0x0 PUSH2 0x2218 ADD MSTORE PUSH1 0x0 PUSH2 0x2267 ADD MSTORE PUSH1 0x0 PUSH2 0x2242 ADD MSTORE PUSH1 0x0 PUSH2 0x219B ADD MSTORE PUSH1 0x0 PUSH2 0x21C5 ADD MSTORE PUSH1 0x0 PUSH2 0x21EF ADD MSTORE PUSH2 0x2A86 PUSH1 0x0 RETURN INVALID PUSH1 0x80 PUSH1 0x40 MSTORE PUSH1 0x4 CALLDATASIZE LT PUSH2 0x219 JUMPI PUSH1 0x0 CALLDATALOAD PUSH1 0xE0 SHR DUP1 PUSH4 0x8DA5CB5B GT PUSH2 0x11D JUMPI DUP1 PUSH4 0xBDB4B848 GT PUSH2 0xB0 JUMPI DUP1 PUSH4 0xE6C3B1F6 GT PUSH2 0x7F JUMPI DUP1 PUSH4 0xF2FDE38B GT PUSH2 0x64 JUMPI DUP1 PUSH4 0xF2FDE38B EQ PUSH2 0x6DC JUMPI DUP1 PUSH4 0xF59E26D0 EQ PUSH2 0x6FC JUMPI DUP1 PUSH4 0xFBBD1DC0 EQ PUSH2 0x71C JUMPI PUSH1 0x0 DUP1 REVERT JUMPDEST DUP1 PUSH4 0xE6C3B1F6 EQ PUSH2 0x674 JUMPI DUP1 PUSH4 0xE985E9C5 EQ PUSH2 0x6A1 JUMPI PUSH1 0x0 DUP1 REVERT JUMPDEST DUP1 PUSH4 0xBDB4B848 EQ PUSH2 0x604 JUMPI DUP1 PUSH4 0xC2E63DEF EQ PUSH2 0x61A JUMPI DUP1 PUSH4 0xC87B56DD EQ PUSH2 0x63A JUMPI DUP1 PUSH4 0xD83D0F76 EQ PUSH2 0x65A JUMPI PUSH1 0x0 DUP1 REVERT JUMPDEST DUP1 PUSH4 0xA22CB465 GT PUSH2 0xEC JUMPI DUP1 PUSH4 0xA22CB465 EQ PUSH2 0x574 JUMPI DUP1 PUSH4 0xA2E69613 EQ PUSH2 0x594 JUMPI DUP1 PUSH4 0xAD2F852A EQ PUSH2 0x5B4 JUMPI DUP1 PUSH4 0xB88D4FDE EQ PUSH2 0x5E4 JUMPI PUSH1 0x0 DUP1 REVERT JUMPDEST DUP1 PUSH4 0x8DA5CB5B EQ PUSH2 0x519 JUMPI DUP1 PUSH4 0x95D89B41 EQ PUSH2 0x537 JUMPI DUP1 PUSH4 0xA06CB719 EQ PUSH2 0x54C JUMPI DUP1 PUSH4 0xA0EF91DF EQ PUSH2 0x55F JUMPI PUSH1 0x0 DUP1 REVERT JUMPDEST DUP1 PUSH4 0x2A55205A GT PUSH2 0x1B0 JUMPI DUP1 PUSH4 0x6C0360EB GT PUSH2 0x17F JUMPI DUP1 PUSH4 0x73C7400E GT PUSH2 0x164 JUMPI DUP1 PUSH4 0x73C7400E EQ PUSH2 0x497 JUMPI DUP1 PUSH4 0x79D72794 EQ PUSH2 0x4D9 JUMPI DUP1 PUSH4 0x8545F4EA EQ PUSH2 0x4F9 JUMPI PUSH1 0x0 DUP1 REVERT JUMPDEST DUP1 PUSH4 0x6C0360EB EQ PUSH2 0x447 JUMPI DUP1 PUSH4 0x70A08231 EQ PUSH2 0x45C JUMPI PUSH1 0x0 DUP1 REVERT JUMPDEST DUP1 PUSH4 0x2A55205A EQ PUSH2 0x365 JUMPI DUP1 PUSH4 0x32CB6B0C EQ PUSH2 0x3A4 JUMPI DUP1 PUSH4 0x42842E0E EQ PUSH2 0x3F1 JUMPI DUP1 PUSH4 0x6352211E EQ PUSH2 0x411 JUMPI PUSH1 0x0 DUP1 REVERT JUMPDEST DUP1 PUSH4 0x95EA7B3 GT PUSH2 0x1EC JUMPI DUP1 PUSH4 0x95EA7B3 EQ PUSH2 0x2E5 JUMPI DUP1 PUSH4 0xE2D56CF EQ PUSH2 0x305 JUMPI DUP1 PUSH4 0x15137045 EQ PUSH2 0x325 JUMPI DUP1 PUSH4 0x23B872DD EQ PUSH2 0x345 JUMPI PUSH1 0x0 DUP1 REVERT JUMPDEST DUP1 PUSH4 0x1FFC9A7 EQ PUSH2 0x21E JUMPI DUP1 PUSH4 0x2FA7C47 EQ PUSH2 0x253 JUMPI DUP1 PUSH4 0x6FDDE03 EQ PUSH2 0x275 JUMPI DUP1 PUSH4 0x81812FC EQ PUSH2 0x297 JUMPI JUMPDEST PUSH1 0x0 DUP1 REVERT JUMPDEST CALLVALUE DUP1 ISZERO PUSH2 0x22A JUMPI PUSH1 0x0 DUP1 REVERT JUMPDEST POP PUSH2 0x23E PUSH2 0x239 CALLDATASIZE PUSH1 0x4 PUSH2 0x26DF JUMP JUMPDEST PUSH2 0x72F JUMP JUMPDEST PUSH1 0x40 MLOAD SWAP1 ISZERO ISZERO DUP2 MSTORE PUSH1 0x20 ADD JUMPDEST PUSH1 0x40 MLOAD DUP1 SWAP2 SUB SWAP1 RETURN JUMPDEST CALLVALUE DUP1 ISZERO PUSH2 0x25F JUMPI PUSH1 0x0 DUP1 REVERT JUMPDEST POP PUSH2 0x273 PUSH2 0x26E CALLDATASIZE PUSH1 0x4 PUSH2 0x2687 JUMP JUMPDEST PUSH2 0x860 JUMP JUMPDEST STOP JUMPDEST CALLVALUE DUP1 ISZERO PUSH2 0x281 JUMPI PUSH1 0x0 DUP1 REVERT JUMPDEST POP PUSH2 0x28A PUSH2 0x96F JUMP JUMPDEST PUSH1 0x40 MLOAD PUSH2 0x24A SWAP2 SWAP1 PUSH2 0x2813 JUMP JUMPDEST CALLVALUE DUP1 ISZERO PUSH2 0x2A3 JUMPI PUSH1 0x0 DUP1 REVERT JUMPDEST POP PUSH2 0x2CD PUSH2 0x2B2 CALLDATASIZE PUSH1 0x4 PUSH2 0x2719 JUMP JUMPDEST PUSH1 0x4 PUSH1 0x20 MSTORE PUSH1 0x0 SWAP1 DUP2 MSTORE PUSH1 0x40 SWAP1 KECCAK256 SLOAD PUSH1 0x1 PUSH1 0x1 PUSH1 0xA0 SHL SUB AND DUP2 JUMP JUMPDEST PUSH1 0x40 MLOAD PUSH1 0x1 PUSH1 0x1 PUSH1 0xA0 SHL SUB SWAP1 SWAP2 AND DUP2 MSTORE PUSH1 0x20 ADD PUSH2 0x24A JUMP JUMPDEST CALLVALUE DUP1 ISZERO PUSH2 0x2F1 JUMPI PUSH1 0x0 DUP1 REVERT JUMPDEST POP PUSH2 0x273 PUSH2 0x300 CALLDATASIZE PUSH1 0x4 PUSH2 0x25C9 JUMP JUMPDEST PUSH2 0x9FD JUMP JUMPDEST CALLVALUE DUP1 ISZERO PUSH2 0x311 JUMPI PUSH1 0x0 DUP1 REVERT JUMPDEST POP PUSH2 0x273 PUSH2 0x320 CALLDATASIZE PUSH1 0x4 PUSH2 0x26C4 JUMP JUMPDEST PUSH2 0xB06 JUMP JUMPDEST CALLVALUE DUP1 ISZERO PUSH2 0x331 JUMPI PUSH1 0x0 DUP1 REVERT JUMPDEST POP PUSH2 0x273 PUSH2 0x340 CALLDATASIZE PUSH1 0x4 PUSH2 0x24AD JUMP JUMPDEST PUSH2 0xB91 JUMP JUMPDEST CALLVALUE DUP1 ISZERO PUSH2 0x351 JUMPI PUSH1 0x0 DUP1 REVERT JUMPDEST POP PUSH2 0x273 PUSH2 0x360 CALLDATASIZE PUSH1 0x4 PUSH2 0x24FB JUMP JUMPDEST PUSH2 0xC25 JUMP JUMPDEST CALLVALUE DUP1 ISZERO PUSH2 0x371 JUMPI PUSH1 0x0 DUP1 REVERT JUMPDEST POP PUSH2 0x385 PUSH2 0x380 CALLDATASIZE PUSH1 0x4 PUSH2 0x2732 JUMP JUMPDEST PUSH2 0xE32 JUMP JUMPDEST PUSH1 0x40 DUP1 MLOAD PUSH1 0x1 PUSH1 0x1 PUSH1 0xA0 SHL SUB SWAP1 SWAP4 AND DUP4 MSTORE PUSH1 0x20 DUP4 ADD SWAP2 SWAP1 SWAP2 MSTORE ADD PUSH2 0x24A JUMP JUMPDEST CALLVALUE DUP1 ISZERO PUSH2 0x3B0 JUMPI PUSH1 0x0 DUP1 REVERT JUMPDEST POP PUSH1 0xB SLOAD PUSH2 0x3D1 SWAP1 PUSH2 0x100 SWAP1 DIV PUSH15 0xFFFFFFFFFFFFFFFFFFFFFFFFFFFFFF AND DUP2 JUMP JUMPDEST PUSH1 0x40 MLOAD PUSH15 0xFFFFFFFFFFFFFFFFFFFFFFFFFFFFFF SWAP1 SWAP2 AND DUP2 MSTORE PUSH1 0x20 ADD PUSH2 0x24A JUMP JUMPDEST CALLVALUE DUP1 ISZERO PUSH2 0x3FD JUMPI PUSH1 0x0 DUP1 REVERT JUMPDEST POP PUSH2 0x273 PUSH2 0x40C CALLDATASIZE PUSH1 0x4 PUSH2 0x24FB JUMP JUMPDEST PUSH2 0xE68 JUMP JUMPDEST CALLVALUE DUP1 ISZERO PUSH2 0x41D JUMPI PUSH1 0x0 DUP1 REVERT JUMPDEST POP PUSH2 0x2CD PUSH2 0x42C CALLDATASIZE PUSH1 0x4 PUSH2 0x2719 JUMP JUMPDEST PUSH1 0x3 PUSH1 0x20 MSTORE PUSH1 0x0 SWAP1 DUP2 MSTORE PUSH1 0x40 SWAP1 KECCAK256 SLOAD PUSH1 0x1 PUSH1 0x1 PUSH1 0xA0 SHL SUB AND DUP2 JUMP JUMPDEST CALLVALUE DUP1 ISZERO PUSH2 0x453 JUMPI PUSH1 0x0 DUP1 REVERT JUMPDEST POP PUSH2 0x28A PUSH2 0xFAD JUMP JUMPDEST CALLVALUE DUP1 ISZERO PUSH2 0x468 JUMPI PUSH1 0x0 DUP1 REVERT JUMPDEST POP PUSH2 0x489 PUSH2 0x477 CALLDATASIZE PUSH1 0x4 PUSH2 0x24AD JUMP JUMPDEST PUSH1 0x2 PUSH1 0x20 MSTORE PUSH1 0x0 SWAP1 DUP2 MSTORE PUSH1 0x40 SWAP1 KECCAK256 SLOAD DUP2 JUMP JUMPDEST PUSH1 0x40 MLOAD SWAP1 DUP2 MSTORE PUSH1 0x20 ADD PUSH2 0x24A JUMP JUMPDEST CALLVALUE DUP1 ISZERO PUSH2 0x4A3 JUMPI PUSH1 0x0 DUP1 REVERT JUMPDEST POP PUSH1 0xA SLOAD PUSH2 0x4BC SWAP1 PUSH12 0xFFFFFFFFFFFFFFFFFFFFFFFF AND DUP2 JUMP JUMPDEST PUSH1 0x40 MLOAD PUSH12 0xFFFFFFFFFFFFFFFFFFFFFFFF SWAP1 SWAP2 AND DUP2 MSTORE PUSH1 0x20 ADD PUSH2 0x24A JUMP JUMPDEST CALLVALUE DUP1 ISZERO PUSH2 0x4E5 JUMPI PUSH1 0x0 DUP1 REVERT JUMPDEST POP PUSH2 0x273 PUSH2 0x4F4 CALLDATASIZE PUSH1 0x4 PUSH2 0x264A JUMP JUMPDEST PUSH2 0xFBA JUMP JUMPDEST CALLVALUE DUP1 ISZERO PUSH2 0x505 JUMPI PUSH1 0x0 DUP1 REVERT JUMPDEST POP PUSH2 0x273 PUSH2 0x514 CALLDATASIZE PUSH1 0x4 PUSH2 0x2719 JUMP JUMPDEST PUSH2 0x1083 JUMP JUMPDEST CALLVALUE DUP1 ISZERO PUSH2 0x525 JUMPI PUSH1 0x0 DUP1 REVERT JUMPDEST POP PUSH1 0x7 SLOAD PUSH1 0x1 PUSH1 0x1 PUSH1 0xA0 SHL SUB AND PUSH2 0x2CD JUMP JUMPDEST CALLVALUE DUP1 ISZERO PUSH2 0x543 JUMPI PUSH1 0x0 DUP1 REVERT JUMPDEST POP PUSH2 0x28A PUSH2 0x10EE JUMP JUMPDEST PUSH2 0x273 PUSH2 0x55A CALLDATASIZE PUSH1 0x4 PUSH2 0x24AD JUMP JUMPDEST PUSH2 0x10FB JUMP JUMPDEST CALLVALUE DUP1 ISZERO PUSH2 0x56B JUMPI PUSH1 0x0 DUP1 REVERT JUMPDEST POP PUSH2 0x273 PUSH2 0x12FC JUMP JUMPDEST CALLVALUE DUP1 ISZERO PUSH2 0x580 JUMPI PUSH1 0x0 DUP1 REVERT JUMPDEST POP PUSH2 0x273 PUSH2 0x58F CALLDATASIZE PUSH1 0x4 PUSH2 0x259F JUMP JUMPDEST PUSH2 0x140F JUMP JUMPDEST CALLVALUE DUP1 ISZERO PUSH2 0x5A0 JUMPI PUSH1 0x0 DUP1 REVERT JUMPDEST POP PUSH2 0x489 PUSH2 0x5AF CALLDATASIZE PUSH1 0x4 PUSH2 0x2719 JUMP JUMPDEST PUSH2 0x1499 JUMP JUMPDEST CALLVALUE DUP1 ISZERO PUSH2 0x5C0 JUMPI PUSH1 0x0 DUP1 REVERT JUMPDEST POP PUSH1 0xA SLOAD PUSH2 0x2CD SWAP1 PUSH13 0x1000000000000000000000000 SWAP1 DIV PUSH1 0x1 PUSH1 0x1 PUSH1 0xA0 SHL SUB AND DUP2 JUMP JUMPDEST CALLVALUE DUP1 ISZERO PUSH2 0x5F0 JUMPI PUSH1 0x0 DUP1 REVERT JUMPDEST POP PUSH2 0x273 PUSH2 0x5FF CALLDATASIZE PUSH1 0x4 PUSH2 0x2537 JUMP JUMPDEST PUSH2 0x14C3 JUMP JUMPDEST CALLVALUE DUP1 ISZERO PUSH2 0x610 JUMPI PUSH1 0x0 DUP1 REVERT JUMPDEST POP PUSH2 0x489 PUSH1 0xC SLOAD DUP2 JUMP JUMPDEST CALLVALUE DUP1 ISZERO PUSH2 0x626 JUMPI PUSH1 0x0 DUP1 REVERT JUMPDEST POP PUSH2 0x2CD PUSH2 0x635 CALLDATASIZE PUSH1 0x4 PUSH2 0x25F3 JUMP JUMPDEST PUSH2 0x15F5 JUMP JUMPDEST CALLVALUE DUP1 ISZERO PUSH2 0x646 JUMPI PUSH1 0x0 DUP1 REVERT JUMPDEST POP PUSH2 0x28A PUSH2 0x655 CALLDATASIZE PUSH1 0x4 PUSH2 0x2719 JUMP JUMPDEST PUSH2 0x160A JUMP JUMPDEST CALLVALUE DUP1 ISZERO PUSH2 0x666 JUMPI PUSH1 0x0 DUP1 REVERT JUMPDEST POP PUSH1 0xB SLOAD PUSH2 0x23E SWAP1 PUSH1 0xFF AND DUP2 JUMP JUMPDEST CALLVALUE DUP1 ISZERO PUSH2 0x680 JUMPI PUSH1 0x0 DUP1 REVERT JUMPDEST POP PUSH2 0x489 PUSH2 0x68F CALLDATASIZE PUSH1 0x4 PUSH2 0x2719 JUMP JUMPDEST PUSH1 0x5 PUSH1 0x20 MSTORE PUSH1 0x0 SWAP1 DUP2 MSTORE PUSH1 0x40 SWAP1 KECCAK256 SLOAD DUP2 JUMP JUMPDEST CALLVALUE DUP1 ISZERO PUSH2 0x6AD JUMPI PUSH1 0x0 DUP1 REVERT JUMPDEST POP PUSH2 0x23E PUSH2 0x6BC CALLDATASIZE PUSH1 0x4 PUSH2 0x24C8 JUMP JUMPDEST PUSH1 0x6 PUSH1 0x20 SWAP1 DUP2 MSTORE PUSH1 0x0 SWAP3 DUP4 MSTORE PUSH1 0x40 DUP1 DUP5 KECCAK256 SWAP1 SWAP2 MSTORE SWAP1 DUP3 MSTORE SWAP1 KECCAK256 SLOAD PUSH1 0xFF AND DUP2 JUMP JUMPDEST CALLVALUE DUP1 ISZERO PUSH2 0x6E8 JUMPI PUSH1 0x0 DUP1 REVERT JUMPDEST POP PUSH2 0x273 PUSH2 0x6F7 CALLDATASIZE PUSH1 0x4 PUSH2 0x24AD JUMP JUMPDEST PUSH2 0x16DD JUMP JUMPDEST CALLVALUE DUP1 ISZERO PUSH2 0x708 JUMPI PUSH1 0x0 DUP1 REVERT JUMPDEST POP PUSH2 0x273 PUSH2 0x717 CALLDATASIZE PUSH1 0x4 PUSH2 0x26C4 JUMP JUMPDEST PUSH2 0x1799 JUMP JUMPDEST PUSH2 0x273 PUSH2 0x72A CALLDATASIZE PUSH1 0x4 PUSH2 0x25F3 JUMP JUMPDEST PUSH2 0x183D JUMP JUMPDEST PUSH1 0x0 PUSH32 0x1FFC9A700000000000000000000000000000000000000000000000000000000 PUSH32 0xFFFFFFFF00000000000000000000000000000000000000000000000000000000 DUP4 AND EQ DUP1 PUSH2 0x7C2 JUMPI POP PUSH32 0x80AC58CD00000000000000000000000000000000000000000000000000000000 PUSH32 0xFFFFFFFF00000000000000000000000000000000000000000000000000000000 DUP4 AND EQ JUMPDEST DUP1 PUSH2 0x80E JUMPI POP PUSH32 0x5B5E139F00000000000000000000000000000000000000000000000000000000 PUSH32 0xFFFFFFFF00000000000000000000000000000000000000000000000000000000 DUP4 AND EQ JUMPDEST DUP1 PUSH2 0x85A JUMPI POP PUSH32 0x2A55205A00000000000000000000000000000000000000000000000000000000 PUSH32 0xFFFFFFFF00000000000000000000000000000000000000000000000000000000 DUP4 AND EQ JUMPDEST SWAP3 SWAP2 POP POP JUMP JUMPDEST PUSH1 0x7 SLOAD PUSH1 0x1 PUSH1 0x1 PUSH1 0xA0 SHL SUB AND CALLER EQ PUSH2 0x8BF JUMPI PUSH1 0x40 MLOAD PUSH3 0x461BCD PUSH1 0xE5 SHL DUP2 MSTORE PUSH1 0x20 PUSH1 0x4 DUP3 ADD MSTORE PUSH1 0x17 PUSH1 0x24 DUP3 ADD MSTORE PUSH32 0x43616C6C6572206973206E6F7420746865206F776E6572000000000000000000 PUSH1 0x44 DUP3 ADD MSTORE PUSH1 0x64 ADD JUMPDEST PUSH1 0x40 MLOAD DUP1 SWAP2 SUB SWAP1 REVERT JUMPDEST PUSH2 0x2710 DUP2 PUSH12 0xFFFFFFFFFFFFFFFFFFFFFFFF AND GT ISZERO PUSH2 0x91F JUMPI PUSH1 0x40 MLOAD PUSH3 0x461BCD PUSH1 0xE5 SHL DUP2 MSTORE PUSH1 0x20 PUSH1 0x4 DUP3 ADD MSTORE PUSH1 0x13 PUSH1 0x24 DUP3 ADD MSTORE PUSH32 0x63616E6E6F742065786365656420313030303000000000000000000000000000 PUSH1 0x44 DUP3 ADD MSTORE PUSH1 0x64 ADD PUSH2 0x8B6 JUMP JUMPDEST PUSH12 0xFFFFFFFFFFFFFFFFFFFFFFFF AND PUSH1 0x1 PUSH1 0x1 PUSH1 0xA0 SHL SUB SWAP1 SWAP2 AND PUSH13 0x1000000000000000000000000 MUL PUSH32 0xFFFFFFFFFFFFFFFFFFFFFFFFFFFFFFFFFFFFFFFF000000000000000000000000 AND OR PUSH1 0xA SSTORE JUMP JUMPDEST PUSH1 0x0 DUP1 SLOAD PUSH2 0x97C SWAP1 PUSH2 0x28B4 JUMP JUMPDEST DUP1 PUSH1 0x1F ADD PUSH1 0x20 DUP1 SWAP2 DIV MUL PUSH1 0x20 ADD PUSH1 0x40 MLOAD SWAP1 DUP2 ADD PUSH1 0x40 MSTORE DUP1 SWAP3 SWAP2 SWAP1 DUP2 DUP2 MSTORE PUSH1 0x20 ADD DUP3 DUP1 SLOAD PUSH2 0x9A8 SWAP1 PUSH2 0x28B4 JUMP JUMPDEST DUP1 ISZERO PUSH2 0x9F5 JUMPI DUP1 PUSH1 0x1F LT PUSH2 0x9CA JUMPI PUSH2 0x100 DUP1 DUP4 SLOAD DIV MUL DUP4 MSTORE SWAP2 PUSH1 0x20 ADD SWAP2 PUSH2 0x9F5 JUMP JUMPDEST DUP3 ADD SWAP2 SWAP1 PUSH1 0x0 MSTORE PUSH1 0x20 PUSH1 0x0 KECCAK256 SWAP1 JUMPDEST DUP2 SLOAD DUP2 MSTORE SWAP1 PUSH1 0x1 ADD SWAP1 PUSH1 0x20 ADD DUP1 DUP4 GT PUSH2 0x9D8 JUMPI DUP3 SWAP1 SUB PUSH1 0x1F AND DUP3 ADD SWAP2 JUMPDEST POP POP POP POP POP DUP2 JUMP JUMPDEST PUSH1 0x0 DUP2 DUP2 MSTORE PUSH1 0x3 PUSH1 0x20 MSTORE PUSH1 0x40 SWAP1 KECCAK256 SLOAD PUSH1 0x1 PUSH1 0x1 PUSH1 0xA0 SHL SUB AND CALLER DUP2 EQ DUP1 PUSH2 0xA46 JUMPI POP PUSH1 0x1 PUSH1 0x1 PUSH1 0xA0 SHL SUB DUP2 AND PUSH1 0x0 SWAP1 DUP2 MSTORE PUSH1 0x6 PUSH1 0x20 SWAP1 DUP2 MSTORE PUSH1 0x40 DUP1 DUP4 KECCAK256 CALLER DUP5 MSTORE SWAP1 SWAP2 MSTORE SWAP1 KECCAK256 SLOAD PUSH1 0xFF AND JUMPDEST PUSH2 0xA92 JUMPI PUSH1 0x40 MLOAD PUSH3 0x461BCD PUSH1 0xE5 SHL DUP2 MSTORE PUSH1 0x20 PUSH1 0x4 DUP3 ADD MSTORE PUSH1 0xE PUSH1 0x24 DUP3 ADD MSTORE PUSH32 0x4E6F7420617574686F72697A6564000000000000000000000000000000000000 PUSH1 0x44 DUP3 ADD MSTORE PUSH1 0x64 ADD PUSH2 0x8B6 JUMP JUMPDEST PUSH1 0x0 DUP3 DUP2 MSTORE PUSH1 0x4 PUSH1 0x20 MSTORE PUSH1 0x40 DUP1 DUP3 KECCAK256 DUP1 SLOAD PUSH32 0xFFFFFFFFFFFFFFFFFFFFFFFF0000000000000000000000000000000000000000 AND PUSH1 0x1 PUSH1 0x1 PUSH1 0xA0 SHL SUB DUP8 DUP2 AND SWAP2 DUP3 OR SWAP1 SWAP3 SSTORE SWAP2 MLOAD DUP6 SWAP4 SWAP2 DUP6 AND SWAP2 PUSH32 0x8C5BE1E5EBEC7D5BD14F71427D1E84F3DD0314C0F7B2291E5B200AC8C7C3B925 SWAP2 LOG4 POP POP POP JUMP JUMPDEST PUSH1 0x7 SLOAD PUSH1 0x1 PUSH1 0x1 PUSH1 0xA0 SHL SUB AND CALLER EQ PUSH2 0xB60 JUMPI PUSH1 0x40 MLOAD PUSH3 0x461BCD PUSH1 0xE5 SHL DUP2 MSTORE PUSH1 0x20 PUSH1 0x4 DUP3 ADD MSTORE PUSH1 0x17 PUSH1 0x24 DUP3 ADD MSTORE PUSH32 0x43616C6C6572206973206E6F7420746865206F776E6572000000000000000000 PUSH1 0x44 DUP3 ADD MSTORE PUSH1 0x64 ADD PUSH2 0x8B6 JUMP JUMPDEST PUSH1 0xB DUP1 SLOAD PUSH32 0xFFFFFFFFFFFFFFFFFFFFFFFFFFFFFFFFFFFFFFFFFFFFFFFFFFFFFFFFFFFFFF00 AND SWAP2 ISZERO ISZERO SWAP2 SWAP1 SWAP2 OR SWAP1 SSTORE JUMP JUMPDEST PUSH1 0x7 SLOAD PUSH1 0x1 PUSH1 0x1 PUSH1 0xA0 SHL SUB AND CALLER EQ PUSH2 0xBEB JUMPI PUSH1 0x40 MLOAD PUSH3 0x461BCD PUSH1 0xE5 SHL DUP2 MSTORE PUSH1 0x20 PUSH1 0x4 DUP3 ADD MSTORE PUSH1 0x17 PUSH1 0x24 DUP3 ADD MSTORE PUSH32 0x43616C6C6572206973206E6F7420746865206F776E6572000000000000000000 PUSH1 0x44 DUP3 ADD MSTORE PUSH1 0x64 ADD PUSH2 0x8B6 JUMP JUMPDEST PUSH1 0xD DUP1 SLOAD PUSH32 0xFFFFFFFFFFFFFFFFFFFFFFFF0000000000000000000000000000000000000000 AND PUSH1 0x1 PUSH1 0x1 PUSH1 0xA0 SHL SUB SWAP3 SWAP1 SWAP3 AND SWAP2 SWAP1 SWAP2 OR SWAP1 SSTORE JUMP JUMPDEST PUSH1 0x0 DUP2 DUP2 MSTORE PUSH1 0x3 PUSH1 0x20 MSTORE PUSH1 0x40 SWAP1 KECCAK256 SLOAD PUSH1 0x1 PUSH1 0x1 PUSH1 0xA0 SHL SUB DUP5 DUP2 AND SWAP2 AND EQ PUSH2 0xC8E JUMPI PUSH1 0x40 MLOAD PUSH3 0x461BCD PUSH1 0xE5 SHL DUP2 MSTORE PUSH1 0x20 PUSH1 0x4 DUP3 ADD MSTORE PUSH1 0xA PUSH1 0x24 DUP3 ADD MSTORE PUSH32 0x57524F4E472046524F4D00000000000000000000000000000000000000000000 PUSH1 0x44 DUP3 ADD MSTORE PUSH1 0x64 ADD PUSH2 0x8B6 JUMP JUMPDEST PUSH1 0x1 PUSH1 0x1 PUSH1 0xA0 SHL SUB DUP3 AND PUSH2 0xCE4 JUMPI PUSH1 0x40 MLOAD PUSH3 0x461BCD PUSH1 0xE5 SHL DUP2 MSTORE PUSH1 0x20 PUSH1 0x4 DUP3 ADD MSTORE PUSH1 0x8 PUSH1 0x24 DUP3 ADD MSTORE PUSH32 0x57524F4E4720544F000000000000000000000000000000000000000000000000 PUSH1 0x44 DUP3 ADD MSTORE PUSH1 0x64 ADD PUSH2 0x8B6 JUMP JUMPDEST CALLER PUSH1 0x1 PUSH1 0x1 PUSH1 0xA0 SHL SUB DUP5 AND EQ DUP1 PUSH2 0xD1E JUMPI POP PUSH1 0x1 PUSH1 0x1 PUSH1 0xA0 SHL SUB DUP4 AND PUSH1 0x0 SWAP1 DUP2 MSTORE PUSH1 0x6 PUSH1 0x20 SWAP1 DUP2 MSTORE PUSH1 0x40 DUP1 DUP4 KECCAK256 CALLER DUP5 MSTORE SWAP1 SWAP2 MSTORE SWAP1 KECCAK256 SLOAD PUSH1 0xFF AND JUMPDEST DUP1 PUSH2 0xD3F JUMPI POP PUSH1 0x0 DUP2 DUP2 MSTORE PUSH1 0x4 PUSH1 0x20 MSTORE PUSH1 0x40 SWAP1 KECCAK256 SLOAD PUSH1 0x1 PUSH1 0x1 PUSH1 0xA0 SHL SUB AND CALLER EQ JUMPDEST PUSH2 0xD8B JUMPI PUSH1 0x40 MLOAD PUSH3 0x461BCD PUSH1 0xE5 SHL DUP2 MSTORE PUSH1 0x20 PUSH1 0x4 DUP3 ADD MSTORE PUSH1 0xE PUSH1 0x24 DUP3 ADD MSTORE PUSH32 0x4E4F5420415554484F52495A4544000000000000000000000000000000000000 PUSH1 0x44 DUP3 ADD MSTORE PUSH1 0x64 ADD PUSH2 0x8B6 JUMP JUMPDEST PUSH1 0x1 PUSH1 0x1 PUSH1 0xA0 SHL SUB DUP1 DUP5 AND PUSH1 0x0 DUP2 DUP2 MSTORE PUSH1 0x2 PUSH1 0x20 SWAP1 DUP2 MSTORE PUSH1 0x40 DUP1 DUP4 KECCAK256 DUP1 SLOAD PUSH1 0x0 NOT ADD SWAP1 SSTORE SWAP4 DUP7 AND DUP1 DUP4 MSTORE DUP5 DUP4 KECCAK256 DUP1 SLOAD PUSH1 0x1 ADD SWAP1 SSTORE DUP6 DUP4 MSTORE PUSH1 0x3 DUP3 MSTORE DUP5 DUP4 KECCAK256 DUP1 SLOAD PUSH32 0xFFFFFFFFFFFFFFFFFFFFFFFF0000000000000000000000000000000000000000 SWAP1 DUP2 AND DUP4 OR SWAP1 SWAP2 SSTORE PUSH1 0x4 SWAP1 SWAP3 MSTORE DUP5 DUP4 KECCAK256 DUP1 SLOAD SWAP1 SWAP3 AND SWAP1 SWAP2 SSTORE SWAP3 MLOAD DUP5 SWAP4 SWAP3 SWAP2 PUSH32 0xDDF252AD1BE2C89B69C2B068FC378DAA952BA7F163C4A11628F55A4DF523B3EF SWAP2 LOG4 POP POP POP JUMP JUMPDEST PUSH1 0xA SLOAD PUSH1 0x0 SWAP1 DUP2 SWAP1 PUSH13 0x1000000000000000000000000 SWAP1 DIV PUSH1 0x1 PUSH1 0x1 PUSH1 0xA0 SHL SUB AND PUSH2 0xE5C DUP5 PUSH2 0x1499 JUMP JUMPDEST SWAP2 POP SWAP2 POP JUMPDEST SWAP3 POP SWAP3 SWAP1 POP JUMP JUMPDEST PUSH2 0xE73 DUP4 DUP4 DUP4 PUSH2 0xC25 JUMP JUMPDEST PUSH1 0x1 PUSH1 0x1 PUSH1 0xA0 SHL SUB DUP3 AND EXTCODESIZE ISZERO DUP1 PUSH2 0xF5C JUMPI POP PUSH1 0x40 MLOAD PUSH32 0x150B7A0200000000000000000000000000000000000000000000000000000000 DUP1 DUP3 MSTORE CALLER PUSH1 0x4 DUP4 ADD MSTORE PUSH1 0x1 PUSH1 0x1 PUSH1 0xA0 SHL SUB DUP6 DUP2 AND PUSH1 0x24 DUP5 ADD MSTORE PUSH1 0x44 DUP4 ADD DUP5 SWAP1 MSTORE PUSH1 0x80 PUSH1 0x64 DUP5 ADD MSTORE PUSH1 0x0 PUSH1 0x84 DUP5 ADD MSTORE SWAP1 SWAP2 SWAP1 DUP5 AND SWAP1 PUSH4 0x150B7A02 SWAP1 PUSH1 0xA4 ADD PUSH1 0x20 PUSH1 0x40 MLOAD DUP1 DUP4 SUB DUP2 PUSH1 0x0 DUP8 DUP1 EXTCODESIZE ISZERO DUP1 ISZERO PUSH2 0xF00 JUMPI PUSH1 0x0 DUP1 REVERT JUMPDEST POP GAS CALL ISZERO DUP1 ISZERO PUSH2 0xF14 JUMPI RETURNDATASIZE PUSH1 0x0 DUP1 RETURNDATACOPY RETURNDATASIZE PUSH1 0x0 REVERT JUMPDEST POP POP POP POP PUSH1 0x40 MLOAD RETURNDATASIZE PUSH1 0x1F NOT PUSH1 0x1F DUP3 ADD AND DUP3 ADD DUP1 PUSH1 0x40 MSTORE POP DUP2 ADD SWAP1 PUSH2 0xF38 SWAP2 SWAP1 PUSH2 0x26FC JUMP JUMPDEST PUSH32 0xFFFFFFFF00000000000000000000000000000000000000000000000000000000 AND EQ JUMPDEST PUSH2 0xFA8 JUMPI PUSH1 0x40 MLOAD PUSH3 0x461BCD PUSH1 0xE5 SHL DUP2 MSTORE PUSH1 0x20 PUSH1 0x4 DUP3 ADD MSTORE PUSH1 0x10 PUSH1 0x24 DUP3 ADD MSTORE PUSH32 0x554E534146455F524543495049454E5400000000000000000000000000000000 PUSH1 0x44 DUP3 ADD MSTORE PUSH1 0x64 ADD PUSH2 0x8B6 JUMP JUMPDEST POP POP POP JUMP JUMPDEST PUSH1 0x8 DUP1 SLOAD PUSH2 0x97C SWAP1 PUSH2 0x28B4 JUMP JUMPDEST PUSH1 0x7 SLOAD PUSH1 0x1 PUSH1 0x1 PUSH1 0xA0 SHL SUB AND CALLER EQ PUSH2 0x1014 JUMPI PUSH1 0x40 MLOAD PUSH3 0x461BCD PUSH1 0xE5 SHL DUP2 MSTORE PUSH1 0x20 PUSH1 0x4 DUP3 ADD MSTORE PUSH1 0x17 PUSH1 0x24 DUP3 ADD MSTORE PUSH32 0x43616C6C6572206973206E6F7420746865206F776E6572000000000000000000 PUSH1 0x44 DUP3 ADD MSTORE PUSH1 0x64 ADD PUSH2 0x8B6 JUMP JUMPDEST PUSH2 0xBB8 PUSH1 0x9 SLOAD GT ISZERO PUSH2 0x1068 JUMPI PUSH1 0x40 MLOAD PUSH3 0x461BCD PUSH1 0xE5 SHL DUP2 MSTORE PUSH1 0x20 PUSH1 0x4 DUP3 ADD MSTORE PUSH1 0x12 PUSH1 0x24 DUP3 ADD MSTORE PUSH32 0x4D617820737570706C7920726561636865640000000000000000000000000000 PUSH1 0x44 DUP3 ADD MSTORE PUSH1 0x64 ADD PUSH2 0x8B6 JUMP JUMPDEST PUSH1 0x9 DUP1 SLOAD PUSH1 0x1 ADD SWAP1 DUP2 SWAP1 SSTORE PUSH2 0x107F SWAP1 DUP4 SWAP1 DUP4 PUSH2 0x1A8A JUMP JUMPDEST POP POP JUMP JUMPDEST PUSH1 0x7 SLOAD PUSH1 0x1 PUSH1 0x1 PUSH1 0xA0 SHL SUB AND CALLER EQ PUSH2 0x10DD JUMPI PUSH1 0x40 MLOAD PUSH3 0x461BCD PUSH1 0xE5 SHL DUP2 MSTORE PUSH1 0x20 PUSH1 0x4 DUP3 ADD MSTORE PUSH1 0x17 PUSH1 0x24 DUP3 ADD MSTORE PUSH32 0x43616C6C6572206973206E6F7420746865206F776E6572000000000000000000 PUSH1 0x44 DUP3 ADD MSTORE PUSH1 0x64 ADD PUSH2 0x8B6 JUMP JUMPDEST PUSH2 0x10E8 PUSH1 0x1 DUP3 PUSH2 0x2871 JUMP JUMPDEST PUSH1 0xC SSTORE POP JUMP JUMPDEST PUSH1 0x1 DUP1 SLOAD PUSH2 0x97C SWAP1 PUSH2 0x28B4 JUMP JUMPDEST PUSH1 0xD SLOAD PUSH21 0x10000000000000000000000000000000000000000 SWAP1 DIV PUSH1 0xFF AND ISZERO PUSH2 0x1166 JUMPI PUSH1 0x40 MLOAD PUSH3 0x461BCD PUSH1 0xE5 SHL DUP2 MSTORE PUSH1 0x20 PUSH1 0x4 DUP3 ADD MSTORE PUSH1 0x11 PUSH1 0x24 DUP3 ADD MSTORE PUSH32 0x4D696E74696E6720697320706175736564000000000000000000000000000000 PUSH1 0x44 DUP3 ADD MSTORE PUSH1 0x64 ADD PUSH2 0x8B6 JUMP JUMPDEST PUSH1 0xC SLOAD CALLVALUE GT PUSH2 0x11B7 JUMPI PUSH1 0x40 MLOAD PUSH3 0x461BCD PUSH1 0xE5 SHL DUP2 MSTORE PUSH1 0x20 PUSH1 0x4 DUP3 ADD MSTORE PUSH1 0xF PUSH1 0x24 DUP3 ADD MSTORE PUSH32 0x4E6F7420656E676F756768206574680000000000000000000000000000000000 PUSH1 0x44 DUP3 ADD MSTORE PUSH1 0x64 ADD PUSH2 0x8B6 JUMP JUMPDEST PUSH1 0xB SLOAD PUSH1 0xFF AND PUSH2 0x1209 JUMPI PUSH1 0x40 MLOAD PUSH3 0x461BCD PUSH1 0xE5 SHL DUP2 MSTORE PUSH1 0x20 PUSH1 0x4 DUP3 ADD MSTORE PUSH1 0x18 PUSH1 0x24 DUP3 ADD MSTORE PUSH32 0x4F70656E206D696E74696E67206E6F7420616C6C6F7765640000000000000000 PUSH1 0x44 DUP3 ADD MSTORE PUSH1 0x64 ADD PUSH2 0x8B6 JUMP JUMPDEST PUSH1 0xB SLOAD PUSH1 0x9 SLOAD PUSH2 0x100 SWAP1 SWAP2 DIV PUSH15 0xFFFFFFFFFFFFFFFFFFFFFFFFFFFFFF AND LT ISZERO PUSH2 0x1274 JUMPI PUSH1 0x40 MLOAD PUSH3 0x461BCD PUSH1 0xE5 SHL DUP2 MSTORE PUSH1 0x20 PUSH1 0x4 DUP3 ADD MSTORE PUSH1 0x12 PUSH1 0x24 DUP3 ADD MSTORE PUSH32 0x4D617820737570706C7920726561636865640000000000000000000000000000 PUSH1 0x44 DUP3 ADD MSTORE PUSH1 0x64 ADD PUSH2 0x8B6 JUMP JUMPDEST PUSH1 0x9 DUP1 SLOAD PUSH1 0x1 ADD SWAP1 DUP2 SWAP1 SSTORE PUSH1 0x40 MLOAD PUSH32 0xFFFFFFFFFFFFFFFFFFFFFFFFFFFFFFFFFFFFFFFF000000000000000000000000 CALLER PUSH1 0x60 SHL AND PUSH1 0x20 DUP3 ADD MSTORE TIMESTAMP PUSH1 0x34 DUP3 ADD MSTORE PUSH1 0x54 DUP2 ADD SWAP2 SWAP1 SWAP2 MSTORE DIFFICULTY PUSH1 0x74 DUP3 ADD MSTORE PUSH1 0x0 SWAP1 PUSH1 0x3 SWAP1 PUSH1 0x94 ADD PUSH1 0x40 MLOAD PUSH1 0x20 DUP2 DUP4 SUB SUB DUP2 MSTORE SWAP1 PUSH1 0x40 MSTORE DUP1 MLOAD SWAP1 PUSH1 0x20 ADD KECCAK256 PUSH1 0x0 SHR PUSH2 0x12ED SWAP2 SWAP1 PUSH2 0x2923 JUMP JUMPDEST SWAP1 POP PUSH2 0x107F DUP3 PUSH1 0x9 SLOAD DUP4 PUSH2 0x1A8A JUMP JUMPDEST PUSH1 0x7 SLOAD PUSH1 0x1 PUSH1 0x1 PUSH1 0xA0 SHL SUB AND CALLER EQ PUSH2 0x1356 JUMPI PUSH1 0x40 MLOAD PUSH3 0x461BCD PUSH1 0xE5 SHL DUP2 MSTORE PUSH1 0x20 PUSH1 0x4 DUP3 ADD MSTORE PUSH1 0x17 PUSH1 0x24 DUP3 ADD MSTORE PUSH32 0x43616C6C6572206973206E6F7420746865206F776E6572000000000000000000 PUSH1 0x44 DUP3 ADD MSTORE PUSH1 0x64 ADD PUSH2 0x8B6 JUMP JUMPDEST PUSH1 0x0 PUSH2 0x136A PUSH1 0x7 SLOAD PUSH1 0x1 PUSH1 0x1 PUSH1 0xA0 SHL SUB AND SWAP1 JUMP JUMPDEST SWAP1 POP PUSH1 0x0 DUP2 PUSH1 0x1 PUSH1 0x1 PUSH1 0xA0 SHL SUB AND SELFBALANCE PUSH1 0x40 MLOAD PUSH1 0x0 PUSH1 0x40 MLOAD DUP1 DUP4 SUB DUP2 DUP6 DUP8 GAS CALL SWAP3 POP POP POP RETURNDATASIZE DUP1 PUSH1 0x0 DUP2 EQ PUSH2 0x13B9 JUMPI PUSH1 0x40 MLOAD SWAP2 POP PUSH1 0x1F NOT PUSH1 0x3F RETURNDATASIZE ADD AND DUP3 ADD PUSH1 0x40 MSTORE RETURNDATASIZE DUP3 MSTORE RETURNDATASIZE PUSH1 0x0 PUSH1 0x20 DUP5 ADD RETURNDATACOPY PUSH2 0x13BE JUMP JUMPDEST PUSH1 0x60 SWAP2 POP JUMPDEST POP POP SWAP1 POP DUP1 PUSH2 0x107F JUMPI PUSH1 0x40 MLOAD PUSH3 0x461BCD PUSH1 0xE5 SHL DUP2 MSTORE PUSH1 0x20 PUSH1 0x4 DUP3 ADD MSTORE PUSH1 0x12 PUSH1 0x24 DUP3 ADD MSTORE PUSH32 0x5472616E73616374696F6E206661696C65640000000000000000000000000000 PUSH1 0x44 DUP3 ADD MSTORE PUSH1 0x64 ADD PUSH2 0x8B6 JUMP JUMPDEST CALLER PUSH1 0x0 DUP2 DUP2 MSTORE PUSH1 0x6 PUSH1 0x20 SWAP1 DUP2 MSTORE PUSH1 0x40 DUP1 DUP4 KECCAK256 PUSH1 0x1 PUSH1 0x1 PUSH1 0xA0 SHL SUB DUP8 AND DUP1 DUP6 MSTORE SWAP1 DUP4 MSTORE SWAP3 DUP2 SWAP1 KECCAK256 DUP1 SLOAD PUSH32 0xFFFFFFFFFFFFFFFFFFFFFFFFFFFFFFFFFFFFFFFFFFFFFFFFFFFFFFFFFFFFFF00 AND DUP7 ISZERO ISZERO SWAP1 DUP2 OR SWAP1 SWAP2 SSTORE SWAP1 MLOAD SWAP1 DUP2 MSTORE SWAP2 SWAP3 SWAP2 PUSH32 0x17307EAB39AB6107E8899845AD3D59BD9653F200F220920489CA2B5937696C31 SWAP2 ADD PUSH1 0x40 MLOAD DUP1 SWAP2 SUB SWAP1 LOG3 POP POP JUMP JUMPDEST PUSH1 0xA SLOAD PUSH1 0x0 SWAP1 PUSH12 0xFFFFFFFFFFFFFFFFFFFFFFFF AND PUSH2 0x14B9 PUSH2 0x2710 DUP5 PUSH2 0x283E JUMP JUMPDEST PUSH2 0x85A SWAP2 SWAP1 PUSH2 0x2852 JUMP JUMPDEST PUSH2 0x14CE DUP5 DUP5 DUP5 PUSH2 0xC25 JUMP JUMPDEST PUSH1 0x1 PUSH1 0x1 PUSH1 0xA0 SHL SUB DUP4 AND EXTCODESIZE ISZERO DUP1 PUSH2 0x15A3 JUMPI POP PUSH1 0x40 MLOAD PUSH32 0x150B7A0200000000000000000000000000000000000000000000000000000000 DUP1 DUP3 MSTORE SWAP1 PUSH1 0x1 PUSH1 0x1 PUSH1 0xA0 SHL SUB DUP6 AND SWAP1 PUSH4 0x150B7A02 SWAP1 PUSH2 0x152D SWAP1 CALLER SWAP1 DUP10 SWAP1 DUP9 SWAP1 DUP9 SWAP1 PUSH1 0x4 ADD PUSH2 0x27D7 JUMP JUMPDEST PUSH1 0x20 PUSH1 0x40 MLOAD DUP1 DUP4 SUB DUP2 PUSH1 0x0 DUP8 DUP1 EXTCODESIZE ISZERO DUP1 ISZERO PUSH2 0x1547 JUMPI PUSH1 0x0 DUP1 REVERT JUMPDEST POP GAS CALL ISZERO DUP1 ISZERO PUSH2 0x155B JUMPI RETURNDATASIZE PUSH1 0x0 DUP1 RETURNDATACOPY RETURNDATASIZE PUSH1 0x0 REVERT JUMPDEST POP POP POP POP PUSH1 0x40 MLOAD RETURNDATASIZE PUSH1 0x1F NOT PUSH1 0x1F DUP3 ADD AND DUP3 ADD DUP1 PUSH1 0x40 MSTORE POP DUP2 ADD SWAP1 PUSH2 0x157F SWAP2 SWAP1 PUSH2 0x26FC JUMP JUMPDEST PUSH32 0xFFFFFFFF00000000000000000000000000000000000000000000000000000000 AND EQ JUMPDEST PUSH2 0x15EF JUMPI PUSH1 0x40 MLOAD PUSH3 0x461BCD PUSH1 0xE5 SHL DUP2 MSTORE PUSH1 0x20 PUSH1 0x4 DUP3 ADD MSTORE PUSH1 0x10 PUSH1 0x24 DUP3 ADD MSTORE PUSH32 0x554E534146455F524543495049454E5400000000000000000000000000000000 PUSH1 0x44 DUP3 ADD MSTORE PUSH1 0x64 ADD PUSH2 0x8B6 JUMP JUMPDEST POP POP POP POP JUMP JUMPDEST PUSH1 0x0 PUSH2 0x1602 DUP5 DUP5 DUP5 PUSH2 0x1BD6 JUMP JUMPDEST SWAP5 SWAP4 POP POP POP POP JUMP JUMPDEST PUSH1 0x0 DUP2 DUP2 MSTORE PUSH1 0x3 PUSH1 0x20 MSTORE PUSH1 0x40 SWAP1 KECCAK256 SLOAD PUSH1 0x60 SWAP1 PUSH1 0x1 PUSH1 0x1 PUSH1 0xA0 SHL SUB AND PUSH2 0x1671 JUMPI PUSH1 0x40 MLOAD PUSH3 0x461BCD PUSH1 0xE5 SHL DUP2 MSTORE PUSH1 0x20 PUSH1 0x4 DUP3 ADD MSTORE PUSH1 0x1C PUSH1 0x24 DUP3 ADD MSTORE PUSH32 0x4E6F20746F6B656E207769746820746869732049642065786973747300000000 PUSH1 0x44 DUP3 ADD MSTORE PUSH1 0x64 ADD PUSH2 0x8B6 JUMP JUMPDEST PUSH1 0x0 PUSH2 0x167B PUSH2 0x1BF8 JUMP JUMPDEST SWAP1 POP PUSH1 0x0 DUP2 MLOAD GT PUSH2 0x169B JUMPI PUSH1 0x40 MLOAD DUP1 PUSH1 0x20 ADD PUSH1 0x40 MSTORE DUP1 PUSH1 0x0 DUP2 MSTORE POP PUSH2 0x16D6 JUMP JUMPDEST PUSH1 0x0 DUP4 DUP2 MSTORE PUSH1 0x5 PUSH1 0x20 MSTORE PUSH1 0x40 SWAP1 KECCAK256 SLOAD DUP2 SWAP1 PUSH2 0x16B5 SWAP1 PUSH2 0x1C8A JUMP JUMPDEST PUSH1 0x40 MLOAD PUSH1 0x20 ADD PUSH2 0x16C6 SWAP3 SWAP2 SWAP1 PUSH2 0x2780 JUMP JUMPDEST PUSH1 0x40 MLOAD PUSH1 0x20 DUP2 DUP4 SUB SUB DUP2 MSTORE SWAP1 PUSH1 0x40 MSTORE JUMPDEST SWAP4 SWAP3 POP POP POP JUMP JUMPDEST PUSH1 0x7 SLOAD PUSH1 0x1 PUSH1 0x1 PUSH1 0xA0 SHL SUB AND CALLER EQ PUSH2 0x1737 JUMPI PUSH1 0x40 MLOAD PUSH3 0x461BCD PUSH1 0xE5 SHL DUP2 MSTORE PUSH1 0x20 PUSH1 0x4 DUP3 ADD MSTORE PUSH1 0x17 PUSH1 0x24 DUP3 ADD MSTORE PUSH32 0x43616C6C6572206973206E6F7420746865206F776E6572000000000000000000 PUSH1 0x44 DUP3 ADD MSTORE PUSH1 0x64 ADD PUSH2 0x8B6 JUMP JUMPDEST PUSH1 0x1 PUSH1 0x1 PUSH1 0xA0 SHL SUB DUP2 AND PUSH2 0x178D JUMPI PUSH1 0x40 MLOAD PUSH3 0x461BCD PUSH1 0xE5 SHL DUP2 MSTORE PUSH1 0x20 PUSH1 0x4 DUP3 ADD MSTORE PUSH1 0x1C PUSH1 0x24 DUP3 ADD MSTORE PUSH32 0x4F776E65722063616E6E6F74206265207A65726F206164647265737300000000 PUSH1 0x44 DUP3 ADD MSTORE PUSH1 0x64 ADD PUSH2 0x8B6 JUMP JUMPDEST PUSH2 0x1796 DUP2 PUSH2 0x1DBC JUMP JUMPDEST POP JUMP JUMPDEST PUSH1 0x7 SLOAD PUSH1 0x1 PUSH1 0x1 PUSH1 0xA0 SHL SUB AND CALLER EQ PUSH2 0x17F3 JUMPI PUSH1 0x40 MLOAD PUSH3 0x461BCD PUSH1 0xE5 SHL DUP2 MSTORE PUSH1 0x20 PUSH1 0x4 DUP3 ADD MSTORE PUSH1 0x17 PUSH1 0x24 DUP3 ADD MSTORE PUSH32 0x43616C6C6572206973206E6F7420746865206F776E6572000000000000000000 PUSH1 0x44 DUP3 ADD MSTORE PUSH1 0x64 ADD PUSH2 0x8B6 JUMP JUMPDEST PUSH1 0xD DUP1 SLOAD SWAP2 ISZERO ISZERO PUSH21 0x10000000000000000000000000000000000000000 MUL PUSH32 0xFFFFFFFFFFFFFFFFFFFFFF00FFFFFFFFFFFFFFFFFFFFFFFFFFFFFFFFFFFFFFFF SWAP1 SWAP3 AND SWAP2 SWAP1 SWAP2 OR SWAP1 SSTORE JUMP JUMPDEST PUSH1 0xD SLOAD PUSH21 0x10000000000000000000000000000000000000000 SWAP1 DIV PUSH1 0xFF AND ISZERO PUSH2 0x18A8 JUMPI PUSH1 0x40 MLOAD PUSH3 0x461BCD PUSH1 0xE5 SHL DUP2 MSTORE PUSH1 0x20 PUSH1 0x4 DUP3 ADD MSTORE PUSH1 0x11 PUSH1 0x24 DUP3 ADD MSTORE PUSH32 0x4D696E74696E6720697320706175736564000000000000000000000000000000 PUSH1 0x44 DUP3 ADD MSTORE PUSH1 0x64 ADD PUSH2 0x8B6 JUMP JUMPDEST PUSH1 0xB SLOAD PUSH1 0x9 SLOAD PUSH2 0x100 SWAP1 SWAP2 DIV PUSH15 0xFFFFFFFFFFFFFFFFFFFFFFFFFFFFFF AND LT ISZERO PUSH2 0x1913 JUMPI PUSH1 0x40 MLOAD PUSH3 0x461BCD PUSH1 0xE5 SHL DUP2 MSTORE PUSH1 0x20 PUSH1 0x4 DUP3 ADD MSTORE PUSH1 0x12 PUSH1 0x24 DUP3 ADD MSTORE PUSH32 0x4D617820737570706C7920726561636865640000000000000000000000000000 PUSH1 0x44 DUP3 ADD MSTORE PUSH1 0x64 ADD PUSH2 0x8B6 JUMP JUMPDEST PUSH1 0xD SLOAD PUSH1 0x1 PUSH1 0x1 PUSH1 0xA0 SHL SUB AND PUSH2 0x192A CALLER DUP5 DUP5 PUSH2 0x15F5 JUMP JUMPDEST PUSH1 0x1 PUSH1 0x1 PUSH1 0xA0 SHL SUB AND EQ PUSH2 0x1980 JUMPI PUSH1 0x40 MLOAD PUSH3 0x461BCD PUSH1 0xE5 SHL DUP2 MSTORE PUSH1 0x20 PUSH1 0x4 DUP3 ADD MSTORE PUSH1 0x11 PUSH1 0x24 DUP3 ADD MSTORE PUSH32 0x496E76616C6964207369676E6174757265000000000000000000000000000000 PUSH1 0x44 DUP3 ADD MSTORE PUSH1 0x64 ADD PUSH2 0x8B6 JUMP JUMPDEST PUSH1 0x0 PUSH2 0x2710 PUSH1 0xC SLOAD DUP5 PUSH2 0x2710 PUSH2 0x1996 SWAP2 SWAP1 PUSH2 0x2871 JUMP JUMPDEST PUSH2 0x19A0 SWAP2 SWAP1 PUSH2 0x2852 JUMP JUMPDEST PUSH2 0x19AA SWAP2 SWAP1 PUSH2 0x283E JUMP JUMPDEST SWAP1 POP DUP1 CALLVALUE GT PUSH2 0x19FB JUMPI PUSH1 0x40 MLOAD PUSH3 0x461BCD PUSH1 0xE5 SHL DUP2 MSTORE PUSH1 0x20 PUSH1 0x4 DUP3 ADD MSTORE PUSH1 0xF PUSH1 0x24 DUP3 ADD MSTORE PUSH32 0x4E6F7420656E676F756768206574680000000000000000000000000000000000 PUSH1 0x44 DUP3 ADD MSTORE PUSH1 0x64 ADD PUSH2 0x8B6 JUMP JUMPDEST PUSH1 0x9 DUP1 SLOAD PUSH1 0x1 ADD SWAP1 DUP2 SWAP1 SSTORE PUSH1 0x40 MLOAD PUSH32 0xFFFFFFFFFFFFFFFFFFFFFFFFFFFFFFFFFFFFFFFF000000000000000000000000 CALLER PUSH1 0x60 SHL AND PUSH1 0x20 DUP3 ADD MSTORE TIMESTAMP PUSH1 0x34 DUP3 ADD MSTORE PUSH1 0x54 DUP2 ADD SWAP2 SWAP1 SWAP2 MSTORE DIFFICULTY PUSH1 0x74 DUP3 ADD MSTORE PUSH1 0x0 SWAP1 PUSH1 0x3 SWAP1 PUSH1 0x94 ADD PUSH1 0x40 MLOAD PUSH1 0x20 DUP2 DUP4 SUB SUB DUP2 MSTORE SWAP1 PUSH1 0x40 MSTORE DUP1 MLOAD SWAP1 PUSH1 0x20 ADD KECCAK256 PUSH1 0x0 SHR PUSH2 0x1A74 SWAP2 SWAP1 PUSH2 0x2923 JUMP JUMPDEST SWAP1 POP PUSH2 0x1A83 DUP6 PUSH1 0x9 SLOAD DUP4 PUSH2 0x1A8A JUMP JUMPDEST POP POP POP POP POP JUMP JUMPDEST PUSH1 0x1 PUSH1 0x1 PUSH1 0xA0 SHL SUB DUP4 AND PUSH2 0x1AE0 JUMPI PUSH1 0x40 MLOAD PUSH3 0x461BCD PUSH1 0xE5 SHL DUP2 MSTORE PUSH1 0x20 PUSH1 0x4 DUP3 ADD MSTORE PUSH1 0xA PUSH1 0x24 DUP3 ADD MSTORE PUSH32 0x494E56414C49445F544F00000000000000000000000000000000000000000000 PUSH1 0x44 DUP3 ADD MSTORE PUSH1 0x64 ADD PUSH2 0x8B6 JUMP JUMPDEST PUSH1 0x0 DUP3 DUP2 MSTORE PUSH1 0x3 PUSH1 0x20 MSTORE PUSH1 0x40 SWAP1 KECCAK256 SLOAD PUSH1 0x1 PUSH1 0x1 PUSH1 0xA0 SHL SUB AND ISZERO PUSH2 0x1B45 JUMPI PUSH1 0x40 MLOAD PUSH3 0x461BCD PUSH1 0xE5 SHL DUP2 MSTORE PUSH1 0x20 PUSH1 0x4 DUP3 ADD MSTORE PUSH1 0xE PUSH1 0x24 DUP3 ADD MSTORE PUSH32 0x414C52454144595F4D494E544544000000000000000000000000000000000000 PUSH1 0x44 DUP3 ADD MSTORE PUSH1 0x64 ADD PUSH2 0x8B6 JUMP JUMPDEST PUSH1 0x1 PUSH1 0x1 PUSH1 0xA0 SHL SUB DUP4 AND PUSH1 0x0 DUP2 DUP2 MSTORE PUSH1 0x2 PUSH1 0x20 SWAP1 DUP2 MSTORE PUSH1 0x40 DUP1 DUP4 KECCAK256 DUP1 SLOAD PUSH1 0x1 ADD SWAP1 SSTORE DUP6 DUP4 MSTORE PUSH1 0x3 DUP3 MSTORE DUP1 DUP4 KECCAK256 DUP1 SLOAD PUSH32 0xFFFFFFFFFFFFFFFFFFFFFFFF0000000000000000000000000000000000000000 AND DUP6 OR SWAP1 SSTORE PUSH1 0x5 SWAP1 SWAP2 MSTORE DUP1 DUP3 KECCAK256 PUSH1 0xFF DUP6 AND SWAP1 SSTORE MLOAD DUP5 SWAP3 SWAP2 SWAP1 PUSH32 0xDDF252AD1BE2C89B69C2B068FC378DAA952BA7F163C4A11628F55A4DF523B3EF SWAP1 DUP3 SWAP1 LOG4 POP POP POP JUMP JUMPDEST PUSH1 0x0 DUP1 PUSH2 0x1BE3 DUP6 DUP6 PUSH2 0x1E3C JUMP JUMPDEST SWAP1 POP PUSH2 0x1BEF DUP2 DUP5 PUSH2 0x1EA3 JUMP JUMPDEST SWAP6 SWAP5 POP POP POP POP POP JUMP JUMPDEST PUSH1 0x60 PUSH1 0x8 DUP1 SLOAD PUSH2 0x1C07 SWAP1 PUSH2 0x28B4 JUMP JUMPDEST DUP1 PUSH1 0x1F ADD PUSH1 0x20 DUP1 SWAP2 DIV MUL PUSH1 0x20 ADD PUSH1 0x40 MLOAD SWAP1 DUP2 ADD PUSH1 0x40 MSTORE DUP1 SWAP3 SWAP2 SWAP1 DUP2 DUP2 MSTORE PUSH1 0x20 ADD DUP3 DUP1 SLOAD PUSH2 0x1C33 SWAP1 PUSH2 0x28B4 JUMP JUMPDEST DUP1 ISZERO PUSH2 0x1C80 JUMPI DUP1 PUSH1 0x1F LT PUSH2 0x1C55 JUMPI PUSH2 0x100 DUP1 DUP4 SLOAD DIV MUL DUP4 MSTORE SWAP2 PUSH1 0x20 ADD SWAP2 PUSH2 0x1C80 JUMP JUMPDEST DUP3 ADD SWAP2 SWAP1 PUSH1 0x0 MSTORE PUSH1 0x20 PUSH1 0x0 KECCAK256 SWAP1 JUMPDEST DUP2 SLOAD DUP2 MSTORE SWAP1 PUSH1 0x1 ADD SWAP1 PUSH1 0x20 ADD DUP1 DUP4 GT PUSH2 0x1C63 JUMPI DUP3 SWAP1 SUB PUSH1 0x1F AND DUP3 ADD SWAP2 JUMPDEST POP POP POP POP POP SWAP1 POP SWAP1 JUMP JUMPDEST PUSH1 0x60 DUP2 PUSH2 0x1CCA JUMPI POP POP PUSH1 0x40 DUP1 MLOAD DUP1 DUP3 ADD SWAP1 SWAP2 MSTORE PUSH1 0x1 DUP2 MSTORE PUSH32 0x3000000000000000000000000000000000000000000000000000000000000000 PUSH1 0x20 DUP3 ADD MSTORE SWAP1 JUMP JUMPDEST DUP2 PUSH1 0x0 JUMPDEST DUP2 ISZERO PUSH2 0x1CF4 JUMPI DUP1 PUSH2 0x1CDE DUP2 PUSH2 0x2908 JUMP JUMPDEST SWAP2 POP PUSH2 0x1CED SWAP1 POP PUSH1 0xA DUP4 PUSH2 0x283E JUMP JUMPDEST SWAP2 POP PUSH2 0x1CCE JUMP JUMPDEST PUSH1 0x0 DUP2 PUSH8 0xFFFFFFFFFFFFFFFF DUP2 GT ISZERO PUSH2 0x1D0F JUMPI PUSH2 0x1D0F PUSH2 0x29F3 JUMP JUMPDEST PUSH1 0x40 MLOAD SWAP1 DUP1 DUP3 MSTORE DUP1 PUSH1 0x1F ADD PUSH1 0x1F NOT AND PUSH1 0x20 ADD DUP3 ADD PUSH1 0x40 MSTORE DUP1 ISZERO PUSH2 0x1D39 JUMPI PUSH1 0x20 DUP3 ADD DUP2 DUP1 CALLDATASIZE DUP4 CALLDATACOPY ADD SWAP1 POP JUMPDEST POP SWAP1 POP JUMPDEST DUP5 ISZERO PUSH2 0x1602 JUMPI PUSH2 0x1D4E PUSH1 0x1 DUP4 PUSH2 0x2871 JUMP JUMPDEST SWAP2 POP PUSH2 0x1D5B PUSH1 0xA DUP7 PUSH2 0x2923 JUMP JUMPDEST PUSH2 0x1D66 SWAP1 PUSH1 0x30 PUSH2 0x2826 JUMP JUMPDEST PUSH1 0xF8 SHL DUP2 DUP4 DUP2 MLOAD DUP2 LT PUSH2 0x1D7B JUMPI PUSH2 0x1D7B PUSH2 0x29C4 JUMP JUMPDEST PUSH1 0x20 ADD ADD SWAP1 PUSH31 0xFFFFFFFFFFFFFFFFFFFFFFFFFFFFFFFFFFFFFFFFFFFFFFFFFFFFFFFFFFFFFF NOT AND SWAP1 DUP2 PUSH1 0x0 BYTE SWAP1 MSTORE8 POP PUSH2 0x1DB5 PUSH1 0xA DUP7 PUSH2 0x283E JUMP JUMPDEST SWAP5 POP PUSH2 0x1D3D JUMP JUMPDEST PUSH1 0x0 PUSH2 0x1DD0 PUSH1 0x7 SLOAD PUSH1 0x1 PUSH1 0x1 PUSH1 0xA0 SHL SUB AND SWAP1 JUMP JUMPDEST PUSH1 0x7 DUP1 SLOAD PUSH32 0xFFFFFFFFFFFFFFFFFFFFFFFF0000000000000000000000000000000000000000 AND PUSH1 0x1 PUSH1 0x1 PUSH1 0xA0 SHL SUB DUP6 DUP2 AND SWAP2 DUP3 OR SWAP1 SWAP3 SSTORE PUSH1 0x40 MLOAD SWAP3 SWAP4 POP SWAP2 SWAP1 DUP4 AND SWAP1 PUSH32 0xD18B5FD22306E373229B9439188228EDCA81207D1667F604DAF6CEF8AA3EE67 SWAP1 PUSH1 0x0 SWAP1 LOG3 POP POP JUMP JUMPDEST PUSH1 0x40 DUP1 MLOAD PUSH32 0x8C9952748B13138200D658BBCDD87EEE4FA0BCCA0E5CA689D665E1A1ECCE8F7B PUSH1 0x20 DUP3 ADD MSTORE PUSH1 0x1 PUSH1 0x1 PUSH1 0xA0 SHL SUB DUP5 AND SWAP2 DUP2 ADD SWAP2 SWAP1 SWAP2 MSTORE PUSH1 0x60 DUP2 ADD DUP3 SWAP1 MSTORE PUSH1 0x0 SWAP1 PUSH2 0x16D6 SWAP1 PUSH1 0x80 ADD PUSH1 0x40 MLOAD PUSH1 0x20 DUP2 DUP4 SUB SUB DUP2 MSTORE SWAP1 PUSH1 0x40 MSTORE DUP1 MLOAD SWAP1 PUSH1 0x20 ADD KECCAK256 PUSH2 0x1EC7 JUMP JUMPDEST PUSH1 0x0 DUP1 PUSH1 0x0 PUSH2 0x1EB2 DUP6 DUP6 PUSH2 0x1F30 JUMP JUMPDEST SWAP2 POP SWAP2 POP PUSH2 0x1EBF DUP2 PUSH2 0x1F9D JUMP JUMPDEST POP SWAP4 SWAP3 POP POP POP JUMP JUMPDEST PUSH1 0x0 PUSH2 0x85A PUSH2 0x1ED4 PUSH2 0x218E JUMP JUMPDEST DUP4 PUSH1 0x40 MLOAD PUSH32 0x1901000000000000000000000000000000000000000000000000000000000000 PUSH1 0x20 DUP3 ADD MSTORE PUSH1 0x22 DUP2 ADD DUP4 SWAP1 MSTORE PUSH1 0x42 DUP2 ADD DUP3 SWAP1 MSTORE PUSH1 0x0 SWAP1 PUSH1 0x62 ADD PUSH1 0x40 MLOAD PUSH1 0x20 DUP2 DUP4 SUB SUB DUP2 MSTORE SWAP1 PUSH1 0x40 MSTORE DUP1 MLOAD SWAP1 PUSH1 0x20 ADD KECCAK256 SWAP1 POP SWAP3 SWAP2 POP POP JUMP JUMPDEST PUSH1 0x0 DUP1 DUP3 MLOAD PUSH1 0x41 EQ ISZERO PUSH2 0x1F67 JUMPI PUSH1 0x20 DUP4 ADD MLOAD PUSH1 0x40 DUP5 ADD MLOAD PUSH1 0x60 DUP6 ADD MLOAD PUSH1 0x0 BYTE PUSH2 0x1F5B DUP8 DUP3 DUP6 DUP6 PUSH2 0x22B5 JUMP JUMPDEST SWAP5 POP SWAP5 POP POP POP POP PUSH2 0xE61 JUMP JUMPDEST DUP3 MLOAD PUSH1 0x40 EQ ISZERO PUSH2 0x1F91 JUMPI PUSH1 0x20 DUP4 ADD MLOAD PUSH1 0x40 DUP5 ADD MLOAD PUSH2 0x1F86 DUP7 DUP4 DUP4 PUSH2 0x23A2 JUMP JUMPDEST SWAP4 POP SWAP4 POP POP POP PUSH2 0xE61 JUMP JUMPDEST POP PUSH1 0x0 SWAP1 POP PUSH1 0x2 PUSH2 0xE61 JUMP JUMPDEST PUSH1 0x0 DUP2 PUSH1 0x4 DUP2 GT ISZERO PUSH2 0x1FB1 JUMPI PUSH2 0x1FB1 PUSH2 0x2995 JUMP JUMPDEST EQ ISZERO PUSH2 0x1FBA JUMPI POP JUMP JUMPDEST PUSH1 0x1 DUP2 PUSH1 0x4 DUP2 GT ISZERO PUSH2 0x1FCE JUMPI PUSH2 0x1FCE PUSH2 0x2995 JUMP JUMPDEST EQ ISZERO PUSH2 0x201C JUMPI PUSH1 0x40 MLOAD PUSH3 0x461BCD PUSH1 0xE5 SHL DUP2 MSTORE PUSH1 0x20 PUSH1 0x4 DUP3 ADD MSTORE PUSH1 0x18 PUSH1 0x24 DUP3 ADD MSTORE PUSH32 0x45434453413A20696E76616C6964207369676E61747572650000000000000000 PUSH1 0x44 DUP3 ADD MSTORE PUSH1 0x64 ADD PUSH2 0x8B6 JUMP JUMPDEST PUSH1 0x2 DUP2 PUSH1 0x4 DUP2 GT ISZERO PUSH2 0x2030 JUMPI PUSH2 0x2030 PUSH2 0x2995 JUMP JUMPDEST EQ ISZERO PUSH2 0x207E JUMPI PUSH1 0x40 MLOAD PUSH3 0x461BCD PUSH1 0xE5 SHL DUP2 MSTORE PUSH1 0x20 PUSH1 0x4 DUP3 ADD MSTORE PUSH1 0x1F PUSH1 0x24 DUP3 ADD MSTORE PUSH32 0x45434453413A20696E76616C6964207369676E6174757265206C656E67746800 PUSH1 0x44 DUP3 ADD MSTORE PUSH1 0x64 ADD PUSH2 0x8B6 JUMP JUMPDEST PUSH1 0x3 DUP2 PUSH1 0x4 DUP2 GT ISZERO PUSH2 0x2092 JUMPI PUSH2 0x2092 PUSH2 0x2995 JUMP JUMPDEST EQ ISZERO PUSH2 0x2106 JUMPI PUSH1 0x40 MLOAD PUSH3 0x461BCD PUSH1 0xE5 SHL DUP2 MSTORE PUSH1 0x20 PUSH1 0x4 DUP3 ADD MSTORE PUSH1 0x22 PUSH1 0x24 DUP3 ADD MSTORE PUSH32 0x45434453413A20696E76616C6964207369676E6174757265202773272076616C PUSH1 0x44 DUP3 ADD MSTORE PUSH32 0x7565000000000000000000000000000000000000000000000000000000000000 PUSH1 0x64 DUP3 ADD MSTORE PUSH1 0x84 ADD PUSH2 0x8B6 JUMP JUMPDEST PUSH1 0x4 DUP2 PUSH1 0x4 DUP2 GT ISZERO PUSH2 0x211A JUMPI PUSH2 0x211A PUSH2 0x2995 JUMP JUMPDEST EQ ISZERO PUSH2 0x1796 JUMPI PUSH1 0x40 MLOAD PUSH3 0x461BCD PUSH1 0xE5 SHL DUP2 MSTORE PUSH1 0x20 PUSH1 0x4 DUP3 ADD MSTORE PUSH1 0x22 PUSH1 0x24 DUP3 ADD MSTORE PUSH32 0x45434453413A20696E76616C6964207369676E6174757265202776272076616C PUSH1 0x44 DUP3 ADD MSTORE PUSH32 0x7565000000000000000000000000000000000000000000000000000000000000 PUSH1 0x64 DUP3 ADD MSTORE PUSH1 0x84 ADD PUSH2 0x8B6 JUMP JUMPDEST PUSH1 0x0 ADDRESS PUSH1 0x1 PUSH1 0x1 PUSH1 0xA0 SHL SUB PUSH32 0x0 AND EQ DUP1 ISZERO PUSH2 0x21E7 JUMPI POP PUSH32 0x0 CHAINID EQ JUMPDEST ISZERO PUSH2 0x2211 JUMPI POP PUSH32 0x0 SWAP1 JUMP JUMPDEST POP PUSH1 0x40 DUP1 MLOAD PUSH32 0x0 PUSH1 0x20 DUP1 DUP4 ADD SWAP2 SWAP1 SWAP2 MSTORE PUSH32 0x0 DUP3 DUP5 ADD MSTORE PUSH32 0x0 PUSH1 0x60 DUP4 ADD MSTORE CHAINID PUSH1 0x80 DUP4 ADD MSTORE ADDRESS PUSH1 0xA0 DUP1 DUP5 ADD SWAP2 SWAP1 SWAP2 MSTORE DUP4 MLOAD DUP1 DUP5 SUB SWAP1 SWAP2 ADD DUP2 MSTORE PUSH1 0xC0 SWAP1 SWAP3 ADD SWAP1 SWAP3 MSTORE DUP1 MLOAD SWAP2 ADD KECCAK256 SWAP1 JUMP JUMPDEST PUSH1 0x0 DUP1 PUSH32 0x7FFFFFFFFFFFFFFFFFFFFFFFFFFFFFFF5D576E7357A4501DDFE92F46681B20A0 DUP4 GT ISZERO PUSH2 0x22EC JUMPI POP PUSH1 0x0 SWAP1 POP PUSH1 0x3 PUSH2 0x2399 JUMP JUMPDEST DUP5 PUSH1 0xFF AND PUSH1 0x1B EQ ISZERO DUP1 ISZERO PUSH2 0x2304 JUMPI POP DUP5 PUSH1 0xFF AND PUSH1 0x1C EQ ISZERO JUMPDEST ISZERO PUSH2 0x2315 JUMPI POP PUSH1 0x0 SWAP1 POP PUSH1 0x4 PUSH2 0x2399 JUMP JUMPDEST PUSH1 0x40 DUP1 MLOAD PUSH1 0x0 DUP1 DUP3 MSTORE PUSH1 0x20 DUP3 ADD DUP1 DUP5 MSTORE DUP10 SWAP1 MSTORE PUSH1 0xFF DUP9 AND SWAP3 DUP3 ADD SWAP3 SWAP1 SWAP3 MSTORE PUSH1 0x60 DUP2 ADD DUP7 SWAP1 MSTORE PUSH1 0x80 DUP2 ADD DUP6 SWAP1 MSTORE PUSH1 0x1 SWAP1 PUSH1 0xA0 ADD PUSH1 0x20 PUSH1 0x40 MLOAD PUSH1 0x20 DUP2 SUB SWAP1 DUP1 DUP5 SUB SWAP1 DUP6 GAS STATICCALL ISZERO DUP1 ISZERO PUSH2 0x2369 JUMPI RETURNDATASIZE PUSH1 0x0 DUP1 RETURNDATACOPY RETURNDATASIZE PUSH1 0x0 REVERT JUMPDEST POP POP PUSH1 0x40 MLOAD PUSH1 0x1F NOT ADD MLOAD SWAP2 POP POP PUSH1 0x1 PUSH1 0x1 PUSH1 0xA0 SHL SUB DUP2 AND PUSH2 0x2392 JUMPI PUSH1 0x0 PUSH1 0x1 SWAP3 POP SWAP3 POP POP PUSH2 0x2399 JUMP JUMPDEST SWAP2 POP PUSH1 0x0 SWAP1 POP JUMPDEST SWAP5 POP SWAP5 SWAP3 POP POP POP JUMP JUMPDEST PUSH1 0x0 DUP1 PUSH32 0x7FFFFFFFFFFFFFFFFFFFFFFFFFFFFFFFFFFFFFFFFFFFFFFFFFFFFFFFFFFFFFFF DUP4 AND DUP2 PUSH2 0x23D8 PUSH1 0xFF DUP7 SWAP1 SHR PUSH1 0x1B PUSH2 0x2826 JUMP JUMPDEST SWAP1 POP PUSH2 0x23E6 DUP8 DUP3 DUP9 DUP6 PUSH2 0x22B5 JUMP JUMPDEST SWAP4 POP SWAP4 POP POP POP SWAP4 POP SWAP4 SWAP2 POP POP JUMP JUMPDEST DUP1 CALLDATALOAD PUSH1 0x1 PUSH1 0x1 PUSH1 0xA0 SHL SUB DUP2 AND DUP2 EQ PUSH2 0x240B JUMPI PUSH1 0x0 DUP1 REVERT JUMPDEST SWAP2 SWAP1 POP JUMP JUMPDEST DUP1 CALLDATALOAD DUP1 ISZERO ISZERO DUP2 EQ PUSH2 0x240B JUMPI PUSH1 0x0 DUP1 REVERT JUMPDEST PUSH1 0x0 DUP3 PUSH1 0x1F DUP4 ADD SLT PUSH2 0x2431 JUMPI PUSH1 0x0 DUP1 REVERT JUMPDEST DUP2 CALLDATALOAD PUSH8 0xFFFFFFFFFFFFFFFF DUP1 DUP3 GT ISZERO PUSH2 0x244C JUMPI PUSH2 0x244C PUSH2 0x29F3 JUMP JUMPDEST PUSH1 0x40 MLOAD PUSH1 0x1F DUP4 ADD PUSH1 0x1F NOT SWAP1 DUP2 AND PUSH1 0x3F ADD AND DUP2 ADD SWAP1 DUP3 DUP3 GT DUP2 DUP4 LT OR ISZERO PUSH2 0x2474 JUMPI PUSH2 0x2474 PUSH2 0x29F3 JUMP JUMPDEST DUP2 PUSH1 0x40 MSTORE DUP4 DUP2 MSTORE DUP7 PUSH1 0x20 DUP6 DUP9 ADD ADD GT ISZERO PUSH2 0x248D JUMPI PUSH1 0x0 DUP1 REVERT JUMPDEST DUP4 PUSH1 0x20 DUP8 ADD PUSH1 0x20 DUP4 ADD CALLDATACOPY PUSH1 0x0 PUSH1 0x20 DUP6 DUP4 ADD ADD MSTORE DUP1 SWAP5 POP POP POP POP POP SWAP3 SWAP2 POP POP JUMP JUMPDEST PUSH1 0x0 PUSH1 0x20 DUP3 DUP5 SUB SLT ISZERO PUSH2 0x24BF JUMPI PUSH1 0x0 DUP1 REVERT JUMPDEST PUSH2 0x16D6 DUP3 PUSH2 0x23F4 JUMP JUMPDEST PUSH1 0x0 DUP1 PUSH1 0x40 DUP4 DUP6 SUB SLT ISZERO PUSH2 0x24DB JUMPI PUSH1 0x0 DUP1 REVERT JUMPDEST PUSH2 0x24E4 DUP4 PUSH2 0x23F4 JUMP JUMPDEST SWAP2 POP PUSH2 0x24F2 PUSH1 0x20 DUP5 ADD PUSH2 0x23F4 JUMP JUMPDEST SWAP1 POP SWAP3 POP SWAP3 SWAP1 POP JUMP JUMPDEST PUSH1 0x0 DUP1 PUSH1 0x0 PUSH1 0x60 DUP5 DUP7 SUB SLT ISZERO PUSH2 0x2510 JUMPI PUSH1 0x0 DUP1 REVERT JUMPDEST PUSH2 0x2519 DUP5 PUSH2 0x23F4 JUMP JUMPDEST SWAP3 POP PUSH2 0x2527 PUSH1 0x20 DUP6 ADD PUSH2 0x23F4 JUMP JUMPDEST SWAP2 POP PUSH1 0x40 DUP5 ADD CALLDATALOAD SWAP1 POP SWAP3 POP SWAP3 POP SWAP3 JUMP JUMPDEST PUSH1 0x0 DUP1 PUSH1 0x0 DUP1 PUSH1 0x80 DUP6 DUP8 SUB SLT ISZERO PUSH2 0x254D JUMPI PUSH1 0x0 DUP1 REVERT JUMPDEST PUSH2 0x2556 DUP6 PUSH2 0x23F4 JUMP JUMPDEST SWAP4 POP PUSH2 0x2564 PUSH1 0x20 DUP7 ADD PUSH2 0x23F4 JUMP JUMPDEST SWAP3 POP PUSH1 0x40 DUP6 ADD CALLDATALOAD SWAP2 POP PUSH1 0x60 DUP6 ADD CALLDATALOAD PUSH8 0xFFFFFFFFFFFFFFFF DUP2 GT ISZERO PUSH2 0x2587 JUMPI PUSH1 0x0 DUP1 REVERT JUMPDEST PUSH2 0x2593 DUP8 DUP3 DUP9 ADD PUSH2 0x2420 JUMP JUMPDEST SWAP2 POP POP SWAP3 SWAP6 SWAP2 SWAP5 POP SWAP3 POP JUMP JUMPDEST PUSH1 0x0 DUP1 PUSH1 0x40 DUP4 DUP6 SUB SLT ISZERO PUSH2 0x25B2 JUMPI PUSH1 0x0 DUP1 REVERT JUMPDEST PUSH2 0x25BB DUP4 PUSH2 0x23F4 JUMP JUMPDEST SWAP2 POP PUSH2 0x24F2 PUSH1 0x20 DUP5 ADD PUSH2 0x2410 JUMP JUMPDEST PUSH1 0x0 DUP1 PUSH1 0x40 DUP4 DUP6 SUB SLT ISZERO PUSH2 0x25DC JUMPI PUSH1 0x0 DUP1 REVERT JUMPDEST PUSH2 0x25E5 DUP4 PUSH2 0x23F4 JUMP JUMPDEST SWAP5 PUSH1 0x20 SWAP4 SWAP1 SWAP4 ADD CALLDATALOAD SWAP4 POP POP POP JUMP JUMPDEST PUSH1 0x0 DUP1 PUSH1 0x0 PUSH1 0x60 DUP5 DUP7 SUB SLT ISZERO PUSH2 0x2608 JUMPI PUSH1 0x0 DUP1 REVERT JUMPDEST PUSH2 0x2611 DUP5 PUSH2 0x23F4 JUMP JUMPDEST SWAP3 POP PUSH1 0x20 DUP5 ADD CALLDATALOAD SWAP2 POP PUSH1 0x40 DUP5 ADD CALLDATALOAD PUSH8 0xFFFFFFFFFFFFFFFF DUP2 GT ISZERO PUSH2 0x2634 JUMPI PUSH1 0x0 DUP1 REVERT JUMPDEST PUSH2 0x2640 DUP7 DUP3 DUP8 ADD PUSH2 0x2420 JUMP JUMPDEST SWAP2 POP POP SWAP3 POP SWAP3 POP SWAP3 JUMP JUMPDEST PUSH1 0x0 DUP1 PUSH1 0x40 DUP4 DUP6 SUB SLT ISZERO PUSH2 0x265D JUMPI PUSH1 0x0 DUP1 REVERT JUMPDEST PUSH2 0x2666 DUP4 PUSH2 0x23F4 JUMP JUMPDEST SWAP2 POP PUSH1 0x20 DUP4 ADD CALLDATALOAD PUSH1 0xFF DUP2 AND DUP2 EQ PUSH2 0x267C JUMPI PUSH1 0x0 DUP1 REVERT JUMPDEST DUP1 SWAP2 POP POP SWAP3 POP SWAP3 SWAP1 POP JUMP JUMPDEST PUSH1 0x0 DUP1 PUSH1 0x40 DUP4 DUP6 SUB SLT ISZERO PUSH2 0x269A JUMPI PUSH1 0x0 DUP1 REVERT JUMPDEST PUSH2 0x26A3 DUP4 PUSH2 0x23F4 JUMP JUMPDEST SWAP2 POP PUSH1 0x20 DUP4 ADD CALLDATALOAD PUSH12 0xFFFFFFFFFFFFFFFFFFFFFFFF DUP2 AND DUP2 EQ PUSH2 0x267C JUMPI PUSH1 0x0 DUP1 REVERT JUMPDEST PUSH1 0x0 PUSH1 0x20 DUP3 DUP5 SUB SLT ISZERO PUSH2 0x26D6 JUMPI PUSH1 0x0 DUP1 REVERT JUMPDEST PUSH2 0x16D6 DUP3 PUSH2 0x2410 JUMP JUMPDEST PUSH1 0x0 PUSH1 0x20 DUP3 DUP5 SUB SLT ISZERO PUSH2 0x26F1 JUMPI PUSH1 0x0 DUP1 REVERT JUMPDEST DUP2 CALLDATALOAD PUSH2 0x16D6 DUP2 PUSH2 0x2A22 JUMP JUMPDEST PUSH1 0x0 PUSH1 0x20 DUP3 DUP5 SUB SLT ISZERO PUSH2 0x270E JUMPI PUSH1 0x0 DUP1 REVERT JUMPDEST DUP2 MLOAD PUSH2 0x16D6 DUP2 PUSH2 0x2A22 JUMP JUMPDEST PUSH1 0x0 PUSH1 0x20 DUP3 DUP5 SUB SLT ISZERO PUSH2 0x272B JUMPI PUSH1 0x0 DUP1 REVERT JUMPDEST POP CALLDATALOAD SWAP2 SWAP1 POP JUMP JUMPDEST PUSH1 0x0 DUP1 PUSH1 0x40 DUP4 DUP6 SUB SLT ISZERO PUSH2 0x2745 JUMPI PUSH1 0x0 DUP1 REVERT JUMPDEST POP POP DUP1 CALLDATALOAD SWAP3 PUSH1 0x20 SWAP1 SWAP2 ADD CALLDATALOAD SWAP2 POP JUMP JUMPDEST PUSH1 0x0 DUP2 MLOAD DUP1 DUP5 MSTORE PUSH2 0x276C DUP2 PUSH1 0x20 DUP7 ADD PUSH1 0x20 DUP7 ADD PUSH2 0x2888 JUMP JUMPDEST PUSH1 0x1F ADD PUSH1 0x1F NOT AND SWAP3 SWAP1 SWAP3 ADD PUSH1 0x20 ADD SWAP3 SWAP2 POP POP JUMP JUMPDEST PUSH1 0x0 DUP4 MLOAD PUSH2 0x2792 DUP2 DUP5 PUSH1 0x20 DUP9 ADD PUSH2 0x2888 JUMP JUMPDEST DUP4 MLOAD SWAP1 DUP4 ADD SWAP1 PUSH2 0x27A6 DUP2 DUP4 PUSH1 0x20 DUP9 ADD PUSH2 0x2888 JUMP JUMPDEST PUSH32 0x2E6A736F6E000000000000000000000000000000000000000000000000000000 SWAP2 ADD SWAP1 DUP2 MSTORE PUSH1 0x5 ADD SWAP5 SWAP4 POP POP POP POP JUMP JUMPDEST PUSH1 0x0 PUSH1 0x1 PUSH1 0x1 PUSH1 0xA0 SHL SUB DUP1 DUP8 AND DUP4 MSTORE DUP1 DUP7 AND PUSH1 0x20 DUP5 ADD MSTORE POP DUP4 PUSH1 0x40 DUP4 ADD MSTORE PUSH1 0x80 PUSH1 0x60 DUP4 ADD MSTORE PUSH2 0x2809 PUSH1 0x80 DUP4 ADD DUP5 PUSH2 0x2754 JUMP JUMPDEST SWAP7 SWAP6 POP POP POP POP POP POP JUMP JUMPDEST PUSH1 0x20 DUP2 MSTORE PUSH1 0x0 PUSH2 0x16D6 PUSH1 0x20 DUP4 ADD DUP5 PUSH2 0x2754 JUMP JUMPDEST PUSH1 0x0 DUP3 NOT DUP3 GT ISZERO PUSH2 0x2839 JUMPI PUSH2 0x2839 PUSH2 0x2937 JUMP JUMPDEST POP ADD SWAP1 JUMP JUMPDEST PUSH1 0x0 DUP3 PUSH2 0x284D JUMPI PUSH2 0x284D PUSH2 0x2966 JUMP JUMPDEST POP DIV SWAP1 JUMP JUMPDEST PUSH1 0x0 DUP2 PUSH1 0x0 NOT DIV DUP4 GT DUP3 ISZERO ISZERO AND ISZERO PUSH2 0x286C JUMPI PUSH2 0x286C PUSH2 0x2937 JUMP JUMPDEST POP MUL SWAP1 JUMP JUMPDEST PUSH1 0x0 DUP3 DUP3 LT ISZERO PUSH2 0x2883 JUMPI PUSH2 0x2883 PUSH2 0x2937 JUMP JUMPDEST POP SUB SWAP1 JUMP JUMPDEST PUSH1 0x0 JUMPDEST DUP4 DUP2 LT ISZERO PUSH2 0x28A3 JUMPI DUP2 DUP2 ADD MLOAD DUP4 DUP3 ADD MSTORE PUSH1 0x20 ADD PUSH2 0x288B JUMP JUMPDEST DUP4 DUP2 GT ISZERO PUSH2 0x15EF JUMPI POP POP PUSH1 0x0 SWAP2 ADD MSTORE JUMP JUMPDEST PUSH1 0x1 DUP2 DUP2 SHR SWAP1 DUP3 AND DUP1 PUSH2 0x28C8 JUMPI PUSH1 0x7F DUP3 AND SWAP2 POP JUMPDEST PUSH1 0x20 DUP3 LT DUP2 EQ ISZERO PUSH2 0x2902 JUMPI PUSH32 0x4E487B7100000000000000000000000000000000000000000000000000000000 PUSH1 0x0 MSTORE PUSH1 0x22 PUSH1 0x4 MSTORE PUSH1 0x24 PUSH1 0x0 REVERT JUMPDEST POP SWAP2 SWAP1 POP JUMP JUMPDEST PUSH1 0x0 PUSH1 0x0 NOT DUP3 EQ ISZERO PUSH2 0x291C JUMPI PUSH2 0x291C PUSH2 0x2937 JUMP JUMPDEST POP PUSH1 0x1 ADD SWAP1 JUMP JUMPDEST PUSH1 0x0 DUP3 PUSH2 0x2932 JUMPI PUSH2 0x2932 PUSH2 0x2966 JUMP JUMPDEST POP MOD SWAP1 JUMP JUMPDEST PUSH32 0x4E487B7100000000000000000000000000000000000000000000000000000000 PUSH1 0x0 MSTORE PUSH1 0x11 PUSH1 0x4 MSTORE PUSH1 0x24 PUSH1 0x0 REVERT JUMPDEST PUSH32 0x4E487B7100000000000000000000000000000000000000000000000000000000 PUSH1 0x0 MSTORE PUSH1 0x12 PUSH1 0x4 MSTORE PUSH1 0x24 PUSH1 0x0 REVERT JUMPDEST PUSH32 0x4E487B7100000000000000000000000000000000000000000000000000000000 PUSH1 0x0 MSTORE PUSH1 0x21 PUSH1 0x4 MSTORE PUSH1 0x24 PUSH1 0x0 REVERT JUMPDEST PUSH32 0x4E487B7100000000000000000000000000000000000000000000000000000000 PUSH1 0x0 MSTORE PUSH1 0x32 PUSH1 0x4 MSTORE PUSH1 0x24 PUSH1 0x0 REVERT JUMPDEST PUSH32 0x4E487B7100000000000000000000000000000000000000000000000000000000 PUSH1 0x0 MSTORE PUSH1 0x41 PUSH1 0x4 MSTORE PUSH1 0x24 PUSH1 0x0 REVERT JUMPDEST PUSH32 0xFFFFFFFF00000000000000000000000000000000000000000000000000000000 DUP2 AND DUP2 EQ PUSH2 0x1796 JUMPI PUSH1 0x0 DUP1 REVERT INVALID LOG2 PUSH5 0x6970667358 0x22 SLT KECCAK256 SDIV MSTORE BASEFEE 0xB8 0xDF 0xAC MUL SLOAD 0xB0 0xEF 0xB7 XOR 0xE6 0xE4 0xD7 0xB4 EQ 0xC4 0xF9 PUSH25 0x9F823207F93FF18B7AE0650864736F6C634300080700330000 "
				},
				"gasEstimates": {
					"creation": {
						"codeDepositCost": "2177200",
						"executionCost": "infinite",
						"totalCost": "infinite"
					},
					"external": {
						"MAX_SUPPLY()": "2392",
						"approve(address,uint256)": "31095",
						"balanceOf(address)": "2609",
						"baseURI()": "infinite",
						"calculateRoyalty(uint256)": "2622",
						"check(address,uint256,bytes)": "infinite",
						"getApproved(uint256)": "2590",
						"isApprovedForAll(address,address)": "infinite",
						"mintCost()": "2340",
						"mintOwner(address,uint8)": "103892",
						"mintPublic(address)": "112561",
						"mintWhitelist(address,uint256,bytes)": "infinite",
						"name()": "infinite",
						"owner()": "2377",
						"ownerOf(uint256)": "2589",
						"publicAllowed()": "2410",
						"royaltyAddress()": "2437",
						"royaltyFeesInBips()": "2380",
						"royaltyInfo(uint256,uint256)": "4864",
						"safeTransferFrom(address,address,uint256)": "infinite",
						"safeTransferFrom(address,address,uint256,bytes)": "infinite",
						"setApprovalForAll(address,bool)": "infinite",
						"setMintCost(uint256)": "24644",
						"setPauseMint(bool)": "26768",
						"setPublicMint(bool)": "26734",
						"setRoyaltyInfo(address,uint96)": "24753",
						"setSignAddress(address)": "26786",
						"supportsInterface(bytes4)": "513",
						"symbol()": "infinite",
						"tokenType(uint256)": "2505",
						"tokenURI(uint256)": "infinite",
						"transferFrom(address,address,uint256)": "infinite",
						"transferOwnership(address)": "30507",
						"withdrawEth()": "infinite"
					},
					"internal": {
						"_baseURI()": "infinite",
						"_hash(address,uint256)": "infinite",
						"_verify(address,uint256,bytes memory)": "infinite"
					}
				},
				"methodIdentifiers": {
					"MAX_SUPPLY()": "32cb6b0c",
					"approve(address,uint256)": "095ea7b3",
					"balanceOf(address)": "70a08231",
					"baseURI()": "6c0360eb",
					"calculateRoyalty(uint256)": "a2e69613",
					"check(address,uint256,bytes)": "c2e63def",
					"getApproved(uint256)": "081812fc",
					"isApprovedForAll(address,address)": "e985e9c5",
					"mintCost()": "bdb4b848",
					"mintOwner(address,uint8)": "79d72794",
					"mintPublic(address)": "a06cb719",
					"mintWhitelist(address,uint256,bytes)": "fbbd1dc0",
					"name()": "06fdde03",
					"owner()": "8da5cb5b",
					"ownerOf(uint256)": "6352211e",
					"publicAllowed()": "d83d0f76",
					"royaltyAddress()": "ad2f852a",
					"royaltyFeesInBips()": "73c7400e",
					"royaltyInfo(uint256,uint256)": "2a55205a",
					"safeTransferFrom(address,address,uint256)": "42842e0e",
					"safeTransferFrom(address,address,uint256,bytes)": "b88d4fde",
					"setApprovalForAll(address,bool)": "a22cb465",
					"setMintCost(uint256)": "8545f4ea",
					"setPauseMint(bool)": "f59e26d0",
					"setPublicMint(bool)": "0e2d56cf",
					"setRoyaltyInfo(address,uint96)": "02fa7c47",
					"setSignAddress(address)": "15137045",
					"supportsInterface(bytes4)": "01ffc9a7",
					"symbol()": "95d89b41",
					"tokenType(uint256)": "e6c3b1f6",
					"tokenURI(uint256)": "c87b56dd",
					"transferFrom(address,address,uint256)": "23b872dd",
					"transferOwnership(address)": "f2fde38b",
					"withdrawEth()": "a0ef91df"
				}
			},
			"storageLayout": {
				"storage": [
					{
						"astId": 76,
						"contract": "NftContract.sol:PantherNft",
						"label": "name",
						"offset": 0,
						"slot": "0",
						"type": "t_string_storage"
					},
					{
						"astId": 78,
						"contract": "NftContract.sol:PantherNft",
						"label": "symbol",
						"offset": 0,
						"slot": "1",
						"type": "t_string_storage"
					},
					{
						"astId": 82,
						"contract": "NftContract.sol:PantherNft",
						"label": "balanceOf",
						"offset": 0,
						"slot": "2",
						"type": "t_mapping(t_address,t_uint256)"
					},
					{
						"astId": 86,
						"contract": "NftContract.sol:PantherNft",
						"label": "ownerOf",
						"offset": 0,
						"slot": "3",
						"type": "t_mapping(t_uint256,t_address)"
					},
					{
						"astId": 90,
						"contract": "NftContract.sol:PantherNft",
						"label": "getApproved",
						"offset": 0,
						"slot": "4",
						"type": "t_mapping(t_uint256,t_address)"
					},
					{
						"astId": 94,
						"contract": "NftContract.sol:PantherNft",
						"label": "tokenType",
						"offset": 0,
						"slot": "5",
						"type": "t_mapping(t_uint256,t_uint256)"
					},
					{
						"astId": 100,
						"contract": "NftContract.sol:PantherNft",
						"label": "isApprovedForAll",
						"offset": 0,
						"slot": "6",
						"type": "t_mapping(t_address,t_mapping(t_address,t_bool))"
					},
					{
						"astId": 1805,
						"contract": "NftContract.sol:PantherNft",
						"label": "_owner",
						"offset": 0,
						"slot": "7",
						"type": "t_address"
					},
					{
						"astId": 641,
						"contract": "NftContract.sol:PantherNft",
						"label": "baseURI",
						"offset": 0,
						"slot": "8",
						"type": "t_string_storage"
					},
					{
						"astId": 644,
						"contract": "NftContract.sol:PantherNft",
						"label": "tokenCounter",
						"offset": 0,
						"slot": "9",
						"type": "t_uint256"
					},
					{
						"astId": 646,
						"contract": "NftContract.sol:PantherNft",
						"label": "royaltyFeesInBips",
						"offset": 0,
						"slot": "10",
						"type": "t_uint96"
					},
					{
						"astId": 648,
						"contract": "NftContract.sol:PantherNft",
						"label": "royaltyAddress",
						"offset": 12,
						"slot": "10",
						"type": "t_address"
					},
					{
						"astId": 651,
						"contract": "NftContract.sol:PantherNft",
						"label": "publicAllowed",
						"offset": 0,
						"slot": "11",
						"type": "t_bool"
					},
					{
						"astId": 654,
						"contract": "NftContract.sol:PantherNft",
						"label": "MAX_SUPPLY",
						"offset": 1,
						"slot": "11",
						"type": "t_uint120"
					},
					{
						"astId": 656,
						"contract": "NftContract.sol:PantherNft",
						"label": "mintCost",
						"offset": 0,
						"slot": "12",
						"type": "t_uint256"
					},
					{
						"astId": 664,
						"contract": "NftContract.sol:PantherNft",
						"label": "signAddress",
						"offset": 0,
						"slot": "13",
						"type": "t_address"
					},
					{
						"astId": 667,
						"contract": "NftContract.sol:PantherNft",
						"label": "pauseMint",
						"offset": 20,
						"slot": "13",
						"type": "t_bool"
					}
				],
				"types": {
					"t_address": {
						"encoding": "inplace",
						"label": "address",
						"numberOfBytes": "20"
					},
					"t_bool": {
						"encoding": "inplace",
						"label": "bool",
						"numberOfBytes": "1"
					},
					"t_mapping(t_address,t_bool)": {
						"encoding": "mapping",
						"key": "t_address",
						"label": "mapping(address => bool)",
						"numberOfBytes": "32",
						"value": "t_bool"
					},
					"t_mapping(t_address,t_mapping(t_address,t_bool))": {
						"encoding": "mapping",
						"key": "t_address",
						"label": "mapping(address => mapping(address => bool))",
						"numberOfBytes": "32",
						"value": "t_mapping(t_address,t_bool)"
					},
					"t_mapping(t_address,t_uint256)": {
						"encoding": "mapping",
						"key": "t_address",
						"label": "mapping(address => uint256)",
						"numberOfBytes": "32",
						"value": "t_uint256"
					},
					"t_mapping(t_uint256,t_address)": {
						"encoding": "mapping",
						"key": "t_uint256",
						"label": "mapping(uint256 => address)",
						"numberOfBytes": "32",
						"value": "t_address"
					},
					"t_mapping(t_uint256,t_uint256)": {
						"encoding": "mapping",
						"key": "t_uint256",
						"label": "mapping(uint256 => uint256)",
						"numberOfBytes": "32",
						"value": "t_uint256"
					},
					"t_string_storage": {
						"encoding": "bytes",
						"label": "string",
						"numberOfBytes": "32"
					},
					"t_uint120": {
						"encoding": "inplace",
						"label": "uint120",
						"numberOfBytes": "15"
					},
					"t_uint256": {
						"encoding": "inplace",
						"label": "uint256",
						"numberOfBytes": "32"
					},
					"t_uint96": {
						"encoding": "inplace",
						"label": "uint96",
						"numberOfBytes": "12"
					}
				}
			},
			"userdoc": {
				"kind": "user",
				"methods": {},
				"version": 1
			}
		}
	}
}