{
	"NftMarket.sol": {
		"MarketPlace": {
			"abi": [
				{
					"inputs": [
						{
							"internalType": "address",
							"name": "_nft",
							"type": "address"
						}
					],
					"stateMutability": "nonpayable",
					"type": "constructor"
				},
				{
					"anonymous": false,
					"inputs": [
						{
							"indexed": true,
							"internalType": "address",
							"name": "receiver",
							"type": "address"
						},
						{
							"indexed": true,
							"internalType": "uint256",
							"name": "nftId",
							"type": "uint256"
						}
					],
					"name": "AssetClaimed",
					"type": "event"
				},
				{
					"anonymous": false,
					"inputs": [
						{
							"indexed": true,
							"internalType": "address",
							"name": "bidder",
							"type": "address"
						},
						{
							"indexed": true,
							"internalType": "uint256",
							"name": "nftId",
							"type": "uint256"
						},
						{
							"indexed": false,
							"internalType": "uint256",
							"name": "bidAmount",
							"type": "uint256"
						}
					],
					"name": "Bid",
					"type": "event"
				},
				{
					"anonymous": false,
					"inputs": [
						{
							"indexed": true,
							"internalType": "address",
							"name": "highestBidder",
							"type": "address"
						},
						{
							"indexed": false,
							"internalType": "uint256",
							"name": "highestBid",
							"type": "uint256"
						},
						{
							"indexed": true,
							"internalType": "uint256",
							"name": "nftId",
							"type": "uint256"
						}
					],
					"name": "End",
					"type": "event"
				},
				{
					"anonymous": false,
					"inputs": [
						{
							"indexed": true,
							"internalType": "address",
							"name": "from",
							"type": "address"
						},
						{
							"indexed": true,
							"internalType": "address",
							"name": "to",
							"type": "address"
						},
						{
							"indexed": false,
							"internalType": "uint256",
							"name": "price",
							"type": "uint256"
						},
						{
							"indexed": true,
							"internalType": "uint256",
							"name": "id",
							"type": "uint256"
						}
					],
					"name": "InstantBuy",
					"type": "event"
				},
				{
					"anonymous": false,
					"inputs": [
						{
							"indexed": true,
							"internalType": "address",
							"name": "owner",
							"type": "address"
						},
						{
							"indexed": true,
							"internalType": "uint256",
							"name": "id",
							"type": "uint256"
						}
					],
					"name": "Start",
					"type": "event"
				},
				{
					"anonymous": false,
					"inputs": [
						{
							"indexed": true,
							"internalType": "address",
							"name": "receiver",
							"type": "address"
						},
						{
							"indexed": false,
							"internalType": "uint256",
							"name": "val",
							"type": "uint256"
						}
					],
					"name": "Withdraw",
					"type": "event"
				},
				{
					"anonymous": false,
					"inputs": [
						{
							"indexed": true,
							"internalType": "address",
							"name": "bidder",
							"type": "address"
						},
						{
							"indexed": false,
							"internalType": "uint256",
							"name": "amount",
							"type": "uint256"
						}
					],
					"name": "WithdrawBid",
					"type": "event"
				},
				{
					"inputs": [
						{
							"internalType": "uint256",
							"name": "",
							"type": "uint256"
						}
					],
					"name": "Auctions",
					"outputs": [
						{
							"internalType": "uint256",
							"name": "nftId",
							"type": "uint256"
						},
						{
							"internalType": "address",
							"name": "creator",
							"type": "address"
						},
						{
							"internalType": "bool",
							"name": "started",
							"type": "bool"
						},
						{
							"internalType": "bool",
							"name": "ended",
							"type": "bool"
						},
						{
							"internalType": "uint32",
							"name": "endAt",
							"type": "uint32"
						},
						{
							"internalType": "address",
							"name": "highestBidder",
							"type": "address"
						},
						{
							"internalType": "uint256",
							"name": "highestBid",
							"type": "uint256"
						},
						{
							"internalType": "uint256",
							"name": "startingBid",
							"type": "uint256"
						}
					],
					"stateMutability": "view",
					"type": "function"
				},
				{
					"inputs": [
						{
							"internalType": "uint256",
							"name": "_id",
							"type": "uint256"
						}
					],
					"name": "bid",
					"outputs": [],
					"stateMutability": "payable",
					"type": "function"
				},
				{
					"inputs": [
						{
							"internalType": "uint256",
							"name": "_id",
							"type": "uint256"
						}
					],
					"name": "claimAsset",
					"outputs": [],
					"stateMutability": "nonpayable",
					"type": "function"
				},
				{
					"inputs": [
						{
							"internalType": "uint256",
							"name": "_id",
							"type": "uint256"
						}
					],
					"name": "endAuction",
					"outputs": [],
					"stateMutability": "nonpayable",
					"type": "function"
				},
				{
					"inputs": [
						{
							"internalType": "uint256",
							"name": "_id",
							"type": "uint256"
						}
					],
					"name": "instantBuy",
					"outputs": [],
					"stateMutability": "payable",
					"type": "function"
				},
				{
					"inputs": [
						{
							"internalType": "uint256",
							"name": "",
							"type": "uint256"
						}
					],
					"name": "instantPrice",
					"outputs": [
						{
							"internalType": "uint256",
							"name": "",
							"type": "uint256"
						}
					],
					"stateMutability": "view",
					"type": "function"
				},
				{
					"inputs": [],
					"name": "nftCollection",
					"outputs": [
						{
							"internalType": "contract IERC721",
							"name": "",
							"type": "address"
						}
					],
					"stateMutability": "view",
					"type": "function"
				},
				{
					"inputs": [
						{
							"internalType": "uint256",
							"name": "_id",
							"type": "uint256"
						},
						{
							"internalType": "uint256",
							"name": "_price",
							"type": "uint256"
						}
					],
					"name": "setPrice",
					"outputs": [],
					"stateMutability": "nonpayable",
					"type": "function"
				},
				{
					"inputs": [
						{
							"internalType": "uint256",
							"name": "_id",
							"type": "uint256"
						},
						{
							"internalType": "uint256",
							"name": "_starting",
							"type": "uint256"
						},
						{
							"internalType": "uint32",
							"name": "duration",
							"type": "uint32"
						}
					],
					"name": "startAuction",
					"outputs": [],
					"stateMutability": "nonpayable",
					"type": "function"
				},
				{
					"inputs": [
						{
							"internalType": "address",
							"name": "",
							"type": "address"
						}
					],
					"name": "toPay",
					"outputs": [
						{
							"internalType": "uint256",
							"name": "",
							"type": "uint256"
						}
					],
					"stateMutability": "view",
					"type": "function"
				},
				{
					"inputs": [
						{
							"internalType": "uint256",
							"name": "_id",
							"type": "uint256"
						}
					],
					"name": "withdrawBid",
					"outputs": [],
					"stateMutability": "nonpayable",
					"type": "function"
				},
				{
					"inputs": [],
					"name": "withdrawEth",
					"outputs": [],
					"stateMutability": "nonpayable",
					"type": "function"
				}
			],
			"devdoc": {
				"kind": "dev",
				"methods": {},
				"version": 1
			},
			"evm": {
				"assembly": "    /* \"NftMarket.sol\":404:5500  contract MarketPlace {\r... */\n  mstore(0x40, 0xa0)\n    /* \"NftMarket.sol\":1530:1604  constructor(address _nft) {\r... */\n  callvalue\n  dup1\n  iszero\n  tag_1\n  jumpi\n  0x00\n  dup1\n  revert\ntag_1:\n  pop\n  mload(0x40)\n  sub(codesize, bytecodeSize)\n  dup1\n  bytecodeSize\n  dup4\n  codecopy\n  dup2\n  dup2\n  add\n  0x40\n  mstore\n  dup2\n  add\n  swap1\n  tag_2\n  swap2\n  swap1\n  tag_3\n  jump\t// in\ntag_2:\n    /* \"NftMarket.sol\":1591:1595  _nft */\n  dup1\n    /* \"NftMarket.sol\":1567:1596  nftCollection = IERC721(_nft) */\n  0xffffffffffffffffffffffffffffffffffffffff\n  and\n  0x80\n  dup2\n  0xffffffffffffffffffffffffffffffffffffffff\n  and\n  0x60\n  shl\n  dup2\n  mstore\n  pop\n  pop\n    /* \"NftMarket.sol\":1530:1604  constructor(address _nft) {\r... */\n  pop\n    /* \"NftMarket.sol\":404:5500  contract MarketPlace {\r... */\n  jump(tag_6)\n    /* \"#utility.yul\":7:150   */\ntag_8:\n    /* \"#utility.yul\":64:69   */\n  0x00\n    /* \"#utility.yul\":95:101   */\n  dup2\n    /* \"#utility.yul\":89:102   */\n  mload\n    /* \"#utility.yul\":80:102   */\n  swap1\n  pop\n    /* \"#utility.yul\":111:144   */\n  tag_10\n    /* \"#utility.yul\":138:143   */\n  dup2\n    /* \"#utility.yul\":111:144   */\n  tag_11\n  jump\t// in\ntag_10:\n    /* \"#utility.yul\":7:150   */\n  swap3\n  swap2\n  pop\n  pop\n  jump\t// out\n    /* \"#utility.yul\":156:507   */\ntag_3:\n    /* \"#utility.yul\":226:232   */\n  0x00\n    /* \"#utility.yul\":275:277   */\n  0x20\n    /* \"#utility.yul\":263:272   */\n  dup3\n    /* \"#utility.yul\":254:261   */\n  dup5\n    /* \"#utility.yul\":250:273   */\n  sub\n    /* \"#utility.yul\":246:278   */\n  slt\n    /* \"#utility.yul\":243:362   */\n  iszero\n  tag_13\n  jumpi\n    /* \"#utility.yul\":281:360   */\n  tag_14\n  tag_15\n  jump\t// in\ntag_14:\n    /* \"#utility.yul\":243:362   */\ntag_13:\n    /* \"#utility.yul\":401:402   */\n  0x00\n    /* \"#utility.yul\":426:490   */\n  tag_16\n    /* \"#utility.yul\":482:489   */\n  dup5\n    /* \"#utility.yul\":473:479   */\n  dup3\n    /* \"#utility.yul\":462:471   */\n  dup6\n    /* \"#utility.yul\":458:480   */\n  add\n    /* \"#utility.yul\":426:490   */\n  tag_8\n  jump\t// in\ntag_16:\n    /* \"#utility.yul\":416:490   */\n  swap2\n  pop\n    /* \"#utility.yul\":372:500   */\n  pop\n    /* \"#utility.yul\":156:507   */\n  swap3\n  swap2\n  pop\n  pop\n  jump\t// out\n    /* \"#utility.yul\":594:690   */\ntag_19:\n    /* \"#utility.yul\":631:638   */\n  0x00\n    /* \"#utility.yul\":660:684   */\n  tag_21\n    /* \"#utility.yul\":678:683   */\n  dup3\n    /* \"#utility.yul\":660:684   */\n  tag_22\n  jump\t// in\ntag_21:\n    /* \"#utility.yul\":649:684   */\n  swap1\n  pop\n    /* \"#utility.yul\":594:690   */\n  swap2\n  swap1\n  pop\n  jump\t// out\n    /* \"#utility.yul\":696:822   */\ntag_22:\n    /* \"#utility.yul\":733:740   */\n  0x00\n    /* \"#utility.yul\":773:815   */\n  0xffffffffffffffffffffffffffffffffffffffff\n    /* \"#utility.yul\":766:771   */\n  dup3\n    /* \"#utility.yul\":762:816   */\n  and\n    /* \"#utility.yul\":751:816   */\n  swap1\n  pop\n    /* \"#utility.yul\":696:822   */\n  swap2\n  swap1\n  pop\n  jump\t// out\n    /* \"#utility.yul\":951:1068   */\ntag_15:\n    /* \"#utility.yul\":1060:1061   */\n  0x00\n    /* \"#utility.yul\":1057:1058   */\n  dup1\n    /* \"#utility.yul\":1050:1062   */\n  revert\n    /* \"#utility.yul\":1074:1196   */\ntag_11:\n    /* \"#utility.yul\":1147:1171   */\n  tag_28\n    /* \"#utility.yul\":1165:1170   */\n  dup2\n    /* \"#utility.yul\":1147:1171   */\n  tag_19\n  jump\t// in\ntag_28:\n    /* \"#utility.yul\":1140:1145   */\n  dup2\n    /* \"#utility.yul\":1137:1172   */\n  eq\n    /* \"#utility.yul\":1127:1190   */\n  tag_29\n  jumpi\n    /* \"#utility.yul\":1186:1187   */\n  0x00\n    /* \"#utility.yul\":1183:1184   */\n  dup1\n    /* \"#utility.yul\":1176:1188   */\n  revert\n    /* \"#utility.yul\":1127:1190   */\ntag_29:\n    /* \"#utility.yul\":1074:1196   */\n  pop\n  jump\t// out\n    /* \"NftMarket.sol\":404:5500  contract MarketPlace {\r... */\ntag_6:\n  shr(0x60, mload(0x80))\n  codecopy(0x00, dataOffset(sub_0), dataSize(sub_0))\n  0x00\n  assignImmutable(\"0xf3e73e27cf4cda7ebc973aa432f8a54a97200c0745d43e1bc9c2879ffe79cc53\")\n  return(0x00, dataSize(sub_0))\nstop\n\nsub_0: assembly {\n        /* \"NftMarket.sol\":404:5500  contract MarketPlace {\r... */\n      mstore(0x40, 0x80)\n      jumpi(tag_1, lt(calldatasize, 0x04))\n      shr(0xe0, calldataload(0x00))\n      dup1\n      0x93289471\n      gt\n      tag_14\n      jumpi\n      dup1\n      0x93289471\n      eq\n      tag_8\n      jumpi\n      dup1\n      0xa0ef91df\n      eq\n      tag_9\n      jumpi\n      dup1\n      0xb9a2de3a\n      eq\n      tag_10\n      jumpi\n      dup1\n      0xd3c2a592\n      eq\n      tag_11\n      jumpi\n      dup1\n      0xe8cd181f\n      eq\n      tag_12\n      jumpi\n      dup1\n      0xf7d97577\n      eq\n      tag_13\n      jumpi\n      jump(tag_1)\n    tag_14:\n      dup1\n      0x0eaaf4c8\n      eq\n      tag_2\n      jumpi\n      dup1\n      0x2ae53d25\n      eq\n      tag_3\n      jumpi\n      dup1\n      0x454a2ab3\n      eq\n      tag_4\n      jumpi\n      dup1\n      0x6588103b\n      eq\n      tag_5\n      jumpi\n      dup1\n      0x6c8ae190\n      eq\n      tag_6\n      jumpi\n      dup1\n      0x852a38bc\n      eq\n      tag_7\n      jumpi\n    tag_1:\n      0x00\n      dup1\n      revert\n        /* \"NftMarket.sol\":4612:5126  function withdrawBid(uint256 _id) external {\r... */\n    tag_2:\n      callvalue\n      dup1\n      iszero\n      tag_15\n      jumpi\n      0x00\n      dup1\n      revert\n    tag_15:\n      pop\n      tag_16\n      0x04\n      dup1\n      calldatasize\n      sub\n      dup2\n      add\n      swap1\n      tag_17\n      swap2\n      swap1\n      tag_18\n      jump\t// in\n    tag_17:\n      tag_19\n      jump\t// in\n    tag_16:\n      stop\n        /* \"NftMarket.sol\":1427:1467  mapping(address => uint256) public toPay */\n    tag_3:\n      callvalue\n      dup1\n      iszero\n      tag_20\n      jumpi\n      0x00\n      dup1\n      revert\n    tag_20:\n      pop\n      tag_21\n      0x04\n      dup1\n      calldatasize\n      sub\n      dup2\n      add\n      swap1\n      tag_22\n      swap2\n      swap1\n      tag_23\n      jump\t// in\n    tag_22:\n      tag_24\n      jump\t// in\n    tag_21:\n      mload(0x40)\n      tag_25\n      swap2\n      swap1\n      tag_26\n      jump\t// in\n    tag_25:\n      mload(0x40)\n      dup1\n      swap2\n      sub\n      swap1\n      return\n        /* \"NftMarket.sol\":4081:4604  function bid(uint256 _id) external payable {\r... */\n    tag_4:\n      tag_27\n      0x04\n      dup1\n      calldatasize\n      sub\n      dup2\n      add\n      swap1\n      tag_28\n      swap2\n      swap1\n      tag_18\n      jump\t// in\n    tag_28:\n      tag_29\n      jump\t// in\n    tag_27:\n      stop\n        /* \"NftMarket.sol\":1332:1370  IERC721 public immutable nftCollection */\n    tag_5:\n      callvalue\n      dup1\n      iszero\n      tag_30\n      jumpi\n      0x00\n      dup1\n      revert\n    tag_30:\n      pop\n      tag_31\n      tag_32\n      jump\t// in\n    tag_31:\n      mload(0x40)\n      tag_33\n      swap2\n      swap1\n      tag_34\n      jump\t// in\n    tag_33:\n      mload(0x40)\n      dup1\n      swap2\n      sub\n      swap1\n      return\n        /* \"NftMarket.sol\":1474:1521  mapping(uint256 => uint256) public instantPrice */\n    tag_6:\n      callvalue\n      dup1\n      iszero\n      tag_35\n      jumpi\n      0x00\n      dup1\n      revert\n    tag_35:\n      pop\n      tag_36\n      0x04\n      dup1\n      calldatasize\n      sub\n      dup2\n      add\n      swap1\n      tag_37\n      swap2\n      swap1\n      tag_18\n      jump\t// in\n    tag_37:\n      tag_38\n      jump\t// in\n    tag_36:\n      mload(0x40)\n      tag_39\n      swap2\n      swap1\n      tag_26\n      jump\t// in\n    tag_39:\n      mload(0x40)\n      dup1\n      swap2\n      sub\n      swap1\n      return\n        /* \"NftMarket.sol\":1830:2419  function instantBuy(uint256 _id) external payable {\r... */\n    tag_7:\n      tag_40\n      0x04\n      dup1\n      calldatasize\n      sub\n      dup2\n      add\n      swap1\n      tag_41\n      swap2\n      swap1\n      tag_18\n      jump\t// in\n    tag_41:\n      tag_42\n      jump\t// in\n    tag_40:\n      stop\n        /* \"NftMarket.sol\":2769:3385  function startAuction(\r... */\n    tag_8:\n      callvalue\n      dup1\n      iszero\n      tag_43\n      jumpi\n      0x00\n      dup1\n      revert\n    tag_43:\n      pop\n      tag_44\n      0x04\n      dup1\n      calldatasize\n      sub\n      dup2\n      add\n      swap1\n      tag_45\n      swap2\n      swap1\n      tag_46\n      jump\t// in\n    tag_45:\n      tag_47\n      jump\t// in\n    tag_44:\n      stop\n        /* \"NftMarket.sol\":2427:2761  function withdrawEth() external {\r... */\n    tag_9:\n      callvalue\n      dup1\n      iszero\n      tag_48\n      jumpi\n      0x00\n      dup1\n      revert\n    tag_48:\n      pop\n      tag_49\n      tag_50\n      jump\t// in\n    tag_49:\n      stop\n        /* \"NftMarket.sol\":3393:4073  function endAuction(uint256 _id) external {\r... */\n    tag_10:\n      callvalue\n      dup1\n      iszero\n      tag_51\n      jumpi\n      0x00\n      dup1\n      revert\n    tag_51:\n      pop\n      tag_52\n      0x04\n      dup1\n      calldatasize\n      sub\n      dup2\n      add\n      swap1\n      tag_53\n      swap2\n      swap1\n      tag_18\n      jump\t// in\n    tag_53:\n      tag_54\n      jump\t// in\n    tag_52:\n      stop\n        /* \"NftMarket.sol\":5134:5497  function claimAsset(uint256 _id) external {\r... */\n    tag_11:\n      callvalue\n      dup1\n      iszero\n      tag_55\n      jumpi\n      0x00\n      dup1\n      revert\n    tag_55:\n      pop\n      tag_56\n      0x04\n      dup1\n      calldatasize\n      sub\n      dup2\n      add\n      swap1\n      tag_57\n      swap2\n      swap1\n      tag_18\n      jump\t// in\n    tag_57:\n      tag_58\n      jump\t// in\n    tag_56:\n      stop\n        /* \"NftMarket.sol\":1379:1418  mapping(uint256 => Auc) public Auctions */\n    tag_12:\n      callvalue\n      dup1\n      iszero\n      tag_59\n      jumpi\n      0x00\n      dup1\n      revert\n    tag_59:\n      pop\n      tag_60\n      0x04\n      dup1\n      calldatasize\n      sub\n      dup2\n      add\n      swap1\n      tag_61\n      swap2\n      swap1\n      tag_18\n      jump\t// in\n    tag_61:\n      tag_62\n      jump\t// in\n    tag_60:\n      mload(0x40)\n      tag_63\n      swap9\n      swap8\n      swap7\n      swap6\n      swap5\n      swap4\n      swap3\n      swap2\n      swap1\n      tag_64\n      jump\t// in\n    tag_63:\n      mload(0x40)\n      dup1\n      swap2\n      sub\n      swap1\n      return\n        /* \"NftMarket.sol\":1612:1822  function setPrice(uint256 _id, uint256 _price) external {\r... */\n    tag_13:\n      callvalue\n      dup1\n      iszero\n      tag_65\n      jumpi\n      0x00\n      dup1\n      revert\n    tag_65:\n      pop\n      tag_66\n      0x04\n      dup1\n      calldatasize\n      sub\n      dup2\n      add\n      swap1\n      tag_67\n      swap2\n      swap1\n      tag_68\n      jump\t// in\n    tag_67:\n      tag_69\n      jump\t// in\n    tag_66:\n      stop\n        /* \"NftMarket.sol\":4612:5126  function withdrawBid(uint256 _id) external {\r... */\n    tag_19:\n        /* \"NftMarket.sol\":4666:4681  Auc storage auc */\n      0x00\n        /* \"NftMarket.sol\":4684:4692  Auctions */\n      dup1\n        /* \"NftMarket.sol\":4684:4697  Auctions[_id] */\n      0x00\n        /* \"NftMarket.sol\":4693:4696  _id */\n      dup4\n        /* \"NftMarket.sol\":4684:4697  Auctions[_id] */\n      dup2\n      mstore\n      0x20\n      add\n      swap1\n      dup2\n      mstore\n      0x20\n      add\n      0x00\n      keccak256\n        /* \"NftMarket.sol\":4666:4697  Auc storage auc = Auctions[_id] */\n      swap1\n      pop\n        /* \"NftMarket.sol\":4710:4724  address winner */\n      0x00\n        /* \"NftMarket.sol\":4727:4730  auc */\n      dup2\n        /* \"NftMarket.sol\":4727:4744  auc.highestBidder */\n      0x02\n      add\n      0x00\n      swap1\n      sload\n      swap1\n      0x0100\n      exp\n      swap1\n      div\n      0xffffffffffffffffffffffffffffffffffffffff\n      and\n        /* \"NftMarket.sol\":4710:4744  address winner = auc.highestBidder */\n      swap1\n      pop\n        /* \"NftMarket.sol\":4777:4783  winner */\n      dup1\n        /* \"NftMarket.sol\":4763:4783  msg.sender != winner */\n      0xffffffffffffffffffffffffffffffffffffffff\n      and\n        /* \"NftMarket.sol\":4763:4773  msg.sender */\n      caller\n        /* \"NftMarket.sol\":4763:4783  msg.sender != winner */\n      0xffffffffffffffffffffffffffffffffffffffff\n      and\n      eq\n      iszero\n        /* \"NftMarket.sol\":4755:4810  require(msg.sender != winner, \"Winner cannot withdraw\") */\n      tag_71\n      jumpi\n      mload(0x40)\n      0x08c379a000000000000000000000000000000000000000000000000000000000\n      dup2\n      mstore\n      0x04\n      add\n      tag_72\n      swap1\n      tag_73\n      jump\t// in\n    tag_72:\n      mload(0x40)\n      dup1\n      swap2\n      sub\n      swap1\n      revert\n    tag_71:\n        /* \"NftMarket.sol\":4823:4834  uint256 bal */\n      0x00\n        /* \"NftMarket.sol\":4837:4840  auc */\n      dup3\n        /* \"NftMarket.sol\":4837:4855  auc.pendingReturns */\n      0x05\n      add\n        /* \"NftMarket.sol\":4837:4867  auc.pendingReturns[msg.sender] */\n      0x00\n        /* \"NftMarket.sol\":4856:4866  msg.sender */\n      caller\n        /* \"NftMarket.sol\":4837:4867  auc.pendingReturns[msg.sender] */\n      0xffffffffffffffffffffffffffffffffffffffff\n      and\n      0xffffffffffffffffffffffffffffffffffffffff\n      and\n      dup2\n      mstore\n      0x20\n      add\n      swap1\n      dup2\n      mstore\n      0x20\n      add\n      0x00\n      keccak256\n      sload\n        /* \"NftMarket.sol\":4823:4867  uint256 bal = auc.pendingReturns[msg.sender] */\n      swap1\n      pop\n        /* \"NftMarket.sol\":4892:4893  0 */\n      0x00\n        /* \"NftMarket.sol\":4886:4889  bal */\n      dup2\n        /* \"NftMarket.sol\":4886:4893  bal > 0 */\n      gt\n        /* \"NftMarket.sol\":4878:4910  require(bal > 0, \"Not a bidder\") */\n      tag_74\n      jumpi\n      mload(0x40)\n      0x08c379a000000000000000000000000000000000000000000000000000000000\n      dup2\n      mstore\n      0x04\n      add\n      tag_75\n      swap1\n      tag_76\n      jump\t// in\n    tag_75:\n      mload(0x40)\n      dup1\n      swap2\n      sub\n      swap1\n      revert\n    tag_74:\n        /* \"NftMarket.sol\":4954:4955  0 */\n      0x00\n        /* \"NftMarket.sol\":4921:4924  auc */\n      dup4\n        /* \"NftMarket.sol\":4921:4939  auc.pendingReturns */\n      0x05\n      add\n        /* \"NftMarket.sol\":4921:4951  auc.pendingReturns[msg.sender] */\n      0x00\n        /* \"NftMarket.sol\":4940:4950  msg.sender */\n      caller\n        /* \"NftMarket.sol\":4921:4951  auc.pendingReturns[msg.sender] */\n      0xffffffffffffffffffffffffffffffffffffffff\n      and\n      0xffffffffffffffffffffffffffffffffffffffff\n      and\n      dup2\n      mstore\n      0x20\n      add\n      swap1\n      dup2\n      mstore\n      0x20\n      add\n      0x00\n      keccak256\n        /* \"NftMarket.sol\":4921:4955  auc.pendingReturns[msg.sender] = 0 */\n      dup2\n      swap1\n      sstore\n      pop\n        /* \"NftMarket.sol\":4967:4979  bool success */\n      0x00\n        /* \"NftMarket.sol\":4993:5003  msg.sender */\n      caller\n        /* \"NftMarket.sol\":4985:5009  payable(msg.sender).call */\n      0xffffffffffffffffffffffffffffffffffffffff\n      and\n        /* \"NftMarket.sol\":5017:5020  bal */\n      dup3\n        /* \"NftMarket.sol\":4985:5025  payable(msg.sender).call{value: bal}(\"\") */\n      mload(0x40)\n      tag_77\n      swap1\n      tag_78\n      jump\t// in\n    tag_77:\n      0x00\n      mload(0x40)\n      dup1\n      dup4\n      sub\n      dup2\n      dup6\n      dup8\n      gas\n      call\n      swap3\n      pop\n      pop\n      pop\n      returndatasize\n      dup1\n      0x00\n      dup2\n      eq\n      tag_81\n      jumpi\n      mload(0x40)\n      swap2\n      pop\n      and(add(returndatasize, 0x3f), not(0x1f))\n      dup3\n      add\n      0x40\n      mstore\n      returndatasize\n      dup3\n      mstore\n      returndatasize\n      0x00\n      0x20\n      dup5\n      add\n      returndatacopy\n      jump(tag_80)\n    tag_81:\n      0x60\n      swap2\n      pop\n    tag_80:\n      pop\n        /* \"NftMarket.sol\":4966:5025  (bool success, ) = payable(msg.sender).call{value: bal}(\"\") */\n      pop\n      swap1\n      pop\n        /* \"NftMarket.sol\":5044:5051  success */\n      dup1\n        /* \"NftMarket.sol\":5036:5074  require(success, \"transaction failed\") */\n      tag_82\n      jumpi\n      mload(0x40)\n      0x08c379a000000000000000000000000000000000000000000000000000000000\n      dup2\n      mstore\n      0x04\n      add\n      tag_83\n      swap1\n      tag_84\n      jump\t// in\n    tag_83:\n      mload(0x40)\n      dup1\n      swap2\n      sub\n      swap1\n      revert\n    tag_82:\n        /* \"NftMarket.sol\":5102:5112  msg.sender */\n      caller\n        /* \"NftMarket.sol\":5090:5118  WithdrawBid(msg.sender, bal) */\n      0xffffffffffffffffffffffffffffffffffffffff\n      and\n      0xbd534d3467660b93e3889762d2f386716c59899db5ea180d724f2c07955a7cf7\n        /* \"NftMarket.sol\":5114:5117  bal */\n      dup4\n        /* \"NftMarket.sol\":5090:5118  WithdrawBid(msg.sender, bal) */\n      mload(0x40)\n      tag_85\n      swap2\n      swap1\n      tag_26\n      jump\t// in\n    tag_85:\n      mload(0x40)\n      dup1\n      swap2\n      sub\n      swap1\n      log2\n        /* \"NftMarket.sol\":4655:5126  {\r... */\n      pop\n      pop\n      pop\n      pop\n        /* \"NftMarket.sol\":4612:5126  function withdrawBid(uint256 _id) external {\r... */\n      pop\n      jump\t// out\n        /* \"NftMarket.sol\":1427:1467  mapping(address => uint256) public toPay */\n    tag_24:\n      mstore(0x20, 0x01)\n      dup1\n      0x00\n      mstore\n      keccak256(0x00, 0x40)\n      0x00\n      swap2\n      pop\n      swap1\n      pop\n      sload\n      dup2\n      jump\t// out\n        /* \"NftMarket.sol\":4081:4604  function bid(uint256 _id) external payable {\r... */\n    tag_29:\n        /* \"NftMarket.sol\":4135:4150  Auc storage auc */\n      0x00\n        /* \"NftMarket.sol\":4153:4161  Auctions */\n      dup1\n        /* \"NftMarket.sol\":4153:4166  Auctions[_id] */\n      0x00\n        /* \"NftMarket.sol\":4162:4165  _id */\n      dup4\n        /* \"NftMarket.sol\":4153:4166  Auctions[_id] */\n      dup2\n      mstore\n      0x20\n      add\n      swap1\n      dup2\n      mstore\n      0x20\n      add\n      0x00\n      keccak256\n        /* \"NftMarket.sol\":4135:4166  Auc storage auc = Auctions[_id] */\n      swap1\n      pop\n        /* \"NftMarket.sol\":4197:4212  block.timestamp */\n      timestamp\n        /* \"NftMarket.sol\":4185:4188  auc */\n      dup2\n        /* \"NftMarket.sol\":4185:4194  auc.endAt */\n      0x01\n      add\n      0x16\n      swap1\n      sload\n      swap1\n      0x0100\n      exp\n      swap1\n      div\n      0xffffffff\n      and\n        /* \"NftMarket.sol\":4185:4212  auc.endAt > block.timestamp */\n      0xffffffff\n      and\n      gt\n        /* \"NftMarket.sol\":4177:4222  require(auc.endAt > block.timestamp, \"Ended\") */\n      tag_87\n      jumpi\n      mload(0x40)\n      0x08c379a000000000000000000000000000000000000000000000000000000000\n      dup2\n      mstore\n      0x04\n      add\n      tag_88\n      swap1\n      tag_89\n      jump\t// in\n    tag_88:\n      mload(0x40)\n      dup1\n      swap2\n      sub\n      swap1\n      revert\n    tag_87:\n        /* \"NftMarket.sol\":4256:4260  true */\n      0x01\n        /* \"NftMarket.sol\":4241:4260  auc.started == true */\n      iszero\n      iszero\n        /* \"NftMarket.sol\":4241:4244  auc */\n      dup2\n        /* \"NftMarket.sol\":4241:4252  auc.started */\n      0x01\n      add\n      0x14\n      swap1\n      sload\n      swap1\n      0x0100\n      exp\n      swap1\n      div\n      0xff\n      and\n        /* \"NftMarket.sol\":4241:4260  auc.started == true */\n      iszero\n      iszero\n      eq\n        /* \"NftMarket.sol\":4233:4276  require(auc.started == true, \"Not started\") */\n      tag_90\n      jumpi\n      mload(0x40)\n      0x08c379a000000000000000000000000000000000000000000000000000000000\n      dup2\n      mstore\n      0x04\n      add\n      tag_91\n      swap1\n      tag_92\n      jump\t// in\n    tag_91:\n      mload(0x40)\n      dup1\n      swap2\n      sub\n      swap1\n      revert\n    tag_90:\n        /* \"NftMarket.sol\":4287:4298  uint256 val */\n      0x00\n        /* \"NftMarket.sol\":4334:4343  msg.value */\n      callvalue\n        /* \"NftMarket.sol\":4301:4304  auc */\n      dup3\n        /* \"NftMarket.sol\":4301:4319  auc.pendingReturns */\n      0x05\n      add\n        /* \"NftMarket.sol\":4301:4331  auc.pendingReturns[msg.sender] */\n      0x00\n        /* \"NftMarket.sol\":4320:4330  msg.sender */\n      caller\n        /* \"NftMarket.sol\":4301:4331  auc.pendingReturns[msg.sender] */\n      0xffffffffffffffffffffffffffffffffffffffff\n      and\n      0xffffffffffffffffffffffffffffffffffffffff\n      and\n      dup2\n      mstore\n      0x20\n      add\n      swap1\n      dup2\n      mstore\n      0x20\n      add\n      0x00\n      keccak256\n      sload\n        /* \"NftMarket.sol\":4301:4343  auc.pendingReturns[msg.sender] + msg.value */\n      tag_93\n      swap2\n      swap1\n      tag_94\n      jump\t// in\n    tag_93:\n        /* \"NftMarket.sol\":4287:4343  uint256 val = auc.pendingReturns[msg.sender] + msg.value */\n      swap1\n      pop\n        /* \"NftMarket.sol\":4382:4385  auc */\n      dup2\n        /* \"NftMarket.sol\":4382:4396  auc.highestBid */\n      0x03\n      add\n      sload\n        /* \"NftMarket.sol\":4376:4379  val */\n      dup2\n        /* \"NftMarket.sol\":4376:4396  val > auc.highestBid */\n      gt\n        /* \"NftMarket.sol\":4376:4421  val > auc.highestBid && val > auc.startingBid */\n      dup1\n      iszero\n      tag_95\n      jumpi\n      pop\n        /* \"NftMarket.sol\":4406:4409  auc */\n      dup2\n        /* \"NftMarket.sol\":4406:4421  auc.startingBid */\n      0x04\n      add\n      sload\n        /* \"NftMarket.sol\":4400:4403  val */\n      dup2\n        /* \"NftMarket.sol\":4400:4421  val > auc.startingBid */\n      gt\n        /* \"NftMarket.sol\":4376:4421  val > auc.highestBid && val > auc.startingBid */\n    tag_95:\n        /* \"NftMarket.sol\":4354:4477  require(\r... */\n      tag_96\n      jumpi\n      mload(0x40)\n      0x08c379a000000000000000000000000000000000000000000000000000000000\n      dup2\n      mstore\n      0x04\n      add\n      tag_97\n      swap1\n      tag_98\n      jump\t// in\n    tag_97:\n      mload(0x40)\n      dup1\n      swap2\n      sub\n      swap1\n      revert\n    tag_96:\n        /* \"NftMarket.sol\":4505:4508  val */\n      dup1\n        /* \"NftMarket.sol\":4488:4491  auc */\n      dup3\n        /* \"NftMarket.sol\":4488:4502  auc.highestBid */\n      0x03\n      add\n        /* \"NftMarket.sol\":4488:4508  auc.highestBid = val */\n      dup2\n      swap1\n      sstore\n      pop\n        /* \"NftMarket.sol\":4539:4549  msg.sender */\n      caller\n        /* \"NftMarket.sol\":4519:4522  auc */\n      dup3\n        /* \"NftMarket.sol\":4519:4536  auc.highestBidder */\n      0x02\n      add\n      0x00\n        /* \"NftMarket.sol\":4519:4549  auc.highestBidder = msg.sender */\n      0x0100\n      exp\n      dup2\n      sload\n      dup2\n      0xffffffffffffffffffffffffffffffffffffffff\n      mul\n      not\n      and\n      swap1\n      dup4\n      0xffffffffffffffffffffffffffffffffffffffff\n      and\n      mul\n      or\n      swap1\n      sstore\n      pop\n        /* \"NftMarket.sol\":4581:4584  _id */\n      dup3\n        /* \"NftMarket.sol\":4569:4579  msg.sender */\n      caller\n        /* \"NftMarket.sol\":4565:4596  Bid(msg.sender, _id, msg.value) */\n      0xffffffffffffffffffffffffffffffffffffffff\n      and\n      0x19421268847f42dd61705778018ddfc43bcdce8517e7a630acb12f122c709481\n        /* \"NftMarket.sol\":4586:4595  msg.value */\n      callvalue\n        /* \"NftMarket.sol\":4565:4596  Bid(msg.sender, _id, msg.value) */\n      mload(0x40)\n      tag_99\n      swap2\n      swap1\n      tag_26\n      jump\t// in\n    tag_99:\n      mload(0x40)\n      dup1\n      swap2\n      sub\n      swap1\n      log3\n        /* \"NftMarket.sol\":4124:4604  {\r... */\n      pop\n      pop\n        /* \"NftMarket.sol\":4081:4604  function bid(uint256 _id) external payable {\r... */\n      pop\n      jump\t// out\n        /* \"NftMarket.sol\":1332:1370  IERC721 public immutable nftCollection */\n    tag_32:\n      immutable(\"0xf3e73e27cf4cda7ebc973aa432f8a54a97200c0745d43e1bc9c2879ffe79cc53\")\n      dup2\n      jump\t// out\n        /* \"NftMarket.sol\":1474:1521  mapping(uint256 => uint256) public instantPrice */\n    tag_38:\n      mstore(0x20, 0x02)\n      dup1\n      0x00\n      mstore\n      keccak256(0x00, 0x40)\n      0x00\n      swap2\n      pop\n      swap1\n      pop\n      sload\n      dup2\n      jump\t// out\n        /* \"NftMarket.sol\":1830:2419  function instantBuy(uint256 _id) external payable {\r... */\n    tag_42:\n        /* \"NftMarket.sol\":1919:1920  0 */\n      0x00\n        /* \"NftMarket.sol\":1899:1911  instantPrice */\n      0x02\n        /* \"NftMarket.sol\":1899:1916  instantPrice[_id] */\n      0x00\n        /* \"NftMarket.sol\":1912:1915  _id */\n      dup4\n        /* \"NftMarket.sol\":1899:1916  instantPrice[_id] */\n      dup2\n      mstore\n      0x20\n      add\n      swap1\n      dup2\n      mstore\n      0x20\n      add\n      0x00\n      keccak256\n      sload\n        /* \"NftMarket.sol\":1899:1920  instantPrice[_id] > 0 */\n      gt\n        /* \"NftMarket.sol\":1891:1936  require(instantPrice[_id] > 0, \"Not on sale\") */\n      tag_101\n      jumpi\n      mload(0x40)\n      0x08c379a000000000000000000000000000000000000000000000000000000000\n      dup2\n      mstore\n      0x04\n      add\n      tag_102\n      swap1\n      tag_103\n      jump\t// in\n    tag_102:\n      mload(0x40)\n      dup1\n      swap2\n      sub\n      swap1\n      revert\n    tag_101:\n        /* \"NftMarket.sol\":1968:1980  instantPrice */\n      0x02\n        /* \"NftMarket.sol\":1968:1985  instantPrice[_id] */\n      0x00\n        /* \"NftMarket.sol\":1981:1984  _id */\n      dup3\n        /* \"NftMarket.sol\":1968:1985  instantPrice[_id] */\n      dup2\n      mstore\n      0x20\n      add\n      swap1\n      dup2\n      mstore\n      0x20\n      add\n      0x00\n      keccak256\n      sload\n        /* \"NftMarket.sol\":1955:1964  msg.value */\n      callvalue\n        /* \"NftMarket.sol\":1955:1985  msg.value >= instantPrice[_id] */\n      lt\n      iszero\n        /* \"NftMarket.sol\":1947:2006  require(msg.value >= instantPrice[_id], \"Not enough ether\") */\n      tag_104\n      jumpi\n      mload(0x40)\n      0x08c379a000000000000000000000000000000000000000000000000000000000\n      dup2\n      mstore\n      0x04\n      add\n      tag_105\n      swap1\n      tag_106\n      jump\t// in\n    tag_105:\n      mload(0x40)\n      dup1\n      swap2\n      sub\n      swap1\n      revert\n    tag_104:\n        /* \"NftMarket.sol\":2019:2032  address owner */\n      0x00\n        /* \"NftMarket.sol\":2035:2048  nftCollection */\n      immutable(\"0xf3e73e27cf4cda7ebc973aa432f8a54a97200c0745d43e1bc9c2879ffe79cc53\")\n        /* \"NftMarket.sol\":2035:2056  nftCollection.ownerOf */\n      0xffffffffffffffffffffffffffffffffffffffff\n      and\n      0x6352211e\n        /* \"NftMarket.sol\":2057:2060  _id */\n      dup4\n        /* \"NftMarket.sol\":2035:2061  nftCollection.ownerOf(_id) */\n      mload(0x40)\n      dup3\n      0xffffffff\n      and\n      0xe0\n      shl\n      dup2\n      mstore\n      0x04\n      add\n      tag_107\n      swap2\n      swap1\n      tag_26\n      jump\t// in\n    tag_107:\n      0x20\n      mload(0x40)\n      dup1\n      dup4\n      sub\n      dup2\n      dup7\n      dup1\n      extcodesize\n      iszero\n      dup1\n      iszero\n      tag_108\n      jumpi\n      0x00\n      dup1\n      revert\n    tag_108:\n      pop\n      gas\n      staticcall\n      iszero\n      dup1\n      iszero\n      tag_110\n      jumpi\n      returndatasize\n      0x00\n      dup1\n      returndatacopy\n      revert(0x00, returndatasize)\n    tag_110:\n      pop\n      pop\n      pop\n      pop\n      mload(0x40)\n      returndatasize\n      not(0x1f)\n      0x1f\n      dup3\n      add\n      and\n      dup3\n      add\n      dup1\n      0x40\n      mstore\n      pop\n      dup2\n      add\n      swap1\n      tag_111\n      swap2\n      swap1\n      tag_112\n      jump\t// in\n    tag_111:\n        /* \"NftMarket.sol\":2019:2061  address owner = nftCollection.ownerOf(_id) */\n      swap1\n      pop\n        /* \"NftMarket.sol\":2074:2087  nftCollection */\n      immutable(\"0xf3e73e27cf4cda7ebc973aa432f8a54a97200c0745d43e1bc9c2879ffe79cc53\")\n        /* \"NftMarket.sol\":2074:2100  nftCollection.transferFrom */\n      0xffffffffffffffffffffffffffffffffffffffff\n      and\n      0x23b872dd\n        /* \"NftMarket.sol\":2101:2106  owner */\n      dup3\n        /* \"NftMarket.sol\":2108:2118  msg.sender */\n      caller\n        /* \"NftMarket.sol\":2120:2123  _id */\n      dup6\n        /* \"NftMarket.sol\":2074:2124  nftCollection.transferFrom(owner, msg.sender, _id) */\n      mload(0x40)\n      dup5\n      0xffffffff\n      and\n      0xe0\n      shl\n      dup2\n      mstore\n      0x04\n      add\n      tag_113\n      swap4\n      swap3\n      swap2\n      swap1\n      tag_114\n      jump\t// in\n    tag_113:\n      0x00\n      mload(0x40)\n      dup1\n      dup4\n      sub\n      dup2\n      0x00\n      dup8\n      dup1\n      extcodesize\n      iszero\n      dup1\n      iszero\n      tag_115\n      jumpi\n      0x00\n      dup1\n      revert\n    tag_115:\n      pop\n      gas\n      call\n      iszero\n      dup1\n      iszero\n      tag_117\n      jumpi\n      returndatasize\n      0x00\n      dup1\n      returndatacopy\n      revert(0x00, returndatasize)\n    tag_117:\n      pop\n      pop\n      pop\n      pop\n        /* \"NftMarket.sol\":2138:2153  address royalty */\n      0x00\n        /* \"NftMarket.sol\":2155:2174  uint256 royaltyFees */\n      dup1\n        /* \"NftMarket.sol\":2178:2191  nftCollection */\n      immutable(\"0xf3e73e27cf4cda7ebc973aa432f8a54a97200c0745d43e1bc9c2879ffe79cc53\")\n        /* \"NftMarket.sol\":2178:2203  nftCollection.royaltyInfo */\n      0xffffffffffffffffffffffffffffffffffffffff\n      and\n      0x2a55205a\n        /* \"NftMarket.sol\":2218:2221  _id */\n      dup6\n        /* \"NftMarket.sol\":2236:2245  msg.value */\n      callvalue\n        /* \"NftMarket.sol\":2178:2256  nftCollection.royaltyInfo(\r... */\n      mload(0x40)\n      dup4\n      0xffffffff\n      and\n      0xe0\n      shl\n      dup2\n      mstore\n      0x04\n      add\n      tag_118\n      swap3\n      swap2\n      swap1\n      tag_119\n      jump\t// in\n    tag_118:\n      0x40\n      dup1\n      mload\n      dup1\n      dup4\n      sub\n      dup2\n      dup7\n      dup1\n      extcodesize\n      iszero\n      dup1\n      iszero\n      tag_120\n      jumpi\n      0x00\n      dup1\n      revert\n    tag_120:\n      pop\n      gas\n      staticcall\n      iszero\n      dup1\n      iszero\n      tag_122\n      jumpi\n      returndatasize\n      0x00\n      dup1\n      returndatacopy\n      revert(0x00, returndatasize)\n    tag_122:\n      pop\n      pop\n      pop\n      pop\n      mload(0x40)\n      returndatasize\n      not(0x1f)\n      0x1f\n      dup3\n      add\n      and\n      dup3\n      add\n      dup1\n      0x40\n      mstore\n      pop\n      dup2\n      add\n      swap1\n      tag_123\n      swap2\n      swap1\n      tag_124\n      jump\t// in\n    tag_123:\n        /* \"NftMarket.sol\":2137:2256  (address royalty, uint256 royaltyFees) = nftCollection.royaltyInfo(\r... */\n      swap2\n      pop\n      swap2\n      pop\n        /* \"NftMarket.sol\":2287:2298  royaltyFees */\n      dup1\n        /* \"NftMarket.sol\":2269:2274  toPay */\n      0x01\n        /* \"NftMarket.sol\":2269:2283  toPay[royalty] */\n      0x00\n        /* \"NftMarket.sol\":2275:2282  royalty */\n      dup5\n        /* \"NftMarket.sol\":2269:2283  toPay[royalty] */\n      0xffffffffffffffffffffffffffffffffffffffff\n      and\n      0xffffffffffffffffffffffffffffffffffffffff\n      and\n      dup2\n      mstore\n      0x20\n      add\n      swap1\n      dup2\n      mstore\n      0x20\n      add\n      0x00\n      keccak256\n      0x00\n        /* \"NftMarket.sol\":2269:2298  toPay[royalty] += royaltyFees */\n      dup3\n      dup3\n      sload\n      tag_125\n      swap2\n      swap1\n      tag_94\n      jump\t// in\n    tag_125:\n      swap3\n      pop\n      pop\n      dup2\n      swap1\n      sstore\n      pop\n        /* \"NftMarket.sol\":2338:2349  royaltyFees */\n      dup1\n        /* \"NftMarket.sol\":2326:2335  msg.value */\n      callvalue\n        /* \"NftMarket.sol\":2326:2349  msg.value - royaltyFees */\n      tag_126\n      swap2\n      swap1\n      tag_127\n      jump\t// in\n    tag_126:\n        /* \"NftMarket.sol\":2309:2314  toPay */\n      0x01\n        /* \"NftMarket.sol\":2309:2321  toPay[owner] */\n      0x00\n        /* \"NftMarket.sol\":2315:2320  owner */\n      dup6\n        /* \"NftMarket.sol\":2309:2321  toPay[owner] */\n      0xffffffffffffffffffffffffffffffffffffffff\n      and\n      0xffffffffffffffffffffffffffffffffffffffff\n      and\n      dup2\n      mstore\n      0x20\n      add\n      swap1\n      dup2\n      mstore\n      0x20\n      add\n      0x00\n      keccak256\n      0x00\n        /* \"NftMarket.sol\":2309:2350  toPay[owner] += (msg.value - royaltyFees) */\n      dup3\n      dup3\n      sload\n      tag_128\n      swap2\n      swap1\n      tag_94\n      jump\t// in\n    tag_128:\n      swap3\n      pop\n      pop\n      dup2\n      swap1\n      sstore\n      pop\n        /* \"NftMarket.sol\":2407:2410  _id */\n      dup4\n        /* \"NftMarket.sol\":2384:2394  msg.sender */\n      caller\n        /* \"NftMarket.sol\":2366:2411  InstantBuy(owner, msg.sender, msg.value, _id) */\n      0xffffffffffffffffffffffffffffffffffffffff\n      and\n        /* \"NftMarket.sol\":2377:2382  owner */\n      dup5\n        /* \"NftMarket.sol\":2366:2411  InstantBuy(owner, msg.sender, msg.value, _id) */\n      0xffffffffffffffffffffffffffffffffffffffff\n      and\n      0x7e3fa3dabd9e399e0c67487e26764a1b6d41fa839f397338fa4be199588cc198\n        /* \"NftMarket.sol\":2396:2405  msg.value */\n      callvalue\n        /* \"NftMarket.sol\":2366:2411  InstantBuy(owner, msg.sender, msg.value, _id) */\n      mload(0x40)\n      tag_129\n      swap2\n      swap1\n      tag_26\n      jump\t// in\n    tag_129:\n      mload(0x40)\n      dup1\n      swap2\n      sub\n      swap1\n      log4\n        /* \"NftMarket.sol\":1880:2419  {\r... */\n      pop\n      pop\n      pop\n        /* \"NftMarket.sol\":1830:2419  function instantBuy(uint256 _id) external payable {\r... */\n      pop\n      jump\t// out\n        /* \"NftMarket.sol\":2769:3385  function startAuction(\r... */\n    tag_47:\n        /* \"NftMarket.sol\":2894:2907  address owner */\n      0x00\n        /* \"NftMarket.sol\":2910:2923  nftCollection */\n      immutable(\"0xf3e73e27cf4cda7ebc973aa432f8a54a97200c0745d43e1bc9c2879ffe79cc53\")\n        /* \"NftMarket.sol\":2910:2931  nftCollection.ownerOf */\n      0xffffffffffffffffffffffffffffffffffffffff\n      and\n      0x6352211e\n        /* \"NftMarket.sol\":2932:2935  _id */\n      dup6\n        /* \"NftMarket.sol\":2910:2936  nftCollection.ownerOf(_id) */\n      mload(0x40)\n      dup3\n      0xffffffff\n      and\n      0xe0\n      shl\n      dup2\n      mstore\n      0x04\n      add\n      tag_131\n      swap2\n      swap1\n      tag_26\n      jump\t// in\n    tag_131:\n      0x20\n      mload(0x40)\n      dup1\n      dup4\n      sub\n      dup2\n      dup7\n      dup1\n      extcodesize\n      iszero\n      dup1\n      iszero\n      tag_132\n      jumpi\n      0x00\n      dup1\n      revert\n    tag_132:\n      pop\n      gas\n      staticcall\n      iszero\n      dup1\n      iszero\n      tag_134\n      jumpi\n      returndatasize\n      0x00\n      dup1\n      returndatacopy\n      revert(0x00, returndatasize)\n    tag_134:\n      pop\n      pop\n      pop\n      pop\n      mload(0x40)\n      returndatasize\n      not(0x1f)\n      0x1f\n      dup3\n      add\n      and\n      dup3\n      add\n      dup1\n      0x40\n      mstore\n      pop\n      dup2\n      add\n      swap1\n      tag_135\n      swap2\n      swap1\n      tag_112\n      jump\t// in\n    tag_135:\n        /* \"NftMarket.sol\":2894:2936  address owner = nftCollection.ownerOf(_id) */\n      swap1\n      pop\n        /* \"NftMarket.sol\":2969:2974  owner */\n      dup1\n        /* \"NftMarket.sol\":2955:2974  msg.sender == owner */\n      0xffffffffffffffffffffffffffffffffffffffff\n      and\n        /* \"NftMarket.sol\":2955:2965  msg.sender */\n      caller\n        /* \"NftMarket.sol\":2955:2974  msg.sender == owner */\n      0xffffffffffffffffffffffffffffffffffffffff\n      and\n      eq\n        /* \"NftMarket.sol\":2947:2988  require(msg.sender == owner, \"Not owner\") */\n      tag_136\n      jumpi\n      mload(0x40)\n      0x08c379a000000000000000000000000000000000000000000000000000000000\n      dup2\n      mstore\n      0x04\n      add\n      tag_137\n      swap1\n      tag_138\n      jump\t// in\n    tag_137:\n      mload(0x40)\n      dup1\n      swap2\n      sub\n      swap1\n      revert\n    tag_136:\n        /* \"NftMarket.sol\":3001:3014  nftCollection */\n      immutable(\"0xf3e73e27cf4cda7ebc973aa432f8a54a97200c0745d43e1bc9c2879ffe79cc53\")\n        /* \"NftMarket.sol\":3001:3027  nftCollection.transferFrom */\n      0xffffffffffffffffffffffffffffffffffffffff\n      and\n      0x23b872dd\n        /* \"NftMarket.sol\":3028:3033  owner */\n      dup3\n        /* \"NftMarket.sol\":3043:3047  this */\n      address\n        /* \"NftMarket.sol\":3050:3053  _id */\n      dup8\n        /* \"NftMarket.sol\":3001:3054  nftCollection.transferFrom(owner, address(this), _id) */\n      mload(0x40)\n      dup5\n      0xffffffff\n      and\n      0xe0\n      shl\n      dup2\n      mstore\n      0x04\n      add\n      tag_139\n      swap4\n      swap3\n      swap2\n      swap1\n      tag_114\n      jump\t// in\n    tag_139:\n      0x00\n      mload(0x40)\n      dup1\n      dup4\n      sub\n      dup2\n      0x00\n      dup8\n      dup1\n      extcodesize\n      iszero\n      dup1\n      iszero\n      tag_140\n      jumpi\n      0x00\n      dup1\n      revert\n    tag_140:\n      pop\n      gas\n      call\n      iszero\n      dup1\n      iszero\n      tag_142\n      jumpi\n      returndatasize\n      0x00\n      dup1\n      returndatacopy\n      revert(0x00, returndatasize)\n    tag_142:\n      pop\n      pop\n      pop\n      pop\n        /* \"NftMarket.sol\":3067:3082  Auc storage auc */\n      0x00\n        /* \"NftMarket.sol\":3085:3093  Auctions */\n      dup1\n        /* \"NftMarket.sol\":3085:3098  Auctions[_id] */\n      0x00\n        /* \"NftMarket.sol\":3094:3097  _id */\n      dup7\n        /* \"NftMarket.sol\":3085:3098  Auctions[_id] */\n      dup2\n      mstore\n      0x20\n      add\n      swap1\n      dup2\n      mstore\n      0x20\n      add\n      0x00\n      keccak256\n        /* \"NftMarket.sol\":3067:3098  Auc storage auc = Auctions[_id] */\n      swap1\n      pop\n        /* \"NftMarket.sol\":3123:3128  owner */\n      dup2\n        /* \"NftMarket.sol\":3109:3112  auc */\n      dup2\n        /* \"NftMarket.sol\":3109:3120  auc.creator */\n      0x01\n      add\n      0x00\n        /* \"NftMarket.sol\":3109:3128  auc.creator = owner */\n      0x0100\n      exp\n      dup2\n      sload\n      dup2\n      0xffffffffffffffffffffffffffffffffffffffff\n      mul\n      not\n      and\n      swap1\n      dup4\n      0xffffffffffffffffffffffffffffffffffffffff\n      and\n      mul\n      or\n      swap1\n      sstore\n      pop\n        /* \"NftMarket.sol\":3176:3184  duration */\n      dup3\n        /* \"NftMarket.sol\":3158:3184  block.timestamp + duration */\n      0xffffffff\n      and\n        /* \"NftMarket.sol\":3158:3173  block.timestamp */\n      timestamp\n        /* \"NftMarket.sol\":3158:3184  block.timestamp + duration */\n      tag_143\n      swap2\n      swap1\n      tag_94\n      jump\t// in\n    tag_143:\n        /* \"NftMarket.sol\":3139:3142  auc */\n      dup2\n        /* \"NftMarket.sol\":3139:3148  auc.endAt */\n      0x01\n      add\n      0x16\n        /* \"NftMarket.sol\":3139:3185  auc.endAt = uint32(block.timestamp + duration) */\n      0x0100\n      exp\n      dup2\n      sload\n      dup2\n      0xffffffff\n      mul\n      not\n      and\n      swap1\n      dup4\n      0xffffffff\n      and\n      mul\n      or\n      swap1\n      sstore\n      pop\n        /* \"NftMarket.sol\":3208:3211  _id */\n      dup5\n        /* \"NftMarket.sol\":3196:3199  auc */\n      dup2\n        /* \"NftMarket.sol\":3196:3205  auc.nftId */\n      0x00\n      add\n        /* \"NftMarket.sol\":3196:3211  auc.nftId = _id */\n      dup2\n      swap1\n      sstore\n      pop\n        /* \"NftMarket.sol\":3240:3249  _starting */\n      dup4\n        /* \"NftMarket.sol\":3222:3225  auc */\n      dup2\n        /* \"NftMarket.sol\":3222:3237  auc.startingBid */\n      0x04\n      add\n        /* \"NftMarket.sol\":3222:3249  auc.startingBid = _starting */\n      dup2\n      swap1\n      sstore\n      pop\n        /* \"NftMarket.sol\":3272:3277  false */\n      0x00\n        /* \"NftMarket.sol\":3260:3263  auc */\n      dup2\n        /* \"NftMarket.sol\":3260:3269  auc.ended */\n      0x01\n      add\n      0x15\n        /* \"NftMarket.sol\":3260:3277  auc.ended = false */\n      0x0100\n      exp\n      dup2\n      sload\n      dup2\n      0xff\n      mul\n      not\n      and\n      swap1\n      dup4\n      iszero\n      iszero\n      mul\n      or\n      swap1\n      sstore\n      pop\n        /* \"NftMarket.sol\":3302:3306  true */\n      0x01\n        /* \"NftMarket.sol\":3288:3291  auc */\n      dup2\n        /* \"NftMarket.sol\":3288:3299  auc.started */\n      0x01\n      add\n      0x14\n        /* \"NftMarket.sol\":3288:3306  auc.started = true */\n      0x0100\n      exp\n      dup2\n      sload\n      dup2\n      0xff\n      mul\n      not\n      and\n      swap1\n      dup4\n      iszero\n      iszero\n      mul\n      or\n      swap1\n      sstore\n      pop\n        /* \"NftMarket.sol\":3337:3342  owner */\n      dup2\n        /* \"NftMarket.sol\":3317:3320  auc */\n      dup2\n        /* \"NftMarket.sol\":3317:3334  auc.highestBidder */\n      0x02\n      add\n      0x00\n        /* \"NftMarket.sol\":3317:3342  auc.highestBidder = owner */\n      0x0100\n      exp\n      dup2\n      sload\n      dup2\n      0xffffffffffffffffffffffffffffffffffffffff\n      mul\n      not\n      and\n      swap1\n      dup4\n      0xffffffffffffffffffffffffffffffffffffffff\n      and\n      mul\n      or\n      swap1\n      sstore\n      pop\n        /* \"NftMarket.sol\":3373:3376  _id */\n      dup5\n        /* \"NftMarket.sol\":3366:3371  owner */\n      dup3\n        /* \"NftMarket.sol\":3360:3377  Start(owner, _id) */\n      0xffffffffffffffffffffffffffffffffffffffff\n      and\n      0xcfb9c5312b25ec7b809d61e638df25f749eae5d5c25399e1c93d1d319bfd5821\n      mload(0x40)\n      mload(0x40)\n      dup1\n      swap2\n      sub\n      swap1\n      log3\n        /* \"NftMarket.sol\":2883:3385  {\r... */\n      pop\n      pop\n        /* \"NftMarket.sol\":2769:3385  function startAuction(\r... */\n      pop\n      pop\n      pop\n      jump\t// out\n        /* \"NftMarket.sol\":2427:2761  function withdrawEth() external {\r... */\n    tag_50:\n        /* \"NftMarket.sol\":2498:2499  0 */\n      0x00\n        /* \"NftMarket.sol\":2478:2483  toPay */\n      0x01\n        /* \"NftMarket.sol\":2478:2495  toPay[msg.sender] */\n      0x00\n        /* \"NftMarket.sol\":2484:2494  msg.sender */\n      caller\n        /* \"NftMarket.sol\":2478:2495  toPay[msg.sender] */\n      0xffffffffffffffffffffffffffffffffffffffff\n      and\n      0xffffffffffffffffffffffffffffffffffffffff\n      and\n      dup2\n      mstore\n      0x20\n      add\n      swap1\n      dup2\n      mstore\n      0x20\n      add\n      0x00\n      keccak256\n      sload\n        /* \"NftMarket.sol\":2478:2499  toPay[msg.sender] > 0 */\n      gt\n        /* \"NftMarket.sol\":2470:2519  require(toPay[msg.sender] > 0, \"we owe no money\") */\n      tag_145\n      jumpi\n      mload(0x40)\n      0x08c379a000000000000000000000000000000000000000000000000000000000\n      dup2\n      mstore\n      0x04\n      add\n      tag_146\n      swap1\n      tag_147\n      jump\t// in\n    tag_146:\n      mload(0x40)\n      dup1\n      swap2\n      sub\n      swap1\n      revert\n    tag_145:\n        /* \"NftMarket.sol\":2530:2541  uint256 val */\n      0x00\n        /* \"NftMarket.sol\":2544:2549  toPay */\n      0x01\n        /* \"NftMarket.sol\":2544:2561  toPay[msg.sender] */\n      0x00\n        /* \"NftMarket.sol\":2550:2560  msg.sender */\n      caller\n        /* \"NftMarket.sol\":2544:2561  toPay[msg.sender] */\n      0xffffffffffffffffffffffffffffffffffffffff\n      and\n      0xffffffffffffffffffffffffffffffffffffffff\n      and\n      dup2\n      mstore\n      0x20\n      add\n      swap1\n      dup2\n      mstore\n      0x20\n      add\n      0x00\n      keccak256\n      sload\n        /* \"NftMarket.sol\":2530:2561  uint256 val = toPay[msg.sender] */\n      swap1\n      pop\n        /* \"NftMarket.sol\":2592:2593  0 */\n      0x00\n        /* \"NftMarket.sol\":2572:2577  toPay */\n      0x01\n        /* \"NftMarket.sol\":2572:2589  toPay[msg.sender] */\n      0x00\n        /* \"NftMarket.sol\":2578:2588  msg.sender */\n      caller\n        /* \"NftMarket.sol\":2572:2589  toPay[msg.sender] */\n      0xffffffffffffffffffffffffffffffffffffffff\n      and\n      0xffffffffffffffffffffffffffffffffffffffff\n      and\n      dup2\n      mstore\n      0x20\n      add\n      swap1\n      dup2\n      mstore\n      0x20\n      add\n      0x00\n      keccak256\n        /* \"NftMarket.sol\":2572:2593  toPay[msg.sender] = 0 */\n      dup2\n      swap1\n      sstore\n      pop\n        /* \"NftMarket.sol\":2605:2617  bool success */\n      0x00\n        /* \"NftMarket.sol\":2631:2641  msg.sender */\n      caller\n        /* \"NftMarket.sol\":2623:2647  payable(msg.sender).call */\n      0xffffffffffffffffffffffffffffffffffffffff\n      and\n        /* \"NftMarket.sol\":2655:2658  val */\n      dup3\n        /* \"NftMarket.sol\":2623:2663  payable(msg.sender).call{value: val}(\"\") */\n      mload(0x40)\n      tag_148\n      swap1\n      tag_78\n      jump\t// in\n    tag_148:\n      0x00\n      mload(0x40)\n      dup1\n      dup4\n      sub\n      dup2\n      dup6\n      dup8\n      gas\n      call\n      swap3\n      pop\n      pop\n      pop\n      returndatasize\n      dup1\n      0x00\n      dup2\n      eq\n      tag_151\n      jumpi\n      mload(0x40)\n      swap2\n      pop\n      and(add(returndatasize, 0x3f), not(0x1f))\n      dup3\n      add\n      0x40\n      mstore\n      returndatasize\n      dup3\n      mstore\n      returndatasize\n      0x00\n      0x20\n      dup5\n      add\n      returndatacopy\n      jump(tag_150)\n    tag_151:\n      0x60\n      swap2\n      pop\n    tag_150:\n      pop\n        /* \"NftMarket.sol\":2604:2663  (bool success, ) = payable(msg.sender).call{value: val}(\"\") */\n      pop\n      swap1\n      pop\n        /* \"NftMarket.sol\":2682:2689  success */\n      dup1\n        /* \"NftMarket.sol\":2674:2712  require(success, \"transaction failed\") */\n      tag_152\n      jumpi\n      mload(0x40)\n      0x08c379a000000000000000000000000000000000000000000000000000000000\n      dup2\n      mstore\n      0x04\n      add\n      tag_153\n      swap1\n      tag_84\n      jump\t// in\n    tag_153:\n      mload(0x40)\n      dup1\n      swap2\n      sub\n      swap1\n      revert\n    tag_152:\n        /* \"NftMarket.sol\":2737:2747  msg.sender */\n      caller\n        /* \"NftMarket.sol\":2728:2753  Withdraw(msg.sender, val) */\n      0xffffffffffffffffffffffffffffffffffffffff\n      and\n      0x884edad9ce6fa2440d8a54cc123490eb96d2768479d49ff9c7366125a9424364\n        /* \"NftMarket.sol\":2749:2752  val */\n      dup4\n        /* \"NftMarket.sol\":2728:2753  Withdraw(msg.sender, val) */\n      mload(0x40)\n      tag_154\n      swap2\n      swap1\n      tag_26\n      jump\t// in\n    tag_154:\n      mload(0x40)\n      dup1\n      swap2\n      sub\n      swap1\n      log2\n        /* \"NftMarket.sol\":2459:2761  {\r... */\n      pop\n      pop\n        /* \"NftMarket.sol\":2427:2761  function withdrawEth() external {\r... */\n      jump\t// out\n        /* \"NftMarket.sol\":3393:4073  function endAuction(uint256 _id) external {\r... */\n    tag_54:\n        /* \"NftMarket.sol\":3446:3461  Auc storage auc */\n      0x00\n        /* \"NftMarket.sol\":3464:3472  Auctions */\n      dup1\n        /* \"NftMarket.sol\":3464:3477  Auctions[_id] */\n      0x00\n        /* \"NftMarket.sol\":3473:3476  _id */\n      dup4\n        /* \"NftMarket.sol\":3464:3477  Auctions[_id] */\n      dup2\n      mstore\n      0x20\n      add\n      swap1\n      dup2\n      mstore\n      0x20\n      add\n      0x00\n      keccak256\n        /* \"NftMarket.sol\":3446:3477  Auc storage auc = Auctions[_id] */\n      swap1\n      pop\n        /* \"NftMarket.sol\":3498:3501  auc */\n      dup1\n        /* \"NftMarket.sol\":3498:3509  auc.started */\n      0x01\n      add\n      0x14\n      swap1\n      sload\n      swap1\n      0x0100\n      exp\n      swap1\n      div\n      0xff\n      and\n        /* \"NftMarket.sol\":3490:3525  require(auc.started, \"Not started\") */\n      tag_156\n      jumpi\n      mload(0x40)\n      0x08c379a000000000000000000000000000000000000000000000000000000000\n      dup2\n      mstore\n      0x04\n      add\n      tag_157\n      swap1\n      tag_92\n      jump\t// in\n    tag_157:\n      mload(0x40)\n      dup1\n      swap2\n      sub\n      swap1\n      revert\n    tag_156:\n        /* \"NftMarket.sol\":3557:3562  false */\n      0x00\n        /* \"NftMarket.sol\":3544:3562  auc.ended == false */\n      iszero\n      iszero\n        /* \"NftMarket.sol\":3544:3547  auc */\n      dup2\n        /* \"NftMarket.sol\":3544:3553  auc.ended */\n      0x01\n      add\n      0x15\n      swap1\n      sload\n      swap1\n      0x0100\n      exp\n      swap1\n      div\n      0xff\n      and\n        /* \"NftMarket.sol\":3544:3562  auc.ended == false */\n      iszero\n      iszero\n      eq\n        /* \"NftMarket.sol\":3536:3578  require(auc.ended == false, \"End already\") */\n      tag_158\n      jumpi\n      mload(0x40)\n      0x08c379a000000000000000000000000000000000000000000000000000000000\n      dup2\n      mstore\n      0x04\n      add\n      tag_159\n      swap1\n      tag_160\n      jump\t// in\n    tag_159:\n      mload(0x40)\n      dup1\n      swap2\n      sub\n      swap1\n      revert\n    tag_158:\n        /* \"NftMarket.sol\":3610:3625  block.timestamp */\n      timestamp\n        /* \"NftMarket.sol\":3597:3600  auc */\n      dup2\n        /* \"NftMarket.sol\":3597:3606  auc.endAt */\n      0x01\n      add\n      0x16\n      swap1\n      sload\n      swap1\n      0x0100\n      exp\n      swap1\n      div\n      0xffffffff\n      and\n        /* \"NftMarket.sol\":3597:3625  auc.endAt <= block.timestamp */\n      0xffffffff\n      and\n      gt\n      iszero\n        /* \"NftMarket.sol\":3589:3639  require(auc.endAt <= block.timestamp, \"Time left\") */\n      tag_161\n      jumpi\n      mload(0x40)\n      0x08c379a000000000000000000000000000000000000000000000000000000000\n      dup2\n      mstore\n      0x04\n      add\n      tag_162\n      swap1\n      tag_163\n      jump\t// in\n    tag_162:\n      mload(0x40)\n      dup1\n      swap2\n      sub\n      swap1\n      revert\n    tag_161:\n        /* \"NftMarket.sol\":3662:3666  true */\n      0x01\n        /* \"NftMarket.sol\":3650:3653  auc */\n      dup2\n        /* \"NftMarket.sol\":3650:3659  auc.ended */\n      0x01\n      add\n      0x15\n        /* \"NftMarket.sol\":3650:3666  auc.ended = true */\n      0x0100\n      exp\n      dup2\n      sload\n      dup2\n      0xff\n      mul\n      not\n      and\n      swap1\n      dup4\n      iszero\n      iszero\n      mul\n      or\n      swap1\n      sstore\n      pop\n        /* \"NftMarket.sol\":3698:3699  0 */\n      0x00\n        /* \"NftMarket.sol\":3681:3684  auc */\n      dup2\n        /* \"NftMarket.sol\":3681:3695  auc.highestBid */\n      0x03\n      add\n      sload\n        /* \"NftMarket.sol\":3681:3699  auc.highestBid > 0 */\n      gt\n        /* \"NftMarket.sol\":3677:4005  if (auc.highestBid > 0) {\r... */\n      iszero\n      tag_164\n      jumpi\n        /* \"NftMarket.sol\":3717:3732  address royalty */\n      0x00\n        /* \"NftMarket.sol\":3734:3753  uint256 royaltyFees */\n      dup1\n        /* \"NftMarket.sol\":3757:3770  nftCollection */\n      immutable(\"0xf3e73e27cf4cda7ebc973aa432f8a54a97200c0745d43e1bc9c2879ffe79cc53\")\n        /* \"NftMarket.sol\":3757:3782  nftCollection.royaltyInfo */\n      0xffffffffffffffffffffffffffffffffffffffff\n      and\n      0x2a55205a\n        /* \"NftMarket.sol\":3801:3804  _id */\n      dup6\n        /* \"NftMarket.sol\":3823:3826  auc */\n      dup6\n        /* \"NftMarket.sol\":3823:3837  auc.highestBid */\n      0x03\n      add\n      sload\n        /* \"NftMarket.sol\":3757:3852  nftCollection.royaltyInfo(\r... */\n      mload(0x40)\n      dup4\n      0xffffffff\n      and\n      0xe0\n      shl\n      dup2\n      mstore\n      0x04\n      add\n      tag_165\n      swap3\n      swap2\n      swap1\n      tag_119\n      jump\t// in\n    tag_165:\n      0x40\n      dup1\n      mload\n      dup1\n      dup4\n      sub\n      dup2\n      dup7\n      dup1\n      extcodesize\n      iszero\n      dup1\n      iszero\n      tag_166\n      jumpi\n      0x00\n      dup1\n      revert\n    tag_166:\n      pop\n      gas\n      staticcall\n      iszero\n      dup1\n      iszero\n      tag_168\n      jumpi\n      returndatasize\n      0x00\n      dup1\n      returndatacopy\n      revert(0x00, returndatasize)\n    tag_168:\n      pop\n      pop\n      pop\n      pop\n      mload(0x40)\n      returndatasize\n      not(0x1f)\n      0x1f\n      dup3\n      add\n      and\n      dup3\n      add\n      dup1\n      0x40\n      mstore\n      pop\n      dup2\n      add\n      swap1\n      tag_169\n      swap2\n      swap1\n      tag_124\n      jump\t// in\n    tag_169:\n        /* \"NftMarket.sol\":3716:3852  (address royalty, uint256 royaltyFees) = nftCollection.royaltyInfo(\r... */\n      swap2\n      pop\n      swap2\n      pop\n        /* \"NftMarket.sol\":3867:3878  uint256 val */\n      0x00\n        /* \"NftMarket.sol\":3898:3909  royaltyFees */\n      dup2\n        /* \"NftMarket.sol\":3881:3884  auc */\n      dup5\n        /* \"NftMarket.sol\":3881:3895  auc.highestBid */\n      0x03\n      add\n      sload\n        /* \"NftMarket.sol\":3881:3909  auc.highestBid - royaltyFees */\n      tag_170\n      swap2\n      swap1\n      tag_127\n      jump\t// in\n    tag_170:\n        /* \"NftMarket.sol\":3867:3909  uint256 val = auc.highestBid - royaltyFees */\n      swap1\n      pop\n        /* \"NftMarket.sol\":3946:3949  val */\n      dup1\n        /* \"NftMarket.sol\":3924:3929  toPay */\n      0x01\n        /* \"NftMarket.sol\":3924:3942  toPay[auc.creator] */\n      0x00\n        /* \"NftMarket.sol\":3930:3933  auc */\n      dup7\n        /* \"NftMarket.sol\":3930:3941  auc.creator */\n      0x01\n      add\n      0x00\n      swap1\n      sload\n      swap1\n      0x0100\n      exp\n      swap1\n      div\n      0xffffffffffffffffffffffffffffffffffffffff\n      and\n        /* \"NftMarket.sol\":3924:3942  toPay[auc.creator] */\n      0xffffffffffffffffffffffffffffffffffffffff\n      and\n      0xffffffffffffffffffffffffffffffffffffffff\n      and\n      dup2\n      mstore\n      0x20\n      add\n      swap1\n      dup2\n      mstore\n      0x20\n      add\n      0x00\n      keccak256\n      0x00\n        /* \"NftMarket.sol\":3924:3949  toPay[auc.creator] += val */\n      dup3\n      dup3\n      sload\n      tag_171\n      swap2\n      swap1\n      tag_94\n      jump\t// in\n    tag_171:\n      swap3\n      pop\n      pop\n      dup2\n      swap1\n      sstore\n      pop\n        /* \"NftMarket.sol\":3982:3993  royaltyFees */\n      dup2\n        /* \"NftMarket.sol\":3964:3969  toPay */\n      0x01\n        /* \"NftMarket.sol\":3964:3978  toPay[royalty] */\n      0x00\n        /* \"NftMarket.sol\":3970:3977  royalty */\n      dup6\n        /* \"NftMarket.sol\":3964:3978  toPay[royalty] */\n      0xffffffffffffffffffffffffffffffffffffffff\n      and\n      0xffffffffffffffffffffffffffffffffffffffff\n      and\n      dup2\n      mstore\n      0x20\n      add\n      swap1\n      dup2\n      mstore\n      0x20\n      add\n      0x00\n      keccak256\n      0x00\n        /* \"NftMarket.sol\":3964:3993  toPay[royalty] += royaltyFees */\n      dup3\n      dup3\n      sload\n      tag_172\n      swap2\n      swap1\n      tag_94\n      jump\t// in\n    tag_172:\n      swap3\n      pop\n      pop\n      dup2\n      swap1\n      sstore\n      pop\n        /* \"NftMarket.sol\":3701:4005  {\r... */\n      pop\n      pop\n      pop\n        /* \"NftMarket.sol\":3677:4005  if (auc.highestBid > 0) {\r... */\n    tag_164:\n        /* \"NftMarket.sol\":4061:4064  _id */\n      dup2\n        /* \"NftMarket.sol\":4026:4029  auc */\n      dup2\n        /* \"NftMarket.sol\":4026:4043  auc.highestBidder */\n      0x02\n      add\n      0x00\n      swap1\n      sload\n      swap1\n      0x0100\n      exp\n      swap1\n      div\n      0xffffffffffffffffffffffffffffffffffffffff\n      and\n        /* \"NftMarket.sol\":4022:4065  End(auc.highestBidder, auc.highestBid, _id) */\n      0xffffffffffffffffffffffffffffffffffffffff\n      and\n      0xf58cfa488d8d9ddd26ddfc3dd52f23711c05cb37db31bda0b1b27d1bdfb56e53\n        /* \"NftMarket.sol\":4045:4048  auc */\n      dup4\n        /* \"NftMarket.sol\":4045:4059  auc.highestBid */\n      0x03\n      add\n      sload\n        /* \"NftMarket.sol\":4022:4065  End(auc.highestBidder, auc.highestBid, _id) */\n      mload(0x40)\n      tag_173\n      swap2\n      swap1\n      tag_26\n      jump\t// in\n    tag_173:\n      mload(0x40)\n      dup1\n      swap2\n      sub\n      swap1\n      log3\n        /* \"NftMarket.sol\":3435:4073  {\r... */\n      pop\n        /* \"NftMarket.sol\":3393:4073  function endAuction(uint256 _id) external {\r... */\n      pop\n      jump\t// out\n        /* \"NftMarket.sol\":5134:5497  function claimAsset(uint256 _id) external {\r... */\n    tag_58:\n        /* \"NftMarket.sol\":5187:5202  Auc storage auc */\n      0x00\n        /* \"NftMarket.sol\":5205:5213  Auctions */\n      dup1\n        /* \"NftMarket.sol\":5205:5218  Auctions[_id] */\n      0x00\n        /* \"NftMarket.sol\":5214:5217  _id */\n      dup4\n        /* \"NftMarket.sol\":5205:5218  Auctions[_id] */\n      dup2\n      mstore\n      0x20\n      add\n      swap1\n      dup2\n      mstore\n      0x20\n      add\n      0x00\n      keccak256\n        /* \"NftMarket.sol\":5187:5218  Auc storage auc = Auctions[_id] */\n      swap1\n      pop\n        /* \"NftMarket.sol\":5250:5265  block.timestamp */\n      timestamp\n        /* \"NftMarket.sol\":5237:5240  auc */\n      dup2\n        /* \"NftMarket.sol\":5237:5246  auc.endAt */\n      0x01\n      add\n      0x16\n      swap1\n      sload\n      swap1\n      0x0100\n      exp\n      swap1\n      div\n      0xffffffff\n      and\n        /* \"NftMarket.sol\":5237:5265  auc.endAt <= block.timestamp */\n      0xffffffff\n      and\n      gt\n      iszero\n        /* \"NftMarket.sol\":5229:5279  require(auc.endAt <= block.timestamp, \"not ended\") */\n      tag_175\n      jumpi\n      mload(0x40)\n      0x08c379a000000000000000000000000000000000000000000000000000000000\n      dup2\n      mstore\n      0x04\n      add\n      tag_176\n      swap1\n      tag_177\n      jump\t// in\n    tag_176:\n      mload(0x40)\n      dup1\n      swap2\n      sub\n      swap1\n      revert\n    tag_175:\n        /* \"NftMarket.sol\":5290:5304  address winner */\n      0x00\n        /* \"NftMarket.sol\":5307:5310  auc */\n      dup2\n        /* \"NftMarket.sol\":5307:5324  auc.highestBidder */\n      0x02\n      add\n      0x00\n      swap1\n      sload\n      swap1\n      0x0100\n      exp\n      swap1\n      div\n      0xffffffffffffffffffffffffffffffffffffffff\n      and\n        /* \"NftMarket.sol\":5290:5324  address winner = auc.highestBidder */\n      swap1\n      pop\n        /* \"NftMarket.sol\":5363:5364  0 */\n      0x00\n        /* \"NftMarket.sol\":5345:5365  winner != address(0) */\n      0xffffffffffffffffffffffffffffffffffffffff\n      and\n        /* \"NftMarket.sol\":5345:5351  winner */\n      dup2\n        /* \"NftMarket.sol\":5345:5365  winner != address(0) */\n      0xffffffffffffffffffffffffffffffffffffffff\n      and\n      eq\n      iszero\n        /* \"NftMarket.sol\":5337:5381  require(winner != address(0), \"WINNER_ZERO\") */\n      tag_178\n      jumpi\n      mload(0x40)\n      0x08c379a000000000000000000000000000000000000000000000000000000000\n      dup2\n      mstore\n      0x04\n      add\n      tag_179\n      swap1\n      tag_180\n      jump\t// in\n    tag_179:\n      mload(0x40)\n      dup1\n      swap2\n      sub\n      swap1\n      revert\n    tag_178:\n        /* \"NftMarket.sol\":5394:5407  nftCollection */\n      immutable(\"0xf3e73e27cf4cda7ebc973aa432f8a54a97200c0745d43e1bc9c2879ffe79cc53\")\n        /* \"NftMarket.sol\":5394:5420  nftCollection.transferFrom */\n      0xffffffffffffffffffffffffffffffffffffffff\n      and\n      0x23b872dd\n        /* \"NftMarket.sol\":5429:5433  this */\n      address\n        /* \"NftMarket.sol\":5436:5442  winner */\n      dup4\n        /* \"NftMarket.sol\":5444:5447  _id */\n      dup7\n        /* \"NftMarket.sol\":5394:5448  nftCollection.transferFrom(address(this), winner, _id) */\n      mload(0x40)\n      dup5\n      0xffffffff\n      and\n      0xe0\n      shl\n      dup2\n      mstore\n      0x04\n      add\n      tag_181\n      swap4\n      swap3\n      swap2\n      swap1\n      tag_114\n      jump\t// in\n    tag_181:\n      0x00\n      mload(0x40)\n      dup1\n      dup4\n      sub\n      dup2\n      0x00\n      dup8\n      dup1\n      extcodesize\n      iszero\n      dup1\n      iszero\n      tag_182\n      jumpi\n      0x00\n      dup1\n      revert\n    tag_182:\n      pop\n      gas\n      call\n      iszero\n      dup1\n      iszero\n      tag_184\n      jumpi\n      returndatasize\n      0x00\n      dup1\n      returndatacopy\n      revert(0x00, returndatasize)\n    tag_184:\n      pop\n      pop\n      pop\n      pop\n        /* \"NftMarket.sol\":5485:5488  _id */\n      dup3\n        /* \"NftMarket.sol\":5477:5483  winner */\n      dup2\n        /* \"NftMarket.sol\":5464:5489  AssetClaimed(winner, _id) */\n      0xffffffffffffffffffffffffffffffffffffffff\n      and\n      0xaaf9ca8f61f9510fd9363dd9106d8fe225c4fc1c935f0778021747735a6ca30a\n      mload(0x40)\n      mload(0x40)\n      dup1\n      swap2\n      sub\n      swap1\n      log3\n        /* \"NftMarket.sol\":5176:5497  {\r... */\n      pop\n      pop\n        /* \"NftMarket.sol\":5134:5497  function claimAsset(uint256 _id) external {\r... */\n      pop\n      jump\t// out\n        /* \"NftMarket.sol\":1379:1418  mapping(uint256 => Auc) public Auctions */\n    tag_62:\n      mstore(0x20, 0x00)\n      dup1\n      0x00\n      mstore\n      keccak256(0x00, 0x40)\n      0x00\n      swap2\n      pop\n      swap1\n      pop\n      dup1\n      0x00\n      add\n      sload\n      swap1\n      dup1\n      0x01\n      add\n      0x00\n      swap1\n      sload\n      swap1\n      0x0100\n      exp\n      swap1\n      div\n      0xffffffffffffffffffffffffffffffffffffffff\n      and\n      swap1\n      dup1\n      0x01\n      add\n      0x14\n      swap1\n      sload\n      swap1\n      0x0100\n      exp\n      swap1\n      div\n      0xff\n      and\n      swap1\n      dup1\n      0x01\n      add\n      0x15\n      swap1\n      sload\n      swap1\n      0x0100\n      exp\n      swap1\n      div\n      0xff\n      and\n      swap1\n      dup1\n      0x01\n      add\n      0x16\n      swap1\n      sload\n      swap1\n      0x0100\n      exp\n      swap1\n      div\n      0xffffffff\n      and\n      swap1\n      dup1\n      0x02\n      add\n      0x00\n      swap1\n      sload\n      swap1\n      0x0100\n      exp\n      swap1\n      div\n      0xffffffffffffffffffffffffffffffffffffffff\n      and\n      swap1\n      dup1\n      0x03\n      add\n      sload\n      swap1\n      dup1\n      0x04\n      add\n      sload\n      swap1\n      pop\n      dup9\n      jump\t// out\n        /* \"NftMarket.sol\":1612:1822  function setPrice(uint256 _id, uint256 _price) external {\r... */\n    tag_69:\n        /* \"NftMarket.sol\":1679:1692  address owner */\n      0x00\n        /* \"NftMarket.sol\":1695:1708  nftCollection */\n      immutable(\"0xf3e73e27cf4cda7ebc973aa432f8a54a97200c0745d43e1bc9c2879ffe79cc53\")\n        /* \"NftMarket.sol\":1695:1716  nftCollection.ownerOf */\n      0xffffffffffffffffffffffffffffffffffffffff\n      and\n      0x6352211e\n        /* \"NftMarket.sol\":1717:1720  _id */\n      dup5\n        /* \"NftMarket.sol\":1695:1721  nftCollection.ownerOf(_id) */\n      mload(0x40)\n      dup3\n      0xffffffff\n      and\n      0xe0\n      shl\n      dup2\n      mstore\n      0x04\n      add\n      tag_186\n      swap2\n      swap1\n      tag_26\n      jump\t// in\n    tag_186:\n      0x20\n      mload(0x40)\n      dup1\n      dup4\n      sub\n      dup2\n      dup7\n      dup1\n      extcodesize\n      iszero\n      dup1\n      iszero\n      tag_187\n      jumpi\n      0x00\n      dup1\n      revert\n    tag_187:\n      pop\n      gas\n      staticcall\n      iszero\n      dup1\n      iszero\n      tag_189\n      jumpi\n      returndatasize\n      0x00\n      dup1\n      returndatacopy\n      revert(0x00, returndatasize)\n    tag_189:\n      pop\n      pop\n      pop\n      pop\n      mload(0x40)\n      returndatasize\n      not(0x1f)\n      0x1f\n      dup3\n      add\n      and\n      dup3\n      add\n      dup1\n      0x40\n      mstore\n      pop\n      dup2\n      add\n      swap1\n      tag_190\n      swap2\n      swap1\n      tag_112\n      jump\t// in\n    tag_190:\n        /* \"NftMarket.sol\":1679:1721  address owner = nftCollection.ownerOf(_id) */\n      swap1\n      pop\n        /* \"NftMarket.sol\":1756:1761  owner */\n      dup1\n        /* \"NftMarket.sol\":1742:1761  msg.sender == owner */\n      0xffffffffffffffffffffffffffffffffffffffff\n      and\n        /* \"NftMarket.sol\":1742:1752  msg.sender */\n      caller\n        /* \"NftMarket.sol\":1742:1761  msg.sender == owner */\n      0xffffffffffffffffffffffffffffffffffffffff\n      and\n      eq\n        /* \"NftMarket.sol\":1734:1775  require(msg.sender == owner, \"not owner\") */\n      tag_191\n      jumpi\n      mload(0x40)\n      0x08c379a000000000000000000000000000000000000000000000000000000000\n      dup2\n      mstore\n      0x04\n      add\n      tag_192\n      swap1\n      tag_193\n      jump\t// in\n    tag_192:\n      mload(0x40)\n      dup1\n      swap2\n      sub\n      swap1\n      revert\n    tag_191:\n        /* \"NftMarket.sol\":1808:1814  _price */\n      dup2\n        /* \"NftMarket.sol\":1788:1800  instantPrice */\n      0x02\n        /* \"NftMarket.sol\":1788:1805  instantPrice[_id] */\n      0x00\n        /* \"NftMarket.sol\":1801:1804  _id */\n      dup6\n        /* \"NftMarket.sol\":1788:1805  instantPrice[_id] */\n      dup2\n      mstore\n      0x20\n      add\n      swap1\n      dup2\n      mstore\n      0x20\n      add\n      0x00\n      keccak256\n        /* \"NftMarket.sol\":1788:1814  instantPrice[_id] = _price */\n      dup2\n      swap1\n      sstore\n      pop\n        /* \"NftMarket.sol\":1668:1822  {\r... */\n      pop\n        /* \"NftMarket.sol\":1612:1822  function setPrice(uint256 _id, uint256 _price) external {\r... */\n      pop\n      pop\n      jump\t// out\n        /* \"#utility.yul\":7:146   */\n    tag_195:\n        /* \"#utility.yul\":53:58   */\n      0x00\n        /* \"#utility.yul\":91:97   */\n      dup2\n        /* \"#utility.yul\":78:98   */\n      calldataload\n        /* \"#utility.yul\":69:98   */\n      swap1\n      pop\n        /* \"#utility.yul\":107:140   */\n      tag_197\n        /* \"#utility.yul\":134:139   */\n      dup2\n        /* \"#utility.yul\":107:140   */\n      tag_198\n      jump\t// in\n    tag_197:\n        /* \"#utility.yul\":7:146   */\n      swap3\n      swap2\n      pop\n      pop\n      jump\t// out\n        /* \"#utility.yul\":152:295   */\n    tag_199:\n        /* \"#utility.yul\":209:214   */\n      0x00\n        /* \"#utility.yul\":240:246   */\n      dup2\n        /* \"#utility.yul\":234:247   */\n      mload\n        /* \"#utility.yul\":225:247   */\n      swap1\n      pop\n        /* \"#utility.yul\":256:289   */\n      tag_201\n        /* \"#utility.yul\":283:288   */\n      dup2\n        /* \"#utility.yul\":256:289   */\n      tag_198\n      jump\t// in\n    tag_201:\n        /* \"#utility.yul\":152:295   */\n      swap3\n      swap2\n      pop\n      pop\n      jump\t// out\n        /* \"#utility.yul\":301:440   */\n    tag_202:\n        /* \"#utility.yul\":347:352   */\n      0x00\n        /* \"#utility.yul\":385:391   */\n      dup2\n        /* \"#utility.yul\":372:392   */\n      calldataload\n        /* \"#utility.yul\":363:392   */\n      swap1\n      pop\n        /* \"#utility.yul\":401:434   */\n      tag_204\n        /* \"#utility.yul\":428:433   */\n      dup2\n        /* \"#utility.yul\":401:434   */\n      tag_205\n      jump\t// in\n    tag_204:\n        /* \"#utility.yul\":301:440   */\n      swap3\n      swap2\n      pop\n      pop\n      jump\t// out\n        /* \"#utility.yul\":446:589   */\n    tag_206:\n        /* \"#utility.yul\":503:508   */\n      0x00\n        /* \"#utility.yul\":534:540   */\n      dup2\n        /* \"#utility.yul\":528:541   */\n      mload\n        /* \"#utility.yul\":519:541   */\n      swap1\n      pop\n        /* \"#utility.yul\":550:583   */\n      tag_208\n        /* \"#utility.yul\":577:582   */\n      dup2\n        /* \"#utility.yul\":550:583   */\n      tag_205\n      jump\t// in\n    tag_208:\n        /* \"#utility.yul\":446:589   */\n      swap3\n      swap2\n      pop\n      pop\n      jump\t// out\n        /* \"#utility.yul\":595:732   */\n    tag_209:\n        /* \"#utility.yul\":640:645   */\n      0x00\n        /* \"#utility.yul\":678:684   */\n      dup2\n        /* \"#utility.yul\":665:685   */\n      calldataload\n        /* \"#utility.yul\":656:685   */\n      swap1\n      pop\n        /* \"#utility.yul\":694:726   */\n      tag_211\n        /* \"#utility.yul\":720:725   */\n      dup2\n        /* \"#utility.yul\":694:726   */\n      tag_212\n      jump\t// in\n    tag_211:\n        /* \"#utility.yul\":595:732   */\n      swap3\n      swap2\n      pop\n      pop\n      jump\t// out\n        /* \"#utility.yul\":738:1067   */\n    tag_23:\n        /* \"#utility.yul\":797:803   */\n      0x00\n        /* \"#utility.yul\":846:848   */\n      0x20\n        /* \"#utility.yul\":834:843   */\n      dup3\n        /* \"#utility.yul\":825:832   */\n      dup5\n        /* \"#utility.yul\":821:844   */\n      sub\n        /* \"#utility.yul\":817:849   */\n      slt\n        /* \"#utility.yul\":814:933   */\n      iszero\n      tag_214\n      jumpi\n        /* \"#utility.yul\":852:931   */\n      tag_215\n      tag_216\n      jump\t// in\n    tag_215:\n        /* \"#utility.yul\":814:933   */\n    tag_214:\n        /* \"#utility.yul\":972:973   */\n      0x00\n        /* \"#utility.yul\":997:1050   */\n      tag_217\n        /* \"#utility.yul\":1042:1049   */\n      dup5\n        /* \"#utility.yul\":1033:1039   */\n      dup3\n        /* \"#utility.yul\":1022:1031   */\n      dup6\n        /* \"#utility.yul\":1018:1040   */\n      add\n        /* \"#utility.yul\":997:1050   */\n      tag_195\n      jump\t// in\n    tag_217:\n        /* \"#utility.yul\":987:1050   */\n      swap2\n      pop\n        /* \"#utility.yul\":943:1060   */\n      pop\n        /* \"#utility.yul\":738:1067   */\n      swap3\n      swap2\n      pop\n      pop\n      jump\t// out\n        /* \"#utility.yul\":1073:1424   */\n    tag_112:\n        /* \"#utility.yul\":1143:1149   */\n      0x00\n        /* \"#utility.yul\":1192:1194   */\n      0x20\n        /* \"#utility.yul\":1180:1189   */\n      dup3\n        /* \"#utility.yul\":1171:1178   */\n      dup5\n        /* \"#utility.yul\":1167:1190   */\n      sub\n        /* \"#utility.yul\":1163:1195   */\n      slt\n        /* \"#utility.yul\":1160:1279   */\n      iszero\n      tag_219\n      jumpi\n        /* \"#utility.yul\":1198:1277   */\n      tag_220\n      tag_216\n      jump\t// in\n    tag_220:\n        /* \"#utility.yul\":1160:1279   */\n    tag_219:\n        /* \"#utility.yul\":1318:1319   */\n      0x00\n        /* \"#utility.yul\":1343:1407   */\n      tag_221\n        /* \"#utility.yul\":1399:1406   */\n      dup5\n        /* \"#utility.yul\":1390:1396   */\n      dup3\n        /* \"#utility.yul\":1379:1388   */\n      dup6\n        /* \"#utility.yul\":1375:1397   */\n      add\n        /* \"#utility.yul\":1343:1407   */\n      tag_199\n      jump\t// in\n    tag_221:\n        /* \"#utility.yul\":1333:1407   */\n      swap2\n      pop\n        /* \"#utility.yul\":1289:1417   */\n      pop\n        /* \"#utility.yul\":1073:1424   */\n      swap3\n      swap2\n      pop\n      pop\n      jump\t// out\n        /* \"#utility.yul\":1430:1937   */\n    tag_124:\n        /* \"#utility.yul\":1509:1515   */\n      0x00\n        /* \"#utility.yul\":1517:1523   */\n      dup1\n        /* \"#utility.yul\":1566:1568   */\n      0x40\n        /* \"#utility.yul\":1554:1563   */\n      dup4\n        /* \"#utility.yul\":1545:1552   */\n      dup6\n        /* \"#utility.yul\":1541:1564   */\n      sub\n        /* \"#utility.yul\":1537:1569   */\n      slt\n        /* \"#utility.yul\":1534:1653   */\n      iszero\n      tag_223\n      jumpi\n        /* \"#utility.yul\":1572:1651   */\n      tag_224\n      tag_216\n      jump\t// in\n    tag_224:\n        /* \"#utility.yul\":1534:1653   */\n    tag_223:\n        /* \"#utility.yul\":1692:1693   */\n      0x00\n        /* \"#utility.yul\":1717:1781   */\n      tag_225\n        /* \"#utility.yul\":1773:1780   */\n      dup6\n        /* \"#utility.yul\":1764:1770   */\n      dup3\n        /* \"#utility.yul\":1753:1762   */\n      dup7\n        /* \"#utility.yul\":1749:1771   */\n      add\n        /* \"#utility.yul\":1717:1781   */\n      tag_199\n      jump\t// in\n    tag_225:\n        /* \"#utility.yul\":1707:1781   */\n      swap3\n      pop\n        /* \"#utility.yul\":1663:1791   */\n      pop\n        /* \"#utility.yul\":1830:1832   */\n      0x20\n        /* \"#utility.yul\":1856:1920   */\n      tag_226\n        /* \"#utility.yul\":1912:1919   */\n      dup6\n        /* \"#utility.yul\":1903:1909   */\n      dup3\n        /* \"#utility.yul\":1892:1901   */\n      dup7\n        /* \"#utility.yul\":1888:1910   */\n      add\n        /* \"#utility.yul\":1856:1920   */\n      tag_206\n      jump\t// in\n    tag_226:\n        /* \"#utility.yul\":1846:1920   */\n      swap2\n      pop\n        /* \"#utility.yul\":1801:1930   */\n      pop\n        /* \"#utility.yul\":1430:1937   */\n      swap3\n      pop\n      swap3\n      swap1\n      pop\n      jump\t// out\n        /* \"#utility.yul\":1943:2272   */\n    tag_18:\n        /* \"#utility.yul\":2002:2008   */\n      0x00\n        /* \"#utility.yul\":2051:2053   */\n      0x20\n        /* \"#utility.yul\":2039:2048   */\n      dup3\n        /* \"#utility.yul\":2030:2037   */\n      dup5\n        /* \"#utility.yul\":2026:2049   */\n      sub\n        /* \"#utility.yul\":2022:2054   */\n      slt\n        /* \"#utility.yul\":2019:2138   */\n      iszero\n      tag_228\n      jumpi\n        /* \"#utility.yul\":2057:2136   */\n      tag_229\n      tag_216\n      jump\t// in\n    tag_229:\n        /* \"#utility.yul\":2019:2138   */\n    tag_228:\n        /* \"#utility.yul\":2177:2178   */\n      0x00\n        /* \"#utility.yul\":2202:2255   */\n      tag_230\n        /* \"#utility.yul\":2247:2254   */\n      dup5\n        /* \"#utility.yul\":2238:2244   */\n      dup3\n        /* \"#utility.yul\":2227:2236   */\n      dup6\n        /* \"#utility.yul\":2223:2245   */\n      add\n        /* \"#utility.yul\":2202:2255   */\n      tag_202\n      jump\t// in\n    tag_230:\n        /* \"#utility.yul\":2192:2255   */\n      swap2\n      pop\n        /* \"#utility.yul\":2148:2265   */\n      pop\n        /* \"#utility.yul\":1943:2272   */\n      swap3\n      swap2\n      pop\n      pop\n      jump\t// out\n        /* \"#utility.yul\":2278:2752   */\n    tag_68:\n        /* \"#utility.yul\":2346:2352   */\n      0x00\n        /* \"#utility.yul\":2354:2360   */\n      dup1\n        /* \"#utility.yul\":2403:2405   */\n      0x40\n        /* \"#utility.yul\":2391:2400   */\n      dup4\n        /* \"#utility.yul\":2382:2389   */\n      dup6\n        /* \"#utility.yul\":2378:2401   */\n      sub\n        /* \"#utility.yul\":2374:2406   */\n      slt\n        /* \"#utility.yul\":2371:2490   */\n      iszero\n      tag_232\n      jumpi\n        /* \"#utility.yul\":2409:2488   */\n      tag_233\n      tag_216\n      jump\t// in\n    tag_233:\n        /* \"#utility.yul\":2371:2490   */\n    tag_232:\n        /* \"#utility.yul\":2529:2530   */\n      0x00\n        /* \"#utility.yul\":2554:2607   */\n      tag_234\n        /* \"#utility.yul\":2599:2606   */\n      dup6\n        /* \"#utility.yul\":2590:2596   */\n      dup3\n        /* \"#utility.yul\":2579:2588   */\n      dup7\n        /* \"#utility.yul\":2575:2597   */\n      add\n        /* \"#utility.yul\":2554:2607   */\n      tag_202\n      jump\t// in\n    tag_234:\n        /* \"#utility.yul\":2544:2607   */\n      swap3\n      pop\n        /* \"#utility.yul\":2500:2617   */\n      pop\n        /* \"#utility.yul\":2656:2658   */\n      0x20\n        /* \"#utility.yul\":2682:2735   */\n      tag_235\n        /* \"#utility.yul\":2727:2734   */\n      dup6\n        /* \"#utility.yul\":2718:2724   */\n      dup3\n        /* \"#utility.yul\":2707:2716   */\n      dup7\n        /* \"#utility.yul\":2703:2725   */\n      add\n        /* \"#utility.yul\":2682:2735   */\n      tag_202\n      jump\t// in\n    tag_235:\n        /* \"#utility.yul\":2672:2735   */\n      swap2\n      pop\n        /* \"#utility.yul\":2627:2745   */\n      pop\n        /* \"#utility.yul\":2278:2752   */\n      swap3\n      pop\n      swap3\n      swap1\n      pop\n      jump\t// out\n        /* \"#utility.yul\":2758:3375   */\n    tag_46:\n        /* \"#utility.yul\":2834:2840   */\n      0x00\n        /* \"#utility.yul\":2842:2848   */\n      dup1\n        /* \"#utility.yul\":2850:2856   */\n      0x00\n        /* \"#utility.yul\":2899:2901   */\n      0x60\n        /* \"#utility.yul\":2887:2896   */\n      dup5\n        /* \"#utility.yul\":2878:2885   */\n      dup7\n        /* \"#utility.yul\":2874:2897   */\n      sub\n        /* \"#utility.yul\":2870:2902   */\n      slt\n        /* \"#utility.yul\":2867:2986   */\n      iszero\n      tag_237\n      jumpi\n        /* \"#utility.yul\":2905:2984   */\n      tag_238\n      tag_216\n      jump\t// in\n    tag_238:\n        /* \"#utility.yul\":2867:2986   */\n    tag_237:\n        /* \"#utility.yul\":3025:3026   */\n      0x00\n        /* \"#utility.yul\":3050:3103   */\n      tag_239\n        /* \"#utility.yul\":3095:3102   */\n      dup7\n        /* \"#utility.yul\":3086:3092   */\n      dup3\n        /* \"#utility.yul\":3075:3084   */\n      dup8\n        /* \"#utility.yul\":3071:3093   */\n      add\n        /* \"#utility.yul\":3050:3103   */\n      tag_202\n      jump\t// in\n    tag_239:\n        /* \"#utility.yul\":3040:3103   */\n      swap4\n      pop\n        /* \"#utility.yul\":2996:3113   */\n      pop\n        /* \"#utility.yul\":3152:3154   */\n      0x20\n        /* \"#utility.yul\":3178:3231   */\n      tag_240\n        /* \"#utility.yul\":3223:3230   */\n      dup7\n        /* \"#utility.yul\":3214:3220   */\n      dup3\n        /* \"#utility.yul\":3203:3212   */\n      dup8\n        /* \"#utility.yul\":3199:3221   */\n      add\n        /* \"#utility.yul\":3178:3231   */\n      tag_202\n      jump\t// in\n    tag_240:\n        /* \"#utility.yul\":3168:3231   */\n      swap3\n      pop\n        /* \"#utility.yul\":3123:3241   */\n      pop\n        /* \"#utility.yul\":3280:3282   */\n      0x40\n        /* \"#utility.yul\":3306:3358   */\n      tag_241\n        /* \"#utility.yul\":3350:3357   */\n      dup7\n        /* \"#utility.yul\":3341:3347   */\n      dup3\n        /* \"#utility.yul\":3330:3339   */\n      dup8\n        /* \"#utility.yul\":3326:3348   */\n      add\n        /* \"#utility.yul\":3306:3358   */\n      tag_209\n      jump\t// in\n    tag_241:\n        /* \"#utility.yul\":3296:3358   */\n      swap2\n      pop\n        /* \"#utility.yul\":3251:3368   */\n      pop\n        /* \"#utility.yul\":2758:3375   */\n      swap3\n      pop\n      swap3\n      pop\n      swap3\n      jump\t// out\n        /* \"#utility.yul\":3381:3499   */\n    tag_242:\n        /* \"#utility.yul\":3468:3492   */\n      tag_244\n        /* \"#utility.yul\":3486:3491   */\n      dup2\n        /* \"#utility.yul\":3468:3492   */\n      tag_245\n      jump\t// in\n    tag_244:\n        /* \"#utility.yul\":3463:3466   */\n      dup3\n        /* \"#utility.yul\":3456:3493   */\n      mstore\n        /* \"#utility.yul\":3381:3499   */\n      pop\n      pop\n      jump\t// out\n        /* \"#utility.yul\":3505:3614   */\n    tag_246:\n        /* \"#utility.yul\":3586:3607   */\n      tag_248\n        /* \"#utility.yul\":3601:3606   */\n      dup2\n        /* \"#utility.yul\":3586:3607   */\n      tag_249\n      jump\t// in\n    tag_248:\n        /* \"#utility.yul\":3581:3584   */\n      dup3\n        /* \"#utility.yul\":3574:3608   */\n      mstore\n        /* \"#utility.yul\":3505:3614   */\n      pop\n      pop\n      jump\t// out\n        /* \"#utility.yul\":3620:3779   */\n    tag_250:\n        /* \"#utility.yul\":3721:3772   */\n      tag_252\n        /* \"#utility.yul\":3766:3771   */\n      dup2\n        /* \"#utility.yul\":3721:3772   */\n      tag_253\n      jump\t// in\n    tag_252:\n        /* \"#utility.yul\":3716:3719   */\n      dup3\n        /* \"#utility.yul\":3709:3773   */\n      mstore\n        /* \"#utility.yul\":3620:3779   */\n      pop\n      pop\n      jump\t// out\n        /* \"#utility.yul\":3785:4151   */\n    tag_254:\n        /* \"#utility.yul\":3927:3930   */\n      0x00\n        /* \"#utility.yul\":3948:4015   */\n      tag_256\n        /* \"#utility.yul\":4012:4014   */\n      0x10\n        /* \"#utility.yul\":4007:4010   */\n      dup4\n        /* \"#utility.yul\":3948:4015   */\n      tag_257\n      jump\t// in\n    tag_256:\n        /* \"#utility.yul\":3941:4015   */\n      swap2\n      pop\n        /* \"#utility.yul\":4024:4117   */\n      tag_258\n        /* \"#utility.yul\":4113:4116   */\n      dup3\n        /* \"#utility.yul\":4024:4117   */\n      tag_259\n      jump\t// in\n    tag_258:\n        /* \"#utility.yul\":4142:4144   */\n      0x20\n        /* \"#utility.yul\":4137:4140   */\n      dup3\n        /* \"#utility.yul\":4133:4145   */\n      add\n        /* \"#utility.yul\":4126:4145   */\n      swap1\n      pop\n        /* \"#utility.yul\":3785:4151   */\n      swap2\n      swap1\n      pop\n      jump\t// out\n        /* \"#utility.yul\":4157:4523   */\n    tag_260:\n        /* \"#utility.yul\":4299:4302   */\n      0x00\n        /* \"#utility.yul\":4320:4387   */\n      tag_262\n        /* \"#utility.yul\":4384:4386   */\n      0x16\n        /* \"#utility.yul\":4379:4382   */\n      dup4\n        /* \"#utility.yul\":4320:4387   */\n      tag_257\n      jump\t// in\n    tag_262:\n        /* \"#utility.yul\":4313:4387   */\n      swap2\n      pop\n        /* \"#utility.yul\":4396:4489   */\n      tag_263\n        /* \"#utility.yul\":4485:4488   */\n      dup3\n        /* \"#utility.yul\":4396:4489   */\n      tag_264\n      jump\t// in\n    tag_263:\n        /* \"#utility.yul\":4514:4516   */\n      0x20\n        /* \"#utility.yul\":4509:4512   */\n      dup3\n        /* \"#utility.yul\":4505:4517   */\n      add\n        /* \"#utility.yul\":4498:4517   */\n      swap1\n      pop\n        /* \"#utility.yul\":4157:4523   */\n      swap2\n      swap1\n      pop\n      jump\t// out\n        /* \"#utility.yul\":4529:4895   */\n    tag_265:\n        /* \"#utility.yul\":4671:4674   */\n      0x00\n        /* \"#utility.yul\":4692:4759   */\n      tag_267\n        /* \"#utility.yul\":4756:4758   */\n      0x0b\n        /* \"#utility.yul\":4751:4754   */\n      dup4\n        /* \"#utility.yul\":4692:4759   */\n      tag_257\n      jump\t// in\n    tag_267:\n        /* \"#utility.yul\":4685:4759   */\n      swap2\n      pop\n        /* \"#utility.yul\":4768:4861   */\n      tag_268\n        /* \"#utility.yul\":4857:4860   */\n      dup3\n        /* \"#utility.yul\":4768:4861   */\n      tag_269\n      jump\t// in\n    tag_268:\n        /* \"#utility.yul\":4886:4888   */\n      0x20\n        /* \"#utility.yul\":4881:4884   */\n      dup3\n        /* \"#utility.yul\":4877:4889   */\n      add\n        /* \"#utility.yul\":4870:4889   */\n      swap1\n      pop\n        /* \"#utility.yul\":4529:4895   */\n      swap2\n      swap1\n      pop\n      jump\t// out\n        /* \"#utility.yul\":4901:5267   */\n    tag_270:\n        /* \"#utility.yul\":5043:5046   */\n      0x00\n        /* \"#utility.yul\":5064:5131   */\n      tag_272\n        /* \"#utility.yul\":5128:5130   */\n      0x0b\n        /* \"#utility.yul\":5123:5126   */\n      dup4\n        /* \"#utility.yul\":5064:5131   */\n      tag_257\n      jump\t// in\n    tag_272:\n        /* \"#utility.yul\":5057:5131   */\n      swap2\n      pop\n        /* \"#utility.yul\":5140:5233   */\n      tag_273\n        /* \"#utility.yul\":5229:5232   */\n      dup3\n        /* \"#utility.yul\":5140:5233   */\n      tag_274\n      jump\t// in\n    tag_273:\n        /* \"#utility.yul\":5258:5260   */\n      0x20\n        /* \"#utility.yul\":5253:5256   */\n      dup3\n        /* \"#utility.yul\":5249:5261   */\n      add\n        /* \"#utility.yul\":5242:5261   */\n      swap1\n      pop\n        /* \"#utility.yul\":4901:5267   */\n      swap2\n      swap1\n      pop\n      jump\t// out\n        /* \"#utility.yul\":5273:5638   */\n    tag_275:\n        /* \"#utility.yul\":5415:5418   */\n      0x00\n        /* \"#utility.yul\":5436:5502   */\n      tag_277\n        /* \"#utility.yul\":5500:5501   */\n      0x05\n        /* \"#utility.yul\":5495:5498   */\n      dup4\n        /* \"#utility.yul\":5436:5502   */\n      tag_257\n      jump\t// in\n    tag_277:\n        /* \"#utility.yul\":5429:5502   */\n      swap2\n      pop\n        /* \"#utility.yul\":5511:5604   */\n      tag_278\n        /* \"#utility.yul\":5600:5603   */\n      dup3\n        /* \"#utility.yul\":5511:5604   */\n      tag_279\n      jump\t// in\n    tag_278:\n        /* \"#utility.yul\":5629:5631   */\n      0x20\n        /* \"#utility.yul\":5624:5627   */\n      dup3\n        /* \"#utility.yul\":5620:5632   */\n      add\n        /* \"#utility.yul\":5613:5632   */\n      swap1\n      pop\n        /* \"#utility.yul\":5273:5638   */\n      swap2\n      swap1\n      pop\n      jump\t// out\n        /* \"#utility.yul\":5644:6010   */\n    tag_280:\n        /* \"#utility.yul\":5786:5789   */\n      0x00\n        /* \"#utility.yul\":5807:5874   */\n      tag_282\n        /* \"#utility.yul\":5871:5873   */\n      0x0b\n        /* \"#utility.yul\":5866:5869   */\n      dup4\n        /* \"#utility.yul\":5807:5874   */\n      tag_257\n      jump\t// in\n    tag_282:\n        /* \"#utility.yul\":5800:5874   */\n      swap2\n      pop\n        /* \"#utility.yul\":5883:5976   */\n      tag_283\n        /* \"#utility.yul\":5972:5975   */\n      dup3\n        /* \"#utility.yul\":5883:5976   */\n      tag_284\n      jump\t// in\n    tag_283:\n        /* \"#utility.yul\":6001:6003   */\n      0x20\n        /* \"#utility.yul\":5996:5999   */\n      dup3\n        /* \"#utility.yul\":5992:6004   */\n      add\n        /* \"#utility.yul\":5985:6004   */\n      swap1\n      pop\n        /* \"#utility.yul\":5644:6010   */\n      swap2\n      swap1\n      pop\n      jump\t// out\n        /* \"#utility.yul\":6016:6381   */\n    tag_285:\n        /* \"#utility.yul\":6158:6161   */\n      0x00\n        /* \"#utility.yul\":6179:6245   */\n      tag_287\n        /* \"#utility.yul\":6243:6244   */\n      0x09\n        /* \"#utility.yul\":6238:6241   */\n      dup4\n        /* \"#utility.yul\":6179:6245   */\n      tag_257\n      jump\t// in\n    tag_287:\n        /* \"#utility.yul\":6172:6245   */\n      swap2\n      pop\n        /* \"#utility.yul\":6254:6347   */\n      tag_288\n        /* \"#utility.yul\":6343:6346   */\n      dup3\n        /* \"#utility.yul\":6254:6347   */\n      tag_289\n      jump\t// in\n    tag_288:\n        /* \"#utility.yul\":6372:6374   */\n      0x20\n        /* \"#utility.yul\":6367:6370   */\n      dup3\n        /* \"#utility.yul\":6363:6375   */\n      add\n        /* \"#utility.yul\":6356:6375   */\n      swap1\n      pop\n        /* \"#utility.yul\":6016:6381   */\n      swap2\n      swap1\n      pop\n      jump\t// out\n        /* \"#utility.yul\":6387:6752   */\n    tag_290:\n        /* \"#utility.yul\":6529:6532   */\n      0x00\n        /* \"#utility.yul\":6550:6616   */\n      tag_292\n        /* \"#utility.yul\":6614:6615   */\n      0x09\n        /* \"#utility.yul\":6609:6612   */\n      dup4\n        /* \"#utility.yul\":6550:6616   */\n      tag_257\n      jump\t// in\n    tag_292:\n        /* \"#utility.yul\":6543:6616   */\n      swap2\n      pop\n        /* \"#utility.yul\":6625:6718   */\n      tag_293\n        /* \"#utility.yul\":6714:6717   */\n      dup3\n        /* \"#utility.yul\":6625:6718   */\n      tag_294\n      jump\t// in\n    tag_293:\n        /* \"#utility.yul\":6743:6745   */\n      0x20\n        /* \"#utility.yul\":6738:6741   */\n      dup3\n        /* \"#utility.yul\":6734:6746   */\n      add\n        /* \"#utility.yul\":6727:6746   */\n      swap1\n      pop\n        /* \"#utility.yul\":6387:6752   */\n      swap2\n      swap1\n      pop\n      jump\t// out\n        /* \"#utility.yul\":6758:7156   */\n    tag_295:\n        /* \"#utility.yul\":6917:6920   */\n      0x00\n        /* \"#utility.yul\":6938:7021   */\n      tag_297\n        /* \"#utility.yul\":7019:7020   */\n      0x00\n        /* \"#utility.yul\":7014:7017   */\n      dup4\n        /* \"#utility.yul\":6938:7021   */\n      tag_298\n      jump\t// in\n    tag_297:\n        /* \"#utility.yul\":6931:7021   */\n      swap2\n      pop\n        /* \"#utility.yul\":7030:7123   */\n      tag_299\n        /* \"#utility.yul\":7119:7122   */\n      dup3\n        /* \"#utility.yul\":7030:7123   */\n      tag_300\n      jump\t// in\n    tag_299:\n        /* \"#utility.yul\":7148:7149   */\n      0x00\n        /* \"#utility.yul\":7143:7146   */\n      dup3\n        /* \"#utility.yul\":7139:7150   */\n      add\n        /* \"#utility.yul\":7132:7150   */\n      swap1\n      pop\n        /* \"#utility.yul\":6758:7156   */\n      swap2\n      swap1\n      pop\n      jump\t// out\n        /* \"#utility.yul\":7162:7528   */\n    tag_301:\n        /* \"#utility.yul\":7304:7307   */\n      0x00\n        /* \"#utility.yul\":7325:7392   */\n      tag_303\n        /* \"#utility.yul\":7389:7391   */\n      0x0b\n        /* \"#utility.yul\":7384:7387   */\n      dup4\n        /* \"#utility.yul\":7325:7392   */\n      tag_257\n      jump\t// in\n    tag_303:\n        /* \"#utility.yul\":7318:7392   */\n      swap2\n      pop\n        /* \"#utility.yul\":7401:7494   */\n      tag_304\n        /* \"#utility.yul\":7490:7493   */\n      dup3\n        /* \"#utility.yul\":7401:7494   */\n      tag_305\n      jump\t// in\n    tag_304:\n        /* \"#utility.yul\":7519:7521   */\n      0x20\n        /* \"#utility.yul\":7514:7517   */\n      dup3\n        /* \"#utility.yul\":7510:7522   */\n      add\n        /* \"#utility.yul\":7503:7522   */\n      swap1\n      pop\n        /* \"#utility.yul\":7162:7528   */\n      swap2\n      swap1\n      pop\n      jump\t// out\n        /* \"#utility.yul\":7534:7900   */\n    tag_306:\n        /* \"#utility.yul\":7676:7679   */\n      0x00\n        /* \"#utility.yul\":7697:7764   */\n      tag_308\n        /* \"#utility.yul\":7761:7763   */\n      0x0c\n        /* \"#utility.yul\":7756:7759   */\n      dup4\n        /* \"#utility.yul\":7697:7764   */\n      tag_257\n      jump\t// in\n    tag_308:\n        /* \"#utility.yul\":7690:7764   */\n      swap2\n      pop\n        /* \"#utility.yul\":7773:7866   */\n      tag_309\n        /* \"#utility.yul\":7862:7865   */\n      dup3\n        /* \"#utility.yul\":7773:7866   */\n      tag_310\n      jump\t// in\n    tag_309:\n        /* \"#utility.yul\":7891:7893   */\n      0x20\n        /* \"#utility.yul\":7886:7889   */\n      dup3\n        /* \"#utility.yul\":7882:7894   */\n      add\n        /* \"#utility.yul\":7875:7894   */\n      swap1\n      pop\n        /* \"#utility.yul\":7534:7900   */\n      swap2\n      swap1\n      pop\n      jump\t// out\n        /* \"#utility.yul\":7906:8272   */\n    tag_311:\n        /* \"#utility.yul\":8048:8051   */\n      0x00\n        /* \"#utility.yul\":8069:8136   */\n      tag_313\n        /* \"#utility.yul\":8133:8135   */\n      0x1c\n        /* \"#utility.yul\":8128:8131   */\n      dup4\n        /* \"#utility.yul\":8069:8136   */\n      tag_257\n      jump\t// in\n    tag_313:\n        /* \"#utility.yul\":8062:8136   */\n      swap2\n      pop\n        /* \"#utility.yul\":8145:8238   */\n      tag_314\n        /* \"#utility.yul\":8234:8237   */\n      dup3\n        /* \"#utility.yul\":8145:8238   */\n      tag_315\n      jump\t// in\n    tag_314:\n        /* \"#utility.yul\":8263:8265   */\n      0x20\n        /* \"#utility.yul\":8258:8261   */\n      dup3\n        /* \"#utility.yul\":8254:8266   */\n      add\n        /* \"#utility.yul\":8247:8266   */\n      swap1\n      pop\n        /* \"#utility.yul\":7906:8272   */\n      swap2\n      swap1\n      pop\n      jump\t// out\n        /* \"#utility.yul\":8278:8644   */\n    tag_316:\n        /* \"#utility.yul\":8420:8423   */\n      0x00\n        /* \"#utility.yul\":8441:8508   */\n      tag_318\n        /* \"#utility.yul\":8505:8507   */\n      0x0f\n        /* \"#utility.yul\":8500:8503   */\n      dup4\n        /* \"#utility.yul\":8441:8508   */\n      tag_257\n      jump\t// in\n    tag_318:\n        /* \"#utility.yul\":8434:8508   */\n      swap2\n      pop\n        /* \"#utility.yul\":8517:8610   */\n      tag_319\n        /* \"#utility.yul\":8606:8609   */\n      dup3\n        /* \"#utility.yul\":8517:8610   */\n      tag_320\n      jump\t// in\n    tag_319:\n        /* \"#utility.yul\":8635:8637   */\n      0x20\n        /* \"#utility.yul\":8630:8633   */\n      dup3\n        /* \"#utility.yul\":8626:8638   */\n      add\n        /* \"#utility.yul\":8619:8638   */\n      swap1\n      pop\n        /* \"#utility.yul\":8278:8644   */\n      swap2\n      swap1\n      pop\n      jump\t// out\n        /* \"#utility.yul\":8650:9015   */\n    tag_321:\n        /* \"#utility.yul\":8792:8795   */\n      0x00\n        /* \"#utility.yul\":8813:8879   */\n      tag_323\n        /* \"#utility.yul\":8877:8878   */\n      0x09\n        /* \"#utility.yul\":8872:8875   */\n      dup4\n        /* \"#utility.yul\":8813:8879   */\n      tag_257\n      jump\t// in\n    tag_323:\n        /* \"#utility.yul\":8806:8879   */\n      swap2\n      pop\n        /* \"#utility.yul\":8888:8981   */\n      tag_324\n        /* \"#utility.yul\":8977:8980   */\n      dup3\n        /* \"#utility.yul\":8888:8981   */\n      tag_325\n      jump\t// in\n    tag_324:\n        /* \"#utility.yul\":9006:9008   */\n      0x20\n        /* \"#utility.yul\":9001:9004   */\n      dup3\n        /* \"#utility.yul\":8997:9009   */\n      add\n        /* \"#utility.yul\":8990:9009   */\n      swap1\n      pop\n        /* \"#utility.yul\":8650:9015   */\n      swap2\n      swap1\n      pop\n      jump\t// out\n        /* \"#utility.yul\":9021:9387   */\n    tag_326:\n        /* \"#utility.yul\":9163:9166   */\n      0x00\n        /* \"#utility.yul\":9184:9251   */\n      tag_328\n        /* \"#utility.yul\":9248:9250   */\n      0x12\n        /* \"#utility.yul\":9243:9246   */\n      dup4\n        /* \"#utility.yul\":9184:9251   */\n      tag_257\n      jump\t// in\n    tag_328:\n        /* \"#utility.yul\":9177:9251   */\n      swap2\n      pop\n        /* \"#utility.yul\":9260:9353   */\n      tag_329\n        /* \"#utility.yul\":9349:9352   */\n      dup3\n        /* \"#utility.yul\":9260:9353   */\n      tag_330\n      jump\t// in\n    tag_329:\n        /* \"#utility.yul\":9378:9380   */\n      0x20\n        /* \"#utility.yul\":9373:9376   */\n      dup3\n        /* \"#utility.yul\":9369:9381   */\n      add\n        /* \"#utility.yul\":9362:9381   */\n      swap1\n      pop\n        /* \"#utility.yul\":9021:9387   */\n      swap2\n      swap1\n      pop\n      jump\t// out\n        /* \"#utility.yul\":9393:9758   */\n    tag_331:\n        /* \"#utility.yul\":9535:9538   */\n      0x00\n        /* \"#utility.yul\":9556:9622   */\n      tag_333\n        /* \"#utility.yul\":9620:9621   */\n      0x09\n        /* \"#utility.yul\":9615:9618   */\n      dup4\n        /* \"#utility.yul\":9556:9622   */\n      tag_257\n      jump\t// in\n    tag_333:\n        /* \"#utility.yul\":9549:9622   */\n      swap2\n      pop\n        /* \"#utility.yul\":9631:9724   */\n      tag_334\n        /* \"#utility.yul\":9720:9723   */\n      dup3\n        /* \"#utility.yul\":9631:9724   */\n      tag_335\n      jump\t// in\n    tag_334:\n        /* \"#utility.yul\":9749:9751   */\n      0x20\n        /* \"#utility.yul\":9744:9747   */\n      dup3\n        /* \"#utility.yul\":9740:9752   */\n      add\n        /* \"#utility.yul\":9733:9752   */\n      swap1\n      pop\n        /* \"#utility.yul\":9393:9758   */\n      swap2\n      swap1\n      pop\n      jump\t// out\n        /* \"#utility.yul\":9764:9882   */\n    tag_336:\n        /* \"#utility.yul\":9851:9875   */\n      tag_338\n        /* \"#utility.yul\":9869:9874   */\n      dup2\n        /* \"#utility.yul\":9851:9875   */\n      tag_339\n      jump\t// in\n    tag_338:\n        /* \"#utility.yul\":9846:9849   */\n      dup3\n        /* \"#utility.yul\":9839:9876   */\n      mstore\n        /* \"#utility.yul\":9764:9882   */\n      pop\n      pop\n      jump\t// out\n        /* \"#utility.yul\":9888:10003   */\n    tag_340:\n        /* \"#utility.yul\":9973:9996   */\n      tag_342\n        /* \"#utility.yul\":9990:9995   */\n      dup2\n        /* \"#utility.yul\":9973:9996   */\n      tag_343\n      jump\t// in\n    tag_342:\n        /* \"#utility.yul\":9968:9971   */\n      dup3\n        /* \"#utility.yul\":9961:9997   */\n      mstore\n        /* \"#utility.yul\":9888:10003   */\n      pop\n      pop\n      jump\t// out\n        /* \"#utility.yul\":10009:10388   */\n    tag_78:\n        /* \"#utility.yul\":10193:10196   */\n      0x00\n        /* \"#utility.yul\":10215:10362   */\n      tag_345\n        /* \"#utility.yul\":10358:10361   */\n      dup3\n        /* \"#utility.yul\":10215:10362   */\n      tag_295\n      jump\t// in\n    tag_345:\n        /* \"#utility.yul\":10208:10362   */\n      swap2\n      pop\n        /* \"#utility.yul\":10379:10382   */\n      dup2\n        /* \"#utility.yul\":10372:10382   */\n      swap1\n      pop\n        /* \"#utility.yul\":10009:10388   */\n      swap2\n      swap1\n      pop\n      jump\t// out\n        /* \"#utility.yul\":10394:10836   */\n    tag_114:\n        /* \"#utility.yul\":10543:10547   */\n      0x00\n        /* \"#utility.yul\":10581:10583   */\n      0x60\n        /* \"#utility.yul\":10570:10579   */\n      dup3\n        /* \"#utility.yul\":10566:10584   */\n      add\n        /* \"#utility.yul\":10558:10584   */\n      swap1\n      pop\n        /* \"#utility.yul\":10594:10665   */\n      tag_347\n        /* \"#utility.yul\":10662:10663   */\n      0x00\n        /* \"#utility.yul\":10651:10660   */\n      dup4\n        /* \"#utility.yul\":10647:10664   */\n      add\n        /* \"#utility.yul\":10638:10644   */\n      dup7\n        /* \"#utility.yul\":10594:10665   */\n      tag_242\n      jump\t// in\n    tag_347:\n        /* \"#utility.yul\":10675:10747   */\n      tag_348\n        /* \"#utility.yul\":10743:10745   */\n      0x20\n        /* \"#utility.yul\":10732:10741   */\n      dup4\n        /* \"#utility.yul\":10728:10746   */\n      add\n        /* \"#utility.yul\":10719:10725   */\n      dup6\n        /* \"#utility.yul\":10675:10747   */\n      tag_242\n      jump\t// in\n    tag_348:\n        /* \"#utility.yul\":10757:10829   */\n      tag_349\n        /* \"#utility.yul\":10825:10827   */\n      0x40\n        /* \"#utility.yul\":10814:10823   */\n      dup4\n        /* \"#utility.yul\":10810:10828   */\n      add\n        /* \"#utility.yul\":10801:10807   */\n      dup5\n        /* \"#utility.yul\":10757:10829   */\n      tag_336\n      jump\t// in\n    tag_349:\n        /* \"#utility.yul\":10394:10836   */\n      swap5\n      swap4\n      pop\n      pop\n      pop\n      pop\n      jump\t// out\n        /* \"#utility.yul\":10842:11092   */\n    tag_34:\n        /* \"#utility.yul\":10949:10953   */\n      0x00\n        /* \"#utility.yul\":10987:10989   */\n      0x20\n        /* \"#utility.yul\":10976:10985   */\n      dup3\n        /* \"#utility.yul\":10972:10990   */\n      add\n        /* \"#utility.yul\":10964:10990   */\n      swap1\n      pop\n        /* \"#utility.yul\":11000:11085   */\n      tag_351\n        /* \"#utility.yul\":11082:11083   */\n      0x00\n        /* \"#utility.yul\":11071:11080   */\n      dup4\n        /* \"#utility.yul\":11067:11084   */\n      add\n        /* \"#utility.yul\":11058:11064   */\n      dup5\n        /* \"#utility.yul\":11000:11085   */\n      tag_250\n      jump\t// in\n    tag_351:\n        /* \"#utility.yul\":10842:11092   */\n      swap3\n      swap2\n      pop\n      pop\n      jump\t// out\n        /* \"#utility.yul\":11098:11517   */\n    tag_106:\n        /* \"#utility.yul\":11264:11268   */\n      0x00\n        /* \"#utility.yul\":11302:11304   */\n      0x20\n        /* \"#utility.yul\":11291:11300   */\n      dup3\n        /* \"#utility.yul\":11287:11305   */\n      add\n        /* \"#utility.yul\":11279:11305   */\n      swap1\n      pop\n        /* \"#utility.yul\":11351:11360   */\n      dup2\n        /* \"#utility.yul\":11345:11349   */\n      dup2\n        /* \"#utility.yul\":11341:11361   */\n      sub\n        /* \"#utility.yul\":11337:11338   */\n      0x00\n        /* \"#utility.yul\":11326:11335   */\n      dup4\n        /* \"#utility.yul\":11322:11339   */\n      add\n        /* \"#utility.yul\":11315:11362   */\n      mstore\n        /* \"#utility.yul\":11379:11510   */\n      tag_353\n        /* \"#utility.yul\":11505:11509   */\n      dup2\n        /* \"#utility.yul\":11379:11510   */\n      tag_254\n      jump\t// in\n    tag_353:\n        /* \"#utility.yul\":11371:11510   */\n      swap1\n      pop\n        /* \"#utility.yul\":11098:11517   */\n      swap2\n      swap1\n      pop\n      jump\t// out\n        /* \"#utility.yul\":11523:11942   */\n    tag_73:\n        /* \"#utility.yul\":11689:11693   */\n      0x00\n        /* \"#utility.yul\":11727:11729   */\n      0x20\n        /* \"#utility.yul\":11716:11725   */\n      dup3\n        /* \"#utility.yul\":11712:11730   */\n      add\n        /* \"#utility.yul\":11704:11730   */\n      swap1\n      pop\n        /* \"#utility.yul\":11776:11785   */\n      dup2\n        /* \"#utility.yul\":11770:11774   */\n      dup2\n        /* \"#utility.yul\":11766:11786   */\n      sub\n        /* \"#utility.yul\":11762:11763   */\n      0x00\n        /* \"#utility.yul\":11751:11760   */\n      dup4\n        /* \"#utility.yul\":11747:11764   */\n      add\n        /* \"#utility.yul\":11740:11787   */\n      mstore\n        /* \"#utility.yul\":11804:11935   */\n      tag_355\n        /* \"#utility.yul\":11930:11934   */\n      dup2\n        /* \"#utility.yul\":11804:11935   */\n      tag_260\n      jump\t// in\n    tag_355:\n        /* \"#utility.yul\":11796:11935   */\n      swap1\n      pop\n        /* \"#utility.yul\":11523:11942   */\n      swap2\n      swap1\n      pop\n      jump\t// out\n        /* \"#utility.yul\":11948:12367   */\n    tag_92:\n        /* \"#utility.yul\":12114:12118   */\n      0x00\n        /* \"#utility.yul\":12152:12154   */\n      0x20\n        /* \"#utility.yul\":12141:12150   */\n      dup3\n        /* \"#utility.yul\":12137:12155   */\n      add\n        /* \"#utility.yul\":12129:12155   */\n      swap1\n      pop\n        /* \"#utility.yul\":12201:12210   */\n      dup2\n        /* \"#utility.yul\":12195:12199   */\n      dup2\n        /* \"#utility.yul\":12191:12211   */\n      sub\n        /* \"#utility.yul\":12187:12188   */\n      0x00\n        /* \"#utility.yul\":12176:12185   */\n      dup4\n        /* \"#utility.yul\":12172:12189   */\n      add\n        /* \"#utility.yul\":12165:12212   */\n      mstore\n        /* \"#utility.yul\":12229:12360   */\n      tag_357\n        /* \"#utility.yul\":12355:12359   */\n      dup2\n        /* \"#utility.yul\":12229:12360   */\n      tag_265\n      jump\t// in\n    tag_357:\n        /* \"#utility.yul\":12221:12360   */\n      swap1\n      pop\n        /* \"#utility.yul\":11948:12367   */\n      swap2\n      swap1\n      pop\n      jump\t// out\n        /* \"#utility.yul\":12373:12792   */\n    tag_180:\n        /* \"#utility.yul\":12539:12543   */\n      0x00\n        /* \"#utility.yul\":12577:12579   */\n      0x20\n        /* \"#utility.yul\":12566:12575   */\n      dup3\n        /* \"#utility.yul\":12562:12580   */\n      add\n        /* \"#utility.yul\":12554:12580   */\n      swap1\n      pop\n        /* \"#utility.yul\":12626:12635   */\n      dup2\n        /* \"#utility.yul\":12620:12624   */\n      dup2\n        /* \"#utility.yul\":12616:12636   */\n      sub\n        /* \"#utility.yul\":12612:12613   */\n      0x00\n        /* \"#utility.yul\":12601:12610   */\n      dup4\n        /* \"#utility.yul\":12597:12614   */\n      add\n        /* \"#utility.yul\":12590:12637   */\n      mstore\n        /* \"#utility.yul\":12654:12785   */\n      tag_359\n        /* \"#utility.yul\":12780:12784   */\n      dup2\n        /* \"#utility.yul\":12654:12785   */\n      tag_270\n      jump\t// in\n    tag_359:\n        /* \"#utility.yul\":12646:12785   */\n      swap1\n      pop\n        /* \"#utility.yul\":12373:12792   */\n      swap2\n      swap1\n      pop\n      jump\t// out\n        /* \"#utility.yul\":12798:13217   */\n    tag_89:\n        /* \"#utility.yul\":12964:12968   */\n      0x00\n        /* \"#utility.yul\":13002:13004   */\n      0x20\n        /* \"#utility.yul\":12991:13000   */\n      dup3\n        /* \"#utility.yul\":12987:13005   */\n      add\n        /* \"#utility.yul\":12979:13005   */\n      swap1\n      pop\n        /* \"#utility.yul\":13051:13060   */\n      dup2\n        /* \"#utility.yul\":13045:13049   */\n      dup2\n        /* \"#utility.yul\":13041:13061   */\n      sub\n        /* \"#utility.yul\":13037:13038   */\n      0x00\n        /* \"#utility.yul\":13026:13035   */\n      dup4\n        /* \"#utility.yul\":13022:13039   */\n      add\n        /* \"#utility.yul\":13015:13062   */\n      mstore\n        /* \"#utility.yul\":13079:13210   */\n      tag_361\n        /* \"#utility.yul\":13205:13209   */\n      dup2\n        /* \"#utility.yul\":13079:13210   */\n      tag_275\n      jump\t// in\n    tag_361:\n        /* \"#utility.yul\":13071:13210   */\n      swap1\n      pop\n        /* \"#utility.yul\":12798:13217   */\n      swap2\n      swap1\n      pop\n      jump\t// out\n        /* \"#utility.yul\":13223:13642   */\n    tag_160:\n        /* \"#utility.yul\":13389:13393   */\n      0x00\n        /* \"#utility.yul\":13427:13429   */\n      0x20\n        /* \"#utility.yul\":13416:13425   */\n      dup3\n        /* \"#utility.yul\":13412:13430   */\n      add\n        /* \"#utility.yul\":13404:13430   */\n      swap1\n      pop\n        /* \"#utility.yul\":13476:13485   */\n      dup2\n        /* \"#utility.yul\":13470:13474   */\n      dup2\n        /* \"#utility.yul\":13466:13486   */\n      sub\n        /* \"#utility.yul\":13462:13463   */\n      0x00\n        /* \"#utility.yul\":13451:13460   */\n      dup4\n        /* \"#utility.yul\":13447:13464   */\n      add\n        /* \"#utility.yul\":13440:13487   */\n      mstore\n        /* \"#utility.yul\":13504:13635   */\n      tag_363\n        /* \"#utility.yul\":13630:13634   */\n      dup2\n        /* \"#utility.yul\":13504:13635   */\n      tag_280\n      jump\t// in\n    tag_363:\n        /* \"#utility.yul\":13496:13635   */\n      swap1\n      pop\n        /* \"#utility.yul\":13223:13642   */\n      swap2\n      swap1\n      pop\n      jump\t// out\n        /* \"#utility.yul\":13648:14067   */\n    tag_163:\n        /* \"#utility.yul\":13814:13818   */\n      0x00\n        /* \"#utility.yul\":13852:13854   */\n      0x20\n        /* \"#utility.yul\":13841:13850   */\n      dup3\n        /* \"#utility.yul\":13837:13855   */\n      add\n        /* \"#utility.yul\":13829:13855   */\n      swap1\n      pop\n        /* \"#utility.yul\":13901:13910   */\n      dup2\n        /* \"#utility.yul\":13895:13899   */\n      dup2\n        /* \"#utility.yul\":13891:13911   */\n      sub\n        /* \"#utility.yul\":13887:13888   */\n      0x00\n        /* \"#utility.yul\":13876:13885   */\n      dup4\n        /* \"#utility.yul\":13872:13889   */\n      add\n        /* \"#utility.yul\":13865:13912   */\n      mstore\n        /* \"#utility.yul\":13929:14060   */\n      tag_365\n        /* \"#utility.yul\":14055:14059   */\n      dup2\n        /* \"#utility.yul\":13929:14060   */\n      tag_285\n      jump\t// in\n    tag_365:\n        /* \"#utility.yul\":13921:14060   */\n      swap1\n      pop\n        /* \"#utility.yul\":13648:14067   */\n      swap2\n      swap1\n      pop\n      jump\t// out\n        /* \"#utility.yul\":14073:14492   */\n    tag_138:\n        /* \"#utility.yul\":14239:14243   */\n      0x00\n        /* \"#utility.yul\":14277:14279   */\n      0x20\n        /* \"#utility.yul\":14266:14275   */\n      dup3\n        /* \"#utility.yul\":14262:14280   */\n      add\n        /* \"#utility.yul\":14254:14280   */\n      swap1\n      pop\n        /* \"#utility.yul\":14326:14335   */\n      dup2\n        /* \"#utility.yul\":14320:14324   */\n      dup2\n        /* \"#utility.yul\":14316:14336   */\n      sub\n        /* \"#utility.yul\":14312:14313   */\n      0x00\n        /* \"#utility.yul\":14301:14310   */\n      dup4\n        /* \"#utility.yul\":14297:14314   */\n      add\n        /* \"#utility.yul\":14290:14337   */\n      mstore\n        /* \"#utility.yul\":14354:14485   */\n      tag_367\n        /* \"#utility.yul\":14480:14484   */\n      dup2\n        /* \"#utility.yul\":14354:14485   */\n      tag_290\n      jump\t// in\n    tag_367:\n        /* \"#utility.yul\":14346:14485   */\n      swap1\n      pop\n        /* \"#utility.yul\":14073:14492   */\n      swap2\n      swap1\n      pop\n      jump\t// out\n        /* \"#utility.yul\":14498:14917   */\n    tag_103:\n        /* \"#utility.yul\":14664:14668   */\n      0x00\n        /* \"#utility.yul\":14702:14704   */\n      0x20\n        /* \"#utility.yul\":14691:14700   */\n      dup3\n        /* \"#utility.yul\":14687:14705   */\n      add\n        /* \"#utility.yul\":14679:14705   */\n      swap1\n      pop\n        /* \"#utility.yul\":14751:14760   */\n      dup2\n        /* \"#utility.yul\":14745:14749   */\n      dup2\n        /* \"#utility.yul\":14741:14761   */\n      sub\n        /* \"#utility.yul\":14737:14738   */\n      0x00\n        /* \"#utility.yul\":14726:14735   */\n      dup4\n        /* \"#utility.yul\":14722:14739   */\n      add\n        /* \"#utility.yul\":14715:14762   */\n      mstore\n        /* \"#utility.yul\":14779:14910   */\n      tag_369\n        /* \"#utility.yul\":14905:14909   */\n      dup2\n        /* \"#utility.yul\":14779:14910   */\n      tag_301\n      jump\t// in\n    tag_369:\n        /* \"#utility.yul\":14771:14910   */\n      swap1\n      pop\n        /* \"#utility.yul\":14498:14917   */\n      swap2\n      swap1\n      pop\n      jump\t// out\n        /* \"#utility.yul\":14923:15342   */\n    tag_76:\n        /* \"#utility.yul\":15089:15093   */\n      0x00\n        /* \"#utility.yul\":15127:15129   */\n      0x20\n        /* \"#utility.yul\":15116:15125   */\n      dup3\n        /* \"#utility.yul\":15112:15130   */\n      add\n        /* \"#utility.yul\":15104:15130   */\n      swap1\n      pop\n        /* \"#utility.yul\":15176:15185   */\n      dup2\n        /* \"#utility.yul\":15170:15174   */\n      dup2\n        /* \"#utility.yul\":15166:15186   */\n      sub\n        /* \"#utility.yul\":15162:15163   */\n      0x00\n        /* \"#utility.yul\":15151:15160   */\n      dup4\n        /* \"#utility.yul\":15147:15164   */\n      add\n        /* \"#utility.yul\":15140:15187   */\n      mstore\n        /* \"#utility.yul\":15204:15335   */\n      tag_371\n        /* \"#utility.yul\":15330:15334   */\n      dup2\n        /* \"#utility.yul\":15204:15335   */\n      tag_306\n      jump\t// in\n    tag_371:\n        /* \"#utility.yul\":15196:15335   */\n      swap1\n      pop\n        /* \"#utility.yul\":14923:15342   */\n      swap2\n      swap1\n      pop\n      jump\t// out\n        /* \"#utility.yul\":15348:15767   */\n    tag_98:\n        /* \"#utility.yul\":15514:15518   */\n      0x00\n        /* \"#utility.yul\":15552:15554   */\n      0x20\n        /* \"#utility.yul\":15541:15550   */\n      dup3\n        /* \"#utility.yul\":15537:15555   */\n      add\n        /* \"#utility.yul\":15529:15555   */\n      swap1\n      pop\n        /* \"#utility.yul\":15601:15610   */\n      dup2\n        /* \"#utility.yul\":15595:15599   */\n      dup2\n        /* \"#utility.yul\":15591:15611   */\n      sub\n        /* \"#utility.yul\":15587:15588   */\n      0x00\n        /* \"#utility.yul\":15576:15585   */\n      dup4\n        /* \"#utility.yul\":15572:15589   */\n      add\n        /* \"#utility.yul\":15565:15612   */\n      mstore\n        /* \"#utility.yul\":15629:15760   */\n      tag_373\n        /* \"#utility.yul\":15755:15759   */\n      dup2\n        /* \"#utility.yul\":15629:15760   */\n      tag_311\n      jump\t// in\n    tag_373:\n        /* \"#utility.yul\":15621:15760   */\n      swap1\n      pop\n        /* \"#utility.yul\":15348:15767   */\n      swap2\n      swap1\n      pop\n      jump\t// out\n        /* \"#utility.yul\":15773:16192   */\n    tag_147:\n        /* \"#utility.yul\":15939:15943   */\n      0x00\n        /* \"#utility.yul\":15977:15979   */\n      0x20\n        /* \"#utility.yul\":15966:15975   */\n      dup3\n        /* \"#utility.yul\":15962:15980   */\n      add\n        /* \"#utility.yul\":15954:15980   */\n      swap1\n      pop\n        /* \"#utility.yul\":16026:16035   */\n      dup2\n        /* \"#utility.yul\":16020:16024   */\n      dup2\n        /* \"#utility.yul\":16016:16036   */\n      sub\n        /* \"#utility.yul\":16012:16013   */\n      0x00\n        /* \"#utility.yul\":16001:16010   */\n      dup4\n        /* \"#utility.yul\":15997:16014   */\n      add\n        /* \"#utility.yul\":15990:16037   */\n      mstore\n        /* \"#utility.yul\":16054:16185   */\n      tag_375\n        /* \"#utility.yul\":16180:16184   */\n      dup2\n        /* \"#utility.yul\":16054:16185   */\n      tag_316\n      jump\t// in\n    tag_375:\n        /* \"#utility.yul\":16046:16185   */\n      swap1\n      pop\n        /* \"#utility.yul\":15773:16192   */\n      swap2\n      swap1\n      pop\n      jump\t// out\n        /* \"#utility.yul\":16198:16617   */\n    tag_193:\n        /* \"#utility.yul\":16364:16368   */\n      0x00\n        /* \"#utility.yul\":16402:16404   */\n      0x20\n        /* \"#utility.yul\":16391:16400   */\n      dup3\n        /* \"#utility.yul\":16387:16405   */\n      add\n        /* \"#utility.yul\":16379:16405   */\n      swap1\n      pop\n        /* \"#utility.yul\":16451:16460   */\n      dup2\n        /* \"#utility.yul\":16445:16449   */\n      dup2\n        /* \"#utility.yul\":16441:16461   */\n      sub\n        /* \"#utility.yul\":16437:16438   */\n      0x00\n        /* \"#utility.yul\":16426:16435   */\n      dup4\n        /* \"#utility.yul\":16422:16439   */\n      add\n        /* \"#utility.yul\":16415:16462   */\n      mstore\n        /* \"#utility.yul\":16479:16610   */\n      tag_377\n        /* \"#utility.yul\":16605:16609   */\n      dup2\n        /* \"#utility.yul\":16479:16610   */\n      tag_321\n      jump\t// in\n    tag_377:\n        /* \"#utility.yul\":16471:16610   */\n      swap1\n      pop\n        /* \"#utility.yul\":16198:16617   */\n      swap2\n      swap1\n      pop\n      jump\t// out\n        /* \"#utility.yul\":16623:17042   */\n    tag_84:\n        /* \"#utility.yul\":16789:16793   */\n      0x00\n        /* \"#utility.yul\":16827:16829   */\n      0x20\n        /* \"#utility.yul\":16816:16825   */\n      dup3\n        /* \"#utility.yul\":16812:16830   */\n      add\n        /* \"#utility.yul\":16804:16830   */\n      swap1\n      pop\n        /* \"#utility.yul\":16876:16885   */\n      dup2\n        /* \"#utility.yul\":16870:16874   */\n      dup2\n        /* \"#utility.yul\":16866:16886   */\n      sub\n        /* \"#utility.yul\":16862:16863   */\n      0x00\n        /* \"#utility.yul\":16851:16860   */\n      dup4\n        /* \"#utility.yul\":16847:16864   */\n      add\n        /* \"#utility.yul\":16840:16887   */\n      mstore\n        /* \"#utility.yul\":16904:17035   */\n      tag_379\n        /* \"#utility.yul\":17030:17034   */\n      dup2\n        /* \"#utility.yul\":16904:17035   */\n      tag_326\n      jump\t// in\n    tag_379:\n        /* \"#utility.yul\":16896:17035   */\n      swap1\n      pop\n        /* \"#utility.yul\":16623:17042   */\n      swap2\n      swap1\n      pop\n      jump\t// out\n        /* \"#utility.yul\":17048:17467   */\n    tag_177:\n        /* \"#utility.yul\":17214:17218   */\n      0x00\n        /* \"#utility.yul\":17252:17254   */\n      0x20\n        /* \"#utility.yul\":17241:17250   */\n      dup3\n        /* \"#utility.yul\":17237:17255   */\n      add\n        /* \"#utility.yul\":17229:17255   */\n      swap1\n      pop\n        /* \"#utility.yul\":17301:17310   */\n      dup2\n        /* \"#utility.yul\":17295:17299   */\n      dup2\n        /* \"#utility.yul\":17291:17311   */\n      sub\n        /* \"#utility.yul\":17287:17288   */\n      0x00\n        /* \"#utility.yul\":17276:17285   */\n      dup4\n        /* \"#utility.yul\":17272:17289   */\n      add\n        /* \"#utility.yul\":17265:17312   */\n      mstore\n        /* \"#utility.yul\":17329:17460   */\n      tag_381\n        /* \"#utility.yul\":17455:17459   */\n      dup2\n        /* \"#utility.yul\":17329:17460   */\n      tag_331\n      jump\t// in\n    tag_381:\n        /* \"#utility.yul\":17321:17460   */\n      swap1\n      pop\n        /* \"#utility.yul\":17048:17467   */\n      swap2\n      swap1\n      pop\n      jump\t// out\n        /* \"#utility.yul\":17473:17695   */\n    tag_26:\n        /* \"#utility.yul\":17566:17570   */\n      0x00\n        /* \"#utility.yul\":17604:17606   */\n      0x20\n        /* \"#utility.yul\":17593:17602   */\n      dup3\n        /* \"#utility.yul\":17589:17607   */\n      add\n        /* \"#utility.yul\":17581:17607   */\n      swap1\n      pop\n        /* \"#utility.yul\":17617:17688   */\n      tag_383\n        /* \"#utility.yul\":17685:17686   */\n      0x00\n        /* \"#utility.yul\":17674:17683   */\n      dup4\n        /* \"#utility.yul\":17670:17687   */\n      add\n        /* \"#utility.yul\":17661:17667   */\n      dup5\n        /* \"#utility.yul\":17617:17688   */\n      tag_336\n      jump\t// in\n    tag_383:\n        /* \"#utility.yul\":17473:17695   */\n      swap3\n      swap2\n      pop\n      pop\n      jump\t// out\n        /* \"#utility.yul\":17701:18670   */\n    tag_64:\n        /* \"#utility.yul\":17976:17980   */\n      0x00\n        /* \"#utility.yul\":18014:18017   */\n      0x0100\n        /* \"#utility.yul\":18003:18012   */\n      dup3\n        /* \"#utility.yul\":17999:18018   */\n      add\n        /* \"#utility.yul\":17991:18018   */\n      swap1\n      pop\n        /* \"#utility.yul\":18028:18099   */\n      tag_385\n        /* \"#utility.yul\":18096:18097   */\n      0x00\n        /* \"#utility.yul\":18085:18094   */\n      dup4\n        /* \"#utility.yul\":18081:18098   */\n      add\n        /* \"#utility.yul\":18072:18078   */\n      dup12\n        /* \"#utility.yul\":18028:18099   */\n      tag_336\n      jump\t// in\n    tag_385:\n        /* \"#utility.yul\":18109:18181   */\n      tag_386\n        /* \"#utility.yul\":18177:18179   */\n      0x20\n        /* \"#utility.yul\":18166:18175   */\n      dup4\n        /* \"#utility.yul\":18162:18180   */\n      add\n        /* \"#utility.yul\":18153:18159   */\n      dup11\n        /* \"#utility.yul\":18109:18181   */\n      tag_242\n      jump\t// in\n    tag_386:\n        /* \"#utility.yul\":18191:18257   */\n      tag_387\n        /* \"#utility.yul\":18253:18255   */\n      0x40\n        /* \"#utility.yul\":18242:18251   */\n      dup4\n        /* \"#utility.yul\":18238:18256   */\n      add\n        /* \"#utility.yul\":18229:18235   */\n      dup10\n        /* \"#utility.yul\":18191:18257   */\n      tag_246\n      jump\t// in\n    tag_387:\n        /* \"#utility.yul\":18267:18333   */\n      tag_388\n        /* \"#utility.yul\":18329:18331   */\n      0x60\n        /* \"#utility.yul\":18318:18327   */\n      dup4\n        /* \"#utility.yul\":18314:18332   */\n      add\n        /* \"#utility.yul\":18305:18311   */\n      dup9\n        /* \"#utility.yul\":18267:18333   */\n      tag_246\n      jump\t// in\n    tag_388:\n        /* \"#utility.yul\":18343:18414   */\n      tag_389\n        /* \"#utility.yul\":18409:18412   */\n      0x80\n        /* \"#utility.yul\":18398:18407   */\n      dup4\n        /* \"#utility.yul\":18394:18413   */\n      add\n        /* \"#utility.yul\":18385:18391   */\n      dup8\n        /* \"#utility.yul\":18343:18414   */\n      tag_340\n      jump\t// in\n    tag_389:\n        /* \"#utility.yul\":18424:18497   */\n      tag_390\n        /* \"#utility.yul\":18492:18495   */\n      0xa0\n        /* \"#utility.yul\":18481:18490   */\n      dup4\n        /* \"#utility.yul\":18477:18496   */\n      add\n        /* \"#utility.yul\":18468:18474   */\n      dup7\n        /* \"#utility.yul\":18424:18497   */\n      tag_242\n      jump\t// in\n    tag_390:\n        /* \"#utility.yul\":18507:18580   */\n      tag_391\n        /* \"#utility.yul\":18575:18578   */\n      0xc0\n        /* \"#utility.yul\":18564:18573   */\n      dup4\n        /* \"#utility.yul\":18560:18579   */\n      add\n        /* \"#utility.yul\":18551:18557   */\n      dup6\n        /* \"#utility.yul\":18507:18580   */\n      tag_336\n      jump\t// in\n    tag_391:\n        /* \"#utility.yul\":18590:18663   */\n      tag_392\n        /* \"#utility.yul\":18658:18661   */\n      0xe0\n        /* \"#utility.yul\":18647:18656   */\n      dup4\n        /* \"#utility.yul\":18643:18662   */\n      add\n        /* \"#utility.yul\":18634:18640   */\n      dup5\n        /* \"#utility.yul\":18590:18663   */\n      tag_336\n      jump\t// in\n    tag_392:\n        /* \"#utility.yul\":17701:18670   */\n      swap10\n      swap9\n      pop\n      pop\n      pop\n      pop\n      pop\n      pop\n      pop\n      pop\n      pop\n      jump\t// out\n        /* \"#utility.yul\":18676:19008   */\n    tag_119:\n        /* \"#utility.yul\":18797:18801   */\n      0x00\n        /* \"#utility.yul\":18835:18837   */\n      0x40\n        /* \"#utility.yul\":18824:18833   */\n      dup3\n        /* \"#utility.yul\":18820:18838   */\n      add\n        /* \"#utility.yul\":18812:18838   */\n      swap1\n      pop\n        /* \"#utility.yul\":18848:18919   */\n      tag_394\n        /* \"#utility.yul\":18916:18917   */\n      0x00\n        /* \"#utility.yul\":18905:18914   */\n      dup4\n        /* \"#utility.yul\":18901:18918   */\n      add\n        /* \"#utility.yul\":18892:18898   */\n      dup6\n        /* \"#utility.yul\":18848:18919   */\n      tag_336\n      jump\t// in\n    tag_394:\n        /* \"#utility.yul\":18929:19001   */\n      tag_395\n        /* \"#utility.yul\":18997:18999   */\n      0x20\n        /* \"#utility.yul\":18986:18995   */\n      dup4\n        /* \"#utility.yul\":18982:19000   */\n      add\n        /* \"#utility.yul\":18973:18979   */\n      dup5\n        /* \"#utility.yul\":18929:19001   */\n      tag_336\n      jump\t// in\n    tag_395:\n        /* \"#utility.yul\":18676:19008   */\n      swap4\n      swap3\n      pop\n      pop\n      pop\n      jump\t// out\n        /* \"#utility.yul\":19095:19242   */\n    tag_298:\n        /* \"#utility.yul\":19196:19207   */\n      0x00\n        /* \"#utility.yul\":19233:19236   */\n      dup2\n        /* \"#utility.yul\":19218:19236   */\n      swap1\n      pop\n        /* \"#utility.yul\":19095:19242   */\n      swap3\n      swap2\n      pop\n      pop\n      jump\t// out\n        /* \"#utility.yul\":19248:19417   */\n    tag_257:\n        /* \"#utility.yul\":19332:19343   */\n      0x00\n        /* \"#utility.yul\":19366:19372   */\n      dup3\n        /* \"#utility.yul\":19361:19364   */\n      dup3\n        /* \"#utility.yul\":19354:19373   */\n      mstore\n        /* \"#utility.yul\":19406:19410   */\n      0x20\n        /* \"#utility.yul\":19401:19404   */\n      dup3\n        /* \"#utility.yul\":19397:19411   */\n      add\n        /* \"#utility.yul\":19382:19411   */\n      swap1\n      pop\n        /* \"#utility.yul\":19248:19417   */\n      swap3\n      swap2\n      pop\n      pop\n      jump\t// out\n        /* \"#utility.yul\":19423:19728   */\n    tag_94:\n        /* \"#utility.yul\":19463:19466   */\n      0x00\n        /* \"#utility.yul\":19482:19502   */\n      tag_401\n        /* \"#utility.yul\":19500:19501   */\n      dup3\n        /* \"#utility.yul\":19482:19502   */\n      tag_339\n      jump\t// in\n    tag_401:\n        /* \"#utility.yul\":19477:19502   */\n      swap2\n      pop\n        /* \"#utility.yul\":19516:19536   */\n      tag_402\n        /* \"#utility.yul\":19534:19535   */\n      dup4\n        /* \"#utility.yul\":19516:19536   */\n      tag_339\n      jump\t// in\n    tag_402:\n        /* \"#utility.yul\":19511:19536   */\n      swap3\n      pop\n        /* \"#utility.yul\":19670:19671   */\n      dup3\n        /* \"#utility.yul\":19602:19668   */\n      0xffffffffffffffffffffffffffffffffffffffffffffffffffffffffffffffff\n        /* \"#utility.yul\":19598:19672   */\n      sub\n        /* \"#utility.yul\":19595:19596   */\n      dup3\n        /* \"#utility.yul\":19592:19673   */\n      gt\n        /* \"#utility.yul\":19589:19696   */\n      iszero\n      tag_403\n      jumpi\n        /* \"#utility.yul\":19676:19694   */\n      tag_404\n      tag_405\n      jump\t// in\n    tag_404:\n        /* \"#utility.yul\":19589:19696   */\n    tag_403:\n        /* \"#utility.yul\":19720:19721   */\n      dup3\n        /* \"#utility.yul\":19717:19718   */\n      dup3\n        /* \"#utility.yul\":19713:19722   */\n      add\n        /* \"#utility.yul\":19706:19722   */\n      swap1\n      pop\n        /* \"#utility.yul\":19423:19728   */\n      swap3\n      swap2\n      pop\n      pop\n      jump\t// out\n        /* \"#utility.yul\":19734:19925   */\n    tag_127:\n        /* \"#utility.yul\":19774:19778   */\n      0x00\n        /* \"#utility.yul\":19794:19814   */\n      tag_407\n        /* \"#utility.yul\":19812:19813   */\n      dup3\n        /* \"#utility.yul\":19794:19814   */\n      tag_339\n      jump\t// in\n    tag_407:\n        /* \"#utility.yul\":19789:19814   */\n      swap2\n      pop\n        /* \"#utility.yul\":19828:19848   */\n      tag_408\n        /* \"#utility.yul\":19846:19847   */\n      dup4\n        /* \"#utility.yul\":19828:19848   */\n      tag_339\n      jump\t// in\n    tag_408:\n        /* \"#utility.yul\":19823:19848   */\n      swap3\n      pop\n        /* \"#utility.yul\":19867:19868   */\n      dup3\n        /* \"#utility.yul\":19864:19865   */\n      dup3\n        /* \"#utility.yul\":19861:19869   */\n      lt\n        /* \"#utility.yul\":19858:19892   */\n      iszero\n      tag_409\n      jumpi\n        /* \"#utility.yul\":19872:19890   */\n      tag_410\n      tag_405\n      jump\t// in\n    tag_410:\n        /* \"#utility.yul\":19858:19892   */\n    tag_409:\n        /* \"#utility.yul\":19917:19918   */\n      dup3\n        /* \"#utility.yul\":19914:19915   */\n      dup3\n        /* \"#utility.yul\":19910:19919   */\n      sub\n        /* \"#utility.yul\":19902:19919   */\n      swap1\n      pop\n        /* \"#utility.yul\":19734:19925   */\n      swap3\n      swap2\n      pop\n      pop\n      jump\t// out\n        /* \"#utility.yul\":19931:20027   */\n    tag_245:\n        /* \"#utility.yul\":19968:19975   */\n      0x00\n        /* \"#utility.yul\":19997:20021   */\n      tag_412\n        /* \"#utility.yul\":20015:20020   */\n      dup3\n        /* \"#utility.yul\":19997:20021   */\n      tag_413\n      jump\t// in\n    tag_412:\n        /* \"#utility.yul\":19986:20021   */\n      swap1\n      pop\n        /* \"#utility.yul\":19931:20027   */\n      swap2\n      swap1\n      pop\n      jump\t// out\n        /* \"#utility.yul\":20033:20123   */\n    tag_249:\n        /* \"#utility.yul\":20067:20074   */\n      0x00\n        /* \"#utility.yul\":20110:20115   */\n      dup2\n        /* \"#utility.yul\":20103:20116   */\n      iszero\n        /* \"#utility.yul\":20096:20117   */\n      iszero\n        /* \"#utility.yul\":20085:20117   */\n      swap1\n      pop\n        /* \"#utility.yul\":20033:20123   */\n      swap2\n      swap1\n      pop\n      jump\t// out\n        /* \"#utility.yul\":20129:20255   */\n    tag_413:\n        /* \"#utility.yul\":20166:20173   */\n      0x00\n        /* \"#utility.yul\":20206:20248   */\n      0xffffffffffffffffffffffffffffffffffffffff\n        /* \"#utility.yul\":20199:20204   */\n      dup3\n        /* \"#utility.yul\":20195:20249   */\n      and\n        /* \"#utility.yul\":20184:20249   */\n      swap1\n      pop\n        /* \"#utility.yul\":20129:20255   */\n      swap2\n      swap1\n      pop\n      jump\t// out\n        /* \"#utility.yul\":20261:20338   */\n    tag_339:\n        /* \"#utility.yul\":20298:20305   */\n      0x00\n        /* \"#utility.yul\":20327:20332   */\n      dup2\n        /* \"#utility.yul\":20316:20332   */\n      swap1\n      pop\n        /* \"#utility.yul\":20261:20338   */\n      swap2\n      swap1\n      pop\n      jump\t// out\n        /* \"#utility.yul\":20344:20437   */\n    tag_343:\n        /* \"#utility.yul\":20380:20387   */\n      0x00\n        /* \"#utility.yul\":20420:20430   */\n      0xffffffff\n        /* \"#utility.yul\":20413:20418   */\n      dup3\n        /* \"#utility.yul\":20409:20431   */\n      and\n        /* \"#utility.yul\":20398:20431   */\n      swap1\n      pop\n        /* \"#utility.yul\":20344:20437   */\n      swap2\n      swap1\n      pop\n      jump\t// out\n        /* \"#utility.yul\":20443:20583   */\n    tag_253:\n        /* \"#utility.yul\":20507:20516   */\n      0x00\n        /* \"#utility.yul\":20540:20577   */\n      tag_419\n        /* \"#utility.yul\":20571:20576   */\n      dup3\n        /* \"#utility.yul\":20540:20577   */\n      tag_420\n      jump\t// in\n    tag_419:\n        /* \"#utility.yul\":20527:20577   */\n      swap1\n      pop\n        /* \"#utility.yul\":20443:20583   */\n      swap2\n      swap1\n      pop\n      jump\t// out\n        /* \"#utility.yul\":20589:20715   */\n    tag_420:\n        /* \"#utility.yul\":20639:20648   */\n      0x00\n        /* \"#utility.yul\":20672:20709   */\n      tag_422\n        /* \"#utility.yul\":20703:20708   */\n      dup3\n        /* \"#utility.yul\":20672:20709   */\n      tag_423\n      jump\t// in\n    tag_422:\n        /* \"#utility.yul\":20659:20709   */\n      swap1\n      pop\n        /* \"#utility.yul\":20589:20715   */\n      swap2\n      swap1\n      pop\n      jump\t// out\n        /* \"#utility.yul\":20721:20834   */\n    tag_423:\n        /* \"#utility.yul\":20771:20780   */\n      0x00\n        /* \"#utility.yul\":20804:20828   */\n      tag_425\n        /* \"#utility.yul\":20822:20827   */\n      dup3\n        /* \"#utility.yul\":20804:20828   */\n      tag_413\n      jump\t// in\n    tag_425:\n        /* \"#utility.yul\":20791:20828   */\n      swap1\n      pop\n        /* \"#utility.yul\":20721:20834   */\n      swap2\n      swap1\n      pop\n      jump\t// out\n        /* \"#utility.yul\":20840:21020   */\n    tag_405:\n        /* \"#utility.yul\":20888:20965   */\n      0x4e487b7100000000000000000000000000000000000000000000000000000000\n        /* \"#utility.yul\":20885:20886   */\n      0x00\n        /* \"#utility.yul\":20878:20966   */\n      mstore\n        /* \"#utility.yul\":20985:20989   */\n      0x11\n        /* \"#utility.yul\":20982:20983   */\n      0x04\n        /* \"#utility.yul\":20975:20990   */\n      mstore\n        /* \"#utility.yul\":21009:21013   */\n      0x24\n        /* \"#utility.yul\":21006:21007   */\n      0x00\n        /* \"#utility.yul\":20999:21014   */\n      revert\n        /* \"#utility.yul\":21149:21266   */\n    tag_216:\n        /* \"#utility.yul\":21258:21259   */\n      0x00\n        /* \"#utility.yul\":21255:21256   */\n      dup1\n        /* \"#utility.yul\":21248:21260   */\n      revert\n        /* \"#utility.yul\":21272:21438   */\n    tag_259:\n        /* \"#utility.yul\":21412:21430   */\n      0x4e6f7420656e6f75676820657468657200000000000000000000000000000000\n        /* \"#utility.yul\":21408:21409   */\n      0x00\n        /* \"#utility.yul\":21400:21406   */\n      dup3\n        /* \"#utility.yul\":21396:21410   */\n      add\n        /* \"#utility.yul\":21389:21431   */\n      mstore\n        /* \"#utility.yul\":21272:21438   */\n      pop\n      jump\t// out\n        /* \"#utility.yul\":21444:21616   */\n    tag_264:\n        /* \"#utility.yul\":21584:21608   */\n      0x57696e6e65722063616e6e6f7420776974686472617700000000000000000000\n        /* \"#utility.yul\":21580:21581   */\n      0x00\n        /* \"#utility.yul\":21572:21578   */\n      dup3\n        /* \"#utility.yul\":21568:21582   */\n      add\n        /* \"#utility.yul\":21561:21609   */\n      mstore\n        /* \"#utility.yul\":21444:21616   */\n      pop\n      jump\t// out\n        /* \"#utility.yul\":21622:21783   */\n    tag_269:\n        /* \"#utility.yul\":21762:21775   */\n      0x4e6f742073746172746564000000000000000000000000000000000000000000\n        /* \"#utility.yul\":21758:21759   */\n      0x00\n        /* \"#utility.yul\":21750:21756   */\n      dup3\n        /* \"#utility.yul\":21746:21760   */\n      add\n        /* \"#utility.yul\":21739:21776   */\n      mstore\n        /* \"#utility.yul\":21622:21783   */\n      pop\n      jump\t// out\n        /* \"#utility.yul\":21789:21950   */\n    tag_274:\n        /* \"#utility.yul\":21929:21942   */\n      0x57494e4e45525f5a45524f000000000000000000000000000000000000000000\n        /* \"#utility.yul\":21925:21926   */\n      0x00\n        /* \"#utility.yul\":21917:21923   */\n      dup3\n        /* \"#utility.yul\":21913:21927   */\n      add\n        /* \"#utility.yul\":21906:21943   */\n      mstore\n        /* \"#utility.yul\":21789:21950   */\n      pop\n      jump\t// out\n        /* \"#utility.yul\":21956:22111   */\n    tag_279:\n        /* \"#utility.yul\":22096:22103   */\n      0x456e646564000000000000000000000000000000000000000000000000000000\n        /* \"#utility.yul\":22092:22093   */\n      0x00\n        /* \"#utility.yul\":22084:22090   */\n      dup3\n        /* \"#utility.yul\":22080:22094   */\n      add\n        /* \"#utility.yul\":22073:22104   */\n      mstore\n        /* \"#utility.yul\":21956:22111   */\n      pop\n      jump\t// out\n        /* \"#utility.yul\":22117:22278   */\n    tag_284:\n        /* \"#utility.yul\":22257:22270   */\n      0x456e6420616c7265616479000000000000000000000000000000000000000000\n        /* \"#utility.yul\":22253:22254   */\n      0x00\n        /* \"#utility.yul\":22245:22251   */\n      dup3\n        /* \"#utility.yul\":22241:22255   */\n      add\n        /* \"#utility.yul\":22234:22271   */\n      mstore\n        /* \"#utility.yul\":22117:22278   */\n      pop\n      jump\t// out\n        /* \"#utility.yul\":22284:22443   */\n    tag_289:\n        /* \"#utility.yul\":22424:22435   */\n      0x54696d65206c6566740000000000000000000000000000000000000000000000\n        /* \"#utility.yul\":22420:22421   */\n      0x00\n        /* \"#utility.yul\":22412:22418   */\n      dup3\n        /* \"#utility.yul\":22408:22422   */\n      add\n        /* \"#utility.yul\":22401:22436   */\n      mstore\n        /* \"#utility.yul\":22284:22443   */\n      pop\n      jump\t// out\n        /* \"#utility.yul\":22449:22608   */\n    tag_294:\n        /* \"#utility.yul\":22589:22600   */\n      0x4e6f74206f776e65720000000000000000000000000000000000000000000000\n        /* \"#utility.yul\":22585:22586   */\n      0x00\n        /* \"#utility.yul\":22577:22583   */\n      dup3\n        /* \"#utility.yul\":22573:22587   */\n      add\n        /* \"#utility.yul\":22566:22601   */\n      mstore\n        /* \"#utility.yul\":22449:22608   */\n      pop\n      jump\t// out\n        /* \"#utility.yul\":22614:22728   */\n    tag_300:\n      pop\n      jump\t// out\n        /* \"#utility.yul\":22734:22895   */\n    tag_305:\n        /* \"#utility.yul\":22874:22887   */\n      0x4e6f74206f6e2073616c65000000000000000000000000000000000000000000\n        /* \"#utility.yul\":22870:22871   */\n      0x00\n        /* \"#utility.yul\":22862:22868   */\n      dup3\n        /* \"#utility.yul\":22858:22872   */\n      add\n        /* \"#utility.yul\":22851:22888   */\n      mstore\n        /* \"#utility.yul\":22734:22895   */\n      pop\n      jump\t// out\n        /* \"#utility.yul\":22901:23063   */\n    tag_310:\n        /* \"#utility.yul\":23041:23055   */\n      0x4e6f742061206269646465720000000000000000000000000000000000000000\n        /* \"#utility.yul\":23037:23038   */\n      0x00\n        /* \"#utility.yul\":23029:23035   */\n      dup3\n        /* \"#utility.yul\":23025:23039   */\n      add\n        /* \"#utility.yul\":23018:23056   */\n      mstore\n        /* \"#utility.yul\":22901:23063   */\n      pop\n      jump\t// out\n        /* \"#utility.yul\":23069:23247   */\n    tag_315:\n        /* \"#utility.yul\":23209:23239   */\n      0x4f6e6c7920686967686572207468616e2063757272656e742062696400000000\n        /* \"#utility.yul\":23205:23206   */\n      0x00\n        /* \"#utility.yul\":23197:23203   */\n      dup3\n        /* \"#utility.yul\":23193:23207   */\n      add\n        /* \"#utility.yul\":23186:23240   */\n      mstore\n        /* \"#utility.yul\":23069:23247   */\n      pop\n      jump\t// out\n        /* \"#utility.yul\":23253:23418   */\n    tag_320:\n        /* \"#utility.yul\":23393:23410   */\n      0x7765206f7765206e6f206d6f6e65790000000000000000000000000000000000\n        /* \"#utility.yul\":23389:23390   */\n      0x00\n        /* \"#utility.yul\":23381:23387   */\n      dup3\n        /* \"#utility.yul\":23377:23391   */\n      add\n        /* \"#utility.yul\":23370:23411   */\n      mstore\n        /* \"#utility.yul\":23253:23418   */\n      pop\n      jump\t// out\n        /* \"#utility.yul\":23424:23583   */\n    tag_325:\n        /* \"#utility.yul\":23564:23575   */\n      0x6e6f74206f776e65720000000000000000000000000000000000000000000000\n        /* \"#utility.yul\":23560:23561   */\n      0x00\n        /* \"#utility.yul\":23552:23558   */\n      dup3\n        /* \"#utility.yul\":23548:23562   */\n      add\n        /* \"#utility.yul\":23541:23576   */\n      mstore\n        /* \"#utility.yul\":23424:23583   */\n      pop\n      jump\t// out\n        /* \"#utility.yul\":23589:23757   */\n    tag_330:\n        /* \"#utility.yul\":23729:23749   */\n      0x7472616e73616374696f6e206661696c65640000000000000000000000000000\n        /* \"#utility.yul\":23725:23726   */\n      0x00\n        /* \"#utility.yul\":23717:23723   */\n      dup3\n        /* \"#utility.yul\":23713:23727   */\n      add\n        /* \"#utility.yul\":23706:23750   */\n      mstore\n        /* \"#utility.yul\":23589:23757   */\n      pop\n      jump\t// out\n        /* \"#utility.yul\":23763:23922   */\n    tag_335:\n        /* \"#utility.yul\":23903:23914   */\n      0x6e6f7420656e6465640000000000000000000000000000000000000000000000\n        /* \"#utility.yul\":23899:23900   */\n      0x00\n        /* \"#utility.yul\":23891:23897   */\n      dup3\n        /* \"#utility.yul\":23887:23901   */\n      add\n        /* \"#utility.yul\":23880:23915   */\n      mstore\n        /* \"#utility.yul\":23763:23922   */\n      pop\n      jump\t// out\n        /* \"#utility.yul\":23928:24050   */\n    tag_198:\n        /* \"#utility.yul\":24001:24025   */\n      tag_447\n        /* \"#utility.yul\":24019:24024   */\n      dup2\n        /* \"#utility.yul\":24001:24025   */\n      tag_245\n      jump\t// in\n    tag_447:\n        /* \"#utility.yul\":23994:23999   */\n      dup2\n        /* \"#utility.yul\":23991:24026   */\n      eq\n        /* \"#utility.yul\":23981:24044   */\n      tag_448\n      jumpi\n        /* \"#utility.yul\":24040:24041   */\n      0x00\n        /* \"#utility.yul\":24037:24038   */\n      dup1\n        /* \"#utility.yul\":24030:24042   */\n      revert\n        /* \"#utility.yul\":23981:24044   */\n    tag_448:\n        /* \"#utility.yul\":23928:24050   */\n      pop\n      jump\t// out\n        /* \"#utility.yul\":24056:24178   */\n    tag_205:\n        /* \"#utility.yul\":24129:24153   */\n      tag_450\n        /* \"#utility.yul\":24147:24152   */\n      dup2\n        /* \"#utility.yul\":24129:24153   */\n      tag_339\n      jump\t// in\n    tag_450:\n        /* \"#utility.yul\":24122:24127   */\n      dup2\n        /* \"#utility.yul\":24119:24154   */\n      eq\n        /* \"#utility.yul\":24109:24172   */\n      tag_451\n      jumpi\n        /* \"#utility.yul\":24168:24169   */\n      0x00\n        /* \"#utility.yul\":24165:24166   */\n      dup1\n        /* \"#utility.yul\":24158:24170   */\n      revert\n        /* \"#utility.yul\":24109:24172   */\n    tag_451:\n        /* \"#utility.yul\":24056:24178   */\n      pop\n      jump\t// out\n        /* \"#utility.yul\":24184:24304   */\n    tag_212:\n        /* \"#utility.yul\":24256:24279   */\n      tag_453\n        /* \"#utility.yul\":24273:24278   */\n      dup2\n        /* \"#utility.yul\":24256:24279   */\n      tag_343\n      jump\t// in\n    tag_453:\n        /* \"#utility.yul\":24249:24254   */\n      dup2\n        /* \"#utility.yul\":24246:24280   */\n      eq\n        /* \"#utility.yul\":24236:24298   */\n      tag_454\n      jumpi\n        /* \"#utility.yul\":24294:24295   */\n      0x00\n        /* \"#utility.yul\":24291:24292   */\n      dup1\n        /* \"#utility.yul\":24284:24296   */\n      revert\n        /* \"#utility.yul\":24236:24298   */\n    tag_454:\n        /* \"#utility.yul\":24184:24304   */\n      pop\n      jump\t// out\n\n    auxdata: 0xa2646970667358221220b9158662b136d0cd1d5414389d08f1501bfdc67ef50982bdff77ab1b1e8d015064736f6c63430008070033\n}\n",
				"bytecode": {
					"linkReferences": {},
					"object": "60a06040523480156200001157600080fd5b50604051620024923803806200249283398181016040528101906200003791906200008c565b8073ffffffffffffffffffffffffffffffffffffffff1660808173ffffffffffffffffffffffffffffffffffffffff1660601b815250505062000111565b6000815190506200008681620000f7565b92915050565b600060208284031215620000a557620000a4620000f2565b5b6000620000b58482850162000075565b91505092915050565b6000620000cb82620000d2565b9050919050565b600073ffffffffffffffffffffffffffffffffffffffff82169050919050565b600080fd5b6200010281620000be565b81146200010e57600080fd5b50565b60805160601c61232a620001686000396000818161075a01528181610844015281816108ef0152818161098101528181610b5401528181610c6d015281816111b5015281816114d60152611662015261232a6000f3fe6080604052600436106100a75760003560e01c8063932894711161006457806393289471146101b2578063a0ef91df146101db578063b9a2de3a146101f2578063d3c2a5921461021b578063e8cd181f14610244578063f7d9757714610288576100a7565b80630eaaf4c8146100ac5780632ae53d25146100d5578063454a2ab3146101125780636588103b1461012e5780636c8ae19014610159578063852a38bc14610196575b600080fd5b3480156100b857600080fd5b506100d360048036038101906100ce9190611899565b6102b1565b005b3480156100e157600080fd5b506100fc60048036038101906100f791906117ff565b610530565b6040516101099190611e1b565b60405180910390f35b61012c60048036038101906101279190611899565b610548565b005b34801561013a57600080fd5b50610143610758565b6040516101509190611c20565b60405180910390f35b34801561016557600080fd5b50610180600480360381019061017b9190611899565b61077c565b60405161018d9190611e1b565b60405180910390f35b6101b060048036038101906101ab9190611899565b610794565b005b3480156101be57600080fd5b506101d960048036038101906101d49190611906565b610b50565b005b3480156101e757600080fd5b506101f0610e61565b005b3480156101fe57600080fd5b5061021960048036038101906102149190611899565b61106a565b005b34801561022757600080fd5b50610242600480360381019061023d9190611899565b6113c8565b005b34801561025057600080fd5b5061026b60048036038101906102669190611899565b6115ac565b60405161027f989796959493929190611e36565b60405180910390f35b34801561029457600080fd5b506102af60048036038101906102aa91906118c6565b61165e565b005b6000806000838152602001908152602001600020905060008160020160009054906101000a900473ffffffffffffffffffffffffffffffffffffffff1690508073ffffffffffffffffffffffffffffffffffffffff163373ffffffffffffffffffffffffffffffffffffffff16141561035f576040517f08c379a000000000000000000000000000000000000000000000000000000000815260040161035690611c5b565b60405180910390fd5b60008260050160003373ffffffffffffffffffffffffffffffffffffffff1673ffffffffffffffffffffffffffffffffffffffff168152602001908152602001600020549050600081116103e8576040517f08c379a00000000000000000000000000000000000000000000000000000000081526004016103df90611d5b565b60405180910390fd5b60008360050160003373ffffffffffffffffffffffffffffffffffffffff1673ffffffffffffffffffffffffffffffffffffffff1681526020019081526020016000208190555060003373ffffffffffffffffffffffffffffffffffffffff168260405161045590611bd4565b60006040518083038185875af1925050503d8060008114610492576040519150601f19603f3d011682016040523d82523d6000602084013e610497565b606091505b50509050806104db576040517f08c379a00000000000000000000000000000000000000000000000000000000081526004016104d290611ddb565b60405180910390fd5b3373ffffffffffffffffffffffffffffffffffffffff167fbd534d3467660b93e3889762d2f386716c59899db5ea180d724f2c07955a7cf7836040516105219190611e1b565b60405180910390a25050505050565b60016020528060005260406000206000915090505481565b60008060008381526020019081526020016000209050428160010160169054906101000a900463ffffffff1663ffffffff16116105ba576040517f08c379a00000000000000000000000000000000000000000000000000000000081526004016105b190611cbb565b60405180910390fd5b600115158160010160149054906101000a900460ff16151514610612576040517f08c379a000000000000000000000000000000000000000000000000000000000815260040161060990611c7b565b60405180910390fd5b6000348260050160003373ffffffffffffffffffffffffffffffffffffffff1673ffffffffffffffffffffffffffffffffffffffff168152602001908152602001600020546106619190611ef9565b90508160030154811180156106795750816004015481115b6106b8576040517f08c379a00000000000000000000000000000000000000000000000000000000081526004016106af90611d7b565b60405180910390fd5b808260030181905550338260020160006101000a81548173ffffffffffffffffffffffffffffffffffffffff021916908373ffffffffffffffffffffffffffffffffffffffff160217905550823373ffffffffffffffffffffffffffffffffffffffff167f19421268847f42dd61705778018ddfc43bcdce8517e7a630acb12f122c7094813460405161074b9190611e1b565b60405180910390a3505050565b7f000000000000000000000000000000000000000000000000000000000000000081565b60026020528060005260406000206000915090505481565b60006002600083815260200190815260200160002054116107ea576040517f08c379a00000000000000000000000000000000000000000000000000000000081526004016107e190611d3b565b60405180910390fd5b6002600082815260200190815260200160002054341015610840576040517f08c379a000000000000000000000000000000000000000000000000000000000815260040161083790611c3b565b60405180910390fd5b60007f000000000000000000000000000000000000000000000000000000000000000073ffffffffffffffffffffffffffffffffffffffff16636352211e836040518263ffffffff1660e01b815260040161089b9190611e1b565b60206040518083038186803b1580156108b357600080fd5b505afa1580156108c7573d6000803e3d6000fd5b505050506040513d601f19601f820116820180604052508101906108eb919061182c565b90507f000000000000000000000000000000000000000000000000000000000000000073ffffffffffffffffffffffffffffffffffffffff166323b872dd8233856040518463ffffffff1660e01b815260040161094a93929190611be9565b600060405180830381600087803b15801561096457600080fd5b505af1158015610978573d6000803e3d6000fd5b505050506000807f000000000000000000000000000000000000000000000000000000000000000073ffffffffffffffffffffffffffffffffffffffff16632a55205a85346040518363ffffffff1660e01b81526004016109da929190611eb4565b604080518083038186803b1580156109f157600080fd5b505afa158015610a05573d6000803e3d6000fd5b505050506040513d601f19601f82011682018060405250810190610a299190611859565b9150915080600160008473ffffffffffffffffffffffffffffffffffffffff1673ffffffffffffffffffffffffffffffffffffffff1681526020019081526020016000206000828254610a7c9190611ef9565b925050819055508034610a8f9190611f4f565b600160008573ffffffffffffffffffffffffffffffffffffffff1673ffffffffffffffffffffffffffffffffffffffff1681526020019081526020016000206000828254610add9190611ef9565b92505081905550833373ffffffffffffffffffffffffffffffffffffffff168473ffffffffffffffffffffffffffffffffffffffff167f7e3fa3dabd9e399e0c67487e26764a1b6d41fa839f397338fa4be199588cc19834604051610b429190611e1b565b60405180910390a450505050565b60007f000000000000000000000000000000000000000000000000000000000000000073ffffffffffffffffffffffffffffffffffffffff16636352211e856040518263ffffffff1660e01b8152600401610bab9190611e1b565b60206040518083038186803b158015610bc357600080fd5b505afa158015610bd7573d6000803e3d6000fd5b505050506040513d601f19601f82011682018060405250810190610bfb919061182c565b90508073ffffffffffffffffffffffffffffffffffffffff163373ffffffffffffffffffffffffffffffffffffffff1614610c6b576040517f08c379a0000000000000000000000000000000000000000000000000000000008152600401610c6290611d1b565b60405180910390fd5b7f000000000000000000000000000000000000000000000000000000000000000073ffffffffffffffffffffffffffffffffffffffff166323b872dd8230876040518463ffffffff1660e01b8152600401610cc893929190611be9565b600060405180830381600087803b158015610ce257600080fd5b505af1158015610cf6573d6000803e3d6000fd5b5050505060008060008681526020019081526020016000209050818160010160006101000a81548173ffffffffffffffffffffffffffffffffffffffff021916908373ffffffffffffffffffffffffffffffffffffffff1602179055508263ffffffff1642610d659190611ef9565b8160010160166101000a81548163ffffffff021916908363ffffffff16021790555084816000018190555083816004018190555060008160010160156101000a81548160ff02191690831515021790555060018160010160146101000a81548160ff021916908315150217905550818160020160006101000a81548173ffffffffffffffffffffffffffffffffffffffff021916908373ffffffffffffffffffffffffffffffffffffffff160217905550848273ffffffffffffffffffffffffffffffffffffffff167fcfb9c5312b25ec7b809d61e638df25f749eae5d5c25399e1c93d1d319bfd582160405160405180910390a35050505050565b6000600160003373ffffffffffffffffffffffffffffffffffffffff1673ffffffffffffffffffffffffffffffffffffffff1681526020019081526020016000205411610ee3576040517f08c379a0000000000000000000000000000000000000000000000000000000008152600401610eda90611d9b565b60405180910390fd5b6000600160003373ffffffffffffffffffffffffffffffffffffffff1673ffffffffffffffffffffffffffffffffffffffff1681526020019081526020016000205490506000600160003373ffffffffffffffffffffffffffffffffffffffff1673ffffffffffffffffffffffffffffffffffffffff1681526020019081526020016000208190555060003373ffffffffffffffffffffffffffffffffffffffff1682604051610f9290611bd4565b60006040518083038185875af1925050503d8060008114610fcf576040519150601f19603f3d011682016040523d82523d6000602084013e610fd4565b606091505b5050905080611018576040517f08c379a000000000000000000000000000000000000000000000000000000000815260040161100f90611ddb565b60405180910390fd5b3373ffffffffffffffffffffffffffffffffffffffff167f884edad9ce6fa2440d8a54cc123490eb96d2768479d49ff9c7366125a94243648360405161105e9190611e1b565b60405180910390a25050565b600080600083815260200190815260200160002090508060010160149054906101000a900460ff166110d1576040517f08c379a00000000000000000000000000000000000000000000000000000000081526004016110c890611c7b565b60405180910390fd5b600015158160010160159054906101000a900460ff16151514611129576040517f08c379a000000000000000000000000000000000000000000000000000000000815260040161112090611cdb565b60405180910390fd5b428160010160169054906101000a900463ffffffff1663ffffffff161115611186576040517f08c379a000000000000000000000000000000000000000000000000000000000815260040161117d90611cfb565b60405180910390fd5b60018160010160156101000a81548160ff02191690831515021790555060008160030154111561134d576000807f000000000000000000000000000000000000000000000000000000000000000073ffffffffffffffffffffffffffffffffffffffff16632a55205a8585600301546040518363ffffffff1660e01b8152600401611212929190611eb4565b604080518083038186803b15801561122957600080fd5b505afa15801561123d573d6000803e3d6000fd5b505050506040513d601f19601f820116820180604052508101906112619190611859565b9150915060008184600301546112779190611f4f565b905080600160008660010160009054906101000a900473ffffffffffffffffffffffffffffffffffffffff1673ffffffffffffffffffffffffffffffffffffffff1673ffffffffffffffffffffffffffffffffffffffff16815260200190815260200160002060008282546112ec9190611ef9565b9250508190555081600160008573ffffffffffffffffffffffffffffffffffffffff1673ffffffffffffffffffffffffffffffffffffffff16815260200190815260200160002060008282546113429190611ef9565b925050819055505050505b818160020160009054906101000a900473ffffffffffffffffffffffffffffffffffffffff1673ffffffffffffffffffffffffffffffffffffffff167ff58cfa488d8d9ddd26ddfc3dd52f23711c05cb37db31bda0b1b27d1bdfb56e5383600301546040516113bc9190611e1b565b60405180910390a35050565b60008060008381526020019081526020016000209050428160010160169054906101000a900463ffffffff1663ffffffff16111561143b576040517f08c379a000000000000000000000000000000000000000000000000000000000815260040161143290611dfb565b60405180910390fd5b60008160020160009054906101000a900473ffffffffffffffffffffffffffffffffffffffff169050600073ffffffffffffffffffffffffffffffffffffffff168173ffffffffffffffffffffffffffffffffffffffff1614156114d4576040517f08c379a00000000000000000000000000000000000000000000000000000000081526004016114cb90611c9b565b60405180910390fd5b7f000000000000000000000000000000000000000000000000000000000000000073ffffffffffffffffffffffffffffffffffffffff166323b872dd3083866040518463ffffffff1660e01b815260040161153193929190611be9565b600060405180830381600087803b15801561154b57600080fd5b505af115801561155f573d6000803e3d6000fd5b50505050828173ffffffffffffffffffffffffffffffffffffffff167faaf9ca8f61f9510fd9363dd9106d8fe225c4fc1c935f0778021747735a6ca30a60405160405180910390a3505050565b60006020528060005260406000206000915090508060000154908060010160009054906101000a900473ffffffffffffffffffffffffffffffffffffffff16908060010160149054906101000a900460ff16908060010160159054906101000a900460ff16908060010160169054906101000a900463ffffffff16908060020160009054906101000a900473ffffffffffffffffffffffffffffffffffffffff16908060030154908060040154905088565b60007f000000000000000000000000000000000000000000000000000000000000000073ffffffffffffffffffffffffffffffffffffffff16636352211e846040518263ffffffff1660e01b81526004016116b99190611e1b565b60206040518083038186803b1580156116d157600080fd5b505afa1580156116e5573d6000803e3d6000fd5b505050506040513d601f19601f82011682018060405250810190611709919061182c565b90508073ffffffffffffffffffffffffffffffffffffffff163373ffffffffffffffffffffffffffffffffffffffff1614611779576040517f08c379a000000000000000000000000000000000000000000000000000000000815260040161177090611dbb565b60405180910390fd5b816002600085815260200190815260200160002081905550505050565b6000813590506117a5816122af565b92915050565b6000815190506117ba816122af565b92915050565b6000813590506117cf816122c6565b92915050565b6000815190506117e4816122c6565b92915050565b6000813590506117f9816122dd565b92915050565b60006020828403121561181557611814612040565b5b600061182384828501611796565b91505092915050565b60006020828403121561184257611841612040565b5b6000611850848285016117ab565b91505092915050565b600080604083850312156118705761186f612040565b5b600061187e858286016117ab565b925050602061188f858286016117d5565b9150509250929050565b6000602082840312156118af576118ae612040565b5b60006118bd848285016117c0565b91505092915050565b600080604083850312156118dd576118dc612040565b5b60006118eb858286016117c0565b92505060206118fc858286016117c0565b9150509250929050565b60008060006060848603121561191f5761191e612040565b5b600061192d868287016117c0565b935050602061193e868287016117c0565b925050604061194f868287016117ea565b9150509250925092565b61196281611f83565b82525050565b61197181611f95565b82525050565b61198081611fdb565b82525050565b6000611993601083611ee8565b915061199e82612045565b602082019050919050565b60006119b6601683611ee8565b91506119c18261206e565b602082019050919050565b60006119d9600b83611ee8565b91506119e482612097565b602082019050919050565b60006119fc600b83611ee8565b9150611a07826120c0565b602082019050919050565b6000611a1f600583611ee8565b9150611a2a826120e9565b602082019050919050565b6000611a42600b83611ee8565b9150611a4d82612112565b602082019050919050565b6000611a65600983611ee8565b9150611a708261213b565b602082019050919050565b6000611a88600983611ee8565b9150611a9382612164565b602082019050919050565b6000611aab600083611edd565b9150611ab68261218d565b600082019050919050565b6000611ace600b83611ee8565b9150611ad982612190565b602082019050919050565b6000611af1600c83611ee8565b9150611afc826121b9565b602082019050919050565b6000611b14601c83611ee8565b9150611b1f826121e2565b602082019050919050565b6000611b37600f83611ee8565b9150611b428261220b565b602082019050919050565b6000611b5a600983611ee8565b9150611b6582612234565b602082019050919050565b6000611b7d601283611ee8565b9150611b888261225d565b602082019050919050565b6000611ba0600983611ee8565b9150611bab82612286565b602082019050919050565b611bbf81611fc1565b82525050565b611bce81611fcb565b82525050565b6000611bdf82611a9e565b9150819050919050565b6000606082019050611bfe6000830186611959565b611c0b6020830185611959565b611c186040830184611bb6565b949350505050565b6000602082019050611c356000830184611977565b92915050565b60006020820190508181036000830152611c5481611986565b9050919050565b60006020820190508181036000830152611c74816119a9565b9050919050565b60006020820190508181036000830152611c94816119cc565b9050919050565b60006020820190508181036000830152611cb4816119ef565b9050919050565b60006020820190508181036000830152611cd481611a12565b9050919050565b60006020820190508181036000830152611cf481611a35565b9050919050565b60006020820190508181036000830152611d1481611a58565b9050919050565b60006020820190508181036000830152611d3481611a7b565b9050919050565b60006020820190508181036000830152611d5481611ac1565b9050919050565b60006020820190508181036000830152611d7481611ae4565b9050919050565b60006020820190508181036000830152611d9481611b07565b9050919050565b60006020820190508181036000830152611db481611b2a565b9050919050565b60006020820190508181036000830152611dd481611b4d565b9050919050565b60006020820190508181036000830152611df481611b70565b9050919050565b60006020820190508181036000830152611e1481611b93565b9050919050565b6000602082019050611e306000830184611bb6565b92915050565b600061010082019050611e4c600083018b611bb6565b611e59602083018a611959565b611e666040830189611968565b611e736060830188611968565b611e806080830187611bc5565b611e8d60a0830186611959565b611e9a60c0830185611bb6565b611ea760e0830184611bb6565b9998505050505050505050565b6000604082019050611ec96000830185611bb6565b611ed66020830184611bb6565b9392505050565b600081905092915050565b600082825260208201905092915050565b6000611f0482611fc1565b9150611f0f83611fc1565b9250827fffffffffffffffffffffffffffffffffffffffffffffffffffffffffffffffff03821115611f4457611f43612011565b5b828201905092915050565b6000611f5a82611fc1565b9150611f6583611fc1565b925082821015611f7857611f77612011565b5b828203905092915050565b6000611f8e82611fa1565b9050919050565b60008115159050919050565b600073ffffffffffffffffffffffffffffffffffffffff82169050919050565b6000819050919050565b600063ffffffff82169050919050565b6000611fe682611fed565b9050919050565b6000611ff882611fff565b9050919050565b600061200a82611fa1565b9050919050565b7f4e487b7100000000000000000000000000000000000000000000000000000000600052601160045260246000fd5b600080fd5b7f4e6f7420656e6f75676820657468657200000000000000000000000000000000600082015250565b7f57696e6e65722063616e6e6f7420776974686472617700000000000000000000600082015250565b7f4e6f742073746172746564000000000000000000000000000000000000000000600082015250565b7f57494e4e45525f5a45524f000000000000000000000000000000000000000000600082015250565b7f456e646564000000000000000000000000000000000000000000000000000000600082015250565b7f456e6420616c7265616479000000000000000000000000000000000000000000600082015250565b7f54696d65206c6566740000000000000000000000000000000000000000000000600082015250565b7f4e6f74206f776e65720000000000000000000000000000000000000000000000600082015250565b50565b7f4e6f74206f6e2073616c65000000000000000000000000000000000000000000600082015250565b7f4e6f742061206269646465720000000000000000000000000000000000000000600082015250565b7f4f6e6c7920686967686572207468616e2063757272656e742062696400000000600082015250565b7f7765206f7765206e6f206d6f6e65790000000000000000000000000000000000600082015250565b7f6e6f74206f776e65720000000000000000000000000000000000000000000000600082015250565b7f7472616e73616374696f6e206661696c65640000000000000000000000000000600082015250565b7f6e6f7420656e6465640000000000000000000000000000000000000000000000600082015250565b6122b881611f83565b81146122c357600080fd5b50565b6122cf81611fc1565b81146122da57600080fd5b50565b6122e681611fcb565b81146122f157600080fd5b5056fea2646970667358221220b9158662b136d0cd1d5414389d08f1501bfdc67ef50982bdff77ab1b1e8d015064736f6c63430008070033",
					"opcodes": "PUSH1 0xA0 PUSH1 0x40 MSTORE CALLVALUE DUP1 ISZERO PUSH3 0x11 JUMPI PUSH1 0x0 DUP1 REVERT JUMPDEST POP PUSH1 0x40 MLOAD PUSH3 0x2492 CODESIZE SUB DUP1 PUSH3 0x2492 DUP4 CODECOPY DUP2 DUP2 ADD PUSH1 0x40 MSTORE DUP2 ADD SWAP1 PUSH3 0x37 SWAP2 SWAP1 PUSH3 0x8C JUMP JUMPDEST DUP1 PUSH20 0xFFFFFFFFFFFFFFFFFFFFFFFFFFFFFFFFFFFFFFFF AND PUSH1 0x80 DUP2 PUSH20 0xFFFFFFFFFFFFFFFFFFFFFFFFFFFFFFFFFFFFFFFF AND PUSH1 0x60 SHL DUP2 MSTORE POP POP POP PUSH3 0x111 JUMP JUMPDEST PUSH1 0x0 DUP2 MLOAD SWAP1 POP PUSH3 0x86 DUP2 PUSH3 0xF7 JUMP JUMPDEST SWAP3 SWAP2 POP POP JUMP JUMPDEST PUSH1 0x0 PUSH1 0x20 DUP3 DUP5 SUB SLT ISZERO PUSH3 0xA5 JUMPI PUSH3 0xA4 PUSH3 0xF2 JUMP JUMPDEST JUMPDEST PUSH1 0x0 PUSH3 0xB5 DUP5 DUP3 DUP6 ADD PUSH3 0x75 JUMP JUMPDEST SWAP2 POP POP SWAP3 SWAP2 POP POP JUMP JUMPDEST PUSH1 0x0 PUSH3 0xCB DUP3 PUSH3 0xD2 JUMP JUMPDEST SWAP1 POP SWAP2 SWAP1 POP JUMP JUMPDEST PUSH1 0x0 PUSH20 0xFFFFFFFFFFFFFFFFFFFFFFFFFFFFFFFFFFFFFFFF DUP3 AND SWAP1 POP SWAP2 SWAP1 POP JUMP JUMPDEST PUSH1 0x0 DUP1 REVERT JUMPDEST PUSH3 0x102 DUP2 PUSH3 0xBE JUMP JUMPDEST DUP2 EQ PUSH3 0x10E JUMPI PUSH1 0x0 DUP1 REVERT JUMPDEST POP JUMP JUMPDEST PUSH1 0x80 MLOAD PUSH1 0x60 SHR PUSH2 0x232A PUSH3 0x168 PUSH1 0x0 CODECOPY PUSH1 0x0 DUP2 DUP2 PUSH2 0x75A ADD MSTORE DUP2 DUP2 PUSH2 0x844 ADD MSTORE DUP2 DUP2 PUSH2 0x8EF ADD MSTORE DUP2 DUP2 PUSH2 0x981 ADD MSTORE DUP2 DUP2 PUSH2 0xB54 ADD MSTORE DUP2 DUP2 PUSH2 0xC6D ADD MSTORE DUP2 DUP2 PUSH2 0x11B5 ADD MSTORE DUP2 DUP2 PUSH2 0x14D6 ADD MSTORE PUSH2 0x1662 ADD MSTORE PUSH2 0x232A PUSH1 0x0 RETURN INVALID PUSH1 0x80 PUSH1 0x40 MSTORE PUSH1 0x4 CALLDATASIZE LT PUSH2 0xA7 JUMPI PUSH1 0x0 CALLDATALOAD PUSH1 0xE0 SHR DUP1 PUSH4 0x93289471 GT PUSH2 0x64 JUMPI DUP1 PUSH4 0x93289471 EQ PUSH2 0x1B2 JUMPI DUP1 PUSH4 0xA0EF91DF EQ PUSH2 0x1DB JUMPI DUP1 PUSH4 0xB9A2DE3A EQ PUSH2 0x1F2 JUMPI DUP1 PUSH4 0xD3C2A592 EQ PUSH2 0x21B JUMPI DUP1 PUSH4 0xE8CD181F EQ PUSH2 0x244 JUMPI DUP1 PUSH4 0xF7D97577 EQ PUSH2 0x288 JUMPI PUSH2 0xA7 JUMP JUMPDEST DUP1 PUSH4 0xEAAF4C8 EQ PUSH2 0xAC JUMPI DUP1 PUSH4 0x2AE53D25 EQ PUSH2 0xD5 JUMPI DUP1 PUSH4 0x454A2AB3 EQ PUSH2 0x112 JUMPI DUP1 PUSH4 0x6588103B EQ PUSH2 0x12E JUMPI DUP1 PUSH4 0x6C8AE190 EQ PUSH2 0x159 JUMPI DUP1 PUSH4 0x852A38BC EQ PUSH2 0x196 JUMPI JUMPDEST PUSH1 0x0 DUP1 REVERT JUMPDEST CALLVALUE DUP1 ISZERO PUSH2 0xB8 JUMPI PUSH1 0x0 DUP1 REVERT JUMPDEST POP PUSH2 0xD3 PUSH1 0x4 DUP1 CALLDATASIZE SUB DUP2 ADD SWAP1 PUSH2 0xCE SWAP2 SWAP1 PUSH2 0x1899 JUMP JUMPDEST PUSH2 0x2B1 JUMP JUMPDEST STOP JUMPDEST CALLVALUE DUP1 ISZERO PUSH2 0xE1 JUMPI PUSH1 0x0 DUP1 REVERT JUMPDEST POP PUSH2 0xFC PUSH1 0x4 DUP1 CALLDATASIZE SUB DUP2 ADD SWAP1 PUSH2 0xF7 SWAP2 SWAP1 PUSH2 0x17FF JUMP JUMPDEST PUSH2 0x530 JUMP JUMPDEST PUSH1 0x40 MLOAD PUSH2 0x109 SWAP2 SWAP1 PUSH2 0x1E1B JUMP JUMPDEST PUSH1 0x40 MLOAD DUP1 SWAP2 SUB SWAP1 RETURN JUMPDEST PUSH2 0x12C PUSH1 0x4 DUP1 CALLDATASIZE SUB DUP2 ADD SWAP1 PUSH2 0x127 SWAP2 SWAP1 PUSH2 0x1899 JUMP JUMPDEST PUSH2 0x548 JUMP JUMPDEST STOP JUMPDEST CALLVALUE DUP1 ISZERO PUSH2 0x13A JUMPI PUSH1 0x0 DUP1 REVERT JUMPDEST POP PUSH2 0x143 PUSH2 0x758 JUMP JUMPDEST PUSH1 0x40 MLOAD PUSH2 0x150 SWAP2 SWAP1 PUSH2 0x1C20 JUMP JUMPDEST PUSH1 0x40 MLOAD DUP1 SWAP2 SUB SWAP1 RETURN JUMPDEST CALLVALUE DUP1 ISZERO PUSH2 0x165 JUMPI PUSH1 0x0 DUP1 REVERT JUMPDEST POP PUSH2 0x180 PUSH1 0x4 DUP1 CALLDATASIZE SUB DUP2 ADD SWAP1 PUSH2 0x17B SWAP2 SWAP1 PUSH2 0x1899 JUMP JUMPDEST PUSH2 0x77C JUMP JUMPDEST PUSH1 0x40 MLOAD PUSH2 0x18D SWAP2 SWAP1 PUSH2 0x1E1B JUMP JUMPDEST PUSH1 0x40 MLOAD DUP1 SWAP2 SUB SWAP1 RETURN JUMPDEST PUSH2 0x1B0 PUSH1 0x4 DUP1 CALLDATASIZE SUB DUP2 ADD SWAP1 PUSH2 0x1AB SWAP2 SWAP1 PUSH2 0x1899 JUMP JUMPDEST PUSH2 0x794 JUMP JUMPDEST STOP JUMPDEST CALLVALUE DUP1 ISZERO PUSH2 0x1BE JUMPI PUSH1 0x0 DUP1 REVERT JUMPDEST POP PUSH2 0x1D9 PUSH1 0x4 DUP1 CALLDATASIZE SUB DUP2 ADD SWAP1 PUSH2 0x1D4 SWAP2 SWAP1 PUSH2 0x1906 JUMP JUMPDEST PUSH2 0xB50 JUMP JUMPDEST STOP JUMPDEST CALLVALUE DUP1 ISZERO PUSH2 0x1E7 JUMPI PUSH1 0x0 DUP1 REVERT JUMPDEST POP PUSH2 0x1F0 PUSH2 0xE61 JUMP JUMPDEST STOP JUMPDEST CALLVALUE DUP1 ISZERO PUSH2 0x1FE JUMPI PUSH1 0x0 DUP1 REVERT JUMPDEST POP PUSH2 0x219 PUSH1 0x4 DUP1 CALLDATASIZE SUB DUP2 ADD SWAP1 PUSH2 0x214 SWAP2 SWAP1 PUSH2 0x1899 JUMP JUMPDEST PUSH2 0x106A JUMP JUMPDEST STOP JUMPDEST CALLVALUE DUP1 ISZERO PUSH2 0x227 JUMPI PUSH1 0x0 DUP1 REVERT JUMPDEST POP PUSH2 0x242 PUSH1 0x4 DUP1 CALLDATASIZE SUB DUP2 ADD SWAP1 PUSH2 0x23D SWAP2 SWAP1 PUSH2 0x1899 JUMP JUMPDEST PUSH2 0x13C8 JUMP JUMPDEST STOP JUMPDEST CALLVALUE DUP1 ISZERO PUSH2 0x250 JUMPI PUSH1 0x0 DUP1 REVERT JUMPDEST POP PUSH2 0x26B PUSH1 0x4 DUP1 CALLDATASIZE SUB DUP2 ADD SWAP1 PUSH2 0x266 SWAP2 SWAP1 PUSH2 0x1899 JUMP JUMPDEST PUSH2 0x15AC JUMP JUMPDEST PUSH1 0x40 MLOAD PUSH2 0x27F SWAP9 SWAP8 SWAP7 SWAP6 SWAP5 SWAP4 SWAP3 SWAP2 SWAP1 PUSH2 0x1E36 JUMP JUMPDEST PUSH1 0x40 MLOAD DUP1 SWAP2 SUB SWAP1 RETURN JUMPDEST CALLVALUE DUP1 ISZERO PUSH2 0x294 JUMPI PUSH1 0x0 DUP1 REVERT JUMPDEST POP PUSH2 0x2AF PUSH1 0x4 DUP1 CALLDATASIZE SUB DUP2 ADD SWAP1 PUSH2 0x2AA SWAP2 SWAP1 PUSH2 0x18C6 JUMP JUMPDEST PUSH2 0x165E JUMP JUMPDEST STOP JUMPDEST PUSH1 0x0 DUP1 PUSH1 0x0 DUP4 DUP2 MSTORE PUSH1 0x20 ADD SWAP1 DUP2 MSTORE PUSH1 0x20 ADD PUSH1 0x0 KECCAK256 SWAP1 POP PUSH1 0x0 DUP2 PUSH1 0x2 ADD PUSH1 0x0 SWAP1 SLOAD SWAP1 PUSH2 0x100 EXP SWAP1 DIV PUSH20 0xFFFFFFFFFFFFFFFFFFFFFFFFFFFFFFFFFFFFFFFF AND SWAP1 POP DUP1 PUSH20 0xFFFFFFFFFFFFFFFFFFFFFFFFFFFFFFFFFFFFFFFF AND CALLER PUSH20 0xFFFFFFFFFFFFFFFFFFFFFFFFFFFFFFFFFFFFFFFF AND EQ ISZERO PUSH2 0x35F JUMPI PUSH1 0x40 MLOAD PUSH32 0x8C379A000000000000000000000000000000000000000000000000000000000 DUP2 MSTORE PUSH1 0x4 ADD PUSH2 0x356 SWAP1 PUSH2 0x1C5B JUMP JUMPDEST PUSH1 0x40 MLOAD DUP1 SWAP2 SUB SWAP1 REVERT JUMPDEST PUSH1 0x0 DUP3 PUSH1 0x5 ADD PUSH1 0x0 CALLER PUSH20 0xFFFFFFFFFFFFFFFFFFFFFFFFFFFFFFFFFFFFFFFF AND PUSH20 0xFFFFFFFFFFFFFFFFFFFFFFFFFFFFFFFFFFFFFFFF AND DUP2 MSTORE PUSH1 0x20 ADD SWAP1 DUP2 MSTORE PUSH1 0x20 ADD PUSH1 0x0 KECCAK256 SLOAD SWAP1 POP PUSH1 0x0 DUP2 GT PUSH2 0x3E8 JUMPI PUSH1 0x40 MLOAD PUSH32 0x8C379A000000000000000000000000000000000000000000000000000000000 DUP2 MSTORE PUSH1 0x4 ADD PUSH2 0x3DF SWAP1 PUSH2 0x1D5B JUMP JUMPDEST PUSH1 0x40 MLOAD DUP1 SWAP2 SUB SWAP1 REVERT JUMPDEST PUSH1 0x0 DUP4 PUSH1 0x5 ADD PUSH1 0x0 CALLER PUSH20 0xFFFFFFFFFFFFFFFFFFFFFFFFFFFFFFFFFFFFFFFF AND PUSH20 0xFFFFFFFFFFFFFFFFFFFFFFFFFFFFFFFFFFFFFFFF AND DUP2 MSTORE PUSH1 0x20 ADD SWAP1 DUP2 MSTORE PUSH1 0x20 ADD PUSH1 0x0 KECCAK256 DUP2 SWAP1 SSTORE POP PUSH1 0x0 CALLER PUSH20 0xFFFFFFFFFFFFFFFFFFFFFFFFFFFFFFFFFFFFFFFF AND DUP3 PUSH1 0x40 MLOAD PUSH2 0x455 SWAP1 PUSH2 0x1BD4 JUMP JUMPDEST PUSH1 0x0 PUSH1 0x40 MLOAD DUP1 DUP4 SUB DUP2 DUP6 DUP8 GAS CALL SWAP3 POP POP POP RETURNDATASIZE DUP1 PUSH1 0x0 DUP2 EQ PUSH2 0x492 JUMPI PUSH1 0x40 MLOAD SWAP2 POP PUSH1 0x1F NOT PUSH1 0x3F RETURNDATASIZE ADD AND DUP3 ADD PUSH1 0x40 MSTORE RETURNDATASIZE DUP3 MSTORE RETURNDATASIZE PUSH1 0x0 PUSH1 0x20 DUP5 ADD RETURNDATACOPY PUSH2 0x497 JUMP JUMPDEST PUSH1 0x60 SWAP2 POP JUMPDEST POP POP SWAP1 POP DUP1 PUSH2 0x4DB JUMPI PUSH1 0x40 MLOAD PUSH32 0x8C379A000000000000000000000000000000000000000000000000000000000 DUP2 MSTORE PUSH1 0x4 ADD PUSH2 0x4D2 SWAP1 PUSH2 0x1DDB JUMP JUMPDEST PUSH1 0x40 MLOAD DUP1 SWAP2 SUB SWAP1 REVERT JUMPDEST CALLER PUSH20 0xFFFFFFFFFFFFFFFFFFFFFFFFFFFFFFFFFFFFFFFF AND PUSH32 0xBD534D3467660B93E3889762D2F386716C59899DB5EA180D724F2C07955A7CF7 DUP4 PUSH1 0x40 MLOAD PUSH2 0x521 SWAP2 SWAP1 PUSH2 0x1E1B JUMP JUMPDEST PUSH1 0x40 MLOAD DUP1 SWAP2 SUB SWAP1 LOG2 POP POP POP POP POP JUMP JUMPDEST PUSH1 0x1 PUSH1 0x20 MSTORE DUP1 PUSH1 0x0 MSTORE PUSH1 0x40 PUSH1 0x0 KECCAK256 PUSH1 0x0 SWAP2 POP SWAP1 POP SLOAD DUP2 JUMP JUMPDEST PUSH1 0x0 DUP1 PUSH1 0x0 DUP4 DUP2 MSTORE PUSH1 0x20 ADD SWAP1 DUP2 MSTORE PUSH1 0x20 ADD PUSH1 0x0 KECCAK256 SWAP1 POP TIMESTAMP DUP2 PUSH1 0x1 ADD PUSH1 0x16 SWAP1 SLOAD SWAP1 PUSH2 0x100 EXP SWAP1 DIV PUSH4 0xFFFFFFFF AND PUSH4 0xFFFFFFFF AND GT PUSH2 0x5BA JUMPI PUSH1 0x40 MLOAD PUSH32 0x8C379A000000000000000000000000000000000000000000000000000000000 DUP2 MSTORE PUSH1 0x4 ADD PUSH2 0x5B1 SWAP1 PUSH2 0x1CBB JUMP JUMPDEST PUSH1 0x40 MLOAD DUP1 SWAP2 SUB SWAP1 REVERT JUMPDEST PUSH1 0x1 ISZERO ISZERO DUP2 PUSH1 0x1 ADD PUSH1 0x14 SWAP1 SLOAD SWAP1 PUSH2 0x100 EXP SWAP1 DIV PUSH1 0xFF AND ISZERO ISZERO EQ PUSH2 0x612 JUMPI PUSH1 0x40 MLOAD PUSH32 0x8C379A000000000000000000000000000000000000000000000000000000000 DUP2 MSTORE PUSH1 0x4 ADD PUSH2 0x609 SWAP1 PUSH2 0x1C7B JUMP JUMPDEST PUSH1 0x40 MLOAD DUP1 SWAP2 SUB SWAP1 REVERT JUMPDEST PUSH1 0x0 CALLVALUE DUP3 PUSH1 0x5 ADD PUSH1 0x0 CALLER PUSH20 0xFFFFFFFFFFFFFFFFFFFFFFFFFFFFFFFFFFFFFFFF AND PUSH20 0xFFFFFFFFFFFFFFFFFFFFFFFFFFFFFFFFFFFFFFFF AND DUP2 MSTORE PUSH1 0x20 ADD SWAP1 DUP2 MSTORE PUSH1 0x20 ADD PUSH1 0x0 KECCAK256 SLOAD PUSH2 0x661 SWAP2 SWAP1 PUSH2 0x1EF9 JUMP JUMPDEST SWAP1 POP DUP2 PUSH1 0x3 ADD SLOAD DUP2 GT DUP1 ISZERO PUSH2 0x679 JUMPI POP DUP2 PUSH1 0x4 ADD SLOAD DUP2 GT JUMPDEST PUSH2 0x6B8 JUMPI PUSH1 0x40 MLOAD PUSH32 0x8C379A000000000000000000000000000000000000000000000000000000000 DUP2 MSTORE PUSH1 0x4 ADD PUSH2 0x6AF SWAP1 PUSH2 0x1D7B JUMP JUMPDEST PUSH1 0x40 MLOAD DUP1 SWAP2 SUB SWAP1 REVERT JUMPDEST DUP1 DUP3 PUSH1 0x3 ADD DUP2 SWAP1 SSTORE POP CALLER DUP3 PUSH1 0x2 ADD PUSH1 0x0 PUSH2 0x100 EXP DUP2 SLOAD DUP2 PUSH20 0xFFFFFFFFFFFFFFFFFFFFFFFFFFFFFFFFFFFFFFFF MUL NOT AND SWAP1 DUP4 PUSH20 0xFFFFFFFFFFFFFFFFFFFFFFFFFFFFFFFFFFFFFFFF AND MUL OR SWAP1 SSTORE POP DUP3 CALLER PUSH20 0xFFFFFFFFFFFFFFFFFFFFFFFFFFFFFFFFFFFFFFFF AND PUSH32 0x19421268847F42DD61705778018DDFC43BCDCE8517E7A630ACB12F122C709481 CALLVALUE PUSH1 0x40 MLOAD PUSH2 0x74B SWAP2 SWAP1 PUSH2 0x1E1B JUMP JUMPDEST PUSH1 0x40 MLOAD DUP1 SWAP2 SUB SWAP1 LOG3 POP POP POP JUMP JUMPDEST PUSH32 0x0 DUP2 JUMP JUMPDEST PUSH1 0x2 PUSH1 0x20 MSTORE DUP1 PUSH1 0x0 MSTORE PUSH1 0x40 PUSH1 0x0 KECCAK256 PUSH1 0x0 SWAP2 POP SWAP1 POP SLOAD DUP2 JUMP JUMPDEST PUSH1 0x0 PUSH1 0x2 PUSH1 0x0 DUP4 DUP2 MSTORE PUSH1 0x20 ADD SWAP1 DUP2 MSTORE PUSH1 0x20 ADD PUSH1 0x0 KECCAK256 SLOAD GT PUSH2 0x7EA JUMPI PUSH1 0x40 MLOAD PUSH32 0x8C379A000000000000000000000000000000000000000000000000000000000 DUP2 MSTORE PUSH1 0x4 ADD PUSH2 0x7E1 SWAP1 PUSH2 0x1D3B JUMP JUMPDEST PUSH1 0x40 MLOAD DUP1 SWAP2 SUB SWAP1 REVERT JUMPDEST PUSH1 0x2 PUSH1 0x0 DUP3 DUP2 MSTORE PUSH1 0x20 ADD SWAP1 DUP2 MSTORE PUSH1 0x20 ADD PUSH1 0x0 KECCAK256 SLOAD CALLVALUE LT ISZERO PUSH2 0x840 JUMPI PUSH1 0x40 MLOAD PUSH32 0x8C379A000000000000000000000000000000000000000000000000000000000 DUP2 MSTORE PUSH1 0x4 ADD PUSH2 0x837 SWAP1 PUSH2 0x1C3B JUMP JUMPDEST PUSH1 0x40 MLOAD DUP1 SWAP2 SUB SWAP1 REVERT JUMPDEST PUSH1 0x0 PUSH32 0x0 PUSH20 0xFFFFFFFFFFFFFFFFFFFFFFFFFFFFFFFFFFFFFFFF AND PUSH4 0x6352211E DUP4 PUSH1 0x40 MLOAD DUP3 PUSH4 0xFFFFFFFF AND PUSH1 0xE0 SHL DUP2 MSTORE PUSH1 0x4 ADD PUSH2 0x89B SWAP2 SWAP1 PUSH2 0x1E1B JUMP JUMPDEST PUSH1 0x20 PUSH1 0x40 MLOAD DUP1 DUP4 SUB DUP2 DUP7 DUP1 EXTCODESIZE ISZERO DUP1 ISZERO PUSH2 0x8B3 JUMPI PUSH1 0x0 DUP1 REVERT JUMPDEST POP GAS STATICCALL ISZERO DUP1 ISZERO PUSH2 0x8C7 JUMPI RETURNDATASIZE PUSH1 0x0 DUP1 RETURNDATACOPY RETURNDATASIZE PUSH1 0x0 REVERT JUMPDEST POP POP POP POP PUSH1 0x40 MLOAD RETURNDATASIZE PUSH1 0x1F NOT PUSH1 0x1F DUP3 ADD AND DUP3 ADD DUP1 PUSH1 0x40 MSTORE POP DUP2 ADD SWAP1 PUSH2 0x8EB SWAP2 SWAP1 PUSH2 0x182C JUMP JUMPDEST SWAP1 POP PUSH32 0x0 PUSH20 0xFFFFFFFFFFFFFFFFFFFFFFFFFFFFFFFFFFFFFFFF AND PUSH4 0x23B872DD DUP3 CALLER DUP6 PUSH1 0x40 MLOAD DUP5 PUSH4 0xFFFFFFFF AND PUSH1 0xE0 SHL DUP2 MSTORE PUSH1 0x4 ADD PUSH2 0x94A SWAP4 SWAP3 SWAP2 SWAP1 PUSH2 0x1BE9 JUMP JUMPDEST PUSH1 0x0 PUSH1 0x40 MLOAD DUP1 DUP4 SUB DUP2 PUSH1 0x0 DUP8 DUP1 EXTCODESIZE ISZERO DUP1 ISZERO PUSH2 0x964 JUMPI PUSH1 0x0 DUP1 REVERT JUMPDEST POP GAS CALL ISZERO DUP1 ISZERO PUSH2 0x978 JUMPI RETURNDATASIZE PUSH1 0x0 DUP1 RETURNDATACOPY RETURNDATASIZE PUSH1 0x0 REVERT JUMPDEST POP POP POP POP PUSH1 0x0 DUP1 PUSH32 0x0 PUSH20 0xFFFFFFFFFFFFFFFFFFFFFFFFFFFFFFFFFFFFFFFF AND PUSH4 0x2A55205A DUP6 CALLVALUE PUSH1 0x40 MLOAD DUP4 PUSH4 0xFFFFFFFF AND PUSH1 0xE0 SHL DUP2 MSTORE PUSH1 0x4 ADD PUSH2 0x9DA SWAP3 SWAP2 SWAP1 PUSH2 0x1EB4 JUMP JUMPDEST PUSH1 0x40 DUP1 MLOAD DUP1 DUP4 SUB DUP2 DUP7 DUP1 EXTCODESIZE ISZERO DUP1 ISZERO PUSH2 0x9F1 JUMPI PUSH1 0x0 DUP1 REVERT JUMPDEST POP GAS STATICCALL ISZERO DUP1 ISZERO PUSH2 0xA05 JUMPI RETURNDATASIZE PUSH1 0x0 DUP1 RETURNDATACOPY RETURNDATASIZE PUSH1 0x0 REVERT JUMPDEST POP POP POP POP PUSH1 0x40 MLOAD RETURNDATASIZE PUSH1 0x1F NOT PUSH1 0x1F DUP3 ADD AND DUP3 ADD DUP1 PUSH1 0x40 MSTORE POP DUP2 ADD SWAP1 PUSH2 0xA29 SWAP2 SWAP1 PUSH2 0x1859 JUMP JUMPDEST SWAP2 POP SWAP2 POP DUP1 PUSH1 0x1 PUSH1 0x0 DUP5 PUSH20 0xFFFFFFFFFFFFFFFFFFFFFFFFFFFFFFFFFFFFFFFF AND PUSH20 0xFFFFFFFFFFFFFFFFFFFFFFFFFFFFFFFFFFFFFFFF AND DUP2 MSTORE PUSH1 0x20 ADD SWAP1 DUP2 MSTORE PUSH1 0x20 ADD PUSH1 0x0 KECCAK256 PUSH1 0x0 DUP3 DUP3 SLOAD PUSH2 0xA7C SWAP2 SWAP1 PUSH2 0x1EF9 JUMP JUMPDEST SWAP3 POP POP DUP2 SWAP1 SSTORE POP DUP1 CALLVALUE PUSH2 0xA8F SWAP2 SWAP1 PUSH2 0x1F4F JUMP JUMPDEST PUSH1 0x1 PUSH1 0x0 DUP6 PUSH20 0xFFFFFFFFFFFFFFFFFFFFFFFFFFFFFFFFFFFFFFFF AND PUSH20 0xFFFFFFFFFFFFFFFFFFFFFFFFFFFFFFFFFFFFFFFF AND DUP2 MSTORE PUSH1 0x20 ADD SWAP1 DUP2 MSTORE PUSH1 0x20 ADD PUSH1 0x0 KECCAK256 PUSH1 0x0 DUP3 DUP3 SLOAD PUSH2 0xADD SWAP2 SWAP1 PUSH2 0x1EF9 JUMP JUMPDEST SWAP3 POP POP DUP2 SWAP1 SSTORE POP DUP4 CALLER PUSH20 0xFFFFFFFFFFFFFFFFFFFFFFFFFFFFFFFFFFFFFFFF AND DUP5 PUSH20 0xFFFFFFFFFFFFFFFFFFFFFFFFFFFFFFFFFFFFFFFF AND PUSH32 0x7E3FA3DABD9E399E0C67487E26764A1B6D41FA839F397338FA4BE199588CC198 CALLVALUE PUSH1 0x40 MLOAD PUSH2 0xB42 SWAP2 SWAP1 PUSH2 0x1E1B JUMP JUMPDEST PUSH1 0x40 MLOAD DUP1 SWAP2 SUB SWAP1 LOG4 POP POP POP POP JUMP JUMPDEST PUSH1 0x0 PUSH32 0x0 PUSH20 0xFFFFFFFFFFFFFFFFFFFFFFFFFFFFFFFFFFFFFFFF AND PUSH4 0x6352211E DUP6 PUSH1 0x40 MLOAD DUP3 PUSH4 0xFFFFFFFF AND PUSH1 0xE0 SHL DUP2 MSTORE PUSH1 0x4 ADD PUSH2 0xBAB SWAP2 SWAP1 PUSH2 0x1E1B JUMP JUMPDEST PUSH1 0x20 PUSH1 0x40 MLOAD DUP1 DUP4 SUB DUP2 DUP7 DUP1 EXTCODESIZE ISZERO DUP1 ISZERO PUSH2 0xBC3 JUMPI PUSH1 0x0 DUP1 REVERT JUMPDEST POP GAS STATICCALL ISZERO DUP1 ISZERO PUSH2 0xBD7 JUMPI RETURNDATASIZE PUSH1 0x0 DUP1 RETURNDATACOPY RETURNDATASIZE PUSH1 0x0 REVERT JUMPDEST POP POP POP POP PUSH1 0x40 MLOAD RETURNDATASIZE PUSH1 0x1F NOT PUSH1 0x1F DUP3 ADD AND DUP3 ADD DUP1 PUSH1 0x40 MSTORE POP DUP2 ADD SWAP1 PUSH2 0xBFB SWAP2 SWAP1 PUSH2 0x182C JUMP JUMPDEST SWAP1 POP DUP1 PUSH20 0xFFFFFFFFFFFFFFFFFFFFFFFFFFFFFFFFFFFFFFFF AND CALLER PUSH20 0xFFFFFFFFFFFFFFFFFFFFFFFFFFFFFFFFFFFFFFFF AND EQ PUSH2 0xC6B JUMPI PUSH1 0x40 MLOAD PUSH32 0x8C379A000000000000000000000000000000000000000000000000000000000 DUP2 MSTORE PUSH1 0x4 ADD PUSH2 0xC62 SWAP1 PUSH2 0x1D1B JUMP JUMPDEST PUSH1 0x40 MLOAD DUP1 SWAP2 SUB SWAP1 REVERT JUMPDEST PUSH32 0x0 PUSH20 0xFFFFFFFFFFFFFFFFFFFFFFFFFFFFFFFFFFFFFFFF AND PUSH4 0x23B872DD DUP3 ADDRESS DUP8 PUSH1 0x40 MLOAD DUP5 PUSH4 0xFFFFFFFF AND PUSH1 0xE0 SHL DUP2 MSTORE PUSH1 0x4 ADD PUSH2 0xCC8 SWAP4 SWAP3 SWAP2 SWAP1 PUSH2 0x1BE9 JUMP JUMPDEST PUSH1 0x0 PUSH1 0x40 MLOAD DUP1 DUP4 SUB DUP2 PUSH1 0x0 DUP8 DUP1 EXTCODESIZE ISZERO DUP1 ISZERO PUSH2 0xCE2 JUMPI PUSH1 0x0 DUP1 REVERT JUMPDEST POP GAS CALL ISZERO DUP1 ISZERO PUSH2 0xCF6 JUMPI RETURNDATASIZE PUSH1 0x0 DUP1 RETURNDATACOPY RETURNDATASIZE PUSH1 0x0 REVERT JUMPDEST POP POP POP POP PUSH1 0x0 DUP1 PUSH1 0x0 DUP7 DUP2 MSTORE PUSH1 0x20 ADD SWAP1 DUP2 MSTORE PUSH1 0x20 ADD PUSH1 0x0 KECCAK256 SWAP1 POP DUP2 DUP2 PUSH1 0x1 ADD PUSH1 0x0 PUSH2 0x100 EXP DUP2 SLOAD DUP2 PUSH20 0xFFFFFFFFFFFFFFFFFFFFFFFFFFFFFFFFFFFFFFFF MUL NOT AND SWAP1 DUP4 PUSH20 0xFFFFFFFFFFFFFFFFFFFFFFFFFFFFFFFFFFFFFFFF AND MUL OR SWAP1 SSTORE POP DUP3 PUSH4 0xFFFFFFFF AND TIMESTAMP PUSH2 0xD65 SWAP2 SWAP1 PUSH2 0x1EF9 JUMP JUMPDEST DUP2 PUSH1 0x1 ADD PUSH1 0x16 PUSH2 0x100 EXP DUP2 SLOAD DUP2 PUSH4 0xFFFFFFFF MUL NOT AND SWAP1 DUP4 PUSH4 0xFFFFFFFF AND MUL OR SWAP1 SSTORE POP DUP5 DUP2 PUSH1 0x0 ADD DUP2 SWAP1 SSTORE POP DUP4 DUP2 PUSH1 0x4 ADD DUP2 SWAP1 SSTORE POP PUSH1 0x0 DUP2 PUSH1 0x1 ADD PUSH1 0x15 PUSH2 0x100 EXP DUP2 SLOAD DUP2 PUSH1 0xFF MUL NOT AND SWAP1 DUP4 ISZERO ISZERO MUL OR SWAP1 SSTORE POP PUSH1 0x1 DUP2 PUSH1 0x1 ADD PUSH1 0x14 PUSH2 0x100 EXP DUP2 SLOAD DUP2 PUSH1 0xFF MUL NOT AND SWAP1 DUP4 ISZERO ISZERO MUL OR SWAP1 SSTORE POP DUP2 DUP2 PUSH1 0x2 ADD PUSH1 0x0 PUSH2 0x100 EXP DUP2 SLOAD DUP2 PUSH20 0xFFFFFFFFFFFFFFFFFFFFFFFFFFFFFFFFFFFFFFFF MUL NOT AND SWAP1 DUP4 PUSH20 0xFFFFFFFFFFFFFFFFFFFFFFFFFFFFFFFFFFFFFFFF AND MUL OR SWAP1 SSTORE POP DUP5 DUP3 PUSH20 0xFFFFFFFFFFFFFFFFFFFFFFFFFFFFFFFFFFFFFFFF AND PUSH32 0xCFB9C5312B25EC7B809D61E638DF25F749EAE5D5C25399E1C93D1D319BFD5821 PUSH1 0x40 MLOAD PUSH1 0x40 MLOAD DUP1 SWAP2 SUB SWAP1 LOG3 POP POP POP POP POP JUMP JUMPDEST PUSH1 0x0 PUSH1 0x1 PUSH1 0x0 CALLER PUSH20 0xFFFFFFFFFFFFFFFFFFFFFFFFFFFFFFFFFFFFFFFF AND PUSH20 0xFFFFFFFFFFFFFFFFFFFFFFFFFFFFFFFFFFFFFFFF AND DUP2 MSTORE PUSH1 0x20 ADD SWAP1 DUP2 MSTORE PUSH1 0x20 ADD PUSH1 0x0 KECCAK256 SLOAD GT PUSH2 0xEE3 JUMPI PUSH1 0x40 MLOAD PUSH32 0x8C379A000000000000000000000000000000000000000000000000000000000 DUP2 MSTORE PUSH1 0x4 ADD PUSH2 0xEDA SWAP1 PUSH2 0x1D9B JUMP JUMPDEST PUSH1 0x40 MLOAD DUP1 SWAP2 SUB SWAP1 REVERT JUMPDEST PUSH1 0x0 PUSH1 0x1 PUSH1 0x0 CALLER PUSH20 0xFFFFFFFFFFFFFFFFFFFFFFFFFFFFFFFFFFFFFFFF AND PUSH20 0xFFFFFFFFFFFFFFFFFFFFFFFFFFFFFFFFFFFFFFFF AND DUP2 MSTORE PUSH1 0x20 ADD SWAP1 DUP2 MSTORE PUSH1 0x20 ADD PUSH1 0x0 KECCAK256 SLOAD SWAP1 POP PUSH1 0x0 PUSH1 0x1 PUSH1 0x0 CALLER PUSH20 0xFFFFFFFFFFFFFFFFFFFFFFFFFFFFFFFFFFFFFFFF AND PUSH20 0xFFFFFFFFFFFFFFFFFFFFFFFFFFFFFFFFFFFFFFFF AND DUP2 MSTORE PUSH1 0x20 ADD SWAP1 DUP2 MSTORE PUSH1 0x20 ADD PUSH1 0x0 KECCAK256 DUP2 SWAP1 SSTORE POP PUSH1 0x0 CALLER PUSH20 0xFFFFFFFFFFFFFFFFFFFFFFFFFFFFFFFFFFFFFFFF AND DUP3 PUSH1 0x40 MLOAD PUSH2 0xF92 SWAP1 PUSH2 0x1BD4 JUMP JUMPDEST PUSH1 0x0 PUSH1 0x40 MLOAD DUP1 DUP4 SUB DUP2 DUP6 DUP8 GAS CALL SWAP3 POP POP POP RETURNDATASIZE DUP1 PUSH1 0x0 DUP2 EQ PUSH2 0xFCF JUMPI PUSH1 0x40 MLOAD SWAP2 POP PUSH1 0x1F NOT PUSH1 0x3F RETURNDATASIZE ADD AND DUP3 ADD PUSH1 0x40 MSTORE RETURNDATASIZE DUP3 MSTORE RETURNDATASIZE PUSH1 0x0 PUSH1 0x20 DUP5 ADD RETURNDATACOPY PUSH2 0xFD4 JUMP JUMPDEST PUSH1 0x60 SWAP2 POP JUMPDEST POP POP SWAP1 POP DUP1 PUSH2 0x1018 JUMPI PUSH1 0x40 MLOAD PUSH32 0x8C379A000000000000000000000000000000000000000000000000000000000 DUP2 MSTORE PUSH1 0x4 ADD PUSH2 0x100F SWAP1 PUSH2 0x1DDB JUMP JUMPDEST PUSH1 0x40 MLOAD DUP1 SWAP2 SUB SWAP1 REVERT JUMPDEST CALLER PUSH20 0xFFFFFFFFFFFFFFFFFFFFFFFFFFFFFFFFFFFFFFFF AND PUSH32 0x884EDAD9CE6FA2440D8A54CC123490EB96D2768479D49FF9C7366125A9424364 DUP4 PUSH1 0x40 MLOAD PUSH2 0x105E SWAP2 SWAP1 PUSH2 0x1E1B JUMP JUMPDEST PUSH1 0x40 MLOAD DUP1 SWAP2 SUB SWAP1 LOG2 POP POP JUMP JUMPDEST PUSH1 0x0 DUP1 PUSH1 0x0 DUP4 DUP2 MSTORE PUSH1 0x20 ADD SWAP1 DUP2 MSTORE PUSH1 0x20 ADD PUSH1 0x0 KECCAK256 SWAP1 POP DUP1 PUSH1 0x1 ADD PUSH1 0x14 SWAP1 SLOAD SWAP1 PUSH2 0x100 EXP SWAP1 DIV PUSH1 0xFF AND PUSH2 0x10D1 JUMPI PUSH1 0x40 MLOAD PUSH32 0x8C379A000000000000000000000000000000000000000000000000000000000 DUP2 MSTORE PUSH1 0x4 ADD PUSH2 0x10C8 SWAP1 PUSH2 0x1C7B JUMP JUMPDEST PUSH1 0x40 MLOAD DUP1 SWAP2 SUB SWAP1 REVERT JUMPDEST PUSH1 0x0 ISZERO ISZERO DUP2 PUSH1 0x1 ADD PUSH1 0x15 SWAP1 SLOAD SWAP1 PUSH2 0x100 EXP SWAP1 DIV PUSH1 0xFF AND ISZERO ISZERO EQ PUSH2 0x1129 JUMPI PUSH1 0x40 MLOAD PUSH32 0x8C379A000000000000000000000000000000000000000000000000000000000 DUP2 MSTORE PUSH1 0x4 ADD PUSH2 0x1120 SWAP1 PUSH2 0x1CDB JUMP JUMPDEST PUSH1 0x40 MLOAD DUP1 SWAP2 SUB SWAP1 REVERT JUMPDEST TIMESTAMP DUP2 PUSH1 0x1 ADD PUSH1 0x16 SWAP1 SLOAD SWAP1 PUSH2 0x100 EXP SWAP1 DIV PUSH4 0xFFFFFFFF AND PUSH4 0xFFFFFFFF AND GT ISZERO PUSH2 0x1186 JUMPI PUSH1 0x40 MLOAD PUSH32 0x8C379A000000000000000000000000000000000000000000000000000000000 DUP2 MSTORE PUSH1 0x4 ADD PUSH2 0x117D SWAP1 PUSH2 0x1CFB JUMP JUMPDEST PUSH1 0x40 MLOAD DUP1 SWAP2 SUB SWAP1 REVERT JUMPDEST PUSH1 0x1 DUP2 PUSH1 0x1 ADD PUSH1 0x15 PUSH2 0x100 EXP DUP2 SLOAD DUP2 PUSH1 0xFF MUL NOT AND SWAP1 DUP4 ISZERO ISZERO MUL OR SWAP1 SSTORE POP PUSH1 0x0 DUP2 PUSH1 0x3 ADD SLOAD GT ISZERO PUSH2 0x134D JUMPI PUSH1 0x0 DUP1 PUSH32 0x0 PUSH20 0xFFFFFFFFFFFFFFFFFFFFFFFFFFFFFFFFFFFFFFFF AND PUSH4 0x2A55205A DUP6 DUP6 PUSH1 0x3 ADD SLOAD PUSH1 0x40 MLOAD DUP4 PUSH4 0xFFFFFFFF AND PUSH1 0xE0 SHL DUP2 MSTORE PUSH1 0x4 ADD PUSH2 0x1212 SWAP3 SWAP2 SWAP1 PUSH2 0x1EB4 JUMP JUMPDEST PUSH1 0x40 DUP1 MLOAD DUP1 DUP4 SUB DUP2 DUP7 DUP1 EXTCODESIZE ISZERO DUP1 ISZERO PUSH2 0x1229 JUMPI PUSH1 0x0 DUP1 REVERT JUMPDEST POP GAS STATICCALL ISZERO DUP1 ISZERO PUSH2 0x123D JUMPI RETURNDATASIZE PUSH1 0x0 DUP1 RETURNDATACOPY RETURNDATASIZE PUSH1 0x0 REVERT JUMPDEST POP POP POP POP PUSH1 0x40 MLOAD RETURNDATASIZE PUSH1 0x1F NOT PUSH1 0x1F DUP3 ADD AND DUP3 ADD DUP1 PUSH1 0x40 MSTORE POP DUP2 ADD SWAP1 PUSH2 0x1261 SWAP2 SWAP1 PUSH2 0x1859 JUMP JUMPDEST SWAP2 POP SWAP2 POP PUSH1 0x0 DUP2 DUP5 PUSH1 0x3 ADD SLOAD PUSH2 0x1277 SWAP2 SWAP1 PUSH2 0x1F4F JUMP JUMPDEST SWAP1 POP DUP1 PUSH1 0x1 PUSH1 0x0 DUP7 PUSH1 0x1 ADD PUSH1 0x0 SWAP1 SLOAD SWAP1 PUSH2 0x100 EXP SWAP1 DIV PUSH20 0xFFFFFFFFFFFFFFFFFFFFFFFFFFFFFFFFFFFFFFFF AND PUSH20 0xFFFFFFFFFFFFFFFFFFFFFFFFFFFFFFFFFFFFFFFF AND PUSH20 0xFFFFFFFFFFFFFFFFFFFFFFFFFFFFFFFFFFFFFFFF AND DUP2 MSTORE PUSH1 0x20 ADD SWAP1 DUP2 MSTORE PUSH1 0x20 ADD PUSH1 0x0 KECCAK256 PUSH1 0x0 DUP3 DUP3 SLOAD PUSH2 0x12EC SWAP2 SWAP1 PUSH2 0x1EF9 JUMP JUMPDEST SWAP3 POP POP DUP2 SWAP1 SSTORE POP DUP2 PUSH1 0x1 PUSH1 0x0 DUP6 PUSH20 0xFFFFFFFFFFFFFFFFFFFFFFFFFFFFFFFFFFFFFFFF AND PUSH20 0xFFFFFFFFFFFFFFFFFFFFFFFFFFFFFFFFFFFFFFFF AND DUP2 MSTORE PUSH1 0x20 ADD SWAP1 DUP2 MSTORE PUSH1 0x20 ADD PUSH1 0x0 KECCAK256 PUSH1 0x0 DUP3 DUP3 SLOAD PUSH2 0x1342 SWAP2 SWAP1 PUSH2 0x1EF9 JUMP JUMPDEST SWAP3 POP POP DUP2 SWAP1 SSTORE POP POP POP POP JUMPDEST DUP2 DUP2 PUSH1 0x2 ADD PUSH1 0x0 SWAP1 SLOAD SWAP1 PUSH2 0x100 EXP SWAP1 DIV PUSH20 0xFFFFFFFFFFFFFFFFFFFFFFFFFFFFFFFFFFFFFFFF AND PUSH20 0xFFFFFFFFFFFFFFFFFFFFFFFFFFFFFFFFFFFFFFFF AND PUSH32 0xF58CFA488D8D9DDD26DDFC3DD52F23711C05CB37DB31BDA0B1B27D1BDFB56E53 DUP4 PUSH1 0x3 ADD SLOAD PUSH1 0x40 MLOAD PUSH2 0x13BC SWAP2 SWAP1 PUSH2 0x1E1B JUMP JUMPDEST PUSH1 0x40 MLOAD DUP1 SWAP2 SUB SWAP1 LOG3 POP POP JUMP JUMPDEST PUSH1 0x0 DUP1 PUSH1 0x0 DUP4 DUP2 MSTORE PUSH1 0x20 ADD SWAP1 DUP2 MSTORE PUSH1 0x20 ADD PUSH1 0x0 KECCAK256 SWAP1 POP TIMESTAMP DUP2 PUSH1 0x1 ADD PUSH1 0x16 SWAP1 SLOAD SWAP1 PUSH2 0x100 EXP SWAP1 DIV PUSH4 0xFFFFFFFF AND PUSH4 0xFFFFFFFF AND GT ISZERO PUSH2 0x143B JUMPI PUSH1 0x40 MLOAD PUSH32 0x8C379A000000000000000000000000000000000000000000000000000000000 DUP2 MSTORE PUSH1 0x4 ADD PUSH2 0x1432 SWAP1 PUSH2 0x1DFB JUMP JUMPDEST PUSH1 0x40 MLOAD DUP1 SWAP2 SUB SWAP1 REVERT JUMPDEST PUSH1 0x0 DUP2 PUSH1 0x2 ADD PUSH1 0x0 SWAP1 SLOAD SWAP1 PUSH2 0x100 EXP SWAP1 DIV PUSH20 0xFFFFFFFFFFFFFFFFFFFFFFFFFFFFFFFFFFFFFFFF AND SWAP1 POP PUSH1 0x0 PUSH20 0xFFFFFFFFFFFFFFFFFFFFFFFFFFFFFFFFFFFFFFFF AND DUP2 PUSH20 0xFFFFFFFFFFFFFFFFFFFFFFFFFFFFFFFFFFFFFFFF AND EQ ISZERO PUSH2 0x14D4 JUMPI PUSH1 0x40 MLOAD PUSH32 0x8C379A000000000000000000000000000000000000000000000000000000000 DUP2 MSTORE PUSH1 0x4 ADD PUSH2 0x14CB SWAP1 PUSH2 0x1C9B JUMP JUMPDEST PUSH1 0x40 MLOAD DUP1 SWAP2 SUB SWAP1 REVERT JUMPDEST PUSH32 0x0 PUSH20 0xFFFFFFFFFFFFFFFFFFFFFFFFFFFFFFFFFFFFFFFF AND PUSH4 0x23B872DD ADDRESS DUP4 DUP7 PUSH1 0x40 MLOAD DUP5 PUSH4 0xFFFFFFFF AND PUSH1 0xE0 SHL DUP2 MSTORE PUSH1 0x4 ADD PUSH2 0x1531 SWAP4 SWAP3 SWAP2 SWAP1 PUSH2 0x1BE9 JUMP JUMPDEST PUSH1 0x0 PUSH1 0x40 MLOAD DUP1 DUP4 SUB DUP2 PUSH1 0x0 DUP8 DUP1 EXTCODESIZE ISZERO DUP1 ISZERO PUSH2 0x154B JUMPI PUSH1 0x0 DUP1 REVERT JUMPDEST POP GAS CALL ISZERO DUP1 ISZERO PUSH2 0x155F JUMPI RETURNDATASIZE PUSH1 0x0 DUP1 RETURNDATACOPY RETURNDATASIZE PUSH1 0x0 REVERT JUMPDEST POP POP POP POP DUP3 DUP2 PUSH20 0xFFFFFFFFFFFFFFFFFFFFFFFFFFFFFFFFFFFFFFFF AND PUSH32 0xAAF9CA8F61F9510FD9363DD9106D8FE225C4FC1C935F0778021747735A6CA30A PUSH1 0x40 MLOAD PUSH1 0x40 MLOAD DUP1 SWAP2 SUB SWAP1 LOG3 POP POP POP JUMP JUMPDEST PUSH1 0x0 PUSH1 0x20 MSTORE DUP1 PUSH1 0x0 MSTORE PUSH1 0x40 PUSH1 0x0 KECCAK256 PUSH1 0x0 SWAP2 POP SWAP1 POP DUP1 PUSH1 0x0 ADD SLOAD SWAP1 DUP1 PUSH1 0x1 ADD PUSH1 0x0 SWAP1 SLOAD SWAP1 PUSH2 0x100 EXP SWAP1 DIV PUSH20 0xFFFFFFFFFFFFFFFFFFFFFFFFFFFFFFFFFFFFFFFF AND SWAP1 DUP1 PUSH1 0x1 ADD PUSH1 0x14 SWAP1 SLOAD SWAP1 PUSH2 0x100 EXP SWAP1 DIV PUSH1 0xFF AND SWAP1 DUP1 PUSH1 0x1 ADD PUSH1 0x15 SWAP1 SLOAD SWAP1 PUSH2 0x100 EXP SWAP1 DIV PUSH1 0xFF AND SWAP1 DUP1 PUSH1 0x1 ADD PUSH1 0x16 SWAP1 SLOAD SWAP1 PUSH2 0x100 EXP SWAP1 DIV PUSH4 0xFFFFFFFF AND SWAP1 DUP1 PUSH1 0x2 ADD PUSH1 0x0 SWAP1 SLOAD SWAP1 PUSH2 0x100 EXP SWAP1 DIV PUSH20 0xFFFFFFFFFFFFFFFFFFFFFFFFFFFFFFFFFFFFFFFF AND SWAP1 DUP1 PUSH1 0x3 ADD SLOAD SWAP1 DUP1 PUSH1 0x4 ADD SLOAD SWAP1 POP DUP9 JUMP JUMPDEST PUSH1 0x0 PUSH32 0x0 PUSH20 0xFFFFFFFFFFFFFFFFFFFFFFFFFFFFFFFFFFFFFFFF AND PUSH4 0x6352211E DUP5 PUSH1 0x40 MLOAD DUP3 PUSH4 0xFFFFFFFF AND PUSH1 0xE0 SHL DUP2 MSTORE PUSH1 0x4 ADD PUSH2 0x16B9 SWAP2 SWAP1 PUSH2 0x1E1B JUMP JUMPDEST PUSH1 0x20 PUSH1 0x40 MLOAD DUP1 DUP4 SUB DUP2 DUP7 DUP1 EXTCODESIZE ISZERO DUP1 ISZERO PUSH2 0x16D1 JUMPI PUSH1 0x0 DUP1 REVERT JUMPDEST POP GAS STATICCALL ISZERO DUP1 ISZERO PUSH2 0x16E5 JUMPI RETURNDATASIZE PUSH1 0x0 DUP1 RETURNDATACOPY RETURNDATASIZE PUSH1 0x0 REVERT JUMPDEST POP POP POP POP PUSH1 0x40 MLOAD RETURNDATASIZE PUSH1 0x1F NOT PUSH1 0x1F DUP3 ADD AND DUP3 ADD DUP1 PUSH1 0x40 MSTORE POP DUP2 ADD SWAP1 PUSH2 0x1709 SWAP2 SWAP1 PUSH2 0x182C JUMP JUMPDEST SWAP1 POP DUP1 PUSH20 0xFFFFFFFFFFFFFFFFFFFFFFFFFFFFFFFFFFFFFFFF AND CALLER PUSH20 0xFFFFFFFFFFFFFFFFFFFFFFFFFFFFFFFFFFFFFFFF AND EQ PUSH2 0x1779 JUMPI PUSH1 0x40 MLOAD PUSH32 0x8C379A000000000000000000000000000000000000000000000000000000000 DUP2 MSTORE PUSH1 0x4 ADD PUSH2 0x1770 SWAP1 PUSH2 0x1DBB JUMP JUMPDEST PUSH1 0x40 MLOAD DUP1 SWAP2 SUB SWAP1 REVERT JUMPDEST DUP2 PUSH1 0x2 PUSH1 0x0 DUP6 DUP2 MSTORE PUSH1 0x20 ADD SWAP1 DUP2 MSTORE PUSH1 0x20 ADD PUSH1 0x0 KECCAK256 DUP2 SWAP1 SSTORE POP POP POP POP JUMP JUMPDEST PUSH1 0x0 DUP2 CALLDATALOAD SWAP1 POP PUSH2 0x17A5 DUP2 PUSH2 0x22AF JUMP JUMPDEST SWAP3 SWAP2 POP POP JUMP JUMPDEST PUSH1 0x0 DUP2 MLOAD SWAP1 POP PUSH2 0x17BA DUP2 PUSH2 0x22AF JUMP JUMPDEST SWAP3 SWAP2 POP POP JUMP JUMPDEST PUSH1 0x0 DUP2 CALLDATALOAD SWAP1 POP PUSH2 0x17CF DUP2 PUSH2 0x22C6 JUMP JUMPDEST SWAP3 SWAP2 POP POP JUMP JUMPDEST PUSH1 0x0 DUP2 MLOAD SWAP1 POP PUSH2 0x17E4 DUP2 PUSH2 0x22C6 JUMP JUMPDEST SWAP3 SWAP2 POP POP JUMP JUMPDEST PUSH1 0x0 DUP2 CALLDATALOAD SWAP1 POP PUSH2 0x17F9 DUP2 PUSH2 0x22DD JUMP JUMPDEST SWAP3 SWAP2 POP POP JUMP JUMPDEST PUSH1 0x0 PUSH1 0x20 DUP3 DUP5 SUB SLT ISZERO PUSH2 0x1815 JUMPI PUSH2 0x1814 PUSH2 0x2040 JUMP JUMPDEST JUMPDEST PUSH1 0x0 PUSH2 0x1823 DUP5 DUP3 DUP6 ADD PUSH2 0x1796 JUMP JUMPDEST SWAP2 POP POP SWAP3 SWAP2 POP POP JUMP JUMPDEST PUSH1 0x0 PUSH1 0x20 DUP3 DUP5 SUB SLT ISZERO PUSH2 0x1842 JUMPI PUSH2 0x1841 PUSH2 0x2040 JUMP JUMPDEST JUMPDEST PUSH1 0x0 PUSH2 0x1850 DUP5 DUP3 DUP6 ADD PUSH2 0x17AB JUMP JUMPDEST SWAP2 POP POP SWAP3 SWAP2 POP POP JUMP JUMPDEST PUSH1 0x0 DUP1 PUSH1 0x40 DUP4 DUP6 SUB SLT ISZERO PUSH2 0x1870 JUMPI PUSH2 0x186F PUSH2 0x2040 JUMP JUMPDEST JUMPDEST PUSH1 0x0 PUSH2 0x187E DUP6 DUP3 DUP7 ADD PUSH2 0x17AB JUMP JUMPDEST SWAP3 POP POP PUSH1 0x20 PUSH2 0x188F DUP6 DUP3 DUP7 ADD PUSH2 0x17D5 JUMP JUMPDEST SWAP2 POP POP SWAP3 POP SWAP3 SWAP1 POP JUMP JUMPDEST PUSH1 0x0 PUSH1 0x20 DUP3 DUP5 SUB SLT ISZERO PUSH2 0x18AF JUMPI PUSH2 0x18AE PUSH2 0x2040 JUMP JUMPDEST JUMPDEST PUSH1 0x0 PUSH2 0x18BD DUP5 DUP3 DUP6 ADD PUSH2 0x17C0 JUMP JUMPDEST SWAP2 POP POP SWAP3 SWAP2 POP POP JUMP JUMPDEST PUSH1 0x0 DUP1 PUSH1 0x40 DUP4 DUP6 SUB SLT ISZERO PUSH2 0x18DD JUMPI PUSH2 0x18DC PUSH2 0x2040 JUMP JUMPDEST JUMPDEST PUSH1 0x0 PUSH2 0x18EB DUP6 DUP3 DUP7 ADD PUSH2 0x17C0 JUMP JUMPDEST SWAP3 POP POP PUSH1 0x20 PUSH2 0x18FC DUP6 DUP3 DUP7 ADD PUSH2 0x17C0 JUMP JUMPDEST SWAP2 POP POP SWAP3 POP SWAP3 SWAP1 POP JUMP JUMPDEST PUSH1 0x0 DUP1 PUSH1 0x0 PUSH1 0x60 DUP5 DUP7 SUB SLT ISZERO PUSH2 0x191F JUMPI PUSH2 0x191E PUSH2 0x2040 JUMP JUMPDEST JUMPDEST PUSH1 0x0 PUSH2 0x192D DUP7 DUP3 DUP8 ADD PUSH2 0x17C0 JUMP JUMPDEST SWAP4 POP POP PUSH1 0x20 PUSH2 0x193E DUP7 DUP3 DUP8 ADD PUSH2 0x17C0 JUMP JUMPDEST SWAP3 POP POP PUSH1 0x40 PUSH2 0x194F DUP7 DUP3 DUP8 ADD PUSH2 0x17EA JUMP JUMPDEST SWAP2 POP POP SWAP3 POP SWAP3 POP SWAP3 JUMP JUMPDEST PUSH2 0x1962 DUP2 PUSH2 0x1F83 JUMP JUMPDEST DUP3 MSTORE POP POP JUMP JUMPDEST PUSH2 0x1971 DUP2 PUSH2 0x1F95 JUMP JUMPDEST DUP3 MSTORE POP POP JUMP JUMPDEST PUSH2 0x1980 DUP2 PUSH2 0x1FDB JUMP JUMPDEST DUP3 MSTORE POP POP JUMP JUMPDEST PUSH1 0x0 PUSH2 0x1993 PUSH1 0x10 DUP4 PUSH2 0x1EE8 JUMP JUMPDEST SWAP2 POP PUSH2 0x199E DUP3 PUSH2 0x2045 JUMP JUMPDEST PUSH1 0x20 DUP3 ADD SWAP1 POP SWAP2 SWAP1 POP JUMP JUMPDEST PUSH1 0x0 PUSH2 0x19B6 PUSH1 0x16 DUP4 PUSH2 0x1EE8 JUMP JUMPDEST SWAP2 POP PUSH2 0x19C1 DUP3 PUSH2 0x206E JUMP JUMPDEST PUSH1 0x20 DUP3 ADD SWAP1 POP SWAP2 SWAP1 POP JUMP JUMPDEST PUSH1 0x0 PUSH2 0x19D9 PUSH1 0xB DUP4 PUSH2 0x1EE8 JUMP JUMPDEST SWAP2 POP PUSH2 0x19E4 DUP3 PUSH2 0x2097 JUMP JUMPDEST PUSH1 0x20 DUP3 ADD SWAP1 POP SWAP2 SWAP1 POP JUMP JUMPDEST PUSH1 0x0 PUSH2 0x19FC PUSH1 0xB DUP4 PUSH2 0x1EE8 JUMP JUMPDEST SWAP2 POP PUSH2 0x1A07 DUP3 PUSH2 0x20C0 JUMP JUMPDEST PUSH1 0x20 DUP3 ADD SWAP1 POP SWAP2 SWAP1 POP JUMP JUMPDEST PUSH1 0x0 PUSH2 0x1A1F PUSH1 0x5 DUP4 PUSH2 0x1EE8 JUMP JUMPDEST SWAP2 POP PUSH2 0x1A2A DUP3 PUSH2 0x20E9 JUMP JUMPDEST PUSH1 0x20 DUP3 ADD SWAP1 POP SWAP2 SWAP1 POP JUMP JUMPDEST PUSH1 0x0 PUSH2 0x1A42 PUSH1 0xB DUP4 PUSH2 0x1EE8 JUMP JUMPDEST SWAP2 POP PUSH2 0x1A4D DUP3 PUSH2 0x2112 JUMP JUMPDEST PUSH1 0x20 DUP3 ADD SWAP1 POP SWAP2 SWAP1 POP JUMP JUMPDEST PUSH1 0x0 PUSH2 0x1A65 PUSH1 0x9 DUP4 PUSH2 0x1EE8 JUMP JUMPDEST SWAP2 POP PUSH2 0x1A70 DUP3 PUSH2 0x213B JUMP JUMPDEST PUSH1 0x20 DUP3 ADD SWAP1 POP SWAP2 SWAP1 POP JUMP JUMPDEST PUSH1 0x0 PUSH2 0x1A88 PUSH1 0x9 DUP4 PUSH2 0x1EE8 JUMP JUMPDEST SWAP2 POP PUSH2 0x1A93 DUP3 PUSH2 0x2164 JUMP JUMPDEST PUSH1 0x20 DUP3 ADD SWAP1 POP SWAP2 SWAP1 POP JUMP JUMPDEST PUSH1 0x0 PUSH2 0x1AAB PUSH1 0x0 DUP4 PUSH2 0x1EDD JUMP JUMPDEST SWAP2 POP PUSH2 0x1AB6 DUP3 PUSH2 0x218D JUMP JUMPDEST PUSH1 0x0 DUP3 ADD SWAP1 POP SWAP2 SWAP1 POP JUMP JUMPDEST PUSH1 0x0 PUSH2 0x1ACE PUSH1 0xB DUP4 PUSH2 0x1EE8 JUMP JUMPDEST SWAP2 POP PUSH2 0x1AD9 DUP3 PUSH2 0x2190 JUMP JUMPDEST PUSH1 0x20 DUP3 ADD SWAP1 POP SWAP2 SWAP1 POP JUMP JUMPDEST PUSH1 0x0 PUSH2 0x1AF1 PUSH1 0xC DUP4 PUSH2 0x1EE8 JUMP JUMPDEST SWAP2 POP PUSH2 0x1AFC DUP3 PUSH2 0x21B9 JUMP JUMPDEST PUSH1 0x20 DUP3 ADD SWAP1 POP SWAP2 SWAP1 POP JUMP JUMPDEST PUSH1 0x0 PUSH2 0x1B14 PUSH1 0x1C DUP4 PUSH2 0x1EE8 JUMP JUMPDEST SWAP2 POP PUSH2 0x1B1F DUP3 PUSH2 0x21E2 JUMP JUMPDEST PUSH1 0x20 DUP3 ADD SWAP1 POP SWAP2 SWAP1 POP JUMP JUMPDEST PUSH1 0x0 PUSH2 0x1B37 PUSH1 0xF DUP4 PUSH2 0x1EE8 JUMP JUMPDEST SWAP2 POP PUSH2 0x1B42 DUP3 PUSH2 0x220B JUMP JUMPDEST PUSH1 0x20 DUP3 ADD SWAP1 POP SWAP2 SWAP1 POP JUMP JUMPDEST PUSH1 0x0 PUSH2 0x1B5A PUSH1 0x9 DUP4 PUSH2 0x1EE8 JUMP JUMPDEST SWAP2 POP PUSH2 0x1B65 DUP3 PUSH2 0x2234 JUMP JUMPDEST PUSH1 0x20 DUP3 ADD SWAP1 POP SWAP2 SWAP1 POP JUMP JUMPDEST PUSH1 0x0 PUSH2 0x1B7D PUSH1 0x12 DUP4 PUSH2 0x1EE8 JUMP JUMPDEST SWAP2 POP PUSH2 0x1B88 DUP3 PUSH2 0x225D JUMP JUMPDEST PUSH1 0x20 DUP3 ADD SWAP1 POP SWAP2 SWAP1 POP JUMP JUMPDEST PUSH1 0x0 PUSH2 0x1BA0 PUSH1 0x9 DUP4 PUSH2 0x1EE8 JUMP JUMPDEST SWAP2 POP PUSH2 0x1BAB DUP3 PUSH2 0x2286 JUMP JUMPDEST PUSH1 0x20 DUP3 ADD SWAP1 POP SWAP2 SWAP1 POP JUMP JUMPDEST PUSH2 0x1BBF DUP2 PUSH2 0x1FC1 JUMP JUMPDEST DUP3 MSTORE POP POP JUMP JUMPDEST PUSH2 0x1BCE DUP2 PUSH2 0x1FCB JUMP JUMPDEST DUP3 MSTORE POP POP JUMP JUMPDEST PUSH1 0x0 PUSH2 0x1BDF DUP3 PUSH2 0x1A9E JUMP JUMPDEST SWAP2 POP DUP2 SWAP1 POP SWAP2 SWAP1 POP JUMP JUMPDEST PUSH1 0x0 PUSH1 0x60 DUP3 ADD SWAP1 POP PUSH2 0x1BFE PUSH1 0x0 DUP4 ADD DUP7 PUSH2 0x1959 JUMP JUMPDEST PUSH2 0x1C0B PUSH1 0x20 DUP4 ADD DUP6 PUSH2 0x1959 JUMP JUMPDEST PUSH2 0x1C18 PUSH1 0x40 DUP4 ADD DUP5 PUSH2 0x1BB6 JUMP JUMPDEST SWAP5 SWAP4 POP POP POP POP JUMP JUMPDEST PUSH1 0x0 PUSH1 0x20 DUP3 ADD SWAP1 POP PUSH2 0x1C35 PUSH1 0x0 DUP4 ADD DUP5 PUSH2 0x1977 JUMP JUMPDEST SWAP3 SWAP2 POP POP JUMP JUMPDEST PUSH1 0x0 PUSH1 0x20 DUP3 ADD SWAP1 POP DUP2 DUP2 SUB PUSH1 0x0 DUP4 ADD MSTORE PUSH2 0x1C54 DUP2 PUSH2 0x1986 JUMP JUMPDEST SWAP1 POP SWAP2 SWAP1 POP JUMP JUMPDEST PUSH1 0x0 PUSH1 0x20 DUP3 ADD SWAP1 POP DUP2 DUP2 SUB PUSH1 0x0 DUP4 ADD MSTORE PUSH2 0x1C74 DUP2 PUSH2 0x19A9 JUMP JUMPDEST SWAP1 POP SWAP2 SWAP1 POP JUMP JUMPDEST PUSH1 0x0 PUSH1 0x20 DUP3 ADD SWAP1 POP DUP2 DUP2 SUB PUSH1 0x0 DUP4 ADD MSTORE PUSH2 0x1C94 DUP2 PUSH2 0x19CC JUMP JUMPDEST SWAP1 POP SWAP2 SWAP1 POP JUMP JUMPDEST PUSH1 0x0 PUSH1 0x20 DUP3 ADD SWAP1 POP DUP2 DUP2 SUB PUSH1 0x0 DUP4 ADD MSTORE PUSH2 0x1CB4 DUP2 PUSH2 0x19EF JUMP JUMPDEST SWAP1 POP SWAP2 SWAP1 POP JUMP JUMPDEST PUSH1 0x0 PUSH1 0x20 DUP3 ADD SWAP1 POP DUP2 DUP2 SUB PUSH1 0x0 DUP4 ADD MSTORE PUSH2 0x1CD4 DUP2 PUSH2 0x1A12 JUMP JUMPDEST SWAP1 POP SWAP2 SWAP1 POP JUMP JUMPDEST PUSH1 0x0 PUSH1 0x20 DUP3 ADD SWAP1 POP DUP2 DUP2 SUB PUSH1 0x0 DUP4 ADD MSTORE PUSH2 0x1CF4 DUP2 PUSH2 0x1A35 JUMP JUMPDEST SWAP1 POP SWAP2 SWAP1 POP JUMP JUMPDEST PUSH1 0x0 PUSH1 0x20 DUP3 ADD SWAP1 POP DUP2 DUP2 SUB PUSH1 0x0 DUP4 ADD MSTORE PUSH2 0x1D14 DUP2 PUSH2 0x1A58 JUMP JUMPDEST SWAP1 POP SWAP2 SWAP1 POP JUMP JUMPDEST PUSH1 0x0 PUSH1 0x20 DUP3 ADD SWAP1 POP DUP2 DUP2 SUB PUSH1 0x0 DUP4 ADD MSTORE PUSH2 0x1D34 DUP2 PUSH2 0x1A7B JUMP JUMPDEST SWAP1 POP SWAP2 SWAP1 POP JUMP JUMPDEST PUSH1 0x0 PUSH1 0x20 DUP3 ADD SWAP1 POP DUP2 DUP2 SUB PUSH1 0x0 DUP4 ADD MSTORE PUSH2 0x1D54 DUP2 PUSH2 0x1AC1 JUMP JUMPDEST SWAP1 POP SWAP2 SWAP1 POP JUMP JUMPDEST PUSH1 0x0 PUSH1 0x20 DUP3 ADD SWAP1 POP DUP2 DUP2 SUB PUSH1 0x0 DUP4 ADD MSTORE PUSH2 0x1D74 DUP2 PUSH2 0x1AE4 JUMP JUMPDEST SWAP1 POP SWAP2 SWAP1 POP JUMP JUMPDEST PUSH1 0x0 PUSH1 0x20 DUP3 ADD SWAP1 POP DUP2 DUP2 SUB PUSH1 0x0 DUP4 ADD MSTORE PUSH2 0x1D94 DUP2 PUSH2 0x1B07 JUMP JUMPDEST SWAP1 POP SWAP2 SWAP1 POP JUMP JUMPDEST PUSH1 0x0 PUSH1 0x20 DUP3 ADD SWAP1 POP DUP2 DUP2 SUB PUSH1 0x0 DUP4 ADD MSTORE PUSH2 0x1DB4 DUP2 PUSH2 0x1B2A JUMP JUMPDEST SWAP1 POP SWAP2 SWAP1 POP JUMP JUMPDEST PUSH1 0x0 PUSH1 0x20 DUP3 ADD SWAP1 POP DUP2 DUP2 SUB PUSH1 0x0 DUP4 ADD MSTORE PUSH2 0x1DD4 DUP2 PUSH2 0x1B4D JUMP JUMPDEST SWAP1 POP SWAP2 SWAP1 POP JUMP JUMPDEST PUSH1 0x0 PUSH1 0x20 DUP3 ADD SWAP1 POP DUP2 DUP2 SUB PUSH1 0x0 DUP4 ADD MSTORE PUSH2 0x1DF4 DUP2 PUSH2 0x1B70 JUMP JUMPDEST SWAP1 POP SWAP2 SWAP1 POP JUMP JUMPDEST PUSH1 0x0 PUSH1 0x20 DUP3 ADD SWAP1 POP DUP2 DUP2 SUB PUSH1 0x0 DUP4 ADD MSTORE PUSH2 0x1E14 DUP2 PUSH2 0x1B93 JUMP JUMPDEST SWAP1 POP SWAP2 SWAP1 POP JUMP JUMPDEST PUSH1 0x0 PUSH1 0x20 DUP3 ADD SWAP1 POP PUSH2 0x1E30 PUSH1 0x0 DUP4 ADD DUP5 PUSH2 0x1BB6 JUMP JUMPDEST SWAP3 SWAP2 POP POP JUMP JUMPDEST PUSH1 0x0 PUSH2 0x100 DUP3 ADD SWAP1 POP PUSH2 0x1E4C PUSH1 0x0 DUP4 ADD DUP12 PUSH2 0x1BB6 JUMP JUMPDEST PUSH2 0x1E59 PUSH1 0x20 DUP4 ADD DUP11 PUSH2 0x1959 JUMP JUMPDEST PUSH2 0x1E66 PUSH1 0x40 DUP4 ADD DUP10 PUSH2 0x1968 JUMP JUMPDEST PUSH2 0x1E73 PUSH1 0x60 DUP4 ADD DUP9 PUSH2 0x1968 JUMP JUMPDEST PUSH2 0x1E80 PUSH1 0x80 DUP4 ADD DUP8 PUSH2 0x1BC5 JUMP JUMPDEST PUSH2 0x1E8D PUSH1 0xA0 DUP4 ADD DUP7 PUSH2 0x1959 JUMP JUMPDEST PUSH2 0x1E9A PUSH1 0xC0 DUP4 ADD DUP6 PUSH2 0x1BB6 JUMP JUMPDEST PUSH2 0x1EA7 PUSH1 0xE0 DUP4 ADD DUP5 PUSH2 0x1BB6 JUMP JUMPDEST SWAP10 SWAP9 POP POP POP POP POP POP POP POP POP JUMP JUMPDEST PUSH1 0x0 PUSH1 0x40 DUP3 ADD SWAP1 POP PUSH2 0x1EC9 PUSH1 0x0 DUP4 ADD DUP6 PUSH2 0x1BB6 JUMP JUMPDEST PUSH2 0x1ED6 PUSH1 0x20 DUP4 ADD DUP5 PUSH2 0x1BB6 JUMP JUMPDEST SWAP4 SWAP3 POP POP POP JUMP JUMPDEST PUSH1 0x0 DUP2 SWAP1 POP SWAP3 SWAP2 POP POP JUMP JUMPDEST PUSH1 0x0 DUP3 DUP3 MSTORE PUSH1 0x20 DUP3 ADD SWAP1 POP SWAP3 SWAP2 POP POP JUMP JUMPDEST PUSH1 0x0 PUSH2 0x1F04 DUP3 PUSH2 0x1FC1 JUMP JUMPDEST SWAP2 POP PUSH2 0x1F0F DUP4 PUSH2 0x1FC1 JUMP JUMPDEST SWAP3 POP DUP3 PUSH32 0xFFFFFFFFFFFFFFFFFFFFFFFFFFFFFFFFFFFFFFFFFFFFFFFFFFFFFFFFFFFFFFFF SUB DUP3 GT ISZERO PUSH2 0x1F44 JUMPI PUSH2 0x1F43 PUSH2 0x2011 JUMP JUMPDEST JUMPDEST DUP3 DUP3 ADD SWAP1 POP SWAP3 SWAP2 POP POP JUMP JUMPDEST PUSH1 0x0 PUSH2 0x1F5A DUP3 PUSH2 0x1FC1 JUMP JUMPDEST SWAP2 POP PUSH2 0x1F65 DUP4 PUSH2 0x1FC1 JUMP JUMPDEST SWAP3 POP DUP3 DUP3 LT ISZERO PUSH2 0x1F78 JUMPI PUSH2 0x1F77 PUSH2 0x2011 JUMP JUMPDEST JUMPDEST DUP3 DUP3 SUB SWAP1 POP SWAP3 SWAP2 POP POP JUMP JUMPDEST PUSH1 0x0 PUSH2 0x1F8E DUP3 PUSH2 0x1FA1 JUMP JUMPDEST SWAP1 POP SWAP2 SWAP1 POP JUMP JUMPDEST PUSH1 0x0 DUP2 ISZERO ISZERO SWAP1 POP SWAP2 SWAP1 POP JUMP JUMPDEST PUSH1 0x0 PUSH20 0xFFFFFFFFFFFFFFFFFFFFFFFFFFFFFFFFFFFFFFFF DUP3 AND SWAP1 POP SWAP2 SWAP1 POP JUMP JUMPDEST PUSH1 0x0 DUP2 SWAP1 POP SWAP2 SWAP1 POP JUMP JUMPDEST PUSH1 0x0 PUSH4 0xFFFFFFFF DUP3 AND SWAP1 POP SWAP2 SWAP1 POP JUMP JUMPDEST PUSH1 0x0 PUSH2 0x1FE6 DUP3 PUSH2 0x1FED JUMP JUMPDEST SWAP1 POP SWAP2 SWAP1 POP JUMP JUMPDEST PUSH1 0x0 PUSH2 0x1FF8 DUP3 PUSH2 0x1FFF JUMP JUMPDEST SWAP1 POP SWAP2 SWAP1 POP JUMP JUMPDEST PUSH1 0x0 PUSH2 0x200A DUP3 PUSH2 0x1FA1 JUMP JUMPDEST SWAP1 POP SWAP2 SWAP1 POP JUMP JUMPDEST PUSH32 0x4E487B7100000000000000000000000000000000000000000000000000000000 PUSH1 0x0 MSTORE PUSH1 0x11 PUSH1 0x4 MSTORE PUSH1 0x24 PUSH1 0x0 REVERT JUMPDEST PUSH1 0x0 DUP1 REVERT JUMPDEST PUSH32 0x4E6F7420656E6F75676820657468657200000000000000000000000000000000 PUSH1 0x0 DUP3 ADD MSTORE POP JUMP JUMPDEST PUSH32 0x57696E6E65722063616E6E6F7420776974686472617700000000000000000000 PUSH1 0x0 DUP3 ADD MSTORE POP JUMP JUMPDEST PUSH32 0x4E6F742073746172746564000000000000000000000000000000000000000000 PUSH1 0x0 DUP3 ADD MSTORE POP JUMP JUMPDEST PUSH32 0x57494E4E45525F5A45524F000000000000000000000000000000000000000000 PUSH1 0x0 DUP3 ADD MSTORE POP JUMP JUMPDEST PUSH32 0x456E646564000000000000000000000000000000000000000000000000000000 PUSH1 0x0 DUP3 ADD MSTORE POP JUMP JUMPDEST PUSH32 0x456E6420616C7265616479000000000000000000000000000000000000000000 PUSH1 0x0 DUP3 ADD MSTORE POP JUMP JUMPDEST PUSH32 0x54696D65206C6566740000000000000000000000000000000000000000000000 PUSH1 0x0 DUP3 ADD MSTORE POP JUMP JUMPDEST PUSH32 0x4E6F74206F776E65720000000000000000000000000000000000000000000000 PUSH1 0x0 DUP3 ADD MSTORE POP JUMP JUMPDEST POP JUMP JUMPDEST PUSH32 0x4E6F74206F6E2073616C65000000000000000000000000000000000000000000 PUSH1 0x0 DUP3 ADD MSTORE POP JUMP JUMPDEST PUSH32 0x4E6F742061206269646465720000000000000000000000000000000000000000 PUSH1 0x0 DUP3 ADD MSTORE POP JUMP JUMPDEST PUSH32 0x4F6E6C7920686967686572207468616E2063757272656E742062696400000000 PUSH1 0x0 DUP3 ADD MSTORE POP JUMP JUMPDEST PUSH32 0x7765206F7765206E6F206D6F6E65790000000000000000000000000000000000 PUSH1 0x0 DUP3 ADD MSTORE POP JUMP JUMPDEST PUSH32 0x6E6F74206F776E65720000000000000000000000000000000000000000000000 PUSH1 0x0 DUP3 ADD MSTORE POP JUMP JUMPDEST PUSH32 0x7472616E73616374696F6E206661696C65640000000000000000000000000000 PUSH1 0x0 DUP3 ADD MSTORE POP JUMP JUMPDEST PUSH32 0x6E6F7420656E6465640000000000000000000000000000000000000000000000 PUSH1 0x0 DUP3 ADD MSTORE POP JUMP JUMPDEST PUSH2 0x22B8 DUP2 PUSH2 0x1F83 JUMP JUMPDEST DUP2 EQ PUSH2 0x22C3 JUMPI PUSH1 0x0 DUP1 REVERT JUMPDEST POP JUMP JUMPDEST PUSH2 0x22CF DUP2 PUSH2 0x1FC1 JUMP JUMPDEST DUP2 EQ PUSH2 0x22DA JUMPI PUSH1 0x0 DUP1 REVERT JUMPDEST POP JUMP JUMPDEST PUSH2 0x22E6 DUP2 PUSH2 0x1FCB JUMP JUMPDEST DUP2 EQ PUSH2 0x22F1 JUMPI PUSH1 0x0 DUP1 REVERT JUMPDEST POP JUMP INVALID LOG2 PUSH5 0x6970667358 0x22 SLT KECCAK256 0xB9 ISZERO DUP7 PUSH3 0xB136D0 0xCD SAR SLOAD EQ CODESIZE SWAP14 ADDMOD CALL POP SHL REVERT 0xC6 PUSH31 0xF50982BDFF77AB1B1E8D015064736F6C634300080700330000000000000000 "
				},
				"gasEstimates": {
					"creation": {
						"codeDepositCost": "1800400",
						"executionCost": "infinite",
						"totalCost": "infinite"
					},
					"external": {
						"Auctions(uint256)": "infinite",
						"bid(uint256)": "infinite",
						"claimAsset(uint256)": "infinite",
						"endAuction(uint256)": "infinite",
						"instantBuy(uint256)": "infinite",
						"instantPrice(uint256)": "infinite",
						"nftCollection()": "infinite",
						"setPrice(uint256,uint256)": "infinite",
						"startAuction(uint256,uint256,uint32)": "infinite",
						"toPay(address)": "2837",
						"withdrawBid(uint256)": "infinite",
						"withdrawEth()": "infinite"
					}
				},
				"methodIdentifiers": {
					"Auctions(uint256)": "e8cd181f",
					"bid(uint256)": "454a2ab3",
					"claimAsset(uint256)": "d3c2a592",
					"endAuction(uint256)": "b9a2de3a",
					"instantBuy(uint256)": "852a38bc",
					"instantPrice(uint256)": "6c8ae190",
					"nftCollection()": "6588103b",
					"setPrice(uint256,uint256)": "f7d97577",
					"startAuction(uint256,uint256,uint32)": "93289471",
					"toPay(address)": "2ae53d25",
					"withdrawBid(uint256)": "0eaaf4c8",
					"withdrawEth()": "a0ef91df"
				}
			},
			"storageLayout": {
				"storage": [
					{
						"astId": 108,
						"contract": "NftMarket.sol:MarketPlace",
						"label": "Auctions",
						"offset": 0,
						"slot": "0",
						"type": "t_mapping(t_uint256,t_struct(Auc)100_storage)"
					},
					{
						"astId": 112,
						"contract": "NftMarket.sol:MarketPlace",
						"label": "toPay",
						"offset": 0,
						"slot": "1",
						"type": "t_mapping(t_address,t_uint256)"
					},
					{
						"astId": 116,
						"contract": "NftMarket.sol:MarketPlace",
						"label": "instantPrice",
						"offset": 0,
						"slot": "2",
						"type": "t_mapping(t_uint256,t_uint256)"
					}
				],
				"types": {
					"t_address": {
						"encoding": "inplace",
						"label": "address",
						"numberOfBytes": "20"
					},
					"t_bool": {
						"encoding": "inplace",
						"label": "bool",
						"numberOfBytes": "1"
					},
					"t_mapping(t_address,t_uint256)": {
						"encoding": "mapping",
						"key": "t_address",
						"label": "mapping(address => uint256)",
						"numberOfBytes": "32",
						"value": "t_uint256"
					},
					"t_mapping(t_uint256,t_struct(Auc)100_storage)": {
						"encoding": "mapping",
						"key": "t_uint256",
						"label": "mapping(uint256 => struct MarketPlace.Auc)",
						"numberOfBytes": "32",
						"value": "t_struct(Auc)100_storage"
					},
					"t_mapping(t_uint256,t_uint256)": {
						"encoding": "mapping",
						"key": "t_uint256",
						"label": "mapping(uint256 => uint256)",
						"numberOfBytes": "32",
						"value": "t_uint256"
					},
					"t_struct(Auc)100_storage": {
						"encoding": "inplace",
						"label": "struct MarketPlace.Auc",
						"members": [
							{
								"astId": 81,
								"contract": "NftMarket.sol:MarketPlace",
								"label": "nftId",
								"offset": 0,
								"slot": "0",
								"type": "t_uint256"
							},
							{
								"astId": 83,
								"contract": "NftMarket.sol:MarketPlace",
								"label": "creator",
								"offset": 0,
								"slot": "1",
								"type": "t_address"
							},
							{
								"astId": 85,
								"contract": "NftMarket.sol:MarketPlace",
								"label": "started",
								"offset": 20,
								"slot": "1",
								"type": "t_bool"
							},
							{
								"astId": 87,
								"contract": "NftMarket.sol:MarketPlace",
								"label": "ended",
								"offset": 21,
								"slot": "1",
								"type": "t_bool"
							},
							{
								"astId": 89,
								"contract": "NftMarket.sol:MarketPlace",
								"label": "endAt",
								"offset": 22,
								"slot": "1",
								"type": "t_uint32"
							},
							{
								"astId": 91,
								"contract": "NftMarket.sol:MarketPlace",
								"label": "highestBidder",
								"offset": 0,
								"slot": "2",
								"type": "t_address"
							},
							{
								"astId": 93,
								"contract": "NftMarket.sol:MarketPlace",
								"label": "highestBid",
								"offset": 0,
								"slot": "3",
								"type": "t_uint256"
							},
							{
								"astId": 95,
								"contract": "NftMarket.sol:MarketPlace",
								"label": "startingBid",
								"offset": 0,
								"slot": "4",
								"type": "t_uint256"
							},
							{
								"astId": 99,
								"contract": "NftMarket.sol:MarketPlace",
								"label": "pendingReturns",
								"offset": 0,
								"slot": "5",
								"type": "t_mapping(t_address,t_uint256)"
							}
						],
						"numberOfBytes": "192"
					},
					"t_uint256": {
						"encoding": "inplace",
						"label": "uint256",
						"numberOfBytes": "32"
					},
					"t_uint32": {
						"encoding": "inplace",
						"label": "uint32",
						"numberOfBytes": "4"
					}
				}
			},
			"userdoc": {
				"kind": "user",
				"methods": {},
				"version": 1
			}
		}
	}
}