{
	"NftContract.sol": {
		"BottleNft": {
			"abi": [
				{
					"inputs": [
						{
							"internalType": "string",
							"name": "_name",
							"type": "string"
						},
						{
							"internalType": "string",
							"name": "_symbol",
							"type": "string"
						},
						{
							"internalType": "string",
							"name": "_base",
							"type": "string"
						},
						{
							"internalType": "uint96",
							"name": "_fees",
							"type": "uint96"
						}
					],
					"stateMutability": "nonpayable",
					"type": "constructor"
				},
				{
					"anonymous": false,
					"inputs": [
						{
							"indexed": true,
							"internalType": "address",
							"name": "owner",
							"type": "address"
						},
						{
							"indexed": true,
							"internalType": "address",
							"name": "spender",
							"type": "address"
						},
						{
							"indexed": true,
							"internalType": "uint256",
							"name": "id",
							"type": "uint256"
						}
					],
					"name": "Approval",
					"type": "event"
				},
				{
					"anonymous": false,
					"inputs": [
						{
							"indexed": true,
							"internalType": "address",
							"name": "owner",
							"type": "address"
						},
						{
							"indexed": true,
							"internalType": "address",
							"name": "operator",
							"type": "address"
						},
						{
							"indexed": false,
							"internalType": "bool",
							"name": "approved",
							"type": "bool"
						}
					],
					"name": "ApprovalForAll",
					"type": "event"
				},
				{
					"anonymous": false,
					"inputs": [
						{
							"indexed": true,
							"internalType": "address",
							"name": "previousOwner",
							"type": "address"
						},
						{
							"indexed": true,
							"internalType": "address",
							"name": "newOwner",
							"type": "address"
						}
					],
					"name": "OwnershipTransfered",
					"type": "event"
				},
				{
					"anonymous": false,
					"inputs": [
						{
							"indexed": true,
							"internalType": "address",
							"name": "from",
							"type": "address"
						},
						{
							"indexed": true,
							"internalType": "address",
							"name": "to",
							"type": "address"
						},
						{
							"indexed": true,
							"internalType": "uint256",
							"name": "id",
							"type": "uint256"
						}
					],
					"name": "Transfer",
					"type": "event"
				},
				{
					"inputs": [
						{
							"internalType": "address",
							"name": "_minter",
							"type": "address"
						},
						{
							"internalType": "bool",
							"name": "status",
							"type": "bool"
						}
					],
					"name": "allowMint",
					"outputs": [],
					"stateMutability": "nonpayable",
					"type": "function"
				},
				{
					"inputs": [
						{
							"internalType": "address",
							"name": "spender",
							"type": "address"
						},
						{
							"internalType": "uint256",
							"name": "id",
							"type": "uint256"
						}
					],
					"name": "approve",
					"outputs": [],
					"stateMutability": "nonpayable",
					"type": "function"
				},
				{
					"inputs": [
						{
							"internalType": "address",
							"name": "",
							"type": "address"
						}
					],
					"name": "balanceOf",
					"outputs": [
						{
							"internalType": "uint256",
							"name": "",
							"type": "uint256"
						}
					],
					"stateMutability": "view",
					"type": "function"
				},
				{
					"inputs": [],
					"name": "baseURI",
					"outputs": [
						{
							"internalType": "string",
							"name": "",
							"type": "string"
						}
					],
					"stateMutability": "view",
					"type": "function"
				},
				{
					"inputs": [
						{
							"internalType": "uint256",
							"name": "_salePrice",
							"type": "uint256"
						}
					],
					"name": "calculateRoyalty",
					"outputs": [
						{
							"internalType": "uint256",
							"name": "",
							"type": "uint256"
						}
					],
					"stateMutability": "view",
					"type": "function"
				},
				{
					"inputs": [
						{
							"internalType": "uint256",
							"name": "",
							"type": "uint256"
						}
					],
					"name": "getApproved",
					"outputs": [
						{
							"internalType": "address",
							"name": "",
							"type": "address"
						}
					],
					"stateMutability": "view",
					"type": "function"
				},
				{
					"inputs": [
						{
							"internalType": "address",
							"name": "",
							"type": "address"
						},
						{
							"internalType": "address",
							"name": "",
							"type": "address"
						}
					],
					"name": "isApprovedForAll",
					"outputs": [
						{
							"internalType": "bool",
							"name": "",
							"type": "bool"
						}
					],
					"stateMutability": "view",
					"type": "function"
				},
				{
					"inputs": [
						{
							"internalType": "address",
							"name": "to",
							"type": "address"
						},
						{
							"internalType": "uint64",
							"name": "amount",
							"type": "uint64"
						}
					],
					"name": "mintMany",
					"outputs": [],
					"stateMutability": "nonpayable",
					"type": "function"
				},
				{
					"inputs": [
						{
							"internalType": "address",
							"name": "to",
							"type": "address"
						}
					],
					"name": "mintOne",
					"outputs": [],
					"stateMutability": "nonpayable",
					"type": "function"
				},
				{
					"inputs": [],
					"name": "name",
					"outputs": [
						{
							"internalType": "string",
							"name": "",
							"type": "string"
						}
					],
					"stateMutability": "view",
					"type": "function"
				},
				{
					"inputs": [],
					"name": "owner",
					"outputs": [
						{
							"internalType": "address",
							"name": "",
							"type": "address"
						}
					],
					"stateMutability": "view",
					"type": "function"
				},
				{
					"inputs": [
						{
							"internalType": "uint256",
							"name": "",
							"type": "uint256"
						}
					],
					"name": "ownerOf",
					"outputs": [
						{
							"internalType": "address",
							"name": "",
							"type": "address"
						}
					],
					"stateMutability": "view",
					"type": "function"
				},
				{
					"inputs": [],
					"name": "royaltyAddress",
					"outputs": [
						{
							"internalType": "address",
							"name": "",
							"type": "address"
						}
					],
					"stateMutability": "view",
					"type": "function"
				},
				{
					"inputs": [],
					"name": "royaltyFeesInBips",
					"outputs": [
						{
							"internalType": "uint96",
							"name": "",
							"type": "uint96"
						}
					],
					"stateMutability": "view",
					"type": "function"
				},
				{
					"inputs": [
						{
							"internalType": "uint256",
							"name": "_tokenId",
							"type": "uint256"
						},
						{
							"internalType": "uint256",
							"name": "_salePrice",
							"type": "uint256"
						}
					],
					"name": "royaltyInfo",
					"outputs": [
						{
							"internalType": "address",
							"name": "",
							"type": "address"
						},
						{
							"internalType": "uint256",
							"name": "",
							"type": "uint256"
						}
					],
					"stateMutability": "view",
					"type": "function"
				},
				{
					"inputs": [
						{
							"internalType": "address",
							"name": "from",
							"type": "address"
						},
						{
							"internalType": "address",
							"name": "to",
							"type": "address"
						},
						{
							"internalType": "uint256",
							"name": "id",
							"type": "uint256"
						}
					],
					"name": "safeTransferFrom",
					"outputs": [],
					"stateMutability": "nonpayable",
					"type": "function"
				},
				{
					"inputs": [
						{
							"internalType": "address",
							"name": "from",
							"type": "address"
						},
						{
							"internalType": "address",
							"name": "to",
							"type": "address"
						},
						{
							"internalType": "uint256",
							"name": "id",
							"type": "uint256"
						},
						{
							"internalType": "bytes",
							"name": "data",
							"type": "bytes"
						}
					],
					"name": "safeTransferFrom",
					"outputs": [],
					"stateMutability": "nonpayable",
					"type": "function"
				},
				{
					"inputs": [
						{
							"internalType": "address",
							"name": "operator",
							"type": "address"
						},
						{
							"internalType": "bool",
							"name": "approved",
							"type": "bool"
						}
					],
					"name": "setApprovalForAll",
					"outputs": [],
					"stateMutability": "nonpayable",
					"type": "function"
				},
				{
					"inputs": [
						{
							"internalType": "address",
							"name": "_royaltyAddress",
							"type": "address"
						},
						{
							"internalType": "uint96",
							"name": "_royaltyFeesInBips",
							"type": "uint96"
						}
					],
					"name": "setRoyaltyInfo",
					"outputs": [],
					"stateMutability": "nonpayable",
					"type": "function"
				},
				{
					"inputs": [
						{
							"internalType": "bytes4",
							"name": "interfaceId",
							"type": "bytes4"
						}
					],
					"name": "supportsInterface",
					"outputs": [
						{
							"internalType": "bool",
							"name": "",
							"type": "bool"
						}
					],
					"stateMutability": "view",
					"type": "function"
				},
				{
					"inputs": [],
					"name": "symbol",
					"outputs": [
						{
							"internalType": "string",
							"name": "",
							"type": "string"
						}
					],
					"stateMutability": "view",
					"type": "function"
				},
				{
					"inputs": [
						{
							"internalType": "uint256",
							"name": "tokenId",
							"type": "uint256"
						}
					],
					"name": "tokenURI",
					"outputs": [
						{
							"internalType": "string",
							"name": "",
							"type": "string"
						}
					],
					"stateMutability": "view",
					"type": "function"
				},
				{
					"inputs": [
						{
							"internalType": "address",
							"name": "from",
							"type": "address"
						},
						{
							"internalType": "address",
							"name": "to",
							"type": "address"
						},
						{
							"internalType": "uint256",
							"name": "id",
							"type": "uint256"
						}
					],
					"name": "transferFrom",
					"outputs": [],
					"stateMutability": "nonpayable",
					"type": "function"
				},
				{
					"inputs": [
						{
							"internalType": "address",
							"name": "newOwner",
							"type": "address"
						}
					],
					"name": "transferOwnership",
					"outputs": [],
					"stateMutability": "nonpayable",
					"type": "function"
				}
			],
			"devdoc": {
				"kind": "dev",
				"methods": {},
				"version": 1
			},
			"evm": {
				"assembly": "    /* \"NftContract.sol\":118:1959  contract BottleNft is Ownable, ERC721 {\r... */\n  mstore(0x40, 0x80)\n    /* \"NftContract.sol\":222:223  0 */\n  0x00\n    /* \"NftContract.sol\":191:223  uint256 private tokenCounter = 0 */\n  0x08\n  sstore\n    /* \"NftContract.sol\":357:622  constructor(\r... */\n  callvalue\n  dup1\n  iszero\n  tag_1\n  jumpi\n  0x00\n  dup1\n  revert\ntag_1:\n  pop\n  mload(0x40)\n  sub(codesize, bytecodeSize)\n  dup1\n  bytecodeSize\n  dup4\n  codecopy\n  dup2\n  dup2\n  add\n  0x40\n  mstore\n  dup2\n  add\n  swap1\n  tag_2\n  swap2\n  swap1\n  tag_3\n  jump\t// in\ntag_2:\n    /* \"NftContract.sol\":498:503  _name */\n  dup4\n    /* \"NftContract.sol\":505:512  _symbol */\n  dup4\n    /* \"utils/Ownable.sol\":306:338  _transferOwnership(_msgSender()) */\n  tag_8\n    /* \"utils/Ownable.sol\":325:337  _msgSender() */\n  tag_9\n    /* \"utils/Ownable.sol\":325:335  _msgSender */\n  shl(0x20, tag_10)\n    /* \"utils/Ownable.sol\":325:337  _msgSender() */\n  0x20\n  shr\n  jump\t// in\ntag_9:\n    /* \"utils/Ownable.sol\":306:324  _transferOwnership */\n  shl(0x20, tag_11)\n    /* \"utils/Ownable.sol\":306:338  _transferOwnership(_msgSender()) */\n  0x20\n  shr\n  jump\t// in\ntag_8:\n    /* \"ERC721.sol\":1704:1709  _name */\n  dup2\n    /* \"ERC721.sol\":1697:1701  name */\n  0x01\n    /* \"ERC721.sol\":1697:1709  name = _name */\n  swap1\n  dup1\n  mload\n  swap1\n  0x20\n  add\n  swap1\n  tag_13\n  swap3\n  swap2\n  swap1\n  tag_14\n  jump\t// in\ntag_13:\n  pop\n    /* \"ERC721.sol\":1729:1736  _symbol */\n  dup1\n    /* \"ERC721.sol\":1720:1726  symbol */\n  0x02\n    /* \"ERC721.sol\":1720:1736  symbol = _symbol */\n  swap1\n  dup1\n  mload\n  swap1\n  0x20\n  add\n  swap1\n  tag_15\n  swap3\n  swap2\n  swap1\n  tag_14\n  jump\t// in\ntag_15:\n  pop\n    /* \"ERC721.sol\":1630:1744  constructor(string memory _name, string memory _symbol) {\r... */\n  pop\n  pop\n    /* \"NftContract.sol\":535:540  _base */\n  dup2\n    /* \"NftContract.sol\":525:532  baseURI */\n  0x07\n    /* \"NftContract.sol\":525:540  baseURI = _base */\n  swap1\n  dup1\n  mload\n  swap1\n  0x20\n  add\n  swap1\n  tag_17\n  swap3\n  swap2\n  swap1\n  tag_14\n  jump\t// in\ntag_17:\n  pop\n    /* \"NftContract.sol\":571:576  _fees */\n  dup1\n    /* \"NftContract.sol\":551:568  royaltyFeesInBips */\n  0x09\n  0x00\n    /* \"NftContract.sol\":551:576  royaltyFeesInBips = _fees */\n  0x0100\n  exp\n  dup2\n  sload\n  dup2\n  0xffffffffffffffffffffffff\n  mul\n  not\n  and\n  swap1\n  dup4\n  0xffffffffffffffffffffffff\n  and\n  mul\n  or\n  swap1\n  sstore\n  pop\n    /* \"NftContract.sol\":604:614  msg.sender */\n  caller\n    /* \"NftContract.sol\":587:601  royaltyAddress */\n  0x09\n  0x0c\n    /* \"NftContract.sol\":587:614  royaltyAddress = msg.sender */\n  0x0100\n  exp\n  dup2\n  sload\n  dup2\n  0xffffffffffffffffffffffffffffffffffffffff\n  mul\n  not\n  and\n  swap1\n  dup4\n  0xffffffffffffffffffffffffffffffffffffffff\n  and\n  mul\n  or\n  swap1\n  sstore\n  pop\n    /* \"NftContract.sol\":357:622  constructor(\r... */\n  pop\n  pop\n  pop\n  pop\n    /* \"NftContract.sol\":118:1959  contract BottleNft is Ownable, ERC721 {\r... */\n  jump(tag_18)\n    /* \"utils/Context.sol\":95:193  function _msgSender() internal view virtual returns (address) {\r... */\ntag_10:\n    /* \"utils/Context.sol\":148:155  address */\n  0x00\n    /* \"utils/Context.sol\":175:185  msg.sender */\n  caller\n    /* \"utils/Context.sol\":168:185  return msg.sender */\n  swap1\n  pop\n    /* \"utils/Context.sol\":95:193  function _msgSender() internal view virtual returns (address) {\r... */\n  swap1\n  jump\t// out\n    /* \"utils/Ownable.sol\":728:919  function _transferOwnership(address newOwner) internal virtual {\r... */\ntag_11:\n    /* \"utils/Ownable.sol\":802:818  address oldOwner */\n  0x00\n    /* \"utils/Ownable.sol\":821:828  owner() */\n  tag_21\n    /* \"utils/Ownable.sol\":821:826  owner */\n  shl(0x20, tag_22)\n    /* \"utils/Ownable.sol\":821:828  owner() */\n  0x20\n  shr\n  jump\t// in\ntag_21:\n    /* \"utils/Ownable.sol\":802:828  address oldOwner = owner() */\n  swap1\n  pop\n    /* \"utils/Ownable.sol\":848:856  newOwner */\n  dup2\n    /* \"utils/Ownable.sol\":839:845  _owner */\n  0x00\n  dup1\n    /* \"utils/Ownable.sol\":839:856  _owner = newOwner */\n  0x0100\n  exp\n  dup2\n  sload\n  dup2\n  0xffffffffffffffffffffffffffffffffffffffff\n  mul\n  not\n  and\n  swap1\n  dup4\n  0xffffffffffffffffffffffffffffffffffffffff\n  and\n  mul\n  or\n  swap1\n  sstore\n  pop\n    /* \"utils/Ownable.sol\":902:910  newOwner */\n  dup2\n    /* \"utils/Ownable.sol\":872:911  OwnershipTransfered(oldOwner, newOwner) */\n  0xffffffffffffffffffffffffffffffffffffffff\n  and\n    /* \"utils/Ownable.sol\":892:900  oldOwner */\n  dup2\n    /* \"utils/Ownable.sol\":872:911  OwnershipTransfered(oldOwner, newOwner) */\n  0xffffffffffffffffffffffffffffffffffffffff\n  and\n  0x0d18b5fd22306e373229b9439188228edca81207d1667f604daf6cef8aa3ee67\n  mload(0x40)\n  mload(0x40)\n  dup1\n  swap2\n  sub\n  swap1\n  log3\n    /* \"utils/Ownable.sol\":791:919  {\r... */\n  pop\n    /* \"utils/Ownable.sol\":728:919  function _transferOwnership(address newOwner) internal virtual {\r... */\n  pop\n  jump\t// out\n    /* \"utils/Ownable.sol\":354:441  function owner() public view virtual returns (address) {\r... */\ntag_22:\n    /* \"utils/Ownable.sol\":400:407  address */\n  0x00\n    /* \"utils/Ownable.sol\":427:433  _owner */\n  dup1\n  0x00\n  swap1\n  sload\n  swap1\n  0x0100\n  exp\n  swap1\n  div\n  0xffffffffffffffffffffffffffffffffffffffff\n  and\n    /* \"utils/Ownable.sol\":420:433  return _owner */\n  swap1\n  pop\n    /* \"utils/Ownable.sol\":354:441  function owner() public view virtual returns (address) {\r... */\n  swap1\n  jump\t// out\n    /* \"NftContract.sol\":118:1959  contract BottleNft is Ownable, ERC721 {\r... */\ntag_14:\n  dup3\n  dup1\n  sload\n  tag_24\n  swap1\n  tag_25\n  jump\t// in\ntag_24:\n  swap1\n  0x00\n  mstore\n  keccak256(0x00, 0x20)\n  swap1\n  0x1f\n  add\n  0x20\n  swap1\n  div\n  dup2\n  add\n  swap3\n  dup3\n  tag_27\n  jumpi\n  0x00\n  dup6\n  sstore\n  jump(tag_26)\ntag_27:\n  dup3\n  0x1f\n  lt\n  tag_28\n  jumpi\n  dup1\n  mload\n  not(0xff)\n  and\n  dup4\n  dup1\n  add\n  or\n  dup6\n  sstore\n  jump(tag_26)\ntag_28:\n  dup3\n  dup1\n  add\n  0x01\n  add\n  dup6\n  sstore\n  dup3\n  iszero\n  tag_26\n  jumpi\n  swap2\n  dup3\n  add\ntag_29:\n  dup3\n  dup2\n  gt\n  iszero\n  tag_30\n  jumpi\n  dup3\n  mload\n  dup3\n  sstore\n  swap2\n  0x20\n  add\n  swap2\n  swap1\n  0x01\n  add\n  swap1\n  jump(tag_29)\ntag_30:\ntag_26:\n  pop\n  swap1\n  pop\n  tag_31\n  swap2\n  swap1\n  tag_32\n  jump\t// in\ntag_31:\n  pop\n  swap1\n  jump\t// out\ntag_32:\ntag_33:\n  dup1\n  dup3\n  gt\n  iszero\n  tag_34\n  jumpi\n  0x00\n  dup2\n  0x00\n  swap1\n  sstore\n  pop\n  0x01\n  add\n  jump(tag_33)\ntag_34:\n  pop\n  swap1\n  jump\t// out\n    /* \"#utility.yul\":7:428   */\ntag_36:\n    /* \"#utility.yul\":96:101   */\n  0x00\n    /* \"#utility.yul\":121:187   */\n  tag_38\n    /* \"#utility.yul\":137:186   */\n  tag_39\n    /* \"#utility.yul\":179:185   */\n  dup5\n    /* \"#utility.yul\":137:186   */\n  tag_40\n  jump\t// in\ntag_39:\n    /* \"#utility.yul\":121:187   */\n  tag_41\n  jump\t// in\ntag_38:\n    /* \"#utility.yul\":112:187   */\n  swap1\n  pop\n    /* \"#utility.yul\":210:216   */\n  dup3\n    /* \"#utility.yul\":203:208   */\n  dup2\n    /* \"#utility.yul\":196:217   */\n  mstore\n    /* \"#utility.yul\":248:252   */\n  0x20\n    /* \"#utility.yul\":241:246   */\n  dup2\n    /* \"#utility.yul\":237:253   */\n  add\n    /* \"#utility.yul\":286:289   */\n  dup5\n    /* \"#utility.yul\":277:283   */\n  dup5\n    /* \"#utility.yul\":272:275   */\n  dup5\n    /* \"#utility.yul\":268:284   */\n  add\n    /* \"#utility.yul\":265:290   */\n  gt\n    /* \"#utility.yul\":262:374   */\n  iszero\n  tag_42\n  jumpi\n    /* \"#utility.yul\":293:372   */\n  tag_43\n  tag_44\n  jump\t// in\ntag_43:\n    /* \"#utility.yul\":262:374   */\ntag_42:\n    /* \"#utility.yul\":383:422   */\n  tag_45\n    /* \"#utility.yul\":415:421   */\n  dup5\n    /* \"#utility.yul\":410:413   */\n  dup3\n    /* \"#utility.yul\":405:408   */\n  dup6\n    /* \"#utility.yul\":383:422   */\n  tag_46\n  jump\t// in\ntag_45:\n    /* \"#utility.yul\":102:428   */\n  pop\n    /* \"#utility.yul\":7:428   */\n  swap4\n  swap3\n  pop\n  pop\n  pop\n  jump\t// out\n    /* \"#utility.yul\":448:803   */\ntag_47:\n    /* \"#utility.yul\":515:520   */\n  0x00\n    /* \"#utility.yul\":564:567   */\n  dup3\n    /* \"#utility.yul\":557:561   */\n  0x1f\n    /* \"#utility.yul\":549:555   */\n  dup4\n    /* \"#utility.yul\":545:562   */\n  add\n    /* \"#utility.yul\":541:568   */\n  slt\n    /* \"#utility.yul\":531:653   */\n  tag_49\n  jumpi\n    /* \"#utility.yul\":572:651   */\n  tag_50\n  tag_51\n  jump\t// in\ntag_50:\n    /* \"#utility.yul\":531:653   */\ntag_49:\n    /* \"#utility.yul\":682:688   */\n  dup2\n    /* \"#utility.yul\":676:689   */\n  mload\n    /* \"#utility.yul\":707:797   */\n  tag_52\n    /* \"#utility.yul\":793:796   */\n  dup5\n    /* \"#utility.yul\":785:791   */\n  dup3\n    /* \"#utility.yul\":778:782   */\n  0x20\n    /* \"#utility.yul\":770:776   */\n  dup7\n    /* \"#utility.yul\":766:783   */\n  add\n    /* \"#utility.yul\":707:797   */\n  tag_36\n  jump\t// in\ntag_52:\n    /* \"#utility.yul\":698:797   */\n  swap2\n  pop\n    /* \"#utility.yul\":521:803   */\n  pop\n    /* \"#utility.yul\":448:803   */\n  swap3\n  swap2\n  pop\n  pop\n  jump\t// out\n    /* \"#utility.yul\":809:950   */\ntag_53:\n    /* \"#utility.yul\":865:870   */\n  0x00\n    /* \"#utility.yul\":896:902   */\n  dup2\n    /* \"#utility.yul\":890:903   */\n  mload\n    /* \"#utility.yul\":881:903   */\n  swap1\n  pop\n    /* \"#utility.yul\":912:944   */\n  tag_55\n    /* \"#utility.yul\":938:943   */\n  dup2\n    /* \"#utility.yul\":912:944   */\n  tag_56\n  jump\t// in\ntag_55:\n    /* \"#utility.yul\":809:950   */\n  swap3\n  swap2\n  pop\n  pop\n  jump\t// out\n    /* \"#utility.yul\":956:2293   */\ntag_3:\n    /* \"#utility.yul\":1082:1088   */\n  0x00\n    /* \"#utility.yul\":1090:1096   */\n  dup1\n    /* \"#utility.yul\":1098:1104   */\n  0x00\n    /* \"#utility.yul\":1106:1112   */\n  dup1\n    /* \"#utility.yul\":1155:1158   */\n  0x80\n    /* \"#utility.yul\":1143:1152   */\n  dup6\n    /* \"#utility.yul\":1134:1141   */\n  dup8\n    /* \"#utility.yul\":1130:1153   */\n  sub\n    /* \"#utility.yul\":1126:1159   */\n  slt\n    /* \"#utility.yul\":1123:1243   */\n  iszero\n  tag_58\n  jumpi\n    /* \"#utility.yul\":1162:1241   */\n  tag_59\n  tag_60\n  jump\t// in\ntag_59:\n    /* \"#utility.yul\":1123:1243   */\ntag_58:\n    /* \"#utility.yul\":1303:1304   */\n  0x00\n    /* \"#utility.yul\":1292:1301   */\n  dup6\n    /* \"#utility.yul\":1288:1305   */\n  add\n    /* \"#utility.yul\":1282:1306   */\n  mload\n    /* \"#utility.yul\":1333:1351   */\n  0xffffffffffffffff\n    /* \"#utility.yul\":1325:1331   */\n  dup2\n    /* \"#utility.yul\":1322:1352   */\n  gt\n    /* \"#utility.yul\":1319:1436   */\n  iszero\n  tag_61\n  jumpi\n    /* \"#utility.yul\":1355:1434   */\n  tag_62\n  tag_63\n  jump\t// in\ntag_62:\n    /* \"#utility.yul\":1319:1436   */\ntag_61:\n    /* \"#utility.yul\":1460:1534   */\n  tag_64\n    /* \"#utility.yul\":1526:1533   */\n  dup8\n    /* \"#utility.yul\":1517:1523   */\n  dup3\n    /* \"#utility.yul\":1506:1515   */\n  dup9\n    /* \"#utility.yul\":1502:1524   */\n  add\n    /* \"#utility.yul\":1460:1534   */\n  tag_47\n  jump\t// in\ntag_64:\n    /* \"#utility.yul\":1450:1534   */\n  swap5\n  pop\n    /* \"#utility.yul\":1253:1544   */\n  pop\n    /* \"#utility.yul\":1604:1606   */\n  0x20\n    /* \"#utility.yul\":1593:1602   */\n  dup6\n    /* \"#utility.yul\":1589:1607   */\n  add\n    /* \"#utility.yul\":1583:1608   */\n  mload\n    /* \"#utility.yul\":1635:1653   */\n  0xffffffffffffffff\n    /* \"#utility.yul\":1627:1633   */\n  dup2\n    /* \"#utility.yul\":1624:1654   */\n  gt\n    /* \"#utility.yul\":1621:1738   */\n  iszero\n  tag_65\n  jumpi\n    /* \"#utility.yul\":1657:1736   */\n  tag_66\n  tag_63\n  jump\t// in\ntag_66:\n    /* \"#utility.yul\":1621:1738   */\ntag_65:\n    /* \"#utility.yul\":1762:1836   */\n  tag_67\n    /* \"#utility.yul\":1828:1835   */\n  dup8\n    /* \"#utility.yul\":1819:1825   */\n  dup3\n    /* \"#utility.yul\":1808:1817   */\n  dup9\n    /* \"#utility.yul\":1804:1826   */\n  add\n    /* \"#utility.yul\":1762:1836   */\n  tag_47\n  jump\t// in\ntag_67:\n    /* \"#utility.yul\":1752:1836   */\n  swap4\n  pop\n    /* \"#utility.yul\":1554:1846   */\n  pop\n    /* \"#utility.yul\":1906:1908   */\n  0x40\n    /* \"#utility.yul\":1895:1904   */\n  dup6\n    /* \"#utility.yul\":1891:1909   */\n  add\n    /* \"#utility.yul\":1885:1910   */\n  mload\n    /* \"#utility.yul\":1937:1955   */\n  0xffffffffffffffff\n    /* \"#utility.yul\":1929:1935   */\n  dup2\n    /* \"#utility.yul\":1926:1956   */\n  gt\n    /* \"#utility.yul\":1923:2040   */\n  iszero\n  tag_68\n  jumpi\n    /* \"#utility.yul\":1959:2038   */\n  tag_69\n  tag_63\n  jump\t// in\ntag_69:\n    /* \"#utility.yul\":1923:2040   */\ntag_68:\n    /* \"#utility.yul\":2064:2138   */\n  tag_70\n    /* \"#utility.yul\":2130:2137   */\n  dup8\n    /* \"#utility.yul\":2121:2127   */\n  dup3\n    /* \"#utility.yul\":2110:2119   */\n  dup9\n    /* \"#utility.yul\":2106:2128   */\n  add\n    /* \"#utility.yul\":2064:2138   */\n  tag_47\n  jump\t// in\ntag_70:\n    /* \"#utility.yul\":2054:2138   */\n  swap3\n  pop\n    /* \"#utility.yul\":1856:2148   */\n  pop\n    /* \"#utility.yul\":2187:2189   */\n  0x60\n    /* \"#utility.yul\":2213:2276   */\n  tag_71\n    /* \"#utility.yul\":2268:2275   */\n  dup8\n    /* \"#utility.yul\":2259:2265   */\n  dup3\n    /* \"#utility.yul\":2248:2257   */\n  dup9\n    /* \"#utility.yul\":2244:2266   */\n  add\n    /* \"#utility.yul\":2213:2276   */\n  tag_53\n  jump\t// in\ntag_71:\n    /* \"#utility.yul\":2203:2276   */\n  swap2\n  pop\n    /* \"#utility.yul\":2158:2286   */\n  pop\n    /* \"#utility.yul\":956:2293   */\n  swap3\n  swap6\n  swap2\n  swap5\n  pop\n  swap3\n  pop\n  jump\t// out\n    /* \"#utility.yul\":2299:2428   */\ntag_41:\n    /* \"#utility.yul\":2333:2339   */\n  0x00\n    /* \"#utility.yul\":2360:2380   */\n  tag_73\n  tag_74\n  jump\t// in\ntag_73:\n    /* \"#utility.yul\":2350:2380   */\n  swap1\n  pop\n    /* \"#utility.yul\":2389:2422   */\n  tag_75\n    /* \"#utility.yul\":2417:2421   */\n  dup3\n    /* \"#utility.yul\":2409:2415   */\n  dup3\n    /* \"#utility.yul\":2389:2422   */\n  tag_76\n  jump\t// in\ntag_75:\n    /* \"#utility.yul\":2299:2428   */\n  swap2\n  swap1\n  pop\n  jump\t// out\n    /* \"#utility.yul\":2434:2509   */\ntag_74:\n    /* \"#utility.yul\":2467:2473   */\n  0x00\n    /* \"#utility.yul\":2500:2502   */\n  0x40\n    /* \"#utility.yul\":2494:2503   */\n  mload\n    /* \"#utility.yul\":2484:2503   */\n  swap1\n  pop\n    /* \"#utility.yul\":2434:2509   */\n  swap1\n  jump\t// out\n    /* \"#utility.yul\":2515:2823   */\ntag_40:\n    /* \"#utility.yul\":2577:2581   */\n  0x00\n    /* \"#utility.yul\":2667:2685   */\n  0xffffffffffffffff\n    /* \"#utility.yul\":2659:2665   */\n  dup3\n    /* \"#utility.yul\":2656:2686   */\n  gt\n    /* \"#utility.yul\":2653:2709   */\n  iszero\n  tag_79\n  jumpi\n    /* \"#utility.yul\":2689:2707   */\n  tag_80\n  tag_81\n  jump\t// in\ntag_80:\n    /* \"#utility.yul\":2653:2709   */\ntag_79:\n    /* \"#utility.yul\":2727:2756   */\n  tag_82\n    /* \"#utility.yul\":2749:2755   */\n  dup3\n    /* \"#utility.yul\":2727:2756   */\n  tag_83\n  jump\t// in\ntag_82:\n    /* \"#utility.yul\":2719:2756   */\n  swap1\n  pop\n    /* \"#utility.yul\":2811:2815   */\n  0x20\n    /* \"#utility.yul\":2805:2809   */\n  dup2\n    /* \"#utility.yul\":2801:2816   */\n  add\n    /* \"#utility.yul\":2793:2816   */\n  swap1\n  pop\n    /* \"#utility.yul\":2515:2823   */\n  swap2\n  swap1\n  pop\n  jump\t// out\n    /* \"#utility.yul\":2829:2938   */\ntag_84:\n    /* \"#utility.yul\":2865:2872   */\n  0x00\n    /* \"#utility.yul\":2905:2931   */\n  0xffffffffffffffffffffffff\n    /* \"#utility.yul\":2898:2903   */\n  dup3\n    /* \"#utility.yul\":2894:2932   */\n  and\n    /* \"#utility.yul\":2883:2932   */\n  swap1\n  pop\n    /* \"#utility.yul\":2829:2938   */\n  swap2\n  swap1\n  pop\n  jump\t// out\n    /* \"#utility.yul\":2944:3251   */\ntag_46:\n    /* \"#utility.yul\":3012:3013   */\n  0x00\n    /* \"#utility.yul\":3022:3135   */\ntag_87:\n    /* \"#utility.yul\":3036:3042   */\n  dup4\n    /* \"#utility.yul\":3033:3034   */\n  dup2\n    /* \"#utility.yul\":3030:3043   */\n  lt\n    /* \"#utility.yul\":3022:3135   */\n  iszero\n  tag_89\n  jumpi\n    /* \"#utility.yul\":3121:3122   */\n  dup1\n    /* \"#utility.yul\":3116:3119   */\n  dup3\n    /* \"#utility.yul\":3112:3123   */\n  add\n    /* \"#utility.yul\":3106:3124   */\n  mload\n    /* \"#utility.yul\":3102:3103   */\n  dup2\n    /* \"#utility.yul\":3097:3100   */\n  dup5\n    /* \"#utility.yul\":3093:3104   */\n  add\n    /* \"#utility.yul\":3086:3125   */\n  mstore\n    /* \"#utility.yul\":3058:3060   */\n  0x20\n    /* \"#utility.yul\":3055:3056   */\n  dup2\n    /* \"#utility.yul\":3051:3061   */\n  add\n    /* \"#utility.yul\":3046:3061   */\n  swap1\n  pop\n    /* \"#utility.yul\":3022:3135   */\n  jump(tag_87)\ntag_89:\n    /* \"#utility.yul\":3153:3159   */\n  dup4\n    /* \"#utility.yul\":3150:3151   */\n  dup2\n    /* \"#utility.yul\":3147:3160   */\n  gt\n    /* \"#utility.yul\":3144:3245   */\n  iszero\n  tag_90\n  jumpi\n    /* \"#utility.yul\":3233:3234   */\n  0x00\n    /* \"#utility.yul\":3224:3230   */\n  dup5\n    /* \"#utility.yul\":3219:3222   */\n  dup5\n    /* \"#utility.yul\":3215:3231   */\n  add\n    /* \"#utility.yul\":3208:3235   */\n  mstore\n    /* \"#utility.yul\":3144:3245   */\ntag_90:\n    /* \"#utility.yul\":2993:3251   */\n  pop\n    /* \"#utility.yul\":2944:3251   */\n  pop\n  pop\n  pop\n  jump\t// out\n    /* \"#utility.yul\":3257:3577   */\ntag_25:\n    /* \"#utility.yul\":3301:3307   */\n  0x00\n    /* \"#utility.yul\":3338:3339   */\n  0x02\n    /* \"#utility.yul\":3332:3336   */\n  dup3\n    /* \"#utility.yul\":3328:3340   */\n  div\n    /* \"#utility.yul\":3318:3340   */\n  swap1\n  pop\n    /* \"#utility.yul\":3385:3386   */\n  0x01\n    /* \"#utility.yul\":3379:3383   */\n  dup3\n    /* \"#utility.yul\":3375:3387   */\n  and\n    /* \"#utility.yul\":3406:3424   */\n  dup1\n    /* \"#utility.yul\":3396:3477   */\n  tag_92\n  jumpi\n    /* \"#utility.yul\":3462:3466   */\n  0x7f\n    /* \"#utility.yul\":3454:3460   */\n  dup3\n    /* \"#utility.yul\":3450:3467   */\n  and\n    /* \"#utility.yul\":3440:3467   */\n  swap2\n  pop\n    /* \"#utility.yul\":3396:3477   */\ntag_92:\n    /* \"#utility.yul\":3524:3526   */\n  0x20\n    /* \"#utility.yul\":3516:3522   */\n  dup3\n    /* \"#utility.yul\":3513:3527   */\n  lt\n    /* \"#utility.yul\":3493:3511   */\n  dup2\n    /* \"#utility.yul\":3490:3528   */\n  eq\n    /* \"#utility.yul\":3487:3571   */\n  iszero\n  tag_93\n  jumpi\n    /* \"#utility.yul\":3543:3561   */\n  tag_94\n  tag_95\n  jump\t// in\ntag_94:\n    /* \"#utility.yul\":3487:3571   */\ntag_93:\n    /* \"#utility.yul\":3308:3577   */\n  pop\n    /* \"#utility.yul\":3257:3577   */\n  swap2\n  swap1\n  pop\n  jump\t// out\n    /* \"#utility.yul\":3583:3864   */\ntag_76:\n    /* \"#utility.yul\":3666:3693   */\n  tag_97\n    /* \"#utility.yul\":3688:3692   */\n  dup3\n    /* \"#utility.yul\":3666:3693   */\n  tag_83\n  jump\t// in\ntag_97:\n    /* \"#utility.yul\":3658:3664   */\n  dup2\n    /* \"#utility.yul\":3654:3694   */\n  add\n    /* \"#utility.yul\":3796:3802   */\n  dup2\n    /* \"#utility.yul\":3784:3794   */\n  dup2\n    /* \"#utility.yul\":3781:3803   */\n  lt\n    /* \"#utility.yul\":3760:3778   */\n  0xffffffffffffffff\n    /* \"#utility.yul\":3748:3758   */\n  dup3\n    /* \"#utility.yul\":3745:3779   */\n  gt\n    /* \"#utility.yul\":3742:3804   */\n  or\n    /* \"#utility.yul\":3739:3827   */\n  iszero\n  tag_98\n  jumpi\n    /* \"#utility.yul\":3807:3825   */\n  tag_99\n  tag_81\n  jump\t// in\ntag_99:\n    /* \"#utility.yul\":3739:3827   */\ntag_98:\n    /* \"#utility.yul\":3847:3857   */\n  dup1\n    /* \"#utility.yul\":3843:3845   */\n  0x40\n    /* \"#utility.yul\":3836:3858   */\n  mstore\n    /* \"#utility.yul\":3626:3864   */\n  pop\n    /* \"#utility.yul\":3583:3864   */\n  pop\n  pop\n  jump\t// out\n    /* \"#utility.yul\":3870:4050   */\ntag_95:\n    /* \"#utility.yul\":3918:3995   */\n  0x4e487b7100000000000000000000000000000000000000000000000000000000\n    /* \"#utility.yul\":3915:3916   */\n  0x00\n    /* \"#utility.yul\":3908:3996   */\n  mstore\n    /* \"#utility.yul\":4015:4019   */\n  0x22\n    /* \"#utility.yul\":4012:4013   */\n  0x04\n    /* \"#utility.yul\":4005:4020   */\n  mstore\n    /* \"#utility.yul\":4039:4043   */\n  0x24\n    /* \"#utility.yul\":4036:4037   */\n  0x00\n    /* \"#utility.yul\":4029:4044   */\n  revert\n    /* \"#utility.yul\":4056:4236   */\ntag_81:\n    /* \"#utility.yul\":4104:4181   */\n  0x4e487b7100000000000000000000000000000000000000000000000000000000\n    /* \"#utility.yul\":4101:4102   */\n  0x00\n    /* \"#utility.yul\":4094:4182   */\n  mstore\n    /* \"#utility.yul\":4201:4205   */\n  0x41\n    /* \"#utility.yul\":4198:4199   */\n  0x04\n    /* \"#utility.yul\":4191:4206   */\n  mstore\n    /* \"#utility.yul\":4225:4229   */\n  0x24\n    /* \"#utility.yul\":4222:4223   */\n  0x00\n    /* \"#utility.yul\":4215:4230   */\n  revert\n    /* \"#utility.yul\":4242:4359   */\ntag_51:\n    /* \"#utility.yul\":4351:4352   */\n  0x00\n    /* \"#utility.yul\":4348:4349   */\n  dup1\n    /* \"#utility.yul\":4341:4353   */\n  revert\n    /* \"#utility.yul\":4365:4482   */\ntag_44:\n    /* \"#utility.yul\":4474:4475   */\n  0x00\n    /* \"#utility.yul\":4471:4472   */\n  dup1\n    /* \"#utility.yul\":4464:4476   */\n  revert\n    /* \"#utility.yul\":4488:4605   */\ntag_63:\n    /* \"#utility.yul\":4597:4598   */\n  0x00\n    /* \"#utility.yul\":4594:4595   */\n  dup1\n    /* \"#utility.yul\":4587:4599   */\n  revert\n    /* \"#utility.yul\":4611:4728   */\ntag_60:\n    /* \"#utility.yul\":4720:4721   */\n  0x00\n    /* \"#utility.yul\":4717:4718   */\n  dup1\n    /* \"#utility.yul\":4710:4722   */\n  revert\n    /* \"#utility.yul\":4734:4836   */\ntag_83:\n    /* \"#utility.yul\":4775:4781   */\n  0x00\n    /* \"#utility.yul\":4826:4828   */\n  0x1f\n    /* \"#utility.yul\":4822:4829   */\n  not\n    /* \"#utility.yul\":4817:4819   */\n  0x1f\n    /* \"#utility.yul\":4810:4815   */\n  dup4\n    /* \"#utility.yul\":4806:4820   */\n  add\n    /* \"#utility.yul\":4802:4830   */\n  and\n    /* \"#utility.yul\":4792:4830   */\n  swap1\n  pop\n    /* \"#utility.yul\":4734:4836   */\n  swap2\n  swap1\n  pop\n  jump\t// out\n    /* \"#utility.yul\":4842:4962   */\ntag_56:\n    /* \"#utility.yul\":4914:4937   */\n  tag_108\n    /* \"#utility.yul\":4931:4936   */\n  dup2\n    /* \"#utility.yul\":4914:4937   */\n  tag_84\n  jump\t// in\ntag_108:\n    /* \"#utility.yul\":4907:4912   */\n  dup2\n    /* \"#utility.yul\":4904:4938   */\n  eq\n    /* \"#utility.yul\":4894:4956   */\n  tag_109\n  jumpi\n    /* \"#utility.yul\":4952:4953   */\n  0x00\n    /* \"#utility.yul\":4949:4950   */\n  dup1\n    /* \"#utility.yul\":4942:4954   */\n  revert\n    /* \"#utility.yul\":4894:4956   */\ntag_109:\n    /* \"#utility.yul\":4842:4962   */\n  pop\n  jump\t// out\n    /* \"NftContract.sol\":118:1959  contract BottleNft is Ownable, ERC721 {\r... */\ntag_18:\n  dataSize(sub_0)\n  dup1\n  dataOffset(sub_0)\n  0x00\n  codecopy\n  0x00\n  return\nstop\n\nsub_0: assembly {\n        /* \"NftContract.sol\":118:1959  contract BottleNft is Ownable, ERC721 {\r... */\n      mstore(0x40, 0x80)\n      callvalue\n      dup1\n      iszero\n      tag_1\n      jumpi\n      0x00\n      dup1\n      revert\n    tag_1:\n      pop\n      jumpi(tag_2, lt(calldatasize, 0x04))\n      shr(0xe0, calldataload(0x00))\n      dup1\n      0x8da5cb5b\n      gt\n      tag_27\n      jumpi\n      dup1\n      0xb88d4fde\n      gt\n      tag_28\n      jumpi\n      dup1\n      0xb88d4fde\n      eq\n      tag_21\n      jumpi\n      dup1\n      0xc4e18836\n      eq\n      tag_22\n      jumpi\n      dup1\n      0xc87b56dd\n      eq\n      tag_23\n      jumpi\n      dup1\n      0xe985e9c5\n      eq\n      tag_24\n      jumpi\n      dup1\n      0xf2fde38b\n      eq\n      tag_25\n      jumpi\n      dup1\n      0xfa695a97\n      eq\n      tag_26\n      jumpi\n      jump(tag_2)\n    tag_28:\n      dup1\n      0x8da5cb5b\n      eq\n      tag_15\n      jumpi\n      dup1\n      0x95d89b41\n      eq\n      tag_16\n      jumpi\n      dup1\n      0xa22cb465\n      eq\n      tag_17\n      jumpi\n      dup1\n      0xa2e69613\n      eq\n      tag_18\n      jumpi\n      dup1\n      0xa709dc17\n      eq\n      tag_19\n      jumpi\n      dup1\n      0xad2f852a\n      eq\n      tag_20\n      jumpi\n      jump(tag_2)\n    tag_27:\n      dup1\n      0x2a55205a\n      gt\n      tag_29\n      jumpi\n      dup1\n      0x2a55205a\n      eq\n      tag_9\n      jumpi\n      dup1\n      0x42842e0e\n      eq\n      tag_10\n      jumpi\n      dup1\n      0x6352211e\n      eq\n      tag_11\n      jumpi\n      dup1\n      0x6c0360eb\n      eq\n      tag_12\n      jumpi\n      dup1\n      0x70a08231\n      eq\n      tag_13\n      jumpi\n      dup1\n      0x73c7400e\n      eq\n      tag_14\n      jumpi\n      jump(tag_2)\n    tag_29:\n      dup1\n      0x01ffc9a7\n      eq\n      tag_3\n      jumpi\n      dup1\n      0x02fa7c47\n      eq\n      tag_4\n      jumpi\n      dup1\n      0x06fdde03\n      eq\n      tag_5\n      jumpi\n      dup1\n      0x081812fc\n      eq\n      tag_6\n      jumpi\n      dup1\n      0x095ea7b3\n      eq\n      tag_7\n      jumpi\n      dup1\n      0x23b872dd\n      eq\n      tag_8\n      jumpi\n    tag_2:\n      0x00\n      dup1\n      revert\n        /* \"ERC721.sol\":893:1330  function supportsInterface(bytes4 interfaceId)\r... */\n    tag_3:\n      tag_30\n      0x04\n      dup1\n      calldatasize\n      sub\n      dup2\n      add\n      swap1\n      tag_31\n      swap2\n      swap1\n      tag_32\n      jump\t// in\n    tag_31:\n      tag_33\n      jump\t// in\n    tag_30:\n      mload(0x40)\n      tag_34\n      swap2\n      swap1\n      tag_35\n      jump\t// in\n    tag_34:\n      mload(0x40)\n      dup1\n      swap2\n      sub\n      swap1\n      return\n        /* \"NftContract.sol\":1556:1774  function setRoyaltyInfo(address _royaltyAddress, uint96 _royaltyFeesInBips)\r... */\n    tag_4:\n      tag_36\n      0x04\n      dup1\n      calldatasize\n      sub\n      dup2\n      add\n      swap1\n      tag_37\n      swap2\n      swap1\n      tag_38\n      jump\t// in\n    tag_37:\n      tag_39\n      jump\t// in\n    tag_36:\n      stop\n        /* \"ERC721.sol\":1338:1356  string public name */\n    tag_5:\n      tag_40\n      tag_41\n      jump\t// in\n    tag_40:\n      mload(0x40)\n      tag_42\n      swap2\n      swap1\n      tag_43\n      jump\t// in\n    tag_42:\n      mload(0x40)\n      dup1\n      swap2\n      sub\n      swap1\n      return\n        /* \"ERC721.sol\":1498:1544  mapping(uint256 => address) public getApproved */\n    tag_6:\n      tag_44\n      0x04\n      dup1\n      calldatasize\n      sub\n      dup2\n      add\n      swap1\n      tag_45\n      swap2\n      swap1\n      tag_46\n      jump\t// in\n    tag_45:\n      tag_47\n      jump\t// in\n    tag_44:\n      mload(0x40)\n      tag_48\n      swap2\n      swap1\n      tag_49\n      jump\t// in\n    tag_48:\n      mload(0x40)\n      dup1\n      swap2\n      sub\n      swap1\n      return\n        /* \"ERC721.sol\":2432:2758  function approve(address spender, uint256 id) public virtual {\r... */\n    tag_7:\n      tag_50\n      0x04\n      dup1\n      calldatasize\n      sub\n      dup2\n      add\n      swap1\n      tag_51\n      swap2\n      swap1\n      tag_52\n      jump\t// in\n    tag_51:\n      tag_53\n      jump\t// in\n    tag_50:\n      stop\n        /* \"ERC721.sol\":2981:3601  function transferFrom(\r... */\n    tag_8:\n      tag_54\n      0x04\n      dup1\n      calldatasize\n      sub\n      dup2\n      add\n      swap1\n      tag_55\n      swap2\n      swap1\n      tag_56\n      jump\t// in\n    tag_55:\n      tag_57\n      jump\t// in\n    tag_54:\n      stop\n        /* \"NftContract.sol\":1344:1548  function royaltyInfo(uint256 _tokenId, uint256 _salePrice)\r... */\n    tag_9:\n      tag_58\n      0x04\n      dup1\n      calldatasize\n      sub\n      dup2\n      add\n      swap1\n      tag_59\n      swap2\n      swap1\n      tag_60\n      jump\t// in\n    tag_59:\n      tag_61\n      jump\t// in\n    tag_58:\n      mload(0x40)\n      tag_62\n      swap3\n      swap2\n      swap1\n      tag_63\n      jump\t// in\n    tag_62:\n      mload(0x40)\n      dup1\n      swap2\n      sub\n      swap1\n      return\n        /* \"ERC721.sol\":3609:4121  function safeTransferFrom(\r... */\n    tag_10:\n      tag_64\n      0x04\n      dup1\n      calldatasize\n      sub\n      dup2\n      add\n      swap1\n      tag_65\n      swap2\n      swap1\n      tag_56\n      jump\t// in\n    tag_65:\n      tag_66\n      jump\t// in\n    tag_64:\n      stop\n        /* \"ERC721.sol\":1447:1489  mapping(uint256 => address) public ownerOf */\n    tag_11:\n      tag_67\n      0x04\n      dup1\n      calldatasize\n      sub\n      dup2\n      add\n      swap1\n      tag_68\n      swap2\n      swap1\n      tag_46\n      jump\t// in\n    tag_68:\n      tag_69\n      jump\t// in\n    tag_67:\n      mload(0x40)\n      tag_70\n      swap2\n      swap1\n      tag_49\n      jump\t// in\n    tag_70:\n      mload(0x40)\n      dup1\n      swap2\n      sub\n      swap1\n      return\n        /* \"NftContract.sol\":163:184  string public baseURI */\n    tag_12:\n      tag_71\n      tag_72\n      jump\t// in\n    tag_71:\n      mload(0x40)\n      tag_73\n      swap2\n      swap1\n      tag_43\n      jump\t// in\n    tag_73:\n      mload(0x40)\n      dup1\n      swap2\n      sub\n      swap1\n      return\n        /* \"ERC721.sol\":1394:1438  mapping(address => uint256) public balanceOf */\n    tag_13:\n      tag_74\n      0x04\n      dup1\n      calldatasize\n      sub\n      dup2\n      add\n      swap1\n      tag_75\n      swap2\n      swap1\n      tag_76\n      jump\t// in\n    tag_75:\n      tag_77\n      jump\t// in\n    tag_74:\n      mload(0x40)\n      tag_78\n      swap2\n      swap1\n      tag_79\n      jump\t// in\n    tag_78:\n      mload(0x40)\n      dup1\n      swap2\n      sub\n      swap1\n      return\n        /* \"NftContract.sol\":230:261  uint96 public royaltyFeesInBips */\n    tag_14:\n      tag_80\n      tag_81\n      jump\t// in\n    tag_80:\n      mload(0x40)\n      tag_82\n      swap2\n      swap1\n      tag_83\n      jump\t// in\n    tag_82:\n      mload(0x40)\n      dup1\n      swap2\n      sub\n      swap1\n      return\n        /* \"utils/Ownable.sol\":354:441  function owner() public view virtual returns (address) {\r... */\n    tag_15:\n      tag_84\n      tag_85\n      jump\t// in\n    tag_84:\n      mload(0x40)\n      tag_86\n      swap2\n      swap1\n      tag_49\n      jump\t// in\n    tag_86:\n      mload(0x40)\n      dup1\n      swap2\n      sub\n      swap1\n      return\n        /* \"ERC721.sol\":1365:1385  string public symbol */\n    tag_16:\n      tag_87\n      tag_88\n      jump\t// in\n    tag_87:\n      mload(0x40)\n      tag_89\n      swap2\n      swap1\n      tag_43\n      jump\t// in\n    tag_89:\n      mload(0x40)\n      dup1\n      swap2\n      sub\n      swap1\n      return\n        /* \"ERC721.sol\":2766:2973  function setApprovalForAll(address operator, bool approved) public virtual {\r... */\n    tag_17:\n      tag_90\n      0x04\n      dup1\n      calldatasize\n      sub\n      dup2\n      add\n      swap1\n      tag_91\n      swap2\n      swap1\n      tag_92\n      jump\t// in\n    tag_91:\n      tag_93\n      jump\t// in\n    tag_90:\n      stop\n        /* \"NftContract.sol\":1782:1956  function calculateRoyalty(uint256 _salePrice)\r... */\n    tag_18:\n      tag_94\n      0x04\n      dup1\n      calldatasize\n      sub\n      dup2\n      add\n      swap1\n      tag_95\n      swap2\n      swap1\n      tag_46\n      jump\t// in\n    tag_95:\n      tag_96\n      jump\t// in\n    tag_94:\n      mload(0x40)\n      tag_97\n      swap2\n      swap1\n      tag_79\n      jump\t// in\n    tag_97:\n      mload(0x40)\n      dup1\n      swap2\n      sub\n      swap1\n      return\n        /* \"NftContract.sol\":944:1214  function mintMany(address to, uint64 amount) public {\r... */\n    tag_19:\n      tag_98\n      0x04\n      dup1\n      calldatasize\n      sub\n      dup2\n      add\n      swap1\n      tag_99\n      swap2\n      swap1\n      tag_100\n      jump\t// in\n    tag_99:\n      tag_101\n      jump\t// in\n    tag_98:\n      stop\n        /* \"NftContract.sol\":268:297  address public royaltyAddress */\n    tag_20:\n      tag_102\n      tag_103\n      jump\t// in\n    tag_102:\n      mload(0x40)\n      tag_104\n      swap2\n      swap1\n      tag_49\n      jump\t// in\n    tag_104:\n      mload(0x40)\n      dup1\n      swap2\n      sub\n      swap1\n      return\n        /* \"ERC721.sol\":4129:4671  function safeTransferFrom(\r... */\n    tag_21:\n      tag_105\n      0x04\n      dup1\n      calldatasize\n      sub\n      dup2\n      add\n      swap1\n      tag_106\n      swap2\n      swap1\n      tag_107\n      jump\t// in\n    tag_106:\n      tag_108\n      jump\t// in\n    tag_105:\n      stop\n        /* \"NftContract.sol\":1222:1336  function allowMint(address _minter, bool status) external onlyOwner {\r... */\n    tag_22:\n      tag_109\n      0x04\n      dup1\n      calldatasize\n      sub\n      dup2\n      add\n      swap1\n      tag_110\n      swap2\n      swap1\n      tag_92\n      jump\t// in\n    tag_110:\n      tag_111\n      jump\t// in\n    tag_109:\n      stop\n        /* \"ERC721.sol\":1752:2155  function tokenURI(uint256 tokenId)\r... */\n    tag_23:\n      tag_112\n      0x04\n      dup1\n      calldatasize\n      sub\n      dup2\n      add\n      swap1\n      tag_113\n      swap2\n      swap1\n      tag_46\n      jump\t// in\n    tag_113:\n      tag_114\n      jump\t// in\n    tag_112:\n      mload(0x40)\n      tag_115\n      swap2\n      swap1\n      tag_43\n      jump\t// in\n    tag_115:\n      mload(0x40)\n      dup1\n      swap2\n      sub\n      swap1\n      return\n        /* \"ERC721.sol\":1553:1621  mapping(address => mapping(address => bool)) public isApprovedForAll */\n    tag_24:\n      tag_116\n      0x04\n      dup1\n      calldatasize\n      sub\n      dup2\n      add\n      swap1\n      tag_117\n      swap2\n      swap1\n      tag_118\n      jump\t// in\n    tag_117:\n      tag_119\n      jump\t// in\n    tag_116:\n      mload(0x40)\n      tag_120\n      swap2\n      swap1\n      tag_35\n      jump\t// in\n    tag_120:\n      mload(0x40)\n      dup1\n      swap2\n      sub\n      swap1\n      return\n        /* \"utils/Ownable.sol\":568:720  function transferOwnership(address newOwner) public virtual onlyOwner {\r... */\n    tag_25:\n      tag_121\n      0x04\n      dup1\n      calldatasize\n      sub\n      dup2\n      add\n      swap1\n      tag_122\n      swap2\n      swap1\n      tag_76\n      jump\t// in\n    tag_122:\n      tag_123\n      jump\t// in\n    tag_121:\n      stop\n        /* \"NftContract.sol\":746:936  function mintOne(address to) public {\r... */\n    tag_26:\n      tag_124\n      0x04\n      dup1\n      calldatasize\n      sub\n      dup2\n      add\n      swap1\n      tag_125\n      swap2\n      swap1\n      tag_76\n      jump\t// in\n    tag_125:\n      tag_126\n      jump\t// in\n    tag_124:\n      stop\n        /* \"ERC721.sol\":893:1330  function supportsInterface(bytes4 interfaceId)\r... */\n    tag_33:\n        /* \"ERC721.sol\":1005:1009  bool */\n      0x00\n        /* \"ERC721.sol\":1062:1072  0x01ffc9a7 */\n      0x01ffc9a7\n        /* \"ERC721.sol\":1047:1072  interfaceId == 0x01ffc9a7 */\n      0xe0\n      shl\n        /* \"ERC721.sol\":1047:1058  interfaceId */\n      dup3\n        /* \"ERC721.sol\":1047:1072  interfaceId == 0x01ffc9a7 */\n      not(0xffffffffffffffffffffffffffffffffffffffffffffffffffffffff)\n      and\n      eq\n        /* \"ERC721.sol\":1047:1148  interfaceId == 0x01ffc9a7 || // ERC165 Interface ID for ERC165\r... */\n      dup1\n      tag_128\n      jumpi\n      pop\n        /* \"ERC721.sol\":1138:1148  0x80ac58cd */\n      0x80ac58cd\n        /* \"ERC721.sol\":1123:1148  interfaceId == 0x80ac58cd */\n      0xe0\n      shl\n        /* \"ERC721.sol\":1123:1134  interfaceId */\n      dup3\n        /* \"ERC721.sol\":1123:1148  interfaceId == 0x80ac58cd */\n      not(0xffffffffffffffffffffffffffffffffffffffffffffffffffffffff)\n      and\n      eq\n        /* \"ERC721.sol\":1047:1148  interfaceId == 0x01ffc9a7 || // ERC165 Interface ID for ERC165\r... */\n    tag_128:\n        /* \"ERC721.sol\":1047:1224  interfaceId == 0x01ffc9a7 || // ERC165 Interface ID for ERC165\r... */\n      dup1\n      tag_129\n      jumpi\n      pop\n        /* \"ERC721.sol\":1214:1224  0x5b5e139f */\n      0x5b5e139f\n        /* \"ERC721.sol\":1199:1224  interfaceId == 0x5b5e139f */\n      0xe0\n      shl\n        /* \"ERC721.sol\":1199:1210  interfaceId */\n      dup3\n        /* \"ERC721.sol\":1199:1224  interfaceId == 0x5b5e139f */\n      not(0xffffffffffffffffffffffffffffffffffffffffffffffffffffffff)\n      and\n      eq\n        /* \"ERC721.sol\":1047:1224  interfaceId == 0x01ffc9a7 || // ERC165 Interface ID for ERC165\r... */\n    tag_129:\n        /* \"ERC721.sol\":1047:1308  interfaceId == 0x01ffc9a7 || // ERC165 Interface ID for ERC165\r... */\n      dup1\n      tag_130\n      jumpi\n      pop\n        /* \"ERC721.sol\":1298:1308  0x2a55205a */\n      0x2a55205a\n        /* \"ERC721.sol\":1283:1308  interfaceId == 0x2a55205a */\n      0xe0\n      shl\n        /* \"ERC721.sol\":1283:1294  interfaceId */\n      dup3\n        /* \"ERC721.sol\":1283:1308  interfaceId == 0x2a55205a */\n      not(0xffffffffffffffffffffffffffffffffffffffffffffffffffffffff)\n      and\n      eq\n        /* \"ERC721.sol\":1047:1308  interfaceId == 0x01ffc9a7 || // ERC165 Interface ID for ERC165\r... */\n    tag_130:\n        /* \"ERC721.sol\":1027:1308  return\r... */\n      swap1\n      pop\n        /* \"ERC721.sol\":893:1330  function supportsInterface(bytes4 interfaceId)\r... */\n      swap2\n      swap1\n      pop\n      jump\t// out\n        /* \"NftContract.sol\":1556:1774  function setRoyaltyInfo(address _royaltyAddress, uint96 _royaltyFeesInBips)\r... */\n    tag_39:\n        /* \"utils/Ownable.sol\":505:512  owner() */\n      tag_132\n        /* \"utils/Ownable.sol\":505:510  owner */\n      tag_85\n        /* \"utils/Ownable.sol\":505:512  owner() */\n      jump\t// in\n    tag_132:\n        /* \"utils/Ownable.sol\":489:512  _msgSender() == owner() */\n      0xffffffffffffffffffffffffffffffffffffffff\n      and\n        /* \"utils/Ownable.sol\":489:501  _msgSender() */\n      tag_133\n        /* \"utils/Ownable.sol\":489:499  _msgSender */\n      tag_134\n        /* \"utils/Ownable.sol\":489:501  _msgSender() */\n      jump\t// in\n    tag_133:\n        /* \"utils/Ownable.sol\":489:512  _msgSender() == owner() */\n      0xffffffffffffffffffffffffffffffffffffffff\n      and\n      eq\n        /* \"utils/Ownable.sol\":481:540  require(_msgSender() == owner(), \"Caller is not the owner\") */\n      tag_135\n      jumpi\n      mload(0x40)\n      0x08c379a000000000000000000000000000000000000000000000000000000000\n      dup2\n      mstore\n      0x04\n      add\n      tag_136\n      swap1\n      tag_137\n      jump\t// in\n    tag_136:\n      mload(0x40)\n      dup1\n      swap2\n      sub\n      swap1\n      revert\n    tag_135:\n        /* \"NftContract.sol\":1702:1717  _royaltyAddress */\n      dup2\n        /* \"NftContract.sol\":1685:1699  royaltyAddress */\n      0x09\n      0x0c\n        /* \"NftContract.sol\":1685:1717  royaltyAddress = _royaltyAddress */\n      0x0100\n      exp\n      dup2\n      sload\n      dup2\n      0xffffffffffffffffffffffffffffffffffffffff\n      mul\n      not\n      and\n      swap1\n      dup4\n      0xffffffffffffffffffffffffffffffffffffffff\n      and\n      mul\n      or\n      swap1\n      sstore\n      pop\n        /* \"NftContract.sol\":1748:1766  _royaltyFeesInBips */\n      dup1\n        /* \"NftContract.sol\":1728:1745  royaltyFeesInBips */\n      0x09\n      0x00\n        /* \"NftContract.sol\":1728:1766  royaltyFeesInBips = _royaltyFeesInBips */\n      0x0100\n      exp\n      dup2\n      sload\n      dup2\n      0xffffffffffffffffffffffff\n      mul\n      not\n      and\n      swap1\n      dup4\n      0xffffffffffffffffffffffff\n      and\n      mul\n      or\n      swap1\n      sstore\n      pop\n        /* \"NftContract.sol\":1556:1774  function setRoyaltyInfo(address _royaltyAddress, uint96 _royaltyFeesInBips)\r... */\n      pop\n      pop\n      jump\t// out\n        /* \"ERC721.sol\":1338:1356  string public name */\n    tag_41:\n      0x01\n      dup1\n      sload\n      tag_139\n      swap1\n      tag_140\n      jump\t// in\n    tag_139:\n      dup1\n      0x1f\n      add\n      0x20\n      dup1\n      swap2\n      div\n      mul\n      0x20\n      add\n      mload(0x40)\n      swap1\n      dup2\n      add\n      0x40\n      mstore\n      dup1\n      swap3\n      swap2\n      swap1\n      dup2\n      dup2\n      mstore\n      0x20\n      add\n      dup3\n      dup1\n      sload\n      tag_141\n      swap1\n      tag_140\n      jump\t// in\n    tag_141:\n      dup1\n      iszero\n      tag_142\n      jumpi\n      dup1\n      0x1f\n      lt\n      tag_143\n      jumpi\n      0x0100\n      dup1\n      dup4\n      sload\n      div\n      mul\n      dup4\n      mstore\n      swap2\n      0x20\n      add\n      swap2\n      jump(tag_142)\n    tag_143:\n      dup3\n      add\n      swap2\n      swap1\n      0x00\n      mstore\n      keccak256(0x00, 0x20)\n      swap1\n    tag_144:\n      dup2\n      sload\n      dup2\n      mstore\n      swap1\n      0x01\n      add\n      swap1\n      0x20\n      add\n      dup1\n      dup4\n      gt\n      tag_144\n      jumpi\n      dup3\n      swap1\n      sub\n      0x1f\n      and\n      dup3\n      add\n      swap2\n    tag_142:\n      pop\n      pop\n      pop\n      pop\n      pop\n      dup2\n      jump\t// out\n        /* \"ERC721.sol\":1498:1544  mapping(uint256 => address) public getApproved */\n    tag_47:\n      mstore(0x20, 0x05)\n      dup1\n      0x00\n      mstore\n      keccak256(0x00, 0x40)\n      0x00\n      swap2\n      pop\n      sload\n      swap1\n      0x0100\n      exp\n      swap1\n      div\n      0xffffffffffffffffffffffffffffffffffffffff\n      and\n      dup2\n      jump\t// out\n        /* \"ERC721.sol\":2432:2758  function approve(address spender, uint256 id) public virtual {\r... */\n    tag_53:\n        /* \"ERC721.sol\":2504:2517  address owner */\n      0x00\n        /* \"ERC721.sol\":2520:2527  ownerOf */\n      0x04\n        /* \"ERC721.sol\":2520:2531  ownerOf[id] */\n      0x00\n        /* \"ERC721.sol\":2528:2530  id */\n      dup4\n        /* \"ERC721.sol\":2520:2531  ownerOf[id] */\n      dup2\n      mstore\n      0x20\n      add\n      swap1\n      dup2\n      mstore\n      0x20\n      add\n      0x00\n      keccak256\n      0x00\n      swap1\n      sload\n      swap1\n      0x0100\n      exp\n      swap1\n      div\n      0xffffffffffffffffffffffffffffffffffffffff\n      and\n        /* \"ERC721.sol\":2504:2531  address owner = ownerOf[id] */\n      swap1\n      pop\n        /* \"ERC721.sol\":2580:2585  owner */\n      dup1\n        /* \"ERC721.sol\":2566:2585  msg.sender == owner */\n      0xffffffffffffffffffffffffffffffffffffffff\n      and\n        /* \"ERC721.sol\":2566:2576  msg.sender */\n      caller\n        /* \"ERC721.sol\":2566:2585  msg.sender == owner */\n      0xffffffffffffffffffffffffffffffffffffffff\n      and\n      eq\n        /* \"ERC721.sol\":2566:2624  msg.sender == owner || isApprovedForAll[owner][msg.sender] */\n      dup1\n      tag_146\n      jumpi\n      pop\n        /* \"ERC721.sol\":2589:2605  isApprovedForAll */\n      0x06\n        /* \"ERC721.sol\":2589:2612  isApprovedForAll[owner] */\n      0x00\n        /* \"ERC721.sol\":2606:2611  owner */\n      dup3\n        /* \"ERC721.sol\":2589:2612  isApprovedForAll[owner] */\n      0xffffffffffffffffffffffffffffffffffffffff\n      and\n      0xffffffffffffffffffffffffffffffffffffffff\n      and\n      dup2\n      mstore\n      0x20\n      add\n      swap1\n      dup2\n      mstore\n      0x20\n      add\n      0x00\n      keccak256\n        /* \"ERC721.sol\":2589:2624  isApprovedForAll[owner][msg.sender] */\n      0x00\n        /* \"ERC721.sol\":2613:2623  msg.sender */\n      caller\n        /* \"ERC721.sol\":2589:2624  isApprovedForAll[owner][msg.sender] */\n      0xffffffffffffffffffffffffffffffffffffffff\n      and\n      0xffffffffffffffffffffffffffffffffffffffff\n      and\n      dup2\n      mstore\n      0x20\n      add\n      swap1\n      dup2\n      mstore\n      0x20\n      add\n      0x00\n      keccak256\n      0x00\n      swap1\n      sload\n      swap1\n      0x0100\n      exp\n      swap1\n      div\n      0xff\n      and\n        /* \"ERC721.sol\":2566:2624  msg.sender == owner || isApprovedForAll[owner][msg.sender] */\n    tag_146:\n        /* \"ERC721.sol\":2544:2666  require(\r... */\n      tag_147\n      jumpi\n      mload(0x40)\n      0x08c379a000000000000000000000000000000000000000000000000000000000\n      dup2\n      mstore\n      0x04\n      add\n      tag_148\n      swap1\n      tag_149\n      jump\t// in\n    tag_148:\n      mload(0x40)\n      dup1\n      swap2\n      sub\n      swap1\n      revert\n    tag_147:\n        /* \"ERC721.sol\":2697:2704  spender */\n      dup3\n        /* \"ERC721.sol\":2679:2690  getApproved */\n      0x05\n        /* \"ERC721.sol\":2679:2694  getApproved[id] */\n      0x00\n        /* \"ERC721.sol\":2691:2693  id */\n      dup5\n        /* \"ERC721.sol\":2679:2694  getApproved[id] */\n      dup2\n      mstore\n      0x20\n      add\n      swap1\n      dup2\n      mstore\n      0x20\n      add\n      0x00\n      keccak256\n      0x00\n        /* \"ERC721.sol\":2679:2704  getApproved[id] = spender */\n      0x0100\n      exp\n      dup2\n      sload\n      dup2\n      0xffffffffffffffffffffffffffffffffffffffff\n      mul\n      not\n      and\n      swap1\n      dup4\n      0xffffffffffffffffffffffffffffffffffffffff\n      and\n      mul\n      or\n      swap1\n      sstore\n      pop\n        /* \"ERC721.sol\":2747:2749  id */\n      dup2\n        /* \"ERC721.sol\":2738:2745  spender */\n      dup4\n        /* \"ERC721.sol\":2722:2750  Approval(owner, spender, id) */\n      0xffffffffffffffffffffffffffffffffffffffff\n      and\n        /* \"ERC721.sol\":2731:2736  owner */\n      dup3\n        /* \"ERC721.sol\":2722:2750  Approval(owner, spender, id) */\n      0xffffffffffffffffffffffffffffffffffffffff\n      and\n      0x8c5be1e5ebec7d5bd14f71427d1e84f3dd0314c0f7b2291e5b200ac8c7c3b925\n      mload(0x40)\n      mload(0x40)\n      dup1\n      swap2\n      sub\n      swap1\n      log4\n        /* \"ERC721.sol\":2493:2758  {\r... */\n      pop\n        /* \"ERC721.sol\":2432:2758  function approve(address spender, uint256 id) public virtual {\r... */\n      pop\n      pop\n      jump\t// out\n        /* \"ERC721.sol\":2981:3601  function transferFrom(\r... */\n    tag_57:\n        /* \"ERC721.sol\":3117:3124  ownerOf */\n      0x04\n        /* \"ERC721.sol\":3117:3128  ownerOf[id] */\n      0x00\n        /* \"ERC721.sol\":3125:3127  id */\n      dup3\n        /* \"ERC721.sol\":3117:3128  ownerOf[id] */\n      dup2\n      mstore\n      0x20\n      add\n      swap1\n      dup2\n      mstore\n      0x20\n      add\n      0x00\n      keccak256\n      0x00\n      swap1\n      sload\n      swap1\n      0x0100\n      exp\n      swap1\n      div\n      0xffffffffffffffffffffffffffffffffffffffff\n      and\n        /* \"ERC721.sol\":3109:3128  from == ownerOf[id] */\n      0xffffffffffffffffffffffffffffffffffffffff\n      and\n        /* \"ERC721.sol\":3109:3113  from */\n      dup4\n        /* \"ERC721.sol\":3109:3128  from == ownerOf[id] */\n      0xffffffffffffffffffffffffffffffffffffffff\n      and\n      eq\n        /* \"ERC721.sol\":3101:3143  require(from == ownerOf[id], \"WRONG FROM\") */\n      tag_151\n      jumpi\n      mload(0x40)\n      0x08c379a000000000000000000000000000000000000000000000000000000000\n      dup2\n      mstore\n      0x04\n      add\n      tag_152\n      swap1\n      tag_153\n      jump\t// in\n    tag_152:\n      mload(0x40)\n      dup1\n      swap2\n      sub\n      swap1\n      revert\n    tag_151:\n        /* \"ERC721.sol\":3178:3179  0 */\n      0x00\n        /* \"ERC721.sol\":3164:3180  to != address(0) */\n      0xffffffffffffffffffffffffffffffffffffffff\n      and\n        /* \"ERC721.sol\":3164:3166  to */\n      dup3\n        /* \"ERC721.sol\":3164:3180  to != address(0) */\n      0xffffffffffffffffffffffffffffffffffffffff\n      and\n      eq\n      iszero\n        /* \"ERC721.sol\":3156:3193  require(to != address(0), \"WRONG TO\") */\n      tag_154\n      jumpi\n      mload(0x40)\n      0x08c379a000000000000000000000000000000000000000000000000000000000\n      dup2\n      mstore\n      0x04\n      add\n      tag_155\n      swap1\n      tag_156\n      jump\t// in\n    tag_155:\n      mload(0x40)\n      dup1\n      swap2\n      sub\n      swap1\n      revert\n    tag_154:\n        /* \"ERC721.sol\":3242:3246  from */\n      dup3\n        /* \"ERC721.sol\":3228:3246  msg.sender == from */\n      0xffffffffffffffffffffffffffffffffffffffff\n      and\n        /* \"ERC721.sol\":3228:3238  msg.sender */\n      caller\n        /* \"ERC721.sol\":3228:3246  msg.sender == from */\n      0xffffffffffffffffffffffffffffffffffffffff\n      and\n      eq\n        /* \"ERC721.sol\":3228:3301  msg.sender == from ||\r... */\n      dup1\n      tag_157\n      jumpi\n      pop\n        /* \"ERC721.sol\":3267:3283  isApprovedForAll */\n      0x06\n        /* \"ERC721.sol\":3267:3289  isApprovedForAll[from] */\n      0x00\n        /* \"ERC721.sol\":3284:3288  from */\n      dup5\n        /* \"ERC721.sol\":3267:3289  isApprovedForAll[from] */\n      0xffffffffffffffffffffffffffffffffffffffff\n      and\n      0xffffffffffffffffffffffffffffffffffffffff\n      and\n      dup2\n      mstore\n      0x20\n      add\n      swap1\n      dup2\n      mstore\n      0x20\n      add\n      0x00\n      keccak256\n        /* \"ERC721.sol\":3267:3301  isApprovedForAll[from][msg.sender] */\n      0x00\n        /* \"ERC721.sol\":3290:3300  msg.sender */\n      caller\n        /* \"ERC721.sol\":3267:3301  isApprovedForAll[from][msg.sender] */\n      0xffffffffffffffffffffffffffffffffffffffff\n      and\n      0xffffffffffffffffffffffffffffffffffffffff\n      and\n      dup2\n      mstore\n      0x20\n      add\n      swap1\n      dup2\n      mstore\n      0x20\n      add\n      0x00\n      keccak256\n      0x00\n      swap1\n      sload\n      swap1\n      0x0100\n      exp\n      swap1\n      div\n      0xff\n      and\n        /* \"ERC721.sol\":3228:3301  msg.sender == from ||\r... */\n    tag_157:\n        /* \"ERC721.sol\":3228:3351  msg.sender == from ||\r... */\n      dup1\n      tag_158\n      jumpi\n      pop\n        /* \"ERC721.sol\":3336:3347  getApproved */\n      0x05\n        /* \"ERC721.sol\":3336:3351  getApproved[id] */\n      0x00\n        /* \"ERC721.sol\":3348:3350  id */\n      dup3\n        /* \"ERC721.sol\":3336:3351  getApproved[id] */\n      dup2\n      mstore\n      0x20\n      add\n      swap1\n      dup2\n      mstore\n      0x20\n      add\n      0x00\n      keccak256\n      0x00\n      swap1\n      sload\n      swap1\n      0x0100\n      exp\n      swap1\n      div\n      0xffffffffffffffffffffffffffffffffffffffff\n      and\n        /* \"ERC721.sol\":3322:3351  msg.sender == getApproved[id] */\n      0xffffffffffffffffffffffffffffffffffffffff\n      and\n        /* \"ERC721.sol\":3322:3332  msg.sender */\n      caller\n        /* \"ERC721.sol\":3322:3351  msg.sender == getApproved[id] */\n      0xffffffffffffffffffffffffffffffffffffffff\n      and\n      eq\n        /* \"ERC721.sol\":3228:3351  msg.sender == from ||\r... */\n    tag_158:\n        /* \"ERC721.sol\":3206:3393  require(\r... */\n      tag_159\n      jumpi\n      mload(0x40)\n      0x08c379a000000000000000000000000000000000000000000000000000000000\n      dup2\n      mstore\n      0x04\n      add\n      tag_160\n      swap1\n      tag_161\n      jump\t// in\n    tag_160:\n      mload(0x40)\n      dup1\n      swap2\n      sub\n      swap1\n      revert\n    tag_159:\n        /* \"ERC721.sol\":3431:3440  balanceOf */\n      0x03\n        /* \"ERC721.sol\":3431:3446  balanceOf[from] */\n      0x00\n        /* \"ERC721.sol\":3441:3445  from */\n      dup5\n        /* \"ERC721.sol\":3431:3446  balanceOf[from] */\n      0xffffffffffffffffffffffffffffffffffffffff\n      and\n      0xffffffffffffffffffffffffffffffffffffffff\n      and\n      dup2\n      mstore\n      0x20\n      add\n      swap1\n      dup2\n      mstore\n      0x20\n      add\n      0x00\n      keccak256\n      0x00\n        /* \"ERC721.sol\":3431:3448  balanceOf[from]-- */\n      dup2\n      sload\n      dup1\n      swap3\n      swap2\n      swap1\n      0x01\n      swap1\n      sub\n      swap2\n      swap1\n      pop\n      sstore\n      pop\n        /* \"ERC721.sol\":3463:3472  balanceOf */\n      0x03\n        /* \"ERC721.sol\":3463:3476  balanceOf[to] */\n      0x00\n        /* \"ERC721.sol\":3473:3475  to */\n      dup4\n        /* \"ERC721.sol\":3463:3476  balanceOf[to] */\n      0xffffffffffffffffffffffffffffffffffffffff\n      and\n      0xffffffffffffffffffffffffffffffffffffffff\n      and\n      dup2\n      mstore\n      0x20\n      add\n      swap1\n      dup2\n      mstore\n      0x20\n      add\n      0x00\n      keccak256\n      0x00\n        /* \"ERC721.sol\":3463:3478  balanceOf[to]++ */\n      dup2\n      sload\n      dup1\n      swap3\n      swap2\n      swap1\n      0x01\n      add\n      swap2\n      swap1\n      pop\n      sstore\n      pop\n        /* \"ERC721.sol\":3516:3518  to */\n      dup2\n        /* \"ERC721.sol\":3502:3509  ownerOf */\n      0x04\n        /* \"ERC721.sol\":3502:3513  ownerOf[id] */\n      0x00\n        /* \"ERC721.sol\":3510:3512  id */\n      dup4\n        /* \"ERC721.sol\":3502:3513  ownerOf[id] */\n      dup2\n      mstore\n      0x20\n      add\n      swap1\n      dup2\n      mstore\n      0x20\n      add\n      0x00\n      keccak256\n      0x00\n        /* \"ERC721.sol\":3502:3518  ownerOf[id] = to */\n      0x0100\n      exp\n      dup2\n      sload\n      dup2\n      0xffffffffffffffffffffffffffffffffffffffff\n      mul\n      not\n      and\n      swap1\n      dup4\n      0xffffffffffffffffffffffffffffffffffffffff\n      and\n      mul\n      or\n      swap1\n      sstore\n      pop\n        /* \"ERC721.sol\":3538:3549  getApproved */\n      0x05\n        /* \"ERC721.sol\":3538:3553  getApproved[id] */\n      0x00\n        /* \"ERC721.sol\":3550:3552  id */\n      dup3\n        /* \"ERC721.sol\":3538:3553  getApproved[id] */\n      dup2\n      mstore\n      0x20\n      add\n      swap1\n      dup2\n      mstore\n      0x20\n      add\n      0x00\n      keccak256\n      0x00\n        /* \"ERC721.sol\":3531:3553  delete getApproved[id] */\n      0x0100\n      exp\n      dup2\n      sload\n      swap1\n      0xffffffffffffffffffffffffffffffffffffffff\n      mul\n      not\n      and\n      swap1\n      sstore\n        /* \"ERC721.sol\":3590:3592  id */\n      dup1\n        /* \"ERC721.sol\":3586:3588  to */\n      dup3\n        /* \"ERC721.sol\":3571:3593  Transfer(from, to, id) */\n      0xffffffffffffffffffffffffffffffffffffffff\n      and\n        /* \"ERC721.sol\":3580:3584  from */\n      dup5\n        /* \"ERC721.sol\":3571:3593  Transfer(from, to, id) */\n      0xffffffffffffffffffffffffffffffffffffffff\n      and\n      0xddf252ad1be2c89b69c2b068fc378daa952ba7f163c4a11628f55a4df523b3ef\n      mload(0x40)\n      mload(0x40)\n      dup1\n      swap2\n      sub\n      swap1\n      log4\n        /* \"ERC721.sol\":2981:3601  function transferFrom(\r... */\n      pop\n      pop\n      pop\n      jump\t// out\n        /* \"NftContract.sol\":1344:1548  function royaltyInfo(uint256 _tokenId, uint256 _salePrice)\r... */\n    tag_61:\n        /* \"NftContract.sol\":1453:1460  address */\n      0x00\n        /* \"NftContract.sol\":1462:1469  uint256 */\n      dup1\n        /* \"NftContract.sol\":1495:1509  royaltyAddress */\n      0x09\n      0x0c\n      swap1\n      sload\n      swap1\n      0x0100\n      exp\n      swap1\n      div\n      0xffffffffffffffffffffffffffffffffffffffff\n      and\n        /* \"NftContract.sol\":1511:1539  calculateRoyalty(_salePrice) */\n      tag_163\n        /* \"NftContract.sol\":1528:1538  _salePrice */\n      dup5\n        /* \"NftContract.sol\":1511:1527  calculateRoyalty */\n      tag_96\n        /* \"NftContract.sol\":1511:1539  calculateRoyalty(_salePrice) */\n      jump\t// in\n    tag_163:\n        /* \"NftContract.sol\":1487:1540  return (royaltyAddress, calculateRoyalty(_salePrice)) */\n      swap2\n      pop\n      swap2\n      pop\n        /* \"NftContract.sol\":1344:1548  function royaltyInfo(uint256 _tokenId, uint256 _salePrice)\r... */\n      swap3\n      pop\n      swap3\n      swap1\n      pop\n      jump\t// out\n        /* \"ERC721.sol\":3609:4121  function safeTransferFrom(\r... */\n    tag_66:\n        /* \"ERC721.sol\":3733:3759  transferFrom(from, to, id) */\n      tag_165\n        /* \"ERC721.sol\":3746:3750  from */\n      dup4\n        /* \"ERC721.sol\":3752:3754  to */\n      dup4\n        /* \"ERC721.sol\":3756:3758  id */\n      dup4\n        /* \"ERC721.sol\":3733:3745  transferFrom */\n      tag_57\n        /* \"ERC721.sol\":3733:3759  transferFrom(from, to, id) */\n      jump\t// in\n    tag_165:\n        /* \"ERC721.sol\":3812:3813  0 */\n      0x00\n        /* \"ERC721.sol\":3794:3796  to */\n      dup3\n        /* \"ERC721.sol\":3794:3808  to.code.length */\n      0xffffffffffffffffffffffffffffffffffffffff\n      and\n      extcodesize\n        /* \"ERC721.sol\":3794:3813  to.code.length == 0 */\n      eq\n        /* \"ERC721.sol\":3794:4069  to.code.length == 0 ||\r... */\n      dup1\n      tag_166\n      jumpi\n      pop\n        /* \"ERC721.sol\":4024:4069  ERC721TokenReceiver.onERC721Received.selector */\n      shl(0xe0, 0x150b7a02)\n        /* \"ERC721.sol\":3834:4069  ERC721TokenReceiver(to).onERC721Received(\r... */\n      not(0xffffffffffffffffffffffffffffffffffffffffffffffffffffffff)\n      and\n        /* \"ERC721.sol\":3854:3856  to */\n      dup3\n        /* \"ERC721.sol\":3834:3874  ERC721TokenReceiver(to).onERC721Received */\n      0xffffffffffffffffffffffffffffffffffffffff\n      and\n      0x150b7a02\n        /* \"ERC721.sol\":3897:3907  msg.sender */\n      caller\n        /* \"ERC721.sol\":3930:3934  from */\n      dup7\n        /* \"ERC721.sol\":3957:3959  id */\n      dup6\n        /* \"ERC721.sol\":3834:4003  ERC721TokenReceiver(to).onERC721Received(\r... */\n      mload(0x40)\n      dup5\n      0xffffffff\n      and\n      0xe0\n      shl\n      dup2\n      mstore\n      0x04\n      add\n      tag_167\n      swap4\n      swap3\n      swap2\n      swap1\n      tag_168\n      jump\t// in\n    tag_167:\n      0x20\n      mload(0x40)\n      dup1\n      dup4\n      sub\n      dup2\n      0x00\n      dup8\n      dup1\n      extcodesize\n      iszero\n      dup1\n      iszero\n      tag_169\n      jumpi\n      0x00\n      dup1\n      revert\n    tag_169:\n      pop\n      gas\n      call\n      iszero\n      dup1\n      iszero\n      tag_171\n      jumpi\n      returndatasize\n      0x00\n      dup1\n      returndatacopy\n      revert(0x00, returndatasize)\n    tag_171:\n      pop\n      pop\n      pop\n      pop\n      mload(0x40)\n      returndatasize\n      not(0x1f)\n      0x1f\n      dup3\n      add\n      and\n      dup3\n      add\n      dup1\n      0x40\n      mstore\n      pop\n      dup2\n      add\n      swap1\n      tag_172\n      swap2\n      swap1\n      tag_173\n      jump\t// in\n    tag_172:\n        /* \"ERC721.sol\":3834:4069  ERC721TokenReceiver(to).onERC721Received(\r... */\n      not(0xffffffffffffffffffffffffffffffffffffffffffffffffffffffff)\n      and\n      eq\n        /* \"ERC721.sol\":3794:4069  to.code.length == 0 ||\r... */\n    tag_166:\n        /* \"ERC721.sol\":3772:4113  require(\r... */\n      tag_174\n      jumpi\n      mload(0x40)\n      0x08c379a000000000000000000000000000000000000000000000000000000000\n      dup2\n      mstore\n      0x04\n      add\n      tag_175\n      swap1\n      tag_176\n      jump\t// in\n    tag_175:\n      mload(0x40)\n      dup1\n      swap2\n      sub\n      swap1\n      revert\n    tag_174:\n        /* \"ERC721.sol\":3609:4121  function safeTransferFrom(\r... */\n      pop\n      pop\n      pop\n      jump\t// out\n        /* \"ERC721.sol\":1447:1489  mapping(uint256 => address) public ownerOf */\n    tag_69:\n      mstore(0x20, 0x04)\n      dup1\n      0x00\n      mstore\n      keccak256(0x00, 0x40)\n      0x00\n      swap2\n      pop\n      sload\n      swap1\n      0x0100\n      exp\n      swap1\n      div\n      0xffffffffffffffffffffffffffffffffffffffff\n      and\n      dup2\n      jump\t// out\n        /* \"NftContract.sol\":163:184  string public baseURI */\n    tag_72:\n      0x07\n      dup1\n      sload\n      tag_177\n      swap1\n      tag_140\n      jump\t// in\n    tag_177:\n      dup1\n      0x1f\n      add\n      0x20\n      dup1\n      swap2\n      div\n      mul\n      0x20\n      add\n      mload(0x40)\n      swap1\n      dup2\n      add\n      0x40\n      mstore\n      dup1\n      swap3\n      swap2\n      swap1\n      dup2\n      dup2\n      mstore\n      0x20\n      add\n      dup3\n      dup1\n      sload\n      tag_178\n      swap1\n      tag_140\n      jump\t// in\n    tag_178:\n      dup1\n      iszero\n      tag_179\n      jumpi\n      dup1\n      0x1f\n      lt\n      tag_180\n      jumpi\n      0x0100\n      dup1\n      dup4\n      sload\n      div\n      mul\n      dup4\n      mstore\n      swap2\n      0x20\n      add\n      swap2\n      jump(tag_179)\n    tag_180:\n      dup3\n      add\n      swap2\n      swap1\n      0x00\n      mstore\n      keccak256(0x00, 0x20)\n      swap1\n    tag_181:\n      dup2\n      sload\n      dup2\n      mstore\n      swap1\n      0x01\n      add\n      swap1\n      0x20\n      add\n      dup1\n      dup4\n      gt\n      tag_181\n      jumpi\n      dup3\n      swap1\n      sub\n      0x1f\n      and\n      dup3\n      add\n      swap2\n    tag_179:\n      pop\n      pop\n      pop\n      pop\n      pop\n      dup2\n      jump\t// out\n        /* \"ERC721.sol\":1394:1438  mapping(address => uint256) public balanceOf */\n    tag_77:\n      mstore(0x20, 0x03)\n      dup1\n      0x00\n      mstore\n      keccak256(0x00, 0x40)\n      0x00\n      swap2\n      pop\n      swap1\n      pop\n      sload\n      dup2\n      jump\t// out\n        /* \"NftContract.sol\":230:261  uint96 public royaltyFeesInBips */\n    tag_81:\n      0x09\n      0x00\n      swap1\n      sload\n      swap1\n      0x0100\n      exp\n      swap1\n      div\n      0xffffffffffffffffffffffff\n      and\n      dup2\n      jump\t// out\n        /* \"utils/Ownable.sol\":354:441  function owner() public view virtual returns (address) {\r... */\n    tag_85:\n        /* \"utils/Ownable.sol\":400:407  address */\n      0x00\n        /* \"utils/Ownable.sol\":427:433  _owner */\n      dup1\n      0x00\n      swap1\n      sload\n      swap1\n      0x0100\n      exp\n      swap1\n      div\n      0xffffffffffffffffffffffffffffffffffffffff\n      and\n        /* \"utils/Ownable.sol\":420:433  return _owner */\n      swap1\n      pop\n        /* \"utils/Ownable.sol\":354:441  function owner() public view virtual returns (address) {\r... */\n      swap1\n      jump\t// out\n        /* \"ERC721.sol\":1365:1385  string public symbol */\n    tag_88:\n      0x02\n      dup1\n      sload\n      tag_183\n      swap1\n      tag_140\n      jump\t// in\n    tag_183:\n      dup1\n      0x1f\n      add\n      0x20\n      dup1\n      swap2\n      div\n      mul\n      0x20\n      add\n      mload(0x40)\n      swap1\n      dup2\n      add\n      0x40\n      mstore\n      dup1\n      swap3\n      swap2\n      swap1\n      dup2\n      dup2\n      mstore\n      0x20\n      add\n      dup3\n      dup1\n      sload\n      tag_184\n      swap1\n      tag_140\n      jump\t// in\n    tag_184:\n      dup1\n      iszero\n      tag_185\n      jumpi\n      dup1\n      0x1f\n      lt\n      tag_186\n      jumpi\n      0x0100\n      dup1\n      dup4\n      sload\n      div\n      mul\n      dup4\n      mstore\n      swap2\n      0x20\n      add\n      swap2\n      jump(tag_185)\n    tag_186:\n      dup3\n      add\n      swap2\n      swap1\n      0x00\n      mstore\n      keccak256(0x00, 0x20)\n      swap1\n    tag_187:\n      dup2\n      sload\n      dup2\n      mstore\n      swap1\n      0x01\n      add\n      swap1\n      0x20\n      add\n      dup1\n      dup4\n      gt\n      tag_187\n      jumpi\n      dup3\n      swap1\n      sub\n      0x1f\n      and\n      dup3\n      add\n      swap2\n    tag_185:\n      pop\n      pop\n      pop\n      pop\n      pop\n      dup2\n      jump\t// out\n        /* \"ERC721.sol\":2766:2973  function setApprovalForAll(address operator, bool approved) public virtual {\r... */\n    tag_93:\n        /* \"ERC721.sol\":2893:2901  approved */\n      dup1\n        /* \"ERC721.sol\":2852:2868  isApprovedForAll */\n      0x06\n        /* \"ERC721.sol\":2852:2880  isApprovedForAll[msg.sender] */\n      0x00\n        /* \"ERC721.sol\":2869:2879  msg.sender */\n      caller\n        /* \"ERC721.sol\":2852:2880  isApprovedForAll[msg.sender] */\n      0xffffffffffffffffffffffffffffffffffffffff\n      and\n      0xffffffffffffffffffffffffffffffffffffffff\n      and\n      dup2\n      mstore\n      0x20\n      add\n      swap1\n      dup2\n      mstore\n      0x20\n      add\n      0x00\n      keccak256\n        /* \"ERC721.sol\":2852:2890  isApprovedForAll[msg.sender][operator] */\n      0x00\n        /* \"ERC721.sol\":2881:2889  operator */\n      dup5\n        /* \"ERC721.sol\":2852:2890  isApprovedForAll[msg.sender][operator] */\n      0xffffffffffffffffffffffffffffffffffffffff\n      and\n      0xffffffffffffffffffffffffffffffffffffffff\n      and\n      dup2\n      mstore\n      0x20\n      add\n      swap1\n      dup2\n      mstore\n      0x20\n      add\n      0x00\n      keccak256\n      0x00\n        /* \"ERC721.sol\":2852:2901  isApprovedForAll[msg.sender][operator] = approved */\n      0x0100\n      exp\n      dup2\n      sload\n      dup2\n      0xff\n      mul\n      not\n      and\n      swap1\n      dup4\n      iszero\n      iszero\n      mul\n      or\n      swap1\n      sstore\n      pop\n        /* \"ERC721.sol\":2946:2954  operator */\n      dup2\n        /* \"ERC721.sol\":2919:2965  ApprovalForAll(msg.sender, operator, approved) */\n      0xffffffffffffffffffffffffffffffffffffffff\n      and\n        /* \"ERC721.sol\":2934:2944  msg.sender */\n      caller\n        /* \"ERC721.sol\":2919:2965  ApprovalForAll(msg.sender, operator, approved) */\n      0xffffffffffffffffffffffffffffffffffffffff\n      and\n      0x17307eab39ab6107e8899845ad3d59bd9653f200f220920489ca2b5937696c31\n        /* \"ERC721.sol\":2956:2964  approved */\n      dup4\n        /* \"ERC721.sol\":2919:2965  ApprovalForAll(msg.sender, operator, approved) */\n      mload(0x40)\n      tag_189\n      swap2\n      swap1\n      tag_35\n      jump\t// in\n    tag_189:\n      mload(0x40)\n      dup1\n      swap2\n      sub\n      swap1\n      log3\n        /* \"ERC721.sol\":2766:2973  function setApprovalForAll(address operator, bool approved) public virtual {\r... */\n      pop\n      pop\n      jump\t// out\n        /* \"NftContract.sol\":1782:1956  function calculateRoyalty(uint256 _salePrice)\r... */\n    tag_96:\n        /* \"NftContract.sol\":1876:1883  uint256 */\n      0x00\n        /* \"NftContract.sol\":1931:1948  royaltyFeesInBips */\n      0x09\n      0x00\n      swap1\n      sload\n      swap1\n      0x0100\n      exp\n      swap1\n      div\n      0xffffffffffffffffffffffff\n      and\n        /* \"NftContract.sol\":1908:1948  (_salePrice / 10000) * royaltyFeesInBips */\n      0xffffffffffffffffffffffff\n      and\n        /* \"NftContract.sol\":1922:1927  10000 */\n      0x2710\n        /* \"NftContract.sol\":1909:1919  _salePrice */\n      dup4\n        /* \"NftContract.sol\":1909:1927  _salePrice / 10000 */\n      tag_191\n      swap2\n      swap1\n      tag_192\n      jump\t// in\n    tag_191:\n        /* \"NftContract.sol\":1908:1948  (_salePrice / 10000) * royaltyFeesInBips */\n      tag_193\n      swap2\n      swap1\n      tag_194\n      jump\t// in\n    tag_193:\n        /* \"NftContract.sol\":1901:1948  return (_salePrice / 10000) * royaltyFeesInBips */\n      swap1\n      pop\n        /* \"NftContract.sol\":1782:1956  function calculateRoyalty(uint256 _salePrice)\r... */\n      swap2\n      swap1\n      pop\n      jump\t// out\n        /* \"NftContract.sol\":944:1214  function mintMany(address to, uint64 amount) public {\r... */\n    tag_101:\n        /* \"NftContract.sol\":1015:1024  whitelist */\n      0x0a\n        /* \"NftContract.sol\":1015:1036  whitelist[msg.sender] */\n      0x00\n        /* \"NftContract.sol\":1025:1035  msg.sender */\n      caller\n        /* \"NftContract.sol\":1015:1036  whitelist[msg.sender] */\n      0xffffffffffffffffffffffffffffffffffffffff\n      and\n      0xffffffffffffffffffffffffffffffffffffffff\n      and\n      dup2\n      mstore\n      0x20\n      add\n      swap1\n      dup2\n      mstore\n      0x20\n      add\n      0x00\n      keccak256\n      0x00\n      swap1\n      sload\n      swap1\n      0x0100\n      exp\n      swap1\n      div\n      0xff\n      and\n        /* \"NftContract.sol\":1015:1061  whitelist[msg.sender] || msg.sender == owner() */\n      dup1\n      tag_196\n      jumpi\n      pop\n        /* \"NftContract.sol\":1054:1061  owner() */\n      tag_197\n        /* \"NftContract.sol\":1054:1059  owner */\n      tag_85\n        /* \"NftContract.sol\":1054:1061  owner() */\n      jump\t// in\n    tag_197:\n        /* \"NftContract.sol\":1040:1061  msg.sender == owner() */\n      0xffffffffffffffffffffffffffffffffffffffff\n      and\n        /* \"NftContract.sol\":1040:1050  msg.sender */\n      caller\n        /* \"NftContract.sol\":1040:1061  msg.sender == owner() */\n      0xffffffffffffffffffffffffffffffffffffffff\n      and\n      eq\n        /* \"NftContract.sol\":1015:1061  whitelist[msg.sender] || msg.sender == owner() */\n    tag_196:\n        /* \"NftContract.sol\":1007:1077  require(whitelist[msg.sender] || msg.sender == owner(), \"NOT ALLOWED\") */\n      tag_198\n      jumpi\n      mload(0x40)\n      0x08c379a000000000000000000000000000000000000000000000000000000000\n      dup2\n      mstore\n      0x04\n      add\n      tag_199\n      swap1\n      tag_200\n      jump\t// in\n    tag_199:\n      mload(0x40)\n      dup1\n      swap2\n      sub\n      swap1\n      revert\n    tag_198:\n        /* \"NftContract.sol\":1093:1101  uint64 i */\n      0x00\n        /* \"NftContract.sol\":1088:1207  for (uint64 i = 0; i < amount; i++) {\r... */\n    tag_201:\n        /* \"NftContract.sol\":1111:1117  amount */\n      dup2\n        /* \"NftContract.sol\":1107:1117  i < amount */\n      0xffffffffffffffff\n      and\n        /* \"NftContract.sol\":1107:1108  i */\n      dup2\n        /* \"NftContract.sol\":1107:1117  i < amount */\n      0xffffffffffffffff\n      and\n      lt\n        /* \"NftContract.sol\":1088:1207  for (uint64 i = 0; i < amount; i++) {\r... */\n      iszero\n      tag_202\n      jumpi\n        /* \"NftContract.sol\":1139:1151  tokenCounter */\n      0x08\n      0x00\n        /* \"NftContract.sol\":1139:1153  tokenCounter++ */\n      dup2\n      sload\n      dup1\n      swap3\n      swap2\n      swap1\n      tag_204\n      swap1\n      tag_205\n      jump\t// in\n    tag_204:\n      swap2\n      swap1\n      pop\n      sstore\n      pop\n        /* \"NftContract.sol\":1168:1195  _safeMint(to, tokenCounter) */\n      tag_206\n        /* \"NftContract.sol\":1178:1180  to */\n      dup4\n        /* \"NftContract.sol\":1182:1194  tokenCounter */\n      sload(0x08)\n        /* \"NftContract.sol\":1168:1177  _safeMint */\n      tag_207\n        /* \"NftContract.sol\":1168:1195  _safeMint(to, tokenCounter) */\n      jump\t// in\n    tag_206:\n        /* \"NftContract.sol\":1119:1122  i++ */\n      dup1\n      dup1\n      tag_208\n      swap1\n      tag_209\n      jump\t// in\n    tag_208:\n      swap2\n      pop\n      pop\n        /* \"NftContract.sol\":1088:1207  for (uint64 i = 0; i < amount; i++) {\r... */\n      jump(tag_201)\n    tag_202:\n      pop\n        /* \"NftContract.sol\":944:1214  function mintMany(address to, uint64 amount) public {\r... */\n      pop\n      pop\n      jump\t// out\n        /* \"NftContract.sol\":268:297  address public royaltyAddress */\n    tag_103:\n      0x09\n      0x0c\n      swap1\n      sload\n      swap1\n      0x0100\n      exp\n      swap1\n      div\n      0xffffffffffffffffffffffffffffffffffffffff\n      and\n      dup2\n      jump\t// out\n        /* \"ERC721.sol\":4129:4671  function safeTransferFrom(\r... */\n    tag_108:\n        /* \"ERC721.sol\":4281:4307  transferFrom(from, to, id) */\n      tag_211\n        /* \"ERC721.sol\":4294:4298  from */\n      dup5\n        /* \"ERC721.sol\":4300:4302  to */\n      dup5\n        /* \"ERC721.sol\":4304:4306  id */\n      dup5\n        /* \"ERC721.sol\":4281:4293  transferFrom */\n      tag_57\n        /* \"ERC721.sol\":4281:4307  transferFrom(from, to, id) */\n      jump\t// in\n    tag_211:\n        /* \"ERC721.sol\":4360:4361  0 */\n      0x00\n        /* \"ERC721.sol\":4342:4344  to */\n      dup4\n        /* \"ERC721.sol\":4342:4356  to.code.length */\n      0xffffffffffffffffffffffffffffffffffffffff\n      and\n      extcodesize\n        /* \"ERC721.sol\":4342:4361  to.code.length == 0 */\n      eq\n        /* \"ERC721.sol\":4342:4619  to.code.length == 0 ||\r... */\n      dup1\n      tag_212\n      jumpi\n      pop\n        /* \"ERC721.sol\":4574:4619  ERC721TokenReceiver.onERC721Received.selector */\n      shl(0xe0, 0x150b7a02)\n        /* \"ERC721.sol\":4382:4619  ERC721TokenReceiver(to).onERC721Received(\r... */\n      not(0xffffffffffffffffffffffffffffffffffffffffffffffffffffffff)\n      and\n        /* \"ERC721.sol\":4402:4404  to */\n      dup4\n        /* \"ERC721.sol\":4382:4422  ERC721TokenReceiver(to).onERC721Received */\n      0xffffffffffffffffffffffffffffffffffffffff\n      and\n      0x150b7a02\n        /* \"ERC721.sol\":4445:4455  msg.sender */\n      caller\n        /* \"ERC721.sol\":4478:4482  from */\n      dup8\n        /* \"ERC721.sol\":4505:4507  id */\n      dup7\n        /* \"ERC721.sol\":4530:4534  data */\n      dup7\n        /* \"ERC721.sol\":4382:4553  ERC721TokenReceiver(to).onERC721Received(\r... */\n      mload(0x40)\n      dup6\n      0xffffffff\n      and\n      0xe0\n      shl\n      dup2\n      mstore\n      0x04\n      add\n      tag_213\n      swap5\n      swap4\n      swap3\n      swap2\n      swap1\n      tag_214\n      jump\t// in\n    tag_213:\n      0x20\n      mload(0x40)\n      dup1\n      dup4\n      sub\n      dup2\n      0x00\n      dup8\n      dup1\n      extcodesize\n      iszero\n      dup1\n      iszero\n      tag_215\n      jumpi\n      0x00\n      dup1\n      revert\n    tag_215:\n      pop\n      gas\n      call\n      iszero\n      dup1\n      iszero\n      tag_217\n      jumpi\n      returndatasize\n      0x00\n      dup1\n      returndatacopy\n      revert(0x00, returndatasize)\n    tag_217:\n      pop\n      pop\n      pop\n      pop\n      mload(0x40)\n      returndatasize\n      not(0x1f)\n      0x1f\n      dup3\n      add\n      and\n      dup3\n      add\n      dup1\n      0x40\n      mstore\n      pop\n      dup2\n      add\n      swap1\n      tag_218\n      swap2\n      swap1\n      tag_173\n      jump\t// in\n    tag_218:\n        /* \"ERC721.sol\":4382:4619  ERC721TokenReceiver(to).onERC721Received(\r... */\n      not(0xffffffffffffffffffffffffffffffffffffffffffffffffffffffff)\n      and\n      eq\n        /* \"ERC721.sol\":4342:4619  to.code.length == 0 ||\r... */\n    tag_212:\n        /* \"ERC721.sol\":4320:4663  require(\r... */\n      tag_219\n      jumpi\n      mload(0x40)\n      0x08c379a000000000000000000000000000000000000000000000000000000000\n      dup2\n      mstore\n      0x04\n      add\n      tag_220\n      swap1\n      tag_176\n      jump\t// in\n    tag_220:\n      mload(0x40)\n      dup1\n      swap2\n      sub\n      swap1\n      revert\n    tag_219:\n        /* \"ERC721.sol\":4129:4671  function safeTransferFrom(\r... */\n      pop\n      pop\n      pop\n      pop\n      jump\t// out\n        /* \"NftContract.sol\":1222:1336  function allowMint(address _minter, bool status) external onlyOwner {\r... */\n    tag_111:\n        /* \"utils/Ownable.sol\":505:512  owner() */\n      tag_222\n        /* \"utils/Ownable.sol\":505:510  owner */\n      tag_85\n        /* \"utils/Ownable.sol\":505:512  owner() */\n      jump\t// in\n    tag_222:\n        /* \"utils/Ownable.sol\":489:512  _msgSender() == owner() */\n      0xffffffffffffffffffffffffffffffffffffffff\n      and\n        /* \"utils/Ownable.sol\":489:501  _msgSender() */\n      tag_223\n        /* \"utils/Ownable.sol\":489:499  _msgSender */\n      tag_134\n        /* \"utils/Ownable.sol\":489:501  _msgSender() */\n      jump\t// in\n    tag_223:\n        /* \"utils/Ownable.sol\":489:512  _msgSender() == owner() */\n      0xffffffffffffffffffffffffffffffffffffffff\n      and\n      eq\n        /* \"utils/Ownable.sol\":481:540  require(_msgSender() == owner(), \"Caller is not the owner\") */\n      tag_224\n      jumpi\n      mload(0x40)\n      0x08c379a000000000000000000000000000000000000000000000000000000000\n      dup2\n      mstore\n      0x04\n      add\n      tag_225\n      swap1\n      tag_137\n      jump\t// in\n    tag_225:\n      mload(0x40)\n      dup1\n      swap2\n      sub\n      swap1\n      revert\n    tag_224:\n        /* \"NftContract.sol\":1322:1328  status */\n      dup1\n        /* \"NftContract.sol\":1301:1310  whitelist */\n      0x0a\n        /* \"NftContract.sol\":1301:1319  whitelist[_minter] */\n      0x00\n        /* \"NftContract.sol\":1311:1318  _minter */\n      dup5\n        /* \"NftContract.sol\":1301:1319  whitelist[_minter] */\n      0xffffffffffffffffffffffffffffffffffffffff\n      and\n      0xffffffffffffffffffffffffffffffffffffffff\n      and\n      dup2\n      mstore\n      0x20\n      add\n      swap1\n      dup2\n      mstore\n      0x20\n      add\n      0x00\n      keccak256\n      0x00\n        /* \"NftContract.sol\":1301:1328  whitelist[_minter] = status */\n      0x0100\n      exp\n      dup2\n      sload\n      dup2\n      0xff\n      mul\n      not\n      and\n      swap1\n      dup4\n      iszero\n      iszero\n      mul\n      or\n      swap1\n      sstore\n      pop\n        /* \"NftContract.sol\":1222:1336  function allowMint(address _minter, bool status) external onlyOwner {\r... */\n      pop\n      pop\n      jump\t// out\n        /* \"ERC721.sol\":1752:2155  function tokenURI(uint256 tokenId)\r... */\n    tag_114:\n        /* \"ERC721.sol\":1852:1865  string memory */\n      0x60\n        /* \"ERC721.sol\":1891:1907  _exists(tokenId) */\n      tag_228\n        /* \"ERC721.sol\":1899:1906  tokenId */\n      dup3\n        /* \"ERC721.sol\":1891:1898  _exists */\n      tag_229\n        /* \"ERC721.sol\":1891:1907  _exists(tokenId) */\n      jump\t// in\n    tag_228:\n        /* \"ERC721.sol\":1883:1940  require(_exists(tokenId), \"No token with this Id exists\") */\n      tag_230\n      jumpi\n      mload(0x40)\n      0x08c379a000000000000000000000000000000000000000000000000000000000\n      dup2\n      mstore\n      0x04\n      add\n      tag_231\n      swap1\n      tag_232\n      jump\t// in\n    tag_231:\n      mload(0x40)\n      dup1\n      swap2\n      sub\n      swap1\n      revert\n    tag_230:\n        /* \"ERC721.sol\":1953:1974  string memory baseURI */\n      0x00\n        /* \"ERC721.sol\":1977:1987  _baseURI() */\n      tag_233\n        /* \"ERC721.sol\":1977:1985  _baseURI */\n      tag_234\n        /* \"ERC721.sol\":1977:1987  _baseURI() */\n      jump\t// in\n    tag_233:\n        /* \"ERC721.sol\":1953:1987  string memory baseURI = _baseURI() */\n      swap1\n      pop\n        /* \"ERC721.sol\":2042:2043  0 */\n      0x00\n        /* \"ERC721.sol\":2024:2031  baseURI */\n      dup2\n        /* \"ERC721.sol\":2018:2039  bytes(baseURI).length */\n      mload\n        /* \"ERC721.sol\":2018:2043  bytes(baseURI).length > 0 */\n      gt\n        /* \"ERC721.sol\":2018:2147  bytes(baseURI).length > 0\r... */\n      tag_235\n      jumpi\n      mload(0x40)\n      dup1\n      0x20\n      add\n      0x40\n      mstore\n      dup1\n      0x00\n      dup2\n      mstore\n      pop\n      jump(tag_236)\n    tag_235:\n        /* \"ERC721.sol\":2087:2094  baseURI */\n      dup1\n        /* \"ERC721.sol\":2096:2114  tokenId.toString() */\n      tag_237\n        /* \"ERC721.sol\":2096:2103  tokenId */\n      dup5\n        /* \"ERC721.sol\":2096:2112  tokenId.toString */\n      tag_238\n        /* \"ERC721.sol\":2096:2114  tokenId.toString() */\n      jump\t// in\n    tag_237:\n        /* \"ERC721.sol\":2070:2124  abi.encodePacked(baseURI, tokenId.toString(), \".json\") */\n      add(0x20, mload(0x40))\n      tag_239\n      swap3\n      swap2\n      swap1\n      tag_240\n      jump\t// in\n    tag_239:\n      mload(0x40)\n      0x20\n      dup2\n      dup4\n      sub\n      sub\n      dup2\n      mstore\n      swap1\n      0x40\n      mstore\n        /* \"ERC721.sol\":2018:2147  bytes(baseURI).length > 0\r... */\n    tag_236:\n        /* \"ERC721.sol\":1998:2147  return\r... */\n      swap2\n      pop\n      pop\n        /* \"ERC721.sol\":1752:2155  function tokenURI(uint256 tokenId)\r... */\n      swap2\n      swap1\n      pop\n      jump\t// out\n        /* \"ERC721.sol\":1553:1621  mapping(address => mapping(address => bool)) public isApprovedForAll */\n    tag_119:\n      mstore(0x20, 0x06)\n      dup2\n      0x00\n      mstore\n      mstore(0x20, keccak256(0x00, 0x40))\n      dup1\n      0x00\n      mstore\n      keccak256(0x00, 0x40)\n      0x00\n      swap2\n      pop\n      swap2\n      pop\n      swap1\n      sload\n      swap1\n      0x0100\n      exp\n      swap1\n      div\n      0xff\n      and\n      dup2\n      jump\t// out\n        /* \"utils/Ownable.sol\":568:720  function transferOwnership(address newOwner) public virtual onlyOwner {\r... */\n    tag_123:\n        /* \"utils/Ownable.sol\":505:512  owner() */\n      tag_242\n        /* \"utils/Ownable.sol\":505:510  owner */\n      tag_85\n        /* \"utils/Ownable.sol\":505:512  owner() */\n      jump\t// in\n    tag_242:\n        /* \"utils/Ownable.sol\":489:512  _msgSender() == owner() */\n      0xffffffffffffffffffffffffffffffffffffffff\n      and\n        /* \"utils/Ownable.sol\":489:501  _msgSender() */\n      tag_243\n        /* \"utils/Ownable.sol\":489:499  _msgSender */\n      tag_134\n        /* \"utils/Ownable.sol\":489:501  _msgSender() */\n      jump\t// in\n    tag_243:\n        /* \"utils/Ownable.sol\":489:512  _msgSender() == owner() */\n      0xffffffffffffffffffffffffffffffffffffffff\n      and\n      eq\n        /* \"utils/Ownable.sol\":481:540  require(_msgSender() == owner(), \"Caller is not the owner\") */\n      tag_244\n      jumpi\n      mload(0x40)\n      0x08c379a000000000000000000000000000000000000000000000000000000000\n      dup2\n      mstore\n      0x04\n      add\n      tag_245\n      swap1\n      tag_137\n      jump\t// in\n    tag_245:\n      mload(0x40)\n      dup1\n      swap2\n      sub\n      swap1\n      revert\n    tag_244:\n        /* \"utils/Ownable.sol\":677:678  0 */\n      0x00\n        /* \"utils/Ownable.sol\":657:679  newOwner != address(0) */\n      0xffffffffffffffffffffffffffffffffffffffff\n      and\n        /* \"utils/Ownable.sol\":657:665  newOwner */\n      dup2\n        /* \"utils/Ownable.sol\":657:679  newOwner != address(0) */\n      0xffffffffffffffffffffffffffffffffffffffff\n      and\n      eq\n      iszero\n        /* \"utils/Ownable.sol\":649:712  require(newOwner != address(0), \"Owner cannot be zero address\") */\n      tag_247\n      jumpi\n      mload(0x40)\n      0x08c379a000000000000000000000000000000000000000000000000000000000\n      dup2\n      mstore\n      0x04\n      add\n      tag_248\n      swap1\n      tag_249\n      jump\t// in\n    tag_248:\n      mload(0x40)\n      dup1\n      swap2\n      sub\n      swap1\n      revert\n    tag_247:\n        /* \"utils/Ownable.sol\":568:720  function transferOwnership(address newOwner) public virtual onlyOwner {\r... */\n      pop\n      jump\t// out\n        /* \"NftContract.sol\":746:936  function mintOne(address to) public {\r... */\n    tag_126:\n        /* \"NftContract.sol\":801:810  whitelist */\n      0x0a\n        /* \"NftContract.sol\":801:822  whitelist[msg.sender] */\n      0x00\n        /* \"NftContract.sol\":811:821  msg.sender */\n      caller\n        /* \"NftContract.sol\":801:822  whitelist[msg.sender] */\n      0xffffffffffffffffffffffffffffffffffffffff\n      and\n      0xffffffffffffffffffffffffffffffffffffffff\n      and\n      dup2\n      mstore\n      0x20\n      add\n      swap1\n      dup2\n      mstore\n      0x20\n      add\n      0x00\n      keccak256\n      0x00\n      swap1\n      sload\n      swap1\n      0x0100\n      exp\n      swap1\n      div\n      0xff\n      and\n        /* \"NftContract.sol\":801:847  whitelist[msg.sender] || msg.sender == owner() */\n      dup1\n      tag_251\n      jumpi\n      pop\n        /* \"NftContract.sol\":840:847  owner() */\n      tag_252\n        /* \"NftContract.sol\":840:845  owner */\n      tag_85\n        /* \"NftContract.sol\":840:847  owner() */\n      jump\t// in\n    tag_252:\n        /* \"NftContract.sol\":826:847  msg.sender == owner() */\n      0xffffffffffffffffffffffffffffffffffffffff\n      and\n        /* \"NftContract.sol\":826:836  msg.sender */\n      caller\n        /* \"NftContract.sol\":826:847  msg.sender == owner() */\n      0xffffffffffffffffffffffffffffffffffffffff\n      and\n      eq\n        /* \"NftContract.sol\":801:847  whitelist[msg.sender] || msg.sender == owner() */\n    tag_251:\n        /* \"NftContract.sol\":793:863  require(whitelist[msg.sender] || msg.sender == owner(), \"NOT ALLOWED\") */\n      tag_253\n      jumpi\n      mload(0x40)\n      0x08c379a000000000000000000000000000000000000000000000000000000000\n      dup2\n      mstore\n      0x04\n      add\n      tag_254\n      swap1\n      tag_200\n      jump\t// in\n    tag_254:\n      mload(0x40)\n      dup1\n      swap2\n      sub\n      swap1\n      revert\n    tag_253:\n        /* \"NftContract.sol\":876:888  tokenCounter */\n      0x08\n      0x00\n        /* \"NftContract.sol\":876:890  tokenCounter++ */\n      dup2\n      sload\n      dup1\n      swap3\n      swap2\n      swap1\n      tag_255\n      swap1\n      tag_205\n      jump\t// in\n    tag_255:\n      swap2\n      swap1\n      pop\n      sstore\n      pop\n        /* \"NftContract.sol\":901:928  _safeMint(to, tokenCounter) */\n      tag_256\n        /* \"NftContract.sol\":911:913  to */\n      dup2\n        /* \"NftContract.sol\":915:927  tokenCounter */\n      sload(0x08)\n        /* \"NftContract.sol\":901:910  _safeMint */\n      tag_207\n        /* \"NftContract.sol\":901:928  _safeMint(to, tokenCounter) */\n      jump\t// in\n    tag_256:\n        /* \"NftContract.sol\":746:936  function mintOne(address to) public {\r... */\n      pop\n      jump\t// out\n        /* \"utils/Context.sol\":95:193  function _msgSender() internal view virtual returns (address) {\r... */\n    tag_134:\n        /* \"utils/Context.sol\":148:155  address */\n      0x00\n        /* \"utils/Context.sol\":175:185  msg.sender */\n      caller\n        /* \"utils/Context.sol\":168:185  return msg.sender */\n      swap1\n      pop\n        /* \"utils/Context.sol\":95:193  function _msgSender() internal view virtual returns (address) {\r... */\n      swap1\n      jump\t// out\n        /* \"ERC721.sol\":5329:5781  function _safeMint(address to, uint256 id) internal virtual {\r... */\n    tag_207:\n        /* \"ERC721.sol\":5400:5413  _mint(to, id) */\n      tag_259\n        /* \"ERC721.sol\":5406:5408  to */\n      dup3\n        /* \"ERC721.sol\":5410:5412  id */\n      dup3\n        /* \"ERC721.sol\":5400:5405  _mint */\n      tag_260\n        /* \"ERC721.sol\":5400:5413  _mint(to, id) */\n      jump\t// in\n    tag_259:\n        /* \"ERC721.sol\":5466:5467  0 */\n      0x00\n        /* \"ERC721.sol\":5448:5450  to */\n      dup3\n        /* \"ERC721.sol\":5448:5462  to.code.length */\n      0xffffffffffffffffffffffffffffffffffffffff\n      and\n      extcodesize\n        /* \"ERC721.sol\":5448:5467  to.code.length == 0 */\n      eq\n        /* \"ERC721.sol\":5448:5729  to.code.length == 0 ||\r... */\n      dup1\n      tag_261\n      jumpi\n      pop\n        /* \"ERC721.sol\":5684:5729  ERC721TokenReceiver.onERC721Received.selector */\n      shl(0xe0, 0x150b7a02)\n        /* \"ERC721.sol\":5488:5729  ERC721TokenReceiver(to).onERC721Received(\r... */\n      not(0xffffffffffffffffffffffffffffffffffffffffffffffffffffffff)\n      and\n        /* \"ERC721.sol\":5508:5510  to */\n      dup3\n        /* \"ERC721.sol\":5488:5528  ERC721TokenReceiver(to).onERC721Received */\n      0xffffffffffffffffffffffffffffffffffffffff\n      and\n      0x150b7a02\n        /* \"ERC721.sol\":5551:5561  msg.sender */\n      caller\n        /* \"ERC721.sol\":5592:5593  0 */\n      0x00\n        /* \"ERC721.sol\":5617:5619  id */\n      dup6\n        /* \"ERC721.sol\":5488:5663  ERC721TokenReceiver(to).onERC721Received(\r... */\n      mload(0x40)\n      dup5\n      0xffffffff\n      and\n      0xe0\n      shl\n      dup2\n      mstore\n      0x04\n      add\n      tag_262\n      swap4\n      swap3\n      swap2\n      swap1\n      tag_168\n      jump\t// in\n    tag_262:\n      0x20\n      mload(0x40)\n      dup1\n      dup4\n      sub\n      dup2\n      0x00\n      dup8\n      dup1\n      extcodesize\n      iszero\n      dup1\n      iszero\n      tag_263\n      jumpi\n      0x00\n      dup1\n      revert\n    tag_263:\n      pop\n      gas\n      call\n      iszero\n      dup1\n      iszero\n      tag_265\n      jumpi\n      returndatasize\n      0x00\n      dup1\n      returndatacopy\n      revert(0x00, returndatasize)\n    tag_265:\n      pop\n      pop\n      pop\n      pop\n      mload(0x40)\n      returndatasize\n      not(0x1f)\n      0x1f\n      dup3\n      add\n      and\n      dup3\n      add\n      dup1\n      0x40\n      mstore\n      pop\n      dup2\n      add\n      swap1\n      tag_266\n      swap2\n      swap1\n      tag_173\n      jump\t// in\n    tag_266:\n        /* \"ERC721.sol\":5488:5729  ERC721TokenReceiver(to).onERC721Received(\r... */\n      not(0xffffffffffffffffffffffffffffffffffffffffffffffffffffffff)\n      and\n      eq\n        /* \"ERC721.sol\":5448:5729  to.code.length == 0 ||\r... */\n    tag_261:\n        /* \"ERC721.sol\":5426:5773  require(\r... */\n      tag_267\n      jumpi\n      mload(0x40)\n      0x08c379a000000000000000000000000000000000000000000000000000000000\n      dup2\n      mstore\n      0x04\n      add\n      tag_268\n      swap1\n      tag_176\n      jump\t// in\n    tag_268:\n      mload(0x40)\n      dup1\n      swap2\n      sub\n      swap1\n      revert\n    tag_267:\n        /* \"ERC721.sol\":5329:5781  function _safeMint(address to, uint256 id) internal virtual {\r... */\n      pop\n      pop\n      jump\t// out\n        /* \"ERC721.sol\":2163:2322  function _exists(uint256 tokenId) internal view virtual returns (bool) {\r... */\n    tag_229:\n        /* \"ERC721.sol\":2228:2232  bool */\n      0x00\n        /* \"ERC721.sol\":2245:2258  address owner */\n      dup1\n        /* \"ERC721.sol\":2261:2268  ownerOf */\n      0x04\n        /* \"ERC721.sol\":2261:2277  ownerOf[tokenId] */\n      0x00\n        /* \"ERC721.sol\":2269:2276  tokenId */\n      dup5\n        /* \"ERC721.sol\":2261:2277  ownerOf[tokenId] */\n      dup2\n      mstore\n      0x20\n      add\n      swap1\n      dup2\n      mstore\n      0x20\n      add\n      0x00\n      keccak256\n      0x00\n      swap1\n      sload\n      swap1\n      0x0100\n      exp\n      swap1\n      div\n      0xffffffffffffffffffffffffffffffffffffffff\n      and\n        /* \"ERC721.sol\":2245:2277  address owner = ownerOf[tokenId] */\n      swap1\n      pop\n        /* \"ERC721.sol\":2312:2313  0 */\n      0x00\n        /* \"ERC721.sol\":2295:2314  owner != address(0) */\n      0xffffffffffffffffffffffffffffffffffffffff\n      and\n        /* \"ERC721.sol\":2295:2300  owner */\n      dup2\n        /* \"ERC721.sol\":2295:2314  owner != address(0) */\n      0xffffffffffffffffffffffffffffffffffffffff\n      and\n      eq\n      iszero\n        /* \"ERC721.sol\":2288:2314  return owner != address(0) */\n      swap2\n      pop\n      pop\n        /* \"ERC721.sol\":2163:2322  function _exists(uint256 tokenId) internal view virtual returns (bool) {\r... */\n      swap2\n      swap1\n      pop\n      jump\t// out\n        /* \"NftContract.sol\":630:738  function _baseURI() internal view virtual override returns (string memory) {\r... */\n    tag_234:\n        /* \"NftContract.sol\":690:703  string memory */\n      0x60\n        /* \"NftContract.sol\":723:730  baseURI */\n      0x07\n        /* \"NftContract.sol\":716:730  return baseURI */\n      dup1\n      sload\n      tag_271\n      swap1\n      tag_140\n      jump\t// in\n    tag_271:\n      dup1\n      0x1f\n      add\n      0x20\n      dup1\n      swap2\n      div\n      mul\n      0x20\n      add\n      mload(0x40)\n      swap1\n      dup2\n      add\n      0x40\n      mstore\n      dup1\n      swap3\n      swap2\n      swap1\n      dup2\n      dup2\n      mstore\n      0x20\n      add\n      dup3\n      dup1\n      sload\n      tag_272\n      swap1\n      tag_140\n      jump\t// in\n    tag_272:\n      dup1\n      iszero\n      tag_273\n      jumpi\n      dup1\n      0x1f\n      lt\n      tag_274\n      jumpi\n      0x0100\n      dup1\n      dup4\n      sload\n      div\n      mul\n      dup4\n      mstore\n      swap2\n      0x20\n      add\n      swap2\n      jump(tag_273)\n    tag_274:\n      dup3\n      add\n      swap2\n      swap1\n      0x00\n      mstore\n      keccak256(0x00, 0x20)\n      swap1\n    tag_275:\n      dup2\n      sload\n      dup2\n      mstore\n      swap1\n      0x01\n      add\n      swap1\n      0x20\n      add\n      dup1\n      dup4\n      gt\n      tag_275\n      jumpi\n      dup3\n      swap1\n      sub\n      0x1f\n      and\n      dup3\n      add\n      swap2\n    tag_273:\n      pop\n      pop\n      pop\n      pop\n      pop\n      swap1\n      pop\n        /* \"NftContract.sol\":630:738  function _baseURI() internal view virtual override returns (string memory) {\r... */\n      swap1\n      jump\t// out\n        /* \"utils/Strings.sol\":161:706  function toString(uint256 value) internal pure returns (string memory) {\r... */\n    tag_238:\n        /* \"utils/Strings.sol\":217:230  string memory */\n      0x60\n        /* \"utils/Strings.sol\":269:270  0 */\n      0x00\n        /* \"utils/Strings.sol\":260:265  value */\n      dup3\n        /* \"utils/Strings.sol\":260:270  value == 0 */\n      eq\n        /* \"utils/Strings.sol\":256:309  if (value == 0) {\r... */\n      iszero\n      tag_277\n      jumpi\n        /* \"utils/Strings.sol\":287:297  return \"0\" */\n      mload(0x40)\n      dup1\n      0x40\n      add\n      0x40\n      mstore\n      dup1\n      0x01\n      dup2\n      mstore\n      0x20\n      add\n      0x3000000000000000000000000000000000000000000000000000000000000000\n      dup2\n      mstore\n      pop\n      swap1\n      pop\n      jump(tag_276)\n        /* \"utils/Strings.sol\":256:309  if (value == 0) {\r... */\n    tag_277:\n        /* \"utils/Strings.sol\":319:331  uint256 temp */\n      0x00\n        /* \"utils/Strings.sol\":334:339  value */\n      dup3\n        /* \"utils/Strings.sol\":319:339  uint256 temp = value */\n      swap1\n      pop\n        /* \"utils/Strings.sol\":350:364  uint256 digits */\n      0x00\n        /* \"utils/Strings.sol\":375:453  while (temp != 0) {\r... */\n    tag_278:\n        /* \"utils/Strings.sol\":390:391  0 */\n      0x00\n        /* \"utils/Strings.sol\":382:386  temp */\n      dup3\n        /* \"utils/Strings.sol\":382:391  temp != 0 */\n      eq\n        /* \"utils/Strings.sol\":375:453  while (temp != 0) {\r... */\n      tag_279\n      jumpi\n        /* \"utils/Strings.sol\":408:416  digits++ */\n      dup1\n      dup1\n      tag_280\n      swap1\n      tag_205\n      jump\t// in\n    tag_280:\n      swap2\n      pop\n      pop\n        /* \"utils/Strings.sol\":439:441  10 */\n      0x0a\n        /* \"utils/Strings.sol\":431:441  temp /= 10 */\n      dup3\n      tag_281\n      swap2\n      swap1\n      tag_192\n      jump\t// in\n    tag_281:\n      swap2\n      pop\n        /* \"utils/Strings.sol\":375:453  while (temp != 0) {\r... */\n      jump(tag_278)\n    tag_279:\n        /* \"utils/Strings.sol\":463:482  bytes memory buffer */\n      0x00\n        /* \"utils/Strings.sol\":495:501  digits */\n      dup2\n        /* \"utils/Strings.sol\":485:502  new bytes(digits) */\n      0xffffffffffffffff\n      dup2\n      gt\n      iszero\n      tag_282\n      jumpi\n      tag_283\n      tag_284\n      jump\t// in\n    tag_283:\n    tag_282:\n      mload(0x40)\n      swap1\n      dup1\n      dup3\n      mstore\n      dup1\n      0x1f\n      add\n      not(0x1f)\n      and\n      0x20\n      add\n      dup3\n      add\n      0x40\n      mstore\n      dup1\n      iszero\n      tag_285\n      jumpi\n      dup2\n      0x20\n      add\n      0x01\n      dup3\n      mul\n      dup1\n      calldatasize\n      dup4\n      calldatacopy\n      dup1\n      dup3\n      add\n      swap2\n      pop\n      pop\n      swap1\n      pop\n    tag_285:\n      pop\n        /* \"utils/Strings.sol\":463:502  bytes memory buffer = new bytes(digits) */\n      swap1\n      pop\n        /* \"utils/Strings.sol\":513:667  while (value != 0) {\r... */\n    tag_286:\n        /* \"utils/Strings.sol\":529:530  0 */\n      0x00\n        /* \"utils/Strings.sol\":520:525  value */\n      dup6\n        /* \"utils/Strings.sol\":520:530  value != 0 */\n      eq\n        /* \"utils/Strings.sol\":513:667  while (value != 0) {\r... */\n      tag_287\n      jumpi\n        /* \"utils/Strings.sol\":557:558  1 */\n      0x01\n        /* \"utils/Strings.sol\":547:558  digits -= 1 */\n      dup3\n      tag_288\n      swap2\n      swap1\n      tag_289\n      jump\t// in\n    tag_288:\n      swap2\n      pop\n        /* \"utils/Strings.sol\":624:626  10 */\n      0x0a\n        /* \"utils/Strings.sol\":616:621  value */\n      dup6\n        /* \"utils/Strings.sol\":616:626  value % 10 */\n      tag_290\n      swap2\n      swap1\n      tag_291\n      jump\t// in\n    tag_290:\n        /* \"utils/Strings.sol\":603:605  48 */\n      0x30\n        /* \"utils/Strings.sol\":603:627  48 + uint256(value % 10) */\n      tag_292\n      swap2\n      swap1\n      tag_293\n      jump\t// in\n    tag_292:\n        /* \"utils/Strings.sol\":590:629  bytes1(uint8(48 + uint256(value % 10))) */\n      0xf8\n      shl\n        /* \"utils/Strings.sol\":573:579  buffer */\n      dup2\n        /* \"utils/Strings.sol\":580:586  digits */\n      dup4\n        /* \"utils/Strings.sol\":573:587  buffer[digits] */\n      dup2\n      mload\n      dup2\n      lt\n      tag_294\n      jumpi\n      tag_295\n      tag_296\n      jump\t// in\n    tag_295:\n    tag_294:\n      0x20\n      add\n      add\n        /* \"utils/Strings.sol\":573:629  buffer[digits] = bytes1(uint8(48 + uint256(value % 10))) */\n      swap1\n      not(0xffffffffffffffffffffffffffffffffffffffffffffffffffffffffffffff)\n      and\n      swap1\n      dup2\n      0x00\n      byte\n      swap1\n      mstore8\n      pop\n        /* \"utils/Strings.sol\":653:655  10 */\n      0x0a\n        /* \"utils/Strings.sol\":644:655  value /= 10 */\n      dup6\n      tag_297\n      swap2\n      swap1\n      tag_192\n      jump\t// in\n    tag_297:\n      swap5\n      pop\n        /* \"utils/Strings.sol\":513:667  while (value != 0) {\r... */\n      jump(tag_286)\n    tag_287:\n        /* \"utils/Strings.sol\":691:697  buffer */\n      dup1\n        /* \"utils/Strings.sol\":677:698  return string(buffer) */\n      swap4\n      pop\n      pop\n      pop\n      pop\n        /* \"utils/Strings.sol\":161:706  function toString(uint256 value) internal pure returns (string memory) {\r... */\n    tag_276:\n      swap2\n      swap1\n      pop\n      jump\t// out\n        /* \"ERC721.sol\":4679:4997  function _mint(address to, uint256 id) internal virtual {\r... */\n    tag_260:\n        /* \"ERC721.sol\":4768:4769  0 */\n      0x00\n        /* \"ERC721.sol\":4754:4770  to != address(0) */\n      0xffffffffffffffffffffffffffffffffffffffff\n      and\n        /* \"ERC721.sol\":4754:4756  to */\n      dup3\n        /* \"ERC721.sol\":4754:4770  to != address(0) */\n      0xffffffffffffffffffffffffffffffffffffffff\n      and\n      eq\n      iszero\n        /* \"ERC721.sol\":4746:4785  require(to != address(0), \"INVALID_TO\") */\n      tag_299\n      jumpi\n      mload(0x40)\n      0x08c379a000000000000000000000000000000000000000000000000000000000\n      dup2\n      mstore\n      0x04\n      add\n      tag_300\n      swap1\n      tag_301\n      jump\t// in\n    tag_300:\n      mload(0x40)\n      dup1\n      swap2\n      sub\n      swap1\n      revert\n    tag_299:\n        /* \"ERC721.sol\":4829:4830  0 */\n      0x00\n        /* \"ERC721.sol\":4806:4831  ownerOf[id] == address(0) */\n      0xffffffffffffffffffffffffffffffffffffffff\n      and\n        /* \"ERC721.sol\":4806:4813  ownerOf */\n      0x04\n        /* \"ERC721.sol\":4806:4817  ownerOf[id] */\n      0x00\n        /* \"ERC721.sol\":4814:4816  id */\n      dup4\n        /* \"ERC721.sol\":4806:4817  ownerOf[id] */\n      dup2\n      mstore\n      0x20\n      add\n      swap1\n      dup2\n      mstore\n      0x20\n      add\n      0x00\n      keccak256\n      0x00\n      swap1\n      sload\n      swap1\n      0x0100\n      exp\n      swap1\n      div\n      0xffffffffffffffffffffffffffffffffffffffff\n      and\n        /* \"ERC721.sol\":4806:4831  ownerOf[id] == address(0) */\n      0xffffffffffffffffffffffffffffffffffffffff\n      and\n      eq\n        /* \"ERC721.sol\":4798:4850  require(ownerOf[id] == address(0), \"ALREADY_MINTED\") */\n      tag_302\n      jumpi\n      mload(0x40)\n      0x08c379a000000000000000000000000000000000000000000000000000000000\n      dup2\n      mstore\n      0x04\n      add\n      tag_303\n      swap1\n      tag_304\n      jump\t// in\n    tag_303:\n      mload(0x40)\n      dup1\n      swap2\n      sub\n      swap1\n      revert\n    tag_302:\n        /* \"ERC721.sol\":4888:4897  balanceOf */\n      0x03\n        /* \"ERC721.sol\":4888:4901  balanceOf[to] */\n      0x00\n        /* \"ERC721.sol\":4898:4900  to */\n      dup4\n        /* \"ERC721.sol\":4888:4901  balanceOf[to] */\n      0xffffffffffffffffffffffffffffffffffffffff\n      and\n      0xffffffffffffffffffffffffffffffffffffffff\n      and\n      dup2\n      mstore\n      0x20\n      add\n      swap1\n      dup2\n      mstore\n      0x20\n      add\n      0x00\n      keccak256\n      0x00\n        /* \"ERC721.sol\":4888:4903  balanceOf[to]++ */\n      dup2\n      sload\n      dup1\n      swap3\n      swap2\n      swap1\n      0x01\n      add\n      swap2\n      swap1\n      pop\n      sstore\n      pop\n        /* \"ERC721.sol\":4941:4943  to */\n      dup2\n        /* \"ERC721.sol\":4927:4934  ownerOf */\n      0x04\n        /* \"ERC721.sol\":4927:4938  ownerOf[id] */\n      0x00\n        /* \"ERC721.sol\":4935:4937  id */\n      dup4\n        /* \"ERC721.sol\":4927:4938  ownerOf[id] */\n      dup2\n      mstore\n      0x20\n      add\n      swap1\n      dup2\n      mstore\n      0x20\n      add\n      0x00\n      keccak256\n      0x00\n        /* \"ERC721.sol\":4927:4943  ownerOf[id] = to */\n      0x0100\n      exp\n      dup2\n      sload\n      dup2\n      0xffffffffffffffffffffffffffffffffffffffff\n      mul\n      not\n      and\n      swap1\n      dup4\n      0xffffffffffffffffffffffffffffffffffffffff\n      and\n      mul\n      or\n      swap1\n      sstore\n      pop\n        /* \"ERC721.sol\":4986:4988  id */\n      dup1\n        /* \"ERC721.sol\":4982:4984  to */\n      dup3\n        /* \"ERC721.sol\":4961:4989  Transfer(address(0), to, id) */\n      0xffffffffffffffffffffffffffffffffffffffff\n      and\n        /* \"ERC721.sol\":4978:4979  0 */\n      0x00\n        /* \"ERC721.sol\":4961:4989  Transfer(address(0), to, id) */\n      0xffffffffffffffffffffffffffffffffffffffff\n      and\n      0xddf252ad1be2c89b69c2b068fc378daa952ba7f163c4a11628f55a4df523b3ef\n      mload(0x40)\n      mload(0x40)\n      dup1\n      swap2\n      sub\n      swap1\n      log4\n        /* \"ERC721.sol\":4679:4997  function _mint(address to, uint256 id) internal virtual {\r... */\n      pop\n      pop\n      jump\t// out\n        /* \"#utility.yul\":7:417   */\n    tag_306:\n        /* \"#utility.yul\":84:89   */\n      0x00\n        /* \"#utility.yul\":109:174   */\n      tag_308\n        /* \"#utility.yul\":125:173   */\n      tag_309\n        /* \"#utility.yul\":166:172   */\n      dup5\n        /* \"#utility.yul\":125:173   */\n      tag_310\n      jump\t// in\n    tag_309:\n        /* \"#utility.yul\":109:174   */\n      tag_311\n      jump\t// in\n    tag_308:\n        /* \"#utility.yul\":100:174   */\n      swap1\n      pop\n        /* \"#utility.yul\":197:203   */\n      dup3\n        /* \"#utility.yul\":190:195   */\n      dup2\n        /* \"#utility.yul\":183:204   */\n      mstore\n        /* \"#utility.yul\":235:239   */\n      0x20\n        /* \"#utility.yul\":228:233   */\n      dup2\n        /* \"#utility.yul\":224:240   */\n      add\n        /* \"#utility.yul\":273:276   */\n      dup5\n        /* \"#utility.yul\":264:270   */\n      dup5\n        /* \"#utility.yul\":259:262   */\n      dup5\n        /* \"#utility.yul\":255:271   */\n      add\n        /* \"#utility.yul\":252:277   */\n      gt\n        /* \"#utility.yul\":249:361   */\n      iszero\n      tag_312\n      jumpi\n        /* \"#utility.yul\":280:359   */\n      tag_313\n      tag_314\n      jump\t// in\n    tag_313:\n        /* \"#utility.yul\":249:361   */\n    tag_312:\n        /* \"#utility.yul\":370:411   */\n      tag_315\n        /* \"#utility.yul\":404:410   */\n      dup5\n        /* \"#utility.yul\":399:402   */\n      dup3\n        /* \"#utility.yul\":394:397   */\n      dup6\n        /* \"#utility.yul\":370:411   */\n      tag_316\n      jump\t// in\n    tag_315:\n        /* \"#utility.yul\":90:417   */\n      pop\n        /* \"#utility.yul\":7:417   */\n      swap4\n      swap3\n      pop\n      pop\n      pop\n      jump\t// out\n        /* \"#utility.yul\":423:562   */\n    tag_317:\n        /* \"#utility.yul\":469:474   */\n      0x00\n        /* \"#utility.yul\":507:513   */\n      dup2\n        /* \"#utility.yul\":494:514   */\n      calldataload\n        /* \"#utility.yul\":485:514   */\n      swap1\n      pop\n        /* \"#utility.yul\":523:556   */\n      tag_319\n        /* \"#utility.yul\":550:555   */\n      dup2\n        /* \"#utility.yul\":523:556   */\n      tag_320\n      jump\t// in\n    tag_319:\n        /* \"#utility.yul\":423:562   */\n      swap3\n      swap2\n      pop\n      pop\n      jump\t// out\n        /* \"#utility.yul\":568:701   */\n    tag_321:\n        /* \"#utility.yul\":611:616   */\n      0x00\n        /* \"#utility.yul\":649:655   */\n      dup2\n        /* \"#utility.yul\":636:656   */\n      calldataload\n        /* \"#utility.yul\":627:656   */\n      swap1\n      pop\n        /* \"#utility.yul\":665:695   */\n      tag_323\n        /* \"#utility.yul\":689:694   */\n      dup2\n        /* \"#utility.yul\":665:695   */\n      tag_324\n      jump\t// in\n    tag_323:\n        /* \"#utility.yul\":568:701   */\n      swap3\n      swap2\n      pop\n      pop\n      jump\t// out\n        /* \"#utility.yul\":707:844   */\n    tag_325:\n        /* \"#utility.yul\":752:757   */\n      0x00\n        /* \"#utility.yul\":790:796   */\n      dup2\n        /* \"#utility.yul\":777:797   */\n      calldataload\n        /* \"#utility.yul\":768:797   */\n      swap1\n      pop\n        /* \"#utility.yul\":806:838   */\n      tag_327\n        /* \"#utility.yul\":832:837   */\n      dup2\n        /* \"#utility.yul\":806:838   */\n      tag_328\n      jump\t// in\n    tag_327:\n        /* \"#utility.yul\":707:844   */\n      swap3\n      swap2\n      pop\n      pop\n      jump\t// out\n        /* \"#utility.yul\":850:991   */\n    tag_329:\n        /* \"#utility.yul\":906:911   */\n      0x00\n        /* \"#utility.yul\":937:943   */\n      dup2\n        /* \"#utility.yul\":931:944   */\n      mload\n        /* \"#utility.yul\":922:944   */\n      swap1\n      pop\n        /* \"#utility.yul\":953:985   */\n      tag_331\n        /* \"#utility.yul\":979:984   */\n      dup2\n        /* \"#utility.yul\":953:985   */\n      tag_328\n      jump\t// in\n    tag_331:\n        /* \"#utility.yul\":850:991   */\n      swap3\n      swap2\n      pop\n      pop\n      jump\t// out\n        /* \"#utility.yul\":1010:1348   */\n    tag_332:\n        /* \"#utility.yul\":1065:1070   */\n      0x00\n        /* \"#utility.yul\":1114:1117   */\n      dup3\n        /* \"#utility.yul\":1107:1111   */\n      0x1f\n        /* \"#utility.yul\":1099:1105   */\n      dup4\n        /* \"#utility.yul\":1095:1112   */\n      add\n        /* \"#utility.yul\":1091:1118   */\n      slt\n        /* \"#utility.yul\":1081:1203   */\n      tag_334\n      jumpi\n        /* \"#utility.yul\":1122:1201   */\n      tag_335\n      tag_336\n      jump\t// in\n    tag_335:\n        /* \"#utility.yul\":1081:1203   */\n    tag_334:\n        /* \"#utility.yul\":1239:1245   */\n      dup2\n        /* \"#utility.yul\":1226:1246   */\n      calldataload\n        /* \"#utility.yul\":1264:1342   */\n      tag_337\n        /* \"#utility.yul\":1338:1341   */\n      dup5\n        /* \"#utility.yul\":1330:1336   */\n      dup3\n        /* \"#utility.yul\":1323:1327   */\n      0x20\n        /* \"#utility.yul\":1315:1321   */\n      dup7\n        /* \"#utility.yul\":1311:1328   */\n      add\n        /* \"#utility.yul\":1264:1342   */\n      tag_306\n      jump\t// in\n    tag_337:\n        /* \"#utility.yul\":1255:1342   */\n      swap2\n      pop\n        /* \"#utility.yul\":1071:1348   */\n      pop\n        /* \"#utility.yul\":1010:1348   */\n      swap3\n      swap2\n      pop\n      pop\n      jump\t// out\n        /* \"#utility.yul\":1354:1493   */\n    tag_338:\n        /* \"#utility.yul\":1400:1405   */\n      0x00\n        /* \"#utility.yul\":1438:1444   */\n      dup2\n        /* \"#utility.yul\":1425:1445   */\n      calldataload\n        /* \"#utility.yul\":1416:1445   */\n      swap1\n      pop\n        /* \"#utility.yul\":1454:1487   */\n      tag_340\n        /* \"#utility.yul\":1481:1486   */\n      dup2\n        /* \"#utility.yul\":1454:1487   */\n      tag_341\n      jump\t// in\n    tag_340:\n        /* \"#utility.yul\":1354:1493   */\n      swap3\n      swap2\n      pop\n      pop\n      jump\t// out\n        /* \"#utility.yul\":1499:1636   */\n    tag_342:\n        /* \"#utility.yul\":1544:1549   */\n      0x00\n        /* \"#utility.yul\":1582:1588   */\n      dup2\n        /* \"#utility.yul\":1569:1589   */\n      calldataload\n        /* \"#utility.yul\":1560:1589   */\n      swap1\n      pop\n        /* \"#utility.yul\":1598:1630   */\n      tag_344\n        /* \"#utility.yul\":1624:1629   */\n      dup2\n        /* \"#utility.yul\":1598:1630   */\n      tag_345\n      jump\t// in\n    tag_344:\n        /* \"#utility.yul\":1499:1636   */\n      swap3\n      swap2\n      pop\n      pop\n      jump\t// out\n        /* \"#utility.yul\":1642:1779   */\n    tag_346:\n        /* \"#utility.yul\":1687:1692   */\n      0x00\n        /* \"#utility.yul\":1725:1731   */\n      dup2\n        /* \"#utility.yul\":1712:1732   */\n      calldataload\n        /* \"#utility.yul\":1703:1732   */\n      swap1\n      pop\n        /* \"#utility.yul\":1741:1773   */\n      tag_348\n        /* \"#utility.yul\":1767:1772   */\n      dup2\n        /* \"#utility.yul\":1741:1773   */\n      tag_349\n      jump\t// in\n    tag_348:\n        /* \"#utility.yul\":1642:1779   */\n      swap3\n      swap2\n      pop\n      pop\n      jump\t// out\n        /* \"#utility.yul\":1785:2114   */\n    tag_76:\n        /* \"#utility.yul\":1844:1850   */\n      0x00\n        /* \"#utility.yul\":1893:1895   */\n      0x20\n        /* \"#utility.yul\":1881:1890   */\n      dup3\n        /* \"#utility.yul\":1872:1879   */\n      dup5\n        /* \"#utility.yul\":1868:1891   */\n      sub\n        /* \"#utility.yul\":1864:1896   */\n      slt\n        /* \"#utility.yul\":1861:1980   */\n      iszero\n      tag_351\n      jumpi\n        /* \"#utility.yul\":1899:1978   */\n      tag_352\n      tag_353\n      jump\t// in\n    tag_352:\n        /* \"#utility.yul\":1861:1980   */\n    tag_351:\n        /* \"#utility.yul\":2019:2020   */\n      0x00\n        /* \"#utility.yul\":2044:2097   */\n      tag_354\n        /* \"#utility.yul\":2089:2096   */\n      dup5\n        /* \"#utility.yul\":2080:2086   */\n      dup3\n        /* \"#utility.yul\":2069:2078   */\n      dup6\n        /* \"#utility.yul\":2065:2087   */\n      add\n        /* \"#utility.yul\":2044:2097   */\n      tag_317\n      jump\t// in\n    tag_354:\n        /* \"#utility.yul\":2034:2097   */\n      swap2\n      pop\n        /* \"#utility.yul\":1990:2107   */\n      pop\n        /* \"#utility.yul\":1785:2114   */\n      swap3\n      swap2\n      pop\n      pop\n      jump\t// out\n        /* \"#utility.yul\":2120:2594   */\n    tag_118:\n        /* \"#utility.yul\":2188:2194   */\n      0x00\n        /* \"#utility.yul\":2196:2202   */\n      dup1\n        /* \"#utility.yul\":2245:2247   */\n      0x40\n        /* \"#utility.yul\":2233:2242   */\n      dup4\n        /* \"#utility.yul\":2224:2231   */\n      dup6\n        /* \"#utility.yul\":2220:2243   */\n      sub\n        /* \"#utility.yul\":2216:2248   */\n      slt\n        /* \"#utility.yul\":2213:2332   */\n      iszero\n      tag_356\n      jumpi\n        /* \"#utility.yul\":2251:2330   */\n      tag_357\n      tag_353\n      jump\t// in\n    tag_357:\n        /* \"#utility.yul\":2213:2332   */\n    tag_356:\n        /* \"#utility.yul\":2371:2372   */\n      0x00\n        /* \"#utility.yul\":2396:2449   */\n      tag_358\n        /* \"#utility.yul\":2441:2448   */\n      dup6\n        /* \"#utility.yul\":2432:2438   */\n      dup3\n        /* \"#utility.yul\":2421:2430   */\n      dup7\n        /* \"#utility.yul\":2417:2439   */\n      add\n        /* \"#utility.yul\":2396:2449   */\n      tag_317\n      jump\t// in\n    tag_358:\n        /* \"#utility.yul\":2386:2449   */\n      swap3\n      pop\n        /* \"#utility.yul\":2342:2459   */\n      pop\n        /* \"#utility.yul\":2498:2500   */\n      0x20\n        /* \"#utility.yul\":2524:2577   */\n      tag_359\n        /* \"#utility.yul\":2569:2576   */\n      dup6\n        /* \"#utility.yul\":2560:2566   */\n      dup3\n        /* \"#utility.yul\":2549:2558   */\n      dup7\n        /* \"#utility.yul\":2545:2567   */\n      add\n        /* \"#utility.yul\":2524:2577   */\n      tag_317\n      jump\t// in\n    tag_359:\n        /* \"#utility.yul\":2514:2577   */\n      swap2\n      pop\n        /* \"#utility.yul\":2469:2587   */\n      pop\n        /* \"#utility.yul\":2120:2594   */\n      swap3\n      pop\n      swap3\n      swap1\n      pop\n      jump\t// out\n        /* \"#utility.yul\":2600:3219   */\n    tag_56:\n        /* \"#utility.yul\":2677:2683   */\n      0x00\n        /* \"#utility.yul\":2685:2691   */\n      dup1\n        /* \"#utility.yul\":2693:2699   */\n      0x00\n        /* \"#utility.yul\":2742:2744   */\n      0x60\n        /* \"#utility.yul\":2730:2739   */\n      dup5\n        /* \"#utility.yul\":2721:2728   */\n      dup7\n        /* \"#utility.yul\":2717:2740   */\n      sub\n        /* \"#utility.yul\":2713:2745   */\n      slt\n        /* \"#utility.yul\":2710:2829   */\n      iszero\n      tag_361\n      jumpi\n        /* \"#utility.yul\":2748:2827   */\n      tag_362\n      tag_353\n      jump\t// in\n    tag_362:\n        /* \"#utility.yul\":2710:2829   */\n    tag_361:\n        /* \"#utility.yul\":2868:2869   */\n      0x00\n        /* \"#utility.yul\":2893:2946   */\n      tag_363\n        /* \"#utility.yul\":2938:2945   */\n      dup7\n        /* \"#utility.yul\":2929:2935   */\n      dup3\n        /* \"#utility.yul\":2918:2927   */\n      dup8\n        /* \"#utility.yul\":2914:2936   */\n      add\n        /* \"#utility.yul\":2893:2946   */\n      tag_317\n      jump\t// in\n    tag_363:\n        /* \"#utility.yul\":2883:2946   */\n      swap4\n      pop\n        /* \"#utility.yul\":2839:2956   */\n      pop\n        /* \"#utility.yul\":2995:2997   */\n      0x20\n        /* \"#utility.yul\":3021:3074   */\n      tag_364\n        /* \"#utility.yul\":3066:3073   */\n      dup7\n        /* \"#utility.yul\":3057:3063   */\n      dup3\n        /* \"#utility.yul\":3046:3055   */\n      dup8\n        /* \"#utility.yul\":3042:3064   */\n      add\n        /* \"#utility.yul\":3021:3074   */\n      tag_317\n      jump\t// in\n    tag_364:\n        /* \"#utility.yul\":3011:3074   */\n      swap3\n      pop\n        /* \"#utility.yul\":2966:3084   */\n      pop\n        /* \"#utility.yul\":3123:3125   */\n      0x40\n        /* \"#utility.yul\":3149:3202   */\n      tag_365\n        /* \"#utility.yul\":3194:3201   */\n      dup7\n        /* \"#utility.yul\":3185:3191   */\n      dup3\n        /* \"#utility.yul\":3174:3183   */\n      dup8\n        /* \"#utility.yul\":3170:3192   */\n      add\n        /* \"#utility.yul\":3149:3202   */\n      tag_338\n      jump\t// in\n    tag_365:\n        /* \"#utility.yul\":3139:3202   */\n      swap2\n      pop\n        /* \"#utility.yul\":3094:3212   */\n      pop\n        /* \"#utility.yul\":2600:3219   */\n      swap3\n      pop\n      swap3\n      pop\n      swap3\n      jump\t// out\n        /* \"#utility.yul\":3225:4168   */\n    tag_107:\n        /* \"#utility.yul\":3320:3326   */\n      0x00\n        /* \"#utility.yul\":3328:3334   */\n      dup1\n        /* \"#utility.yul\":3336:3342   */\n      0x00\n        /* \"#utility.yul\":3344:3350   */\n      dup1\n        /* \"#utility.yul\":3393:3396   */\n      0x80\n        /* \"#utility.yul\":3381:3390   */\n      dup6\n        /* \"#utility.yul\":3372:3379   */\n      dup8\n        /* \"#utility.yul\":3368:3391   */\n      sub\n        /* \"#utility.yul\":3364:3397   */\n      slt\n        /* \"#utility.yul\":3361:3481   */\n      iszero\n      tag_367\n      jumpi\n        /* \"#utility.yul\":3400:3479   */\n      tag_368\n      tag_353\n      jump\t// in\n    tag_368:\n        /* \"#utility.yul\":3361:3481   */\n    tag_367:\n        /* \"#utility.yul\":3520:3521   */\n      0x00\n        /* \"#utility.yul\":3545:3598   */\n      tag_369\n        /* \"#utility.yul\":3590:3597   */\n      dup8\n        /* \"#utility.yul\":3581:3587   */\n      dup3\n        /* \"#utility.yul\":3570:3579   */\n      dup9\n        /* \"#utility.yul\":3566:3588   */\n      add\n        /* \"#utility.yul\":3545:3598   */\n      tag_317\n      jump\t// in\n    tag_369:\n        /* \"#utility.yul\":3535:3598   */\n      swap5\n      pop\n        /* \"#utility.yul\":3491:3608   */\n      pop\n        /* \"#utility.yul\":3647:3649   */\n      0x20\n        /* \"#utility.yul\":3673:3726   */\n      tag_370\n        /* \"#utility.yul\":3718:3725   */\n      dup8\n        /* \"#utility.yul\":3709:3715   */\n      dup3\n        /* \"#utility.yul\":3698:3707   */\n      dup9\n        /* \"#utility.yul\":3694:3716   */\n      add\n        /* \"#utility.yul\":3673:3726   */\n      tag_317\n      jump\t// in\n    tag_370:\n        /* \"#utility.yul\":3663:3726   */\n      swap4\n      pop\n        /* \"#utility.yul\":3618:3736   */\n      pop\n        /* \"#utility.yul\":3775:3777   */\n      0x40\n        /* \"#utility.yul\":3801:3854   */\n      tag_371\n        /* \"#utility.yul\":3846:3853   */\n      dup8\n        /* \"#utility.yul\":3837:3843   */\n      dup3\n        /* \"#utility.yul\":3826:3835   */\n      dup9\n        /* \"#utility.yul\":3822:3844   */\n      add\n        /* \"#utility.yul\":3801:3854   */\n      tag_338\n      jump\t// in\n    tag_371:\n        /* \"#utility.yul\":3791:3854   */\n      swap3\n      pop\n        /* \"#utility.yul\":3746:3864   */\n      pop\n        /* \"#utility.yul\":3931:3933   */\n      0x60\n        /* \"#utility.yul\":3920:3929   */\n      dup6\n        /* \"#utility.yul\":3916:3934   */\n      add\n        /* \"#utility.yul\":3903:3935   */\n      calldataload\n        /* \"#utility.yul\":3962:3980   */\n      0xffffffffffffffff\n        /* \"#utility.yul\":3954:3960   */\n      dup2\n        /* \"#utility.yul\":3951:3981   */\n      gt\n        /* \"#utility.yul\":3948:4065   */\n      iszero\n      tag_372\n      jumpi\n        /* \"#utility.yul\":3984:4063   */\n      tag_373\n      tag_374\n      jump\t// in\n    tag_373:\n        /* \"#utility.yul\":3948:4065   */\n    tag_372:\n        /* \"#utility.yul\":4089:4151   */\n      tag_375\n        /* \"#utility.yul\":4143:4150   */\n      dup8\n        /* \"#utility.yul\":4134:4140   */\n      dup3\n        /* \"#utility.yul\":4123:4132   */\n      dup9\n        /* \"#utility.yul\":4119:4141   */\n      add\n        /* \"#utility.yul\":4089:4151   */\n      tag_332\n      jump\t// in\n    tag_375:\n        /* \"#utility.yul\":4079:4151   */\n      swap2\n      pop\n        /* \"#utility.yul\":3874:4161   */\n      pop\n        /* \"#utility.yul\":3225:4168   */\n      swap3\n      swap6\n      swap2\n      swap5\n      pop\n      swap3\n      pop\n      jump\t// out\n        /* \"#utility.yul\":4174:4642   */\n    tag_92:\n        /* \"#utility.yul\":4239:4245   */\n      0x00\n        /* \"#utility.yul\":4247:4253   */\n      dup1\n        /* \"#utility.yul\":4296:4298   */\n      0x40\n        /* \"#utility.yul\":4284:4293   */\n      dup4\n        /* \"#utility.yul\":4275:4282   */\n      dup6\n        /* \"#utility.yul\":4271:4294   */\n      sub\n        /* \"#utility.yul\":4267:4299   */\n      slt\n        /* \"#utility.yul\":4264:4383   */\n      iszero\n      tag_377\n      jumpi\n        /* \"#utility.yul\":4302:4381   */\n      tag_378\n      tag_353\n      jump\t// in\n    tag_378:\n        /* \"#utility.yul\":4264:4383   */\n    tag_377:\n        /* \"#utility.yul\":4422:4423   */\n      0x00\n        /* \"#utility.yul\":4447:4500   */\n      tag_379\n        /* \"#utility.yul\":4492:4499   */\n      dup6\n        /* \"#utility.yul\":4483:4489   */\n      dup3\n        /* \"#utility.yul\":4472:4481   */\n      dup7\n        /* \"#utility.yul\":4468:4490   */\n      add\n        /* \"#utility.yul\":4447:4500   */\n      tag_317\n      jump\t// in\n    tag_379:\n        /* \"#utility.yul\":4437:4500   */\n      swap3\n      pop\n        /* \"#utility.yul\":4393:4510   */\n      pop\n        /* \"#utility.yul\":4549:4551   */\n      0x20\n        /* \"#utility.yul\":4575:4625   */\n      tag_380\n        /* \"#utility.yul\":4617:4624   */\n      dup6\n        /* \"#utility.yul\":4608:4614   */\n      dup3\n        /* \"#utility.yul\":4597:4606   */\n      dup7\n        /* \"#utility.yul\":4593:4615   */\n      add\n        /* \"#utility.yul\":4575:4625   */\n      tag_321\n      jump\t// in\n    tag_380:\n        /* \"#utility.yul\":4565:4625   */\n      swap2\n      pop\n        /* \"#utility.yul\":4520:4635   */\n      pop\n        /* \"#utility.yul\":4174:4642   */\n      swap3\n      pop\n      swap3\n      swap1\n      pop\n      jump\t// out\n        /* \"#utility.yul\":4648:5122   */\n    tag_52:\n        /* \"#utility.yul\":4716:4722   */\n      0x00\n        /* \"#utility.yul\":4724:4730   */\n      dup1\n        /* \"#utility.yul\":4773:4775   */\n      0x40\n        /* \"#utility.yul\":4761:4770   */\n      dup4\n        /* \"#utility.yul\":4752:4759   */\n      dup6\n        /* \"#utility.yul\":4748:4771   */\n      sub\n        /* \"#utility.yul\":4744:4776   */\n      slt\n        /* \"#utility.yul\":4741:4860   */\n      iszero\n      tag_382\n      jumpi\n        /* \"#utility.yul\":4779:4858   */\n      tag_383\n      tag_353\n      jump\t// in\n    tag_383:\n        /* \"#utility.yul\":4741:4860   */\n    tag_382:\n        /* \"#utility.yul\":4899:4900   */\n      0x00\n        /* \"#utility.yul\":4924:4977   */\n      tag_384\n        /* \"#utility.yul\":4969:4976   */\n      dup6\n        /* \"#utility.yul\":4960:4966   */\n      dup3\n        /* \"#utility.yul\":4949:4958   */\n      dup7\n        /* \"#utility.yul\":4945:4967   */\n      add\n        /* \"#utility.yul\":4924:4977   */\n      tag_317\n      jump\t// in\n    tag_384:\n        /* \"#utility.yul\":4914:4977   */\n      swap3\n      pop\n        /* \"#utility.yul\":4870:4987   */\n      pop\n        /* \"#utility.yul\":5026:5028   */\n      0x20\n        /* \"#utility.yul\":5052:5105   */\n      tag_385\n        /* \"#utility.yul\":5097:5104   */\n      dup6\n        /* \"#utility.yul\":5088:5094   */\n      dup3\n        /* \"#utility.yul\":5077:5086   */\n      dup7\n        /* \"#utility.yul\":5073:5095   */\n      add\n        /* \"#utility.yul\":5052:5105   */\n      tag_338\n      jump\t// in\n    tag_385:\n        /* \"#utility.yul\":5042:5105   */\n      swap2\n      pop\n        /* \"#utility.yul\":4997:5115   */\n      pop\n        /* \"#utility.yul\":4648:5122   */\n      swap3\n      pop\n      swap3\n      swap1\n      pop\n      jump\t// out\n        /* \"#utility.yul\":5128:5600   */\n    tag_100:\n        /* \"#utility.yul\":5195:5201   */\n      0x00\n        /* \"#utility.yul\":5203:5209   */\n      dup1\n        /* \"#utility.yul\":5252:5254   */\n      0x40\n        /* \"#utility.yul\":5240:5249   */\n      dup4\n        /* \"#utility.yul\":5231:5238   */\n      dup6\n        /* \"#utility.yul\":5227:5250   */\n      sub\n        /* \"#utility.yul\":5223:5255   */\n      slt\n        /* \"#utility.yul\":5220:5339   */\n      iszero\n      tag_387\n      jumpi\n        /* \"#utility.yul\":5258:5337   */\n      tag_388\n      tag_353\n      jump\t// in\n    tag_388:\n        /* \"#utility.yul\":5220:5339   */\n    tag_387:\n        /* \"#utility.yul\":5378:5379   */\n      0x00\n        /* \"#utility.yul\":5403:5456   */\n      tag_389\n        /* \"#utility.yul\":5448:5455   */\n      dup6\n        /* \"#utility.yul\":5439:5445   */\n      dup3\n        /* \"#utility.yul\":5428:5437   */\n      dup7\n        /* \"#utility.yul\":5424:5446   */\n      add\n        /* \"#utility.yul\":5403:5456   */\n      tag_317\n      jump\t// in\n    tag_389:\n        /* \"#utility.yul\":5393:5456   */\n      swap3\n      pop\n        /* \"#utility.yul\":5349:5466   */\n      pop\n        /* \"#utility.yul\":5505:5507   */\n      0x20\n        /* \"#utility.yul\":5531:5583   */\n      tag_390\n        /* \"#utility.yul\":5575:5582   */\n      dup6\n        /* \"#utility.yul\":5566:5572   */\n      dup3\n        /* \"#utility.yul\":5555:5564   */\n      dup7\n        /* \"#utility.yul\":5551:5573   */\n      add\n        /* \"#utility.yul\":5531:5583   */\n      tag_342\n      jump\t// in\n    tag_390:\n        /* \"#utility.yul\":5521:5583   */\n      swap2\n      pop\n        /* \"#utility.yul\":5476:5593   */\n      pop\n        /* \"#utility.yul\":5128:5600   */\n      swap3\n      pop\n      swap3\n      swap1\n      pop\n      jump\t// out\n        /* \"#utility.yul\":5606:6078   */\n    tag_38:\n        /* \"#utility.yul\":5673:5679   */\n      0x00\n        /* \"#utility.yul\":5681:5687   */\n      dup1\n        /* \"#utility.yul\":5730:5732   */\n      0x40\n        /* \"#utility.yul\":5718:5727   */\n      dup4\n        /* \"#utility.yul\":5709:5716   */\n      dup6\n        /* \"#utility.yul\":5705:5728   */\n      sub\n        /* \"#utility.yul\":5701:5733   */\n      slt\n        /* \"#utility.yul\":5698:5817   */\n      iszero\n      tag_392\n      jumpi\n        /* \"#utility.yul\":5736:5815   */\n      tag_393\n      tag_353\n      jump\t// in\n    tag_393:\n        /* \"#utility.yul\":5698:5817   */\n    tag_392:\n        /* \"#utility.yul\":5856:5857   */\n      0x00\n        /* \"#utility.yul\":5881:5934   */\n      tag_394\n        /* \"#utility.yul\":5926:5933   */\n      dup6\n        /* \"#utility.yul\":5917:5923   */\n      dup3\n        /* \"#utility.yul\":5906:5915   */\n      dup7\n        /* \"#utility.yul\":5902:5924   */\n      add\n        /* \"#utility.yul\":5881:5934   */\n      tag_317\n      jump\t// in\n    tag_394:\n        /* \"#utility.yul\":5871:5934   */\n      swap3\n      pop\n        /* \"#utility.yul\":5827:5944   */\n      pop\n        /* \"#utility.yul\":5983:5985   */\n      0x20\n        /* \"#utility.yul\":6009:6061   */\n      tag_395\n        /* \"#utility.yul\":6053:6060   */\n      dup6\n        /* \"#utility.yul\":6044:6050   */\n      dup3\n        /* \"#utility.yul\":6033:6042   */\n      dup7\n        /* \"#utility.yul\":6029:6051   */\n      add\n        /* \"#utility.yul\":6009:6061   */\n      tag_346\n      jump\t// in\n    tag_395:\n        /* \"#utility.yul\":5999:6061   */\n      swap2\n      pop\n        /* \"#utility.yul\":5954:6071   */\n      pop\n        /* \"#utility.yul\":5606:6078   */\n      swap3\n      pop\n      swap3\n      swap1\n      pop\n      jump\t// out\n        /* \"#utility.yul\":6084:6411   */\n    tag_32:\n        /* \"#utility.yul\":6142:6148   */\n      0x00\n        /* \"#utility.yul\":6191:6193   */\n      0x20\n        /* \"#utility.yul\":6179:6188   */\n      dup3\n        /* \"#utility.yul\":6170:6177   */\n      dup5\n        /* \"#utility.yul\":6166:6189   */\n      sub\n        /* \"#utility.yul\":6162:6194   */\n      slt\n        /* \"#utility.yul\":6159:6278   */\n      iszero\n      tag_397\n      jumpi\n        /* \"#utility.yul\":6197:6276   */\n      tag_398\n      tag_353\n      jump\t// in\n    tag_398:\n        /* \"#utility.yul\":6159:6278   */\n    tag_397:\n        /* \"#utility.yul\":6317:6318   */\n      0x00\n        /* \"#utility.yul\":6342:6394   */\n      tag_399\n        /* \"#utility.yul\":6386:6393   */\n      dup5\n        /* \"#utility.yul\":6377:6383   */\n      dup3\n        /* \"#utility.yul\":6366:6375   */\n      dup6\n        /* \"#utility.yul\":6362:6384   */\n      add\n        /* \"#utility.yul\":6342:6394   */\n      tag_325\n      jump\t// in\n    tag_399:\n        /* \"#utility.yul\":6332:6394   */\n      swap2\n      pop\n        /* \"#utility.yul\":6288:6404   */\n      pop\n        /* \"#utility.yul\":6084:6411   */\n      swap3\n      swap2\n      pop\n      pop\n      jump\t// out\n        /* \"#utility.yul\":6417:6766   */\n    tag_173:\n        /* \"#utility.yul\":6486:6492   */\n      0x00\n        /* \"#utility.yul\":6535:6537   */\n      0x20\n        /* \"#utility.yul\":6523:6532   */\n      dup3\n        /* \"#utility.yul\":6514:6521   */\n      dup5\n        /* \"#utility.yul\":6510:6533   */\n      sub\n        /* \"#utility.yul\":6506:6538   */\n      slt\n        /* \"#utility.yul\":6503:6622   */\n      iszero\n      tag_401\n      jumpi\n        /* \"#utility.yul\":6541:6620   */\n      tag_402\n      tag_353\n      jump\t// in\n    tag_402:\n        /* \"#utility.yul\":6503:6622   */\n    tag_401:\n        /* \"#utility.yul\":6661:6662   */\n      0x00\n        /* \"#utility.yul\":6686:6749   */\n      tag_403\n        /* \"#utility.yul\":6741:6748   */\n      dup5\n        /* \"#utility.yul\":6732:6738   */\n      dup3\n        /* \"#utility.yul\":6721:6730   */\n      dup6\n        /* \"#utility.yul\":6717:6739   */\n      add\n        /* \"#utility.yul\":6686:6749   */\n      tag_329\n      jump\t// in\n    tag_403:\n        /* \"#utility.yul\":6676:6749   */\n      swap2\n      pop\n        /* \"#utility.yul\":6632:6759   */\n      pop\n        /* \"#utility.yul\":6417:6766   */\n      swap3\n      swap2\n      pop\n      pop\n      jump\t// out\n        /* \"#utility.yul\":6772:7101   */\n    tag_46:\n        /* \"#utility.yul\":6831:6837   */\n      0x00\n        /* \"#utility.yul\":6880:6882   */\n      0x20\n        /* \"#utility.yul\":6868:6877   */\n      dup3\n        /* \"#utility.yul\":6859:6866   */\n      dup5\n        /* \"#utility.yul\":6855:6878   */\n      sub\n        /* \"#utility.yul\":6851:6883   */\n      slt\n        /* \"#utility.yul\":6848:6967   */\n      iszero\n      tag_405\n      jumpi\n        /* \"#utility.yul\":6886:6965   */\n      tag_406\n      tag_353\n      jump\t// in\n    tag_406:\n        /* \"#utility.yul\":6848:6967   */\n    tag_405:\n        /* \"#utility.yul\":7006:7007   */\n      0x00\n        /* \"#utility.yul\":7031:7084   */\n      tag_407\n        /* \"#utility.yul\":7076:7083   */\n      dup5\n        /* \"#utility.yul\":7067:7073   */\n      dup3\n        /* \"#utility.yul\":7056:7065   */\n      dup6\n        /* \"#utility.yul\":7052:7074   */\n      add\n        /* \"#utility.yul\":7031:7084   */\n      tag_338\n      jump\t// in\n    tag_407:\n        /* \"#utility.yul\":7021:7084   */\n      swap2\n      pop\n        /* \"#utility.yul\":6977:7094   */\n      pop\n        /* \"#utility.yul\":6772:7101   */\n      swap3\n      swap2\n      pop\n      pop\n      jump\t// out\n        /* \"#utility.yul\":7107:7581   */\n    tag_60:\n        /* \"#utility.yul\":7175:7181   */\n      0x00\n        /* \"#utility.yul\":7183:7189   */\n      dup1\n        /* \"#utility.yul\":7232:7234   */\n      0x40\n        /* \"#utility.yul\":7220:7229   */\n      dup4\n        /* \"#utility.yul\":7211:7218   */\n      dup6\n        /* \"#utility.yul\":7207:7230   */\n      sub\n        /* \"#utility.yul\":7203:7235   */\n      slt\n        /* \"#utility.yul\":7200:7319   */\n      iszero\n      tag_409\n      jumpi\n        /* \"#utility.yul\":7238:7317   */\n      tag_410\n      tag_353\n      jump\t// in\n    tag_410:\n        /* \"#utility.yul\":7200:7319   */\n    tag_409:\n        /* \"#utility.yul\":7358:7359   */\n      0x00\n        /* \"#utility.yul\":7383:7436   */\n      tag_411\n        /* \"#utility.yul\":7428:7435   */\n      dup6\n        /* \"#utility.yul\":7419:7425   */\n      dup3\n        /* \"#utility.yul\":7408:7417   */\n      dup7\n        /* \"#utility.yul\":7404:7426   */\n      add\n        /* \"#utility.yul\":7383:7436   */\n      tag_338\n      jump\t// in\n    tag_411:\n        /* \"#utility.yul\":7373:7436   */\n      swap3\n      pop\n        /* \"#utility.yul\":7329:7446   */\n      pop\n        /* \"#utility.yul\":7485:7487   */\n      0x20\n        /* \"#utility.yul\":7511:7564   */\n      tag_412\n        /* \"#utility.yul\":7556:7563   */\n      dup6\n        /* \"#utility.yul\":7547:7553   */\n      dup3\n        /* \"#utility.yul\":7536:7545   */\n      dup7\n        /* \"#utility.yul\":7532:7554   */\n      add\n        /* \"#utility.yul\":7511:7564   */\n      tag_338\n      jump\t// in\n    tag_412:\n        /* \"#utility.yul\":7501:7564   */\n      swap2\n      pop\n        /* \"#utility.yul\":7456:7574   */\n      pop\n        /* \"#utility.yul\":7107:7581   */\n      swap3\n      pop\n      swap3\n      swap1\n      pop\n      jump\t// out\n        /* \"#utility.yul\":7587:7705   */\n    tag_413:\n        /* \"#utility.yul\":7674:7698   */\n      tag_415\n        /* \"#utility.yul\":7692:7697   */\n      dup2\n        /* \"#utility.yul\":7674:7698   */\n      tag_416\n      jump\t// in\n    tag_415:\n        /* \"#utility.yul\":7669:7672   */\n      dup3\n        /* \"#utility.yul\":7662:7699   */\n      mstore\n        /* \"#utility.yul\":7587:7705   */\n      pop\n      pop\n      jump\t// out\n        /* \"#utility.yul\":7711:7820   */\n    tag_417:\n        /* \"#utility.yul\":7792:7813   */\n      tag_419\n        /* \"#utility.yul\":7807:7812   */\n      dup2\n        /* \"#utility.yul\":7792:7813   */\n      tag_420\n      jump\t// in\n    tag_419:\n        /* \"#utility.yul\":7787:7790   */\n      dup3\n        /* \"#utility.yul\":7780:7814   */\n      mstore\n        /* \"#utility.yul\":7711:7820   */\n      pop\n      pop\n      jump\t// out\n        /* \"#utility.yul\":7826:8186   */\n    tag_421:\n        /* \"#utility.yul\":7912:7915   */\n      0x00\n        /* \"#utility.yul\":7940:7978   */\n      tag_423\n        /* \"#utility.yul\":7972:7977   */\n      dup3\n        /* \"#utility.yul\":7940:7978   */\n      tag_424\n      jump\t// in\n    tag_423:\n        /* \"#utility.yul\":7994:8064   */\n      tag_425\n        /* \"#utility.yul\":8057:8063   */\n      dup2\n        /* \"#utility.yul\":8052:8055   */\n      dup6\n        /* \"#utility.yul\":7994:8064   */\n      tag_426\n      jump\t// in\n    tag_425:\n        /* \"#utility.yul\":7987:8064   */\n      swap4\n      pop\n        /* \"#utility.yul\":8073:8125   */\n      tag_427\n        /* \"#utility.yul\":8118:8124   */\n      dup2\n        /* \"#utility.yul\":8113:8116   */\n      dup6\n        /* \"#utility.yul\":8106:8110   */\n      0x20\n        /* \"#utility.yul\":8099:8104   */\n      dup7\n        /* \"#utility.yul\":8095:8111   */\n      add\n        /* \"#utility.yul\":8073:8125   */\n      tag_428\n      jump\t// in\n    tag_427:\n        /* \"#utility.yul\":8150:8179   */\n      tag_429\n        /* \"#utility.yul\":8172:8178   */\n      dup2\n        /* \"#utility.yul\":8150:8179   */\n      tag_430\n      jump\t// in\n    tag_429:\n        /* \"#utility.yul\":8145:8148   */\n      dup5\n        /* \"#utility.yul\":8141:8180   */\n      add\n        /* \"#utility.yul\":8134:8180   */\n      swap2\n      pop\n        /* \"#utility.yul\":7916:8186   */\n      pop\n        /* \"#utility.yul\":7826:8186   */\n      swap3\n      swap2\n      pop\n      pop\n      jump\t// out\n        /* \"#utility.yul\":8192:8556   */\n    tag_431:\n        /* \"#utility.yul\":8280:8283   */\n      0x00\n        /* \"#utility.yul\":8308:8347   */\n      tag_433\n        /* \"#utility.yul\":8341:8346   */\n      dup3\n        /* \"#utility.yul\":8308:8347   */\n      tag_434\n      jump\t// in\n    tag_433:\n        /* \"#utility.yul\":8363:8434   */\n      tag_435\n        /* \"#utility.yul\":8427:8433   */\n      dup2\n        /* \"#utility.yul\":8422:8425   */\n      dup6\n        /* \"#utility.yul\":8363:8434   */\n      tag_436\n      jump\t// in\n    tag_435:\n        /* \"#utility.yul\":8356:8434   */\n      swap4\n      pop\n        /* \"#utility.yul\":8443:8495   */\n      tag_437\n        /* \"#utility.yul\":8488:8494   */\n      dup2\n        /* \"#utility.yul\":8483:8486   */\n      dup6\n        /* \"#utility.yul\":8476:8480   */\n      0x20\n        /* \"#utility.yul\":8469:8474   */\n      dup7\n        /* \"#utility.yul\":8465:8481   */\n      add\n        /* \"#utility.yul\":8443:8495   */\n      tag_428\n      jump\t// in\n    tag_437:\n        /* \"#utility.yul\":8520:8549   */\n      tag_438\n        /* \"#utility.yul\":8542:8548   */\n      dup2\n        /* \"#utility.yul\":8520:8549   */\n      tag_430\n      jump\t// in\n    tag_438:\n        /* \"#utility.yul\":8515:8518   */\n      dup5\n        /* \"#utility.yul\":8511:8550   */\n      add\n        /* \"#utility.yul\":8504:8550   */\n      swap2\n      pop\n        /* \"#utility.yul\":8284:8556   */\n      pop\n        /* \"#utility.yul\":8192:8556   */\n      swap3\n      swap2\n      pop\n      pop\n      jump\t// out\n        /* \"#utility.yul\":8562:8939   */\n    tag_439:\n        /* \"#utility.yul\":8668:8671   */\n      0x00\n        /* \"#utility.yul\":8696:8735   */\n      tag_441\n        /* \"#utility.yul\":8729:8734   */\n      dup3\n        /* \"#utility.yul\":8696:8735   */\n      tag_434\n      jump\t// in\n    tag_441:\n        /* \"#utility.yul\":8751:8840   */\n      tag_442\n        /* \"#utility.yul\":8833:8839   */\n      dup2\n        /* \"#utility.yul\":8828:8831   */\n      dup6\n        /* \"#utility.yul\":8751:8840   */\n      tag_443\n      jump\t// in\n    tag_442:\n        /* \"#utility.yul\":8744:8840   */\n      swap4\n      pop\n        /* \"#utility.yul\":8849:8901   */\n      tag_444\n        /* \"#utility.yul\":8894:8900   */\n      dup2\n        /* \"#utility.yul\":8889:8892   */\n      dup6\n        /* \"#utility.yul\":8882:8886   */\n      0x20\n        /* \"#utility.yul\":8875:8880   */\n      dup7\n        /* \"#utility.yul\":8871:8887   */\n      add\n        /* \"#utility.yul\":8849:8901   */\n      tag_428\n      jump\t// in\n    tag_444:\n        /* \"#utility.yul\":8926:8932   */\n      dup1\n        /* \"#utility.yul\":8921:8924   */\n      dup5\n        /* \"#utility.yul\":8917:8933   */\n      add\n        /* \"#utility.yul\":8910:8933   */\n      swap2\n      pop\n        /* \"#utility.yul\":8672:8939   */\n      pop\n        /* \"#utility.yul\":8562:8939   */\n      swap3\n      swap2\n      pop\n      pop\n      jump\t// out\n        /* \"#utility.yul\":8945:9311   */\n    tag_445:\n        /* \"#utility.yul\":9087:9090   */\n      0x00\n        /* \"#utility.yul\":9108:9175   */\n      tag_447\n        /* \"#utility.yul\":9172:9174   */\n      0x17\n        /* \"#utility.yul\":9167:9170   */\n      dup4\n        /* \"#utility.yul\":9108:9175   */\n      tag_436\n      jump\t// in\n    tag_447:\n        /* \"#utility.yul\":9101:9175   */\n      swap2\n      pop\n        /* \"#utility.yul\":9184:9277   */\n      tag_448\n        /* \"#utility.yul\":9273:9276   */\n      dup3\n        /* \"#utility.yul\":9184:9277   */\n      tag_449\n      jump\t// in\n    tag_448:\n        /* \"#utility.yul\":9302:9304   */\n      0x20\n        /* \"#utility.yul\":9297:9300   */\n      dup3\n        /* \"#utility.yul\":9293:9305   */\n      add\n        /* \"#utility.yul\":9286:9305   */\n      swap1\n      pop\n        /* \"#utility.yul\":8945:9311   */\n      swap2\n      swap1\n      pop\n      jump\t// out\n        /* \"#utility.yul\":9317:9682   */\n    tag_450:\n        /* \"#utility.yul\":9459:9462   */\n      0x00\n        /* \"#utility.yul\":9480:9546   */\n      tag_452\n        /* \"#utility.yul\":9544:9545   */\n      0x08\n        /* \"#utility.yul\":9539:9542   */\n      dup4\n        /* \"#utility.yul\":9480:9546   */\n      tag_436\n      jump\t// in\n    tag_452:\n        /* \"#utility.yul\":9473:9546   */\n      swap2\n      pop\n        /* \"#utility.yul\":9555:9648   */\n      tag_453\n        /* \"#utility.yul\":9644:9647   */\n      dup3\n        /* \"#utility.yul\":9555:9648   */\n      tag_454\n      jump\t// in\n    tag_453:\n        /* \"#utility.yul\":9673:9675   */\n      0x20\n        /* \"#utility.yul\":9668:9671   */\n      dup3\n        /* \"#utility.yul\":9664:9676   */\n      add\n        /* \"#utility.yul\":9657:9676   */\n      swap1\n      pop\n        /* \"#utility.yul\":9317:9682   */\n      swap2\n      swap1\n      pop\n      jump\t// out\n        /* \"#utility.yul\":9688:10054   */\n    tag_455:\n        /* \"#utility.yul\":9830:9833   */\n      0x00\n        /* \"#utility.yul\":9851:9918   */\n      tag_457\n        /* \"#utility.yul\":9915:9917   */\n      0x0a\n        /* \"#utility.yul\":9910:9913   */\n      dup4\n        /* \"#utility.yul\":9851:9918   */\n      tag_436\n      jump\t// in\n    tag_457:\n        /* \"#utility.yul\":9844:9918   */\n      swap2\n      pop\n        /* \"#utility.yul\":9927:10020   */\n      tag_458\n        /* \"#utility.yul\":10016:10019   */\n      dup3\n        /* \"#utility.yul\":9927:10020   */\n      tag_459\n      jump\t// in\n    tag_458:\n        /* \"#utility.yul\":10045:10047   */\n      0x20\n        /* \"#utility.yul\":10040:10043   */\n      dup3\n        /* \"#utility.yul\":10036:10048   */\n      add\n        /* \"#utility.yul\":10029:10048   */\n      swap1\n      pop\n        /* \"#utility.yul\":9688:10054   */\n      swap2\n      swap1\n      pop\n      jump\t// out\n        /* \"#utility.yul\":10060:10426   */\n    tag_460:\n        /* \"#utility.yul\":10202:10205   */\n      0x00\n        /* \"#utility.yul\":10223:10290   */\n      tag_462\n        /* \"#utility.yul\":10287:10289   */\n      0x0a\n        /* \"#utility.yul\":10282:10285   */\n      dup4\n        /* \"#utility.yul\":10223:10290   */\n      tag_436\n      jump\t// in\n    tag_462:\n        /* \"#utility.yul\":10216:10290   */\n      swap2\n      pop\n        /* \"#utility.yul\":10299:10392   */\n      tag_463\n        /* \"#utility.yul\":10388:10391   */\n      dup3\n        /* \"#utility.yul\":10299:10392   */\n      tag_464\n      jump\t// in\n    tag_463:\n        /* \"#utility.yul\":10417:10419   */\n      0x20\n        /* \"#utility.yul\":10412:10415   */\n      dup3\n        /* \"#utility.yul\":10408:10420   */\n      add\n        /* \"#utility.yul\":10401:10420   */\n      swap1\n      pop\n        /* \"#utility.yul\":10060:10426   */\n      swap2\n      swap1\n      pop\n      jump\t// out\n        /* \"#utility.yul\":10432:10798   */\n    tag_465:\n        /* \"#utility.yul\":10574:10577   */\n      0x00\n        /* \"#utility.yul\":10595:10662   */\n      tag_467\n        /* \"#utility.yul\":10659:10661   */\n      0x10\n        /* \"#utility.yul\":10654:10657   */\n      dup4\n        /* \"#utility.yul\":10595:10662   */\n      tag_436\n      jump\t// in\n    tag_467:\n        /* \"#utility.yul\":10588:10662   */\n      swap2\n      pop\n        /* \"#utility.yul\":10671:10764   */\n      tag_468\n        /* \"#utility.yul\":10760:10763   */\n      dup3\n        /* \"#utility.yul\":10671:10764   */\n      tag_469\n      jump\t// in\n    tag_468:\n        /* \"#utility.yul\":10789:10791   */\n      0x20\n        /* \"#utility.yul\":10784:10787   */\n      dup3\n        /* \"#utility.yul\":10780:10792   */\n      add\n        /* \"#utility.yul\":10773:10792   */\n      swap1\n      pop\n        /* \"#utility.yul\":10432:10798   */\n      swap2\n      swap1\n      pop\n      jump\t// out\n        /* \"#utility.yul\":10804:11204   */\n    tag_470:\n        /* \"#utility.yul\":10964:10967   */\n      0x00\n        /* \"#utility.yul\":10985:11069   */\n      tag_472\n        /* \"#utility.yul\":11067:11068   */\n      0x05\n        /* \"#utility.yul\":11062:11065   */\n      dup4\n        /* \"#utility.yul\":10985:11069   */\n      tag_443\n      jump\t// in\n    tag_472:\n        /* \"#utility.yul\":10978:11069   */\n      swap2\n      pop\n        /* \"#utility.yul\":11078:11171   */\n      tag_473\n        /* \"#utility.yul\":11167:11170   */\n      dup3\n        /* \"#utility.yul\":11078:11171   */\n      tag_474\n      jump\t// in\n    tag_473:\n        /* \"#utility.yul\":11196:11197   */\n      0x05\n        /* \"#utility.yul\":11191:11194   */\n      dup3\n        /* \"#utility.yul\":11187:11198   */\n      add\n        /* \"#utility.yul\":11180:11198   */\n      swap1\n      pop\n        /* \"#utility.yul\":10804:11204   */\n      swap2\n      swap1\n      pop\n      jump\t// out\n        /* \"#utility.yul\":11210:11576   */\n    tag_475:\n        /* \"#utility.yul\":11352:11355   */\n      0x00\n        /* \"#utility.yul\":11373:11440   */\n      tag_477\n        /* \"#utility.yul\":11437:11439   */\n      0x1c\n        /* \"#utility.yul\":11432:11435   */\n      dup4\n        /* \"#utility.yul\":11373:11440   */\n      tag_436\n      jump\t// in\n    tag_477:\n        /* \"#utility.yul\":11366:11440   */\n      swap2\n      pop\n        /* \"#utility.yul\":11449:11542   */\n      tag_478\n        /* \"#utility.yul\":11538:11541   */\n      dup3\n        /* \"#utility.yul\":11449:11542   */\n      tag_479\n      jump\t// in\n    tag_478:\n        /* \"#utility.yul\":11567:11569   */\n      0x20\n        /* \"#utility.yul\":11562:11565   */\n      dup3\n        /* \"#utility.yul\":11558:11570   */\n      add\n        /* \"#utility.yul\":11551:11570   */\n      swap1\n      pop\n        /* \"#utility.yul\":11210:11576   */\n      swap2\n      swap1\n      pop\n      jump\t// out\n        /* \"#utility.yul\":11582:11944   */\n    tag_480:\n        /* \"#utility.yul\":11723:11726   */\n      0x00\n        /* \"#utility.yul\":11744:11809   */\n      tag_482\n        /* \"#utility.yul\":11807:11808   */\n      0x00\n        /* \"#utility.yul\":11802:11805   */\n      dup4\n        /* \"#utility.yul\":11744:11809   */\n      tag_426\n      jump\t// in\n    tag_482:\n        /* \"#utility.yul\":11737:11809   */\n      swap2\n      pop\n        /* \"#utility.yul\":11818:11911   */\n      tag_483\n        /* \"#utility.yul\":11907:11910   */\n      dup3\n        /* \"#utility.yul\":11818:11911   */\n      tag_484\n      jump\t// in\n    tag_483:\n        /* \"#utility.yul\":11936:11937   */\n      0x00\n        /* \"#utility.yul\":11931:11934   */\n      dup3\n        /* \"#utility.yul\":11927:11938   */\n      add\n        /* \"#utility.yul\":11920:11938   */\n      swap1\n      pop\n        /* \"#utility.yul\":11582:11944   */\n      swap2\n      swap1\n      pop\n      jump\t// out\n        /* \"#utility.yul\":11950:12316   */\n    tag_485:\n        /* \"#utility.yul\":12092:12095   */\n      0x00\n        /* \"#utility.yul\":12113:12180   */\n      tag_487\n        /* \"#utility.yul\":12177:12179   */\n      0x0e\n        /* \"#utility.yul\":12172:12175   */\n      dup4\n        /* \"#utility.yul\":12113:12180   */\n      tag_436\n      jump\t// in\n    tag_487:\n        /* \"#utility.yul\":12106:12180   */\n      swap2\n      pop\n        /* \"#utility.yul\":12189:12282   */\n      tag_488\n        /* \"#utility.yul\":12278:12281   */\n      dup3\n        /* \"#utility.yul\":12189:12282   */\n      tag_489\n      jump\t// in\n    tag_488:\n        /* \"#utility.yul\":12307:12309   */\n      0x20\n        /* \"#utility.yul\":12302:12305   */\n      dup3\n        /* \"#utility.yul\":12298:12310   */\n      add\n        /* \"#utility.yul\":12291:12310   */\n      swap1\n      pop\n        /* \"#utility.yul\":11950:12316   */\n      swap2\n      swap1\n      pop\n      jump\t// out\n        /* \"#utility.yul\":12322:12688   */\n    tag_490:\n        /* \"#utility.yul\":12464:12467   */\n      0x00\n        /* \"#utility.yul\":12485:12552   */\n      tag_492\n        /* \"#utility.yul\":12549:12551   */\n      0x0b\n        /* \"#utility.yul\":12544:12547   */\n      dup4\n        /* \"#utility.yul\":12485:12552   */\n      tag_436\n      jump\t// in\n    tag_492:\n        /* \"#utility.yul\":12478:12552   */\n      swap2\n      pop\n        /* \"#utility.yul\":12561:12654   */\n      tag_493\n        /* \"#utility.yul\":12650:12653   */\n      dup3\n        /* \"#utility.yul\":12561:12654   */\n      tag_494\n      jump\t// in\n    tag_493:\n        /* \"#utility.yul\":12679:12681   */\n      0x20\n        /* \"#utility.yul\":12674:12677   */\n      dup3\n        /* \"#utility.yul\":12670:12682   */\n      add\n        /* \"#utility.yul\":12663:12682   */\n      swap1\n      pop\n        /* \"#utility.yul\":12322:12688   */\n      swap2\n      swap1\n      pop\n      jump\t// out\n        /* \"#utility.yul\":12694:13060   */\n    tag_495:\n        /* \"#utility.yul\":12836:12839   */\n      0x00\n        /* \"#utility.yul\":12857:12924   */\n      tag_497\n        /* \"#utility.yul\":12921:12923   */\n      0x1c\n        /* \"#utility.yul\":12916:12919   */\n      dup4\n        /* \"#utility.yul\":12857:12924   */\n      tag_436\n      jump\t// in\n    tag_497:\n        /* \"#utility.yul\":12850:12924   */\n      swap2\n      pop\n        /* \"#utility.yul\":12933:13026   */\n      tag_498\n        /* \"#utility.yul\":13022:13025   */\n      dup3\n        /* \"#utility.yul\":12933:13026   */\n      tag_499\n      jump\t// in\n    tag_498:\n        /* \"#utility.yul\":13051:13053   */\n      0x20\n        /* \"#utility.yul\":13046:13049   */\n      dup3\n        /* \"#utility.yul\":13042:13054   */\n      add\n        /* \"#utility.yul\":13035:13054   */\n      swap1\n      pop\n        /* \"#utility.yul\":12694:13060   */\n      swap2\n      swap1\n      pop\n      jump\t// out\n        /* \"#utility.yul\":13066:13432   */\n    tag_500:\n        /* \"#utility.yul\":13208:13211   */\n      0x00\n        /* \"#utility.yul\":13229:13296   */\n      tag_502\n        /* \"#utility.yul\":13293:13295   */\n      0x0e\n        /* \"#utility.yul\":13288:13291   */\n      dup4\n        /* \"#utility.yul\":13229:13296   */\n      tag_436\n      jump\t// in\n    tag_502:\n        /* \"#utility.yul\":13222:13296   */\n      swap2\n      pop\n        /* \"#utility.yul\":13305:13398   */\n      tag_503\n        /* \"#utility.yul\":13394:13397   */\n      dup3\n        /* \"#utility.yul\":13305:13398   */\n      tag_504\n      jump\t// in\n    tag_503:\n        /* \"#utility.yul\":13423:13425   */\n      0x20\n        /* \"#utility.yul\":13418:13421   */\n      dup3\n        /* \"#utility.yul\":13414:13426   */\n      add\n        /* \"#utility.yul\":13407:13426   */\n      swap1\n      pop\n        /* \"#utility.yul\":13066:13432   */\n      swap2\n      swap1\n      pop\n      jump\t// out\n        /* \"#utility.yul\":13438:13804   */\n    tag_505:\n        /* \"#utility.yul\":13580:13583   */\n      0x00\n        /* \"#utility.yul\":13601:13668   */\n      tag_507\n        /* \"#utility.yul\":13665:13667   */\n      0x0e\n        /* \"#utility.yul\":13660:13663   */\n      dup4\n        /* \"#utility.yul\":13601:13668   */\n      tag_436\n      jump\t// in\n    tag_507:\n        /* \"#utility.yul\":13594:13668   */\n      swap2\n      pop\n        /* \"#utility.yul\":13677:13770   */\n      tag_508\n        /* \"#utility.yul\":13766:13769   */\n      dup3\n        /* \"#utility.yul\":13677:13770   */\n      tag_509\n      jump\t// in\n    tag_508:\n        /* \"#utility.yul\":13795:13797   */\n      0x20\n        /* \"#utility.yul\":13790:13793   */\n      dup3\n        /* \"#utility.yul\":13786:13798   */\n      add\n        /* \"#utility.yul\":13779:13798   */\n      swap1\n      pop\n        /* \"#utility.yul\":13438:13804   */\n      swap2\n      swap1\n      pop\n      jump\t// out\n        /* \"#utility.yul\":13810:13928   */\n    tag_510:\n        /* \"#utility.yul\":13897:13921   */\n      tag_512\n        /* \"#utility.yul\":13915:13920   */\n      dup2\n        /* \"#utility.yul\":13897:13921   */\n      tag_513\n      jump\t// in\n    tag_512:\n        /* \"#utility.yul\":13892:13895   */\n      dup3\n        /* \"#utility.yul\":13885:13922   */\n      mstore\n        /* \"#utility.yul\":13810:13928   */\n      pop\n      pop\n      jump\t// out\n        /* \"#utility.yul\":13934:14049   */\n    tag_514:\n        /* \"#utility.yul\":14019:14042   */\n      tag_516\n        /* \"#utility.yul\":14036:14041   */\n      dup2\n        /* \"#utility.yul\":14019:14042   */\n      tag_517\n      jump\t// in\n    tag_516:\n        /* \"#utility.yul\":14014:14017   */\n      dup3\n        /* \"#utility.yul\":14007:14043   */\n      mstore\n        /* \"#utility.yul\":13934:14049   */\n      pop\n      pop\n      jump\t// out\n        /* \"#utility.yul\":14055:14756   */\n    tag_240:\n        /* \"#utility.yul\":14336:14339   */\n      0x00\n        /* \"#utility.yul\":14358:14453   */\n      tag_519\n        /* \"#utility.yul\":14449:14452   */\n      dup3\n        /* \"#utility.yul\":14440:14446   */\n      dup6\n        /* \"#utility.yul\":14358:14453   */\n      tag_439\n      jump\t// in\n    tag_519:\n        /* \"#utility.yul\":14351:14453   */\n      swap2\n      pop\n        /* \"#utility.yul\":14470:14565   */\n      tag_520\n        /* \"#utility.yul\":14561:14564   */\n      dup3\n        /* \"#utility.yul\":14552:14558   */\n      dup5\n        /* \"#utility.yul\":14470:14565   */\n      tag_439\n      jump\t// in\n    tag_520:\n        /* \"#utility.yul\":14463:14565   */\n      swap2\n      pop\n        /* \"#utility.yul\":14582:14730   */\n      tag_521\n        /* \"#utility.yul\":14726:14729   */\n      dup3\n        /* \"#utility.yul\":14582:14730   */\n      tag_470\n      jump\t// in\n    tag_521:\n        /* \"#utility.yul\":14575:14730   */\n      swap2\n      pop\n        /* \"#utility.yul\":14747:14750   */\n      dup2\n        /* \"#utility.yul\":14740:14750   */\n      swap1\n      pop\n        /* \"#utility.yul\":14055:14756   */\n      swap4\n      swap3\n      pop\n      pop\n      pop\n      jump\t// out\n        /* \"#utility.yul\":14762:14984   */\n    tag_49:\n        /* \"#utility.yul\":14855:14859   */\n      0x00\n        /* \"#utility.yul\":14893:14895   */\n      0x20\n        /* \"#utility.yul\":14882:14891   */\n      dup3\n        /* \"#utility.yul\":14878:14896   */\n      add\n        /* \"#utility.yul\":14870:14896   */\n      swap1\n      pop\n        /* \"#utility.yul\":14906:14977   */\n      tag_523\n        /* \"#utility.yul\":14974:14975   */\n      0x00\n        /* \"#utility.yul\":14963:14972   */\n      dup4\n        /* \"#utility.yul\":14959:14976   */\n      add\n        /* \"#utility.yul\":14950:14956   */\n      dup5\n        /* \"#utility.yul\":14906:14977   */\n      tag_413\n      jump\t// in\n    tag_523:\n        /* \"#utility.yul\":14762:14984   */\n      swap3\n      swap2\n      pop\n      pop\n      jump\t// out\n        /* \"#utility.yul\":14990:15630   */\n    tag_214:\n        /* \"#utility.yul\":15185:15189   */\n      0x00\n        /* \"#utility.yul\":15223:15226   */\n      0x80\n        /* \"#utility.yul\":15212:15221   */\n      dup3\n        /* \"#utility.yul\":15208:15227   */\n      add\n        /* \"#utility.yul\":15200:15227   */\n      swap1\n      pop\n        /* \"#utility.yul\":15237:15308   */\n      tag_525\n        /* \"#utility.yul\":15305:15306   */\n      0x00\n        /* \"#utility.yul\":15294:15303   */\n      dup4\n        /* \"#utility.yul\":15290:15307   */\n      add\n        /* \"#utility.yul\":15281:15287   */\n      dup8\n        /* \"#utility.yul\":15237:15308   */\n      tag_413\n      jump\t// in\n    tag_525:\n        /* \"#utility.yul\":15318:15390   */\n      tag_526\n        /* \"#utility.yul\":15386:15388   */\n      0x20\n        /* \"#utility.yul\":15375:15384   */\n      dup4\n        /* \"#utility.yul\":15371:15389   */\n      add\n        /* \"#utility.yul\":15362:15368   */\n      dup7\n        /* \"#utility.yul\":15318:15390   */\n      tag_413\n      jump\t// in\n    tag_526:\n        /* \"#utility.yul\":15400:15472   */\n      tag_527\n        /* \"#utility.yul\":15468:15470   */\n      0x40\n        /* \"#utility.yul\":15457:15466   */\n      dup4\n        /* \"#utility.yul\":15453:15471   */\n      add\n        /* \"#utility.yul\":15444:15450   */\n      dup6\n        /* \"#utility.yul\":15400:15472   */\n      tag_510\n      jump\t// in\n    tag_527:\n        /* \"#utility.yul\":15519:15528   */\n      dup2\n        /* \"#utility.yul\":15513:15517   */\n      dup2\n        /* \"#utility.yul\":15509:15529   */\n      sub\n        /* \"#utility.yul\":15504:15506   */\n      0x60\n        /* \"#utility.yul\":15493:15502   */\n      dup4\n        /* \"#utility.yul\":15489:15507   */\n      add\n        /* \"#utility.yul\":15482:15530   */\n      mstore\n        /* \"#utility.yul\":15547:15623   */\n      tag_528\n        /* \"#utility.yul\":15618:15622   */\n      dup2\n        /* \"#utility.yul\":15609:15615   */\n      dup5\n        /* \"#utility.yul\":15547:15623   */\n      tag_421\n      jump\t// in\n    tag_528:\n        /* \"#utility.yul\":15539:15623   */\n      swap1\n      pop\n        /* \"#utility.yul\":14990:15630   */\n      swap6\n      swap5\n      pop\n      pop\n      pop\n      pop\n      pop\n      jump\t// out\n        /* \"#utility.yul\":15636:16384   */\n    tag_168:\n        /* \"#utility.yul\":15885:15889   */\n      0x00\n        /* \"#utility.yul\":15923:15926   */\n      0x80\n        /* \"#utility.yul\":15912:15921   */\n      dup3\n        /* \"#utility.yul\":15908:15927   */\n      add\n        /* \"#utility.yul\":15900:15927   */\n      swap1\n      pop\n        /* \"#utility.yul\":15937:16008   */\n      tag_530\n        /* \"#utility.yul\":16005:16006   */\n      0x00\n        /* \"#utility.yul\":15994:16003   */\n      dup4\n        /* \"#utility.yul\":15990:16007   */\n      add\n        /* \"#utility.yul\":15981:15987   */\n      dup7\n        /* \"#utility.yul\":15937:16008   */\n      tag_413\n      jump\t// in\n    tag_530:\n        /* \"#utility.yul\":16018:16090   */\n      tag_531\n        /* \"#utility.yul\":16086:16088   */\n      0x20\n        /* \"#utility.yul\":16075:16084   */\n      dup4\n        /* \"#utility.yul\":16071:16089   */\n      add\n        /* \"#utility.yul\":16062:16068   */\n      dup6\n        /* \"#utility.yul\":16018:16090   */\n      tag_413\n      jump\t// in\n    tag_531:\n        /* \"#utility.yul\":16100:16172   */\n      tag_532\n        /* \"#utility.yul\":16168:16170   */\n      0x40\n        /* \"#utility.yul\":16157:16166   */\n      dup4\n        /* \"#utility.yul\":16153:16171   */\n      add\n        /* \"#utility.yul\":16144:16150   */\n      dup5\n        /* \"#utility.yul\":16100:16172   */\n      tag_510\n      jump\t// in\n    tag_532:\n        /* \"#utility.yul\":16219:16228   */\n      dup2\n        /* \"#utility.yul\":16213:16217   */\n      dup2\n        /* \"#utility.yul\":16209:16229   */\n      sub\n        /* \"#utility.yul\":16204:16206   */\n      0x60\n        /* \"#utility.yul\":16193:16202   */\n      dup4\n        /* \"#utility.yul\":16189:16207   */\n      add\n        /* \"#utility.yul\":16182:16230   */\n      mstore\n        /* \"#utility.yul\":16247:16377   */\n      tag_533\n        /* \"#utility.yul\":16372:16376   */\n      dup2\n        /* \"#utility.yul\":16247:16377   */\n      tag_480\n      jump\t// in\n    tag_533:\n        /* \"#utility.yul\":16239:16377   */\n      swap1\n      pop\n        /* \"#utility.yul\":15636:16384   */\n      swap5\n      swap4\n      pop\n      pop\n      pop\n      pop\n      jump\t// out\n        /* \"#utility.yul\":16390:16722   */\n    tag_63:\n        /* \"#utility.yul\":16511:16515   */\n      0x00\n        /* \"#utility.yul\":16549:16551   */\n      0x40\n        /* \"#utility.yul\":16538:16547   */\n      dup3\n        /* \"#utility.yul\":16534:16552   */\n      add\n        /* \"#utility.yul\":16526:16552   */\n      swap1\n      pop\n        /* \"#utility.yul\":16562:16633   */\n      tag_535\n        /* \"#utility.yul\":16630:16631   */\n      0x00\n        /* \"#utility.yul\":16619:16628   */\n      dup4\n        /* \"#utility.yul\":16615:16632   */\n      add\n        /* \"#utility.yul\":16606:16612   */\n      dup6\n        /* \"#utility.yul\":16562:16633   */\n      tag_413\n      jump\t// in\n    tag_535:\n        /* \"#utility.yul\":16643:16715   */\n      tag_536\n        /* \"#utility.yul\":16711:16713   */\n      0x20\n        /* \"#utility.yul\":16700:16709   */\n      dup4\n        /* \"#utility.yul\":16696:16714   */\n      add\n        /* \"#utility.yul\":16687:16693   */\n      dup5\n        /* \"#utility.yul\":16643:16715   */\n      tag_510\n      jump\t// in\n    tag_536:\n        /* \"#utility.yul\":16390:16722   */\n      swap4\n      swap3\n      pop\n      pop\n      pop\n      jump\t// out\n        /* \"#utility.yul\":16728:16938   */\n    tag_35:\n        /* \"#utility.yul\":16815:16819   */\n      0x00\n        /* \"#utility.yul\":16853:16855   */\n      0x20\n        /* \"#utility.yul\":16842:16851   */\n      dup3\n        /* \"#utility.yul\":16838:16856   */\n      add\n        /* \"#utility.yul\":16830:16856   */\n      swap1\n      pop\n        /* \"#utility.yul\":16866:16931   */\n      tag_538\n        /* \"#utility.yul\":16928:16929   */\n      0x00\n        /* \"#utility.yul\":16917:16926   */\n      dup4\n        /* \"#utility.yul\":16913:16930   */\n      add\n        /* \"#utility.yul\":16904:16910   */\n      dup5\n        /* \"#utility.yul\":16866:16931   */\n      tag_417\n      jump\t// in\n    tag_538:\n        /* \"#utility.yul\":16728:16938   */\n      swap3\n      swap2\n      pop\n      pop\n      jump\t// out\n        /* \"#utility.yul\":16944:17257   */\n    tag_43:\n        /* \"#utility.yul\":17057:17061   */\n      0x00\n        /* \"#utility.yul\":17095:17097   */\n      0x20\n        /* \"#utility.yul\":17084:17093   */\n      dup3\n        /* \"#utility.yul\":17080:17098   */\n      add\n        /* \"#utility.yul\":17072:17098   */\n      swap1\n      pop\n        /* \"#utility.yul\":17144:17153   */\n      dup2\n        /* \"#utility.yul\":17138:17142   */\n      dup2\n        /* \"#utility.yul\":17134:17154   */\n      sub\n        /* \"#utility.yul\":17130:17131   */\n      0x00\n        /* \"#utility.yul\":17119:17128   */\n      dup4\n        /* \"#utility.yul\":17115:17132   */\n      add\n        /* \"#utility.yul\":17108:17155   */\n      mstore\n        /* \"#utility.yul\":17172:17250   */\n      tag_540\n        /* \"#utility.yul\":17245:17249   */\n      dup2\n        /* \"#utility.yul\":17236:17242   */\n      dup5\n        /* \"#utility.yul\":17172:17250   */\n      tag_431\n      jump\t// in\n    tag_540:\n        /* \"#utility.yul\":17164:17250   */\n      swap1\n      pop\n        /* \"#utility.yul\":16944:17257   */\n      swap3\n      swap2\n      pop\n      pop\n      jump\t// out\n        /* \"#utility.yul\":17263:17682   */\n    tag_137:\n        /* \"#utility.yul\":17429:17433   */\n      0x00\n        /* \"#utility.yul\":17467:17469   */\n      0x20\n        /* \"#utility.yul\":17456:17465   */\n      dup3\n        /* \"#utility.yul\":17452:17470   */\n      add\n        /* \"#utility.yul\":17444:17470   */\n      swap1\n      pop\n        /* \"#utility.yul\":17516:17525   */\n      dup2\n        /* \"#utility.yul\":17510:17514   */\n      dup2\n        /* \"#utility.yul\":17506:17526   */\n      sub\n        /* \"#utility.yul\":17502:17503   */\n      0x00\n        /* \"#utility.yul\":17491:17500   */\n      dup4\n        /* \"#utility.yul\":17487:17504   */\n      add\n        /* \"#utility.yul\":17480:17527   */\n      mstore\n        /* \"#utility.yul\":17544:17675   */\n      tag_542\n        /* \"#utility.yul\":17670:17674   */\n      dup2\n        /* \"#utility.yul\":17544:17675   */\n      tag_445\n      jump\t// in\n    tag_542:\n        /* \"#utility.yul\":17536:17675   */\n      swap1\n      pop\n        /* \"#utility.yul\":17263:17682   */\n      swap2\n      swap1\n      pop\n      jump\t// out\n        /* \"#utility.yul\":17688:18107   */\n    tag_156:\n        /* \"#utility.yul\":17854:17858   */\n      0x00\n        /* \"#utility.yul\":17892:17894   */\n      0x20\n        /* \"#utility.yul\":17881:17890   */\n      dup3\n        /* \"#utility.yul\":17877:17895   */\n      add\n        /* \"#utility.yul\":17869:17895   */\n      swap1\n      pop\n        /* \"#utility.yul\":17941:17950   */\n      dup2\n        /* \"#utility.yul\":17935:17939   */\n      dup2\n        /* \"#utility.yul\":17931:17951   */\n      sub\n        /* \"#utility.yul\":17927:17928   */\n      0x00\n        /* \"#utility.yul\":17916:17925   */\n      dup4\n        /* \"#utility.yul\":17912:17929   */\n      add\n        /* \"#utility.yul\":17905:17952   */\n      mstore\n        /* \"#utility.yul\":17969:18100   */\n      tag_544\n        /* \"#utility.yul\":18095:18099   */\n      dup2\n        /* \"#utility.yul\":17969:18100   */\n      tag_450\n      jump\t// in\n    tag_544:\n        /* \"#utility.yul\":17961:18100   */\n      swap1\n      pop\n        /* \"#utility.yul\":17688:18107   */\n      swap2\n      swap1\n      pop\n      jump\t// out\n        /* \"#utility.yul\":18113:18532   */\n    tag_153:\n        /* \"#utility.yul\":18279:18283   */\n      0x00\n        /* \"#utility.yul\":18317:18319   */\n      0x20\n        /* \"#utility.yul\":18306:18315   */\n      dup3\n        /* \"#utility.yul\":18302:18320   */\n      add\n        /* \"#utility.yul\":18294:18320   */\n      swap1\n      pop\n        /* \"#utility.yul\":18366:18375   */\n      dup2\n        /* \"#utility.yul\":18360:18364   */\n      dup2\n        /* \"#utility.yul\":18356:18376   */\n      sub\n        /* \"#utility.yul\":18352:18353   */\n      0x00\n        /* \"#utility.yul\":18341:18350   */\n      dup4\n        /* \"#utility.yul\":18337:18354   */\n      add\n        /* \"#utility.yul\":18330:18377   */\n      mstore\n        /* \"#utility.yul\":18394:18525   */\n      tag_546\n        /* \"#utility.yul\":18520:18524   */\n      dup2\n        /* \"#utility.yul\":18394:18525   */\n      tag_455\n      jump\t// in\n    tag_546:\n        /* \"#utility.yul\":18386:18525   */\n      swap1\n      pop\n        /* \"#utility.yul\":18113:18532   */\n      swap2\n      swap1\n      pop\n      jump\t// out\n        /* \"#utility.yul\":18538:18957   */\n    tag_301:\n        /* \"#utility.yul\":18704:18708   */\n      0x00\n        /* \"#utility.yul\":18742:18744   */\n      0x20\n        /* \"#utility.yul\":18731:18740   */\n      dup3\n        /* \"#utility.yul\":18727:18745   */\n      add\n        /* \"#utility.yul\":18719:18745   */\n      swap1\n      pop\n        /* \"#utility.yul\":18791:18800   */\n      dup2\n        /* \"#utility.yul\":18785:18789   */\n      dup2\n        /* \"#utility.yul\":18781:18801   */\n      sub\n        /* \"#utility.yul\":18777:18778   */\n      0x00\n        /* \"#utility.yul\":18766:18775   */\n      dup4\n        /* \"#utility.yul\":18762:18779   */\n      add\n        /* \"#utility.yul\":18755:18802   */\n      mstore\n        /* \"#utility.yul\":18819:18950   */\n      tag_548\n        /* \"#utility.yul\":18945:18949   */\n      dup2\n        /* \"#utility.yul\":18819:18950   */\n      tag_460\n      jump\t// in\n    tag_548:\n        /* \"#utility.yul\":18811:18950   */\n      swap1\n      pop\n        /* \"#utility.yul\":18538:18957   */\n      swap2\n      swap1\n      pop\n      jump\t// out\n        /* \"#utility.yul\":18963:19382   */\n    tag_176:\n        /* \"#utility.yul\":19129:19133   */\n      0x00\n        /* \"#utility.yul\":19167:19169   */\n      0x20\n        /* \"#utility.yul\":19156:19165   */\n      dup3\n        /* \"#utility.yul\":19152:19170   */\n      add\n        /* \"#utility.yul\":19144:19170   */\n      swap1\n      pop\n        /* \"#utility.yul\":19216:19225   */\n      dup2\n        /* \"#utility.yul\":19210:19214   */\n      dup2\n        /* \"#utility.yul\":19206:19226   */\n      sub\n        /* \"#utility.yul\":19202:19203   */\n      0x00\n        /* \"#utility.yul\":19191:19200   */\n      dup4\n        /* \"#utility.yul\":19187:19204   */\n      add\n        /* \"#utility.yul\":19180:19227   */\n      mstore\n        /* \"#utility.yul\":19244:19375   */\n      tag_550\n        /* \"#utility.yul\":19370:19374   */\n      dup2\n        /* \"#utility.yul\":19244:19375   */\n      tag_465\n      jump\t// in\n    tag_550:\n        /* \"#utility.yul\":19236:19375   */\n      swap1\n      pop\n        /* \"#utility.yul\":18963:19382   */\n      swap2\n      swap1\n      pop\n      jump\t// out\n        /* \"#utility.yul\":19388:19807   */\n    tag_232:\n        /* \"#utility.yul\":19554:19558   */\n      0x00\n        /* \"#utility.yul\":19592:19594   */\n      0x20\n        /* \"#utility.yul\":19581:19590   */\n      dup3\n        /* \"#utility.yul\":19577:19595   */\n      add\n        /* \"#utility.yul\":19569:19595   */\n      swap1\n      pop\n        /* \"#utility.yul\":19641:19650   */\n      dup2\n        /* \"#utility.yul\":19635:19639   */\n      dup2\n        /* \"#utility.yul\":19631:19651   */\n      sub\n        /* \"#utility.yul\":19627:19628   */\n      0x00\n        /* \"#utility.yul\":19616:19625   */\n      dup4\n        /* \"#utility.yul\":19612:19629   */\n      add\n        /* \"#utility.yul\":19605:19652   */\n      mstore\n        /* \"#utility.yul\":19669:19800   */\n      tag_552\n        /* \"#utility.yul\":19795:19799   */\n      dup2\n        /* \"#utility.yul\":19669:19800   */\n      tag_475\n      jump\t// in\n    tag_552:\n        /* \"#utility.yul\":19661:19800   */\n      swap1\n      pop\n        /* \"#utility.yul\":19388:19807   */\n      swap2\n      swap1\n      pop\n      jump\t// out\n        /* \"#utility.yul\":19813:20232   */\n    tag_161:\n        /* \"#utility.yul\":19979:19983   */\n      0x00\n        /* \"#utility.yul\":20017:20019   */\n      0x20\n        /* \"#utility.yul\":20006:20015   */\n      dup3\n        /* \"#utility.yul\":20002:20020   */\n      add\n        /* \"#utility.yul\":19994:20020   */\n      swap1\n      pop\n        /* \"#utility.yul\":20066:20075   */\n      dup2\n        /* \"#utility.yul\":20060:20064   */\n      dup2\n        /* \"#utility.yul\":20056:20076   */\n      sub\n        /* \"#utility.yul\":20052:20053   */\n      0x00\n        /* \"#utility.yul\":20041:20050   */\n      dup4\n        /* \"#utility.yul\":20037:20054   */\n      add\n        /* \"#utility.yul\":20030:20077   */\n      mstore\n        /* \"#utility.yul\":20094:20225   */\n      tag_554\n        /* \"#utility.yul\":20220:20224   */\n      dup2\n        /* \"#utility.yul\":20094:20225   */\n      tag_485\n      jump\t// in\n    tag_554:\n        /* \"#utility.yul\":20086:20225   */\n      swap1\n      pop\n        /* \"#utility.yul\":19813:20232   */\n      swap2\n      swap1\n      pop\n      jump\t// out\n        /* \"#utility.yul\":20238:20657   */\n    tag_200:\n        /* \"#utility.yul\":20404:20408   */\n      0x00\n        /* \"#utility.yul\":20442:20444   */\n      0x20\n        /* \"#utility.yul\":20431:20440   */\n      dup3\n        /* \"#utility.yul\":20427:20445   */\n      add\n        /* \"#utility.yul\":20419:20445   */\n      swap1\n      pop\n        /* \"#utility.yul\":20491:20500   */\n      dup2\n        /* \"#utility.yul\":20485:20489   */\n      dup2\n        /* \"#utility.yul\":20481:20501   */\n      sub\n        /* \"#utility.yul\":20477:20478   */\n      0x00\n        /* \"#utility.yul\":20466:20475   */\n      dup4\n        /* \"#utility.yul\":20462:20479   */\n      add\n        /* \"#utility.yul\":20455:20502   */\n      mstore\n        /* \"#utility.yul\":20519:20650   */\n      tag_556\n        /* \"#utility.yul\":20645:20649   */\n      dup2\n        /* \"#utility.yul\":20519:20650   */\n      tag_490\n      jump\t// in\n    tag_556:\n        /* \"#utility.yul\":20511:20650   */\n      swap1\n      pop\n        /* \"#utility.yul\":20238:20657   */\n      swap2\n      swap1\n      pop\n      jump\t// out\n        /* \"#utility.yul\":20663:21082   */\n    tag_249:\n        /* \"#utility.yul\":20829:20833   */\n      0x00\n        /* \"#utility.yul\":20867:20869   */\n      0x20\n        /* \"#utility.yul\":20856:20865   */\n      dup3\n        /* \"#utility.yul\":20852:20870   */\n      add\n        /* \"#utility.yul\":20844:20870   */\n      swap1\n      pop\n        /* \"#utility.yul\":20916:20925   */\n      dup2\n        /* \"#utility.yul\":20910:20914   */\n      dup2\n        /* \"#utility.yul\":20906:20926   */\n      sub\n        /* \"#utility.yul\":20902:20903   */\n      0x00\n        /* \"#utility.yul\":20891:20900   */\n      dup4\n        /* \"#utility.yul\":20887:20904   */\n      add\n        /* \"#utility.yul\":20880:20927   */\n      mstore\n        /* \"#utility.yul\":20944:21075   */\n      tag_558\n        /* \"#utility.yul\":21070:21074   */\n      dup2\n        /* \"#utility.yul\":20944:21075   */\n      tag_495\n      jump\t// in\n    tag_558:\n        /* \"#utility.yul\":20936:21075   */\n      swap1\n      pop\n        /* \"#utility.yul\":20663:21082   */\n      swap2\n      swap1\n      pop\n      jump\t// out\n        /* \"#utility.yul\":21088:21507   */\n    tag_304:\n        /* \"#utility.yul\":21254:21258   */\n      0x00\n        /* \"#utility.yul\":21292:21294   */\n      0x20\n        /* \"#utility.yul\":21281:21290   */\n      dup3\n        /* \"#utility.yul\":21277:21295   */\n      add\n        /* \"#utility.yul\":21269:21295   */\n      swap1\n      pop\n        /* \"#utility.yul\":21341:21350   */\n      dup2\n        /* \"#utility.yul\":21335:21339   */\n      dup2\n        /* \"#utility.yul\":21331:21351   */\n      sub\n        /* \"#utility.yul\":21327:21328   */\n      0x00\n        /* \"#utility.yul\":21316:21325   */\n      dup4\n        /* \"#utility.yul\":21312:21329   */\n      add\n        /* \"#utility.yul\":21305:21352   */\n      mstore\n        /* \"#utility.yul\":21369:21500   */\n      tag_560\n        /* \"#utility.yul\":21495:21499   */\n      dup2\n        /* \"#utility.yul\":21369:21500   */\n      tag_500\n      jump\t// in\n    tag_560:\n        /* \"#utility.yul\":21361:21500   */\n      swap1\n      pop\n        /* \"#utility.yul\":21088:21507   */\n      swap2\n      swap1\n      pop\n      jump\t// out\n        /* \"#utility.yul\":21513:21932   */\n    tag_149:\n        /* \"#utility.yul\":21679:21683   */\n      0x00\n        /* \"#utility.yul\":21717:21719   */\n      0x20\n        /* \"#utility.yul\":21706:21715   */\n      dup3\n        /* \"#utility.yul\":21702:21720   */\n      add\n        /* \"#utility.yul\":21694:21720   */\n      swap1\n      pop\n        /* \"#utility.yul\":21766:21775   */\n      dup2\n        /* \"#utility.yul\":21760:21764   */\n      dup2\n        /* \"#utility.yul\":21756:21776   */\n      sub\n        /* \"#utility.yul\":21752:21753   */\n      0x00\n        /* \"#utility.yul\":21741:21750   */\n      dup4\n        /* \"#utility.yul\":21737:21754   */\n      add\n        /* \"#utility.yul\":21730:21777   */\n      mstore\n        /* \"#utility.yul\":21794:21925   */\n      tag_562\n        /* \"#utility.yul\":21920:21924   */\n      dup2\n        /* \"#utility.yul\":21794:21925   */\n      tag_505\n      jump\t// in\n    tag_562:\n        /* \"#utility.yul\":21786:21925   */\n      swap1\n      pop\n        /* \"#utility.yul\":21513:21932   */\n      swap2\n      swap1\n      pop\n      jump\t// out\n        /* \"#utility.yul\":21938:22160   */\n    tag_79:\n        /* \"#utility.yul\":22031:22035   */\n      0x00\n        /* \"#utility.yul\":22069:22071   */\n      0x20\n        /* \"#utility.yul\":22058:22067   */\n      dup3\n        /* \"#utility.yul\":22054:22072   */\n      add\n        /* \"#utility.yul\":22046:22072   */\n      swap1\n      pop\n        /* \"#utility.yul\":22082:22153   */\n      tag_564\n        /* \"#utility.yul\":22150:22151   */\n      0x00\n        /* \"#utility.yul\":22139:22148   */\n      dup4\n        /* \"#utility.yul\":22135:22152   */\n      add\n        /* \"#utility.yul\":22126:22132   */\n      dup5\n        /* \"#utility.yul\":22082:22153   */\n      tag_510\n      jump\t// in\n    tag_564:\n        /* \"#utility.yul\":21938:22160   */\n      swap3\n      swap2\n      pop\n      pop\n      jump\t// out\n        /* \"#utility.yul\":22166:22384   */\n    tag_83:\n        /* \"#utility.yul\":22257:22261   */\n      0x00\n        /* \"#utility.yul\":22295:22297   */\n      0x20\n        /* \"#utility.yul\":22284:22293   */\n      dup3\n        /* \"#utility.yul\":22280:22298   */\n      add\n        /* \"#utility.yul\":22272:22298   */\n      swap1\n      pop\n        /* \"#utility.yul\":22308:22377   */\n      tag_566\n        /* \"#utility.yul\":22374:22375   */\n      0x00\n        /* \"#utility.yul\":22363:22372   */\n      dup4\n        /* \"#utility.yul\":22359:22376   */\n      add\n        /* \"#utility.yul\":22350:22356   */\n      dup5\n        /* \"#utility.yul\":22308:22377   */\n      tag_514\n      jump\t// in\n    tag_566:\n        /* \"#utility.yul\":22166:22384   */\n      swap3\n      swap2\n      pop\n      pop\n      jump\t// out\n        /* \"#utility.yul\":22390:22519   */\n    tag_311:\n        /* \"#utility.yul\":22424:22430   */\n      0x00\n        /* \"#utility.yul\":22451:22471   */\n      tag_568\n      tag_569\n      jump\t// in\n    tag_568:\n        /* \"#utility.yul\":22441:22471   */\n      swap1\n      pop\n        /* \"#utility.yul\":22480:22513   */\n      tag_570\n        /* \"#utility.yul\":22508:22512   */\n      dup3\n        /* \"#utility.yul\":22500:22506   */\n      dup3\n        /* \"#utility.yul\":22480:22513   */\n      tag_571\n      jump\t// in\n    tag_570:\n        /* \"#utility.yul\":22390:22519   */\n      swap2\n      swap1\n      pop\n      jump\t// out\n        /* \"#utility.yul\":22525:22600   */\n    tag_569:\n        /* \"#utility.yul\":22558:22564   */\n      0x00\n        /* \"#utility.yul\":22591:22593   */\n      0x40\n        /* \"#utility.yul\":22585:22594   */\n      mload\n        /* \"#utility.yul\":22575:22594   */\n      swap1\n      pop\n        /* \"#utility.yul\":22525:22600   */\n      swap1\n      jump\t// out\n        /* \"#utility.yul\":22606:22913   */\n    tag_310:\n        /* \"#utility.yul\":22667:22671   */\n      0x00\n        /* \"#utility.yul\":22757:22775   */\n      0xffffffffffffffff\n        /* \"#utility.yul\":22749:22755   */\n      dup3\n        /* \"#utility.yul\":22746:22776   */\n      gt\n        /* \"#utility.yul\":22743:22799   */\n      iszero\n      tag_574\n      jumpi\n        /* \"#utility.yul\":22779:22797   */\n      tag_575\n      tag_284\n      jump\t// in\n    tag_575:\n        /* \"#utility.yul\":22743:22799   */\n    tag_574:\n        /* \"#utility.yul\":22817:22846   */\n      tag_576\n        /* \"#utility.yul\":22839:22845   */\n      dup3\n        /* \"#utility.yul\":22817:22846   */\n      tag_430\n      jump\t// in\n    tag_576:\n        /* \"#utility.yul\":22809:22846   */\n      swap1\n      pop\n        /* \"#utility.yul\":22901:22905   */\n      0x20\n        /* \"#utility.yul\":22895:22899   */\n      dup2\n        /* \"#utility.yul\":22891:22906   */\n      add\n        /* \"#utility.yul\":22883:22906   */\n      swap1\n      pop\n        /* \"#utility.yul\":22606:22913   */\n      swap2\n      swap1\n      pop\n      jump\t// out\n        /* \"#utility.yul\":22919:23017   */\n    tag_424:\n        /* \"#utility.yul\":22970:22976   */\n      0x00\n        /* \"#utility.yul\":23004:23009   */\n      dup2\n        /* \"#utility.yul\":22998:23010   */\n      mload\n        /* \"#utility.yul\":22988:23010   */\n      swap1\n      pop\n        /* \"#utility.yul\":22919:23017   */\n      swap2\n      swap1\n      pop\n      jump\t// out\n        /* \"#utility.yul\":23023:23122   */\n    tag_434:\n        /* \"#utility.yul\":23075:23081   */\n      0x00\n        /* \"#utility.yul\":23109:23114   */\n      dup2\n        /* \"#utility.yul\":23103:23115   */\n      mload\n        /* \"#utility.yul\":23093:23115   */\n      swap1\n      pop\n        /* \"#utility.yul\":23023:23122   */\n      swap2\n      swap1\n      pop\n      jump\t// out\n        /* \"#utility.yul\":23128:23296   */\n    tag_426:\n        /* \"#utility.yul\":23211:23222   */\n      0x00\n        /* \"#utility.yul\":23245:23251   */\n      dup3\n        /* \"#utility.yul\":23240:23243   */\n      dup3\n        /* \"#utility.yul\":23233:23252   */\n      mstore\n        /* \"#utility.yul\":23285:23289   */\n      0x20\n        /* \"#utility.yul\":23280:23283   */\n      dup3\n        /* \"#utility.yul\":23276:23290   */\n      add\n        /* \"#utility.yul\":23261:23290   */\n      swap1\n      pop\n        /* \"#utility.yul\":23128:23296   */\n      swap3\n      swap2\n      pop\n      pop\n      jump\t// out\n        /* \"#utility.yul\":23302:23471   */\n    tag_436:\n        /* \"#utility.yul\":23386:23397   */\n      0x00\n        /* \"#utility.yul\":23420:23426   */\n      dup3\n        /* \"#utility.yul\":23415:23418   */\n      dup3\n        /* \"#utility.yul\":23408:23427   */\n      mstore\n        /* \"#utility.yul\":23460:23464   */\n      0x20\n        /* \"#utility.yul\":23455:23458   */\n      dup3\n        /* \"#utility.yul\":23451:23465   */\n      add\n        /* \"#utility.yul\":23436:23465   */\n      swap1\n      pop\n        /* \"#utility.yul\":23302:23471   */\n      swap3\n      swap2\n      pop\n      pop\n      jump\t// out\n        /* \"#utility.yul\":23477:23625   */\n    tag_443:\n        /* \"#utility.yul\":23579:23590   */\n      0x00\n        /* \"#utility.yul\":23616:23619   */\n      dup2\n        /* \"#utility.yul\":23601:23619   */\n      swap1\n      pop\n        /* \"#utility.yul\":23477:23625   */\n      swap3\n      swap2\n      pop\n      pop\n      jump\t// out\n        /* \"#utility.yul\":23631:23936   */\n    tag_293:\n        /* \"#utility.yul\":23671:23674   */\n      0x00\n        /* \"#utility.yul\":23690:23710   */\n      tag_583\n        /* \"#utility.yul\":23708:23709   */\n      dup3\n        /* \"#utility.yul\":23690:23710   */\n      tag_513\n      jump\t// in\n    tag_583:\n        /* \"#utility.yul\":23685:23710   */\n      swap2\n      pop\n        /* \"#utility.yul\":23724:23744   */\n      tag_584\n        /* \"#utility.yul\":23742:23743   */\n      dup4\n        /* \"#utility.yul\":23724:23744   */\n      tag_513\n      jump\t// in\n    tag_584:\n        /* \"#utility.yul\":23719:23744   */\n      swap3\n      pop\n        /* \"#utility.yul\":23878:23879   */\n      dup3\n        /* \"#utility.yul\":23810:23876   */\n      0xffffffffffffffffffffffffffffffffffffffffffffffffffffffffffffffff\n        /* \"#utility.yul\":23806:23880   */\n      sub\n        /* \"#utility.yul\":23803:23804   */\n      dup3\n        /* \"#utility.yul\":23800:23881   */\n      gt\n        /* \"#utility.yul\":23797:23904   */\n      iszero\n      tag_585\n      jumpi\n        /* \"#utility.yul\":23884:23902   */\n      tag_586\n      tag_587\n      jump\t// in\n    tag_586:\n        /* \"#utility.yul\":23797:23904   */\n    tag_585:\n        /* \"#utility.yul\":23928:23929   */\n      dup3\n        /* \"#utility.yul\":23925:23926   */\n      dup3\n        /* \"#utility.yul\":23921:23930   */\n      add\n        /* \"#utility.yul\":23914:23930   */\n      swap1\n      pop\n        /* \"#utility.yul\":23631:23936   */\n      swap3\n      swap2\n      pop\n      pop\n      jump\t// out\n        /* \"#utility.yul\":23942:24127   */\n    tag_192:\n        /* \"#utility.yul\":23982:23983   */\n      0x00\n        /* \"#utility.yul\":23999:24019   */\n      tag_589\n        /* \"#utility.yul\":24017:24018   */\n      dup3\n        /* \"#utility.yul\":23999:24019   */\n      tag_513\n      jump\t// in\n    tag_589:\n        /* \"#utility.yul\":23994:24019   */\n      swap2\n      pop\n        /* \"#utility.yul\":24033:24053   */\n      tag_590\n        /* \"#utility.yul\":24051:24052   */\n      dup4\n        /* \"#utility.yul\":24033:24053   */\n      tag_513\n      jump\t// in\n    tag_590:\n        /* \"#utility.yul\":24028:24053   */\n      swap3\n      pop\n        /* \"#utility.yul\":24072:24073   */\n      dup3\n        /* \"#utility.yul\":24062:24097   */\n      tag_591\n      jumpi\n        /* \"#utility.yul\":24077:24095   */\n      tag_592\n      tag_593\n      jump\t// in\n    tag_592:\n        /* \"#utility.yul\":24062:24097   */\n    tag_591:\n        /* \"#utility.yul\":24119:24120   */\n      dup3\n        /* \"#utility.yul\":24116:24117   */\n      dup3\n        /* \"#utility.yul\":24112:24121   */\n      div\n        /* \"#utility.yul\":24107:24121   */\n      swap1\n      pop\n        /* \"#utility.yul\":23942:24127   */\n      swap3\n      swap2\n      pop\n      pop\n      jump\t// out\n        /* \"#utility.yul\":24133:24481   */\n    tag_194:\n        /* \"#utility.yul\":24173:24180   */\n      0x00\n        /* \"#utility.yul\":24196:24216   */\n      tag_595\n        /* \"#utility.yul\":24214:24215   */\n      dup3\n        /* \"#utility.yul\":24196:24216   */\n      tag_513\n      jump\t// in\n    tag_595:\n        /* \"#utility.yul\":24191:24216   */\n      swap2\n      pop\n        /* \"#utility.yul\":24230:24250   */\n      tag_596\n        /* \"#utility.yul\":24248:24249   */\n      dup4\n        /* \"#utility.yul\":24230:24250   */\n      tag_513\n      jump\t// in\n    tag_596:\n        /* \"#utility.yul\":24225:24250   */\n      swap3\n      pop\n        /* \"#utility.yul\":24418:24419   */\n      dup2\n        /* \"#utility.yul\":24350:24416   */\n      0xffffffffffffffffffffffffffffffffffffffffffffffffffffffffffffffff\n        /* \"#utility.yul\":24346:24420   */\n      div\n        /* \"#utility.yul\":24343:24344   */\n      dup4\n        /* \"#utility.yul\":24340:24421   */\n      gt\n        /* \"#utility.yul\":24335:24336   */\n      dup3\n        /* \"#utility.yul\":24328:24337   */\n      iszero\n        /* \"#utility.yul\":24321:24338   */\n      iszero\n        /* \"#utility.yul\":24317:24422   */\n      and\n        /* \"#utility.yul\":24314:24445   */\n      iszero\n      tag_597\n      jumpi\n        /* \"#utility.yul\":24425:24443   */\n      tag_598\n      tag_587\n      jump\t// in\n    tag_598:\n        /* \"#utility.yul\":24314:24445   */\n    tag_597:\n        /* \"#utility.yul\":24473:24474   */\n      dup3\n        /* \"#utility.yul\":24470:24471   */\n      dup3\n        /* \"#utility.yul\":24466:24475   */\n      mul\n        /* \"#utility.yul\":24455:24475   */\n      swap1\n      pop\n        /* \"#utility.yul\":24133:24481   */\n      swap3\n      swap2\n      pop\n      pop\n      jump\t// out\n        /* \"#utility.yul\":24487:24678   */\n    tag_289:\n        /* \"#utility.yul\":24527:24531   */\n      0x00\n        /* \"#utility.yul\":24547:24567   */\n      tag_600\n        /* \"#utility.yul\":24565:24566   */\n      dup3\n        /* \"#utility.yul\":24547:24567   */\n      tag_513\n      jump\t// in\n    tag_600:\n        /* \"#utility.yul\":24542:24567   */\n      swap2\n      pop\n        /* \"#utility.yul\":24581:24601   */\n      tag_601\n        /* \"#utility.yul\":24599:24600   */\n      dup4\n        /* \"#utility.yul\":24581:24601   */\n      tag_513\n      jump\t// in\n    tag_601:\n        /* \"#utility.yul\":24576:24601   */\n      swap3\n      pop\n        /* \"#utility.yul\":24620:24621   */\n      dup3\n        /* \"#utility.yul\":24617:24618   */\n      dup3\n        /* \"#utility.yul\":24614:24622   */\n      lt\n        /* \"#utility.yul\":24611:24645   */\n      iszero\n      tag_602\n      jumpi\n        /* \"#utility.yul\":24625:24643   */\n      tag_603\n      tag_587\n      jump\t// in\n    tag_603:\n        /* \"#utility.yul\":24611:24645   */\n    tag_602:\n        /* \"#utility.yul\":24670:24671   */\n      dup3\n        /* \"#utility.yul\":24667:24668   */\n      dup3\n        /* \"#utility.yul\":24663:24672   */\n      sub\n        /* \"#utility.yul\":24655:24672   */\n      swap1\n      pop\n        /* \"#utility.yul\":24487:24678   */\n      swap3\n      swap2\n      pop\n      pop\n      jump\t// out\n        /* \"#utility.yul\":24684:24780   */\n    tag_416:\n        /* \"#utility.yul\":24721:24728   */\n      0x00\n        /* \"#utility.yul\":24750:24774   */\n      tag_605\n        /* \"#utility.yul\":24768:24773   */\n      dup3\n        /* \"#utility.yul\":24750:24774   */\n      tag_606\n      jump\t// in\n    tag_605:\n        /* \"#utility.yul\":24739:24774   */\n      swap1\n      pop\n        /* \"#utility.yul\":24684:24780   */\n      swap2\n      swap1\n      pop\n      jump\t// out\n        /* \"#utility.yul\":24786:24876   */\n    tag_420:\n        /* \"#utility.yul\":24820:24827   */\n      0x00\n        /* \"#utility.yul\":24863:24868   */\n      dup2\n        /* \"#utility.yul\":24856:24869   */\n      iszero\n        /* \"#utility.yul\":24849:24870   */\n      iszero\n        /* \"#utility.yul\":24838:24870   */\n      swap1\n      pop\n        /* \"#utility.yul\":24786:24876   */\n      swap2\n      swap1\n      pop\n      jump\t// out\n        /* \"#utility.yul\":24882:25031   */\n    tag_608:\n        /* \"#utility.yul\":24918:24925   */\n      0x00\n        /* \"#utility.yul\":24958:25024   */\n      0xffffffff00000000000000000000000000000000000000000000000000000000\n        /* \"#utility.yul\":24951:24956   */\n      dup3\n        /* \"#utility.yul\":24947:25025   */\n      and\n        /* \"#utility.yul\":24936:25025   */\n      swap1\n      pop\n        /* \"#utility.yul\":24882:25031   */\n      swap2\n      swap1\n      pop\n      jump\t// out\n        /* \"#utility.yul\":25037:25163   */\n    tag_606:\n        /* \"#utility.yul\":25074:25081   */\n      0x00\n        /* \"#utility.yul\":25114:25156   */\n      0xffffffffffffffffffffffffffffffffffffffff\n        /* \"#utility.yul\":25107:25112   */\n      dup3\n        /* \"#utility.yul\":25103:25157   */\n      and\n        /* \"#utility.yul\":25092:25157   */\n      swap1\n      pop\n        /* \"#utility.yul\":25037:25163   */\n      swap2\n      swap1\n      pop\n      jump\t// out\n        /* \"#utility.yul\":25169:25246   */\n    tag_513:\n        /* \"#utility.yul\":25206:25213   */\n      0x00\n        /* \"#utility.yul\":25235:25240   */\n      dup2\n        /* \"#utility.yul\":25224:25240   */\n      swap1\n      pop\n        /* \"#utility.yul\":25169:25246   */\n      swap2\n      swap1\n      pop\n      jump\t// out\n        /* \"#utility.yul\":25252:25353   */\n    tag_612:\n        /* \"#utility.yul\":25288:25295   */\n      0x00\n        /* \"#utility.yul\":25328:25346   */\n      0xffffffffffffffff\n        /* \"#utility.yul\":25321:25326   */\n      dup3\n        /* \"#utility.yul\":25317:25347   */\n      and\n        /* \"#utility.yul\":25306:25347   */\n      swap1\n      pop\n        /* \"#utility.yul\":25252:25353   */\n      swap2\n      swap1\n      pop\n      jump\t// out\n        /* \"#utility.yul\":25359:25468   */\n    tag_517:\n        /* \"#utility.yul\":25395:25402   */\n      0x00\n        /* \"#utility.yul\":25435:25461   */\n      0xffffffffffffffffffffffff\n        /* \"#utility.yul\":25428:25433   */\n      dup3\n        /* \"#utility.yul\":25424:25462   */\n      and\n        /* \"#utility.yul\":25413:25462   */\n      swap1\n      pop\n        /* \"#utility.yul\":25359:25468   */\n      swap2\n      swap1\n      pop\n      jump\t// out\n        /* \"#utility.yul\":25474:25628   */\n    tag_316:\n        /* \"#utility.yul\":25558:25564   */\n      dup3\n        /* \"#utility.yul\":25553:25556   */\n      dup2\n        /* \"#utility.yul\":25548:25551   */\n      dup4\n        /* \"#utility.yul\":25535:25565   */\n      calldatacopy\n        /* \"#utility.yul\":25620:25621   */\n      0x00\n        /* \"#utility.yul\":25611:25617   */\n      dup4\n        /* \"#utility.yul\":25606:25609   */\n      dup4\n        /* \"#utility.yul\":25602:25618   */\n      add\n        /* \"#utility.yul\":25595:25622   */\n      mstore\n        /* \"#utility.yul\":25474:25628   */\n      pop\n      pop\n      pop\n      jump\t// out\n        /* \"#utility.yul\":25634:25941   */\n    tag_428:\n        /* \"#utility.yul\":25702:25703   */\n      0x00\n        /* \"#utility.yul\":25712:25825   */\n    tag_617:\n        /* \"#utility.yul\":25726:25732   */\n      dup4\n        /* \"#utility.yul\":25723:25724   */\n      dup2\n        /* \"#utility.yul\":25720:25733   */\n      lt\n        /* \"#utility.yul\":25712:25825   */\n      iszero\n      tag_619\n      jumpi\n        /* \"#utility.yul\":25811:25812   */\n      dup1\n        /* \"#utility.yul\":25806:25809   */\n      dup3\n        /* \"#utility.yul\":25802:25813   */\n      add\n        /* \"#utility.yul\":25796:25814   */\n      mload\n        /* \"#utility.yul\":25792:25793   */\n      dup2\n        /* \"#utility.yul\":25787:25790   */\n      dup5\n        /* \"#utility.yul\":25783:25794   */\n      add\n        /* \"#utility.yul\":25776:25815   */\n      mstore\n        /* \"#utility.yul\":25748:25750   */\n      0x20\n        /* \"#utility.yul\":25745:25746   */\n      dup2\n        /* \"#utility.yul\":25741:25751   */\n      add\n        /* \"#utility.yul\":25736:25751   */\n      swap1\n      pop\n        /* \"#utility.yul\":25712:25825   */\n      jump(tag_617)\n    tag_619:\n        /* \"#utility.yul\":25843:25849   */\n      dup4\n        /* \"#utility.yul\":25840:25841   */\n      dup2\n        /* \"#utility.yul\":25837:25850   */\n      gt\n        /* \"#utility.yul\":25834:25935   */\n      iszero\n      tag_620\n      jumpi\n        /* \"#utility.yul\":25923:25924   */\n      0x00\n        /* \"#utility.yul\":25914:25920   */\n      dup5\n        /* \"#utility.yul\":25909:25912   */\n      dup5\n        /* \"#utility.yul\":25905:25921   */\n      add\n        /* \"#utility.yul\":25898:25925   */\n      mstore\n        /* \"#utility.yul\":25834:25935   */\n    tag_620:\n        /* \"#utility.yul\":25683:25941   */\n      pop\n        /* \"#utility.yul\":25634:25941   */\n      pop\n      pop\n      pop\n      jump\t// out\n        /* \"#utility.yul\":25947:26267   */\n    tag_140:\n        /* \"#utility.yul\":25991:25997   */\n      0x00\n        /* \"#utility.yul\":26028:26029   */\n      0x02\n        /* \"#utility.yul\":26022:26026   */\n      dup3\n        /* \"#utility.yul\":26018:26030   */\n      div\n        /* \"#utility.yul\":26008:26030   */\n      swap1\n      pop\n        /* \"#utility.yul\":26075:26076   */\n      0x01\n        /* \"#utility.yul\":26069:26073   */\n      dup3\n        /* \"#utility.yul\":26065:26077   */\n      and\n        /* \"#utility.yul\":26096:26114   */\n      dup1\n        /* \"#utility.yul\":26086:26167   */\n      tag_622\n      jumpi\n        /* \"#utility.yul\":26152:26156   */\n      0x7f\n        /* \"#utility.yul\":26144:26150   */\n      dup3\n        /* \"#utility.yul\":26140:26157   */\n      and\n        /* \"#utility.yul\":26130:26157   */\n      swap2\n      pop\n        /* \"#utility.yul\":26086:26167   */\n    tag_622:\n        /* \"#utility.yul\":26214:26216   */\n      0x20\n        /* \"#utility.yul\":26206:26212   */\n      dup3\n        /* \"#utility.yul\":26203:26217   */\n      lt\n        /* \"#utility.yul\":26183:26201   */\n      dup2\n        /* \"#utility.yul\":26180:26218   */\n      eq\n        /* \"#utility.yul\":26177:26261   */\n      iszero\n      tag_623\n      jumpi\n        /* \"#utility.yul\":26233:26251   */\n      tag_624\n      tag_625\n      jump\t// in\n    tag_624:\n        /* \"#utility.yul\":26177:26261   */\n    tag_623:\n        /* \"#utility.yul\":25998:26267   */\n      pop\n        /* \"#utility.yul\":25947:26267   */\n      swap2\n      swap1\n      pop\n      jump\t// out\n        /* \"#utility.yul\":26273:26554   */\n    tag_571:\n        /* \"#utility.yul\":26356:26383   */\n      tag_627\n        /* \"#utility.yul\":26378:26382   */\n      dup3\n        /* \"#utility.yul\":26356:26383   */\n      tag_430\n      jump\t// in\n    tag_627:\n        /* \"#utility.yul\":26348:26354   */\n      dup2\n        /* \"#utility.yul\":26344:26384   */\n      add\n        /* \"#utility.yul\":26486:26492   */\n      dup2\n        /* \"#utility.yul\":26474:26484   */\n      dup2\n        /* \"#utility.yul\":26471:26493   */\n      lt\n        /* \"#utility.yul\":26450:26468   */\n      0xffffffffffffffff\n        /* \"#utility.yul\":26438:26448   */\n      dup3\n        /* \"#utility.yul\":26435:26469   */\n      gt\n        /* \"#utility.yul\":26432:26494   */\n      or\n        /* \"#utility.yul\":26429:26517   */\n      iszero\n      tag_628\n      jumpi\n        /* \"#utility.yul\":26497:26515   */\n      tag_629\n      tag_284\n      jump\t// in\n    tag_629:\n        /* \"#utility.yul\":26429:26517   */\n    tag_628:\n        /* \"#utility.yul\":26537:26547   */\n      dup1\n        /* \"#utility.yul\":26533:26535   */\n      0x40\n        /* \"#utility.yul\":26526:26548   */\n      mstore\n        /* \"#utility.yul\":26316:26554   */\n      pop\n        /* \"#utility.yul\":26273:26554   */\n      pop\n      pop\n      jump\t// out\n        /* \"#utility.yul\":26560:26793   */\n    tag_205:\n        /* \"#utility.yul\":26599:26602   */\n      0x00\n        /* \"#utility.yul\":26622:26646   */\n      tag_631\n        /* \"#utility.yul\":26640:26645   */\n      dup3\n        /* \"#utility.yul\":26622:26646   */\n      tag_513\n      jump\t// in\n    tag_631:\n        /* \"#utility.yul\":26613:26646   */\n      swap2\n      pop\n        /* \"#utility.yul\":26668:26734   */\n      0xffffffffffffffffffffffffffffffffffffffffffffffffffffffffffffffff\n        /* \"#utility.yul\":26661:26666   */\n      dup3\n        /* \"#utility.yul\":26658:26735   */\n      eq\n        /* \"#utility.yul\":26655:26758   */\n      iszero\n      tag_632\n      jumpi\n        /* \"#utility.yul\":26738:26756   */\n      tag_633\n      tag_587\n      jump\t// in\n    tag_633:\n        /* \"#utility.yul\":26655:26758   */\n    tag_632:\n        /* \"#utility.yul\":26785:26786   */\n      0x01\n        /* \"#utility.yul\":26778:26783   */\n      dup3\n        /* \"#utility.yul\":26774:26787   */\n      add\n        /* \"#utility.yul\":26767:26787   */\n      swap1\n      pop\n        /* \"#utility.yul\":26560:26793   */\n      swap2\n      swap1\n      pop\n      jump\t// out\n        /* \"#utility.yul\":26799:26982   */\n    tag_209:\n        /* \"#utility.yul\":26837:26840   */\n      0x00\n        /* \"#utility.yul\":26860:26883   */\n      tag_635\n        /* \"#utility.yul\":26877:26882   */\n      dup3\n        /* \"#utility.yul\":26860:26883   */\n      tag_612\n      jump\t// in\n    tag_635:\n        /* \"#utility.yul\":26851:26883   */\n      swap2\n      pop\n        /* \"#utility.yul\":26905:26923   */\n      0xffffffffffffffff\n        /* \"#utility.yul\":26898:26903   */\n      dup3\n        /* \"#utility.yul\":26895:26924   */\n      eq\n        /* \"#utility.yul\":26892:26947   */\n      iszero\n      tag_636\n      jumpi\n        /* \"#utility.yul\":26927:26945   */\n      tag_637\n      tag_587\n      jump\t// in\n    tag_637:\n        /* \"#utility.yul\":26892:26947   */\n    tag_636:\n        /* \"#utility.yul\":26974:26975   */\n      0x01\n        /* \"#utility.yul\":26967:26972   */\n      dup3\n        /* \"#utility.yul\":26963:26976   */\n      add\n        /* \"#utility.yul\":26956:26976   */\n      swap1\n      pop\n        /* \"#utility.yul\":26799:26982   */\n      swap2\n      swap1\n      pop\n      jump\t// out\n        /* \"#utility.yul\":26988:27164   */\n    tag_291:\n        /* \"#utility.yul\":27020:27021   */\n      0x00\n        /* \"#utility.yul\":27037:27057   */\n      tag_639\n        /* \"#utility.yul\":27055:27056   */\n      dup3\n        /* \"#utility.yul\":27037:27057   */\n      tag_513\n      jump\t// in\n    tag_639:\n        /* \"#utility.yul\":27032:27057   */\n      swap2\n      pop\n        /* \"#utility.yul\":27071:27091   */\n      tag_640\n        /* \"#utility.yul\":27089:27090   */\n      dup4\n        /* \"#utility.yul\":27071:27091   */\n      tag_513\n      jump\t// in\n    tag_640:\n        /* \"#utility.yul\":27066:27091   */\n      swap3\n      pop\n        /* \"#utility.yul\":27110:27111   */\n      dup3\n        /* \"#utility.yul\":27100:27135   */\n      tag_641\n      jumpi\n        /* \"#utility.yul\":27115:27133   */\n      tag_642\n      tag_593\n      jump\t// in\n    tag_642:\n        /* \"#utility.yul\":27100:27135   */\n    tag_641:\n        /* \"#utility.yul\":27156:27157   */\n      dup3\n        /* \"#utility.yul\":27153:27154   */\n      dup3\n        /* \"#utility.yul\":27149:27158   */\n      mod\n        /* \"#utility.yul\":27144:27158   */\n      swap1\n      pop\n        /* \"#utility.yul\":26988:27164   */\n      swap3\n      swap2\n      pop\n      pop\n      jump\t// out\n        /* \"#utility.yul\":27170:27350   */\n    tag_587:\n        /* \"#utility.yul\":27218:27295   */\n      0x4e487b7100000000000000000000000000000000000000000000000000000000\n        /* \"#utility.yul\":27215:27216   */\n      0x00\n        /* \"#utility.yul\":27208:27296   */\n      mstore\n        /* \"#utility.yul\":27315:27319   */\n      0x11\n        /* \"#utility.yul\":27312:27313   */\n      0x04\n        /* \"#utility.yul\":27305:27320   */\n      mstore\n        /* \"#utility.yul\":27339:27343   */\n      0x24\n        /* \"#utility.yul\":27336:27337   */\n      0x00\n        /* \"#utility.yul\":27329:27344   */\n      revert\n        /* \"#utility.yul\":27356:27536   */\n    tag_593:\n        /* \"#utility.yul\":27404:27481   */\n      0x4e487b7100000000000000000000000000000000000000000000000000000000\n        /* \"#utility.yul\":27401:27402   */\n      0x00\n        /* \"#utility.yul\":27394:27482   */\n      mstore\n        /* \"#utility.yul\":27501:27505   */\n      0x12\n        /* \"#utility.yul\":27498:27499   */\n      0x04\n        /* \"#utility.yul\":27491:27506   */\n      mstore\n        /* \"#utility.yul\":27525:27529   */\n      0x24\n        /* \"#utility.yul\":27522:27523   */\n      0x00\n        /* \"#utility.yul\":27515:27530   */\n      revert\n        /* \"#utility.yul\":27542:27722   */\n    tag_625:\n        /* \"#utility.yul\":27590:27667   */\n      0x4e487b7100000000000000000000000000000000000000000000000000000000\n        /* \"#utility.yul\":27587:27588   */\n      0x00\n        /* \"#utility.yul\":27580:27668   */\n      mstore\n        /* \"#utility.yul\":27687:27691   */\n      0x22\n        /* \"#utility.yul\":27684:27685   */\n      0x04\n        /* \"#utility.yul\":27677:27692   */\n      mstore\n        /* \"#utility.yul\":27711:27715   */\n      0x24\n        /* \"#utility.yul\":27708:27709   */\n      0x00\n        /* \"#utility.yul\":27701:27716   */\n      revert\n        /* \"#utility.yul\":27728:27908   */\n    tag_296:\n        /* \"#utility.yul\":27776:27853   */\n      0x4e487b7100000000000000000000000000000000000000000000000000000000\n        /* \"#utility.yul\":27773:27774   */\n      0x00\n        /* \"#utility.yul\":27766:27854   */\n      mstore\n        /* \"#utility.yul\":27873:27877   */\n      0x32\n        /* \"#utility.yul\":27870:27871   */\n      0x04\n        /* \"#utility.yul\":27863:27878   */\n      mstore\n        /* \"#utility.yul\":27897:27901   */\n      0x24\n        /* \"#utility.yul\":27894:27895   */\n      0x00\n        /* \"#utility.yul\":27887:27902   */\n      revert\n        /* \"#utility.yul\":27914:28094   */\n    tag_284:\n        /* \"#utility.yul\":27962:28039   */\n      0x4e487b7100000000000000000000000000000000000000000000000000000000\n        /* \"#utility.yul\":27959:27960   */\n      0x00\n        /* \"#utility.yul\":27952:28040   */\n      mstore\n        /* \"#utility.yul\":28059:28063   */\n      0x41\n        /* \"#utility.yul\":28056:28057   */\n      0x04\n        /* \"#utility.yul\":28049:28064   */\n      mstore\n        /* \"#utility.yul\":28083:28087   */\n      0x24\n        /* \"#utility.yul\":28080:28081   */\n      0x00\n        /* \"#utility.yul\":28073:28088   */\n      revert\n        /* \"#utility.yul\":28100:28217   */\n    tag_336:\n        /* \"#utility.yul\":28209:28210   */\n      0x00\n        /* \"#utility.yul\":28206:28207   */\n      dup1\n        /* \"#utility.yul\":28199:28211   */\n      revert\n        /* \"#utility.yul\":28223:28340   */\n    tag_314:\n        /* \"#utility.yul\":28332:28333   */\n      0x00\n        /* \"#utility.yul\":28329:28330   */\n      dup1\n        /* \"#utility.yul\":28322:28334   */\n      revert\n        /* \"#utility.yul\":28346:28463   */\n    tag_374:\n        /* \"#utility.yul\":28455:28456   */\n      0x00\n        /* \"#utility.yul\":28452:28453   */\n      dup1\n        /* \"#utility.yul\":28445:28457   */\n      revert\n        /* \"#utility.yul\":28469:28586   */\n    tag_353:\n        /* \"#utility.yul\":28578:28579   */\n      0x00\n        /* \"#utility.yul\":28575:28576   */\n      dup1\n        /* \"#utility.yul\":28568:28580   */\n      revert\n        /* \"#utility.yul\":28592:28694   */\n    tag_430:\n        /* \"#utility.yul\":28633:28639   */\n      0x00\n        /* \"#utility.yul\":28684:28686   */\n      0x1f\n        /* \"#utility.yul\":28680:28687   */\n      not\n        /* \"#utility.yul\":28675:28677   */\n      0x1f\n        /* \"#utility.yul\":28668:28673   */\n      dup4\n        /* \"#utility.yul\":28664:28678   */\n      add\n        /* \"#utility.yul\":28660:28688   */\n      and\n        /* \"#utility.yul\":28650:28688   */\n      swap1\n      pop\n        /* \"#utility.yul\":28592:28694   */\n      swap2\n      swap1\n      pop\n      jump\t// out\n        /* \"#utility.yul\":28700:28873   */\n    tag_449:\n        /* \"#utility.yul\":28840:28865   */\n      0x43616c6c6572206973206e6f7420746865206f776e6572000000000000000000\n        /* \"#utility.yul\":28836:28837   */\n      0x00\n        /* \"#utility.yul\":28828:28834   */\n      dup3\n        /* \"#utility.yul\":28824:28838   */\n      add\n        /* \"#utility.yul\":28817:28866   */\n      mstore\n        /* \"#utility.yul\":28700:28873   */\n      pop\n      jump\t// out\n        /* \"#utility.yul\":28879:29037   */\n    tag_454:\n        /* \"#utility.yul\":29019:29029   */\n      0x57524f4e4720544f000000000000000000000000000000000000000000000000\n        /* \"#utility.yul\":29015:29016   */\n      0x00\n        /* \"#utility.yul\":29007:29013   */\n      dup3\n        /* \"#utility.yul\":29003:29017   */\n      add\n        /* \"#utility.yul\":28996:29030   */\n      mstore\n        /* \"#utility.yul\":28879:29037   */\n      pop\n      jump\t// out\n        /* \"#utility.yul\":29043:29203   */\n    tag_459:\n        /* \"#utility.yul\":29183:29195   */\n      0x57524f4e472046524f4d00000000000000000000000000000000000000000000\n        /* \"#utility.yul\":29179:29180   */\n      0x00\n        /* \"#utility.yul\":29171:29177   */\n      dup3\n        /* \"#utility.yul\":29167:29181   */\n      add\n        /* \"#utility.yul\":29160:29196   */\n      mstore\n        /* \"#utility.yul\":29043:29203   */\n      pop\n      jump\t// out\n        /* \"#utility.yul\":29209:29369   */\n    tag_464:\n        /* \"#utility.yul\":29349:29361   */\n      0x494e56414c49445f544f00000000000000000000000000000000000000000000\n        /* \"#utility.yul\":29345:29346   */\n      0x00\n        /* \"#utility.yul\":29337:29343   */\n      dup3\n        /* \"#utility.yul\":29333:29347   */\n      add\n        /* \"#utility.yul\":29326:29362   */\n      mstore\n        /* \"#utility.yul\":29209:29369   */\n      pop\n      jump\t// out\n        /* \"#utility.yul\":29375:29541   */\n    tag_469:\n        /* \"#utility.yul\":29515:29533   */\n      0x554e534146455f524543495049454e5400000000000000000000000000000000\n        /* \"#utility.yul\":29511:29512   */\n      0x00\n        /* \"#utility.yul\":29503:29509   */\n      dup3\n        /* \"#utility.yul\":29499:29513   */\n      add\n        /* \"#utility.yul\":29492:29534   */\n      mstore\n        /* \"#utility.yul\":29375:29541   */\n      pop\n      jump\t// out\n        /* \"#utility.yul\":29547:29702   */\n    tag_474:\n        /* \"#utility.yul\":29687:29694   */\n      0x2e6a736f6e000000000000000000000000000000000000000000000000000000\n        /* \"#utility.yul\":29683:29684   */\n      0x00\n        /* \"#utility.yul\":29675:29681   */\n      dup3\n        /* \"#utility.yul\":29671:29685   */\n      add\n        /* \"#utility.yul\":29664:29695   */\n      mstore\n        /* \"#utility.yul\":29547:29702   */\n      pop\n      jump\t// out\n        /* \"#utility.yul\":29708:29886   */\n    tag_479:\n        /* \"#utility.yul\":29848:29878   */\n      0x4e6f20746f6b656e207769746820746869732049642065786973747300000000\n        /* \"#utility.yul\":29844:29845   */\n      0x00\n        /* \"#utility.yul\":29836:29842   */\n      dup3\n        /* \"#utility.yul\":29832:29846   */\n      add\n        /* \"#utility.yul\":29825:29879   */\n      mstore\n        /* \"#utility.yul\":29708:29886   */\n      pop\n      jump\t// out\n        /* \"#utility.yul\":29892:30006   */\n    tag_484:\n      pop\n      jump\t// out\n        /* \"#utility.yul\":30012:30176   */\n    tag_489:\n        /* \"#utility.yul\":30152:30168   */\n      0x4e4f5420415554484f52495a4544000000000000000000000000000000000000\n        /* \"#utility.yul\":30148:30149   */\n      0x00\n        /* \"#utility.yul\":30140:30146   */\n      dup3\n        /* \"#utility.yul\":30136:30150   */\n      add\n        /* \"#utility.yul\":30129:30169   */\n      mstore\n        /* \"#utility.yul\":30012:30176   */\n      pop\n      jump\t// out\n        /* \"#utility.yul\":30182:30343   */\n    tag_494:\n        /* \"#utility.yul\":30322:30335   */\n      0x4e4f5420414c4c4f574544000000000000000000000000000000000000000000\n        /* \"#utility.yul\":30318:30319   */\n      0x00\n        /* \"#utility.yul\":30310:30316   */\n      dup3\n        /* \"#utility.yul\":30306:30320   */\n      add\n        /* \"#utility.yul\":30299:30336   */\n      mstore\n        /* \"#utility.yul\":30182:30343   */\n      pop\n      jump\t// out\n        /* \"#utility.yul\":30349:30527   */\n    tag_499:\n        /* \"#utility.yul\":30489:30519   */\n      0x4f776e65722063616e6e6f74206265207a65726f206164647265737300000000\n        /* \"#utility.yul\":30485:30486   */\n      0x00\n        /* \"#utility.yul\":30477:30483   */\n      dup3\n        /* \"#utility.yul\":30473:30487   */\n      add\n        /* \"#utility.yul\":30466:30520   */\n      mstore\n        /* \"#utility.yul\":30349:30527   */\n      pop\n      jump\t// out\n        /* \"#utility.yul\":30533:30697   */\n    tag_504:\n        /* \"#utility.yul\":30673:30689   */\n      0x414c52454144595f4d494e544544000000000000000000000000000000000000\n        /* \"#utility.yul\":30669:30670   */\n      0x00\n        /* \"#utility.yul\":30661:30667   */\n      dup3\n        /* \"#utility.yul\":30657:30671   */\n      add\n        /* \"#utility.yul\":30650:30690   */\n      mstore\n        /* \"#utility.yul\":30533:30697   */\n      pop\n      jump\t// out\n        /* \"#utility.yul\":30703:30867   */\n    tag_509:\n        /* \"#utility.yul\":30843:30859   */\n      0x4e6f7420617574686f72697a6564000000000000000000000000000000000000\n        /* \"#utility.yul\":30839:30840   */\n      0x00\n        /* \"#utility.yul\":30831:30837   */\n      dup3\n        /* \"#utility.yul\":30827:30841   */\n      add\n        /* \"#utility.yul\":30820:30860   */\n      mstore\n        /* \"#utility.yul\":30703:30867   */\n      pop\n      jump\t// out\n        /* \"#utility.yul\":30873:30995   */\n    tag_320:\n        /* \"#utility.yul\":30946:30970   */\n      tag_667\n        /* \"#utility.yul\":30964:30969   */\n      dup2\n        /* \"#utility.yul\":30946:30970   */\n      tag_416\n      jump\t// in\n    tag_667:\n        /* \"#utility.yul\":30939:30944   */\n      dup2\n        /* \"#utility.yul\":30936:30971   */\n      eq\n        /* \"#utility.yul\":30926:30989   */\n      tag_668\n      jumpi\n        /* \"#utility.yul\":30985:30986   */\n      0x00\n        /* \"#utility.yul\":30982:30983   */\n      dup1\n        /* \"#utility.yul\":30975:30987   */\n      revert\n        /* \"#utility.yul\":30926:30989   */\n    tag_668:\n        /* \"#utility.yul\":30873:30995   */\n      pop\n      jump\t// out\n        /* \"#utility.yul\":31001:31117   */\n    tag_324:\n        /* \"#utility.yul\":31071:31092   */\n      tag_670\n        /* \"#utility.yul\":31086:31091   */\n      dup2\n        /* \"#utility.yul\":31071:31092   */\n      tag_420\n      jump\t// in\n    tag_670:\n        /* \"#utility.yul\":31064:31069   */\n      dup2\n        /* \"#utility.yul\":31061:31093   */\n      eq\n        /* \"#utility.yul\":31051:31111   */\n      tag_671\n      jumpi\n        /* \"#utility.yul\":31107:31108   */\n      0x00\n        /* \"#utility.yul\":31104:31105   */\n      dup1\n        /* \"#utility.yul\":31097:31109   */\n      revert\n        /* \"#utility.yul\":31051:31111   */\n    tag_671:\n        /* \"#utility.yul\":31001:31117   */\n      pop\n      jump\t// out\n        /* \"#utility.yul\":31123:31243   */\n    tag_328:\n        /* \"#utility.yul\":31195:31218   */\n      tag_673\n        /* \"#utility.yul\":31212:31217   */\n      dup2\n        /* \"#utility.yul\":31195:31218   */\n      tag_608\n      jump\t// in\n    tag_673:\n        /* \"#utility.yul\":31188:31193   */\n      dup2\n        /* \"#utility.yul\":31185:31219   */\n      eq\n        /* \"#utility.yul\":31175:31237   */\n      tag_674\n      jumpi\n        /* \"#utility.yul\":31233:31234   */\n      0x00\n        /* \"#utility.yul\":31230:31231   */\n      dup1\n        /* \"#utility.yul\":31223:31235   */\n      revert\n        /* \"#utility.yul\":31175:31237   */\n    tag_674:\n        /* \"#utility.yul\":31123:31243   */\n      pop\n      jump\t// out\n        /* \"#utility.yul\":31249:31371   */\n    tag_341:\n        /* \"#utility.yul\":31322:31346   */\n      tag_676\n        /* \"#utility.yul\":31340:31345   */\n      dup2\n        /* \"#utility.yul\":31322:31346   */\n      tag_513\n      jump\t// in\n    tag_676:\n        /* \"#utility.yul\":31315:31320   */\n      dup2\n        /* \"#utility.yul\":31312:31347   */\n      eq\n        /* \"#utility.yul\":31302:31365   */\n      tag_677\n      jumpi\n        /* \"#utility.yul\":31361:31362   */\n      0x00\n        /* \"#utility.yul\":31358:31359   */\n      dup1\n        /* \"#utility.yul\":31351:31363   */\n      revert\n        /* \"#utility.yul\":31302:31365   */\n    tag_677:\n        /* \"#utility.yul\":31249:31371   */\n      pop\n      jump\t// out\n        /* \"#utility.yul\":31377:31497   */\n    tag_345:\n        /* \"#utility.yul\":31449:31472   */\n      tag_679\n        /* \"#utility.yul\":31466:31471   */\n      dup2\n        /* \"#utility.yul\":31449:31472   */\n      tag_612\n      jump\t// in\n    tag_679:\n        /* \"#utility.yul\":31442:31447   */\n      dup2\n        /* \"#utility.yul\":31439:31473   */\n      eq\n        /* \"#utility.yul\":31429:31491   */\n      tag_680\n      jumpi\n        /* \"#utility.yul\":31487:31488   */\n      0x00\n        /* \"#utility.yul\":31484:31485   */\n      dup1\n        /* \"#utility.yul\":31477:31489   */\n      revert\n        /* \"#utility.yul\":31429:31491   */\n    tag_680:\n        /* \"#utility.yul\":31377:31497   */\n      pop\n      jump\t// out\n        /* \"#utility.yul\":31503:31623   */\n    tag_349:\n        /* \"#utility.yul\":31575:31598   */\n      tag_682\n        /* \"#utility.yul\":31592:31597   */\n      dup2\n        /* \"#utility.yul\":31575:31598   */\n      tag_517\n      jump\t// in\n    tag_682:\n        /* \"#utility.yul\":31568:31573   */\n      dup2\n        /* \"#utility.yul\":31565:31599   */\n      eq\n        /* \"#utility.yul\":31555:31617   */\n      tag_683\n      jumpi\n        /* \"#utility.yul\":31613:31614   */\n      0x00\n        /* \"#utility.yul\":31610:31611   */\n      dup1\n        /* \"#utility.yul\":31603:31615   */\n      revert\n        /* \"#utility.yul\":31555:31617   */\n    tag_683:\n        /* \"#utility.yul\":31503:31623   */\n      pop\n      jump\t// out\n\n    auxdata: 0xa2646970667358221220282a81732af34e478a1bceba8b3190d2a376db3f8ae0de165b195ee80ee60e2564736f6c63430008070033\n}\n",
				"bytecode": {
					"linkReferences": {},
					"object": "608060405260006008553480156200001657600080fd5b50604051620034343803806200343483398181016040528101906200003c91906200034f565b83836200005e620000526200012760201b60201c565b6200012f60201b60201c565b8160019080519060200190620000769291906200020a565b5080600290805190602001906200008f9291906200020a565b5050508160079080519060200190620000aa9291906200020a565b5080600960006101000a8154816bffffffffffffffffffffffff02191690836bffffffffffffffffffffffff160217905550336009600c6101000a81548173ffffffffffffffffffffffffffffffffffffffff021916908373ffffffffffffffffffffffffffffffffffffffff16021790555050505050620005d4565b600033905090565b600062000141620001e160201b60201c565b9050816000806101000a81548173ffffffffffffffffffffffffffffffffffffffff021916908373ffffffffffffffffffffffffffffffffffffffff1602179055508173ffffffffffffffffffffffffffffffffffffffff168173ffffffffffffffffffffffffffffffffffffffff167f0d18b5fd22306e373229b9439188228edca81207d1667f604daf6cef8aa3ee6760405160405180910390a35050565b60008060009054906101000a900473ffffffffffffffffffffffffffffffffffffffff16905090565b8280546200021890620004cb565b90600052602060002090601f0160209004810192826200023c576000855562000288565b82601f106200025757805160ff191683800117855562000288565b8280016001018555821562000288579182015b82811115620002875782518255916020019190600101906200026a565b5b5090506200029791906200029b565b5090565b5b80821115620002b65760008160009055506001016200029c565b5090565b6000620002d1620002cb8462000447565b6200041e565b905082815260208101848484011115620002f057620002ef6200059a565b5b620002fd84828562000495565b509392505050565b600082601f8301126200031d576200031c62000595565b5b81516200032f848260208601620002ba565b91505092915050565b6000815190506200034981620005ba565b92915050565b600080600080608085870312156200036c576200036b620005a4565b5b600085015167ffffffffffffffff8111156200038d576200038c6200059f565b5b6200039b8782880162000305565b945050602085015167ffffffffffffffff811115620003bf57620003be6200059f565b5b620003cd8782880162000305565b935050604085015167ffffffffffffffff811115620003f157620003f06200059f565b5b620003ff8782880162000305565b9250506060620004128782880162000338565b91505092959194509250565b60006200042a6200043d565b905062000438828262000501565b919050565b6000604051905090565b600067ffffffffffffffff82111562000465576200046462000566565b5b6200047082620005a9565b9050602081019050919050565b60006bffffffffffffffffffffffff82169050919050565b60005b83811015620004b557808201518184015260208101905062000498565b83811115620004c5576000848401525b50505050565b60006002820490506001821680620004e457607f821691505b60208210811415620004fb57620004fa62000537565b5b50919050565b6200050c82620005a9565b810181811067ffffffffffffffff821117156200052e576200052d62000566565b5b80604052505050565b7f4e487b7100000000000000000000000000000000000000000000000000000000600052602260045260246000fd5b7f4e487b7100000000000000000000000000000000000000000000000000000000600052604160045260246000fd5b600080fd5b600080fd5b600080fd5b600080fd5b6000601f19601f8301169050919050565b620005c5816200047d565b8114620005d157600080fd5b50565b612e5080620005e46000396000f3fe608060405234801561001057600080fd5b50600436106101585760003560e01c80638da5cb5b116100c3578063b88d4fde1161007c578063b88d4fde146103da578063c4e18836146103f6578063c87b56dd14610412578063e985e9c514610442578063f2fde38b14610472578063fa695a971461048e57610158565b80638da5cb5b1461031857806395d89b4114610336578063a22cb46514610354578063a2e6961314610370578063a709dc17146103a0578063ad2f852a146103bc57610158565b80632a55205a116101155780632a55205a1461022f57806342842e0e146102605780636352211e1461027c5780636c0360eb146102ac57806370a08231146102ca57806373c7400e146102fa57610158565b806301ffc9a71461015d57806302fa7c471461018d57806306fdde03146101a9578063081812fc146101c7578063095ea7b3146101f757806323b872dd14610213575b600080fd5b610177600480360381019061017291906120aa565b6104aa565b6040516101849190612520565b60405180910390f35b6101a760048036038101906101a2919061206a565b61056c565b005b6101b161065e565b6040516101be919061253b565b60405180910390f35b6101e160048036038101906101dc9190612104565b6106ec565b6040516101ee9190612446565b60405180910390f35b610211600480360381019061020c9190611fea565b61071f565b005b61022d60048036038101906102289190611ed4565b610908565b005b61024960048036038101906102449190612131565b610d08565b6040516102579291906124f7565b60405180910390f35b61027a60048036038101906102759190611ed4565b610d42565b005b61029660048036038101906102919190612104565b610e89565b6040516102a39190612446565b60405180910390f35b6102b4610ebc565b6040516102c1919061253b565b60405180910390f35b6102e460048036038101906102df9190611e67565b610f4a565b6040516102f191906126bd565b60405180910390f35b610302610f62565b60405161030f91906126d8565b60405180910390f35b610320610f80565b60405161032d9190612446565b60405180910390f35b61033e610fa9565b60405161034b919061253b565b60405180910390f35b61036e60048036038101906103699190611faa565b611037565b005b61038a60048036038101906103859190612104565b611134565b60405161039791906126bd565b60405180910390f35b6103ba60048036038101906103b5919061202a565b61117e565b005b6103c46112a2565b6040516103d19190612446565b60405180910390f35b6103f460048036038101906103ef9190611f27565b6112c8565b005b610410600480360381019061040b9190611faa565b611412565b005b61042c60048036038101906104279190612104565b6114e9565b604051610439919061253b565b60405180910390f35b61045c60048036038101906104579190611e94565b611590565b6040516104699190612520565b60405180910390f35b61048c60048036038101906104879190611e67565b6115bf565b005b6104a860048036038101906104a39190611e67565b6116ae565b005b60006301ffc9a760e01b827bffffffffffffffffffffffffffffffffffffffffffffffffffffffff1916148061050557506380ac58cd60e01b827bffffffffffffffffffffffffffffffffffffffffffffffffffffffff1916145b806105355750635b5e139f60e01b827bffffffffffffffffffffffffffffffffffffffffffffffffffffffff1916145b806105655750632a55205a60e01b827bffffffffffffffffffffffffffffffffffffffffffffffffffffffff1916145b9050919050565b610574610f80565b73ffffffffffffffffffffffffffffffffffffffff1661059261179e565b73ffffffffffffffffffffffffffffffffffffffff16146105e8576040517f08c379a00000000000000000000000000000000000000000000000000000000081526004016105df9061255d565b60405180910390fd5b816009600c6101000a81548173ffffffffffffffffffffffffffffffffffffffff021916908373ffffffffffffffffffffffffffffffffffffffff16021790555080600960006101000a8154816bffffffffffffffffffffffff02191690836bffffffffffffffffffffffff1602179055505050565b6001805461066b90612983565b80601f016020809104026020016040519081016040528092919081815260200182805461069790612983565b80156106e45780601f106106b9576101008083540402835291602001916106e4565b820191906000526020600020905b8154815290600101906020018083116106c757829003601f168201915b505050505081565b60056020528060005260406000206000915054906101000a900473ffffffffffffffffffffffffffffffffffffffff1681565b60006004600083815260200190815260200160002060009054906101000a900473ffffffffffffffffffffffffffffffffffffffff1690508073ffffffffffffffffffffffffffffffffffffffff163373ffffffffffffffffffffffffffffffffffffffff1614806108175750600660008273ffffffffffffffffffffffffffffffffffffffff1673ffffffffffffffffffffffffffffffffffffffff16815260200190815260200160002060003373ffffffffffffffffffffffffffffffffffffffff1673ffffffffffffffffffffffffffffffffffffffff16815260200190815260200160002060009054906101000a900460ff165b610856576040517f08c379a000000000000000000000000000000000000000000000000000000000815260040161084d9061269d565b60405180910390fd5b826005600084815260200190815260200160002060006101000a81548173ffffffffffffffffffffffffffffffffffffffff021916908373ffffffffffffffffffffffffffffffffffffffff160217905550818373ffffffffffffffffffffffffffffffffffffffff168273ffffffffffffffffffffffffffffffffffffffff167f8c5be1e5ebec7d5bd14f71427d1e84f3dd0314c0f7b2291e5b200ac8c7c3b92560405160405180910390a4505050565b6004600082815260200190815260200160002060009054906101000a900473ffffffffffffffffffffffffffffffffffffffff1673ffffffffffffffffffffffffffffffffffffffff168373ffffffffffffffffffffffffffffffffffffffff16146109a9576040517f08c379a00000000000000000000000000000000000000000000000000000000081526004016109a09061259d565b60405180910390fd5b600073ffffffffffffffffffffffffffffffffffffffff168273ffffffffffffffffffffffffffffffffffffffff161415610a19576040517f08c379a0000000000000000000000000000000000000000000000000000000008152600401610a109061257d565b60405180910390fd5b8273ffffffffffffffffffffffffffffffffffffffff163373ffffffffffffffffffffffffffffffffffffffff161480610ad95750600660008473ffffffffffffffffffffffffffffffffffffffff1673ffffffffffffffffffffffffffffffffffffffff16815260200190815260200160002060003373ffffffffffffffffffffffffffffffffffffffff1673ffffffffffffffffffffffffffffffffffffffff16815260200190815260200160002060009054906101000a900460ff165b80610b4257506005600082815260200190815260200160002060009054906101000a900473ffffffffffffffffffffffffffffffffffffffff1673ffffffffffffffffffffffffffffffffffffffff163373ffffffffffffffffffffffffffffffffffffffff16145b610b81576040517f08c379a0000000000000000000000000000000000000000000000000000000008152600401610b789061261d565b60405180910390fd5b600360008473ffffffffffffffffffffffffffffffffffffffff1673ffffffffffffffffffffffffffffffffffffffff1681526020019081526020016000206000815480929190600190039190505550600360008373ffffffffffffffffffffffffffffffffffffffff1673ffffffffffffffffffffffffffffffffffffffff16815260200190815260200160002060008154809291906001019190505550816004600083815260200190815260200160002060006101000a81548173ffffffffffffffffffffffffffffffffffffffff021916908373ffffffffffffffffffffffffffffffffffffffff1602179055506005600082815260200190815260200160002060006101000a81549073ffffffffffffffffffffffffffffffffffffffff0219169055808273ffffffffffffffffffffffffffffffffffffffff168473ffffffffffffffffffffffffffffffffffffffff167fddf252ad1be2c89b69c2b068fc378daa952ba7f163c4a11628f55a4df523b3ef60405160405180910390a4505050565b6000806009600c9054906101000a900473ffffffffffffffffffffffffffffffffffffffff16610d3784611134565b915091509250929050565b610d4d838383610908565b60008273ffffffffffffffffffffffffffffffffffffffff163b1480610e45575063150b7a0260e01b7bffffffffffffffffffffffffffffffffffffffffffffffffffffffff19168273ffffffffffffffffffffffffffffffffffffffff1663150b7a023386856040518463ffffffff1660e01b8152600401610dd2939291906124ad565b602060405180830381600087803b158015610dec57600080fd5b505af1158015610e00573d6000803e3d6000fd5b505050506040513d601f19601f82011682018060405250810190610e2491906120d7565b7bffffffffffffffffffffffffffffffffffffffffffffffffffffffff1916145b610e84576040517f08c379a0000000000000000000000000000000000000000000000000000000008152600401610e7b906125dd565b60405180910390fd5b505050565b60046020528060005260406000206000915054906101000a900473ffffffffffffffffffffffffffffffffffffffff1681565b60078054610ec990612983565b80601f0160208091040260200160405190810160405280929190818152602001828054610ef590612983565b8015610f425780601f10610f1757610100808354040283529160200191610f42565b820191906000526020600020905b815481529060010190602001808311610f2557829003601f168201915b505050505081565b60036020528060005260406000206000915090505481565b600960009054906101000a90046bffffffffffffffffffffffff1681565b60008060009054906101000a900473ffffffffffffffffffffffffffffffffffffffff16905090565b60028054610fb690612983565b80601f0160208091040260200160405190810160405280929190818152602001828054610fe290612983565b801561102f5780601f106110045761010080835404028352916020019161102f565b820191906000526020600020905b81548152906001019060200180831161101257829003601f168201915b505050505081565b80600660003373ffffffffffffffffffffffffffffffffffffffff1673ffffffffffffffffffffffffffffffffffffffff16815260200190815260200160002060008473ffffffffffffffffffffffffffffffffffffffff1673ffffffffffffffffffffffffffffffffffffffff16815260200190815260200160002060006101000a81548160ff0219169083151502179055508173ffffffffffffffffffffffffffffffffffffffff163373ffffffffffffffffffffffffffffffffffffffff167f17307eab39ab6107e8899845ad3d59bd9653f200f220920489ca2b5937696c31836040516111289190612520565b60405180910390a35050565b6000600960009054906101000a90046bffffffffffffffffffffffff166bffffffffffffffffffffffff166127108361116d91906127e2565b6111779190612813565b9050919050565b600a60003373ffffffffffffffffffffffffffffffffffffffff1673ffffffffffffffffffffffffffffffffffffffff16815260200190815260200160002060009054906101000a900460ff168061120857506111d9610f80565b73ffffffffffffffffffffffffffffffffffffffff163373ffffffffffffffffffffffffffffffffffffffff16145b611247576040517f08c379a000000000000000000000000000000000000000000000000000000000815260040161123e9061263d565b60405180910390fd5b60005b8167ffffffffffffffff168167ffffffffffffffff16101561129d5760086000815480929190611279906129e6565b919050555061128a836008546117a6565b808061129590612a2f565b91505061124a565b505050565b6009600c9054906101000a900473ffffffffffffffffffffffffffffffffffffffff1681565b6112d3848484610908565b60008373ffffffffffffffffffffffffffffffffffffffff163b14806113cd575063150b7a0260e01b7bffffffffffffffffffffffffffffffffffffffffffffffffffffffff19168373ffffffffffffffffffffffffffffffffffffffff1663150b7a02338786866040518563ffffffff1660e01b815260040161135a9493929190612461565b602060405180830381600087803b15801561137457600080fd5b505af1158015611388573d6000803e3d6000fd5b505050506040513d601f19601f820116820180604052508101906113ac91906120d7565b7bffffffffffffffffffffffffffffffffffffffffffffffffffffffff1916145b61140c576040517f08c379a0000000000000000000000000000000000000000000000000000000008152600401611403906125dd565b60405180910390fd5b50505050565b61141a610f80565b73ffffffffffffffffffffffffffffffffffffffff1661143861179e565b73ffffffffffffffffffffffffffffffffffffffff161461148e576040517f08c379a00000000000000000000000000000000000000000000000000000000081526004016114859061255d565b60405180910390fd5b80600a60008473ffffffffffffffffffffffffffffffffffffffff1673ffffffffffffffffffffffffffffffffffffffff16815260200190815260200160002060006101000a81548160ff0219169083151502179055505050565b60606114f4826118ec565b611533576040517f08c379a000000000000000000000000000000000000000000000000000000000815260040161152a906125fd565b60405180910390fd5b600061153d61195e565b9050600081511161155d5760405180602001604052806000815250611588565b80611567846119f0565b604051602001611578929190612417565b6040516020818303038152906040525b915050919050565b60066020528160005260406000206020528060005260406000206000915091509054906101000a900460ff1681565b6115c7610f80565b73ffffffffffffffffffffffffffffffffffffffff166115e561179e565b73ffffffffffffffffffffffffffffffffffffffff161461163b576040517f08c379a00000000000000000000000000000000000000000000000000000000081526004016116329061255d565b60405180910390fd5b600073ffffffffffffffffffffffffffffffffffffffff168173ffffffffffffffffffffffffffffffffffffffff1614156116ab576040517f08c379a00000000000000000000000000000000000000000000000000000000081526004016116a29061265d565b60405180910390fd5b50565b600a60003373ffffffffffffffffffffffffffffffffffffffff1673ffffffffffffffffffffffffffffffffffffffff16815260200190815260200160002060009054906101000a900460ff16806117385750611709610f80565b73ffffffffffffffffffffffffffffffffffffffff163373ffffffffffffffffffffffffffffffffffffffff16145b611777576040517f08c379a000000000000000000000000000000000000000000000000000000000815260040161176e9061263d565b60405180910390fd5b6008600081548092919061178a906129e6565b919050555061179b816008546117a6565b50565b600033905090565b6117b08282611b51565b60008273ffffffffffffffffffffffffffffffffffffffff163b14806118a9575063150b7a0260e01b7bffffffffffffffffffffffffffffffffffffffffffffffffffffffff19168273ffffffffffffffffffffffffffffffffffffffff1663150b7a02336000856040518463ffffffff1660e01b8152600401611836939291906124ad565b602060405180830381600087803b15801561185057600080fd5b505af1158015611864573d6000803e3d6000fd5b505050506040513d601f19601f8201168201806040525081019061188891906120d7565b7bffffffffffffffffffffffffffffffffffffffffffffffffffffffff1916145b6118e8576040517f08c379a00000000000000000000000000000000000000000000000000000000081526004016118df906125dd565b60405180910390fd5b5050565b6000806004600084815260200190815260200160002060009054906101000a900473ffffffffffffffffffffffffffffffffffffffff169050600073ffffffffffffffffffffffffffffffffffffffff168173ffffffffffffffffffffffffffffffffffffffff161415915050919050565b60606007805461196d90612983565b80601f016020809104026020016040519081016040528092919081815260200182805461199990612983565b80156119e65780601f106119bb576101008083540402835291602001916119e6565b820191906000526020600020905b8154815290600101906020018083116119c957829003601f168201915b5050505050905090565b60606000821415611a38576040518060400160405280600181526020017f30000000000000000000000000000000000000000000000000000000000000008152509050611b4c565b600082905060005b60008214611a6a578080611a53906129e6565b915050600a82611a6391906127e2565b9150611a40565b60008167ffffffffffffffff811115611a8657611a85612b4d565b5b6040519080825280601f01601f191660200182016040528015611ab85781602001600182028036833780820191505090505b5090505b60008514611b4557600182611ad1919061286d565b9150600a85611ae09190612a60565b6030611aec919061278c565b60f81b818381518110611b0257611b01612b1e565b5b60200101907effffffffffffffffffffffffffffffffffffffffffffffffffffffffffffff1916908160001a905350600a85611b3e91906127e2565b9450611abc565b8093505050505b919050565b600073ffffffffffffffffffffffffffffffffffffffff168273ffffffffffffffffffffffffffffffffffffffff161415611bc1576040517f08c379a0000000000000000000000000000000000000000000000000000000008152600401611bb8906125bd565b60405180910390fd5b600073ffffffffffffffffffffffffffffffffffffffff166004600083815260200190815260200160002060009054906101000a900473ffffffffffffffffffffffffffffffffffffffff1673ffffffffffffffffffffffffffffffffffffffff1614611c63576040517f08c379a0000000000000000000000000000000000000000000000000000000008152600401611c5a9061267d565b60405180910390fd5b600360008373ffffffffffffffffffffffffffffffffffffffff1673ffffffffffffffffffffffffffffffffffffffff16815260200190815260200160002060008154809291906001019190505550816004600083815260200190815260200160002060006101000a81548173ffffffffffffffffffffffffffffffffffffffff021916908373ffffffffffffffffffffffffffffffffffffffff160217905550808273ffffffffffffffffffffffffffffffffffffffff16600073ffffffffffffffffffffffffffffffffffffffff167fddf252ad1be2c89b69c2b068fc378daa952ba7f163c4a11628f55a4df523b3ef60405160405180910390a45050565b6000611d77611d7284612718565b6126f3565b905082815260208101848484011115611d9357611d92612b81565b5b611d9e848285612941565b509392505050565b600081359050611db581612d90565b92915050565b600081359050611dca81612da7565b92915050565b600081359050611ddf81612dbe565b92915050565b600081519050611df481612dbe565b92915050565b600082601f830112611e0f57611e0e612b7c565b5b8135611e1f848260208601611d64565b91505092915050565b600081359050611e3781612dd5565b92915050565b600081359050611e4c81612dec565b92915050565b600081359050611e6181612e03565b92915050565b600060208284031215611e7d57611e7c612b8b565b5b6000611e8b84828501611da6565b91505092915050565b60008060408385031215611eab57611eaa612b8b565b5b6000611eb985828601611da6565b9250506020611eca85828601611da6565b9150509250929050565b600080600060608486031215611eed57611eec612b8b565b5b6000611efb86828701611da6565b9350506020611f0c86828701611da6565b9250506040611f1d86828701611e28565b9150509250925092565b60008060008060808587031215611f4157611f40612b8b565b5b6000611f4f87828801611da6565b9450506020611f6087828801611da6565b9350506040611f7187828801611e28565b925050606085013567ffffffffffffffff811115611f9257611f91612b86565b5b611f9e87828801611dfa565b91505092959194509250565b60008060408385031215611fc157611fc0612b8b565b5b6000611fcf85828601611da6565b9250506020611fe085828601611dbb565b9150509250929050565b6000806040838503121561200157612000612b8b565b5b600061200f85828601611da6565b925050602061202085828601611e28565b9150509250929050565b6000806040838503121561204157612040612b8b565b5b600061204f85828601611da6565b925050602061206085828601611e3d565b9150509250929050565b6000806040838503121561208157612080612b8b565b5b600061208f85828601611da6565b92505060206120a085828601611e52565b9150509250929050565b6000602082840312156120c0576120bf612b8b565b5b60006120ce84828501611dd0565b91505092915050565b6000602082840312156120ed576120ec612b8b565b5b60006120fb84828501611de5565b91505092915050565b60006020828403121561211a57612119612b8b565b5b600061212884828501611e28565b91505092915050565b6000806040838503121561214857612147612b8b565b5b600061215685828601611e28565b925050602061216785828601611e28565b9150509250929050565b61217a816128a1565b82525050565b612189816128b3565b82525050565b600061219a82612749565b6121a4818561275f565b93506121b4818560208601612950565b6121bd81612b90565b840191505092915050565b60006121d382612754565b6121dd8185612770565b93506121ed818560208601612950565b6121f681612b90565b840191505092915050565b600061220c82612754565b6122168185612781565b9350612226818560208601612950565b80840191505092915050565b600061223f601783612770565b915061224a82612ba1565b602082019050919050565b6000612262600883612770565b915061226d82612bca565b602082019050919050565b6000612285600a83612770565b915061229082612bf3565b602082019050919050565b60006122a8600a83612770565b91506122b382612c1c565b602082019050919050565b60006122cb601083612770565b91506122d682612c45565b602082019050919050565b60006122ee600583612781565b91506122f982612c6e565b600582019050919050565b6000612311601c83612770565b915061231c82612c97565b602082019050919050565b600061233460008361275f565b915061233f82612cc0565b600082019050919050565b6000612357600e83612770565b915061236282612cc3565b602082019050919050565b600061237a600b83612770565b915061238582612cec565b602082019050919050565b600061239d601c83612770565b91506123a882612d15565b602082019050919050565b60006123c0600e83612770565b91506123cb82612d3e565b602082019050919050565b60006123e3600e83612770565b91506123ee82612d67565b602082019050919050565b6124028161290b565b82525050565b61241181612929565b82525050565b60006124238285612201565b915061242f8284612201565b915061243a826122e1565b91508190509392505050565b600060208201905061245b6000830184612171565b92915050565b60006080820190506124766000830187612171565b6124836020830186612171565b61249060408301856123f9565b81810360608301526124a2818461218f565b905095945050505050565b60006080820190506124c26000830186612171565b6124cf6020830185612171565b6124dc60408301846123f9565b81810360608301526124ed81612327565b9050949350505050565b600060408201905061250c6000830185612171565b61251960208301846123f9565b9392505050565b60006020820190506125356000830184612180565b92915050565b6000602082019050818103600083015261255581846121c8565b905092915050565b6000602082019050818103600083015261257681612232565b9050919050565b6000602082019050818103600083015261259681612255565b9050919050565b600060208201905081810360008301526125b681612278565b9050919050565b600060208201905081810360008301526125d68161229b565b9050919050565b600060208201905081810360008301526125f6816122be565b9050919050565b6000602082019050818103600083015261261681612304565b9050919050565b600060208201905081810360008301526126368161234a565b9050919050565b600060208201905081810360008301526126568161236d565b9050919050565b6000602082019050818103600083015261267681612390565b9050919050565b60006020820190508181036000830152612696816123b3565b9050919050565b600060208201905081810360008301526126b6816123d6565b9050919050565b60006020820190506126d260008301846123f9565b92915050565b60006020820190506126ed6000830184612408565b92915050565b60006126fd61270e565b905061270982826129b5565b919050565b6000604051905090565b600067ffffffffffffffff82111561273357612732612b4d565b5b61273c82612b90565b9050602081019050919050565b600081519050919050565b600081519050919050565b600082825260208201905092915050565b600082825260208201905092915050565b600081905092915050565b60006127978261290b565b91506127a28361290b565b9250827fffffffffffffffffffffffffffffffffffffffffffffffffffffffffffffffff038211156127d7576127d6612a91565b5b828201905092915050565b60006127ed8261290b565b91506127f88361290b565b92508261280857612807612ac0565b5b828204905092915050565b600061281e8261290b565b91506128298361290b565b9250817fffffffffffffffffffffffffffffffffffffffffffffffffffffffffffffffff048311821515161561286257612861612a91565b5b828202905092915050565b60006128788261290b565b91506128838361290b565b92508282101561289657612895612a91565b5b828203905092915050565b60006128ac826128eb565b9050919050565b60008115159050919050565b60007fffffffff0000000000000000000000000000000000000000000000000000000082169050919050565b600073ffffffffffffffffffffffffffffffffffffffff82169050919050565b6000819050919050565b600067ffffffffffffffff82169050919050565b60006bffffffffffffffffffffffff82169050919050565b82818337600083830152505050565b60005b8381101561296e578082015181840152602081019050612953565b8381111561297d576000848401525b50505050565b6000600282049050600182168061299b57607f821691505b602082108114156129af576129ae612aef565b5b50919050565b6129be82612b90565b810181811067ffffffffffffffff821117156129dd576129dc612b4d565b5b80604052505050565b60006129f18261290b565b91507fffffffffffffffffffffffffffffffffffffffffffffffffffffffffffffffff821415612a2457612a23612a91565b5b600182019050919050565b6000612a3a82612915565b915067ffffffffffffffff821415612a5557612a54612a91565b5b600182019050919050565b6000612a6b8261290b565b9150612a768361290b565b925082612a8657612a85612ac0565b5b828206905092915050565b7f4e487b7100000000000000000000000000000000000000000000000000000000600052601160045260246000fd5b7f4e487b7100000000000000000000000000000000000000000000000000000000600052601260045260246000fd5b7f4e487b7100000000000000000000000000000000000000000000000000000000600052602260045260246000fd5b7f4e487b7100000000000000000000000000000000000000000000000000000000600052603260045260246000fd5b7f4e487b7100000000000000000000000000000000000000000000000000000000600052604160045260246000fd5b600080fd5b600080fd5b600080fd5b600080fd5b6000601f19601f8301169050919050565b7f43616c6c6572206973206e6f7420746865206f776e6572000000000000000000600082015250565b7f57524f4e4720544f000000000000000000000000000000000000000000000000600082015250565b7f57524f4e472046524f4d00000000000000000000000000000000000000000000600082015250565b7f494e56414c49445f544f00000000000000000000000000000000000000000000600082015250565b7f554e534146455f524543495049454e5400000000000000000000000000000000600082015250565b7f2e6a736f6e000000000000000000000000000000000000000000000000000000600082015250565b7f4e6f20746f6b656e207769746820746869732049642065786973747300000000600082015250565b50565b7f4e4f5420415554484f52495a4544000000000000000000000000000000000000600082015250565b7f4e4f5420414c4c4f574544000000000000000000000000000000000000000000600082015250565b7f4f776e65722063616e6e6f74206265207a65726f206164647265737300000000600082015250565b7f414c52454144595f4d494e544544000000000000000000000000000000000000600082015250565b7f4e6f7420617574686f72697a6564000000000000000000000000000000000000600082015250565b612d99816128a1565b8114612da457600080fd5b50565b612db0816128b3565b8114612dbb57600080fd5b50565b612dc7816128bf565b8114612dd257600080fd5b50565b612dde8161290b565b8114612de957600080fd5b50565b612df581612915565b8114612e0057600080fd5b50565b612e0c81612929565b8114612e1757600080fd5b5056fea2646970667358221220282a81732af34e478a1bceba8b3190d2a376db3f8ae0de165b195ee80ee60e2564736f6c63430008070033",
					"opcodes": "PUSH1 0x80 PUSH1 0x40 MSTORE PUSH1 0x0 PUSH1 0x8 SSTORE CALLVALUE DUP1 ISZERO PUSH3 0x16 JUMPI PUSH1 0x0 DUP1 REVERT JUMPDEST POP PUSH1 0x40 MLOAD PUSH3 0x3434 CODESIZE SUB DUP1 PUSH3 0x3434 DUP4 CODECOPY DUP2 DUP2 ADD PUSH1 0x40 MSTORE DUP2 ADD SWAP1 PUSH3 0x3C SWAP2 SWAP1 PUSH3 0x34F JUMP JUMPDEST DUP4 DUP4 PUSH3 0x5E PUSH3 0x52 PUSH3 0x127 PUSH1 0x20 SHL PUSH1 0x20 SHR JUMP JUMPDEST PUSH3 0x12F PUSH1 0x20 SHL PUSH1 0x20 SHR JUMP JUMPDEST DUP2 PUSH1 0x1 SWAP1 DUP1 MLOAD SWAP1 PUSH1 0x20 ADD SWAP1 PUSH3 0x76 SWAP3 SWAP2 SWAP1 PUSH3 0x20A JUMP JUMPDEST POP DUP1 PUSH1 0x2 SWAP1 DUP1 MLOAD SWAP1 PUSH1 0x20 ADD SWAP1 PUSH3 0x8F SWAP3 SWAP2 SWAP1 PUSH3 0x20A JUMP JUMPDEST POP POP POP DUP2 PUSH1 0x7 SWAP1 DUP1 MLOAD SWAP1 PUSH1 0x20 ADD SWAP1 PUSH3 0xAA SWAP3 SWAP2 SWAP1 PUSH3 0x20A JUMP JUMPDEST POP DUP1 PUSH1 0x9 PUSH1 0x0 PUSH2 0x100 EXP DUP2 SLOAD DUP2 PUSH12 0xFFFFFFFFFFFFFFFFFFFFFFFF MUL NOT AND SWAP1 DUP4 PUSH12 0xFFFFFFFFFFFFFFFFFFFFFFFF AND MUL OR SWAP1 SSTORE POP CALLER PUSH1 0x9 PUSH1 0xC PUSH2 0x100 EXP DUP2 SLOAD DUP2 PUSH20 0xFFFFFFFFFFFFFFFFFFFFFFFFFFFFFFFFFFFFFFFF MUL NOT AND SWAP1 DUP4 PUSH20 0xFFFFFFFFFFFFFFFFFFFFFFFFFFFFFFFFFFFFFFFF AND MUL OR SWAP1 SSTORE POP POP POP POP POP PUSH3 0x5D4 JUMP JUMPDEST PUSH1 0x0 CALLER SWAP1 POP SWAP1 JUMP JUMPDEST PUSH1 0x0 PUSH3 0x141 PUSH3 0x1E1 PUSH1 0x20 SHL PUSH1 0x20 SHR JUMP JUMPDEST SWAP1 POP DUP2 PUSH1 0x0 DUP1 PUSH2 0x100 EXP DUP2 SLOAD DUP2 PUSH20 0xFFFFFFFFFFFFFFFFFFFFFFFFFFFFFFFFFFFFFFFF MUL NOT AND SWAP1 DUP4 PUSH20 0xFFFFFFFFFFFFFFFFFFFFFFFFFFFFFFFFFFFFFFFF AND MUL OR SWAP1 SSTORE POP DUP2 PUSH20 0xFFFFFFFFFFFFFFFFFFFFFFFFFFFFFFFFFFFFFFFF AND DUP2 PUSH20 0xFFFFFFFFFFFFFFFFFFFFFFFFFFFFFFFFFFFFFFFF AND PUSH32 0xD18B5FD22306E373229B9439188228EDCA81207D1667F604DAF6CEF8AA3EE67 PUSH1 0x40 MLOAD PUSH1 0x40 MLOAD DUP1 SWAP2 SUB SWAP1 LOG3 POP POP JUMP JUMPDEST PUSH1 0x0 DUP1 PUSH1 0x0 SWAP1 SLOAD SWAP1 PUSH2 0x100 EXP SWAP1 DIV PUSH20 0xFFFFFFFFFFFFFFFFFFFFFFFFFFFFFFFFFFFFFFFF AND SWAP1 POP SWAP1 JUMP JUMPDEST DUP3 DUP1 SLOAD PUSH3 0x218 SWAP1 PUSH3 0x4CB JUMP JUMPDEST SWAP1 PUSH1 0x0 MSTORE PUSH1 0x20 PUSH1 0x0 KECCAK256 SWAP1 PUSH1 0x1F ADD PUSH1 0x20 SWAP1 DIV DUP2 ADD SWAP3 DUP3 PUSH3 0x23C JUMPI PUSH1 0x0 DUP6 SSTORE PUSH3 0x288 JUMP JUMPDEST DUP3 PUSH1 0x1F LT PUSH3 0x257 JUMPI DUP1 MLOAD PUSH1 0xFF NOT AND DUP4 DUP1 ADD OR DUP6 SSTORE PUSH3 0x288 JUMP JUMPDEST DUP3 DUP1 ADD PUSH1 0x1 ADD DUP6 SSTORE DUP3 ISZERO PUSH3 0x288 JUMPI SWAP2 DUP3 ADD JUMPDEST DUP3 DUP2 GT ISZERO PUSH3 0x287 JUMPI DUP3 MLOAD DUP3 SSTORE SWAP2 PUSH1 0x20 ADD SWAP2 SWAP1 PUSH1 0x1 ADD SWAP1 PUSH3 0x26A JUMP JUMPDEST JUMPDEST POP SWAP1 POP PUSH3 0x297 SWAP2 SWAP1 PUSH3 0x29B JUMP JUMPDEST POP SWAP1 JUMP JUMPDEST JUMPDEST DUP1 DUP3 GT ISZERO PUSH3 0x2B6 JUMPI PUSH1 0x0 DUP2 PUSH1 0x0 SWAP1 SSTORE POP PUSH1 0x1 ADD PUSH3 0x29C JUMP JUMPDEST POP SWAP1 JUMP JUMPDEST PUSH1 0x0 PUSH3 0x2D1 PUSH3 0x2CB DUP5 PUSH3 0x447 JUMP JUMPDEST PUSH3 0x41E JUMP JUMPDEST SWAP1 POP DUP3 DUP2 MSTORE PUSH1 0x20 DUP2 ADD DUP5 DUP5 DUP5 ADD GT ISZERO PUSH3 0x2F0 JUMPI PUSH3 0x2EF PUSH3 0x59A JUMP JUMPDEST JUMPDEST PUSH3 0x2FD DUP5 DUP3 DUP6 PUSH3 0x495 JUMP JUMPDEST POP SWAP4 SWAP3 POP POP POP JUMP JUMPDEST PUSH1 0x0 DUP3 PUSH1 0x1F DUP4 ADD SLT PUSH3 0x31D JUMPI PUSH3 0x31C PUSH3 0x595 JUMP JUMPDEST JUMPDEST DUP2 MLOAD PUSH3 0x32F DUP5 DUP3 PUSH1 0x20 DUP7 ADD PUSH3 0x2BA JUMP JUMPDEST SWAP2 POP POP SWAP3 SWAP2 POP POP JUMP JUMPDEST PUSH1 0x0 DUP2 MLOAD SWAP1 POP PUSH3 0x349 DUP2 PUSH3 0x5BA JUMP JUMPDEST SWAP3 SWAP2 POP POP JUMP JUMPDEST PUSH1 0x0 DUP1 PUSH1 0x0 DUP1 PUSH1 0x80 DUP6 DUP8 SUB SLT ISZERO PUSH3 0x36C JUMPI PUSH3 0x36B PUSH3 0x5A4 JUMP JUMPDEST JUMPDEST PUSH1 0x0 DUP6 ADD MLOAD PUSH8 0xFFFFFFFFFFFFFFFF DUP2 GT ISZERO PUSH3 0x38D JUMPI PUSH3 0x38C PUSH3 0x59F JUMP JUMPDEST JUMPDEST PUSH3 0x39B DUP8 DUP3 DUP9 ADD PUSH3 0x305 JUMP JUMPDEST SWAP5 POP POP PUSH1 0x20 DUP6 ADD MLOAD PUSH8 0xFFFFFFFFFFFFFFFF DUP2 GT ISZERO PUSH3 0x3BF JUMPI PUSH3 0x3BE PUSH3 0x59F JUMP JUMPDEST JUMPDEST PUSH3 0x3CD DUP8 DUP3 DUP9 ADD PUSH3 0x305 JUMP JUMPDEST SWAP4 POP POP PUSH1 0x40 DUP6 ADD MLOAD PUSH8 0xFFFFFFFFFFFFFFFF DUP2 GT ISZERO PUSH3 0x3F1 JUMPI PUSH3 0x3F0 PUSH3 0x59F JUMP JUMPDEST JUMPDEST PUSH3 0x3FF DUP8 DUP3 DUP9 ADD PUSH3 0x305 JUMP JUMPDEST SWAP3 POP POP PUSH1 0x60 PUSH3 0x412 DUP8 DUP3 DUP9 ADD PUSH3 0x338 JUMP JUMPDEST SWAP2 POP POP SWAP3 SWAP6 SWAP2 SWAP5 POP SWAP3 POP JUMP JUMPDEST PUSH1 0x0 PUSH3 0x42A PUSH3 0x43D JUMP JUMPDEST SWAP1 POP PUSH3 0x438 DUP3 DUP3 PUSH3 0x501 JUMP JUMPDEST SWAP2 SWAP1 POP JUMP JUMPDEST PUSH1 0x0 PUSH1 0x40 MLOAD SWAP1 POP SWAP1 JUMP JUMPDEST PUSH1 0x0 PUSH8 0xFFFFFFFFFFFFFFFF DUP3 GT ISZERO PUSH3 0x465 JUMPI PUSH3 0x464 PUSH3 0x566 JUMP JUMPDEST JUMPDEST PUSH3 0x470 DUP3 PUSH3 0x5A9 JUMP JUMPDEST SWAP1 POP PUSH1 0x20 DUP2 ADD SWAP1 POP SWAP2 SWAP1 POP JUMP JUMPDEST PUSH1 0x0 PUSH12 0xFFFFFFFFFFFFFFFFFFFFFFFF DUP3 AND SWAP1 POP SWAP2 SWAP1 POP JUMP JUMPDEST PUSH1 0x0 JUMPDEST DUP4 DUP2 LT ISZERO PUSH3 0x4B5 JUMPI DUP1 DUP3 ADD MLOAD DUP2 DUP5 ADD MSTORE PUSH1 0x20 DUP2 ADD SWAP1 POP PUSH3 0x498 JUMP JUMPDEST DUP4 DUP2 GT ISZERO PUSH3 0x4C5 JUMPI PUSH1 0x0 DUP5 DUP5 ADD MSTORE JUMPDEST POP POP POP POP JUMP JUMPDEST PUSH1 0x0 PUSH1 0x2 DUP3 DIV SWAP1 POP PUSH1 0x1 DUP3 AND DUP1 PUSH3 0x4E4 JUMPI PUSH1 0x7F DUP3 AND SWAP2 POP JUMPDEST PUSH1 0x20 DUP3 LT DUP2 EQ ISZERO PUSH3 0x4FB JUMPI PUSH3 0x4FA PUSH3 0x537 JUMP JUMPDEST JUMPDEST POP SWAP2 SWAP1 POP JUMP JUMPDEST PUSH3 0x50C DUP3 PUSH3 0x5A9 JUMP JUMPDEST DUP2 ADD DUP2 DUP2 LT PUSH8 0xFFFFFFFFFFFFFFFF DUP3 GT OR ISZERO PUSH3 0x52E JUMPI PUSH3 0x52D PUSH3 0x566 JUMP JUMPDEST JUMPDEST DUP1 PUSH1 0x40 MSTORE POP POP POP JUMP JUMPDEST PUSH32 0x4E487B7100000000000000000000000000000000000000000000000000000000 PUSH1 0x0 MSTORE PUSH1 0x22 PUSH1 0x4 MSTORE PUSH1 0x24 PUSH1 0x0 REVERT JUMPDEST PUSH32 0x4E487B7100000000000000000000000000000000000000000000000000000000 PUSH1 0x0 MSTORE PUSH1 0x41 PUSH1 0x4 MSTORE PUSH1 0x24 PUSH1 0x0 REVERT JUMPDEST PUSH1 0x0 DUP1 REVERT JUMPDEST PUSH1 0x0 DUP1 REVERT JUMPDEST PUSH1 0x0 DUP1 REVERT JUMPDEST PUSH1 0x0 DUP1 REVERT JUMPDEST PUSH1 0x0 PUSH1 0x1F NOT PUSH1 0x1F DUP4 ADD AND SWAP1 POP SWAP2 SWAP1 POP JUMP JUMPDEST PUSH3 0x5C5 DUP2 PUSH3 0x47D JUMP JUMPDEST DUP2 EQ PUSH3 0x5D1 JUMPI PUSH1 0x0 DUP1 REVERT JUMPDEST POP JUMP JUMPDEST PUSH2 0x2E50 DUP1 PUSH3 0x5E4 PUSH1 0x0 CODECOPY PUSH1 0x0 RETURN INVALID PUSH1 0x80 PUSH1 0x40 MSTORE CALLVALUE DUP1 ISZERO PUSH2 0x10 JUMPI PUSH1 0x0 DUP1 REVERT JUMPDEST POP PUSH1 0x4 CALLDATASIZE LT PUSH2 0x158 JUMPI PUSH1 0x0 CALLDATALOAD PUSH1 0xE0 SHR DUP1 PUSH4 0x8DA5CB5B GT PUSH2 0xC3 JUMPI DUP1 PUSH4 0xB88D4FDE GT PUSH2 0x7C JUMPI DUP1 PUSH4 0xB88D4FDE EQ PUSH2 0x3DA JUMPI DUP1 PUSH4 0xC4E18836 EQ PUSH2 0x3F6 JUMPI DUP1 PUSH4 0xC87B56DD EQ PUSH2 0x412 JUMPI DUP1 PUSH4 0xE985E9C5 EQ PUSH2 0x442 JUMPI DUP1 PUSH4 0xF2FDE38B EQ PUSH2 0x472 JUMPI DUP1 PUSH4 0xFA695A97 EQ PUSH2 0x48E JUMPI PUSH2 0x158 JUMP JUMPDEST DUP1 PUSH4 0x8DA5CB5B EQ PUSH2 0x318 JUMPI DUP1 PUSH4 0x95D89B41 EQ PUSH2 0x336 JUMPI DUP1 PUSH4 0xA22CB465 EQ PUSH2 0x354 JUMPI DUP1 PUSH4 0xA2E69613 EQ PUSH2 0x370 JUMPI DUP1 PUSH4 0xA709DC17 EQ PUSH2 0x3A0 JUMPI DUP1 PUSH4 0xAD2F852A EQ PUSH2 0x3BC JUMPI PUSH2 0x158 JUMP JUMPDEST DUP1 PUSH4 0x2A55205A GT PUSH2 0x115 JUMPI DUP1 PUSH4 0x2A55205A EQ PUSH2 0x22F JUMPI DUP1 PUSH4 0x42842E0E EQ PUSH2 0x260 JUMPI DUP1 PUSH4 0x6352211E EQ PUSH2 0x27C JUMPI DUP1 PUSH4 0x6C0360EB EQ PUSH2 0x2AC JUMPI DUP1 PUSH4 0x70A08231 EQ PUSH2 0x2CA JUMPI DUP1 PUSH4 0x73C7400E EQ PUSH2 0x2FA JUMPI PUSH2 0x158 JUMP JUMPDEST DUP1 PUSH4 0x1FFC9A7 EQ PUSH2 0x15D JUMPI DUP1 PUSH4 0x2FA7C47 EQ PUSH2 0x18D JUMPI DUP1 PUSH4 0x6FDDE03 EQ PUSH2 0x1A9 JUMPI DUP1 PUSH4 0x81812FC EQ PUSH2 0x1C7 JUMPI DUP1 PUSH4 0x95EA7B3 EQ PUSH2 0x1F7 JUMPI DUP1 PUSH4 0x23B872DD EQ PUSH2 0x213 JUMPI JUMPDEST PUSH1 0x0 DUP1 REVERT JUMPDEST PUSH2 0x177 PUSH1 0x4 DUP1 CALLDATASIZE SUB DUP2 ADD SWAP1 PUSH2 0x172 SWAP2 SWAP1 PUSH2 0x20AA JUMP JUMPDEST PUSH2 0x4AA JUMP JUMPDEST PUSH1 0x40 MLOAD PUSH2 0x184 SWAP2 SWAP1 PUSH2 0x2520 JUMP JUMPDEST PUSH1 0x40 MLOAD DUP1 SWAP2 SUB SWAP1 RETURN JUMPDEST PUSH2 0x1A7 PUSH1 0x4 DUP1 CALLDATASIZE SUB DUP2 ADD SWAP1 PUSH2 0x1A2 SWAP2 SWAP1 PUSH2 0x206A JUMP JUMPDEST PUSH2 0x56C JUMP JUMPDEST STOP JUMPDEST PUSH2 0x1B1 PUSH2 0x65E JUMP JUMPDEST PUSH1 0x40 MLOAD PUSH2 0x1BE SWAP2 SWAP1 PUSH2 0x253B JUMP JUMPDEST PUSH1 0x40 MLOAD DUP1 SWAP2 SUB SWAP1 RETURN JUMPDEST PUSH2 0x1E1 PUSH1 0x4 DUP1 CALLDATASIZE SUB DUP2 ADD SWAP1 PUSH2 0x1DC SWAP2 SWAP1 PUSH2 0x2104 JUMP JUMPDEST PUSH2 0x6EC JUMP JUMPDEST PUSH1 0x40 MLOAD PUSH2 0x1EE SWAP2 SWAP1 PUSH2 0x2446 JUMP JUMPDEST PUSH1 0x40 MLOAD DUP1 SWAP2 SUB SWAP1 RETURN JUMPDEST PUSH2 0x211 PUSH1 0x4 DUP1 CALLDATASIZE SUB DUP2 ADD SWAP1 PUSH2 0x20C SWAP2 SWAP1 PUSH2 0x1FEA JUMP JUMPDEST PUSH2 0x71F JUMP JUMPDEST STOP JUMPDEST PUSH2 0x22D PUSH1 0x4 DUP1 CALLDATASIZE SUB DUP2 ADD SWAP1 PUSH2 0x228 SWAP2 SWAP1 PUSH2 0x1ED4 JUMP JUMPDEST PUSH2 0x908 JUMP JUMPDEST STOP JUMPDEST PUSH2 0x249 PUSH1 0x4 DUP1 CALLDATASIZE SUB DUP2 ADD SWAP1 PUSH2 0x244 SWAP2 SWAP1 PUSH2 0x2131 JUMP JUMPDEST PUSH2 0xD08 JUMP JUMPDEST PUSH1 0x40 MLOAD PUSH2 0x257 SWAP3 SWAP2 SWAP1 PUSH2 0x24F7 JUMP JUMPDEST PUSH1 0x40 MLOAD DUP1 SWAP2 SUB SWAP1 RETURN JUMPDEST PUSH2 0x27A PUSH1 0x4 DUP1 CALLDATASIZE SUB DUP2 ADD SWAP1 PUSH2 0x275 SWAP2 SWAP1 PUSH2 0x1ED4 JUMP JUMPDEST PUSH2 0xD42 JUMP JUMPDEST STOP JUMPDEST PUSH2 0x296 PUSH1 0x4 DUP1 CALLDATASIZE SUB DUP2 ADD SWAP1 PUSH2 0x291 SWAP2 SWAP1 PUSH2 0x2104 JUMP JUMPDEST PUSH2 0xE89 JUMP JUMPDEST PUSH1 0x40 MLOAD PUSH2 0x2A3 SWAP2 SWAP1 PUSH2 0x2446 JUMP JUMPDEST PUSH1 0x40 MLOAD DUP1 SWAP2 SUB SWAP1 RETURN JUMPDEST PUSH2 0x2B4 PUSH2 0xEBC JUMP JUMPDEST PUSH1 0x40 MLOAD PUSH2 0x2C1 SWAP2 SWAP1 PUSH2 0x253B JUMP JUMPDEST PUSH1 0x40 MLOAD DUP1 SWAP2 SUB SWAP1 RETURN JUMPDEST PUSH2 0x2E4 PUSH1 0x4 DUP1 CALLDATASIZE SUB DUP2 ADD SWAP1 PUSH2 0x2DF SWAP2 SWAP1 PUSH2 0x1E67 JUMP JUMPDEST PUSH2 0xF4A JUMP JUMPDEST PUSH1 0x40 MLOAD PUSH2 0x2F1 SWAP2 SWAP1 PUSH2 0x26BD JUMP JUMPDEST PUSH1 0x40 MLOAD DUP1 SWAP2 SUB SWAP1 RETURN JUMPDEST PUSH2 0x302 PUSH2 0xF62 JUMP JUMPDEST PUSH1 0x40 MLOAD PUSH2 0x30F SWAP2 SWAP1 PUSH2 0x26D8 JUMP JUMPDEST PUSH1 0x40 MLOAD DUP1 SWAP2 SUB SWAP1 RETURN JUMPDEST PUSH2 0x320 PUSH2 0xF80 JUMP JUMPDEST PUSH1 0x40 MLOAD PUSH2 0x32D SWAP2 SWAP1 PUSH2 0x2446 JUMP JUMPDEST PUSH1 0x40 MLOAD DUP1 SWAP2 SUB SWAP1 RETURN JUMPDEST PUSH2 0x33E PUSH2 0xFA9 JUMP JUMPDEST PUSH1 0x40 MLOAD PUSH2 0x34B SWAP2 SWAP1 PUSH2 0x253B JUMP JUMPDEST PUSH1 0x40 MLOAD DUP1 SWAP2 SUB SWAP1 RETURN JUMPDEST PUSH2 0x36E PUSH1 0x4 DUP1 CALLDATASIZE SUB DUP2 ADD SWAP1 PUSH2 0x369 SWAP2 SWAP1 PUSH2 0x1FAA JUMP JUMPDEST PUSH2 0x1037 JUMP JUMPDEST STOP JUMPDEST PUSH2 0x38A PUSH1 0x4 DUP1 CALLDATASIZE SUB DUP2 ADD SWAP1 PUSH2 0x385 SWAP2 SWAP1 PUSH2 0x2104 JUMP JUMPDEST PUSH2 0x1134 JUMP JUMPDEST PUSH1 0x40 MLOAD PUSH2 0x397 SWAP2 SWAP1 PUSH2 0x26BD JUMP JUMPDEST PUSH1 0x40 MLOAD DUP1 SWAP2 SUB SWAP1 RETURN JUMPDEST PUSH2 0x3BA PUSH1 0x4 DUP1 CALLDATASIZE SUB DUP2 ADD SWAP1 PUSH2 0x3B5 SWAP2 SWAP1 PUSH2 0x202A JUMP JUMPDEST PUSH2 0x117E JUMP JUMPDEST STOP JUMPDEST PUSH2 0x3C4 PUSH2 0x12A2 JUMP JUMPDEST PUSH1 0x40 MLOAD PUSH2 0x3D1 SWAP2 SWAP1 PUSH2 0x2446 JUMP JUMPDEST PUSH1 0x40 MLOAD DUP1 SWAP2 SUB SWAP1 RETURN JUMPDEST PUSH2 0x3F4 PUSH1 0x4 DUP1 CALLDATASIZE SUB DUP2 ADD SWAP1 PUSH2 0x3EF SWAP2 SWAP1 PUSH2 0x1F27 JUMP JUMPDEST PUSH2 0x12C8 JUMP JUMPDEST STOP JUMPDEST PUSH2 0x410 PUSH1 0x4 DUP1 CALLDATASIZE SUB DUP2 ADD SWAP1 PUSH2 0x40B SWAP2 SWAP1 PUSH2 0x1FAA JUMP JUMPDEST PUSH2 0x1412 JUMP JUMPDEST STOP JUMPDEST PUSH2 0x42C PUSH1 0x4 DUP1 CALLDATASIZE SUB DUP2 ADD SWAP1 PUSH2 0x427 SWAP2 SWAP1 PUSH2 0x2104 JUMP JUMPDEST PUSH2 0x14E9 JUMP JUMPDEST PUSH1 0x40 MLOAD PUSH2 0x439 SWAP2 SWAP1 PUSH2 0x253B JUMP JUMPDEST PUSH1 0x40 MLOAD DUP1 SWAP2 SUB SWAP1 RETURN JUMPDEST PUSH2 0x45C PUSH1 0x4 DUP1 CALLDATASIZE SUB DUP2 ADD SWAP1 PUSH2 0x457 SWAP2 SWAP1 PUSH2 0x1E94 JUMP JUMPDEST PUSH2 0x1590 JUMP JUMPDEST PUSH1 0x40 MLOAD PUSH2 0x469 SWAP2 SWAP1 PUSH2 0x2520 JUMP JUMPDEST PUSH1 0x40 MLOAD DUP1 SWAP2 SUB SWAP1 RETURN JUMPDEST PUSH2 0x48C PUSH1 0x4 DUP1 CALLDATASIZE SUB DUP2 ADD SWAP1 PUSH2 0x487 SWAP2 SWAP1 PUSH2 0x1E67 JUMP JUMPDEST PUSH2 0x15BF JUMP JUMPDEST STOP JUMPDEST PUSH2 0x4A8 PUSH1 0x4 DUP1 CALLDATASIZE SUB DUP2 ADD SWAP1 PUSH2 0x4A3 SWAP2 SWAP1 PUSH2 0x1E67 JUMP JUMPDEST PUSH2 0x16AE JUMP JUMPDEST STOP JUMPDEST PUSH1 0x0 PUSH4 0x1FFC9A7 PUSH1 0xE0 SHL DUP3 PUSH28 0xFFFFFFFFFFFFFFFFFFFFFFFFFFFFFFFFFFFFFFFFFFFFFFFFFFFFFFFF NOT AND EQ DUP1 PUSH2 0x505 JUMPI POP PUSH4 0x80AC58CD PUSH1 0xE0 SHL DUP3 PUSH28 0xFFFFFFFFFFFFFFFFFFFFFFFFFFFFFFFFFFFFFFFFFFFFFFFFFFFFFFFF NOT AND EQ JUMPDEST DUP1 PUSH2 0x535 JUMPI POP PUSH4 0x5B5E139F PUSH1 0xE0 SHL DUP3 PUSH28 0xFFFFFFFFFFFFFFFFFFFFFFFFFFFFFFFFFFFFFFFFFFFFFFFFFFFFFFFF NOT AND EQ JUMPDEST DUP1 PUSH2 0x565 JUMPI POP PUSH4 0x2A55205A PUSH1 0xE0 SHL DUP3 PUSH28 0xFFFFFFFFFFFFFFFFFFFFFFFFFFFFFFFFFFFFFFFFFFFFFFFFFFFFFFFF NOT AND EQ JUMPDEST SWAP1 POP SWAP2 SWAP1 POP JUMP JUMPDEST PUSH2 0x574 PUSH2 0xF80 JUMP JUMPDEST PUSH20 0xFFFFFFFFFFFFFFFFFFFFFFFFFFFFFFFFFFFFFFFF AND PUSH2 0x592 PUSH2 0x179E JUMP JUMPDEST PUSH20 0xFFFFFFFFFFFFFFFFFFFFFFFFFFFFFFFFFFFFFFFF AND EQ PUSH2 0x5E8 JUMPI PUSH1 0x40 MLOAD PUSH32 0x8C379A000000000000000000000000000000000000000000000000000000000 DUP2 MSTORE PUSH1 0x4 ADD PUSH2 0x5DF SWAP1 PUSH2 0x255D JUMP JUMPDEST PUSH1 0x40 MLOAD DUP1 SWAP2 SUB SWAP1 REVERT JUMPDEST DUP2 PUSH1 0x9 PUSH1 0xC PUSH2 0x100 EXP DUP2 SLOAD DUP2 PUSH20 0xFFFFFFFFFFFFFFFFFFFFFFFFFFFFFFFFFFFFFFFF MUL NOT AND SWAP1 DUP4 PUSH20 0xFFFFFFFFFFFFFFFFFFFFFFFFFFFFFFFFFFFFFFFF AND MUL OR SWAP1 SSTORE POP DUP1 PUSH1 0x9 PUSH1 0x0 PUSH2 0x100 EXP DUP2 SLOAD DUP2 PUSH12 0xFFFFFFFFFFFFFFFFFFFFFFFF MUL NOT AND SWAP1 DUP4 PUSH12 0xFFFFFFFFFFFFFFFFFFFFFFFF AND MUL OR SWAP1 SSTORE POP POP POP JUMP JUMPDEST PUSH1 0x1 DUP1 SLOAD PUSH2 0x66B SWAP1 PUSH2 0x2983 JUMP JUMPDEST DUP1 PUSH1 0x1F ADD PUSH1 0x20 DUP1 SWAP2 DIV MUL PUSH1 0x20 ADD PUSH1 0x40 MLOAD SWAP1 DUP2 ADD PUSH1 0x40 MSTORE DUP1 SWAP3 SWAP2 SWAP1 DUP2 DUP2 MSTORE PUSH1 0x20 ADD DUP3 DUP1 SLOAD PUSH2 0x697 SWAP1 PUSH2 0x2983 JUMP JUMPDEST DUP1 ISZERO PUSH2 0x6E4 JUMPI DUP1 PUSH1 0x1F LT PUSH2 0x6B9 JUMPI PUSH2 0x100 DUP1 DUP4 SLOAD DIV MUL DUP4 MSTORE SWAP2 PUSH1 0x20 ADD SWAP2 PUSH2 0x6E4 JUMP JUMPDEST DUP3 ADD SWAP2 SWAP1 PUSH1 0x0 MSTORE PUSH1 0x20 PUSH1 0x0 KECCAK256 SWAP1 JUMPDEST DUP2 SLOAD DUP2 MSTORE SWAP1 PUSH1 0x1 ADD SWAP1 PUSH1 0x20 ADD DUP1 DUP4 GT PUSH2 0x6C7 JUMPI DUP3 SWAP1 SUB PUSH1 0x1F AND DUP3 ADD SWAP2 JUMPDEST POP POP POP POP POP DUP2 JUMP JUMPDEST PUSH1 0x5 PUSH1 0x20 MSTORE DUP1 PUSH1 0x0 MSTORE PUSH1 0x40 PUSH1 0x0 KECCAK256 PUSH1 0x0 SWAP2 POP SLOAD SWAP1 PUSH2 0x100 EXP SWAP1 DIV PUSH20 0xFFFFFFFFFFFFFFFFFFFFFFFFFFFFFFFFFFFFFFFF AND DUP2 JUMP JUMPDEST PUSH1 0x0 PUSH1 0x4 PUSH1 0x0 DUP4 DUP2 MSTORE PUSH1 0x20 ADD SWAP1 DUP2 MSTORE PUSH1 0x20 ADD PUSH1 0x0 KECCAK256 PUSH1 0x0 SWAP1 SLOAD SWAP1 PUSH2 0x100 EXP SWAP1 DIV PUSH20 0xFFFFFFFFFFFFFFFFFFFFFFFFFFFFFFFFFFFFFFFF AND SWAP1 POP DUP1 PUSH20 0xFFFFFFFFFFFFFFFFFFFFFFFFFFFFFFFFFFFFFFFF AND CALLER PUSH20 0xFFFFFFFFFFFFFFFFFFFFFFFFFFFFFFFFFFFFFFFF AND EQ DUP1 PUSH2 0x817 JUMPI POP PUSH1 0x6 PUSH1 0x0 DUP3 PUSH20 0xFFFFFFFFFFFFFFFFFFFFFFFFFFFFFFFFFFFFFFFF AND PUSH20 0xFFFFFFFFFFFFFFFFFFFFFFFFFFFFFFFFFFFFFFFF AND DUP2 MSTORE PUSH1 0x20 ADD SWAP1 DUP2 MSTORE PUSH1 0x20 ADD PUSH1 0x0 KECCAK256 PUSH1 0x0 CALLER PUSH20 0xFFFFFFFFFFFFFFFFFFFFFFFFFFFFFFFFFFFFFFFF AND PUSH20 0xFFFFFFFFFFFFFFFFFFFFFFFFFFFFFFFFFFFFFFFF AND DUP2 MSTORE PUSH1 0x20 ADD SWAP1 DUP2 MSTORE PUSH1 0x20 ADD PUSH1 0x0 KECCAK256 PUSH1 0x0 SWAP1 SLOAD SWAP1 PUSH2 0x100 EXP SWAP1 DIV PUSH1 0xFF AND JUMPDEST PUSH2 0x856 JUMPI PUSH1 0x40 MLOAD PUSH32 0x8C379A000000000000000000000000000000000000000000000000000000000 DUP2 MSTORE PUSH1 0x4 ADD PUSH2 0x84D SWAP1 PUSH2 0x269D JUMP JUMPDEST PUSH1 0x40 MLOAD DUP1 SWAP2 SUB SWAP1 REVERT JUMPDEST DUP3 PUSH1 0x5 PUSH1 0x0 DUP5 DUP2 MSTORE PUSH1 0x20 ADD SWAP1 DUP2 MSTORE PUSH1 0x20 ADD PUSH1 0x0 KECCAK256 PUSH1 0x0 PUSH2 0x100 EXP DUP2 SLOAD DUP2 PUSH20 0xFFFFFFFFFFFFFFFFFFFFFFFFFFFFFFFFFFFFFFFF MUL NOT AND SWAP1 DUP4 PUSH20 0xFFFFFFFFFFFFFFFFFFFFFFFFFFFFFFFFFFFFFFFF AND MUL OR SWAP1 SSTORE POP DUP2 DUP4 PUSH20 0xFFFFFFFFFFFFFFFFFFFFFFFFFFFFFFFFFFFFFFFF AND DUP3 PUSH20 0xFFFFFFFFFFFFFFFFFFFFFFFFFFFFFFFFFFFFFFFF AND PUSH32 0x8C5BE1E5EBEC7D5BD14F71427D1E84F3DD0314C0F7B2291E5B200AC8C7C3B925 PUSH1 0x40 MLOAD PUSH1 0x40 MLOAD DUP1 SWAP2 SUB SWAP1 LOG4 POP POP POP JUMP JUMPDEST PUSH1 0x4 PUSH1 0x0 DUP3 DUP2 MSTORE PUSH1 0x20 ADD SWAP1 DUP2 MSTORE PUSH1 0x20 ADD PUSH1 0x0 KECCAK256 PUSH1 0x0 SWAP1 SLOAD SWAP1 PUSH2 0x100 EXP SWAP1 DIV PUSH20 0xFFFFFFFFFFFFFFFFFFFFFFFFFFFFFFFFFFFFFFFF AND PUSH20 0xFFFFFFFFFFFFFFFFFFFFFFFFFFFFFFFFFFFFFFFF AND DUP4 PUSH20 0xFFFFFFFFFFFFFFFFFFFFFFFFFFFFFFFFFFFFFFFF AND EQ PUSH2 0x9A9 JUMPI PUSH1 0x40 MLOAD PUSH32 0x8C379A000000000000000000000000000000000000000000000000000000000 DUP2 MSTORE PUSH1 0x4 ADD PUSH2 0x9A0 SWAP1 PUSH2 0x259D JUMP JUMPDEST PUSH1 0x40 MLOAD DUP1 SWAP2 SUB SWAP1 REVERT JUMPDEST PUSH1 0x0 PUSH20 0xFFFFFFFFFFFFFFFFFFFFFFFFFFFFFFFFFFFFFFFF AND DUP3 PUSH20 0xFFFFFFFFFFFFFFFFFFFFFFFFFFFFFFFFFFFFFFFF AND EQ ISZERO PUSH2 0xA19 JUMPI PUSH1 0x40 MLOAD PUSH32 0x8C379A000000000000000000000000000000000000000000000000000000000 DUP2 MSTORE PUSH1 0x4 ADD PUSH2 0xA10 SWAP1 PUSH2 0x257D JUMP JUMPDEST PUSH1 0x40 MLOAD DUP1 SWAP2 SUB SWAP1 REVERT JUMPDEST DUP3 PUSH20 0xFFFFFFFFFFFFFFFFFFFFFFFFFFFFFFFFFFFFFFFF AND CALLER PUSH20 0xFFFFFFFFFFFFFFFFFFFFFFFFFFFFFFFFFFFFFFFF AND EQ DUP1 PUSH2 0xAD9 JUMPI POP PUSH1 0x6 PUSH1 0x0 DUP5 PUSH20 0xFFFFFFFFFFFFFFFFFFFFFFFFFFFFFFFFFFFFFFFF AND PUSH20 0xFFFFFFFFFFFFFFFFFFFFFFFFFFFFFFFFFFFFFFFF AND DUP2 MSTORE PUSH1 0x20 ADD SWAP1 DUP2 MSTORE PUSH1 0x20 ADD PUSH1 0x0 KECCAK256 PUSH1 0x0 CALLER PUSH20 0xFFFFFFFFFFFFFFFFFFFFFFFFFFFFFFFFFFFFFFFF AND PUSH20 0xFFFFFFFFFFFFFFFFFFFFFFFFFFFFFFFFFFFFFFFF AND DUP2 MSTORE PUSH1 0x20 ADD SWAP1 DUP2 MSTORE PUSH1 0x20 ADD PUSH1 0x0 KECCAK256 PUSH1 0x0 SWAP1 SLOAD SWAP1 PUSH2 0x100 EXP SWAP1 DIV PUSH1 0xFF AND JUMPDEST DUP1 PUSH2 0xB42 JUMPI POP PUSH1 0x5 PUSH1 0x0 DUP3 DUP2 MSTORE PUSH1 0x20 ADD SWAP1 DUP2 MSTORE PUSH1 0x20 ADD PUSH1 0x0 KECCAK256 PUSH1 0x0 SWAP1 SLOAD SWAP1 PUSH2 0x100 EXP SWAP1 DIV PUSH20 0xFFFFFFFFFFFFFFFFFFFFFFFFFFFFFFFFFFFFFFFF AND PUSH20 0xFFFFFFFFFFFFFFFFFFFFFFFFFFFFFFFFFFFFFFFF AND CALLER PUSH20 0xFFFFFFFFFFFFFFFFFFFFFFFFFFFFFFFFFFFFFFFF AND EQ JUMPDEST PUSH2 0xB81 JUMPI PUSH1 0x40 MLOAD PUSH32 0x8C379A000000000000000000000000000000000000000000000000000000000 DUP2 MSTORE PUSH1 0x4 ADD PUSH2 0xB78 SWAP1 PUSH2 0x261D JUMP JUMPDEST PUSH1 0x40 MLOAD DUP1 SWAP2 SUB SWAP1 REVERT JUMPDEST PUSH1 0x3 PUSH1 0x0 DUP5 PUSH20 0xFFFFFFFFFFFFFFFFFFFFFFFFFFFFFFFFFFFFFFFF AND PUSH20 0xFFFFFFFFFFFFFFFFFFFFFFFFFFFFFFFFFFFFFFFF AND DUP2 MSTORE PUSH1 0x20 ADD SWAP1 DUP2 MSTORE PUSH1 0x20 ADD PUSH1 0x0 KECCAK256 PUSH1 0x0 DUP2 SLOAD DUP1 SWAP3 SWAP2 SWAP1 PUSH1 0x1 SWAP1 SUB SWAP2 SWAP1 POP SSTORE POP PUSH1 0x3 PUSH1 0x0 DUP4 PUSH20 0xFFFFFFFFFFFFFFFFFFFFFFFFFFFFFFFFFFFFFFFF AND PUSH20 0xFFFFFFFFFFFFFFFFFFFFFFFFFFFFFFFFFFFFFFFF AND DUP2 MSTORE PUSH1 0x20 ADD SWAP1 DUP2 MSTORE PUSH1 0x20 ADD PUSH1 0x0 KECCAK256 PUSH1 0x0 DUP2 SLOAD DUP1 SWAP3 SWAP2 SWAP1 PUSH1 0x1 ADD SWAP2 SWAP1 POP SSTORE POP DUP2 PUSH1 0x4 PUSH1 0x0 DUP4 DUP2 MSTORE PUSH1 0x20 ADD SWAP1 DUP2 MSTORE PUSH1 0x20 ADD PUSH1 0x0 KECCAK256 PUSH1 0x0 PUSH2 0x100 EXP DUP2 SLOAD DUP2 PUSH20 0xFFFFFFFFFFFFFFFFFFFFFFFFFFFFFFFFFFFFFFFF MUL NOT AND SWAP1 DUP4 PUSH20 0xFFFFFFFFFFFFFFFFFFFFFFFFFFFFFFFFFFFFFFFF AND MUL OR SWAP1 SSTORE POP PUSH1 0x5 PUSH1 0x0 DUP3 DUP2 MSTORE PUSH1 0x20 ADD SWAP1 DUP2 MSTORE PUSH1 0x20 ADD PUSH1 0x0 KECCAK256 PUSH1 0x0 PUSH2 0x100 EXP DUP2 SLOAD SWAP1 PUSH20 0xFFFFFFFFFFFFFFFFFFFFFFFFFFFFFFFFFFFFFFFF MUL NOT AND SWAP1 SSTORE DUP1 DUP3 PUSH20 0xFFFFFFFFFFFFFFFFFFFFFFFFFFFFFFFFFFFFFFFF AND DUP5 PUSH20 0xFFFFFFFFFFFFFFFFFFFFFFFFFFFFFFFFFFFFFFFF AND PUSH32 0xDDF252AD1BE2C89B69C2B068FC378DAA952BA7F163C4A11628F55A4DF523B3EF PUSH1 0x40 MLOAD PUSH1 0x40 MLOAD DUP1 SWAP2 SUB SWAP1 LOG4 POP POP POP JUMP JUMPDEST PUSH1 0x0 DUP1 PUSH1 0x9 PUSH1 0xC SWAP1 SLOAD SWAP1 PUSH2 0x100 EXP SWAP1 DIV PUSH20 0xFFFFFFFFFFFFFFFFFFFFFFFFFFFFFFFFFFFFFFFF AND PUSH2 0xD37 DUP5 PUSH2 0x1134 JUMP JUMPDEST SWAP2 POP SWAP2 POP SWAP3 POP SWAP3 SWAP1 POP JUMP JUMPDEST PUSH2 0xD4D DUP4 DUP4 DUP4 PUSH2 0x908 JUMP JUMPDEST PUSH1 0x0 DUP3 PUSH20 0xFFFFFFFFFFFFFFFFFFFFFFFFFFFFFFFFFFFFFFFF AND EXTCODESIZE EQ DUP1 PUSH2 0xE45 JUMPI POP PUSH4 0x150B7A02 PUSH1 0xE0 SHL PUSH28 0xFFFFFFFFFFFFFFFFFFFFFFFFFFFFFFFFFFFFFFFFFFFFFFFFFFFFFFFF NOT AND DUP3 PUSH20 0xFFFFFFFFFFFFFFFFFFFFFFFFFFFFFFFFFFFFFFFF AND PUSH4 0x150B7A02 CALLER DUP7 DUP6 PUSH1 0x40 MLOAD DUP5 PUSH4 0xFFFFFFFF AND PUSH1 0xE0 SHL DUP2 MSTORE PUSH1 0x4 ADD PUSH2 0xDD2 SWAP4 SWAP3 SWAP2 SWAP1 PUSH2 0x24AD JUMP JUMPDEST PUSH1 0x20 PUSH1 0x40 MLOAD DUP1 DUP4 SUB DUP2 PUSH1 0x0 DUP8 DUP1 EXTCODESIZE ISZERO DUP1 ISZERO PUSH2 0xDEC JUMPI PUSH1 0x0 DUP1 REVERT JUMPDEST POP GAS CALL ISZERO DUP1 ISZERO PUSH2 0xE00 JUMPI RETURNDATASIZE PUSH1 0x0 DUP1 RETURNDATACOPY RETURNDATASIZE PUSH1 0x0 REVERT JUMPDEST POP POP POP POP PUSH1 0x40 MLOAD RETURNDATASIZE PUSH1 0x1F NOT PUSH1 0x1F DUP3 ADD AND DUP3 ADD DUP1 PUSH1 0x40 MSTORE POP DUP2 ADD SWAP1 PUSH2 0xE24 SWAP2 SWAP1 PUSH2 0x20D7 JUMP JUMPDEST PUSH28 0xFFFFFFFFFFFFFFFFFFFFFFFFFFFFFFFFFFFFFFFFFFFFFFFFFFFFFFFF NOT AND EQ JUMPDEST PUSH2 0xE84 JUMPI PUSH1 0x40 MLOAD PUSH32 0x8C379A000000000000000000000000000000000000000000000000000000000 DUP2 MSTORE PUSH1 0x4 ADD PUSH2 0xE7B SWAP1 PUSH2 0x25DD JUMP JUMPDEST PUSH1 0x40 MLOAD DUP1 SWAP2 SUB SWAP1 REVERT JUMPDEST POP POP POP JUMP JUMPDEST PUSH1 0x4 PUSH1 0x20 MSTORE DUP1 PUSH1 0x0 MSTORE PUSH1 0x40 PUSH1 0x0 KECCAK256 PUSH1 0x0 SWAP2 POP SLOAD SWAP1 PUSH2 0x100 EXP SWAP1 DIV PUSH20 0xFFFFFFFFFFFFFFFFFFFFFFFFFFFFFFFFFFFFFFFF AND DUP2 JUMP JUMPDEST PUSH1 0x7 DUP1 SLOAD PUSH2 0xEC9 SWAP1 PUSH2 0x2983 JUMP JUMPDEST DUP1 PUSH1 0x1F ADD PUSH1 0x20 DUP1 SWAP2 DIV MUL PUSH1 0x20 ADD PUSH1 0x40 MLOAD SWAP1 DUP2 ADD PUSH1 0x40 MSTORE DUP1 SWAP3 SWAP2 SWAP1 DUP2 DUP2 MSTORE PUSH1 0x20 ADD DUP3 DUP1 SLOAD PUSH2 0xEF5 SWAP1 PUSH2 0x2983 JUMP JUMPDEST DUP1 ISZERO PUSH2 0xF42 JUMPI DUP1 PUSH1 0x1F LT PUSH2 0xF17 JUMPI PUSH2 0x100 DUP1 DUP4 SLOAD DIV MUL DUP4 MSTORE SWAP2 PUSH1 0x20 ADD SWAP2 PUSH2 0xF42 JUMP JUMPDEST DUP3 ADD SWAP2 SWAP1 PUSH1 0x0 MSTORE PUSH1 0x20 PUSH1 0x0 KECCAK256 SWAP1 JUMPDEST DUP2 SLOAD DUP2 MSTORE SWAP1 PUSH1 0x1 ADD SWAP1 PUSH1 0x20 ADD DUP1 DUP4 GT PUSH2 0xF25 JUMPI DUP3 SWAP1 SUB PUSH1 0x1F AND DUP3 ADD SWAP2 JUMPDEST POP POP POP POP POP DUP2 JUMP JUMPDEST PUSH1 0x3 PUSH1 0x20 MSTORE DUP1 PUSH1 0x0 MSTORE PUSH1 0x40 PUSH1 0x0 KECCAK256 PUSH1 0x0 SWAP2 POP SWAP1 POP SLOAD DUP2 JUMP JUMPDEST PUSH1 0x9 PUSH1 0x0 SWAP1 SLOAD SWAP1 PUSH2 0x100 EXP SWAP1 DIV PUSH12 0xFFFFFFFFFFFFFFFFFFFFFFFF AND DUP2 JUMP JUMPDEST PUSH1 0x0 DUP1 PUSH1 0x0 SWAP1 SLOAD SWAP1 PUSH2 0x100 EXP SWAP1 DIV PUSH20 0xFFFFFFFFFFFFFFFFFFFFFFFFFFFFFFFFFFFFFFFF AND SWAP1 POP SWAP1 JUMP JUMPDEST PUSH1 0x2 DUP1 SLOAD PUSH2 0xFB6 SWAP1 PUSH2 0x2983 JUMP JUMPDEST DUP1 PUSH1 0x1F ADD PUSH1 0x20 DUP1 SWAP2 DIV MUL PUSH1 0x20 ADD PUSH1 0x40 MLOAD SWAP1 DUP2 ADD PUSH1 0x40 MSTORE DUP1 SWAP3 SWAP2 SWAP1 DUP2 DUP2 MSTORE PUSH1 0x20 ADD DUP3 DUP1 SLOAD PUSH2 0xFE2 SWAP1 PUSH2 0x2983 JUMP JUMPDEST DUP1 ISZERO PUSH2 0x102F JUMPI DUP1 PUSH1 0x1F LT PUSH2 0x1004 JUMPI PUSH2 0x100 DUP1 DUP4 SLOAD DIV MUL DUP4 MSTORE SWAP2 PUSH1 0x20 ADD SWAP2 PUSH2 0x102F JUMP JUMPDEST DUP3 ADD SWAP2 SWAP1 PUSH1 0x0 MSTORE PUSH1 0x20 PUSH1 0x0 KECCAK256 SWAP1 JUMPDEST DUP2 SLOAD DUP2 MSTORE SWAP1 PUSH1 0x1 ADD SWAP1 PUSH1 0x20 ADD DUP1 DUP4 GT PUSH2 0x1012 JUMPI DUP3 SWAP1 SUB PUSH1 0x1F AND DUP3 ADD SWAP2 JUMPDEST POP POP POP POP POP DUP2 JUMP JUMPDEST DUP1 PUSH1 0x6 PUSH1 0x0 CALLER PUSH20 0xFFFFFFFFFFFFFFFFFFFFFFFFFFFFFFFFFFFFFFFF AND PUSH20 0xFFFFFFFFFFFFFFFFFFFFFFFFFFFFFFFFFFFFFFFF AND DUP2 MSTORE PUSH1 0x20 ADD SWAP1 DUP2 MSTORE PUSH1 0x20 ADD PUSH1 0x0 KECCAK256 PUSH1 0x0 DUP5 PUSH20 0xFFFFFFFFFFFFFFFFFFFFFFFFFFFFFFFFFFFFFFFF AND PUSH20 0xFFFFFFFFFFFFFFFFFFFFFFFFFFFFFFFFFFFFFFFF AND DUP2 MSTORE PUSH1 0x20 ADD SWAP1 DUP2 MSTORE PUSH1 0x20 ADD PUSH1 0x0 KECCAK256 PUSH1 0x0 PUSH2 0x100 EXP DUP2 SLOAD DUP2 PUSH1 0xFF MUL NOT AND SWAP1 DUP4 ISZERO ISZERO MUL OR SWAP1 SSTORE POP DUP2 PUSH20 0xFFFFFFFFFFFFFFFFFFFFFFFFFFFFFFFFFFFFFFFF AND CALLER PUSH20 0xFFFFFFFFFFFFFFFFFFFFFFFFFFFFFFFFFFFFFFFF AND PUSH32 0x17307EAB39AB6107E8899845AD3D59BD9653F200F220920489CA2B5937696C31 DUP4 PUSH1 0x40 MLOAD PUSH2 0x1128 SWAP2 SWAP1 PUSH2 0x2520 JUMP JUMPDEST PUSH1 0x40 MLOAD DUP1 SWAP2 SUB SWAP1 LOG3 POP POP JUMP JUMPDEST PUSH1 0x0 PUSH1 0x9 PUSH1 0x0 SWAP1 SLOAD SWAP1 PUSH2 0x100 EXP SWAP1 DIV PUSH12 0xFFFFFFFFFFFFFFFFFFFFFFFF AND PUSH12 0xFFFFFFFFFFFFFFFFFFFFFFFF AND PUSH2 0x2710 DUP4 PUSH2 0x116D SWAP2 SWAP1 PUSH2 0x27E2 JUMP JUMPDEST PUSH2 0x1177 SWAP2 SWAP1 PUSH2 0x2813 JUMP JUMPDEST SWAP1 POP SWAP2 SWAP1 POP JUMP JUMPDEST PUSH1 0xA PUSH1 0x0 CALLER PUSH20 0xFFFFFFFFFFFFFFFFFFFFFFFFFFFFFFFFFFFFFFFF AND PUSH20 0xFFFFFFFFFFFFFFFFFFFFFFFFFFFFFFFFFFFFFFFF AND DUP2 MSTORE PUSH1 0x20 ADD SWAP1 DUP2 MSTORE PUSH1 0x20 ADD PUSH1 0x0 KECCAK256 PUSH1 0x0 SWAP1 SLOAD SWAP1 PUSH2 0x100 EXP SWAP1 DIV PUSH1 0xFF AND DUP1 PUSH2 0x1208 JUMPI POP PUSH2 0x11D9 PUSH2 0xF80 JUMP JUMPDEST PUSH20 0xFFFFFFFFFFFFFFFFFFFFFFFFFFFFFFFFFFFFFFFF AND CALLER PUSH20 0xFFFFFFFFFFFFFFFFFFFFFFFFFFFFFFFFFFFFFFFF AND EQ JUMPDEST PUSH2 0x1247 JUMPI PUSH1 0x40 MLOAD PUSH32 0x8C379A000000000000000000000000000000000000000000000000000000000 DUP2 MSTORE PUSH1 0x4 ADD PUSH2 0x123E SWAP1 PUSH2 0x263D JUMP JUMPDEST PUSH1 0x40 MLOAD DUP1 SWAP2 SUB SWAP1 REVERT JUMPDEST PUSH1 0x0 JUMPDEST DUP2 PUSH8 0xFFFFFFFFFFFFFFFF AND DUP2 PUSH8 0xFFFFFFFFFFFFFFFF AND LT ISZERO PUSH2 0x129D JUMPI PUSH1 0x8 PUSH1 0x0 DUP2 SLOAD DUP1 SWAP3 SWAP2 SWAP1 PUSH2 0x1279 SWAP1 PUSH2 0x29E6 JUMP JUMPDEST SWAP2 SWAP1 POP SSTORE POP PUSH2 0x128A DUP4 PUSH1 0x8 SLOAD PUSH2 0x17A6 JUMP JUMPDEST DUP1 DUP1 PUSH2 0x1295 SWAP1 PUSH2 0x2A2F JUMP JUMPDEST SWAP2 POP POP PUSH2 0x124A JUMP JUMPDEST POP POP POP JUMP JUMPDEST PUSH1 0x9 PUSH1 0xC SWAP1 SLOAD SWAP1 PUSH2 0x100 EXP SWAP1 DIV PUSH20 0xFFFFFFFFFFFFFFFFFFFFFFFFFFFFFFFFFFFFFFFF AND DUP2 JUMP JUMPDEST PUSH2 0x12D3 DUP5 DUP5 DUP5 PUSH2 0x908 JUMP JUMPDEST PUSH1 0x0 DUP4 PUSH20 0xFFFFFFFFFFFFFFFFFFFFFFFFFFFFFFFFFFFFFFFF AND EXTCODESIZE EQ DUP1 PUSH2 0x13CD JUMPI POP PUSH4 0x150B7A02 PUSH1 0xE0 SHL PUSH28 0xFFFFFFFFFFFFFFFFFFFFFFFFFFFFFFFFFFFFFFFFFFFFFFFFFFFFFFFF NOT AND DUP4 PUSH20 0xFFFFFFFFFFFFFFFFFFFFFFFFFFFFFFFFFFFFFFFF AND PUSH4 0x150B7A02 CALLER DUP8 DUP7 DUP7 PUSH1 0x40 MLOAD DUP6 PUSH4 0xFFFFFFFF AND PUSH1 0xE0 SHL DUP2 MSTORE PUSH1 0x4 ADD PUSH2 0x135A SWAP5 SWAP4 SWAP3 SWAP2 SWAP1 PUSH2 0x2461 JUMP JUMPDEST PUSH1 0x20 PUSH1 0x40 MLOAD DUP1 DUP4 SUB DUP2 PUSH1 0x0 DUP8 DUP1 EXTCODESIZE ISZERO DUP1 ISZERO PUSH2 0x1374 JUMPI PUSH1 0x0 DUP1 REVERT JUMPDEST POP GAS CALL ISZERO DUP1 ISZERO PUSH2 0x1388 JUMPI RETURNDATASIZE PUSH1 0x0 DUP1 RETURNDATACOPY RETURNDATASIZE PUSH1 0x0 REVERT JUMPDEST POP POP POP POP PUSH1 0x40 MLOAD RETURNDATASIZE PUSH1 0x1F NOT PUSH1 0x1F DUP3 ADD AND DUP3 ADD DUP1 PUSH1 0x40 MSTORE POP DUP2 ADD SWAP1 PUSH2 0x13AC SWAP2 SWAP1 PUSH2 0x20D7 JUMP JUMPDEST PUSH28 0xFFFFFFFFFFFFFFFFFFFFFFFFFFFFFFFFFFFFFFFFFFFFFFFFFFFFFFFF NOT AND EQ JUMPDEST PUSH2 0x140C JUMPI PUSH1 0x40 MLOAD PUSH32 0x8C379A000000000000000000000000000000000000000000000000000000000 DUP2 MSTORE PUSH1 0x4 ADD PUSH2 0x1403 SWAP1 PUSH2 0x25DD JUMP JUMPDEST PUSH1 0x40 MLOAD DUP1 SWAP2 SUB SWAP1 REVERT JUMPDEST POP POP POP POP JUMP JUMPDEST PUSH2 0x141A PUSH2 0xF80 JUMP JUMPDEST PUSH20 0xFFFFFFFFFFFFFFFFFFFFFFFFFFFFFFFFFFFFFFFF AND PUSH2 0x1438 PUSH2 0x179E JUMP JUMPDEST PUSH20 0xFFFFFFFFFFFFFFFFFFFFFFFFFFFFFFFFFFFFFFFF AND EQ PUSH2 0x148E JUMPI PUSH1 0x40 MLOAD PUSH32 0x8C379A000000000000000000000000000000000000000000000000000000000 DUP2 MSTORE PUSH1 0x4 ADD PUSH2 0x1485 SWAP1 PUSH2 0x255D JUMP JUMPDEST PUSH1 0x40 MLOAD DUP1 SWAP2 SUB SWAP1 REVERT JUMPDEST DUP1 PUSH1 0xA PUSH1 0x0 DUP5 PUSH20 0xFFFFFFFFFFFFFFFFFFFFFFFFFFFFFFFFFFFFFFFF AND PUSH20 0xFFFFFFFFFFFFFFFFFFFFFFFFFFFFFFFFFFFFFFFF AND DUP2 MSTORE PUSH1 0x20 ADD SWAP1 DUP2 MSTORE PUSH1 0x20 ADD PUSH1 0x0 KECCAK256 PUSH1 0x0 PUSH2 0x100 EXP DUP2 SLOAD DUP2 PUSH1 0xFF MUL NOT AND SWAP1 DUP4 ISZERO ISZERO MUL OR SWAP1 SSTORE POP POP POP JUMP JUMPDEST PUSH1 0x60 PUSH2 0x14F4 DUP3 PUSH2 0x18EC JUMP JUMPDEST PUSH2 0x1533 JUMPI PUSH1 0x40 MLOAD PUSH32 0x8C379A000000000000000000000000000000000000000000000000000000000 DUP2 MSTORE PUSH1 0x4 ADD PUSH2 0x152A SWAP1 PUSH2 0x25FD JUMP JUMPDEST PUSH1 0x40 MLOAD DUP1 SWAP2 SUB SWAP1 REVERT JUMPDEST PUSH1 0x0 PUSH2 0x153D PUSH2 0x195E JUMP JUMPDEST SWAP1 POP PUSH1 0x0 DUP2 MLOAD GT PUSH2 0x155D JUMPI PUSH1 0x40 MLOAD DUP1 PUSH1 0x20 ADD PUSH1 0x40 MSTORE DUP1 PUSH1 0x0 DUP2 MSTORE POP PUSH2 0x1588 JUMP JUMPDEST DUP1 PUSH2 0x1567 DUP5 PUSH2 0x19F0 JUMP JUMPDEST PUSH1 0x40 MLOAD PUSH1 0x20 ADD PUSH2 0x1578 SWAP3 SWAP2 SWAP1 PUSH2 0x2417 JUMP JUMPDEST PUSH1 0x40 MLOAD PUSH1 0x20 DUP2 DUP4 SUB SUB DUP2 MSTORE SWAP1 PUSH1 0x40 MSTORE JUMPDEST SWAP2 POP POP SWAP2 SWAP1 POP JUMP JUMPDEST PUSH1 0x6 PUSH1 0x20 MSTORE DUP2 PUSH1 0x0 MSTORE PUSH1 0x40 PUSH1 0x0 KECCAK256 PUSH1 0x20 MSTORE DUP1 PUSH1 0x0 MSTORE PUSH1 0x40 PUSH1 0x0 KECCAK256 PUSH1 0x0 SWAP2 POP SWAP2 POP SWAP1 SLOAD SWAP1 PUSH2 0x100 EXP SWAP1 DIV PUSH1 0xFF AND DUP2 JUMP JUMPDEST PUSH2 0x15C7 PUSH2 0xF80 JUMP JUMPDEST PUSH20 0xFFFFFFFFFFFFFFFFFFFFFFFFFFFFFFFFFFFFFFFF AND PUSH2 0x15E5 PUSH2 0x179E JUMP JUMPDEST PUSH20 0xFFFFFFFFFFFFFFFFFFFFFFFFFFFFFFFFFFFFFFFF AND EQ PUSH2 0x163B JUMPI PUSH1 0x40 MLOAD PUSH32 0x8C379A000000000000000000000000000000000000000000000000000000000 DUP2 MSTORE PUSH1 0x4 ADD PUSH2 0x1632 SWAP1 PUSH2 0x255D JUMP JUMPDEST PUSH1 0x40 MLOAD DUP1 SWAP2 SUB SWAP1 REVERT JUMPDEST PUSH1 0x0 PUSH20 0xFFFFFFFFFFFFFFFFFFFFFFFFFFFFFFFFFFFFFFFF AND DUP2 PUSH20 0xFFFFFFFFFFFFFFFFFFFFFFFFFFFFFFFFFFFFFFFF AND EQ ISZERO PUSH2 0x16AB JUMPI PUSH1 0x40 MLOAD PUSH32 0x8C379A000000000000000000000000000000000000000000000000000000000 DUP2 MSTORE PUSH1 0x4 ADD PUSH2 0x16A2 SWAP1 PUSH2 0x265D JUMP JUMPDEST PUSH1 0x40 MLOAD DUP1 SWAP2 SUB SWAP1 REVERT JUMPDEST POP JUMP JUMPDEST PUSH1 0xA PUSH1 0x0 CALLER PUSH20 0xFFFFFFFFFFFFFFFFFFFFFFFFFFFFFFFFFFFFFFFF AND PUSH20 0xFFFFFFFFFFFFFFFFFFFFFFFFFFFFFFFFFFFFFFFF AND DUP2 MSTORE PUSH1 0x20 ADD SWAP1 DUP2 MSTORE PUSH1 0x20 ADD PUSH1 0x0 KECCAK256 PUSH1 0x0 SWAP1 SLOAD SWAP1 PUSH2 0x100 EXP SWAP1 DIV PUSH1 0xFF AND DUP1 PUSH2 0x1738 JUMPI POP PUSH2 0x1709 PUSH2 0xF80 JUMP JUMPDEST PUSH20 0xFFFFFFFFFFFFFFFFFFFFFFFFFFFFFFFFFFFFFFFF AND CALLER PUSH20 0xFFFFFFFFFFFFFFFFFFFFFFFFFFFFFFFFFFFFFFFF AND EQ JUMPDEST PUSH2 0x1777 JUMPI PUSH1 0x40 MLOAD PUSH32 0x8C379A000000000000000000000000000000000000000000000000000000000 DUP2 MSTORE PUSH1 0x4 ADD PUSH2 0x176E SWAP1 PUSH2 0x263D JUMP JUMPDEST PUSH1 0x40 MLOAD DUP1 SWAP2 SUB SWAP1 REVERT JUMPDEST PUSH1 0x8 PUSH1 0x0 DUP2 SLOAD DUP1 SWAP3 SWAP2 SWAP1 PUSH2 0x178A SWAP1 PUSH2 0x29E6 JUMP JUMPDEST SWAP2 SWAP1 POP SSTORE POP PUSH2 0x179B DUP2 PUSH1 0x8 SLOAD PUSH2 0x17A6 JUMP JUMPDEST POP JUMP JUMPDEST PUSH1 0x0 CALLER SWAP1 POP SWAP1 JUMP JUMPDEST PUSH2 0x17B0 DUP3 DUP3 PUSH2 0x1B51 JUMP JUMPDEST PUSH1 0x0 DUP3 PUSH20 0xFFFFFFFFFFFFFFFFFFFFFFFFFFFFFFFFFFFFFFFF AND EXTCODESIZE EQ DUP1 PUSH2 0x18A9 JUMPI POP PUSH4 0x150B7A02 PUSH1 0xE0 SHL PUSH28 0xFFFFFFFFFFFFFFFFFFFFFFFFFFFFFFFFFFFFFFFFFFFFFFFFFFFFFFFF NOT AND DUP3 PUSH20 0xFFFFFFFFFFFFFFFFFFFFFFFFFFFFFFFFFFFFFFFF AND PUSH4 0x150B7A02 CALLER PUSH1 0x0 DUP6 PUSH1 0x40 MLOAD DUP5 PUSH4 0xFFFFFFFF AND PUSH1 0xE0 SHL DUP2 MSTORE PUSH1 0x4 ADD PUSH2 0x1836 SWAP4 SWAP3 SWAP2 SWAP1 PUSH2 0x24AD JUMP JUMPDEST PUSH1 0x20 PUSH1 0x40 MLOAD DUP1 DUP4 SUB DUP2 PUSH1 0x0 DUP8 DUP1 EXTCODESIZE ISZERO DUP1 ISZERO PUSH2 0x1850 JUMPI PUSH1 0x0 DUP1 REVERT JUMPDEST POP GAS CALL ISZERO DUP1 ISZERO PUSH2 0x1864 JUMPI RETURNDATASIZE PUSH1 0x0 DUP1 RETURNDATACOPY RETURNDATASIZE PUSH1 0x0 REVERT JUMPDEST POP POP POP POP PUSH1 0x40 MLOAD RETURNDATASIZE PUSH1 0x1F NOT PUSH1 0x1F DUP3 ADD AND DUP3 ADD DUP1 PUSH1 0x40 MSTORE POP DUP2 ADD SWAP1 PUSH2 0x1888 SWAP2 SWAP1 PUSH2 0x20D7 JUMP JUMPDEST PUSH28 0xFFFFFFFFFFFFFFFFFFFFFFFFFFFFFFFFFFFFFFFFFFFFFFFFFFFFFFFF NOT AND EQ JUMPDEST PUSH2 0x18E8 JUMPI PUSH1 0x40 MLOAD PUSH32 0x8C379A000000000000000000000000000000000000000000000000000000000 DUP2 MSTORE PUSH1 0x4 ADD PUSH2 0x18DF SWAP1 PUSH2 0x25DD JUMP JUMPDEST PUSH1 0x40 MLOAD DUP1 SWAP2 SUB SWAP1 REVERT JUMPDEST POP POP JUMP JUMPDEST PUSH1 0x0 DUP1 PUSH1 0x4 PUSH1 0x0 DUP5 DUP2 MSTORE PUSH1 0x20 ADD SWAP1 DUP2 MSTORE PUSH1 0x20 ADD PUSH1 0x0 KECCAK256 PUSH1 0x0 SWAP1 SLOAD SWAP1 PUSH2 0x100 EXP SWAP1 DIV PUSH20 0xFFFFFFFFFFFFFFFFFFFFFFFFFFFFFFFFFFFFFFFF AND SWAP1 POP PUSH1 0x0 PUSH20 0xFFFFFFFFFFFFFFFFFFFFFFFFFFFFFFFFFFFFFFFF AND DUP2 PUSH20 0xFFFFFFFFFFFFFFFFFFFFFFFFFFFFFFFFFFFFFFFF AND EQ ISZERO SWAP2 POP POP SWAP2 SWAP1 POP JUMP JUMPDEST PUSH1 0x60 PUSH1 0x7 DUP1 SLOAD PUSH2 0x196D SWAP1 PUSH2 0x2983 JUMP JUMPDEST DUP1 PUSH1 0x1F ADD PUSH1 0x20 DUP1 SWAP2 DIV MUL PUSH1 0x20 ADD PUSH1 0x40 MLOAD SWAP1 DUP2 ADD PUSH1 0x40 MSTORE DUP1 SWAP3 SWAP2 SWAP1 DUP2 DUP2 MSTORE PUSH1 0x20 ADD DUP3 DUP1 SLOAD PUSH2 0x1999 SWAP1 PUSH2 0x2983 JUMP JUMPDEST DUP1 ISZERO PUSH2 0x19E6 JUMPI DUP1 PUSH1 0x1F LT PUSH2 0x19BB JUMPI PUSH2 0x100 DUP1 DUP4 SLOAD DIV MUL DUP4 MSTORE SWAP2 PUSH1 0x20 ADD SWAP2 PUSH2 0x19E6 JUMP JUMPDEST DUP3 ADD SWAP2 SWAP1 PUSH1 0x0 MSTORE PUSH1 0x20 PUSH1 0x0 KECCAK256 SWAP1 JUMPDEST DUP2 SLOAD DUP2 MSTORE SWAP1 PUSH1 0x1 ADD SWAP1 PUSH1 0x20 ADD DUP1 DUP4 GT PUSH2 0x19C9 JUMPI DUP3 SWAP1 SUB PUSH1 0x1F AND DUP3 ADD SWAP2 JUMPDEST POP POP POP POP POP SWAP1 POP SWAP1 JUMP JUMPDEST PUSH1 0x60 PUSH1 0x0 DUP3 EQ ISZERO PUSH2 0x1A38 JUMPI PUSH1 0x40 MLOAD DUP1 PUSH1 0x40 ADD PUSH1 0x40 MSTORE DUP1 PUSH1 0x1 DUP2 MSTORE PUSH1 0x20 ADD PUSH32 0x3000000000000000000000000000000000000000000000000000000000000000 DUP2 MSTORE POP SWAP1 POP PUSH2 0x1B4C JUMP JUMPDEST PUSH1 0x0 DUP3 SWAP1 POP PUSH1 0x0 JUMPDEST PUSH1 0x0 DUP3 EQ PUSH2 0x1A6A JUMPI DUP1 DUP1 PUSH2 0x1A53 SWAP1 PUSH2 0x29E6 JUMP JUMPDEST SWAP2 POP POP PUSH1 0xA DUP3 PUSH2 0x1A63 SWAP2 SWAP1 PUSH2 0x27E2 JUMP JUMPDEST SWAP2 POP PUSH2 0x1A40 JUMP JUMPDEST PUSH1 0x0 DUP2 PUSH8 0xFFFFFFFFFFFFFFFF DUP2 GT ISZERO PUSH2 0x1A86 JUMPI PUSH2 0x1A85 PUSH2 0x2B4D JUMP JUMPDEST JUMPDEST PUSH1 0x40 MLOAD SWAP1 DUP1 DUP3 MSTORE DUP1 PUSH1 0x1F ADD PUSH1 0x1F NOT AND PUSH1 0x20 ADD DUP3 ADD PUSH1 0x40 MSTORE DUP1 ISZERO PUSH2 0x1AB8 JUMPI DUP2 PUSH1 0x20 ADD PUSH1 0x1 DUP3 MUL DUP1 CALLDATASIZE DUP4 CALLDATACOPY DUP1 DUP3 ADD SWAP2 POP POP SWAP1 POP JUMPDEST POP SWAP1 POP JUMPDEST PUSH1 0x0 DUP6 EQ PUSH2 0x1B45 JUMPI PUSH1 0x1 DUP3 PUSH2 0x1AD1 SWAP2 SWAP1 PUSH2 0x286D JUMP JUMPDEST SWAP2 POP PUSH1 0xA DUP6 PUSH2 0x1AE0 SWAP2 SWAP1 PUSH2 0x2A60 JUMP JUMPDEST PUSH1 0x30 PUSH2 0x1AEC SWAP2 SWAP1 PUSH2 0x278C JUMP JUMPDEST PUSH1 0xF8 SHL DUP2 DUP4 DUP2 MLOAD DUP2 LT PUSH2 0x1B02 JUMPI PUSH2 0x1B01 PUSH2 0x2B1E JUMP JUMPDEST JUMPDEST PUSH1 0x20 ADD ADD SWAP1 PUSH31 0xFFFFFFFFFFFFFFFFFFFFFFFFFFFFFFFFFFFFFFFFFFFFFFFFFFFFFFFFFFFFFF NOT AND SWAP1 DUP2 PUSH1 0x0 BYTE SWAP1 MSTORE8 POP PUSH1 0xA DUP6 PUSH2 0x1B3E SWAP2 SWAP1 PUSH2 0x27E2 JUMP JUMPDEST SWAP5 POP PUSH2 0x1ABC JUMP JUMPDEST DUP1 SWAP4 POP POP POP POP JUMPDEST SWAP2 SWAP1 POP JUMP JUMPDEST PUSH1 0x0 PUSH20 0xFFFFFFFFFFFFFFFFFFFFFFFFFFFFFFFFFFFFFFFF AND DUP3 PUSH20 0xFFFFFFFFFFFFFFFFFFFFFFFFFFFFFFFFFFFFFFFF AND EQ ISZERO PUSH2 0x1BC1 JUMPI PUSH1 0x40 MLOAD PUSH32 0x8C379A000000000000000000000000000000000000000000000000000000000 DUP2 MSTORE PUSH1 0x4 ADD PUSH2 0x1BB8 SWAP1 PUSH2 0x25BD JUMP JUMPDEST PUSH1 0x40 MLOAD DUP1 SWAP2 SUB SWAP1 REVERT JUMPDEST PUSH1 0x0 PUSH20 0xFFFFFFFFFFFFFFFFFFFFFFFFFFFFFFFFFFFFFFFF AND PUSH1 0x4 PUSH1 0x0 DUP4 DUP2 MSTORE PUSH1 0x20 ADD SWAP1 DUP2 MSTORE PUSH1 0x20 ADD PUSH1 0x0 KECCAK256 PUSH1 0x0 SWAP1 SLOAD SWAP1 PUSH2 0x100 EXP SWAP1 DIV PUSH20 0xFFFFFFFFFFFFFFFFFFFFFFFFFFFFFFFFFFFFFFFF AND PUSH20 0xFFFFFFFFFFFFFFFFFFFFFFFFFFFFFFFFFFFFFFFF AND EQ PUSH2 0x1C63 JUMPI PUSH1 0x40 MLOAD PUSH32 0x8C379A000000000000000000000000000000000000000000000000000000000 DUP2 MSTORE PUSH1 0x4 ADD PUSH2 0x1C5A SWAP1 PUSH2 0x267D JUMP JUMPDEST PUSH1 0x40 MLOAD DUP1 SWAP2 SUB SWAP1 REVERT JUMPDEST PUSH1 0x3 PUSH1 0x0 DUP4 PUSH20 0xFFFFFFFFFFFFFFFFFFFFFFFFFFFFFFFFFFFFFFFF AND PUSH20 0xFFFFFFFFFFFFFFFFFFFFFFFFFFFFFFFFFFFFFFFF AND DUP2 MSTORE PUSH1 0x20 ADD SWAP1 DUP2 MSTORE PUSH1 0x20 ADD PUSH1 0x0 KECCAK256 PUSH1 0x0 DUP2 SLOAD DUP1 SWAP3 SWAP2 SWAP1 PUSH1 0x1 ADD SWAP2 SWAP1 POP SSTORE POP DUP2 PUSH1 0x4 PUSH1 0x0 DUP4 DUP2 MSTORE PUSH1 0x20 ADD SWAP1 DUP2 MSTORE PUSH1 0x20 ADD PUSH1 0x0 KECCAK256 PUSH1 0x0 PUSH2 0x100 EXP DUP2 SLOAD DUP2 PUSH20 0xFFFFFFFFFFFFFFFFFFFFFFFFFFFFFFFFFFFFFFFF MUL NOT AND SWAP1 DUP4 PUSH20 0xFFFFFFFFFFFFFFFFFFFFFFFFFFFFFFFFFFFFFFFF AND MUL OR SWAP1 SSTORE POP DUP1 DUP3 PUSH20 0xFFFFFFFFFFFFFFFFFFFFFFFFFFFFFFFFFFFFFFFF AND PUSH1 0x0 PUSH20 0xFFFFFFFFFFFFFFFFFFFFFFFFFFFFFFFFFFFFFFFF AND PUSH32 0xDDF252AD1BE2C89B69C2B068FC378DAA952BA7F163C4A11628F55A4DF523B3EF PUSH1 0x40 MLOAD PUSH1 0x40 MLOAD DUP1 SWAP2 SUB SWAP1 LOG4 POP POP JUMP JUMPDEST PUSH1 0x0 PUSH2 0x1D77 PUSH2 0x1D72 DUP5 PUSH2 0x2718 JUMP JUMPDEST PUSH2 0x26F3 JUMP JUMPDEST SWAP1 POP DUP3 DUP2 MSTORE PUSH1 0x20 DUP2 ADD DUP5 DUP5 DUP5 ADD GT ISZERO PUSH2 0x1D93 JUMPI PUSH2 0x1D92 PUSH2 0x2B81 JUMP JUMPDEST JUMPDEST PUSH2 0x1D9E DUP5 DUP3 DUP6 PUSH2 0x2941 JUMP JUMPDEST POP SWAP4 SWAP3 POP POP POP JUMP JUMPDEST PUSH1 0x0 DUP2 CALLDATALOAD SWAP1 POP PUSH2 0x1DB5 DUP2 PUSH2 0x2D90 JUMP JUMPDEST SWAP3 SWAP2 POP POP JUMP JUMPDEST PUSH1 0x0 DUP2 CALLDATALOAD SWAP1 POP PUSH2 0x1DCA DUP2 PUSH2 0x2DA7 JUMP JUMPDEST SWAP3 SWAP2 POP POP JUMP JUMPDEST PUSH1 0x0 DUP2 CALLDATALOAD SWAP1 POP PUSH2 0x1DDF DUP2 PUSH2 0x2DBE JUMP JUMPDEST SWAP3 SWAP2 POP POP JUMP JUMPDEST PUSH1 0x0 DUP2 MLOAD SWAP1 POP PUSH2 0x1DF4 DUP2 PUSH2 0x2DBE JUMP JUMPDEST SWAP3 SWAP2 POP POP JUMP JUMPDEST PUSH1 0x0 DUP3 PUSH1 0x1F DUP4 ADD SLT PUSH2 0x1E0F JUMPI PUSH2 0x1E0E PUSH2 0x2B7C JUMP JUMPDEST JUMPDEST DUP2 CALLDATALOAD PUSH2 0x1E1F DUP5 DUP3 PUSH1 0x20 DUP7 ADD PUSH2 0x1D64 JUMP JUMPDEST SWAP2 POP POP SWAP3 SWAP2 POP POP JUMP JUMPDEST PUSH1 0x0 DUP2 CALLDATALOAD SWAP1 POP PUSH2 0x1E37 DUP2 PUSH2 0x2DD5 JUMP JUMPDEST SWAP3 SWAP2 POP POP JUMP JUMPDEST PUSH1 0x0 DUP2 CALLDATALOAD SWAP1 POP PUSH2 0x1E4C DUP2 PUSH2 0x2DEC JUMP JUMPDEST SWAP3 SWAP2 POP POP JUMP JUMPDEST PUSH1 0x0 DUP2 CALLDATALOAD SWAP1 POP PUSH2 0x1E61 DUP2 PUSH2 0x2E03 JUMP JUMPDEST SWAP3 SWAP2 POP POP JUMP JUMPDEST PUSH1 0x0 PUSH1 0x20 DUP3 DUP5 SUB SLT ISZERO PUSH2 0x1E7D JUMPI PUSH2 0x1E7C PUSH2 0x2B8B JUMP JUMPDEST JUMPDEST PUSH1 0x0 PUSH2 0x1E8B DUP5 DUP3 DUP6 ADD PUSH2 0x1DA6 JUMP JUMPDEST SWAP2 POP POP SWAP3 SWAP2 POP POP JUMP JUMPDEST PUSH1 0x0 DUP1 PUSH1 0x40 DUP4 DUP6 SUB SLT ISZERO PUSH2 0x1EAB JUMPI PUSH2 0x1EAA PUSH2 0x2B8B JUMP JUMPDEST JUMPDEST PUSH1 0x0 PUSH2 0x1EB9 DUP6 DUP3 DUP7 ADD PUSH2 0x1DA6 JUMP JUMPDEST SWAP3 POP POP PUSH1 0x20 PUSH2 0x1ECA DUP6 DUP3 DUP7 ADD PUSH2 0x1DA6 JUMP JUMPDEST SWAP2 POP POP SWAP3 POP SWAP3 SWAP1 POP JUMP JUMPDEST PUSH1 0x0 DUP1 PUSH1 0x0 PUSH1 0x60 DUP5 DUP7 SUB SLT ISZERO PUSH2 0x1EED JUMPI PUSH2 0x1EEC PUSH2 0x2B8B JUMP JUMPDEST JUMPDEST PUSH1 0x0 PUSH2 0x1EFB DUP7 DUP3 DUP8 ADD PUSH2 0x1DA6 JUMP JUMPDEST SWAP4 POP POP PUSH1 0x20 PUSH2 0x1F0C DUP7 DUP3 DUP8 ADD PUSH2 0x1DA6 JUMP JUMPDEST SWAP3 POP POP PUSH1 0x40 PUSH2 0x1F1D DUP7 DUP3 DUP8 ADD PUSH2 0x1E28 JUMP JUMPDEST SWAP2 POP POP SWAP3 POP SWAP3 POP SWAP3 JUMP JUMPDEST PUSH1 0x0 DUP1 PUSH1 0x0 DUP1 PUSH1 0x80 DUP6 DUP8 SUB SLT ISZERO PUSH2 0x1F41 JUMPI PUSH2 0x1F40 PUSH2 0x2B8B JUMP JUMPDEST JUMPDEST PUSH1 0x0 PUSH2 0x1F4F DUP8 DUP3 DUP9 ADD PUSH2 0x1DA6 JUMP JUMPDEST SWAP5 POP POP PUSH1 0x20 PUSH2 0x1F60 DUP8 DUP3 DUP9 ADD PUSH2 0x1DA6 JUMP JUMPDEST SWAP4 POP POP PUSH1 0x40 PUSH2 0x1F71 DUP8 DUP3 DUP9 ADD PUSH2 0x1E28 JUMP JUMPDEST SWAP3 POP POP PUSH1 0x60 DUP6 ADD CALLDATALOAD PUSH8 0xFFFFFFFFFFFFFFFF DUP2 GT ISZERO PUSH2 0x1F92 JUMPI PUSH2 0x1F91 PUSH2 0x2B86 JUMP JUMPDEST JUMPDEST PUSH2 0x1F9E DUP8 DUP3 DUP9 ADD PUSH2 0x1DFA JUMP JUMPDEST SWAP2 POP POP SWAP3 SWAP6 SWAP2 SWAP5 POP SWAP3 POP JUMP JUMPDEST PUSH1 0x0 DUP1 PUSH1 0x40 DUP4 DUP6 SUB SLT ISZERO PUSH2 0x1FC1 JUMPI PUSH2 0x1FC0 PUSH2 0x2B8B JUMP JUMPDEST JUMPDEST PUSH1 0x0 PUSH2 0x1FCF DUP6 DUP3 DUP7 ADD PUSH2 0x1DA6 JUMP JUMPDEST SWAP3 POP POP PUSH1 0x20 PUSH2 0x1FE0 DUP6 DUP3 DUP7 ADD PUSH2 0x1DBB JUMP JUMPDEST SWAP2 POP POP SWAP3 POP SWAP3 SWAP1 POP JUMP JUMPDEST PUSH1 0x0 DUP1 PUSH1 0x40 DUP4 DUP6 SUB SLT ISZERO PUSH2 0x2001 JUMPI PUSH2 0x2000 PUSH2 0x2B8B JUMP JUMPDEST JUMPDEST PUSH1 0x0 PUSH2 0x200F DUP6 DUP3 DUP7 ADD PUSH2 0x1DA6 JUMP JUMPDEST SWAP3 POP POP PUSH1 0x20 PUSH2 0x2020 DUP6 DUP3 DUP7 ADD PUSH2 0x1E28 JUMP JUMPDEST SWAP2 POP POP SWAP3 POP SWAP3 SWAP1 POP JUMP JUMPDEST PUSH1 0x0 DUP1 PUSH1 0x40 DUP4 DUP6 SUB SLT ISZERO PUSH2 0x2041 JUMPI PUSH2 0x2040 PUSH2 0x2B8B JUMP JUMPDEST JUMPDEST PUSH1 0x0 PUSH2 0x204F DUP6 DUP3 DUP7 ADD PUSH2 0x1DA6 JUMP JUMPDEST SWAP3 POP POP PUSH1 0x20 PUSH2 0x2060 DUP6 DUP3 DUP7 ADD PUSH2 0x1E3D JUMP JUMPDEST SWAP2 POP POP SWAP3 POP SWAP3 SWAP1 POP JUMP JUMPDEST PUSH1 0x0 DUP1 PUSH1 0x40 DUP4 DUP6 SUB SLT ISZERO PUSH2 0x2081 JUMPI PUSH2 0x2080 PUSH2 0x2B8B JUMP JUMPDEST JUMPDEST PUSH1 0x0 PUSH2 0x208F DUP6 DUP3 DUP7 ADD PUSH2 0x1DA6 JUMP JUMPDEST SWAP3 POP POP PUSH1 0x20 PUSH2 0x20A0 DUP6 DUP3 DUP7 ADD PUSH2 0x1E52 JUMP JUMPDEST SWAP2 POP POP SWAP3 POP SWAP3 SWAP1 POP JUMP JUMPDEST PUSH1 0x0 PUSH1 0x20 DUP3 DUP5 SUB SLT ISZERO PUSH2 0x20C0 JUMPI PUSH2 0x20BF PUSH2 0x2B8B JUMP JUMPDEST JUMPDEST PUSH1 0x0 PUSH2 0x20CE DUP5 DUP3 DUP6 ADD PUSH2 0x1DD0 JUMP JUMPDEST SWAP2 POP POP SWAP3 SWAP2 POP POP JUMP JUMPDEST PUSH1 0x0 PUSH1 0x20 DUP3 DUP5 SUB SLT ISZERO PUSH2 0x20ED JUMPI PUSH2 0x20EC PUSH2 0x2B8B JUMP JUMPDEST JUMPDEST PUSH1 0x0 PUSH2 0x20FB DUP5 DUP3 DUP6 ADD PUSH2 0x1DE5 JUMP JUMPDEST SWAP2 POP POP SWAP3 SWAP2 POP POP JUMP JUMPDEST PUSH1 0x0 PUSH1 0x20 DUP3 DUP5 SUB SLT ISZERO PUSH2 0x211A JUMPI PUSH2 0x2119 PUSH2 0x2B8B JUMP JUMPDEST JUMPDEST PUSH1 0x0 PUSH2 0x2128 DUP5 DUP3 DUP6 ADD PUSH2 0x1E28 JUMP JUMPDEST SWAP2 POP POP SWAP3 SWAP2 POP POP JUMP JUMPDEST PUSH1 0x0 DUP1 PUSH1 0x40 DUP4 DUP6 SUB SLT ISZERO PUSH2 0x2148 JUMPI PUSH2 0x2147 PUSH2 0x2B8B JUMP JUMPDEST JUMPDEST PUSH1 0x0 PUSH2 0x2156 DUP6 DUP3 DUP7 ADD PUSH2 0x1E28 JUMP JUMPDEST SWAP3 POP POP PUSH1 0x20 PUSH2 0x2167 DUP6 DUP3 DUP7 ADD PUSH2 0x1E28 JUMP JUMPDEST SWAP2 POP POP SWAP3 POP SWAP3 SWAP1 POP JUMP JUMPDEST PUSH2 0x217A DUP2 PUSH2 0x28A1 JUMP JUMPDEST DUP3 MSTORE POP POP JUMP JUMPDEST PUSH2 0x2189 DUP2 PUSH2 0x28B3 JUMP JUMPDEST DUP3 MSTORE POP POP JUMP JUMPDEST PUSH1 0x0 PUSH2 0x219A DUP3 PUSH2 0x2749 JUMP JUMPDEST PUSH2 0x21A4 DUP2 DUP6 PUSH2 0x275F JUMP JUMPDEST SWAP4 POP PUSH2 0x21B4 DUP2 DUP6 PUSH1 0x20 DUP7 ADD PUSH2 0x2950 JUMP JUMPDEST PUSH2 0x21BD DUP2 PUSH2 0x2B90 JUMP JUMPDEST DUP5 ADD SWAP2 POP POP SWAP3 SWAP2 POP POP JUMP JUMPDEST PUSH1 0x0 PUSH2 0x21D3 DUP3 PUSH2 0x2754 JUMP JUMPDEST PUSH2 0x21DD DUP2 DUP6 PUSH2 0x2770 JUMP JUMPDEST SWAP4 POP PUSH2 0x21ED DUP2 DUP6 PUSH1 0x20 DUP7 ADD PUSH2 0x2950 JUMP JUMPDEST PUSH2 0x21F6 DUP2 PUSH2 0x2B90 JUMP JUMPDEST DUP5 ADD SWAP2 POP POP SWAP3 SWAP2 POP POP JUMP JUMPDEST PUSH1 0x0 PUSH2 0x220C DUP3 PUSH2 0x2754 JUMP JUMPDEST PUSH2 0x2216 DUP2 DUP6 PUSH2 0x2781 JUMP JUMPDEST SWAP4 POP PUSH2 0x2226 DUP2 DUP6 PUSH1 0x20 DUP7 ADD PUSH2 0x2950 JUMP JUMPDEST DUP1 DUP5 ADD SWAP2 POP POP SWAP3 SWAP2 POP POP JUMP JUMPDEST PUSH1 0x0 PUSH2 0x223F PUSH1 0x17 DUP4 PUSH2 0x2770 JUMP JUMPDEST SWAP2 POP PUSH2 0x224A DUP3 PUSH2 0x2BA1 JUMP JUMPDEST PUSH1 0x20 DUP3 ADD SWAP1 POP SWAP2 SWAP1 POP JUMP JUMPDEST PUSH1 0x0 PUSH2 0x2262 PUSH1 0x8 DUP4 PUSH2 0x2770 JUMP JUMPDEST SWAP2 POP PUSH2 0x226D DUP3 PUSH2 0x2BCA JUMP JUMPDEST PUSH1 0x20 DUP3 ADD SWAP1 POP SWAP2 SWAP1 POP JUMP JUMPDEST PUSH1 0x0 PUSH2 0x2285 PUSH1 0xA DUP4 PUSH2 0x2770 JUMP JUMPDEST SWAP2 POP PUSH2 0x2290 DUP3 PUSH2 0x2BF3 JUMP JUMPDEST PUSH1 0x20 DUP3 ADD SWAP1 POP SWAP2 SWAP1 POP JUMP JUMPDEST PUSH1 0x0 PUSH2 0x22A8 PUSH1 0xA DUP4 PUSH2 0x2770 JUMP JUMPDEST SWAP2 POP PUSH2 0x22B3 DUP3 PUSH2 0x2C1C JUMP JUMPDEST PUSH1 0x20 DUP3 ADD SWAP1 POP SWAP2 SWAP1 POP JUMP JUMPDEST PUSH1 0x0 PUSH2 0x22CB PUSH1 0x10 DUP4 PUSH2 0x2770 JUMP JUMPDEST SWAP2 POP PUSH2 0x22D6 DUP3 PUSH2 0x2C45 JUMP JUMPDEST PUSH1 0x20 DUP3 ADD SWAP1 POP SWAP2 SWAP1 POP JUMP JUMPDEST PUSH1 0x0 PUSH2 0x22EE PUSH1 0x5 DUP4 PUSH2 0x2781 JUMP JUMPDEST SWAP2 POP PUSH2 0x22F9 DUP3 PUSH2 0x2C6E JUMP JUMPDEST PUSH1 0x5 DUP3 ADD SWAP1 POP SWAP2 SWAP1 POP JUMP JUMPDEST PUSH1 0x0 PUSH2 0x2311 PUSH1 0x1C DUP4 PUSH2 0x2770 JUMP JUMPDEST SWAP2 POP PUSH2 0x231C DUP3 PUSH2 0x2C97 JUMP JUMPDEST PUSH1 0x20 DUP3 ADD SWAP1 POP SWAP2 SWAP1 POP JUMP JUMPDEST PUSH1 0x0 PUSH2 0x2334 PUSH1 0x0 DUP4 PUSH2 0x275F JUMP JUMPDEST SWAP2 POP PUSH2 0x233F DUP3 PUSH2 0x2CC0 JUMP JUMPDEST PUSH1 0x0 DUP3 ADD SWAP1 POP SWAP2 SWAP1 POP JUMP JUMPDEST PUSH1 0x0 PUSH2 0x2357 PUSH1 0xE DUP4 PUSH2 0x2770 JUMP JUMPDEST SWAP2 POP PUSH2 0x2362 DUP3 PUSH2 0x2CC3 JUMP JUMPDEST PUSH1 0x20 DUP3 ADD SWAP1 POP SWAP2 SWAP1 POP JUMP JUMPDEST PUSH1 0x0 PUSH2 0x237A PUSH1 0xB DUP4 PUSH2 0x2770 JUMP JUMPDEST SWAP2 POP PUSH2 0x2385 DUP3 PUSH2 0x2CEC JUMP JUMPDEST PUSH1 0x20 DUP3 ADD SWAP1 POP SWAP2 SWAP1 POP JUMP JUMPDEST PUSH1 0x0 PUSH2 0x239D PUSH1 0x1C DUP4 PUSH2 0x2770 JUMP JUMPDEST SWAP2 POP PUSH2 0x23A8 DUP3 PUSH2 0x2D15 JUMP JUMPDEST PUSH1 0x20 DUP3 ADD SWAP1 POP SWAP2 SWAP1 POP JUMP JUMPDEST PUSH1 0x0 PUSH2 0x23C0 PUSH1 0xE DUP4 PUSH2 0x2770 JUMP JUMPDEST SWAP2 POP PUSH2 0x23CB DUP3 PUSH2 0x2D3E JUMP JUMPDEST PUSH1 0x20 DUP3 ADD SWAP1 POP SWAP2 SWAP1 POP JUMP JUMPDEST PUSH1 0x0 PUSH2 0x23E3 PUSH1 0xE DUP4 PUSH2 0x2770 JUMP JUMPDEST SWAP2 POP PUSH2 0x23EE DUP3 PUSH2 0x2D67 JUMP JUMPDEST PUSH1 0x20 DUP3 ADD SWAP1 POP SWAP2 SWAP1 POP JUMP JUMPDEST PUSH2 0x2402 DUP2 PUSH2 0x290B JUMP JUMPDEST DUP3 MSTORE POP POP JUMP JUMPDEST PUSH2 0x2411 DUP2 PUSH2 0x2929 JUMP JUMPDEST DUP3 MSTORE POP POP JUMP JUMPDEST PUSH1 0x0 PUSH2 0x2423 DUP3 DUP6 PUSH2 0x2201 JUMP JUMPDEST SWAP2 POP PUSH2 0x242F DUP3 DUP5 PUSH2 0x2201 JUMP JUMPDEST SWAP2 POP PUSH2 0x243A DUP3 PUSH2 0x22E1 JUMP JUMPDEST SWAP2 POP DUP2 SWAP1 POP SWAP4 SWAP3 POP POP POP JUMP JUMPDEST PUSH1 0x0 PUSH1 0x20 DUP3 ADD SWAP1 POP PUSH2 0x245B PUSH1 0x0 DUP4 ADD DUP5 PUSH2 0x2171 JUMP JUMPDEST SWAP3 SWAP2 POP POP JUMP JUMPDEST PUSH1 0x0 PUSH1 0x80 DUP3 ADD SWAP1 POP PUSH2 0x2476 PUSH1 0x0 DUP4 ADD DUP8 PUSH2 0x2171 JUMP JUMPDEST PUSH2 0x2483 PUSH1 0x20 DUP4 ADD DUP7 PUSH2 0x2171 JUMP JUMPDEST PUSH2 0x2490 PUSH1 0x40 DUP4 ADD DUP6 PUSH2 0x23F9 JUMP JUMPDEST DUP2 DUP2 SUB PUSH1 0x60 DUP4 ADD MSTORE PUSH2 0x24A2 DUP2 DUP5 PUSH2 0x218F JUMP JUMPDEST SWAP1 POP SWAP6 SWAP5 POP POP POP POP POP JUMP JUMPDEST PUSH1 0x0 PUSH1 0x80 DUP3 ADD SWAP1 POP PUSH2 0x24C2 PUSH1 0x0 DUP4 ADD DUP7 PUSH2 0x2171 JUMP JUMPDEST PUSH2 0x24CF PUSH1 0x20 DUP4 ADD DUP6 PUSH2 0x2171 JUMP JUMPDEST PUSH2 0x24DC PUSH1 0x40 DUP4 ADD DUP5 PUSH2 0x23F9 JUMP JUMPDEST DUP2 DUP2 SUB PUSH1 0x60 DUP4 ADD MSTORE PUSH2 0x24ED DUP2 PUSH2 0x2327 JUMP JUMPDEST SWAP1 POP SWAP5 SWAP4 POP POP POP POP JUMP JUMPDEST PUSH1 0x0 PUSH1 0x40 DUP3 ADD SWAP1 POP PUSH2 0x250C PUSH1 0x0 DUP4 ADD DUP6 PUSH2 0x2171 JUMP JUMPDEST PUSH2 0x2519 PUSH1 0x20 DUP4 ADD DUP5 PUSH2 0x23F9 JUMP JUMPDEST SWAP4 SWAP3 POP POP POP JUMP JUMPDEST PUSH1 0x0 PUSH1 0x20 DUP3 ADD SWAP1 POP PUSH2 0x2535 PUSH1 0x0 DUP4 ADD DUP5 PUSH2 0x2180 JUMP JUMPDEST SWAP3 SWAP2 POP POP JUMP JUMPDEST PUSH1 0x0 PUSH1 0x20 DUP3 ADD SWAP1 POP DUP2 DUP2 SUB PUSH1 0x0 DUP4 ADD MSTORE PUSH2 0x2555 DUP2 DUP5 PUSH2 0x21C8 JUMP JUMPDEST SWAP1 POP SWAP3 SWAP2 POP POP JUMP JUMPDEST PUSH1 0x0 PUSH1 0x20 DUP3 ADD SWAP1 POP DUP2 DUP2 SUB PUSH1 0x0 DUP4 ADD MSTORE PUSH2 0x2576 DUP2 PUSH2 0x2232 JUMP JUMPDEST SWAP1 POP SWAP2 SWAP1 POP JUMP JUMPDEST PUSH1 0x0 PUSH1 0x20 DUP3 ADD SWAP1 POP DUP2 DUP2 SUB PUSH1 0x0 DUP4 ADD MSTORE PUSH2 0x2596 DUP2 PUSH2 0x2255 JUMP JUMPDEST SWAP1 POP SWAP2 SWAP1 POP JUMP JUMPDEST PUSH1 0x0 PUSH1 0x20 DUP3 ADD SWAP1 POP DUP2 DUP2 SUB PUSH1 0x0 DUP4 ADD MSTORE PUSH2 0x25B6 DUP2 PUSH2 0x2278 JUMP JUMPDEST SWAP1 POP SWAP2 SWAP1 POP JUMP JUMPDEST PUSH1 0x0 PUSH1 0x20 DUP3 ADD SWAP1 POP DUP2 DUP2 SUB PUSH1 0x0 DUP4 ADD MSTORE PUSH2 0x25D6 DUP2 PUSH2 0x229B JUMP JUMPDEST SWAP1 POP SWAP2 SWAP1 POP JUMP JUMPDEST PUSH1 0x0 PUSH1 0x20 DUP3 ADD SWAP1 POP DUP2 DUP2 SUB PUSH1 0x0 DUP4 ADD MSTORE PUSH2 0x25F6 DUP2 PUSH2 0x22BE JUMP JUMPDEST SWAP1 POP SWAP2 SWAP1 POP JUMP JUMPDEST PUSH1 0x0 PUSH1 0x20 DUP3 ADD SWAP1 POP DUP2 DUP2 SUB PUSH1 0x0 DUP4 ADD MSTORE PUSH2 0x2616 DUP2 PUSH2 0x2304 JUMP JUMPDEST SWAP1 POP SWAP2 SWAP1 POP JUMP JUMPDEST PUSH1 0x0 PUSH1 0x20 DUP3 ADD SWAP1 POP DUP2 DUP2 SUB PUSH1 0x0 DUP4 ADD MSTORE PUSH2 0x2636 DUP2 PUSH2 0x234A JUMP JUMPDEST SWAP1 POP SWAP2 SWAP1 POP JUMP JUMPDEST PUSH1 0x0 PUSH1 0x20 DUP3 ADD SWAP1 POP DUP2 DUP2 SUB PUSH1 0x0 DUP4 ADD MSTORE PUSH2 0x2656 DUP2 PUSH2 0x236D JUMP JUMPDEST SWAP1 POP SWAP2 SWAP1 POP JUMP JUMPDEST PUSH1 0x0 PUSH1 0x20 DUP3 ADD SWAP1 POP DUP2 DUP2 SUB PUSH1 0x0 DUP4 ADD MSTORE PUSH2 0x2676 DUP2 PUSH2 0x2390 JUMP JUMPDEST SWAP1 POP SWAP2 SWAP1 POP JUMP JUMPDEST PUSH1 0x0 PUSH1 0x20 DUP3 ADD SWAP1 POP DUP2 DUP2 SUB PUSH1 0x0 DUP4 ADD MSTORE PUSH2 0x2696 DUP2 PUSH2 0x23B3 JUMP JUMPDEST SWAP1 POP SWAP2 SWAP1 POP JUMP JUMPDEST PUSH1 0x0 PUSH1 0x20 DUP3 ADD SWAP1 POP DUP2 DUP2 SUB PUSH1 0x0 DUP4 ADD MSTORE PUSH2 0x26B6 DUP2 PUSH2 0x23D6 JUMP JUMPDEST SWAP1 POP SWAP2 SWAP1 POP JUMP JUMPDEST PUSH1 0x0 PUSH1 0x20 DUP3 ADD SWAP1 POP PUSH2 0x26D2 PUSH1 0x0 DUP4 ADD DUP5 PUSH2 0x23F9 JUMP JUMPDEST SWAP3 SWAP2 POP POP JUMP JUMPDEST PUSH1 0x0 PUSH1 0x20 DUP3 ADD SWAP1 POP PUSH2 0x26ED PUSH1 0x0 DUP4 ADD DUP5 PUSH2 0x2408 JUMP JUMPDEST SWAP3 SWAP2 POP POP JUMP JUMPDEST PUSH1 0x0 PUSH2 0x26FD PUSH2 0x270E JUMP JUMPDEST SWAP1 POP PUSH2 0x2709 DUP3 DUP3 PUSH2 0x29B5 JUMP JUMPDEST SWAP2 SWAP1 POP JUMP JUMPDEST PUSH1 0x0 PUSH1 0x40 MLOAD SWAP1 POP SWAP1 JUMP JUMPDEST PUSH1 0x0 PUSH8 0xFFFFFFFFFFFFFFFF DUP3 GT ISZERO PUSH2 0x2733 JUMPI PUSH2 0x2732 PUSH2 0x2B4D JUMP JUMPDEST JUMPDEST PUSH2 0x273C DUP3 PUSH2 0x2B90 JUMP JUMPDEST SWAP1 POP PUSH1 0x20 DUP2 ADD SWAP1 POP SWAP2 SWAP1 POP JUMP JUMPDEST PUSH1 0x0 DUP2 MLOAD SWAP1 POP SWAP2 SWAP1 POP JUMP JUMPDEST PUSH1 0x0 DUP2 MLOAD SWAP1 POP SWAP2 SWAP1 POP JUMP JUMPDEST PUSH1 0x0 DUP3 DUP3 MSTORE PUSH1 0x20 DUP3 ADD SWAP1 POP SWAP3 SWAP2 POP POP JUMP JUMPDEST PUSH1 0x0 DUP3 DUP3 MSTORE PUSH1 0x20 DUP3 ADD SWAP1 POP SWAP3 SWAP2 POP POP JUMP JUMPDEST PUSH1 0x0 DUP2 SWAP1 POP SWAP3 SWAP2 POP POP JUMP JUMPDEST PUSH1 0x0 PUSH2 0x2797 DUP3 PUSH2 0x290B JUMP JUMPDEST SWAP2 POP PUSH2 0x27A2 DUP4 PUSH2 0x290B JUMP JUMPDEST SWAP3 POP DUP3 PUSH32 0xFFFFFFFFFFFFFFFFFFFFFFFFFFFFFFFFFFFFFFFFFFFFFFFFFFFFFFFFFFFFFFFF SUB DUP3 GT ISZERO PUSH2 0x27D7 JUMPI PUSH2 0x27D6 PUSH2 0x2A91 JUMP JUMPDEST JUMPDEST DUP3 DUP3 ADD SWAP1 POP SWAP3 SWAP2 POP POP JUMP JUMPDEST PUSH1 0x0 PUSH2 0x27ED DUP3 PUSH2 0x290B JUMP JUMPDEST SWAP2 POP PUSH2 0x27F8 DUP4 PUSH2 0x290B JUMP JUMPDEST SWAP3 POP DUP3 PUSH2 0x2808 JUMPI PUSH2 0x2807 PUSH2 0x2AC0 JUMP JUMPDEST JUMPDEST DUP3 DUP3 DIV SWAP1 POP SWAP3 SWAP2 POP POP JUMP JUMPDEST PUSH1 0x0 PUSH2 0x281E DUP3 PUSH2 0x290B JUMP JUMPDEST SWAP2 POP PUSH2 0x2829 DUP4 PUSH2 0x290B JUMP JUMPDEST SWAP3 POP DUP2 PUSH32 0xFFFFFFFFFFFFFFFFFFFFFFFFFFFFFFFFFFFFFFFFFFFFFFFFFFFFFFFFFFFFFFFF DIV DUP4 GT DUP3 ISZERO ISZERO AND ISZERO PUSH2 0x2862 JUMPI PUSH2 0x2861 PUSH2 0x2A91 JUMP JUMPDEST JUMPDEST DUP3 DUP3 MUL SWAP1 POP SWAP3 SWAP2 POP POP JUMP JUMPDEST PUSH1 0x0 PUSH2 0x2878 DUP3 PUSH2 0x290B JUMP JUMPDEST SWAP2 POP PUSH2 0x2883 DUP4 PUSH2 0x290B JUMP JUMPDEST SWAP3 POP DUP3 DUP3 LT ISZERO PUSH2 0x2896 JUMPI PUSH2 0x2895 PUSH2 0x2A91 JUMP JUMPDEST JUMPDEST DUP3 DUP3 SUB SWAP1 POP SWAP3 SWAP2 POP POP JUMP JUMPDEST PUSH1 0x0 PUSH2 0x28AC DUP3 PUSH2 0x28EB JUMP JUMPDEST SWAP1 POP SWAP2 SWAP1 POP JUMP JUMPDEST PUSH1 0x0 DUP2 ISZERO ISZERO SWAP1 POP SWAP2 SWAP1 POP JUMP JUMPDEST PUSH1 0x0 PUSH32 0xFFFFFFFF00000000000000000000000000000000000000000000000000000000 DUP3 AND SWAP1 POP SWAP2 SWAP1 POP JUMP JUMPDEST PUSH1 0x0 PUSH20 0xFFFFFFFFFFFFFFFFFFFFFFFFFFFFFFFFFFFFFFFF DUP3 AND SWAP1 POP SWAP2 SWAP1 POP JUMP JUMPDEST PUSH1 0x0 DUP2 SWAP1 POP SWAP2 SWAP1 POP JUMP JUMPDEST PUSH1 0x0 PUSH8 0xFFFFFFFFFFFFFFFF DUP3 AND SWAP1 POP SWAP2 SWAP1 POP JUMP JUMPDEST PUSH1 0x0 PUSH12 0xFFFFFFFFFFFFFFFFFFFFFFFF DUP3 AND SWAP1 POP SWAP2 SWAP1 POP JUMP JUMPDEST DUP3 DUP2 DUP4 CALLDATACOPY PUSH1 0x0 DUP4 DUP4 ADD MSTORE POP POP POP JUMP JUMPDEST PUSH1 0x0 JUMPDEST DUP4 DUP2 LT ISZERO PUSH2 0x296E JUMPI DUP1 DUP3 ADD MLOAD DUP2 DUP5 ADD MSTORE PUSH1 0x20 DUP2 ADD SWAP1 POP PUSH2 0x2953 JUMP JUMPDEST DUP4 DUP2 GT ISZERO PUSH2 0x297D JUMPI PUSH1 0x0 DUP5 DUP5 ADD MSTORE JUMPDEST POP POP POP POP JUMP JUMPDEST PUSH1 0x0 PUSH1 0x2 DUP3 DIV SWAP1 POP PUSH1 0x1 DUP3 AND DUP1 PUSH2 0x299B JUMPI PUSH1 0x7F DUP3 AND SWAP2 POP JUMPDEST PUSH1 0x20 DUP3 LT DUP2 EQ ISZERO PUSH2 0x29AF JUMPI PUSH2 0x29AE PUSH2 0x2AEF JUMP JUMPDEST JUMPDEST POP SWAP2 SWAP1 POP JUMP JUMPDEST PUSH2 0x29BE DUP3 PUSH2 0x2B90 JUMP JUMPDEST DUP2 ADD DUP2 DUP2 LT PUSH8 0xFFFFFFFFFFFFFFFF DUP3 GT OR ISZERO PUSH2 0x29DD JUMPI PUSH2 0x29DC PUSH2 0x2B4D JUMP JUMPDEST JUMPDEST DUP1 PUSH1 0x40 MSTORE POP POP POP JUMP JUMPDEST PUSH1 0x0 PUSH2 0x29F1 DUP3 PUSH2 0x290B JUMP JUMPDEST SWAP2 POP PUSH32 0xFFFFFFFFFFFFFFFFFFFFFFFFFFFFFFFFFFFFFFFFFFFFFFFFFFFFFFFFFFFFFFFF DUP3 EQ ISZERO PUSH2 0x2A24 JUMPI PUSH2 0x2A23 PUSH2 0x2A91 JUMP JUMPDEST JUMPDEST PUSH1 0x1 DUP3 ADD SWAP1 POP SWAP2 SWAP1 POP JUMP JUMPDEST PUSH1 0x0 PUSH2 0x2A3A DUP3 PUSH2 0x2915 JUMP JUMPDEST SWAP2 POP PUSH8 0xFFFFFFFFFFFFFFFF DUP3 EQ ISZERO PUSH2 0x2A55 JUMPI PUSH2 0x2A54 PUSH2 0x2A91 JUMP JUMPDEST JUMPDEST PUSH1 0x1 DUP3 ADD SWAP1 POP SWAP2 SWAP1 POP JUMP JUMPDEST PUSH1 0x0 PUSH2 0x2A6B DUP3 PUSH2 0x290B JUMP JUMPDEST SWAP2 POP PUSH2 0x2A76 DUP4 PUSH2 0x290B JUMP JUMPDEST SWAP3 POP DUP3 PUSH2 0x2A86 JUMPI PUSH2 0x2A85 PUSH2 0x2AC0 JUMP JUMPDEST JUMPDEST DUP3 DUP3 MOD SWAP1 POP SWAP3 SWAP2 POP POP JUMP JUMPDEST PUSH32 0x4E487B7100000000000000000000000000000000000000000000000000000000 PUSH1 0x0 MSTORE PUSH1 0x11 PUSH1 0x4 MSTORE PUSH1 0x24 PUSH1 0x0 REVERT JUMPDEST PUSH32 0x4E487B7100000000000000000000000000000000000000000000000000000000 PUSH1 0x0 MSTORE PUSH1 0x12 PUSH1 0x4 MSTORE PUSH1 0x24 PUSH1 0x0 REVERT JUMPDEST PUSH32 0x4E487B7100000000000000000000000000000000000000000000000000000000 PUSH1 0x0 MSTORE PUSH1 0x22 PUSH1 0x4 MSTORE PUSH1 0x24 PUSH1 0x0 REVERT JUMPDEST PUSH32 0x4E487B7100000000000000000000000000000000000000000000000000000000 PUSH1 0x0 MSTORE PUSH1 0x32 PUSH1 0x4 MSTORE PUSH1 0x24 PUSH1 0x0 REVERT JUMPDEST PUSH32 0x4E487B7100000000000000000000000000000000000000000000000000000000 PUSH1 0x0 MSTORE PUSH1 0x41 PUSH1 0x4 MSTORE PUSH1 0x24 PUSH1 0x0 REVERT JUMPDEST PUSH1 0x0 DUP1 REVERT JUMPDEST PUSH1 0x0 DUP1 REVERT JUMPDEST PUSH1 0x0 DUP1 REVERT JUMPDEST PUSH1 0x0 DUP1 REVERT JUMPDEST PUSH1 0x0 PUSH1 0x1F NOT PUSH1 0x1F DUP4 ADD AND SWAP1 POP SWAP2 SWAP1 POP JUMP JUMPDEST PUSH32 0x43616C6C6572206973206E6F7420746865206F776E6572000000000000000000 PUSH1 0x0 DUP3 ADD MSTORE POP JUMP JUMPDEST PUSH32 0x57524F4E4720544F000000000000000000000000000000000000000000000000 PUSH1 0x0 DUP3 ADD MSTORE POP JUMP JUMPDEST PUSH32 0x57524F4E472046524F4D00000000000000000000000000000000000000000000 PUSH1 0x0 DUP3 ADD MSTORE POP JUMP JUMPDEST PUSH32 0x494E56414C49445F544F00000000000000000000000000000000000000000000 PUSH1 0x0 DUP3 ADD MSTORE POP JUMP JUMPDEST PUSH32 0x554E534146455F524543495049454E5400000000000000000000000000000000 PUSH1 0x0 DUP3 ADD MSTORE POP JUMP JUMPDEST PUSH32 0x2E6A736F6E000000000000000000000000000000000000000000000000000000 PUSH1 0x0 DUP3 ADD MSTORE POP JUMP JUMPDEST PUSH32 0x4E6F20746F6B656E207769746820746869732049642065786973747300000000 PUSH1 0x0 DUP3 ADD MSTORE POP JUMP JUMPDEST POP JUMP JUMPDEST PUSH32 0x4E4F5420415554484F52495A4544000000000000000000000000000000000000 PUSH1 0x0 DUP3 ADD MSTORE POP JUMP JUMPDEST PUSH32 0x4E4F5420414C4C4F574544000000000000000000000000000000000000000000 PUSH1 0x0 DUP3 ADD MSTORE POP JUMP JUMPDEST PUSH32 0x4F776E65722063616E6E6F74206265207A65726F206164647265737300000000 PUSH1 0x0 DUP3 ADD MSTORE POP JUMP JUMPDEST PUSH32 0x414C52454144595F4D494E544544000000000000000000000000000000000000 PUSH1 0x0 DUP3 ADD MSTORE POP JUMP JUMPDEST PUSH32 0x4E6F7420617574686F72697A6564000000000000000000000000000000000000 PUSH1 0x0 DUP3 ADD MSTORE POP JUMP JUMPDEST PUSH2 0x2D99 DUP2 PUSH2 0x28A1 JUMP JUMPDEST DUP2 EQ PUSH2 0x2DA4 JUMPI PUSH1 0x0 DUP1 REVERT JUMPDEST POP JUMP JUMPDEST PUSH2 0x2DB0 DUP2 PUSH2 0x28B3 JUMP JUMPDEST DUP2 EQ PUSH2 0x2DBB JUMPI PUSH1 0x0 DUP1 REVERT JUMPDEST POP JUMP JUMPDEST PUSH2 0x2DC7 DUP2 PUSH2 0x28BF JUMP JUMPDEST DUP2 EQ PUSH2 0x2DD2 JUMPI PUSH1 0x0 DUP1 REVERT JUMPDEST POP JUMP JUMPDEST PUSH2 0x2DDE DUP2 PUSH2 0x290B JUMP JUMPDEST DUP2 EQ PUSH2 0x2DE9 JUMPI PUSH1 0x0 DUP1 REVERT JUMPDEST POP JUMP JUMPDEST PUSH2 0x2DF5 DUP2 PUSH2 0x2915 JUMP JUMPDEST DUP2 EQ PUSH2 0x2E00 JUMPI PUSH1 0x0 DUP1 REVERT JUMPDEST POP JUMP JUMPDEST PUSH2 0x2E0C DUP2 PUSH2 0x2929 JUMP JUMPDEST DUP2 EQ PUSH2 0x2E17 JUMPI PUSH1 0x0 DUP1 REVERT JUMPDEST POP JUMP INVALID LOG2 PUSH5 0x6970667358 0x22 SLT KECCAK256 0x28 0x2A DUP2 PUSH20 0x2AF34E478A1BCEBA8B3190D2A376DB3F8AE0DE16 JUMPDEST NOT 0x5E 0xE8 0xE 0xE6 0xE 0x25 PUSH5 0x736F6C6343 STOP ADDMOD SMOD STOP CALLER "
				},
				"gasEstimates": {
					"creation": {
						"codeDepositCost": "2371200",
						"executionCost": "infinite",
						"totalCost": "infinite"
					},
					"external": {
						"allowMint(address,bool)": "27275",
						"approve(address,uint256)": "31606",
						"balanceOf(address)": "2925",
						"baseURI()": "infinite",
						"calculateRoyalty(uint256)": "infinite",
						"getApproved(uint256)": "2929",
						"isApprovedForAll(address,address)": "infinite",
						"mintMany(address,uint64)": "infinite",
						"mintOne(address)": "infinite",
						"name()": "infinite",
						"owner()": "2545",
						"ownerOf(uint256)": "2906",
						"royaltyAddress()": "2697",
						"royaltyFeesInBips()": "2604",
						"royaltyInfo(uint256,uint256)": "infinite",
						"safeTransferFrom(address,address,uint256)": "infinite",
						"safeTransferFrom(address,address,uint256,bytes)": "infinite",
						"setApprovalForAll(address,bool)": "infinite",
						"setRoyaltyInfo(address,uint96)": "51504",
						"supportsInterface(bytes4)": "788",
						"symbol()": "infinite",
						"tokenURI(uint256)": "infinite",
						"transferFrom(address,address,uint256)": "infinite",
						"transferOwnership(address)": "3130"
					},
					"internal": {
						"_baseURI()": "infinite"
					}
				},
				"methodIdentifiers": {
					"allowMint(address,bool)": "c4e18836",
					"approve(address,uint256)": "095ea7b3",
					"balanceOf(address)": "70a08231",
					"baseURI()": "6c0360eb",
					"calculateRoyalty(uint256)": "a2e69613",
					"getApproved(uint256)": "081812fc",
					"isApprovedForAll(address,address)": "e985e9c5",
					"mintMany(address,uint64)": "a709dc17",
					"mintOne(address)": "fa695a97",
					"name()": "06fdde03",
					"owner()": "8da5cb5b",
					"ownerOf(uint256)": "6352211e",
					"royaltyAddress()": "ad2f852a",
					"royaltyFeesInBips()": "73c7400e",
					"royaltyInfo(uint256,uint256)": "2a55205a",
					"safeTransferFrom(address,address,uint256)": "42842e0e",
					"safeTransferFrom(address,address,uint256,bytes)": "b88d4fde",
					"setApprovalForAll(address,bool)": "a22cb465",
					"setRoyaltyInfo(address,uint96)": "02fa7c47",
					"supportsInterface(bytes4)": "01ffc9a7",
					"symbol()": "95d89b41",
					"tokenURI(uint256)": "c87b56dd",
					"transferFrom(address,address,uint256)": "23b872dd",
					"transferOwnership(address)": "f2fde38b"
				}
			},
			"userdoc": {
				"kind": "user",
				"methods": {},
				"version": 1
			}
		}
	}
}